{
  "contractName": "Call",
  "abi": [
    {
      "constant": true,
      "inputs": [
        {
          "name": "c",
          "type": "address"
        },
        {
          "name": "_method",
          "type": "bytes"
        }
      ],
      "name": "params0",
      "outputs": [
        {
          "name": "answer",
          "type": "uint256"
        }
      ],
      "payable": false,
      "stateMutability": "view",
      "type": "function"
    },
    {
      "constant": true,
      "inputs": [
        {
          "name": "c",
          "type": "address"
        },
        {
          "name": "_method",
          "type": "bytes"
        },
        {
          "name": "_val",
          "type": "uint256"
        }
      ],
      "name": "params1",
      "outputs": [
        {
          "name": "answer",
          "type": "uint256"
        }
      ],
      "payable": false,
      "stateMutability": "view",
      "type": "function"
    },
    {
      "constant": true,
      "inputs": [
        {
          "name": "c",
          "type": "address"
        },
        {
          "name": "_method",
          "type": "bytes"
        },
        {
          "name": "_val1",
          "type": "uint256"
        },
        {
          "name": "_val2",
          "type": "uint256"
        }
      ],
      "name": "params2",
      "outputs": [
        {
          "name": "answer",
          "type": "uint256"
        }
      ],
      "payable": false,
      "stateMutability": "view",
      "type": "function"
    },
    {
      "constant": true,
      "inputs": [
        {
          "name": "sig",
          "type": "bytes"
        },
        {
          "name": "idx",
          "type": "uint256"
        }
      ],
      "name": "loadAddress",
      "outputs": [
        {
          "name": "",
          "type": "address"
        }
      ],
      "payable": false,
      "stateMutability": "pure",
      "type": "function"
    },
    {
      "constant": true,
      "inputs": [
        {
          "name": "sig",
          "type": "bytes"
        },
        {
          "name": "idx",
          "type": "uint256"
        }
      ],
      "name": "loadUint8",
      "outputs": [
        {
          "name": "",
          "type": "uint8"
        }
      ],
      "payable": false,
      "stateMutability": "pure",
      "type": "function"
    },
    {
      "constant": true,
      "inputs": [
        {
          "name": "hash",
          "type": "bytes32"
        },
        {
          "name": "sig",
          "type": "bytes"
        },
        {
          "name": "idx",
          "type": "uint256"
        }
      ],
      "name": "recoverHash",
      "outputs": [
        {
          "name": "",
          "type": "address"
        }
      ],
      "payable": false,
      "stateMutability": "pure",
      "type": "function"
    },
    {
      "constant": true,
      "inputs": [
        {
          "name": "sig",
          "type": "bytes"
        },
        {
          "name": "old_key",
          "type": "address"
        },
        {
          "name": "last_address",
          "type": "address"
        }
      ],
      "name": "recoverSig",
      "outputs": [
        {
          "name": "",
          "type": "address[]"
        },
        {
          "name": "",
          "type": "address[]"
        },
        {
          "name": "",
          "type": "uint8[]"
        }
      ],
      "payable": false,
      "stateMutability": "pure",
      "type": "function"
    }
  ],
  "bytecode": "0x61178b610030600b82828239805160001a6073146000811461002057610022565bfe5b5030600052607381538281f300730000000000000000000000000000000000000000301460806040526004361061009a576000357c0100000000000000000000000000000000000000000000000000000000900463ffffffff168063416465311461009f5780634ecec67b1461011f57806372d33e63146101af578063733b0ebd146102495780638b2c6d41146102ed57806392990ac7146103a1578063ff3209ba14610447575b600080fd5b610103600480360381019080803590602001908201803590602001908080601f0160208091040260200160405190810160405280939291908181526020018383808284378201915050505050509192919290803590602001909291905050506105c8565b604051808260ff1660ff16815260200191505060405180910390f35b610199600480360381019080803573ffffffffffffffffffffffffffffffffffffffff169060200190929190803590602001908201803590602001908080601f01602080910402602001604051908101604052809392919081815260200183838082843782019150505050505091929192905050506105e1565b6040518082815260200191505060405180910390f35b610233600480360381019080803573ffffffffffffffffffffffffffffffffffffffff169060200190929190803590602001908201803590602001908080601f01602080910402602001604051908101604052809392919081815260200183838082843782019150505050505091929192908035906020019092919050505061067e565b6040518082815260200191505060405180910390f35b6102d7600480360381019080803573ffffffffffffffffffffffffffffffffffffffff169060200190929190803590602001908201803590602001908080601f01602080910402602001604051908101604052809392919081815260200183838082843782019150505050505091929192908035906020019092919080359060200190929190505050610722565b6040518082815260200191505060405180910390f35b61035f6004803603810190808035600019169060200190929190803590602001908201803590602001908080601f0160208091040260200160405190810160405280939291908181526020018383808284378201915050505050509192919290803590602001909291905050506107bf565b604051808273ffffffffffffffffffffffffffffffffffffffff1673ffffffffffffffffffffffffffffffffffffffff16815260200191505060405180910390f35b610405600480360381019080803590602001908201803590602001908080601f016020809104026020016040519081016040528093929190818152602001838380828437820191505050505050919291929080359060200190929190505050610abf565b604051808273ffffffffffffffffffffffffffffffffffffffff1673ffffffffffffffffffffffffffffffffffffffff16815260200191505060405180910390f35b6104e1600480360381019080803590602001908201803590602001908080601f0160208091040260200160405190810160405280939291908181526020018383808284378201915050505050509192919290803573ffffffffffffffffffffffffffffffffffffffff169060200190929190803573ffffffffffffffffffffffffffffffffffffffff169060200190929190505050610ad8565b60405180806020018060200180602001848103845287818151815260200191508051906020019060200280838360005b8381101561052c578082015181840152602081019050610511565b50505050905001848103835286818151815260200191508051906020019060200280838360005b8381101561056e578082015181840152602081019050610553565b50505050905001848103825285818151815260200191508051906020019060200280838360005b838110156105b0578082015181840152602081019050610595565b50505050905001965050505050505060405180910390f35b6000806001830192508284015190508091505092915050565b600080826040518082805190602001908083835b60208310151561061a57805182526020820191506020810190506020830392506105f5565b6001836020036101000a03801982511681845116808217855250505050505090500191505060405180910390209050604051818152602081600483600089613a98f1600081141561066a57600080fd5b815193506024820160405250505092915050565b600080836040518082805190602001908083835b6020831015156106b75780518252602082019150602081019050602083039250610692565b6001836020036101000a0380198251168184511680821785525050505050509050019150506040518091039020905060405181815283600482015260208160248360008a613a98f1600081141561070d57600080fd5b81519350602482016040525050509392505050565b600080846040518082805190602001908083835b60208310151561075b5780518252602082019150602081019050602083039250610736565b6001836020036101000a0380198251168184511680821785525050505050509050019150506040518091039020905060405181815284600482015283602482015260208160448360008b613a98f18151935060208201604052505050949350505050565b600080600080606085604101875110151515610843576040517f08c379a00000000000000000000000000000000000000000000000000000000081526004018080602001828103825260148152602001807f626164207369676e6174757265206c656e67746800000000000000000000000081525060200191505060405180910390fd5b60208601955085870151935060208601955085870151925060018601955085870151915060208260ff16101515610994576020820391506040805190810160405280601c81526020017f19457468657265756d205369676e6564204d6573736167653a0a333200000000815250905080886040516020018083805190602001908083835b6020831015156108ec57805182526020820191506020810190506020830392506108c7565b6001836020036101000a0380198251168184511680821785525050505050509050018260001916600019168152602001925050506040516020818303038152906040526040518082805190602001908083835b602083101515610964578051825260208201915060208101905060208303925061093f565b6001836020036101000a038019825116818451168082178552505050505050905001915050604051809103902097505b60018260ff161115156109a857601b820191505b601b8260ff1614806109bd5750601c8260ff16145b1515610a31576040517f08c379a00000000000000000000000000000000000000000000000000000000081526004018080602001828103825260098152602001807f626164207369672076000000000000000000000000000000000000000000000081525060200191505060405180910390fd5b600188838686604051600081526020016040526040518085600019166000191681526020018460ff1660ff1681526020018360001916600019168152602001826000191660001916815260200194505050505060206040516020810390808403906000865af1158015610aa8573d6000803e3d6000fd5b505050602060405103519450505050509392505050565b6000806014830192508284015190508091505092915050565b606080606080606080606060008073ffffffffffffffffffffffffffffffffffffffff168a73ffffffffffffffffffffffffffffffffffffffff1614151515610b89576040517f08c379a00000000000000000000000000000000000000000000000000000000081526004018080602001828103825260128152602001807f6e6f207075626c6963206c696e6b206b6579000000000000000000000000000081525060200191505060405180910390fd5b610b938b8a610fcd565b80955081965082975083985050505050600090505b8451811015610fb6578251811015610e11578973ffffffffffffffffffffffffffffffffffffffff16610d678483815181101515610be257fe5b906020019060200201518684815181101515610bfa57fe5b906020019060200201518885815181101515610c1257fe5b90602001906020020151604051602001808460ff1660ff167f01000000000000000000000000000000000000000000000000000000000000000281526001018373ffffffffffffffffffffffffffffffffffffffff1673ffffffffffffffffffffffffffffffffffffffff166c010000000000000000000000000281526014018273ffffffffffffffffffffffffffffffffffffffff1673ffffffffffffffffffffffffffffffffffffffff166c0100000000000000000000000002815260140193505050506040516020818303038152906040526040518082805190602001908083835b602083101515610d1c5780518252602082019150602081019050602083039250610cf7565b6001836020036101000a03801982511681845116808217855250505050505090500191505060405180910390208d8585815181101515610d5857fe5b906020019060200201516107bf565b73ffffffffffffffffffffffffffffffffffffffff16141515610df2576040517f08c379a00000000000000000000000000000000000000000000000000000000081526004018080602001828103825260118152602001807f696c6c6567616c207369676e617475726500000000000000000000000000000081525060200191505060405180910390fd5b8381815181101515610e0057fe5b906020019060200201519950610fa9565b8973ffffffffffffffffffffffffffffffffffffffff16610f1d8683815181101515610e3957fe5b90602001906020020151604051602001808273ffffffffffffffffffffffffffffffffffffffff1673ffffffffffffffffffffffffffffffffffffffff166c010000000000000000000000000281526014019150506040516020818303038152906040526040518082805190602001908083835b602083101515610ed25780518252602082019150602081019050602083039250610ead565b6001836020036101000a03801982511681845116808217855250505050505090500191505060405180910390208d8585815181101515610f0e57fe5b906020019060200201516107bf565b73ffffffffffffffffffffffffffffffffffffffff16141515610fa8576040517f08c379a00000000000000000000000000000000000000000000000000000000081526004018080602001828103825260168152602001807f696c6c6567616c206c617374207369676e61747572650000000000000000000081525060200191505060405180910390fd5b5b8080600101915050610ba8565b848484975097509750505050505093509350939050565b6060806060806000806060806060806000809650610fea8d611606565b809a508196508299508398508497505050505050600187019650601487019650600090505b8c51604188011115156115725786828281518110151561102b57fe5b90602001906020020181815250506041870196508c51868801111515611519576110558d886105c8565b858281518110151561106357fe5b9060200190602002019060ff16908160ff16815250506000858281518110151561108957fe5b9060200190602002015160ff1611151561110b576040517f08c379a000000000000000000000000000000000000000000000000000000000815260040180806020018281038252601b8152602001807f776569676874206e6f7420646566696e65642028312e2e32353529000000000081525060200191505060405180910390fd5b868060010197505060298614156111d5576111268d88610abf565b838281518110151561113457fe5b9060200190602002019073ffffffffffffffffffffffffffffffffffffffff16908173ffffffffffffffffffffffffffffffffffffffff16815250506014870196506111808d88610abf565b848281518110151561118e57fe5b9060200190602002019073ffffffffffffffffffffffffffffffffffffffff16908173ffffffffffffffffffffffffffffffffffffffff1681525050601487019650611514565b6056861415611513576111eb8d60418901610abf565b84828151811015156111f957fe5b9060200190602002019073ffffffffffffffffffffffffffffffffffffffff16908173ffffffffffffffffffffffffffffffffffffffff16815250506114bc60405160200180807f62797465732062696e64696e6720746f20776569676874000000000000000000815250601701807f62797465732062696e64696e6720746f207075626c696300000000000000000081525060170190506040516020818303038152906040526040518082805190602001908083835b6020831015156112d557805182526020820191506020810190506020830392506112b0565b6001836020036101000a0380198251168184511680821785525050505050509050019150506040518091039020868381518110151561131057fe5b90602001906020020151868481518110151561132857fe5b90602001906020020151604051602001808360ff1660ff167f01000000000000000000000000000000000000000000000000000000000000000281526001018273ffffffffffffffffffffffffffffffffffffffff1673ffffffffffffffffffffffffffffffffffffffff166c01000000000000000000000000028152601401925050506040516020818303038152906040526040518082805190602001908083835b6020831015156113f057805182526020820191506020810190506020830392506113cb565b6001836020036101000a03801982511681845116808217855250505050505090500191505060405180910390206040516020018083600019166000191681526020018260001916600019168152602001925050506040516020818303038152906040526040518082805190602001908083835b6020831015156114885780518252602082019150602081019050602083039250611463565b6001836020036101000a03801982511681845116808217855250505050505090500191505060405180910390208e896107bf565b83828151811015156114ca57fe5b9060200190602002019073ffffffffffffffffffffffffffffffffffffffff16908173ffffffffffffffffffffffffffffffffffffffff16815250506041870196506014870196505b5b611565565b8b838281518110151561152857fe5b9060200190602002019073ffffffffffffffffffffffffffffffffffffffff16908173ffffffffffffffffffffffffffffffffffffffff16815250505b808060010191505061100f565b8c51871415156115ea576040517f08c379a00000000000000000000000000000000000000000000000000000000081526004018080602001828103825260148152602001807f696c6c6567616c206d6573736167652073697a6500000000000000000000000081525060200191505060405180910390fd5b828486849a509a509a509a505050505050505092959194509250565b6060806060806000806000806060806060806116238d60006105c8565b965060018760ff161461163757602961163a565b60565b60ff1695508560410160158e510381151561165157fe5b049450846040519080825280602002602001820160405280156116835781602001602082028038833980820191505090505b509350846040519080825280602002602001820160405280156116b55781602001602082028038833980820191505090505b50925060008660410160158f51038115156116cc57fe5b0611156116dc5784806001019550505b8460405190808252806020026020018201604052801561170b5781602001602082028038833980820191505090505b5091508460405190808252806020026020018201604052801561173d5781602001602082028038833980820191505090505b50905081838583899b509b509b509b509b5050505050505050919395909294505600a165627a7a72305820765817fc18d8cf2561830fb0d77cda4325a001de67e6be7a38ca195e5fc669380029",
  "source": "pragma solidity ^0.4.24;\n\nlibrary Call {\n    function params0(address c, bytes _method) public view returns (uint answer) {\n        // https://medium.com/@blockchain101/calling-the-function-of-another-contract-in-solidity-f9edfa921f4c\n        //    dc = c;\n        bytes4 sig = bytes4(keccak256(_method));\n        assembly {\n        // move pointer to free memory spot\n            let ptr := mload(0x40)\n        // put function sig at memory spot\n            mstore(ptr,sig)\n\n            let result := call(  // use WARNING because this should be staticcall BUT geth crash!\n            15000, // gas limit\n            c, // sload(dc_slot),  // to addr. append var to _slot to access storage variable\n            0, // not transfer any ether (comment if using staticcall)\n            ptr, // Inputs are stored at location ptr\n            0x04, // Inputs are 0 bytes long\n            ptr,  //Store output over input\n            0x20) //Outputs are 1 bytes long\n\n            if eq(result, 0) {\n                revert(0, 0)\n            }\n\n            answer := mload(ptr) // Assign output to answer var\n            mstore(0x40,add(ptr,0x24)) // Set storage pointer to new space\n        }\n    }\n\n    function params1(address c, bytes _method, uint _val) public view returns (uint answer) {\n        // https://medium.com/@blockchain101/calling-the-function-of-another-contract-in-solidity-f9edfa921f4c\n        //    dc = c;\n        bytes4 sig = bytes4(keccak256(_method));\n        assembly {\n        // move pointer to free memory spot\n            let ptr := mload(0x40)\n        // put function sig at memory spot\n            mstore(ptr,sig)\n        // append argument after function sig\n            mstore(add(ptr,0x04), _val)\n\n            let result := call(  // use WARNING because this should be staticcall BUT geth crash!\n            15000, // gas limit\n            c, // sload(dc_slot),  // to addr. append var to _slot to access storage variable\n            0, // not transfer any ether (comment if using staticcall)\n            ptr, // Inputs are stored at location ptr\n            0x24, // Inputs are 0 bytes long\n            ptr,  //Store output over input\n            0x20) //Outputs are 1 bytes long\n\n            if eq(result, 0) {\n                revert(0, 0)\n            }\n\n            answer := mload(ptr) // Assign output to answer var\n            mstore(0x40,add(ptr,0x24)) // Set storage pointer to new space\n        }\n    }\n\n    function params2(address c, bytes _method, uint _val1, uint _val2) public view returns (uint answer) {\n        // https://medium.com/@blockchain101/calling-the-function-of-another-contract-in-solidity-f9edfa921f4c\n        //    dc = c;\n        bytes4 sig = bytes4(keccak256(_method));\n        assembly {\n        // move pointer to free memory spot\n            let ptr := mload(0x40)\n        // put function sig at memory spot\n            mstore(ptr,sig)\n        // append argument after function sig\n            mstore(add(ptr,0x04), _val1)\n            mstore(add(ptr,0x24), _val2)\n\n            let result := call(  // use WARNING because this should be staticcall BUT geth crash!\n            15000, // gas limit\n            c, // sload(dc_slot),  // to addr. append var to _slot to access storage variable\n            0, // not transfer any ether (comment if using staticcall)\n            ptr, // Inputs are stored at location ptr\n            0x44, // Inputs are 4 bytes for signature and 2 uint256\n            ptr,  //Store output over input\n            0x20) //Outputs are 1 uint long\n\n        // TODO cause revert\n        //            if eq(result, 0) {\n        //                revert(0, 0)\n        //            }\n\n            answer := mload(ptr) // Assign output to answer var\n            mstore(0x40,add(ptr,0x20)) // Set storage pointer to new space\n        }\n    }\n\n    function loadAddress(bytes sig, uint idx) public pure returns (address) {\n        address influencer;\n        idx += 20;\n        assembly\n        {\n            influencer := mload(add(sig, idx))\n        }\n        return influencer;\n    }\n\n    function loadUint8(bytes sig, uint idx) public pure returns (uint8) {\n        uint8 weight;\n        idx += 1;\n        assembly\n        {\n            weight := mload(add(sig, idx))\n        }\n        return weight;\n    }\n\n\n    function recoverHash(bytes32 hash, bytes sig, uint idx) public pure returns (address) {\n        // same as recoverHash in utils/sign.js\n        // The signature format is a compact form of:\n        //   {bytes32 r}{bytes32 s}{uint8 v}\n        // Compact means, uint8 is not padded to 32 bytes.\n        require (sig.length >= 65+idx, 'bad signature length');\n        idx += 32;\n        bytes32 r;\n        assembly\n        {\n            r := mload(add(sig, idx))\n        }\n\n        idx += 32;\n        bytes32 s;\n        assembly\n        {\n            s := mload(add(sig, idx))\n        }\n\n        idx += 1;\n        uint8 v;\n        assembly\n        {\n            v := mload(add(sig, idx))\n        }\n        if (v >= 32) { // handle case when signature was made with ethereum web3.eth.sign or getSign which is for signing ethereum transactions\n            v -= 32;\n            bytes memory prefix = \"\\x19Ethereum Signed Message:\\n32\"; // 32 is the number of bytes in the following hash\n            hash = keccak256(abi.encodePacked(prefix, hash));\n        }\n        if (v <= 1) v += 27;\n        require(v==27 || v==28,'bad sig v');\n        //https://github.com/OpenZeppelin/openzeppelin-contracts/blob/master/contracts/cryptography/ECDSA.sol#L57\n//        require(uint256(s) <= 0x7FFFFFFFFFFFFFFFFFFFFFFFFFFFFFFF5D576E7357A4501DDFE92F46681B20A0, 'bad sig s');\n        return ecrecover(hash, v, r, s);\n\n    }\n\n    function recoverSigMemory(bytes sig) private pure returns (address[], address[], uint8[], uint[], uint) {\n        uint8 version = loadUint8(sig, 0);\n        uint msg_len = (version == 1) ? 1+65+20 : 1+20+20;\n        uint n_influencers = (sig.length-21) / (65+msg_len);\n        uint8[] memory weights = new uint8[](n_influencers);\n        address[] memory keys = new address[](n_influencers);\n        if ((sig.length-21) % (65+msg_len) > 0) {\n            n_influencers++;\n        }\n        address[] memory influencers = new address[](n_influencers);\n        uint[] memory offsets = new uint[](n_influencers);\n\n        return (influencers, keys, weights, offsets, msg_len);\n    }\n\n    function recoverSigParts(bytes sig, address last_address) private pure returns (address[], address[], uint8[], uint[]) {\n        // sig structure:\n        // 1 byte version 0 or 1\n        // 20 bytes are the address of the contractor or the influencer who created sig.\n        //  this is the \"anchor\" of the link\n        //  It must have a public key aleady stored for it in public_link_key\n        // Begining of a loop on steps in the link:\n        // * 65 bytes are step-signature using the secret from previous step\n        // * message of the step that is going to be hashed and used to compute the above step-signature.\n        //   message length depend on version 41 (version 0) or 86 (version 1):\n        //   * 1 byte cut (percentage) each influencer takes from the bounty. the cut is stored in influencer2cut or weight for voting\n        //   * 20 bytes address of influencer (version 0) or 65 bytes of signature of cut using the influencer address to sign\n        //   * 20 bytes public key of the last secret\n        // In the last step the message can be optional. If it is missing the message used is the address of the sender\n        uint idx = 0;\n        uint msg_len;\n        uint8[] memory weights;\n        address[] memory keys;\n        address[] memory influencers;\n        uint[] memory offsets;\n        (influencers, keys, weights, offsets, msg_len) = recoverSigMemory(sig);\n        idx += 1;  // skip version\n\n        idx += 20; // skip old_address which should be read by the caller in order to get old_key\n        uint count_influencers = 0;\n\n        while (idx + 65 <= sig.length) {\n            offsets[count_influencers] = idx;\n            idx += 65;  // idx was increased by 65 for the signature at the begining which we will process later\n\n            if (idx + msg_len <= sig.length) {  // its  a < and not a <= because we dont want this to be the final iteration for the converter\n                weights[count_influencers] = loadUint8(sig, idx);\n                require(weights[count_influencers] > 0,'weight not defined (1..255)');  // 255 are used to indicate default (equal part) behaviour\n                idx++;\n\n\n                if (msg_len == 41)  // 1+20+20 version 0\n                {\n                    influencers[count_influencers] = loadAddress(sig, idx);\n                    idx += 20;\n                    keys[count_influencers] = loadAddress(sig, idx);\n                    idx += 20;\n                } else if (msg_len == 86)  // 1+65+20 version 1\n                {\n                    keys[count_influencers] = loadAddress(sig, idx+65);\n                    influencers[count_influencers] = recoverHash(\n                        keccak256(\n                            abi.encodePacked(\n                                keccak256(abi.encodePacked(\"bytes binding to weight\",\"bytes binding to public\")),\n                                keccak256(abi.encodePacked(weights[count_influencers],keys[count_influencers]))\n                            )\n                        ),sig,idx);\n                    idx += 65;\n                    idx += 20;\n                }\n\n            } else {\n                // handle short signatures generated with free_take\n                influencers[count_influencers] = last_address;\n            }\n            count_influencers++;\n        }\n        require(idx == sig.length,'illegal message size');\n\n        return (influencers, keys, weights, offsets);\n    }\n\n    function recoverSig(bytes sig, address old_key, address last_address) public pure returns (address[], address[], uint8[]) {\n        // validate sig AND\n        // recover the information from the signature: influencers, public_link_keys, weights/cuts\n        // influencers may have one more address than the keys and weights arrays\n        //\n        require(old_key != address(0),'no public link key');\n\n        address[] memory influencers;\n        address[] memory keys;\n        uint8[] memory weights;\n        uint[] memory offsets;\n        (influencers, keys, weights, offsets) = recoverSigParts(sig, last_address);\n\n        // check if we received a valid signature\n        for(uint i = 0; i < influencers.length; i++) {\n            if (i < weights.length) {\n                require (recoverHash(keccak256(abi.encodePacked(weights[i], keys[i], influencers[i])),sig,offsets[i]) == old_key, 'illegal signature');\n                old_key = keys[i];\n            } else {\n                // signed message for the last step is the address of the converter\n                require (recoverHash(keccak256(abi.encodePacked(influencers[i])),sig,offsets[i]) == old_key, 'illegal last signature');\n            }\n        }\n\n        return (influencers, keys, weights);\n    }\n}\n",
  "sourcePath": "/Users/nikolamadjarevic/Desktop/2key/contracts/contracts/2key/libraries/Call.sol",
  "compiler": {
    "name": "solc",
    "version": "0.4.24+commit.e67f0147.Emscripten.clang"
  },
  "schemaVersion": "2.0.1",
  "updatedAt": "2019-11-07T08:15:06.310Z"
}