{
  "contractName": "DecentralizedNation",
  "abi": [
    {
      "constant": true,
      "inputs": [],
      "name": "nationName",
      "outputs": [
        {
          "name": "",
          "type": "string"
        }
      ],
      "payable": false,
      "stateMutability": "view",
      "type": "function"
    },
    {
      "constant": true,
      "inputs": [
        {
          "name": "",
          "type": "bytes32"
        }
      ],
      "name": "isMemberTypeEligibleToCreateVotingCampaign",
      "outputs": [
        {
          "name": "",
          "type": "bool"
        }
      ],
      "payable": false,
      "stateMutability": "view",
      "type": "function"
    },
    {
      "constant": true,
      "inputs": [
        {
          "name": "",
          "type": "address"
        }
      ],
      "name": "memberId",
      "outputs": [
        {
          "name": "",
          "type": "uint256"
        }
      ],
      "payable": false,
      "stateMutability": "view",
      "type": "function"
    },
    {
      "constant": true,
      "inputs": [
        {
          "name": "",
          "type": "uint256"
        }
      ],
      "name": "memberTypes",
      "outputs": [
        {
          "name": "",
          "type": "bytes32"
        }
      ],
      "payable": false,
      "stateMutability": "view",
      "type": "function"
    },
    {
      "constant": true,
      "inputs": [
        {
          "name": "",
          "type": "bytes32"
        },
        {
          "name": "",
          "type": "uint256"
        }
      ],
      "name": "memberTypeToMembers",
      "outputs": [
        {
          "name": "",
          "type": "address"
        }
      ],
      "payable": false,
      "stateMutability": "view",
      "type": "function"
    },
    {
      "constant": true,
      "inputs": [
        {
          "name": "",
          "type": "bytes32"
        }
      ],
      "name": "limitOfMembersPerType",
      "outputs": [
        {
          "name": "",
          "type": "uint256"
        }
      ],
      "payable": false,
      "stateMutability": "view",
      "type": "function"
    },
    {
      "constant": true,
      "inputs": [
        {
          "name": "",
          "type": "uint256"
        }
      ],
      "name": "members",
      "outputs": [
        {
          "name": "memberAddress",
          "type": "address"
        },
        {
          "name": "username",
          "type": "bytes32"
        },
        {
          "name": "fullName",
          "type": "bytes32"
        },
        {
          "name": "email",
          "type": "bytes32"
        },
        {
          "name": "memberType",
          "type": "bytes32"
        }
      ],
      "payable": false,
      "stateMutability": "view",
      "type": "function"
    },
    {
      "constant": true,
      "inputs": [
        {
          "name": "",
          "type": "address"
        }
      ],
      "name": "votingContractToCampaign",
      "outputs": [
        {
          "name": "votingReason",
          "type": "string"
        },
        {
          "name": "finished",
          "type": "bool"
        },
        {
          "name": "votesYes",
          "type": "uint256"
        },
        {
          "name": "votesNo",
          "type": "uint256"
        },
        {
          "name": "votingResultForYes",
          "type": "int256"
        },
        {
          "name": "votingResultForNo",
          "type": "int256"
        },
        {
          "name": "votingCampaignLengthInDays",
          "type": "uint256"
        },
        {
          "name": "campaignType",
          "type": "bytes32"
        },
        {
          "name": "votingContract",
          "type": "address"
        }
      ],
      "payable": false,
      "stateMutability": "view",
      "type": "function"
    },
    {
      "constant": true,
      "inputs": [
        {
          "name": "",
          "type": "uint256"
        }
      ],
      "name": "allCampaigns",
      "outputs": [
        {
          "name": "votingReason",
          "type": "string"
        },
        {
          "name": "finished",
          "type": "bool"
        },
        {
          "name": "votesYes",
          "type": "uint256"
        },
        {
          "name": "votesNo",
          "type": "uint256"
        },
        {
          "name": "votingResultForYes",
          "type": "int256"
        },
        {
          "name": "votingResultForNo",
          "type": "int256"
        },
        {
          "name": "votingCampaignLengthInDays",
          "type": "uint256"
        },
        {
          "name": "campaignType",
          "type": "bytes32"
        },
        {
          "name": "votingContract",
          "type": "address"
        }
      ],
      "payable": false,
      "stateMutability": "view",
      "type": "function"
    },
    {
      "constant": true,
      "inputs": [],
      "name": "votingToken",
      "outputs": [
        {
          "name": "",
          "type": "address"
        }
      ],
      "payable": false,
      "stateMutability": "view",
      "type": "function"
    },
    {
      "constant": true,
      "inputs": [
        {
          "name": "",
          "type": "address"
        }
      ],
      "name": "memberAddressToMemberType",
      "outputs": [
        {
          "name": "",
          "type": "bytes32"
        }
      ],
      "payable": false,
      "stateMutability": "view",
      "type": "function"
    },
    {
      "constant": true,
      "inputs": [],
      "name": "ipfsHashForDAOPublicInfo",
      "outputs": [
        {
          "name": "",
          "type": "string"
        }
      ],
      "payable": false,
      "stateMutability": "view",
      "type": "function"
    },
    {
      "constant": true,
      "inputs": [],
      "name": "ipfsForConstitution",
      "outputs": [
        {
          "name": "",
          "type": "string"
        }
      ],
      "payable": false,
      "stateMutability": "view",
      "type": "function"
    },
    {
      "inputs": [
        {
          "name": "_nationName",
          "type": "string"
        },
        {
          "name": "_ipfsHashForConstitution",
          "type": "string"
        },
        {
          "name": "_ipfsHashForDAOPublicInfo",
          "type": "string"
        },
        {
          "name": "founder",
          "type": "address[]"
        },
        {
          "name": "initialMemberTypes",
          "type": "bytes32[]"
        },
        {
          "name": "limitPerType",
          "type": "uint256[]"
        },
        {
          "name": "rightsToCreateVoting",
          "type": "uint256[]"
        },
        {
          "name": "_minimalNumberOfVotersForVotingCampaign",
          "type": "uint256"
        },
        {
          "name": "_minimalPercentOfVotersForVotingCampaign",
          "type": "uint256"
        },
        {
          "name": "_minimalNumberOfVotersForPetitioningCampaign",
          "type": "uint256"
        },
        {
          "name": "_minimalPercentOfVotersForPetitioningCampaign",
          "type": "uint256"
        },
        {
          "name": "_twoKeyRegistry",
          "type": "address"
        }
      ],
      "payable": false,
      "stateMutability": "nonpayable",
      "type": "constructor"
    },
    {
      "constant": true,
      "inputs": [],
      "name": "getLimitsForDAO",
      "outputs": [
        {
          "name": "",
          "type": "uint256"
        },
        {
          "name": "",
          "type": "uint256"
        },
        {
          "name": "",
          "type": "uint256"
        },
        {
          "name": "",
          "type": "uint256"
        }
      ],
      "payable": false,
      "stateMutability": "view",
      "type": "function"
    },
    {
      "constant": false,
      "inputs": [
        {
          "name": "_memberAddress",
          "type": "address"
        },
        {
          "name": "_memberType",
          "type": "bytes32"
        }
      ],
      "name": "addMembersByFounders",
      "outputs": [],
      "payable": false,
      "stateMutability": "nonpayable",
      "type": "function"
    },
    {
      "constant": true,
      "inputs": [
        {
          "name": "_memberAddress",
          "type": "address"
        }
      ],
      "name": "getMemberId",
      "outputs": [
        {
          "name": "",
          "type": "uint256"
        }
      ],
      "payable": false,
      "stateMutability": "view",
      "type": "function"
    },
    {
      "constant": true,
      "inputs": [
        {
          "name": "memberType",
          "type": "bytes32"
        }
      ],
      "name": "checkIfMemberTypeExists",
      "outputs": [
        {
          "name": "",
          "type": "bool"
        }
      ],
      "payable": false,
      "stateMutability": "view",
      "type": "function"
    },
    {
      "constant": true,
      "inputs": [],
      "name": "getAllMembers",
      "outputs": [
        {
          "name": "",
          "type": "address[]"
        },
        {
          "name": "",
          "type": "bytes32[]"
        },
        {
          "name": "",
          "type": "bytes32[]"
        },
        {
          "name": "",
          "type": "bytes32[]"
        },
        {
          "name": "",
          "type": "bytes32[]"
        }
      ],
      "payable": false,
      "stateMutability": "view",
      "type": "function"
    },
    {
      "constant": true,
      "inputs": [
        {
          "name": "memberType",
          "type": "bytes32"
        }
      ],
      "name": "getAllMembersForType",
      "outputs": [
        {
          "name": "",
          "type": "address[]"
        }
      ],
      "payable": false,
      "stateMutability": "view",
      "type": "function"
    },
    {
      "constant": true,
      "inputs": [
        {
          "name": "memberType",
          "type": "bytes32"
        }
      ],
      "name": "getLimitForType",
      "outputs": [
        {
          "name": "",
          "type": "uint256"
        }
      ],
      "payable": false,
      "stateMutability": "view",
      "type": "function"
    },
    {
      "constant": true,
      "inputs": [
        {
          "name": "_memberAddress",
          "type": "address"
        }
      ],
      "name": "getMembersVotingPoints",
      "outputs": [
        {
          "name": "",
          "type": "uint256"
        }
      ],
      "payable": false,
      "stateMutability": "view",
      "type": "function"
    },
    {
      "constant": false,
      "inputs": [
        {
          "name": "description",
          "type": "string"
        },
        {
          "name": "votingCampaignLengthInDays",
          "type": "uint256"
        },
        {
          "name": "twoKeyWeightedVoteContract",
          "type": "address"
        },
        {
          "name": "flag",
          "type": "uint256"
        }
      ],
      "name": "startCampagin",
      "outputs": [],
      "payable": false,
      "stateMutability": "nonpayable",
      "type": "function"
    },
    {
      "constant": true,
      "inputs": [
        {
          "name": "weightedVoteContractAddress",
          "type": "address"
        }
      ],
      "name": "getResultsForVoting",
      "outputs": [
        {
          "name": "",
          "type": "uint256"
        },
        {
          "name": "",
          "type": "uint256"
        },
        {
          "name": "",
          "type": "uint256"
        },
        {
          "name": "",
          "type": "uint256"
        },
        {
          "name": "",
          "type": "uint256"
        },
        {
          "name": "",
          "type": "uint256"
        }
      ],
      "payable": false,
      "stateMutability": "view",
      "type": "function"
    },
    {
      "constant": false,
      "inputs": [
        {
          "name": "campaign_id",
          "type": "uint256"
        },
        {
          "name": "signature",
          "type": "bytes"
        }
      ],
      "name": "executeVoting",
      "outputs": [
        {
          "name": "",
          "type": "uint256"
        }
      ],
      "payable": false,
      "stateMutability": "nonpayable",
      "type": "function"
    },
    {
      "constant": true,
      "inputs": [],
      "name": "getNumberOfVotingCampaigns",
      "outputs": [
        {
          "name": "",
          "type": "uint256"
        }
      ],
      "payable": false,
      "stateMutability": "view",
      "type": "function"
    },
    {
      "constant": true,
      "inputs": [
        {
          "name": "voteContract",
          "type": "address"
        }
      ],
      "name": "getCampaignByAddressOfVoteContract",
      "outputs": [
        {
          "name": "",
          "type": "string"
        },
        {
          "name": "",
          "type": "bool"
        },
        {
          "name": "",
          "type": "uint256"
        },
        {
          "name": "",
          "type": "uint256"
        },
        {
          "name": "",
          "type": "int256"
        },
        {
          "name": "",
          "type": "int256"
        },
        {
          "name": "",
          "type": "uint256"
        },
        {
          "name": "",
          "type": "bytes32"
        },
        {
          "name": "",
          "type": "address"
        }
      ],
      "payable": false,
      "stateMutability": "view",
      "type": "function"
    },
    {
      "constant": true,
      "inputs": [
        {
          "name": "id",
          "type": "uint256"
        }
      ],
      "name": "getCampaign",
      "outputs": [
        {
          "name": "",
          "type": "string"
        },
        {
          "name": "",
          "type": "bool"
        },
        {
          "name": "",
          "type": "uint256"
        },
        {
          "name": "",
          "type": "uint256"
        },
        {
          "name": "",
          "type": "int256"
        },
        {
          "name": "",
          "type": "int256"
        },
        {
          "name": "",
          "type": "uint256"
        },
        {
          "name": "",
          "type": "bytes32"
        },
        {
          "name": "",
          "type": "address"
        }
      ],
      "payable": false,
      "stateMutability": "view",
      "type": "function"
    },
    {
      "constant": true,
      "inputs": [],
      "name": "getNameAndIpfsHashes",
      "outputs": [
        {
          "name": "",
          "type": "string"
        },
        {
          "name": "",
          "type": "string"
        },
        {
          "name": "",
          "type": "string"
        }
      ],
      "payable": false,
      "stateMutability": "view",
      "type": "function"
    },
    {
      "constant": true,
      "inputs": [
        {
          "name": "_member",
          "type": "address"
        }
      ],
      "name": "getMemberid",
      "outputs": [
        {
          "name": "",
          "type": "uint256"
        }
      ],
      "payable": false,
      "stateMutability": "view",
      "type": "function"
    }
  ],
  "bytecode": "0x60806040526000600760146101000a81548160ff0219169083151502179055503480156200002c57600080fd5b5060405162005f3338038062005f33833981018060405281019080805182019291906020018051820192919060200180518201929190602001805182019291906020018051820192919060200180518201929190602001805182019291906020018051906020019092919080519060200190929190805190602001909291908051906020019092919080519060200190929190505050600088518851141515620000d557600080fd5b896000815181101515620000e557fe5b90602001906020020151600460006101000a81548173ffffffffffffffffffffffffffffffffffffffff021916908373ffffffffffffffffffffffffffffffffffffffff16021790555060037f464f554e4445525300000000000000000000000000000000000000000000000090806001815401808255809150509060018203906000526020600020016000909192909190915090600019169055506001601160007f464f554e444552530000000000000000000000000000000000000000000000006000191660001916815260200190815260200160002060006101000a81548160ff02191690831515021790555081601660006101000a81548173ffffffffffffffffffffffffffffffffffffffff021916908373ffffffffffffffffffffffffffffffffffffffff1602179055506200023560008060010262000535640100000000026401000000009004565b620002898a60008151811015156200024957fe5b906020019060200201517f464f554e4445525300000000000000000000000000000000000000000000000062000535640100000000026401000000009004565b306200029462000b37565b808273ffffffffffffffffffffffffffffffffffffffff1673ffffffffffffffffffffffffffffffffffffffff168152602001915050604051809103906000f080158015620002e7573d6000803e3d6000fd5b50600760006101000a81548173ffffffffffffffffffffffffffffffffffffffff021916908373ffffffffffffffffffffffffffffffffffffffff160217905550600090505b8851811015620004a05787818151811015156200034657fe5b90602001906020020151600960008b848151811015156200036357fe5b906020019060200201516000191660001916815260200190815260200160002081905550600187828151811015156200039857fe5b906020019060200201511415620003fb576001601160008b84815181101515620003be57fe5b906020019060200201516000191660001916815260200190815260200160002060006101000a81548160ff02191690831515021790555062000448565b6000601160008b848151811015156200041057fe5b906020019060200201516000191660001916815260200190815260200160002060006101000a81548160ff0219169083151502179055505b600389828151811015156200045957fe5b90602001906020020151908060018154018082558091505090600182039060005260206000200160009091929091909150906000191690555080806001019150506200032d565b856012819055508460138190555083601481905550826015819055508c60009080519060200190620004d492919062000b48565b508b60019080519060200190620004ed92919062000b48565b508a600290805190602001906200050692919062000b48565b506001600760146101000a81548160ff0219169083151502179055505050505050505050505050505062000c49565b60008060006200054462000bcf565b600060058054905011156200065b57601660009054906101000a900473ffffffffffffffffffffffffffffffffffffffff1673ffffffffffffffffffffffffffffffffffffffff16639371de2b876040518263ffffffff167c0100000000000000000000000000000000000000000000000000000000028152600401808273ffffffffffffffffffffffffffffffffffffffff1673ffffffffffffffffffffffffffffffffffffffff168152602001915050602060405180830381600087803b1580156200061157600080fd5b505af115801562000626573d6000803e3d6000fd5b505050506040513d60208110156200063d57600080fd5b810190808051906020019092919050505015156200065a57600080fd5b5b600760149054906101000a900460ff1615620006ba57600a600086600019166000191681526020019081526020016000208054905060096000876000191660001916815260200190815260200160002054111515620006b957600080fd5b5b601660009054906101000a900473ffffffffffffffffffffffffffffffffffffffff1673ffffffffffffffffffffffffffffffffffffffff1663ffc9896b876040518263ffffffff167c0100000000000000000000000000000000000000000000000000000000028152600401808273ffffffffffffffffffffffffffffffffffffffff1673ffffffffffffffffffffffffffffffffffffffff168152602001915050606060405180830381600087803b1580156200077857600080fd5b505af11580156200078d573d6000803e3d6000fd5b505050506040513d6060811015620007a457600080fd5b81019080805190602001909291908051906020019092919080519060200190929190505050809450819550829650505050620007ef8562000ad3640100000000026401000000009004565b806200080657506000600102600019168560001916145b15156200081257600080fd5b60a0604051908101604052808773ffffffffffffffffffffffffffffffffffffffff168152602001856000191681526020018460001916815260200183600019168152602001866000191681525090506005819080600181540180825580915050906001820390600052602060002090600502016000909192909190915060008201518160000160006101000a81548173ffffffffffffffffffffffffffffffffffffffff021916908373ffffffffffffffffffffffffffffffffffffffff1602179055506020820151816001019060001916905560408201518160020190600019169055606082015181600301906000191690556080820151816004019060001916905550505084600e60008873ffffffffffffffffffffffffffffffffffffffff1673ffffffffffffffffffffffffffffffffffffffff1681526020019081526020016000208160001916905550600654600860008873ffffffffffffffffffffffffffffffffffffffff1673ffffffffffffffffffffffffffffffffffffffff16815260200190815260200160002081905550600a600086600019166000191681526020019081526020016000208690806001815401808255809150509060018203906000526020600020016000909192909190916101000a81548173ffffffffffffffffffffffffffffffffffffffff021916908373ffffffffffffffffffffffffffffffffffffffff16021790555050670de0b6b3a7640000600f60008873ffffffffffffffffffffffffffffffffffffffff1673ffffffffffffffffffffffffffffffffffffffff16815260200190815260200160002081905550600d54601060008873ffffffffffffffffffffffffffffffffffffffff1673ffffffffffffffffffffffffffffffffffffffff16815260200190815260200160002081905550600660008154809291906001019190505550505050505050565b600080600090505b60038054905081101562000b2c57826000191660038281548110151562000afe57fe5b906000526020600020015460001916141562000b1e576001915062000b31565b808060010191505062000adb565b600091505b50919050565b604051611ea3806200409083390190565b828054600181600116156101000203166002900490600052602060002090601f016020900481019282601f1062000b8b57805160ff191683800117855562000bbc565b8280016001018555821562000bbc579182015b8281111562000bbb57825182559160200191906001019062000b9e565b5b50905062000bcb919062000c21565b5090565b60a060405190810160405280600073ffffffffffffffffffffffffffffffffffffffff168152602001600080191681526020016000801916815260200160008019168152602001600080191681525090565b62000c4691905b8082111562000c4257600081600090555060010162000c28565b5090565b90565b6134378062000c596000396000f300608060405260043610610175576000357c0100000000000000000000000000000000000000000000000000000000900463ffffffff16806301486ba51461017a57806304f250b4146101d15780631de8eb76146101fc578063329b12161461023c57806333829351146102cc5780633910682114610315578063402f764a1461036c5780635527b7c8146103b55780635598f8cc14610430578063591391ae146105465780635daf08ca1461058b5780636022737e146106345780636bc0c4671461079c57806372f53d1d146108225780637c0f6b351461094e578063860a734514610ada578063867a9a9114610b315780638a43327414610bab5780638d3694c414610c32578063a509f4d114610ccf578063b034012314610de5578063c269014b14610e3c578063c60a852514610e93578063d9a496b414610ee4578063e40be3d714610f43578063f97dc0d714610f8c578063fa851efd1461101c578063faa39ea314611148578063fc700a531461118d575b600080fd5b34801561018657600080fd5b506101bb600480360381019080803573ffffffffffffffffffffffffffffffffffffffff16906020019092919050505061121d565b6040518082815260200191505060405180910390f35b3480156101dd57600080fd5b506101e6611266565b6040518082815260200191505060405180910390f35b34801561020857600080fd5b50610211611270565b6040518085815260200184815260200183815260200182815260200194505050505060405180910390f35b34801561024857600080fd5b50610251611290565b6040518080602001828103825283818151815260200191508051906020019080838360005b83811015610291578082015181840152602081019050610276565b50505050905090810190601f1680156102be5780820380516001836020036101000a031916815260200191505b509250505060405180910390f35b3480156102d857600080fd5b506102fb600480360381019080803560001916906020019092919050505061132e565b604051808215151515815260200191505060405180910390f35b34801561032157600080fd5b50610356600480360381019080803573ffffffffffffffffffffffffffffffffffffffff16906020019092919050505061134e565b6040518082815260200191505060405180910390f35b34801561037857600080fd5b5061039760048036038101908080359060200190929190505050611366565b60405180826000191660001916815260200191505060405180910390f35b3480156103c157600080fd5b506103ee600480360381019080803560001916906020019092919080359060200190929190505050611389565b604051808273ffffffffffffffffffffffffffffffffffffffff1673ffffffffffffffffffffffffffffffffffffffff16815260200191505060405180910390f35b34801561043c57600080fd5b5061045b600480360381019080803590602001909291905050506113d6565b60405180806020018a15151515815260200189815260200188815260200187815260200186815260200185815260200184600019166000191681526020018373ffffffffffffffffffffffffffffffffffffffff1673ffffffffffffffffffffffffffffffffffffffff16815260200182810382528b818151815260200191508051906020019080838360005b838110156105035780820151818401526020810190506104e8565b50505050905090810190601f1680156105305780820380516001836020036101000a031916815260200191505b509a505050505050505050505060405180910390f35b34801561055257600080fd5b5061057560048036038101908080356000191690602001909291905050506115c0565b6040518082815260200191505060405180910390f35b34801561059757600080fd5b506105b6600480360381019080803590602001909291905050506115d8565b604051808673ffffffffffffffffffffffffffffffffffffffff1673ffffffffffffffffffffffffffffffffffffffff16815260200185600019166000191681526020018460001916600019168152602001836000191660001916815260200182600019166000191681526020019550505050505060405180910390f35b34801561064057600080fd5b5061064961163d565b60405180806020018060200180602001848103845287818151815260200191508051906020019080838360005b83811015610691578082015181840152602081019050610676565b50505050905090810190601f1680156106be5780820380516001836020036101000a031916815260200191505b50848103835286818151815260200191508051906020019080838360005b838110156106f75780820151818401526020810190506106dc565b50505050905090810190601f1680156107245780820380516001836020036101000a031916815260200191505b50848103825285818151815260200191508051906020019080838360005b8381101561075d578082015181840152602081019050610742565b50505050905090810190601f16801561078a5780820380516001836020036101000a031916815260200191505b50965050505050505060405180910390f35b3480156107a857600080fd5b506107cb6004803603810190808035600019169060200190929190505050611827565b6040518080602001828103825283818151815260200191508051906020019060200280838360005b8381101561080e5780820151818401526020810190506107f3565b505050509050019250505060405180910390f35b34801561082e57600080fd5b50610863600480360381019080803573ffffffffffffffffffffffffffffffffffffffff1690602001909291905050506118d0565b60405180806020018a15151515815260200189815260200188815260200187815260200186815260200185815260200184600019166000191681526020018373ffffffffffffffffffffffffffffffffffffffff1673ffffffffffffffffffffffffffffffffffffffff16815260200182810382528b818151815260200191508051906020019080838360005b8381101561090b5780820151818401526020810190506108f0565b50505050905090810190601f1680156109385780820380516001836020036101000a031916815260200191505b509a505050505050505050505060405180910390f35b34801561095a57600080fd5b506109636119e3565b60405180806020018060200180602001806020018060200186810386528b818151815260200191508051906020019060200280838360005b838110156109b657808201518184015260208101905061099b565b5050505090500186810385528a818151815260200191508051906020019060200280838360005b838110156109f85780820151818401526020810190506109dd565b50505050905001868103845289818151815260200191508051906020019060200280838360005b83811015610a3a578082015181840152602081019050610a1f565b50505050905001868103835288818151815260200191508051906020019060200280838360005b83811015610a7c578082015181840152602081019050610a61565b50505050905001868103825287818151815260200191508051906020019060200280838360005b83811015610abe578082015181840152602081019050610aa3565b505050509050019a505050505050505050505060405180910390f35b348015610ae657600080fd5b50610b1b600480360381019080803573ffffffffffffffffffffffffffffffffffffffff169060200190929190505050611d12565b6040518082815260200191505060405180910390f35b348015610b3d57600080fd5b50610b72600480360381019080803573ffffffffffffffffffffffffffffffffffffffff169060200190929190505050611d5b565b60405180878152602001868152602001858152602001848152602001838152602001828152602001965050505050505060405180910390f35b348015610bb757600080fd5b50610c1c60048036038101908080359060200190929190803590602001908201803590602001908080601f0160208091040260200160405190810160405280939291908181526020018383808284378201915050505050509192919290505050611e4a565b6040518082815260200191505060405180910390f35b348015610c3e57600080fd5b50610ccd600480360381019080803590602001908201803590602001908080601f016020809104026020016040519081016040528093929190818152602001838380828437820191505050505050919291929080359060200190929190803573ffffffffffffffffffffffffffffffffffffffff169060200190929190803590602001909291905050506124da565b005b348015610cdb57600080fd5b50610cfa60048036038101908080359060200190929190505050612884565b60405180806020018a15151515815260200189815260200188815260200187815260200186815260200185815260200184600019166000191681526020018373ffffffffffffffffffffffffffffffffffffffff1673ffffffffffffffffffffffffffffffffffffffff16815260200182810382528b818151815260200191508051906020019080838360005b83811015610da2578082015181840152602081019050610d87565b50505050905090810190601f168015610dcf5780820380516001836020036101000a031916815260200191505b509a505050505050505050505060405180910390f35b348015610df157600080fd5b50610dfa6129a6565b604051808273ffffffffffffffffffffffffffffffffffffffff1673ffffffffffffffffffffffffffffffffffffffff16815260200191505060405180910390f35b348015610e4857600080fd5b50610e7d600480360381019080803573ffffffffffffffffffffffffffffffffffffffff1690602001909291905050506129cc565b6040518082815260200191505060405180910390f35b348015610e9f57600080fd5b50610ee2600480360381019080803573ffffffffffffffffffffffffffffffffffffffff1690602001909291908035600019169060200190929190505050612a15565b005b348015610ef057600080fd5b50610f25600480360381019080803573ffffffffffffffffffffffffffffffffffffffff169060200190929190505050612ec8565b60405180826000191660001916815260200191505060405180910390f35b348015610f4f57600080fd5b50610f726004803603810190808035600019169060200190929190505050612ee0565b604051808215151515815260200191505060405180910390f35b348015610f9857600080fd5b50610fa1612f3f565b6040518080602001828103825283818151815260200191508051906020019080838360005b83811015610fe1578082015181840152602081019050610fc6565b50505050905090810190601f16801561100e5780820380516001836020036101000a031916815260200191505b509250505060405180910390f35b34801561102857600080fd5b5061105d600480360381019080803573ffffffffffffffffffffffffffffffffffffffff169060200190929190505050612fdd565b60405180806020018a15151515815260200189815260200188815260200187815260200186815260200185815260200184600019166000191681526020018373ffffffffffffffffffffffffffffffffffffffff1673ffffffffffffffffffffffffffffffffffffffff16815260200182810382528b818151815260200191508051906020019080838360005b838110156111055780820151818401526020810190506110ea565b50505050905090810190601f1680156111325780820380516001836020036101000a031916815260200191505b509a505050505050505050505060405180910390f35b34801561115457600080fd5b5061117760048036038101908080356000191690602001909291905050506131e9565b6040518082815260200191505060405180910390f35b34801561119957600080fd5b506111a261320e565b6040518080602001828103825283818151815260200191508051906020019080838360005b838110156111e25780820151818401526020810190506111c7565b50505050905090810190601f16801561120f5780820380516001836020036101000a031916815260200191505b509250505060405180910390f35b6000600860008373ffffffffffffffffffffffffffffffffffffffff1673ffffffffffffffffffffffffffffffffffffffff168152602001908152602001600020549050919050565b6000600d54905090565b600080600080601254601354601454601554935093509350935090919293565b60008054600181600116156101000203166002900480601f0160208091040260200160405190810160405280929190818152602001828054600181600116156101000203166002900480156113265780601f106112fb57610100808354040283529160200191611326565b820191906000526020600020905b81548152906001019060200180831161130957829003601f168201915b505050505081565b60116020528060005260406000206000915054906101000a900460ff1681565b60086020528060005260406000206000915090505481565b60038181548110151561137557fe5b906000526020600020016000915090505481565b600a602052816000526040600020818154811015156113a457fe5b906000526020600020016000915091509054906101000a900473ffffffffffffffffffffffffffffffffffffffff1681565b60606000806000806000806000806113ec6132ac565b600c8b8154811015156113fb57fe5b90600052602060002090600902016101206040519081016040529081600082018054600181600116156101000203166002900480601f0160208091040260200160405190810160405280929190818152602001828054600181600116156101000203166002900480156114af5780601f10611484576101008083540402835291602001916114af565b820191906000526020600020905b81548152906001019060200180831161149257829003601f168201915b505050505081526020016001820160009054906101000a900460ff1615151515815260200160028201548152602001600382015481526020016004820154815260200160058201548152602001600682015481526020016007820154600019166000191681526020016008820160009054906101000a900473ffffffffffffffffffffffffffffffffffffffff1673ffffffffffffffffffffffffffffffffffffffff1673ffffffffffffffffffffffffffffffffffffffff16815250509050806000015181602001518260400151836060015184608001518560a001518660c001518760e00151886101000151889850995099509950995099509950995099509950509193959799909294969850565b60096020528060005260406000206000915090505481565b6005818154811015156115e757fe5b90600052602060002090600502016000915090508060000160009054906101000a900473ffffffffffffffffffffffffffffffffffffffff16908060010154908060020154908060030154908060040154905085565b6060806060600060016002828054600181600116156101000203166002900480601f0160208091040260200160405190810160405280929190818152602001828054600181600116156101000203166002900480156116dd5780601f106116b2576101008083540402835291602001916116dd565b820191906000526020600020905b8154815290600101906020018083116116c057829003601f168201915b50505050509250818054600181600116156101000203166002900480601f0160208091040260200160405190810160405280929190818152602001828054600181600116156101000203166002900480156117795780601f1061174e57610100808354040283529160200191611779565b820191906000526020600020905b81548152906001019060200180831161175c57829003601f168201915b50505050509150808054600181600116156101000203166002900480601f0160208091040260200160405190810160405280929190818152602001828054600181600116156101000203166002900480156118155780601f106117ea57610100808354040283529160200191611815565b820191906000526020600020905b8154815290600101906020018083116117f857829003601f168201915b50505050509050925092509250909192565b6060600a600083600019166000191681526020019081526020016000208054806020026020016040519081016040528092919081815260200182805480156118c457602002820191906000526020600020905b8160009054906101000a900473ffffffffffffffffffffffffffffffffffffffff1673ffffffffffffffffffffffffffffffffffffffff168152602001906001019080831161187a575b50505050509050919050565b600b602052806000526040600020600091509050806000018054600181600116156101000203166002900480601f01602080910402602001604051908101604052809291908181526020018280546001816001161561010002031660029004801561197c5780601f106119515761010080835404028352916020019161197c565b820191906000526020600020905b81548152906001019060200180831161195f57829003601f168201915b5050505050908060010160009054906101000a900460ff16908060020154908060030154908060040154908060050154908060060154908060070154908060080160009054906101000a900473ffffffffffffffffffffffffffffffffffffffff16905089565b60608060608060606000606080606080606060006119ff613314565b600160058054905003975087604051908082528060200260200182016040528015611a395781602001602082028038833980820191505090505b50965087604051908082528060200260200182016040528015611a6b5781602001602082028038833980820191505090505b50955087604051908082528060200260200182016040528015611a9d5781602001602082028038833980820191505090505b50945087604051908082528060200260200182016040528015611acf5781602001602082028038833980820191505090505b50935087604051908082528060200260200182016040528015611b015781602001602082028038833980820191505090505b509250600191505b60018801821015611cf457600582815481101515611b2357fe5b906000526020600020906005020160a060405190810160405290816000820160009054906101000a900473ffffffffffffffffffffffffffffffffffffffff1673ffffffffffffffffffffffffffffffffffffffff1673ffffffffffffffffffffffffffffffffffffffff1681526020016001820154600019166000191681526020016002820154600019166000191681526020016003820154600019166000191681526020016004820154600019166000191681525050905080600001518760018403815181101515611bf357fe5b9060200190602002019073ffffffffffffffffffffffffffffffffffffffff16908173ffffffffffffffffffffffffffffffffffffffff168152505080602001518660018403815181101515611c4557fe5b90602001906020020190600019169081600019168152505080604001518560018403815181101515611c7357fe5b90602001906020020190600019169081600019168152505080606001518460018403815181101515611ca157fe5b90602001906020020190600019169081600019168152505080608001518360018403815181101515611ccf57fe5b9060200190602002019060001916908160001916815250508180600101925050611b09565b86868686869c509c509c509c509c5050505050505050509091929394565b6000600f60008373ffffffffffffffffffffffffffffffffffffffff1673ffffffffffffffffffffffffffffffffffffffff168152602001908152602001600020549050919050565b6000806000806000808673ffffffffffffffffffffffffffffffffffffffff166325f35c366040518163ffffffff167c010000000000000000000000000000000000000000000000000000000002815260040160c060405180830381600087803b158015611dc857600080fd5b505af1158015611ddc573d6000803e3d6000fd5b505050506040513d60c0811015611df257600080fd5b8101908080519060200190929190805190602001909291908051906020019092919080519060200190929190805190602001909291908051906020019092919050505095509550955095509550955091939550919395565b6000611e546132ac565b60606000806000600c88815481101515611e6a57fe5b90600052602060002090600902016101206040519081016040529081600082018054600181600116156101000203166002900480601f016020809104026020016040519081016040528092919081815260200182805460018160011615610100020316600290048015611f1e5780601f10611ef357610100808354040283529160200191611f1e565b820191906000526020600020905b815481529060010190602001808311611f0157829003601f168201915b505050505081526020016001820160009054906101000a900460ff1615151515815260200160028201548152602001600382015481526020016004820154815260200160058201548152602001600682015481526020016007820154600019166000191681526020016008820160009054906101000a900473ffffffffffffffffffffffffffffffffffffffff1673ffffffffffffffffffffffffffffffffffffffff1673ffffffffffffffffffffffffffffffffffffffff168152505094506000151585602001511515141515611ff557600080fd5b84610100015173ffffffffffffffffffffffffffffffffffffffff16631b781a8b886040518263ffffffff167c01000000000000000000000000000000000000000000000000000000000281526004018080602001828103825283818151815260200191508051906020019080838360005b83811015612082578082015181840152602081019050612067565b50505050905090810190601f1680156120af5780820380516001836020036101000a031916815260200191505b5092505050600060405180830381600087803b1580156120ce57600080fd5b505af11580156120e2573d6000803e3d6000fd5b505050506040513d6000823e3d601f19601f82011682018060405250602081101561210c57600080fd5b81019080805164010000000081111561212457600080fd5b8281019050602081018481111561213a57600080fd5b815185602082028301116401000000008211171561215757600080fd5b50509291905050505084610100015173ffffffffffffffffffffffffffffffffffffffff166335bbe70e6040518163ffffffff167c0100000000000000000000000000000000000000000000000000000000028152600401600060405180830381600087803b1580156121c957600080fd5b505af11580156121dd573d6000803e3d6000fd5b505050506040513d6000823e3d601f19601f82011682018060405250602081101561220757600080fd5b81019080805164010000000081111561221f57600080fd5b8281019050602081018481111561223557600080fd5b815185602082028301116401000000008211171561225257600080fd5b50509291905050509350600092505b83518310156123d65784610100015173ffffffffffffffffffffffffffffffffffffffff1663f0d5d771858581518110151561229957fe5b906020019060200201516040518263ffffffff167c0100000000000000000000000000000000000000000000000000000000028152600401808273ffffffffffffffffffffffffffffffffffffffff1673ffffffffffffffffffffffffffffffffffffffff1681526020019150506040805180830381600087803b15801561232057600080fd5b505af1158015612334573d6000803e3d6000fd5b505050506040513d604081101561234a57600080fd5b810190808051906020019092919080519060200190929190505050809250819350505060011515821515141561239b5784604001805180919060010181525050808560800181815101915081815250505b6000151582151514156123c95784606001805180919060010181525050808560a00181815101915081815250505b8280600101935050612261565b600185602001901515908115158152505084600c898154811015156123f757fe5b90600052602060002090600902016000820151816000019080519060200190612421929190613366565b5060208201518160010160006101000a81548160ff02191690831515021790555060408201518160020155606082015181600301556080820151816004015560a0820151816005015560c0820151816006015560e082015181600701906000191690556101008201518160080160006101000a81548173ffffffffffffffffffffffffffffffffffffffff021916908373ffffffffffffffffffffffffffffffffffffffff160217905550905050505050505092915050565b60006124e46132ac565b6000600860003373ffffffffffffffffffffffffffffffffffffffff1673ffffffffffffffffffffffffffffffffffffffff168152602001908152602001600020541415151561253357600080fd5b6000831415612564577f564f54494e4700000000000000000000000000000000000000000000000000009150612588565b7f5045544954494f4e494e4700000000000000000000000000000000000000000091505b6101206040519081016040528087815260200160001515815260200160008152602001600081526020016000815260200160008152602001868152602001836000191681526020018573ffffffffffffffffffffffffffffffffffffffff16815250905080600b60008673ffffffffffffffffffffffffffffffffffffffff1673ffffffffffffffffffffffffffffffffffffffff1681526020019081526020016000206000820151816000019080519060200190612648929190613366565b5060208201518160010160006101000a81548160ff02191690831515021790555060408201518160020155606082015181600301556080820151816004015560a0820151816005015560c0820151816006015560e082015181600701906000191690556101008201518160080160006101000a81548173ffffffffffffffffffffffffffffffffffffffff021916908373ffffffffffffffffffffffffffffffffffffffff1602179055509050508373ffffffffffffffffffffffffffffffffffffffff1663546d53056040518163ffffffff167c0100000000000000000000000000000000000000000000000000000000028152600401600060405180830381600087803b15801561275a57600080fd5b505af115801561276e573d6000803e3d6000fd5b50505050600c819080600181540180825580915050906001820390600052602060002090600902016000909192909190915060008201518160000190805190602001906127bc929190613366565b5060208201518160010160006101000a81548160ff02191690831515021790555060408201518160020155606082015181600301556080820151816004015560a0820151816005015560c0820151816006015560e082015181600701906000191690556101008201518160080160006101000a81548173ffffffffffffffffffffffffffffffffffffffff021916908373ffffffffffffffffffffffffffffffffffffffff160217905550505050600d60008154809291906001019190505550505050505050565b600c8181548110151561289357fe5b9060005260206000209060090201600091509050806000018054600181600116156101000203166002900480601f01602080910402602001604051908101604052809291908181526020018280546001816001161561010002031660029004801561293f5780601f106129145761010080835404028352916020019161293f565b820191906000526020600020905b81548152906001019060200180831161292257829003601f168201915b5050505050908060010160009054906101000a900460ff16908060020154908060030154908060040154908060050154908060060154908060070154908060080160009054906101000a900473ffffffffffffffffffffffffffffffffffffffff16905089565b600760009054906101000a900473ffffffffffffffffffffffffffffffffffffffff1681565b6000600860003373ffffffffffffffffffffffffffffffffffffffff1673ffffffffffffffffffffffffffffffffffffffff168152602001908152602001600020549050919050565b6000806000612a22613314565b600460009054906101000a900473ffffffffffffffffffffffffffffffffffffffff1673ffffffffffffffffffffffffffffffffffffffff163373ffffffffffffffffffffffffffffffffffffffff16141515612a7e57600080fd5b600a600086600019166000191681526020019081526020016000208054905060096000876000191660001916815260200190815260200160002054111515612ac557600080fd5b601660009054906101000a900473ffffffffffffffffffffffffffffffffffffffff1673ffffffffffffffffffffffffffffffffffffffff1663ffc9896b876040518263ffffffff167c0100000000000000000000000000000000000000000000000000000000028152600401808273ffffffffffffffffffffffffffffffffffffffff1673ffffffffffffffffffffffffffffffffffffffff168152602001915050606060405180830381600087803b158015612b8257600080fd5b505af1158015612b96573d6000803e3d6000fd5b505050506040513d6060811015612bac57600080fd5b81019080805190602001909291908051906020019092919080519060200190929190505050809450819550829650505050612be685612ee0565b80612bfc57506000600102600019168560001916145b1515612c0757600080fd5b60a0604051908101604052808773ffffffffffffffffffffffffffffffffffffffff168152602001856000191681526020018460001916815260200183600019168152602001866000191681525090506005819080600181540180825580915050906001820390600052602060002090600502016000909192909190915060008201518160000160006101000a81548173ffffffffffffffffffffffffffffffffffffffff021916908373ffffffffffffffffffffffffffffffffffffffff1602179055506020820151816001019060001916905560408201518160020190600019169055606082015181600301906000191690556080820151816004019060001916905550505084600e60008873ffffffffffffffffffffffffffffffffffffffff1673ffffffffffffffffffffffffffffffffffffffff1681526020019081526020016000208160001916905550600654600860008873ffffffffffffffffffffffffffffffffffffffff1673ffffffffffffffffffffffffffffffffffffffff16815260200190815260200160002081905550600a600086600019166000191681526020019081526020016000208690806001815401808255809150509060018203906000526020600020016000909192909190916101000a81548173ffffffffffffffffffffffffffffffffffffffff021916908373ffffffffffffffffffffffffffffffffffffffff16021790555050670de0b6b3a7640000600f60008873ffffffffffffffffffffffffffffffffffffffff1673ffffffffffffffffffffffffffffffffffffffff16815260200190815260200160002081905550600d54601060008873ffffffffffffffffffffffffffffffffffffffff1673ffffffffffffffffffffffffffffffffffffffff16815260200190815260200160002081905550600660008154809291906001019190505550505050505050565b600e6020528060005260406000206000915090505481565b600080600090505b600380549050811015612f34578260001916600382815481101515612f0957fe5b9060005260206000200154600019161415612f275760019150612f39565b8080600101915050612ee8565b600091505b50919050565b60028054600181600116156101000203166002900480601f016020809104026020016040519081016040528092919081815260200182805460018160011615610100020316600290048015612fd55780601f10612faa57610100808354040283529160200191612fd5565b820191906000526020600020905b815481529060010190602001808311612fb857829003601f168201915b505050505081565b6060600080600080600080600080612ff36132ac565b600b60008c73ffffffffffffffffffffffffffffffffffffffff1673ffffffffffffffffffffffffffffffffffffffff1681526020019081526020016000206101206040519081016040529081600082018054600181600116156101000203166002900480601f0160208091040260200160405190810160405280929190818152602001828054600181600116156101000203166002900480156130d85780601f106130ad576101008083540402835291602001916130d8565b820191906000526020600020905b8154815290600101906020018083116130bb57829003601f168201915b505050505081526020016001820160009054906101000a900460ff1615151515815260200160028201548152602001600382015481526020016004820154815260200160058201548152602001600682015481526020016007820154600019166000191681526020016008820160009054906101000a900473ffffffffffffffffffffffffffffffffffffffff1673ffffffffffffffffffffffffffffffffffffffff1673ffffffffffffffffffffffffffffffffffffffff16815250509050806000015181602001518260400151836060015184608001518560a001518660c001518760e00151886101000151889850995099509950995099509950995099509950509193959799909294969850565b6000600960008360001916600019168152602001908152602001600020549050919050565b60018054600181600116156101000203166002900480601f0160208091040260200160405190810160405280929190818152602001828054600181600116156101000203166002900480156132a45780601f10613279576101008083540402835291602001916132a4565b820191906000526020600020905b81548152906001019060200180831161328757829003601f168201915b505050505081565b6101206040519081016040528060608152602001600015158152602001600081526020016000815260200160008152602001600081526020016000815260200160008019168152602001600073ffffffffffffffffffffffffffffffffffffffff1681525090565b60a060405190810160405280600073ffffffffffffffffffffffffffffffffffffffff168152602001600080191681526020016000801916815260200160008019168152602001600080191681525090565b828054600181600116156101000203166002900490600052602060002090601f016020900481019282601f106133a757805160ff19168380011785556133d5565b828001600101855582156133d5579182015b828111156133d45782518255916020019190600101906133b9565b5b5090506133e291906133e6565b5090565b61340891905b808211156134045760008160009055506001016133ec565b5090565b905600a165627a7a723058200c54b6d34698adc108bf56e0b2f39f9e8b71755ca1d553690713d77aacb01747002960806040526040805190810160405280600a81526020017f54776f4b6579566f7465000000000000000000000000000000000000000000008152506009908051906020019062000051929190620001b3565b506040805190810160405280600381526020017f324b560000000000000000000000000000000000000000000000000000000000815250600a90805190602001906200009f929190620001b3565b506012600b60006101000a81548160ff021916908360ff160217905550348015620000c957600080fd5b5060405160208062001ea38339810180604052810190808051906020019092919050505033600660006101000a81548173ffffffffffffffffffffffffffffffffffffffff021916908373ffffffffffffffffffffffffffffffffffffffff160217905550600073ffffffffffffffffffffffffffffffffffffffff168173ffffffffffffffffffffffffffffffffffffffff16141515156200016b57600080fd5b80600b60016101000a81548173ffffffffffffffffffffffffffffffffffffffff021916908373ffffffffffffffffffffffffffffffffffffffff1602179055505062000262565b828054600181600116156101000203166002900490600052602060002090601f016020900481019282601f10620001f657805160ff191683800117855562000227565b8280016001018555821562000227579182015b828111156200022657825182559160200191906001019062000209565b5b5090506200023691906200023a565b5090565b6200025f91905b808211156200025b57600081600090555060010162000241565b5090565b90565b611c3180620002726000396000f3006080604052600436106100e6576000357c0100000000000000000000000000000000000000000000000000000000900463ffffffff16806306fdde03146100eb578063095ea7b31461017b57806318160ddd146101e057806323b872dd1461020b578063313ce567146102905780635f539d69146102c1578063661884631461030457806370a0823114610369578063715018a6146103c05780638da5cb5b146103d757806395d89b411461042e578063a9059cbb146104be578063c25f495714610523578063d73dd6231461057a578063dd62ed3e146105df578063f2fde38b14610656575b600080fd5b3480156100f757600080fd5b50610100610699565b6040518080602001828103825283818151815260200191508051906020019080838360005b83811015610140578082015181840152602081019050610125565b50505050905090810190601f16801561016d5780820380516001836020036101000a031916815260200191505b509250505060405180910390f35b34801561018757600080fd5b506101c6600480360381019080803573ffffffffffffffffffffffffffffffffffffffff16906020019092919080359060200190929190505050610737565b604051808215151515815260200191505060405180910390f35b3480156101ec57600080fd5b506101f56107a7565b6040518082815260200191505060405180910390f35b34801561021757600080fd5b50610276600480360381019080803573ffffffffffffffffffffffffffffffffffffffff169060200190929190803573ffffffffffffffffffffffffffffffffffffffff16906020019092919080359060200190929190505050610817565b604051808215151515815260200191505060405180910390f35b34801561029c57600080fd5b506102a5610ae7565b604051808260ff1660ff16815260200191505060405180910390f35b3480156102cd57600080fd5b50610302600480360381019080803573ffffffffffffffffffffffffffffffffffffffff169060200190929190505050610afa565b005b34801561031057600080fd5b5061034f600480360381019080803573ffffffffffffffffffffffffffffffffffffffff16906020019092919080359060200190929190505050610d14565b604051808215151515815260200191505060405180910390f35b34801561037557600080fd5b506103aa600480360381019080803573ffffffffffffffffffffffffffffffffffffffff169060200190929190505050610fa6565b6040518082815260200191505060405180910390f35b3480156103cc57600080fd5b506103d5611256565b005b3480156103e357600080fd5b506103ec61135b565b604051808273ffffffffffffffffffffffffffffffffffffffff1673ffffffffffffffffffffffffffffffffffffffff16815260200191505060405180910390f35b34801561043a57600080fd5b50610443611381565b6040518080602001828103825283818151815260200191508051906020019080838360005b83811015610483578082015181840152602081019050610468565b50505050905090810190601f1680156104b05780820380516001836020036101000a031916815260200191505b509250505060405180910390f35b3480156104ca57600080fd5b50610509600480360381019080803573ffffffffffffffffffffffffffffffffffffffff1690602001909291908035906020019092919050505061141f565b604051808215151515815260200191505060405180910390f35b34801561052f57600080fd5b5061053861148f565b604051808273ffffffffffffffffffffffffffffffffffffffff1673ffffffffffffffffffffffffffffffffffffffff16815260200191505060405180910390f35b34801561058657600080fd5b506105c5600480360381019080803573ffffffffffffffffffffffffffffffffffffffff169060200190929190803590602001909291905050506114b5565b604051808215151515815260200191505060405180910390f35b3480156105eb57600080fd5b50610640600480360381019080803573ffffffffffffffffffffffffffffffffffffffff169060200190929190803573ffffffffffffffffffffffffffffffffffffffff1690602001909291905050506116b1565b6040518082815260200191505060405180910390f35b34801561066257600080fd5b50610697600480360381019080803573ffffffffffffffffffffffffffffffffffffffff1690602001909291905050506116c4565b005b60098054600181600116156101000203166002900480601f01602080910402602001604051908101604052809291908181526020018280546001816001161561010002031660029004801561072f5780601f106107045761010080835404028352916020019161072f565b820191906000526020600020905b81548152906001019060200180831161071257829003601f168201915b505050505081565b60006040517f08c379a00000000000000000000000000000000000000000000000000000000081526004018080602001828103825260178152602001807f617070726f7665202d206e6f7420737570706f7274656400000000000000000081525060200191505060405180910390fd5b60006040517f08c379a000000000000000000000000000000000000000000000000000000000815260040180806020018281038252601b8152602001807f746f74616c537570706c79202d206e6f7420737570706f72746564000000000081525060200191505060405180910390fd5b6000806108238561172c565b5061082d85610fa6565b90508083111515156108a7576040517f08c379a00000000000000000000000000000000000000000000000000000000081526004018080602001828103825260148152602001807f7472616e7366657246726f6d2062616c616e636500000000000000000000000081525060200191505060405180910390fd5b600073ffffffffffffffffffffffffffffffffffffffff168473ffffffffffffffffffffffffffffffffffffffff161415151561094c576040517f08c379a00000000000000000000000000000000000000000000000000000000081526004018080602001828103825260118152602001807f7472616e7366657246726f6d207a65726f00000000000000000000000000000081525060200191505060405180910390fd5b61099e83600860008873ffffffffffffffffffffffffffffffffffffffff1673ffffffffffffffffffffffffffffffffffffffff16815260200190815260200160002054611aa990919063ffffffff16565b600860008773ffffffffffffffffffffffffffffffffffffffff1673ffffffffffffffffffffffffffffffffffffffff16815260200190815260200160002081905550610a3383600860008773ffffffffffffffffffffffffffffffffffffffff1673ffffffffffffffffffffffffffffffffffffffff16815260200190815260200160002054611ac290919063ffffffff16565b600860008673ffffffffffffffffffffffffffffffffffffffff1673ffffffffffffffffffffffffffffffffffffffff168152602001908152602001600020819055508373ffffffffffffffffffffffffffffffffffffffff168573ffffffffffffffffffffffffffffffffffffffff167fddf252ad1be2c89b69c2b068fc378daa952ba7f163c4a11628f55a4df523b3ef856040518082815260200191505060405180910390a360019150509392505050565b600b60009054906101000a900460ff1681565b60606000600660009054906101000a900473ffffffffffffffffffffffffffffffffffffffff1673ffffffffffffffffffffffffffffffffffffffff163373ffffffffffffffffffffffffffffffffffffffff16141515610b5a57600080fd5b600073ffffffffffffffffffffffffffffffffffffffff168373ffffffffffffffffffffffffffffffffffffffff1614151515610bff576040517f08c379a00000000000000000000000000000000000000000000000000000000081526004018080602001828103825260108152602001807f616464436f6e7472616374207a65726f0000000000000000000000000000000081525060200191505060405180910390fd5b610c0883611ade565b9150816040516020018082805190602001908083835b602083101515610c435780518252602082019150602081019050602083039250610c1e565b6001836020036101000a0380198251168184511680821785525050505050509050019150506040516020818303038152906040526040518082805190602001908083835b602083101515610cac5780518252602082019150602081019050602083039250610c87565b6001836020036101000a038019825116818451168082178552505050505050905001915050604051809103902090506001600d6000836000191660001916815260200190815260200160002060006101000a81548160ff021916908315150217905550505050565b600080600460003373ffffffffffffffffffffffffffffffffffffffff1673ffffffffffffffffffffffffffffffffffffffff16815260200190815260200160002060008573ffffffffffffffffffffffffffffffffffffffff1673ffffffffffffffffffffffffffffffffffffffff1681526020019081526020016000205490508083101515610e26576000600460003373ffffffffffffffffffffffffffffffffffffffff1673ffffffffffffffffffffffffffffffffffffffff16815260200190815260200160002060008673ffffffffffffffffffffffffffffffffffffffff1673ffffffffffffffffffffffffffffffffffffffff16815260200190815260200160002081905550610eba565b610e398382611aa990919063ffffffff16565b600460003373ffffffffffffffffffffffffffffffffffffffff1673ffffffffffffffffffffffffffffffffffffffff16815260200190815260200160002060008673ffffffffffffffffffffffffffffffffffffffff1673ffffffffffffffffffffffffffffffffffffffff168152602001908152602001600020819055505b8373ffffffffffffffffffffffffffffffffffffffff163373ffffffffffffffffffffffffffffffffffffffff167f8c5be1e5ebec7d5bd14f71427d1e84f3dd0314c0f7b2291e5b200ac8c7c3b925600460003373ffffffffffffffffffffffffffffffffffffffff1673ffffffffffffffffffffffffffffffffffffffff16815260200190815260200160002060008873ffffffffffffffffffffffffffffffffffffffff1673ffffffffffffffffffffffffffffffffffffffff168152602001908152602001600020546040518082815260200191505060405180910390a3600191505092915050565b6000806000600c60008573ffffffffffffffffffffffffffffffffffffffff1673ffffffffffffffffffffffffffffffffffffffff16815260200190815260200160002060009054906101000a900460ff161561104457600860008573ffffffffffffffffffffffffffffffffffffffff1673ffffffffffffffffffffffffffffffffffffffff16815260200190815260200160002054925061124f565b600b60019054906101000a900473ffffffffffffffffffffffffffffffffffffffff1673ffffffffffffffffffffffffffffffffffffffff166301486ba5856040518263ffffffff167c0100000000000000000000000000000000000000000000000000000000028152600401808273ffffffffffffffffffffffffffffffffffffffff1673ffffffffffffffffffffffffffffffffffffffff168152602001915050602060405180830381600087803b15801561110157600080fd5b505af1158015611115573d6000803e3d6000fd5b505050506040513d602081101561112b57600080fd5b8101908080519060200190929190505050915060008214151561124a57600b60019054906101000a900473ffffffffffffffffffffffffffffffffffffffff1673ffffffffffffffffffffffffffffffffffffffff1663860a7345856040518263ffffffff167c0100000000000000000000000000000000000000000000000000000000028152600401808273ffffffffffffffffffffffffffffffffffffffff1673ffffffffffffffffffffffffffffffffffffffff168152602001915050602060405180830381600087803b15801561120557600080fd5b505af1158015611219573d6000803e3d6000fd5b505050506040513d602081101561122f57600080fd5b8101908080519060200190929190505050905080925061124f565b600092505b5050919050565b600660009054906101000a900473ffffffffffffffffffffffffffffffffffffffff1673ffffffffffffffffffffffffffffffffffffffff163373ffffffffffffffffffffffffffffffffffffffff161415156112b257600080fd5b600660009054906101000a900473ffffffffffffffffffffffffffffffffffffffff1673ffffffffffffffffffffffffffffffffffffffff167ff8df31144d9c2f0f6b59d69b8b98abd5459d07f2742c4df920b25aae33c6482060405160405180910390a26000600660006101000a81548173ffffffffffffffffffffffffffffffffffffffff021916908373ffffffffffffffffffffffffffffffffffffffff160217905550565b600660009054906101000a900473ffffffffffffffffffffffffffffffffffffffff1681565b600a8054600181600116156101000203166002900480601f0160208091040260200160405190810160405280929190818152602001828054600181600116156101000203166002900480156114175780601f106113ec57610100808354040283529160200191611417565b820191906000526020600020905b8154815290600101906020018083116113fa57829003601f168201915b505050505081565b60006040517f08c379a00000000000000000000000000000000000000000000000000000000081526004018080602001828103825260188152602001807f7472616e73666572202d206e6f7420737570706f72746564000000000000000081525060200191505060405180910390fd5b600b60019054906101000a900473ffffffffffffffffffffffffffffffffffffffff1681565b600061154682600460003373ffffffffffffffffffffffffffffffffffffffff1673ffffffffffffffffffffffffffffffffffffffff16815260200190815260200160002060008673ffffffffffffffffffffffffffffffffffffffff1673ffffffffffffffffffffffffffffffffffffffff16815260200190815260200160002054611ac290919063ffffffff16565b600460003373ffffffffffffffffffffffffffffffffffffffff1673ffffffffffffffffffffffffffffffffffffffff16815260200190815260200160002060008573ffffffffffffffffffffffffffffffffffffffff1673ffffffffffffffffffffffffffffffffffffffff168152602001908152602001600020819055508273ffffffffffffffffffffffffffffffffffffffff163373ffffffffffffffffffffffffffffffffffffffff167f8c5be1e5ebec7d5bd14f71427d1e84f3dd0314c0f7b2291e5b200ac8c7c3b925600460003373ffffffffffffffffffffffffffffffffffffffff1673ffffffffffffffffffffffffffffffffffffffff16815260200190815260200160002060008773ffffffffffffffffffffffffffffffffffffffff1673ffffffffffffffffffffffffffffffffffffffff168152602001908152602001600020546040518082815260200191505060405180910390a36001905092915050565b60006116bc83610fa6565b905092915050565b600660009054906101000a900473ffffffffffffffffffffffffffffffffffffffff1673ffffffffffffffffffffffffffffffffffffffff163373ffffffffffffffffffffffffffffffffffffffff1614151561172057600080fd5b61172981611b09565b50565b600080600c60008473ffffffffffffffffffffffffffffffffffffffff1673ffffffffffffffffffffffffffffffffffffffff16815260200190815260200160002060009054906101000a900460ff16156117c857600860008473ffffffffffffffffffffffffffffffffffffffff1673ffffffffffffffffffffffffffffffffffffffff168152602001908152602001600020549150611aa3565b6001600c60008573ffffffffffffffffffffffffffffffffffffffff1673ffffffffffffffffffffffffffffffffffffffff16815260200190815260200160002060006101000a81548160ff021916908315150217905550600b60019054906101000a900473ffffffffffffffffffffffffffffffffffffffff1673ffffffffffffffffffffffffffffffffffffffff166301486ba5846040518263ffffffff167c0100000000000000000000000000000000000000000000000000000000028152600401808273ffffffffffffffffffffffffffffffffffffffff1673ffffffffffffffffffffffffffffffffffffffff168152602001915050602060405180830381600087803b1580156118dd57600080fd5b505af11580156118f1573d6000803e3d6000fd5b505050506040513d602081101561190757600080fd5b81019080805190602001909291905050509050600081141515611a6057600b60019054906101000a900473ffffffffffffffffffffffffffffffffffffffff1673ffffffffffffffffffffffffffffffffffffffff1663860a7345846040518263ffffffff167c0100000000000000000000000000000000000000000000000000000000028152600401808273ffffffffffffffffffffffffffffffffffffffff1673ffffffffffffffffffffffffffffffffffffffff168152602001915050602060405180830381600087803b1580156119e157600080fd5b505af11580156119f5573d6000803e3d6000fd5b505050506040513d6020811015611a0b57600080fd5b8101908080519060200190929190505050600860008573ffffffffffffffffffffffffffffffffffffffff1673ffffffffffffffffffffffffffffffffffffffff168152602001908152602001600020819055505b600860008473ffffffffffffffffffffffffffffffffffffffff1673ffffffffffffffffffffffffffffffffffffffff1681526020019081526020016000205491505b50919050565b6000828211151515611ab757fe5b818303905092915050565b60008183019050828110151515611ad557fe5b80905092915050565b6060813b6040519150601f19601f602083010116820160405280825280600060208401853c50919050565b600073ffffffffffffffffffffffffffffffffffffffff168173ffffffffffffffffffffffffffffffffffffffff1614151515611b4557600080fd5b8073ffffffffffffffffffffffffffffffffffffffff16600660009054906101000a900473ffffffffffffffffffffffffffffffffffffffff1673ffffffffffffffffffffffffffffffffffffffff167f8be0079c531659141344cd1fd0a4f28419497f9722a3daafe3b4186f6b6457e060405160405180910390a380600660006101000a81548173ffffffffffffffffffffffffffffffffffffffff021916908373ffffffffffffffffffffffffffffffffffffffff160217905550505600a165627a7a72305820eb03236fd6bc8a4213790ea244267b40d0299b13b053f49cd86669e2d0cc07300029",
  "source": "pragma solidity ^0.4.24;\n\nimport \"./interfaces/ITwoKeyWeightedVoteContract.sol\";\nimport \"./interfaces/ITwoKeyRegistry.sol\";\nimport \"./TwoKeyVoteToken.sol\";\n\ncontract DecentralizedNation {\n\n    string public nationName;\n    string public ipfsForConstitution;\n    string public ipfsHashForDAOPublicInfo;\n\n    bytes32[] public memberTypes;\n\n    address initialFounder;\n    Member[] public members;\n    uint numOfMembers;\n\n    address public votingToken;\n\n    bool initialized = false;\n\n    mapping(address => uint) public memberId;\n\n    mapping(bytes32 => uint) public limitOfMembersPerType;\n    mapping(bytes32 => address[]) public memberTypeToMembers;\n\n    mapping(address => Campaign) public votingContractToCampaign;\n\n\n    Campaign[] public allCampaigns;\n    uint numberOfVotingCamapignsAndPetitions;\n\n    mapping(address => bytes32) public memberAddressToMemberType;\n\n    mapping(address => uint) votingPoints;\n    mapping(address => uint) totalNumberOfCampaigns;\n    mapping(bytes32 => bool) public isMemberTypeEligibleToCreateVotingCampaign;\n\n    uint minimalNumberOfPositiveVotersForVotingCampaign;\n    uint minimalPercentOfVotersForVotingCampaign;\n\n    uint minimalNumberOfVotersForPetitioningCampaign;\n    uint minimalPercentOfVotersForPetitioningCampaign;\n\n    function getLimitsForDAO() public view returns (uint,uint,uint,uint) {\n        return(\n            minimalNumberOfPositiveVotersForVotingCampaign,\n            minimalPercentOfVotersForVotingCampaign,\n            minimalNumberOfVotersForPetitioningCampaign,\n            minimalPercentOfVotersForPetitioningCampaign\n        );\n    }\n\n    address twoKeyRegistryContract;\n\n    struct Campaign {\n        string votingReason; //simple text to fulfill screen?\n        bool finished;\n        uint votesYes;\n        uint votesNo;\n        int votingResultForYes;\n        int votingResultForNo;\n        uint votingCampaignLengthInDays;\n        bytes32 campaignType; //can be voting/petitioning\n        address votingContract;\n    }\n\n\n\n    struct Member {\n        address memberAddress;\n        bytes32 username;\n        bytes32 fullName;\n        bytes32 email;\n        bytes32 memberType;\n    }\n\n\n\n\n    modifier onlyMembers {\n        require(memberId[msg.sender] != 0);\n        _;\n    }\n\n    modifier onlyInitialFounder {\n        require(msg.sender == initialFounder);\n        _;\n    }\n\n\n    constructor(\n        string _nationName,\n        string _ipfsHashForConstitution,\n        string _ipfsHashForDAOPublicInfo,\n        address[] founder,\n        bytes32[] initialMemberTypes,\n        uint[] limitPerType,\n        uint[] rightsToCreateVoting,\n        uint _minimalNumberOfVotersForVotingCampaign,\n        uint _minimalPercentOfVotersForVotingCampaign,\n        uint _minimalNumberOfVotersForPetitioningCampaign,\n        uint _minimalPercentOfVotersForPetitioningCampaign,\n        address _twoKeyRegistry\n    ) public {\n        require(limitPerType.length == initialMemberTypes.length);\n        initialFounder = founder[0];\n        memberTypes.push(bytes32(\"FOUNDERS\"));\n        isMemberTypeEligibleToCreateVotingCampaign[bytes32(\"FOUNDERS\")] = true;\n        twoKeyRegistryContract = _twoKeyRegistry;\n        addMember(0,bytes32(0));\n        addMember(founder[0], bytes32(\"FOUNDERS\"));\n\n        votingToken = new TwoKeyVoteToken(address(this));\n\n        for(uint j=0; j<initialMemberTypes.length; j++) {\n            limitOfMembersPerType[initialMemberTypes[j]] = limitPerType[j];\n            if(rightsToCreateVoting[j] == 1){\n                isMemberTypeEligibleToCreateVotingCampaign[initialMemberTypes[j]] = true;\n            } else {\n                isMemberTypeEligibleToCreateVotingCampaign[initialMemberTypes[j]] = false;\n            }\n            memberTypes.push(initialMemberTypes[j]);\n        }\n\n        minimalNumberOfPositiveVotersForVotingCampaign = _minimalNumberOfVotersForVotingCampaign;\n        minimalPercentOfVotersForVotingCampaign = _minimalPercentOfVotersForVotingCampaign;\n        minimalNumberOfVotersForPetitioningCampaign = _minimalNumberOfVotersForPetitioningCampaign;\n        minimalPercentOfVotersForPetitioningCampaign = _minimalPercentOfVotersForPetitioningCampaign;\n\n        nationName = _nationName;\n        ipfsForConstitution = _ipfsHashForConstitution;\n        ipfsHashForDAOPublicInfo = _ipfsHashForDAOPublicInfo;\n        initialized = true;\n    }\n\n\n    function addMembersByFounders(address _memberAddress, bytes32 _memberType) public onlyInitialFounder {\n        require(limitOfMembersPerType[_memberType] > memberTypeToMembers[_memberType].length);\n\n        bytes32 memberUsername;\n        bytes32 memberFullName;\n        bytes32 memberEmail;\n\n        (memberUsername,memberFullName,memberEmail) = ITwoKeyRegistry(twoKeyRegistryContract).getUserData(_memberAddress);\n        require(checkIfMemberTypeExists(_memberType) || _memberType == bytes32(0));\n        Member memory m = Member({\n            memberAddress: _memberAddress,\n            username: memberUsername,\n            fullName: memberFullName,\n            email: memberEmail,\n            memberType: _memberType\n            });\n\n        members.push(m);\n        memberAddressToMemberType[_memberAddress] = _memberType;\n        memberId[_memberAddress] = numOfMembers;\n        memberTypeToMembers[_memberType].push(_memberAddress);\n        votingPoints[_memberAddress] = 1000000000000000000;\n        totalNumberOfCampaigns[_memberAddress] = numberOfVotingCamapignsAndPetitions;\n        numOfMembers++;\n    }\n\n    function addMember(\n        address _memberAddress,\n        bytes32 _memberType)\n    internal {\n        if(members.length > 0) {\n            require(ITwoKeyRegistry(twoKeyRegistryContract).checkIfUserExists(_memberAddress));\n        }\n        if(initialized) {\n            require(limitOfMembersPerType[_memberType] > memberTypeToMembers[_memberType].length);\n        }\n\n        bytes32 memberUsername;\n        bytes32 memberFullName;\n        bytes32 memberEmail;\n\n        (memberUsername,memberFullName,memberEmail) = ITwoKeyRegistry(twoKeyRegistryContract).getUserData(_memberAddress);\n        require(checkIfMemberTypeExists(_memberType) || _memberType == bytes32(0));\n        Member memory m = Member({\n            memberAddress: _memberAddress,\n            username: memberUsername,\n            fullName: memberFullName,\n            email: memberEmail,\n            memberType: _memberType\n        });\n\n        members.push(m);\n        memberAddressToMemberType[_memberAddress] = _memberType;\n        memberId[_memberAddress] = numOfMembers;\n        memberTypeToMembers[_memberType].push(_memberAddress);\n        votingPoints[_memberAddress] = 1000000000000000000;\n        totalNumberOfCampaigns[_memberAddress] = numberOfVotingCamapignsAndPetitions;\n        numOfMembers++;\n    }\n\n    function removeMemberFromMemberTypeArray(address targetMember) internal {\n        bytes32 memberType = memberAddressToMemberType[targetMember];\n        bool flag = false;\n        for(uint i=0; i<memberTypeToMembers[memberType].length - 1; i++) {\n            if(memberTypeToMembers[memberType][i] == targetMember) {\n                flag = true;\n            }\n            if(flag == true || i== memberTypeToMembers[memberType].length - 2) {\n                memberTypeToMembers[memberType][i] = memberTypeToMembers[memberType][i+1];\n            }\n        }\n        delete memberTypeToMembers[memberType][memberTypeToMembers[memberType].length-1];\n    }\n\n    function removeMember(address targetMember) internal {\n        require(memberId[targetMember] != 0);\n        for (uint j = memberId[targetMember]; j<members.length-1; j++){\n            members[j] = members[j+1];\n        }\n        delete members[members.length-1];\n\n        removeMemberFromMemberTypeArray(targetMember);\n\n        memberId[targetMember] = 0;\n        memberAddressToMemberType[targetMember] = bytes32(0);\n        votingPoints[targetMember] = 0;\n        members.length--;\n    }\n\n    function getMemberId(address _memberAddress) public view returns (uint) {\n        return memberId[msg.sender];\n    }\n\n\n    function changeMemberType(\n        address _memberAddress,\n        bytes32 _newType)\n    internal {\n        require(memberId[_memberAddress] != 0);\n        require(checkIfMemberTypeExists(_newType));\n        uint id = memberId[_memberAddress];\n        memberAddressToMemberType[_memberAddress] = _newType;\n        Member memory m = members[id];\n        m.memberType = _newType;\n        members[id] = m;\n    }\n\n\n    function checkIfMemberTypeExists(bytes32 memberType) public view returns (bool) {\n        for(uint i=0; i<memberTypes.length; i++) {\n            if(memberTypes[i] == memberType) {\n                return true;\n            }\n        }\n        return false;\n    }\n\n    /// @notice Function to return all the members from Liberland\n    function getAllMembers() public view returns (address[],bytes32[],bytes32[],bytes32[], bytes32[]) {\n        uint length = members.length - 1;\n        address[] memory allMemberAddresses = new address[](length);\n        bytes32[] memory allMemberUsernames = new bytes32[](length);\n        bytes32[] memory allMemberFullNames = new bytes32[](length);\n        bytes32[] memory allMemberEmails = new bytes32[](length);\n        bytes32[] memory allMemberTypes = new bytes32[](length);\n\n        for(uint i=1; i<length + 1; i++) {\n            Member memory m = members[i];\n            allMemberAddresses[i-1] = m.memberAddress;\n            allMemberUsernames[i-1] = m.username;\n            allMemberFullNames[i-1] = m.fullName;\n            allMemberEmails[i-1] = m.email;\n            allMemberTypes[i-1] = m.memberType;\n        }\n        return (allMemberAddresses, allMemberUsernames, allMemberFullNames, allMemberEmails, allMemberTypes);\n    }\n\n\n    function getAllMembersForType(bytes32 memberType) public view returns (address[]) {\n        return memberTypeToMembers[memberType];\n    }\n\n    function getLimitForType(bytes32 memberType) public view returns(uint) {\n        return limitOfMembersPerType[memberType];\n    }\n\n    function getMembersVotingPoints(address _memberAddress) public view returns (uint) {\n        return votingPoints[_memberAddress];\n    }\n\n\n    function startCampagin(\n        string description,\n        uint votingCampaignLengthInDays,\n        address twoKeyWeightedVoteContract,\n        uint flag //if 0 then voting else petitioning\n    ) public {\n        require(memberId[msg.sender] != 0);\n        bytes32 _campaignType;\n        if(flag == 0) {\n            _campaignType = bytes32(\"VOTING\");\n        } else {\n            _campaignType = bytes32(\"PETITIONING\");\n        }\n\n        Campaign memory cmp = Campaign({\n            votingReason: description,\n            finished: false,\n            votesYes: 0,\n            votesNo: 0,\n            votingResultForYes: 0,\n            votingResultForNo: 0,\n            votingCampaignLengthInDays: votingCampaignLengthInDays,\n            campaignType: _campaignType,\n            votingContract: twoKeyWeightedVoteContract\n        });\n\n        votingContractToCampaign[twoKeyWeightedVoteContract] = cmp;\n        ITwoKeyWeightedVoteContract(twoKeyWeightedVoteContract).setValid();\n        allCampaigns.push(cmp);\n        numberOfVotingCamapignsAndPetitions++;\n    }\n\n\n\n    function getResultsForVoting(address weightedVoteContractAddress) public view returns (uint,uint,uint,uint,uint,uint) {\n        return ITwoKeyWeightedVoteContract(weightedVoteContractAddress).getDynamicData();\n    }\n\n\n    function executeVoting(uint campaign_id, bytes signature) public returns (uint) {\n\n        Campaign memory campaign = allCampaigns[campaign_id];\n\n        require(campaign.finished == false);\n//        require(block.timestamp > nvc.votingCampaignLengthInDays);\n        ITwoKeyWeightedVoteContract(campaign.votingContract).transferSig(signature);\n        address [] memory allParticipants = ITwoKeyWeightedVoteContract(campaign.votingContract).getAllVoters();\n\n        for(uint i=0; i<allParticipants.length; i++) {\n            bool vote;\n            uint power;\n\n            (vote,power) = ITwoKeyWeightedVoteContract(campaign.votingContract).getVoteAndChoicePerAddress(allParticipants[i]);\n\n            if(vote == true) {\n                campaign.votesYes++;\n                campaign.votingResultForYes += int(power);\n            }\n            if(vote == false){\n                campaign.votesNo++;\n                campaign.votingResultForNo += int(power);\n            }\n        }\n        campaign.finished = true;\n        allCampaigns[campaign_id] = campaign;\n    }\n\n    function getNumberOfVotingCampaigns() public view returns (uint) {\n        return numberOfVotingCamapignsAndPetitions;\n    }\n\n    function getCampaignByAddressOfVoteContract(address voteContract) public view returns (string, bool, uint, uint, int, int, uint, bytes32, address) {\n        Campaign memory campaign = votingContractToCampaign[voteContract];\n        return (\n        campaign.votingReason,\n        campaign.finished,\n        campaign.votesYes,\n        campaign.votesNo,\n        campaign.votingResultForYes,\n        campaign.votingResultForNo,\n        campaign.votingCampaignLengthInDays,\n        campaign.campaignType,\n        campaign.votingContract);\n    }\n\n\n    function getCampaign(uint id) public view returns (string, bool, uint, uint, int, int, uint, bytes32, address) {\n        Campaign memory campaign = allCampaigns[id];\n        return (\n            campaign.votingReason,\n            campaign.finished,\n            campaign.votesYes,\n            campaign.votesNo,\n            campaign.votingResultForYes,\n            campaign.votingResultForNo,\n            campaign.votingCampaignLengthInDays,\n            campaign.campaignType,\n            campaign.votingContract);\n    }\n\n\n    function getNameAndIpfsHashes() public view returns (string,string,string) {\n        return (nationName, ipfsForConstitution, ipfsHashForDAOPublicInfo);\n    }\n\n    function getMemberid(address _member) public view returns (uint) {\n        return memberId[_member];\n    }\n\n}",
  "sourcePath": "/Users/nikolamadjarevic/Desktop/2key/contracts/contracts/2key/DecentralizedNation.sol",
  "compiler": {
    "name": "solc",
    "version": "0.4.24+commit.e67f0147.Emscripten.clang"
  },
  "schemaVersion": "2.0.1",
  "updatedAt": "2019-08-06T08:10:34.398Z"
}