{
  "contractName": "ITwoKeySingletonUtils",
  "abi": [
    {
      "constant": true,
      "inputs": [],
      "name": "TWO_KEY_SINGLETON_REGISTRY",
      "outputs": [
        {
          "name": "",
          "type": "address"
        }
      ],
      "payable": false,
      "stateMutability": "view",
      "type": "function"
    },
    {
      "constant": true,
      "inputs": [
        {
          "name": "_address",
          "type": "address"
        }
      ],
      "name": "getterChecker",
      "outputs": [
        {
          "name": "",
          "type": "bool"
        }
      ],
      "payable": false,
      "stateMutability": "view",
      "type": "function"
    }
  ],
  "bytecode": "0x608060405234801561001057600080fd5b506103ae806100206000396000f30060806040526004361061004c576000357c0100000000000000000000000000000000000000000000000000000000900463ffffffff1680638830afa014610051578063a9bd8945146100a8575b600080fd5b34801561005d57600080fd5b50610066610103565b604051808273ffffffffffffffffffffffffffffffffffffffff1673ffffffffffffffffffffffffffffffffffffffff16815260200191505060405180910390f35b3480156100b457600080fd5b506100e9600480360381019080803573ffffffffffffffffffffffffffffffffffffffff169060200190929190505050610128565b604051808215151515815260200191505060405180910390f35b6000809054906101000a900473ffffffffffffffffffffffffffffffffffffffff1681565b6000806101696040805190810160405280601981526020017f54776f4b65794d61696e7461696e657273526567697374727900000000000000815250610249565b90508073ffffffffffffffffffffffffffffffffffffffff16635cc7815c846040518263ffffffff167c0100000000000000000000000000000000000000000000000000000000028152600401808273ffffffffffffffffffffffffffffffffffffffff1673ffffffffffffffffffffffffffffffffffffffff168152602001915050602060405180830381600087803b15801561020657600080fd5b505af115801561021a573d6000803e3d6000fd5b505050506040513d602081101561023057600080fd5b8101908080519060200190929190505050915050919050565b60008060009054906101000a900473ffffffffffffffffffffffffffffffffffffffff1673ffffffffffffffffffffffffffffffffffffffff1663db7a6d90836040518263ffffffff167c01000000000000000000000000000000000000000000000000000000000281526004018080602001828103825283818151815260200191508051906020019080838360005b838110156102f45780820151818401526020810190506102d9565b50505050905090810190601f1680156103215780820380516001836020036101000a031916815260200191505b5092505050602060405180830381600087803b15801561034057600080fd5b505af1158015610354573d6000803e3d6000fd5b505050506040513d602081101561036a57600080fd5b810190808051906020019092919050505090509190505600a165627a7a7230582044a13ba9eb33004d27d2d7a9d823ae2c0cf682885e630227b183cbb1fe03f7370029",
  "source": "pragma solidity ^0.4.24;\n\nimport \"../interfaces/ITwoKeySingletoneRegistryFetchAddress.sol\";\nimport \"../interfaces/ITwoKeyMaintainersRegistry.sol\";\n\ncontract ITwoKeySingletonUtils {\n\n    address public TWO_KEY_SINGLETON_REGISTRY;\n\n    // Modifier to restrict method calls only to maintainers\n    modifier onlyMaintainer {\n        address twoKeyMaintainersRegistry = getAddressFromTwoKeySingletonRegistry(\"TwoKeyMaintainersRegistry\");\n        require(ITwoKeyMaintainersRegistry(twoKeyMaintainersRegistry).checkIsAddressMaintainer(msg.sender));\n        _;\n    }\n\n    function getterChecker(address _address) public view returns (bool) {\n        address twoKeyMaintainersRegistry = getAddressFromTwoKeySingletonRegistry(\"TwoKeyMaintainersRegistry\");\n        return ITwoKeyMaintainersRegistry(twoKeyMaintainersRegistry).checkIsAddressMaintainer(_address);\n    }\n\n    /**\n     * @notice Function to get any singleton contract proxy address from TwoKeySingletonRegistry contract\n     * @param contractName is the name of the contract we're looking for\n     */\n    function getAddressFromTwoKeySingletonRegistry(string contractName) internal view returns (address) {\n        return ITwoKeySingletoneRegistryFetchAddress(TWO_KEY_SINGLETON_REGISTRY)\n        .getContractProxyAddress(contractName);\n    }\n}\n",
  "sourcePath": "/Users/nikolamadjarevic/Desktop/2key/contracts/contracts/2key/non-upgradable-singletons/ITwoKeySingletonUtils.sol",
  "compiler": {
    "name": "solc",
    "version": "0.4.24+commit.e67f0147.Emscripten.clang"
  },
  "schemaVersion": "2.0.1",
  "updatedAt": "2019-11-07T08:14:37.383Z"
}