{
  "contractName": "KyberNetworkTestMockContract",
  "abi": [
    {
      "inputs": [],
      "payable": false,
      "stateMutability": "nonpayable",
      "type": "constructor"
    },
    {
      "constant": false,
      "inputs": [
        {
          "name": "token",
          "type": "address"
        },
        {
          "name": "minConversionRate",
          "type": "uint256"
        }
      ],
      "name": "swapEtherToToken",
      "outputs": [
        {
          "name": "",
          "type": "uint256"
        }
      ],
      "payable": true,
      "stateMutability": "payable",
      "type": "function"
    },
    {
      "constant": true,
      "inputs": [
        {
          "name": "src",
          "type": "address"
        },
        {
          "name": "dest",
          "type": "address"
        },
        {
          "name": "srcQty",
          "type": "uint256"
        }
      ],
      "name": "getExpectedRate",
      "outputs": [
        {
          "name": "expectedRate",
          "type": "uint256"
        },
        {
          "name": "slippageRate",
          "type": "uint256"
        }
      ],
      "payable": false,
      "stateMutability": "view",
      "type": "function"
    },
    {
      "constant": true,
      "inputs": [],
      "name": "getBalanceOfEtherOnContract",
      "outputs": [
        {
          "name": "",
          "type": "uint256"
        }
      ],
      "payable": false,
      "stateMutability": "view",
      "type": "function"
    }
  ],
  "bytecode": "0x608060405234801561001057600080fd5b506101d6806100206000396000f300608060405260043610610057576000357c0100000000000000000000000000000000000000000000000000000000900463ffffffff168063380139591461005c5780637a2a045614610087578063809a9e55146100db575b600080fd5b34801561006857600080fd5b50610071610163565b6040518082815260200191505060405180910390f35b6100c5600480360381019080803573ffffffffffffffffffffffffffffffffffffffff16906020019092919080359060200190929190505050610182565b6040518082815260200191505060405180910390f35b3480156100e757600080fd5b50610146600480360381019080803573ffffffffffffffffffffffffffffffffffffffff169060200190929190803573ffffffffffffffffffffffffffffffffffffffff16906020019092919080359060200190929190505050610196565b604051808381526020018281526020019250505060405180910390f35b60003073ffffffffffffffffffffffffffffffffffffffff1631905090565b6000683635c9adc5dea00000905092915050565b6000806103e89150600190509350939150505600a165627a7a723058206c0c696c17493c8e07b9a4e556880d166ab227a5cb6f710ce159b8b0161b2cd70029",
  "source": "pragma solidity ^0.4.24;\n\nimport \"./FungibleMockToken.sol\";\n\ncontract KyberNetworkTestMockContract {\n\n    constructor() public\n    {\n    }\n\n    function swapEtherToToken(\n        ERC20 token,\n        uint minConversionRate\n    )\n    public\n    payable\n    returns(uint)\n    {\n        return 1000*(10**18);\n    }\n\n\n    function getExpectedRate(\n        ERC20 src,\n        ERC20 dest,\n        uint srcQty\n    )\n    public\n    view\n    returns (uint expectedRate, uint slippageRate)\n    {\n        expectedRate = 1000;\n        slippageRate = 1;\n    }\n\n\n    function getBalanceOfEtherOnContract()\n    public\n    view\n    returns (uint)\n    {\n        return address(this).balance;\n    }\n}\n",
  "sourcePath": "/Users/nikolamadjarevic/Desktop/2key/contracts/contracts/test/KyberNetworkTestMockContract.sol",
  "compiler": {
    "name": "solc",
    "version": "0.4.24+commit.e67f0147.Emscripten.clang"
  },
  "schemaVersion": "2.0.1",
  "updatedAt": "2019-11-07T08:14:37.378Z"
}