{
  "contractName": "TestA",
  "abi": [
    {
      "constant": true,
      "inputs": [],
      "name": "tb",
      "outputs": [
        {
          "name": "",
          "type": "address"
        }
      ],
      "payable": false,
      "stateMutability": "view",
      "type": "function"
    },
    {
      "constant": true,
      "inputs": [],
      "name": "ft",
      "outputs": [
        {
          "name": "",
          "type": "address"
        }
      ],
      "payable": false,
      "stateMutability": "view",
      "type": "function"
    },
    {
      "constant": false,
      "inputs": [
        {
          "name": "_tb",
          "type": "address"
        },
        {
          "name": "_ft",
          "type": "address"
        }
      ],
      "name": "setTestBAndFt",
      "outputs": [],
      "payable": false,
      "stateMutability": "nonpayable",
      "type": "function"
    },
    {
      "constant": false,
      "inputs": [
        {
          "name": "contractY",
          "type": "address"
        }
      ],
      "name": "x",
      "outputs": [],
      "payable": false,
      "stateMutability": "nonpayable",
      "type": "function"
    }
  ],
  "bytecode": "0x608060405234801561001057600080fd5b50610459806100206000396000f300608060405260043610610062576000357c0100000000000000000000000000000000000000000000000000000000900463ffffffff1680630ec0786d146100675780631b6adc7e146100be578063bb1631cf14610121578063f037e4e314610178575b600080fd5b34801561007357600080fd5b5061007c6101bb565b604051808273ffffffffffffffffffffffffffffffffffffffff1673ffffffffffffffffffffffffffffffffffffffff16815260200191505060405180910390f35b3480156100ca57600080fd5b5061011f600480360381019080803573ffffffffffffffffffffffffffffffffffffffff169060200190929190803573ffffffffffffffffffffffffffffffffffffffff1690602001909291905050506101e1565b005b34801561012d57600080fd5b50610136610266565b604051808273ffffffffffffffffffffffffffffffffffffffff1673ffffffffffffffffffffffffffffffffffffffff16815260200191505060405180910390f35b34801561018457600080fd5b506101b9600480360381019080803573ffffffffffffffffffffffffffffffffffffffff16906020019092919050505061028b565b005b600160009054906101000a900473ffffffffffffffffffffffffffffffffffffffff1681565b81600160006101000a81548173ffffffffffffffffffffffffffffffffffffffff021916908373ffffffffffffffffffffffffffffffffffffffff160217905550806000806101000a81548173ffffffffffffffffffffffffffffffffffffffff021916908373ffffffffffffffffffffffffffffffffffffffff1602179055505050565b6000809054906101000a900473ffffffffffffffffffffffffffffffffffffffff1681565b6000809054906101000a900473ffffffffffffffffffffffffffffffffffffffff1673ffffffffffffffffffffffffffffffffffffffff1663095ea7b38260646040518363ffffffff167c0100000000000000000000000000000000000000000000000000000000028152600401808373ffffffffffffffffffffffffffffffffffffffff1673ffffffffffffffffffffffffffffffffffffffff16815260200182815260200192505050602060405180830381600087803b15801561035057600080fd5b505af1158015610364573d6000803e3d6000fd5b505050506040513d602081101561037a57600080fd5b810190808051906020019092919050505050600160009054906101000a900473ffffffffffffffffffffffffffffffffffffffff1673ffffffffffffffffffffffffffffffffffffffff1663aa6ca8086040518163ffffffff167c0100000000000000000000000000000000000000000000000000000000028152600401600060405180830381600087803b15801561041257600080fd5b505af1158015610426573d6000803e3d6000fd5b50505050505600a165627a7a72305820664ad4aee4395c52cbc04f928f14b25ca4963200bc63e39235115d72e8ce5ea10029",
  "source": "pragma solidity ^0.4.24;\n\nimport \"../2key/ERC20/StandardTokenModified.sol\";\n\n/**\n * @author Nikola Madjarevic\n */\ncontract FungibleMockToken is StandardTokenModified {\n    string public name;\n    string public symbol;\n    uint8 public decimals;\n\n    constructor (string _name, string _symbol, address _owner) public {\n        name = _name;\n        symbol = _symbol;\n\n        decimals = 18;\n        totalSupply_= 1000000000000000000000000000; // 1B tokens total minted supply\n        balances[_owner]= totalSupply_;\n    }\n\n\n}\n\n\ncontract TestA {\n    FungibleMockToken public ft;\n    TestB public  tb;\n\n    function setTestBAndFt(address _tb, address _ft) public {\n        tb = TestB(_tb);\n        ft = FungibleMockToken(_ft);\n    }\n\n    function x(address contractY) public {\n        ft.approve(contractY, 100);\n        tb.getTokens();\n    }\n}\n\ncontract TestB {\n        FungibleMockToken public ft;\n\n    function setTestBAndFt(address _ft) public {\n        ft = FungibleMockToken(_ft);\n    }\n\n    function getTokens() public {\n        ft.transferFrom(msg.sender, address(this), 100);\n    }\n}\n",
  "sourcePath": "/Users/nikolamadjarevic/Desktop/2key/contracts/contracts/test/FungibleMockToken.sol",
  "compiler": {
    "name": "solc",
    "version": "0.4.24+commit.e67f0147.Emscripten.clang"
  },
  "schemaVersion": "2.0.1",
  "updatedAt": "2019-11-07T08:14:37.413Z"
}