{
  "contractName": "TokenPool",
  "abi": [
    {
      "constant": true,
      "inputs": [],
      "name": "TWO_KEY_ECONOMY",
      "outputs": [
        {
          "name": "",
          "type": "address"
        }
      ],
      "payable": false,
      "stateMutability": "view",
      "type": "function"
    },
    {
      "constant": true,
      "inputs": [],
      "name": "implementation",
      "outputs": [
        {
          "name": "",
          "type": "address"
        }
      ],
      "payable": false,
      "stateMutability": "view",
      "type": "function"
    },
    {
      "constant": true,
      "inputs": [],
      "name": "TWO_KEY_SINGLETON_REGISTRY",
      "outputs": [
        {
          "name": "",
          "type": "address"
        }
      ],
      "payable": false,
      "stateMutability": "view",
      "type": "function"
    },
    {
      "constant": true,
      "inputs": [
        {
          "name": "_address",
          "type": "address"
        }
      ],
      "name": "getterChecker",
      "outputs": [
        {
          "name": "",
          "type": "bool"
        }
      ],
      "payable": false,
      "stateMutability": "view",
      "type": "function"
    },
    {
      "constant": false,
      "inputs": [
        {
          "name": "sender",
          "type": "address"
        }
      ],
      "name": "initialize",
      "outputs": [],
      "payable": true,
      "stateMutability": "payable",
      "type": "function"
    },
    {
      "constant": true,
      "inputs": [],
      "name": "getContractBalance",
      "outputs": [
        {
          "name": "",
          "type": "uint256"
        }
      ],
      "payable": false,
      "stateMutability": "view",
      "type": "function"
    }
  ],
  "bytecode": "0x60806040526000600260146101000a81548160ff02191690831515021790555034801561002b57600080fd5b506106988061003b6000396000f300608060405260043610610078576000357c0100000000000000000000000000000000000000000000000000000000900463ffffffff1680632d734df11461007d5780635c60da1b146100d45780636f9fb98a1461012b5780638830afa014610156578063a9bd8945146101ad578063c4d66de814610208575b600080fd5b34801561008957600080fd5b5061009261023e565b604051808273ffffffffffffffffffffffffffffffffffffffff1673ffffffffffffffffffffffffffffffffffffffff16815260200191505060405180910390f35b3480156100e057600080fd5b506100e9610264565b604051808273ffffffffffffffffffffffffffffffffffffffff1673ffffffffffffffffffffffffffffffffffffffff16815260200191505060405180910390f35b34801561013757600080fd5b5061014061028e565b6040518082815260200191505060405180910390f35b34801561016257600080fd5b5061016b61038d565b604051808273ffffffffffffffffffffffffffffffffffffffff1673ffffffffffffffffffffffffffffffffffffffff16815260200191505060405180910390f35b3480156101b957600080fd5b506101ee600480360381019080803573ffffffffffffffffffffffffffffffffffffffff1690602001909291905050506103b3565b604051808215151515815260200191505060405180910390f35b61023c600480360381019080803573ffffffffffffffffffffffffffffffffffffffff1690602001909291905050506104d4565b005b600360009054906101000a900473ffffffffffffffffffffffffffffffffffffffff1681565b6000600160009054906101000a900473ffffffffffffffffffffffffffffffffffffffff16905090565b6000600360009054906101000a900473ffffffffffffffffffffffffffffffffffffffff1673ffffffffffffffffffffffffffffffffffffffff166370a08231306040518263ffffffff167c0100000000000000000000000000000000000000000000000000000000028152600401808273ffffffffffffffffffffffffffffffffffffffff1673ffffffffffffffffffffffffffffffffffffffff168152602001915050602060405180830381600087803b15801561034d57600080fd5b505af1158015610361573d6000803e3d6000fd5b505050506040513d602081101561037757600080fd5b8101908080519060200190929190505050905090565b600260009054906101000a900473ffffffffffffffffffffffffffffffffffffffff1681565b6000806103f46040805190810160405280601981526020017f54776f4b65794d61696e7461696e657273526567697374727900000000000000815250610532565b90508073ffffffffffffffffffffffffffffffffffffffff16635cc7815c846040518263ffffffff167c0100000000000000000000000000000000000000000000000000000000028152600401808273ffffffffffffffffffffffffffffffffffffffff1673ffffffffffffffffffffffffffffffffffffffff168152602001915050602060405180830381600087803b15801561049157600080fd5b505af11580156104a5573d6000803e3d6000fd5b505050506040513d60208110156104bb57600080fd5b8101908080519060200190929190505050915050919050565b6000809054906101000a900473ffffffffffffffffffffffffffffffffffffffff1673ffffffffffffffffffffffffffffffffffffffff163373ffffffffffffffffffffffffffffffffffffffff1614151561052f57600080fd5b50565b6000600260009054906101000a900473ffffffffffffffffffffffffffffffffffffffff1673ffffffffffffffffffffffffffffffffffffffff1663db7a6d90836040518263ffffffff167c01000000000000000000000000000000000000000000000000000000000281526004018080602001828103825283818151815260200191508051906020019080838360005b838110156105de5780820151818401526020810190506105c3565b50505050905090810190601f16801561060b5780820380516001836020036101000a031916815260200191505b5092505050602060405180830381600087803b15801561062a57600080fd5b505af115801561063e573d6000803e3d6000fd5b505050506040513d602081101561065457600080fd5b810190808051906020019092919050505090509190505600a165627a7a72305820273da93ca37aca2cd94625c2748ddfff31358b5f96036c6160b58c50732feb040029",
  "source": "pragma solidity ^0.4.24;\n\nimport \"../interfaces/ITwoKeyMaintainersRegistry.sol\";\nimport \"../interfaces/ITwoKeySingletoneRegistryFetchAddress.sol\";\nimport \"../interfaces/IERC20.sol\";\nimport \"../upgradability/Upgradeable.sol\";\nimport \"../non-upgradable-singletons/ITwoKeySingletonUtils.sol\";\n/**\n * @author Nikola Madjarevic\n * Created at 2/5/19\n */\ncontract TokenPool is Upgradeable, ITwoKeySingletonUtils {\n\n    bool initialized = false;\n\n    address public TWO_KEY_ECONOMY;\n\n    function setInitialParameters(\n        address _erc20address,\n        address _twoKeySingletonesRegistry\n    )\n    internal\n    {\n        TWO_KEY_ECONOMY = _erc20address;\n        TWO_KEY_SINGLETON_REGISTRY = _twoKeySingletonesRegistry;\n    }\n\n\n    modifier onlyTwoKeyAdmin {\n        address twoKeyAdmin = getAddressFromTwoKeySingletonRegistry(\"TwoKeyAdmin\");\n        require(msg.sender == twoKeyAdmin);\n        _;\n    }\n\n    /**\n     * @notice Function to retrieve the balance of tokens on the contract\n     */\n    function getContractBalance()\n    public\n    view\n    returns (uint)\n    {\n        return IERC20(TWO_KEY_ECONOMY).balanceOf(address(this));\n    }\n\n    /**\n     * @notice Function to transfer tokens\n     */\n    function transferTokens(\n        address receiver,\n        uint amount\n    )\n    internal\n    {\n        IERC20(TWO_KEY_ECONOMY).transfer(receiver,amount);\n    }\n\n}\n",
  "sourcePath": "/Users/nikolamadjarevic/Desktop/2key/contracts/contracts/2key/token-pools/TokenPool.sol",
  "compiler": {
    "name": "solc",
    "version": "0.4.24+commit.e67f0147.Emscripten.clang"
  },
  "schemaVersion": "2.0.1",
  "updatedAt": "2019-11-07T08:14:37.394Z"
}