{
  "contractName": "TwoKeyDonationCampaign",
  "abi": [
    {
      "constant": true,
      "inputs": [],
      "name": "publicMetaHash",
      "outputs": [
        {
          "name": "",
          "type": "string"
        }
      ],
      "payable": false,
      "stateMutability": "view",
      "type": "function"
    },
    {
      "constant": true,
      "inputs": [],
      "name": "logicHandler",
      "outputs": [
        {
          "name": "",
          "type": "address"
        }
      ],
      "payable": false,
      "stateMutability": "view",
      "type": "function"
    },
    {
      "constant": false,
      "inputs": [
        {
          "name": "_newPublicMetaHash",
          "type": "string"
        }
      ],
      "name": "updateIpfsHashOfCampaign",
      "outputs": [],
      "payable": false,
      "stateMutability": "nonpayable",
      "type": "function"
    },
    {
      "constant": true,
      "inputs": [],
      "name": "totalSupply",
      "outputs": [
        {
          "name": "",
          "type": "uint256"
        }
      ],
      "payable": false,
      "stateMutability": "view",
      "type": "function"
    },
    {
      "constant": true,
      "inputs": [
        {
          "name": "",
          "type": "address"
        }
      ],
      "name": "public_link_key",
      "outputs": [
        {
          "name": "",
          "type": "address"
        }
      ],
      "payable": false,
      "stateMutability": "view",
      "type": "function"
    },
    {
      "constant": true,
      "inputs": [],
      "name": "moderator",
      "outputs": [
        {
          "name": "",
          "type": "address"
        }
      ],
      "payable": false,
      "stateMutability": "view",
      "type": "function"
    },
    {
      "constant": false,
      "inputs": [
        {
          "name": "_address",
          "type": "address"
        },
        {
          "name": "_withdrawAsStable",
          "type": "bool"
        }
      ],
      "name": "referrerWithdraw",
      "outputs": [],
      "payable": false,
      "stateMutability": "nonpayable",
      "type": "function"
    },
    {
      "constant": true,
      "inputs": [],
      "name": "privateMetaHash",
      "outputs": [
        {
          "name": "",
          "type": "string"
        }
      ],
      "payable": false,
      "stateMutability": "view",
      "type": "function"
    },
    {
      "constant": true,
      "inputs": [
        {
          "name": "_receiver",
          "type": "address"
        }
      ],
      "name": "getReceivedFrom",
      "outputs": [
        {
          "name": "",
          "type": "address"
        }
      ],
      "payable": false,
      "stateMutability": "view",
      "type": "function"
    },
    {
      "constant": true,
      "inputs": [],
      "name": "getModeratorTotalEarnings",
      "outputs": [
        {
          "name": "",
          "type": "uint256"
        }
      ],
      "payable": false,
      "stateMutability": "view",
      "type": "function"
    },
    {
      "constant": true,
      "inputs": [],
      "name": "implementation",
      "outputs": [
        {
          "name": "",
          "type": "address"
        }
      ],
      "payable": false,
      "stateMutability": "view",
      "type": "function"
    },
    {
      "constant": true,
      "inputs": [
        {
          "name": "me",
          "type": "address"
        }
      ],
      "name": "publicLinkKeyOf",
      "outputs": [
        {
          "name": "",
          "type": "address"
        }
      ],
      "payable": false,
      "stateMutability": "view",
      "type": "function"
    },
    {
      "constant": true,
      "inputs": [
        {
          "name": "_owner",
          "type": "address"
        }
      ],
      "name": "balanceOf",
      "outputs": [
        {
          "name": "",
          "type": "uint256"
        }
      ],
      "payable": false,
      "stateMutability": "view",
      "type": "function"
    },
    {
      "constant": true,
      "inputs": [],
      "name": "getConstantInfo",
      "outputs": [
        {
          "name": "",
          "type": "uint256"
        },
        {
          "name": "",
          "type": "uint256"
        },
        {
          "name": "",
          "type": "bool"
        }
      ],
      "payable": false,
      "stateMutability": "view",
      "type": "function"
    },
    {
      "constant": true,
      "inputs": [],
      "name": "getContractorBalanceAndTotalProceeds",
      "outputs": [
        {
          "name": "",
          "type": "uint256"
        },
        {
          "name": "",
          "type": "uint256"
        }
      ],
      "payable": false,
      "stateMutability": "view",
      "type": "function"
    },
    {
      "constant": true,
      "inputs": [
        {
          "name": "_influencer",
          "type": "address"
        }
      ],
      "name": "getReferrerPlasmaBalance",
      "outputs": [
        {
          "name": "",
          "type": "uint256"
        }
      ],
      "payable": false,
      "stateMutability": "view",
      "type": "function"
    },
    {
      "constant": true,
      "inputs": [],
      "name": "conversionHandler",
      "outputs": [
        {
          "name": "",
          "type": "address"
        }
      ],
      "payable": false,
      "stateMutability": "view",
      "type": "function"
    },
    {
      "constant": false,
      "inputs": [
        {
          "name": "_cancelledConverter",
          "type": "address"
        },
        {
          "name": "_conversionAmount",
          "type": "uint256"
        }
      ],
      "name": "sendBackEthWhenConversionCancelledOrRejected",
      "outputs": [],
      "payable": false,
      "stateMutability": "nonpayable",
      "type": "function"
    },
    {
      "constant": false,
      "inputs": [
        {
          "name": "_publicMetaHash",
          "type": "string"
        },
        {
          "name": "_privateMetaHash",
          "type": "string"
        },
        {
          "name": "_publicKey",
          "type": "address"
        }
      ],
      "name": "startCampaignWithInitialParams",
      "outputs": [],
      "payable": false,
      "stateMutability": "nonpayable",
      "type": "function"
    },
    {
      "constant": false,
      "inputs": [
        {
          "name": "_influencer",
          "type": "address"
        },
        {
          "name": "_balance",
          "type": "uint256"
        }
      ],
      "name": "updateReferrerPlasmaBalance",
      "outputs": [],
      "payable": false,
      "stateMutability": "nonpayable",
      "type": "function"
    },
    {
      "constant": true,
      "inputs": [
        {
          "name": "me",
          "type": "address"
        }
      ],
      "name": "getReferrerCut",
      "outputs": [
        {
          "name": "",
          "type": "uint256"
        }
      ],
      "payable": false,
      "stateMutability": "view",
      "type": "function"
    },
    {
      "constant": true,
      "inputs": [],
      "name": "contractor",
      "outputs": [
        {
          "name": "",
          "type": "address"
        }
      ],
      "payable": false,
      "stateMutability": "view",
      "type": "function"
    },
    {
      "constant": false,
      "inputs": [
        {
          "name": "_contractor",
          "type": "address"
        },
        {
          "name": "_moderator",
          "type": "address"
        },
        {
          "name": "_twoKeySingletonRegistry",
          "type": "address"
        },
        {
          "name": "_twoKeyDonationConversionHandler",
          "type": "address"
        },
        {
          "name": "_twoKeyDonationLogicHandler",
          "type": "address"
        },
        {
          "name": "numberValues",
          "type": "uint256[]"
        },
        {
          "name": "booleanValues",
          "type": "bool[]"
        }
      ],
      "name": "setInitialParamsDonationCampaign",
      "outputs": [],
      "payable": false,
      "stateMutability": "nonpayable",
      "type": "function"
    },
    {
      "constant": false,
      "inputs": [
        {
          "name": "cut",
          "type": "uint256"
        }
      ],
      "name": "setCut",
      "outputs": [],
      "payable": false,
      "stateMutability": "nonpayable",
      "type": "function"
    },
    {
      "constant": false,
      "inputs": [
        {
          "name": "value",
          "type": "uint256"
        }
      ],
      "name": "updateContractorProceeds",
      "outputs": [],
      "payable": false,
      "stateMutability": "nonpayable",
      "type": "function"
    },
    {
      "constant": false,
      "inputs": [
        {
          "name": "signature",
          "type": "bytes"
        },
        {
          "name": "receiver",
          "type": "address"
        }
      ],
      "name": "joinAndShareARC",
      "outputs": [],
      "payable": false,
      "stateMutability": "nonpayable",
      "type": "function"
    },
    {
      "constant": false,
      "inputs": [
        {
          "name": "signature",
          "type": "bytes"
        }
      ],
      "name": "convert",
      "outputs": [],
      "payable": true,
      "stateMutability": "payable",
      "type": "function"
    },
    {
      "constant": false,
      "inputs": [
        {
          "name": "_maxReferralRewardETHWei",
          "type": "uint256"
        },
        {
          "name": "_converter",
          "type": "address"
        },
        {
          "name": "_conversionId",
          "type": "uint256"
        }
      ],
      "name": "buyTokensAndDistributeReferrerRewards",
      "outputs": [
        {
          "name": "",
          "type": "uint256"
        }
      ],
      "payable": false,
      "stateMutability": "nonpayable",
      "type": "function"
    },
    {
      "constant": false,
      "inputs": [
        {
          "name": "moderatorFee",
          "type": "uint256"
        }
      ],
      "name": "buyTokensForModeratorRewards",
      "outputs": [],
      "payable": false,
      "stateMutability": "nonpayable",
      "type": "function"
    },
    {
      "constant": true,
      "inputs": [
        {
          "name": "last_influencer",
          "type": "address"
        }
      ],
      "name": "getReferrerCuts",
      "outputs": [
        {
          "name": "",
          "type": "uint256[]"
        }
      ],
      "payable": false,
      "stateMutability": "view",
      "type": "function"
    },
    {
      "constant": true,
      "inputs": [
        {
          "name": "_referrer",
          "type": "address"
        }
      ],
      "name": "getReferrerBalance",
      "outputs": [
        {
          "name": "",
          "type": "uint256"
        }
      ],
      "payable": false,
      "stateMutability": "view",
      "type": "function"
    },
    {
      "constant": false,
      "inputs": [],
      "name": "withdrawContractor",
      "outputs": [],
      "payable": false,
      "stateMutability": "nonpayable",
      "type": "function"
    },
    {
      "constant": true,
      "inputs": [],
      "name": "getReservedAmount2keyForRewards",
      "outputs": [
        {
          "name": "",
          "type": "uint256"
        }
      ],
      "payable": false,
      "stateMutability": "view",
      "type": "function"
    }
  ],
  "bytecode": "0x6080604052620f424060015534801561001757600080fd5b50614cf1806100276000396000f3006080604052600436106101a1576000357c0100000000000000000000000000000000000000000000000000000000900463ffffffff1680630566f64c146101a657806308c04306146102365780630fbf629d1461028d57806314f829e6146102f657806318160ddd1461037f5780631be46b8d146103aa578063383d0d06146104f357806338743904146105765780633a56df51146105cd5780633afa973a1461061c5780634c070ced146106ac5780634e52acc71461072f5780634eca80c61461074657806354cbb687146107735780635c60da1b1461079e578063612e2880146107f55780636e92b7501461087857806370a082311461091057806371e53aad1461096757806371e6de28146109a4578063727cdf87146109d6578063788fac2d14610a035780637981a7e014610a5a5780638cb9bbd814610ab15780639286b51e14610ade57806395d3b4de14610b49578063abc3bc9214610ba5578063b5ce6b7814610bfc578063c098ca7d14610c49578063c1ba46b714610c74578063cf9d8ce714610d43578063ede89f6414610d90578063fbfd204514610de7575b600080fd5b3480156101b257600080fd5b506101bb610e3e565b6040518080602001828103825283818151815260200191508051906020019080838360005b838110156101fb5780820151818401526020810190506101e0565b50505050905090810190601f1680156102285780820380516001836020036101000a031916815260200191505b509250505060405180910390f35b34801561024257600080fd5b5061024b610edc565b604051808273ffffffffffffffffffffffffffffffffffffffff1673ffffffffffffffffffffffffffffffffffffffff16815260200191505060405180910390f35b34801561029957600080fd5b506102f4600480360381019080803590602001908201803590602001908080601f0160208091040260200160405190810160405280939291908181526020018383808284378201915050505050509192919290505050610f02565b005b34801561030257600080fd5b5061037d600480360381019080803590602001908201803590602001908080601f0160208091040260200160405190810160405280939291908181526020018383808284378201915050505050509192919290803573ffffffffffffffffffffffffffffffffffffffff169060200190929190505050610f78565b005b34801561038b57600080fd5b50610394611181565b6040518082815260200191505060405180910390f35b3480156103b657600080fd5b506104f1600480360381019080803573ffffffffffffffffffffffffffffffffffffffff169060200190929190803573ffffffffffffffffffffffffffffffffffffffff169060200190929190803573ffffffffffffffffffffffffffffffffffffffff169060200190929190803573ffffffffffffffffffffffffffffffffffffffff169060200190929190803573ffffffffffffffffffffffffffffffffffffffff169060200190929190803590602001908201803590602001908080602002602001604051908101604052809392919081815260200183836020028082843782019150505050505091929192908035906020019082018035906020019080806020026020016040519081016040528093929190818152602001838360200280828437820191505050505050919291929050505061118b565b005b3480156104ff57600080fd5b50610534600480360381019080803573ffffffffffffffffffffffffffffffffffffffff169060200190929190505050611902565b604051808273ffffffffffffffffffffffffffffffffffffffff1673ffffffffffffffffffffffffffffffffffffffff16815260200191505060405180910390f35b34801561058257600080fd5b5061058b611935565b604051808273ffffffffffffffffffffffffffffffffffffffff1673ffffffffffffffffffffffffffffffffffffffff16815260200191505060405180910390f35b3480156105d957600080fd5b5061061a600480360381019080803573ffffffffffffffffffffffffffffffffffffffff16906020019092919080351515906020019092919050505061195b565b005b34801561062857600080fd5b50610631612110565b6040518080602001828103825283818151815260200191508051906020019080838360005b83811015610671578082015181840152602081019050610656565b50505050905090810190601f16801561069e5780820380516001836020036101000a031916815260200191505b509250505060405180910390f35b3480156106b857600080fd5b506106ed600480360381019080803573ffffffffffffffffffffffffffffffffffffffff1690602001909291905050506121ae565b604051808273ffffffffffffffffffffffffffffffffffffffff1673ffffffffffffffffffffffffffffffffffffffff16815260200191505060405180910390f35b34801561073b57600080fd5b50610744612217565b005b34801561075257600080fd5b506107716004803603810190808035906020019092919050505061227d565b005b34801561077f57600080fd5b50610788612312565b6040518082815260200191505060405180910390f35b3480156107aa57600080fd5b506107b361231c565b604051808273ffffffffffffffffffffffffffffffffffffffff1673ffffffffffffffffffffffffffffffffffffffff16815260200191505060405180910390f35b34801561080157600080fd5b50610836600480360381019080803573ffffffffffffffffffffffffffffffffffffffff169060200190929190505050612345565b604051808273ffffffffffffffffffffffffffffffffffffffff1673ffffffffffffffffffffffffffffffffffffffff16815260200191505060405180910390f35b34801561088457600080fd5b506108b9600480360381019080803573ffffffffffffffffffffffffffffffffffffffff1690602001909291905050506124a5565b6040518080602001828103825283818151815260200191508051906020019060200280838360005b838110156108fc5780820151818401526020810190506108e1565b505050509050019250505060405180910390f35b34801561091c57600080fd5b50610951600480360381019080803573ffffffffffffffffffffffffffffffffffffffff1690602001909291905050506126c5565b6040518082815260200191505060405180910390f35b34801561097357600080fd5b5061097c61270e565b6040518084815260200183815260200182151515158152602001935050505060405180910390f35b3480156109b057600080fd5b506109b9612734565b604051808381526020018281526020019250505060405180910390f35b3480156109e257600080fd5b50610a0160048036038101908080359060200190929190505050612745565b005b348015610a0f57600080fd5b50610a44600480360381019080803573ffffffffffffffffffffffffffffffffffffffff169060200190929190505050612752565b6040518082815260200191505060405180910390f35b348015610a6657600080fd5b50610a6f612892565b604051808273ffffffffffffffffffffffffffffffffffffffff1673ffffffffffffffffffffffffffffffffffffffff16815260200191505060405180910390f35b348015610abd57600080fd5b50610adc600480360381019080803590602001909291905050506128b8565b005b348015610aea57600080fd5b50610b3360048036038101908080359060200190929190803573ffffffffffffffffffffffffffffffffffffffff16906020019092919080359060200190929190505050612aa5565b6040518082815260200191505060405180910390f35b610ba3600480360381019080803590602001908201803590602001908080601f0160208091040260200160405190810160405280939291908181526020018383808284378201915050505050509192919290505050612c27565b005b348015610bb157600080fd5b50610be6600480360381019080803573ffffffffffffffffffffffffffffffffffffffff169060200190929190505050612efa565b6040518082815260200191505060405180910390f35b348015610c0857600080fd5b50610c47600480360381019080803573ffffffffffffffffffffffffffffffffffffffff1690602001909291908035906020019092919050505061303a565b005b348015610c5557600080fd5b50610c5e6130e1565b6040518082815260200191505060405180910390f35b348015610c8057600080fd5b50610d41600480360381019080803590602001908201803590602001908080601f0160208091040260200160405190810160405280939291908181526020018383808284378201915050505050509192919290803590602001908201803590602001908080601f0160208091040260200160405190810160405280939291908181526020018383808284378201915050505050509192919290803573ffffffffffffffffffffffffffffffffffffffff1690602001909291905050506130eb565b005b348015610d4f57600080fd5b50610d8e600480360381019080803573ffffffffffffffffffffffffffffffffffffffff16906020019092919080359060200190929190505050613184565b005b348015610d9c57600080fd5b50610dd1600480360381019080803573ffffffffffffffffffffffffffffffffffffffff169060200190929190505050613279565b6040518082815260200191505060405180910390f35b348015610df357600080fd5b50610dfc6133b9565b604051808273ffffffffffffffffffffffffffffffffffffffff1673ffffffffffffffffffffffffffffffffffffffff16815260200191505060405180910390f35b60118054600181600116156101000203166002900480601f016020809104026020016040519081016040528092919081815260200182805460018160011615610100020316600290048015610ed45780601f10610ea957610100808354040283529160200191610ed4565b820191906000526020600020905b815481529060010190602001808311610eb757829003601f168201915b505050505081565b600560009054906101000a900473ffffffffffffffffffffffffffffffffffffffff1681565b600960009054906101000a900473ffffffffffffffffffffffffffffffffffffffff1673ffffffffffffffffffffffffffffffffffffffff163373ffffffffffffffffffffffffffffffffffffffff16141515610f5e57600080fd5b8060119080519060200190610f74929190614c20565b5050565b610f8282336133df565b61117c600360009054906101000a900473ffffffffffffffffffffffffffffffffffffffff1673ffffffffffffffffffffffffffffffffffffffff16631a025f25336040518263ffffffff167c0100000000000000000000000000000000000000000000000000000000028152600401808273ffffffffffffffffffffffffffffffffffffffff1673ffffffffffffffffffffffffffffffffffffffff168152602001915050602060405180830381600087803b15801561104257600080fd5b505af1158015611056573d6000803e3d6000fd5b505050506040513d602081101561106c57600080fd5b8101908080519060200190929190505050600360009054906101000a900473ffffffffffffffffffffffffffffffffffffffff1673ffffffffffffffffffffffffffffffffffffffff16631a025f25846040518263ffffffff167c0100000000000000000000000000000000000000000000000000000000028152600401808273ffffffffffffffffffffffffffffffffffffffff1673ffffffffffffffffffffffffffffffffffffffff168152602001915050602060405180830381600087803b15801561113a57600080fd5b505af115801561114e573d6000803e3d6000fd5b505050506040513d602081101561116457600080fd5b8101908080519060200190929190505050600161372d565b505050565b6000600154905090565b60001515601760009054906101000a900460ff1615151415156111ad57600080fd5b68056bc75e2d631000008260008151811015156111c657fe5b90602001906020020151111515156111dd57600080fd5b86600960006101000a81548173ffffffffffffffffffffffffffffffffffffffff021916908373ffffffffffffffffffffffffffffffffffffffff16021790555085600a60006101000a81548173ffffffffffffffffffffffffffffffffffffffff021916908373ffffffffffffffffffffffffffffffffffffffff16021790555084600660006101000a81548173ffffffffffffffffffffffffffffffffffffffff021916908373ffffffffffffffffffffffffffffffffffffffff1602179055506112de6040805190810160405280601181526020017f54776f4b65794576656e74536f75726365000000000000000000000000000000815250613b2e565b600360006101000a81548173ffffffffffffffffffffffffffffffffffffffff021916908373ffffffffffffffffffffffffffffffffffffffff160217905550600660009054906101000a900473ffffffffffffffffffffffffffffffffffffffff1673ffffffffffffffffffffffffffffffffffffffff1663f716c79a6040518163ffffffff167c010000000000000000000000000000000000000000000000000000000002815260040180806020018281038252600d8152602001807f54776f4b657945636f6e6f6d7900000000000000000000000000000000000000815250602001915050602060405180830381600087803b1580156113e057600080fd5b505af11580156113f4573d6000803e3d6000fd5b505050506040513d602081101561140a57600080fd5b8101908080519060200190929190505050600760006101000a81548173ffffffffffffffffffffffffffffffffffffffff021916908373ffffffffffffffffffffffffffffffffffffffff160217905550620f424060018190555081600081518110151561147457fe5b90602001906020020151600e8190555081600681518110151561149357fe5b90602001906020020151600b8190555083600460006101000a81548173ffffffffffffffffffffffffffffffffffffffff021916908373ffffffffffffffffffffffffffffffffffffffff16021790555082600560006101000a81548173ffffffffffffffffffffffffffffffffffffffff021916908373ffffffffffffffffffffffffffffffffffffffff16021790555080600081518110151561153457fe5b90602001906020020151600a60156101000a81548160ff02191690831515021790555080600181518110151561156657fe5b90602001906020020151600a60146101000a81548160ff02191690831515021790555080600281518110151561159857fe5b90602001906020020151601760016101000a81548160ff021916908315150217905550600360009054906101000a900473ffffffffffffffffffffffffffffffffffffffff1673ffffffffffffffffffffffffffffffffffffffff16631a025f25886040518263ffffffff167c0100000000000000000000000000000000000000000000000000000000028152600401808273ffffffffffffffffffffffffffffffffffffffff1673ffffffffffffffffffffffffffffffffffffffff168152602001915050602060405180830381600087803b15801561167857600080fd5b505af115801561168c573d6000803e3d6000fd5b505050506040513d60208110156116a257600080fd5b8101908080519060200190929190505050600860006101000a81548173ffffffffffffffffffffffffffffffffffffffff021916908373ffffffffffffffffffffffffffffffffffffffff160217905550600860009054906101000a900473ffffffffffffffffffffffffffffffffffffffff1660166000600860009054906101000a900473ffffffffffffffffffffffffffffffffffffffff1673ffffffffffffffffffffffffffffffffffffffff1673ffffffffffffffffffffffffffffffffffffffff16815260200190815260200160002060006101000a81548173ffffffffffffffffffffffffffffffffffffffff021916908373ffffffffffffffffffffffffffffffffffffffff16021790555060015460026000600860009054906101000a900473ffffffffffffffffffffffffffffffffffffffff1673ffffffffffffffffffffffffffffffffffffffff1673ffffffffffffffffffffffffffffffffffffffff16815260200190815260200160002081905550600460009054906101000a900473ffffffffffffffffffffffffffffffffffffffff1673ffffffffffffffffffffffffffffffffffffffff16634b19aa2883600a81518110151561186a57fe5b906020019060200201516040518263ffffffff167c010000000000000000000000000000000000000000000000000000000002815260040180828152602001915050600060405180830381600087803b1580156118c657600080fd5b505af11580156118da573d6000803e3d6000fd5b505050506001601760006101000a81548160ff02191690831515021790555050505050505050565b60156020528060005260406000206000915054906101000a900473ffffffffffffffffffffffffffffffffffffffff1681565b600a60009054906101000a900473ffffffffffffffffffffffffffffffffffffffff1681565b6000806000808573ffffffffffffffffffffffffffffffffffffffff163373ffffffffffffffffffffffffffffffffffffffff161480611a8f5750600360009054906101000a900473ffffffffffffffffffffffffffffffffffffffff1673ffffffffffffffffffffffffffffffffffffffff166340f59c21336040518263ffffffff167c0100000000000000000000000000000000000000000000000000000000028152600401808273ffffffffffffffffffffffffffffffffffffffff1673ffffffffffffffffffffffffffffffffffffffff168152602001915050602060405180830381600087803b158015611a5357600080fd5b505af1158015611a67573d6000803e3d6000fd5b505050506040513d6020811015611a7d57600080fd5b81019080805190602001909291905050505b1515611a9a57600080fd5b600360009054906101000a900473ffffffffffffffffffffffffffffffffffffffff1673ffffffffffffffffffffffffffffffffffffffff16631a025f25876040518263ffffffff167c0100000000000000000000000000000000000000000000000000000000028152600401808273ffffffffffffffffffffffffffffffffffffffff1673ffffffffffffffffffffffffffffffffffffffff168152602001915050602060405180830381600087803b158015611b5757600080fd5b505af1158015611b6b573d6000803e3d6000fd5b505050506040513d6020811015611b8157600080fd5b810190808051906020019092919050505090506000601460008373ffffffffffffffffffffffffffffffffffffffff1673ffffffffffffffffffffffffffffffffffffffff1681526020019081526020016000205414151561210857611c1b6040805190810160405280600b81526020017f54776f4b657941646d696e000000000000000000000000000000000000000000815250613b2e565b9350611c5b6040805190810160405280601881526020017f54776f4b657955706772616461626c6545786368616e67650000000000000000815250613b2e565b9250601460008273ffffffffffffffffffffffffffffffffffffffff1673ffffffffffffffffffffffffffffffffffffffff1681526020019081526020016000205491506000601460008373ffffffffffffffffffffffffffffffffffffffff1673ffffffffffffffffffffffffffffffffffffffff16815260200190815260200160002081905550600115158515151415611eb257600760009054906101000a900473ffffffffffffffffffffffffffffffffffffffff1673ffffffffffffffffffffffffffffffffffffffff1663095ea7b384846040518363ffffffff167c0100000000000000000000000000000000000000000000000000000000028152600401808373ffffffffffffffffffffffffffffffffffffffff1673ffffffffffffffffffffffffffffffffffffffff16815260200182815260200192505050602060405180830381600087803b158015611db657600080fd5b505af1158015611dca573d6000803e3d6000fd5b505050506040513d6020811015611de057600080fd5b8101908080519060200190929190505050508273ffffffffffffffffffffffffffffffffffffffff1663685602a983886040518363ffffffff167c0100000000000000000000000000000000000000000000000000000000028152600401808381526020018273ffffffffffffffffffffffffffffffffffffffff1673ffffffffffffffffffffffffffffffffffffffff16815260200192505050600060405180830381600087803b158015611e9557600080fd5b505af1158015611ea9573d6000803e3d6000fd5b505050506120ec565b8373ffffffffffffffffffffffffffffffffffffffff1663f0cd4dce6040518163ffffffff167c0100000000000000000000000000000000000000000000000000000000028152600401602060405180830381600087803b158015611f1657600080fd5b505af1158015611f2a573d6000803e3d6000fd5b505050506040513d6020811015611f4057600080fd5b8101908080519060200190929190505050421015156120e6578273ffffffffffffffffffffffffffffffffffffffff1663cc08a85b836040518263ffffffff167c010000000000000000000000000000000000000000000000000000000002815260040180828152602001915050600060405180830381600087803b158015611fc857600080fd5b505af1158015611fdc573d6000803e3d6000fd5b50505050600760009054906101000a900473ffffffffffffffffffffffffffffffffffffffff1673ffffffffffffffffffffffffffffffffffffffff1663a9059cbb87846040518363ffffffff167c0100000000000000000000000000000000000000000000000000000000028152600401808373ffffffffffffffffffffffffffffffffffffffff1673ffffffffffffffffffffffffffffffffffffffff16815260200182815260200192505050602060405180830381600087803b1580156120a557600080fd5b505af11580156120b9573d6000803e3d6000fd5b505050506040513d60208110156120cf57600080fd5b8101908080519060200190929190505050506120eb565b600080fd5b5b61210182601054613c6890919063ffffffff16565b6010819055505b505050505050565b60128054600181600116156101000203166002900480601f0160208091040260200160405190810160405280929190818152602001828054600181600116156101000203166002900480156121a65780601f1061217b576101008083540402835291602001916121a6565b820191906000526020600020905b81548152906001019060200180831161218957829003601f168201915b505050505081565b6000601660008373ffffffffffffffffffffffffffffffffffffffff1673ffffffffffffffffffffffffffffffffffffffff16815260200190815260200160002060009054906101000a900473ffffffffffffffffffffffffffffffffffffffff169050919050565b600960009054906101000a900473ffffffffffffffffffffffffffffffffffffffff1673ffffffffffffffffffffffffffffffffffffffff163373ffffffffffffffffffffffffffffffffffffffff1614151561227357600080fd5b61227b613c84565b565b600460009054906101000a900473ffffffffffffffffffffffffffffffffffffffff1673ffffffffffffffffffffffffffffffffffffffff163373ffffffffffffffffffffffffffffffffffffffff161415156122d957600080fd5b6122ee81600d54613cff90919063ffffffff16565b600d8190555061230981600c54613cff90919063ffffffff16565b600c8190555050565b6000600f54905090565b60008060009054906101000a900473ffffffffffffffffffffffffffffffffffffffff16905090565b600060156000600360009054906101000a900473ffffffffffffffffffffffffffffffffffffffff1673ffffffffffffffffffffffffffffffffffffffff16631a025f25856040518263ffffffff167c0100000000000000000000000000000000000000000000000000000000028152600401808273ffffffffffffffffffffffffffffffffffffffff1673ffffffffffffffffffffffffffffffffffffffff168152602001915050602060405180830381600087803b15801561240857600080fd5b505af115801561241c573d6000803e3d6000fd5b505050506040513d602081101561243257600080fd5b810190808051906020019092919050505073ffffffffffffffffffffffffffffffffffffffff1673ffffffffffffffffffffffffffffffffffffffff16815260200190815260200160002060009054906101000a900473ffffffffffffffffffffffffffffffffffffffff169050919050565b60608060606000806000600560009054906101000a900473ffffffffffffffffffffffffffffffffffffffff1673ffffffffffffffffffffffffffffffffffffffff1663df65845a886040518263ffffffff167c0100000000000000000000000000000000000000000000000000000000028152600401808273ffffffffffffffffffffffffffffffffffffffff1673ffffffffffffffffffffffffffffffffffffffff168152602001915050600060405180830381600087803b15801561256c57600080fd5b505af1158015612580573d6000803e3d6000fd5b505050506040513d6000823e3d601f19601f8201168201806040525060208110156125aa57600080fd5b8101908080516401000000008111156125c257600080fd5b828101905060208101848111156125d857600080fd5b81518560208202830111640100000000821117156125f557600080fd5b5050929190505050945060018551016040519080825280602002602001820160405280156126325781602001602082028038833980820191505090505b50935084519250600091505b8282101561269257848281518110151561265457fe5b90602001906020020151905061266981613279565b848381518110151561267757fe5b9060200190602002018181525050818060010192505061263e565b61269b87613279565b8486518151811015156126aa57fe5b90602001906020020181815250508395505050505050919050565b6000600260008373ffffffffffffffffffffffffffffffffffffffff1673ffffffffffffffffffffffffffffffffffffffff168152602001908152602001600020549050919050565b6000806000600b54600e54600a60149054906101000a900460ff16925092509250909192565b600080600c54600d54915091509091565b61274f3382613d1e565b50565b600060146000600360009054906101000a900473ffffffffffffffffffffffffffffffffffffffff1673ffffffffffffffffffffffffffffffffffffffff16631a025f25856040518263ffffffff167c0100000000000000000000000000000000000000000000000000000000028152600401808273ffffffffffffffffffffffffffffffffffffffff1673ffffffffffffffffffffffffffffffffffffffff168152602001915050602060405180830381600087803b15801561281557600080fd5b505af1158015612829573d6000803e3d6000fd5b505050506040513d602081101561283f57600080fd5b810190808051906020019092919050505073ffffffffffffffffffffffffffffffffffffffff1673ffffffffffffffffffffffffffffffffffffffff168152602001908152602001600020549050919050565b600460009054906101000a900473ffffffffffffffffffffffffffffffffffffffff1681565b600080600080600460009054906101000a900473ffffffffffffffffffffffffffffffffffffffff1673ffffffffffffffffffffffffffffffffffffffff163373ffffffffffffffffffffffffffffffffffffffff1614151561291a57600080fd5b6129586040805190810160405280601981526020017f54776f4b657944656570467265657a65546f6b656e506f6f6c00000000000000815250613b2e565b9350600360009054906101000a900473ffffffffffffffffffffffffffffffffffffffff1673ffffffffffffffffffffffffffffffffffffffff16635d680c9c6040518163ffffffff167c0100000000000000000000000000000000000000000000000000000000028152600401602060405180830381600087803b1580156129e057600080fd5b505af11580156129f4573d6000803e3d6000fd5b505050506040513d6020811015612a0a57600080fd5b81019080805190602001909291905050509250612a466064612a388560640388613efa90919063ffffffff16565b613f3590919063ffffffff16565b9150612a7482600a60009054906101000a900473ffffffffffffffffffffffffffffffffffffffff16613f4b565b9050612a8282860385613f4b565b50612a9881600f54613cff90919063ffffffff16565b600f819055505050505050565b600080600460009054906101000a900473ffffffffffffffffffffffffffffffffffffffff1673ffffffffffffffffffffffffffffffffffffffff163373ffffffffffffffffffffffffffffffffffffffff16141515612b0457600080fd5b6000600e541115612c0157612b198530613f4b565b9050600560009054906101000a900473ffffffffffffffffffffffffffffffffffffffff1673ffffffffffffffffffffffffffffffffffffffff16633afda04d8585846040518463ffffffff167c0100000000000000000000000000000000000000000000000000000000028152600401808473ffffffffffffffffffffffffffffffffffffffff1673ffffffffffffffffffffffffffffffffffffffff1681526020018381526020018281526020019350505050600060405180830381600087803b158015612be857600080fd5b505af1158015612bfc573d6000803e3d6000fd5b505050505b612c1681601054613cff90919063ffffffff16565b601081905550809150509392505050565b6000806000600560009054906101000a900473ffffffffffffffffffffffffffffffffffffffff1673ffffffffffffffffffffffffffffffffffffffff1663e80c945533346040518363ffffffff167c0100000000000000000000000000000000000000000000000000000000028152600401808373ffffffffffffffffffffffffffffffffffffffff1673ffffffffffffffffffffffffffffffffffffffff168152602001828152602001925050506040805180830381600087803b158015612cf057600080fd5b505af1158015612d04573d6000803e3d6000fd5b505050506040513d6040811015612d1a57600080fd5b810190808051906020019092919080519060200190929190505050809350819450505060011515831515141515612d5057600080fd5b600360009054906101000a900473ffffffffffffffffffffffffffffffffffffffff1673ffffffffffffffffffffffffffffffffffffffff16631a025f25336040518263ffffffff167c0100000000000000000000000000000000000000000000000000000000028152600401808273ffffffffffffffffffffffffffffffffffffffff1673ffffffffffffffffffffffffffffffffffffffff168152602001915050602060405180830381600087803b158015612e0d57600080fd5b505af1158015612e21573d6000803e3d6000fd5b505050506040513d6020811015612e3757600080fd5b81019080805190602001909291905050509050600073ffffffffffffffffffffffffffffffffffffffff16601660008373ffffffffffffffffffffffffffffffffffffffff1673ffffffffffffffffffffffffffffffffffffffff16815260200190815260200160002060009054906101000a900473ffffffffffffffffffffffffffffffffffffffff1673ffffffffffffffffffffffffffffffffffffffff161415612ee957612ee884336133df565b5b612ef4343384614074565b50505050565b600060146000600360009054906101000a900473ffffffffffffffffffffffffffffffffffffffff1673ffffffffffffffffffffffffffffffffffffffff16631a025f25856040518263ffffffff167c0100000000000000000000000000000000000000000000000000000000028152600401808273ffffffffffffffffffffffffffffffffffffffff1673ffffffffffffffffffffffffffffffffffffffff168152602001915050602060405180830381600087803b158015612fbd57600080fd5b505af1158015612fd1573d6000803e3d6000fd5b505050506040513d6020811015612fe757600080fd5b810190808051906020019092919050505073ffffffffffffffffffffffffffffffffffffffff1673ffffffffffffffffffffffffffffffffffffffff168152602001908152602001600020549050919050565b600460009054906101000a900473ffffffffffffffffffffffffffffffffffffffff1673ffffffffffffffffffffffffffffffffffffffff163373ffffffffffffffffffffffffffffffffffffffff1614151561309657600080fd5b8173ffffffffffffffffffffffffffffffffffffffff166108fc829081150290604051600060405180830381858888f193505050501580156130dc573d6000803e3d6000fd5b505050565b6000601054905090565b600960009054906101000a900473ffffffffffffffffffffffffffffffffffffffff1673ffffffffffffffffffffffffffffffffffffffff163373ffffffffffffffffffffffffffffffffffffffff1614151561314757600080fd5b826011908051906020019061315d929190614c20565b508160129080519060200190613174929190614c20565b5061317f338261429b565b505050565b600560009054906101000a900473ffffffffffffffffffffffffffffffffffffffff1673ffffffffffffffffffffffffffffffffffffffff163373ffffffffffffffffffffffffffffffffffffffff161415156131e057600080fd5b61323281601460008573ffffffffffffffffffffffffffffffffffffffff1673ffffffffffffffffffffffffffffffffffffffff16815260200190815260200160002054613cff90919063ffffffff16565b601460008473ffffffffffffffffffffffffffffffffffffffff1673ffffffffffffffffffffffffffffffffffffffff168152602001908152602001600020819055505050565b600060136000600360009054906101000a900473ffffffffffffffffffffffffffffffffffffffff1673ffffffffffffffffffffffffffffffffffffffff16631a025f25856040518263ffffffff167c0100000000000000000000000000000000000000000000000000000000028152600401808273ffffffffffffffffffffffffffffffffffffffff1673ffffffffffffffffffffffffffffffffffffffff168152602001915050602060405180830381600087803b15801561333c57600080fd5b505af1158015613350573d6000803e3d6000fd5b505050506040513d602081101561336657600080fd5b810190808051906020019092919050505073ffffffffffffffffffffffffffffffffffffffff1673ffffffffffffffffffffffffffffffffffffffff168152602001908152602001600020549050919050565b600960009054906101000a900473ffffffffffffffffffffffffffffffffffffffff1681565b60608060606000806000806133f48989614586565b809750819850829950839a505050505086519050600092505b8083101561372257600360009054906101000a900473ffffffffffffffffffffffffffffffffffffffff1673ffffffffffffffffffffffffffffffffffffffff16631a025f25888581518110151561346157fe5b906020019060200201516040518263ffffffff167c0100000000000000000000000000000000000000000000000000000000028152600401808273ffffffffffffffffffffffffffffffffffffffff1673ffffffffffffffffffffffffffffffffffffffff168152602001915050602060405180830381600087803b1580156134e957600080fd5b505af11580156134fd573d6000803e3d6000fd5b505050506040513d602081101561351357600080fd5b810190808051906020019092919050505091506000601660008473ffffffffffffffffffffffffffffffffffffffff1673ffffffffffffffffffffffffffffffffffffffff16815260200190815260200160002060009054906101000a900473ffffffffffffffffffffffffffffffffffffffff1673ffffffffffffffffffffffffffffffffffffffff1614156135b6576135b08483600161372d565b506136b9565b8373ffffffffffffffffffffffffffffffffffffffff16601660008473ffffffffffffffffffffffffffffffffffffffff1673ffffffffffffffffffffffffffffffffffffffff16815260200190815260200160002060009054906101000a900473ffffffffffffffffffffffffffffffffffffffff1673ffffffffffffffffffffffffffffffffffffffff161415156136b8576040517f08c379a00000000000000000000000000000000000000000000000000000000081526004018080602001828103825260168152602001807f6f6e6c792074726565204152437320616c6c6f7765640000000000000000000081525060200191505060405180910390fd5b5b81935085518310156136e7576136e68287858151811015156136d757fe5b9060200190602002015161429b565b5b84518310156137155761371482868581518110151561370257fe5b9060200190602002015160ff16613d1e565b5b828060010193505061340d565b505050505050505050565b600060018214151561373e57600080fd5b6000600260008673ffffffffffffffffffffffffffffffffffffffff1673ffffffffffffffffffffffffffffffffffffffff1681526020019081526020016000205411151561378c57600080fd5b6137df6001600260008773ffffffffffffffffffffffffffffffffffffffff1673ffffffffffffffffffffffffffffffffffffffff16815260200190815260200160002054613c6890919063ffffffff16565b600260008673ffffffffffffffffffffffffffffffffffffffff1673ffffffffffffffffffffffffffffffffffffffff16815260200190815260200160002081905550613876600b54600260008673ffffffffffffffffffffffffffffffffffffffff1673ffffffffffffffffffffffffffffffffffffffff16815260200190815260200160002054613cff90919063ffffffff16565b600260008573ffffffffffffffffffffffffffffffffffffffff1673ffffffffffffffffffffffffffffffffffffffff168152602001908152602001600020819055506138e36138d26001600b54613c6890919063ffffffff16565b600154613cff90919063ffffffff16565b6001819055506000601660008573ffffffffffffffffffffffffffffffffffffffff1673ffffffffffffffffffffffffffffffffffffffff16815260200190815260200160002060009054906101000a900473ffffffffffffffffffffffffffffffffffffffff1673ffffffffffffffffffffffffffffffffffffffff161415613aa557600360009054906101000a900473ffffffffffffffffffffffffffffffffffffffff1673ffffffffffffffffffffffffffffffffffffffff16638af1cbb93086866040518463ffffffff167c0100000000000000000000000000000000000000000000000000000000028152600401808473ffffffffffffffffffffffffffffffffffffffff1673ffffffffffffffffffffffffffffffffffffffff1681526020018373ffffffffffffffffffffffffffffffffffffffff1673ffffffffffffffffffffffffffffffffffffffff1681526020018273ffffffffffffffffffffffffffffffffffffffff1673ffffffffffffffffffffffffffffffffffffffff1681526020019350505050600060405180830381600087803b158015613a8c57600080fd5b505af1158015613aa0573d6000803e3d6000fd5b505050505b83601660008573ffffffffffffffffffffffffffffffffffffffff1673ffffffffffffffffffffffffffffffffffffffff16815260200190815260200160002060006101000a81548173ffffffffffffffffffffffffffffffffffffffff021916908373ffffffffffffffffffffffffffffffffffffffff160217905550600190509392505050565b6000600660009054906101000a900473ffffffffffffffffffffffffffffffffffffffff1673ffffffffffffffffffffffffffffffffffffffff1663db7a6d90836040518263ffffffff167c01000000000000000000000000000000000000000000000000000000000281526004018080602001828103825283818151815260200191508051906020019080838360005b83811015613bda578082015181840152602081019050613bbf565b50505050905090810190601f168015613c075780820380516001836020036101000a031916815260200191505b5092505050602060405180830381600087803b158015613c2657600080fd5b505af1158015613c3a573d6000803e3d6000fd5b505050506040513d6020811015613c5057600080fd5b81019080805190602001909291905050509050919050565b6000828211151515613c7957600080fd5b818303905092915050565b6000600c5490506000600c81905550600960009054906101000a900473ffffffffffffffffffffffffffffffffffffffff1673ffffffffffffffffffffffffffffffffffffffff166108fc829081150290604051600060405180830381858888f19350505050158015613cfb573d6000803e3d6000fd5b5050565b60008183019050828110151515613d1557600080fd5b80905092915050565b6000600360009054906101000a900473ffffffffffffffffffffffffffffffffffffffff1673ffffffffffffffffffffffffffffffffffffffff16631a025f25846040518263ffffffff167c0100000000000000000000000000000000000000000000000000000000028152600401808273ffffffffffffffffffffffffffffffffffffffff1673ffffffffffffffffffffffffffffffffffffffff168152602001915050602060405180830381600087803b158015613ddd57600080fd5b505af1158015613df1573d6000803e3d6000fd5b505050506040513d6020811015613e0757600080fd5b810190808051906020019092919050505090506000601360008373ffffffffffffffffffffffffffffffffffffffff1673ffffffffffffffffffffffffffffffffffffffff168152602001908152602001600020541480613ea6575081601360008373ffffffffffffffffffffffffffffffffffffffff1673ffffffffffffffffffffffffffffffffffffffff16815260200190815260200160002054145b1515613eb157600080fd5b81601360008373ffffffffffffffffffffffffffffffffffffffff1673ffffffffffffffffffffffffffffffffffffffff16815260200190815260200160002081905550505050565b600080831415613f0d5760009050613f2f565b8183029050818382811515613f1e57fe5b04141515613f2b57600080fd5b8090505b92915050565b60008183811515613f4257fe5b04905092915050565b6000806000613f8e6040805190810160405280601881526020017f54776f4b657955706772616461626c6545786368616e67650000000000000000815250613b2e565b91508173ffffffffffffffffffffffffffffffffffffffff1663ec8ac4d886866040518363ffffffff167c0100000000000000000000000000000000000000000000000000000000028152600401808273ffffffffffffffffffffffffffffffffffffffff1673ffffffffffffffffffffffffffffffffffffffff1681526020019150506020604051808303818588803b15801561402b57600080fd5b505af115801561403f573d6000803e3d6000fd5b50505050506040513d602081101561405657600080fd5b81019080805190602001909291905050509050809250505092915050565b60008061409f6064614091600e5488613efa90919063ffffffff16565b613f3590919063ffffffff16565b9150600460009054906101000a900473ffffffffffffffffffffffffffffffffffffffff1673ffffffffffffffffffffffffffffffffffffffff1663ca925812858785600a60149054906101000a900460ff16886040518663ffffffff167c0100000000000000000000000000000000000000000000000000000000028152600401808673ffffffffffffffffffffffffffffffffffffffff1673ffffffffffffffffffffffffffffffffffffffff1681526020018581526020018481526020018315151515815260200182815260200195505050505050602060405180830381600087803b15801561419157600080fd5b505af11580156141a5573d6000803e3d6000fd5b505050506040513d60208110156141bb57600080fd5b8101908080519060200190929190505050905060001515600a60149054906101000a900460ff161515141561429457600460009054906101000a900473ffffffffffffffffffffffffffffffffffffffff1673ffffffffffffffffffffffffffffffffffffffff16630ebdf788826040518263ffffffff167c010000000000000000000000000000000000000000000000000000000002815260040180828152602001915050600060405180830381600087803b15801561427b57600080fd5b505af115801561428f573d6000803e3d6000fd5b505050505b5050505050565b6000600360009054906101000a900473ffffffffffffffffffffffffffffffffffffffff1673ffffffffffffffffffffffffffffffffffffffff16631a025f25846040518263ffffffff167c0100000000000000000000000000000000000000000000000000000000028152600401808273ffffffffffffffffffffffffffffffffffffffff1673ffffffffffffffffffffffffffffffffffffffff168152602001915050602060405180830381600087803b15801561435a57600080fd5b505af115801561436e573d6000803e3d6000fd5b505050506040513d602081101561438457600080fd5b8101908080519060200190929190505050925060006143a2846126c5565b1115156143ae57600080fd5b601560008473ffffffffffffffffffffffffffffffffffffffff1673ffffffffffffffffffffffffffffffffffffffff16815260200190815260200160002060009054906101000a900473ffffffffffffffffffffffffffffffffffffffff169050600073ffffffffffffffffffffffffffffffffffffffff168173ffffffffffffffffffffffffffffffffffffffff1614156144c85781601560008573ffffffffffffffffffffffffffffffffffffffff1673ffffffffffffffffffffffffffffffffffffffff16815260200190815260200160002060006101000a81548173ffffffffffffffffffffffffffffffffffffffff021916908373ffffffffffffffffffffffffffffffffffffffff160217905550614503565b8173ffffffffffffffffffffffffffffffffffffffff168173ffffffffffffffffffffffffffffffffffffffff1614151561450257600080fd5b5b81601560008573ffffffffffffffffffffffffffffffffffffffff1673ffffffffffffffffffffffffffffffffffffffff16815260200190815260200160002060006101000a81548173ffffffffffffffffffffffffffffffffffffffff021916908373ffffffffffffffffffffffffffffffffffffffff160217905550505050565b60608060606000806000606080606060158b01519450600360009054906101000a900473ffffffffffffffffffffffffffffffffffffffff1673ffffffffffffffffffffffffffffffffffffffff16631a025f25866040518263ffffffff167c0100000000000000000000000000000000000000000000000000000000028152600401808273ffffffffffffffffffffffffffffffffffffffff1673ffffffffffffffffffffffffffffffffffffffff168152602001915050602060405180830381600087803b15801561465957600080fd5b505af115801561466d573d6000803e3d6000fd5b505050506040513d602081101561468357600080fd5b81019080805190602001909291905050509450601560008673ffffffffffffffffffffffffffffffffffffffff1673ffffffffffffffffffffffffffffffffffffffff16815260200190815260200160002060009054906101000a900473ffffffffffffffffffffffffffffffffffffffff16935073__Call__________________________________63ff3209ba8c86600360009054906101000a900473ffffffffffffffffffffffffffffffffffffffff1673ffffffffffffffffffffffffffffffffffffffff16631a025f258f6040518263ffffffff167c0100000000000000000000000000000000000000000000000000000000028152600401808273ffffffffffffffffffffffffffffffffffffffff1673ffffffffffffffffffffffffffffffffffffffff168152602001915050602060405180830381600087803b1580156147d157600080fd5b505af11580156147e5573d6000803e3d6000fd5b505050506040513d60208110156147fb57600080fd5b81019080805190602001909291905050506040518463ffffffff167c010000000000000000000000000000000000000000000000000000000002815260040180806020018473ffffffffffffffffffffffffffffffffffffffff1673ffffffffffffffffffffffffffffffffffffffff1681526020018373ffffffffffffffffffffffffffffffffffffffff1673ffffffffffffffffffffffffffffffffffffffff168152602001828103825285818151815260200191508051906020019080838360005b838110156148db5780820151818401526020810190506148c0565b50505050905090810190601f1680156149085780820380516001836020036101000a031916815260200191505b5094505050505060006040518083038186803b15801561492757600080fd5b505af415801561493b573d6000803e3d6000fd5b505050506040513d6000823e3d601f19601f82011682018060405250606081101561496557600080fd5b81019080805164010000000081111561497d57600080fd5b8281019050602081018481111561499357600080fd5b81518560208202830111640100000000821117156149b057600080fd5b505092919060200180516401000000008111156149cc57600080fd5b828101905060208101848111156149e257600080fd5b81518560208202830111640100000000821117156149ff57600080fd5b50509291906020018051640100000000811115614a1b57600080fd5b82810190506020810184811115614a3157600080fd5b8151856020820283011164010000000082111715614a4e57600080fd5b5050929190505050809350819450829550505050600360009054906101000a900473ffffffffffffffffffffffffffffffffffffffff1673ffffffffffffffffffffffffffffffffffffffff16631a025f258b6040518263ffffffff167c0100000000000000000000000000000000000000000000000000000000028152600401808273ffffffffffffffffffffffffffffffffffffffff1673ffffffffffffffffffffffffffffffffffffffff168152602001915050602060405180830381600087803b158015614b1f57600080fd5b505af1158015614b33573d6000803e3d6000fd5b505050506040513d6020811015614b4957600080fd5b810190808051906020019092919050505073ffffffffffffffffffffffffffffffffffffffff16836001855103815181101515614b8257fe5b9060200190602002015173ffffffffffffffffffffffffffffffffffffffff161480614bfb57503373ffffffffffffffffffffffffffffffffffffffff16600960009054906101000a900473ffffffffffffffffffffffffffffffffffffffff1673ffffffffffffffffffffffffffffffffffffffff16145b1515614c0657600080fd5b828282879850985098509850505050505092959194509250565b828054600181600116156101000203166002900490600052602060002090601f016020900481019282601f10614c6157805160ff1916838001178555614c8f565b82800160010185558215614c8f579182015b82811115614c8e578251825591602001919060010190614c73565b5b509050614c9c9190614ca0565b5090565b614cc291905b80821115614cbe576000816000905550600101614ca6565b5090565b905600a165627a7a7230582055a702bfa2dc5ddd4b4b8df3ad82eaa1cc18cb394e1977cc6074fe899afc14b00029",
  "source": "pragma solidity ^0.4.24;\n\nimport \"../campaign-mutual-contracts/TwoKeyCampaign.sol\";\nimport \"../campaign-mutual-contracts/TwoKeyCampaignIncentiveModels.sol\";\n\nimport \"../libraries/IncentiveModels.sol\";\nimport \"../TwoKeyConverterStates.sol\";\nimport \"../TwoKeyConversionStates.sol\";\n\nimport \"../interfaces/ITwoKeyDonationConversionHandler.sol\";\nimport \"../interfaces/ITwoKeyDonationLogicHandler.sol\";\nimport \"../upgradable-pattern-campaigns/UpgradeableCampaign.sol\";\n\n/**\n * @author Nikola Madjarevic\n * Created at 2/19/19\n */\ncontract TwoKeyDonationCampaign is UpgradeableCampaign, TwoKeyCampaign, TwoKeyCampaignIncentiveModels {\n\n    bool initialized;\n\n    bool acceptsFiat; // Will determine if fiat conversion can be created or not\n\n\n    modifier onlyTwoKeyDonationConversionHandler {\n        require(msg.sender == conversionHandler);\n        _;\n    }\n\n    function setInitialParamsDonationCampaign(\n        address _contractor,\n        address _moderator,\n        address _twoKeySingletonRegistry,\n        address _twoKeyDonationConversionHandler,\n        address _twoKeyDonationLogicHandler,\n        uint [] numberValues,\n        bool [] booleanValues\n    )\n    public\n    {\n        require(initialized == false);\n        require(numberValues[0] <= 100*(10**18)); //Require that max referral reward percent is less than 100%\n        contractor = _contractor;\n        moderator = _moderator;\n\n        twoKeySingletonesRegistry = _twoKeySingletonRegistry;\n        twoKeyEventSource = TwoKeyEventSource(getContractProxyAddress(\"TwoKeyEventSource\"));\n        twoKeyEconomy = ITwoKeySingletoneRegistryFetchAddress(twoKeySingletonesRegistry)\n            .getNonUpgradableContractAddress(\"TwoKeyEconomy\");\n        totalSupply_ = 1000000;\n\n        maxReferralRewardPercent = numberValues[0];\n        conversionQuota = numberValues[6];\n\n        conversionHandler = _twoKeyDonationConversionHandler;\n        logicHandler = _twoKeyDonationLogicHandler;\n\n\n        mustConvertToReferr = booleanValues[0];\n        isKYCRequired = booleanValues[1];\n        acceptsFiat = booleanValues[2];\n\n\n        ownerPlasma = twoKeyEventSource.plasmaOf(_contractor);\n        received_from[ownerPlasma] = ownerPlasma;\n        balances[ownerPlasma] = totalSupply_;\n\n        //Because of stack depth\n        ITwoKeyDonationConversionHandler(conversionHandler).setExpiryConversionInHours(numberValues[10]);\n\n        initialized = true;\n    }\n\n    /**\n      * @notice Function to set cut of\n      * @param me is the address (ethereum)\n      * @param cut is the cut value\n      */\n    function setCutOf(\n        address me,\n        uint256 cut\n    )\n    internal\n    {\n        // what is the percentage of the bounty s/he will receive when acting as an influencer\n        // the value 255 is used to signal equal partition with other influencers\n        // A sender can set the value only once in a contract\n        address plasma = twoKeyEventSource.plasmaOf(me);\n        require(referrerPlasma2cut[plasma] == 0 || referrerPlasma2cut[plasma] == cut);\n        referrerPlasma2cut[plasma] = cut;\n    }\n\n    /**\n     * @notice Function to set cut\n     * @param cut is the cut value\n     * @dev Executes internal setCutOf method\n     */\n    function setCut(\n        uint256 cut\n    )\n    public\n    {\n        setCutOf(msg.sender, cut);\n    }\n\n\n    /**\n     * @notice Function to track arcs and make ref tree\n     * @param sig is the signature user joins from\n     */\n    function distributeArcsBasedOnSignature(\n        bytes sig,\n        address _converter\n    )\n    private\n    {\n        address[] memory influencers;\n        address[] memory keys;\n        uint8[] memory weights;\n        address old_address;\n        (influencers, keys, weights, old_address) = super.getInfluencersKeysAndWeightsFromSignature(sig, _converter);\n        uint i;\n        address new_address;\n        uint numberOfInfluencers = influencers.length;\n        for (i = 0; i < numberOfInfluencers; i++) {\n            new_address = twoKeyEventSource.plasmaOf(influencers[i]);\n\n            if (received_from[new_address] == 0) {\n                transferFrom(old_address, new_address, 1);\n            } else {\n                require(received_from[new_address] == old_address,'only tree ARCs allowed');\n            }\n            old_address = new_address;\n\n            // TODO Updating the public key of influencers may not be a good idea because it will require the influencers to use\n            // a deterministic private/public key in the link and this might require user interaction (MetaMask signature)\n            // TODO a possible solution is change public_link_key to address=>address[]\n            // update (only once) the public address used by each influencer\n            // we will need this in case one of the influencers will want to start his own off-chain link\n            if (i < keys.length) {\n                setPublicLinkKeyOf(new_address, keys[i]);\n            }\n\n            // update (only once) the cut used by each influencer\n            // we will need this in case one of the influencers will want to start his own off-chain link\n            if (i < weights.length) {\n                setCutOf(new_address, uint256(weights[i]));\n            }\n        }\n    }\n\n\n    /**\n     * @notice Option to update contractor proceeds\n     * @dev can be called only from TwoKeyConversionHandler contract\n     * @param value it the value we'd like to add to total contractor proceeds and contractor balance\n     */\n    function updateContractorProceeds(\n        uint value\n    )\n    public\n    {\n        require(msg.sender == conversionHandler);\n        contractorTotalProceeds = contractorTotalProceeds.add(value);\n        contractorBalance = contractorBalance.add(value);\n    }\n\n    /**\n     * @notice Function to join with signature and share 1 arc to the receiver\n     * @param signature is the signature\n     * @param receiver is the address we're sending ARCs to\n     */\n    function joinAndShareARC(\n        bytes signature,\n        address receiver\n    )\n    public\n    {\n        distributeArcsBasedOnSignature(signature, msg.sender);\n        transferFrom(twoKeyEventSource.plasmaOf(msg.sender), twoKeyEventSource.plasmaOf(receiver), 1);\n    }\n\n    /**\n     * @notice Function where converter can convert\n     * @dev payable function\n     */\n    function convert(\n        bytes signature\n    )\n    public\n    payable\n    {\n        bool canConvert;\n        uint conversionAmountCampaignCurrency;\n        (canConvert, conversionAmountCampaignCurrency) = ITwoKeyDonationLogicHandler(logicHandler).checkAllRequirementsForConversionAndTotalRaised(\n            msg.sender,\n            msg.value\n        );\n        require(canConvert == true);\n        address _converterPlasma = twoKeyEventSource.plasmaOf(msg.sender);\n        if(received_from[_converterPlasma] == address(0)) {\n            distributeArcsBasedOnSignature(signature, msg.sender);\n        }\n        createConversion(msg.value, msg.sender, conversionAmountCampaignCurrency);\n    }\n\n    /*\n     * @notice Function which is executed to create conversion\n     * @param conversionAmountETHWeiOrFiat is the amount of the ether sent to the contract\n     * @param converterAddress is the sender of eth to the contract\n     */\n    function createConversion(\n        uint conversionAmountEthWEI,\n        address converterAddress,\n        uint conversionAmountCampaignCurrency\n    )\n    private\n    {\n        uint256 maxReferralRewardFiatOrETHWei = conversionAmountEthWEI.mul(maxReferralRewardPercent).div(100);\n\n        uint conversionId = ITwoKeyDonationConversionHandler(conversionHandler).supportForCreateConversion(\n            converterAddress,\n            conversionAmountEthWEI,\n            maxReferralRewardFiatOrETHWei,\n            isKYCRequired,\n            conversionAmountCampaignCurrency\n        );\n\n        if(isKYCRequired == false) {\n            ITwoKeyDonationConversionHandler(conversionHandler).executeConversion(conversionId);\n        }\n    }\n\n    /**\n      * @notice Function to delegate call to logic handler and update data, and buy tokens\n      * @param _maxReferralRewardETHWei total reward in ether wei\n      * @param _converter is the converter address\n      * @param _conversionId is the ID of conversion\n      */\n    function buyTokensAndDistributeReferrerRewards(\n        uint256 _maxReferralRewardETHWei,\n        address _converter,\n        uint _conversionId\n    )\n    public\n    returns (uint)\n    {\n        require(msg.sender == conversionHandler);\n        //Fiat rewards = fiatamount * moderatorPercentage / 100  / 0.095\n        uint totalBounty2keys;\n        //If fiat conversion do exactly the same just send different reward and don't buy tokens, take them from contract\n        if(maxReferralRewardPercent > 0) {\n            //Buy tokens from upgradable exchange\n            totalBounty2keys = buyTokensFromUpgradableExchange(_maxReferralRewardETHWei, address(this));\n            //Handle refchain rewards\n            ITwoKeyDonationLogicHandler(logicHandler).updateRefchainRewards(\n                _converter,\n                _conversionId,\n                totalBounty2keys);\n        }\n        reservedAmount2keyForRewards = reservedAmount2keyForRewards.add(totalBounty2keys);\n        return totalBounty2keys;\n    }\n\n    /**\n     * @notice Function which will buy tokens from upgradable exchange for moderator\n     * @param moderatorFee is the fee in tokens moderator earned\n     */\n    function buyTokensForModeratorRewards(\n        uint moderatorFee\n    )\n    public\n    onlyTwoKeyDonationConversionHandler\n    {\n        //Get deep freeze token pool address\n        address twoKeyDeepFreezeTokenPool = getContractProxyAddress(\"TwoKeyDeepFreezeTokenPool\");\n\n        uint networkFee = twoKeyEventSource.getTwoKeyDefaultNetworkTaxPercent();\n\n        // Balance which will go to moderator\n        uint balance = moderatorFee.mul(100-networkFee).div(100);\n\n        uint moderatorEarnings2key = buyTokensFromUpgradableExchange(balance,moderator); // Buy tokens for moderator\n        buyTokensFromUpgradableExchange(moderatorFee - balance, twoKeyDeepFreezeTokenPool); // Buy tokens for deep freeze token pool\n\n        moderatorTotalEarnings2key = moderatorTotalEarnings2key.add(moderatorEarnings2key);\n    }\n\n    /**\n     * @notice Function which acts like getter for all cuts in array\n     * @param last_influencer is the last influencer\n     * @return array of integers containing cuts respectively\n     */\n    function getReferrerCuts(\n        address last_influencer\n    )\n    public\n    view\n    returns (uint256[])\n    {\n        address[] memory influencers = ITwoKeyDonationLogicHandler(logicHandler).getReferrers(last_influencer);\n        uint256[] memory cuts = new uint256[](influencers.length + 1);\n\n        uint numberOfInfluencers = influencers.length;\n        for (uint i = 0; i < numberOfInfluencers; i++) {\n            address influencer = influencers[i];\n            cuts[i] = getReferrerCut(influencer);\n        }\n        cuts[influencers.length] = getReferrerCut(last_influencer);\n        return cuts;\n    }\n\n\n    /**\n     * @param _referrer we want to check earnings for\n     */\n    function getReferrerBalance(address _referrer) public view returns (uint) {\n        return referrerPlasma2Balances2key[twoKeyEventSource.plasmaOf(_referrer)];\n    }\n\n\n    /**\n     * @notice Contractor can withdraw funds only if criteria is satisfied\n     */\n    function withdrawContractor() public onlyContractor {\n        withdrawContractorInternal();\n    }\n\n    /**\n     * @notice Function to get reserved amount of rewards\n     */\n    function getReservedAmount2keyForRewards() public view returns (uint) {\n        return reservedAmount2keyForRewards;\n    }\n\n}\n",
  "sourcePath": "/Users/nikolamadjarevic/Desktop/2key/contracts/contracts/2key/donation-campaign-contracts/TwoKeyDonationCampaign.sol",
  "compiler": {
    "name": "solc",
    "version": "0.4.24+commit.e67f0147.Emscripten.clang"
  },
  "schemaVersion": "2.0.1",
  "updatedAt": "2019-11-07T08:14:37.622Z"
}