{
  "contractName": "TwoKeyCampaign",
  "abi": [
    {
      "constant": true,
      "inputs": [],
      "name": "publicMetaHash",
      "outputs": [
        {
          "name": "",
          "type": "string"
        }
      ],
      "payable": false,
      "stateMutability": "view",
      "type": "function"
    },
    {
      "constant": true,
      "inputs": [],
      "name": "logicHandler",
      "outputs": [
        {
          "name": "",
          "type": "address"
        }
      ],
      "payable": false,
      "stateMutability": "view",
      "type": "function"
    },
    {
      "constant": true,
      "inputs": [],
      "name": "totalSupply",
      "outputs": [
        {
          "name": "",
          "type": "uint256"
        }
      ],
      "payable": false,
      "stateMutability": "view",
      "type": "function"
    },
    {
      "constant": true,
      "inputs": [
        {
          "name": "",
          "type": "address"
        }
      ],
      "name": "public_link_key",
      "outputs": [
        {
          "name": "",
          "type": "address"
        }
      ],
      "payable": false,
      "stateMutability": "view",
      "type": "function"
    },
    {
      "constant": true,
      "inputs": [],
      "name": "moderator",
      "outputs": [
        {
          "name": "",
          "type": "address"
        }
      ],
      "payable": false,
      "stateMutability": "view",
      "type": "function"
    },
    {
      "constant": true,
      "inputs": [],
      "name": "privateMetaHash",
      "outputs": [
        {
          "name": "",
          "type": "string"
        }
      ],
      "payable": false,
      "stateMutability": "view",
      "type": "function"
    },
    {
      "constant": true,
      "inputs": [
        {
          "name": "_owner",
          "type": "address"
        }
      ],
      "name": "balanceOf",
      "outputs": [
        {
          "name": "",
          "type": "uint256"
        }
      ],
      "payable": false,
      "stateMutability": "view",
      "type": "function"
    },
    {
      "constant": true,
      "inputs": [],
      "name": "conversionHandler",
      "outputs": [
        {
          "name": "",
          "type": "address"
        }
      ],
      "payable": false,
      "stateMutability": "view",
      "type": "function"
    },
    {
      "constant": true,
      "inputs": [],
      "name": "contractor",
      "outputs": [
        {
          "name": "",
          "type": "address"
        }
      ],
      "payable": false,
      "stateMutability": "view",
      "type": "function"
    },
    {
      "constant": false,
      "inputs": [
        {
          "name": "_publicMetaHash",
          "type": "string"
        },
        {
          "name": "_privateMetaHash",
          "type": "string"
        },
        {
          "name": "_publicKey",
          "type": "address"
        }
      ],
      "name": "startCampaignWithInitialParams",
      "outputs": [],
      "payable": false,
      "stateMutability": "nonpayable",
      "type": "function"
    },
    {
      "constant": false,
      "inputs": [
        {
          "name": "_newPublicMetaHash",
          "type": "string"
        }
      ],
      "name": "updateIpfsHashOfCampaign",
      "outputs": [],
      "payable": false,
      "stateMutability": "nonpayable",
      "type": "function"
    },
    {
      "constant": false,
      "inputs": [
        {
          "name": "_influencer",
          "type": "address"
        },
        {
          "name": "_balance",
          "type": "uint256"
        }
      ],
      "name": "updateReferrerPlasmaBalance",
      "outputs": [],
      "payable": false,
      "stateMutability": "nonpayable",
      "type": "function"
    },
    {
      "constant": true,
      "inputs": [
        {
          "name": "_receiver",
          "type": "address"
        }
      ],
      "name": "getReceivedFrom",
      "outputs": [
        {
          "name": "",
          "type": "address"
        }
      ],
      "payable": false,
      "stateMutability": "view",
      "type": "function"
    },
    {
      "constant": false,
      "inputs": [
        {
          "name": "_cancelledConverter",
          "type": "address"
        },
        {
          "name": "_conversionAmount",
          "type": "uint256"
        }
      ],
      "name": "sendBackEthWhenConversionCancelledOrRejected",
      "outputs": [],
      "payable": false,
      "stateMutability": "nonpayable",
      "type": "function"
    },
    {
      "constant": true,
      "inputs": [
        {
          "name": "me",
          "type": "address"
        }
      ],
      "name": "publicLinkKeyOf",
      "outputs": [
        {
          "name": "",
          "type": "address"
        }
      ],
      "payable": false,
      "stateMutability": "view",
      "type": "function"
    },
    {
      "constant": true,
      "inputs": [],
      "name": "getConstantInfo",
      "outputs": [
        {
          "name": "",
          "type": "uint256"
        },
        {
          "name": "",
          "type": "uint256"
        },
        {
          "name": "",
          "type": "bool"
        }
      ],
      "payable": false,
      "stateMutability": "view",
      "type": "function"
    },
    {
      "constant": true,
      "inputs": [],
      "name": "getModeratorTotalEarnings",
      "outputs": [
        {
          "name": "",
          "type": "uint256"
        }
      ],
      "payable": false,
      "stateMutability": "view",
      "type": "function"
    },
    {
      "constant": true,
      "inputs": [],
      "name": "getContractorBalanceAndTotalProceeds",
      "outputs": [
        {
          "name": "",
          "type": "uint256"
        },
        {
          "name": "",
          "type": "uint256"
        }
      ],
      "payable": false,
      "stateMutability": "view",
      "type": "function"
    },
    {
      "constant": true,
      "inputs": [
        {
          "name": "_influencer",
          "type": "address"
        }
      ],
      "name": "getReferrerPlasmaBalance",
      "outputs": [
        {
          "name": "",
          "type": "uint256"
        }
      ],
      "payable": false,
      "stateMutability": "view",
      "type": "function"
    },
    {
      "constant": true,
      "inputs": [
        {
          "name": "me",
          "type": "address"
        }
      ],
      "name": "getReferrerCut",
      "outputs": [
        {
          "name": "",
          "type": "uint256"
        }
      ],
      "payable": false,
      "stateMutability": "view",
      "type": "function"
    },
    {
      "constant": false,
      "inputs": [
        {
          "name": "_address",
          "type": "address"
        },
        {
          "name": "_withdrawAsStable",
          "type": "bool"
        }
      ],
      "name": "referrerWithdraw",
      "outputs": [],
      "payable": false,
      "stateMutability": "nonpayable",
      "type": "function"
    }
  ],
  "bytecode": "0x6080604052620f424060005534801561001757600080fd5b50611f86806100276000396000f30060806040526004361061011d576000357c0100000000000000000000000000000000000000000000000000000000900463ffffffff1680630566f64c1461012257806308c04306146101b25780630fbf629d1461020957806318160ddd14610272578063383d0d061461029d57806338743904146103205780633a56df51146103775780633afa973a146103c65780634c070ced1461045657806354cbb687146104d9578063612e28801461050457806370a082311461058757806371e53aad146105de57806371e6de281461061b578063788fac2d1461064d5780637981a7e0146106a4578063b5ce6b78146106fb578063c1ba46b714610748578063cf9d8ce714610817578063ede89f6414610864578063fbfd2045146108bb575b600080fd5b34801561012e57600080fd5b50610137610912565b6040518080602001828103825283818151815260200191508051906020019080838360005b8381101561017757808201518184015260208101905061015c565b50505050905090810190601f1680156101a45780820380516001836020036101000a031916815260200191505b509250505060405180910390f35b3480156101be57600080fd5b506101c76109b0565b604051808273ffffffffffffffffffffffffffffffffffffffff1673ffffffffffffffffffffffffffffffffffffffff16815260200191505060405180910390f35b34801561021557600080fd5b50610270600480360381019080803590602001908201803590602001908080601f01602080910402602001604051908101604052809392919081815260200183838082843782019150505050505091929192905050506109d6565b005b34801561027e57600080fd5b50610287610a4c565b6040518082815260200191505060405180910390f35b3480156102a957600080fd5b506102de600480360381019080803573ffffffffffffffffffffffffffffffffffffffff169060200190929190505050610a55565b604051808273ffffffffffffffffffffffffffffffffffffffff1673ffffffffffffffffffffffffffffffffffffffff16815260200191505060405180910390f35b34801561032c57600080fd5b50610335610a88565b604051808273ffffffffffffffffffffffffffffffffffffffff1673ffffffffffffffffffffffffffffffffffffffff16815260200191505060405180910390f35b34801561038357600080fd5b506103c4600480360381019080803573ffffffffffffffffffffffffffffffffffffffff169060200190929190803515159060200190929190505050610aae565b005b3480156103d257600080fd5b506103db611263565b6040518080602001828103825283818151815260200191508051906020019080838360005b8381101561041b578082015181840152602081019050610400565b50505050905090810190601f1680156104485780820380516001836020036101000a031916815260200191505b509250505060405180910390f35b34801561046257600080fd5b50610497600480360381019080803573ffffffffffffffffffffffffffffffffffffffff169060200190929190505050611301565b604051808273ffffffffffffffffffffffffffffffffffffffff1673ffffffffffffffffffffffffffffffffffffffff16815260200191505060405180910390f35b3480156104e557600080fd5b506104ee61136a565b6040518082815260200191505060405180910390f35b34801561051057600080fd5b50610545600480360381019080803573ffffffffffffffffffffffffffffffffffffffff169060200190929190505050611374565b604051808273ffffffffffffffffffffffffffffffffffffffff1673ffffffffffffffffffffffffffffffffffffffff16815260200191505060405180910390f35b34801561059357600080fd5b506105c8600480360381019080803573ffffffffffffffffffffffffffffffffffffffff1690602001909291905050506114d4565b6040518082815260200191505060405180910390f35b3480156105ea57600080fd5b506105f361151d565b6040518084815260200183815260200182151515158152602001935050505060405180910390f35b34801561062757600080fd5b50610630611543565b604051808381526020018281526020019250505060405180910390f35b34801561065957600080fd5b5061068e600480360381019080803573ffffffffffffffffffffffffffffffffffffffff169060200190929190505050611554565b6040518082815260200191505060405180910390f35b3480156106b057600080fd5b506106b9611694565b604051808273ffffffffffffffffffffffffffffffffffffffff1673ffffffffffffffffffffffffffffffffffffffff16815260200191505060405180910390f35b34801561070757600080fd5b50610746600480360381019080803573ffffffffffffffffffffffffffffffffffffffff169060200190929190803590602001909291905050506116ba565b005b34801561075457600080fd5b50610815600480360381019080803590602001908201803590602001908080601f0160208091040260200160405190810160405280939291908181526020018383808284378201915050505050509192919290803590602001908201803590602001908080601f0160208091040260200160405190810160405280939291908181526020018383808284378201915050505050509192919290803573ffffffffffffffffffffffffffffffffffffffff169060200190929190505050611761565b005b34801561082357600080fd5b50610862600480360381019080803573ffffffffffffffffffffffffffffffffffffffff169060200190929190803590602001909291905050506117fa565b005b34801561087057600080fd5b506108a5600480360381019080803573ffffffffffffffffffffffffffffffffffffffff1690602001909291905050506118ef565b6040518082815260200191505060405180910390f35b3480156108c757600080fd5b506108d0611a2f565b604051808273ffffffffffffffffffffffffffffffffffffffff1673ffffffffffffffffffffffffffffffffffffffff16815260200191505060405180910390f35b60108054600181600116156101000203166002900480601f0160208091040260200160405190810160405280929190818152602001828054600181600116156101000203166002900480156109a85780601f1061097d576101008083540402835291602001916109a8565b820191906000526020600020905b81548152906001019060200180831161098b57829003601f168201915b505050505081565b600460009054906101000a900473ffffffffffffffffffffffffffffffffffffffff1681565b600860009054906101000a900473ffffffffffffffffffffffffffffffffffffffff1673ffffffffffffffffffffffffffffffffffffffff163373ffffffffffffffffffffffffffffffffffffffff16141515610a3257600080fd5b8060109080519060200190610a48929190611eb5565b5050565b60008054905090565b60146020528060005260406000206000915054906101000a900473ffffffffffffffffffffffffffffffffffffffff1681565b600960009054906101000a900473ffffffffffffffffffffffffffffffffffffffff1681565b6000806000808573ffffffffffffffffffffffffffffffffffffffff163373ffffffffffffffffffffffffffffffffffffffff161480610be25750600260009054906101000a900473ffffffffffffffffffffffffffffffffffffffff1673ffffffffffffffffffffffffffffffffffffffff166340f59c21336040518263ffffffff167c0100000000000000000000000000000000000000000000000000000000028152600401808273ffffffffffffffffffffffffffffffffffffffff1673ffffffffffffffffffffffffffffffffffffffff168152602001915050602060405180830381600087803b158015610ba657600080fd5b505af1158015610bba573d6000803e3d6000fd5b505050506040513d6020811015610bd057600080fd5b81019080805190602001909291905050505b1515610bed57600080fd5b600260009054906101000a900473ffffffffffffffffffffffffffffffffffffffff1673ffffffffffffffffffffffffffffffffffffffff16631a025f25876040518263ffffffff167c0100000000000000000000000000000000000000000000000000000000028152600401808273ffffffffffffffffffffffffffffffffffffffff1673ffffffffffffffffffffffffffffffffffffffff168152602001915050602060405180830381600087803b158015610caa57600080fd5b505af1158015610cbe573d6000803e3d6000fd5b505050506040513d6020811015610cd457600080fd5b810190808051906020019092919050505090506000601360008373ffffffffffffffffffffffffffffffffffffffff1673ffffffffffffffffffffffffffffffffffffffff1681526020019081526020016000205414151561125b57610d6e6040805190810160405280600b81526020017f54776f4b657941646d696e000000000000000000000000000000000000000000815250611a55565b9350610dae6040805190810160405280601881526020017f54776f4b657955706772616461626c6545786368616e67650000000000000000815250611a55565b9250601360008273ffffffffffffffffffffffffffffffffffffffff1673ffffffffffffffffffffffffffffffffffffffff1681526020019081526020016000205491506000601360008373ffffffffffffffffffffffffffffffffffffffff1673ffffffffffffffffffffffffffffffffffffffff1681526020019081526020016000208190555060011515851515141561100557600660009054906101000a900473ffffffffffffffffffffffffffffffffffffffff1673ffffffffffffffffffffffffffffffffffffffff1663095ea7b384846040518363ffffffff167c0100000000000000000000000000000000000000000000000000000000028152600401808373ffffffffffffffffffffffffffffffffffffffff1673ffffffffffffffffffffffffffffffffffffffff16815260200182815260200192505050602060405180830381600087803b158015610f0957600080fd5b505af1158015610f1d573d6000803e3d6000fd5b505050506040513d6020811015610f3357600080fd5b8101908080519060200190929190505050508273ffffffffffffffffffffffffffffffffffffffff1663685602a983886040518363ffffffff167c0100000000000000000000000000000000000000000000000000000000028152600401808381526020018273ffffffffffffffffffffffffffffffffffffffff1673ffffffffffffffffffffffffffffffffffffffff16815260200192505050600060405180830381600087803b158015610fe857600080fd5b505af1158015610ffc573d6000803e3d6000fd5b5050505061123f565b8373ffffffffffffffffffffffffffffffffffffffff1663f0cd4dce6040518163ffffffff167c0100000000000000000000000000000000000000000000000000000000028152600401602060405180830381600087803b15801561106957600080fd5b505af115801561107d573d6000803e3d6000fd5b505050506040513d602081101561109357600080fd5b810190808051906020019092919050505042101515611239578273ffffffffffffffffffffffffffffffffffffffff1663cc08a85b836040518263ffffffff167c010000000000000000000000000000000000000000000000000000000002815260040180828152602001915050600060405180830381600087803b15801561111b57600080fd5b505af115801561112f573d6000803e3d6000fd5b50505050600660009054906101000a900473ffffffffffffffffffffffffffffffffffffffff1673ffffffffffffffffffffffffffffffffffffffff1663a9059cbb87846040518363ffffffff167c0100000000000000000000000000000000000000000000000000000000028152600401808373ffffffffffffffffffffffffffffffffffffffff1673ffffffffffffffffffffffffffffffffffffffff16815260200182815260200192505050602060405180830381600087803b1580156111f857600080fd5b505af115801561120c573d6000803e3d6000fd5b505050506040513d602081101561122257600080fd5b81019080805190602001909291905050505061123e565b600080fd5b5b61125482600f54611b8f90919063ffffffff16565b600f819055505b505050505050565b60118054600181600116156101000203166002900480601f0160208091040260200160405190810160405280929190818152602001828054600181600116156101000203166002900480156112f95780601f106112ce576101008083540402835291602001916112f9565b820191906000526020600020905b8154815290600101906020018083116112dc57829003601f168201915b505050505081565b6000601560008373ffffffffffffffffffffffffffffffffffffffff1673ffffffffffffffffffffffffffffffffffffffff16815260200190815260200160002060009054906101000a900473ffffffffffffffffffffffffffffffffffffffff169050919050565b6000600e54905090565b600060146000600260009054906101000a900473ffffffffffffffffffffffffffffffffffffffff1673ffffffffffffffffffffffffffffffffffffffff16631a025f25856040518263ffffffff167c0100000000000000000000000000000000000000000000000000000000028152600401808273ffffffffffffffffffffffffffffffffffffffff1673ffffffffffffffffffffffffffffffffffffffff168152602001915050602060405180830381600087803b15801561143757600080fd5b505af115801561144b573d6000803e3d6000fd5b505050506040513d602081101561146157600080fd5b810190808051906020019092919050505073ffffffffffffffffffffffffffffffffffffffff1673ffffffffffffffffffffffffffffffffffffffff16815260200190815260200160002060009054906101000a900473ffffffffffffffffffffffffffffffffffffffff169050919050565b6000600160008373ffffffffffffffffffffffffffffffffffffffff1673ffffffffffffffffffffffffffffffffffffffff168152602001908152602001600020549050919050565b6000806000600a54600d54600960149054906101000a900460ff16925092509250909192565b600080600b54600c54915091509091565b600060136000600260009054906101000a900473ffffffffffffffffffffffffffffffffffffffff1673ffffffffffffffffffffffffffffffffffffffff16631a025f25856040518263ffffffff167c0100000000000000000000000000000000000000000000000000000000028152600401808273ffffffffffffffffffffffffffffffffffffffff1673ffffffffffffffffffffffffffffffffffffffff168152602001915050602060405180830381600087803b15801561161757600080fd5b505af115801561162b573d6000803e3d6000fd5b505050506040513d602081101561164157600080fd5b810190808051906020019092919050505073ffffffffffffffffffffffffffffffffffffffff1673ffffffffffffffffffffffffffffffffffffffff168152602001908152602001600020549050919050565b600360009054906101000a900473ffffffffffffffffffffffffffffffffffffffff1681565b600360009054906101000a900473ffffffffffffffffffffffffffffffffffffffff1673ffffffffffffffffffffffffffffffffffffffff163373ffffffffffffffffffffffffffffffffffffffff1614151561171657600080fd5b8173ffffffffffffffffffffffffffffffffffffffff166108fc829081150290604051600060405180830381858888f1935050505015801561175c573d6000803e3d6000fd5b505050565b600860009054906101000a900473ffffffffffffffffffffffffffffffffffffffff1673ffffffffffffffffffffffffffffffffffffffff163373ffffffffffffffffffffffffffffffffffffffff161415156117bd57600080fd5b82601090805190602001906117d3929190611eb5565b5081601190805190602001906117ea929190611eb5565b506117f53382611bab565b505050565b600460009054906101000a900473ffffffffffffffffffffffffffffffffffffffff1673ffffffffffffffffffffffffffffffffffffffff163373ffffffffffffffffffffffffffffffffffffffff1614151561185657600080fd5b6118a881601360008573ffffffffffffffffffffffffffffffffffffffff1673ffffffffffffffffffffffffffffffffffffffff16815260200190815260200160002054611e9690919063ffffffff16565b601360008473ffffffffffffffffffffffffffffffffffffffff1673ffffffffffffffffffffffffffffffffffffffff168152602001908152602001600020819055505050565b600060126000600260009054906101000a900473ffffffffffffffffffffffffffffffffffffffff1673ffffffffffffffffffffffffffffffffffffffff16631a025f25856040518263ffffffff167c0100000000000000000000000000000000000000000000000000000000028152600401808273ffffffffffffffffffffffffffffffffffffffff1673ffffffffffffffffffffffffffffffffffffffff168152602001915050602060405180830381600087803b1580156119b257600080fd5b505af11580156119c6573d6000803e3d6000fd5b505050506040513d60208110156119dc57600080fd5b810190808051906020019092919050505073ffffffffffffffffffffffffffffffffffffffff1673ffffffffffffffffffffffffffffffffffffffff168152602001908152602001600020549050919050565b600860009054906101000a900473ffffffffffffffffffffffffffffffffffffffff1681565b6000600560009054906101000a900473ffffffffffffffffffffffffffffffffffffffff1673ffffffffffffffffffffffffffffffffffffffff1663db7a6d90836040518263ffffffff167c01000000000000000000000000000000000000000000000000000000000281526004018080602001828103825283818151815260200191508051906020019080838360005b83811015611b01578082015181840152602081019050611ae6565b50505050905090810190601f168015611b2e5780820380516001836020036101000a031916815260200191505b5092505050602060405180830381600087803b158015611b4d57600080fd5b505af1158015611b61573d6000803e3d6000fd5b505050506040513d6020811015611b7757600080fd5b81019080805190602001909291905050509050919050565b6000828211151515611ba057600080fd5b818303905092915050565b6000600260009054906101000a900473ffffffffffffffffffffffffffffffffffffffff1673ffffffffffffffffffffffffffffffffffffffff16631a025f25846040518263ffffffff167c0100000000000000000000000000000000000000000000000000000000028152600401808273ffffffffffffffffffffffffffffffffffffffff1673ffffffffffffffffffffffffffffffffffffffff168152602001915050602060405180830381600087803b158015611c6a57600080fd5b505af1158015611c7e573d6000803e3d6000fd5b505050506040513d6020811015611c9457600080fd5b810190808051906020019092919050505092506000611cb2846114d4565b111515611cbe57600080fd5b601460008473ffffffffffffffffffffffffffffffffffffffff1673ffffffffffffffffffffffffffffffffffffffff16815260200190815260200160002060009054906101000a900473ffffffffffffffffffffffffffffffffffffffff169050600073ffffffffffffffffffffffffffffffffffffffff168173ffffffffffffffffffffffffffffffffffffffff161415611dd85781601460008573ffffffffffffffffffffffffffffffffffffffff1673ffffffffffffffffffffffffffffffffffffffff16815260200190815260200160002060006101000a81548173ffffffffffffffffffffffffffffffffffffffff021916908373ffffffffffffffffffffffffffffffffffffffff160217905550611e13565b8173ffffffffffffffffffffffffffffffffffffffff168173ffffffffffffffffffffffffffffffffffffffff16141515611e1257600080fd5b5b81601460008573ffffffffffffffffffffffffffffffffffffffff1673ffffffffffffffffffffffffffffffffffffffff16815260200190815260200160002060006101000a81548173ffffffffffffffffffffffffffffffffffffffff021916908373ffffffffffffffffffffffffffffffffffffffff160217905550505050565b60008183019050828110151515611eac57600080fd5b80905092915050565b828054600181600116156101000203166002900490600052602060002090601f016020900481019282601f10611ef657805160ff1916838001178555611f24565b82800160010185558215611f24579182015b82811115611f23578251825591602001919060010190611f08565b5b509050611f319190611f35565b5090565b611f5791905b80821115611f53576000816000905550600101611f3b565b5090565b905600a165627a7a72305820ebc25c8a40df0d2bccee515afde3211236d77c6026dfd12cc76ff363c2c2cfa60029",
  "source": "pragma solidity ^0.4.24;\n\nimport \"../interfaces/ITwoKeySingletoneRegistryFetchAddress.sol\";\nimport \"../singleton-contracts/TwoKeyEventSource.sol\";\nimport \"../interfaces/IUpgradableExchange.sol\";\nimport \"../interfaces/IERC20.sol\";\nimport \"../libraries/SafeMath.sol\";\nimport \"../libraries/Call.sol\";\nimport \"./ArcToken.sol\";\n\n/**\n * @author Nikola Madjarevic (https://github.com/madjarevicn)\n */\ncontract TwoKeyCampaign is ArcToken {\n\n\tusing SafeMath for uint256;\n\tusing Call for *;\n\n\tTwoKeyEventSource twoKeyEventSource; // Address of TwoKeyEventSource contract\n\n\taddress public conversionHandler; // Contract which will handle all conversions\n\taddress public logicHandler;  // Contract which will handle logic\n\n\taddress twoKeySingletonesRegistry; // Address of Registry of all singleton contracts\n\taddress twoKeyEconomy; // Address of twoKeyEconomy contract\n\taddress ownerPlasma; //contractor plasma address\n\n\taddress public contractor; //contractor address\n\taddress public moderator; //moderator address\n\n\tbool isKYCRequired;\n    bool mustConvertToReferr;\n\n\tuint256 conversionQuota;  // maximal ARC tokens that can be passed in transferFrom\n\tuint256 contractorBalance; // Contractor balance\n\tuint256 contractorTotalProceeds; // Contractor total earnings\n\tuint256 maxReferralRewardPercent; // maxReferralRewardPercent is actually bonus percentage in ETH\n\tuint256 moderatorTotalEarnings2key; //Total earnings of the moderator all time\n\tuint256 reservedAmount2keyForRewards; //Reserved amount of 2key tokens for rewards distribution\n\n\tstring public publicMetaHash; // Ipfs hash of json campaign object\n\tstring public privateMetaHash; // Ipfs hash of json sensitive (contractor) information\n\n\n\t//Referral accounting stuff\n\tmapping(address => uint256) internal referrerPlasma2cut; // Mapping representing how much are cuts in percent(0-100) for referrer address\n\tmapping(address => uint256) internal referrerPlasma2Balances2key; // balance of EthWei for each influencer that he can withdraw\n\n\tmapping(address => address) public public_link_key;\n\tmapping(address => address) internal received_from; // referral graph, who did you receive the referral from\n\n    // @notice Modifier which allows only contractor to call methods\n    modifier onlyContractor() {\n        require(msg.sender == contractor);\n        _;\n    }\n\n\t/**\n\t * @notice Modifier which will enable only twoKeyConversionHandlerContract to execute some functions\n\t */\n\tmodifier onlyTwoKeyConversionHandler() {\n\t\trequire(msg.sender == address(conversionHandler));\n\t\t_;\n\t}\n\n\t/**\n     * @dev Transfer tokens from one address to another\n     * @param _from address The address which you want to send tokens from ALREADY converted to plasma\n     * @param _to address The address which you want to transfer to ALREADY converted to plasma\n     * @param _value uint256 the amount of tokens to be transferred\n     */\n\tfunction transferFrom(\n\t\taddress _from,\n\t\taddress _to,\n\t\tuint256 _value\n\t)\n\tinternal\n\treturns (bool)\n\t{\n\t\t// _from and _to are assumed to be already converted to plasma address (e.g. using plasmaOf)\n\t\trequire(_value == 1);\n\t\trequire(balances[_from] > 0);\n\n\t\tbalances[_from] = balances[_from].sub(1);\n\t\tbalances[_to] = balances[_to].add(conversionQuota);\n\t\ttotalSupply_ = totalSupply_.add(conversionQuota.sub(1));\n\n\t\tif (received_from[_to] == 0) {\n\t\t\ttwoKeyEventSource.joined(this, _from, _to);\n\t\t}\n\n\t\treceived_from[_to] = _from;\n\t\treturn true;\n\t}\n\n\n    /**\n     * @notice Private function to set public link key to plasma address\n     * @param me is the ethereum address\n     * @param new_public_key is the new key user want's to set as his public key\n     */\n    function setPublicLinkKeyOf(\n\t\taddress me,\n\t\taddress new_public_key\n\t)\n\tinternal\n\t{\n        me = twoKeyEventSource.plasmaOf(me);\n        require(balanceOf(me) > 0);\n        address old_address = public_link_key[me];\n        if (old_address == address(0)) {\n            public_link_key[me] = new_public_key;\n        } else {\n            require(old_address == new_public_key);\n        }\n        public_link_key[me] = new_public_key;\n    }\n\n\n\t/**\n \t * @notice Function which will unpack signature and get referrers, keys, and weights from it\n \t * @param sig is signature\n \t */\n\tfunction getInfluencersKeysAndWeightsFromSignature(\n\t\tbytes sig,\n\t\taddress _converter\n\t)\n\tinternal\n\tview\n\treturns (address[],address[],uint8[],address)\n\t{\n\t\t// move ARCs and set public_link keys and weights/cuts based on signature information\n\t\t// returns the last address in the sig\n\n\t\t// sig structure:\n\t\t// 1 byte version 0 or 1\n\t\t// 20 bytes are the address of the contractor or the influencer who created sig.\n\t\t//  this is the \"anchor\" of the link\n\t\t//  It must have a public key aleady stored for it in public_link_key\n\t\t// Begining of a loop on steps in the link:\n\t\t// * 65 bytes are step-signature using the secret from previous step\n\t\t// * message of the step that is going to be hashed and used to compute the above step-signature.\n\t\t//   message length depend on version 41 (version 0) or 86 (version 1):\n\t\t//   * 1 byte cut (percentage) each influencer takes from the bounty. the cut is stored in influencer2cut or weight for voting\n\t\t//   * 20 bytes address of influencer (version 0) or 65 bytes of signature of cut using the influencer address to sign\n\t\t//   * 20 bytes public key of the last secret\n\t\t// In the last step the message can be optional. If it is missing the message used is the address of the sender\n\t\taddress old_address;\n\t\t/**\n           old address -> plasma address\n           old key -> publicLinkKey[plasma]\n         */\n\t\tassembly\n\t\t{\n\t\t\told_address := mload(add(sig, 21))\n\t\t}\n\n\t\told_address = twoKeyEventSource.plasmaOf(old_address);\n\t\taddress old_key = public_link_key[old_address];\n\n\t\taddress[] memory influencers;\n\t\taddress[] memory keys;\n\t\tuint8[] memory weights;\n\t\t(influencers, keys, weights) = Call.recoverSig(sig, old_key, twoKeyEventSource.plasmaOf(_converter));\n\n\t\t// check if we exactly reached the end of the signature. this can only happen if the signature\n\t\t// was generated with free_join_take and in this case the last part of the signature must have been\n\t\t// generated by the caller of this method\n\t\trequire(// influencers[influencers.length-1] == msg.sender ||\n\t\t\tinfluencers[influencers.length-1] == twoKeyEventSource.plasmaOf(_converter) ||\n\t\t\tcontractor == msg.sender\n\t\t);\n\n\t\treturn (influencers, keys, weights, old_address);\n\t}\n\n\n\t/**\n     * @notice Function to set or update public meta hash\n     * @param _publicMetaHash is the hash of the campaign\n     * @dev Only contractor can call this\n     */\n\tfunction startCampaignWithInitialParams(\n\t\tstring _publicMetaHash,\n\t\tstring _privateMetaHash,\n\t\taddress _publicKey\n\t)\n\tpublic\n\tonlyContractor\n\t{\n\t\tpublicMetaHash = _publicMetaHash;\n\t\tprivateMetaHash = _privateMetaHash;\n\t\tsetPublicLinkKeyOf(msg.sender, _publicKey);\n\t}\n\n\t/**\n\t * @notice Function to allow updating public meta hash\n\t * @param _newPublicMetaHash is the new meta hash\n\t */\n\tfunction updateIpfsHashOfCampaign(\n\t\tstring _newPublicMetaHash\n\t)\n\tpublic\n\tonlyContractor\n\t{\n\t\tpublicMetaHash = _newPublicMetaHash;\n\t}\n\n\n\t/**\n     * @notice Function to update referrer plasma balance\n     * @param _influencer is the plasma address of referrer\n     * @param _balance is the new balance\n     */\n\tfunction updateReferrerPlasmaBalance(\n\t\taddress _influencer,\n\t\tuint _balance\n\t)\n\tpublic\n\t{\n\t\trequire(msg.sender == logicHandler);\n\t\treferrerPlasma2Balances2key[_influencer] = referrerPlasma2Balances2key[_influencer].add(_balance);\n\t}\n\n\t/**\n \t * @notice Private function which will be executed at the withdraw time to buy 2key tokens from upgradable exchange contract\n \t * @param amountOfMoney is the ether balance person has on the contract\n \t * @param receiver is the address of the person who withdraws money\n \t */\n\tfunction buyTokensFromUpgradableExchange(\n\t\tuint amountOfMoney,\n\t\taddress receiver\n\t)\n\tinternal\n\treturns (uint)\n\t{\n\t\taddress upgradableExchange = getContractProxyAddress(\"TwoKeyUpgradableExchange\");\n\t\tuint amountBought = IUpgradableExchange(upgradableExchange).buyTokens.value(amountOfMoney)(receiver);\n\t\treturn amountBought;\n\t}\n\n\n\t/**\n     * @notice Getter for the referral chain\n     * @param _receiver is address we want to check who he has received link from\n     */\n\tfunction getReceivedFrom(\n\t\taddress _receiver\n\t)\n\tpublic\n\tview\n\treturns (address)\n\t{\n\t\treturn received_from[_receiver];\n\t}\n\n\t/**\n\t * @notice Function to send ether back to converter if his conversion is cancelled\n\t * @param _cancelledConverter is the address of cancelled converter\n\t * @param _conversionAmount is the amount he sent to the contract\n\t * @dev This function can be called only by conversion handler\n\t */\n\tfunction sendBackEthWhenConversionCancelledOrRejected(\n\t\taddress _cancelledConverter,\n\t\tuint _conversionAmount\n\t)\n\tpublic\n\tonlyTwoKeyConversionHandler\n\t{\n\t\t_cancelledConverter.transfer(_conversionAmount);\n\t}\n\n\t/**\n     * @notice Function to get public link key of an address\n     * @param me is the address we're checking public link key\n     */\n\tfunction publicLinkKeyOf(\n\t\taddress me\n\t)\n\tpublic\n\tview\n\treturns (address)\n\t{\n\t\treturn public_link_key[twoKeyEventSource.plasmaOf(me)];\n\t}\n\n    /**\n     * @notice Function to return the constants from the contract\n     */\n    function getConstantInfo()\n\tpublic\n\tview\n\treturns (uint,uint,bool)\n\t{\n        return (conversionQuota, maxReferralRewardPercent, isKYCRequired);\n    }\n\n    /**\n     * @notice Function to fetch moderator balance in ETH and his total earnings\n     * @dev only contractor or moderator are eligible to call this function\n     * @return value of his balance in ETH\n     */\n    function getModeratorTotalEarnings()\n\tpublic\n\tview\n\treturns (uint)\n\t{\n        return (moderatorTotalEarnings2key);\n    }\n\n    /**\n     * @notice Function to fetch contractor balance in ETH\n     * @dev only contractor can call this function, otherwise it will revert\n     * @return value of contractor balance in ETH WEI\n     */\n    function getContractorBalanceAndTotalProceeds()\n\texternal\n\tview\n\treturns (uint,uint)\n\t{\n        return (contractorBalance, contractorTotalProceeds);\n    }\n\n\n\t/**\n\t * @notice Function to get balance of influencer for his plasma address\n\t * @param _influencer is the plasma address of influencer\n\t * @return balance in wei's\n\t */\n\tfunction getReferrerPlasmaBalance(\n\t\taddress _influencer\n\t)\n\tpublic\n\tview\n\treturns (uint)\n\t{\n\t\treturn (referrerPlasma2Balances2key[twoKeyEventSource.plasmaOf(_influencer)]);\n\t}\n\n\tfunction getContractProxyAddress(string contractName) internal view returns (address) {\n\t\treturn ITwoKeySingletoneRegistryFetchAddress(twoKeySingletonesRegistry).getContractProxyAddress(contractName);\n\t}\n\n\t/**\n\t * @notice Function to get cut for an (ethereum) address\n\t * @param me is the ethereum address\n\t */\n\tfunction getReferrerCut(\n\t\taddress me\n\t)\n\tpublic\n\tview\n\treturns (uint256)\n\t{\n\t\treturn referrerPlasma2cut[twoKeyEventSource.plasmaOf(me)];\n\t}\n\n\t/**\n     * @notice Function where contractor can withdraw his funds\n     * @dev onlyContractor can call this method\n     * @return true if successful otherwise will 'revert'\n     */\n\tfunction withdrawContractorInternal()\n\tinternal\n\t{\n\t\tuint balance = contractorBalance;\n\t\tcontractorBalance = 0;\n\t\t/**\n         * In general transfer by itself prevents against reentrancy attack since it will throw if more than 2300 gas\n         * but however it's not bad to practice this pattern of firstly reducing balance and then doing transfer\n         */\n\t\tcontractor.transfer(balance);\n\t}\n\n\n\t/**\n \t * @notice Function where moderator or referrer can withdraw their available funds\n \t * @param _address is the address we're withdrawing funds to\n \t * @dev It can be called by the address specified in the param or by the one of two key maintainers\n \t */\n\tfunction referrerWithdraw(\n\t\taddress _address,\n\t\tbool _withdrawAsStable\n\t)\n\tpublic\n\t{\n\t\trequire(msg.sender == _address || twoKeyEventSource.isAddressMaintainer(msg.sender));\n\t\taddress twoKeyAdminAddress;\n\t\taddress twoKeyUpgradableExchangeContract;\n\n\t\tuint balance;\n\t\taddress _referrer = twoKeyEventSource.plasmaOf(_address);\n\n\t\tif(referrerPlasma2Balances2key[_referrer] != 0) {\n\t\t\ttwoKeyAdminAddress = getContractProxyAddress(\"TwoKeyAdmin\");\n\t\t\ttwoKeyUpgradableExchangeContract = getContractProxyAddress(\"TwoKeyUpgradableExchange\");\n\n\t\t\tbalance = referrerPlasma2Balances2key[_referrer];\n\t\t\treferrerPlasma2Balances2key[_referrer] = 0;\n\n\t\t\tif(_withdrawAsStable == true) {\n\t\t\t\tIERC20(twoKeyEconomy).approve(twoKeyUpgradableExchangeContract, balance);\n\t\t\t\tIUpgradableExchange(twoKeyUpgradableExchangeContract).buyStableCoinWith2key(balance, _address);\n\t\t\t}\n\t\t\telse if (block.timestamp >= ITwoKeyAdmin(twoKeyAdminAddress).getTwoKeyRewardsReleaseDate()) {\n\t\t\t\tIUpgradableExchange(twoKeyUpgradableExchangeContract).report2KEYWithdrawnFromNetwork(balance);\n\t\t\t\tIERC20(twoKeyEconomy).transfer(_address, balance);\n\t\t\t}\n\t\t\telse {\n\t\t\t\trevert();\n\t\t\t}\n\t\t\treservedAmount2keyForRewards = reservedAmount2keyForRewards.sub(balance);\n\t\t}\n\t}\n}\n\n",
  "sourcePath": "/Users/nikolamadjarevic/Desktop/2key/contracts/contracts/2key/campaign-mutual-contracts/TwoKeyCampaign.sol",
  "compiler": {
    "name": "solc",
    "version": "0.4.24+commit.e67f0147.Emscripten.clang"
  },
  "schemaVersion": "2.0.1",
  "updatedAt": "2019-11-07T08:14:37.585Z"
}