{
  "contractName": "TwoKeyPlasmaEvents",
  "abi": [
    {
      "constant": true,
      "inputs": [],
      "name": "PROXY_STORAGE_CONTRACT",
      "outputs": [
        {
          "name": "",
          "type": "address"
        }
      ],
      "payable": false,
      "stateMutability": "view",
      "type": "function"
    },
    {
      "constant": true,
      "inputs": [],
      "name": "implementation",
      "outputs": [
        {
          "name": "",
          "type": "address"
        }
      ],
      "payable": false,
      "stateMutability": "view",
      "type": "function"
    },
    {
      "constant": true,
      "inputs": [],
      "name": "TWO_KEY_PLASMA_SINGLETON_REGISTRY",
      "outputs": [
        {
          "name": "",
          "type": "address"
        }
      ],
      "payable": false,
      "stateMutability": "view",
      "type": "function"
    },
    {
      "constant": false,
      "inputs": [
        {
          "name": "sender",
          "type": "address"
        }
      ],
      "name": "initialize",
      "outputs": [],
      "payable": true,
      "stateMutability": "payable",
      "type": "function"
    },
    {
      "anonymous": false,
      "inputs": [
        {
          "indexed": true,
          "name": "to",
          "type": "address"
        },
        {
          "indexed": true,
          "name": "c",
          "type": "address"
        },
        {
          "indexed": true,
          "name": "contractor",
          "type": "address"
        },
        {
          "indexed": false,
          "name": "from",
          "type": "address"
        }
      ],
      "name": "Visited",
      "type": "event"
    },
    {
      "anonymous": false,
      "inputs": [
        {
          "indexed": false,
          "name": "plasma",
          "type": "address"
        },
        {
          "indexed": false,
          "name": "eth",
          "type": "address"
        }
      ],
      "name": "Plasma2Ethereum",
      "type": "event"
    },
    {
      "anonymous": false,
      "inputs": [
        {
          "indexed": false,
          "name": "plasma",
          "type": "address"
        },
        {
          "indexed": false,
          "name": "handle",
          "type": "string"
        }
      ],
      "name": "Plasma2Handle",
      "type": "event"
    },
    {
      "anonymous": false,
      "inputs": [
        {
          "indexed": false,
          "name": "campaignAddress",
          "type": "address"
        },
        {
          "indexed": false,
          "name": "fromPlasma",
          "type": "address"
        },
        {
          "indexed": false,
          "name": "toPlasma",
          "type": "address"
        }
      ],
      "name": "Joined",
      "type": "event"
    },
    {
      "constant": false,
      "inputs": [
        {
          "name": "_twoKeyPlasmaSingletonRegistry",
          "type": "address"
        },
        {
          "name": "_proxyStorage",
          "type": "address"
        }
      ],
      "name": "setInitialParams",
      "outputs": [],
      "payable": false,
      "stateMutability": "nonpayable",
      "type": "function"
    },
    {
      "constant": false,
      "inputs": [
        {
          "name": "c",
          "type": "address"
        },
        {
          "name": "contractor",
          "type": "address"
        },
        {
          "name": "new_public_key",
          "type": "address"
        }
      ],
      "name": "setPublicLinkKey",
      "outputs": [],
      "payable": false,
      "stateMutability": "nonpayable",
      "type": "function"
    },
    {
      "constant": false,
      "inputs": [
        {
          "name": "c",
          "type": "address"
        },
        {
          "name": "contractor",
          "type": "address"
        },
        {
          "name": "cut",
          "type": "uint256"
        }
      ],
      "name": "setCut",
      "outputs": [],
      "payable": false,
      "stateMutability": "nonpayable",
      "type": "function"
    },
    {
      "constant": true,
      "inputs": [
        {
          "name": "c",
          "type": "address"
        },
        {
          "name": "contractor",
          "type": "address"
        },
        {
          "name": "me",
          "type": "address"
        }
      ],
      "name": "cutOf",
      "outputs": [
        {
          "name": "",
          "type": "uint256"
        }
      ],
      "payable": false,
      "stateMutability": "view",
      "type": "function"
    },
    {
      "constant": true,
      "inputs": [
        {
          "name": "c",
          "type": "address"
        },
        {
          "name": "contractor",
          "type": "address"
        },
        {
          "name": "me",
          "type": "address"
        }
      ],
      "name": "publicLinkKeyOf",
      "outputs": [
        {
          "name": "",
          "type": "address"
        }
      ],
      "payable": false,
      "stateMutability": "view",
      "type": "function"
    },
    {
      "constant": false,
      "inputs": [
        {
          "name": "c",
          "type": "address"
        },
        {
          "name": "note",
          "type": "bytes"
        }
      ],
      "name": "setNoteByUser",
      "outputs": [],
      "payable": false,
      "stateMutability": "nonpayable",
      "type": "function"
    },
    {
      "constant": true,
      "inputs": [
        {
          "name": "c",
          "type": "address"
        },
        {
          "name": "_plasma",
          "type": "address"
        }
      ],
      "name": "notes",
      "outputs": [
        {
          "name": "",
          "type": "bytes"
        }
      ],
      "payable": false,
      "stateMutability": "view",
      "type": "function"
    },
    {
      "constant": false,
      "inputs": [
        {
          "name": "campaignAddress",
          "type": "address"
        },
        {
          "name": "contractor",
          "type": "address"
        },
        {
          "name": "sig",
          "type": "bytes"
        }
      ],
      "name": "joinCampaign",
      "outputs": [],
      "payable": false,
      "stateMutability": "nonpayable",
      "type": "function"
    },
    {
      "constant": false,
      "inputs": [
        {
          "name": "c",
          "type": "address"
        },
        {
          "name": "contractor",
          "type": "address"
        },
        {
          "name": "sig",
          "type": "bytes"
        }
      ],
      "name": "visited",
      "outputs": [],
      "payable": false,
      "stateMutability": "nonpayable",
      "type": "function"
    },
    {
      "constant": true,
      "inputs": [
        {
          "name": "c",
          "type": "address"
        },
        {
          "name": "contractor",
          "type": "address"
        },
        {
          "name": "from",
          "type": "address"
        }
      ],
      "name": "visitsListEx",
      "outputs": [
        {
          "name": "",
          "type": "address[]"
        },
        {
          "name": "",
          "type": "uint256[]"
        }
      ],
      "payable": false,
      "stateMutability": "view",
      "type": "function"
    },
    {
      "constant": true,
      "inputs": [
        {
          "name": "campaignAddress",
          "type": "address"
        }
      ],
      "name": "getNumberOfVisitsAndJoinsAndForwarders",
      "outputs": [
        {
          "name": "",
          "type": "uint256"
        },
        {
          "name": "",
          "type": "uint256"
        },
        {
          "name": "",
          "type": "uint256"
        }
      ],
      "payable": false,
      "stateMutability": "view",
      "type": "function"
    },
    {
      "constant": true,
      "inputs": [
        {
          "name": "c",
          "type": "address"
        },
        {
          "name": "contractor",
          "type": "address"
        },
        {
          "name": "_address",
          "type": "address"
        }
      ],
      "name": "getVisitedFrom",
      "outputs": [
        {
          "name": "",
          "type": "address"
        }
      ],
      "payable": false,
      "stateMutability": "view",
      "type": "function"
    },
    {
      "constant": true,
      "inputs": [
        {
          "name": "_c",
          "type": "address"
        },
        {
          "name": "_contractor",
          "type": "address"
        },
        {
          "name": "_address",
          "type": "address"
        }
      ],
      "name": "getJoinedFrom",
      "outputs": [
        {
          "name": "",
          "type": "address"
        }
      ],
      "payable": false,
      "stateMutability": "view",
      "type": "function"
    },
    {
      "constant": true,
      "inputs": [
        {
          "name": "_c",
          "type": "address"
        },
        {
          "name": "_contractor",
          "type": "address"
        },
        {
          "name": "_referrer",
          "type": "address"
        }
      ],
      "name": "getVisitsListTimestamps",
      "outputs": [
        {
          "name": "",
          "type": "uint256[]"
        }
      ],
      "payable": false,
      "stateMutability": "view",
      "type": "function"
    },
    {
      "constant": false,
      "inputs": [
        {
          "name": "_plasma",
          "type": "address"
        },
        {
          "name": "_ethereum",
          "type": "address"
        }
      ],
      "name": "emitPlasma2EthereumEvent",
      "outputs": [],
      "payable": false,
      "stateMutability": "nonpayable",
      "type": "function"
    },
    {
      "constant": false,
      "inputs": [
        {
          "name": "_plasma",
          "type": "address"
        },
        {
          "name": "_handle",
          "type": "string"
        }
      ],
      "name": "emitPlasma2HandleEvent",
      "outputs": [],
      "payable": false,
      "stateMutability": "nonpayable",
      "type": "function"
    }
  ],
  "bytecode": "0x608060405234801561001057600080fd5b5061554e806100206000396000f300608060405260043610610112576000357c0100000000000000000000000000000000000000000000000000000000900463ffffffff16806305dbe41214610117578063105005a11461017a57806320544588146101d15780632ef20492146102945780635c60da1b146103b457806360d9f3141461040b5780636f0abff7146104ce578063783aa5a71461057757806382cc57a614610653578063885b0626146106b6578063a2564a4b1461075f578063a42d92c6146107e8578063b065d2c2146108ab578063b3259ab714610902578063c4d66de814610967578063da572e311461099d578063dae37e1314610a26578063ec69b8b914610aa9578063f4d9909214610b16578063f784d23114610bee575b600080fd5b34801561012357600080fd5b50610178600480360381019080803573ffffffffffffffffffffffffffffffffffffffff169060200190929190803573ffffffffffffffffffffffffffffffffffffffff169060200190929190505050610c85565b005b34801561018657600080fd5b5061018f610d48565b604051808273ffffffffffffffffffffffffffffffffffffffff1673ffffffffffffffffffffffffffffffffffffffff16815260200191505060405180910390f35b3480156101dd57600080fd5b50610252600480360381019080803573ffffffffffffffffffffffffffffffffffffffff169060200190929190803573ffffffffffffffffffffffffffffffffffffffff169060200190929190803573ffffffffffffffffffffffffffffffffffffffff169060200190929190505050610d6e565b604051808273ffffffffffffffffffffffffffffffffffffffff1673ffffffffffffffffffffffffffffffffffffffff16815260200191505060405180910390f35b3480156102a057600080fd5b50610315600480360381019080803573ffffffffffffffffffffffffffffffffffffffff169060200190929190803573ffffffffffffffffffffffffffffffffffffffff169060200190929190803573ffffffffffffffffffffffffffffffffffffffff169060200190929190505050610f53565b604051808060200180602001838103835285818151815260200191508051906020019060200280838360005b8381101561035c578082015181840152602081019050610341565b50505050905001838103825284818151815260200191508051906020019060200280838360005b8381101561039e578082015181840152602081019050610383565b5050505090500194505050505060405180910390f35b3480156103c057600080fd5b506103c9610f83565b604051808273ffffffffffffffffffffffffffffffffffffffff1673ffffffffffffffffffffffffffffffffffffffff16815260200191505060405180910390f35b34801561041757600080fd5b5061048c600480360381019080803573ffffffffffffffffffffffffffffffffffffffff169060200190929190803573ffffffffffffffffffffffffffffffffffffffff169060200190929190803573ffffffffffffffffffffffffffffffffffffffff169060200190929190505050610fad565b604051808273ffffffffffffffffffffffffffffffffffffffff1673ffffffffffffffffffffffffffffffffffffffff16815260200191505060405180910390f35b3480156104da57600080fd5b50610575600480360381019080803573ffffffffffffffffffffffffffffffffffffffff169060200190929190803573ffffffffffffffffffffffffffffffffffffffff169060200190929190803590602001908201803590602001908080601f0160208091040260200160405190810160405280939291908181526020018383808284378201915050505050509192919290505050611197565b005b34801561058357600080fd5b506105d8600480360381019080803573ffffffffffffffffffffffffffffffffffffffff169060200190929190803573ffffffffffffffffffffffffffffffffffffffff1690602001909291905050506117d6565b6040518080602001828103825283818151815260200191508051906020019080838360005b838110156106185780820151818401526020810190506105fd565b50505050905090810190601f1680156106455780820380516001836020036101000a031916815260200191505b509250505060405180910390f35b34801561065f57600080fd5b506106b4600480360381019080803573ffffffffffffffffffffffffffffffffffffffff169060200190929190803573ffffffffffffffffffffffffffffffffffffffff1690602001909291905050506119c5565b005b3480156106c257600080fd5b5061075d600480360381019080803573ffffffffffffffffffffffffffffffffffffffff169060200190929190803573ffffffffffffffffffffffffffffffffffffffff169060200190929190803590602001908201803590602001908080601f0160208091040260200160405190810160405280939291908181526020018383808284378201915050505050509192919290505050611add565b005b34801561076b57600080fd5b506107e6600480360381019080803573ffffffffffffffffffffffffffffffffffffffff169060200190929190803590602001908201803590602001908080601f016020809104026020016040519081016040528093929190818152602001838380828437820191505050505050919291929050505061232d565b005b3480156107f457600080fd5b50610869600480360381019080803573ffffffffffffffffffffffffffffffffffffffff169060200190929190803573ffffffffffffffffffffffffffffffffffffffff169060200190929190803573ffffffffffffffffffffffffffffffffffffffff16906020019092919050505061247e565b604051808273ffffffffffffffffffffffffffffffffffffffff1673ffffffffffffffffffffffffffffffffffffffff16815260200191505060405180910390f35b3480156108b757600080fd5b506108c0612668565b604051808273ffffffffffffffffffffffffffffffffffffffff1673ffffffffffffffffffffffffffffffffffffffff16815260200191505060405180910390f35b34801561090e57600080fd5b50610943600480360381019080803573ffffffffffffffffffffffffffffffffffffffff16906020019092919050505061268e565b60405180848152602001838152602001828152602001935050505060405180910390f35b61099b600480360381019080803573ffffffffffffffffffffffffffffffffffffffff169060200190929190505050612a84565b005b3480156109a957600080fd5b50610a24600480360381019080803573ffffffffffffffffffffffffffffffffffffffff169060200190929190803590602001908201803590602001908080601f0160208091040260200160405190810160405280939291908181526020018383808284378201915050505050509192919290505050612ae2565b005b348015610a3257600080fd5b50610aa7600480360381019080803573ffffffffffffffffffffffffffffffffffffffff169060200190929190803573ffffffffffffffffffffffffffffffffffffffff169060200190929190803573ffffffffffffffffffffffffffffffffffffffff169060200190929190505050612cbf565b005b348015610ab557600080fd5b50610b14600480360381019080803573ffffffffffffffffffffffffffffffffffffffff169060200190929190803573ffffffffffffffffffffffffffffffffffffffff16906020019092919080359060200190929190505050612cd0565b005b348015610b2257600080fd5b50610b97600480360381019080803573ffffffffffffffffffffffffffffffffffffffff169060200190929190803573ffffffffffffffffffffffffffffffffffffffff169060200190929190803573ffffffffffffffffffffffffffffffffffffffff169060200190929190505050612ce1565b6040518080602001828103825283818151815260200191508051906020019060200280838360005b83811015610bda578082015181840152602081019050610bbf565b505050509050019250505060405180910390f35b348015610bfa57600080fd5b50610c6f600480360381019080803573ffffffffffffffffffffffffffffffffffffffff169060200190929190803573ffffffffffffffffffffffffffffffffffffffff169060200190929190803573ffffffffffffffffffffffffffffffffffffffff169060200190929190505050612f1a565b6040518082815260200191505060405180910390f35b60001515600360149054906101000a900460ff161515141515610ca757600080fd5b81600360006101000a81548173ffffffffffffffffffffffffffffffffffffffff021916908373ffffffffffffffffffffffffffffffffffffffff16021790555080600260006101000a81548173ffffffffffffffffffffffffffffffffffffffff021916908373ffffffffffffffffffffffffffffffffffffffff1602179055506001600360146101000a81548160ff0219169083151502179055505050565b600260009054906101000a900473ffffffffffffffffffffffffffffffffffffffff1681565b6000600260009054906101000a900473ffffffffffffffffffffffffffffffffffffffff1673ffffffffffffffffffffffffffffffffffffffff166321f8a7218585610db9866130ff565b60405180807f7075626c69635f6c696e6b5f6b65790000000000000000000000000000000000815250600f018473ffffffffffffffffffffffffffffffffffffffff1673ffffffffffffffffffffffffffffffffffffffff166c010000000000000000000000000281526014018373ffffffffffffffffffffffffffffffffffffffff1673ffffffffffffffffffffffffffffffffffffffff166c010000000000000000000000000281526014018273ffffffffffffffffffffffffffffffffffffffff1673ffffffffffffffffffffffffffffffffffffffff166c01000000000000000000000000028152601401935050505060405180910390206040518263ffffffff167c0100000000000000000000000000000000000000000000000000000000028152600401808260001916600019168152602001915050602060405180830381600087803b158015610f0f57600080fd5b505af1158015610f23573d6000803e3d6000fd5b505050506040513d6020811015610f3957600080fd5b810190808051906020019092919050505090509392505050565b606080610f5f836130ff565b9250610f6c858585613265565b610f77868686612ce1565b91509150935093915050565b6000600160009054906101000a900473ffffffffffffffffffffffffffffffffffffffff16905090565b60008084848460405180807f766973697465645f66726f6d0000000000000000000000000000000000000000815250600c018473ffffffffffffffffffffffffffffffffffffffff1673ffffffffffffffffffffffffffffffffffffffff166c010000000000000000000000000281526014018373ffffffffffffffffffffffffffffffffffffffff1673ffffffffffffffffffffffffffffffffffffffff166c010000000000000000000000000281526014018273ffffffffffffffffffffffffffffffffffffffff1673ffffffffffffffffffffffffffffffffffffffff166c0100000000000000000000000002815260140193505050506040518091039020905061118d600260009054906101000a900473ffffffffffffffffffffffffffffffffffffffff1673ffffffffffffffffffffffffffffffffffffffff166321f8a721836040518263ffffffff167c0100000000000000000000000000000000000000000000000000000000028152600401808260001916600019168152602001915050602060405180830381600087803b15801561114d57600080fd5b505af1158015611161573d6000803e3d6000fd5b505050506040513d602081101561117757600080fd5b810190808051906020019092919050505061349e565b9150509392505050565b60008060608060606000806000601589015197506111b4886130ff565b97506111c18b8b8a613604565b15156111cc57600080fd5b6111d78b8b8a610d6e565b965033925073__Call__________________________________63ff3209ba8a89866040518463ffffffff167c010000000000000000000000000000000000000000000000000000000002815260040180806020018473ffffffffffffffffffffffffffffffffffffffff1673ffffffffffffffffffffffffffffffffffffffff1681526020018373ffffffffffffffffffffffffffffffffffffffff1673ffffffffffffffffffffffffffffffffffffffff168152602001828103825285818151815260200191508051906020019080838360005b838110156112c85780820151818401526020810190506112ad565b50505050905090810190601f1680156112f55780820380516001836020036101000a031916815260200191505b5094505050505060006040518083038186803b15801561131457600080fd5b505af4158015611328573d6000803e3d6000fd5b505050506040513d6000823e3d601f19601f82011682018060405250606081101561135257600080fd5b81019080805164010000000081111561136a57600080fd5b8281019050602081018481111561138057600080fd5b815185602082028301116401000000008211171561139d57600080fd5b505092919060200180516401000000008111156113b957600080fd5b828101905060208101848111156113cf57600080fd5b81518560208202830111640100000000821117156113ec57600080fd5b5050929190602001805164010000000081111561140857600080fd5b8281019050602081018481111561141e57600080fd5b815185602082028301116401000000008211171561143b57600080fd5b50509291905050508096508197508298505050508991508273ffffffffffffffffffffffffffffffffffffffff1686600188510381518110151561147b57fe5b9060200190602002015173ffffffffffffffffffffffffffffffffffffffff161415156114a757600080fd5b6001865111156114d0578560028751038151811015156114c357fe5b9060200190602002015191505b8a60405180807f63616d706169676e326e756d6265724f664a6f696e73000000000000000000008152506016018273ffffffffffffffffffffffffffffffffffffffff1673ffffffffffffffffffffffffffffffffffffffff166c0100000000000000000000000002815260140191505060405180910390209050600260009054906101000a900473ffffffffffffffffffffffffffffffffffffffff1673ffffffffffffffffffffffffffffffffffffffff1663e2a4853a826001600260009054906101000a900473ffffffffffffffffffffffffffffffffffffffff1673ffffffffffffffffffffffffffffffffffffffff1663bd02d0f5866040518263ffffffff167c0100000000000000000000000000000000000000000000000000000000028152600401808260001916600019168152602001915050602060405180830381600087803b15801561162557600080fd5b505af1158015611639573d6000803e3d6000fd5b505050506040513d602081101561164f57600080fd5b8101908080519060200190929190505050016040518363ffffffff167c010000000000000000000000000000000000000000000000000000000002815260040180836000191660001916815260200182815260200192505050600060405180830381600087803b1580156116c257600080fd5b505af11580156116d6573d6000803e3d6000fd5b505050506116e68b8b85856136b6565b6116f28b8b85856138a5565b6116fe8b8b8486613a94565b7f2bd729a8054724da0df9fdf02b37398fb43652780a2590cef6fa6e8abcf436788b8385604051808473ffffffffffffffffffffffffffffffffffffffff1673ffffffffffffffffffffffffffffffffffffffff1681526020018373ffffffffffffffffffffffffffffffffffffffff1673ffffffffffffffffffffffffffffffffffffffff1681526020018273ffffffffffffffffffffffffffffffffffffffff1673ffffffffffffffffffffffffffffffffffffffff168152602001935050505060405180910390a15050505050505050505050565b6060600260009054906101000a900473ffffffffffffffffffffffffffffffffffffffff1673ffffffffffffffffffffffffffffffffffffffff1663c031a180848460405180807f6e6f7465730000000000000000000000000000000000000000000000000000008152506005018373ffffffffffffffffffffffffffffffffffffffff1673ffffffffffffffffffffffffffffffffffffffff166c010000000000000000000000000281526014018273ffffffffffffffffffffffffffffffffffffffff1673ffffffffffffffffffffffffffffffffffffffff166c010000000000000000000000000281526014019250505060405180910390206040518263ffffffff167c0100000000000000000000000000000000000000000000000000000000028152600401808260001916600019168152602001915050600060405180830381600087803b15801561192c57600080fd5b505af1158015611940573d6000803e3d6000fd5b505050506040513d6000823e3d601f19601f82011682018060405250602081101561196a57600080fd5b81019080805164010000000081111561198257600080fd5b8281019050602081018481111561199857600080fd5b81518560018202830111640100000000821117156119b557600080fd5b5050929190505050905092915050565b6000611a056040805190810160405280601481526020017f54776f4b6579506c61736d615265676973747279000000000000000000000000815250613dab565b90508073ffffffffffffffffffffffffffffffffffffffff163373ffffffffffffffffffffffffffffffffffffffff16141515611a4157600080fd5b7f9838c03dfc56dbe511fe8ab6c7318fc5c19823821939edb37ac76617736a65828383604051808373ffffffffffffffffffffffffffffffffffffffff1673ffffffffffffffffffffffffffffffffffffffff1681526020018273ffffffffffffffffffffffffffffffffffffffff1673ffffffffffffffffffffffffffffffffffffffff1681526020019250505060405180910390a1505050565b600080606080606060008060008060158a01519850611afb896130ff565b9850611b088c8c8b613604565b1515611b1357600080fd5b611b1e8c8c8b610d6e565b975033935073__Call__________________________________63ff3209ba8b8a876040518463ffffffff167c010000000000000000000000000000000000000000000000000000000002815260040180806020018473ffffffffffffffffffffffffffffffffffffffff1673ffffffffffffffffffffffffffffffffffffffff1681526020018373ffffffffffffffffffffffffffffffffffffffff1673ffffffffffffffffffffffffffffffffffffffff168152602001828103825285818151815260200191508051906020019080838360005b83811015611c0f578082015181840152602081019050611bf4565b50505050905090810190601f168015611c3c5780820380516001836020036101000a031916815260200191505b5094505050505060006040518083038186803b158015611c5b57600080fd5b505af4158015611c6f573d6000803e3d6000fd5b505050506040513d6000823e3d601f19601f820116820180604052506060811015611c9957600080fd5b810190808051640100000000811115611cb157600080fd5b82810190506020810184811115611cc757600080fd5b8151856020820283011164010000000082111715611ce457600080fd5b50509291906020018051640100000000811115611d0057600080fd5b82810190506020810184811115611d1657600080fd5b8151856020820283011164010000000082111715611d3357600080fd5b50509291906020018051640100000000811115611d4f57600080fd5b82810190506020810184811115611d6557600080fd5b8151856020820283011164010000000082111715611d8257600080fd5b50509291905050508097508198508299505050508373ffffffffffffffffffffffffffffffffffffffff16876001895103815181101515611dbf57fe5b9060200190602002015173ffffffffffffffffffffffffffffffffffffffff16141515611deb57600080fd5b611df78c8c868d613ee5565b60018751118015611e30575060001515611e2c8d8960028b5103815181101515611e1d57fe5b9060200190602002015161410d565b1515145b8015611e8357508a73ffffffffffffffffffffffffffffffffffffffff16876002895103815181101515611e6057fe5b9060200190602002015173ffffffffffffffffffffffffffffffffffffffff1614155b156120b857611ead8c8860028a5103815181101515611e9e57fe5b906020019060200201516142a6565b8b60405180807f63616d706169676e326e756d6265724f66466f72776172646572730000000000815250601b018273ffffffffffffffffffffffffffffffffffffffff1673ffffffffffffffffffffffffffffffffffffffff166c0100000000000000000000000002815260140191505060405180910390209250600260009054906101000a900473ffffffffffffffffffffffffffffffffffffffff1673ffffffffffffffffffffffffffffffffffffffff1663e2a4853a846001600260009054906101000a900473ffffffffffffffffffffffffffffffffffffffff1673ffffffffffffffffffffffffffffffffffffffff1663bd02d0f5886040518263ffffffff167c0100000000000000000000000000000000000000000000000000000000028152600401808260001916600019168152602001915050602060405180830381600087803b15801561200257600080fd5b505af1158015612016573d6000803e3d6000fd5b505050506040513d602081101561202c57600080fd5b8101908080519060200190929190505050016040518363ffffffff167c010000000000000000000000000000000000000000000000000000000002815260040180836000191660001916815260200182815260200192505050600060405180830381600087803b15801561209f57600080fd5b505af11580156120b3573d6000803e3d6000fd5b505050505b600091505b86518210156122725786828151811015156120d457fe5b9060200190602002015190506120e98b6130ff565b73ffffffffffffffffffffffffffffffffffffffff168173ffffffffffffffffffffffffffffffffffffffff161415151561212357600080fd5b61212f8c8c8b84614423565b1515612262576121418c8c8b84614644565b61214a8c614849565b600073ffffffffffffffffffffffffffffffffffffffff1661216d8d8d8461247e565b73ffffffffffffffffffffffffffffffffffffffff1614156121a2576121958c8c838c6138a5565b6121a18c8c838c614a59565b5b6121ae8c8c8b84613a94565b6121b98c8c8b614c5f565b8a73ffffffffffffffffffffffffffffffffffffffff168c73ffffffffffffffffffffffffffffffffffffffff168273ffffffffffffffffffffffffffffffffffffffff167f2635600a170b0cac11e0a02cda6db30f0d43eb6c40b47d363b9249c01a226c8d8c604051808273ffffffffffffffffffffffffffffffffffffffff1673ffffffffffffffffffffffffffffffffffffffff16815260200191505060405180910390a45b80985081806001019250506120bd565b600091505b85518210156122c7576122ba8c8c898581518110151561229357fe5b9060200190602002015189868151811015156122ab57fe5b90602001906020020151614f19565b8180600101925050612277565b600091505b845182101561231f576123128c8c89858151811015156122e857fe5b90602001906020020151888681518110151561230057fe5b9060200190602002015160ff16615260565b81806001019250506122cc565b505050505050505050505050565b600061236d6040805190810160405280601481526020017f54776f4b6579506c61736d615265676973747279000000000000000000000000815250613dab565b90508073ffffffffffffffffffffffffffffffffffffffff163373ffffffffffffffffffffffffffffffffffffffff161415156123a957600080fd5b7fb456379217a0a887bfc3a324d760e2f1309dc8cc1336ae816519c062c82ec7548383604051808373ffffffffffffffffffffffffffffffffffffffff1673ffffffffffffffffffffffffffffffffffffffff16815260200180602001828103825283818151815260200191508051906020019080838360005b8381101561243e578082015181840152602081019050612423565b50505050905090810190601f16801561246b5780820380516001836020036101000a031916815260200191505b50935050505060405180910390a1505050565b60008084848460405180807f6a6f696e65645f66726f6d000000000000000000000000000000000000000000815250600b018473ffffffffffffffffffffffffffffffffffffffff1673ffffffffffffffffffffffffffffffffffffffff166c010000000000000000000000000281526014018373ffffffffffffffffffffffffffffffffffffffff1673ffffffffffffffffffffffffffffffffffffffff166c010000000000000000000000000281526014018273ffffffffffffffffffffffffffffffffffffffff1673ffffffffffffffffffffffffffffffffffffffff166c0100000000000000000000000002815260140193505050506040518091039020905061265e600260009054906101000a900473ffffffffffffffffffffffffffffffffffffffff1673ffffffffffffffffffffffffffffffffffffffff166321f8a721836040518263ffffffff167c0100000000000000000000000000000000000000000000000000000000028152600401808260001916600019168152602001915050602060405180830381600087803b15801561261e57600080fd5b505af1158015612632573d6000803e3d6000fd5b505050506040513d602081101561264857600080fd5b81019080805190602001909291905050506130ff565b9150509392505050565b600360009054906101000a900473ffffffffffffffffffffffffffffffffffffffff1681565b6000806000600260009054906101000a900473ffffffffffffffffffffffffffffffffffffffff1673ffffffffffffffffffffffffffffffffffffffff1663bd02d0f58560405180807f63616d706169676e326e756d6265724f665669736974730000000000000000008152506017018273ffffffffffffffffffffffffffffffffffffffff1673ffffffffffffffffffffffffffffffffffffffff166c0100000000000000000000000002815260140191505060405180910390206040518263ffffffff167c0100000000000000000000000000000000000000000000000000000000028152600401808260001916600019168152602001915050602060405180830381600087803b1580156127a457600080fd5b505af11580156127b8573d6000803e3d6000fd5b505050506040513d60208110156127ce57600080fd5b8101908080519060200190929190505050600260009054906101000a900473ffffffffffffffffffffffffffffffffffffffff1673ffffffffffffffffffffffffffffffffffffffff1663bd02d0f58660405180807f63616d706169676e326e756d6265724f664a6f696e73000000000000000000008152506016018273ffffffffffffffffffffffffffffffffffffffff1673ffffffffffffffffffffffffffffffffffffffff166c0100000000000000000000000002815260140191505060405180910390206040518263ffffffff167c0100000000000000000000000000000000000000000000000000000000028152600401808260001916600019168152602001915050602060405180830381600087803b1580156128f057600080fd5b505af1158015612904573d6000803e3d6000fd5b505050506040513d602081101561291a57600080fd5b8101908080519060200190929190505050600260009054906101000a900473ffffffffffffffffffffffffffffffffffffffff1673ffffffffffffffffffffffffffffffffffffffff1663bd02d0f58760405180807f63616d706169676e326e756d6265724f66466f72776172646572730000000000815250601b018273ffffffffffffffffffffffffffffffffffffffff1673ffffffffffffffffffffffffffffffffffffffff166c0100000000000000000000000002815260140191505060405180910390206040518263ffffffff167c0100000000000000000000000000000000000000000000000000000000028152600401808260001916600019168152602001915050602060405180830381600087803b158015612a3c57600080fd5b505af1158015612a50573d6000803e3d6000fd5b505050506040513d6020811015612a6657600080fd5b81019080805190602001909291905050509250925092509193909250565b6000809054906101000a900473ffffffffffffffffffffffffffffffffffffffff1673ffffffffffffffffffffffffffffffffffffffff163373ffffffffffffffffffffffffffffffffffffffff16141515612adf57600080fd5b50565b600260009054906101000a900473ffffffffffffffffffffffffffffffffffffffff1673ffffffffffffffffffffffffffffffffffffffff16632e28d084833360405180807f6e6f7465730000000000000000000000000000000000000000000000000000008152506005018373ffffffffffffffffffffffffffffffffffffffff1673ffffffffffffffffffffffffffffffffffffffff166c010000000000000000000000000281526014018273ffffffffffffffffffffffffffffffffffffffff1673ffffffffffffffffffffffffffffffffffffffff166c01000000000000000000000000028152601401925050506040518091039020836040518363ffffffff167c010000000000000000000000000000000000000000000000000000000002815260040180836000191660001916815260200180602001828103825283818151815260200191508051906020019080838360005b83811015612c56578082015181840152602081019050612c3b565b50505050905090810190601f168015612c835780820380516001836020036101000a031916815260200191505b509350505050600060405180830381600087803b158015612ca357600080fd5b505af1158015612cb7573d6000803e3d6000fd5b505050505050565b612ccb83833384614f19565b505050565b612cdc83833384615260565b505050565b6060600084848460405180807f7669736974735f6c6973745f74696d657374616d7073000000000000000000008152506016018473ffffffffffffffffffffffffffffffffffffffff1673ffffffffffffffffffffffffffffffffffffffff166c010000000000000000000000000281526014018373ffffffffffffffffffffffffffffffffffffffff1673ffffffffffffffffffffffffffffffffffffffff166c010000000000000000000000000281526014018273ffffffffffffffffffffffffffffffffffffffff1673ffffffffffffffffffffffffffffffffffffffff166c01000000000000000000000000028152601401935050505060405180910390209050600260009054906101000a900473ffffffffffffffffffffffffffffffffffffffff1673ffffffffffffffffffffffffffffffffffffffff166386ac6bdf826040518263ffffffff167c0100000000000000000000000000000000000000000000000000000000028152600401808260001916600019168152602001915050600060405180830381600087803b158015612e7f57600080fd5b505af1158015612e93573d6000803e3d6000fd5b505050506040513d6000823e3d601f19601f820116820180604052506020811015612ebd57600080fd5b810190808051640100000000811115612ed557600080fd5b82810190506020810184811115612eeb57600080fd5b8151856020820283011164010000000082111715612f0857600080fd5b50509291905050509150509392505050565b6000600260009054906101000a900473ffffffffffffffffffffffffffffffffffffffff1673ffffffffffffffffffffffffffffffffffffffff1663bd02d0f58585612f65866130ff565b60405180807f696e666c75656e63657232637574000000000000000000000000000000000000815250600e018473ffffffffffffffffffffffffffffffffffffffff1673ffffffffffffffffffffffffffffffffffffffff166c010000000000000000000000000281526014018373ffffffffffffffffffffffffffffffffffffffff1673ffffffffffffffffffffffffffffffffffffffff166c010000000000000000000000000281526014018273ffffffffffffffffffffffffffffffffffffffff1673ffffffffffffffffffffffffffffffffffffffff166c01000000000000000000000000028152601401935050505060405180910390206040518263ffffffff167c0100000000000000000000000000000000000000000000000000000000028152600401808260001916600019168152602001915050602060405180830381600087803b1580156130bb57600080fd5b505af11580156130cf573d6000803e3d6000fd5b505050506040513d60208110156130e557600080fd5b810190808051906020019092919050505090509392505050565b60008060006131426040805190810160405280601481526020017f54776f4b6579506c61736d615265676973747279000000000000000000000000815250613dab565b91508173ffffffffffffffffffffffffffffffffffffffff16636b744824856040518263ffffffff167c0100000000000000000000000000000000000000000000000000000000028152600401808273ffffffffffffffffffffffffffffffffffffffff1673ffffffffffffffffffffffffffffffffffffffff168152602001915050602060405180830381600087803b1580156131df57600080fd5b505af11580156131f3573d6000803e3d6000fd5b505050506040513d602081101561320957600080fd5b81019080805190602001909291905050509050600073ffffffffffffffffffffffffffffffffffffffff168173ffffffffffffffffffffffffffffffffffffffff1614151561325a5780925061325e565b8392505b5050919050565b6060600084848460405180807f7669736974735f6c697374000000000000000000000000000000000000000000815250600b018473ffffffffffffffffffffffffffffffffffffffff1673ffffffffffffffffffffffffffffffffffffffff166c010000000000000000000000000281526014018373ffffffffffffffffffffffffffffffffffffffff1673ffffffffffffffffffffffffffffffffffffffff166c010000000000000000000000000281526014018273ffffffffffffffffffffffffffffffffffffffff1673ffffffffffffffffffffffffffffffffffffffff166c01000000000000000000000000028152601401935050505060405180910390209050600260009054906101000a900473ffffffffffffffffffffffffffffffffffffffff1673ffffffffffffffffffffffffffffffffffffffff16635948f733826040518263ffffffff167c0100000000000000000000000000000000000000000000000000000000028152600401808260001916600019168152602001915050600060405180830381600087803b15801561340357600080fd5b505af1158015613417573d6000803e3d6000fd5b505050506040513d6000823e3d601f19601f82011682018060405250602081101561344157600080fd5b81019080805164010000000081111561345957600080fd5b8281019050602081018481111561346f57600080fd5b815185602082028301116401000000008211171561348c57600080fd5b50509291905050509150509392505050565b60008060006134e16040805190810160405280601481526020017f54776f4b6579506c61736d615265676973747279000000000000000000000000815250613dab565b91508173ffffffffffffffffffffffffffffffffffffffff166396fded4e856040518263ffffffff167c0100000000000000000000000000000000000000000000000000000000028152600401808273ffffffffffffffffffffffffffffffffffffffff1673ffffffffffffffffffffffffffffffffffffffff168152602001915050602060405180830381600087803b15801561357e57600080fd5b505af1158015613592573d6000803e3d6000fd5b505050506040513d60208110156135a857600080fd5b81019080805190602001909291905050509050600073ffffffffffffffffffffffffffffffffffffffff168173ffffffffffffffffffffffffffffffffffffffff161415156135f9578092506135fd565b8392505b5050919050565b600061360f836130ff565b925061361a826130ff565b91505b8273ffffffffffffffffffffffffffffffffffffffff168273ffffffffffffffffffffffffffffffffffffffff161415156136aa57600073ffffffffffffffffffffffffffffffffffffffff168273ffffffffffffffffffffffffffffffffffffffff16141561369057600090506136af565b6136a361369e858585610fad565b6130ff565b915061361d565b600190505b9392505050565b600084848460405180807f6a6f696e65645f66726f6d000000000000000000000000000000000000000000815250600b018473ffffffffffffffffffffffffffffffffffffffff1673ffffffffffffffffffffffffffffffffffffffff166c010000000000000000000000000281526014018373ffffffffffffffffffffffffffffffffffffffff1673ffffffffffffffffffffffffffffffffffffffff166c010000000000000000000000000281526014018273ffffffffffffffffffffffffffffffffffffffff1673ffffffffffffffffffffffffffffffffffffffff166c01000000000000000000000000028152601401935050505060405180910390209050600260009054906101000a900473ffffffffffffffffffffffffffffffffffffffff1673ffffffffffffffffffffffffffffffffffffffff1663ca446dd982846040518363ffffffff167c01000000000000000000000000000000000000000000000000000000000281526004018083600019166000191681526020018273ffffffffffffffffffffffffffffffffffffffff1673ffffffffffffffffffffffffffffffffffffffff16815260200192505050600060405180830381600087803b15801561388657600080fd5b505af115801561389a573d6000803e3d6000fd5b505050505050505050565b600084848460405180807f766973697465645f66726f6d0000000000000000000000000000000000000000815250600c018473ffffffffffffffffffffffffffffffffffffffff1673ffffffffffffffffffffffffffffffffffffffff166c010000000000000000000000000281526014018373ffffffffffffffffffffffffffffffffffffffff1673ffffffffffffffffffffffffffffffffffffffff166c010000000000000000000000000281526014018273ffffffffffffffffffffffffffffffffffffffff1673ffffffffffffffffffffffffffffffffffffffff166c01000000000000000000000000028152601401935050505060405180910390209050600260009054906101000a900473ffffffffffffffffffffffffffffffffffffffff1673ffffffffffffffffffffffffffffffffffffffff1663ca446dd982846040518363ffffffff167c01000000000000000000000000000000000000000000000000000000000281526004018083600019166000191681526020018273ffffffffffffffffffffffffffffffffffffffff1673ffffffffffffffffffffffffffffffffffffffff16815260200192505050600060405180830381600087803b158015613a7557600080fd5b505af1158015613a89573d6000803e3d6000fd5b505050505050505050565b606080600080613aa5888888613265565b93506001845101604051908082528060200260200182016040528015613ada5781602001602082028038833980820191505090505b509250600091505b8351821015613b5a578382815181101515613af957fe5b906020019060200201518383815181101515613b1157fe5b9060200190602002019073ffffffffffffffffffffffffffffffffffffffff16908173ffffffffffffffffffffffffffffffffffffffff16815250508180600101925050613ae2565b84838551815181101515613b6a57fe5b9060200190602002019073ffffffffffffffffffffffffffffffffffffffff16908173ffffffffffffffffffffffffffffffffffffffff168152505087878760405180807f7669736974735f6c697374000000000000000000000000000000000000000000815250600b018473ffffffffffffffffffffffffffffffffffffffff1673ffffffffffffffffffffffffffffffffffffffff166c010000000000000000000000000281526014018373ffffffffffffffffffffffffffffffffffffffff1673ffffffffffffffffffffffffffffffffffffffff166c010000000000000000000000000281526014018273ffffffffffffffffffffffffffffffffffffffff1673ffffffffffffffffffffffffffffffffffffffff166c01000000000000000000000000028152601401935050505060405180910390209050600260009054906101000a900473ffffffffffffffffffffffffffffffffffffffff1673ffffffffffffffffffffffffffffffffffffffff1663ec672cf682856040518363ffffffff167c010000000000000000000000000000000000000000000000000000000002815260040180836000191660001916815260200180602001828103825283818151815260200191508051906020019060200280838360005b83811015613d63578082015181840152602081019050613d48565b505050509050019350505050600060405180830381600087803b158015613d8957600080fd5b505af1158015613d9d573d6000803e3d6000fd5b505050505050505050505050565b6000600360009054906101000a900473ffffffffffffffffffffffffffffffffffffffff1673ffffffffffffffffffffffffffffffffffffffff1663db7a6d90836040518263ffffffff167c01000000000000000000000000000000000000000000000000000000000281526004018080602001828103825283818151815260200191508051906020019080838360005b83811015613e57578082015181840152602081019050613e3c565b50505050905090810190601f168015613e845780820380516001836020036101000a031916815260200191505b5092505050602060405180830381600087803b158015613ea357600080fd5b505af1158015613eb7573d6000803e3d6000fd5b505050506040513d6020811015613ecd57600080fd5b81019080805190602001909291905050509050919050565b600084848460405180807f766973697465645f736967000000000000000000000000000000000000000000815250600b018473ffffffffffffffffffffffffffffffffffffffff1673ffffffffffffffffffffffffffffffffffffffff166c010000000000000000000000000281526014018373ffffffffffffffffffffffffffffffffffffffff1673ffffffffffffffffffffffffffffffffffffffff166c010000000000000000000000000281526014018273ffffffffffffffffffffffffffffffffffffffff1673ffffffffffffffffffffffffffffffffffffffff166c01000000000000000000000000028152601401935050505060405180910390209050600260009054906101000a900473ffffffffffffffffffffffffffffffffffffffff1673ffffffffffffffffffffffffffffffffffffffff16632e28d08482846040518363ffffffff167c010000000000000000000000000000000000000000000000000000000002815260040180836000191660001916815260200180602001828103825283818151815260200191508051906020019080838360005b838110156140a1578082015181840152602081019050614086565b50505050905090810190601f1680156140ce5780820380516001836020036101000a031916815260200191505b509350505050600060405180830381600087803b1580156140ee57600080fd5b505af1158015614102573d6000803e3d6000fd5b505050505050505050565b6000600260009054906101000a900473ffffffffffffffffffffffffffffffffffffffff1673ffffffffffffffffffffffffffffffffffffffff16637ae1cfca848460405180807f63616d706169676e546f5265666572726572546f436f756e7465640000000000815250601b018373ffffffffffffffffffffffffffffffffffffffff1673ffffffffffffffffffffffffffffffffffffffff166c010000000000000000000000000281526014018273ffffffffffffffffffffffffffffffffffffffff1673ffffffffffffffffffffffffffffffffffffffff166c010000000000000000000000000281526014019250505060405180910390206040518263ffffffff167c0100000000000000000000000000000000000000000000000000000000028152600401808260001916600019168152602001915050602060405180830381600087803b15801561426357600080fd5b505af1158015614277573d6000803e3d6000fd5b505050506040513d602081101561428d57600080fd5b8101908080519060200190929190505050905092915050565b600260009054906101000a900473ffffffffffffffffffffffffffffffffffffffff1673ffffffffffffffffffffffffffffffffffffffff1663abfdcced838360405180807f63616d706169676e546f5265666572726572546f436f756e7465640000000000815250601b018373ffffffffffffffffffffffffffffffffffffffff1673ffffffffffffffffffffffffffffffffffffffff166c010000000000000000000000000281526014018273ffffffffffffffffffffffffffffffffffffffff1673ffffffffffffffffffffffffffffffffffffffff166c0100000000000000000000000002815260140192505050604051809103902060016040518363ffffffff167c01000000000000000000000000000000000000000000000000000000000281526004018083600019166000191681526020018215151515815260200192505050600060405180830381600087803b15801561440757600080fd5b505af115801561441b573d6000803e3d6000fd5b505050505050565b6000600260009054906101000a900473ffffffffffffffffffffffffffffffffffffffff1673ffffffffffffffffffffffffffffffffffffffff16637ae1cfca8686868660405180807f76697369747300000000000000000000000000000000000000000000000000008152506006018573ffffffffffffffffffffffffffffffffffffffff1673ffffffffffffffffffffffffffffffffffffffff166c010000000000000000000000000281526014018473ffffffffffffffffffffffffffffffffffffffff1673ffffffffffffffffffffffffffffffffffffffff166c010000000000000000000000000281526014018373ffffffffffffffffffffffffffffffffffffffff1673ffffffffffffffffffffffffffffffffffffffff166c010000000000000000000000000281526014018273ffffffffffffffffffffffffffffffffffffffff1673ffffffffffffffffffffffffffffffffffffffff166c0100000000000000000000000002815260140194505050505060405180910390206040518263ffffffff167c0100000000000000000000000000000000000000000000000000000000028152600401808260001916600019168152602001915050602060405180830381600087803b1580156145ff57600080fd5b505af1158015614613573d6000803e3d6000fd5b505050506040513d602081101561462957600080fd5b81019080805190602001909291905050509050949350505050565b600260009054906101000a900473ffffffffffffffffffffffffffffffffffffffff1673ffffffffffffffffffffffffffffffffffffffff1663abfdcced8585858560405180807f76697369747300000000000000000000000000000000000000000000000000008152506006018573ffffffffffffffffffffffffffffffffffffffff1673ffffffffffffffffffffffffffffffffffffffff166c010000000000000000000000000281526014018473ffffffffffffffffffffffffffffffffffffffff1673ffffffffffffffffffffffffffffffffffffffff166c010000000000000000000000000281526014018373ffffffffffffffffffffffffffffffffffffffff1673ffffffffffffffffffffffffffffffffffffffff166c010000000000000000000000000281526014018273ffffffffffffffffffffffffffffffffffffffff1673ffffffffffffffffffffffffffffffffffffffff166c01000000000000000000000000028152601401945050505050604051809103902060016040518363ffffffff167c01000000000000000000000000000000000000000000000000000000000281526004018083600019166000191681526020018215151515815260200192505050600060405180830381600087803b15801561482b57600080fd5b505af115801561483f573d6000803e3d6000fd5b5050505050505050565b60008160405180807f63616d706169676e326e756d6265724f665669736974730000000000000000008152506017018273ffffffffffffffffffffffffffffffffffffffff1673ffffffffffffffffffffffffffffffffffffffff166c0100000000000000000000000002815260140191505060405180910390209050600260009054906101000a900473ffffffffffffffffffffffffffffffffffffffff1673ffffffffffffffffffffffffffffffffffffffff1663e2a4853a826001600260009054906101000a900473ffffffffffffffffffffffffffffffffffffffff1673ffffffffffffffffffffffffffffffffffffffff1663bd02d0f5866040518263ffffffff167c0100000000000000000000000000000000000000000000000000000000028152600401808260001916600019168152602001915050602060405180830381600087803b1580156149a057600080fd5b505af11580156149b4573d6000803e3d6000fd5b505050506040513d60208110156149ca57600080fd5b8101908080519060200190929190505050016040518363ffffffff167c010000000000000000000000000000000000000000000000000000000002815260040180836000191660001916815260200182815260200192505050600060405180830381600087803b158015614a3d57600080fd5b505af1158015614a51573d6000803e3d6000fd5b505050505050565b60008484848460405180807f766973697465645f66726f6d5f74696d650000000000000000000000000000008152506011018573ffffffffffffffffffffffffffffffffffffffff1673ffffffffffffffffffffffffffffffffffffffff166c010000000000000000000000000281526014018473ffffffffffffffffffffffffffffffffffffffff1673ffffffffffffffffffffffffffffffffffffffff166c010000000000000000000000000281526014018373ffffffffffffffffffffffffffffffffffffffff1673ffffffffffffffffffffffffffffffffffffffff166c010000000000000000000000000281526014018273ffffffffffffffffffffffffffffffffffffffff1673ffffffffffffffffffffffffffffffffffffffff166c0100000000000000000000000002815260140194505050505060405180910390209050600260009054906101000a900473ffffffffffffffffffffffffffffffffffffffff1673ffffffffffffffffffffffffffffffffffffffff1663e2a4853a82426040518363ffffffff167c010000000000000000000000000000000000000000000000000000000002815260040180836000191660001916815260200182815260200192505050600060405180830381600087803b158015614c4057600080fd5b505af1158015614c54573d6000803e3d6000fd5b505050505050505050565b606080600080614c70878787612ce1565b93506001845101604051908082528060200260200182016040528015614ca55781602001602082028038833980820191505090505b509250600091505b8351821015614cf7578382815181101515614cc457fe5b906020019060200201518383815181101515614cdc57fe5b90602001906020020181815250508180600101925050614cad565b42838551815181101515614d0757fe5b906020019060200201818152505086868660405180807f7669736974735f6c6973745f74696d657374616d7073000000000000000000008152506016018473ffffffffffffffffffffffffffffffffffffffff1673ffffffffffffffffffffffffffffffffffffffff166c010000000000000000000000000281526014018373ffffffffffffffffffffffffffffffffffffffff1673ffffffffffffffffffffffffffffffffffffffff166c010000000000000000000000000281526014018273ffffffffffffffffffffffffffffffffffffffff1673ffffffffffffffffffffffffffffffffffffffff166c01000000000000000000000000028152601401935050505060405180910390209050600260009054906101000a900473ffffffffffffffffffffffffffffffffffffffff1673ffffffffffffffffffffffffffffffffffffffff16635eb07dbd82856040518363ffffffff167c010000000000000000000000000000000000000000000000000000000002815260040180836000191660001916815260200180602001828103825283818151815260200191508051906020019060200280838360005b83811015614ed2578082015181840152602081019050614eb7565b505050509050019350505050600060405180830381600087803b158015614ef857600080fd5b505af1158015614f0c573d6000803e3d6000fd5b5050505050505050505050565b600080614f25846130ff565b935085858560405180807f7075626c69635f6c696e6b5f6b65790000000000000000000000000000000000815250600f018473ffffffffffffffffffffffffffffffffffffffff1673ffffffffffffffffffffffffffffffffffffffff166c010000000000000000000000000281526014018373ffffffffffffffffffffffffffffffffffffffff1673ffffffffffffffffffffffffffffffffffffffff166c010000000000000000000000000281526014018273ffffffffffffffffffffffffffffffffffffffff1673ffffffffffffffffffffffffffffffffffffffff166c01000000000000000000000000028152601401935050505060405180910390209150600260009054906101000a900473ffffffffffffffffffffffffffffffffffffffff1673ffffffffffffffffffffffffffffffffffffffff166321f8a721836040518263ffffffff167c0100000000000000000000000000000000000000000000000000000000028152600401808260001916600019168152602001915050602060405180830381600087803b1580156150c157600080fd5b505af11580156150d5573d6000803e3d6000fd5b505050506040513d60208110156150eb57600080fd5b81019080805190602001909291905050509050600073ffffffffffffffffffffffffffffffffffffffff168173ffffffffffffffffffffffffffffffffffffffff16141561521d57600260009054906101000a900473ffffffffffffffffffffffffffffffffffffffff1673ffffffffffffffffffffffffffffffffffffffff1663ca446dd983856040518363ffffffff167c01000000000000000000000000000000000000000000000000000000000281526004018083600019166000191681526020018273ffffffffffffffffffffffffffffffffffffffff1673ffffffffffffffffffffffffffffffffffffffff16815260200192505050600060405180830381600087803b15801561520057600080fd5b505af1158015615214573d6000803e3d6000fd5b50505050615258565b8273ffffffffffffffffffffffffffffffffffffffff168173ffffffffffffffffffffffffffffffffffffffff1614151561525757600080fd5b5b505050505050565b600080600061526e856130ff565b925086868460405180807f696e666c75656e63657232637574000000000000000000000000000000000000815250600e018473ffffffffffffffffffffffffffffffffffffffff1673ffffffffffffffffffffffffffffffffffffffff166c010000000000000000000000000281526014018373ffffffffffffffffffffffffffffffffffffffff1673ffffffffffffffffffffffffffffffffffffffff166c010000000000000000000000000281526014018273ffffffffffffffffffffffffffffffffffffffff1673ffffffffffffffffffffffffffffffffffffffff166c01000000000000000000000000028152601401935050505060405180910390209150600260009054906101000a900473ffffffffffffffffffffffffffffffffffffffff1673ffffffffffffffffffffffffffffffffffffffff1663bd02d0f5836040518263ffffffff167c0100000000000000000000000000000000000000000000000000000000028152600401808260001916600019168152602001915050602060405180830381600087803b15801561540a57600080fd5b505af115801561541e573d6000803e3d6000fd5b505050506040513d602081101561543457600080fd5b81019080805190602001909291905050509050600081148061545557508381145b151561546057600080fd5b600260009054906101000a900473ffffffffffffffffffffffffffffffffffffffff1673ffffffffffffffffffffffffffffffffffffffff1663e2a4853a83866040518363ffffffff167c010000000000000000000000000000000000000000000000000000000002815260040180836000191660001916815260200182815260200192505050600060405180830381600087803b15801561550157600080fd5b505af1158015615515573d6000803e3d6000fd5b50505050505050505050505600a165627a7a72305820fd57c72caca8fd71fb39384a3e45a4ed4f11a9a1ae2a68f50bf0415f2f381c8a0029",
  "source": "pragma solidity ^0.4.24; //We have to specify what version of compiler this code will use\nimport '../libraries/Call.sol';\nimport \"../upgradability/Upgradeable.sol\";\nimport \"../interfaces/storage-contracts/ITwoKeyPlasmaEventsStorage.sol\";\nimport \"../interfaces/ITwoKeyMaintainersRegistry.sol\";\nimport \"../interfaces/ITwoKeySingletoneRegistryFetchAddress.sol\";\nimport \"../interfaces/ITwoKeyPlasmaRegistry.sol\";\n\ncontract TwoKeyPlasmaEvents is Upgradeable {\n\n    ITwoKeyPlasmaEventsStorage public PROXY_STORAGE_CONTRACT;\n\n    address public TWO_KEY_PLASMA_SINGLETON_REGISTRY;\n\n    bool initialized;\n    //TODO: Join campaign event\n    // every event we generate contains both the campaign address and the address of the contractor of that campaign\n    // both are ethereum address.\n    // this plasma contract does not know in itself who is the contractor on the ethereum network\n    // instead it receives the contractor address when a method is called and then emits an event with that address\n    // a different user can use a dApp that access both ethereum and plasma networks. The dApp first read the correct contractor address from etherum\n    // and then the dApp filter only plasma events that contain the correct contractor address. Filtering out any false events that may be generated by\n    // a malicous plasma user.\n    event Visited(address indexed to, address indexed c, address indexed contractor, address from);  // the to is a plasma address, you should lookit up in plasma2ethereum\n\n    event Plasma2Ethereum(\n        address plasma,\n        address eth\n    );\n\n    event Plasma2Handle(\n        address plasma,\n        string handle\n    );\n\n    event Joined(\n        address campaignAddress,\n        address fromPlasma,\n        address toPlasma\n    );\n\n\n    modifier onlyTwoKeyPlasmaRegistry {\n        address twoKeyPlasmaRegistry = getAddressFromTwoKeySingletonRegistry(\"TwoKeyPlasmaRegistry\");\n        require(msg.sender == twoKeyPlasmaRegistry);\n        _;\n    }\n\n    function setInitialParams(\n        address _twoKeyPlasmaSingletonRegistry,\n        address _proxyStorage\n    )\n    public\n    {\n        require(initialized == false);\n\n        TWO_KEY_PLASMA_SINGLETON_REGISTRY = _twoKeyPlasmaSingletonRegistry;\n        PROXY_STORAGE_CONTRACT = ITwoKeyPlasmaEventsStorage(_proxyStorage);\n        //Adding initial maintainers\n        initialized = true;\n    }\n\n    function onlyMaintainer() internal view returns (bool) {\n        address twoKeyPlasmaMaintainersRegistry = getAddressFromTwoKeySingletonRegistry(\"TwoKeyPlasmaMaintainersRegistry\");\n        return ITwoKeyMaintainersRegistry(twoKeyPlasmaMaintainersRegistry).onlyMaintainer(msg.sender);\n    }\n\n    // Internal function to fetch address from TwoKeyRegTwoistry\n    function getAddressFromTwoKeySingletonRegistry(string contractName) internal view returns (address) {\n        return ITwoKeySingletoneRegistryFetchAddress(TWO_KEY_PLASMA_SINGLETON_REGISTRY)\n        .getContractProxyAddress(contractName);\n    }\n\n\n    function plasmaOf(address me) internal view returns (address) {\n        address twoKeyPlasmaEventsRegistry = getAddressFromTwoKeySingletonRegistry(\"TwoKeyPlasmaRegistry\");\n        address plasma = ITwoKeyPlasmaRegistry(twoKeyPlasmaEventsRegistry).ethereum2plasma(me);\n        if (plasma != address(0)) {\n            return plasma;\n        }\n        return me;\n    }\n\n\n    function ethereumOf(address me) internal view returns (address) {\n        address twoKeyPlasmaEventsRegistry = getAddressFromTwoKeySingletonRegistry(\"TwoKeyPlasmaRegistry\");\n        address ethereum = ITwoKeyPlasmaRegistry(twoKeyPlasmaEventsRegistry).plasma2ethereum(me);\n        if (ethereum != address(0)) {\n            return ethereum;\n        }\n        return me;\n    }\n\n    function setPublicLinkKeyOf(address c, address contractor, address new_address, address new_public_key) private {\n        // TODO keep same as code in TwoKeySignedContract.sol:transferSig\n        // update (only once) the public address used by each influencer\n        // we will need this in case one of the influencers will want to start his own off-chain link\n        new_address = plasmaOf(new_address);\n\n        bytes32 keyHashPublicLinkKey = keccak256(\"public_link_key\",c,contractor,new_address);\n        address old_address = PROXY_STORAGE_CONTRACT.getAddress(keyHashPublicLinkKey);\n        if (old_address == address(0)) {\n            PROXY_STORAGE_CONTRACT.setAddress(keyHashPublicLinkKey, new_public_key);\n        } else {\n            require(old_address == new_public_key);\n        }\n    }\n\n\n    function setPublicLinkKey(address c, address contractor, address new_public_key) public {\n        setPublicLinkKeyOf(c, contractor, msg.sender, new_public_key);\n    }\n\n    function setCutOf(address c, address contractor, address me, uint256 cut) internal {\n        // what is the percentage of the bounty s/he will receive when acting as an influencer\n        // the value 255 is used to signal equal partition with other influencers\n        // A sender can set the value only once in a contract\n        address plasma = plasmaOf(me);\n        bytes32 keyHashInfluencerToCut = keccak256(\"influencer2cut\", c, contractor, plasma);\n        uint cutSaved = PROXY_STORAGE_CONTRACT.getUint(keyHashInfluencerToCut);\n        require(cutSaved == 0 || cutSaved == cut);\n//        if (influencer2cut[c][contractor][plasma] == 0) {\n//            if (0 < cut && cut <= 101) {\n//                voted_yes[c][contractor]++;\n//                weighted_yes[c][contractor] += cut-1;\n//            } else if (154 < cut && cut < 255) {\n//                voted_no[c][contractor]++;\n//                weighted_no[c][contractor] += 255-cut;\n//            }\n//        }\n        PROXY_STORAGE_CONTRACT.setUint(keyHashInfluencerToCut, cut);\n    }\n\n    function setCut(address c, address contractor, uint256 cut) public {\n        setCutOf(c, contractor, msg.sender, cut);\n    }\n\n    function cutOf(address c, address contractor, address me) public view returns (uint256) {\n        return PROXY_STORAGE_CONTRACT.getUint(keccak256(\"influencer2cut\", c, contractor, plasmaOf(me)));\n    }\n\n    function test_path(address c, address contractor, address to) private view returns (bool) {\n        contractor = plasmaOf(contractor);\n        to = plasmaOf(to);\n        while(to != contractor) {\n            if(to == address(0)) {\n                return false;\n            }\n            //TODO: Check with UDI do we need here plasmaOf or ethereum address\n            to = plasmaOf(getVisitedFrom(c, contractor, to));\n        }\n        return true;\n    }\n\n    function publicLinkKeyOf(address c, address contractor, address me) public view returns (address) {\n        return PROXY_STORAGE_CONTRACT.getAddress(keccak256(\"public_link_key\",c,contractor,plasmaOf(me)));\n    }\n\n    function setNoteByUser(address c, bytes note) public {\n        PROXY_STORAGE_CONTRACT.setBytes(keccak256(\"notes\",c,msg.sender), note);\n    }\n\n    function notes(address c, address _plasma) public view returns (bytes) {\n        return PROXY_STORAGE_CONTRACT.getBytes(keccak256(\"notes\",c, _plasma));\n    }\n\n\n    function joinCampaign(address campaignAddress, address contractor, bytes sig) public {\n        address old_address;\n        assembly\n        {\n            old_address := mload(add(sig, 21))\n        }\n        old_address = plasmaOf(old_address);\n        // validate an existing visit path from contractor address to the old_address\n        require(test_path(campaignAddress, contractor, old_address));\n        address old_key = publicLinkKeyOf(campaignAddress, contractor, old_address);\n        address[] memory influencers;\n        address[] memory keys;\n        uint8[] memory weights;\n        address last_address = msg.sender;\n        (influencers, keys, weights) = Call.recoverSig(sig, old_key, last_address);\n        address referrer = contractor;\n        require(influencers[influencers.length-1] == last_address);\n        if (influencers.length > 1) {\n            referrer = influencers[influencers.length - 2];\n        }\n        bytes32 keyJoins = keccak256(\"campaign2numberOfJoins\", campaignAddress);\n        PROXY_STORAGE_CONTRACT.setUint(keyJoins, PROXY_STORAGE_CONTRACT.getUint(keyJoins) + 1);\n\n        setJoinedFrom(campaignAddress, contractor, last_address, referrer);\n        setVisitedFrom(campaignAddress, contractor, last_address, referrer);\n        setVisitsList(campaignAddress, contractor, referrer, last_address);\n\n        emit Joined(campaignAddress, referrer, last_address);\n    }\n\n\n    function visited(address c, address contractor, bytes sig) public {\n        // c - addresss of the contract on ethereum\n        // contractor - is the ethereum address of the contractor who created c. a dApp can read this information for free from ethereum.\n        // caller must use the 2key-link and put his plasma address at the end using free_take\n        // sig contains the \"from\" and at the end of sig you should put your own plasma address (msg.sender) or a signature of cut using it\n\n        address old_address;\n        assembly\n        {\n            old_address := mload(add(sig, 21))\n        }\n        old_address = plasmaOf(old_address);\n\n        // validate an existing visit path from contractor address to the old_address\n        require(test_path(c, contractor, old_address));\n\n        address old_key = publicLinkKeyOf(c, contractor, old_address);\n\n\n        address[] memory influencers;\n        address[] memory keys;\n        uint8[] memory weights;\n        address last_address = msg.sender;\n        (influencers, keys, weights) = Call.recoverSig(sig, old_key, last_address);\n        // check if we exactly reached the end of the signature. this can only happen if the signature\n        // was generated with free_join_take and in this case the last part of the signature must have been\n        // generated by the caller of this method\n        require(influencers[influencers.length-1] == last_address);\n        setVisitedSig(c, contractor, last_address, sig);\n\n        if(influencers.length > 1 && getCampaignToReferrerToCounted(c,influencers[influencers.length-2]) == false && influencers[influencers.length-2] != contractor) {\n            setCampaignToReferrerToCounted(c, influencers[influencers.length-2]);\n            bytes32 key = keccak256(\"campaign2numberOfForwarders\",c);\n            PROXY_STORAGE_CONTRACT.setUint(key, PROXY_STORAGE_CONTRACT.getUint(key) + 1);\n        }\n\n        uint i;\n        address new_address;\n        // move ARCs based on signature information\n        for (i = 0; i < influencers.length; i++) {\n            new_address = influencers[i];\n            require(new_address != plasmaOf(contractor));\n            // NOTE!!!! for the last user in the sig the  new_address can be a plasma_address\n            // as a result the same user with a plasma_address can appear later with an etherum address\n            if (!getVisits(c,contractor,old_address,new_address)) {  // generate event only once for each tripplet\n                setVisits(c,contractor,old_address,new_address);\n                incrementNumberOfVisitsPerCampaign(c);\n\n                if (getJoinedFrom(c, contractor, new_address) == address(0)) {\n                    setVisitedFrom(c, contractor, new_address, old_address);\n                    //TODO: Updating visited from time\n                    setVisitedFromTime(c,contractor,new_address,old_address);\n                }\n                setVisitsList(c, contractor, old_address, new_address);\n                setVisitsListTimestamps(c, contractor, old_address);\n                emit Visited(new_address, c, contractor, old_address);\n            } /* else {\n                require(visited_from[c][contractor][new_address] == old_address, 'User already visited from a different influencer');\n            }*/\n\n            old_address = new_address;\n        }\n\n        for (i = 0; i < keys.length; i++) {\n            // TODO Updating the public key of influencers may not a good idea because it will require the influencers to use\n            // a deterministic private/public key in the link and this might require user interaction (MetaMask signature)\n            // TODO a possible solution is change public_link_key to address=>address[]\n            // update (only once) the public address used by each influencer\n            // we will need this in case one of the influencers will want to start his own off-chain link\n            setPublicLinkKeyOf(c, contractor, influencers[i], keys[i]);\n        }\n\n        for (i = 0; i < weights.length; i++) {\n            setCutOf(c, contractor, influencers[i], weights[i]);\n        }\n\n    }\n\n\n    function visitsListEx(address c, address contractor, address from) public view returns (address[], uint[]) {\n        from = plasmaOf(from);\n        return (getVisitsList(c, contractor, from), getVisitsListTimestamps(c, contractor, from));\n    }\n\n//    function votes(address c, address contractor) public view returns (uint256, uint256, uint256, uint256, uint256, int) {\n//        return (\n//        voted_yes[c][contractor], weighted_yes[c][contractor], voted_no[c][contractor], weighted_no[c][contractor],\n//        voted_yes[c][contractor] + voted_no[c][contractor], int(weighted_yes[c][contractor]) - int(weighted_no[c][contractor])\n//        );\n//    }\n\n\n\n    function getNumberOfVisitsAndJoinsAndForwarders(\n        address campaignAddress\n    )\n    public\n    view\n    returns (uint,uint,uint)\n    {\n        return (\n            PROXY_STORAGE_CONTRACT.getUint(keccak256(\"campaign2numberOfVisits\",campaignAddress)),\n            PROXY_STORAGE_CONTRACT.getUint(keccak256(\"campaign2numberOfJoins\",campaignAddress)),\n            PROXY_STORAGE_CONTRACT.getUint(keccak256(\"campaign2numberOfForwarders\", campaignAddress))\n        );\n    }\n\n    function getCampaignToReferrerToCounted(address campaign, address influencer) internal view returns (bool) {\n        return PROXY_STORAGE_CONTRACT.getBool(keccak256(\"campaignToReferrerToCounted\", campaign, influencer));\n    }\n\n    function setCampaignToReferrerToCounted(address campaign, address influencer) internal {\n        PROXY_STORAGE_CONTRACT.setBool(keccak256(\"campaignToReferrerToCounted\", campaign, influencer), true);\n    }\n\n    function getVisits(address campaign, address contractor, address old_address, address new_address) internal view returns (bool) {\n        return PROXY_STORAGE_CONTRACT.getBool(keccak256(\"visits\",campaign,contractor,old_address,new_address));\n    }\n\n    function setVisits(address campaign, address contractor, address old_address, address new_address) internal {\n        return PROXY_STORAGE_CONTRACT.setBool(keccak256(\"visits\",campaign,contractor,old_address,new_address), true);\n    }\n\n    function incrementNumberOfVisitsPerCampaign(address campaign) internal {\n        bytes32 key = keccak256(\"campaign2numberOfVisits\",campaign);\n        PROXY_STORAGE_CONTRACT.setUint(key, PROXY_STORAGE_CONTRACT.getUint(key) + 1);\n    }\n\n    function setVisitedFromTime(address campaign, address contractor, address new_address, address old_address) internal {\n        bytes32 keyHash = keccak256(\"visited_from_time\", campaign, contractor, new_address, old_address);\n        PROXY_STORAGE_CONTRACT.setUint(keyHash, block.timestamp);\n    }\n\n    function setVisitedSig(address _campaign, address _contractor, address _last_address, bytes _sig) internal {\n        bytes32 keyHash = keccak256(\"visited_sig\", _campaign, _contractor, _last_address);\n        PROXY_STORAGE_CONTRACT.setBytes(keyHash, _sig);\n    }\n\n    function getVisitedFrom(address c, address contractor, address _address) public view returns (address) {\n        bytes32 keyHash = keccak256(\"visited_from\", c, contractor, _address);\n        return ethereumOf(PROXY_STORAGE_CONTRACT.getAddress(keyHash));\n    }\n\n    function setVisitedFrom(address c, address contractor, address _oldAddress, address _newAddress) internal {\n        bytes32 keyHash = keccak256(\"visited_from\", c, contractor, _oldAddress);\n        PROXY_STORAGE_CONTRACT.setAddress(keyHash, _newAddress);\n    }\n\n    function setJoinedFrom(address _c, address _contractor, address _old_address, address _new_address) internal {\n        bytes32 keyHash = keccak256(\"joined_from\", _c, _contractor, _old_address);\n        PROXY_STORAGE_CONTRACT.setAddress(keyHash, _new_address);\n    }\n\n    function getJoinedFrom(address _c, address _contractor, address _address) public view returns (address) {\n        bytes32 keyHash = keccak256(\"joined_from\", _c, _contractor, _address);\n        return plasmaOf(PROXY_STORAGE_CONTRACT.getAddress(keyHash));\n    }\n\n    function getVisitsList(address _c, address _contractor, address _referrer) internal view returns (address[]) {\n        bytes32 keyHash = keccak256(\"visits_list\", _c, _contractor, _referrer);\n        return PROXY_STORAGE_CONTRACT.getAddressArray(keyHash);\n    }\n\n    function setVisitsList(address _c, address _contractor, address _referrer, address _visitor) internal {\n        address[] memory visitsList = getVisitsList(_c, _contractor, _referrer);\n        address[] memory newVisitsList = new address[](visitsList.length + 1);\n        for(uint i=0; i< visitsList.length; i++) {\n            newVisitsList[i] = visitsList[i];\n        }\n        newVisitsList[visitsList.length] = _visitor;\n\n        bytes32 keyHash = keccak256(\"visits_list\", _c, _contractor, _referrer);\n        PROXY_STORAGE_CONTRACT.setAddressArray(keyHash, newVisitsList);\n    }\n\n    function getVisitsListTimestamps(address _c, address _contractor, address _referrer) public view returns (uint[]) {\n        bytes32 keyHash = keccak256(\"visits_list_timestamps\", _c, _contractor, _referrer);\n        return PROXY_STORAGE_CONTRACT.getUintArray(keyHash);\n    }\n\n    function setVisitsListTimestamps(address _c, address _contractor, address _referrer) internal {\n        uint[] memory visitListTimestamps = getVisitsListTimestamps(_c, _contractor, _referrer);\n        uint[] memory newVisitListTimestamps = new uint[](visitListTimestamps.length + 1);\n        for(uint i=0; i< visitListTimestamps.length; i++) {\n            newVisitListTimestamps[i] = visitListTimestamps[i];\n        }\n        newVisitListTimestamps[visitListTimestamps.length] = block.timestamp;\n\n        bytes32 keyHash = keccak256(\"visits_list_timestamps\", _c, _contractor, _referrer);\n        PROXY_STORAGE_CONTRACT.setUintArray(keyHash, newVisitListTimestamps);\n    }\n\n    function emitPlasma2EthereumEvent(\n        address _plasma,\n        address _ethereum\n    )\n    public\n    onlyTwoKeyPlasmaRegistry\n    {\n\n        emit Plasma2Ethereum(_plasma, _ethereum);\n    }\n\n    function emitPlasma2HandleEvent(\n        address _plasma,\n        string _handle\n    )\n    public\n    onlyTwoKeyPlasmaRegistry\n    {\n        emit Plasma2Handle(_plasma, _handle);\n    }\n\n}\n",
  "sourcePath": "/Users/nikolamadjarevic/Desktop/2key/contracts/contracts/2key/singleton-contracts/TwoKeyPlasmaEvents.sol",
  "compiler": {
    "name": "solc",
    "version": "0.4.24+commit.e67f0147.Emscripten.clang"
  },
  "schemaVersion": "2.0.1",
  "updatedAt": "2019-11-07T08:15:06.370Z"
}