{
  "contractName": "TwoKeyPlasmaMaintainersRegistry",
  "abi": [
    {
      "constant": true,
      "inputs": [],
      "name": "PROXY_STORAGE_CONTRACT",
      "outputs": [
        {
          "name": "",
          "type": "address"
        }
      ],
      "payable": false,
      "stateMutability": "view",
      "type": "function"
    },
    {
      "constant": true,
      "inputs": [],
      "name": "implementation",
      "outputs": [
        {
          "name": "",
          "type": "address"
        }
      ],
      "payable": false,
      "stateMutability": "view",
      "type": "function"
    },
    {
      "constant": true,
      "inputs": [],
      "name": "TWO_KEY_PLASMA_SINGLETON_REGISTRY",
      "outputs": [
        {
          "name": "",
          "type": "address"
        }
      ],
      "payable": false,
      "stateMutability": "view",
      "type": "function"
    },
    {
      "constant": false,
      "inputs": [
        {
          "name": "sender",
          "type": "address"
        }
      ],
      "name": "initialize",
      "outputs": [],
      "payable": true,
      "stateMutability": "payable",
      "type": "function"
    },
    {
      "constant": false,
      "inputs": [
        {
          "name": "_twoKeySingletonRegistryPlasma",
          "type": "address"
        },
        {
          "name": "_proxyStorage",
          "type": "address"
        },
        {
          "name": "_maintainers",
          "type": "address[]"
        }
      ],
      "name": "setInitialParams",
      "outputs": [],
      "payable": false,
      "stateMutability": "nonpayable",
      "type": "function"
    },
    {
      "constant": true,
      "inputs": [
        {
          "name": "_sender",
          "type": "address"
        }
      ],
      "name": "onlyMaintainer",
      "outputs": [
        {
          "name": "",
          "type": "bool"
        }
      ],
      "payable": false,
      "stateMutability": "view",
      "type": "function"
    },
    {
      "constant": false,
      "inputs": [
        {
          "name": "_maintainers",
          "type": "address[]"
        }
      ],
      "name": "addMaintainers",
      "outputs": [],
      "payable": false,
      "stateMutability": "nonpayable",
      "type": "function"
    },
    {
      "constant": false,
      "inputs": [
        {
          "name": "_maintainers",
          "type": "address[]"
        }
      ],
      "name": "removeMaintainers",
      "outputs": [],
      "payable": false,
      "stateMutability": "nonpayable",
      "type": "function"
    },
    {
      "constant": true,
      "inputs": [],
      "name": "getAllMaintainers",
      "outputs": [
        {
          "name": "",
          "type": "address[]"
        }
      ],
      "payable": false,
      "stateMutability": "view",
      "type": "function"
    }
  ],
  "bytecode": "0x608060405234801561001057600080fd5b50610d5c806100206000396000f300608060405260043610610099576000357c0100000000000000000000000000000000000000000000000000000000900463ffffffff168063105005a11461009e5780631d4bf2c9146100f5578063428be84f1461015b5780635c60da1b146101c7578063705a483b1461021e578063b065d2c214610284578063c4d66de8146102db578063cd2a81dc14610311578063df0328a31461036c575b600080fd5b3480156100aa57600080fd5b506100b3610412565b604051808273ffffffffffffffffffffffffffffffffffffffff1673ffffffffffffffffffffffffffffffffffffffff16815260200191505060405180910390f35b34801561010157600080fd5b5061015960048036038101908080359060200190820180359060200190808060200260200160405190810160405280939291908181526020018383602002808284378201915050505050509192919290505050610438565b005b34801561016757600080fd5b50610170610499565b6040518080602001828103825283818151815260200191508051906020019060200280838360005b838110156101b3578082015181840152602081019050610198565b505050509050019250505060405180910390f35b3480156101d357600080fd5b506101dc6105ff565b604051808273ffffffffffffffffffffffffffffffffffffffff1673ffffffffffffffffffffffffffffffffffffffff16815260200191505060405180910390f35b34801561022a57600080fd5b5061028260048036038101908080359060200190820180359060200190808060200260200160405190810160405280939291908181526020018383602002808284378201915050505050509192919290505050610629565b005b34801561029057600080fd5b5061029961068a565b604051808273ffffffffffffffffffffffffffffffffffffffff1673ffffffffffffffffffffffffffffffffffffffff16815260200191505060405180910390f35b61030f600480360381019080803573ffffffffffffffffffffffffffffffffffffffff1690602001909291905050506106b0565b005b34801561031d57600080fd5b50610352600480360381019080803573ffffffffffffffffffffffffffffffffffffffff16906020019092919050505061070e565b604051808215151515815260200191505060405180910390f35b34801561037857600080fd5b50610410600480360381019080803573ffffffffffffffffffffffffffffffffffffffff169060200190929190803573ffffffffffffffffffffffffffffffffffffffff16906020019092919080359060200190820180359060200190808060200260200160405190810160405280939291908181526020018383602002808284378201915050505050509192919290505050610720565b005b600360009054906101000a900473ffffffffffffffffffffffffffffffffffffffff1681565b600080600115156104483361070e565b151514151561045657600080fd5b82519150600090505b8181101561049457610487838281518110151561047857fe5b90602001906020020151610958565b808060010191505061045f565b505050565b6060600360009054906101000a900473ffffffffffffffffffffffffffffffffffffffff1673ffffffffffffffffffffffffffffffffffffffff16635948f73360405180807f6d61696e7461696e657273000000000000000000000000000000000000000000815250600b01905060405180910390206040518263ffffffff167c0100000000000000000000000000000000000000000000000000000000028152600401808260001916600019168152602001915050600060405180830381600087803b15801561056957600080fd5b505af115801561057d573d6000803e3d6000fd5b505050506040513d6000823e3d601f19601f8201168201806040525060208110156105a757600080fd5b8101908080516401000000008111156105bf57600080fd5b828101905060208101848111156105d557600080fd5b81518560208202830111640100000000821117156105f257600080fd5b5050929190505050905090565b6000600160009054906101000a900473ffffffffffffffffffffffffffffffffffffffff16905090565b600080600115156106393361070e565b151514151561064757600080fd5b82519150600090505b8181101561068557610678838281518110151561066957fe5b90602001906020020151610a97565b8080600101915050610650565b505050565b600260009054906101000a900473ffffffffffffffffffffffffffffffffffffffff1681565b6000809054906101000a900473ffffffffffffffffffffffffffffffffffffffff1673ffffffffffffffffffffffffffffffffffffffff163373ffffffffffffffffffffffffffffffffffffffff1614151561070b57600080fd5b50565b600061071982610bd6565b9050919050565b6000801515600160149054906101000a900460ff16151514151561074357600080fd5b83600260006101000a81548173ffffffffffffffffffffffffffffffffffffffff021916908373ffffffffffffffffffffffffffffffffffffffff16021790555082600360006101000a81548173ffffffffffffffffffffffffffffffffffffffff021916908373ffffffffffffffffffffffffffffffffffffffff160217905550600360009054906101000a900473ffffffffffffffffffffffffffffffffffffffff1673ffffffffffffffffffffffffffffffffffffffff1663ec672cf660405180807f6d61696e7461696e657273000000000000000000000000000000000000000000815250600b0190506040518091039020846040518363ffffffff167c010000000000000000000000000000000000000000000000000000000002815260040180836000191660001916815260200180602001828103825283818151815260200191508051906020019060200280838360005b838110156108b657808201518184015260208101905061089b565b505050509050019350505050600060405180830381600087803b1580156108dc57600080fd5b505af11580156108f0573d6000803e3d6000fd5b505050506108fd33610958565b600090505b81518110156109385761092b828281518110151561091c57fe5b90602001906020020151610958565b8080600101915050610902565b60018060146101000a81548160ff02191690831515021790555050505050565b60008160405180807f69734d61696e7461696e65720000000000000000000000000000000000000000815250600c018273ffffffffffffffffffffffffffffffffffffffff1673ffffffffffffffffffffffffffffffffffffffff166c0100000000000000000000000002815260140191505060405180910390209050600360009054906101000a900473ffffffffffffffffffffffffffffffffffffffff1673ffffffffffffffffffffffffffffffffffffffff1663abfdcced8260016040518363ffffffff167c01000000000000000000000000000000000000000000000000000000000281526004018083600019166000191681526020018215151515815260200192505050600060405180830381600087803b158015610a7b57600080fd5b505af1158015610a8f573d6000803e3d6000fd5b505050505050565b60008160405180807f69734d61696e7461696e65720000000000000000000000000000000000000000815250600c018273ffffffffffffffffffffffffffffffffffffffff1673ffffffffffffffffffffffffffffffffffffffff166c0100000000000000000000000002815260140191505060405180910390209050600360009054906101000a900473ffffffffffffffffffffffffffffffffffffffff1673ffffffffffffffffffffffffffffffffffffffff1663abfdcced8260006040518363ffffffff167c01000000000000000000000000000000000000000000000000000000000281526004018083600019166000191681526020018215151515815260200192505050600060405180830381600087803b158015610bba57600080fd5b505af1158015610bce573d6000803e3d6000fd5b505050505050565b6000808260405180807f69734d61696e7461696e65720000000000000000000000000000000000000000815250600c018273ffffffffffffffffffffffffffffffffffffffff1673ffffffffffffffffffffffffffffffffffffffff166c0100000000000000000000000002815260140191505060405180910390209050600360009054906101000a900473ffffffffffffffffffffffffffffffffffffffff1673ffffffffffffffffffffffffffffffffffffffff16637ae1cfca826040518263ffffffff167c0100000000000000000000000000000000000000000000000000000000028152600401808260001916600019168152602001915050602060405180830381600087803b158015610ced57600080fd5b505af1158015610d01573d6000803e3d6000fd5b505050506040513d6020811015610d1757600080fd5b81019080805190602001909291905050509150509190505600a165627a7a72305820cbee1f3dc09dd6e29fbbb518bb003cd2dee334237940abf1a9789e477416e59d0029",
  "source": "pragma solidity ^0.4.24;\n\nimport \"../interfaces/storage-contracts/ITwoKeyPlasmaMaintainersRegistryStorage.sol\";\nimport \"../upgradability/Upgradeable.sol\";\n\ncontract TwoKeyPlasmaMaintainersRegistry is Upgradeable {\n    bool initialized;\n\n    address public TWO_KEY_PLASMA_SINGLETON_REGISTRY;\n\n    ITwoKeyPlasmaMaintainersRegistryStorage public PROXY_STORAGE_CONTRACT;\n\n\n    function setInitialParams(\n        address _twoKeySingletonRegistryPlasma,\n        address _proxyStorage,\n        address[] _maintainers\n    )\n    public\n    {\n        require(initialized == false);\n\n        TWO_KEY_PLASMA_SINGLETON_REGISTRY = _twoKeySingletonRegistryPlasma;\n\n        PROXY_STORAGE_CONTRACT = ITwoKeyPlasmaMaintainersRegistryStorage(_proxyStorage);\n\n        PROXY_STORAGE_CONTRACT.setAddressArray(keccak256(\"maintainers\"), _maintainers);\n\n        //Set deployer to be also a maintainer\n        addMaintainer(msg.sender);\n\n        for(uint i=0; i<_maintainers.length; i++) {\n            addMaintainer(_maintainers[i]);\n        }\n\n        initialized = true;\n    }\n\n    function onlyMaintainer(address _sender) public view returns (bool) {\n        return isMaintainer(_sender);\n    }\n\n    /**\n     * @notice Function which can add new maintainers, in general it's array because this supports adding multiple addresses in 1 trnx\n     * @dev only twoKeyAdmin contract is eligible to mutate state of maintainers\n     * @param _maintainers is the array of maintainer addresses\n     */\n    function addMaintainers(\n        address [] _maintainers\n    )\n    public\n    {\n        require(onlyMaintainer(msg.sender) == true);\n        //If state variable, .balance, or .length is used several times, holding its value in a local variable is more gas efficient.\n        uint numberOfMaintainers = _maintainers.length;\n        for(uint i=0; i<numberOfMaintainers; i++) {\n            addMaintainer(_maintainers[i]);\n        }\n    }\n\n    /**\n     * @notice Function which can remove some maintainers, in general it's array because this supports adding multiple addresses in 1 trnx\n     * @dev only twoKeyAdmin contract is eligible to mutate state of maintainers\n     * @param _maintainers is the array of maintainer addresses\n     */\n    function removeMaintainers(\n        address [] _maintainers\n    )\n    public\n    {\n        require(onlyMaintainer(msg.sender) == true);\n        //If state variable, .balance, or .length is used several times, holding its value in a local variable is more gas efficient.\n        uint numberOfMaintainers = _maintainers.length;\n        for(uint i=0; i<numberOfMaintainers; i++) {\n            removeMaintainer(_maintainers[i]);\n        }\n    }\n\n    function getAllMaintainers()\n    public\n    view\n    returns (address[])\n    {\n        return PROXY_STORAGE_CONTRACT.getAddressArray(keccak256(\"maintainers\"));\n    }\n\n\n    function isMaintainer(\n        address _address\n    )\n    internal\n    view\n    returns (bool)\n    {\n        bytes32 keyHash = keccak256(\"isMaintainer\", _address);\n        return PROXY_STORAGE_CONTRACT.getBool(keyHash);\n    }\n\n    function addMaintainer(\n        address _maintainer\n    )\n    internal\n    {\n        bytes32 keyHash = keccak256(\"isMaintainer\", _maintainer);\n        PROXY_STORAGE_CONTRACT.setBool(keyHash, true);\n    }\n\n    function removeMaintainer(\n        address _maintainer\n    )\n    internal\n    {\n        bytes32 keyHash = keccak256(\"isMaintainer\", _maintainer);\n        PROXY_STORAGE_CONTRACT.setBool(keyHash, false);\n    }\n}\n",
  "sourcePath": "/Users/nikolamadjarevic/Desktop/2key/contracts/contracts/2key/singleton-contracts/TwoKeyPlasmaMaintainersRegistry.sol",
  "compiler": {
    "name": "solc",
    "version": "0.4.24+commit.e67f0147.Emscripten.clang"
  },
  "schemaVersion": "2.0.1",
  "updatedAt": "2019-11-07T08:15:06.207Z"
}