{
  "contractName": "TwoKeyEventSource",
  "abi": [
    {
      "constant": true,
      "inputs": [],
      "name": "PROXY_STORAGE_CONTRACT",
      "outputs": [
        {
          "name": "",
          "type": "address"
        }
      ],
      "payable": false,
      "stateMutability": "view",
      "type": "function"
    },
    {
      "constant": true,
      "inputs": [],
      "name": "implementation",
      "outputs": [
        {
          "name": "",
          "type": "address"
        }
      ],
      "payable": false,
      "stateMutability": "view",
      "type": "function"
    },
    {
      "constant": true,
      "inputs": [],
      "name": "TWO_KEY_SINGLETON_REGISTRY",
      "outputs": [
        {
          "name": "",
          "type": "address"
        }
      ],
      "payable": false,
      "stateMutability": "view",
      "type": "function"
    },
    {
      "constant": true,
      "inputs": [
        {
          "name": "_address",
          "type": "address"
        }
      ],
      "name": "getterChecker",
      "outputs": [
        {
          "name": "",
          "type": "bool"
        }
      ],
      "payable": false,
      "stateMutability": "view",
      "type": "function"
    },
    {
      "constant": false,
      "inputs": [
        {
          "name": "sender",
          "type": "address"
        }
      ],
      "name": "initialize",
      "outputs": [],
      "payable": true,
      "stateMutability": "payable",
      "type": "function"
    },
    {
      "anonymous": false,
      "inputs": [
        {
          "indexed": false,
          "name": "_campaign",
          "type": "address"
        },
        {
          "indexed": false,
          "name": "_owner",
          "type": "address"
        },
        {
          "indexed": false,
          "name": "_moderator",
          "type": "address"
        }
      ],
      "name": "Created",
      "type": "event"
    },
    {
      "anonymous": false,
      "inputs": [
        {
          "indexed": false,
          "name": "_campaign",
          "type": "address"
        },
        {
          "indexed": false,
          "name": "_from",
          "type": "address"
        },
        {
          "indexed": false,
          "name": "_to",
          "type": "address"
        }
      ],
      "name": "Joined",
      "type": "event"
    },
    {
      "anonymous": false,
      "inputs": [
        {
          "indexed": false,
          "name": "_campaign",
          "type": "address"
        },
        {
          "indexed": false,
          "name": "_converter",
          "type": "address"
        },
        {
          "indexed": false,
          "name": "_amount",
          "type": "uint256"
        }
      ],
      "name": "Converted",
      "type": "event"
    },
    {
      "anonymous": false,
      "inputs": [
        {
          "indexed": false,
          "name": "_campaign",
          "type": "address"
        },
        {
          "indexed": false,
          "name": "_converter",
          "type": "address"
        },
        {
          "indexed": false,
          "name": "_baseTokens",
          "type": "uint256"
        },
        {
          "indexed": false,
          "name": "_bonusTokens",
          "type": "uint256"
        },
        {
          "indexed": false,
          "name": "_conversionAmount",
          "type": "uint256"
        },
        {
          "indexed": false,
          "name": "_isFiatConversion",
          "type": "bool"
        }
      ],
      "name": "ConvertedAcquisition",
      "type": "event"
    },
    {
      "anonymous": false,
      "inputs": [
        {
          "indexed": false,
          "name": "_campaign",
          "type": "address"
        },
        {
          "indexed": false,
          "name": "_converterPlasma",
          "type": "address"
        },
        {
          "indexed": false,
          "name": "_baseTokens",
          "type": "uint256"
        },
        {
          "indexed": false,
          "name": "_bonusTokens",
          "type": "uint256"
        },
        {
          "indexed": false,
          "name": "_conversionAmount",
          "type": "uint256"
        },
        {
          "indexed": false,
          "name": "_isFiatConversion",
          "type": "bool"
        },
        {
          "indexed": false,
          "name": "_conversionId",
          "type": "uint256"
        }
      ],
      "name": "ConvertedAcquisitionV2",
      "type": "event"
    },
    {
      "anonymous": false,
      "inputs": [
        {
          "indexed": false,
          "name": "_campaign",
          "type": "address"
        },
        {
          "indexed": false,
          "name": "_converter",
          "type": "address"
        },
        {
          "indexed": false,
          "name": "_conversionAmount",
          "type": "uint256"
        }
      ],
      "name": "ConvertedDonation",
      "type": "event"
    },
    {
      "anonymous": false,
      "inputs": [
        {
          "indexed": false,
          "name": "_campaign",
          "type": "address"
        },
        {
          "indexed": false,
          "name": "_converterPlasma",
          "type": "address"
        },
        {
          "indexed": false,
          "name": "_conversionAmount",
          "type": "uint256"
        },
        {
          "indexed": false,
          "name": "_conversionId",
          "type": "uint256"
        }
      ],
      "name": "ConvertedDonationV2",
      "type": "event"
    },
    {
      "anonymous": false,
      "inputs": [
        {
          "indexed": false,
          "name": "_campaign",
          "type": "address"
        },
        {
          "indexed": false,
          "name": "_to",
          "type": "address"
        },
        {
          "indexed": false,
          "name": "_amount",
          "type": "uint256"
        }
      ],
      "name": "Rewarded",
      "type": "event"
    },
    {
      "anonymous": false,
      "inputs": [
        {
          "indexed": false,
          "name": "_campaign",
          "type": "address"
        },
        {
          "indexed": false,
          "name": "_converter",
          "type": "address"
        },
        {
          "indexed": false,
          "name": "_indexOrAmount",
          "type": "uint256"
        }
      ],
      "name": "Cancelled",
      "type": "event"
    },
    {
      "anonymous": false,
      "inputs": [
        {
          "indexed": false,
          "name": "_campaign",
          "type": "address"
        },
        {
          "indexed": false,
          "name": "_converter",
          "type": "address"
        }
      ],
      "name": "Rejected",
      "type": "event"
    },
    {
      "anonymous": false,
      "inputs": [
        {
          "indexed": false,
          "name": "timestamp",
          "type": "uint256"
        },
        {
          "indexed": false,
          "name": "value",
          "type": "string"
        }
      ],
      "name": "UpdatedPublicMetaHash",
      "type": "event"
    },
    {
      "anonymous": false,
      "inputs": [
        {
          "indexed": false,
          "name": "timestamp",
          "type": "uint256"
        },
        {
          "indexed": false,
          "name": "value",
          "type": "uint256"
        },
        {
          "indexed": false,
          "name": "action",
          "type": "string"
        }
      ],
      "name": "UpdatedData",
      "type": "event"
    },
    {
      "anonymous": false,
      "inputs": [
        {
          "indexed": false,
          "name": "_sender",
          "type": "address"
        },
        {
          "indexed": false,
          "name": "value",
          "type": "uint256"
        }
      ],
      "name": "ReceivedEther",
      "type": "event"
    },
    {
      "anonymous": false,
      "inputs": [
        {
          "indexed": false,
          "name": "proxyLogicHandler",
          "type": "address"
        },
        {
          "indexed": false,
          "name": "proxyConversionHandler",
          "type": "address"
        },
        {
          "indexed": false,
          "name": "proxyAcquisitionCampaign",
          "type": "address"
        },
        {
          "indexed": false,
          "name": "proxyPurchasesHandler",
          "type": "address"
        },
        {
          "indexed": false,
          "name": "contractor",
          "type": "address"
        }
      ],
      "name": "AcquisitionCampaignCreated",
      "type": "event"
    },
    {
      "anonymous": false,
      "inputs": [
        {
          "indexed": false,
          "name": "proxyDonationCampaign",
          "type": "address"
        },
        {
          "indexed": false,
          "name": "proxyDonationConversionHandler",
          "type": "address"
        },
        {
          "indexed": false,
          "name": "proxyDonationLogicHandler",
          "type": "address"
        },
        {
          "indexed": false,
          "name": "contractor",
          "type": "address"
        }
      ],
      "name": "DonationCampaignCreated",
      "type": "event"
    },
    {
      "anonymous": false,
      "inputs": [
        {
          "indexed": false,
          "name": "_currency",
          "type": "bytes32"
        },
        {
          "indexed": false,
          "name": "newRate",
          "type": "uint256"
        },
        {
          "indexed": false,
          "name": "_timestamp",
          "type": "uint256"
        },
        {
          "indexed": false,
          "name": "_updater",
          "type": "address"
        }
      ],
      "name": "PriceUpdated",
      "type": "event"
    },
    {
      "anonymous": false,
      "inputs": [
        {
          "indexed": false,
          "name": "_name",
          "type": "string"
        },
        {
          "indexed": false,
          "name": "_address",
          "type": "address"
        },
        {
          "indexed": false,
          "name": "_fullName",
          "type": "string"
        },
        {
          "indexed": false,
          "name": "_email",
          "type": "string"
        },
        {
          "indexed": false,
          "name": "_username_walletName",
          "type": "string"
        }
      ],
      "name": "UserRegistered",
      "type": "event"
    },
    {
      "anonymous": false,
      "inputs": [
        {
          "indexed": false,
          "name": "campaignAddress",
          "type": "address"
        },
        {
          "indexed": false,
          "name": "converterPlasmaAddress",
          "type": "address"
        },
        {
          "indexed": false,
          "name": "conversionId",
          "type": "uint256"
        }
      ],
      "name": "Executed",
      "type": "event"
    },
    {
      "anonymous": false,
      "inputs": [
        {
          "indexed": false,
          "name": "campaignAddress",
          "type": "address"
        },
        {
          "indexed": false,
          "name": "converterPlasmaAddress",
          "type": "address"
        },
        {
          "indexed": false,
          "name": "conversionId",
          "type": "uint256"
        },
        {
          "indexed": false,
          "name": "tokens",
          "type": "uint256"
        }
      ],
      "name": "ExecutedV1",
      "type": "event"
    },
    {
      "constant": false,
      "inputs": [
        {
          "name": "_twoKeySingletonesRegistry",
          "type": "address"
        },
        {
          "name": "_proxyStorage",
          "type": "address"
        }
      ],
      "name": "setInitialParams",
      "outputs": [],
      "payable": false,
      "stateMutability": "nonpayable",
      "type": "function"
    },
    {
      "constant": false,
      "inputs": [
        {
          "name": "_campaign",
          "type": "address"
        },
        {
          "name": "_owner",
          "type": "address"
        },
        {
          "name": "_moderator",
          "type": "address"
        }
      ],
      "name": "created",
      "outputs": [],
      "payable": false,
      "stateMutability": "nonpayable",
      "type": "function"
    },
    {
      "constant": false,
      "inputs": [
        {
          "name": "_campaign",
          "type": "address"
        },
        {
          "name": "_from",
          "type": "address"
        },
        {
          "name": "_to",
          "type": "address"
        }
      ],
      "name": "joined",
      "outputs": [],
      "payable": false,
      "stateMutability": "nonpayable",
      "type": "function"
    },
    {
      "constant": false,
      "inputs": [
        {
          "name": "_campaign",
          "type": "address"
        },
        {
          "name": "_converter",
          "type": "address"
        },
        {
          "name": "_conversionAmount",
          "type": "uint256"
        }
      ],
      "name": "converted",
      "outputs": [],
      "payable": false,
      "stateMutability": "nonpayable",
      "type": "function"
    },
    {
      "constant": false,
      "inputs": [
        {
          "name": "_campaign",
          "type": "address"
        },
        {
          "name": "_converter",
          "type": "address"
        }
      ],
      "name": "rejected",
      "outputs": [],
      "payable": false,
      "stateMutability": "nonpayable",
      "type": "function"
    },
    {
      "constant": false,
      "inputs": [
        {
          "name": "_campaignAddress",
          "type": "address"
        },
        {
          "name": "_converterPlasmaAddress",
          "type": "address"
        },
        {
          "name": "_conversionId",
          "type": "uint256"
        }
      ],
      "name": "executed",
      "outputs": [],
      "payable": false,
      "stateMutability": "nonpayable",
      "type": "function"
    },
    {
      "constant": false,
      "inputs": [
        {
          "name": "_campaignAddress",
          "type": "address"
        },
        {
          "name": "_converterPlasmaAddress",
          "type": "address"
        },
        {
          "name": "_conversionId",
          "type": "uint256"
        },
        {
          "name": "tokens",
          "type": "uint256"
        }
      ],
      "name": "executedV1",
      "outputs": [],
      "payable": false,
      "stateMutability": "nonpayable",
      "type": "function"
    },
    {
      "constant": false,
      "inputs": [
        {
          "name": "_campaign",
          "type": "address"
        },
        {
          "name": "_converter",
          "type": "address"
        },
        {
          "name": "_baseTokens",
          "type": "uint256"
        },
        {
          "name": "_bonusTokens",
          "type": "uint256"
        },
        {
          "name": "_conversionAmount",
          "type": "uint256"
        },
        {
          "name": "_isFiatConversion",
          "type": "bool"
        }
      ],
      "name": "convertedAcquisition",
      "outputs": [],
      "payable": false,
      "stateMutability": "nonpayable",
      "type": "function"
    },
    {
      "constant": false,
      "inputs": [
        {
          "name": "_campaign",
          "type": "address"
        },
        {
          "name": "_converterPlasma",
          "type": "address"
        },
        {
          "name": "_baseTokens",
          "type": "uint256"
        },
        {
          "name": "_bonusTokens",
          "type": "uint256"
        },
        {
          "name": "_conversionAmount",
          "type": "uint256"
        },
        {
          "name": "_isFiatConversion",
          "type": "bool"
        },
        {
          "name": "_conversionId",
          "type": "uint256"
        }
      ],
      "name": "convertedAcquisitionV2",
      "outputs": [],
      "payable": false,
      "stateMutability": "nonpayable",
      "type": "function"
    },
    {
      "constant": false,
      "inputs": [
        {
          "name": "_campaign",
          "type": "address"
        },
        {
          "name": "_converter",
          "type": "address"
        },
        {
          "name": "_conversionAmount",
          "type": "uint256"
        }
      ],
      "name": "convertedDonation",
      "outputs": [],
      "payable": false,
      "stateMutability": "nonpayable",
      "type": "function"
    },
    {
      "constant": false,
      "inputs": [
        {
          "name": "_campaign",
          "type": "address"
        },
        {
          "name": "_converterPlasma",
          "type": "address"
        },
        {
          "name": "_conversionAmount",
          "type": "uint256"
        },
        {
          "name": "_conversionId",
          "type": "uint256"
        }
      ],
      "name": "convertedDonationV2",
      "outputs": [],
      "payable": false,
      "stateMutability": "nonpayable",
      "type": "function"
    },
    {
      "constant": false,
      "inputs": [
        {
          "name": "_campaign",
          "type": "address"
        },
        {
          "name": "_to",
          "type": "address"
        },
        {
          "name": "_amount",
          "type": "uint256"
        }
      ],
      "name": "rewarded",
      "outputs": [],
      "payable": false,
      "stateMutability": "nonpayable",
      "type": "function"
    },
    {
      "constant": false,
      "inputs": [
        {
          "name": "_campaign",
          "type": "address"
        },
        {
          "name": "_converter",
          "type": "address"
        },
        {
          "name": "_indexOrAmount",
          "type": "uint256"
        }
      ],
      "name": "cancelled",
      "outputs": [],
      "payable": false,
      "stateMutability": "nonpayable",
      "type": "function"
    },
    {
      "constant": false,
      "inputs": [
        {
          "name": "proxyLogicHandler",
          "type": "address"
        },
        {
          "name": "proxyConversionHandler",
          "type": "address"
        },
        {
          "name": "proxyAcquisitionCampaign",
          "type": "address"
        },
        {
          "name": "proxyPurchasesHandler",
          "type": "address"
        },
        {
          "name": "contractor",
          "type": "address"
        }
      ],
      "name": "acquisitionCampaignCreated",
      "outputs": [],
      "payable": false,
      "stateMutability": "nonpayable",
      "type": "function"
    },
    {
      "constant": false,
      "inputs": [
        {
          "name": "proxyDonationCampaign",
          "type": "address"
        },
        {
          "name": "proxyDonationConversionHandler",
          "type": "address"
        },
        {
          "name": "proxyDonationLogicHandler",
          "type": "address"
        },
        {
          "name": "contractor",
          "type": "address"
        }
      ],
      "name": "donationCampaignCreated",
      "outputs": [],
      "payable": false,
      "stateMutability": "nonpayable",
      "type": "function"
    },
    {
      "constant": false,
      "inputs": [
        {
          "name": "_currency",
          "type": "bytes32"
        },
        {
          "name": "_newRate",
          "type": "uint256"
        },
        {
          "name": "_timestamp",
          "type": "uint256"
        },
        {
          "name": "_updater",
          "type": "address"
        }
      ],
      "name": "priceUpdated",
      "outputs": [],
      "payable": false,
      "stateMutability": "nonpayable",
      "type": "function"
    },
    {
      "constant": false,
      "inputs": [
        {
          "name": "_name",
          "type": "string"
        },
        {
          "name": "_address",
          "type": "address"
        },
        {
          "name": "_fullName",
          "type": "string"
        },
        {
          "name": "_email",
          "type": "string"
        },
        {
          "name": "_username_walletName",
          "type": "string"
        }
      ],
      "name": "userRegistered",
      "outputs": [],
      "payable": false,
      "stateMutability": "nonpayable",
      "type": "function"
    },
    {
      "constant": true,
      "inputs": [
        {
          "name": "me",
          "type": "address"
        }
      ],
      "name": "plasmaOf",
      "outputs": [
        {
          "name": "",
          "type": "address"
        }
      ],
      "payable": false,
      "stateMutability": "view",
      "type": "function"
    },
    {
      "constant": true,
      "inputs": [
        {
          "name": "me",
          "type": "address"
        }
      ],
      "name": "ethereumOf",
      "outputs": [
        {
          "name": "",
          "type": "address"
        }
      ],
      "payable": false,
      "stateMutability": "view",
      "type": "function"
    },
    {
      "constant": true,
      "inputs": [
        {
          "name": "_maintainer",
          "type": "address"
        }
      ],
      "name": "isAddressMaintainer",
      "outputs": [
        {
          "name": "",
          "type": "bool"
        }
      ],
      "payable": false,
      "stateMutability": "view",
      "type": "function"
    },
    {
      "constant": true,
      "inputs": [],
      "name": "getTwoKeyDefaultIntegratorFeeFromAdmin",
      "outputs": [
        {
          "name": "",
          "type": "uint256"
        }
      ],
      "payable": false,
      "stateMutability": "view",
      "type": "function"
    },
    {
      "constant": true,
      "inputs": [],
      "name": "getTwoKeyDefaultNetworkTaxPercent",
      "outputs": [
        {
          "name": "",
          "type": "uint256"
        }
      ],
      "payable": false,
      "stateMutability": "view",
      "type": "function"
    }
  ],
  "bytecode": "0x608060405234801561001057600080fd5b506131f7806100206000396000f30060806040526004361061015f576000357c0100000000000000000000000000000000000000000000000000000000900463ffffffff16806301807f021461016457806305dbe412146101d1578063102a8e7014610234578063105005a1146102b757806315ff0b971461030e57806319de36401461037b5780631a025f25146103f25780632254a1b71461047557806328bb4730146104f85780633092eb2f1461059b57806340f59c211461065e5780635211fb00146106b95780635c60da1b146106e45780635d680c9c1461073b5780637c15a141146107665780637dba4eb9146107d357806380520435146108605780638830afa0146108f75780638af1cbb91461094e578063a9bd8945146109d1578063af5985c314610a2c578063bd6cd0d114610acf578063c4d66de814610b3c578063c9404dd914610b72578063d209703714610bdf578063f45bbc0514610c42578063f8809a9514610cb9575b600080fd5b34801561017057600080fd5b506101cf600480360381019080803573ffffffffffffffffffffffffffffffffffffffff169060200190929190803573ffffffffffffffffffffffffffffffffffffffff16906020019092919080359060200190929190505050610d1e565b005b3480156101dd57600080fd5b50610232600480360381019080803573ffffffffffffffffffffffffffffffffffffffff169060200190929190803573ffffffffffffffffffffffffffffffffffffffff169060200190929190505050610eed565b005b34801561024057600080fd5b50610275600480360381019080803573ffffffffffffffffffffffffffffffffffffffff169060200190929190505050610fb0565b604051808273ffffffffffffffffffffffffffffffffffffffff1673ffffffffffffffffffffffffffffffffffffffff16815260200191505060405180910390f35b3480156102c357600080fd5b506102cc611116565b604051808273ffffffffffffffffffffffffffffffffffffffff1673ffffffffffffffffffffffffffffffffffffffff16815260200191505060405180910390f35b34801561031a57600080fd5b50610379600480360381019080803573ffffffffffffffffffffffffffffffffffffffff169060200190929190803573ffffffffffffffffffffffffffffffffffffffff1690602001909291908035906020019092919050505061113c565b005b34801561038757600080fd5b506103f0600480360381019080803573ffffffffffffffffffffffffffffffffffffffff169060200190929190803573ffffffffffffffffffffffffffffffffffffffff169060200190929190803590602001909291908035906020019092919050505061130b565b005b3480156103fe57600080fd5b50610433600480360381019080803573ffffffffffffffffffffffffffffffffffffffff1690602001909291905050506114e3565b604051808273ffffffffffffffffffffffffffffffffffffffff1673ffffffffffffffffffffffffffffffffffffffff16815260200191505060405180910390f35b34801561048157600080fd5b506104f6600480360381019080803573ffffffffffffffffffffffffffffffffffffffff169060200190929190803573ffffffffffffffffffffffffffffffffffffffff169060200190929190803573ffffffffffffffffffffffffffffffffffffffff169060200190929190505050611649565b005b34801561050457600080fd5b50610599600480360381019080803573ffffffffffffffffffffffffffffffffffffffff169060200190929190803573ffffffffffffffffffffffffffffffffffffffff169060200190929190803573ffffffffffffffffffffffffffffffffffffffff169060200190929190803573ffffffffffffffffffffffffffffffffffffffff169060200190929190505050611796565b005b3480156105a757600080fd5b5061065c600480360381019080803573ffffffffffffffffffffffffffffffffffffffff169060200190929190803573ffffffffffffffffffffffffffffffffffffffff169060200190929190803573ffffffffffffffffffffffffffffffffffffffff169060200190929190803573ffffffffffffffffffffffffffffffffffffffff169060200190929190803573ffffffffffffffffffffffffffffffffffffffff169060200190929190505050611912565b005b34801561066a57600080fd5b5061069f600480360381019080803573ffffffffffffffffffffffffffffffffffffffff169060200190929190505050611ac3565b604051808215151515815260200191505060405180910390f35b3480156106c557600080fd5b506106ce611bea565b6040518082815260200191505060405180910390f35b3480156106f057600080fd5b506106f9611cd8565b604051808273ffffffffffffffffffffffffffffffffffffffff1673ffffffffffffffffffffffffffffffffffffffff16815260200191505060405180910390f35b34801561074757600080fd5b50610750611d02565b6040518082815260200191505060405180910390f35b34801561077257600080fd5b506107d1600480360381019080803573ffffffffffffffffffffffffffffffffffffffff169060200190929190803573ffffffffffffffffffffffffffffffffffffffff16906020019092919080359060200190929190505050611df0565b005b3480156107df57600080fd5b5061085e600480360381019080803573ffffffffffffffffffffffffffffffffffffffff169060200190929190803573ffffffffffffffffffffffffffffffffffffffff169060200190929190803590602001909291908035906020019092919080359060200190929190803515159060200190929190505050611fbf565b005b34801561086c57600080fd5b506108f5600480360381019080803573ffffffffffffffffffffffffffffffffffffffff169060200190929190803573ffffffffffffffffffffffffffffffffffffffff169060200190929190803590602001909291908035906020019092919080359060200190929190803515159060200190929190803590602001909291905050506121ad565b005b34801561090357600080fd5b5061090c6123a4565b604051808273ffffffffffffffffffffffffffffffffffffffff1673ffffffffffffffffffffffffffffffffffffffff16815260200191505060405180910390f35b34801561095a57600080fd5b506109cf600480360381019080803573ffffffffffffffffffffffffffffffffffffffff169060200190929190803573ffffffffffffffffffffffffffffffffffffffff169060200190929190803573ffffffffffffffffffffffffffffffffffffffff1690602001909291905050506123ca565b005b3480156109dd57600080fd5b50610a12600480360381019080803573ffffffffffffffffffffffffffffffffffffffff1690602001909291905050506125c5565b604051808215151515815260200191505060405180910390f35b348015610a3857600080fd5b50610acd600480360381019080803590602001908201803590602001919091929391929390803573ffffffffffffffffffffffffffffffffffffffff1690602001909291908035906020019082018035906020019190919293919293908035906020019082018035906020019190919293919293908035906020019082018035906020019190919293919293905050506126e6565b005b348015610adb57600080fd5b50610b3a600480360381019080803573ffffffffffffffffffffffffffffffffffffffff169060200190929190803573ffffffffffffffffffffffffffffffffffffffff169060200190929190803590602001909291905050506127f7565b005b610b70600480360381019080803573ffffffffffffffffffffffffffffffffffffffff1690602001909291905050506129c6565b005b348015610b7e57600080fd5b50610bdd600480360381019080803573ffffffffffffffffffffffffffffffffffffffff169060200190929190803573ffffffffffffffffffffffffffffffffffffffff16906020019092919080359060200190929190505050612a24565b005b348015610beb57600080fd5b50610c40600480360381019080803573ffffffffffffffffffffffffffffffffffffffff169060200190929190803573ffffffffffffffffffffffffffffffffffffffff169060200190929190505050612bf3565b005b348015610c4e57600080fd5b50610cb7600480360381019080803573ffffffffffffffffffffffffffffffffffffffff169060200190929190803573ffffffffffffffffffffffffffffffffffffffff1690602001909291908035906020019092919080359060200190929190505050612db9565b005b348015610cc557600080fd5b50610d1c60048036038101908080356000191690602001909291908035906020019092919080359060200190929190803573ffffffffffffffffffffffffffffffffffffffff169060200190929190505050612f91565b005b6000610d5e6040805190810160405280601781526020017f54776f4b657943616d706169676e56616c696461746f72000000000000000000815250613091565b9050600115158173ffffffffffffffffffffffffffffffffffffffff166371c6a34f336040518263ffffffff167c0100000000000000000000000000000000000000000000000000000000028152600401808273ffffffffffffffffffffffffffffffffffffffff1673ffffffffffffffffffffffffffffffffffffffff168152602001915050602060405180830381600087803b158015610dff57600080fd5b505af1158015610e13573d6000803e3d6000fd5b505050506040513d6020811015610e2957600080fd5b81019080805190602001909291905050501515141515610e4857600080fd5b7ff31c54e12bd5cb0ca8f0e668e61d5643a09b0c8f4ad37de794f7b863818fed12848484604051808473ffffffffffffffffffffffffffffffffffffffff1673ffffffffffffffffffffffffffffffffffffffff1681526020018373ffffffffffffffffffffffffffffffffffffffff1673ffffffffffffffffffffffffffffffffffffffff168152602001828152602001935050505060405180910390a150505050565b60001515600260149054906101000a900460ff161515141515610f0f57600080fd5b81600260006101000a81548173ffffffffffffffffffffffffffffffffffffffff021916908373ffffffffffffffffffffffffffffffffffffffff16021790555080600360006101000a81548173ffffffffffffffffffffffffffffffffffffffff021916908373ffffffffffffffffffffffffffffffffffffffff1602179055506001600260146101000a81548160ff0219169083151502179055505050565b6000806000610ff36040805190810160405280600e81526020017f54776f4b65795265676973747279000000000000000000000000000000000000815250613091565b91508173ffffffffffffffffffffffffffffffffffffffff1663b8397065856040518263ffffffff167c0100000000000000000000000000000000000000000000000000000000028152600401808273ffffffffffffffffffffffffffffffffffffffff1673ffffffffffffffffffffffffffffffffffffffff168152602001915050602060405180830381600087803b15801561109057600080fd5b505af11580156110a4573d6000803e3d6000fd5b505050506040513d60208110156110ba57600080fd5b81019080805190602001909291905050509050600073ffffffffffffffffffffffffffffffffffffffff168173ffffffffffffffffffffffffffffffffffffffff1614151561110b5780925061110f565b8392505b5050919050565b600360009054906101000a900473ffffffffffffffffffffffffffffffffffffffff1681565b600061117c6040805190810160405280601781526020017f54776f4b657943616d706169676e56616c696461746f72000000000000000000815250613091565b9050600115158173ffffffffffffffffffffffffffffffffffffffff166371c6a34f336040518263ffffffff167c0100000000000000000000000000000000000000000000000000000000028152600401808273ffffffffffffffffffffffffffffffffffffffff1673ffffffffffffffffffffffffffffffffffffffff168152602001915050602060405180830381600087803b15801561121d57600080fd5b505af1158015611231573d6000803e3d6000fd5b505050506040513d602081101561124757600080fd5b8101908080519060200190929190505050151514151561126657600080fd5b7f906a93b9c694feed29962dd45c9b10da5a1f52440a51de2f55ef70d0710c2642848484604051808473ffffffffffffffffffffffffffffffffffffffff1673ffffffffffffffffffffffffffffffffffffffff1681526020018373ffffffffffffffffffffffffffffffffffffffff1673ffffffffffffffffffffffffffffffffffffffff168152602001828152602001935050505060405180910390a150505050565b600061134b6040805190810160405280601781526020017f54776f4b657943616d706169676e56616c696461746f72000000000000000000815250613091565b9050600115158173ffffffffffffffffffffffffffffffffffffffff166371c6a34f336040518263ffffffff167c0100000000000000000000000000000000000000000000000000000000028152600401808273ffffffffffffffffffffffffffffffffffffffff1673ffffffffffffffffffffffffffffffffffffffff168152602001915050602060405180830381600087803b1580156113ec57600080fd5b505af1158015611400573d6000803e3d6000fd5b505050506040513d602081101561141657600080fd5b8101908080519060200190929190505050151514151561143557600080fd5b7f6ef193a5df5676e56e3450bde3089eeeb176a1f7c30247c020042e3cdbb5c17485858585604051808573ffffffffffffffffffffffffffffffffffffffff1673ffffffffffffffffffffffffffffffffffffffff1681526020018473ffffffffffffffffffffffffffffffffffffffff1673ffffffffffffffffffffffffffffffffffffffff16815260200183815260200182815260200194505050505060405180910390a15050505050565b60008060006115266040805190810160405280600e81526020017f54776f4b65795265676973747279000000000000000000000000000000000000815250613091565b91508173ffffffffffffffffffffffffffffffffffffffff1663edab0437856040518263ffffffff167c0100000000000000000000000000000000000000000000000000000000028152600401808273ffffffffffffffffffffffffffffffffffffffff1673ffffffffffffffffffffffffffffffffffffffff168152602001915050602060405180830381600087803b1580156115c357600080fd5b505af11580156115d7573d6000803e3d6000fd5b505050506040513d60208110156115ed57600080fd5b81019080805190602001909291905050509050600073ffffffffffffffffffffffffffffffffffffffff168173ffffffffffffffffffffffffffffffffffffffff1614151561163e57809250611642565b8392505b5050919050565b60006116896040805190810160405280601781526020017f54776f4b657943616d706169676e56616c696461746f72000000000000000000815250613091565b90508073ffffffffffffffffffffffffffffffffffffffff163373ffffffffffffffffffffffffffffffffffffffff161415156116c557600080fd5b7f454b0172f64812df0cd504c2bd7df7aab8ff328a54d946b4bd0fa7c527adf9cc848484604051808473ffffffffffffffffffffffffffffffffffffffff1673ffffffffffffffffffffffffffffffffffffffff1681526020018373ffffffffffffffffffffffffffffffffffffffff1673ffffffffffffffffffffffffffffffffffffffff1681526020018273ffffffffffffffffffffffffffffffffffffffff1673ffffffffffffffffffffffffffffffffffffffff168152602001935050505060405180910390a150505050565b6117d46040805190810160405280600d81526020017f54776f4b6579466163746f727900000000000000000000000000000000000000815250613091565b73ffffffffffffffffffffffffffffffffffffffff163373ffffffffffffffffffffffffffffffffffffffff1614151561180d57600080fd5b7fb03e09dad78d8c951d9f02adfb36839cebbb3e4ca980b738e0eff605768bfa4c84848484604051808573ffffffffffffffffffffffffffffffffffffffff1673ffffffffffffffffffffffffffffffffffffffff1681526020018473ffffffffffffffffffffffffffffffffffffffff1673ffffffffffffffffffffffffffffffffffffffff1681526020018373ffffffffffffffffffffffffffffffffffffffff1673ffffffffffffffffffffffffffffffffffffffff1681526020018273ffffffffffffffffffffffffffffffffffffffff1673ffffffffffffffffffffffffffffffffffffffff16815260200194505050505060405180910390a150505050565b6119506040805190810160405280600d81526020017f54776f4b6579466163746f727900000000000000000000000000000000000000815250613091565b73ffffffffffffffffffffffffffffffffffffffff163373ffffffffffffffffffffffffffffffffffffffff1614151561198957600080fd5b7f7a29fc557a80b2254dad2cd7b0558bebb0a2a1d2ad4a319f97ea76a5891d32638585858585604051808673ffffffffffffffffffffffffffffffffffffffff1673ffffffffffffffffffffffffffffffffffffffff1681526020018573ffffffffffffffffffffffffffffffffffffffff1673ffffffffffffffffffffffffffffffffffffffff1681526020018473ffffffffffffffffffffffffffffffffffffffff1673ffffffffffffffffffffffffffffffffffffffff1681526020018373ffffffffffffffffffffffffffffffffffffffff1673ffffffffffffffffffffffffffffffffffffffff1681526020018273ffffffffffffffffffffffffffffffffffffffff1673ffffffffffffffffffffffffffffffffffffffff1681526020019550505050505060405180910390a15050505050565b6000806000611b066040805190810160405280601981526020017f54776f4b65794d61696e7461696e657273526567697374727900000000000000815250613091565b91508173ffffffffffffffffffffffffffffffffffffffff16635cc7815c856040518263ffffffff167c0100000000000000000000000000000000000000000000000000000000028152600401808273ffffffffffffffffffffffffffffffffffffffff1673ffffffffffffffffffffffffffffffffffffffff168152602001915050602060405180830381600087803b158015611ba357600080fd5b505af1158015611bb7573d6000803e3d6000fd5b505050506040513d6020811015611bcd57600080fd5b810190808051906020019092919050505090508092505050919050565b6000806000611c2d6040805190810160405280600b81526020017f54776f4b657941646d696e000000000000000000000000000000000000000000815250613091565b91508173ffffffffffffffffffffffffffffffffffffffff166327fe76416040518163ffffffff167c0100000000000000000000000000000000000000000000000000000000028152600401602060405180830381600087803b158015611c9357600080fd5b505af1158015611ca7573d6000803e3d6000fd5b505050506040513d6020811015611cbd57600080fd5b81019080805190602001909291905050509050809250505090565b6000600160009054906101000a900473ffffffffffffffffffffffffffffffffffffffff16905090565b6000806000611d456040805190810160405280600b81526020017f54776f4b657941646d696e000000000000000000000000000000000000000000815250613091565b91508173ffffffffffffffffffffffffffffffffffffffff16635795aa566040518163ffffffff167c0100000000000000000000000000000000000000000000000000000000028152600401602060405180830381600087803b158015611dab57600080fd5b505af1158015611dbf573d6000803e3d6000fd5b505050506040513d6020811015611dd557600080fd5b81019080805190602001909291905050509050809250505090565b6000611e306040805190810160405280601781526020017f54776f4b657943616d706169676e56616c696461746f72000000000000000000815250613091565b9050600115158173ffffffffffffffffffffffffffffffffffffffff166371c6a34f336040518263ffffffff167c0100000000000000000000000000000000000000000000000000000000028152600401808273ffffffffffffffffffffffffffffffffffffffff1673ffffffffffffffffffffffffffffffffffffffff168152602001915050602060405180830381600087803b158015611ed157600080fd5b505af1158015611ee5573d6000803e3d6000fd5b505050506040513d6020811015611efb57600080fd5b81019080805190602001909291905050501515141515611f1a57600080fd5b7fe8851a4a2e6226f681b5aeeb79cda2fe104284f66f7005a5b1e7a8e38271cbdc848484604051808473ffffffffffffffffffffffffffffffffffffffff1673ffffffffffffffffffffffffffffffffffffffff1681526020018373ffffffffffffffffffffffffffffffffffffffff1673ffffffffffffffffffffffffffffffffffffffff168152602001828152602001935050505060405180910390a150505050565b6000611fff6040805190810160405280601781526020017f54776f4b657943616d706169676e56616c696461746f72000000000000000000815250613091565b9050600115158173ffffffffffffffffffffffffffffffffffffffff166371c6a34f336040518263ffffffff167c0100000000000000000000000000000000000000000000000000000000028152600401808273ffffffffffffffffffffffffffffffffffffffff1673ffffffffffffffffffffffffffffffffffffffff168152602001915050602060405180830381600087803b1580156120a057600080fd5b505af11580156120b4573d6000803e3d6000fd5b505050506040513d60208110156120ca57600080fd5b810190808051906020019092919050505015151415156120e957600080fd5b7f945622715db4ea9fd06096392c9683eb9b128feb2e1d5f6faa9afda9a71ef7a3878787878787604051808773ffffffffffffffffffffffffffffffffffffffff1673ffffffffffffffffffffffffffffffffffffffff1681526020018673ffffffffffffffffffffffffffffffffffffffff1673ffffffffffffffffffffffffffffffffffffffff16815260200185815260200184815260200183815260200182151515158152602001965050505050505060405180910390a150505050505050565b60006121ed6040805190810160405280601781526020017f54776f4b657943616d706169676e56616c696461746f72000000000000000000815250613091565b9050600115158173ffffffffffffffffffffffffffffffffffffffff166371c6a34f336040518263ffffffff167c0100000000000000000000000000000000000000000000000000000000028152600401808273ffffffffffffffffffffffffffffffffffffffff1673ffffffffffffffffffffffffffffffffffffffff168152602001915050602060405180830381600087803b15801561228e57600080fd5b505af11580156122a2573d6000803e3d6000fd5b505050506040513d60208110156122b857600080fd5b810190808051906020019092919050505015151415156122d757600080fd5b7fba37f9f50a5c8f1caa9ac22977223632a66bcaa0eb7f4229aca67e957cc8bb1b88888888888888604051808873ffffffffffffffffffffffffffffffffffffffff1673ffffffffffffffffffffffffffffffffffffffff1681526020018773ffffffffffffffffffffffffffffffffffffffff1673ffffffffffffffffffffffffffffffffffffffff1681526020018681526020018581526020018481526020018315151515815260200182815260200197505050505050505060405180910390a15050505050505050565b600260009054906101000a900473ffffffffffffffffffffffffffffffffffffffff1681565b600061240a6040805190810160405280601781526020017f54776f4b657943616d706169676e56616c696461746f72000000000000000000815250613091565b9050600115158173ffffffffffffffffffffffffffffffffffffffff166371c6a34f336040518263ffffffff167c0100000000000000000000000000000000000000000000000000000000028152600401808273ffffffffffffffffffffffffffffffffffffffff1673ffffffffffffffffffffffffffffffffffffffff168152602001915050602060405180830381600087803b1580156124ab57600080fd5b505af11580156124bf573d6000803e3d6000fd5b505050506040513d60208110156124d557600080fd5b810190808051906020019092919050505015151415156124f457600080fd5b7f2bd729a8054724da0df9fdf02b37398fb43652780a2590cef6fa6e8abcf43678848484604051808473ffffffffffffffffffffffffffffffffffffffff1673ffffffffffffffffffffffffffffffffffffffff1681526020018373ffffffffffffffffffffffffffffffffffffffff1673ffffffffffffffffffffffffffffffffffffffff1681526020018273ffffffffffffffffffffffffffffffffffffffff1673ffffffffffffffffffffffffffffffffffffffff168152602001935050505060405180910390a150505050565b6000806126066040805190810160405280601981526020017f54776f4b65794d61696e7461696e657273526567697374727900000000000000815250613091565b90508073ffffffffffffffffffffffffffffffffffffffff16635cc7815c846040518263ffffffff167c0100000000000000000000000000000000000000000000000000000000028152600401808273ffffffffffffffffffffffffffffffffffffffff1673ffffffffffffffffffffffffffffffffffffffff168152602001915050602060405180830381600087803b1580156126a357600080fd5b505af11580156126b7573d6000803e3d6000fd5b505050506040513d60208110156126cd57600080fd5b8101908080519060200190929190505050915050919050565b600115156126f333611ac3565b151514151561270157600080fd5b7fe93817b1d0825468a6f5c2f2f65df1e4c26a8662a173e71c8a7b95594841951389898989898989898960405180806020018973ffffffffffffffffffffffffffffffffffffffff1673ffffffffffffffffffffffffffffffffffffffff16815260200180602001806020018060200185810385528e8e82818152602001925080828437820191505085810384528b8b82818152602001925080828437820191505085810383528989828181526020019250808284378201915050858103825287878281815260200192508082843782019150509d505050505050505050505050505060405180910390a1505050505050505050565b60006128376040805190810160405280601781526020017f54776f4b657943616d706169676e56616c696461746f72000000000000000000815250613091565b9050600115158173ffffffffffffffffffffffffffffffffffffffff166371c6a34f336040518263ffffffff167c0100000000000000000000000000000000000000000000000000000000028152600401808273ffffffffffffffffffffffffffffffffffffffff1673ffffffffffffffffffffffffffffffffffffffff168152602001915050602060405180830381600087803b1580156128d857600080fd5b505af11580156128ec573d6000803e3d6000fd5b505050506040513d602081101561290257600080fd5b8101908080519060200190929190505050151514151561292157600080fd5b7f6876a213a761d9b4f8d7ba3609528ef85da671684271f75fdacb41be8db29f45848484604051808473ffffffffffffffffffffffffffffffffffffffff1673ffffffffffffffffffffffffffffffffffffffff1681526020018373ffffffffffffffffffffffffffffffffffffffff1673ffffffffffffffffffffffffffffffffffffffff168152602001828152602001935050505060405180910390a150505050565b6000809054906101000a900473ffffffffffffffffffffffffffffffffffffffff1673ffffffffffffffffffffffffffffffffffffffff163373ffffffffffffffffffffffffffffffffffffffff16141515612a2157600080fd5b50565b6000612a646040805190810160405280601781526020017f54776f4b657943616d706169676e56616c696461746f72000000000000000000815250613091565b9050600115158173ffffffffffffffffffffffffffffffffffffffff166371c6a34f336040518263ffffffff167c0100000000000000000000000000000000000000000000000000000000028152600401808273ffffffffffffffffffffffffffffffffffffffff1673ffffffffffffffffffffffffffffffffffffffff168152602001915050602060405180830381600087803b158015612b0557600080fd5b505af1158015612b19573d6000803e3d6000fd5b505050506040513d6020811015612b2f57600080fd5b81019080805190602001909291905050501515141515612b4e57600080fd5b7f915fb8c652d6245752cc491b71bd8e87ab6761417f8d2ca353c8055103294c03848484604051808473ffffffffffffffffffffffffffffffffffffffff1673ffffffffffffffffffffffffffffffffffffffff1681526020018373ffffffffffffffffffffffffffffffffffffffff1673ffffffffffffffffffffffffffffffffffffffff168152602001828152602001935050505060405180910390a150505050565b6000612c336040805190810160405280601781526020017f54776f4b657943616d706169676e56616c696461746f72000000000000000000815250613091565b9050600115158173ffffffffffffffffffffffffffffffffffffffff166371c6a34f336040518263ffffffff167c0100000000000000000000000000000000000000000000000000000000028152600401808273ffffffffffffffffffffffffffffffffffffffff1673ffffffffffffffffffffffffffffffffffffffff168152602001915050602060405180830381600087803b158015612cd457600080fd5b505af1158015612ce8573d6000803e3d6000fd5b505050506040513d6020811015612cfe57600080fd5b81019080805190602001909291905050501515141515612d1d57600080fd5b7f1fd08c43ff018b384f5037a68179f90e0808a91887eeb0c991bc72dbc96a53fd8383604051808373ffffffffffffffffffffffffffffffffffffffff1673ffffffffffffffffffffffffffffffffffffffff1681526020018273ffffffffffffffffffffffffffffffffffffffff1673ffffffffffffffffffffffffffffffffffffffff1681526020019250505060405180910390a1505050565b6000612df96040805190810160405280601781526020017f54776f4b657943616d706169676e56616c696461746f72000000000000000000815250613091565b9050600115158173ffffffffffffffffffffffffffffffffffffffff166371c6a34f336040518263ffffffff167c0100000000000000000000000000000000000000000000000000000000028152600401808273ffffffffffffffffffffffffffffffffffffffff1673ffffffffffffffffffffffffffffffffffffffff168152602001915050602060405180830381600087803b158015612e9a57600080fd5b505af1158015612eae573d6000803e3d6000fd5b505050506040513d6020811015612ec457600080fd5b81019080805190602001909291905050501515141515612ee357600080fd5b7f7c6e1efaaf817e017a766225398a2303cc50a693282384f3ab600a070ff68b5d85858585604051808573ffffffffffffffffffffffffffffffffffffffff1673ffffffffffffffffffffffffffffffffffffffff1681526020018473ffffffffffffffffffffffffffffffffffffffff1673ffffffffffffffffffffffffffffffffffffffff16815260200183815260200182815260200194505050505060405180910390a15050505050565b612fcf6040805190810160405280601a81526020017f54776f4b657945786368616e676552617465436f6e7472616374000000000000815250613091565b73ffffffffffffffffffffffffffffffffffffffff163373ffffffffffffffffffffffffffffffffffffffff1614151561300857600080fd5b7fb9f26901b015ee01cabc2af9042d52bc821b1aaedcb7b0e97199a99ac3277fdd848484846040518085600019166000191681526020018481526020018381526020018273ffffffffffffffffffffffffffffffffffffffff1673ffffffffffffffffffffffffffffffffffffffff16815260200194505050505060405180910390a150505050565b6000600260009054906101000a900473ffffffffffffffffffffffffffffffffffffffff1673ffffffffffffffffffffffffffffffffffffffff1663db7a6d90836040518263ffffffff167c01000000000000000000000000000000000000000000000000000000000281526004018080602001828103825283818151815260200191508051906020019080838360005b8381101561313d578082015181840152602081019050613122565b50505050905090810190601f16801561316a5780820380516001836020036101000a031916815260200191505b5092505050602060405180830381600087803b15801561318957600080fd5b505af115801561319d573d6000803e3d6000fd5b505050506040513d60208110156131b357600080fd5b810190808051906020019092919050505090509190505600a165627a7a7230582004083c60594ac00f79588dc149001865d625416cbf511b8ac6e7d0402f4270b70029",
  "source": "pragma solidity ^0.4.24;\n\nimport \"../interfaces/ITwoKeyReg.sol\";\nimport \"../interfaces/ITwoKeyAdmin.sol\";\nimport \"../interfaces/ITwoKeyCampaignValidator.sol\";\nimport \"../interfaces/ITwoKeySingletoneRegistryFetchAddress.sol\";\nimport \"../interfaces/ITwoKeyMaintainersRegistry.sol\";\nimport \"../upgradability/Upgradeable.sol\";\nimport \"../interfaces/storage-contracts/ITwoKeyEventSourceStorage.sol\";\nimport \"../non-upgradable-singletons/ITwoKeySingletonUtils.sol\";\n\n\ncontract TwoKeyEventSource is Upgradeable, ITwoKeySingletonUtils {\n\n    bool initialized;\n\n    ITwoKeyEventSourceStorage public PROXY_STORAGE_CONTRACT;\n\n    /**\n     * Modifier which will allow only completely verified and validated contracts to call some functions\n     */\n    modifier onlyAllowedContracts {\n        address twoKeyCampaignValidator = getAddressFromTwoKeySingletonRegistry(\"TwoKeyCampaignValidator\");\n        require(ITwoKeyCampaignValidator(twoKeyCampaignValidator).isCampaignValidated(msg.sender) == true);\n        _;\n    }\n\n    /**\n     * Modifier which will allow only TwoKeyCampaignValidator to make some calls\n     */\n    modifier onlyTwoKeyCampaignValidator {\n        address twoKeyCampaignValidator = getAddressFromTwoKeySingletonRegistry(\"TwoKeyCampaignValidator\");\n        require(msg.sender == twoKeyCampaignValidator);\n        _;\n    }\n\n    /**\n     * @notice Function to set initial params in the contract\n     * @param _twoKeySingletonesRegistry is the address of TWO_KEY_SINGLETON_REGISTRY contract\n     * @param _proxyStorage is the address of proxy of storage contract\n     */\n    function setInitialParams(\n        address _twoKeySingletonesRegistry,\n        address _proxyStorage\n    )\n    external\n    {\n        require(initialized == false);\n\n        TWO_KEY_SINGLETON_REGISTRY = _twoKeySingletonesRegistry;\n        PROXY_STORAGE_CONTRACT = ITwoKeyEventSourceStorage(_proxyStorage);\n\n        initialized = true;\n    }\n\n\n    event Created(\n        address _campaign,\n        address _owner,\n        address _moderator\n    );\n\n    event Joined(\n        address _campaign,\n        address _from,\n        address _to\n    );\n\n    event Converted(\n        address _campaign,\n        address _converter,\n        uint256 _amount\n    );\n\n    // TODO: DEPRECATED IN NEW DEPLOYMENT\n    event ConvertedAcquisition(\n        address _campaign,\n        address _converter,\n        uint256 _baseTokens,\n        uint256 _bonusTokens,\n        uint256 _conversionAmount,\n        bool _isFiatConversion\n    );\n\n\n    event ConvertedAcquisitionV2(\n        address _campaign,\n        address _converterPlasma,\n        uint256 _baseTokens,\n        uint256 _bonusTokens,\n        uint256 _conversionAmount,\n        bool _isFiatConversion,\n        uint _conversionId\n    );\n\n    // TODO: DEPRECATED\n    event ConvertedDonation(\n        address _campaign,\n        address _converter,\n        uint _conversionAmount\n    );\n\n    event ConvertedDonationV2(\n        address _campaign,\n        address _converterPlasma,\n        uint _conversionAmount,\n        uint _conversionId\n    );\n\n    event Rewarded(\n        address _campaign,\n        address _to,\n        uint256 _amount\n    );\n\n    event Cancelled(\n        address _campaign,\n        address _converter,\n        uint256 _indexOrAmount\n    );\n\n    event Rejected(\n        address _campaign,\n        address _converter\n    );\n\n    event UpdatedPublicMetaHash(\n        uint timestamp,\n        string value\n    );\n\n    event UpdatedData(\n        uint timestamp,\n        uint value,\n        string action\n    );\n\n    event ReceivedEther(\n        address _sender,\n        uint value\n    );\n\n    event AcquisitionCampaignCreated(\n        address proxyLogicHandler,\n        address proxyConversionHandler,\n        address proxyAcquisitionCampaign,\n        address proxyPurchasesHandler,\n        address contractor\n    );\n\n    event DonationCampaignCreated(\n        address proxyDonationCampaign,\n        address proxyDonationConversionHandler,\n        address proxyDonationLogicHandler,\n        address contractor\n    );\n\n    event PriceUpdated(\n        bytes32 _currency,\n        uint newRate,\n        uint _timestamp,\n        address _updater\n    );\n\n    event UserRegistered(\n        string _name,\n        address _address,\n        string _fullName,\n        string _email,\n        string _username_walletName\n    );\n\n    event Executed(\n        address campaignAddress,\n        address converterPlasmaAddress,\n        uint conversionId\n    );\n\n    event ExecutedV1(\n        address campaignAddress,\n        address converterPlasmaAddress,\n        uint conversionId,\n        uint tokens\n    );\n\n    /**\n     * @notice Function to emit created event every time campaign is created\n     * @param _campaign is the address of the deployed campaign\n     * @param _owner is the contractor address of the campaign\n     * @param _moderator is the address of the moderator in campaign\n     * @dev this function updates values in TwoKeyRegistry contract\n     */\n    function created(\n        address _campaign,\n        address _owner,\n        address _moderator\n    )\n    external\n    onlyTwoKeyCampaignValidator\n    {\n        emit Created(_campaign, _owner, _moderator);\n    }\n\n    /**\n     * @notice Function to emit created event every time someone has joined to campaign\n     * @param _campaign is the address of the deployed campaign\n     * @param _from is the address of the referrer\n     * @param _to is the address of person who has joined\n     * @dev this function updates values in TwoKeyRegistry contract\n     */\n    function joined(\n        address _campaign,\n        address _from,\n        address _to\n    )\n    external\n    onlyAllowedContracts\n    {\n        emit Joined(_campaign, _from, _to);\n    }\n\n    /**\n     * @notice Function to emit converted event\n     * @param _campaign is the address of main campaign contract\n     * @param _converter is the address of converter during the conversion\n     * @param _conversionAmount is conversion amount\n     */\n    function converted(\n        address _campaign,\n        address _converter,\n        uint256 _conversionAmount\n    )\n    external\n    onlyAllowedContracts\n    {\n        emit Converted(_campaign, _converter, _conversionAmount);\n    }\n\n    function rejected(\n        address _campaign,\n        address _converter\n    )\n    external\n    onlyAllowedContracts\n    {\n        emit Rejected(_campaign, _converter);\n    }\n\n    /**\n     * @notice Function to emit event every time conversion gets executed\n     * @param _campaignAddress is the main campaign contract address\n     * @param _converterPlasmaAddress is the address of converter plasma\n     * @param _conversionId is the ID of conversion, unique per campaign\n     */\n    function executed(\n        address _campaignAddress,\n        address _converterPlasmaAddress,\n        uint _conversionId\n    )\n    external\n    onlyAllowedContracts\n    {\n        emit Executed(_campaignAddress, _converterPlasmaAddress, _conversionId);\n    }\n\n    /**\n     * @notice Function to emit event every time conversion gets executed\n     * @param _campaignAddress is the main campaign contract address\n     * @param _converterPlasmaAddress is the address of converter plasma\n     * @param _conversionId is the ID of conversion, unique per campaign\n     */\n    function executedV1(\n        address _campaignAddress,\n        address _converterPlasmaAddress,\n        uint _conversionId,\n        uint tokens\n    )\n    external\n    onlyAllowedContracts\n    {\n        emit ExecutedV1(_campaignAddress, _converterPlasmaAddress, _conversionId, tokens);\n    }\n\n    //TODO: DEPRECATED FOR NEW CAMPAIGNS\n    function convertedAcquisition(\n        address _campaign,\n        address _converter,\n        uint256 _baseTokens,\n        uint256 _bonusTokens,\n        uint256 _conversionAmount,\n        bool _isFiatConversion\n    )\n    external\n    onlyAllowedContracts\n    {\n        emit ConvertedAcquisition(_campaign, _converter, _baseTokens, _bonusTokens, _conversionAmount, _isFiatConversion);\n    }\n\n\n    /**\n     * @notice Function to emit created event every time conversion happened under AcquisitionCampaign\n     * @param _campaign is the address of the deployed campaign\n     * @param _converterPlasma is the converter address\n     * @param _baseTokens is the amount of tokens bought\n     * @param _bonusTokens is the amount of bonus tokens received\n     * @param _conversionAmount is the amount of conversion\n     * @param _isFiatConversion is flag representing if conversion is either FIAT or ETHER\n     * @param _conversionId is the id of conversion\n     * @dev this function updates values in TwoKeyRegistry contract\n     */\n    function convertedAcquisitionV2(\n        address _campaign,\n        address _converterPlasma,\n        uint256 _baseTokens,\n        uint256 _bonusTokens,\n        uint256 _conversionAmount,\n        bool _isFiatConversion,\n        uint _conversionId\n    )\n    external\n    onlyAllowedContracts\n    {\n        emit ConvertedAcquisitionV2(_campaign, _converterPlasma, _baseTokens, _bonusTokens, _conversionAmount, _isFiatConversion, _conversionId);\n    }\n\n\n    function convertedDonation(\n        address _campaign,\n        address _converter,\n        uint256 _conversionAmount\n    )\n    external\n    onlyAllowedContracts\n    {\n        emit ConvertedDonation(_campaign, _converter, _conversionAmount);\n    }\n\n\n    /**\n     * @notice Function to emit created event every time conversion happened under DonationCampaign\n     * @param _campaign is the address of main campaign contract\n     * @param _converterPlasma is the address of the converter\n     * @param _conversionAmount is the amount of conversion\n     * @param _conversionId is the id of conversion\n     */\n    function convertedDonationV2(\n        address _campaign,\n        address _converterPlasma,\n        uint256 _conversionAmount,\n        uint256 _conversionId\n    )\n    external\n    onlyAllowedContracts\n    {\n        emit ConvertedDonationV2(_campaign, _converterPlasma, _conversionAmount, _conversionId);\n    }\n\n    /**\n     * @notice Function to emit created event every time bounty is distributed between influencers\n     * @param _campaign is the address of the deployed campaign\n     * @param _to is the reward receiver\n     * @param _amount is the reward amount\n     */\n    function rewarded(\n        address _campaign,\n        address _to,\n        uint256 _amount\n    )\n    external\n    onlyAllowedContracts\n    {\n        emit Rewarded(_campaign, _to, _amount);\n    }\n\n    /**\n     * @notice Function to emit created event every time campaign is cancelled\n     * @param _campaign is the address of the cancelled campaign\n     * @param _converter is the address of the converter\n     * @param _indexOrAmount is the amount of campaign\n     */\n    function cancelled(\n        address  _campaign,\n        address _converter,\n        uint256 _indexOrAmount\n    )\n    external\n    onlyAllowedContracts\n    {\n        emit Cancelled(_campaign, _converter, _indexOrAmount);\n    }\n\n    /**\n     * @notice Function to emit event every time someone starts new Acquisition campaign\n     * @param proxyLogicHandler is the address of TwoKeyAcquisitionLogicHandler proxy deployed by TwoKeyFactory\n     * @param proxyConversionHandler is the address of TwoKeyConversionHandler proxy deployed by TwoKeyFactory\n     * @param proxyAcquisitionCampaign is the address of TwoKeyAcquisitionCampaign proxy deployed by TwoKeyFactory\n     * @param proxyPurchasesHandler is the address of TwoKeyPurchasesHandler proxy deployed by TwoKeyFactory\n     */\n    function acquisitionCampaignCreated(\n        address proxyLogicHandler,\n        address proxyConversionHandler,\n        address proxyAcquisitionCampaign,\n        address proxyPurchasesHandler,\n        address contractor\n    )\n    external\n    {\n        require(msg.sender == getAddressFromTwoKeySingletonRegistry(\"TwoKeyFactory\"));\n        emit AcquisitionCampaignCreated(\n            proxyLogicHandler,\n            proxyConversionHandler,\n            proxyAcquisitionCampaign,\n            proxyPurchasesHandler,\n            contractor\n        );\n    }\n\n    /**\n     * @notice Function to emit event every time someone starts new Donation campaign\n     * @param proxyDonationCampaign is the address of TwoKeyDonationCampaign proxy deployed by TwoKeyFactory\n     * @param proxyDonationConversionHandler is the address of TwoKeyDonationConversionHandler proxy deployed by TwoKeyFactory\n     * @param proxyDonationLogicHandler is the address of TwoKeyDonationLogicHandler proxy deployed by TwoKeyFactory\n     */\n    function donationCampaignCreated(\n        address proxyDonationCampaign,\n        address proxyDonationConversionHandler,\n        address proxyDonationLogicHandler,\n        address contractor\n    )\n    external\n    {\n        require(msg.sender == getAddressFromTwoKeySingletonRegistry(\"TwoKeyFactory\"));\n        emit DonationCampaignCreated(\n            proxyDonationCampaign,\n            proxyDonationConversionHandler,\n            proxyDonationLogicHandler,\n            contractor\n        );\n    }\n\n    /**\n     * @notice Function which will emit event PriceUpdated every time that happens under TwoKeyExchangeRateContract\n     * @param _currency is the hexed string of currency name\n     * @param _newRate is the new rate\n     * @param _timestamp is the time of updating\n     * @param _updater is the maintainer address which performed this call\n     */\n    function priceUpdated(\n        bytes32 _currency,\n        uint _newRate,\n        uint _timestamp,\n        address _updater\n    )\n    external\n    {\n        require(msg.sender == getAddressFromTwoKeySingletonRegistry(\"TwoKeyExchangeRateContract\"));\n        emit PriceUpdated(_currency, _newRate, _timestamp, _updater);\n    }\n\n    /**\n     * @notice Function to emit event every time user is registered\n     * @param _name is the name of the user\n     * @param _address is the address of the user\n     * @param _fullName is the full user name\n     * @param _email is users email\n     * @param _username_walletName is = concat(username,'_',walletName)\n     */\n    function userRegistered(\n        string _name,\n        address _address,\n        string _fullName,\n        string _email,\n        string _username_walletName\n    )\n    external\n    {\n        require(isAddressMaintainer(msg.sender) == true);\n        emit UserRegistered(_name, _address, _fullName, _email, _username_walletName);\n    }\n    /**\n     * @notice Function to check adequate plasma address for submitted eth address\n     * @param me is the ethereum address we request corresponding plasma address for\n     */\n    function plasmaOf(\n        address me\n    )\n    public\n    view\n    returns (address)\n    {\n        address twoKeyRegistry = getAddressFromTwoKeySingletonRegistry(\"TwoKeyRegistry\");\n        address plasma = ITwoKeyReg(twoKeyRegistry).getEthereumToPlasma(me);\n        if (plasma != address(0)) {\n            return plasma;\n        }\n        return me;\n    }\n\n    /**\n     * @notice Function to determine ethereum address of plasma address\n     * @param me is the plasma address of the user\n     * @return ethereum address\n     */\n    function ethereumOf(\n        address me\n    )\n    public\n    view\n    returns (address)\n    {\n        address twoKeyRegistry = getAddressFromTwoKeySingletonRegistry(\"TwoKeyRegistry\");\n        address ethereum = ITwoKeyReg(twoKeyRegistry).getPlasmaToEthereum(me);\n        if (ethereum != address(0)) {\n            return ethereum;\n        }\n        return me;\n    }\n\n    /**\n     * @notice Address to check if an address is maintainer in TwoKeyMaintainersRegistry\n     * @param _maintainer is the address we're checking this for\n     */\n    function isAddressMaintainer(\n        address _maintainer\n    )\n    public\n    view\n    returns (bool)\n    {\n        address twoKeyMaintainersRegistry = getAddressFromTwoKeySingletonRegistry(\"TwoKeyMaintainersRegistry\");\n        bool _isMaintainer = ITwoKeyMaintainersRegistry(twoKeyMaintainersRegistry).checkIsAddressMaintainer(_maintainer);\n        return _isMaintainer;\n    }\n\n    /**\n     * @notice In default TwoKeyAdmin will be moderator and his fee percentage per conversion is predefined\n     */\n    function getTwoKeyDefaultIntegratorFeeFromAdmin()\n    public\n    view\n    returns (uint)\n    {\n        address twoKeyAdmin = getAddressFromTwoKeySingletonRegistry(\"TwoKeyAdmin\");\n        uint integratorFeePercentage = ITwoKeyAdmin(twoKeyAdmin).getDefaultIntegratorFeePercent();\n        return integratorFeePercentage;\n    }\n\n    /**\n     * @notice Function to get default network tax percentage\n     */\n    function getTwoKeyDefaultNetworkTaxPercent()\n    public\n    view\n    returns (uint)\n    {\n        address twoKeyAdmin = getAddressFromTwoKeySingletonRegistry(\"TwoKeyAdmin\");\n        uint networkTaxPercent = ITwoKeyAdmin(twoKeyAdmin).getDefaultNetworkTaxPercent();\n        return networkTaxPercent;\n    }\n}\n",
  "sourcePath": "/Users/nikolamadjarevic/Desktop/2key/contracts/contracts/2key/singleton-contracts/TwoKeyEventSource.sol",
  "compiler": {
    "name": "solc",
    "version": "0.4.24+commit.e67f0147.Emscripten.clang"
  },
  "schemaVersion": "2.0.1",
  "updatedAt": "2019-11-07T08:15:06.297Z"
}