{
  "contractName": "TwoKeyDonationConversionHandler",
  "abi": [
    {
      "constant": true,
      "inputs": [
        {
          "name": "",
          "type": "uint256"
        }
      ],
      "name": "conversions",
      "outputs": [
        {
          "name": "contractor",
          "type": "address"
        },
        {
          "name": "contractorProceedsETHWei",
          "type": "uint256"
        },
        {
          "name": "converter",
          "type": "address"
        },
        {
          "name": "conversionCreatedAt",
          "type": "uint256"
        },
        {
          "name": "conversionExpiresAt",
          "type": "uint256"
        },
        {
          "name": "state",
          "type": "uint8"
        },
        {
          "name": "conversionAmount",
          "type": "uint256"
        },
        {
          "name": "maxReferralRewardETHWei",
          "type": "uint256"
        },
        {
          "name": "maxReferralReward2key",
          "type": "uint256"
        },
        {
          "name": "moderatorFeeETHWei",
          "type": "uint256"
        },
        {
          "name": "tokensBought",
          "type": "uint256"
        }
      ],
      "payable": false,
      "stateMutability": "view",
      "type": "function"
    },
    {
      "constant": true,
      "inputs": [
        {
          "name": "state",
          "type": "bytes32"
        }
      ],
      "name": "getAllConvertersPerState",
      "outputs": [
        {
          "name": "",
          "type": "address[]"
        }
      ],
      "payable": false,
      "stateMutability": "view",
      "type": "function"
    },
    {
      "constant": true,
      "inputs": [],
      "name": "erc20InvoiceToken",
      "outputs": [
        {
          "name": "",
          "type": "address"
        }
      ],
      "payable": false,
      "stateMutability": "view",
      "type": "function"
    },
    {
      "constant": true,
      "inputs": [],
      "name": "implementation",
      "outputs": [
        {
          "name": "",
          "type": "address"
        }
      ],
      "payable": false,
      "stateMutability": "view",
      "type": "function"
    },
    {
      "constant": true,
      "inputs": [],
      "name": "getNumberOfConversions",
      "outputs": [
        {
          "name": "",
          "type": "uint256"
        }
      ],
      "payable": false,
      "stateMutability": "view",
      "type": "function"
    },
    {
      "constant": true,
      "inputs": [
        {
          "name": "",
          "type": "address"
        }
      ],
      "name": "converterToPositionIndex",
      "outputs": [
        {
          "name": "",
          "type": "uint256"
        }
      ],
      "payable": false,
      "stateMutability": "view",
      "type": "function"
    },
    {
      "constant": true,
      "inputs": [
        {
          "name": "_converter",
          "type": "address"
        }
      ],
      "name": "getConverterConversionIds",
      "outputs": [
        {
          "name": "",
          "type": "uint256[]"
        }
      ],
      "payable": false,
      "stateMutability": "view",
      "type": "function"
    },
    {
      "constant": false,
      "inputs": [
        {
          "name": "_converter",
          "type": "address"
        }
      ],
      "name": "approveConverter",
      "outputs": [],
      "payable": false,
      "stateMutability": "nonpayable",
      "type": "function"
    },
    {
      "constant": true,
      "inputs": [
        {
          "name": "_converter",
          "type": "address"
        }
      ],
      "name": "getLastConverterConversionId",
      "outputs": [
        {
          "name": "",
          "type": "uint256"
        }
      ],
      "payable": false,
      "stateMutability": "view",
      "type": "function"
    },
    {
      "constant": true,
      "inputs": [],
      "name": "getCampaignSummary",
      "outputs": [
        {
          "name": "",
          "type": "uint256"
        },
        {
          "name": "",
          "type": "uint256"
        },
        {
          "name": "",
          "type": "uint256"
        },
        {
          "name": "",
          "type": "uint256[]"
        }
      ],
      "payable": false,
      "stateMutability": "view",
      "type": "function"
    },
    {
      "constant": true,
      "inputs": [
        {
          "name": "_converter",
          "type": "address"
        }
      ],
      "name": "getStateForConverter",
      "outputs": [
        {
          "name": "",
          "type": "bytes32"
        }
      ],
      "payable": false,
      "stateMutability": "view",
      "type": "function"
    },
    {
      "anonymous": false,
      "inputs": [
        {
          "indexed": false,
          "name": "token",
          "type": "address"
        },
        {
          "indexed": false,
          "name": "tokenName",
          "type": "string"
        },
        {
          "indexed": false,
          "name": "tokenSymbol",
          "type": "string"
        }
      ],
      "name": "InvoiceTokenCreated",
      "type": "event"
    },
    {
      "anonymous": false,
      "inputs": [
        {
          "indexed": false,
          "name": "conversionId",
          "type": "uint256"
        }
      ],
      "name": "ConversionCreated",
      "type": "event"
    },
    {
      "constant": false,
      "inputs": [
        {
          "name": "tokenName",
          "type": "string"
        },
        {
          "name": "tokenSymbol",
          "type": "string"
        },
        {
          "name": "_currency",
          "type": "string"
        },
        {
          "name": "_contractor",
          "type": "address"
        },
        {
          "name": "_twoKeyDonationCampaign",
          "type": "address"
        },
        {
          "name": "_twoKeySingletonRegistry",
          "type": "address"
        }
      ],
      "name": "setInitialParamsDonationConversionHandler",
      "outputs": [],
      "payable": false,
      "stateMutability": "nonpayable",
      "type": "function"
    },
    {
      "constant": false,
      "inputs": [
        {
          "name": "_expiryConversionInHours",
          "type": "uint256"
        }
      ],
      "name": "setExpiryConversionInHours",
      "outputs": [],
      "payable": false,
      "stateMutability": "nonpayable",
      "type": "function"
    },
    {
      "constant": false,
      "inputs": [
        {
          "name": "_converterAddress",
          "type": "address"
        },
        {
          "name": "_conversionAmount",
          "type": "uint256"
        },
        {
          "name": "_maxReferralRewardETHWei",
          "type": "uint256"
        },
        {
          "name": "_isKYCRequired",
          "type": "bool"
        },
        {
          "name": "_conversionAmountCampaignCurrency",
          "type": "uint256"
        }
      ],
      "name": "supportForCreateConversion",
      "outputs": [
        {
          "name": "",
          "type": "uint256"
        }
      ],
      "payable": false,
      "stateMutability": "nonpayable",
      "type": "function"
    },
    {
      "constant": false,
      "inputs": [
        {
          "name": "_conversionId",
          "type": "uint256"
        }
      ],
      "name": "executeConversion",
      "outputs": [],
      "payable": false,
      "stateMutability": "nonpayable",
      "type": "function"
    },
    {
      "constant": false,
      "inputs": [
        {
          "name": "_converter",
          "type": "address"
        }
      ],
      "name": "rejectConverter",
      "outputs": [],
      "payable": false,
      "stateMutability": "nonpayable",
      "type": "function"
    },
    {
      "constant": false,
      "inputs": [
        {
          "name": "_conversionId",
          "type": "uint256"
        }
      ],
      "name": "converterCancelConversion",
      "outputs": [],
      "payable": false,
      "stateMutability": "nonpayable",
      "type": "function"
    },
    {
      "constant": true,
      "inputs": [
        {
          "name": "conversionId",
          "type": "uint256"
        }
      ],
      "name": "getConversion",
      "outputs": [
        {
          "name": "",
          "type": "bytes"
        }
      ],
      "payable": false,
      "stateMutability": "view",
      "type": "function"
    },
    {
      "constant": true,
      "inputs": [
        {
          "name": "converter",
          "type": "address"
        }
      ],
      "name": "getAmountConverterSpent",
      "outputs": [
        {
          "name": "",
          "type": "uint256"
        }
      ],
      "payable": false,
      "stateMutability": "view",
      "type": "function"
    },
    {
      "constant": true,
      "inputs": [
        {
          "name": "converter",
          "type": "address"
        }
      ],
      "name": "getAmountOfDonationTokensConverterReceived",
      "outputs": [
        {
          "name": "",
          "type": "uint256"
        }
      ],
      "payable": false,
      "stateMutability": "view",
      "type": "function"
    }
  ],
  "bytecode": "0x608060405234801561001057600080fd5b50615a2f806100206000396000f30060806040526004361062000127576000357c0100000000000000000000000000000000000000000000000000000000900463ffffffff168063047abed7146200012c5780630c67192114620001d85780630ebdf788146200021e5780631694c83f146200024e5780631c98939014620003a65780632ae6df4e14620004975780634b19aa2814620004c75780634ed2f42d14620004f75780635672fb7014620005825780635c60da1b14620005dc578063795e151114620006365780638680da56146200066457806386e1fb1614620006be5780638f749c02146200075b5780639021c95814620007a1578063a00c96d714620007fb578063c3040fd11462000881578063ca92581214620008e3578063ea430c641462000967578063f21f0aea14620009c1575b600080fd5b3480156200013957600080fd5b506200015a6004803603810190808035906020019092919050505062000a1b565b6040518080602001828103825283818151815260200191508051906020019080838360005b838110156200019c5780820151818401526020810190506200017f565b50505050905090810190601f168015620001ca5780820380516001836020036101000a031916815260200191505b509250505060405180910390f35b348015620001e557600080fd5b506200021c600480360381019080803573ffffffffffffffffffffffffffffffffffffffff16906020019092919050505062000d1a565b005b3480156200022b57600080fd5b506200024c6004803603810190808035906020019092919050505062001445565b005b3480156200025b57600080fd5b50620003a4600480360381019080803590602001908201803590602001908080601f0160208091040260200160405190810160405280939291908181526020018383808284378201915050505050509192919290803590602001908201803590602001908080601f0160208091040260200160405190810160405280939291908181526020018383808284378201915050505050509192919290803590602001908201803590602001908080601f0160208091040260200160405190810160405280939291908181526020018383808284378201915050505050509192919290803573ffffffffffffffffffffffffffffffffffffffff169060200190929190803573ffffffffffffffffffffffffffffffffffffffff169060200190929190803573ffffffffffffffffffffffffffffffffffffffff16906020019092919050505062001e00565b005b348015620003b357600080fd5b50620003d460048036038101908080359060200190929190505050620022d0565b604051808c73ffffffffffffffffffffffffffffffffffffffff1673ffffffffffffffffffffffffffffffffffffffff1681526020018b81526020018a73ffffffffffffffffffffffffffffffffffffffff1673ffffffffffffffffffffffffffffffffffffffff1681526020018981526020018881526020018760048111156200045b57fe5b60ff1681526020018681526020018581526020018481526020018381526020018281526020019b50505050505050505050505060405180910390f35b348015620004a457600080fd5b50620004c56004803603810190808035906020019092919050505062002387565b005b348015620004d457600080fd5b50620004f5600480360381019080803590602001909291905050506200268f565b005b3480156200050457600080fd5b50620005296004803603810190808035600019169060200190929190505050620026f6565b6040518080602001828103825283818151815260200191508051906020019060200280838360005b838110156200056e57808201518184015260208101905062000551565b505050509050019250505060405180910390f35b3480156200058f57600080fd5b506200059a620027a1565b604051808273ffffffffffffffffffffffffffffffffffffffff1673ffffffffffffffffffffffffffffffffffffffff16815260200191505060405180910390f35b348015620005e957600080fd5b50620005f4620027c7565b604051808273ffffffffffffffffffffffffffffffffffffffff1673ffffffffffffffffffffffffffffffffffffffff16815260200191505060405180910390f35b3480156200064357600080fd5b506200064e620027f0565b6040518082815260200191505060405180910390f35b3480156200067157600080fd5b50620006a8600480360381019080803573ffffffffffffffffffffffffffffffffffffffff169060200190929190505050620027fa565b6040518082815260200191505060405180910390f35b348015620006cb57600080fd5b5062000702600480360381019080803573ffffffffffffffffffffffffffffffffffffffff16906020019092919050505062002812565b6040518080602001828103825283818151815260200191508051906020019060200280838360005b83811015620007475780820151818401526020810190506200072a565b505050509050019250505060405180910390f35b3480156200076857600080fd5b506200079f600480360381019080803573ffffffffffffffffffffffffffffffffffffffff169060200190929190505050620028ab565b005b348015620007ae57600080fd5b50620007e5600480360381019080803573ffffffffffffffffffffffffffffffffffffffff16906020019092919050505062002b91565b6040518082815260200191505060405180910390f35b3480156200080857600080fd5b506200081362002c37565b6040518085815260200184815260200183815260200180602001828103825283818151815260200191508051906020019060200280838360005b838110156200086a5780820151818401526020810190506200084d565b505050509050019550505050505060405180910390f35b3480156200088e57600080fd5b50620008c5600480360381019080803573ffffffffffffffffffffffffffffffffffffffff16906020019092919050505062002d41565b60405180826000191660001916815260200191505060405180910390f35b348015620008f057600080fd5b5062000951600480360381019080803573ffffffffffffffffffffffffffffffffffffffff16906020019092919080359060200190929190803590602001909291908035151590602001909291908035906020019092919050505062002da1565b6040518082815260200191505060405180910390f35b3480156200097457600080fd5b50620009ab600480360381019080803573ffffffffffffffffffffffffffffffffffffffff169060200190929190505050620031c2565b6040518082815260200191505060405180910390f35b348015620009ce57600080fd5b5062000a05600480360381019080803573ffffffffffffffffffffffffffffffffffffffff1690602001909291905050506200320b565b6040518082815260200191505060405180910390f35b606062000a2762004b2f565b600060118481548110151562000a3957fe5b90600052602060002090600b020161016060405190810160405290816000820160009054906101000a900473ffffffffffffffffffffffffffffffffffffffff1673ffffffffffffffffffffffffffffffffffffffff1673ffffffffffffffffffffffffffffffffffffffff168152602001600182015481526020016002820160009054906101000a900473ffffffffffffffffffffffffffffffffffffffff1673ffffffffffffffffffffffffffffffffffffffff1673ffffffffffffffffffffffffffffffffffffffff16815260200160038201548152602001600482015481526020016005820160009054906101000a900460ff16600481111562000b3d57fe5b600481111562000b4957fe5b815260200160068201548152602001600782015481526020016008820154815260200160098201548152602001600a82015481525050915060001515600e6000846040015173ffffffffffffffffffffffffffffffffffffffff1673ffffffffffffffffffffffffffffffffffffffff16815260200190815260200160002060009054906101000a900460ff161515141562000be757816040015190505b81600001518183602001518460c001518561014001518660e001518761010001518861012001518960a00151604051602001808a73ffffffffffffffffffffffffffffffffffffffff1673ffffffffffffffffffffffffffffffffffffffff166c010000000000000000000000000281526014018973ffffffffffffffffffffffffffffffffffffffff1673ffffffffffffffffffffffffffffffffffffffff166c0100000000000000000000000002815260140188815260200187815260200186815260200185815260200184815260200183815260200182600481111562000ccd57fe5b60ff167f0100000000000000000000000000000000000000000000000000000000000000028152600101995050505050505050505060405160208183030381529060405292505050919050565b60008060008060008062000d636040805190810160405280601981526020017f54776f4b65794d61696e7461696e65727352656769737472790000000000000081525062003254565b9050600560009054906101000a900473ffffffffffffffffffffffffffffffffffffffff1673ffffffffffffffffffffffffffffffffffffffff163373ffffffffffffffffffffffffffffffffffffffff16148062000e9757508073ffffffffffffffffffffffffffffffffffffffff1663cd2a81dc336040518263ffffffff167c0100000000000000000000000000000000000000000000000000000000028152600401808273ffffffffffffffffffffffffffffffffffffffff1673ffffffffffffffffffffffffffffffffffffffff168152602001915050602060405180830381600087803b15801562000e5957600080fd5b505af115801562000e6e573d6000803e3d6000fd5b505050506040513d602081101562000e8557600080fd5b81019080805190602001909291905050505b8062000f7857508073ffffffffffffffffffffffffffffffffffffffff16635cc7815c336040518263ffffffff167c0100000000000000000000000000000000000000000000000000000000028152600401808273ffffffffffffffffffffffffffffffffffffffff1673ffffffffffffffffffffffffffffffffffffffff168152602001915050602060405180830381600087803b15801562000f3a57600080fd5b505af115801562000f4f573d6000803e3d6000fd5b505050506040513d602081101562000f6657600080fd5b81019080805190602001909291905050505b151562000f8457600080fd5b62000f8f8762003394565b60009550600b60008873ffffffffffffffffffffffffffffffffffffffff1673ffffffffffffffffffffffffffffffffffffffff168152602001908152602001600020805490509450600093505b848410156200132457600b60008873ffffffffffffffffffffffffffffffffffffffff1673ffffffffffffffffffffffffffffffffffffffff168152602001908152602001600020848154811015156200103357fe5b906000526020600020015492506011838154811015156200105057fe5b90600052602060002090600b02019150600160048111156200106e57fe5b8260050160009054906101000a900460ff1660048111156200108c57fe5b14156200131657620010c4600160046001815481101515620010aa57fe5b90600052602060002001546200341690919063ffffffff16565b60046001815481101515620010d557fe5b906000526020600020018190555062001114600160046002815481101515620010fa57fe5b90600052602060002001546200343390919063ffffffff16565b600460028154811015156200112557fe5b9060005260206000200181905550620011736040805190810160405280601c81526020017f54776f4b65794261736552657075746174696f6e52656769737472790000000081525062003254565b73ffffffffffffffffffffffffffffffffffffffff16634a7501bc88600560009054906101000a900473ffffffffffffffffffffffffffffffffffffffff16601360009054906101000a900473ffffffffffffffffffffffffffffffffffffffff166040518463ffffffff167c0100000000000000000000000000000000000000000000000000000000028152600401808473ffffffffffffffffffffffffffffffffffffffff1673ffffffffffffffffffffffffffffffffffffffff1681526020018373ffffffffffffffffffffffffffffffffffffffff1673ffffffffffffffffffffffffffffffffffffffff1681526020018273ffffffffffffffffffffffffffffffffffffffff1673ffffffffffffffffffffffffffffffffffffffff1681526020019350505050600060405180830381600087803b158015620012ba57600080fd5b505af1158015620012cf573d6000803e3d6000fd5b5050505060038260050160006101000a81548160ff02191690836004811115620012f557fe5b0217905550620013138260060154876200343390919063ffffffff16565b95505b838060010194505062000fdd565b60008611156200140e57601360009054906101000a900473ffffffffffffffffffffffffffffffffffffffff1673ffffffffffffffffffffffffffffffffffffffff1663b5ce6b7888886040518363ffffffff167c0100000000000000000000000000000000000000000000000000000000028152600401808373ffffffffffffffffffffffffffffffffffffffff1673ffffffffffffffffffffffffffffffffffffffff16815260200182815260200192505050600060405180830381600087803b158015620013f457600080fd5b505af115801562001409573d6000803e3d6000fd5b505050505b6200143c601360009054906101000a900473ffffffffffffffffffffffffffffffffffffffff168862003453565b50505050505050565b6000806011838154811015156200145857fe5b90600052602060002090600b02019150600260038111156200147657fe5b600c60008460020160009054906101000a900473ffffffffffffffffffffffffffffffffffffffff1673ffffffffffffffffffffffffffffffffffffffff1673ffffffffffffffffffffffffffffffffffffffff16815260200190815260200160002060009054906101000a900460ff166003811115620014f357fe5b1415156200150057600080fd5b600160048111156200150e57fe5b8260050160009054906101000a900460ff1660048111156200152c57fe5b1415156200153957600080fd5b6200156a6001600460018154811015156200155057fe5b90600052602060002001546200341690919063ffffffff16565b600460018154811015156200157b57fe5b9060005260206000200181905550601360009054906101000a900473ffffffffffffffffffffffffffffffffffffffff1673ffffffffffffffffffffffffffffffffffffffff16639286b51e83600701548460020160009054906101000a900473ffffffffffffffffffffffffffffffffffffffff16866040518463ffffffff167c0100000000000000000000000000000000000000000000000000000000028152600401808481526020018373ffffffffffffffffffffffffffffffffffffffff1673ffffffffffffffffffffffffffffffffffffffff1681526020018281526020019350505050602060405180830381600087803b1580156200167f57600080fd5b505af115801562001694573d6000803e3d6000fd5b505050506040513d6020811015620016ab57600080fd5b81019080805190602001909291905050509050620016fe6040805190810160405280601c81526020017f54776f4b65794261736552657075746174696f6e52656769737472790000000081525062003254565b73ffffffffffffffffffffffffffffffffffffffff16630c34a68f8360020160009054906101000a900473ffffffffffffffffffffffffffffffffffffffff16600560009054906101000a900473ffffffffffffffffffffffffffffffffffffffff16601360009054906101000a900473ffffffffffffffffffffffffffffffffffffffff166040518463ffffffff167c0100000000000000000000000000000000000000000000000000000000028152600401808473ffffffffffffffffffffffffffffffffffffffff1673ffffffffffffffffffffffffffffffffffffffff1681526020018373ffffffffffffffffffffffffffffffffffffffff1673ffffffffffffffffffffffffffffffffffffffff1681526020018273ffffffffffffffffffffffffffffffffffffffff1673ffffffffffffffffffffffffffffffffffffffff1681526020019350505050600060405180830381600087803b1580156200186957600080fd5b505af11580156200187e573d6000803e3d6000fd5b50505050620018fe8260060154600960008560020160009054906101000a900473ffffffffffffffffffffffffffffffffffffffff1673ffffffffffffffffffffffffffffffffffffffff1673ffffffffffffffffffffffffffffffffffffffff168152602001908152602001600020546200343390919063ffffffff16565b600960008460020160009054906101000a900473ffffffffffffffffffffffffffffffffffffffff1673ffffffffffffffffffffffffffffffffffffffff1673ffffffffffffffffffffffffffffffffffffffff168152602001908152602001600020819055506200199581600460088154811015156200197b57fe5b90600052602060002001546200343390919063ffffffff16565b60046008815481101515620019a657fe5b9060005260206000200181905550601360009054906101000a900473ffffffffffffffffffffffffffffffffffffffff1673ffffffffffffffffffffffffffffffffffffffff16638cb9bbd883600901546040518263ffffffff167c010000000000000000000000000000000000000000000000000000000002815260040180828152602001915050600060405180830381600087803b15801562001a4a57600080fd5b505af115801562001a5f573d6000803e3d6000fd5b50505050601360009054906101000a900473ffffffffffffffffffffffffffffffffffffffff1673ffffffffffffffffffffffffffffffffffffffff16634eca80c683600101546040518263ffffffff167c010000000000000000000000000000000000000000000000000000000002815260040180828152602001915050600060405180830381600087803b15801562001af957600080fd5b505af115801562001b0e573d6000803e3d6000fd5b5050505062001b4682600601546004600681548110151562001b2c57fe5b90600052602060002001546200343390919063ffffffff16565b6004600681548110151562001b5757fe5b906000526020600020018190555060001515600f60008460020160009054906101000a900473ffffffffffffffffffffffffffffffffffffffff1673ffffffffffffffffffffffffffffffffffffffff1673ffffffffffffffffffffffffffffffffffffffff16815260200190815260200160002060009054906101000a900460ff161515141562001cb05762001c1460016004600581548110151562001bfa57fe5b90600052602060002001546200343390919063ffffffff16565b6004600581548110151562001c2557fe5b90600052602060002001819055506001600f60008460020160009054906101000a900473ffffffffffffffffffffffffffffffffffffffff1673ffffffffffffffffffffffffffffffffffffffff1673ffffffffffffffffffffffffffffffffffffffff16815260200190815260200160002060006101000a81548160ff0219169083151502179055505b80826008018190555060028260050160006101000a81548160ff0219169083600481111562001cdb57fe5b021790555062001d1160016004600381548110151562001cf757fe5b90600052602060002001546200343390919063ffffffff16565b6004600381548110151562001d2257fe5b906000526020600020018190555062001d7360106000858152602001908152602001600020546004600a81548110151562001d5957fe5b90600052602060002001546200343390919063ffffffff16565b6004600a81548110151562001d8457fe5b906000526020600020018190555062001dc68260020160009054906101000a900473ffffffffffffffffffffffffffffffffffffffff1683600601546200367e565b62001dfb8260020160009054906101000a900473ffffffffffffffffffffffffffffffffffffffff168484600a01546200382d565b505050565b60001515600260009054906101000a900460ff16151514151562001e2357600080fd5b600b60405190808252806020026020018201604052801562001e545781602001602082028038833980820191505090505b506004908051906020019062001e6c92919062004bc2565b5081601360006101000a81548173ffffffffffffffffffffffffffffffffffffffff021916908373ffffffffffffffffffffffffffffffffffffffff16021790555080600860006101000a81548173ffffffffffffffffffffffffffffffffffffffff021916908373ffffffffffffffffffffffffffffffffffffffff16021790555062001f2f6040805190810160405280601181526020017f54776f4b65794576656e74536f7572636500000000000000000000000000000081525062003254565b600660006101000a81548173ffffffffffffffffffffffffffffffffffffffff021916908373ffffffffffffffffffffffffffffffffffffffff16021790555082600560006101000a81548173ffffffffffffffffffffffffffffffffffffffff021916908373ffffffffffffffffffffffffffffffffffffffff160217905550836014908051906020019062001fc892919062004c14565b5085853062001fd662004c9b565b8080602001806020018473ffffffffffffffffffffffffffffffffffffffff1673ffffffffffffffffffffffffffffffffffffffff168152602001838103835286818151815260200191508051906020019080838360005b838110156200204b5780820151818401526020810190506200202e565b50505050905090810190601f168015620020795780820380516001836020036101000a031916815260200191505b50838103825285818151815260200191508051906020019080838360005b83811015620020b457808201518184015260208101905062002097565b50505050905090810190601f168015620020e25780820380516001836020036101000a031916815260200191505b5095505050505050604051809103906000f08015801562002107573d6000803e3d6000fd5b50601260006101000a81548173ffffffffffffffffffffffffffffffffffffffff021916908373ffffffffffffffffffffffffffffffffffffffff1602179055507f19985ea18cd249f098e93a4b03ad02328753eebe8cc6d372cf890ab4e5455519601260009054906101000a900473ffffffffffffffffffffffffffffffffffffffff168787604051808473ffffffffffffffffffffffffffffffffffffffff1673ffffffffffffffffffffffffffffffffffffffff1681526020018060200180602001838103835285818151815260200191508051906020019080838360005b8381101562002206578082015181840152602081019050620021e9565b50505050905090810190601f168015620022345780820380516001836020036101000a031916815260200191505b50838103825284818151815260200191508051906020019080838360005b838110156200226f57808201518184015260208101905062002252565b50505050905090810190601f1680156200229d5780820380516001836020036101000a031916815260200191505b509550505050505060405180910390a16001600260006101000a81548160ff021916908315150217905550505050505050565b601181815481101515620022e057fe5b90600052602060002090600b02016000915090508060000160009054906101000a900473ffffffffffffffffffffffffffffffffffffffff16908060010154908060020160009054906101000a900473ffffffffffffffffffffffffffffffffffffffff16908060030154908060040154908060050160009054906101000a900460ff169080600601549080600701549080600801549080600901549080600a015490508b565b60006011828154811015156200239957fe5b90600052602060002090600b02019050428160040154101515620023bc57600080fd5b8060020160009054906101000a900473ffffffffffffffffffffffffffffffffffffffff1673ffffffffffffffffffffffffffffffffffffffff163373ffffffffffffffffffffffffffffffffffffffff161415156200241b57600080fd5b600060048111156200242957fe5b8160050160009054906101000a900460ff1660048111156200244757fe5b1415620024a4576200247f6001600460008154811015156200246557fe5b90600052602060002001546200341690919063ffffffff16565b600460008154811015156200249057fe5b906000526020600020018190555062002533565b60016004811115620024b257fe5b8160050160009054906101000a900460ff166004811115620024d057fe5b14156200252d5762002508600160046001815481101515620024ee57fe5b90600052602060002001546200341690919063ffffffff16565b600460018154811015156200251957fe5b906000526020600020018190555062002532565b600080fd5b5b6200256360016004808154811015156200254957fe5b90600052602060002001546200343390919063ffffffff16565b6004808154811015156200257357fe5b906000526020600020018190555060048160050160006101000a81548160ff02191690836004811115620025a357fe5b0217905550601360009054906101000a900473ffffffffffffffffffffffffffffffffffffffff1673ffffffffffffffffffffffffffffffffffffffff1663b5ce6b783383600601546040518363ffffffff167c0100000000000000000000000000000000000000000000000000000000028152600401808373ffffffffffffffffffffffffffffffffffffffff1673ffffffffffffffffffffffffffffffffffffffff16815260200182815260200192505050600060405180830381600087803b1580156200267257600080fd5b505af115801562002687573d6000803e3d6000fd5b505050505050565b601360009054906101000a900473ffffffffffffffffffffffffffffffffffffffff1673ffffffffffffffffffffffffffffffffffffffff163373ffffffffffffffffffffffffffffffffffffffff16141515620026ec57600080fd5b8060018190555050565b6060600a600083600019166000191681526020019081526020016000208054806020026020016040519081016040528092919081815260200182805480156200279557602002820191906000526020600020905b8160009054906101000a900473ffffffffffffffffffffffffffffffffffffffff1673ffffffffffffffffffffffffffffffffffffffff16815260200190600101908083116200274a575b50505050509050919050565b601260009054906101000a900473ffffffffffffffffffffffffffffffffffffffff1681565b60008060009054906101000a900473ffffffffffffffffffffffffffffffffffffffff16905090565b6000600354905090565b600d6020528060005260406000206000915090505481565b6060600b60008373ffffffffffffffffffffffffffffffffffffffff1673ffffffffffffffffffffffffffffffffffffffff1681526020019081526020016000208054806020026020016040519081016040528092919081815260200182805480156200289f57602002820191906000526020600020905b8154815260200190600101908083116200288a575b50505050509050919050565b6000620028ed6040805190810160405280601981526020017f54776f4b65794d61696e7461696e65727352656769737472790000000000000081525062003254565b9050600560009054906101000a900473ffffffffffffffffffffffffffffffffffffffff1673ffffffffffffffffffffffffffffffffffffffff163373ffffffffffffffffffffffffffffffffffffffff16148062002a2157508073ffffffffffffffffffffffffffffffffffffffff1663cd2a81dc336040518263ffffffff167c0100000000000000000000000000000000000000000000000000000000028152600401808273ffffffffffffffffffffffffffffffffffffffff1673ffffffffffffffffffffffffffffffffffffffff168152602001915050602060405180830381600087803b158015620029e357600080fd5b505af1158015620029f8573d6000803e3d6000fd5b505050506040513d602081101562002a0f57600080fd5b81019080805190602001909291905050505b8062002b0257508073ffffffffffffffffffffffffffffffffffffffff16635cc7815c336040518263ffffffff167c0100000000000000000000000000000000000000000000000000000000028152600401808273ffffffffffffffffffffffffffffffffffffffff1673ffffffffffffffffffffffffffffffffffffffff168152602001915050602060405180830381600087803b15801562002ac457600080fd5b505af115801562002ad9573d6000803e3d6000fd5b505050506040513d602081101562002af057600080fd5b81019080805190602001909291905050505b151562002b0e57600080fd5b6001600381111562002b1c57fe5b600c60008473ffffffffffffffffffffffffffffffffffffffff1673ffffffffffffffffffffffffffffffffffffffff16815260200190815260200160002060009054906101000a900460ff16600381111562002b7557fe5b14151562002b8257600080fd5b62002b8d8262003a69565b5050565b6000600b60008373ffffffffffffffffffffffffffffffffffffffff1673ffffffffffffffffffffffffffffffffffffffff1681526020019081526020016000206001600b60008573ffffffffffffffffffffffffffffffffffffffff1673ffffffffffffffffffffffffffffffffffffffff168152602001908152602001600020805490500381548110151562002c2557fe5b90600052602060002001549050919050565b6000806000606060008060008060008062002c53600162003b00565b955062002c61600262003b00565b945062002c6f600362003b00565b9350600a60008760001916600019168152602001908152602001600020805490509250600a60008660001916600019168152602001908152602001600020805490509150600a6000856000191660001916815260200190815260200160002080549050905082828260048080548060200260200160405190810160405280929190818152602001828054801562002d2657602002820191906000526020600020905b81548152602001906001019080831162002d11575b50505050509050995099509950995050505050505090919293565b600062002d9a600c60008473ffffffffffffffffffffffffffffffffffffffff1673ffffffffffffffffffffffffffffffffffffffff16815260200190815260200160002060009054906101000a900460ff1662003b00565b9050919050565b60008060008062002db162004b2f565b601360009054906101000a900473ffffffffffffffffffffffffffffffffffffffff1673ffffffffffffffffffffffffffffffffffffffff163373ffffffffffffffffffffffffffffffffffffffff1614151562002e0e57600080fd5b62002e1a8a8862003c33565b62002e2589620040aa565b935062002e5062002e40858a6200343390919063ffffffff16565b8a6200341690919063ffffffff16565b925062002e8360016004600181548110151562002e6957fe5b90600052602060002001546200343390919063ffffffff16565b6004600181548110151562002e9457fe5b906000526020600020018190555062002ead89620041a5565b915061016060405190810160405280600560009054906101000a900473ffffffffffffffffffffffffffffffffffffffff1673ffffffffffffffffffffffffffffffffffffffff1681526020018481526020018b73ffffffffffffffffffffffffffffffffffffffff16815260200142815260200162002f4f62002f3f610e106001546200440c90919063ffffffff16565b426200343390919063ffffffff16565b81526020016001600481111562002f6257fe5b81526020018a8152602001898152602001600081526020018581526020018381525090506011819080600181540180825580915050906001820390600052602060002090600b02016000909192909190915060008201518160000160006101000a81548173ffffffffffffffffffffffffffffffffffffffff021916908373ffffffffffffffffffffffffffffffffffffffff1602179055506020820151816001015560408201518160020160006101000a81548173ffffffffffffffffffffffffffffffffffffffff021916908373ffffffffffffffffffffffffffffffffffffffff160217905550606082015181600301556080820151816004015560a08201518160050160006101000a81548160ff021916908360048111156200308557fe5b021790555060c0820151816006015560e082015181600701556101008201518160080155610120820151816009015561014082015181600a0155505050600b60008b73ffffffffffffffffffffffffffffffffffffffff1673ffffffffffffffffffffffffffffffffffffffff16815260200190815260200160002060035490806001815401808255809150509060018203906000526020600020016000909192909190915055506200313c8a8a6003546200444b565b85601060006003548152602001908152602001600020819055507f56f2a80b3bb17fa71f15d08d5a8dd990f5ee7aaefcfda4e2651cf27432fdaf7b6003546040518082815260200191505060405180910390a1620031a760016003546200343390919063ffffffff16565b60038190555060016003540394505050505095945050505050565b6000600960008373ffffffffffffffffffffffffffffffffffffffff1673ffffffffffffffffffffffffffffffffffffffff168152602001908152602001600020549050919050565b6000601560008373ffffffffffffffffffffffffffffffffffffffff1673ffffffffffffffffffffffffffffffffffffffff168152602001908152602001600020549050919050565b6000600860009054906101000a900473ffffffffffffffffffffffffffffffffffffffff1673ffffffffffffffffffffffffffffffffffffffff1663db7a6d90836040518263ffffffff167c01000000000000000000000000000000000000000000000000000000000281526004018080602001828103825283818151815260200191508051906020019080838360005b8381101562003302578082015181840152602081019050620032e5565b50505050905090810190601f168015620033305780820380516001836020036101000a031916815260200191505b5092505050602060405180830381600087803b1580156200335057600080fd5b505af115801562003365573d6000803e3d6000fd5b505050506040513d60208110156200337c57600080fd5b81019080805190602001909291905050509050919050565b60016003811115620033a257fe5b600c60008373ffffffffffffffffffffffffffffffffffffffff1673ffffffffffffffffffffffffffffffffffffffff16815260200190815260200160002060009054906101000a900460ff166003811115620033fb57fe5b1415156200340857600080fd5b620034138162004687565b50565b60008282111515156200342857600080fd5b818303905092915050565b600081830190508281101515156200344a57600080fd5b80905092915050565b600660009054906101000a900473ffffffffffffffffffffffffffffffffffffffff1673ffffffffffffffffffffffffffffffffffffffff1663d2097037601360009054906101000a900473ffffffffffffffffffffffffffffffffffffffff16600660009054906101000a900473ffffffffffffffffffffffffffffffffffffffff1673ffffffffffffffffffffffffffffffffffffffff16631a025f25856040518263ffffffff167c0100000000000000000000000000000000000000000000000000000000028152600401808273ffffffffffffffffffffffffffffffffffffffff1673ffffffffffffffffffffffffffffffffffffffff168152602001915050602060405180830381600087803b1580156200357257600080fd5b505af115801562003587573d6000803e3d6000fd5b505050506040513d60208110156200359e57600080fd5b81019080805190602001909291905050506040518363ffffffff167c0100000000000000000000000000000000000000000000000000000000028152600401808373ffffffffffffffffffffffffffffffffffffffff1673ffffffffffffffffffffffffffffffffffffffff1681526020018273ffffffffffffffffffffffffffffffffffffffff1673ffffffffffffffffffffffffffffffffffffffff16815260200192505050600060405180830381600087803b1580156200366157600080fd5b505af115801562003676573d6000803e3d6000fd5b505050505050565b60006200368b82620041a5565b9050620036e181601560008673ffffffffffffffffffffffffffffffffffffffff1673ffffffffffffffffffffffffffffffffffffffff168152602001908152602001600020546200343390919063ffffffff16565b601560008573ffffffffffffffffffffffffffffffffffffffff1673ffffffffffffffffffffffffffffffffffffffff16815260200190815260200160002081905550601260009054906101000a900473ffffffffffffffffffffffffffffffffffffffff1673ffffffffffffffffffffffffffffffffffffffff1663a9059cbb84836040518363ffffffff167c0100000000000000000000000000000000000000000000000000000000028152600401808373ffffffffffffffffffffffffffffffffffffffff1673ffffffffffffffffffffffffffffffffffffffff16815260200182815260200192505050602060405180830381600087803b158015620037ea57600080fd5b505af1158015620037ff573d6000803e3d6000fd5b505050506040513d60208110156200381657600080fd5b810190808051906020019092919050505050505050565b600660009054906101000a900473ffffffffffffffffffffffffffffffffffffffff1673ffffffffffffffffffffffffffffffffffffffff166319de3640601360009054906101000a900473ffffffffffffffffffffffffffffffffffffffff16600660009054906101000a900473ffffffffffffffffffffffffffffffffffffffff1673ffffffffffffffffffffffffffffffffffffffff16631a025f25876040518263ffffffff167c0100000000000000000000000000000000000000000000000000000000028152600401808273ffffffffffffffffffffffffffffffffffffffff1673ffffffffffffffffffffffffffffffffffffffff168152602001915050602060405180830381600087803b1580156200394c57600080fd5b505af115801562003961573d6000803e3d6000fd5b505050506040513d60208110156200397857600080fd5b810190808051906020019092919050505085856040518563ffffffff167c0100000000000000000000000000000000000000000000000000000000028152600401808573ffffffffffffffffffffffffffffffffffffffff1673ffffffffffffffffffffffffffffffffffffffff1681526020018473ffffffffffffffffffffffffffffffffffffffff1673ffffffffffffffffffffffffffffffffffffffff168152602001838152602001828152602001945050505050600060405180830381600087803b15801562003a4b57600080fd5b505af115801562003a60573d6000803e3d6000fd5b50505050505050565b60007f415050524f564544000000000000000000000000000000000000000000000000905062003a9a82826200471e565b6002600c60008473ffffffffffffffffffffffffffffffffffffffff1673ffffffffffffffffffffffffffffffffffffffff16815260200190815260200160002060006101000a81548160ff0219169083600381111562003af757fe5b02179055505050565b600081600381111562003b0f57fe5b6000600381111562003b1d57fe5b141562003b4d577f4e4f545f4558495354494e470000000000000000000000000000000000000000905062003c2e565b81600381111562003b5a57fe5b6001600381111562003b6857fe5b141562003b98577f50454e44494e475f415050524f56414c00000000000000000000000000000000905062003c2e565b81600381111562003ba557fe5b6002600381111562003bb357fe5b141562003be3577f415050524f564544000000000000000000000000000000000000000000000000905062003c2e565b81600381111562003bf057fe5b60038081111562003bfd57fe5b141562003c2d577f52454a4543544544000000000000000000000000000000000000000000000000905062003c2e565b5b919050565b60011515811515141562003eb05760038081111562003c4e57fe5b600c60008473ffffffffffffffffffffffffffffffffffffffff1673ffffffffffffffffffffffffffffffffffffffff16815260200190815260200160002060009054906101000a900460ff16600381111562003ca757fe5b1415151562003cb557600080fd5b6000600381111562003cc357fe5b600c60008473ffffffffffffffffffffffffffffffffffffffff1673ffffffffffffffffffffffffffffffffffffffff16815260200190815260200160002060009054906101000a900460ff16600381111562003d1c57fe5b141562003eaa576001600c60008473ffffffffffffffffffffffffffffffffffffffff1673ffffffffffffffffffffffffffffffffffffffff16815260200190815260200160002060006101000a81548160ff0219169083600381111562003d8057fe5b0217905550600a60007f50454e44494e475f415050524f56414c00000000000000000000000000000000600019166000191681526020019081526020016000208290806001815401808255809150509060018203906000526020600020016000909192909190916101000a81548173ffffffffffffffffffffffffffffffffffffffff021916908373ffffffffffffffffffffffffffffffffffffffff160217905550506001600a60007f50454e44494e475f415050524f56414c00000000000000000000000000000000600019166000191681526020019081526020016000208054905003600d60008473ffffffffffffffffffffffffffffffffffffffff1673ffffffffffffffffffffffffffffffffffffffff168152602001908152602001600020819055505b620040a6565b6000600381111562003ebe57fe5b600c60008473ffffffffffffffffffffffffffffffffffffffff1673ffffffffffffffffffffffffffffffffffffffff16815260200190815260200160002060009054906101000a900460ff16600381111562003f1757fe5b1415620040a5576002600c60008473ffffffffffffffffffffffffffffffffffffffff1673ffffffffffffffffffffffffffffffffffffffff16815260200190815260200160002060006101000a81548160ff0219169083600381111562003f7b57fe5b0217905550600a60007f415050524f564544000000000000000000000000000000000000000000000000600019166000191681526020019081526020016000208290806001815401808255809150509060018203906000526020600020016000909192909190916101000a81548173ffffffffffffffffffffffffffffffffffffffff021916908373ffffffffffffffffffffffffffffffffffffffff160217905550506001600a60007f415050524f564544000000000000000000000000000000000000000000000000600019166000191681526020019081526020016000208054905003600d60008473ffffffffffffffffffffffffffffffffffffffff1673ffffffffffffffffffffffffffffffffffffffff168152602001908152602001600020819055505b5b5050565b6000806200419a60646200418b600660009054906101000a900473ffffffffffffffffffffffffffffffffffffffff1673ffffffffffffffffffffffffffffffffffffffff16635211fb006040518163ffffffff167c0100000000000000000000000000000000000000000000000000000000028152600401602060405180830381600087803b1580156200413e57600080fd5b505af115801562004153573d6000803e3d6000fd5b505050506040513d60208110156200416a57600080fd5b8101908080519060200190929190505050866200440c90919063ffffffff16565b62004b1890919063ffffffff16565b905080915050919050565b60008060008060405180807f4554480000000000000000000000000000000000000000000000000000000000815250600301905060405180910390206000191660146040518082805460018160011615610100020316600290048015620042465780601f106200422357610100808354040283529182019162004246565b820191906000526020600020905b81548152906001019060200180831162004231575b50509150506040518091039020600019161415620042675784935062004404565b620042a76040805190810160405280601a81526020017f54776f4b657945786368616e676552617465436f6e747261637400000000000081525062003254565b92508273ffffffffffffffffffffffffffffffffffffffff1663744248db60146040518263ffffffff167c010000000000000000000000000000000000000000000000000000000002815260040180806020018281038252838181546001816001161561010002031660029004815260200191508054600181600116156101000203166002900480156200437f5780601f1062004353576101008083540402835291602001916200437f565b820191906000526020600020905b8154815290600101906020018083116200436157829003601f168201915b505092505050602060405180830381600087803b158015620043a057600080fd5b505af1158015620043b5573d6000803e3d6000fd5b505050506040513d6020811015620043cc57600080fd5b81019080805190602001909291905050509150620043fe670de0b6b3a764000083870262004b1890919063ffffffff16565b90508093505b505050919050565b60008083141562004421576000905062004445565b81830290508183828115156200443357fe5b041415156200444157600080fd5b8090505b92915050565b600660009054906101000a900473ffffffffffffffffffffffffffffffffffffffff1673ffffffffffffffffffffffffffffffffffffffff1663f45bbc05601360009054906101000a900473ffffffffffffffffffffffffffffffffffffffff16600660009054906101000a900473ffffffffffffffffffffffffffffffffffffffff1673ffffffffffffffffffffffffffffffffffffffff16631a025f25876040518263ffffffff167c0100000000000000000000000000000000000000000000000000000000028152600401808273ffffffffffffffffffffffffffffffffffffffff1673ffffffffffffffffffffffffffffffffffffffff168152602001915050602060405180830381600087803b1580156200456a57600080fd5b505af11580156200457f573d6000803e3d6000fd5b505050506040513d60208110156200459657600080fd5b810190808051906020019092919050505085856040518563ffffffff167c0100000000000000000000000000000000000000000000000000000000028152600401808573ffffffffffffffffffffffffffffffffffffffff1673ffffffffffffffffffffffffffffffffffffffff1681526020018473ffffffffffffffffffffffffffffffffffffffff1673ffffffffffffffffffffffffffffffffffffffff168152602001838152602001828152602001945050505050600060405180830381600087803b1580156200466957600080fd5b505af11580156200467e573d6000803e3d6000fd5b50505050505050565b60007f52454a45435445440000000000000000000000000000000000000000000000009050620046b882826200471e565b6003600c60008473ffffffffffffffffffffffffffffffffffffffff1673ffffffffffffffffffffffffffffffffffffffff16815260200190815260200160002060006101000a81548160ff021916908360038111156200471557fe5b02179055505050565b6000806060600080600c60008873ffffffffffffffffffffffffffffffffffffffff1673ffffffffffffffffffffffffffffffffffffffff16815260200190815260200160002060009054906101000a900460ff169450620047808562003b00565b9350600a600085600019166000191681526020019081526020016000208054806020026020016040519081016040528092919081815260200182805480156200481f57602002820191906000526020600020905b8160009054906101000a900473ffffffffffffffffffffffffffffffffffffffff1673ffffffffffffffffffffffffffffffffffffffff1681526020019060010190808311620047d4575b50505050509250600d60008873ffffffffffffffffffffffffffffffffffffffff1673ffffffffffffffffffffffffffffffffffffffff1681526020019081526020016000205491508673ffffffffffffffffffffffffffffffffffffffff1683838151811015156200488e57fe5b9060200190602002015173ffffffffffffffffffffffffffffffffffffffff16141562004b0f57600a600087600019166000191681526020019081526020016000208790806001815401808255809150509060018203906000526020600020016000909192909190916101000a81548173ffffffffffffffffffffffffffffffffffffffff021916908373ffffffffffffffffffffffffffffffffffffffff160217905550506001600a600088600019166000191681526020019081526020016000208054905003600d60008973ffffffffffffffffffffffffffffffffffffffff1673ffffffffffffffffffffffffffffffffffffffff16815260200190815260200160002081905550826001845103815181101515620049ac57fe5b906020019060200201519050808383815181101515620049c857fe5b9060200190602002019073ffffffffffffffffffffffffffffffffffffffff16908173ffffffffffffffffffffffffffffffffffffffff168152505081600d60008373ffffffffffffffffffffffffffffffffffffffff1673ffffffffffffffffffffffffffffffffffffffff1681526020019081526020016000208190555082600184510381518110151562004a5b57fe5b906020019060200201600073ffffffffffffffffffffffffffffffffffffffff1681525082600a60008660001916600019168152602001908152602001600020908051906020019062004ab092919062004cac565b5062004ae56001600a60008760001916600019168152602001908152602001600020805490506200341690919063ffffffff16565b600a600086600019166000191681526020019081526020016000208162004b0d919062004d3b565b505b50505050505050565b6000818381151562004b2657fe5b04905092915050565b61016060405190810160405280600073ffffffffffffffffffffffffffffffffffffffff16815260200160008152602001600073ffffffffffffffffffffffffffffffffffffffff16815260200160008152602001600081526020016000600481111562004b9957fe5b815260200160008152602001600081526020016000815260200160008152602001600081525090565b82805482825590600052602060002090810192821562004c01579160200282015b8281111562004c0057825182559160200191906001019062004be3565b5b50905062004c10919062004d6a565b5090565b828054600181600116156101000203166002900490600052602060002090601f016020900481019282601f1062004c5757805160ff191683800117855562004c88565b8280016001018555821562004c88579182015b8281111562004c8757825182559160200191906001019062004c6a565b5b50905062004c97919062004d6a565b5090565b604051610c2b8062004dd983390190565b82805482825590600052602060002090810192821562004d28579160200282015b8281111562004d275782518260006101000a81548173ffffffffffffffffffffffffffffffffffffffff021916908373ffffffffffffffffffffffffffffffffffffffff1602179055509160200191906001019062004ccd565b5b50905062004d37919062004d92565b5090565b81548183558181111562004d655781836000526020600020918201910162004d64919062004d6a565b5b505050565b62004d8f91905b8082111562004d8b57600081600090555060010162004d71565b5090565b90565b62004dd591905b8082111562004dd157600081816101000a81549073ffffffffffffffffffffffffffffffffffffffff02191690555060010162004d99565b5090565b90560060806040526b204fce5e3e250261100000006000556012600360006101000a81548160ff021916908360ff16021790555034801561003c57600080fd5b50604051610c2b380380610c2b83398101806040528101908080518201929190602001805182019291906020018051906020019092919050505080600360016101000a81548173ffffffffffffffffffffffffffffffffffffffff021916908373ffffffffffffffffffffffffffffffffffffffff16021790555082600190805190602001906100cd92919061019a565b5081600290805190602001906100e492919061019a565b50600054600560008373ffffffffffffffffffffffffffffffffffffffff1673ffffffffffffffffffffffffffffffffffffffff168152602001908152602001600020819055508073ffffffffffffffffffffffffffffffffffffffff163073ffffffffffffffffffffffffffffffffffffffff167fddf252ad1be2c89b69c2b068fc378daa952ba7f163c4a11628f55a4df523b3ef6000546040518082815260200191505060405180910390a350505061023f565b828054600181600116156101000203166002900490600052602060002090601f016020900481019282601f106101db57805160ff1916838001178555610209565b82800160010185558215610209579182015b828111156102085782518255916020019190600101906101ed565b5b509050610216919061021a565b5090565b61023c91905b80821115610238576000816000905550600101610220565b5090565b90565b6109dd8061024e6000396000f3006080604052600436106100a4576000357c0100000000000000000000000000000000000000000000000000000000900463ffffffff16806306fdde03146100a9578063095ea7b31461013957806318160ddd1461019e57806323b872dd146101c9578063313ce5671461024e57806370a082311461027f5780638da5cb5b146102d657806395d89b411461032d578063a9059cbb146103bd578063dd62ed3e14610422575b600080fd5b3480156100b557600080fd5b506100be610499565b6040518080602001828103825283818151815260200191508051906020019080838360005b838110156100fe5780820151818401526020810190506100e3565b50505050905090810190601f16801561012b5780820380516001836020036101000a031916815260200191505b509250505060405180910390f35b34801561014557600080fd5b50610184600480360381019080803573ffffffffffffffffffffffffffffffffffffffff16906020019092919080359060200190929190505050610537565b604051808215151515815260200191505060405180910390f35b3480156101aa57600080fd5b506101b361053e565b6040518082815260200191505060405180910390f35b3480156101d557600080fd5b50610234600480360381019080803573ffffffffffffffffffffffffffffffffffffffff169060200190929190803573ffffffffffffffffffffffffffffffffffffffff16906020019092919080359060200190929190505050610547565b604051808215151515815260200191505060405180910390f35b34801561025a57600080fd5b5061026361054e565b604051808260ff1660ff16815260200191505060405180910390f35b34801561028b57600080fd5b506102c0600480360381019080803573ffffffffffffffffffffffffffffffffffffffff169060200190929190505050610561565b6040518082815260200191505060405180910390f35b3480156102e257600080fd5b506102eb6105aa565b604051808273ffffffffffffffffffffffffffffffffffffffff1673ffffffffffffffffffffffffffffffffffffffff16815260200191505060405180910390f35b34801561033957600080fd5b506103426105d0565b6040518080602001828103825283818151815260200191508051906020019080838360005b83811015610382578082015181840152602081019050610367565b50505050905090810190601f1680156103af5780820380516001836020036101000a031916815260200191505b509250505060405180910390f35b3480156103c957600080fd5b50610408600480360381019080803573ffffffffffffffffffffffffffffffffffffffff1690602001909291908035906020019092919050505061066e565b604051808215151515815260200191505060405180910390f35b34801561042e57600080fd5b50610483600480360381019080803573ffffffffffffffffffffffffffffffffffffffff169060200190929190803573ffffffffffffffffffffffffffffffffffffffff1690602001909291905050506108ef565b6040518082815260200191505060405180910390f35b60018054600181600116156101000203166002900480601f01602080910402602001604051908101604052809291908181526020018280546001816001161561010002031660029004801561052f5780601f106105045761010080835404028352916020019161052f565b820191906000526020600020905b81548152906001019060200180831161051257829003601f168201915b505050505081565b6000806000fd5b60008054905090565b6000806000fd5b600360009054906101000a900460ff1681565b6000600560008373ffffffffffffffffffffffffffffffffffffffff1673ffffffffffffffffffffffffffffffffffffffff168152602001908152602001600020549050919050565b600360019054906101000a900473ffffffffffffffffffffffffffffffffffffffff1681565b60028054600181600116156101000203166002900480601f0160208091040260200160405190810160405280929190818152602001828054600181600116156101000203166002900480156106665780601f1061063b57610100808354040283529160200191610666565b820191906000526020600020905b81548152906001019060200180831161064957829003601f168201915b505050505081565b6000600360019054906101000a900473ffffffffffffffffffffffffffffffffffffffff1673ffffffffffffffffffffffffffffffffffffffff163373ffffffffffffffffffffffffffffffffffffffff161415156106cc57600080fd5b600560003373ffffffffffffffffffffffffffffffffffffffff1673ffffffffffffffffffffffffffffffffffffffff16815260200190815260200160002054821115151561071a57600080fd5b600073ffffffffffffffffffffffffffffffffffffffff168373ffffffffffffffffffffffffffffffffffffffff161415151561075657600080fd5b6107a882600560003373ffffffffffffffffffffffffffffffffffffffff1673ffffffffffffffffffffffffffffffffffffffff1681526020019081526020016000205461097690919063ffffffff16565b600560003373ffffffffffffffffffffffffffffffffffffffff1673ffffffffffffffffffffffffffffffffffffffff1681526020019081526020016000208190555061083d82600560008673ffffffffffffffffffffffffffffffffffffffff1673ffffffffffffffffffffffffffffffffffffffff1681526020019081526020016000205461099290919063ffffffff16565b600560008573ffffffffffffffffffffffffffffffffffffffff1673ffffffffffffffffffffffffffffffffffffffff168152602001908152602001600020819055508273ffffffffffffffffffffffffffffffffffffffff163373ffffffffffffffffffffffffffffffffffffffff167fddf252ad1be2c89b69c2b068fc378daa952ba7f163c4a11628f55a4df523b3ef846040518082815260200191505060405180910390a36001905092915050565b6000600460008473ffffffffffffffffffffffffffffffffffffffff1673ffffffffffffffffffffffffffffffffffffffff16815260200190815260200160002060008373ffffffffffffffffffffffffffffffffffffffff1673ffffffffffffffffffffffffffffffffffffffff16815260200190815260200160002054905092915050565b600082821115151561098757600080fd5b818303905092915050565b600081830190508281101515156109a857600080fd5b809050929150505600a165627a7a72305820b3da2d969a42374f713fcd309b0c5c1aa9fc6d675538393e70006d504e313a190029a165627a7a723058207299f507feaf9eaa028dba79084e785374b5773da1b01fb46f972e329419518d0029",
  "source": "pragma solidity ^0.4.24;\n\n\nimport \"./InvoiceToken.sol\";\nimport \"../interfaces/ITwoKeyDonationCampaign.sol\";\nimport \"../interfaces/ITwoKeyBaseReputationRegistry.sol\";\nimport \"../interfaces/ITwoKeyExchangeRateContract.sol\";\nimport \"../upgradable-pattern-campaigns/UpgradeableCampaign.sol\";\nimport \"../campaign-mutual-contracts/TwoKeyCampaignConversionHandler.sol\";\n\n\ncontract TwoKeyDonationConversionHandler is UpgradeableCampaign, TwoKeyCampaignConversionHandler {\n\n    Conversion [] public conversions;\n    InvoiceToken public erc20InvoiceToken; // ERC20 token which will be issued as an invoice\n\n    ITwoKeyDonationCampaign twoKeyCampaign;\n\n    string currency;\n\n    mapping(address => uint256) private converterToAmountOfDonationTokensReceived;\n\n\n    //Struct to represent donation in Ether\n    struct Conversion {\n        address contractor; // Contractor (creator) of campaign\n        uint256 contractorProceedsETHWei; // How much contractor will receive for this conversion\n        address converter; // Converter is one who's buying tokens -> plasma address\n        uint conversionCreatedAt; // Time when conversion was created\n        uint conversionExpiresAt; // Time when conversion expires\n        ConversionState state;\n        uint256 conversionAmount; // Amount for conversion (In ETH / FIAT)\n        uint256 maxReferralRewardETHWei; // Total referral reward for the conversion\n        uint256 maxReferralReward2key;\n        uint256 moderatorFeeETHWei;\n        uint256 tokensBought;\n    }\n\n    event InvoiceTokenCreated(\n        address token,\n        string tokenName,\n        string tokenSymbol\n    );\n\n\n    function setInitialParamsDonationConversionHandler(\n        string tokenName,\n        string tokenSymbol,\n        string _currency,\n        address _contractor,\n        address _twoKeyDonationCampaign,\n        address _twoKeySingletonRegistry\n    )\n    public\n    {\n        require(isCampaignInitialized == false);\n\n        counters = new uint[](11);\n        twoKeyCampaign = ITwoKeyDonationCampaign(_twoKeyDonationCampaign);\n        twoKeySingletonRegistry = _twoKeySingletonRegistry;\n        twoKeyEventSource = getAddressFromTwoKeySingletonRegistry(\"TwoKeyEventSource\");\n        contractor = _contractor;\n        currency = _currency;\n        // Deploy an ERC20 token which will be used as the Invoice\n        erc20InvoiceToken = new InvoiceToken(tokenName,tokenSymbol,address(this));\n        // Emit an event with deployed token address, name, and symbol\n        emit InvoiceTokenCreated(address(erc20InvoiceToken), tokenName, tokenSymbol);\n        isCampaignInitialized = true;\n    }\n\n    function setExpiryConversionInHours(\n        uint _expiryConversionInHours\n    )\n    public\n    {\n        require(msg.sender == address(twoKeyCampaign));\n        expiryConversionInHours = _expiryConversionInHours;\n    }\n\n\n    function emitConvertedEvent(\n        address converterAddress,\n        uint conversionAmount,\n        uint conversionId\n    )\n    internal\n    view\n    {\n        ITwoKeyEventSource(twoKeyEventSource).convertedDonationV2(\n            twoKeyCampaign,\n            ITwoKeyEventSource(twoKeyEventSource).plasmaOf(converterAddress),\n            conversionAmount,\n            conversionId\n        );\n    }\n\n    function emitExecutedEvent(\n        address _converterAddress,\n        uint conversionId,\n        uint tokens\n    )\n    internal\n    view\n    {\n        ITwoKeyEventSource(twoKeyEventSource).executedV1(\n            twoKeyCampaign,\n            ITwoKeyEventSource(twoKeyEventSource).plasmaOf(_converterAddress),\n            conversionId,\n            tokens\n        );\n    }\n\n    function emitRejectedEvent(\n        address _campaignAddress,\n        address _converterAddress\n    )\n    internal\n    view\n    {\n        ITwoKeyEventSource(twoKeyEventSource).rejected(\n            twoKeyCampaign,\n            ITwoKeyEventSource(twoKeyEventSource).plasmaOf(_converterAddress)\n        );\n    }\n\n\n\n    /**\n     * @notice Function to calculate amount of donation tokens to be received\n     * @param _conversionAmountETHWei is the amount of conversion in WEI\n     */\n    function calculateAmountOfTokens(\n        uint _conversionAmountETHWei\n    )\n    internal\n    view\n    returns (uint)\n    {\n        if(keccak256(currency) == keccak256('ETH')) {\n            return _conversionAmountETHWei;\n        } else {\n            address twoKeyExchangeRateContract = getAddressFromTwoKeySingletonRegistry(\"TwoKeyExchangeRateContract\");\n            uint rate = ITwoKeyExchangeRateContract(twoKeyExchangeRateContract).getBaseToTargetRate(currency);\n            uint conversionAmountInFIAT = (_conversionAmountETHWei*rate).div(10**18);\n            return conversionAmountInFIAT;\n        }\n    }\n\n\n    function transferInvoiceToken(\n        address _converter,\n        uint _conversionAmountETHWei\n    )\n    internal\n    {\n        uint amountOfTokens = calculateAmountOfTokens(_conversionAmountETHWei);\n        converterToAmountOfDonationTokensReceived[_converter] = converterToAmountOfDonationTokensReceived[_converter].add(amountOfTokens);\n        erc20InvoiceToken.transfer(_converter, amountOfTokens);\n    }\n\n\n    /**\n     * @param _converterAddress is the one who calls join and donate function\n     */\n    function supportForCreateConversion(\n        address _converterAddress,\n        uint _conversionAmount,\n        uint _maxReferralRewardETHWei,\n        bool _isKYCRequired,\n        uint _conversionAmountCampaignCurrency\n    )\n    public\n    returns (uint)\n    {\n        require(msg.sender == address(twoKeyCampaign));\n\n        handleConverterState(_converterAddress, _isKYCRequired);\n\n        uint256 _moderatorFeeETHWei = calculateModeratorFee(_conversionAmount);\n        uint256 _contractorProceeds = _conversionAmount.sub(_maxReferralRewardETHWei.add(_moderatorFeeETHWei));\n        counters[1] = counters[1].add(1);\n\n        uint amountOfTokens = calculateAmountOfTokens(_conversionAmount);\n\n        Conversion memory c = Conversion(\n            contractor,\n            _contractorProceeds,\n            _converterAddress,\n            now,\n            now.add(expiryConversionInHours.mul(1 hours)),\n            ConversionState.APPROVED,\n            _conversionAmount,\n            _maxReferralRewardETHWei,\n            0,\n            _moderatorFeeETHWei,\n            amountOfTokens\n        );\n\n        conversions.push(c);\n        converterToHisConversions[_converterAddress].push(numberOfConversions);\n        emitConvertedEvent(_converterAddress, _conversionAmount, numberOfConversions);\n\n        conversionToCampaignCurrencyAmountAtTimeOfCreation[numberOfConversions] = _conversionAmountCampaignCurrency;\n        emit ConversionCreated(numberOfConversions);\n        numberOfConversions = numberOfConversions.add(1);\n\n        return numberOfConversions-1;\n\n    }\n\n    function executeConversion(\n        uint _conversionId\n    )\n    public\n    {\n        Conversion conversion = conversions[_conversionId];\n        require(converterToState[conversion.converter] == ConverterState.APPROVED);\n        require(conversion.state == ConversionState.APPROVED);\n\n        counters[1] = counters[1].sub(1); //Decrease number of approved conversions\n\n//         Buy tokens from campaign and distribute rewards between referrers\n        uint totalReward2keys = twoKeyCampaign.buyTokensAndDistributeReferrerRewards(\n            conversion.maxReferralRewardETHWei,\n            conversion.converter,\n            _conversionId\n        );\n\n\n        // Update reputation points in registry for conversion executed event\n        ITwoKeyBaseReputationRegistry(getAddressFromTwoKeySingletonRegistry(\"TwoKeyBaseReputationRegistry\")).updateOnConversionExecutedEvent(\n            conversion.converter,\n            contractor,\n            twoKeyCampaign\n        );\n\n\n        amountConverterSpentEthWEI[conversion.converter] = amountConverterSpentEthWEI[conversion.converter].add(conversion.conversionAmount);\n        counters[8] = counters[8].add(totalReward2keys);\n        twoKeyCampaign.buyTokensForModeratorRewards(conversion.moderatorFeeETHWei);\n        twoKeyCampaign.updateContractorProceeds(conversion.contractorProceedsETHWei);\n\n        counters[6] = counters[6].add(conversion.conversionAmount);\n\n        if(doesConverterHaveExecutedConversions[conversion.converter] == false) {\n            counters[5] = counters[5].add(1); //increase number of unique converters\n            doesConverterHaveExecutedConversions[conversion.converter] = true;\n        }\n\n        conversion.maxReferralReward2key = totalReward2keys;\n        conversion.state = ConversionState.EXECUTED;\n        counters[3] = counters[3].add(1); //Increase number of executed conversions\n\n        counters[10] = counters[10].add(conversionToCampaignCurrencyAmountAtTimeOfCreation[_conversionId]);\n        transferInvoiceToken(conversion.converter, conversion.conversionAmount);\n        emitExecutedEvent(conversion.converter, _conversionId, conversion.tokensBought);\n    }\n\n\n    function rejectConverter(\n        address _converter\n    )\n    public\n    onlyContractorOrMaintainer\n    {\n        rejectConverterInternal(_converter);\n        uint refundAmount = 0;\n        uint len = converterToHisConversions[_converter].length;\n\n        for(uint i=0; i<len; i++) {\n            uint conversionId = converterToHisConversions[_converter][i];\n            Conversion c = conversions[conversionId];\n\n            //In this case since we don't support FIAT, every conversion is auto approved\n            if(c.state == ConversionState.APPROVED) {\n                counters[1] = counters[1].sub(1); // Reduce number of approved conversions\n                counters[2] = counters[2].add(1); //Increase number of rejected conversions\n                ITwoKeyBaseReputationRegistry(getAddressFromTwoKeySingletonRegistry(\"TwoKeyBaseReputationRegistry\")).updateOnConversionRejectedEvent(_converter, contractor, twoKeyCampaign);\n                c.state = ConversionState.REJECTED;\n                refundAmount = refundAmount.add(c.conversionAmount);\n            }\n        }\n\n        if(refundAmount > 0) {\n            twoKeyCampaign.sendBackEthWhenConversionCancelledOrRejected(_converter, refundAmount);\n        }\n\n        emitRejectedEvent(twoKeyCampaign, _converter);\n    }\n\n    /**\n     * @notice Function to cancel conversion and get back money\n     * @param _conversionId is the id of the conversion\n     * @dev returns all the funds to the converter back\n     */\n    function converterCancelConversion(\n        uint _conversionId\n    )\n    public\n    {\n        Conversion conversion = conversions[_conversionId];\n\n        require(conversion.conversionExpiresAt < block.timestamp);\n        require(msg.sender == conversion.converter);\n\n        if(conversion.state == ConversionState.PENDING_APPROVAL) {\n            counters[0] = counters[0].sub(1); // Reduce number of pending conversions\n        } else if (conversion.state == ConversionState.APPROVED) {\n            counters[1] = counters[1].sub(1); // Reduce number of approved conversions\n        } else {\n            revert(); // If conversion is not in either pending or approved state it can't be cancelled\n        }\n        counters[4] = counters[4].add(1); // Increase number of cancelled conversions\n        conversion.state = ConversionState.CANCELLED_BY_CONVERTER;\n\n\n        twoKeyCampaign.sendBackEthWhenConversionCancelledOrRejected(msg.sender, conversion.conversionAmount);\n    }\n\n\n    /**\n     * @notice Function to get conversion details by id\n     * @param conversionId is the id of conversion\n     */\n    function getConversion(\n        uint conversionId\n    )\n    external\n    view\n    returns (bytes)\n    {\n        Conversion memory conversion = conversions[conversionId];\n\n        address converter; // Defaults to 0x0\n\n        if(isConverterAnonymous[conversion.converter] == false) {\n            converter = conversion.converter;\n        }\n\n        return abi.encodePacked (\n            conversion.contractor,\n            converter,\n            conversion.contractorProceedsETHWei,\n            conversion.conversionAmount,\n            conversion.tokensBought,\n            conversion.maxReferralRewardETHWei,\n            conversion.maxReferralReward2key,\n            conversion.moderatorFeeETHWei,\n            conversion.state\n        );\n    }\n\n    function getAmountConverterSpent(\n        address converter\n    )\n    public\n    view\n    returns (uint)\n    {\n        return amountConverterSpentEthWEI[converter];\n    }\n\n    function getAmountOfDonationTokensConverterReceived(\n        address converter\n    )\n    public\n    view\n    returns (uint)\n    {\n        return converterToAmountOfDonationTokensReceived[converter];\n    }\n\n}\n",
  "sourcePath": "/Users/nikolamadjarevic/Desktop/2key/contracts/contracts/2key/donation-campaign-contracts/TwoKeyDonationConversionHandler.sol",
  "compiler": {
    "name": "solc",
    "version": "0.4.24+commit.e67f0147.Emscripten.clang"
  },
  "schemaVersion": "2.0.1",
  "updatedAt": "2019-11-07T08:14:37.686Z"
}