{
  "contractName": "TwoKeyDonationLogicHandler",
  "abi": [
    {
      "constant": true,
      "inputs": [
        {
          "name": "_user",
          "type": "address"
        },
        {
          "name": "plasma",
          "type": "bool"
        },
        {
          "name": "signature",
          "type": "bytes"
        }
      ],
      "name": "getSuperStatistics",
      "outputs": [
        {
          "name": "",
          "type": "bytes"
        }
      ],
      "payable": false,
      "stateMutability": "view",
      "type": "function"
    },
    {
      "constant": true,
      "inputs": [
        {
          "name": "me",
          "type": "address"
        }
      ],
      "name": "ethereumOf",
      "outputs": [
        {
          "name": "",
          "type": "address"
        }
      ],
      "payable": false,
      "stateMutability": "view",
      "type": "function"
    },
    {
      "constant": true,
      "inputs": [],
      "name": "ALLOWED_GAP",
      "outputs": [
        {
          "name": "",
          "type": "uint256"
        }
      ],
      "payable": false,
      "stateMutability": "view",
      "type": "function"
    },
    {
      "constant": true,
      "inputs": [
        {
          "name": "me",
          "type": "address"
        }
      ],
      "name": "plasmaOf",
      "outputs": [
        {
          "name": "",
          "type": "address"
        }
      ],
      "payable": false,
      "stateMutability": "view",
      "type": "function"
    },
    {
      "constant": true,
      "inputs": [
        {
          "name": "",
          "type": "address"
        }
      ],
      "name": "referrerPlasma2TotalEarnings2key",
      "outputs": [
        {
          "name": "",
          "type": "uint256"
        }
      ],
      "payable": false,
      "stateMutability": "view",
      "type": "function"
    },
    {
      "constant": true,
      "inputs": [
        {
          "name": "_referrer",
          "type": "address"
        }
      ],
      "name": "getReferrerPlasmaTotalEarnings",
      "outputs": [
        {
          "name": "",
          "type": "uint256"
        }
      ],
      "payable": false,
      "stateMutability": "view",
      "type": "function"
    },
    {
      "constant": true,
      "inputs": [],
      "name": "getIncentiveModel",
      "outputs": [
        {
          "name": "",
          "type": "uint8"
        }
      ],
      "payable": false,
      "stateMutability": "view",
      "type": "function"
    },
    {
      "constant": false,
      "inputs": [
        {
          "name": "_converter",
          "type": "address"
        },
        {
          "name": "_conversionId",
          "type": "uint256"
        },
        {
          "name": "totalBounty2keys",
          "type": "uint256"
        }
      ],
      "name": "updateRefchainRewards",
      "outputs": [],
      "payable": false,
      "stateMutability": "nonpayable",
      "type": "function"
    },
    {
      "constant": true,
      "inputs": [],
      "name": "campaignRaisedIncludingPendingConversions",
      "outputs": [
        {
          "name": "",
          "type": "uint256"
        }
      ],
      "payable": false,
      "stateMutability": "view",
      "type": "function"
    },
    {
      "constant": false,
      "inputs": [
        {
          "name": "value",
          "type": "uint256"
        }
      ],
      "name": "updateMinContributionETHOrUSD",
      "outputs": [],
      "payable": false,
      "stateMutability": "nonpayable",
      "type": "function"
    },
    {
      "constant": true,
      "inputs": [],
      "name": "implementation",
      "outputs": [
        {
          "name": "",
          "type": "address"
        }
      ],
      "payable": false,
      "stateMutability": "view",
      "type": "function"
    },
    {
      "constant": true,
      "inputs": [],
      "name": "conversionHandler",
      "outputs": [
        {
          "name": "",
          "type": "address"
        }
      ],
      "payable": false,
      "stateMutability": "view",
      "type": "function"
    },
    {
      "constant": true,
      "inputs": [],
      "name": "twoKeyCampaign",
      "outputs": [
        {
          "name": "",
          "type": "address"
        }
      ],
      "payable": false,
      "stateMutability": "view",
      "type": "function"
    },
    {
      "constant": true,
      "inputs": [
        {
          "name": "_referrerPlasmaList",
          "type": "address[]"
        }
      ],
      "name": "getReferrersBalancesAndTotalEarnings",
      "outputs": [
        {
          "name": "",
          "type": "uint256[]"
        },
        {
          "name": "",
          "type": "uint256[]"
        }
      ],
      "payable": false,
      "stateMutability": "view",
      "type": "function"
    },
    {
      "constant": true,
      "inputs": [
        {
          "name": "_referrerAddress",
          "type": "address"
        },
        {
          "name": "_sig",
          "type": "bytes"
        },
        {
          "name": "_conversionIds",
          "type": "uint256[]"
        }
      ],
      "name": "getReferrerBalanceAndTotalEarningsAndNumberOfConversions",
      "outputs": [
        {
          "name": "",
          "type": "uint256"
        },
        {
          "name": "",
          "type": "uint256"
        },
        {
          "name": "",
          "type": "uint256"
        },
        {
          "name": "",
          "type": "uint256[]"
        },
        {
          "name": "",
          "type": "address"
        }
      ],
      "payable": false,
      "stateMutability": "view",
      "type": "function"
    },
    {
      "constant": true,
      "inputs": [
        {
          "name": "",
          "type": "address"
        }
      ],
      "name": "referrerPlasmaAddressToCounterOfConversions",
      "outputs": [
        {
          "name": "",
          "type": "uint256"
        }
      ],
      "payable": false,
      "stateMutability": "view",
      "type": "function"
    },
    {
      "constant": true,
      "inputs": [
        {
          "name": "customer",
          "type": "address"
        }
      ],
      "name": "getReferrers",
      "outputs": [
        {
          "name": "",
          "type": "address[]"
        }
      ],
      "payable": false,
      "stateMutability": "view",
      "type": "function"
    },
    {
      "constant": true,
      "inputs": [],
      "name": "currency",
      "outputs": [
        {
          "name": "",
          "type": "string"
        }
      ],
      "payable": false,
      "stateMutability": "view",
      "type": "function"
    },
    {
      "constant": true,
      "inputs": [
        {
          "name": "_address",
          "type": "address"
        }
      ],
      "name": "getAddressJoinedStatus",
      "outputs": [
        {
          "name": "",
          "type": "bool"
        }
      ],
      "payable": false,
      "stateMutability": "view",
      "type": "function"
    },
    {
      "constant": false,
      "inputs": [
        {
          "name": "value",
          "type": "uint256"
        }
      ],
      "name": "updateMaxContributionETHorUSD",
      "outputs": [],
      "payable": false,
      "stateMutability": "nonpayable",
      "type": "function"
    },
    {
      "constant": false,
      "inputs": [
        {
          "name": "numberValues",
          "type": "uint256[]"
        },
        {
          "name": "_currency",
          "type": "string"
        },
        {
          "name": "_contractor",
          "type": "address"
        },
        {
          "name": "_moderator",
          "type": "address"
        },
        {
          "name": "_twoKeySingletonRegistry",
          "type": "address"
        },
        {
          "name": "_twoKeyDonationCampaign",
          "type": "address"
        },
        {
          "name": "_twoKeyDonationConversionHandler",
          "type": "address"
        }
      ],
      "name": "setInitialParamsDonationLogicHandler",
      "outputs": [],
      "payable": false,
      "stateMutability": "nonpayable",
      "type": "function"
    },
    {
      "constant": false,
      "inputs": [
        {
          "name": "converter",
          "type": "address"
        },
        {
          "name": "conversionAmount",
          "type": "uint256"
        }
      ],
      "name": "checkAllRequirementsForConversionAndTotalRaised",
      "outputs": [
        {
          "name": "",
          "type": "bool"
        },
        {
          "name": "",
          "type": "uint256"
        }
      ],
      "payable": false,
      "stateMutability": "nonpayable",
      "type": "function"
    },
    {
      "constant": true,
      "inputs": [
        {
          "name": "converter",
          "type": "address"
        },
        {
          "name": "conversionAmountEthWEI",
          "type": "uint256"
        }
      ],
      "name": "canConversionBeCreatedInTermsOfMinMaxContribution",
      "outputs": [
        {
          "name": "",
          "type": "bool"
        }
      ],
      "payable": false,
      "stateMutability": "view",
      "type": "function"
    },
    {
      "constant": true,
      "inputs": [
        {
          "name": "_converter",
          "type": "address"
        }
      ],
      "name": "checkHowMuchUserCanSpend",
      "outputs": [
        {
          "name": "",
          "type": "uint256"
        }
      ],
      "payable": false,
      "stateMutability": "view",
      "type": "function"
    },
    {
      "constant": true,
      "inputs": [],
      "name": "getConstantInfo",
      "outputs": [
        {
          "name": "",
          "type": "uint256"
        },
        {
          "name": "",
          "type": "uint256"
        },
        {
          "name": "",
          "type": "uint256"
        },
        {
          "name": "",
          "type": "uint256"
        },
        {
          "name": "",
          "type": "uint256"
        }
      ],
      "payable": false,
      "stateMutability": "view",
      "type": "function"
    }
  ],
  "bytecode": "0x608060405234801561001057600080fd5b506147a3806100206000396000f300608060405260043610610149576000357c0100000000000000000000000000000000000000000000000000000000900463ffffffff1680630724a6091461014e578063102a8e701461025c5780631118be89146102df5780631a025f251461030a5780631f8202811461038d5780631fc8d909146103e45780632698adf51461043b57806332ce34c3146104745780633afda04d146104d95780633b2b5a48146105305780634955cb621461055b5780635077f69e146105b25780635c60da1b146105df57806371e53aad146106365780637981a7e01461067d578063a222b952146106d4578063b0577c051461072b578063bc536b2a1461082e578063c501ea5214610997578063df65845a146109ee578063e5a6b10f14610a86578063e80c945514610b16578063ed38b8ae14610b82578063f6a94b7714610bdd578063fbab697c14610d29575b600080fd5b34801561015a57600080fd5b506101e1600480360381019080803573ffffffffffffffffffffffffffffffffffffffff169060200190929190803515159060200190929190803590602001908201803590602001908080601f0160208091040260200160405190810160405280939291908181526020018383808284378201915050505050509192919290505050610d56565b6040518080602001828103825283818151815260200191508051906020019080838360005b83811015610221578082015181840152602081019050610206565b50505050905090810190601f16801561024e5780820380516001836020036101000a031916815260200191505b509250505060405180910390f35b34801561026857600080fd5b5061029d600480360381019080803573ffffffffffffffffffffffffffffffffffffffff169060200190929190505050611111565b604051808273ffffffffffffffffffffffffffffffffffffffff1673ffffffffffffffffffffffffffffffffffffffff16815260200191505060405180910390f35b3480156102eb57600080fd5b506102f4611256565b6040518082815260200191505060405180910390f35b34801561031657600080fd5b5061034b600480360381019080803573ffffffffffffffffffffffffffffffffffffffff16906020019092919050505061125c565b604051808273ffffffffffffffffffffffffffffffffffffffff1673ffffffffffffffffffffffffffffffffffffffff16815260200191505060405180910390f35b34801561039957600080fd5b506103ce600480360381019080803573ffffffffffffffffffffffffffffffffffffffff1690602001909291905050506113a1565b6040518082815260200191505060405180910390f35b3480156103f057600080fd5b50610425600480360381019080803573ffffffffffffffffffffffffffffffffffffffff1690602001909291905050506113b9565b6040518082815260200191505060405180910390f35b34801561044757600080fd5b50610450611402565b6040518082600481111561046057fe5b60ff16815260200191505060405180910390f35b34801561048057600080fd5b506104bf600480360381019080803573ffffffffffffffffffffffffffffffffffffffff16906020019092919080359060200190929190505050611418565b604051808215151515815260200191505060405180910390f35b3480156104e557600080fd5b5061052e600480360381019080803573ffffffffffffffffffffffffffffffffffffffff16906020019092919080359060200190929190803590602001909291905050506115b4565b005b34801561053c57600080fd5b50610545611a13565b6040518082815260200191505060405180910390f35b34801561056757600080fd5b5061059c600480360381019080803573ffffffffffffffffffffffffffffffffffffffff169060200190929190505050611a19565b6040518082815260200191505060405180910390f35b3480156105be57600080fd5b506105dd60048036038101908080359060200190929190505050611b2d565b005b3480156105eb57600080fd5b506105f4611b93565b604051808273ffffffffffffffffffffffffffffffffffffffff1673ffffffffffffffffffffffffffffffffffffffff16815260200191505060405180910390f35b34801561064257600080fd5b5061064b611bbc565b604051808681526020018581526020018481526020018381526020018281526020019550505050505060405180910390f35b34801561068957600080fd5b50610692611be4565b604051808273ffffffffffffffffffffffffffffffffffffffff1673ffffffffffffffffffffffffffffffffffffffff16815260200191505060405180910390f35b3480156106e057600080fd5b506106e9611c0a565b604051808273ffffffffffffffffffffffffffffffffffffffff1673ffffffffffffffffffffffffffffffffffffffff16815260200191505060405180910390f35b34801561073757600080fd5b5061078f60048036038101908080359060200190820180359060200190808060200260200160405190810160405280939291908181526020018383602002808284378201915050505050509192919290505050611c30565b604051808060200180602001838103835285818151815260200191508051906020019060200280838360005b838110156107d65780820151818401526020810190506107bb565b50505050905001838103825284818151815260200191508051906020019060200280838360005b838110156108185780820151818401526020810190506107fd565b5050505090500194505050505060405180910390f35b34801561083a57600080fd5b506108f8600480360381019080803573ffffffffffffffffffffffffffffffffffffffff169060200190929190803590602001908201803590602001908080601f01602080910402602001604051908101604052809392919081815260200183838082843782019150505050505091929192908035906020019082018035906020019080806020026020016040519081016040528093929190818152602001838360200280828437820191505050505050919291929050505061206b565b60405180868152602001858152602001848152602001806020018373ffffffffffffffffffffffffffffffffffffffff1673ffffffffffffffffffffffffffffffffffffffff168152602001828103825284818151815260200191508051906020019060200280838360005b8381101561097f578082015181840152602081019050610964565b50505050905001965050505050505060405180910390f35b3480156109a357600080fd5b506109d8600480360381019080803573ffffffffffffffffffffffffffffffffffffffff16906020019092919050505061230a565b6040518082815260200191505060405180910390f35b3480156109fa57600080fd5b50610a2f600480360381019080803573ffffffffffffffffffffffffffffffffffffffff169060200190929190505050612322565b6040518080602001828103825283818151815260200191508051906020019060200280838360005b83811015610a72578082015181840152602081019050610a57565b505050509050019250505060405180910390f35b348015610a9257600080fd5b50610a9b61267a565b6040518080602001828103825283818151815260200191508051906020019080838360005b83811015610adb578082015181840152602081019050610ac0565b50505050905090810190601f168015610b085780820380516001836020036101000a031916815260200191505b509250505060405180910390f35b348015610b2257600080fd5b50610b61600480360381019080803573ffffffffffffffffffffffffffffffffffffffff16906020019092919080359060200190929190505050612718565b60405180831515151581526020018281526020019250505060405180910390f35b348015610b8e57600080fd5b50610bc3600480360381019080803573ffffffffffffffffffffffffffffffffffffffff1690602001909291905050506127e4565b604051808215151515815260200191505060405180910390f35b348015610be957600080fd5b50610d2760048036038101908080359060200190820180359060200190808060200260200160405190810160405280939291908181526020018383602002808284378201915050505050509192919290803590602001908201803590602001908080601f0160208091040260200160405190810160405280939291908181526020018383808284378201915050505050509192919290803573ffffffffffffffffffffffffffffffffffffffff169060200190929190803573ffffffffffffffffffffffffffffffffffffffff169060200190929190803573ffffffffffffffffffffffffffffffffffffffff169060200190929190803573ffffffffffffffffffffffffffffffffffffffff169060200190929190803573ffffffffffffffffffffffffffffffffffffffff169060200190929190505050612b23565b005b348015610d3557600080fd5b50610d54600480360381019080803590602001909291905050506131f3565b005b606060006060600080600060608995508815610e6757600260009054906101000a900473ffffffffffffffffffffffffffffffffffffffff1673ffffffffffffffffffffffffffffffffffffffff1663b83970658b6040518263ffffffff167c0100000000000000000000000000000000000000000000000000000000028152600401808273ffffffffffffffffffffffffffffffffffffffff1673ffffffffffffffffffffffffffffffffffffffff168152602001915050602060405180830381600087803b158015610e2957600080fd5b505af1158015610e3d573d6000803e3d6000fd5b505050506040513d6020811015610e5357600080fd5b810190808051906020019092919050505095505b600260009054906101000a900473ffffffffffffffffffffffffffffffffffffffff1673ffffffffffffffffffffffffffffffffffffffff1663ffc9896b876040518263ffffffff167c0100000000000000000000000000000000000000000000000000000000028152600401808273ffffffffffffffffffffffffffffffffffffffff1673ffffffffffffffffffffffffffffffffffffffff168152602001915050600060405180830381600087803b158015610f2457600080fd5b505af1158015610f38573d6000803e3d6000fd5b505050506040513d6000823e3d601f19601f820116820180604052506020811015610f6257600080fd5b810190808051640100000000811115610f7a57600080fd5b82810190506020810184811115610f9057600080fd5b8151856001820283011164010000000082111715610fad57600080fd5b50509291905050509450610fc08a6127e4565b9350610fcd8a8a84613259565b9050848487836040516020018085805190602001908083835b60208310151561100b5780518252602082019150602081019050602083039250610fe6565b6001836020036101000a03801982511681845116808217855250505050505090500184151515157f01000000000000000000000000000000000000000000000000000000000000000281526001018373ffffffffffffffffffffffffffffffffffffffff1673ffffffffffffffffffffffffffffffffffffffff166c0100000000000000000000000002815260140182805190602001908083835b6020831015156110cb57805182526020820191506020810190506020830392506110a6565b6001836020036101000a03801982511681845116808217855250505050505090500194505050505060405160208183030381529060405296505050505050509392505050565b600080600260009054906101000a900473ffffffffffffffffffffffffffffffffffffffff1673ffffffffffffffffffffffffffffffffffffffff1663b8397065846040518263ffffffff167c0100000000000000000000000000000000000000000000000000000000028152600401808273ffffffffffffffffffffffffffffffffffffffff1673ffffffffffffffffffffffffffffffffffffffff168152602001915050602060405180830381600087803b1580156111d157600080fd5b505af11580156111e5573d6000803e3d6000fd5b505050506040513d60208110156111fb57600080fd5b81019080805190602001909291905050509050600073ffffffffffffffffffffffffffffffffffffffff168173ffffffffffffffffffffffffffffffffffffffff1614151561124c57809150611250565b8291505b50919050565b600e5481565b600080600260009054906101000a900473ffffffffffffffffffffffffffffffffffffffff1673ffffffffffffffffffffffffffffffffffffffff1663edab0437846040518263ffffffff167c0100000000000000000000000000000000000000000000000000000000028152600401808273ffffffffffffffffffffffffffffffffffffffff1673ffffffffffffffffffffffffffffffffffffffff168152602001915050602060405180830381600087803b15801561131c57600080fd5b505af1158015611330573d6000803e3d6000fd5b505050506040513d602081101561134657600080fd5b81019080805190602001909291905050509050600073ffffffffffffffffffffffffffffffffffffffff168173ffffffffffffffffffffffffffffffffffffffff161415156113975780915061139b565b8291505b50919050565b60126020528060005260406000206000915090505481565b6000601260008373ffffffffffffffffffffffffffffffffffffffff1673ffffffffffffffffffffffffffffffffffffffff168152602001908152602001600020549050919050565b60008060159054906101000a900460ff16905090565b60008060008061142786611a19565b925060405180807f45544800000000000000000000000000000000000000000000000000000000008152506003019050604051809103902060001916600f60405180828054600181600116156101000203166002900480156114c05780601f1061149e5761010080835404028352918201916114c0565b820191906000526020600020905b8154815290600101906020018083116114ac575b5050915050604051809103902060001916141561152457846114ed6103e88561381090919063ffffffff16565b101580156115115750600a5461150e6103e88761381090919063ffffffff16565b10155b1561151f57600193506115ab565b6115a6565b61152c61382f565b915061155b670de0b6b3a764000061154d84886139ab90919063ffffffff16565b6139e690919063ffffffff16565b905080611573600e548561381090919063ffffffff16565b101580156115975750611591600e548261381090919063ffffffff16565b600a5411155b156115a557600193506115ab565b5b600093505b50505092915050565b60606000806000806060600080600560009054906101000a900473ffffffffffffffffffffffffffffffffffffffff1673ffffffffffffffffffffffffffffffffffffffff163373ffffffffffffffffffffffffffffffffffffffff1614151561161d57600080fd5b6116268b612322565b9750875196506001600481111561163957fe5b600060159054906101000a900460ff16600481111561165457fe5b14156116a75761166489886139fc565b9450600095505b868610156116a257611695888781518110151561168457fe5b90602001906020020151868c613a31565b858060010196505061166b565b611a06565b600260048111156116b457fe5b600060159054906101000a900460ff1660048111156116cf57fe5b141561175a576116df8988613dc6565b8095508196505050600087111561175557600095505b6001870386101561172f57611722888781518110151561171157fe5b90602001906020020151868c613a31565b85806001019650506116f5565b611754886001890381518110151561174357fe5b90602001906020020151858c613a31565b5b611a05565b6003600481111561176757fe5b600060159054906101000a900460ff16600481111561178257fe5b14156117ee5761179489886002613e35565b9250600095505b868610156117e9576117dc88878151811015156117b457fe5b9060200190602002015184888151811015156117cc57fe5b906020019060200201518c613a31565b858060010196505061179b565b611a04565b600060048111156117fb57fe5b600060159054906101000a900460ff16600481111561181657fe5b1415611a0357600095505b86861015611a0257600188510386141561183d578891506119be565b600560009054906101000a900473ffffffffffffffffffffffffffffffffffffffff1673ffffffffffffffffffffffffffffffffffffffff1663ede89f64898881518110151561188957fe5b906020019060200201516040518263ffffffff167c0100000000000000000000000000000000000000000000000000000000028152600401808273ffffffffffffffffffffffffffffffffffffffff1673ffffffffffffffffffffffffffffffffffffffff168152602001915050602060405180830381600087803b15801561191157600080fd5b505af1158015611925573d6000803e3d6000fd5b505050506040513d602081101561193b57600080fd5b8101908080519060200190929190505050905060008111801561195f575060658111155b156119a45761199d606461198f611980600185613f0190919063ffffffff16565b8c6139ab90919063ffffffff16565b6139e690919063ffffffff16565b91506119bd565b6119ba868951038a6139e690919063ffffffff16565b91505b5b6119e088878151811015156119cf57fe5b90602001906020020151838c613a31565b6119f3828a613f0190919063ffffffff16565b98508580600101965050611821565b5b5b5b5b5050505050505050505050565b60105481565b6000806000600660009054906101000a900473ffffffffffffffffffffffffffffffffffffffff1673ffffffffffffffffffffffffffffffffffffffff1663ea430c64856040518263ffffffff167c0100000000000000000000000000000000000000000000000000000000028152600401808273ffffffffffffffffffffffffffffffffffffffff1673ffffffffffffffffffffffffffffffffffffffff168152602001915050602060405180830381600087803b158015611adb57600080fd5b505af1158015611aef573d6000803e3d6000fd5b505050506040513d6020811015611b0557600080fd5b81019080805190602001909291905050509150611b2182613f1d565b90508092505050919050565b600860009054906101000a900473ffffffffffffffffffffffffffffffffffffffff1673ffffffffffffffffffffffffffffffffffffffff163373ffffffffffffffffffffffffffffffffffffffff16141515611b8957600080fd5b80600a8190555050565b60008060009054906101000a900473ffffffffffffffffffffffffffffffffffffffff16905090565b6000806000806000600c54600d54600a54600b54601654945094509450945094509091929394565b600660009054906101000a900473ffffffffffffffffffffffffffffffffffffffff1681565b600560009054906101000a900473ffffffffffffffffffffffffffffffffffffffff1681565b60608060006060806000600160009054906101000a900473ffffffffffffffffffffffffffffffffffffffff1673ffffffffffffffffffffffffffffffffffffffff1663cd2a81dc336040518263ffffffff167c0100000000000000000000000000000000000000000000000000000000028152600401808273ffffffffffffffffffffffffffffffffffffffff1673ffffffffffffffffffffffffffffffffffffffff168152602001915050602060405180830381600087803b158015611cf757600080fd5b505af1158015611d0b573d6000803e3d6000fd5b505050506040513d6020811015611d2157600080fd5b810190808051906020019092919050505080611e315750600160009054906101000a900473ffffffffffffffffffffffffffffffffffffffff1673ffffffffffffffffffffffffffffffffffffffff16635cc7815c336040518263ffffffff167c0100000000000000000000000000000000000000000000000000000000028152600401808273ffffffffffffffffffffffffffffffffffffffff1673ffffffffffffffffffffffffffffffffffffffff168152602001915050602060405180830381600087803b158015611df557600080fd5b505af1158015611e09573d6000803e3d6000fd5b505050506040513d6020811015611e1f57600080fd5b81019080805190602001909291905050505b1515611e3c57600080fd5b8651935083604051908082528060200260200182016040528015611e6f5781602001602082028038833980820191505090505b50925083604051908082528060200260200182016040528015611ea15781602001602082028038833980820191505090505b509150600090505b8381101561205c57600560009054906101000a900473ffffffffffffffffffffffffffffffffffffffff1673ffffffffffffffffffffffffffffffffffffffff1663788fac2d8883815181101515611efd57fe5b906020019060200201516040518263ffffffff167c0100000000000000000000000000000000000000000000000000000000028152600401808273ffffffffffffffffffffffffffffffffffffffff1673ffffffffffffffffffffffffffffffffffffffff168152602001915050602060405180830381600087803b158015611f8557600080fd5b505af1158015611f99573d6000803e3d6000fd5b505050506040513d6020811015611faf57600080fd5b81019080805190602001909291905050508382815181101515611fce57fe5b9060200190602002018181525050601260008883815181101515611fee57fe5b9060200190602002015173ffffffffffffffffffffffffffffffffffffffff1673ffffffffffffffffffffffffffffffffffffffff16815260200190815260200160002054828281518110151561204157fe5b90602001906020020181815250508080600101915050611ea9565b82829550955050505050915091565b60008060006060600080606060008060008b5111156120945761208d8b614044565b9b506120a0565b61209d8c61125c565b9b505b89519350836040519080825280602002602001820160405280156120d35781602001602082028038833980820191505090505b509250600091505b8382101561217457601460008d73ffffffffffffffffffffffffffffffffffffffff1673ffffffffffffffffffffffffffffffffffffffff16815260200190815260200160002060008b8481518110151561213257fe5b90602001906020020151815260200190815260200160002054838381518110151561215957fe5b906020019060200201818152505081806001019250506120db565b600560009054906101000a900473ffffffffffffffffffffffffffffffffffffffff1673ffffffffffffffffffffffffffffffffffffffff1663788fac2d8d6040518263ffffffff167c0100000000000000000000000000000000000000000000000000000000028152600401808273ffffffffffffffffffffffffffffffffffffffff1673ffffffffffffffffffffffffffffffffffffffff168152602001915050602060405180830381600087803b15801561223157600080fd5b505af1158015612245573d6000803e3d6000fd5b505050506040513d602081101561225b57600080fd5b8101908080519060200190929190505050905080601260008e73ffffffffffffffffffffffffffffffffffffffff1673ffffffffffffffffffffffffffffffffffffffff16815260200190815260200160002054601360008f73ffffffffffffffffffffffffffffffffffffffff1673ffffffffffffffffffffffffffffffffffffffff16815260200190815260200160002054858f9850985098509850985050505050939792965093509350565b60136020528060005260406000206000915090505481565b606060008060606123328561125c565b9250600091505b6001156124c057612440600560009054906101000a900473ffffffffffffffffffffffffffffffffffffffff1673ffffffffffffffffffffffffffffffffffffffff16634c070ced856040518263ffffffff167c0100000000000000000000000000000000000000000000000000000000028152600401808273ffffffffffffffffffffffffffffffffffffffff1673ffffffffffffffffffffffffffffffffffffffff168152602001915050602060405180830381600087803b15801561240057600080fd5b505af1158015612414573d6000803e3d6000fd5b505050506040513d602081101561242a57600080fd5b810190808051906020019092919050505061125c565b925061246d600860009054906101000a900473ffffffffffffffffffffffffffffffffffffffff1661125c565b73ffffffffffffffffffffffffffffffffffffffff168373ffffffffffffffffffffffffffffffffffffffff1614156124a5576124c0565b6124b960018361381090919063ffffffff16565b9150612339565b816040519080825280602002602001820160405280156124ef5781602001602082028038833980820191505090505b5090506124fb8561125c565b92505b600082111561266f57612607600560009054906101000a900473ffffffffffffffffffffffffffffffffffffffff1673ffffffffffffffffffffffffffffffffffffffff16634c070ced856040518263ffffffff167c0100000000000000000000000000000000000000000000000000000000028152600401808273ffffffffffffffffffffffffffffffffffffffff1673ffffffffffffffffffffffffffffffffffffffff168152602001915050602060405180830381600087803b1580156125c757600080fd5b505af11580156125db573d6000803e3d6000fd5b505050506040513d60208110156125f157600080fd5b810190808051906020019092919050505061125c565b925061261d600183613f0190919063ffffffff16565b915082818381518110151561262e57fe5b9060200190602002019073ffffffffffffffffffffffffffffffffffffffff16908173ffffffffffffffffffffffffffffffffffffffff16815250506124fe565b809350505050919050565b600f8054600181600116156101000203166002900480601f0160208091040260200160405190810160405280929190818152602001828054600181600116156101000203166002900480156127105780601f106126e557610100808354040283529160200191612710565b820191906000526020600020905b8154815290600101906020018083116126f357829003601f168201915b505050505081565b6000806000600560009054906101000a900473ffffffffffffffffffffffffffffffffffffffff1673ffffffffffffffffffffffffffffffffffffffff163373ffffffffffffffffffffffffffffffffffffffff1614151561277957600080fd5b600115156127878686611418565b151514151561279557600080fd5b61279e84614357565b9050600115156127ad82614451565b15151415156127bb57600080fd5b600115156127c7614492565b15151415156127d557600080fd5b60018192509250509250929050565b6000806127f08361125c565b9050600073ffffffffffffffffffffffffffffffffffffffff168373ffffffffffffffffffffffffffffffffffffffff1614156128305760009150612b1d565b600760009054906101000a900473ffffffffffffffffffffffffffffffffffffffff1673ffffffffffffffffffffffffffffffffffffffff168173ffffffffffffffffffffffffffffffffffffffff1614806128d95750600960009054906101000a900473ffffffffffffffffffffffffffffffffffffffff1673ffffffffffffffffffffffffffffffffffffffff168373ffffffffffffffffffffffffffffffffffffffff16145b80612a085750600073ffffffffffffffffffffffffffffffffffffffff16600560009054906101000a900473ffffffffffffffffffffffffffffffffffffffff1673ffffffffffffffffffffffffffffffffffffffff16634c070ced836040518263ffffffff167c0100000000000000000000000000000000000000000000000000000000028152600401808273ffffffffffffffffffffffffffffffffffffffff1673ffffffffffffffffffffffffffffffffffffffff168152602001915050602060405180830381600087803b1580156129b457600080fd5b505af11580156129c8573d6000803e3d6000fd5b505050506040513d60208110156129de57600080fd5b810190808051906020019092919050505073ffffffffffffffffffffffffffffffffffffffff1614155b80612b0a57506000600560009054906101000a900473ffffffffffffffffffffffffffffffffffffffff1673ffffffffffffffffffffffffffffffffffffffff166370a08231836040518263ffffffff167c0100000000000000000000000000000000000000000000000000000000028152600401808273ffffffffffffffffffffffffffffffffffffffff1673ffffffffffffffffffffffffffffffffffffffff168152602001915050602060405180830381600087803b158015612acd57600080fd5b505af1158015612ae1573d6000803e3d6000fd5b505050506040513d6020811015612af757600080fd5b8101908080519060200190929190505050115b15612b185760019150612b1d565b600091505b50919050565b60001515600060149054906101000a900460ff161515141515612b4557600080fd5b81600560006101000a81548173ffffffffffffffffffffffffffffffffffffffff021916908373ffffffffffffffffffffffffffffffffffffffff16021790555080600660006101000a81548173ffffffffffffffffffffffffffffffffffffffff021916908373ffffffffffffffffffffffffffffffffffffffff1602179055506002601581905550866001815181101515612bde57fe5b90602001906020020151600c81905550866002815181101515612bfd57fe5b90602001906020020151600d81905550866003815181101515612c1c57fe5b90602001906020020151600a81905550866004815181101515612c3b57fe5b90602001906020020151600b81905550866005815181101515612c5a57fe5b90602001906020020151601681905550866007815181101515612c7957fe5b906020019060200201516004811115612c8e57fe5b600060156101000a81548160ff02191690836004811115612cab57fe5b021790555060405180807f45544800000000000000000000000000000000000000000000000000000000008152506003019050604051809103902060001916866040518082805190602001908083835b602083101515612d205780518252602082019150602081019050602083039250612cfb565b6001836020036101000a0380198251168184511680821785525050505050509050019150506040518091039020600019161415612d8a57662386f26fc10000876003815181101515612d6e57fe5b9060200190602002015110151515612d8557600080fd5b612dba565b670de0b6b3a7640000876003815181101515612da257fe5b9060200190602002015110151515612db957600080fd5b5b6001876008815181101515612dcb57fe5b906020019060200201511415612df7576001601160006101000a81548160ff0219169083151502179055505b84600860006101000a81548173ffffffffffffffffffffffffffffffffffffffff021916908373ffffffffffffffffffffffffffffffffffffffff16021790555083600960006101000a81548173ffffffffffffffffffffffffffffffffffffffff021916908373ffffffffffffffffffffffffffffffffffffffff16021790555085600f9080519060200190612e8f9291906146d2565b5060405180807f45544800000000000000000000000000000000000000000000000000000000008152506003019050604051809103902060001916866040518082805190602001908083835b602083101515612f005780518252602082019150602081019050602083039250612edb565b6001836020036101000a0380198251168184511680821785525050505050509050019150506040518091039020600019161415612f6a57662386f26fc10000876003815181101515612f4e57fe5b9060200190602002015110151515612f6557600080fd5b612f9a565b670de0b6b3a7640000876003815181101515612f8257fe5b9060200190602002015110151515612f9957600080fd5b5b82600360006101000a81548173ffffffffffffffffffffffffffffffffffffffff021916908373ffffffffffffffffffffffffffffffffffffffff1602179055506130196040805190810160405280601181526020017f54776f4b65794576656e74536f757263650000000000000000000000000000008152506144be565b600460006101000a81548173ffffffffffffffffffffffffffffffffffffffff021916908373ffffffffffffffffffffffffffffffffffffffff1602179055506130976040805190810160405280601981526020017f54776f4b65794d61696e7461696e6572735265676973747279000000000000008152506144be565b600160006101000a81548173ffffffffffffffffffffffffffffffffffffffff021916908373ffffffffffffffffffffffffffffffffffffffff1602179055506131156040805190810160405280600e81526020017f54776f4b657952656769737472790000000000000000000000000000000000008152506144be565b600260006101000a81548173ffffffffffffffffffffffffffffffffffffffff021916908373ffffffffffffffffffffffffffffffffffffffff160217905550670de0b6b3a7640000600e8190555061318f600860009054906101000a900473ffffffffffffffffffffffffffffffffffffffff1661125c565b600760006101000a81548173ffffffffffffffffffffffffffffffffffffffff021916908373ffffffffffffffffffffffffffffffffffffffff1602179055506001600060146101000a81548160ff02191690831515021790555050505050505050565b600860009054906101000a900473ffffffffffffffffffffffffffffffffffffffff1673ffffffffffffffffffffffffffffffffffffffff163373ffffffffffffffffffffffffffffffffffffffff1614151561324f57600080fd5b80600b8190555050565b6060600080600080600080600061326f8b611111565b955061327a8b61125c565b9450600860009054906101000a900473ffffffffffffffffffffffffffffffffffffffff1673ffffffffffffffffffffffffffffffffffffffff168b73ffffffffffffffffffffffffffffffffffffffff1614156133d6576000806000806000604051602001808660ff167f01000000000000000000000000000000000000000000000000000000000000000281526001018560ff167f01000000000000000000000000000000000000000000000000000000000000000281526001018460ff167f010000000000000000000000000000000000000000000000000000000000000002815260010183151515157f010000000000000000000000000000000000000000000000000000000000000002815260010182151515157f01000000000000000000000000000000000000000000000000000000000000000281526001019550505050505060405160208183030381529060405250613801565b600660009054906101000a900473ffffffffffffffffffffffffffffffffffffffff1673ffffffffffffffffffffffffffffffffffffffff1663ea430c64876040518263ffffffff167c0100000000000000000000000000000000000000000000000000000000028152600401808273ffffffffffffffffffffffffffffffffffffffff1673ffffffffffffffffffffffffffffffffffffffff168152602001915050602060405180830381600087803b15801561349357600080fd5b505af11580156134a7573d6000803e3d6000fd5b505050506040513d60208110156134bd57600080fd5b81019080805190602001909291905050509150600660009054906101000a900473ffffffffffffffffffffffffffffffffffffffff1673ffffffffffffffffffffffffffffffffffffffff1663f21f0aea876040518263ffffffff167c0100000000000000000000000000000000000000000000000000000000028152600401808273ffffffffffffffffffffffffffffffffffffffff1673ffffffffffffffffffffffffffffffffffffffff168152602001915050602060405180830381600087803b15801561358d57600080fd5b505af11580156135a1573d6000803e3d6000fd5b505050506040513d60208110156135b757600080fd5b8101908080519060200190929190505050905060008211156136d25760019350600660009054906101000a900473ffffffffffffffffffffffffffffffffffffffff1673ffffffffffffffffffffffffffffffffffffffff1663c3040fd1876040518263ffffffff167c0100000000000000000000000000000000000000000000000000000000028152600401808273ffffffffffffffffffffffffffffffffffffffff1673ffffffffffffffffffffffffffffffffffffffff168152602001915050602060405180830381600087803b15801561369457600080fd5b505af11580156136a8573d6000803e3d6000fd5b505050506040513d60208110156136be57600080fd5b810190808051906020019092919050505096505b6000601260008773ffffffffffffffffffffffffffffffffffffffff1673ffffffffffffffffffffffffffffffffffffffff16815260200190815260200160002054111561371f57600192505b81601260008773ffffffffffffffffffffffffffffffffffffffff1673ffffffffffffffffffffffffffffffffffffffff168152602001908152602001600020548286868b6040516020018087815260200186815260200185815260200184151515157f010000000000000000000000000000000000000000000000000000000000000002815260010183151515157f0100000000000000000000000000000000000000000000000000000000000000028152600101826000191660001916815260200196505050505050506040516020818303038152906040529750613802565b5b505050505050509392505050565b6000818301905082811015151561382657600080fd5b80905092915050565b60008060006138726040805190810160405280601a81526020017f54776f4b657945786368616e676552617465436f6e74726163740000000000008152506144be565b91508173ffffffffffffffffffffffffffffffffffffffff1663744248db600f6040518263ffffffff167c010000000000000000000000000000000000000000000000000000000002815260040180806020018281038252838181546001816001161561010002031660029004815260200191508054600181600116156101000203166002900480156139465780601f1061391b57610100808354040283529160200191613946565b820191906000526020600020905b81548152906001019060200180831161392957829003601f168201915b505092505050602060405180830381600087803b15801561396657600080fd5b505af115801561397a573d6000803e3d6000fd5b505050506040513d602081101561399057600080fd5b81019080805190602001909291905050509050809250505090565b6000808314156139be57600090506139e0565b81830290508183828115156139cf57fe5b041415156139dc57600080fd5b8090505b92915050565b600081838115156139f357fe5b04905092915050565b6000806000831115613a2557613a1b83856139e690919063ffffffff16565b9050809150613a2a565b600091505b5092915050565b600560009054906101000a900473ffffffffffffffffffffffffffffffffffffffff1673ffffffffffffffffffffffffffffffffffffffff1663cf9d8ce784846040518363ffffffff167c0100000000000000000000000000000000000000000000000000000000028152600401808373ffffffffffffffffffffffffffffffffffffffff1673ffffffffffffffffffffffffffffffffffffffff16815260200182815260200192505050600060405180830381600087803b158015613af657600080fd5b505af1158015613b0a573d6000803e3d6000fd5b50505050613b6082601260008673ffffffffffffffffffffffffffffffffffffffff1673ffffffffffffffffffffffffffffffffffffffff1681526020019081526020016000205461381090919063ffffffff16565b601260008573ffffffffffffffffffffffffffffffffffffffff1673ffffffffffffffffffffffffffffffffffffffff1681526020019081526020016000208190555081601460008573ffffffffffffffffffffffffffffffffffffffff1673ffffffffffffffffffffffffffffffffffffffff168152602001908152602001600020600083815260200190815260200160002081905550613c4b6001601360008673ffffffffffffffffffffffffffffffffffffffff1673ffffffffffffffffffffffffffffffffffffffff1681526020019081526020016000205461381090919063ffffffff16565b601360008573ffffffffffffffffffffffffffffffffffffffff1673ffffffffffffffffffffffffffffffffffffffff16815260200190815260200160002081905550600460009054906101000a900473ffffffffffffffffffffffffffffffffffffffff1673ffffffffffffffffffffffffffffffffffffffff1663bd6cd0d1600560009054906101000a900473ffffffffffffffffffffffffffffffffffffffff1685856040518463ffffffff167c0100000000000000000000000000000000000000000000000000000000028152600401808473ffffffffffffffffffffffffffffffffffffffff1673ffffffffffffffffffffffffffffffffffffffff1681526020018373ffffffffffffffffffffffffffffffffffffffff1673ffffffffffffffffffffffffffffffffffffffff1681526020018281526020019350505050600060405180830381600087803b158015613da957600080fd5b505af1158015613dbd573d6000803e3d6000fd5b50505050505050565b6000806000806000851115613e1e57613dfb613dec60028761381090919063ffffffff16565b876139e690919063ffffffff16565b9150613e116003836139ab90919063ffffffff16565b9050818193509350613e2c565b600080819150809050935093505b50509250929050565b60608060008085604051908082528060200260200182016040528015613e6a5781602001602082028038833980820191505090505b5092506000861115613ef457613e818787876145f8565b9150600090505b85811015613ef357613ea581860a836139e690919063ffffffff16565b83613ecc613ebd60018561381090919063ffffffff16565b89613f0190919063ffffffff16565b815181101515613ed857fe5b90602001906020020181815250508080600101915050613e88565b5b8293505050509392505050565b6000828211151515613f1257600080fd5b818303905092915050565b60008060008060008060405180807f45544800000000000000000000000000000000000000000000000000000000008152506003019050604051809103902060001916600f6040518082805460018160011615610100020316600290048015613fbd5780601f10613f9b576101008083540402835291820191613fbd565b820191906000526020600020905b815481529060010190602001808311613fa9575b50509150506040518091039020600019161415613ff357613fe987600b54613f0190919063ffffffff16565b945084955061403a565b613ffb61382f565b935061401a670de0b6b3a76400008589026139e690919063ffffffff16565b9250600b5491506140348383613f0190919063ffffffff16565b90508095505b5050505050919050565b600080600060405160200180807f62797465732062696e64696e6720726566657272657220746f20706c61736d6181525060200190506040516020818303038152906040526040518082805190602001908083835b6020831015156140be5780518252602082019150602081019050602083039250614099565b6001836020036101000a038019825116818451168082178552505050505050905001915050604051809103902060405160200180807f4745545f52454645525245525f5245574152445300000000000000000000000081525060140190506040516020818303038152906040526040518082805190602001908083835b602083101515614160578051825260208201915060208101905060208303925061413b565b6001836020036101000a03801982511681845116808217855250505050505090500191505060405180910390206040516020018083600019166000191681526020018260001916600019168152602001925050506040516020818303038152906040526040518082805190602001908083835b6020831015156141f857805182526020820191506020810190506020830392506141d3565b6001836020036101000a0380198251168184511680821785525050505050509050019150506040518091039020915073__Call__________________________________638b2c6d41838660006040518463ffffffff167c010000000000000000000000000000000000000000000000000000000002815260040180846000191660001916815260200180602001838152602001828103825284818151815260200191508051906020019080838360005b838110156142c45780820151818401526020810190506142a9565b50505050905090810190601f1680156142f15780820380516001836020036101000a031916815260200191505b5094505050505060206040518083038186803b15801561431057600080fd5b505af4158015614324573d6000803e3d6000fd5b505050506040513d602081101561433a57600080fd5b810190808051906020019092919050505090508092505050919050565b60008060405180807f45544800000000000000000000000000000000000000000000000000000000008152506003019050604051809103902060001916600f60405180828054600181600116156101000203166002900480156143f15780601f106143cf5761010080835404028352918201916143f1565b820191906000526020600020905b8154815290600101906020018083116143dd575b50509150506040518091039020600019161415156144475761441161382f565b9050614440670de0b6b3a764000061443283866139ab90919063ffffffff16565b6139e690919063ffffffff16565b915061444b565b8291505b50919050565b6000806144698360105461381090919063ffffffff16565b90506144748161467b565b151561447f57600080fd5b614488816146c8565b6001915050919050565b6000600c5442101580156144a85750600d544211155b156144b657600190506144bb565b600090505b90565b6000600360009054906101000a900473ffffffffffffffffffffffffffffffffffffffff1673ffffffffffffffffffffffffffffffffffffffff1663db7a6d90836040518263ffffffff167c01000000000000000000000000000000000000000000000000000000000281526004018080602001828103825283818151815260200191508051906020019080838360005b8381101561456a57808201518184015260208101905061454f565b50505050905090810190601f1680156145975780820380516001836020036101000a031916815260200191505b5092505050602060405180830381600087803b1580156145b657600080fd5b505af11580156145ca573d6000803e3d6000fd5b505050506040513d60208110156145e057600080fd5b81019080805190602001909291905050509050919050565b6000806000806001925060019150600190505b8581101561464a5761462685846139ab90919063ffffffff16565b925061463b838361381090919063ffffffff16565b9150808060010191505061460b565b61466f82614661858a6139ab90919063ffffffff16565b6139e690919063ffffffff16565b93505050509392505050565b600060011515601160009054906101000a900460ff16151514156146bf576146b0600a5460165461381090919063ffffffff16565b82111515156146be57600080fd5b5b60019050919050565b8060108190555050565b828054600181600116156101000203166002900490600052602060002090601f016020900481019282601f1061471357805160ff1916838001178555614741565b82800160010185558215614741579182015b82811115614740578251825591602001919060010190614725565b5b50905061474e9190614752565b5090565b61477491905b80821115614770576000816000905550600101614758565b5090565b905600a165627a7a723058202ca99b2ec9f6d21ae0435b747600c6c51a0adf2a944458d129d03d73cd2cc6da0029",
  "source": "pragma solidity ^0.4.24;\n\nimport \"../interfaces/ITwoKeyDonationCampaign.sol\";\nimport \"../interfaces/ITwoKeyDonationConversionHandler.sol\";\nimport \"../interfaces/ITwoKeyMaintainersRegistry.sol\";\nimport \"../libraries/SafeMath.sol\";\n\nimport \"../libraries/IncentiveModels.sol\";\nimport \"../campaign-mutual-contracts/TwoKeyCampaignIncentiveModels.sol\";\nimport \"../upgradable-pattern-campaigns/UpgradeableCampaign.sol\";\nimport \"../campaign-mutual-contracts/TwoKeyCampaignLogicHandler.sol\";\n\ncontract TwoKeyDonationLogicHandler is UpgradeableCampaign, TwoKeyCampaignLogicHandler {\n\n    uint powerLawFactor;\n\n    uint campaignGoal; // Goal of the campaign, how many funds to raise\n\n\n    function setInitialParamsDonationLogicHandler(\n        uint[] numberValues,\n        string _currency,\n        address _contractor,\n        address _moderator,\n        address _twoKeySingletonRegistry,\n        address _twoKeyDonationCampaign,\n        address _twoKeyDonationConversionHandler\n    )\n    public\n    {\n        require(initialized == false);\n\n        twoKeyCampaign = _twoKeyDonationCampaign;\n        conversionHandler = _twoKeyDonationConversionHandler;\n\n        powerLawFactor = 2;\n        campaignStartTime = numberValues[1];\n        campaignEndTime = numberValues[2];\n        minContributionAmountWei = numberValues[3];\n        maxContributionAmountWei = numberValues[4];\n        campaignGoal = numberValues[5];\n        incentiveModel = IncentiveModel(numberValues[7]);\n\n        if(keccak256(_currency) == keccak256('ETH')) {\n            require(numberValues[3] >= (10**16));\n        } else {\n            require(numberValues[3] >= (10**18));\n        }\n\n        if(numberValues[8] == 1) {\n            endCampaignOnceGoalReached = true;\n        }\n\n        contractor = _contractor;\n        moderator = _moderator;\n        currency = _currency;\n\n        if(keccak256(_currency) == keccak256('ETH')) {\n            require(numberValues[3] >= (10**16));\n        } else {\n            require(numberValues[3] >= (10**18));\n        }\n\n        twoKeySingletonRegistry = _twoKeySingletonRegistry;\n        twoKeyEventSource = getAddressFromRegistry(\"TwoKeyEventSource\");\n        twoKeyMaintainersRegistry = getAddressFromRegistry(\"TwoKeyMaintainersRegistry\");\n        twoKeyRegistry = getAddressFromRegistry(\"TwoKeyRegistry\");\n\n        ALLOWED_GAP = 1000000000000000000; //1 USD allowed GAP for ETH conversions in case FIAT is campaign currency\n\n        ownerPlasma = plasmaOf(contractor);\n        initialized = true;\n    }\n\n    function checkAllRequirementsForConversionAndTotalRaised(address converter, uint conversionAmount) public returns (bool,uint) {\n        require(msg.sender == twoKeyCampaign);\n        require(canConversionBeCreatedInTermsOfMinMaxContribution(converter, conversionAmount) == true);\n        uint conversionAmountInCampaignCurrency = convertConversionAmountToCampaignCurrency(conversionAmount);\n        require(updateRaisedFundsAndValidateConversionInTermsOfCampaignGoal(conversionAmountInCampaignCurrency) == true);\n        require(checkIsCampaignActiveInTermsOfTime() == true);\n        return (true, conversionAmountInCampaignCurrency);\n    }\n\n    function canConversionBeCreatedInTermsOfMinMaxContribution(address converter, uint conversionAmountEthWEI) public view returns (bool) {\n        uint leftToSpendInCampaignCurrency = checkHowMuchUserCanSpend(converter);\n        if(keccak256(currency) == keccak256(\"ETH\")) {\n            if(leftToSpendInCampaignCurrency.add(1000) >= conversionAmountEthWEI && conversionAmountEthWEI.add(1000) >= minContributionAmountWei) {\n                return true;\n            }\n        } else {\n            uint rate = getRateFromExchange();\n            uint conversionAmountCampaignCurrency = (conversionAmountEthWEI.mul(rate)).div(10**18);\n            if(leftToSpendInCampaignCurrency.add(ALLOWED_GAP) >= conversionAmountCampaignCurrency && minContributionAmountWei <= conversionAmountCampaignCurrency.add(ALLOWED_GAP)) {\n                return true;\n            }\n        }\n        return false;\n    }\n\n    function checkHowMuchUserCanSpend(\n        address _converter\n    )\n    public\n    view\n    returns (uint)\n    {\n        uint amountAlreadySpentEth = ITwoKeyDonationConversionHandler(conversionHandler).getAmountConverterSpent(_converter);\n        uint leftToSpend = getHowMuchLeftForUserToSpend(amountAlreadySpentEth);\n        return leftToSpend;\n    }\n\n    /**\n     * @notice Function to check for some user how much he can donate\n     */\n    function getHowMuchLeftForUserToSpend(\n        uint alreadyDonatedEthWEI\n    )\n    internal\n    view\n    returns (uint)\n    {\n        if(keccak256(currency) == keccak256('ETH')) {\n            uint availableToDonate = maxContributionAmountWei.sub(alreadyDonatedEthWEI);\n            return availableToDonate;\n        } else {\n            uint rate = getRateFromExchange();\n\n            uint totalAmountSpentConvertedToFIAT = (alreadyDonatedEthWEI*rate).div(10**18);\n            uint limit = maxContributionAmountWei; // Initially we assume it's fiat currency campaign\n            uint leftToSpendInFiats = limit.sub(totalAmountSpentConvertedToFIAT);\n            return leftToSpendInFiats;\n        }\n    }\n\n\n    /**\n     * @notice Function to fetch stats for the address\n     */\n    function getAddressStatistic(\n        address _address,\n        bool plasma,\n        address referrer\n    )\n    internal\n    view\n    returns (bytes)\n    {\n        bytes32 state; // NOT-EXISTING AS CONVERTER DEFAULT STATE\n\n        address eth_address = ethereumOf(_address);\n        address plasma_address = plasmaOf(_address);\n\n        if(_address == contractor) {\n            abi.encodePacked(0, 0, 0, false, false);\n        } else {\n            bool isConverter;\n            bool isReferrer;\n\n            uint amountConverterSpent = ITwoKeyDonationConversionHandler(conversionHandler).getAmountConverterSpent(eth_address);\n            uint amountOfTokensReceived = ITwoKeyDonationConversionHandler(conversionHandler).getAmountOfDonationTokensConverterReceived(eth_address);\n\n            if(amountConverterSpent> 0) {\n                isConverter = true;\n                state = ITwoKeyDonationConversionHandler(conversionHandler).getStateForConverter(eth_address);\n            }\n\n            if(referrerPlasma2TotalEarnings2key[plasma_address] > 0) {\n                isReferrer = true;\n            }\n\n            return abi.encodePacked(\n                amountConverterSpent,\n                referrerPlasma2TotalEarnings2key[plasma_address],\n                amountOfTokensReceived,\n                isConverter,\n                isReferrer,\n                state\n            );\n        }\n    }\n\n\n    function convertConversionAmountToCampaignCurrency(uint conversionAmount) internal view returns (uint) {\n        if(keccak256(currency) != keccak256('ETH')) {\n            uint rate = getRateFromExchange();\n            return conversionAmount.mul(rate).div(10**18);\n        }\n        return conversionAmount;\n    }\n\n    /**\n     * @notice Function to update total raised funds and validate conversion in terms of campaign goal\n     */\n    function updateRaisedFundsAndValidateConversionInTermsOfCampaignGoal(uint conversionAmountInCampaignCurrency) internal returns (bool) {\n        uint newTotalRaisedFunds = campaignRaisedIncludingPendingConversions.add(conversionAmountInCampaignCurrency);\n        require(canConversionBeCreatedInTermsOfCampaignGoal(newTotalRaisedFunds)); // checking that criteria is satisfied\n        updateTotalRaisedFunds(newTotalRaisedFunds); //updating new total raised funds\n        return true;\n    }\n\n    /**\n     * @notice Function which will validate if conversion can be created if endCampaignOnceGoalReached is selected\n     * @param campaignRaisedIncludingConversion is how much will be total campaign raised with new conversion\n     */\n    function canConversionBeCreatedInTermsOfCampaignGoal(uint campaignRaisedIncludingConversion) internal view returns (bool) {\n        if(endCampaignOnceGoalReached == true) {\n            require(campaignRaisedIncludingConversion <= campaignGoal.add(minContributionAmountWei)); //small GAP\n        }\n        return true;\n    }\n\n\n    /**\n     * @notice Function to check if campaign has ended\n     */\n    function isCampaignEnded() internal view returns (bool) {\n        if(checkIsCampaignActiveInTermsOfTime() == false) {\n            return true;\n        }\n        if(endCampaignOnceGoalReached == true && campaignRaisedIncludingPendingConversions.add(minContributionAmountWei) >= campaignGoal) {\n            return true;\n        }\n        return false;\n    }\n\n    function getConstantInfo()\n    public\n    view\n    returns (uint,uint,uint,uint,uint)\n    {\n        return (\n            campaignStartTime,\n            campaignEndTime,\n            minContributionAmountWei,\n            maxContributionAmountWei,\n            campaignGoal\n        );\n    }\n}\n",
  "sourcePath": "/Users/nikolamadjarevic/Desktop/2key/contracts/contracts/2key/donation-campaign-contracts/TwoKeyDonationLogicHandler.sol",
  "compiler": {
    "name": "solc",
    "version": "0.4.24+commit.e67f0147.Emscripten.clang"
  },
  "schemaVersion": "2.0.1",
  "updatedAt": "2019-11-07T08:14:37.634Z"
}