{
  "contractName": "TwoKeyCongressMembersRegistry",
  "abi": [
    {
      "constant": true,
      "inputs": [
        {
          "name": "",
          "type": "address"
        }
      ],
      "name": "isMemberInCongress",
      "outputs": [
        {
          "name": "",
          "type": "bool"
        }
      ],
      "payable": false,
      "stateMutability": "view",
      "type": "function"
    },
    {
      "constant": true,
      "inputs": [],
      "name": "minimumQuorum",
      "outputs": [
        {
          "name": "",
          "type": "uint256"
        }
      ],
      "payable": false,
      "stateMutability": "view",
      "type": "function"
    },
    {
      "constant": true,
      "inputs": [
        {
          "name": "",
          "type": "address"
        }
      ],
      "name": "address2Member",
      "outputs": [
        {
          "name": "memberAddress",
          "type": "address"
        },
        {
          "name": "name",
          "type": "bytes32"
        },
        {
          "name": "votingPower",
          "type": "uint256"
        },
        {
          "name": "memberSince",
          "type": "uint256"
        }
      ],
      "payable": false,
      "stateMutability": "view",
      "type": "function"
    },
    {
      "constant": true,
      "inputs": [],
      "name": "TWO_KEY_CONGRESS",
      "outputs": [
        {
          "name": "",
          "type": "address"
        }
      ],
      "payable": false,
      "stateMutability": "view",
      "type": "function"
    },
    {
      "constant": true,
      "inputs": [],
      "name": "maxVotingPower",
      "outputs": [
        {
          "name": "",
          "type": "uint256"
        }
      ],
      "payable": false,
      "stateMutability": "view",
      "type": "function"
    },
    {
      "constant": true,
      "inputs": [
        {
          "name": "",
          "type": "uint256"
        }
      ],
      "name": "allMembers",
      "outputs": [
        {
          "name": "",
          "type": "address"
        }
      ],
      "payable": false,
      "stateMutability": "view",
      "type": "function"
    },
    {
      "inputs": [
        {
          "name": "initialCongressMembers",
          "type": "address[]"
        },
        {
          "name": "initialCongressMemberNames",
          "type": "bytes32[]"
        },
        {
          "name": "memberVotingPowers",
          "type": "uint256[]"
        },
        {
          "name": "_twoKeyCongress",
          "type": "address"
        }
      ],
      "payable": false,
      "stateMutability": "nonpayable",
      "type": "constructor"
    },
    {
      "anonymous": false,
      "inputs": [
        {
          "indexed": false,
          "name": "member",
          "type": "address"
        },
        {
          "indexed": false,
          "name": "isMember",
          "type": "bool"
        }
      ],
      "name": "MembershipChanged",
      "type": "event"
    },
    {
      "constant": false,
      "inputs": [
        {
          "name": "targetMember",
          "type": "address"
        },
        {
          "name": "memberName",
          "type": "bytes32"
        },
        {
          "name": "_votingPower",
          "type": "uint256"
        }
      ],
      "name": "addMember",
      "outputs": [],
      "payable": false,
      "stateMutability": "nonpayable",
      "type": "function"
    },
    {
      "constant": false,
      "inputs": [
        {
          "name": "targetMember",
          "type": "address"
        }
      ],
      "name": "removeMember",
      "outputs": [],
      "payable": false,
      "stateMutability": "nonpayable",
      "type": "function"
    },
    {
      "constant": true,
      "inputs": [
        {
          "name": "_memberAddress",
          "type": "address"
        }
      ],
      "name": "getMemberVotingPower",
      "outputs": [
        {
          "name": "",
          "type": "uint256"
        }
      ],
      "payable": false,
      "stateMutability": "view",
      "type": "function"
    },
    {
      "constant": true,
      "inputs": [
        {
          "name": "_address",
          "type": "address"
        }
      ],
      "name": "isMember",
      "outputs": [
        {
          "name": "",
          "type": "bool"
        }
      ],
      "payable": false,
      "stateMutability": "view",
      "type": "function"
    },
    {
      "constant": true,
      "inputs": [],
      "name": "getMembersLength",
      "outputs": [
        {
          "name": "",
          "type": "uint256"
        }
      ],
      "payable": false,
      "stateMutability": "view",
      "type": "function"
    },
    {
      "constant": true,
      "inputs": [],
      "name": "getAllMemberAddresses",
      "outputs": [
        {
          "name": "",
          "type": "address[]"
        }
      ],
      "payable": false,
      "stateMutability": "view",
      "type": "function"
    },
    {
      "constant": true,
      "inputs": [],
      "name": "getMemberInfo",
      "outputs": [
        {
          "name": "",
          "type": "address"
        },
        {
          "name": "",
          "type": "bytes32"
        },
        {
          "name": "",
          "type": "uint256"
        },
        {
          "name": "",
          "type": "uint256"
        }
      ],
      "payable": false,
      "stateMutability": "view",
      "type": "function"
    }
  ],
  "bytecode": "0x608060405234801561001057600080fd5b506040516114213803806114218339810180604052810190808051820192919060200180518201929190602001805182019291906020018051906020019092919050505060008085519150600090505b818110156100d4576100c7868281518110151561007957fe5b90602001906020020151868381518110151561009157fe5b9060200190602002015186848151811015156100a957fe5b9060200190602002015161011f640100000000026401000000009004565b8080600101915050610060565b826000806101000a81548173ffffffffffffffffffffffffffffffffffffffff021916908373ffffffffffffffffffffffffffffffffffffffff16021790555050505050505061038e565b60058054905060028190555061014d8160015461036f64010000000002610fa6179091906401000000009004565b6001819055506080604051908101604052808473ffffffffffffffffffffffffffffffffffffffff1681526020018360001916815260200182815260200142815250600460008573ffffffffffffffffffffffffffffffffffffffff1673ffffffffffffffffffffffffffffffffffffffff16815260200190815260200160002060008201518160000160006101000a81548173ffffffffffffffffffffffffffffffffffffffff021916908373ffffffffffffffffffffffffffffffffffffffff16021790555060208201518160010190600019169055604082015181600201556060820151816003015590505060058390806001815401808255809150509060018203906000526020600020016000909192909190916101000a81548173ffffffffffffffffffffffffffffffffffffffff021916908373ffffffffffffffffffffffffffffffffffffffff160217905550506001600360008573ffffffffffffffffffffffffffffffffffffffff1673ffffffffffffffffffffffffffffffffffffffff16815260200190815260200160002060006101000a81548160ff0219169083151502179055507f27b022af4a8347100c7a041ce5ccf8e14d644ff05de696315196faae8cd50c9b836001604051808373ffffffffffffffffffffffffffffffffffffffff1673ffffffffffffffffffffffffffffffffffffffff168152602001821515151581526020019250505060405180910390a1505050565b6000818301905082811015151561038557600080fd5b80905092915050565b6110848061039d6000396000f3006080604052600436106100c5576000357c0100000000000000000000000000000000000000000000000000000000900463ffffffff1680630b1ca49a146100ca5780632fd1949d1461010d5780634c450758146101795780635eb6a4d7146101d457806360104e111461022f5780638160f0b5146102a35780638eca4a16146102ce57806393da5a7c1461036e5780639ef0fb85146103c5578063a230c524146103f0578063c5b960261461044b578063fc53c821146104a2578063fd0717bd146104cd575b600080fd5b3480156100d657600080fd5b5061010b600480360381019080803573ffffffffffffffffffffffffffffffffffffffff16906020019092919050505061053a565b005b34801561011957600080fd5b50610122610932565b6040518080602001828103825283818151815260200191508051906020019060200280838360005b8381101561016557808201518184015260208101905061014a565b505050509050019250505060405180910390f35b34801561018557600080fd5b506101d2600480360381019080803573ffffffffffffffffffffffffffffffffffffffff1690602001909291908035600019169060200190929190803590602001909291905050506109c0565b005b3480156101e057600080fd5b50610215600480360381019080803573ffffffffffffffffffffffffffffffffffffffff169060200190929190505050610a2b565b604051808215151515815260200191505060405180910390f35b34801561023b57600080fd5b50610244610a4b565b604051808573ffffffffffffffffffffffffffffffffffffffff1673ffffffffffffffffffffffffffffffffffffffff168152602001846000191660001916815260200183815260200182815260200194505050505060405180910390f35b3480156102af57600080fd5b506102b8610b45565b6040518082815260200191505060405180910390f35b3480156102da57600080fd5b5061030f600480360381019080803573ffffffffffffffffffffffffffffffffffffffff169060200190929190505050610b4b565b604051808573ffffffffffffffffffffffffffffffffffffffff1673ffffffffffffffffffffffffffffffffffffffff168152602001846000191660001916815260200183815260200182815260200194505050505060405180910390f35b34801561037a57600080fd5b50610383610b9b565b604051808273ffffffffffffffffffffffffffffffffffffffff1673ffffffffffffffffffffffffffffffffffffffff16815260200191505060405180910390f35b3480156103d157600080fd5b506103da610bc0565b6040518082815260200191505060405180910390f35b3480156103fc57600080fd5b50610431600480360381019080803573ffffffffffffffffffffffffffffffffffffffff169060200190929190505050610bc6565b604051808215151515815260200191505060405180910390f35b34801561045757600080fd5b5061048c600480360381019080803573ffffffffffffffffffffffffffffffffffffffff169060200190929190505050610c1c565b6040518082815260200191505060405180910390f35b3480156104ae57600080fd5b506104b7610cfc565b6040518082815260200191505060405180910390f35b3480156104d957600080fd5b506104f860048036038101908080359060200190929190505050610d09565b604051808273ffffffffffffffffffffffffffffffffffffffff1673ffffffffffffffffffffffffffffffffffffffff16815260200191505060405180910390f35b6000806000806000809054906101000a900473ffffffffffffffffffffffffffffffffffffffff1673ffffffffffffffffffffffffffffffffffffffff163373ffffffffffffffffffffffffffffffffffffffff1614151561059b57600080fd5b60011515600360008773ffffffffffffffffffffffffffffffffffffffff1673ffffffffffffffffffffffffffffffffffffffff16815260200190815260200160002060009054906101000a900460ff1615151415156105fa57600080fd5b61060385610c1c565b9350836001600082825403925050819055506005805490509250600091505b8473ffffffffffffffffffffffffffffffffffffffff1660058381548110151561064857fe5b9060005260206000200160009054906101000a900473ffffffffffffffffffffffffffffffffffffffff1673ffffffffffffffffffffffffffffffffffffffff161415156106aa578282141561069d57600080fd5b8180600101925050610622565b6005600184038154811015156106bc57fe5b9060005260206000200160009054906101000a900473ffffffffffffffffffffffffffffffffffffffff166005838154811015156106f657fe5b9060005260206000200160006101000a81548173ffffffffffffffffffffffffffffffffffffffff021916908373ffffffffffffffffffffffffffffffffffffffff160217905550600560016005805490500381548110151561075557fe5b9060005260206000200160006101000a81549073ffffffffffffffffffffffffffffffffffffffff021916905561079b6001600580549050610d4790919063ffffffff16565b9050806005816107ab9190610fc5565b506000600360008773ffffffffffffffffffffffffffffffffffffffff1673ffffffffffffffffffffffffffffffffffffffff16815260200190815260200160002060006101000a81548160ff021916908315150217905550608060405190810160405280600073ffffffffffffffffffffffffffffffffffffffff1681526020017f30783000000000000000000000000000000000000000000000000000000000006000191681526020016000815260200142815250600460008773ffffffffffffffffffffffffffffffffffffffff1673ffffffffffffffffffffffffffffffffffffffff16815260200190815260200160002060008201518160000160006101000a81548173ffffffffffffffffffffffffffffffffffffffff021916908373ffffffffffffffffffffffffffffffffffffffff1602179055506020820151816001019060001916905560408201518160020155606082015181600301559050506109256001600254610d4790919063ffffffff16565b6002819055505050505050565b606060058054806020026020016040519081016040528092919081815260200182805480156109b657602002820191906000526020600020905b8160009054906101000a900473ffffffffffffffffffffffffffffffffffffffff1673ffffffffffffffffffffffffffffffffffffffff168152602001906001019080831161096c575b5050505050905090565b6000809054906101000a900473ffffffffffffffffffffffffffffffffffffffff1673ffffffffffffffffffffffffffffffffffffffff163373ffffffffffffffffffffffffffffffffffffffff16141515610a1b57600080fd5b610a26838383610d63565b505050565b60036020528060005260406000206000915054906101000a900460ff1681565b600080600080610a59610ff1565b600460003373ffffffffffffffffffffffffffffffffffffffff1673ffffffffffffffffffffffffffffffffffffffff168152602001908152602001600020608060405190810160405290816000820160009054906101000a900473ffffffffffffffffffffffffffffffffffffffff1673ffffffffffffffffffffffffffffffffffffffff1673ffffffffffffffffffffffffffffffffffffffff168152602001600182015460001916600019168152602001600282015481526020016003820154815250509050806000015181602001518260400151836060015194509450945094505090919293565b60025481565b60046020528060005260406000206000915090508060000160009054906101000a900473ffffffffffffffffffffffffffffffffffffffff16908060010154908060020154908060030154905084565b6000809054906101000a900473ffffffffffffffffffffffffffffffffffffffff1681565b60015481565b6000600360008373ffffffffffffffffffffffffffffffffffffffff1673ffffffffffffffffffffffffffffffffffffffff16815260200190815260200160002060009054906101000a900460ff169050919050565b6000610c26610ff1565b600460008473ffffffffffffffffffffffffffffffffffffffff1673ffffffffffffffffffffffffffffffffffffffff168152602001908152602001600020608060405190810160405290816000820160009054906101000a900473ffffffffffffffffffffffffffffffffffffffff1673ffffffffffffffffffffffffffffffffffffffff1673ffffffffffffffffffffffffffffffffffffffff1681526020016001820154600019166000191681526020016002820154815260200160038201548152505090508060400151915050919050565b6000600580549050905090565b600581815481101515610d1857fe5b906000526020600020016000915054906101000a900473ffffffffffffffffffffffffffffffffffffffff1681565b6000828211151515610d5857600080fd5b818303905092915050565b600580549050600281905550610d8481600154610fa690919063ffffffff16565b6001819055506080604051908101604052808473ffffffffffffffffffffffffffffffffffffffff1681526020018360001916815260200182815260200142815250600460008573ffffffffffffffffffffffffffffffffffffffff1673ffffffffffffffffffffffffffffffffffffffff16815260200190815260200160002060008201518160000160006101000a81548173ffffffffffffffffffffffffffffffffffffffff021916908373ffffffffffffffffffffffffffffffffffffffff16021790555060208201518160010190600019169055604082015181600201556060820151816003015590505060058390806001815401808255809150509060018203906000526020600020016000909192909190916101000a81548173ffffffffffffffffffffffffffffffffffffffff021916908373ffffffffffffffffffffffffffffffffffffffff160217905550506001600360008573ffffffffffffffffffffffffffffffffffffffff1673ffffffffffffffffffffffffffffffffffffffff16815260200190815260200160002060006101000a81548160ff0219169083151502179055507f27b022af4a8347100c7a041ce5ccf8e14d644ff05de696315196faae8cd50c9b836001604051808373ffffffffffffffffffffffffffffffffffffffff1673ffffffffffffffffffffffffffffffffffffffff168152602001821515151581526020019250505060405180910390a1505050565b60008183019050828110151515610fbc57600080fd5b80905092915050565b815481835581811115610fec57818360005260206000209182019101610feb9190611033565b5b505050565b608060405190810160405280600073ffffffffffffffffffffffffffffffffffffffff1681526020016000801916815260200160008152602001600081525090565b61105591905b80821115611051576000816000905550600101611039565b5090565b905600a165627a7a72305820a55bad688ca6f778d0f284dc26973911a41cba3a34b3605c0c6745e00b31a5b80029",
  "source": "pragma solidity ^0.4.24;\n\nimport \"../libraries/SafeMath.sol\";\n\n\n/**\n * @author Nikola Madjarevic\n * github: madjarevicn\n */\ncontract TwoKeyCongressMembersRegistry {\n    /**\n     * This contract will serve as accountant for Members inside TwoKeyCongress\n     * contract. Only contract eligible to mutate state of this contract is TwoKeyCongress\n     * TwoKeyCongress will check for it's members from this contract.\n     */\n\n    using SafeMath for uint;\n\n    event MembershipChanged(address member, bool isMember);\n\n    address public TWO_KEY_CONGRESS;\n\n    // The maximum voting power containing sum of voting powers of all active members\n    uint256 public maxVotingPower;\n    //The minimum number of voting members that must be in attendance\n    uint256 public minimumQuorum;\n\n    // Mapping to check if the member is belonging to congress\n    mapping (address => bool) public isMemberInCongress;\n    // Mapping address to memberId\n    mapping(address => Member) public address2Member;\n    // Mapping to store all members addresses\n    address[] public allMembers;\n\n    struct Member {\n        address memberAddress;\n        bytes32 name;\n        uint votingPower;\n        uint memberSince;\n    }\n\n    modifier onlyTwoKeyCongress () {\n        require(msg.sender == TWO_KEY_CONGRESS);\n        _;\n    }\n\n    /**\n     * @param initialCongressMembers is the array containing addresses of initial members\n     * @param memberVotingPowers is the array of unassigned integers containing voting powers respectively\n     * @dev initialMembers.length must be equal votingPowers.length\n     */\n    constructor(\n        address[] initialCongressMembers,\n        bytes32[] initialCongressMemberNames,\n        uint[] memberVotingPowers,\n        address _twoKeyCongress\n    )\n    public\n    {\n        uint length = initialCongressMembers.length;\n        for(uint i=0; i<length; i++) {\n            addMemberInternal(\n                initialCongressMembers[i],\n                initialCongressMemberNames[i],\n                memberVotingPowers[i]\n            );\n        }\n        TWO_KEY_CONGRESS = _twoKeyCongress;\n    }\n\n    /**\n     * Add member\n     *\n     * Make `targetMember` a member named `memberName`\n     *\n     * @param targetMember ethereum address to be added\n     * @param memberName public name for that member\n     */\n    function addMember(\n        address targetMember,\n        bytes32 memberName,\n        uint _votingPower\n    )\n    public\n    onlyTwoKeyCongress\n    {\n        addMemberInternal(targetMember, memberName, _votingPower);\n    }\n\n    function addMemberInternal(\n        address targetMember,\n        bytes32 memberName,\n        uint _votingPower\n    )\n    internal\n    {\n        minimumQuorum = allMembers.length;\n        maxVotingPower = maxVotingPower.add(_votingPower);\n        address2Member[targetMember] = Member(\n            {\n            memberAddress: targetMember,\n            memberSince: block.timestamp,\n            votingPower: _votingPower,\n            name: memberName\n            }\n        );\n        allMembers.push(targetMember);\n        isMemberInCongress[targetMember] = true;\n        emit MembershipChanged(targetMember, true);\n    }\n\n    /**\n     * Remove member\n     *\n     * @notice Remove membership from `targetMember`\n     *\n     * @param targetMember ethereum address to be removed\n     */\n    function removeMember(\n        address targetMember\n    )\n    public\n    onlyTwoKeyCongress\n    {\n        require(isMemberInCongress[targetMember] == true);\n\n        //Remove member voting power from max voting power\n        uint votingPower = getMemberVotingPower(targetMember);\n        maxVotingPower-= votingPower;\n\n        uint length = allMembers.length;\n        uint i=0;\n        //Find selected member\n        while(allMembers[i] != targetMember) {\n            if(i == length) {\n                revert();\n            }\n            i++;\n        }\n\n        // Move the lest member to this place\n        allMembers[i] = allMembers[length-1];\n\n        //After reduce array size\n        delete allMembers[allMembers.length-1];\n\n        uint newLength = allMembers.length.sub(1);\n        allMembers.length = newLength;\n\n        //Remove him from state mapping\n        isMemberInCongress[targetMember] = false;\n\n        //Remove his state to empty member\n        address2Member[targetMember] = Member(\n            {\n            memberAddress: address(0),\n            memberSince: block.timestamp,\n            votingPower: 0,\n            name: \"0x0\"\n            }\n        );\n        //Reduce 1 member from quorum\n        minimumQuorum = minimumQuorum.sub(1);\n    }\n\n    /// @notice Function getter for voting power for specific member\n    /// @param _memberAddress is the address of the member\n    /// @return integer representing voting power\n    function getMemberVotingPower(\n        address _memberAddress\n    )\n    public\n    view\n    returns (uint)\n    {\n        Member memory _member = address2Member[_memberAddress];\n        return _member.votingPower;\n    }\n\n    /**\n     * @notice Function which will be exposed and congress will use it as \"modifier\"\n     * @param _address is the address we're willing to check if it belongs to congress\n     * @return true/false depending if it is either a member or not\n     */\n    function isMember(\n        address _address\n    )\n    public\n    view\n    returns (bool)\n    {\n        return isMemberInCongress[_address];\n    }\n\n    /// @notice Getter for length for how many members are currently\n    /// @return length of members\n    function getMembersLength()\n    public\n    view\n    returns (uint)\n    {\n        return allMembers.length;\n    }\n\n    /// @notice Function to get addresses of all members in congress\n    /// @return array of addresses\n    function getAllMemberAddresses()\n    public\n    view\n    returns (address[])\n    {\n        return allMembers;\n    }\n\n    /// Basic getter function\n    function getMemberInfo()\n    public\n    view\n    returns (address, bytes32, uint, uint)\n    {\n        Member memory member = address2Member[msg.sender];\n        return (member.memberAddress, member.name, member.votingPower, member.memberSince);\n    }\n}\n",
  "sourcePath": "/Users/nikolamadjarevic/Desktop/2key/contracts/contracts/2key/non-upgradable-singletons/TwoKeyCongressMembersRegistry.sol",
  "compiler": {
    "name": "solc",
    "version": "0.4.24+commit.e67f0147.Emscripten.clang"
  },
  "schemaVersion": "2.0.1",
  "updatedAt": "2019-11-07T08:14:37.494Z"
}