{
  "contractName": "TwoKeyDeepFreezeTokenPool",
  "abi": [
    {
      "constant": true,
      "inputs": [],
      "name": "PROXY_STORAGE_CONTRACT",
      "outputs": [
        {
          "name": "",
          "type": "address"
        }
      ],
      "payable": false,
      "stateMutability": "view",
      "type": "function"
    },
    {
      "constant": true,
      "inputs": [],
      "name": "TWO_KEY_ECONOMY",
      "outputs": [
        {
          "name": "",
          "type": "address"
        }
      ],
      "payable": false,
      "stateMutability": "view",
      "type": "function"
    },
    {
      "constant": true,
      "inputs": [],
      "name": "implementation",
      "outputs": [
        {
          "name": "",
          "type": "address"
        }
      ],
      "payable": false,
      "stateMutability": "view",
      "type": "function"
    },
    {
      "constant": true,
      "inputs": [],
      "name": "getContractBalance",
      "outputs": [
        {
          "name": "",
          "type": "uint256"
        }
      ],
      "payable": false,
      "stateMutability": "view",
      "type": "function"
    },
    {
      "constant": true,
      "inputs": [],
      "name": "twoKeyCommunityTokenPool",
      "outputs": [
        {
          "name": "",
          "type": "address"
        }
      ],
      "payable": false,
      "stateMutability": "view",
      "type": "function"
    },
    {
      "constant": true,
      "inputs": [],
      "name": "TWO_KEY_SINGLETON_REGISTRY",
      "outputs": [
        {
          "name": "",
          "type": "address"
        }
      ],
      "payable": false,
      "stateMutability": "view",
      "type": "function"
    },
    {
      "constant": true,
      "inputs": [
        {
          "name": "_address",
          "type": "address"
        }
      ],
      "name": "getterChecker",
      "outputs": [
        {
          "name": "",
          "type": "bool"
        }
      ],
      "payable": false,
      "stateMutability": "view",
      "type": "function"
    },
    {
      "constant": false,
      "inputs": [
        {
          "name": "sender",
          "type": "address"
        }
      ],
      "name": "initialize",
      "outputs": [],
      "payable": true,
      "stateMutability": "payable",
      "type": "function"
    },
    {
      "constant": false,
      "inputs": [
        {
          "name": "_twoKeySingletonesRegistry",
          "type": "address"
        },
        {
          "name": "_erc20Address",
          "type": "address"
        },
        {
          "name": "_twoKeyCommunityTokenPool",
          "type": "address"
        },
        {
          "name": "_proxyStorage",
          "type": "address"
        }
      ],
      "name": "setInitialParams",
      "outputs": [],
      "payable": false,
      "stateMutability": "nonpayable",
      "type": "function"
    },
    {
      "constant": false,
      "inputs": [
        {
          "name": "amount",
          "type": "uint256"
        }
      ],
      "name": "transferTokensToCommunityPool",
      "outputs": [],
      "payable": false,
      "stateMutability": "nonpayable",
      "type": "function"
    }
  ],
  "bytecode": "0x60806040526000600260146101000a81548160ff02191690831515021790555034801561002b57600080fd5b50610db98061003b6000396000f3006080604052600436106100a4576000357c0100000000000000000000000000000000000000000000000000000000900463ffffffff168063105005a1146100a95780632d734df1146101005780635c60da1b146101575780636f9fb98a146101ae57806384e451c3146101d95780638830afa014610230578063a9bd894514610287578063c23eecda146102e2578063c4d66de81461030f578063f99dc1c514610345575b600080fd5b3480156100b557600080fd5b506100be6103e8565b604051808273ffffffffffffffffffffffffffffffffffffffff1673ffffffffffffffffffffffffffffffffffffffff16815260200191505060405180910390f35b34801561010c57600080fd5b5061011561040e565b604051808273ffffffffffffffffffffffffffffffffffffffff1673ffffffffffffffffffffffffffffffffffffffff16815260200191505060405180910390f35b34801561016357600080fd5b5061016c610434565b604051808273ffffffffffffffffffffffffffffffffffffffff1673ffffffffffffffffffffffffffffffffffffffff16815260200191505060405180910390f35b3480156101ba57600080fd5b506101c361045e565b6040518082815260200191505060405180910390f35b3480156101e557600080fd5b506101ee61055d565b604051808273ffffffffffffffffffffffffffffffffffffffff1673ffffffffffffffffffffffffffffffffffffffff16815260200191505060405180910390f35b34801561023c57600080fd5b50610245610583565b604051808273ffffffffffffffffffffffffffffffffffffffff1673ffffffffffffffffffffffffffffffffffffffff16815260200191505060405180910390f35b34801561029357600080fd5b506102c8600480360381019080803573ffffffffffffffffffffffffffffffffffffffff1690602001909291905050506105a9565b604051808215151515815260200191505060405180910390f35b3480156102ee57600080fd5b5061030d600480360381019080803590602001909291905050506106ca565b005b610343600480360381019080803573ffffffffffffffffffffffffffffffffffffffff1690602001909291905050506108a7565b005b34801561035157600080fd5b506103e6600480360381019080803573ffffffffffffffffffffffffffffffffffffffff169060200190929190803573ffffffffffffffffffffffffffffffffffffffff169060200190929190803573ffffffffffffffffffffffffffffffffffffffff169060200190929190803573ffffffffffffffffffffffffffffffffffffffff169060200190929190505050610905565b005b600460009054906101000a900473ffffffffffffffffffffffffffffffffffffffff1681565b600360009054906101000a900473ffffffffffffffffffffffffffffffffffffffff1681565b6000600160009054906101000a900473ffffffffffffffffffffffffffffffffffffffff16905090565b6000600360009054906101000a900473ffffffffffffffffffffffffffffffffffffffff1673ffffffffffffffffffffffffffffffffffffffff166370a08231306040518263ffffffff167c0100000000000000000000000000000000000000000000000000000000028152600401808273ffffffffffffffffffffffffffffffffffffffff1673ffffffffffffffffffffffffffffffffffffffff168152602001915050602060405180830381600087803b15801561051d57600080fd5b505af1158015610531573d6000803e3d6000fd5b505050506040513d602081101561054757600080fd5b8101908080519060200190929190505050905090565b600560009054906101000a900473ffffffffffffffffffffffffffffffffffffffff1681565b600260009054906101000a900473ffffffffffffffffffffffffffffffffffffffff1681565b6000806105ea6040805190810160405280601981526020017f54776f4b65794d61696e7461696e657273526567697374727900000000000000815250610ac8565b90508073ffffffffffffffffffffffffffffffffffffffff16635cc7815c846040518263ffffffff167c0100000000000000000000000000000000000000000000000000000000028152600401808273ffffffffffffffffffffffffffffffffffffffff1673ffffffffffffffffffffffffffffffffffffffff168152602001915050602060405180830381600087803b15801561068757600080fd5b505af115801561069b573d6000803e3d6000fd5b505050506040513d60208110156106b157600080fd5b8101908080519060200190929190505050915050919050565b60008061070b6040805190810160405280600b81526020017f54776f4b657941646d696e000000000000000000000000000000000000000000815250610ac8565b90508073ffffffffffffffffffffffffffffffffffffffff163373ffffffffffffffffffffffffffffffffffffffff1614151561074757600080fd5b600460009054906101000a900473ffffffffffffffffffffffffffffffffffffffff1673ffffffffffffffffffffffffffffffffffffffff1663bd02d0f560405180807f746f6b656e7352656c6561736544617465000000000000000000000000000000815250601101905060405180910390206040518263ffffffff167c0100000000000000000000000000000000000000000000000000000000028152600401808260001916600019168152602001915050602060405180830381600087803b15801561081557600080fd5b505af1158015610829573d6000803e3d6000fd5b505050506040513d602081101561083f57600080fd5b810190808051906020019092919050505091508261085b61045e565b1015151561086857600080fd5b814211151561087657600080fd5b6108a2600560009054906101000a900473ffffffffffffffffffffffffffffffffffffffff1684610c02565b505050565b6000809054906101000a900473ffffffffffffffffffffffffffffffffffffffff1673ffffffffffffffffffffffffffffffffffffffff163373ffffffffffffffffffffffffffffffffffffffff1614151561090257600080fd5b50565b60001515600260149054906101000a900460ff16151514151561092757600080fd5b6109318385610d07565b80600460006101000a81548173ffffffffffffffffffffffffffffffffffffffff021916908373ffffffffffffffffffffffffffffffffffffffff16021790555081600560006101000a81548173ffffffffffffffffffffffffffffffffffffffff021916908373ffffffffffffffffffffffffffffffffffffffff160217905550600460009054906101000a900473ffffffffffffffffffffffffffffffffffffffff1673ffffffffffffffffffffffffffffffffffffffff1663e2a4853a60405180807f746f6b656e7352656c6561736544617465000000000000000000000000000000815250601101905060405180910390206312cc030042016040518363ffffffff167c010000000000000000000000000000000000000000000000000000000002815260040180836000191660001916815260200182815260200192505050600060405180830381600087803b158015610a8f57600080fd5b505af1158015610aa3573d6000803e3d6000fd5b505050506001600260146101000a81548160ff02191690831515021790555050505050565b6000600260009054906101000a900473ffffffffffffffffffffffffffffffffffffffff1673ffffffffffffffffffffffffffffffffffffffff1663db7a6d90836040518263ffffffff167c01000000000000000000000000000000000000000000000000000000000281526004018080602001828103825283818151815260200191508051906020019080838360005b83811015610b74578082015181840152602081019050610b59565b50505050905090810190601f168015610ba15780820380516001836020036101000a031916815260200191505b5092505050602060405180830381600087803b158015610bc057600080fd5b505af1158015610bd4573d6000803e3d6000fd5b505050506040513d6020811015610bea57600080fd5b81019080805190602001909291905050509050919050565b600360009054906101000a900473ffffffffffffffffffffffffffffffffffffffff1673ffffffffffffffffffffffffffffffffffffffff1663a9059cbb83836040518363ffffffff167c0100000000000000000000000000000000000000000000000000000000028152600401808373ffffffffffffffffffffffffffffffffffffffff1673ffffffffffffffffffffffffffffffffffffffff16815260200182815260200192505050602060405180830381600087803b158015610cc757600080fd5b505af1158015610cdb573d6000803e3d6000fd5b505050506040513d6020811015610cf157600080fd5b8101908080519060200190929190505050505050565b81600360006101000a81548173ffffffffffffffffffffffffffffffffffffffff021916908373ffffffffffffffffffffffffffffffffffffffff16021790555080600260006101000a81548173ffffffffffffffffffffffffffffffffffffffff021916908373ffffffffffffffffffffffffffffffffffffffff16021790555050505600a165627a7a72305820cf195947ce453e359078e0edf158280ec54a37bb35fc6cfe3fa0b086480423df0029",
  "source": "pragma solidity ^0.4.24;\n\nimport \"./TokenPool.sol\";\nimport \"../interfaces/storage-contracts/ITwoKeyDeepFreezeTokenPoolStorage.sol\";\n/**\n * @author Nikola Madjarevic\n * Created at 2/5/19\n */\ncontract TwoKeyDeepFreezeTokenPool is TokenPool {\n\n    ITwoKeyDeepFreezeTokenPoolStorage public PROXY_STORAGE_CONTRACT;\n\n    address public twoKeyCommunityTokenPool;\n\n    function setInitialParams(\n        address _twoKeySingletonesRegistry,\n        address _erc20Address,\n        address _twoKeyCommunityTokenPool,\n        address _proxyStorage\n    )\n    public\n    {\n        require(initialized == false);\n\n        setInitialParameters(_erc20Address, _twoKeySingletonesRegistry);\n\n        PROXY_STORAGE_CONTRACT = ITwoKeyDeepFreezeTokenPoolStorage(_proxyStorage);\n        twoKeyCommunityTokenPool = _twoKeyCommunityTokenPool;\n\n        PROXY_STORAGE_CONTRACT.setUint(keccak256(\"tokensReleaseDate\"), block.timestamp + 10 * (1 years));\n\n        initialized = true;\n    }\n\n    /**\n     * @notice Function can transfer tokens only after 10 years to community token pool\n     * @param amount is the amount of tokens we're sending\n     * @dev only two key admin can issue a call to this method\n     */\n    function transferTokensToCommunityPool(\n        uint amount\n    )\n    public\n    onlyTwoKeyAdmin\n    {\n        uint tokensReleaseDate = PROXY_STORAGE_CONTRACT.getUint(keccak256(\"tokensReleaseDate\"));\n\n        require(getContractBalance() >= amount);\n        require(block.timestamp > tokensReleaseDate);\n        super.transferTokens(twoKeyCommunityTokenPool,amount);\n    }\n\n}\n",
  "sourcePath": "/Users/nikolamadjarevic/Desktop/2key/contracts/contracts/2key/token-pools/TwoKeyDeepFreezeTokenPool.sol",
  "compiler": {
    "name": "solc",
    "version": "0.4.24+commit.e67f0147.Emscripten.clang"
  },
  "schemaVersion": "2.0.1",
  "updatedAt": "2019-11-07T08:15:06.190Z"
}