{
  "contractName": "TwoKeyCommunityTokenPool",
  "abi": [
    {
      "constant": true,
      "inputs": [],
      "name": "PROXY_STORAGE_CONTRACT",
      "outputs": [
        {
          "name": "",
          "type": "address"
        }
      ],
      "payable": false,
      "stateMutability": "view",
      "type": "function"
    },
    {
      "constant": true,
      "inputs": [],
      "name": "TWO_KEY_ECONOMY",
      "outputs": [
        {
          "name": "",
          "type": "address"
        }
      ],
      "payable": false,
      "stateMutability": "view",
      "type": "function"
    },
    {
      "constant": true,
      "inputs": [],
      "name": "implementation",
      "outputs": [
        {
          "name": "",
          "type": "address"
        }
      ],
      "payable": false,
      "stateMutability": "view",
      "type": "function"
    },
    {
      "constant": true,
      "inputs": [],
      "name": "getContractBalance",
      "outputs": [
        {
          "name": "",
          "type": "uint256"
        }
      ],
      "payable": false,
      "stateMutability": "view",
      "type": "function"
    },
    {
      "constant": true,
      "inputs": [],
      "name": "TWO_KEY_SINGLETON_REGISTRY",
      "outputs": [
        {
          "name": "",
          "type": "address"
        }
      ],
      "payable": false,
      "stateMutability": "view",
      "type": "function"
    },
    {
      "constant": true,
      "inputs": [
        {
          "name": "_address",
          "type": "address"
        }
      ],
      "name": "getterChecker",
      "outputs": [
        {
          "name": "",
          "type": "bool"
        }
      ],
      "payable": false,
      "stateMutability": "view",
      "type": "function"
    },
    {
      "constant": false,
      "inputs": [
        {
          "name": "sender",
          "type": "address"
        }
      ],
      "name": "initialize",
      "outputs": [],
      "payable": true,
      "stateMutability": "payable",
      "type": "function"
    },
    {
      "constant": false,
      "inputs": [
        {
          "name": "twoKeySingletonesRegistry",
          "type": "address"
        },
        {
          "name": "_erc20Address",
          "type": "address"
        },
        {
          "name": "_proxyStorage",
          "type": "address"
        }
      ],
      "name": "setInitialParams",
      "outputs": [],
      "payable": false,
      "stateMutability": "nonpayable",
      "type": "function"
    },
    {
      "constant": false,
      "inputs": [
        {
          "name": "_receiver",
          "type": "address"
        },
        {
          "name": "_amount",
          "type": "uint256"
        }
      ],
      "name": "transferTokensToAddress",
      "outputs": [],
      "payable": false,
      "stateMutability": "nonpayable",
      "type": "function"
    },
    {
      "constant": true,
      "inputs": [],
      "name": "checkInWhichYearIsTheTransfer",
      "outputs": [
        {
          "name": "",
          "type": "uint256"
        }
      ],
      "payable": false,
      "stateMutability": "view",
      "type": "function"
    },
    {
      "constant": true,
      "inputs": [
        {
          "name": "key",
          "type": "string"
        }
      ],
      "name": "getUint",
      "outputs": [
        {
          "name": "",
          "type": "uint256"
        }
      ],
      "payable": false,
      "stateMutability": "view",
      "type": "function"
    }
  ],
  "bytecode": "0x60806040526000600260146101000a81548160ff02191690831515021790555034801561002b57600080fd5b506115e18061003b6000396000f3006080604052600436106100af576000357c0100000000000000000000000000000000000000000000000000000000900463ffffffff168063105005a1146100b45780632d1a10ac1461010b5780632d734df114610136578063498bff001461018d5780634c65d2d21461020a5780635c60da1b146102575780636f9fb98a146102ae5780638830afa0146102d9578063a9bd894514610330578063c4d66de81461038b578063e1f82f9a146103c1575b600080fd5b3480156100c057600080fd5b506100c9610444565b604051808273ffffffffffffffffffffffffffffffffffffffff1673ffffffffffffffffffffffffffffffffffffffff16815260200191505060405180910390f35b34801561011757600080fd5b5061012061046a565b6040518082815260200191505060405180910390f35b34801561014257600080fd5b5061014b610513565b604051808273ffffffffffffffffffffffffffffffffffffffff1673ffffffffffffffffffffffffffffffffffffffff16815260200191505060405180910390f35b34801561019957600080fd5b506101f4600480360381019080803590602001908201803590602001908080601f0160208091040260200160405190810160405280939291908181526020018383808284378201915050505050509192919290505050610539565b6040518082815260200191505060405180910390f35b34801561021657600080fd5b50610255600480360381019080803573ffffffffffffffffffffffffffffffffffffffff16906020019092919080359060200190929190505050610678565b005b34801561026357600080fd5b5061026c610a50565b604051808273ffffffffffffffffffffffffffffffffffffffff1673ffffffffffffffffffffffffffffffffffffffff16815260200191505060405180910390f35b3480156102ba57600080fd5b506102c3610a7a565b6040518082815260200191505060405180910390f35b3480156102e557600080fd5b506102ee610b79565b604051808273ffffffffffffffffffffffffffffffffffffffff1673ffffffffffffffffffffffffffffffffffffffff16815260200191505060405180910390f35b34801561033c57600080fd5b50610371600480360381019080803573ffffffffffffffffffffffffffffffffffffffff169060200190929190505050610b9f565b604051808215151515815260200191505060405180910390f35b6103bf600480360381019080803573ffffffffffffffffffffffffffffffffffffffff169060200190929190505050610cc0565b005b3480156103cd57600080fd5b50610442600480360381019080803573ffffffffffffffffffffffffffffffffffffffff169060200190929190803573ffffffffffffffffffffffffffffffffffffffff169060200190929190803573ffffffffffffffffffffffffffffffffffffffff169060200190929190505050610d1e565b005b600460009054906101000a900473ffffffffffffffffffffffffffffffffffffffff1681565b6000806000806104ae6040805190810160405280600c81526020017f7374617274696e67446174650000000000000000000000000000000000000000815250610539565b925082421180156104c457506301e13380830142105b156104d2576001935061050d565b600191506301e13380830190505b804211806104ee5750600a82145b15610509576301e133808101905081806001019250506104e0565b8193505b50505090565b600360009054906101000a900473ffffffffffffffffffffffffffffffffffffffff1681565b6000600460009054906101000a900473ffffffffffffffffffffffffffffffffffffffff1673ffffffffffffffffffffffffffffffffffffffff1663bd02d0f5836040518082805190602001908083835b6020831015156105af578051825260208201915060208101905060208303925061058a565b6001836020036101000a03801982511681845116808217855250505050505090500191505060405180910390206040518263ffffffff167c0100000000000000000000000000000000000000000000000000000000028152600401808260001916600019168152602001915050602060405180830381600087803b15801561063657600080fd5b505af115801561064a573d6000803e3d6000fd5b505050506040513d602081101561066057600080fd5b81019080805190602001909291905050509050919050565b6000806000806000806106bf6040805190810160405280600b81526020017f54776f4b657941646d696e0000000000000000000000000000000000000000008152506110b0565b90508073ffffffffffffffffffffffffffffffffffffffff163373ffffffffffffffffffffffffffffffffffffffff161415156106fb57600080fd5b60011515610708896111ea565b151514151561071657600080fd5b60008711151561072557600080fd5b61072d61046a565b9550600186101580156107415750600a8611155b151561074c57600080fd5b8560405180807f79656172546f5472616e736665726564546869735965617200000000000000008152506018018281526020019150506040518091039020945060405180807f616e6e75616c5472616e73666572416d6f756e744c696d697400000000000000815250601901905060405180910390209350600460009054906101000a900473ffffffffffffffffffffffffffffffffffffffff1673ffffffffffffffffffffffffffffffffffffffff1663bd02d0f5866040518263ffffffff167c0100000000000000000000000000000000000000000000000000000000028152600401808260001916600019168152602001915050602060405180830381600087803b15801561085d57600080fd5b505af1158015610871573d6000803e3d6000fd5b505050506040513d602081101561088757600080fd5b81019080805190602001909291905050509250600460009054906101000a900473ffffffffffffffffffffffffffffffffffffffff1673ffffffffffffffffffffffffffffffffffffffff1663bd02d0f5856040518263ffffffff167c0100000000000000000000000000000000000000000000000000000000028152600401808260001916600019168152602001915050602060405180830381600087803b15801561093357600080fd5b505af1158015610947573d6000803e3d6000fd5b505050506040513d602081101561095d57600080fd5b81019080805190602001909291905050509150818784011115151561098157600080fd5b61098b888861130b565b600460009054906101000a900473ffffffffffffffffffffffffffffffffffffffff1673ffffffffffffffffffffffffffffffffffffffff1663e2a4853a868986016040518363ffffffff167c010000000000000000000000000000000000000000000000000000000002815260040180836000191660001916815260200182815260200192505050600060405180830381600087803b158015610a2e57600080fd5b505af1158015610a42573d6000803e3d6000fd5b505050505050505050505050565b6000600160009054906101000a900473ffffffffffffffffffffffffffffffffffffffff16905090565b6000600360009054906101000a900473ffffffffffffffffffffffffffffffffffffffff1673ffffffffffffffffffffffffffffffffffffffff166370a08231306040518263ffffffff167c0100000000000000000000000000000000000000000000000000000000028152600401808273ffffffffffffffffffffffffffffffffffffffff1673ffffffffffffffffffffffffffffffffffffffff168152602001915050602060405180830381600087803b158015610b3957600080fd5b505af1158015610b4d573d6000803e3d6000fd5b505050506040513d6020811015610b6357600080fd5b8101908080519060200190929190505050905090565b600260009054906101000a900473ffffffffffffffffffffffffffffffffffffffff1681565b600080610be06040805190810160405280601981526020017f54776f4b65794d61696e7461696e6572735265676973747279000000000000008152506110b0565b90508073ffffffffffffffffffffffffffffffffffffffff16635cc7815c846040518263ffffffff167c0100000000000000000000000000000000000000000000000000000000028152600401808273ffffffffffffffffffffffffffffffffffffffff1673ffffffffffffffffffffffffffffffffffffffff168152602001915050602060405180830381600087803b158015610c7d57600080fd5b505af1158015610c91573d6000803e3d6000fd5b505050506040513d6020811015610ca757600080fd5b8101908080519060200190929190505050915050919050565b6000809054906101000a900473ffffffffffffffffffffffffffffffffffffffff1673ffffffffffffffffffffffffffffffffffffffff163373ffffffffffffffffffffffffffffffffffffffff16141515610d1b57600080fd5b50565b6000806000801515600260149054906101000a900460ff161515141515610d4457600080fd5b610d7085600260009054906101000a900473ffffffffffffffffffffffffffffffffffffffff16611410565b83600460006101000a81548173ffffffffffffffffffffffffffffffffffffffff021916908373ffffffffffffffffffffffffffffffffffffffff160217905550610df46040805190810160405280601081526020017f746f74616c416d6f756e74326b65797300000000000000000000000000000000815250630bebc200611496565b610e376040805190810160405280601981526020017f616e6e75616c5472616e73666572416d6f756e744c696d6974000000000000008152506301312d00611496565b610e766040805190810160405280600c81526020017f7374617274696e6744617465000000000000000000000000000000000000000081525042611496565b600192505b600a8311151561108d578260405180807f79656172546f5374617274696e67446174650000000000000000000000000000815250601201828152602001915050604051809103902091508260405180807f79656172546f5472616e7366657265645468697359656172000000000000000081525060180182815260200191505060405180910390209050600460009054906101000a900473ffffffffffffffffffffffffffffffffffffffff1673ffffffffffffffffffffffffffffffffffffffff1663e2a4853a836301e13380860242016040518363ffffffff167c010000000000000000000000000000000000000000000000000000000002815260040180836000191660001916815260200182815260200192505050600060405180830381600087803b158015610fae57600080fd5b505af1158015610fc2573d6000803e3d6000fd5b50505050600460009054906101000a900473ffffffffffffffffffffffffffffffffffffffff1673ffffffffffffffffffffffffffffffffffffffff1663e2a4853a8260006040518363ffffffff167c010000000000000000000000000000000000000000000000000000000002815260040180836000191660001916815260200182815260200192505050600060405180830381600087803b15801561106857600080fd5b505af115801561107c573d6000803e3d6000fd5b505050508280600101935050610e7b565b6001600260146101000a81548160ff021916908315150217905550505050505050565b6000600260009054906101000a900473ffffffffffffffffffffffffffffffffffffffff1673ffffffffffffffffffffffffffffffffffffffff1663db7a6d90836040518263ffffffff167c01000000000000000000000000000000000000000000000000000000000281526004018080602001828103825283818151815260200191508051906020019080838360005b8381101561115c578082015181840152602081019050611141565b50505050905090810190601f1680156111895780820380516001836020036101000a031916815260200191505b5092505050602060405180830381600087803b1580156111a857600080fd5b505af11580156111bc573d6000803e3d6000fd5b505050506040513d60208110156111d257600080fd5b81019080805190602001909291905050509050919050565b60008061122b6040805190810160405280600e81526020017f54776f4b657952656769737472790000000000000000000000000000000000008152506110b0565b90508073ffffffffffffffffffffffffffffffffffffffff16639371de2b846040518263ffffffff167c0100000000000000000000000000000000000000000000000000000000028152600401808273ffffffffffffffffffffffffffffffffffffffff1673ffffffffffffffffffffffffffffffffffffffff168152602001915050602060405180830381600087803b1580156112c857600080fd5b505af11580156112dc573d6000803e3d6000fd5b505050506040513d60208110156112f257600080fd5b8101908080519060200190929190505050915050919050565b600360009054906101000a900473ffffffffffffffffffffffffffffffffffffffff1673ffffffffffffffffffffffffffffffffffffffff1663a9059cbb83836040518363ffffffff167c0100000000000000000000000000000000000000000000000000000000028152600401808373ffffffffffffffffffffffffffffffffffffffff1673ffffffffffffffffffffffffffffffffffffffff16815260200182815260200192505050602060405180830381600087803b1580156113d057600080fd5b505af11580156113e4573d6000803e3d6000fd5b505050506040513d60208110156113fa57600080fd5b8101908080519060200190929190505050505050565b81600360006101000a81548173ffffffffffffffffffffffffffffffffffffffff021916908373ffffffffffffffffffffffffffffffffffffffff16021790555080600260006101000a81548173ffffffffffffffffffffffffffffffffffffffff021916908373ffffffffffffffffffffffffffffffffffffffff1602179055505050565b600460009054906101000a900473ffffffffffffffffffffffffffffffffffffffff1673ffffffffffffffffffffffffffffffffffffffff1663e2a4853a836040518082805190602001908083835b60208310151561150a57805182526020820191506020810190506020830392506114e5565b6001836020036101000a0380198251168184511680821785525050505050509050019150506040518091039020836040518363ffffffff167c010000000000000000000000000000000000000000000000000000000002815260040180836000191660001916815260200182815260200192505050600060405180830381600087803b15801561159957600080fd5b505af11580156115ad573d6000803e3d6000fd5b5050505050505600a165627a7a72305820b6344a20b45ac22d97654530a27c874c5661962572cdb34b897f839db6859ada0029",
  "source": "pragma solidity ^0.4.24;\n\nimport \"./TokenPool.sol\";\nimport \"../interfaces/ITwoKeyRegistry.sol\";\nimport \"../interfaces/storage-contracts/ITwoKeyCommunityTokenPoolStorage.sol\";\n/**\n * @author Nikola Madjarevic\n * Created at 2/5/19\n */\ncontract TwoKeyCommunityTokenPool is TokenPool {\n\n    ITwoKeyCommunityTokenPoolStorage public PROXY_STORAGE_CONTRACT;\n\n\n    mapping(uint => uint) yearToStartingDate;\n    mapping(uint => uint) yearToTransferedThisYear;\n\n\n\n    function setInitialParams(\n        address twoKeySingletonesRegistry,\n        address _erc20Address,\n        address _proxyStorage\n    )\n    external\n    {\n        require(initialized == false);\n\n        setInitialParameters(_erc20Address, TWO_KEY_SINGLETON_REGISTRY);\n\n        PROXY_STORAGE_CONTRACT = ITwoKeyCommunityTokenPoolStorage(_proxyStorage);\n\n        setUint(\"totalAmount2keys\", 200000000);\n        setUint(\"annualTransferAmountLimit\", 20000000);\n        setUint(\"startingDate\", block.timestamp);\n\n        for(uint i=1; i<=10; i++) {\n            bytes32 key1 = keccak256(\"yearToStartingDate\", i);\n            bytes32 key2 = keccak256(\"yearToTransferedThisYear\", i);\n\n            PROXY_STORAGE_CONTRACT.setUint(key1, block.timestamp + i*(1 years));\n            PROXY_STORAGE_CONTRACT.setUint(key2, 0);\n        }\n\n        initialized = true;\n    }\n\n    /**\n     * @notice Function to validate if the user is properly registered in TwoKeyRegistry\n     */\n    function validateRegistrationOfReceiver(\n        address _receiver\n    )\n    internal\n    view\n    returns (bool)\n    {\n        address twoKeyRegistry = getAddressFromTwoKeySingletonRegistry(\"TwoKeyRegistry\");\n        return ITwoKeyRegistry(twoKeyRegistry).checkIfUserExists(_receiver);\n    }\n\n    /**\n     * @notice Function which does transfer with special requirements with annual limit\n     * @param _receiver is the receiver of the tokens\n     * @param _amount is the amount of tokens sent\n     * @dev Only TwoKeyAdmin contract can issue this call\n     */\n    function transferTokensToAddress(\n        address _receiver,\n        uint _amount\n    )\n    public\n    onlyTwoKeyAdmin\n    {\n        require(validateRegistrationOfReceiver(_receiver) == true);\n        require(_amount > 0);\n\n        uint year = checkInWhichYearIsTheTransfer();\n        require(year >= 1 && year <= 10);\n\n        bytes32 keyTransferedThisYear = keccak256(\"yearToTransferedThisYear\",year);\n        bytes32 keyAnnualTransferAmountLimit = keccak256(\"annualTransferAmountLimit\");\n\n        uint transferedThisYear = PROXY_STORAGE_CONTRACT.getUint(keyTransferedThisYear);\n        uint annualTransferAmountLimit = PROXY_STORAGE_CONTRACT.getUint(keyAnnualTransferAmountLimit);\n\n        require(transferedThisYear + _amount <= annualTransferAmountLimit);\n        super.transferTokens(_receiver,_amount);\n\n        PROXY_STORAGE_CONTRACT.setUint(keyTransferedThisYear, transferedThisYear + _amount);\n\n    }\n\n    function checkInWhichYearIsTheTransfer()\n    public\n    view\n    returns (uint)\n    {\n        uint startingDate = getUint(\"startingDate\");\n\n        if(block.timestamp > startingDate && block.timestamp < startingDate + 1 years) {\n            return 1;\n        } else {\n            uint counter = 1;\n            uint start = startingDate + 1 years; //means we're checking for the second year\n            while(block.timestamp > start || counter == 10) {\n                start = start + 1 years;\n                counter ++;\n            }\n            return counter;\n        }\n    }\n\n    // Internal wrapper method\n    function setUint(\n        string key,\n        uint value\n    )\n    internal\n    {\n        PROXY_STORAGE_CONTRACT.setUint(keccak256(key), value);\n    }\n\n    function getUint(\n        string key\n    )\n    public\n    view\n    returns (uint)\n    {\n        return PROXY_STORAGE_CONTRACT.getUint(keccak256(key));\n    }\n\n}\n",
  "sourcePath": "/Users/nikolamadjarevic/Desktop/2key/contracts/contracts/2key/token-pools/TwoKeyCommunityTokenPool.sol",
  "compiler": {
    "name": "solc",
    "version": "0.4.24+commit.e67f0147.Emscripten.clang"
  },
  "schemaVersion": "2.0.1",
  "updatedAt": "2019-11-07T08:15:06.227Z"
}