{
  "contractName": "TwoKeyAdmin",
  "abi": [
    {
      "constant": true,
      "inputs": [],
      "name": "PROXY_STORAGE_CONTRACT",
      "outputs": [
        {
          "name": "",
          "type": "address"
        }
      ],
      "payable": false,
      "stateMutability": "view",
      "type": "function"
    },
    {
      "constant": true,
      "inputs": [],
      "name": "implementation",
      "outputs": [
        {
          "name": "",
          "type": "address"
        }
      ],
      "payable": false,
      "stateMutability": "view",
      "type": "function"
    },
    {
      "constant": true,
      "inputs": [],
      "name": "TWO_KEY_SINGLETON_REGISTRY",
      "outputs": [
        {
          "name": "",
          "type": "address"
        }
      ],
      "payable": false,
      "stateMutability": "view",
      "type": "function"
    },
    {
      "constant": true,
      "inputs": [
        {
          "name": "_address",
          "type": "address"
        }
      ],
      "name": "getterChecker",
      "outputs": [
        {
          "name": "",
          "type": "bool"
        }
      ],
      "payable": false,
      "stateMutability": "view",
      "type": "function"
    },
    {
      "constant": false,
      "inputs": [
        {
          "name": "sender",
          "type": "address"
        }
      ],
      "name": "initialize",
      "outputs": [],
      "payable": true,
      "stateMutability": "payable",
      "type": "function"
    },
    {
      "payable": true,
      "stateMutability": "payable",
      "type": "fallback"
    },
    {
      "constant": false,
      "inputs": [
        {
          "name": "_twoKeySingletonRegistry",
          "type": "address"
        },
        {
          "name": "_proxyStorageContract",
          "type": "address"
        },
        {
          "name": "_twoKeyCongress",
          "type": "address"
        },
        {
          "name": "_economy",
          "type": "address"
        },
        {
          "name": "_twoKeyTokenReleaseDate",
          "type": "uint256"
        }
      ],
      "name": "setInitialParams",
      "outputs": [],
      "payable": false,
      "stateMutability": "nonpayable",
      "type": "function"
    },
    {
      "constant": false,
      "inputs": [
        {
          "name": "to",
          "type": "address"
        },
        {
          "name": "amount",
          "type": "uint256"
        }
      ],
      "name": "transferEtherByAdmins",
      "outputs": [],
      "payable": false,
      "stateMutability": "nonpayable",
      "type": "function"
    },
    {
      "constant": false,
      "inputs": [
        {
          "name": "_name",
          "type": "string"
        },
        {
          "name": "_addr",
          "type": "address"
        },
        {
          "name": "_fullName",
          "type": "string"
        },
        {
          "name": "_email",
          "type": "string"
        },
        {
          "name": "_signature",
          "type": "bytes"
        }
      ],
      "name": "addNameToReg",
      "outputs": [],
      "payable": false,
      "stateMutability": "nonpayable",
      "type": "function"
    },
    {
      "constant": false,
      "inputs": [],
      "name": "freezeTransfersInEconomy",
      "outputs": [],
      "payable": false,
      "stateMutability": "nonpayable",
      "type": "function"
    },
    {
      "constant": false,
      "inputs": [],
      "name": "unfreezeTransfersInEconomy",
      "outputs": [],
      "payable": false,
      "stateMutability": "nonpayable",
      "type": "function"
    },
    {
      "constant": false,
      "inputs": [
        {
          "name": "_to",
          "type": "address"
        },
        {
          "name": "_amount",
          "type": "uint256"
        }
      ],
      "name": "transfer2KeyTokens",
      "outputs": [
        {
          "name": "",
          "type": "bool"
        }
      ],
      "payable": false,
      "stateMutability": "nonpayable",
      "type": "function"
    },
    {
      "constant": true,
      "inputs": [],
      "name": "getTwoKeyRewardsReleaseDate",
      "outputs": [
        {
          "name": "",
          "type": "uint256"
        }
      ],
      "payable": false,
      "stateMutability": "view",
      "type": "function"
    },
    {
      "constant": true,
      "inputs": [],
      "name": "getDefaultIntegratorFeePercent",
      "outputs": [
        {
          "name": "",
          "type": "uint256"
        }
      ],
      "payable": false,
      "stateMutability": "view",
      "type": "function"
    },
    {
      "constant": true,
      "inputs": [],
      "name": "getDefaultNetworkTaxPercent",
      "outputs": [
        {
          "name": "",
          "type": "uint256"
        }
      ],
      "payable": false,
      "stateMutability": "view",
      "type": "function"
    },
    {
      "constant": true,
      "inputs": [],
      "name": "getTwoKeyTokenRate",
      "outputs": [
        {
          "name": "",
          "type": "uint256"
        }
      ],
      "payable": false,
      "stateMutability": "view",
      "type": "function"
    },
    {
      "constant": false,
      "inputs": [
        {
          "name": "newDate",
          "type": "uint256"
        }
      ],
      "name": "setNewTwoKeyRewardsReleaseDate",
      "outputs": [],
      "payable": false,
      "stateMutability": "nonpayable",
      "type": "function"
    },
    {
      "constant": false,
      "inputs": [
        {
          "name": "newFeePercent",
          "type": "uint256"
        }
      ],
      "name": "setDefaultIntegratorFeePercent",
      "outputs": [],
      "payable": false,
      "stateMutability": "nonpayable",
      "type": "function"
    }
  ],
  "bytecode": "0x60806040526000600260146101000a81548160ff02191690831515021790555034801561002b57600080fd5b506118758061003b6000396000f3006080604052600436106100f1576000357c0100000000000000000000000000000000000000000000000000000000900463ffffffff1680630729d5e1146100f3578063105005a11461010a578063264198ad1461016157806327fe7641146101785780635795aa56146101a35780635c60da1b146101ce5780636b88f51b146102255780638830afa0146102c85780639ffe94d91461031f578063a3b688f214610384578063a9bd8945146103d1578063c4d66de81461042c578063eb07fec214610462578063ef33a2261461048d578063f0cd4dce146104ba578063f87f9167146104e5578063fd62a38b14610512575b005b3480156100ff57600080fd5b506101086105bf565b005b34801561011657600080fd5b5061011f6106bb565b604051808273ffffffffffffffffffffffffffffffffffffffff1673ffffffffffffffffffffffffffffffffffffffff16815260200191505060405180910390f35b34801561016d57600080fd5b506101766106e1565b005b34801561018457600080fd5b5061018d6107dd565b6040518082815260200191505060405180910390f35b3480156101af57600080fd5b506101b8610849565b6040518082815260200191505060405180910390f35b3480156101da57600080fd5b506101e361088e565b604051808273ffffffffffffffffffffffffffffffffffffffff1673ffffffffffffffffffffffffffffffffffffffff16815260200191505060405180910390f35b34801561023157600080fd5b506102c6600480360381019080803590602001908201803590602001919091929391929390803573ffffffffffffffffffffffffffffffffffffffff1690602001909291908035906020019082018035906020019190919293919293908035906020019082018035906020019190919293919293908035906020019082018035906020019190919293919293905050506108b8565b005b3480156102d457600080fd5b506102dd610a41565b604051808273ffffffffffffffffffffffffffffffffffffffff1673ffffffffffffffffffffffffffffffffffffffff16815260200191505060405180910390f35b34801561032b57600080fd5b5061036a600480360381019080803573ffffffffffffffffffffffffffffffffffffffff16906020019092919080359060200190929190505050610a67565b604051808215151515815260200191505060405180910390f35b34801561039057600080fd5b506103cf600480360381019080803573ffffffffffffffffffffffffffffffffffffffff16906020019092919080359060200190929190505050610bd2565b005b3480156103dd57600080fd5b50610412600480360381019080803573ffffffffffffffffffffffffffffffffffffffff169060200190929190505050610cb5565b604051808215151515815260200191505060405180910390f35b610460600480360381019080803573ffffffffffffffffffffffffffffffffffffffff169060200190929190505050610dd6565b005b34801561046e57600080fd5b50610477610e34565b6040518082815260200191505060405180910390f35b34801561049957600080fd5b506104b860048036038101908080359060200190929190505050610e79565b005b3480156104c657600080fd5b506104cf611028565b6040518082815260200191505060405180910390f35b3480156104f157600080fd5b506105106004803603810190808035906020019092919050505061106d565b005b34801561051e57600080fd5b506105bd600480360381019080803573ffffffffffffffffffffffffffffffffffffffff169060200190929190803573ffffffffffffffffffffffffffffffffffffffff169060200190929190803573ffffffffffffffffffffffffffffffffffffffff169060200190929190803573ffffffffffffffffffffffffffffffffffffffff16906020019092919080359060200190929190505050611243565b005b600460009054906101000a900473ffffffffffffffffffffffffffffffffffffffff1673ffffffffffffffffffffffffffffffffffffffff163373ffffffffffffffffffffffffffffffffffffffff1614151561061b57600080fd5b600560009054906101000a900473ffffffffffffffffffffffffffffffffffffffff1673ffffffffffffffffffffffffffffffffffffffff1663015024606040518163ffffffff167c0100000000000000000000000000000000000000000000000000000000028152600401600060405180830381600087803b1580156106a157600080fd5b505af11580156106b5573d6000803e3d6000fd5b50505050565b600360009054906101000a900473ffffffffffffffffffffffffffffffffffffffff1681565b600460009054906101000a900473ffffffffffffffffffffffffffffffffffffffff1673ffffffffffffffffffffffffffffffffffffffff163373ffffffffffffffffffffffffffffffffffffffff1614151561073d57600080fd5b600560009054906101000a900473ffffffffffffffffffffffffffffffffffffffff1673ffffffffffffffffffffffffffffffffffffffff166331c420d46040518163ffffffff167c0100000000000000000000000000000000000000000000000000000000028152600401600060405180830381600087803b1580156107c357600080fd5b505af11580156107d7573d6000803e3d6000fd5b50505050565b6000610844606060405190810160405280602181526020017f74776f4b6579496e7465677261746f7244656661756c7446656550657263656e81526020017f74000000000000000000000000000000000000000000000000000000000000008152506114b1565b905090565b60006108896040805190810160405280601781526020017f74776f4b65794e6574776f726b54617850657263656e740000000000000000008152506114b1565b905090565b6000600160009054906101000a900473ffffffffffffffffffffffffffffffffffffffff16905090565b60006108f86040805190810160405280600e81526020017f54776f4b657952656769737472790000000000000000000000000000000000008152506115f0565b90508073ffffffffffffffffffffffffffffffffffffffff16636259b3b78b8b8b8b8b8b8b8b8b6040518a63ffffffff167c010000000000000000000000000000000000000000000000000000000002815260040180806020018973ffffffffffffffffffffffffffffffffffffffff1673ffffffffffffffffffffffffffffffffffffffff16815260200180602001806020018060200185810385528e8e82818152602001925080828437820191505085810384528b8b82818152602001925080828437820191505085810383528989828181526020019250808284378201915050858103825287878281815260200192508082843782019150509d5050505050505050505050505050600060405180830381600087803b158015610a1d57600080fd5b505af1158015610a31573d6000803e3d6000fd5b5050505050505050505050505050565b600260009054906101000a900473ffffffffffffffffffffffffffffffffffffffff1681565b600080600460009054906101000a900473ffffffffffffffffffffffffffffffffffffffff1673ffffffffffffffffffffffffffffffffffffffff163373ffffffffffffffffffffffffffffffffffffffff16141515610ac657600080fd5b600560009054906101000a900473ffffffffffffffffffffffffffffffffffffffff1673ffffffffffffffffffffffffffffffffffffffff1663a9059cbb85856040518363ffffffff167c0100000000000000000000000000000000000000000000000000000000028152600401808373ffffffffffffffffffffffffffffffffffffffff1673ffffffffffffffffffffffffffffffffffffffff16815260200182815260200192505050602060405180830381600087803b158015610b8b57600080fd5b505af1158015610b9f573d6000803e3d6000fd5b505050506040513d6020811015610bb557600080fd5b810190808051906020019092919050505090508091505092915050565b600460009054906101000a900473ffffffffffffffffffffffffffffffffffffffff1673ffffffffffffffffffffffffffffffffffffffff163373ffffffffffffffffffffffffffffffffffffffff16141515610c2e57600080fd5b600073ffffffffffffffffffffffffffffffffffffffff168273ffffffffffffffffffffffffffffffffffffffff1614151515610c6a57600080fd5b8173ffffffffffffffffffffffffffffffffffffffff166108fc829081150290604051600060405180830381858888f19350505050158015610cb0573d6000803e3d6000fd5b505050565b600080610cf66040805190810160405280601981526020017f54776f4b65794d61696e7461696e6572735265676973747279000000000000008152506115f0565b90508073ffffffffffffffffffffffffffffffffffffffff16635cc7815c846040518263ffffffff167c0100000000000000000000000000000000000000000000000000000000028152600401808273ffffffffffffffffffffffffffffffffffffffff1673ffffffffffffffffffffffffffffffffffffffff168152602001915050602060405180830381600087803b158015610d9357600080fd5b505af1158015610da7573d6000803e3d6000fd5b505050506040513d6020811015610dbd57600080fd5b8101908080519060200190929190505050915050919050565b6000809054906101000a900473ffffffffffffffffffffffffffffffffffffffff1673ffffffffffffffffffffffffffffffffffffffff163373ffffffffffffffffffffffffffffffffffffffff16141515610e3157600080fd5b50565b6000610e746040805190810160405280600f81526020017f74776f4b6579546f6b656e5261746500000000000000000000000000000000008152506114b1565b905090565b600460009054906101000a900473ffffffffffffffffffffffffffffffffffffffff1673ffffffffffffffffffffffffffffffffffffffff163373ffffffffffffffffffffffffffffffffffffffff16141515610ed557600080fd5b600360009054906101000a900473ffffffffffffffffffffffffffffffffffffffff1673ffffffffffffffffffffffffffffffffffffffff1663e2a4853a6040805190810160405280601281526020017f72657761726452656c65617365416674657200000000000000000000000000008152506040518082805190602001908083835b602083101515610f7e5780518252602082019150602081019050602083039250610f59565b6001836020036101000a0380198251168184511680821785525050505050509050019150506040518091039020836040518363ffffffff167c010000000000000000000000000000000000000000000000000000000002815260040180836000191660001916815260200182815260200192505050600060405180830381600087803b15801561100d57600080fd5b505af1158015611021573d6000803e3d6000fd5b5050505050565b60006110686040805190810160405280601281526020017f72657761726452656c65617365416674657200000000000000000000000000008152506114b1565b905090565b600460009054906101000a900473ffffffffffffffffffffffffffffffffffffffff1673ffffffffffffffffffffffffffffffffffffffff163373ffffffffffffffffffffffffffffffffffffffff161415156110c957600080fd5b600360009054906101000a900473ffffffffffffffffffffffffffffffffffffffff1673ffffffffffffffffffffffffffffffffffffffff1663e2a4853a606060405190810160405280602181526020017f74776f4b6579496e7465677261746f7244656661756c7446656550657263656e81526020017f74000000000000000000000000000000000000000000000000000000000000008152506040518082805190602001908083835b6020831015156111995780518252602082019150602081019050602083039250611174565b6001836020036101000a0380198251168184511680821785525050505050509050019150506040518091039020836040518363ffffffff167c010000000000000000000000000000000000000000000000000000000002815260040180836000191660001916815260200182815260200192505050600060405180830381600087803b15801561122857600080fd5b505af115801561123c573d6000803e3d6000fd5b5050505050565b60001515600260149054906101000a900460ff16151514151561126557600080fd5b84600260006101000a81548173ffffffffffffffffffffffffffffffffffffffff021916908373ffffffffffffffffffffffffffffffffffffffff16021790555083600360006101000a81548173ffffffffffffffffffffffffffffffffffffffff021916908373ffffffffffffffffffffffffffffffffffffffff16021790555082600460006101000a81548173ffffffffffffffffffffffffffffffffffffffff021916908373ffffffffffffffffffffffffffffffffffffffff16021790555081600560006101000a81548173ffffffffffffffffffffffffffffffffffffffff021916908373ffffffffffffffffffffffffffffffffffffffff1602179055506113d0606060405190810160405280602181526020017f74776f4b6579496e7465677261746f7244656661756c7446656550657263656e81526020017f7400000000000000000000000000000000000000000000000000000000000000815250600261172a565b6114106040805190810160405280601781526020017f74776f4b65794e6574776f726b54617850657263656e74000000000000000000815250601961172a565b6114506040805190810160405280600f81526020017f74776f4b6579546f6b656e526174650000000000000000000000000000000000815250605f61172a565b61148f6040805190810160405280601281526020017f72657761726452656c65617365416674657200000000000000000000000000008152508261172a565b6001600260146101000a81548160ff0219169083151502179055505050505050565b6000600360009054906101000a900473ffffffffffffffffffffffffffffffffffffffff1673ffffffffffffffffffffffffffffffffffffffff1663bd02d0f5836040518082805190602001908083835b6020831015156115275780518252602082019150602081019050602083039250611502565b6001836020036101000a03801982511681845116808217855250505050505090500191505060405180910390206040518263ffffffff167c0100000000000000000000000000000000000000000000000000000000028152600401808260001916600019168152602001915050602060405180830381600087803b1580156115ae57600080fd5b505af11580156115c2573d6000803e3d6000fd5b505050506040513d60208110156115d857600080fd5b81019080805190602001909291905050509050919050565b6000600260009054906101000a900473ffffffffffffffffffffffffffffffffffffffff1673ffffffffffffffffffffffffffffffffffffffff1663db7a6d90836040518263ffffffff167c01000000000000000000000000000000000000000000000000000000000281526004018080602001828103825283818151815260200191508051906020019080838360005b8381101561169c578082015181840152602081019050611681565b50505050905090810190601f1680156116c95780820380516001836020036101000a031916815260200191505b5092505050602060405180830381600087803b1580156116e857600080fd5b505af11580156116fc573d6000803e3d6000fd5b505050506040513d602081101561171257600080fd5b81019080805190602001909291905050509050919050565b600360009054906101000a900473ffffffffffffffffffffffffffffffffffffffff1673ffffffffffffffffffffffffffffffffffffffff1663e2a4853a836040518082805190602001908083835b60208310151561179e5780518252602082019150602081019050602083039250611779565b6001836020036101000a0380198251168184511680821785525050505050509050019150506040518091039020836040518363ffffffff167c010000000000000000000000000000000000000000000000000000000002815260040180836000191660001916815260200182815260200192505050600060405180830381600087803b15801561182d57600080fd5b505af1158015611841573d6000803e3d6000fd5b5050505050505600a165627a7a72305820cb3fd17d8b0060f56150af1488a9952cdf711d8b798d75f1a4a692212fd78e330029",
  "source": "pragma solidity ^0.4.24;\n\nimport \"../interfaces/IERC20.sol\";\nimport \"../interfaces/ITwoKeyReg.sol\";\nimport \"../upgradability/Upgradeable.sol\";\nimport \"../interfaces/storage-contracts/ITwoKeyAdminStorage.sol\";\nimport \"../non-upgradable-singletons/ITwoKeySingletonUtils.sol\";\n\ncontract TwoKeyAdmin is Upgradeable, ITwoKeySingletonUtils {\n\n\t/**\n\t * Storage keys are stored on the top. Here they are in order to avoid any typos\n\t */\n\tstring constant _twoKeyIntegratorDefaultFeePercent = \"twoKeyIntegratorDefaultFeePercent\";\n\tstring constant _twoKeyNetworkTaxPercent = \"twoKeyNetworkTaxPercent\";\n\tstring constant _twoKeyTokenRate = \"twoKeyTokenRate\";\n\tstring constant _rewardReleaseAfter = \"rewardReleaseAfter\";\n\n\tbool initialized = false;\n\n\tITwoKeyAdminStorage public PROXY_STORAGE_CONTRACT; //Pointer to storage contract\n\n\taddress twoKeyCongress; // Address of TwoKeyCongress (logic)\n\taddress twoKeyEconomy; // Address of TwoKeyEconomy (2KEY ERC20 token)\n\n\n    /// @notice Modifier which throws if caller is not TwoKeyCongress\n\tmodifier onlyTwoKeyCongress {\n\t\trequire(msg.sender == twoKeyCongress);\n\t    _;\n\t}\n\n    /// @notice Modifier will revert if caller is not TwoKeyUpgradableExchange\n    modifier onlyTwoKeyUpgradableExchange {\n\t\taddress twoKeyUpgradableExchange = getAddressFromTwoKeySingletonRegistry(\"TwoKeyUpgradableExchange\");\n        require(msg.sender == address(twoKeyUpgradableExchange));\n        _;\n    }\n\n    /**\n     * @notice Function to set initial parameters in the contract including singletones\n     * @param _twoKeySingletonRegistry is the singletons registry contract address\n     * @param _proxyStorageContract is the address of proxy for storage for this contract\n     * @param _twoKeyCongress is the address of TwoKeyCongress\n     * @param _economy is the address of TwoKeyEconomy\n     * @dev This function can be called only once, which will be done immediately after deployment.\n     */\n    function setInitialParams(\n\t\taddress _twoKeySingletonRegistry,\n\t\taddress _proxyStorageContract,\n        address _twoKeyCongress,\n        address _economy,\n\t\tuint _twoKeyTokenReleaseDate\n    ) external {\n        require(initialized == false);\n\n\t\tTWO_KEY_SINGLETON_REGISTRY = _twoKeySingletonRegistry;\n\t\tPROXY_STORAGE_CONTRACT = ITwoKeyAdminStorage(_proxyStorageContract);\n\t\ttwoKeyCongress = _twoKeyCongress;\n\t\ttwoKeyEconomy = _economy;\n\n\t\tsetUint(_twoKeyIntegratorDefaultFeePercent,2);\n\t\tsetUint(_twoKeyNetworkTaxPercent,25);\n\t\tsetUint(_twoKeyTokenRate, 95);\n\t\tsetUint(_rewardReleaseAfter, _twoKeyTokenReleaseDate);\n\n        initialized = true;\n    }\n\n\n    /// @notice Function where only TwoKeyCongress can transfer ether to an address\n    /// @dev We're recurring to address different from address 0\n    /// @param to receiver's address\n    /// @param amount of ether to be transferred\n\tfunction transferEtherByAdmins(\n\t\taddress to,\n\t\tuint256 amount\n\t)\n\texternal\n\tonlyTwoKeyCongress\n\t{\n\t\trequire(to != address(0));\n\t\tto.transfer(amount);\n\t}\n\n\n    /// @notice Function to add/update name - address pair from twoKeyAdmin\n\t/// @param _name is name of user\n\t/// @param _addr is address of user\n\t/// @param _fullName is full name of the user\n\t/// @param _email is the email of the user\n\t/// @param _signature is the signature generated on client side\n    function addNameToReg(\n\t\tstring _name,\n\t\taddress _addr,\n\t\tstring _fullName,\n\t\tstring _email,\n\t\tbytes _signature\n\t) external {\n\t\taddress twoKeyRegistry = getAddressFromTwoKeySingletonRegistry(\"TwoKeyRegistry\");\n    \tITwoKeyReg(twoKeyRegistry).addName(_name, _addr, _fullName, _email, _signature);\n    }\n\n\n\t/// @notice Function to freeze all transfers for 2KEY token\n\tfunction freezeTransfersInEconomy()\n\texternal\n\tonlyTwoKeyCongress\n\t{\n\t\tIERC20(address(twoKeyEconomy)).freezeTransfers();\n\t}\n\n\t/// @notice Function to unfreeze all transfers for 2KEY token\n\tfunction unfreezeTransfersInEconomy()\n\texternal\n\tonlyTwoKeyCongress\n\t{\n\t\tIERC20(address(twoKeyEconomy)).unfreezeTransfers();\n\t}\n\n\t/// @notice Function to transfer 2key tokens\n\t/// @dev only TwoKeyCongress can call this function\n\t/// @param _to is tokens receiver\n\t/// @param _amount is the amount of tokens to be transferred\n    function transfer2KeyTokens(\n\t\taddress _to,\n\t\tuint256 _amount\n\t)\n\tpublic\n\tonlyTwoKeyCongress\n\treturns (bool)\n\t{\n\t\tbool completed = IERC20(twoKeyEconomy).transfer(_to, _amount);\n\t\treturn completed;\n\t}\n\n\t/// @notice Getter for all integers we'd like to store\n\t/// @param key is the key (var name)\n\tfunction getUint(\n\t\tstring key\n\t)\n\tinternal\n\tview\n\treturns (uint)\n\t{\n\t\treturn PROXY_STORAGE_CONTRACT.getUint(keccak256(key));\n\t}\n\n\t/// @notice Setter for all integers we'd like to store\n\t/// @param key is the key (var name)\n\t/// @param value is the value of integer we'd like to store\n\tfunction setUint(\n\t\tstring key,\n\t\tuint value\n\t)\n\tinternal\n\t{\n\t\tPROXY_STORAGE_CONTRACT.setUint(keccak256(key), value);\n\t}\n\n\t/// @notice Getter function for TwoKeyRewardsReleaseDate\n\tfunction getTwoKeyRewardsReleaseDate()\n\texternal\n\tview\n\treturns(uint)\n\t{\n\t\treturn getUint(_rewardReleaseAfter);\n\t}\n\n\t/// @notice Getter function for TwoKeyIntegratorDefaultFeePercent\n\tfunction getDefaultIntegratorFeePercent()\n\tpublic\n\tview\n\treturns (uint)\n\t{\n\t\treturn getUint(_twoKeyIntegratorDefaultFeePercent);\n\t}\n\n\t/// @notice Getter function for TwoKeyNetworkTaxPercent\n\tfunction getDefaultNetworkTaxPercent()\n\tpublic\n\tview\n\treturns (uint)\n\t{\n\t\treturn getUint(_twoKeyNetworkTaxPercent);\n\t}\n\n\t/// @notice Getter function for TwoKeyTokenRate\n\tfunction getTwoKeyTokenRate()\n\tpublic\n\tview\n\treturns (uint)\n\t{\n\t\treturn getUint(_twoKeyTokenRate);\n\t}\n\n\tfunction setNewTwoKeyRewardsReleaseDate(\n\t\tuint256 newDate\n\t)\n\tpublic\n\tonlyTwoKeyCongress\n\t{\n\t\tPROXY_STORAGE_CONTRACT.setUint(keccak256(_rewardReleaseAfter),newDate);\n\t}\n\n\tfunction setDefaultIntegratorFeePercent(\n\t\tuint newFeePercent\n\t)\n\texternal\n\tonlyTwoKeyCongress\n\t{\n\t\tPROXY_STORAGE_CONTRACT.setUint(keccak256(_twoKeyIntegratorDefaultFeePercent),newFeePercent);\n\t}\n\n\n\t/// Fallback function\n\tfunction()\n\texternal\n\tpayable\n\t{\n\n\t}\n\n}\n",
  "sourcePath": "/Users/nikolamadjarevic/Desktop/2key/contracts/contracts/2key/singleton-contracts/TwoKeyAdmin.sol",
  "compiler": {
    "name": "solc",
    "version": "0.4.24+commit.e67f0147.Emscripten.clang"
  },
  "schemaVersion": "2.0.1",
  "updatedAt": "2019-11-07T08:15:06.223Z"
}