{
  "contractName": "TwoKeyCongress",
  "abi": [
    {
      "constant": true,
      "inputs": [
        {
          "name": "",
          "type": "uint256"
        }
      ],
      "name": "proposals",
      "outputs": [
        {
          "name": "recipient",
          "type": "address"
        },
        {
          "name": "amount",
          "type": "uint256"
        },
        {
          "name": "description",
          "type": "string"
        },
        {
          "name": "minExecutionDate",
          "type": "uint256"
        },
        {
          "name": "executed",
          "type": "bool"
        },
        {
          "name": "proposalPassed",
          "type": "bool"
        },
        {
          "name": "numberOfVotes",
          "type": "uint256"
        },
        {
          "name": "againstProposalTotal",
          "type": "uint256"
        },
        {
          "name": "supportingProposalTotal",
          "type": "uint256"
        },
        {
          "name": "proposalHash",
          "type": "bytes32"
        },
        {
          "name": "transactionBytecode",
          "type": "bytes"
        }
      ],
      "payable": false,
      "stateMutability": "view",
      "type": "function"
    },
    {
      "constant": true,
      "inputs": [],
      "name": "numProposals",
      "outputs": [
        {
          "name": "",
          "type": "uint256"
        }
      ],
      "payable": false,
      "stateMutability": "view",
      "type": "function"
    },
    {
      "constant": true,
      "inputs": [],
      "name": "debatingPeriodInMinutes",
      "outputs": [
        {
          "name": "",
          "type": "uint256"
        }
      ],
      "payable": false,
      "stateMutability": "view",
      "type": "function"
    },
    {
      "constant": true,
      "inputs": [],
      "name": "twoKeyCongressMembersRegistry",
      "outputs": [
        {
          "name": "",
          "type": "address"
        }
      ],
      "payable": false,
      "stateMutability": "view",
      "type": "function"
    },
    {
      "inputs": [
        {
          "name": "_minutesForDebate",
          "type": "uint256"
        }
      ],
      "payable": true,
      "stateMutability": "payable",
      "type": "constructor"
    },
    {
      "payable": true,
      "stateMutability": "payable",
      "type": "fallback"
    },
    {
      "anonymous": false,
      "inputs": [
        {
          "indexed": false,
          "name": "sender",
          "type": "address"
        },
        {
          "indexed": false,
          "name": "amount",
          "type": "uint256"
        }
      ],
      "name": "ReceivedEther",
      "type": "event"
    },
    {
      "anonymous": false,
      "inputs": [
        {
          "indexed": false,
          "name": "proposalID",
          "type": "uint256"
        },
        {
          "indexed": false,
          "name": "recipient",
          "type": "address"
        },
        {
          "indexed": false,
          "name": "amount",
          "type": "uint256"
        },
        {
          "indexed": false,
          "name": "description",
          "type": "string"
        }
      ],
      "name": "ProposalAdded",
      "type": "event"
    },
    {
      "anonymous": false,
      "inputs": [
        {
          "indexed": false,
          "name": "proposalID",
          "type": "uint256"
        },
        {
          "indexed": false,
          "name": "position",
          "type": "bool"
        },
        {
          "indexed": false,
          "name": "voter",
          "type": "address"
        },
        {
          "indexed": false,
          "name": "justification",
          "type": "string"
        }
      ],
      "name": "Voted",
      "type": "event"
    },
    {
      "anonymous": false,
      "inputs": [
        {
          "indexed": false,
          "name": "proposalID",
          "type": "uint256"
        },
        {
          "indexed": false,
          "name": "quorum",
          "type": "uint256"
        },
        {
          "indexed": false,
          "name": "active",
          "type": "bool"
        }
      ],
      "name": "ProposalTallied",
      "type": "event"
    },
    {
      "anonymous": false,
      "inputs": [
        {
          "indexed": false,
          "name": "_newDebatingPeriodInMinutes",
          "type": "uint256"
        }
      ],
      "name": "ChangeOfRules",
      "type": "event"
    },
    {
      "constant": false,
      "inputs": [
        {
          "name": "_twoKeyCongressMembers",
          "type": "address"
        }
      ],
      "name": "setTwoKeyCongressMembersContract",
      "outputs": [],
      "payable": false,
      "stateMutability": "nonpayable",
      "type": "function"
    },
    {
      "constant": false,
      "inputs": [
        {
          "name": "beneficiary",
          "type": "address"
        },
        {
          "name": "weiAmount",
          "type": "uint256"
        },
        {
          "name": "jobDescription",
          "type": "string"
        },
        {
          "name": "transactionBytecode",
          "type": "bytes"
        }
      ],
      "name": "newProposal",
      "outputs": [
        {
          "name": "proposalID",
          "type": "uint256"
        }
      ],
      "payable": false,
      "stateMutability": "nonpayable",
      "type": "function"
    },
    {
      "constant": false,
      "inputs": [
        {
          "name": "beneficiary",
          "type": "address"
        },
        {
          "name": "etherAmount",
          "type": "uint256"
        },
        {
          "name": "jobDescription",
          "type": "string"
        },
        {
          "name": "transactionBytecode",
          "type": "bytes"
        }
      ],
      "name": "newProposalInEther",
      "outputs": [
        {
          "name": "proposalID",
          "type": "uint256"
        }
      ],
      "payable": false,
      "stateMutability": "nonpayable",
      "type": "function"
    },
    {
      "constant": true,
      "inputs": [
        {
          "name": "proposalNumber",
          "type": "uint256"
        },
        {
          "name": "beneficiary",
          "type": "address"
        },
        {
          "name": "weiAmount",
          "type": "uint256"
        },
        {
          "name": "transactionBytecode",
          "type": "bytes"
        }
      ],
      "name": "checkProposalCode",
      "outputs": [
        {
          "name": "codeChecksOut",
          "type": "bool"
        }
      ],
      "payable": false,
      "stateMutability": "view",
      "type": "function"
    },
    {
      "constant": false,
      "inputs": [
        {
          "name": "proposalNumber",
          "type": "uint256"
        },
        {
          "name": "supportsProposal",
          "type": "bool"
        },
        {
          "name": "justificationText",
          "type": "string"
        }
      ],
      "name": "vote",
      "outputs": [
        {
          "name": "voteID",
          "type": "uint256"
        }
      ],
      "payable": false,
      "stateMutability": "nonpayable",
      "type": "function"
    },
    {
      "constant": true,
      "inputs": [
        {
          "name": "proposalNumber",
          "type": "uint256"
        }
      ],
      "name": "getVoteCount",
      "outputs": [
        {
          "name": "numberOfVotes",
          "type": "uint256"
        },
        {
          "name": "supportingProposalTotal",
          "type": "uint256"
        },
        {
          "name": "againstProposalTotal",
          "type": "uint256"
        },
        {
          "name": "description",
          "type": "string"
        }
      ],
      "payable": false,
      "stateMutability": "view",
      "type": "function"
    },
    {
      "constant": false,
      "inputs": [
        {
          "name": "proposalNumber",
          "type": "uint256"
        },
        {
          "name": "transactionBytecode",
          "type": "bytes"
        }
      ],
      "name": "executeProposal",
      "outputs": [],
      "payable": false,
      "stateMutability": "nonpayable",
      "type": "function"
    },
    {
      "constant": true,
      "inputs": [
        {
          "name": "proposalId",
          "type": "uint256"
        }
      ],
      "name": "getProposalData",
      "outputs": [
        {
          "name": "",
          "type": "uint256"
        },
        {
          "name": "",
          "type": "string"
        },
        {
          "name": "",
          "type": "uint256"
        },
        {
          "name": "",
          "type": "bool"
        },
        {
          "name": "",
          "type": "uint256"
        },
        {
          "name": "",
          "type": "uint256"
        },
        {
          "name": "",
          "type": "uint256"
        },
        {
          "name": "",
          "type": "bytes"
        }
      ],
      "payable": false,
      "stateMutability": "view",
      "type": "function"
    }
  ],
  "bytecode": "0x60806040526040516020806129808339810180604052810190808051906020019092919050505061003e81610044640100000000026401000000009004565b50610085565b806000819055507fc594bbef86dc6af772d58da5eb4f1d1e3c65feaec732130f40ff6590e28799a8816040518082815260200191505060405180910390a150565b6128ec806100946000396000f3006080604052600436106100ba576000357c0100000000000000000000000000000000000000000000000000000000900463ffffffff168063013cf08b14610127578063237e9492146102b4578063400e39491461032757806369bd3436146103525780636e7685301461037d5780637db51e73146104bd578063b1050da514610514578063b2c2f2e814610601578063b9f256cd146106bc578063bf5c326a146107a9578063d3c0715b146107ec578063eceb29451461087f575b7fa419615bc8fda4c87663805ee2a3597a6d71c1d476911d9892f340d965bc7bf13334604051808373ffffffffffffffffffffffffffffffffffffffff1673ffffffffffffffffffffffffffffffffffffffff1681526020018281526020019250505060405180910390a1005b34801561013357600080fd5b5061015260048036038101908080359060200190929190505050610934565b604051808c73ffffffffffffffffffffffffffffffffffffffff1673ffffffffffffffffffffffffffffffffffffffff1681526020018b8152602001806020018a8152602001891515151581526020018815151515815260200187815260200186815260200185815260200184600019166000191681526020018060200183810383528c818151815260200191508051906020019080838360005b838110156102085780820151818401526020810190506101ed565b50505050905090810190601f1680156102355780820380516001836020036101000a031916815260200191505b50838103825284818151815260200191508051906020019080838360005b8381101561026e578082015181840152602081019050610253565b50505050905090810190601f16801561029b5780820380516001836020036101000a031916815260200191505b509d505050505050505050505050505060405180910390f35b3480156102c057600080fd5b5061032560048036038101908080359060200190929190803590602001908201803590602001908080601f0160208091040260200160405190810160405280939291908181526020018383808284378201915050505050509192919290505050610b07565b005b34801561033357600080fd5b5061033c6110e6565b6040518082815260200191505060405180910390f35b34801561035e57600080fd5b506103676110ec565b6040518082815260200191505060405180910390f35b34801561038957600080fd5b506103a8600480360381019080803590602001909291905050506110f2565b6040518089815260200180602001888152602001871515151581526020018681526020018581526020018481526020018060200183810383528a818151815260200191508051906020019080838360005b838110156104145780820151818401526020810190506103f9565b50505050905090810190601f1680156104415780820380516001836020036101000a031916815260200191505b50838103825284818151815260200191508051906020019080838360005b8381101561047a57808201518184015260208101905061045f565b50505050905090810190601f1680156104a75780820380516001836020036101000a031916815260200191505b509a505050505050505050505060405180910390f35b3480156104c957600080fd5b506104d2611507565b604051808273ffffffffffffffffffffffffffffffffffffffff1673ffffffffffffffffffffffffffffffffffffffff16815260200191505060405180910390f35b34801561052057600080fd5b506105eb600480360381019080803573ffffffffffffffffffffffffffffffffffffffff16906020019092919080359060200190929190803590602001908201803590602001908080601f0160208091040260200160405190810160405280939291908181526020018383808284378201915050505050509192919290803590602001908201803590602001908080601f016020809104026020016040519081016040528093929190818152602001838380828437820191505050505050919291929050505061152d565b6040518082815260200191505060405180910390f35b34801561060d57600080fd5b5061062c60048036038101908080359060200190929190505050611971565b6040518085815260200184815260200183815260200180602001828103825283818151815260200191508051906020019080838360005b8381101561067e578082015181840152602081019050610663565b50505050905090810190601f1680156106ab5780820380516001836020036101000a031916815260200191505b509550505050505060405180910390f35b3480156106c857600080fd5b50610793600480360381019080803573ffffffffffffffffffffffffffffffffffffffff16906020019092919080359060200190929190803590602001908201803590602001908080601f0160208091040260200160405190810160405280939291908181526020018383808284378201915050505050509192919290803590602001908201803590602001908080601f0160208091040260200160405190810160405280939291908181526020018383808284378201915050505050509192919290505050611be4565b6040518082815260200191505060405180910390f35b3480156107b557600080fd5b506107ea600480360381019080803573ffffffffffffffffffffffffffffffffffffffff169060200190929190505050611d06565b005b3480156107f857600080fd5b5061086960048036038101908080359060200190929190803515159060200190929190803590602001908201803590602001908080601f0160208091040260200160405190810160405280939291908181526020018383808284378201915050505050509192919290505050611da7565b6040518082815260200191505060405180910390f35b34801561088b57600080fd5b5061091a60048036038101908080359060200190929190803573ffffffffffffffffffffffffffffffffffffffff16906020019092919080359060200190929190803590602001908201803590602001908080601f01602080910402602001604051908101604052809392919081815260200183838082843782019150505050505091929192905050506122bc565b604051808215151515815260200191505060405180910390f35b60018181548110151561094357fe5b90600052602060002090600c02016000915090508060000160009054906101000a900473ffffffffffffffffffffffffffffffffffffffff1690806001015490806002018054600181600116156101000203166002900480601f016020809104026020016040519081016040528092919081815260200182805460018160011615610100020316600290048015610a1b5780601f106109f057610100808354040283529160200191610a1b565b820191906000526020600020905b8154815290600101906020018083116109fe57829003601f168201915b5050505050908060030154908060040160009054906101000a900460ff16908060040160019054906101000a900460ff1690806005015490806006015490806007015490806008015490806009018054600181600116156101000203166002900480601f016020809104026020016040519081016040528092919081815260200182805460018160011615610100020316600290048015610afd5780601f10610ad257610100808354040283529160200191610afd565b820191906000526020600020905b815481529060010190602001808311610ae057829003601f168201915b505050505090508b565b600080600060011515600360009054906101000a900473ffffffffffffffffffffffffffffffffffffffff1673ffffffffffffffffffffffffffffffffffffffff1663a230c524336040518263ffffffff167c0100000000000000000000000000000000000000000000000000000000028152600401808273ffffffffffffffffffffffffffffffffffffffff1673ffffffffffffffffffffffffffffffffffffffff168152602001915050602060405180830381600087803b158015610bcd57600080fd5b505af1158015610be1573d6000803e3d6000fd5b505050506040513d6020811015610bf757600080fd5b81019080805190602001909291905050501515141515610c1657600080fd5b600185815481101515610c2557fe5b90600052602060002090600c02019250600360009054906101000a900473ffffffffffffffffffffffffffffffffffffffff1673ffffffffffffffffffffffffffffffffffffffff16638160f0b56040518163ffffffff167c0100000000000000000000000000000000000000000000000000000000028152600401602060405180830381600087803b158015610cbb57600080fd5b505af1158015610ccf573d6000803e3d6000fd5b505050506040513d6020811015610ce557600080fd5b81019080805190602001909291905050509150600360009054906101000a900473ffffffffffffffffffffffffffffffffffffffff1673ffffffffffffffffffffffffffffffffffffffff16639ef0fb856040518163ffffffff167c0100000000000000000000000000000000000000000000000000000000028152600401602060405180830381600087803b158015610d7e57600080fd5b505af1158015610d92573d6000803e3d6000fd5b505050506040513d6020811015610da857600080fd5b810190808051906020019092919050505090508260040160009054906101000a900460ff16158015610f2657508260000160009054906101000a900473ffffffffffffffffffffffffffffffffffffffff16836001015485604051602001808473ffffffffffffffffffffffffffffffffffffffff1673ffffffffffffffffffffffffffffffffffffffff166c0100000000000000000000000002815260140183815260200182805190602001908083835b602083101515610e7f5780518252602082019150602081019050602083039250610e5a565b6001836020036101000a03801982511681845116808217855250505050505090500193505050506040516020818303038152906040526040518082805190602001908083835b602083101515610eea5780518252602082019150602081019050602083039250610ec5565b6001836020036101000a038019825116818451168082178552505050505050905001915050604051809103902060001916836008015460001916145b8015610f495750610f4160018361241190919063ffffffff16565b836005015410155b8015610f7f5750610f776064610f6960338461242d90919063ffffffff16565b61246890919063ffffffff16565b836007015410155b1515610f8a57600080fd5b60018360040160006101000a81548160ff02191690831515021790555060018360040160016101000a81548160ff0219169083151502179055507fa9ac225c6a5870bf2106e428872d012a51247520cc3af4329905bbb60e28978c8584600501548560040160019054906101000a900460ff166040518084815260200183815260200182151515158152602001935050505060405180910390a18260000160009054906101000a900473ffffffffffffffffffffffffffffffffffffffff1673ffffffffffffffffffffffffffffffffffffffff1683600101548560405180828051906020019080838360005b83811015611092578082015181840152602081019050611077565b50505050905090810190601f1680156110bf5780820380516001836020036101000a031916815260200191505b5091505060006040518083038185875af19250505015156110df57600080fd5b5050505050565b60025481565b60005481565b600060606000806000806000606061110861247e565b60018a81548110151561111757fe5b90600052602060002090600c020161018060405190810160405290816000820160009054906101000a900473ffffffffffffffffffffffffffffffffffffffff1673ffffffffffffffffffffffffffffffffffffffff1673ffffffffffffffffffffffffffffffffffffffff16815260200160018201548152602001600282018054600181600116156101000203166002900480601f01602080910402602001604051908101604052809291908181526020018280546001816001161561010002031660029004801561122b5780601f106112005761010080835404028352916020019161122b565b820191906000526020600020905b81548152906001019060200180831161120e57829003601f168201915b50505050508152602001600382015481526020016004820160009054906101000a900460ff161515151581526020016004820160019054906101000a900460ff16151515158152602001600582015481526020016006820154815260200160078201548152602001600882015460001916600019168152602001600982018054600181600116156101000203166002900480601f01602080910402602001604051908101604052809291908181526020018280546001816001161561010002031660029004801561133d5780601f106113125761010080835404028352916020019161133d565b820191906000526020600020905b81548152906001019060200180831161132057829003601f168201915b50505050508152602001600a8201805480602002602001604051908101604052809291908181526020016000905b828210156114b15783829060005260206000209060020201606060405190810160405290816000820160009054906101000a900460ff161515151581526020016000820160019054906101000a900473ffffffffffffffffffffffffffffffffffffffff1673ffffffffffffffffffffffffffffffffffffffff1673ffffffffffffffffffffffffffffffffffffffff168152602001600182018054600181600116156101000203166002900480601f0160208091040260200160405190810160405280929190818152602001828054600181600116156101000203166002900480156114995780601f1061146e57610100808354040283529160200191611499565b820191906000526020600020905b81548152906001019060200180831161147c57829003601f168201915b5050505050815250508152602001906001019061136b565b5050505081525050905080602001518160400151826060015183608001518460c001518561010001518660e001518761014001518696508090509850985098509850985098509850985050919395975091939597565b600360009054906101000a900473ffffffffffffffffffffffffffffffffffffffff1681565b60008060011515600360009054906101000a900473ffffffffffffffffffffffffffffffffffffffff1673ffffffffffffffffffffffffffffffffffffffff1663a230c524336040518263ffffffff167c0100000000000000000000000000000000000000000000000000000000028152600401808273ffffffffffffffffffffffffffffffffffffffff1673ffffffffffffffffffffffffffffffffffffffff168152602001915050602060405180830381600087803b1580156115f157600080fd5b505af1158015611605573d6000803e3d6000fd5b505050506040513d602081101561161b57600080fd5b8101908080519060200190929190505050151514151561163a57600080fd5b6001805480919060010161164e91906124fd565b915060018281548110151561165f57fe5b90600052602060002090600c02019050858160000160006101000a81548173ffffffffffffffffffffffffffffffffffffffff021916908373ffffffffffffffffffffffffffffffffffffffff160217905550848160010181905550838160020190805190602001906116d392919061252f565b50858584604051602001808473ffffffffffffffffffffffffffffffffffffffff1673ffffffffffffffffffffffffffffffffffffffff166c0100000000000000000000000002815260140183815260200182805190602001908083835b6020831015156117565780518252602082019150602081019050602083039250611731565b6001836020036101000a03801982511681845116808217855250505050505090500193505050506040516020818303038152906040526040518082805190602001908083835b6020831015156117c1578051825260208201915060208101905060208303925061179c565b6001836020036101000a0380198251168184511680821785525050505050509050019150506040518091039020816008018160001916905550828160090190805190602001906118129291906125af565b50603c600054024201816003018190555060008160040160006101000a81548160ff02191690831515021790555060008160040160016101000a81548160ff0219169083151502179055506000816005018190555060008160060181905550600081600701819055507f646fec02522b41e7125cfc859a64fd4f4cefd5dc3b6237ca0abe251ded1fa88182878787604051808581526020018473ffffffffffffffffffffffffffffffffffffffff1673ffffffffffffffffffffffffffffffffffffffff16815260200183815260200180602001828103825283818151815260200191508051906020019080838360005b8381101561191e578082015181840152602081019050611903565b50505050905090810190601f16801561194b5780820380516001836020036101000a031916815260200191505b509550505050505060405180910390a16001820160028190555081915050949350505050565b6000806000606060011515600360009054906101000a900473ffffffffffffffffffffffffffffffffffffffff1673ffffffffffffffffffffffffffffffffffffffff1663a230c524336040518263ffffffff167c0100000000000000000000000000000000000000000000000000000000028152600401808273ffffffffffffffffffffffffffffffffffffffff1673ffffffffffffffffffffffffffffffffffffffff168152602001915050602060405180830381600087803b158015611a3957600080fd5b505af1158015611a4d573d6000803e3d6000fd5b505050506040513d6020811015611a6357600080fd5b81019080805190602001909291905050501515141515611a8257600080fd5b6000600102600186815481101515611a9657fe5b90600052602060002090600c0201600801546000191614151515611ab957600080fd5b600185815481101515611ac857fe5b90600052602060002090600c0201600501549350600185815481101515611aeb57fe5b90600052602060002090600c0201600701549250600185815481101515611b0e57fe5b90600052602060002090600c0201600601549150600185815481101515611b3157fe5b90600052602060002090600c02016002018054600181600116156101000203166002900480601f016020809104026020016040519081016040528092919081815260200182805460018160011615610100020316600290048015611bd65780601f10611bab57610100808354040283529160200191611bd6565b820191906000526020600020905b815481529060010190602001808311611bb957829003601f168201915b505050505090509193509193565b600060011515600360009054906101000a900473ffffffffffffffffffffffffffffffffffffffff1673ffffffffffffffffffffffffffffffffffffffff1663a230c524336040518263ffffffff167c0100000000000000000000000000000000000000000000000000000000028152600401808273ffffffffffffffffffffffffffffffffffffffff1673ffffffffffffffffffffffffffffffffffffffff168152602001915050602060405180830381600087803b158015611ca757600080fd5b505af1158015611cbb573d6000803e3d6000fd5b505050506040513d6020811015611cd157600080fd5b81019080805190602001909291905050501515141515611cf057600080fd5b611cfc8585858561152d565b9050949350505050565b600073ffffffffffffffffffffffffffffffffffffffff16600360009054906101000a900473ffffffffffffffffffffffffffffffffffffffff1673ffffffffffffffffffffffffffffffffffffffff16141515611d6357600080fd5b80600360006101000a81548173ffffffffffffffffffffffffffffffffffffffff021916908373ffffffffffffffffffffffffffffffffffffffff16021790555050565b600080600060011515600360009054906101000a900473ffffffffffffffffffffffffffffffffffffffff1673ffffffffffffffffffffffffffffffffffffffff1663a230c524336040518263ffffffff167c0100000000000000000000000000000000000000000000000000000000028152600401808273ffffffffffffffffffffffffffffffffffffffff1673ffffffffffffffffffffffffffffffffffffffff168152602001915050602060405180830381600087803b158015611e6d57600080fd5b505af1158015611e81573d6000803e3d6000fd5b505050506040513d6020811015611e9757600080fd5b81019080805190602001909291905050501515141515611eb657600080fd5b600186815481101515611ec557fe5b90600052602060002090600c0201915081600301544211151515611ee857600080fd5b81600b0160003373ffffffffffffffffffffffffffffffffffffffff1673ffffffffffffffffffffffffffffffffffffffff16815260200190815260200160002060009054906101000a900460ff16151515611f4357600080fd5b600182600b0160003373ffffffffffffffffffffffffffffffffffffffff1673ffffffffffffffffffffffffffffffffffffffff16815260200190815260200160002060006101000a81548160ff02191690831515021790555081600501600081548092919060010191905055508160050154925081600a0160606040519081016040528087151581526020013373ffffffffffffffffffffffffffffffffffffffff168152602001868152509080600181540180825580915050906001820390600052602060002090600202016000909192909190915060008201518160000160006101000a81548160ff02191690831515021790555060208201518160000160016101000a81548173ffffffffffffffffffffffffffffffffffffffff021916908373ffffffffffffffffffffffffffffffffffffffff160217905550604082015181600101908051906020019061209e92919061262f565b50505050600360009054906101000a900473ffffffffffffffffffffffffffffffffffffffff1673ffffffffffffffffffffffffffffffffffffffff1663c5b96026336040518263ffffffff167c0100000000000000000000000000000000000000000000000000000000028152600401808273ffffffffffffffffffffffffffffffffffffffff1673ffffffffffffffffffffffffffffffffffffffff168152602001915050602060405180830381600087803b15801561215f57600080fd5b505af1158015612173573d6000803e3d6000fd5b505050506040513d602081101561218957600080fd5b8101908080519060200190929190505050905084156121b9578082600701600082825401925050819055506121cc565b8082600601600082825401925050819055505b7fc34f869b7ff431b034b7b9aea9822dac189a685e0b015c7d1be3add3f89128e88686338760405180858152602001841515151581526020018373ffffffffffffffffffffffffffffffffffffffff1673ffffffffffffffffffffffffffffffffffffffff16815260200180602001828103825283818151815260200191508051906020019080838360005b83811015612273578082015181840152602081019050612258565b50505050905090810190601f1680156122a05780820380516001836020036101000a031916815260200191505b509550505050505060405180910390a182925050509392505050565b6000806001868154811015156122ce57fe5b90600052602060002090600c02019050848484604051602001808473ffffffffffffffffffffffffffffffffffffffff1673ffffffffffffffffffffffffffffffffffffffff166c0100000000000000000000000002815260140183815260200182805190602001908083835b602083101515612360578051825260208201915060208101905060208303925061233b565b6001836020036101000a03801982511681845116808217855250505050505090500193505050506040516020818303038152906040526040518082805190602001908083835b6020831015156123cb57805182526020820191506020810190506020830392506123a6565b6001836020036101000a03801982511681845116808217855250505050505090500191505060405180910390206000191681600801546000191614915050949350505050565b600082821115151561242257600080fd5b818303905092915050565b6000808314156124405760009050612462565b818302905081838281151561245157fe5b0414151561245e57600080fd5b8090505b92915050565b6000818381151561247557fe5b04905092915050565b61018060405190810160405280600073ffffffffffffffffffffffffffffffffffffffff1681526020016000815260200160608152602001600081526020016000151581526020016000151581526020016000815260200160008152602001600081526020016000801916815260200160608152602001606081525090565b81548183558181111561252a57600c0281600c02836000526020600020918201910161252991906126af565b5b505050565b828054600181600116156101000203166002900490600052602060002090601f016020900481019282601f1061257057805160ff191683800117855561259e565b8280016001018555821561259e579182015b8281111561259d578251825591602001919060010190612582565b5b5090506125ab919061277d565b5090565b828054600181600116156101000203166002900490600052602060002090601f016020900481019282601f106125f057805160ff191683800117855561261e565b8280016001018555821561261e579182015b8281111561261d578251825591602001919060010190612602565b5b50905061262b919061277d565b5090565b828054600181600116156101000203166002900490600052602060002090601f016020900481019282601f1061267057805160ff191683800117855561269e565b8280016001018555821561269e579182015b8281111561269d578251825591602001919060010190612682565b5b5090506126ab919061277d565b5090565b61277a91905b8082111561277657600080820160006101000a81549073ffffffffffffffffffffffffffffffffffffffff021916905560018201600090556002820160006126fd91906127a2565b60038201600090556004820160006101000a81549060ff02191690556004820160016101000a81549060ff0219169055600582016000905560068201600090556007820160009055600882016000905560098201600061275d91906127ea565b600a8201600061276d9190612832565b50600c016126b5565b5090565b90565b61279f91905b8082111561279b576000816000905550600101612783565b5090565b90565b50805460018160011615610100020316600290046000825580601f106127c857506127e7565b601f0160209004906000526020600020908101906127e6919061277d565b5b50565b50805460018160011615610100020316600290046000825580601f10612810575061282f565b601f01602090049060005260206000209081019061282e919061277d565b5b50565b50805460008255600202906000526020600020908101906128539190612856565b50565b6128bd91905b808211156128b957600080820160006101000a81549060ff02191690556000820160016101000a81549073ffffffffffffffffffffffffffffffffffffffff02191690556001820160006128b091906127a2565b5060020161285c565b5090565b905600a165627a7a72305820aee4c080573765a04fed242dbedddd53a040fad9324cdac5d4e337d4cb0a4b840029",
  "source": "pragma solidity ^0.4.24;\n\nimport \"../libraries/SafeMath.sol\";\nimport \"./TwoKeyCongressMembersRegistry.sol\";\n\ncontract TwoKeyCongress {\n\n    event ReceivedEther(address sender, uint amount);\n\n    using SafeMath for uint;\n\n    //Period length for voting\n    uint256 public debatingPeriodInMinutes;\n    //Array of proposals\n    Proposal[] public proposals;\n    //Number of proposals\n    uint public numProposals;\n\n    TwoKeyCongressMembersRegistry public twoKeyCongressMembersRegistry;\n\n    event ProposalAdded(uint proposalID, address recipient, uint amount, string description);\n    event Voted(uint proposalID, bool position, address voter, string justification);\n    event ProposalTallied(uint proposalID, uint quorum, bool active);\n    event ChangeOfRules(uint256 _newDebatingPeriodInMinutes);\n\n    struct Proposal {\n        address recipient;\n        uint amount;\n        string description;\n        uint minExecutionDate;\n        bool executed;\n        bool proposalPassed;\n        uint numberOfVotes;\n        uint againstProposalTotal;\n        uint supportingProposalTotal;\n        bytes32 proposalHash;\n        bytes transactionBytecode;\n        Vote[] votes;\n        mapping (address => bool) voted;\n    }\n\n    struct Vote {\n        bool inSupport;\n        address voter;\n        string justification;\n    }\n\n\n    /**\n     * @notice Modifier to check if the msg.sender is member of the congress\n     */\n    modifier onlyMembers() {\n        require(twoKeyCongressMembersRegistry.isMember(msg.sender) == true);\n        _;\n    }\n\n    /**\n     * @param _minutesForDebate is the number of minutes debate length\n     */\n    constructor(\n        uint256 _minutesForDebate\n    )\n    payable\n    public\n    {\n        changeVotingRules(_minutesForDebate);\n    }\n\n    /**\n     * @notice Function which will be called only once immediately after contract is deployed\n     * @param _twoKeyCongressMembers is the address of already deployed contract\n     */\n    function setTwoKeyCongressMembersContract(\n        address _twoKeyCongressMembers\n    )\n    public\n    {\n        require(address(twoKeyCongressMembersRegistry) == address(0));\n        twoKeyCongressMembersRegistry = TwoKeyCongressMembersRegistry(_twoKeyCongressMembers);\n    }\n\n\n    /**\n     * Change voting rules\n     * @param minutesForDebate the minimum amount of delay between when a proposal is made and when it can be executed\n     */\n    function changeVotingRules(\n        uint256 minutesForDebate\n    )\n    internal\n    {\n        debatingPeriodInMinutes = minutesForDebate;\n        emit ChangeOfRules(minutesForDebate);\n    }\n\n    /**\n     * Add Proposal\n     *\n     * Propose to send `weiAmount / 1e18` ether to `beneficiary` for `jobDescription`. `transactionBytecode ? Contains : Does not contain` code.\n     *\n     * @param beneficiary who to send the ether to\n     * @param weiAmount amount of ether to send, in wei\n     * @param jobDescription Description of job\n     * @param transactionBytecode bytecode of transaction\n     */\n    function newProposal(\n        address beneficiary,\n        uint weiAmount,\n        string jobDescription,\n        bytes transactionBytecode)\n    public\n    onlyMembers\n    returns (uint proposalID)\n    {\n        proposalID = proposals.length++;\n        Proposal storage p = proposals[proposalID];\n        p.recipient = beneficiary;\n        p.amount = weiAmount;\n        p.description = jobDescription;\n        p.proposalHash = keccak256(abi.encodePacked(beneficiary, weiAmount, transactionBytecode));\n        p.transactionBytecode = transactionBytecode;\n        p.minExecutionDate = block.timestamp + debatingPeriodInMinutes * 1 minutes;\n        p.executed = false;\n        p.proposalPassed = false;\n        p.numberOfVotes = 0;\n        p.againstProposalTotal = 0;\n        p.supportingProposalTotal = 0;\n        emit ProposalAdded(proposalID, beneficiary, weiAmount, jobDescription);\n        numProposals = proposalID+1;\n\n        return proposalID;\n    }\n\n    /**\n     * Add proposal in Ether\n     *\n     * Propose to send `etherAmount` ether to `beneficiary` for `jobDescription`. `transactionBytecode ? Contains : Does not contain` code.\n     * This is a convenience function to use if the amount to be given is in round number of ether units.\n     *\n     * @param beneficiary who to send the ether to\n     * @param etherAmount amount of ether to send\n     * @param jobDescription Description of job\n     * @param transactionBytecode bytecode of transaction\n     */\n    function newProposalInEther(\n        address beneficiary,\n        uint etherAmount,\n        string jobDescription,\n        bytes transactionBytecode\n    )\n    public\n    onlyMembers\n    returns (uint proposalID)\n    {\n        return newProposal(beneficiary, etherAmount, jobDescription, transactionBytecode);\n    }\n\n    /**\n     * Check if a proposal code matches\n     *\n     * @param proposalNumber ID number of the proposal to query\n     * @param beneficiary who to send the ether to\n     * @param weiAmount amount of ether to send\n     * @param transactionBytecode bytecode of transaction\n     */\n    function checkProposalCode(\n        uint proposalNumber,\n        address beneficiary,\n        uint weiAmount,\n        bytes transactionBytecode\n    )\n    public\n    view\n    returns (bool codeChecksOut)\n    {\n        Proposal storage p = proposals[proposalNumber];\n        return p.proposalHash == keccak256(abi.encodePacked(beneficiary, weiAmount, transactionBytecode));\n    }\n\n    /**\n     * Log a vote for a proposal\n     *\n     * Vote `supportsProposal? in support of : against` proposal #`proposalNumber`\n     *\n     * @param proposalNumber number of proposal\n     * @param supportsProposal either in favor or against it\n     * @param justificationText optional justification text\n     */\n    function vote(\n        uint proposalNumber,\n        bool supportsProposal,\n        string justificationText\n    )\n    public\n    onlyMembers\n    returns (uint256 voteID)\n    {\n        Proposal storage p = proposals[proposalNumber]; // Get the proposal\n        require(block.timestamp <= p.minExecutionDate);\n        require(!p.voted[msg.sender]);                  // If has already voted, cancel\n        p.voted[msg.sender] = true;                     // Set this voter as having voted\n        p.numberOfVotes++;\n        voteID = p.numberOfVotes;                     // Increase the number of votes\n        p.votes.push(Vote({ inSupport: supportsProposal, voter: msg.sender, justification: justificationText }));\n        uint votingPower = twoKeyCongressMembersRegistry.getMemberVotingPower(msg.sender);\n        if (supportsProposal) {                         // If they support the proposal\n            p.supportingProposalTotal += votingPower; // Increase score\n        } else {                                        // If they don't\n            p.againstProposalTotal += votingPower;                          // Decrease the score\n        }\n        // Create a log of this event\n        emit Voted(proposalNumber,  supportsProposal, msg.sender, justificationText);\n        return voteID;\n    }\n\n    function getVoteCount(\n        uint256 proposalNumber\n    )\n    onlyMembers\n    public\n    view\n    returns(uint256 numberOfVotes, uint256 supportingProposalTotal, uint256 againstProposalTotal, string description)\n    {\n        require(proposals[proposalNumber].proposalHash != 0);\n        numberOfVotes = proposals[proposalNumber].numberOfVotes;\n        supportingProposalTotal = proposals[proposalNumber].supportingProposalTotal;\n        againstProposalTotal = proposals[proposalNumber].againstProposalTotal;\n        description = proposals[proposalNumber].description;\n    }\n\n\n    /**\n     * Finish vote\n     *\n     * Count the votes proposal #`proposalNumber` and execute it if approved\n     *\n     * @param proposalNumber proposal number\n     * @param transactionBytecode optional: if the transaction contained a bytecode, you need to send it\n     */\n    function executeProposal(\n        uint proposalNumber,\n        bytes transactionBytecode\n    )\n    public\n    onlyMembers\n    {\n        Proposal storage p = proposals[proposalNumber];\n        uint minimumQuorum = twoKeyCongressMembersRegistry.minimumQuorum();\n        uint maxVotingPower = twoKeyCongressMembersRegistry.maxVotingPower();\n        require(\n//            block.timestamp > p.minExecutionDate  &&                             // If it is past the voting deadline\n             !p.executed                                                         // and it has not already been executed\n            && p.proposalHash == keccak256(abi.encodePacked(p.recipient, p.amount, transactionBytecode))  // and the supplied code matches the proposal\n            && p.numberOfVotes >= minimumQuorum.sub(1) // and a minimum quorum has been reached...\n            && uint(p.supportingProposalTotal) >= maxVotingPower.mul(51).div(100) // Total support should be >= than 51%\n        );\n\n        // ...then execute result\n        p.executed = true; // Avoid recursive calling\n        p.proposalPassed = true;\n\n        // Fire Events\n        emit ProposalTallied(proposalNumber, p.numberOfVotes, p.proposalPassed);\n\n//         Call external function\n        require(p.recipient.call.value(p.amount)(transactionBytecode));\n    }\n\n\n    /// @notice Function to get major proposal data\n    /// @param proposalId is the id of proposal\n    /// @return tuple containing all the data for proposal\n    function getProposalData(\n        uint proposalId\n    )\n    public\n    view\n    returns (uint,string,uint,bool,uint,uint,uint,bytes)\n    {\n        Proposal memory p = proposals[proposalId];\n        return (p.amount, p.description, p.minExecutionDate, p.executed, p.numberOfVotes, p.supportingProposalTotal, p.againstProposalTotal, p.transactionBytecode);\n    }\n\n\n\n    /// @notice Fallback function\n    function () payable public {\n        emit ReceivedEther(msg.sender, msg.value);\n    }\n}\n\n",
  "sourcePath": "/Users/nikolamadjarevic/Desktop/2key/contracts/contracts/2key/non-upgradable-singletons/TwoKeyCongress.sol",
  "compiler": {
    "name": "solc",
    "version": "0.4.24+commit.e67f0147.Emscripten.clang"
  },
  "schemaVersion": "2.0.1",
  "updatedAt": "2019-11-07T08:15:06.285Z"
}