{
  "contractName": "TwoKeyCampaignConversionHandler",
  "abi": [
    {
      "constant": true,
      "inputs": [
        {
          "name": "",
          "type": "address"
        }
      ],
      "name": "converterToPositionIndex",
      "outputs": [
        {
          "name": "",
          "type": "uint256"
        }
      ],
      "payable": false,
      "stateMutability": "view",
      "type": "function"
    },
    {
      "anonymous": false,
      "inputs": [
        {
          "indexed": false,
          "name": "conversionId",
          "type": "uint256"
        }
      ],
      "name": "ConversionCreated",
      "type": "event"
    },
    {
      "constant": true,
      "inputs": [
        {
          "name": "state",
          "type": "bytes32"
        }
      ],
      "name": "getAllConvertersPerState",
      "outputs": [
        {
          "name": "",
          "type": "address[]"
        }
      ],
      "payable": false,
      "stateMutability": "view",
      "type": "function"
    },
    {
      "constant": false,
      "inputs": [
        {
          "name": "_converter",
          "type": "address"
        }
      ],
      "name": "approveConverter",
      "outputs": [],
      "payable": false,
      "stateMutability": "nonpayable",
      "type": "function"
    },
    {
      "constant": true,
      "inputs": [
        {
          "name": "_converter",
          "type": "address"
        }
      ],
      "name": "getConverterConversionIds",
      "outputs": [
        {
          "name": "",
          "type": "uint256[]"
        }
      ],
      "payable": false,
      "stateMutability": "view",
      "type": "function"
    },
    {
      "constant": true,
      "inputs": [
        {
          "name": "_converter",
          "type": "address"
        }
      ],
      "name": "getLastConverterConversionId",
      "outputs": [
        {
          "name": "",
          "type": "uint256"
        }
      ],
      "payable": false,
      "stateMutability": "view",
      "type": "function"
    },
    {
      "constant": true,
      "inputs": [],
      "name": "getNumberOfConversions",
      "outputs": [
        {
          "name": "",
          "type": "uint256"
        }
      ],
      "payable": false,
      "stateMutability": "view",
      "type": "function"
    },
    {
      "constant": true,
      "inputs": [
        {
          "name": "_converter",
          "type": "address"
        }
      ],
      "name": "getStateForConverter",
      "outputs": [
        {
          "name": "",
          "type": "bytes32"
        }
      ],
      "payable": false,
      "stateMutability": "view",
      "type": "function"
    },
    {
      "constant": true,
      "inputs": [],
      "name": "getCampaignSummary",
      "outputs": [
        {
          "name": "",
          "type": "uint256"
        },
        {
          "name": "",
          "type": "uint256"
        },
        {
          "name": "",
          "type": "uint256"
        },
        {
          "name": "",
          "type": "uint256[]"
        }
      ],
      "payable": false,
      "stateMutability": "view",
      "type": "function"
    }
  ],
  "bytecode": "0x608060405234801561001057600080fd5b5061122c806100206000396000f30060806040526004361061008e576000357c0100000000000000000000000000000000000000000000000000000000900463ffffffff1680634ed2f42d14610093578063795e1511146101195780638680da561461014457806386e1fb161461019b5780638f749c02146102335780639021c95814610276578063a00c96d7146102cd578063c3040fd11461034e575b600080fd5b34801561009f57600080fd5b506100c260048036038101908080356000191690602001909291905050506103ad565b6040518080602001828103825283818151815260200191508051906020019060200280838360005b838110156101055780820151818401526020810190506100ea565b505050509050019250505060405180910390f35b34801561012557600080fd5b5061012e610456565b6040518082815260200191505060405180910390f35b34801561015057600080fd5b50610185600480360381019080803573ffffffffffffffffffffffffffffffffffffffff169060200190929190505050610460565b6040518082815260200191505060405180910390f35b3480156101a757600080fd5b506101dc600480360381019080803573ffffffffffffffffffffffffffffffffffffffff169060200190929190505050610478565b6040518080602001828103825283818151815260200191508051906020019060200280838360005b8381101561021f578082015181840152602081019050610204565b505050509050019250505060405180910390f35b34801561023f57600080fd5b50610274600480360381019080803573ffffffffffffffffffffffffffffffffffffffff16906020019092919050505061050f565b005b34801561028257600080fd5b506102b7600480360381019080803573ffffffffffffffffffffffffffffffffffffffff1690602001909291905050506107e5565b6040518082815260200191505060405180910390f35b3480156102d957600080fd5b506102e261088a565b6040518085815260200184815260200183815260200180602001828103825283818151815260200191508051906020019060200280838360005b8381101561033757808201518184015260208101905061031c565b505050509050019550505050505060405180910390f35b34801561035a57600080fd5b5061038f600480360381019080803573ffffffffffffffffffffffffffffffffffffffff16906020019092919050505061098c565b60405180826000191660001916815260200191505060405180910390f35b606060096000836000191660001916815260200190815260200160002080548060200260200160405190810160405280929190818152602001828054801561044a57602002820191906000526020600020905b8160009054906101000a900473ffffffffffffffffffffffffffffffffffffffff1673ffffffffffffffffffffffffffffffffffffffff1681526020019060010190808311610400575b50505050509050919050565b6000600254905090565b600c6020528060005260406000206000915090505481565b6060600a60008373ffffffffffffffffffffffffffffffffffffffff1673ffffffffffffffffffffffffffffffffffffffff16815260200190815260200160002080548060200260200160405190810160405280929190818152602001828054801561050357602002820191906000526020600020905b8154815260200190600101908083116104ef575b50505050509050919050565b600061054f6040805190810160405280601981526020017f54776f4b65794d61696e7461696e6572735265676973747279000000000000008152506109ea565b9050600460009054906101000a900473ffffffffffffffffffffffffffffffffffffffff1673ffffffffffffffffffffffffffffffffffffffff163373ffffffffffffffffffffffffffffffffffffffff16148061067f57508073ffffffffffffffffffffffffffffffffffffffff1663cd2a81dc336040518263ffffffff167c0100000000000000000000000000000000000000000000000000000000028152600401808273ffffffffffffffffffffffffffffffffffffffff1673ffffffffffffffffffffffffffffffffffffffff168152602001915050602060405180830381600087803b15801561064357600080fd5b505af1158015610657573d6000803e3d6000fd5b505050506040513d602081101561066d57600080fd5b81019080805190602001909291905050505b8061075c57508073ffffffffffffffffffffffffffffffffffffffff16635cc7815c336040518263ffffffff167c0100000000000000000000000000000000000000000000000000000000028152600401808273ffffffffffffffffffffffffffffffffffffffff1673ffffffffffffffffffffffffffffffffffffffff168152602001915050602060405180830381600087803b15801561072057600080fd5b505af1158015610734573d6000803e3d6000fd5b505050506040513d602081101561074a57600080fd5b81019080805190602001909291905050505b151561076757600080fd5b6001600381111561077457fe5b600b60008473ffffffffffffffffffffffffffffffffffffffff1673ffffffffffffffffffffffffffffffffffffffff16815260200190815260200160002060009054906101000a900460ff1660038111156107cc57fe5b1415156107d857600080fd5b6107e182610b24565b5050565b6000600a60008373ffffffffffffffffffffffffffffffffffffffff1673ffffffffffffffffffffffffffffffffffffffff1681526020019081526020016000206001600a60008573ffffffffffffffffffffffffffffffffffffffff1673ffffffffffffffffffffffffffffffffffffffff168152602001908152602001600020805490500381548110151561087857fe5b90600052602060002001549050919050565b600080600060606000806000806000806108a46001610bb8565b95506108b06002610bb8565b94506108bc6003610bb8565b935060096000876000191660001916815260200190815260200160002080549050925060096000866000191660001916815260200190815260200160002080549050915060096000856000191660001916815260200190815260200160002080549050905082828260038080548060200260200160405190810160405280929190818152602001828054801561097157602002820191906000526020600020905b81548152602001906001019080831161095d575b50505050509050995099509950995050505050505090919293565b60006109e3600b60008473ffffffffffffffffffffffffffffffffffffffff1673ffffffffffffffffffffffffffffffffffffffff16815260200190815260200160002060009054906101000a900460ff16610bb8565b9050919050565b6000600760009054906101000a900473ffffffffffffffffffffffffffffffffffffffff1673ffffffffffffffffffffffffffffffffffffffff1663db7a6d90836040518263ffffffff167c01000000000000000000000000000000000000000000000000000000000281526004018080602001828103825283818151815260200191508051906020019080838360005b83811015610a96578082015181840152602081019050610a7b565b50505050905090810190601f168015610ac35780820380516001836020036101000a031916815260200191505b5092505050602060405180830381600087803b158015610ae257600080fd5b505af1158015610af6573d6000803e3d6000fd5b505050506040513d6020811015610b0c57600080fd5b81019080805190602001909291905050509050919050565b60007f415050524f5645440000000000000000000000000000000000000000000000009050610b538282610cdb565b6002600b60008473ffffffffffffffffffffffffffffffffffffffff1673ffffffffffffffffffffffffffffffffffffffff16815260200190815260200160002060006101000a81548160ff02191690836003811115610baf57fe5b02179055505050565b6000816003811115610bc657fe5b60006003811115610bd357fe5b1415610c01577f4e4f545f4558495354494e4700000000000000000000000000000000000000009050610cd6565b816003811115610c0d57fe5b60016003811115610c1a57fe5b1415610c48577f50454e44494e475f415050524f56414c000000000000000000000000000000009050610cd6565b816003811115610c5457fe5b60026003811115610c6157fe5b1415610c8f577f415050524f5645440000000000000000000000000000000000000000000000009050610cd6565b816003811115610c9b57fe5b600380811115610ca757fe5b1415610cd5577f52454a45435445440000000000000000000000000000000000000000000000009050610cd6565b5b919050565b6000806060600080600b60008873ffffffffffffffffffffffffffffffffffffffff1673ffffffffffffffffffffffffffffffffffffffff16815260200190815260200160002060009054906101000a900460ff169450610d3b85610bb8565b9350600960008560001916600019168152602001908152602001600020805480602002602001604051908101604052809291908181526020018280548015610dd857602002820191906000526020600020905b8160009054906101000a900473ffffffffffffffffffffffffffffffffffffffff1673ffffffffffffffffffffffffffffffffffffffff1681526020019060010190808311610d8e575b50505050509250600c60008873ffffffffffffffffffffffffffffffffffffffff1673ffffffffffffffffffffffffffffffffffffffff1681526020019081526020016000205491508673ffffffffffffffffffffffffffffffffffffffff168383815181101515610e4657fe5b9060200190602002015173ffffffffffffffffffffffffffffffffffffffff1614156110bd576009600087600019166000191681526020019081526020016000208790806001815401808255809150509060018203906000526020600020016000909192909190916101000a81548173ffffffffffffffffffffffffffffffffffffffff021916908373ffffffffffffffffffffffffffffffffffffffff1602179055505060016009600088600019166000191681526020019081526020016000208054905003600c60008973ffffffffffffffffffffffffffffffffffffffff1673ffffffffffffffffffffffffffffffffffffffff16815260200190815260200160002081905550826001845103815181101515610f6257fe5b906020019060200201519050808383815181101515610f7d57fe5b9060200190602002019073ffffffffffffffffffffffffffffffffffffffff16908173ffffffffffffffffffffffffffffffffffffffff168152505081600c60008373ffffffffffffffffffffffffffffffffffffffff1673ffffffffffffffffffffffffffffffffffffffff1681526020019081526020016000208190555082600184510381518110151561100f57fe5b906020019060200201600073ffffffffffffffffffffffffffffffffffffffff168152508260096000866000191660001916815260200190815260200160002090805190602001906110629291906110e2565b506110956001600960008760001916600019168152602001908152602001600020805490506110c690919063ffffffff16565b600960008660001916600019168152602001908152602001600020816110bb919061116c565b505b50505050505050565b60008282111515156110d757600080fd5b818303905092915050565b82805482825590600052602060002090810192821561115b579160200282015b8281111561115a5782518260006101000a81548173ffffffffffffffffffffffffffffffffffffffff021916908373ffffffffffffffffffffffffffffffffffffffff16021790555091602001919060010190611102565b5b5090506111689190611198565b5090565b8154818355818111156111935781836000526020600020918201910161119291906111db565b5b505050565b6111d891905b808211156111d457600081816101000a81549073ffffffffffffffffffffffffffffffffffffffff02191690555060010161119e565b5090565b90565b6111fd91905b808211156111f95760008160009055506001016111e1565b5090565b905600a165627a7a7230582084e2eef95ac5ed51a7a1d9d75920fb22b957b29aaf6270a00de687022b1945c20029",
  "source": "pragma solidity ^0.4.24;\n\nimport \"../TwoKeyConverterStates.sol\";\nimport \"../TwoKeyConversionStates.sol\";\nimport \"../libraries/SafeMath.sol\";\nimport \"../interfaces/ITwoKeySingletoneRegistryFetchAddress.sol\";\nimport \"../interfaces/ITwoKeyEventSource.sol\";\nimport \"../interfaces/ITwoKeyMaintainersRegistry.sol\";\n\ncontract TwoKeyCampaignConversionHandler is TwoKeyConversionStates, TwoKeyConverterStates {\n\n    using SafeMath for uint256;\n\n    uint expiryConversionInHours; // How long converter can be pending before he can cancel his conversion\n\n    event ConversionCreated(uint conversionId);\n\n    bool isCampaignInitialized;\n    uint numberOfConversions;\n\n\n    /**\n     * This array will represent counter values where position will be index (which counter) and value will be actual counter value\n     * counters[0] = PENDING_CONVERSIONS\n     * counters[1] = APPROVED_CONVERSIONS\n     * counters[2] = REJECTED_CONVERSIONS\n     * counters[3] = EXECUTED_CONVERSIONS\n     * counters[4] = CANCELLED_CONVERSIONS\n     * counters[5] = UNIQUE_CONVERTERS\n     * counters[6] = RAISED_FUNDS_ETH_WEI\n     * counters[7] = TOKENS_SOLD\n     * counters[8] = TOTAL_BOUNTY\n     * counters[9] = RAISED_FUNDS_FIAT_WEI\n     * counters[10] = CAMPAIGN_RAISED_BY_NOW_IN_CAMPAIGN_CURRENCY\n     */\n    uint [] counters;\n\n    address contractor;\n    address twoKeyEventSource;\n    address twoKeyBaseReputationRegistry;\n    address twoKeySingletonRegistry;\n\n\n    mapping(address => uint256) amountConverterSpentEthWEI; // Amount converter put to the contract in Ether\n    mapping(bytes32 => address[]) stateToConverter; //State to all converters in that state\n    mapping(address => uint[]) converterToHisConversions;\n    mapping(address => ConverterState) converterToState; //Converter to his state\n    mapping(address => uint256) public converterToPositionIndex;\n    mapping(address => bool) isConverterAnonymous;\n    mapping(address => bool) doesConverterHaveExecutedConversions;\n    mapping(uint => uint) conversionToCampaignCurrencyAmountAtTimeOfCreation;\n\n    modifier onlyContractorOrMaintainer {\n        address twoKeyMaintainersRegistry = getAddressFromTwoKeySingletonRegistry(\"TwoKeyMaintainersRegistry\");\n        require(msg.sender == contractor || ITwoKeyMaintainersRegistry(twoKeyMaintainersRegistry).onlyMaintainer(msg.sender)\n        || ITwoKeyMaintainersRegistry(twoKeyMaintainersRegistry).checkIsAddressMaintainer(msg.sender));\n        //TODO: Delete once hard redeploy is done\n        _;\n    }\n\n\n    // Internal function to fetch address from TwoKeySingletonRegistry\n    function getAddressFromTwoKeySingletonRegistry(string contractName) internal view returns (address) {\n        return ITwoKeySingletoneRegistryFetchAddress(twoKeySingletonRegistry)\n        .getContractProxyAddress(contractName);\n    }\n\n    /**\n     * given the total payout, calculates the moderator fee\n     * @param  _conversionAmountETHWei total payout for escrow\n     * @return moderator fee\n     */\n    function calculateModeratorFee(\n        uint256 _conversionAmountETHWei\n    )\n    internal\n    view\n    returns (uint256)\n    {\n        uint256 fee = _conversionAmountETHWei.mul(ITwoKeyEventSource(twoKeyEventSource).getTwoKeyDefaultIntegratorFeeFromAdmin()).div(100);\n        return fee;\n    }\n\n\n    function getAllConvertersPerState(\n        bytes32 state\n    )\n    public\n    view\n    returns (address[])\n    {\n        return stateToConverter[state];\n    }\n\n    /// @notice Function where we can change state of converter to Approved\n    /// @dev Converter can only be approved if his previous state is pending or rejected\n    /// @param _converter is the address of converter\n    function moveFromPendingOrRejectedToApprovedState(\n        address _converter\n    )\n    internal\n    {\n        bytes32 destination = bytes32(\"APPROVED\");\n        moveFromStateAToStateB(_converter, destination);\n        converterToState[_converter] = ConverterState.APPROVED;\n    }\n\n\n    /// @notice Function where we're going to move state of conversion from pending to rejected\n    /// @dev private function, will be executed in another one\n    /// @param _converter is the address of converter\n    function moveFromPendingToRejectedState(\n        address _converter\n    )\n    internal\n    {\n        bytes32 destination = bytes32(\"REJECTED\");\n        moveFromStateAToStateB(_converter, destination);\n        converterToState[_converter] = ConverterState.REJECTED;\n    }\n\n    /// @notice Function to move converter address from stateA to stateB\n    /// @param _converter is the address of converter\n    /// @param destinationState is the state we'd like to move converter to\n    function moveFromStateAToStateB(\n        address _converter,\n        bytes32 destinationState\n    )\n    internal\n    {\n        ConverterState state = converterToState[_converter];\n        bytes32 key = convertConverterStateToBytes(state);\n        address[] memory current = stateToConverter[key];\n\n        uint index = converterToPositionIndex[_converter]; // Get converter index position in array\n        if(current[index] == _converter) {\n            // Add converter to new array\n            stateToConverter[destinationState].push(_converter);\n            // Set new position in the new array\n            converterToPositionIndex[_converter] = stateToConverter[destinationState].length - 1;\n            // Get the last converter from the array because we're moving him to deleted place and with that action\n            // His new index will be the one of the removed converter\n            address lastConverterInArray = current[current.length-1];\n            // Reduce size of current array\n            current[index] = lastConverterInArray;\n            // Set index to be the position of the last converter in the array\n            converterToPositionIndex[lastConverterInArray] = index;\n            // Delete last element in current array\n            delete current[current.length-1];\n            // Save current array\n            stateToConverter[key] = current;\n            // Change length of the mapping array\n            stateToConverter[key].length = stateToConverter[key].length.sub(1);\n        }\n    }\n\n    /// @notice Function where we are approving converter\n    /// @dev only maintainer or contractor can call this method\n    /// @param _converter is the address of converter\n    function approveConverter(\n        address _converter\n    )\n    public\n    onlyContractorOrMaintainer\n    {\n        require(converterToState[_converter] == ConverterState.PENDING_APPROVAL);\n        moveFromPendingOrRejectedToApprovedState(_converter);\n    }\n\n    function rejectConverterInternal(\n        address _converter\n    )\n    internal\n    {\n        require(converterToState[_converter] == ConverterState.PENDING_APPROVAL);\n        moveFromPendingToRejectedState(_converter);\n    }\n\n    function handleConverterState(\n        address _converterAddress,\n        bool isKYCRequired\n    )\n    internal\n    {\n        //If KYC is required, basic funnel executes and we require that converter is not previously rejected\n        if(isKYCRequired == true) {\n            require(converterToState[_converterAddress] != ConverterState.REJECTED); // If converter is rejected then can't create conversion\n            // Checking the state for converter, if this is his 1st time, he goes initially to PENDING_APPROVAL\n            if(converterToState[_converterAddress] == ConverterState.NOT_EXISTING) {\n                converterToState[_converterAddress] = ConverterState.PENDING_APPROVAL;\n                stateToConverter[bytes32(\"PENDING_APPROVAL\")].push(_converterAddress);\n                converterToPositionIndex[_converterAddress] = stateToConverter[bytes32(\"PENDING_APPROVAL\")].length-1;\n            }\n        } else {\n            //If KYC is not required converter is automatically approved\n            if(converterToState[_converterAddress] == ConverterState.NOT_EXISTING) {\n                converterToState[_converterAddress] = ConverterState.APPROVED;\n                stateToConverter[bytes32(\"APPROVED\")].push(_converterAddress);\n                converterToPositionIndex[_converterAddress] = stateToConverter[bytes32(\"APPROVED\")].length-1;\n            }\n        }\n    }\n\n    /**\n     * @notice Function to get all conversion ids for the converter\n     * @param _converter is the address of the converter\n     * @return array of conversion ids\n     * @dev can only be called by converter itself or maintainer/contractor\n     */\n    function getConverterConversionIds(\n        address _converter\n    )\n    public\n    view\n    returns (uint[])\n    {\n        return converterToHisConversions[_converter];\n    }\n\n\n    function getLastConverterConversionId(\n        address _converter\n    )\n    public\n    view\n    returns (uint)\n    {\n        return converterToHisConversions[_converter][converterToHisConversions[_converter].length - 1];\n    }\n\n    /**\n     * @notice Function to get number of conversions\n     * @dev Can only be called by contractor or maintainer\n     */\n    function getNumberOfConversions()\n    external\n    view\n    returns (uint)\n    {\n        return numberOfConversions;\n    }\n\n    /**\n     * @notice Function to get converter state\n     * @param _converter is the address of the requested converter\n     * @return hexed string of the state\n     */\n    function getStateForConverter(\n        address _converter\n    )\n    external\n    view\n    returns (bytes32)\n    {\n        return convertConverterStateToBytes(converterToState[_converter]);\n    }\n\n    /**\n     * @notice Get's number of converters per type, and returns tuple, as well as total raised funds\n     */\n    function getCampaignSummary()\n    public\n    view\n    returns (uint,uint,uint,uint[])\n    {\n        bytes32 pending = convertConverterStateToBytes(ConverterState.PENDING_APPROVAL);\n        bytes32 approved = convertConverterStateToBytes(ConverterState.APPROVED);\n        bytes32 rejected = convertConverterStateToBytes(ConverterState.REJECTED);\n\n        uint numberOfPending = stateToConverter[pending].length;\n        uint numberOfApproved = stateToConverter[approved].length;\n        uint numberOfRejected = stateToConverter[rejected].length;\n\n        return (\n            numberOfPending,\n            numberOfApproved,\n            numberOfRejected,\n            counters\n        );\n    }\n\n\n\n}\n",
  "sourcePath": "/Users/nikolamadjarevic/Desktop/2key/contracts/contracts/2key/campaign-mutual-contracts/TwoKeyCampaignConversionHandler.sol",
  "compiler": {
    "name": "solc",
    "version": "0.4.24+commit.e67f0147.Emscripten.clang"
  },
  "schemaVersion": "2.0.1",
  "updatedAt": "2019-11-07T08:14:37.556Z"
}