{
  "contractName": "TwoKeyPlasmaRegistry",
  "abi": [
    {
      "constant": true,
      "inputs": [],
      "name": "PROXY_STORAGE_CONTRACT",
      "outputs": [
        {
          "name": "",
          "type": "address"
        }
      ],
      "payable": false,
      "stateMutability": "view",
      "type": "function"
    },
    {
      "constant": true,
      "inputs": [],
      "name": "implementation",
      "outputs": [
        {
          "name": "",
          "type": "address"
        }
      ],
      "payable": false,
      "stateMutability": "view",
      "type": "function"
    },
    {
      "constant": true,
      "inputs": [],
      "name": "TWO_KEY_PLASMA_SINGLETON_REGISTRY",
      "outputs": [
        {
          "name": "",
          "type": "address"
        }
      ],
      "payable": false,
      "stateMutability": "view",
      "type": "function"
    },
    {
      "constant": false,
      "inputs": [
        {
          "name": "sender",
          "type": "address"
        }
      ],
      "name": "initialize",
      "outputs": [],
      "payable": true,
      "stateMutability": "payable",
      "type": "function"
    },
    {
      "constant": false,
      "inputs": [
        {
          "name": "_twoKeyPlasmaSingletonRegistry",
          "type": "address"
        },
        {
          "name": "_proxyStorage",
          "type": "address"
        }
      ],
      "name": "setInitialParams",
      "outputs": [],
      "payable": false,
      "stateMutability": "nonpayable",
      "type": "function"
    },
    {
      "constant": false,
      "inputs": [
        {
          "name": "signature",
          "type": "bytes"
        },
        {
          "name": "plasma_address",
          "type": "address"
        },
        {
          "name": "username",
          "type": "string"
        }
      ],
      "name": "linkUsernameAndAddress",
      "outputs": [],
      "payable": false,
      "stateMutability": "nonpayable",
      "type": "function"
    },
    {
      "constant": false,
      "inputs": [
        {
          "name": "plasma_address",
          "type": "address"
        },
        {
          "name": "sig",
          "type": "bytes"
        }
      ],
      "name": "add_plasma2ethereum",
      "outputs": [],
      "payable": false,
      "stateMutability": "nonpayable",
      "type": "function"
    },
    {
      "constant": true,
      "inputs": [
        {
          "name": "_plasma",
          "type": "address"
        }
      ],
      "name": "plasma2ethereum",
      "outputs": [
        {
          "name": "",
          "type": "address"
        }
      ],
      "payable": false,
      "stateMutability": "view",
      "type": "function"
    },
    {
      "constant": true,
      "inputs": [
        {
          "name": "_ethereum",
          "type": "address"
        }
      ],
      "name": "ethereum2plasma",
      "outputs": [
        {
          "name": "",
          "type": "address"
        }
      ],
      "payable": false,
      "stateMutability": "view",
      "type": "function"
    },
    {
      "constant": true,
      "inputs": [
        {
          "name": "_address",
          "type": "address"
        }
      ],
      "name": "getAddressToUsername",
      "outputs": [
        {
          "name": "",
          "type": "string"
        }
      ],
      "payable": false,
      "stateMutability": "view",
      "type": "function"
    },
    {
      "constant": true,
      "inputs": [
        {
          "name": "_username",
          "type": "string"
        }
      ],
      "name": "getUsernameToAddress",
      "outputs": [
        {
          "name": "",
          "type": "address"
        }
      ],
      "payable": false,
      "stateMutability": "view",
      "type": "function"
    },
    {
      "constant": true,
      "inputs": [
        {
          "name": "signature",
          "type": "bytes"
        }
      ],
      "name": "recover",
      "outputs": [
        {
          "name": "",
          "type": "address"
        }
      ],
      "payable": false,
      "stateMutability": "view",
      "type": "function"
    }
  ],
  "bytecode": "0x608060405234801561001057600080fd5b5061251b806100206000396000f3006080604052600436106100ba576000357c0100000000000000000000000000000000000000000000000000000000900463ffffffff16806305dbe412146100bf578063105005a114610122578063152c1f021461017957806316473e5d146102225780635c60da1b146102ab5780636b7448241461030257806396fded4e14610385578063a4a1edb114610408578063b065d2c2146104b1578063c4d66de814610508578063e15ad9761461053e578063e95b4759146105fa575b600080fd5b3480156100cb57600080fd5b50610120600480360381019080803573ffffffffffffffffffffffffffffffffffffffff169060200190929190803573ffffffffffffffffffffffffffffffffffffffff1690602001909291905050506106c9565b005b34801561012e57600080fd5b5061013761078c565b604051808273ffffffffffffffffffffffffffffffffffffffff1673ffffffffffffffffffffffffffffffffffffffff16815260200191505060405180910390f35b34801561018557600080fd5b506101e0600480360381019080803590602001908201803590602001908080601f01602080910402602001604051908101604052809392919081815260200183838082843782019150505050505091929192905050506107b2565b604051808273ffffffffffffffffffffffffffffffffffffffff1673ffffffffffffffffffffffffffffffffffffffff16815260200191505060405180910390f35b34801561022e57600080fd5b506102a9600480360381019080803573ffffffffffffffffffffffffffffffffffffffff169060200190929190803590602001908201803590602001908080601f0160208091040260200160405190810160405280939291908181526020018383808284378201915050505050509192919290505050610919565b005b3480156102b757600080fd5b506102c0611120565b604051808273ffffffffffffffffffffffffffffffffffffffff1673ffffffffffffffffffffffffffffffffffffffff16815260200191505060405180910390f35b34801561030e57600080fd5b50610343600480360381019080803573ffffffffffffffffffffffffffffffffffffffff16906020019092919050505061114a565b604051808273ffffffffffffffffffffffffffffffffffffffff1673ffffffffffffffffffffffffffffffffffffffff16815260200191505060405180910390f35b34801561039157600080fd5b506103c6600480360381019080803573ffffffffffffffffffffffffffffffffffffffff16906020019092919050505061129f565b604051808273ffffffffffffffffffffffffffffffffffffffff1673ffffffffffffffffffffffffffffffffffffffff16815260200191505060405180910390f35b34801561041457600080fd5b5061046f600480360381019080803590602001908201803590602001908080601f01602080910402602001604051908101604052809392919081815260200183838082843782019150505050505091929192905050506113f4565b604051808273ffffffffffffffffffffffffffffffffffffffff1673ffffffffffffffffffffffffffffffffffffffff16815260200191505060405180910390f35b3480156104bd57600080fd5b506104c6611707565b604051808273ffffffffffffffffffffffffffffffffffffffff1673ffffffffffffffffffffffffffffffffffffffff16815260200191505060405180910390f35b61053c600480360381019080803573ffffffffffffffffffffffffffffffffffffffff16906020019092919050505061172d565b005b34801561054a57600080fd5b5061057f600480360381019080803573ffffffffffffffffffffffffffffffffffffffff16906020019092919050505061178b565b6040518080602001828103825283818151815260200191508051906020019080838360005b838110156105bf5780820151818401526020810190506105a4565b50505050905090810190601f1680156105ec5780820380516001836020036101000a031916815260200191505b509250505060405180910390f35b34801561060657600080fd5b506106c7600480360381019080803590602001908201803590602001908080601f0160208091040260200160405190810160405280939291908181526020018383808284378201915050505050509192919290803573ffffffffffffffffffffffffffffffffffffffff169060200190929190803590602001908201803590602001908080601f0160208091040260200160405190810160405280939291908181526020018383808284378201915050505050509192919290505050611936565b005b60001515600260149054906101000a900460ff1615151415156106eb57600080fd5b81600260006101000a81548173ffffffffffffffffffffffffffffffffffffffff021916908373ffffffffffffffffffffffffffffffffffffffff16021790555080600360006101000a81548173ffffffffffffffffffffffffffffffffffffffff021916908373ffffffffffffffffffffffffffffffffffffffff1602179055506001600260146101000a81548160ff0219169083151502179055505050565b600360009054906101000a900473ffffffffffffffffffffffffffffffffffffffff1681565b6000600360009054906101000a900473ffffffffffffffffffffffffffffffffffffffff1673ffffffffffffffffffffffffffffffffffffffff166321f8a7218360405180807f757365726e616d65546f4164647265737300000000000000000000000000000081525060110182805190602001908083835b602083101515610850578051825260208201915060208101905060208303925061082b565b6001836020036101000a03801982511681845116808217855250505050505090500191505060405180910390206040518263ffffffff167c0100000000000000000000000000000000000000000000000000000000028152600401808260001916600019168152602001915050602060405180830381600087803b1580156108d757600080fd5b505af11580156108eb573d6000803e3d6000fd5b505050506040513d602081101561090157600080fd5b81019080805190602001909291905050509050919050565b60008060008473ffffffffffffffffffffffffffffffffffffffff163373ffffffffffffffffffffffffffffffffffffffff16148061095c575061095b612001565b5b151561096757600080fd5b60405160200180807f62797465732062696e64696e6720746f20706c61736d61206164647265737300815250601f0190506040516020818303038152906040526040518082805190602001908083835b6020831015156109dc57805182526020820191506020810190506020830392506109b7565b6001836020036101000a038019825116818451168082178552505050505050905001915050604051809103902085604051602001808273ffffffffffffffffffffffffffffffffffffffff1673ffffffffffffffffffffffffffffffffffffffff166c010000000000000000000000000281526014019150506040516020818303038152906040526040518082805190602001908083835b602083101515610a995780518252602082019150602081019050602083039250610a74565b6001836020036101000a03801982511681845116808217855250505050505090500191505060405180910390206040516020018083600019166000191681526020018260001916600019168152602001925050506040516020818303038152906040526040518082805190602001908083835b602083101515610b315780518252602082019150602081019050602083039250610b0c565b6001836020036101000a0380198251168184511680821785525050505050509050019150506040518091039020925060418451141515610b7057600080fd5b73__Call__________________________________638b2c6d41848660006040518463ffffffff167c010000000000000000000000000000000000000000000000000000000002815260040180846000191660001916815260200180602001838152602001828103825284818151815260200191508051906020019080838360005b83811015610c0d578082015181840152602081019050610bf2565b50505050905090810190601f168015610c3a5780820380516001836020036101000a031916815260200191505b5094505050505060206040518083038186803b158015610c5957600080fd5b505af4158015610c6d573d6000803e3d6000fd5b505050506040513d6020811015610c8357600080fd5b81019080805190602001909291905050509150600360009054906101000a900473ffffffffffffffffffffffffffffffffffffffff1673ffffffffffffffffffffffffffffffffffffffff166321f8a7218660405180807f706c61736d6132657468657265756d0000000000000000000000000000000000815250600f018273ffffffffffffffffffffffffffffffffffffffff1673ffffffffffffffffffffffffffffffffffffffff166c0100000000000000000000000002815260140191505060405180910390206040518263ffffffff167c0100000000000000000000000000000000000000000000000000000000028152600401808260001916600019168152602001915050602060405180830381600087803b158015610da757600080fd5b505af1158015610dbb573d6000803e3d6000fd5b505050506040513d6020811015610dd157600080fd5b81019080805190602001909291905050509050600073ffffffffffffffffffffffffffffffffffffffff168173ffffffffffffffffffffffffffffffffffffffff161480610e4a57508173ffffffffffffffffffffffffffffffffffffffff168173ffffffffffffffffffffffffffffffffffffffff16145b1515610e5557600080fd5b600360009054906101000a900473ffffffffffffffffffffffffffffffffffffffff1673ffffffffffffffffffffffffffffffffffffffff1663ca446dd98660405180807f706c61736d6132657468657265756d0000000000000000000000000000000000815250600f018273ffffffffffffffffffffffffffffffffffffffff1673ffffffffffffffffffffffffffffffffffffffff166c010000000000000000000000000281526014019150506040518091039020846040518363ffffffff167c01000000000000000000000000000000000000000000000000000000000281526004018083600019166000191681526020018273ffffffffffffffffffffffffffffffffffffffff1673ffffffffffffffffffffffffffffffffffffffff16815260200192505050600060405180830381600087803b158015610f9a57600080fd5b505af1158015610fae573d6000803e3d6000fd5b50505050600360009054906101000a900473ffffffffffffffffffffffffffffffffffffffff1673ffffffffffffffffffffffffffffffffffffffff1663ca446dd98360405180807f657468657265756d32706c61736d610000000000000000000000000000000000815250600f018273ffffffffffffffffffffffffffffffffffffffff1673ffffffffffffffffffffffffffffffffffffffff166c010000000000000000000000000281526014019150506040518091039020876040518363ffffffff167c01000000000000000000000000000000000000000000000000000000000281526004018083600019166000191681526020018273ffffffffffffffffffffffffffffffffffffffff1673ffffffffffffffffffffffffffffffffffffffff16815260200192505050600060405180830381600087803b1580156110f757600080fd5b505af115801561110b573d6000803e3d6000fd5b505050506111198583612120565b5050505050565b6000600160009054906101000a900473ffffffffffffffffffffffffffffffffffffffff16905090565b6000600360009054906101000a900473ffffffffffffffffffffffffffffffffffffffff1673ffffffffffffffffffffffffffffffffffffffff166321f8a7218360405180807f657468657265756d32706c61736d610000000000000000000000000000000000815250600f018273ffffffffffffffffffffffffffffffffffffffff1673ffffffffffffffffffffffffffffffffffffffff166c0100000000000000000000000002815260140191505060405180910390206040518263ffffffff167c0100000000000000000000000000000000000000000000000000000000028152600401808260001916600019168152602001915050602060405180830381600087803b15801561125d57600080fd5b505af1158015611271573d6000803e3d6000fd5b505050506040513d602081101561128757600080fd5b81019080805190602001909291905050509050919050565b6000600360009054906101000a900473ffffffffffffffffffffffffffffffffffffffff1673ffffffffffffffffffffffffffffffffffffffff166321f8a7218360405180807f706c61736d6132657468657265756d0000000000000000000000000000000000815250600f018273ffffffffffffffffffffffffffffffffffffffff1673ffffffffffffffffffffffffffffffffffffffff166c0100000000000000000000000002815260140191505060405180910390206040518263ffffffff167c0100000000000000000000000000000000000000000000000000000000028152600401808260001916600019168152602001915050602060405180830381600087803b1580156113b257600080fd5b505af11580156113c6573d6000803e3d6000fd5b505050506040513d60208110156113dc57600080fd5b81019080805190602001909291905050509050919050565b600080600060405160200180807f62797465732062696e64696e6720726566657272657220746f20706c61736d6181525060200190506040516020818303038152906040526040518082805190602001908083835b60208310151561146e5780518252602082019150602081019050602083039250611449565b6001836020036101000a038019825116818451168082178552505050505050905001915050604051809103902060405160200180807f4745545f52454645525245525f5245574152445300000000000000000000000081525060140190506040516020818303038152906040526040518082805190602001908083835b60208310151561151057805182526020820191506020810190506020830392506114eb565b6001836020036101000a03801982511681845116808217855250505050505090500191505060405180910390206040516020018083600019166000191681526020018260001916600019168152602001925050506040516020818303038152906040526040518082805190602001908083835b6020831015156115a85780518252602082019150602081019050602083039250611583565b6001836020036101000a0380198251168184511680821785525050505050509050019150506040518091039020915073__Call__________________________________638b2c6d41838660006040518463ffffffff167c010000000000000000000000000000000000000000000000000000000002815260040180846000191660001916815260200180602001838152602001828103825284818151815260200191508051906020019080838360005b83811015611674578082015181840152602081019050611659565b50505050905090810190601f1680156116a15780820380516001836020036101000a031916815260200191505b5094505050505060206040518083038186803b1580156116c057600080fd5b505af41580156116d4573d6000803e3d6000fd5b505050506040513d60208110156116ea57600080fd5b810190808051906020019092919050505090508092505050919050565b600260009054906101000a900473ffffffffffffffffffffffffffffffffffffffff1681565b6000809054906101000a900473ffffffffffffffffffffffffffffffffffffffff1673ffffffffffffffffffffffffffffffffffffffff163373ffffffffffffffffffffffffffffffffffffffff1614151561178857600080fd5b50565b6060600360009054906101000a900473ffffffffffffffffffffffffffffffffffffffff1673ffffffffffffffffffffffffffffffffffffffff1663986e791a8360405180807f61646472657373546f557365726e616d650000000000000000000000000000008152506011018273ffffffffffffffffffffffffffffffffffffffff1673ffffffffffffffffffffffffffffffffffffffff166c0100000000000000000000000002815260140191505060405180910390206040518263ffffffff167c0100000000000000000000000000000000000000000000000000000000028152600401808260001916600019168152602001915050600060405180830381600087803b15801561189e57600080fd5b505af11580156118b2573d6000803e3d6000fd5b505050506040513d6000823e3d601f19601f8201168201806040525060208110156118dc57600080fd5b8101908080516401000000008111156118f457600080fd5b8281019050602081018481111561190a57600080fd5b815185600182028301116401000000008211171561192757600080fd5b50509291905050509050919050565b6000808373ffffffffffffffffffffffffffffffffffffffff163373ffffffffffffffffffffffffffffffffffffffff1614806119775750611976612001565b5b151561198257600080fd5b60405160200180807f62797465732062696e64696e6720746f20706c61736d61206164647265737300815250601f0190506040516020818303038152906040526040518082805190602001908083835b6020831015156119f757805182526020820191506020810190506020830392506119d2565b6001836020036101000a038019825116818451168082178552505050505050905001915050604051809103902084604051602001808273ffffffffffffffffffffffffffffffffffffffff1673ffffffffffffffffffffffffffffffffffffffff166c010000000000000000000000000281526014019150506040516020818303038152906040526040518082805190602001908083835b602083101515611ab45780518252602082019150602081019050602083039250611a8f565b6001836020036101000a03801982511681845116808217855250505050505090500191505060405180910390206040516020018083600019166000191681526020018260001916600019168152602001925050506040516020818303038152906040526040518082805190602001908083835b602083101515611b4c5780518252602082019150602081019050602083039250611b27565b6001836020036101000a0380198251168184511680821785525050505050509050019150506040518091039020915060418551141515611b8b57600080fd5b73__Call__________________________________638b2c6d41838760006040518463ffffffff167c010000000000000000000000000000000000000000000000000000000002815260040180846000191660001916815260200180602001838152602001828103825284818151815260200191508051906020019080838360005b83811015611c28578082015181840152602081019050611c0d565b50505050905090810190601f168015611c555780820380516001836020036101000a031916815260200191505b5094505050505060206040518083038186803b158015611c7457600080fd5b505af4158015611c88573d6000803e3d6000fd5b505050506040513d6020811015611c9e57600080fd5b810190808051906020019092919050505090508373ffffffffffffffffffffffffffffffffffffffff168173ffffffffffffffffffffffffffffffffffffffff16141515611ceb57600080fd5b600360009054906101000a900473ffffffffffffffffffffffffffffffffffffffff1673ffffffffffffffffffffffffffffffffffffffff16636e8995508560405180807f61646472657373546f557365726e616d650000000000000000000000000000008152506011018273ffffffffffffffffffffffffffffffffffffffff1673ffffffffffffffffffffffffffffffffffffffff166c010000000000000000000000000281526014019150506040518091039020856040518363ffffffff167c010000000000000000000000000000000000000000000000000000000002815260040180836000191660001916815260200180602001828103825283818151815260200191508051906020019080838360005b83811015611e1c578082015181840152602081019050611e01565b50505050905090810190601f168015611e495780820380516001836020036101000a031916815260200191505b509350505050600060405180830381600087803b158015611e6957600080fd5b505af1158015611e7d573d6000803e3d6000fd5b50505050600360009054906101000a900473ffffffffffffffffffffffffffffffffffffffff1673ffffffffffffffffffffffffffffffffffffffff1663ca446dd98460405180807f757365726e616d65546f4164647265737300000000000000000000000000000081525060110182805190602001908083835b602083101515611f1d5780518252602082019150602081019050602083039250611ef8565b6001836020036101000a0380198251168184511680821785525050505050509050019150506040518091039020866040518363ffffffff167c01000000000000000000000000000000000000000000000000000000000281526004018083600019166000191681526020018273ffffffffffffffffffffffffffffffffffffffff1673ffffffffffffffffffffffffffffffffffffffff16815260200192505050600060405180830381600087803b158015611fd857600080fd5b505af1158015611fec573d6000803e3d6000fd5b50505050611ffa848461224e565b5050505050565b6000806120426040805190810160405280601f81526020017f54776f4b6579506c61736d614d61696e7461696e6572735265676973747279008152506123b5565b90508073ffffffffffffffffffffffffffffffffffffffff1663cd2a81dc336040518263ffffffff167c0100000000000000000000000000000000000000000000000000000000028152600401808273ffffffffffffffffffffffffffffffffffffffff1673ffffffffffffffffffffffffffffffffffffffff168152602001915050602060405180830381600087803b1580156120df57600080fd5b505af11580156120f3573d6000803e3d6000fd5b505050506040513d602081101561210957600080fd5b810190808051906020019092919050505091505090565b60006121606040805190810160405280601281526020017f54776f4b6579506c61736d614576656e747300000000000000000000000000008152506123b5565b90508073ffffffffffffffffffffffffffffffffffffffff166382cc57a684846040518363ffffffff167c0100000000000000000000000000000000000000000000000000000000028152600401808373ffffffffffffffffffffffffffffffffffffffff1673ffffffffffffffffffffffffffffffffffffffff1681526020018273ffffffffffffffffffffffffffffffffffffffff1673ffffffffffffffffffffffffffffffffffffffff16815260200192505050600060405180830381600087803b15801561223157600080fd5b505af1158015612245573d6000803e3d6000fd5b50505050505050565b600061228e6040805190810160405280601281526020017f54776f4b6579506c61736d614576656e747300000000000000000000000000008152506123b5565b90508073ffffffffffffffffffffffffffffffffffffffff1663a2564a4b84846040518363ffffffff167c0100000000000000000000000000000000000000000000000000000000028152600401808373ffffffffffffffffffffffffffffffffffffffff1673ffffffffffffffffffffffffffffffffffffffff16815260200180602001828103825283818151815260200191508051906020019080838360005b8381101561234b578082015181840152602081019050612330565b50505050905090810190601f1680156123785780820380516001836020036101000a031916815260200191505b509350505050600060405180830381600087803b15801561239857600080fd5b505af11580156123ac573d6000803e3d6000fd5b50505050505050565b6000600260009054906101000a900473ffffffffffffffffffffffffffffffffffffffff1673ffffffffffffffffffffffffffffffffffffffff1663db7a6d90836040518263ffffffff167c01000000000000000000000000000000000000000000000000000000000281526004018080602001828103825283818151815260200191508051906020019080838360005b83811015612461578082015181840152602081019050612446565b50505050905090810190601f16801561248e5780820380516001836020036101000a031916815260200191505b5092505050602060405180830381600087803b1580156124ad57600080fd5b505af11580156124c1573d6000803e3d6000fd5b505050506040513d60208110156124d757600080fd5b810190808051906020019092919050505090509190505600a165627a7a723058200ebee9203f7bfd509eed0f2d7c8813a0ee21ed02b423c8591ea53e83947af0bb0029",
  "source": "pragma solidity ^0.4.24;\n\nimport \"../upgradability/Upgradeable.sol\";\n\nimport \"../interfaces/storage-contracts/ITwoKeyPlasmaRegistryStorage.sol\";\nimport \"../interfaces/ITwoKeyMaintainersRegistry.sol\";\nimport \"../interfaces/ITwoKeySingletoneRegistryFetchAddress.sol\";\nimport \"../interfaces/ITwoKeyPlasmaEvents.sol\";\nimport \"../libraries/Call.sol\";\n\ncontract TwoKeyPlasmaRegistry is Upgradeable {\n\n    using Call for *;\n\n    address public TWO_KEY_PLASMA_SINGLETON_REGISTRY;\n    bool initialized;\n\n    ITwoKeyPlasmaRegistryStorage public PROXY_STORAGE_CONTRACT;\n\n    function setInitialParams(\n        address _twoKeyPlasmaSingletonRegistry,\n        address _proxyStorage\n    )\n    public\n    {\n        require(initialized == false);\n\n        TWO_KEY_PLASMA_SINGLETON_REGISTRY = _twoKeyPlasmaSingletonRegistry;\n        PROXY_STORAGE_CONTRACT = ITwoKeyPlasmaRegistryStorage(_proxyStorage);\n\n        initialized = true;\n    }\n\n    // Internal function to fetch address from TwoKeyRegTwoistry\n    function getAddressFromTwoKeySingletonRegistry(string contractName) internal view returns (address) {\n        return ITwoKeySingletoneRegistryFetchAddress(TWO_KEY_PLASMA_SINGLETON_REGISTRY)\n        .getContractProxyAddress(contractName);\n    }\n\n    function onlyMaintainer() internal view returns (bool) {\n        address twoKeyPlasmaMaintainersRegistry = getAddressFromTwoKeySingletonRegistry(\"TwoKeyPlasmaMaintainersRegistry\");\n        return ITwoKeyMaintainersRegistry(twoKeyPlasmaMaintainersRegistry).onlyMaintainer(msg.sender);\n    }\n\n    /**\n     * @notice Function to link username and address once signature is validated\n     */\n    function linkUsernameAndAddress(bytes signature, address plasma_address, string username) public {\n        require(msg.sender == plasma_address || onlyMaintainer());\n        bytes32 hash = keccak256(abi.encodePacked(keccak256(abi.encodePacked(\"bytes binding to plasma address\")),keccak256(abi.encodePacked(plasma_address))));\n        require (signature.length == 65);\n        address plasma = Call.recoverHash(hash,signature,0);\n        require(plasma == plasma_address);\n\n        PROXY_STORAGE_CONTRACT.setString(keccak256(\"addressToUsername\", plasma_address), username);\n        PROXY_STORAGE_CONTRACT.setAddress(keccak256(\"usernameToAddress\",username), plasma_address);\n\n        emitPlasma2Handle(plasma_address, username);\n    }\n\n    function add_plasma2ethereum(address plasma_address, bytes sig) public {\n        require(msg.sender == plasma_address || onlyMaintainer());\n        bytes32 hash = keccak256(abi.encodePacked(keccak256(abi.encodePacked(\"bytes binding to plasma address\")),keccak256(abi.encodePacked(plasma_address))));\n        require (sig.length == 65);\n        address eth_address = Call.recoverHash(hash,sig,0);\n        address ethereum = PROXY_STORAGE_CONTRACT.getAddress(keccak256(\"plasma2ethereum\", plasma_address));\n        require(ethereum == address(0) || ethereum == eth_address);\n        PROXY_STORAGE_CONTRACT.setAddress(keccak256(\"plasma2ethereum\", plasma_address), eth_address);\n        PROXY_STORAGE_CONTRACT.setAddress(keccak256(\"ethereum2plasma\",eth_address), plasma_address);\n\n        emitPlasma2Ethereum(plasma_address, eth_address);\n    }\n\n    function emitPlasma2Ethereum(address plasma, address ethereum) internal {\n        address twoKeyPlasmaEvents = getAddressFromTwoKeySingletonRegistry(\"TwoKeyPlasmaEvents\");\n        ITwoKeyPlasmaEvents(twoKeyPlasmaEvents).emitPlasma2EthereumEvent(plasma, ethereum);\n    }\n\n    function emitPlasma2Handle(address plasma, string handle) internal {\n        address twoKeyPlasmaEvents = getAddressFromTwoKeySingletonRegistry(\"TwoKeyPlasmaEvents\");\n        ITwoKeyPlasmaEvents(twoKeyPlasmaEvents).emitPlasma2HandleEvent(plasma, handle);\n    }\n\n    function plasma2ethereum(\n        address _plasma\n    )\n    public\n    view\n    returns (address) {\n        return PROXY_STORAGE_CONTRACT.getAddress(keccak256(\"plasma2ethereum\", _plasma));\n    }\n\n    function ethereum2plasma(\n        address _ethereum\n    )\n    public\n    view\n    returns (address) {\n        return PROXY_STORAGE_CONTRACT.getAddress(keccak256(\"ethereum2plasma\", _ethereum));\n    }\n\n    function getAddressToUsername(\n        address _address\n    )\n    public\n    view\n    returns (string)\n    {\n        return PROXY_STORAGE_CONTRACT.getString(keccak256(\"addressToUsername\",_address));\n    }\n\n    function getUsernameToAddress(\n        string _username\n    )\n    public\n    view\n    returns (address)\n    {\n        return PROXY_STORAGE_CONTRACT.getAddress(keccak256(\"usernameToAddress\", _username));\n    }\n\n    /**\n     * @notice Function to validate if signature is valid\n     * @param signature is the signature\n     */\n    function recover(\n        bytes signature\n    )\n    public\n    view\n    returns (address)\n    {\n        bytes32 hash = keccak256(abi.encodePacked(keccak256(abi.encodePacked(\"bytes binding referrer to plasma\")),\n            keccak256(abi.encodePacked(\"GET_REFERRER_REWARDS\"))));\n        address recoveredAddress = Call.recoverHash(hash, signature, 0);\n        return recoveredAddress;\n    }\n\n}\n",
  "sourcePath": "/Users/nikolamadjarevic/Desktop/2key/contracts/contracts/2key/singleton-contracts/TwoKeyPlasmaRegistry.sol",
  "compiler": {
    "name": "solc",
    "version": "0.4.24+commit.e67f0147.Emscripten.clang"
  },
  "schemaVersion": "2.0.1",
  "updatedAt": "2019-11-07T08:15:06.264Z"
}