{
  "contractName": "TwoKeyMaintainersRegistry",
  "abi": [
    {
      "constant": true,
      "inputs": [],
      "name": "PROXY_STORAGE_CONTRACT",
      "outputs": [
        {
          "name": "",
          "type": "address"
        }
      ],
      "payable": false,
      "stateMutability": "view",
      "type": "function"
    },
    {
      "constant": true,
      "inputs": [],
      "name": "implementation",
      "outputs": [
        {
          "name": "",
          "type": "address"
        }
      ],
      "payable": false,
      "stateMutability": "view",
      "type": "function"
    },
    {
      "constant": true,
      "inputs": [],
      "name": "TWO_KEY_SINGLETON_REGISTRY",
      "outputs": [
        {
          "name": "",
          "type": "address"
        }
      ],
      "payable": false,
      "stateMutability": "view",
      "type": "function"
    },
    {
      "constant": false,
      "inputs": [
        {
          "name": "sender",
          "type": "address"
        }
      ],
      "name": "initialize",
      "outputs": [],
      "payable": true,
      "stateMutability": "payable",
      "type": "function"
    },
    {
      "constant": false,
      "inputs": [
        {
          "name": "_twoKeySingletonRegistry",
          "type": "address"
        },
        {
          "name": "_proxyStorage",
          "type": "address"
        },
        {
          "name": "_maintainers",
          "type": "address[]"
        },
        {
          "name": "_coreDevs",
          "type": "address[]"
        }
      ],
      "name": "setInitialParams",
      "outputs": [],
      "payable": false,
      "stateMutability": "nonpayable",
      "type": "function"
    },
    {
      "constant": true,
      "inputs": [
        {
          "name": "_sender",
          "type": "address"
        }
      ],
      "name": "checkIsAddressMaintainer",
      "outputs": [
        {
          "name": "",
          "type": "bool"
        }
      ],
      "payable": false,
      "stateMutability": "view",
      "type": "function"
    },
    {
      "constant": true,
      "inputs": [
        {
          "name": "_sender",
          "type": "address"
        }
      ],
      "name": "checkIsAddressCoreDev",
      "outputs": [
        {
          "name": "",
          "type": "bool"
        }
      ],
      "payable": false,
      "stateMutability": "view",
      "type": "function"
    },
    {
      "constant": false,
      "inputs": [
        {
          "name": "_maintainers",
          "type": "address[]"
        }
      ],
      "name": "addMaintainers",
      "outputs": [],
      "payable": false,
      "stateMutability": "nonpayable",
      "type": "function"
    },
    {
      "constant": false,
      "inputs": [
        {
          "name": "_coreDevs",
          "type": "address[]"
        }
      ],
      "name": "addCoreDevs",
      "outputs": [],
      "payable": false,
      "stateMutability": "nonpayable",
      "type": "function"
    },
    {
      "constant": false,
      "inputs": [
        {
          "name": "_maintainers",
          "type": "address[]"
        }
      ],
      "name": "removeMaintainers",
      "outputs": [],
      "payable": false,
      "stateMutability": "nonpayable",
      "type": "function"
    },
    {
      "constant": false,
      "inputs": [
        {
          "name": "_coreDevs",
          "type": "address[]"
        }
      ],
      "name": "removeCoreDevs",
      "outputs": [],
      "payable": false,
      "stateMutability": "nonpayable",
      "type": "function"
    },
    {
      "constant": true,
      "inputs": [],
      "name": "getAllMaintainers",
      "outputs": [
        {
          "name": "",
          "type": "address[]"
        }
      ],
      "payable": false,
      "stateMutability": "view",
      "type": "function"
    },
    {
      "constant": true,
      "inputs": [],
      "name": "getAllCoreDevs",
      "outputs": [
        {
          "name": "",
          "type": "address[]"
        }
      ],
      "payable": false,
      "stateMutability": "view",
      "type": "function"
    },
    {
      "constant": true,
      "inputs": [],
      "name": "getNumberOfMaintainers",
      "outputs": [
        {
          "name": "",
          "type": "uint256"
        }
      ],
      "payable": false,
      "stateMutability": "view",
      "type": "function"
    },
    {
      "constant": true,
      "inputs": [],
      "name": "getNumberOfCoreDevs",
      "outputs": [
        {
          "name": "",
          "type": "uint256"
        }
      ],
      "payable": false,
      "stateMutability": "view",
      "type": "function"
    },
    {
      "constant": true,
      "inputs": [],
      "name": "getNumberOfActiveMaintainers",
      "outputs": [
        {
          "name": "",
          "type": "uint256"
        }
      ],
      "payable": false,
      "stateMutability": "view",
      "type": "function"
    },
    {
      "constant": true,
      "inputs": [],
      "name": "getNumberOfActiveCoreDevs",
      "outputs": [
        {
          "name": "",
          "type": "uint256"
        }
      ],
      "payable": false,
      "stateMutability": "view",
      "type": "function"
    },
    {
      "constant": true,
      "inputs": [
        {
          "name": "_id",
          "type": "uint256"
        }
      ],
      "name": "getMaintainerPerId",
      "outputs": [
        {
          "name": "",
          "type": "address"
        }
      ],
      "payable": false,
      "stateMutability": "view",
      "type": "function"
    },
    {
      "constant": true,
      "inputs": [
        {
          "name": "_id",
          "type": "uint256"
        }
      ],
      "name": "getCoreDevPerId",
      "outputs": [
        {
          "name": "",
          "type": "address"
        }
      ],
      "payable": false,
      "stateMutability": "view",
      "type": "function"
    }
  ],
  "bytecode": "0x608060405234801561001057600080fd5b50613443806100206000396000f300608060405260043610610107576000357c0100000000000000000000000000000000000000000000000000000000900463ffffffff168063105005a11461010c5780631d4bf2c91461016357806327d8fa09146101c957806338c022cd1461022f57806339fe61261461029b578063428be84f146103085780634a5ceac8146103745780635c60da1b1461045d5780635cc7815c146104b4578063705a483b1461050f57806380b4bb7214610575578063835ff91c146105a05780638830afa0146105cb5780639ff68ffb14610622578063a7510dd71461068f578063c4d66de8146106f5578063c5f47de01461072b578063e96dbd5714610756578063fe827114146107b1575b600080fd5b34801561011857600080fd5b506101216107dc565b604051808273ffffffffffffffffffffffffffffffffffffffff1673ffffffffffffffffffffffffffffffffffffffff16815260200191505060405180910390f35b34801561016f57600080fd5b506101c760048036038101908080359060200190820180359060200190808060200260200160405190810160405280939291908181526020018383602002808284378201915050505050509192919290505050610802565b005b3480156101d557600080fd5b5061022d600480360381019080803590602001908201803590602001908080602002602001604051908101604052809392919081815260200183836020028082843782019150505050505091929192905050506108c5565b005b34801561023b57600080fd5b50610244610988565b6040518080602001828103825283818151815260200191508051906020019060200280838360005b8381101561028757808201518184015260208101905061026c565b505050509050019250505060405180910390f35b3480156102a757600080fd5b506102c660048036038101908080359060200190929190505050610a7f565b604051808273ffffffffffffffffffffffffffffffffffffffff1673ffffffffffffffffffffffffffffffffffffffff16815260200191505060405180910390f35b34801561031457600080fd5b5061031d610bfb565b6040518080602001828103825283818151815260200191508051906020019060200280838360005b83811015610360578082015181840152602081019050610345565b505050509050019250505060405180910390f35b34801561038057600080fd5b5061045b600480360381019080803573ffffffffffffffffffffffffffffffffffffffff169060200190929190803573ffffffffffffffffffffffffffffffffffffffff1690602001909291908035906020019082018035906020019080806020026020016040519081016040528093929190818152602001838360200280828437820191505050505050919291929080359060200190820180359060200190808060200260200160405190810160405280939291908181526020018383602002808284378201915050505050509192919290505050610cf2565b005b34801561046957600080fd5b50610472610e3a565b604051808273ffffffffffffffffffffffffffffffffffffffff1673ffffffffffffffffffffffffffffffffffffffff16815260200191505060405180910390f35b3480156104c057600080fd5b506104f5600480360381019080803573ffffffffffffffffffffffffffffffffffffffff169060200190929190505050610e64565b604051808215151515815260200191505060405180910390f35b34801561051b57600080fd5b5061057360048036038101908080359060200190820180359060200190808060200260200160405190810160405280939291908181526020018383602002808284378201915050505050509192919290505050610e76565b005b34801561058157600080fd5b5061058a610f39565b6040518082815260200191505060405180910390f35b3480156105ac57600080fd5b506105b56110ab565b6040518082815260200191505060405180910390f35b3480156105d757600080fd5b506105e061121d565b604051808273ffffffffffffffffffffffffffffffffffffffff1673ffffffffffffffffffffffffffffffffffffffff16815260200191505060405180910390f35b34801561062e57600080fd5b5061064d60048036038101908080359060200190929190505050611243565b604051808273ffffffffffffffffffffffffffffffffffffffff1673ffffffffffffffffffffffffffffffffffffffff16815260200191505060405180910390f35b34801561069b57600080fd5b506106f3600480360381019080803590602001908201803590602001908080602002602001604051908101604052809392919081815260200183836020028082843782019150505050505091929192905050506113bf565b005b610729600480360381019080803573ffffffffffffffffffffffffffffffffffffffff169060200190929190505050611482565b005b34801561073757600080fd5b506107406114e0565b6040518082815260200191505060405180910390f35b34801561076257600080fd5b50610797600480360381019080803573ffffffffffffffffffffffffffffffffffffffff169060200190929190505050611652565b604051808215151515815260200191505060405180910390f35b3480156107bd57600080fd5b506107c6611664565b6040518082815260200191505060405180910390f35b600360009054906101000a900473ffffffffffffffffffffffffffffffffffffffff1681565b60008060006108456040805190810160405280600b81526020017f54776f4b657941646d696e0000000000000000000000000000000000000000008152506117d6565b90508073ffffffffffffffffffffffffffffffffffffffff163373ffffffffffffffffffffffffffffffffffffffff1614151561088157600080fd5b83519250600091505b828210156108bf576108b284838151811015156108a357fe5b90602001906020020151611910565b818060010192505061088a565b50505050565b60008060006109086040805190810160405280600b81526020017f54776f4b657941646d696e0000000000000000000000000000000000000000008152506117d6565b90508073ffffffffffffffffffffffffffffffffffffffff163373ffffffffffffffffffffffffffffffffffffffff1614151561094457600080fd5b83519250600091505b8282101561098257610975848381518110151561096657fe5b90602001906020020151611c57565b818060010192505061094d565b50505050565b60606000806060600080600061099c610f39565b95506109a6611664565b9450846040519080825280602002602001820160405280156109d75781602001602082028038833980820191505090505b50935060009250600091505b84821015610a73576109f482610a7f565b90506109ff81611f9e565b15610a6657808484815181101515610a1357fe5b9060200190602002019073ffffffffffffffffffffffffffffffffffffffff16908173ffffffffffffffffffffffffffffffffffffffff1681525050610a6360018461215a90919063ffffffff16565b92505b81806001019250506109e3565b83965050505050505090565b6000600360009054906101000a900473ffffffffffffffffffffffffffffffffffffffff1673ffffffffffffffffffffffffffffffffffffffff166321f8a7216040805190810160405280600b81526020017f6964546f436f7265446576000000000000000000000000000000000000000000815250846040518083805190602001908083835b602083101515610b2b5780518252602082019150602081019050602083039250610b06565b6001836020036101000a0380198251168184511680821785525050505050509050018281526020019250505060405180910390206040518263ffffffff167c0100000000000000000000000000000000000000000000000000000000028152600401808260001916600019168152602001915050602060405180830381600087803b158015610bb957600080fd5b505af1158015610bcd573d6000803e3d6000fd5b505050506040513d6020811015610be357600080fd5b81019080805190602001909291905050509050919050565b606060008060606000806000610c0f6110ab565b9550610c196114e0565b945084604051908082528060200260200182016040528015610c4a5781602001602082028038833980820191505090505b50935060009250600091505b85821015610ce657610c6782611243565b9050610c7281612179565b15610cd957808484815181101515610c8657fe5b9060200190602002019073ffffffffffffffffffffffffffffffffffffffff16908173ffffffffffffffffffffffffffffffffffffffff1681525050610cd660018461215a90919063ffffffff16565b92505b8180600101925050610c56565b83965050505050505090565b60008060001515600160149054906101000a900460ff161515141515610d1757600080fd5b85600260006101000a81548173ffffffffffffffffffffffffffffffffffffffff021916908373ffffffffffffffffffffffffffffffffffffffff16021790555084600360006101000a81548173ffffffffffffffffffffffffffffffffffffffff021916908373ffffffffffffffffffffffffffffffffffffffff160217905550610da233611910565b600091505b8351821015610ddd57610dd08483815181101515610dc157fe5b90602001906020020151611910565b8180600101925050610da7565b600090505b8251811015610e1857610e0b8382815181101515610dfc57fe5b90602001906020020151611c57565b8080600101915050610de2565b60018060146101000a81548160ff021916908315150217905550505050505050565b6000600160009054906101000a900473ffffffffffffffffffffffffffffffffffffffff16905090565b6000610e6f82612179565b9050919050565b6000806000610eb96040805190810160405280600b81526020017f54776f4b657941646d696e0000000000000000000000000000000000000000008152506117d6565b90508073ffffffffffffffffffffffffffffffffffffffff163373ffffffffffffffffffffffffffffffffffffffff16141515610ef557600080fd5b83519250600091505b82821015610f3357610f268483815181101515610f1757fe5b90602001906020020151612335565b8180600101925050610efe565b50505050565b6000600360009054906101000a900473ffffffffffffffffffffffffffffffffffffffff1673ffffffffffffffffffffffffffffffffffffffff1663bd02d0f56040805190810160405280601081526020017f6e756d6265724f66436f726544657673000000000000000000000000000000008152506040518082805190602001908083835b602083101515610fe45780518252602082019150602081019050602083039250610fbf565b6001836020036101000a03801982511681845116808217855250505050505090500191505060405180910390206040518263ffffffff167c0100000000000000000000000000000000000000000000000000000000028152600401808260001916600019168152602001915050602060405180830381600087803b15801561106b57600080fd5b505af115801561107f573d6000803e3d6000fd5b505050506040513d602081101561109557600080fd5b8101908080519060200190929190505050905090565b6000600360009054906101000a900473ffffffffffffffffffffffffffffffffffffffff1673ffffffffffffffffffffffffffffffffffffffff1663bd02d0f56040805190810160405280601381526020017f6e756d6265724f664d61696e7461696e657273000000000000000000000000008152506040518082805190602001908083835b6020831015156111565780518252602082019150602081019050602083039250611131565b6001836020036101000a03801982511681845116808217855250505050505090500191505060405180910390206040518263ffffffff167c0100000000000000000000000000000000000000000000000000000000028152600401808260001916600019168152602001915050602060405180830381600087803b1580156111dd57600080fd5b505af11580156111f1573d6000803e3d6000fd5b505050506040513d602081101561120757600080fd5b8101908080519060200190929190505050905090565b600260009054906101000a900473ffffffffffffffffffffffffffffffffffffffff1681565b6000600360009054906101000a900473ffffffffffffffffffffffffffffffffffffffff1673ffffffffffffffffffffffffffffffffffffffff166321f8a7216040805190810160405280600e81526020017f6964546f4d61696e7461696e6572000000000000000000000000000000000000815250846040518083805190602001908083835b6020831015156112ef57805182526020820191506020810190506020830392506112ca565b6001836020036101000a0380198251168184511680821785525050505050509050018281526020019250505060405180910390206040518263ffffffff167c0100000000000000000000000000000000000000000000000000000000028152600401808260001916600019168152602001915050602060405180830381600087803b15801561137d57600080fd5b505af1158015611391573d6000803e3d6000fd5b505050506040513d60208110156113a757600080fd5b81019080805190602001909291905050509050919050565b60008060006114026040805190810160405280600b81526020017f54776f4b657941646d696e0000000000000000000000000000000000000000008152506117d6565b90508073ffffffffffffffffffffffffffffffffffffffff163373ffffffffffffffffffffffffffffffffffffffff1614151561143e57600080fd5b83519250600091505b8282101561147c5761146f848381518110151561146057fe5b906020019060200201516124de565b8180600101925050611447565b50505050565b6000809054906101000a900473ffffffffffffffffffffffffffffffffffffffff1673ffffffffffffffffffffffffffffffffffffffff163373ffffffffffffffffffffffffffffffffffffffff161415156114dd57600080fd5b50565b6000600360009054906101000a900473ffffffffffffffffffffffffffffffffffffffff1673ffffffffffffffffffffffffffffffffffffffff1663bd02d0f56040805190810160405280601981526020017f6e756d6265724f664163746976654d61696e7461696e657273000000000000008152506040518082805190602001908083835b60208310151561158b5780518252602082019150602081019050602083039250611566565b6001836020036101000a03801982511681845116808217855250505050505090500191505060405180910390206040518263ffffffff167c0100000000000000000000000000000000000000000000000000000000028152600401808260001916600019168152602001915050602060405180830381600087803b15801561161257600080fd5b505af1158015611626573d6000803e3d6000fd5b505050506040513d602081101561163c57600080fd5b8101908080519060200190929190505050905090565b600061165d82611f9e565b9050919050565b6000600360009054906101000a900473ffffffffffffffffffffffffffffffffffffffff1673ffffffffffffffffffffffffffffffffffffffff1663bd02d0f56040805190810160405280601681526020017f6e756d6265724f66416374697665436f726544657673000000000000000000008152506040518082805190602001908083835b60208310151561170f57805182526020820191506020810190506020830392506116ea565b6001836020036101000a03801982511681845116808217855250505050505090500191505060405180910390206040518263ffffffff167c0100000000000000000000000000000000000000000000000000000000028152600401808260001916600019168152602001915050602060405180830381600087803b15801561179657600080fd5b505af11580156117aa573d6000803e3d6000fd5b505050506040513d60208110156117c057600080fd5b8101908080519060200190929190505050905090565b6000600260009054906101000a900473ffffffffffffffffffffffffffffffffffffffff1673ffffffffffffffffffffffffffffffffffffffff1663db7a6d90836040518263ffffffff167c01000000000000000000000000000000000000000000000000000000000281526004018080602001828103825283818151815260200191508051906020019080838360005b83811015611882578082015181840152602081019050611867565b50505050905090810190601f1680156118af5780820380516001836020036101000a031916815260200191505b5092505050602060405180830381600087803b1580156118ce57600080fd5b505af11580156118e2573d6000803e3d6000fd5b505050506040513d60208110156118f857600080fd5b81019080805190602001909291905050509050919050565b60008060006040805190810160405280600c81526020017f69734d61696e7461696e65720000000000000000000000000000000000000000815250846040518083805190602001908083835b602083101515611981578051825260208201915060208101905060208303925061195c565b6001836020036101000a0380198251168184511680821785525050505050509050018273ffffffffffffffffffffffffffffffffffffffff1673ffffffffffffffffffffffffffffffffffffffff166c0100000000000000000000000002815260140192505050604051809103902092506119fa6110ab565b91506040805190810160405280600e81526020017f6964546f4d61696e7461696e6572000000000000000000000000000000000000815250826040518083805190602001908083835b602083101515611a685780518252602082019150602081019050602083039250611a43565b6001836020036101000a0380198251168184511680821785525050505050509050018281526020019250505060405180910390209050611aa6612687565b611aae6128c5565b600360009054906101000a900473ffffffffffffffffffffffffffffffffffffffff1673ffffffffffffffffffffffffffffffffffffffff1663ca446dd982866040518363ffffffff167c01000000000000000000000000000000000000000000000000000000000281526004018083600019166000191681526020018273ffffffffffffffffffffffffffffffffffffffff1673ffffffffffffffffffffffffffffffffffffffff16815260200192505050600060405180830381600087803b158015611b7b57600080fd5b505af1158015611b8f573d6000803e3d6000fd5b50505050600360009054906101000a900473ffffffffffffffffffffffffffffffffffffffff1673ffffffffffffffffffffffffffffffffffffffff1663abfdcced8460016040518363ffffffff167c01000000000000000000000000000000000000000000000000000000000281526004018083600019166000191681526020018215151515815260200192505050600060405180830381600087803b158015611c3957600080fd5b505af1158015611c4d573d6000803e3d6000fd5b5050505050505050565b60008060006040805190810160405280600981526020017f6973436f72654465760000000000000000000000000000000000000000000000815250846040518083805190602001908083835b602083101515611cc85780518252602082019150602081019050602083039250611ca3565b6001836020036101000a0380198251168184511680821785525050505050509050018273ffffffffffffffffffffffffffffffffffffffff1673ffffffffffffffffffffffffffffffffffffffff166c010000000000000000000000000281526014019250505060405180910390209250611d41610f39565b91506040805190810160405280600b81526020017f6964546f436f7265446576000000000000000000000000000000000000000000815250826040518083805190602001908083835b602083101515611daf5780518252602082019150602081019050602083039250611d8a565b6001836020036101000a0380198251168184511680821785525050505050509050018281526020019250505060405180910390209050611ded612b03565b611df5612d41565b600360009054906101000a900473ffffffffffffffffffffffffffffffffffffffff1673ffffffffffffffffffffffffffffffffffffffff1663ca446dd982866040518363ffffffff167c01000000000000000000000000000000000000000000000000000000000281526004018083600019166000191681526020018273ffffffffffffffffffffffffffffffffffffffff1673ffffffffffffffffffffffffffffffffffffffff16815260200192505050600060405180830381600087803b158015611ec257600080fd5b505af1158015611ed6573d6000803e3d6000fd5b50505050600360009054906101000a900473ffffffffffffffffffffffffffffffffffffffff1673ffffffffffffffffffffffffffffffffffffffff1663abfdcced8460016040518363ffffffff167c01000000000000000000000000000000000000000000000000000000000281526004018083600019166000191681526020018215151515815260200192505050600060405180830381600087803b158015611f8057600080fd5b505af1158015611f94573d6000803e3d6000fd5b5050505050505050565b6000806040805190810160405280600981526020017f6973436f72654465760000000000000000000000000000000000000000000000815250836040518083805190602001908083835b60208310151561200d5780518252602082019150602081019050602083039250611fe8565b6001836020036101000a0380198251168184511680821785525050505050509050018273ffffffffffffffffffffffffffffffffffffffff1673ffffffffffffffffffffffffffffffffffffffff166c010000000000000000000000000281526014019250505060405180910390209050600360009054906101000a900473ffffffffffffffffffffffffffffffffffffffff1673ffffffffffffffffffffffffffffffffffffffff16637ae1cfca826040518263ffffffff167c0100000000000000000000000000000000000000000000000000000000028152600401808260001916600019168152602001915050602060405180830381600087803b15801561211757600080fd5b505af115801561212b573d6000803e3d6000fd5b505050506040513d602081101561214157600080fd5b8101908080519060200190929190505050915050919050565b6000818301905082811015151561217057600080fd5b80905092915050565b6000806040805190810160405280600c81526020017f69734d61696e7461696e65720000000000000000000000000000000000000000815250836040518083805190602001908083835b6020831015156121e857805182526020820191506020810190506020830392506121c3565b6001836020036101000a0380198251168184511680821785525050505050509050018273ffffffffffffffffffffffffffffffffffffffff1673ffffffffffffffffffffffffffffffffffffffff166c010000000000000000000000000281526014019250505060405180910390209050600360009054906101000a900473ffffffffffffffffffffffffffffffffffffffff1673ffffffffffffffffffffffffffffffffffffffff16637ae1cfca826040518263ffffffff167c0100000000000000000000000000000000000000000000000000000000028152600401808260001916600019168152602001915050602060405180830381600087803b1580156122f257600080fd5b505af1158015612306573d6000803e3d6000fd5b505050506040513d602081101561231c57600080fd5b8101908080519060200190929190505050915050919050565b60006040805190810160405280600c81526020017f69734d61696e7461696e65720000000000000000000000000000000000000000815250826040518083805190602001908083835b6020831015156123a3578051825260208201915060208101905060208303925061237e565b6001836020036101000a0380198251168184511680821785525050505050509050018273ffffffffffffffffffffffffffffffffffffffff1673ffffffffffffffffffffffffffffffffffffffff166c01000000000000000000000000028152601401925050506040518091039020905061241c612f7f565b600360009054906101000a900473ffffffffffffffffffffffffffffffffffffffff1673ffffffffffffffffffffffffffffffffffffffff1663abfdcced8260006040518363ffffffff167c01000000000000000000000000000000000000000000000000000000000281526004018083600019166000191681526020018215151515815260200192505050600060405180830381600087803b1580156124c257600080fd5b505af11580156124d6573d6000803e3d6000fd5b505050505050565b60006040805190810160405280600981526020017f6973436f72654465760000000000000000000000000000000000000000000000815250826040518083805190602001908083835b60208310151561254c5780518252602082019150602081019050602083039250612527565b6001836020036101000a0380198251168184511680821785525050505050509050018273ffffffffffffffffffffffffffffffffffffffff1673ffffffffffffffffffffffffffffffffffffffff166c0100000000000000000000000002815260140192505050604051809103902090506125c56131bd565b600360009054906101000a900473ffffffffffffffffffffffffffffffffffffffff1673ffffffffffffffffffffffffffffffffffffffff1663abfdcced8260006040518363ffffffff167c01000000000000000000000000000000000000000000000000000000000281526004018083600019166000191681526020018215151515815260200192505050600060405180830381600087803b15801561266b57600080fd5b505af115801561267f573d6000803e3d6000fd5b505050505050565b60006040805190810160405280601381526020017f6e756d6265724f664d61696e7461696e657273000000000000000000000000008152506040518082805190602001908083835b6020831015156126f457805182526020820191506020810190506020830392506126cf565b6001836020036101000a03801982511681845116808217855250505050505090500191505060405180910390209050600360009054906101000a900473ffffffffffffffffffffffffffffffffffffffff1673ffffffffffffffffffffffffffffffffffffffff1663e2a4853a826128496001600360009054906101000a900473ffffffffffffffffffffffffffffffffffffffff1673ffffffffffffffffffffffffffffffffffffffff1663bd02d0f5876040518263ffffffff167c0100000000000000000000000000000000000000000000000000000000028152600401808260001916600019168152602001915050602060405180830381600087803b15801561280057600080fd5b505af1158015612814573d6000803e3d6000fd5b505050506040513d602081101561282a57600080fd5b810190808051906020019092919050505061215a90919063ffffffff16565b6040518363ffffffff167c010000000000000000000000000000000000000000000000000000000002815260040180836000191660001916815260200182815260200192505050600060405180830381600087803b1580156128aa57600080fd5b505af11580156128be573d6000803e3d6000fd5b5050505050565b60006040805190810160405280601981526020017f6e756d6265724f664163746976654d61696e7461696e657273000000000000008152506040518082805190602001908083835b602083101515612932578051825260208201915060208101905060208303925061290d565b6001836020036101000a03801982511681845116808217855250505050505090500191505060405180910390209050600360009054906101000a900473ffffffffffffffffffffffffffffffffffffffff1673ffffffffffffffffffffffffffffffffffffffff1663e2a4853a82612a876001600360009054906101000a900473ffffffffffffffffffffffffffffffffffffffff1673ffffffffffffffffffffffffffffffffffffffff1663bd02d0f5876040518263ffffffff167c0100000000000000000000000000000000000000000000000000000000028152600401808260001916600019168152602001915050602060405180830381600087803b158015612a3e57600080fd5b505af1158015612a52573d6000803e3d6000fd5b505050506040513d6020811015612a6857600080fd5b810190808051906020019092919050505061215a90919063ffffffff16565b6040518363ffffffff167c010000000000000000000000000000000000000000000000000000000002815260040180836000191660001916815260200182815260200192505050600060405180830381600087803b158015612ae857600080fd5b505af1158015612afc573d6000803e3d6000fd5b5050505050565b60006040805190810160405280601081526020017f6e756d6265724f66436f726544657673000000000000000000000000000000008152506040518082805190602001908083835b602083101515612b705780518252602082019150602081019050602083039250612b4b565b6001836020036101000a03801982511681845116808217855250505050505090500191505060405180910390209050600360009054906101000a900473ffffffffffffffffffffffffffffffffffffffff1673ffffffffffffffffffffffffffffffffffffffff1663e2a4853a82612cc56001600360009054906101000a900473ffffffffffffffffffffffffffffffffffffffff1673ffffffffffffffffffffffffffffffffffffffff1663bd02d0f5876040518263ffffffff167c0100000000000000000000000000000000000000000000000000000000028152600401808260001916600019168152602001915050602060405180830381600087803b158015612c7c57600080fd5b505af1158015612c90573d6000803e3d6000fd5b505050506040513d6020811015612ca657600080fd5b810190808051906020019092919050505061215a90919063ffffffff16565b6040518363ffffffff167c010000000000000000000000000000000000000000000000000000000002815260040180836000191660001916815260200182815260200192505050600060405180830381600087803b158015612d2657600080fd5b505af1158015612d3a573d6000803e3d6000fd5b5050505050565b60006040805190810160405280601681526020017f6e756d6265724f66416374697665436f726544657673000000000000000000008152506040518082805190602001908083835b602083101515612dae5780518252602082019150602081019050602083039250612d89565b6001836020036101000a03801982511681845116808217855250505050505090500191505060405180910390209050600360009054906101000a900473ffffffffffffffffffffffffffffffffffffffff1673ffffffffffffffffffffffffffffffffffffffff1663e2a4853a82612f036001600360009054906101000a900473ffffffffffffffffffffffffffffffffffffffff1673ffffffffffffffffffffffffffffffffffffffff1663bd02d0f5876040518263ffffffff167c0100000000000000000000000000000000000000000000000000000000028152600401808260001916600019168152602001915050602060405180830381600087803b158015612eba57600080fd5b505af1158015612ece573d6000803e3d6000fd5b505050506040513d6020811015612ee457600080fd5b810190808051906020019092919050505061215a90919063ffffffff16565b6040518363ffffffff167c010000000000000000000000000000000000000000000000000000000002815260040180836000191660001916815260200182815260200192505050600060405180830381600087803b158015612f6457600080fd5b505af1158015612f78573d6000803e3d6000fd5b5050505050565b60006040805190810160405280601981526020017f6e756d6265724f664163746976654d61696e7461696e657273000000000000008152506040518082805190602001908083835b602083101515612fec5780518252602082019150602081019050602083039250612fc7565b6001836020036101000a03801982511681845116808217855250505050505090500191505060405180910390209050600360009054906101000a900473ffffffffffffffffffffffffffffffffffffffff1673ffffffffffffffffffffffffffffffffffffffff1663e2a4853a826131416001600360009054906101000a900473ffffffffffffffffffffffffffffffffffffffff1673ffffffffffffffffffffffffffffffffffffffff1663bd02d0f5876040518263ffffffff167c0100000000000000000000000000000000000000000000000000000000028152600401808260001916600019168152602001915050602060405180830381600087803b1580156130f857600080fd5b505af115801561310c573d6000803e3d6000fd5b505050506040513d602081101561312257600080fd5b81019080805190602001909291905050506133fb90919063ffffffff16565b6040518363ffffffff167c010000000000000000000000000000000000000000000000000000000002815260040180836000191660001916815260200182815260200192505050600060405180830381600087803b1580156131a257600080fd5b505af11580156131b6573d6000803e3d6000fd5b5050505050565b60006040805190810160405280601681526020017f6e756d6265724f66416374697665436f726544657673000000000000000000008152506040518082805190602001908083835b60208310151561322a5780518252602082019150602081019050602083039250613205565b6001836020036101000a03801982511681845116808217855250505050505090500191505060405180910390209050600360009054906101000a900473ffffffffffffffffffffffffffffffffffffffff1673ffffffffffffffffffffffffffffffffffffffff1663e2a4853a8261337f6001600360009054906101000a900473ffffffffffffffffffffffffffffffffffffffff1673ffffffffffffffffffffffffffffffffffffffff1663bd02d0f5876040518263ffffffff167c0100000000000000000000000000000000000000000000000000000000028152600401808260001916600019168152602001915050602060405180830381600087803b15801561333657600080fd5b505af115801561334a573d6000803e3d6000fd5b505050506040513d602081101561336057600080fd5b81019080805190602001909291905050506133fb90919063ffffffff16565b6040518363ffffffff167c010000000000000000000000000000000000000000000000000000000002815260040180836000191660001916815260200182815260200192505050600060405180830381600087803b1580156133e057600080fd5b505af11580156133f4573d6000803e3d6000fd5b5050505050565b600082821115151561340c57600080fd5b8183039050929150505600a165627a7a7230582002ad3f0276b33914708d3db87cf4cb8546d777f8a7dfd4b1ddcc324382ec1d0e0029",
  "source": "pragma solidity ^0.4.24;\n\nimport \"../interfaces/ITwoKeySingletoneRegistryFetchAddress.sol\";\nimport \"../interfaces/storage-contracts/ITwoKeyMaintainersRegistryStorage.sol\";\nimport \"../upgradability/Upgradeable.sol\";\nimport \"../libraries/SafeMath.sol\";\n\n/**\n * @author Nikola Madjarevic\n */\ncontract TwoKeyMaintainersRegistry is Upgradeable {\n\n    /**\n     * All keys used for the storage contract.\n     * Saved as a constants to avoid any potential typos\n     */\n    string constant _isMaintainer = \"isMaintainer\";\n    string constant _isCoreDev = \"isCoreDev\";\n    string constant _idToMaintainer = \"idToMaintainer\";\n    string constant _idToCoreDev = \"idToCoreDev\";\n    string constant _numberOfMaintainers = \"numberOfMaintainers\";\n    string constant _numberOfCoreDevs = \"numberOfCoreDevs\";\n    string constant _numberOfActiveMaintainers = \"numberOfActiveMaintainers\";\n    string constant _numberOfActiveCoreDevs = \"numberOfActiveCoreDevs\";\n\n    //For all math operations we use safemath\n    using SafeMath for *;\n\n    // Flag which will make function setInitialParams callable only once\n    bool initialized;\n\n    address public TWO_KEY_SINGLETON_REGISTRY;\n\n    ITwoKeyMaintainersRegistryStorage public PROXY_STORAGE_CONTRACT;\n\n\n    /**\n     * @notice Function which can be called only once, and is used as replacement for a constructor\n     * @param _twoKeySingletonRegistry is the address of TWO_KEY_SINGLETON_REGISTRY contract\n     * @param _proxyStorage is the address of proxy of storage contract\n     * @param _maintainers is the array of initial maintainers we'll kick off contract with\n     */\n    function setInitialParams(\n        address _twoKeySingletonRegistry,\n        address _proxyStorage,\n        address [] _maintainers,\n        address [] _coreDevs\n    )\n    public\n    {\n        require(initialized == false);\n\n        TWO_KEY_SINGLETON_REGISTRY = _twoKeySingletonRegistry;\n\n        PROXY_STORAGE_CONTRACT = ITwoKeyMaintainersRegistryStorage(_proxyStorage);\n\n        //Deployer is also maintainer\n        addMaintainer(msg.sender);\n\n        //Set initial maintainers\n        for(uint i=0; i<_maintainers.length; i++) {\n            addMaintainer(_maintainers[i]);\n        }\n\n        //Set initial core devs\n        for(uint j=0; j<_coreDevs.length; j++) {\n            addCoreDev(_coreDevs[j]);\n        }\n\n        //Once this executes, this function will not be possible to call again.\n        initialized = true;\n    }\n\n\n    /**\n     * @notice Modifier to restrict calling the method to anyone but twoKeyAdmin\n     */\n    modifier onlyTwoKeyAdmin() {\n        address twoKeyAdmin = getAddressFromTwoKeySingletonRegistry(\"TwoKeyAdmin\");\n        require(msg.sender == address(twoKeyAdmin));\n        _;\n    }\n\n    /**\n     * @notice Function which will determine if address is maintainer\n     */\n    function checkIsAddressMaintainer(address _sender) public view returns (bool) {\n        return isMaintainer(_sender);\n    }\n\n    /**\n     * @notice Function which will determine if address is core dev\n     */\n    function checkIsAddressCoreDev(address _sender) public view returns (bool) {\n        return isCoreDev(_sender);\n    }\n\n    /**\n     * @notice Function which can add new maintainers, in general it's array because this supports adding multiple addresses in 1 trnx\n     * @dev only twoKeyAdmin contract is eligible to mutate state of maintainers\n     * @param _maintainers is the array of maintainer addresses\n     */\n    function addMaintainers(\n        address [] _maintainers\n    )\n    public\n    onlyTwoKeyAdmin\n    {\n        uint numberOfMaintainersToAdd = _maintainers.length;\n        for(uint i=0; i<numberOfMaintainersToAdd; i++) {\n            addMaintainer(_maintainers[i]);\n        }\n    }\n\n    /**\n     * @notice Function which can add new core devs, in general it's array because this supports adding multiple addresses in 1 trnx\n     * @dev only twoKeyAdmin contract is eligible to mutate state of core devs\n     * @param _coreDevs is the array of core developer addresses\n     */\n    function addCoreDevs(\n        address [] _coreDevs\n    )\n    public\n    onlyTwoKeyAdmin\n    {\n        uint numberOfCoreDevsToAdd = _coreDevs.length;\n        for(uint i=0; i<numberOfCoreDevsToAdd; i++) {\n            addCoreDev(_coreDevs[i]);\n        }\n    }\n\n    /**\n     * @notice Function which can remove some maintainers, in general it's array because this supports adding multiple addresses in 1 trnx\n     * @dev only twoKeyAdmin contract is eligible to mutate state of maintainers\n     * @param _maintainers is the array of maintainer addresses\n     */\n    function removeMaintainers(\n        address [] _maintainers\n    )\n    public\n    onlyTwoKeyAdmin\n    {\n        //If state variable, .balance, or .length is used several times, holding its value in a local variable is more gas efficient.\n        uint numberOfMaintainers = _maintainers.length;\n\n        for(uint i=0; i<numberOfMaintainers; i++) {\n            removeMaintainer(_maintainers[i]);\n        }\n    }\n\n    /**\n     * @notice Function which can remove some maintainers, in general it's array because this supports adding multiple addresses in 1 trnx\n     * @dev only twoKeyAdmin contract is eligible to mutate state of maintainers\n     * @param _coreDevs is the array of maintainer addresses\n     */\n    function removeCoreDevs(\n        address [] _coreDevs\n    )\n    public\n    onlyTwoKeyAdmin\n    {\n        //If state variable, .balance, or .length is used several times, holding its value in a local variable is more gas efficient.\n        uint numberOfCoreDevs = _coreDevs.length;\n\n        for(uint i=0; i<numberOfCoreDevs; i++) {\n            removeCoreDev(_coreDevs[i]);\n        }\n    }\n\n    /**\n     * @notice Function to get all maintainers set DURING CAMPAIGN CREATION\n     */\n    function getAllMaintainers()\n    public\n    view\n    returns (address[])\n    {\n        uint numberOfMaintainersTotal = getNumberOfMaintainers();\n        uint numberOfActiveMaintainers = getNumberOfActiveMaintainers();\n        address [] memory activeMaintainers = new address[](numberOfActiveMaintainers);\n\n        uint counter = 0;\n        for(uint i=0; i<numberOfMaintainersTotal; i++) {\n            address maintainer = getMaintainerPerId(i);\n            if(isMaintainer(maintainer)) {\n                activeMaintainers[counter] = maintainer;\n                counter = counter.add(1);\n            }\n        }\n        return activeMaintainers;\n    }\n\n\n    /**\n     * @notice Function to get all maintainers set DURING CAMPAIGN CREATION\n     */\n    function getAllCoreDevs()\n    public\n    view\n    returns (address[])\n    {\n        uint numberOfCoreDevsTotal = getNumberOfCoreDevs();\n        uint numberOfActiveCoreDevs = getNumberOfActiveCoreDevs();\n        address [] memory activeCoreDevs = new address[](numberOfActiveCoreDevs);\n\n        uint counter = 0;\n        for(uint i=0; i<numberOfActiveCoreDevs; i++) {\n            address coreDev= getCoreDevPerId(i);\n            if(isCoreDev(coreDev)) {\n                activeCoreDevs[counter] = coreDev;\n                counter = counter.add(1);\n            }\n        }\n        return activeCoreDevs;\n    }\n\n    /**\n     * @notice Function to check if address is maintainer\n     * @param _address is the address we're checking if it's maintainer or not\n     */\n    function isMaintainer(\n        address _address\n    )\n    internal\n    view\n    returns (bool)\n    {\n        bytes32 keyHash = keccak256(_isMaintainer, _address);\n        return PROXY_STORAGE_CONTRACT.getBool(keyHash);\n    }\n\n    /**\n     * @notice Function to check if address is coreDev\n     * @param _address is the address we're checking if it's coreDev or not\n     */\n    function isCoreDev(\n        address _address\n    )\n    internal\n    view\n    returns (bool)\n    {\n        bytes32 keyHash = keccak256(_isCoreDev, _address);\n        return PROXY_STORAGE_CONTRACT.getBool(keyHash);\n    }\n\n    /**\n     * @notice Function which will add maintainer\n     * @param _maintainer is the address of new maintainer we're adding\n     */\n    function addMaintainer(\n        address _maintainer\n    )\n    internal\n    {\n\n        bytes32 keyHashIsMaintainer = keccak256(_isMaintainer, _maintainer);\n\n        // Fetch the id for the new maintainer\n        uint id = getNumberOfMaintainers();\n\n        // Generate keyHash for this maintainer\n        bytes32 keyHashIdToMaintainer = keccak256(_idToMaintainer, id);\n\n        // Representing number of different maintainers\n        incrementNumberOfMaintainers();\n        // Representing number of currently active maintainers\n        incrementNumberOfActiveMaintainers();\n\n        PROXY_STORAGE_CONTRACT.setAddress(keyHashIdToMaintainer, _maintainer);\n        PROXY_STORAGE_CONTRACT.setBool(keyHashIsMaintainer, true);\n    }\n\n\n    /**\n     * @notice Function which will add maintainer\n     * @param _coreDev is the address of new maintainer we're adding\n     */\n    function addCoreDev(\n        address _coreDev\n    )\n    internal\n    {\n\n        bytes32 keyHashIsCoreDev = keccak256(_isCoreDev, _coreDev);\n\n        // Fetch the id for the new core dev\n        uint id = getNumberOfCoreDevs();\n\n        // Generate keyHash for this core dev\n        bytes32 keyHashIdToCoreDev= keccak256(_idToCoreDev, id);\n\n        // Representing number of different core devs\n        incrementNumberOfCoreDevs();\n        // Representing number of currently active core devs\n        incrementNumberOfActiveCoreDevs();\n\n        PROXY_STORAGE_CONTRACT.setAddress(keyHashIdToCoreDev, _coreDev);\n        PROXY_STORAGE_CONTRACT.setBool(keyHashIsCoreDev, true);\n    }\n\n    /**\n     * @notice Function which will remove maintainer\n     * @param _maintainer is the address of the maintainer we're removing\n     */\n    function removeMaintainer(\n        address _maintainer\n    )\n    internal\n    {\n        bytes32 keyHashIsMaintainer = keccak256(_isMaintainer, _maintainer);\n        decrementNumberOfActiveMaintainers();\n        PROXY_STORAGE_CONTRACT.setBool(keyHashIsMaintainer, false);\n    }\n\n    /**\n     * @notice Function which will remove maintainer\n     * @param _coreDev is the address of the maintainer we're removing\n     */\n    function removeCoreDev(\n        address _coreDev\n    )\n    internal\n    {\n        bytes32 keyHashIsCoreDev = keccak256(_isCoreDev , _coreDev);\n        decrementNumberOfActiveCoreDevs();\n        PROXY_STORAGE_CONTRACT.setBool(keyHashIsCoreDev, false);\n    }\n\n    function getNumberOfMaintainers()\n    public\n    view\n    returns (uint)\n    {\n        return PROXY_STORAGE_CONTRACT.getUint(keccak256(_numberOfMaintainers));\n    }\n\n    function getNumberOfCoreDevs()\n    public\n    view\n    returns (uint)\n    {\n        return PROXY_STORAGE_CONTRACT.getUint(keccak256(_numberOfCoreDevs));\n    }\n\n    function getNumberOfActiveMaintainers()\n    public\n    view\n    returns (uint)\n    {\n       return PROXY_STORAGE_CONTRACT.getUint(keccak256(_numberOfActiveMaintainers));\n    }\n\n    function getNumberOfActiveCoreDevs()\n    public\n    view\n    returns (uint)\n    {\n        return PROXY_STORAGE_CONTRACT.getUint(keccak256(_numberOfActiveCoreDevs));\n    }\n\n\n    function incrementNumberOfMaintainers()\n    internal\n    {\n        bytes32 keyHashNumberOfMaintainers = keccak256(_numberOfMaintainers);\n        PROXY_STORAGE_CONTRACT.setUint(\n            keyHashNumberOfMaintainers,\n            PROXY_STORAGE_CONTRACT.getUint(keyHashNumberOfMaintainers).add(1)\n        );\n    }\n\n\n    function incrementNumberOfCoreDevs()\n    internal\n    {\n        bytes32 keyHashNumberOfCoreDevs = keccak256(_numberOfCoreDevs);\n        PROXY_STORAGE_CONTRACT.setUint(\n            keyHashNumberOfCoreDevs,\n            PROXY_STORAGE_CONTRACT.getUint(keyHashNumberOfCoreDevs).add(1)\n        );\n    }\n\n\n    function incrementNumberOfActiveMaintainers()\n    internal\n    {\n        bytes32 keyHashNumberOfActiveMaintainers = keccak256(_numberOfActiveMaintainers);\n        PROXY_STORAGE_CONTRACT.setUint(\n            keyHashNumberOfActiveMaintainers,\n            PROXY_STORAGE_CONTRACT.getUint(keyHashNumberOfActiveMaintainers).add(1)\n        );\n    }\n\n    function incrementNumberOfActiveCoreDevs()\n    internal\n    {\n        bytes32 keyHashNumberToActiveCoreDevs= keccak256(_numberOfActiveCoreDevs);\n        PROXY_STORAGE_CONTRACT.setUint(\n            keyHashNumberToActiveCoreDevs,\n            PROXY_STORAGE_CONTRACT.getUint(keyHashNumberToActiveCoreDevs).add(1)\n        );\n    }\n\n    function decrementNumberOfActiveMaintainers()\n    internal\n    {\n        bytes32 keyHashNumberOfActiveMaintainers = keccak256(_numberOfActiveMaintainers);\n        PROXY_STORAGE_CONTRACT.setUint(\n            keyHashNumberOfActiveMaintainers,\n            PROXY_STORAGE_CONTRACT.getUint(keyHashNumberOfActiveMaintainers).sub(1)\n        );\n    }\n\n    function decrementNumberOfActiveCoreDevs()\n    internal\n    {\n        bytes32 keyHashNumberToActiveCoreDevs = keccak256(_numberOfActiveCoreDevs);\n        PROXY_STORAGE_CONTRACT.setUint(\n            keyHashNumberToActiveCoreDevs,\n            PROXY_STORAGE_CONTRACT.getUint(keyHashNumberToActiveCoreDevs).sub(1)\n        );\n    }\n\n    function getMaintainerPerId(\n        uint _id\n    )\n    public\n    view\n    returns (address)\n    {\n        return PROXY_STORAGE_CONTRACT.getAddress(keccak256(_idToMaintainer,_id));\n    }\n\n\n    function getCoreDevPerId(\n        uint _id\n    )\n    public\n    view\n    returns (address)\n    {\n        return PROXY_STORAGE_CONTRACT.getAddress(keccak256(_idToCoreDev,_id));\n    }\n\n\n    // Internal function to fetch address from TwoKeyRegistry\n    function getAddressFromTwoKeySingletonRegistry(string contractName) internal view returns (address) {\n        return ITwoKeySingletoneRegistryFetchAddress(TWO_KEY_SINGLETON_REGISTRY)\n        .getContractProxyAddress(contractName);\n    }\n}\n",
  "sourcePath": "/Users/nikolamadjarevic/Desktop/2key/contracts/contracts/2key/singleton-contracts/TwoKeyMaintainersRegistry.sol",
  "compiler": {
    "name": "solc",
    "version": "0.4.24+commit.e67f0147.Emscripten.clang"
  },
  "schemaVersion": "2.0.1",
  "updatedAt": "2019-11-07T08:15:06.326Z"
}