{
  "contractName": "TwoKeySingletonesRegistry",
  "abi": [
    {
      "constant": true,
      "inputs": [],
      "name": "deployer",
      "outputs": [
        {
          "name": "",
          "type": "address"
        }
      ],
      "payable": false,
      "stateMutability": "view",
      "type": "function"
    },
    {
      "inputs": [],
      "payable": false,
      "stateMutability": "nonpayable",
      "type": "constructor"
    },
    {
      "anonymous": false,
      "inputs": [
        {
          "indexed": false,
          "name": "logicProxy",
          "type": "address"
        },
        {
          "indexed": false,
          "name": "storageProxy",
          "type": "address"
        }
      ],
      "name": "ProxiesDeployed",
      "type": "event"
    },
    {
      "anonymous": false,
      "inputs": [
        {
          "indexed": false,
          "name": "proxy",
          "type": "address"
        }
      ],
      "name": "ProxyCreated",
      "type": "event"
    },
    {
      "anonymous": false,
      "inputs": [
        {
          "indexed": false,
          "name": "version",
          "type": "string"
        },
        {
          "indexed": false,
          "name": "implementation",
          "type": "address"
        }
      ],
      "name": "VersionAdded",
      "type": "event"
    },
    {
      "constant": false,
      "inputs": [
        {
          "name": "contractName",
          "type": "string"
        },
        {
          "name": "contractAddress",
          "type": "address"
        }
      ],
      "name": "addNonUpgradableContractToAddress",
      "outputs": [],
      "payable": false,
      "stateMutability": "nonpayable",
      "type": "function"
    },
    {
      "constant": false,
      "inputs": [
        {
          "name": "contractName",
          "type": "string"
        },
        {
          "name": "version",
          "type": "string"
        },
        {
          "name": "implementation",
          "type": "address"
        }
      ],
      "name": "addVersion",
      "outputs": [],
      "payable": false,
      "stateMutability": "nonpayable",
      "type": "function"
    },
    {
      "constant": false,
      "inputs": [
        {
          "name": "contractLogicName",
          "type": "string"
        },
        {
          "name": "contractStorageName",
          "type": "string"
        },
        {
          "name": "contractLogicImplementation",
          "type": "address"
        },
        {
          "name": "contractStorageImplementation",
          "type": "address"
        },
        {
          "name": "version",
          "type": "string"
        }
      ],
      "name": "addVersionDuringCreation",
      "outputs": [],
      "payable": false,
      "stateMutability": "nonpayable",
      "type": "function"
    },
    {
      "constant": true,
      "inputs": [
        {
          "name": "contractName",
          "type": "string"
        },
        {
          "name": "version",
          "type": "string"
        }
      ],
      "name": "getVersion",
      "outputs": [
        {
          "name": "",
          "type": "address"
        }
      ],
      "payable": false,
      "stateMutability": "view",
      "type": "function"
    },
    {
      "constant": true,
      "inputs": [
        {
          "name": "contractName",
          "type": "string"
        }
      ],
      "name": "getLatestContractVersion",
      "outputs": [
        {
          "name": "",
          "type": "string"
        }
      ],
      "payable": false,
      "stateMutability": "view",
      "type": "function"
    },
    {
      "constant": true,
      "inputs": [
        {
          "name": "contractName",
          "type": "string"
        }
      ],
      "name": "getNonUpgradableContractAddress",
      "outputs": [
        {
          "name": "",
          "type": "address"
        }
      ],
      "payable": false,
      "stateMutability": "view",
      "type": "function"
    },
    {
      "constant": true,
      "inputs": [
        {
          "name": "_contractName",
          "type": "string"
        }
      ],
      "name": "getContractProxyAddress",
      "outputs": [
        {
          "name": "",
          "type": "address"
        }
      ],
      "payable": false,
      "stateMutability": "view",
      "type": "function"
    },
    {
      "constant": false,
      "inputs": [
        {
          "name": "contractName",
          "type": "string"
        },
        {
          "name": "version",
          "type": "string"
        }
      ],
      "name": "upgradeContract",
      "outputs": [],
      "payable": false,
      "stateMutability": "nonpayable",
      "type": "function"
    },
    {
      "constant": false,
      "inputs": [
        {
          "name": "contractName",
          "type": "string"
        },
        {
          "name": "contractNameStorage",
          "type": "string"
        },
        {
          "name": "version",
          "type": "string"
        }
      ],
      "name": "createProxy",
      "outputs": [],
      "payable": false,
      "stateMutability": "nonpayable",
      "type": "function"
    },
    {
      "constant": false,
      "inputs": [
        {
          "name": "_newOwner",
          "type": "address"
        }
      ],
      "name": "transferOwnership",
      "outputs": [],
      "payable": false,
      "stateMutability": "nonpayable",
      "type": "function"
    }
  ],
  "bytecode": "0x608060405234801561001057600080fd5b50336000806101000a81548173ffffffffffffffffffffffffffffffffffffffff021916908373ffffffffffffffffffffffffffffffffffffffff160217905550612693806100606000396000f300608060405260043610620000bb576000357c0100000000000000000000000000000000000000000000000000000000900463ffffffff16806333ef584614620000c05780633854355214620001b85780634895392914620002aa5780634d4a76f5146200035c57806380c63933146200042e578063a34d180614620004ba578063d5f3948814620005a2578063db7a6d9014620005fc578063e62111c014620006a8578063f2fde38b14620007e0578063f716c79a1462000826575b600080fd5b348015620000cd57600080fd5b50620001b6600480360381019080803590602001908201803590602001908080601f0160208091040260200160405190810160405280939291908181526020018383808284378201915050505050509192919290803590602001908201803590602001908080601f0160208091040260200160405190810160405280939291908181526020018383808284378201915050505050509192919290803590602001908201803590602001908080601f0160208091040260200160405190810160405280939291908181526020018383808284378201915050505050509192919290505050620008d2565b005b348015620001c557600080fd5b5062000268600480360381019080803590602001908201803590602001908080601f0160208091040260200160405190810160405280939291908181526020018383808284378201915050505050509192919290803590602001908201803590602001908080601f016020809104026020016040519081016040528093929190818152602001838380828437820191505050505050919291929050505062000b9d565b604051808273ffffffffffffffffffffffffffffffffffffffff1673ffffffffffffffffffffffffffffffffffffffff16815260200191505060405180910390f35b348015620002b757600080fd5b506200035a600480360381019080803590602001908201803590602001908080601f0160208091040260200160405190810160405280939291908181526020018383808284378201915050505050509192919290803590602001908201803590602001908080601f016020809104026020016040519081016040528093929190818152602001838380828437820191505050505050919291929050505062000ca0565b005b3480156200036957600080fd5b506200042c600480360381019080803590602001908201803590602001908080601f0160208091040260200160405190810160405280939291908181526020018383808284378201915050505050509192919290803590602001908201803590602001908080601f0160208091040260200160405190810160405280939291908181526020018383808284378201915050505050509192919290803573ffffffffffffffffffffffffffffffffffffffff16906020019092919050505062000ef2565b005b3480156200043b57600080fd5b50620004b8600480360381019080803590602001908201803590602001908080601f0160208091040260200160405190810160405280939291908181526020018383808284378201915050505050509192919290803573ffffffffffffffffffffffffffffffffffffffff16906020019092919050505062001461565b005b348015620004c757600080fd5b5062000524600480360381019080803590602001908201803590602001908080601f0160208091040260200160405190810160405280939291908181526020018383808284378201915050505050509192919290505050620016b2565b6040518080602001828103825283818151815260200191508051906020019080838360005b838110156200056657808201518184015260208101905062000549565b50505050905090810190601f168015620005945780820380516001836020036101000a031916815260200191505b509250505060405180910390f35b348015620005af57600080fd5b50620005ba620017c5565b604051808273ffffffffffffffffffffffffffffffffffffffff1673ffffffffffffffffffffffffffffffffffffffff16815260200191505060405180910390f35b3480156200060957600080fd5b5062000666600480360381019080803590602001908201803590602001908080601f0160208091040260200160405190810160405280939291908181526020018383808284378201915050505050509192919290505050620017ea565b604051808273ffffffffffffffffffffffffffffffffffffffff1673ffffffffffffffffffffffffffffffffffffffff16815260200191505060405180910390f35b348015620006b557600080fd5b50620007de600480360381019080803590602001908201803590602001908080601f0160208091040260200160405190810160405280939291908181526020018383808284378201915050505050509192919290803590602001908201803590602001908080601f0160208091040260200160405190810160405280939291908181526020018383808284378201915050505050509192919290803573ffffffffffffffffffffffffffffffffffffffff169060200190929190803573ffffffffffffffffffffffffffffffffffffffff169060200190929190803590602001908201803590602001908080601f016020809104026020016040519081016040528093929190818152602001838380828437820191505050505050919291929050505062001881565b005b348015620007ed57600080fd5b5062000824600480360381019080803573ffffffffffffffffffffffffffffffffffffffff16906020019092919050505062001cca565b005b3480156200083357600080fd5b5062000890600480360381019080803590602001908201803590602001908080601f016020809104026020016040519081016040528093929190818152602001838380828437820191505050505050919291929050505062001d69565b604051808273ffffffffffffffffffffffffffffffffffffffff1673ffffffffffffffffffffffffffffffffffffffff16815260200191505060405180910390f35b6000806000809054906101000a900473ffffffffffffffffffffffffffffffffffffffff1673ffffffffffffffffffffffffffffffffffffffff163373ffffffffffffffffffffffffffffffffffffffff161415156200093157600080fd5b600073ffffffffffffffffffffffffffffffffffffffff166002866040518082805190602001908083835b6020831015156200098357805182526020820191506020810190506020830392506200095c565b6001836020036101000a038019825116818451168082178552505050505050905001915050908152602001604051809103902060009054906101000a900473ffffffffffffffffffffffffffffffffffffffff1673ffffffffffffffffffffffffffffffffffffffff16141515620009fa57600080fd5b62000a06858462001e00565b915062000a14848462001e00565b90508073ffffffffffffffffffffffffffffffffffffffff166328474b8e83336040518363ffffffff167c0100000000000000000000000000000000000000000000000000000000028152600401808373ffffffffffffffffffffffffffffffffffffffff1673ffffffffffffffffffffffffffffffffffffffff1681526020018273ffffffffffffffffffffffffffffffffffffffff1673ffffffffffffffffffffffffffffffffffffffff16815260200192505050600060405180830381600087803b15801562000ae657600080fd5b505af115801562000afb573d6000803e3d6000fd5b505050507f4f77447014a5aac8b38888b4720a78a43d44a6301dbf1b456c1da3715d5a5df48282604051808373ffffffffffffffffffffffffffffffffffffffff1673ffffffffffffffffffffffffffffffffffffffff1681526020018273ffffffffffffffffffffffffffffffffffffffff1673ffffffffffffffffffffffffffffffffffffffff1681526020019250505060405180910390a15050505050565b60006001836040518082805190602001908083835b60208310151562000bd9578051825260208201915060208101905060208303925062000bb2565b6001836020036101000a0380198251168184511680821785525050505050509050019150509081526020016040518091039020826040518082805190602001908083835b60208310151562000c44578051825260208201915060208101905060208303925062000c1d565b6001836020036101000a038019825116818451168082178552505050505050905001915050908152602001604051809103902060009054906101000a900473ffffffffffffffffffffffffffffffffffffffff16905092915050565b600080600460405180807f54776f4b6579436f6e6772657373000000000000000000000000000000000000815250600e019050908152602001604051809103902060009054906101000a900473ffffffffffffffffffffffffffffffffffffffff1673ffffffffffffffffffffffffffffffffffffffff163373ffffffffffffffffffffffffffffffffffffffff1614151562000d3c57600080fd5b62000d4784620017ea565b915062000d55848462000b9d565b90508173ffffffffffffffffffffffffffffffffffffffff16632bc38f788585846040518463ffffffff167c01000000000000000000000000000000000000000000000000000000000281526004018080602001806020018473ffffffffffffffffffffffffffffffffffffffff1673ffffffffffffffffffffffffffffffffffffffff168152602001838103835286818151815260200191508051906020019080838360005b8381101562000e1957808201518184015260208101905062000dfc565b50505050905090810190601f16801562000e475780820380516001836020036101000a031916815260200191505b50838103825285818151815260200191508051906020019080838360005b8381101562000e8257808201518184015260208101905062000e65565b50505050905090810190601f16801562000eb05780820380516001836020036101000a031916815260200191505b5095505050505050600060405180830381600087803b15801562000ed357600080fd5b505af115801562000ee8573d6000803e3d6000fd5b5050505050505050565b6000600260405180807f54776f4b65794d61696e7461696e6572735265676973747279000000000000008152506019019050908152602001604051809103902060009054906101000a900473ffffffffffffffffffffffffffffffffffffffff1690506000809054906101000a900473ffffffffffffffffffffffffffffffffffffffff1673ffffffffffffffffffffffffffffffffffffffff163373ffffffffffffffffffffffffffffffffffffffff1614806200108657508073ffffffffffffffffffffffffffffffffffffffff1663e96dbd57336040518263ffffffff167c0100000000000000000000000000000000000000000000000000000000028152600401808273ffffffffffffffffffffffffffffffffffffffff1673ffffffffffffffffffffffffffffffffffffffff168152602001915050602060405180830381600087803b1580156200104857600080fd5b505af11580156200105d573d6000803e3d6000fd5b505050506040513d60208110156200107457600080fd5b81019080805190602001909291905050505b15156200109257600080fd5b600073ffffffffffffffffffffffffffffffffffffffff168273ffffffffffffffffffffffffffffffffffffffff1614151515620010cf57600080fd5b60006001856040518082805190602001908083835b6020831015156200110b5780518252602082019150602081019050602083039250620010e4565b6001836020036101000a0380198251168184511680821785525050505050509050019150509081526020016040518091039020846040518082805190602001908083835b6020831015156200117657805182526020820191506020810190506020830392506200114f565b6001836020036101000a038019825116818451168082178552505050505050905001915050908152602001604051809103902060009054906101000a900473ffffffffffffffffffffffffffffffffffffffff1673ffffffffffffffffffffffffffffffffffffffff16141515620011ed57600080fd5b816001856040518082805190602001908083835b60208310151562001228578051825260208201915060208101905060208303925062001201565b6001836020036101000a0380198251168184511680821785525050505050509050019150509081526020016040518091039020846040518082805190602001908083835b6020831015156200129357805182526020820191506020810190506020830392506200126c565b6001836020036101000a038019825116818451168082178552505050505050905001915050908152602001604051809103902060006101000a81548173ffffffffffffffffffffffffffffffffffffffff021916908373ffffffffffffffffffffffffffffffffffffffff160217905550826003856040518082805190602001908083835b6020831015156200133f578051825260208201915060208101905060208303925062001318565b6001836020036101000a038019825116818451168082178552505050505050905001915050908152602001604051809103902090805190602001906200138792919062002028565b507fe2a08c9e50f4a219841f60ac40fa9d1f2cccb83ac2d3439c8c568fdf1f7c19e4838360405180806020018373ffffffffffffffffffffffffffffffffffffffff1673ffffffffffffffffffffffffffffffffffffffff168152602001828103825284818151815260200191508051906020019080838360005b838110156200141f57808201518184015260208101905062001402565b50505050905090810190601f1680156200144d5780820380516001836020036101000a031916815260200191505b50935050505060405180910390a150505050565b6000600260405180807f54776f4b65794d61696e7461696e6572735265676973747279000000000000008152506019019050908152602001604051809103902060009054906101000a900473ffffffffffffffffffffffffffffffffffffffff1690506000809054906101000a900473ffffffffffffffffffffffffffffffffffffffff1673ffffffffffffffffffffffffffffffffffffffff163373ffffffffffffffffffffffffffffffffffffffff161480620015f557508073ffffffffffffffffffffffffffffffffffffffff16635cc7815c336040518263ffffffff167c0100000000000000000000000000000000000000000000000000000000028152600401808273ffffffffffffffffffffffffffffffffffffffff1673ffffffffffffffffffffffffffffffffffffffff168152602001915050602060405180830381600087803b158015620015b757600080fd5b505af1158015620015cc573d6000803e3d6000fd5b505050506040513d6020811015620015e357600080fd5b81019080805190602001909291905050505b15156200160157600080fd5b816004846040518082805190602001908083835b6020831015156200163c578051825260208201915060208101905060208303925062001615565b6001836020036101000a038019825116818451168082178552505050505050905001915050908152602001604051809103902060006101000a81548173ffffffffffffffffffffffffffffffffffffffff021916908373ffffffffffffffffffffffffffffffffffffffff160217905550505050565b60606003826040518082805190602001908083835b602083101515620016ee5780518252602082019150602081019050602083039250620016c7565b6001836020036101000a03801982511681845116808217855250505050505090500191505090815260200160405180910390208054600181600116156101000203166002900480601f016020809104026020016040519081016040528092919081815260200182805460018160011615610100020316600290048015620017b95780601f106200178d57610100808354040283529160200191620017b9565b820191906000526020600020905b8154815290600101906020018083116200179b57829003601f168201915b50505050509050919050565b6000809054906101000a900473ffffffffffffffffffffffffffffffffffffffff1681565b60006002826040518082805190602001908083835b602083101515620018265780518252602082019150602081019050602083039250620017ff565b6001836020036101000a038019825116818451168082178552505050505050905001915050908152602001604051809103902060009054906101000a900473ffffffffffffffffffffffffffffffffffffffff169050919050565b6000809054906101000a900473ffffffffffffffffffffffffffffffffffffffff1673ffffffffffffffffffffffffffffffffffffffff163373ffffffffffffffffffffffffffffffffffffffff16141515620018dd57600080fd5b60405180807f312e302e300000000000000000000000000000000000000000000000000000008152506005019050604051809103902060001916816040518082805190602001908083835b6020831015156200194f578051825260208201915060208101905060208303925062001928565b6001836020036101000a0380198251168184511680821785525050505050509050019150506040518091039020600019161415156200198d57600080fd5b826001866040518082805190602001908083835b602083101515620019c85780518252602082019150602081019050602083039250620019a1565b6001836020036101000a0380198251168184511680821785525050505050509050019150509081526020016040518091039020826040518082805190602001908083835b60208310151562001a33578051825260208201915060208101905060208303925062001a0c565b6001836020036101000a038019825116818451168082178552505050505050905001915050908152602001604051809103902060006101000a81548173ffffffffffffffffffffffffffffffffffffffff021916908373ffffffffffffffffffffffffffffffffffffffff160217905550816001856040518082805190602001908083835b60208310151562001adf578051825260208201915060208101905060208303925062001ab8565b6001836020036101000a0380198251168184511680821785525050505050509050019150509081526020016040518091039020826040518082805190602001908083835b60208310151562001b4a578051825260208201915060208101905060208303925062001b23565b6001836020036101000a038019825116818451168082178552505050505050905001915050908152602001604051809103902060006101000a81548173ffffffffffffffffffffffffffffffffffffffff021916908373ffffffffffffffffffffffffffffffffffffffff160217905550806003866040518082805190602001908083835b60208310151562001bf6578051825260208201915060208101905060208303925062001bcf565b6001836020036101000a0380198251168184511680821785525050505050509050019150509081526020016040518091039020908051906020019062001c3e92919062002028565b50806003856040518082805190602001908083835b60208310151562001c7a578051825260208201915060208101905060208303925062001c53565b6001836020036101000a0380198251168184511680821785525050505050509050019150509081526020016040518091039020908051906020019062001cc292919062002028565b505050505050565b6000809054906101000a900473ffffffffffffffffffffffffffffffffffffffff1673ffffffffffffffffffffffffffffffffffffffff163373ffffffffffffffffffffffffffffffffffffffff1614151562001d2657600080fd5b806000806101000a81548173ffffffffffffffffffffffffffffffffffffffff021916908373ffffffffffffffffffffffffffffffffffffffff16021790555050565b60006004826040518082805190602001908083835b60208310151562001da5578051825260208201915060208101905060208303925062001d7e565b6001836020036101000a038019825116818451168082178552505050505050905001915050908152602001604051809103902060009054906101000a900473ffffffffffffffffffffffffffffffffffffffff169050919050565b600080838362001e0f620020af565b808060200180602001838103835285818151815260200191508051906020019080838360005b8381101562001e5257808201518184015260208101905062001e35565b50505050905090810190601f16801562001e805780820380516001836020036101000a031916815260200191505b50838103825284818151815260200191508051906020019080838360005b8381101562001ebb57808201518184015260208101905062001e9e565b50505050905090810190601f16801562001ee95780820380516001836020036101000a031916815260200191505b50945050505050604051809103906000f08015801562001f0d573d6000803e3d6000fd5b509050806002856040518082805190602001908083835b60208310151562001f4b578051825260208201915060208101905060208303925062001f24565b6001836020036101000a038019825116818451168082178552505050505050905001915050908152602001604051809103902060006101000a81548173ffffffffffffffffffffffffffffffffffffffff021916908373ffffffffffffffffffffffffffffffffffffffff1602179055507efffc2da0b561cae30d9826d37709e9421c4725faebc226cbbb7ef5fc5e734981604051808273ffffffffffffffffffffffffffffffffffffffff1673ffffffffffffffffffffffffffffffffffffffff16815260200191505060405180910390a18091505092915050565b828054600181600116156101000203166002900490600052602060002090601f016020900481019282601f106200206b57805160ff19168380011785556200209c565b828001600101855582156200209c579182015b828111156200209b5782518255916020019190600101906200207e565b5b509050620020ab9190620020c0565b5090565b60405161057f80620020e983390190565b620020e591905b80821115620020e1576000816000905550600101620020c7565b5090565b905600608060405234801561001057600080fd5b5060405161057f38038061057f8339810180604052810190808051820192919060200180518201929190505050336000806101000a81548173ffffffffffffffffffffffffffffffffffffffff021916908373ffffffffffffffffffffffffffffffffffffffff1602179055506000809054906101000a900473ffffffffffffffffffffffffffffffffffffffff1673ffffffffffffffffffffffffffffffffffffffff16633854355283836040518363ffffffff167c0100000000000000000000000000000000000000000000000000000000028152600401808060200180602001838103835285818151815260200191508051906020019080838360005b8381101561012b578082015181840152602081019050610110565b50505050905090810190601f1680156101585780820380516001836020036101000a031916815260200191505b50838103825284818151815260200191508051906020019080838360005b83811015610191578082015181840152602081019050610176565b50505050905090810190601f1680156101be5780820380516001836020036101000a031916815260200191505b50945050505050602060405180830381600087803b1580156101df57600080fd5b505af11580156101f3573d6000803e3d6000fd5b505050506040513d602081101561020957600080fd5b8101908080519060200190929190505050600160006101000a81548173ffffffffffffffffffffffffffffffffffffffff021916908373ffffffffffffffffffffffffffffffffffffffff16021790555050506103148061026b6000396000f30060806040526004361061004c576000357c0100000000000000000000000000000000000000000000000000000000900463ffffffff1680632bc38f78146100bb5780635c60da1b1461018a575b60006100566101e1565b9050600073ffffffffffffffffffffffffffffffffffffffff168173ffffffffffffffffffffffffffffffffffffffff161415151561009457600080fd5b60405136600082376000803683855af43d806000843e81600081146100b7578184f35b8184fd5b3480156100c757600080fd5b50610188600480360381019080803590602001908201803590602001908080601f0160208091040260200160405190810160405280939291908181526020018383808284378201915050505050509192919290803590602001908201803590602001908080601f0160208091040260200160405190810160405280939291908181526020018383808284378201915050505050509192919290803573ffffffffffffffffffffffffffffffffffffffff16906020019092919050505061020b565b005b34801561019657600080fd5b5061019f6101e1565b604051808273ffffffffffffffffffffffffffffffffffffffff1673ffffffffffffffffffffffffffffffffffffffff16815260200191505060405180910390f35b6000600160009054906101000a900473ffffffffffffffffffffffffffffffffffffffff16905090565b6000809054906101000a900473ffffffffffffffffffffffffffffffffffffffff1673ffffffffffffffffffffffffffffffffffffffff163373ffffffffffffffffffffffffffffffffffffffff1614151561026657600080fd5b600073ffffffffffffffffffffffffffffffffffffffff168173ffffffffffffffffffffffffffffffffffffffff16141515156102a257600080fd5b80600160006101000a81548173ffffffffffffffffffffffffffffffffffffffff021916908373ffffffffffffffffffffffffffffffffffffffff1602179055505050505600a165627a7a72305820d54beae2a10d67877afbbf683191cd56b53cd70acf34099dc1e01d94e3ba936b0029a165627a7a72305820033db5068e53f7c25a830a2816b81e0b9f7a394dc0a1d27a983ef3430315366f0029",
  "source": "pragma solidity ^0.4.24;\n\nimport \"../UpgradabilityProxyAcquisition.sol\";\n\nimport '../interfaces/ITwoKeySingletonesRegistry.sol';\nimport \"../interfaces/IHandleCampaignDeployment.sol\";\nimport \"../interfaces/ITwoKeyCampaignValidator.sol\";\nimport \"../interfaces/ITwoKeyMaintainersRegistry.sol\";\nimport \"../interfaces/IStructuredStorage.sol\";\n\nimport \"../upgradability/UpgradeabilityProxy.sol\";\nimport \"../upgradability/Upgradeable.sol\";\n\n\n\n/**\n * @author Nikola Madjarevic\n */\ncontract TwoKeySingletonesRegistry is ITwoKeySingletonesRegistry {\n\n    address public deployer;\n\n    mapping (string => mapping(string => address)) internal versions;\n    mapping (string => address) contractNameToProxyAddress;\n    mapping (string => string) contractNameToLatestVersion;\n    mapping (string => address) nonUpgradableContractToAddress;\n\n\n    event ProxiesDeployed(\n        address logicProxy,\n        address storageProxy\n    );\n\n\n    constructor()\n    public\n    {\n        deployer = msg.sender;\n    }\n\n    modifier onlyMaintainer {\n        address twoKeyMaintainersRegistry = contractNameToProxyAddress[\"TwoKeyMaintainersRegistry\"];\n        require(msg.sender == deployer || ITwoKeyMaintainersRegistry(twoKeyMaintainersRegistry).checkIsAddressMaintainer(msg.sender));\n        _;\n    }\n\n    modifier onlyCoreDev {\n        address twoKeyMaintainersRegistry = contractNameToProxyAddress[\"TwoKeyMaintainersRegistry\"];\n        require(msg.sender == deployer || ITwoKeyMaintainersRegistry(twoKeyMaintainersRegistry).checkIsAddressCoreDev(msg.sender));\n        _;\n    }\n\n    /**\n     * @notice Function to add non upgradable contract in registry of all contracts\n     * @param contractName is the name of the contract\n     * @param contractAddress is the contract address\n     * @dev only maintainer can issue call to this method\n     */\n    function addNonUpgradableContractToAddress(\n        string contractName,\n        address contractAddress\n    )\n    public\n    onlyMaintainer\n    {\n        nonUpgradableContractToAddress[contractName] = contractAddress;\n    }\n\n\n    /**\n     * @dev Registers a new version with its implementation address\n     * @param version representing the version name of the new implementation to be registered\n     * @param implementation representing the address of the new implementation to be registered\n     */\n    function addVersion(\n        string contractName,\n        string version,\n        address implementation\n    )\n    public\n    onlyCoreDev\n    {\n        require(implementation != address(0));\n        require(versions[contractName][version] == 0x0);\n        versions[contractName][version] = implementation;\n        contractNameToLatestVersion[contractName] = version;\n        emit VersionAdded(version, implementation);\n    }\n\n    function addVersionDuringCreation(\n        string contractLogicName,\n        string contractStorageName,\n        address contractLogicImplementation,\n        address contractStorageImplementation,\n        string version\n    )\n    public\n    {\n        require(msg.sender == deployer);\n        // Can be called only when we're creating first time contracts\n        require(keccak256(version) == keccak256(\"1.0.0\"));\n        //TODO: review this function\n\n        versions[contractLogicName][version] = contractLogicImplementation;\n        versions[contractStorageName][version] = contractStorageImplementation;\n\n        contractNameToLatestVersion[contractLogicName] = version;\n        contractNameToLatestVersion[contractStorageName] = version;\n    }\n\n    /**\n     * @dev Tells the address of the implementation for a given version\n     * @param version to query the implementation of\n     * @return address of the implementation registered for the given version\n     */\n    function getVersion(\n        string contractName,\n        string version\n    )\n    public\n    view\n    returns (address)\n    {\n        return versions[contractName][version];\n    }\n\n\n\n    /**\n     * @notice Gets the latest contract version\n     * @param contractName is the name of the contract\n     * @return string representation of the last version\n     */\n    function getLatestContractVersion(\n        string contractName\n    )\n    public\n    view\n    returns (string)\n    {\n        return contractNameToLatestVersion[contractName];\n    }\n\n\n    /**\n     * @notice Function to get address of non-upgradable contract\n     * @param contractName is the name of the contract\n     */\n    function getNonUpgradableContractAddress(\n        string contractName\n    )\n    public\n    view\n    returns (address)\n    {\n        return nonUpgradableContractToAddress[contractName];\n    }\n\n    /**\n     * @notice Function to return address of proxy for specific contract\n     * @param _contractName is the name of the contract we'd like to get proxy address\n     * @return is the address of the proxy for the specific contract\n     */\n    function getContractProxyAddress(\n        string _contractName\n    )\n    public\n    view\n    returns (address)\n    {\n        return contractNameToProxyAddress[_contractName];\n    }\n\n\n    /**\n     * @notice Internal function to deploy proxy for the contract\n     * @param contractName is the name of the contract\n     * @param version is the new version\n     */\n    function deployProxy(\n        string contractName,\n        string version\n    )\n    internal\n    returns (address)\n    {\n        UpgradeabilityProxy proxy = new UpgradeabilityProxy(contractName, version);\n        contractNameToProxyAddress[contractName] = proxy;\n        emit ProxyCreated(proxy);\n        return address(proxy);\n    }\n\n    /**\n     * @notice Function to upgrade contract to new version\n     * @param contractName is the name of the contract\n     * @param version is the new version\n     */\n    function upgradeContract(\n        string contractName,\n        string version\n    )\n    public\n    {\n        require(msg.sender == nonUpgradableContractToAddress[\"TwoKeyCongress\"]);\n        address proxyAddress = getContractProxyAddress(contractName);\n        address _impl = getVersion(contractName, version);\n\n        UpgradeabilityProxy(proxyAddress).upgradeTo(contractName, version, _impl);\n    }\n\n\n\n    /**\n     * @dev Creates an upgradeable proxy for both Storage and Logic\n     * @param version representing the first version to be set for the proxy\n     */\n    function createProxy(\n        string contractName,\n        string contractNameStorage,\n        string version\n    )\n    public\n    {\n        require(msg.sender == deployer);\n        require(contractNameToProxyAddress[contractName] == address(0));\n        address logicProxy = deployProxy(contractName, version);\n        address storageProxy = deployProxy(contractNameStorage, version);\n\n        IStructuredStorage(storageProxy).setProxyLogicContractAndDeployer(logicProxy, msg.sender);\n        emit ProxiesDeployed(logicProxy, storageProxy);\n    }\n\n    function transferOwnership(\n        address _newOwner\n    )\n    public\n    {\n        require(msg.sender == deployer);\n        deployer = _newOwner;\n    }\n\n}\n",
  "sourcePath": "/Users/nikolamadjarevic/Desktop/2key/contracts/contracts/2key/non-upgradable-singletons/TwoKeySingletonesRegistry.sol",
  "compiler": {
    "name": "solc",
    "version": "0.4.24+commit.e67f0147.Emscripten.clang"
  },
  "schemaVersion": "2.0.1",
  "updatedAt": "2019-11-07T08:15:06.248Z"
}