{
  "contractName": "TwoKeyBaseReputationRegistry",
  "abi": [
    {
      "constant": true,
      "inputs": [],
      "name": "PROXY_STORAGE_CONTRACT",
      "outputs": [
        {
          "name": "",
          "type": "address"
        }
      ],
      "payable": false,
      "stateMutability": "view",
      "type": "function"
    },
    {
      "constant": true,
      "inputs": [],
      "name": "implementation",
      "outputs": [
        {
          "name": "",
          "type": "address"
        }
      ],
      "payable": false,
      "stateMutability": "view",
      "type": "function"
    },
    {
      "constant": true,
      "inputs": [],
      "name": "TWO_KEY_SINGLETON_REGISTRY",
      "outputs": [
        {
          "name": "",
          "type": "address"
        }
      ],
      "payable": false,
      "stateMutability": "view",
      "type": "function"
    },
    {
      "constant": true,
      "inputs": [
        {
          "name": "_address",
          "type": "address"
        }
      ],
      "name": "getterChecker",
      "outputs": [
        {
          "name": "",
          "type": "bool"
        }
      ],
      "payable": false,
      "stateMutability": "view",
      "type": "function"
    },
    {
      "constant": false,
      "inputs": [
        {
          "name": "sender",
          "type": "address"
        }
      ],
      "name": "initialize",
      "outputs": [],
      "payable": true,
      "stateMutability": "payable",
      "type": "function"
    },
    {
      "constant": false,
      "inputs": [
        {
          "name": "_twoKeySingletoneRegistry",
          "type": "address"
        },
        {
          "name": "_proxyStorage",
          "type": "address"
        }
      ],
      "name": "setInitialParams",
      "outputs": [],
      "payable": false,
      "stateMutability": "nonpayable",
      "type": "function"
    },
    {
      "constant": false,
      "inputs": [
        {
          "name": "converter",
          "type": "address"
        },
        {
          "name": "contractor",
          "type": "address"
        },
        {
          "name": "campaign",
          "type": "address"
        }
      ],
      "name": "updateOnConversionExecutedEvent",
      "outputs": [],
      "payable": false,
      "stateMutability": "nonpayable",
      "type": "function"
    },
    {
      "constant": false,
      "inputs": [
        {
          "name": "converter",
          "type": "address"
        },
        {
          "name": "contractor",
          "type": "address"
        },
        {
          "name": "campaign",
          "type": "address"
        }
      ],
      "name": "updateOnConversionRejectedEvent",
      "outputs": [],
      "payable": false,
      "stateMutability": "nonpayable",
      "type": "function"
    },
    {
      "constant": true,
      "inputs": [
        {
          "name": "_address",
          "type": "address"
        }
      ],
      "name": "getRewardsByAddress",
      "outputs": [
        {
          "name": "",
          "type": "int256"
        },
        {
          "name": "",
          "type": "int256"
        },
        {
          "name": "",
          "type": "int256"
        }
      ],
      "payable": false,
      "stateMutability": "view",
      "type": "function"
    }
  ],
  "bytecode": "0x608060405234801561001057600080fd5b50612454806100206000396000f300608060405260043610610099576000357c0100000000000000000000000000000000000000000000000000000000900463ffffffff16806305dbe4121461009e5780630c34a68f14610101578063105005a1146101845780631a0af05c146101db5780634a7501bc146102405780635c60da1b146102c35780638830afa01461031a578063a9bd894514610371578063c4d66de8146103cc575b600080fd5b3480156100aa57600080fd5b506100ff600480360381019080803573ffffffffffffffffffffffffffffffffffffffff169060200190929190803573ffffffffffffffffffffffffffffffffffffffff169060200190929190505050610402565b005b34801561010d57600080fd5b50610182600480360381019080803573ffffffffffffffffffffffffffffffffffffffff169060200190929190803573ffffffffffffffffffffffffffffffffffffffff169060200190929190803573ffffffffffffffffffffffffffffffffffffffff1690602001909291905050506104c5565b005b34801561019057600080fd5b50610199610e22565b604051808273ffffffffffffffffffffffffffffffffffffffff1673ffffffffffffffffffffffffffffffffffffffff16815260200191505060405180910390f35b3480156101e757600080fd5b5061021c600480360381019080803573ffffffffffffffffffffffffffffffffffffffff169060200190929190505050610e48565b60405180848152602001838152602001828152602001935050505060405180910390f35b34801561024c57600080fd5b506102c1600480360381019080803573ffffffffffffffffffffffffffffffffffffffff169060200190929190803573ffffffffffffffffffffffffffffffffffffffff169060200190929190803573ffffffffffffffffffffffffffffffffffffffff1690602001909291905050506115d6565b005b3480156102cf57600080fd5b506102d8611f33565b604051808273ffffffffffffffffffffffffffffffffffffffff1673ffffffffffffffffffffffffffffffffffffffff16815260200191505060405180910390f35b34801561032657600080fd5b5061032f611f5d565b604051808273ffffffffffffffffffffffffffffffffffffffff1673ffffffffffffffffffffffffffffffffffffffff16815260200191505060405180910390f35b34801561037d57600080fd5b506103b2600480360381019080803573ffffffffffffffffffffffffffffffffffffffff169060200190929190505050611f83565b604051808215151515815260200191505060405180910390f35b610400600480360381019080803573ffffffffffffffffffffffffffffffffffffffff1690602001909291905050506120a4565b005b60001515600260149054906101000a900460ff16151514151561042457600080fd5b81600260006101000a81548173ffffffffffffffffffffffffffffffffffffffff021916908373ffffffffffffffffffffffffffffffffffffffff16021790555080600360006101000a81548173ffffffffffffffffffffffffffffffffffffffff021916908373ffffffffffffffffffffffffffffffffffffffff1602179055506001600260146101000a81548160ff0219169083151502179055505050565b600080600080600060606000806000806105136040805190810160405280601781526020017f54776f4b657943616d706169676e56616c696461746f72000000000000000000815250612102565b9050600115158173ffffffffffffffffffffffffffffffffffffffff166371c6a34f336040518263ffffffff167c0100000000000000000000000000000000000000000000000000000000028152600401808273ffffffffffffffffffffffffffffffffffffffff1673ffffffffffffffffffffffffffffffffffffffff168152602001915050602060405180830381600087803b1580156105b457600080fd5b505af11580156105c8573d6000803e3d6000fd5b505050506040513d60208110156105de57600080fd5b810190808051906020019092919050505015151415156105fd57600080fd5b678ac7230489e800009950606060405190810160405280602a81526020017f6164647265737332636f6e74726163746f72476c6f62616c526570757461746981526020017f6f6e53636f7265576569000000000000000000000000000000000000000000008152508c6040518083805190602001908083835b60208310151561069b5780518252602082019150602081019050602083039250610676565b6001836020036101000a0380198251168184511680821785525050505050509050018273ffffffffffffffffffffffffffffffffffffffff1673ffffffffffffffffffffffffffffffffffffffff166c010000000000000000000000000281526014019250505060405180910390209850600360009054906101000a900473ffffffffffffffffffffffffffffffffffffffff1673ffffffffffffffffffffffffffffffffffffffff1663dc97d9628a6040518263ffffffff167c0100000000000000000000000000000000000000000000000000000000028152600401808260001916600019168152602001915050602060405180830381600087803b1580156107a557600080fd5b505af11580156107b9573d6000803e3d6000fd5b505050506040513d60208110156107cf57600080fd5b81019080805190602001909291905050509750600360009054906101000a900473ffffffffffffffffffffffffffffffffffffffff1673ffffffffffffffffffffffffffffffffffffffff16633e49bed08a8c8b016040518363ffffffff167c010000000000000000000000000000000000000000000000000000000002815260040180836000191660001916815260200182815260200192505050600060405180830381600087803b15801561088557600080fd5b505af1158015610899573d6000803e3d6000fd5b50505050606060405190810160405280602981526020017f6164647265737332636f6e766572746572476c6f62616c52657075746174696f81526020017f6e53636f726557656900000000000000000000000000000000000000000000008152508d6040518083805190602001908083835b602083101515610930578051825260208201915060208101905060208303925061090b565b6001836020036101000a0380198251168184511680821785525050505050509050018273ffffffffffffffffffffffffffffffffffffffff1673ffffffffffffffffffffffffffffffffffffffff166c010000000000000000000000000281526014019250505060405180910390209650600360009054906101000a900473ffffffffffffffffffffffffffffffffffffffff1673ffffffffffffffffffffffffffffffffffffffff1663dc97d962886040518263ffffffff167c0100000000000000000000000000000000000000000000000000000000028152600401808260001916600019168152602001915050602060405180830381600087803b158015610a3a57600080fd5b505af1158015610a4e573d6000803e3d6000fd5b505050506040513d6020811015610a6457600080fd5b81019080805190602001909291905050509550600360009054906101000a900473ffffffffffffffffffffffffffffffffffffffff1673ffffffffffffffffffffffffffffffffffffffff16633e49bed0888c89016040518363ffffffff167c010000000000000000000000000000000000000000000000000000000002815260040180836000191660001916815260200182815260200192505050600060405180830381600087803b158015610b1a57600080fd5b505af1158015610b2e573d6000803e3d6000fd5b50505050610b3c8d8c61223c565b9450600093505b8451841215610e1357606060405190810160405280602e81526020017f706c61736d6141646472657373327265666572726572476c6f62616c5265707581526020017f746174696f6e53636f72655765690000000000000000000000000000000000008152508585815181101515610bb757fe5b906020019060200201516040518083805190602001908083835b602083101515610bf65780518252602082019150602081019050602083039250610bd1565b6001836020036101000a0380198251168184511680821785525050505050509050018273ffffffffffffffffffffffffffffffffffffffff1673ffffffffffffffffffffffffffffffffffffffff166c010000000000000000000000000281526014019250505060405180910390209250600360009054906101000a900473ffffffffffffffffffffffffffffffffffffffff1673ffffffffffffffffffffffffffffffffffffffff1663dc97d962846040518263ffffffff167c0100000000000000000000000000000000000000000000000000000000028152600401808260001916600019168152602001915050602060405180830381600087803b158015610d0057600080fd5b505af1158015610d14573d6000803e3d6000fd5b505050506040513d6020811015610d2a57600080fd5b81019080805190602001909291905050509150600360009054906101000a900473ffffffffffffffffffffffffffffffffffffffff1673ffffffffffffffffffffffffffffffffffffffff16633e49bed084600187018d811515610d8a57fe5b0585016040518363ffffffff167c010000000000000000000000000000000000000000000000000000000002815260040180836000191660001916815260200182815260200192505050600060405180830381600087803b158015610dee57600080fd5b505af1158015610e02573d6000803e3d6000fd5b505050508380600101945050610b43565b50505050505050505050505050565b600360009054906101000a900473ffffffffffffffffffffffffffffffffffffffff1681565b6000806000806000806000806000806000600260009054906101000a900473ffffffffffffffffffffffffffffffffffffffff1673ffffffffffffffffffffffffffffffffffffffff1663db7a6d906040518163ffffffff167c010000000000000000000000000000000000000000000000000000000002815260040180806020018281038252600e8152602001807f54776f4b65795265676973747279000000000000000000000000000000000000815250602001915050602060405180830381600087803b158015610f1b57600080fd5b505af1158015610f2f573d6000803e3d6000fd5b505050506040513d6020811015610f4557600080fd5b810190808051906020019092919050505097508773ffffffffffffffffffffffffffffffffffffffff1663edab04378d6040518263ffffffff167c0100000000000000000000000000000000000000000000000000000000028152600401808273ffffffffffffffffffffffffffffffffffffffff1673ffffffffffffffffffffffffffffffffffffffff168152602001915050602060405180830381600087803b158015610ff357600080fd5b505af1158015611007573d6000803e3d6000fd5b505050506040513d602081101561101d57600080fd5b81019080805190602001909291905050509650606060405190810160405280602a81526020017f6164647265737332636f6e74726163746f72476c6f62616c526570757461746981526020017f6f6e53636f7265576569000000000000000000000000000000000000000000008152508c6040518083805190602001908083835b6020831015156110c3578051825260208201915060208101905060208303925061109e565b6001836020036101000a0380198251168184511680821785525050505050509050018273ffffffffffffffffffffffffffffffffffffffff1673ffffffffffffffffffffffffffffffffffffffff166c010000000000000000000000000281526014019250505060405180910390209550600360009054906101000a900473ffffffffffffffffffffffffffffffffffffffff1673ffffffffffffffffffffffffffffffffffffffff1663dc97d962876040518263ffffffff167c0100000000000000000000000000000000000000000000000000000000028152600401808260001916600019168152602001915050602060405180830381600087803b1580156111cd57600080fd5b505af11580156111e1573d6000803e3d6000fd5b505050506040513d60208110156111f757600080fd5b81019080805190602001909291905050509450606060405190810160405280602981526020017f6164647265737332636f6e766572746572476c6f62616c52657075746174696f81526020017f6e53636f726557656900000000000000000000000000000000000000000000008152508c6040518083805190602001908083835b60208310151561129d5780518252602082019150602081019050602083039250611278565b6001836020036101000a0380198251168184511680821785525050505050509050018273ffffffffffffffffffffffffffffffffffffffff1673ffffffffffffffffffffffffffffffffffffffff166c010000000000000000000000000281526014019250505060405180910390209350600360009054906101000a900473ffffffffffffffffffffffffffffffffffffffff1673ffffffffffffffffffffffffffffffffffffffff1663dc97d962856040518263ffffffff167c0100000000000000000000000000000000000000000000000000000000028152600401808260001916600019168152602001915050602060405180830381600087803b1580156113a757600080fd5b505af11580156113bb573d6000803e3d6000fd5b505050506040513d60208110156113d157600080fd5b81019080805190602001909291905050509250606060405190810160405280602e81526020017f706c61736d6141646472657373327265666572726572476c6f62616c5265707581526020017f746174696f6e53636f7265576569000000000000000000000000000000000000815250876040518083805190602001908083835b6020831015156114775780518252602082019150602081019050602083039250611452565b6001836020036101000a0380198251168184511680821785525050505050509050018273ffffffffffffffffffffffffffffffffffffffff1673ffffffffffffffffffffffffffffffffffffffff166c010000000000000000000000000281526014019250505060405180910390209150600360009054906101000a900473ffffffffffffffffffffffffffffffffffffffff1673ffffffffffffffffffffffffffffffffffffffff1663dc97d962836040518263ffffffff167c0100000000000000000000000000000000000000000000000000000000028152600401808260001916600019168152602001915050602060405180830381600087803b15801561158157600080fd5b505af1158015611595573d6000803e3d6000fd5b505050506040513d60208110156115ab57600080fd5b810190808051906020019092919050505090508483829a509a509a5050505050505050509193909250565b600080600080600060606000806000806116246040805190810160405280601781526020017f54776f4b657943616d706169676e56616c696461746f72000000000000000000815250612102565b9050600115158173ffffffffffffffffffffffffffffffffffffffff166371c6a34f336040518263ffffffff167c0100000000000000000000000000000000000000000000000000000000028152600401808273ffffffffffffffffffffffffffffffffffffffff1673ffffffffffffffffffffffffffffffffffffffff168152602001915050602060405180830381600087803b1580156116c557600080fd5b505af11580156116d9573d6000803e3d6000fd5b505050506040513d60208110156116ef57600080fd5b8101908080519060200190929190505050151514151561170e57600080fd5b674563918244f400009950606060405190810160405280602a81526020017f6164647265737332636f6e74726163746f72476c6f62616c526570757461746981526020017f6f6e53636f7265576569000000000000000000000000000000000000000000008152508c6040518083805190602001908083835b6020831015156117ac5780518252602082019150602081019050602083039250611787565b6001836020036101000a0380198251168184511680821785525050505050509050018273ffffffffffffffffffffffffffffffffffffffff1673ffffffffffffffffffffffffffffffffffffffff166c010000000000000000000000000281526014019250505060405180910390209850600360009054906101000a900473ffffffffffffffffffffffffffffffffffffffff1673ffffffffffffffffffffffffffffffffffffffff1663dc97d9628a6040518263ffffffff167c0100000000000000000000000000000000000000000000000000000000028152600401808260001916600019168152602001915050602060405180830381600087803b1580156118b657600080fd5b505af11580156118ca573d6000803e3d6000fd5b505050506040513d60208110156118e057600080fd5b81019080805190602001909291905050509750600360009054906101000a900473ffffffffffffffffffffffffffffffffffffffff1673ffffffffffffffffffffffffffffffffffffffff16633e49bed08a8c8b036040518363ffffffff167c010000000000000000000000000000000000000000000000000000000002815260040180836000191660001916815260200182815260200192505050600060405180830381600087803b15801561199657600080fd5b505af11580156119aa573d6000803e3d6000fd5b50505050606060405190810160405280602981526020017f6164647265737332636f6e766572746572476c6f62616c52657075746174696f81526020017f6e53636f726557656900000000000000000000000000000000000000000000008152508d6040518083805190602001908083835b602083101515611a415780518252602082019150602081019050602083039250611a1c565b6001836020036101000a0380198251168184511680821785525050505050509050018273ffffffffffffffffffffffffffffffffffffffff1673ffffffffffffffffffffffffffffffffffffffff166c010000000000000000000000000281526014019250505060405180910390209650600360009054906101000a900473ffffffffffffffffffffffffffffffffffffffff1673ffffffffffffffffffffffffffffffffffffffff1663dc97d962886040518263ffffffff167c0100000000000000000000000000000000000000000000000000000000028152600401808260001916600019168152602001915050602060405180830381600087803b158015611b4b57600080fd5b505af1158015611b5f573d6000803e3d6000fd5b505050506040513d6020811015611b7557600080fd5b81019080805190602001909291905050509550600360009054906101000a900473ffffffffffffffffffffffffffffffffffffffff1673ffffffffffffffffffffffffffffffffffffffff16633e49bed0888c89036040518363ffffffff167c010000000000000000000000000000000000000000000000000000000002815260040180836000191660001916815260200182815260200192505050600060405180830381600087803b158015611c2b57600080fd5b505af1158015611c3f573d6000803e3d6000fd5b50505050611c4d8d8c61223c565b9450600093505b8451841215611f2457606060405190810160405280602e81526020017f706c61736d6141646472657373327265666572726572476c6f62616c5265707581526020017f746174696f6e53636f72655765690000000000000000000000000000000000008152508585815181101515611cc857fe5b906020019060200201516040518083805190602001908083835b602083101515611d075780518252602082019150602081019050602083039250611ce2565b6001836020036101000a0380198251168184511680821785525050505050509050018273ffffffffffffffffffffffffffffffffffffffff1673ffffffffffffffffffffffffffffffffffffffff166c010000000000000000000000000281526014019250505060405180910390209250600360009054906101000a900473ffffffffffffffffffffffffffffffffffffffff1673ffffffffffffffffffffffffffffffffffffffff1663dc97d962846040518263ffffffff167c0100000000000000000000000000000000000000000000000000000000028152600401808260001916600019168152602001915050602060405180830381600087803b158015611e1157600080fd5b505af1158015611e25573d6000803e3d6000fd5b505050506040513d6020811015611e3b57600080fd5b81019080805190602001909291905050509150600360009054906101000a900473ffffffffffffffffffffffffffffffffffffffff1673ffffffffffffffffffffffffffffffffffffffff16633e49bed084600187018d811515611e9b57fe5b0585036040518363ffffffff167c010000000000000000000000000000000000000000000000000000000002815260040180836000191660001916815260200182815260200192505050600060405180830381600087803b158015611eff57600080fd5b505af1158015611f13573d6000803e3d6000fd5b505050508380600101945050611c54565b50505050505050505050505050565b6000600160009054906101000a900473ffffffffffffffffffffffffffffffffffffffff16905090565b600260009054906101000a900473ffffffffffffffffffffffffffffffffffffffff1681565b600080611fc46040805190810160405280601981526020017f54776f4b65794d61696e7461696e657273526567697374727900000000000000815250612102565b90508073ffffffffffffffffffffffffffffffffffffffff16635cc7815c846040518263ffffffff167c0100000000000000000000000000000000000000000000000000000000028152600401808273ffffffffffffffffffffffffffffffffffffffff1673ffffffffffffffffffffffffffffffffffffffff168152602001915050602060405180830381600087803b15801561206157600080fd5b505af1158015612075573d6000803e3d6000fd5b505050506040513d602081101561208b57600080fd5b8101908080519060200190929190505050915050919050565b6000809054906101000a900473ffffffffffffffffffffffffffffffffffffffff1673ffffffffffffffffffffffffffffffffffffffff163373ffffffffffffffffffffffffffffffffffffffff161415156120ff57600080fd5b50565b6000600260009054906101000a900473ffffffffffffffffffffffffffffffffffffffff1673ffffffffffffffffffffffffffffffffffffffff1663db7a6d90836040518263ffffffff167c01000000000000000000000000000000000000000000000000000000000281526004018080602001828103825283818151815260200191508051906020019080838360005b838110156121ae578082015181840152602081019050612193565b50505050905090810190601f1680156121db5780820380516001836020036101000a031916815260200191505b5092505050602060405180830381600087803b1580156121fa57600080fd5b505af115801561220e573d6000803e3d6000fd5b505050506040513d602081101561222457600080fd5b81019080805190602001909291905050509050919050565b6060600061224983612380565b90508073ffffffffffffffffffffffffffffffffffffffff1663df65845a856040518263ffffffff167c0100000000000000000000000000000000000000000000000000000000028152600401808273ffffffffffffffffffffffffffffffffffffffff1673ffffffffffffffffffffffffffffffffffffffff168152602001915050600060405180830381600087803b1580156122e657600080fd5b505af11580156122fa573d6000803e3d6000fd5b505050506040513d6000823e3d601f19601f82011682018060405250602081101561232457600080fd5b81019080805164010000000081111561233c57600080fd5b8281019050602081018481111561235257600080fd5b815185602082028301116401000000008211171561236f57600080fd5b505092919050505091505092915050565b60008173ffffffffffffffffffffffffffffffffffffffff166308c043066040518163ffffffff167c0100000000000000000000000000000000000000000000000000000000028152600401602060405180830381600087803b1580156123e657600080fd5b505af11580156123fa573d6000803e3d6000fd5b505050506040513d602081101561241057600080fd5b810190808051906020019092919050505090509190505600a165627a7a72305820482da56419c6b55c89d6bb3b6f73d457a03022ec828da70ec6bedbbf99cb8c6e0029",
  "source": "pragma solidity ^0.4.24;\n\n\nimport \"../upgradability/Upgradeable.sol\";\n\nimport \"../interfaces/ITwoKeyReg.sol\";\nimport \"../interfaces/ITwoKeyAcquisitionLogicHandler.sol\";\nimport \"../interfaces/ITwoKeyCampaign.sol\";\nimport \"../interfaces/ITwoKeySingletoneRegistryFetchAddress.sol\";\nimport \"../interfaces/ITwoKeyCampaignValidator.sol\";\nimport \"../interfaces/storage-contracts/ITwoKeyBaseReputationRegistryStorage.sol\";\nimport \"../non-upgradable-singletons/ITwoKeySingletonUtils.sol\";\n\n/**\n * @author Nikola Madjarevic\n */\ncontract TwoKeyBaseReputationRegistry is Upgradeable, ITwoKeySingletonUtils {\n\n    /**\n     * Storage keys are stored on the top. Here they are in order to avoid any typos\n     */\n    string constant _address2contractorGlobalReputationScoreWei = \"address2contractorGlobalReputationScoreWei\";\n    string constant _address2converterGlobalReputationScoreWei = \"address2converterGlobalReputationScoreWei\";\n    string constant _plasmaAddress2referrerGlobalReputationScoreWei = \"plasmaAddress2referrerGlobalReputationScoreWei\";\n\n    bool initialized;\n\n    ITwoKeyBaseReputationRegistryStorage public PROXY_STORAGE_CONTRACT;\n\n    /**\n     * @notice Since using singletone pattern, this is replacement for the constructor\n     * @param _twoKeySingletoneRegistry is the address of registry of all singleton contracts\n     */\n    function setInitialParams(\n        address _twoKeySingletoneRegistry,\n        address _proxyStorage\n    )\n    public\n    {\n        require(initialized == false);\n\n        TWO_KEY_SINGLETON_REGISTRY = _twoKeySingletoneRegistry;\n        PROXY_STORAGE_CONTRACT = ITwoKeyBaseReputationRegistryStorage(_proxyStorage);\n\n        initialized = true;\n    }\n\n    /**\n     * @notice Modifier to validate that the call is coming from validated campaign\n     */\n    modifier isCodeValid() {\n        address twoKeyCampaignValidator = getAddressFromTwoKeySingletonRegistry(\"TwoKeyCampaignValidator\");\n        require(ITwoKeyCampaignValidator(twoKeyCampaignValidator).isCampaignValidated(msg.sender) == true);\n        _;\n    }\n\n    /**\n     * @notice If the conversion executed event occured, 10 points for the converter and contractor + 10/distance to referrer\n     * @param converter is the address of the converter\n     * @param contractor is the address of the contractor\n     * @param campaign is the address of the acquisition campaign so we can get referrers from there\n     */\n    function updateOnConversionExecutedEvent(\n        address converter,\n        address contractor,\n        address campaign\n    )\n    public\n    isCodeValid\n    {\n        int initialRewardWei = 10*(10**18);\n\n        bytes32 keyHashContractorScore = keccak256(_address2contractorGlobalReputationScoreWei, contractor);\n        int contractorScore = PROXY_STORAGE_CONTRACT.getInt(keyHashContractorScore);\n        PROXY_STORAGE_CONTRACT.setInt(keyHashContractorScore, contractorScore + initialRewardWei);\n\n        bytes32 keyHashConverterScore = keccak256(_address2converterGlobalReputationScoreWei, converter);\n        int converterScore = PROXY_STORAGE_CONTRACT.getInt(keyHashConverterScore);\n        PROXY_STORAGE_CONTRACT.setInt(keyHashConverterScore, converterScore + initialRewardWei);\n\n        address[] memory referrers = getReferrers(converter, campaign);\n\n        for(int i=0; i<int(referrers.length); i++) {\n            bytes32 keyHashReferrerScore = keccak256(_plasmaAddress2referrerGlobalReputationScoreWei, referrers[uint(i)]);\n            int referrerScore = PROXY_STORAGE_CONTRACT.getInt(keyHashReferrerScore);\n            PROXY_STORAGE_CONTRACT.setInt(keyHashReferrerScore, referrerScore + initialRewardWei/(i+1));\n        }\n    }\n\n    /**\n     * @notice If the conversion rejected event occured, giving penalty points\n     * @param converter is the address of the converter\n     * @param contractor is the address of the contractor\n     * @param campaign is the address of the acquisition campaign so we can get referrers from there\n     */\n    function updateOnConversionRejectedEvent(\n        address converter,\n        address contractor,\n        address campaign\n    )\n    public\n    isCodeValid\n    {\n        int initialRewardWei = 5*(10**18);\n\n\n        bytes32 keyHashContractorScore = keccak256(_address2contractorGlobalReputationScoreWei, contractor);\n        int contractorScore = PROXY_STORAGE_CONTRACT.getInt(keyHashContractorScore);\n        PROXY_STORAGE_CONTRACT.setInt(keyHashContractorScore, contractorScore - initialRewardWei);\n\n        bytes32 keyHashConverterScore = keccak256(_address2converterGlobalReputationScoreWei, converter);\n        int converterScore = PROXY_STORAGE_CONTRACT.getInt(keyHashConverterScore);\n        PROXY_STORAGE_CONTRACT.setInt(keyHashConverterScore, converterScore - initialRewardWei);\n\n        address[] memory referrers = getReferrers(converter, campaign);\n\n        for(int i=0; i<int(referrers.length); i++) {\n            bytes32 keyHashReferrerScore = keccak256(_plasmaAddress2referrerGlobalReputationScoreWei, referrers[uint(i)]);\n            int referrerScore = PROXY_STORAGE_CONTRACT.getInt(keyHashReferrerScore);\n            PROXY_STORAGE_CONTRACT.setInt(keyHashReferrerScore, referrerScore - initialRewardWei/(i+1));\n        }\n    }\n\n    /**\n     * @notice Internal getter from Acquisition campaign to fetch logic handler address\n     */\n    function getLogicHandlerAddress(\n        address campaign\n    )\n    internal\n    view\n    returns (address)\n    {\n        return ITwoKeyCampaign(campaign).logicHandler();\n    }\n\n    /**\n     * @notice Internal getter from Acquisition campaign to fetch conersion handler address\n     */\n    function getConversionHandlerAddress(\n        address campaign\n    )\n    internal\n    view\n    returns (address)\n    {\n        return ITwoKeyCampaign(campaign).conversionHandler();\n    }\n\n\n    /**\n     * @notice Function to get all referrers in the chain for specific converter\n     * @param converter is the converter we want to get referral chain\n     * @param campaign is the acquisition campaign contract\n     * @return array of addresses (referrers)\n     */\n    function getReferrers(\n        address converter,\n        address campaign\n    )\n    internal\n    view\n    returns (address[])\n    {\n        address logicHandlerAddress = getLogicHandlerAddress(campaign);\n        return ITwoKeyAcquisitionLogicHandler(logicHandlerAddress).getReferrers(converter);\n    }\n\n    /**\n     * @notice Function to fetch reputation points per address\n     * @param _address is the address of the user we want to check points for\n     * @return encoded values in type bytes, unpackable by slices of 66,2,64,2,64,2 parsed to int / bool\n     */\n    function getRewardsByAddress(\n        address _address\n    )\n    public\n    view\n    returns (int,int,int)\n    {\n        address twoKeyRegistry = ITwoKeySingletoneRegistryFetchAddress(TWO_KEY_SINGLETON_REGISTRY).getContractProxyAddress(\"TwoKeyRegistry\");\n        address plasma = ITwoKeyReg(twoKeyRegistry).getEthereumToPlasma(_address);\n\n        bytes32 keyHashContractorScore = keccak256(_address2contractorGlobalReputationScoreWei, _address);\n        int contractorScore = PROXY_STORAGE_CONTRACT.getInt(keyHashContractorScore);\n\n        bytes32 keyHashConverterScore = keccak256(_address2converterGlobalReputationScoreWei, _address);\n        int converterScore = PROXY_STORAGE_CONTRACT.getInt(keyHashConverterScore);\n\n        bytes32 keyHashReferrerScore = keccak256(_plasmaAddress2referrerGlobalReputationScoreWei, plasma);\n        int referrerScore = PROXY_STORAGE_CONTRACT.getInt(keyHashReferrerScore);\n\n\n        return (\n            contractorScore,\n            converterScore,\n            referrerScore\n        );\n\n    }\n\n}\n",
  "sourcePath": "/Users/nikolamadjarevic/Desktop/2key/contracts/contracts/2key/singleton-contracts/TwoKeyBaseReputationRegistry.sol",
  "compiler": {
    "name": "solc",
    "version": "0.4.24+commit.e67f0147.Emscripten.clang"
  },
  "schemaVersion": "2.0.1",
  "updatedAt": "2019-11-07T08:15:06.257Z"
}