{
  "contractName": "TwoKeyFactory",
  "abi": [
    {
      "constant": true,
      "inputs": [],
      "name": "implementation",
      "outputs": [
        {
          "name": "",
          "type": "address"
        }
      ],
      "payable": false,
      "stateMutability": "view",
      "type": "function"
    },
    {
      "constant": true,
      "inputs": [],
      "name": "TWO_KEY_SINGLETON_REGISTRY",
      "outputs": [
        {
          "name": "",
          "type": "address"
        }
      ],
      "payable": false,
      "stateMutability": "view",
      "type": "function"
    },
    {
      "constant": true,
      "inputs": [
        {
          "name": "_address",
          "type": "address"
        }
      ],
      "name": "getterChecker",
      "outputs": [
        {
          "name": "",
          "type": "bool"
        }
      ],
      "payable": false,
      "stateMutability": "view",
      "type": "function"
    },
    {
      "constant": false,
      "inputs": [
        {
          "name": "sender",
          "type": "address"
        }
      ],
      "name": "initialize",
      "outputs": [],
      "payable": true,
      "stateMutability": "payable",
      "type": "function"
    },
    {
      "anonymous": false,
      "inputs": [
        {
          "indexed": false,
          "name": "proxyLogicHandler",
          "type": "address"
        },
        {
          "indexed": false,
          "name": "proxyConversionHandler",
          "type": "address"
        },
        {
          "indexed": false,
          "name": "proxyAcquisitionCampaign",
          "type": "address"
        },
        {
          "indexed": false,
          "name": "proxyPurchasesHandler",
          "type": "address"
        },
        {
          "indexed": false,
          "name": "contractor",
          "type": "address"
        }
      ],
      "name": "ProxyForCampaign",
      "type": "event"
    },
    {
      "anonymous": false,
      "inputs": [
        {
          "indexed": false,
          "name": "proxyDonationCampaign",
          "type": "address"
        },
        {
          "indexed": false,
          "name": "proxyDonationConversionHandler",
          "type": "address"
        },
        {
          "indexed": false,
          "name": "proxyDonationLogicHandler",
          "type": "address"
        },
        {
          "indexed": false,
          "name": "contractor",
          "type": "address"
        }
      ],
      "name": "ProxyForDonationCampaign",
      "type": "event"
    },
    {
      "constant": false,
      "inputs": [
        {
          "name": "_twoKeySingletonRegistry",
          "type": "address"
        },
        {
          "name": "_proxyStorage",
          "type": "address"
        }
      ],
      "name": "setInitialParams",
      "outputs": [],
      "payable": false,
      "stateMutability": "nonpayable",
      "type": "function"
    },
    {
      "constant": false,
      "inputs": [
        {
          "name": "addresses",
          "type": "address[]"
        },
        {
          "name": "valuesConversion",
          "type": "uint256[]"
        },
        {
          "name": "valuesLogicHandler",
          "type": "uint256[]"
        },
        {
          "name": "values",
          "type": "uint256[]"
        },
        {
          "name": "_currency",
          "type": "string"
        },
        {
          "name": "_nonSingletonHash",
          "type": "string"
        }
      ],
      "name": "createProxiesForAcquisitions",
      "outputs": [],
      "payable": true,
      "stateMutability": "payable",
      "type": "function"
    },
    {
      "constant": false,
      "inputs": [
        {
          "name": "_moderator",
          "type": "address"
        },
        {
          "name": "numberValues",
          "type": "uint256[]"
        },
        {
          "name": "booleanValues",
          "type": "bool[]"
        },
        {
          "name": "_currency",
          "type": "string"
        },
        {
          "name": "tokenName",
          "type": "string"
        },
        {
          "name": "tokenSymbol",
          "type": "string"
        },
        {
          "name": "nonSingletonHash",
          "type": "string"
        }
      ],
      "name": "createProxiesForDonationCampaign",
      "outputs": [],
      "payable": false,
      "stateMutability": "nonpayable",
      "type": "function"
    },
    {
      "constant": true,
      "inputs": [
        {
          "name": "_key",
          "type": "address"
        }
      ],
      "name": "addressToCampaignType",
      "outputs": [
        {
          "name": "",
          "type": "string"
        }
      ],
      "payable": false,
      "stateMutability": "view",
      "type": "function"
    }
  ],
  "bytecode": "0x608060405234801561001057600080fd5b50613685806100206000396000f30060806040526004361062000097576000357c0100000000000000000000000000000000000000000000000000000000900463ffffffff16806305dbe412146200009c5780630b4e124714620001025780633af9795314620001c4578063598573ad14620003a85780635c60da1b14620005585780638830afa014620005b2578063a9bd8945146200060c578063c4d66de8146200066a575b600080fd5b348015620000a957600080fd5b5062000100600480360381019080803573ffffffffffffffffffffffffffffffffffffffff169060200190929190803573ffffffffffffffffffffffffffffffffffffffff169060200190929190505050620006a2565b005b3480156200010f57600080fd5b5062000146600480360381019080803573ffffffffffffffffffffffffffffffffffffffff16906020019092919050505062000766565b6040518080602001828103825283818151815260200191508051906020019080838360005b83811015620001885780820151818401526020810190506200016b565b50505050905090810190601f168015620001b65780820380516001836020036101000a031916815260200191505b509250505060405180910390f35b348015620001d157600080fd5b50620003a6600480360381019080803573ffffffffffffffffffffffffffffffffffffffff1690602001909291908035906020019082018035906020019080806020026020016040519081016040528093929190818152602001838360200280828437820191505050505050919291929080359060200190820180359060200190808060200260200160405190810160405280939291908181526020018383602002808284378201915050505050509192919290803590602001908201803590602001908080601f0160208091040260200160405190810160405280939291908181526020018383808284378201915050505050509192919290803590602001908201803590602001908080601f0160208091040260200160405190810160405280939291908181526020018383808284378201915050505050509192919290803590602001908201803590602001908080601f0160208091040260200160405190810160405280939291908181526020018383808284378201915050505050509192919290803590602001908201803590602001908080601f01602080910402602001604051908101604052809392919081815260200183838082843782019150505050505091929192905050506200097b565b005b6200055660048036038101908080359060200190820180359060200190808060200260200160405190810160405280939291908181526020018383602002808284378201915050505050509192919290803590602001908201803590602001908080602002602001604051908101604052809392919081815260200183836020028082843782019150505050505091929192908035906020019082018035906020019080806020026020016040519081016040528093929190818152602001838360200280828437820191505050505050919291929080359060200190820180359060200190808060200260200160405190810160405280939291908181526020018383602002808284378201915050505050509192919290803590602001908201803590602001908080601f0160208091040260200160405190810160405280939291908181526020018383808284378201915050505050509192919290803590602001908201803590602001908080601f0160208091040260200160405190810160405280939291908181526020018383808284378201915050505050509192919290505050620018a2565b005b3480156200056557600080fd5b506200057062002af2565b604051808273ffffffffffffffffffffffffffffffffffffffff1673ffffffffffffffffffffffffffffffffffffffff16815260200191505060405180910390f35b348015620005bf57600080fd5b50620005ca62002b1c565b604051808273ffffffffffffffffffffffffffffffffffffffff1673ffffffffffffffffffffffffffffffffffffffff16815260200191505060405180910390f35b3480156200061957600080fd5b5062000650600480360381019080803573ffffffffffffffffffffffffffffffffffffffff16906020019092919050505062002b42565b604051808215151515815260200191505060405180910390f35b620006a0600480360381019080803573ffffffffffffffffffffffffffffffffffffffff16906020019092919050505062002c68565b005b60001515600260149054906101000a900460ff161515141515620006c557600080fd5b81600260006101000a81548173ffffffffffffffffffffffffffffffffffffffff021916908373ffffffffffffffffffffffffffffffffffffffff16021790555080600360006101000a81548173ffffffffffffffffffffffffffffffffffffffff021916908373ffffffffffffffffffffffffffffffffffffffff1602179055506001600260146101000a81548160ff0219169083151502179055505050565b6060600360009054906101000a900473ffffffffffffffffffffffffffffffffffffffff1673ffffffffffffffffffffffffffffffffffffffff1663986e791a6040805190810160405280601581526020017f61646472657373546f43616d706169676e547970650000000000000000000000815250846040518083805190602001908083835b602083101515620008145780518252602082019150602081019050602083039250620007ed565b6001836020036101000a0380198251168184511680821785525050505050509050018273ffffffffffffffffffffffffffffffffffffffff1673ffffffffffffffffffffffffffffffffffffffff166c010000000000000000000000000281526014019250505060405180910390206040518263ffffffff167c0100000000000000000000000000000000000000000000000000000000028152600401808260001916600019168152602001915050600060405180830381600087803b158015620008de57600080fd5b505af1158015620008f3573d6000803e3d6000fd5b505050506040513d6000823e3d601f19601f8201168201806040525060208110156200091e57600080fd5b8101908080516401000000008111156200093757600080fd5b828101905060208101848111156200094e57600080fd5b81518560018202830111640100000000821117156200096c57600080fd5b50509291905050509050919050565b6000806000620009c06040805190810160405280601681526020017f54776f4b6579446f6e6174696f6e43616d706169676e0000000000000000000081525062002cc7565b600260009054906101000a900473ffffffffffffffffffffffffffffffffffffffff16620009ed620032d5565b8080602001806020018473ffffffffffffffffffffffffffffffffffffffff1673ffffffffffffffffffffffffffffffffffffffff168152602001838103835260168152602001807f54776f4b6579446f6e6174696f6e43616d706169676e00000000000000000000815250602001838103825285818151815260200191508051906020019080838360005b8381101562000a9657808201518184015260208101905062000a79565b50505050905090810190601f16801562000ac45780820380516001836020036101000a031916815260200191505b50945050505050604051809103906000f08015801562000ae8573d6000803e3d6000fd5b50925062000b2b6040805190810160405280601f81526020017f54776f4b6579446f6e6174696f6e436f6e76657273696f6e48616e646c65720081525062002cc7565b600260009054906101000a900473ffffffffffffffffffffffffffffffffffffffff1662000b58620032d5565b8080602001806020018473ffffffffffffffffffffffffffffffffffffffff1673ffffffffffffffffffffffffffffffffffffffff1681526020018381038352601f8152602001807f54776f4b6579446f6e6174696f6e436f6e76657273696f6e48616e646c657200815250602001838103825285818151815260200191508051906020019080838360005b8381101562000c0157808201518184015260208101905062000be4565b50505050905090810190601f16801562000c2f5780820380516001836020036101000a031916815260200191505b50945050505050604051809103906000f08015801562000c53573d6000803e3d6000fd5b50915062000c966040805190810160405280601a81526020017f54776f4b6579446f6e6174696f6e4c6f67696348616e646c657200000000000081525062002cc7565b600260009054906101000a900473ffffffffffffffffffffffffffffffffffffffff1662000cc3620032d5565b8080602001806020018473ffffffffffffffffffffffffffffffffffffffff1673ffffffffffffffffffffffffffffffffffffffff1681526020018381038352601a8152602001807f54776f4b6579446f6e6174696f6e4c6f67696348616e646c6572000000000000815250602001838103825285818151815260200191508051906020019080838360005b8381101562000d6c57808201518184015260208101905062000d4f565b50505050905090810190601f16801562000d9a5780820380516001836020036101000a031916815260200191505b50945050505050604051809103906000f08015801562000dbe573d6000803e3d6000fd5b5090508073ffffffffffffffffffffffffffffffffffffffff1663f6a94b778a89338e600260009054906101000a900473ffffffffffffffffffffffffffffffffffffffff1689896040518863ffffffff167c01000000000000000000000000000000000000000000000000000000000281526004018080602001806020018873ffffffffffffffffffffffffffffffffffffffff1673ffffffffffffffffffffffffffffffffffffffff1681526020018773ffffffffffffffffffffffffffffffffffffffff1673ffffffffffffffffffffffffffffffffffffffff1681526020018673ffffffffffffffffffffffffffffffffffffffff1673ffffffffffffffffffffffffffffffffffffffff1681526020018573ffffffffffffffffffffffffffffffffffffffff1673ffffffffffffffffffffffffffffffffffffffff1681526020018473ffffffffffffffffffffffffffffffffffffffff1673ffffffffffffffffffffffffffffffffffffffff16815260200183810383528a818151815260200191508051906020019060200280838360005b8381101562000f7457808201518184015260208101905062000f57565b50505050905001838103825289818151815260200191508051906020019080838360005b8381101562000fb557808201518184015260208101905062000f98565b50505050905090810190601f16801562000fe35780820380516001836020036101000a031916815260200191505b509950505050505050505050600060405180830381600087803b1580156200100a57600080fd5b505af11580156200101f573d6000803e3d6000fd5b505050508173ffffffffffffffffffffffffffffffffffffffff16631694c83f87878a3388600260009054906101000a900473ffffffffffffffffffffffffffffffffffffffff166040518763ffffffff167c0100000000000000000000000000000000000000000000000000000000028152600401808060200180602001806020018773ffffffffffffffffffffffffffffffffffffffff1673ffffffffffffffffffffffffffffffffffffffff1681526020018673ffffffffffffffffffffffffffffffffffffffff1673ffffffffffffffffffffffffffffffffffffffff1681526020018573ffffffffffffffffffffffffffffffffffffffff1673ffffffffffffffffffffffffffffffffffffffff16815260200184810384528a818151815260200191508051906020019080838360005b838110156200117257808201518184015260208101905062001155565b50505050905090810190601f168015620011a05780820380516001836020036101000a031916815260200191505b50848103835289818151815260200191508051906020019080838360005b83811015620011db578082015181840152602081019050620011be565b50505050905090810190601f168015620012095780820380516001836020036101000a031916815260200191505b50848103825288818151815260200191508051906020019080838360005b838110156200124457808201518184015260208101905062001227565b50505050905090810190601f168015620012725780820380516001836020036101000a031916815260200191505b509950505050505050505050600060405180830381600087803b1580156200129957600080fd5b505af1158015620012ae573d6000803e3d6000fd5b505050508273ffffffffffffffffffffffffffffffffffffffff16631be46b8d338c600260009054906101000a900473ffffffffffffffffffffffffffffffffffffffff1686868f8f6040518863ffffffff167c0100000000000000000000000000000000000000000000000000000000028152600401808873ffffffffffffffffffffffffffffffffffffffff1673ffffffffffffffffffffffffffffffffffffffff1681526020018773ffffffffffffffffffffffffffffffffffffffff1673ffffffffffffffffffffffffffffffffffffffff1681526020018673ffffffffffffffffffffffffffffffffffffffff1673ffffffffffffffffffffffffffffffffffffffff1681526020018573ffffffffffffffffffffffffffffffffffffffff1673ffffffffffffffffffffffffffffffffffffffff1681526020018473ffffffffffffffffffffffffffffffffffffffff1673ffffffffffffffffffffffffffffffffffffffff1681526020018060200180602001838103835285818151815260200191508051906020019060200280838360005b838110156200146557808201518184015260208101905062001448565b50505050905001838103825284818151815260200191508051906020019060200280838360005b83811015620014a95780820151818401526020810190506200148c565b505050509050019950505050505050505050600060405180830381600087803b158015620014d657600080fd5b505af1158015620014eb573d6000803e3d6000fd5b505050506200152f6040805190810160405280601781526020017f54776f4b657943616d706169676e56616c696461746f7200000000000000000081525062002e60565b73ffffffffffffffffffffffffffffffffffffffff1663e048757b848484886040518563ffffffff167c0100000000000000000000000000000000000000000000000000000000028152600401808573ffffffffffffffffffffffffffffffffffffffff1673ffffffffffffffffffffffffffffffffffffffff1681526020018473ffffffffffffffffffffffffffffffffffffffff1673ffffffffffffffffffffffffffffffffffffffff1681526020018373ffffffffffffffffffffffffffffffffffffffff1673ffffffffffffffffffffffffffffffffffffffff16815260200180602001828103825283818151815260200191508051906020019080838360005b838110156200165157808201518184015260208101905062001634565b50505050905090810190601f1680156200167f5780820380516001836020036101000a031916815260200191505b5095505050505050600060405180830381600087803b158015620016a257600080fd5b505af1158015620016b7573d6000803e3d6000fd5b50505050620016fc836040805190810160405280601181526020017f444f4e4154494f4e5f43414d504149474e00000000000000000000000000000081525062002fa0565b6200173c6040805190810160405280601181526020017f54776f4b65794576656e74536f7572636500000000000000000000000000000081525062002e60565b73ffffffffffffffffffffffffffffffffffffffff166328bb47308484846200176533620031a9565b6040518563ffffffff167c0100000000000000000000000000000000000000000000000000000000028152600401808573ffffffffffffffffffffffffffffffffffffffff1673ffffffffffffffffffffffffffffffffffffffff1681526020018473ffffffffffffffffffffffffffffffffffffffff1673ffffffffffffffffffffffffffffffffffffffff1681526020018373ffffffffffffffffffffffffffffffffffffffff1673ffffffffffffffffffffffffffffffffffffffff1681526020018273ffffffffffffffffffffffffffffffffffffffff1673ffffffffffffffffffffffffffffffffffffffff168152602001945050505050600060405180830381600087803b1580156200187d57600080fd5b505af115801562001892573d6000803e3d6000fd5b5050505050505050505050505050565b600080600080620018e86040805190810160405280601e81526020017f54776f4b65794163717569736974696f6e43616d706169676e4552433230000081525062002cc7565b600260009054906101000a900473ffffffffffffffffffffffffffffffffffffffff1662001915620032d5565b8080602001806020018473ffffffffffffffffffffffffffffffffffffffff1673ffffffffffffffffffffffffffffffffffffffff1681526020018381038352601e8152602001807f54776f4b65794163717569736974696f6e43616d706169676e45524332300000815250602001838103825285818151815260200191508051906020019080838360005b83811015620019be578082015181840152602081019050620019a1565b50505050905090810190601f168015620019ec5780820380516001836020036101000a031916815260200191505b50945050505050604051809103906000f08015801562001a10573d6000803e3d6000fd5b50935062001a536040805190810160405280601781526020017f54776f4b6579436f6e76657273696f6e48616e646c657200000000000000000081525062002cc7565b600260009054906101000a900473ffffffffffffffffffffffffffffffffffffffff1662001a80620032d5565b8080602001806020018473ffffffffffffffffffffffffffffffffffffffff1673ffffffffffffffffffffffffffffffffffffffff168152602001838103835260178152602001807f54776f4b6579436f6e76657273696f6e48616e646c6572000000000000000000815250602001838103825285818151815260200191508051906020019080838360005b8381101562001b2957808201518184015260208101905062001b0c565b50505050905090810190601f16801562001b575780820380516001836020036101000a031916815260200191505b50945050505050604051809103906000f08015801562001b7b573d6000803e3d6000fd5b50925062001bbe6040805190810160405280601d81526020017f54776f4b65794163717569736974696f6e4c6f67696348616e646c657200000081525062002cc7565b600260009054906101000a900473ffffffffffffffffffffffffffffffffffffffff1662001beb620032d5565b8080602001806020018473ffffffffffffffffffffffffffffffffffffffff1673ffffffffffffffffffffffffffffffffffffffff1681526020018381038352601d8152602001807f54776f4b65794163717569736974696f6e4c6f67696348616e646c6572000000815250602001838103825285818151815260200191508051906020019080838360005b8381101562001c9457808201518184015260208101905062001c77565b50505050905090810190601f16801562001cc25780820380516001836020036101000a031916815260200191505b50945050505050604051809103906000f08015801562001ce6573d6000803e3d6000fd5b50915062001d296040805190810160405280601d81526020017f54776f4b65794163717569736974696f6e4c6f67696348616e646c657200000081525062002cc7565b600260009054906101000a900473ffffffffffffffffffffffffffffffffffffffff1662001d56620032d5565b8080602001806020018473ffffffffffffffffffffffffffffffffffffffff1673ffffffffffffffffffffffffffffffffffffffff168152602001838103835260168152602001807f54776f4b657950757263686173657348616e646c657200000000000000000000815250602001838103825285818151815260200191508051906020019080838360005b8381101562001dff57808201518184015260208101905062001de2565b50505050905090810190601f16801562001e2d5780820380516001836020036101000a031916815260200191505b50945050505050604051809103906000f08015801562001e51573d6000803e3d6000fd5b5090508073ffffffffffffffffffffffffffffffffffffffff166364e516a98a338d600081518110151562001e8257fe5b9060200190602002015162001ecc6040805190810160405280601181526020017f54776f4b65794576656e74536f7572636500000000000000000000000000000081525062002e60565b886040518663ffffffff167c010000000000000000000000000000000000000000000000000000000002815260040180806020018673ffffffffffffffffffffffffffffffffffffffff1673ffffffffffffffffffffffffffffffffffffffff1681526020018573ffffffffffffffffffffffffffffffffffffffff1673ffffffffffffffffffffffffffffffffffffffff1681526020018473ffffffffffffffffffffffffffffffffffffffff1673ffffffffffffffffffffffffffffffffffffffff1681526020018373ffffffffffffffffffffffffffffffffffffffff1673ffffffffffffffffffffffffffffffffffffffff168152602001828103825287818151815260200191508051906020019060200280838360005b838110156200200557808201518184015260208101905062001fe8565b505050509050019650505050505050600060405180830381600087803b1580156200202f57600080fd5b505af115801562002044573d6000803e3d6000fd5b505050508273ffffffffffffffffffffffffffffffffffffffff16632a6038b78a8684338f60008151811015156200207857fe5b90602001906020020151600260009054906101000a900473ffffffffffffffffffffffffffffffffffffffff166040518763ffffffff167c010000000000000000000000000000000000000000000000000000000002815260040180806020018773ffffffffffffffffffffffffffffffffffffffff1673ffffffffffffffffffffffffffffffffffffffff1681526020018673ffffffffffffffffffffffffffffffffffffffff1673ffffffffffffffffffffffffffffffffffffffff1681526020018573ffffffffffffffffffffffffffffffffffffffff1673ffffffffffffffffffffffffffffffffffffffff1681526020018473ffffffffffffffffffffffffffffffffffffffff1673ffffffffffffffffffffffffffffffffffffffff1681526020018373ffffffffffffffffffffffffffffffffffffffff1673ffffffffffffffffffffffffffffffffffffffff168152602001828103825288818151815260200191508051906020019060200280838360005b838110156200220f578082015181840152602081019050620021f2565b50505050905001975050505050505050600060405180830381600087803b1580156200223a57600080fd5b505af11580156200224f573d6000803e3d6000fd5b505050508173ffffffffffffffffffffffffffffffffffffffff16638c221eb289888d60008151811015156200228157fe5b906020019060200201518e60018151811015156200229b57fe5b90602001906020020151338a600260009054906101000a900473ffffffffffffffffffffffffffffffffffffffff168b6040518963ffffffff167c01000000000000000000000000000000000000000000000000000000000281526004018080602001806020018973ffffffffffffffffffffffffffffffffffffffff1673ffffffffffffffffffffffffffffffffffffffff1681526020018873ffffffffffffffffffffffffffffffffffffffff1673ffffffffffffffffffffffffffffffffffffffff1681526020018773ffffffffffffffffffffffffffffffffffffffff1673ffffffffffffffffffffffffffffffffffffffff1681526020018673ffffffffffffffffffffffffffffffffffffffff1673ffffffffffffffffffffffffffffffffffffffff1681526020018573ffffffffffffffffffffffffffffffffffffffff1673ffffffffffffffffffffffffffffffffffffffff1681526020018473ffffffffffffffffffffffffffffffffffffffff1673ffffffffffffffffffffffffffffffffffffffff16815260200183810383528b818151815260200191508051906020019060200280838360005b838110156200246b5780820151818401526020810190506200244e565b5050505090500183810382528a818151815260200191508051906020019080838360005b83811015620024ac5780820151818401526020810190506200248f565b50505050905090810190601f168015620024da5780820380516001836020036101000a031916815260200191505b509a5050505050505050505050600060405180830381600087803b1580156200250257600080fd5b505af115801562002517573d6000803e3d6000fd5b505050508373ffffffffffffffffffffffffffffffffffffffff1663c680a85d600260009054906101000a900473ffffffffffffffffffffffffffffffffffffffff1684868e60018151811015156200256c57fe5b906020019060200201518f60008151811015156200258657fe5b90602001906020020151338e6040518863ffffffff167c0100000000000000000000000000000000000000000000000000000000028152600401808873ffffffffffffffffffffffffffffffffffffffff1673ffffffffffffffffffffffffffffffffffffffff1681526020018773ffffffffffffffffffffffffffffffffffffffff1673ffffffffffffffffffffffffffffffffffffffff1681526020018673ffffffffffffffffffffffffffffffffffffffff1673ffffffffffffffffffffffffffffffffffffffff1681526020018573ffffffffffffffffffffffffffffffffffffffff1673ffffffffffffffffffffffffffffffffffffffff1681526020018473ffffffffffffffffffffffffffffffffffffffff1673ffffffffffffffffffffffffffffffffffffffff1681526020018373ffffffffffffffffffffffffffffffffffffffff1673ffffffffffffffffffffffffffffffffffffffff16815260200180602001828103825283818151815260200191508051906020019060200280838360005b838110156200272e57808201518184015260208101905062002711565b5050505090500198505050505050505050600060405180830381600087803b1580156200275a57600080fd5b505af11580156200276f573d6000803e3d6000fd5b50505050620027b36040805190810160405280601781526020017f54776f4b657943616d706169676e56616c696461746f7200000000000000000081525062002e60565b73ffffffffffffffffffffffffffffffffffffffff1663f147f86685876040518363ffffffff167c0100000000000000000000000000000000000000000000000000000000028152600401808373ffffffffffffffffffffffffffffffffffffffff1673ffffffffffffffffffffffffffffffffffffffff16815260200180602001828103825283818151815260200191508051906020019080838360005b838110156200286f57808201518184015260208101905062002852565b50505050905090810190601f1680156200289d5780820380516001836020036101000a031916815260200191505b509350505050600060405180830381600087803b158015620028be57600080fd5b505af1158015620028d3573d6000803e3d6000fd5b5050505062002918846040805190810160405280600a81526020017f544f4b454e5f53454c4c0000000000000000000000000000000000000000000081525062002fa0565b620029586040805190810160405280601181526020017f54776f4b65794576656e74536f7572636500000000000000000000000000000081525062002e60565b73ffffffffffffffffffffffffffffffffffffffff16633092eb2f838587856200298233620031a9565b6040518663ffffffff167c0100000000000000000000000000000000000000000000000000000000028152600401808673ffffffffffffffffffffffffffffffffffffffff1673ffffffffffffffffffffffffffffffffffffffff1681526020018573ffffffffffffffffffffffffffffffffffffffff1673ffffffffffffffffffffffffffffffffffffffff1681526020018473ffffffffffffffffffffffffffffffffffffffff1673ffffffffffffffffffffffffffffffffffffffff1681526020018373ffffffffffffffffffffffffffffffffffffffff1673ffffffffffffffffffffffffffffffffffffffff1681526020018273ffffffffffffffffffffffffffffffffffffffff1673ffffffffffffffffffffffffffffffffffffffff16815260200195505050505050600060405180830381600087803b15801562002acd57600080fd5b505af115801562002ae2573d6000803e3d6000fd5b5050505050505050505050505050565b6000600160009054906101000a900473ffffffffffffffffffffffffffffffffffffffff16905090565b600260009054906101000a900473ffffffffffffffffffffffffffffffffffffffff1681565b60008062002b856040805190810160405280601981526020017f54776f4b65794d61696e7461696e65727352656769737472790000000000000081525062002e60565b90508073ffffffffffffffffffffffffffffffffffffffff16635cc7815c846040518263ffffffff167c0100000000000000000000000000000000000000000000000000000000028152600401808273ffffffffffffffffffffffffffffffffffffffff1673ffffffffffffffffffffffffffffffffffffffff168152602001915050602060405180830381600087803b15801562002c2357600080fd5b505af115801562002c38573d6000803e3d6000fd5b505050506040513d602081101562002c4f57600080fd5b8101908080519060200190929190505050915050919050565b6000809054906101000a900473ffffffffffffffffffffffffffffffffffffffff1673ffffffffffffffffffffffffffffffffffffffff163373ffffffffffffffffffffffffffffffffffffffff1614151562002cc457600080fd5b50565b6060600260009054906101000a900473ffffffffffffffffffffffffffffffffffffffff1673ffffffffffffffffffffffffffffffffffffffff1663a34d1806836040518263ffffffff167c01000000000000000000000000000000000000000000000000000000000281526004018080602001828103825283818151815260200191508051906020019080838360005b8381101562002d7557808201518184015260208101905062002d58565b50505050905090810190601f16801562002da35780820380516001836020036101000a031916815260200191505b5092505050600060405180830381600087803b15801562002dc357600080fd5b505af115801562002dd8573d6000803e3d6000fd5b505050506040513d6000823e3d601f19601f82011682018060405250602081101562002e0357600080fd5b81019080805164010000000081111562002e1c57600080fd5b8281019050602081018481111562002e3357600080fd5b815185600182028301116401000000008211171562002e5157600080fd5b50509291905050509050919050565b6000600260009054906101000a900473ffffffffffffffffffffffffffffffffffffffff1673ffffffffffffffffffffffffffffffffffffffff1663db7a6d90836040518263ffffffff167c01000000000000000000000000000000000000000000000000000000000281526004018080602001828103825283818151815260200191508051906020019080838360005b8381101562002f0e57808201518184015260208101905062002ef1565b50505050905090810190601f16801562002f3c5780820380516001836020036101000a031916815260200191505b5092505050602060405180830381600087803b15801562002f5c57600080fd5b505af115801562002f71573d6000803e3d6000fd5b505050506040513d602081101562002f8857600080fd5b81019080805190602001909291905050509050919050565b60006040805190810160405280601581526020017f61646472657373546f43616d706169676e547970650000000000000000000000815250836040518083805190602001908083835b60208310151562003010578051825260208201915060208101905060208303925062002fe9565b6001836020036101000a0380198251168184511680821785525050505050509050018273ffffffffffffffffffffffffffffffffffffffff1673ffffffffffffffffffffffffffffffffffffffff166c010000000000000000000000000281526014019250505060405180910390209050600360009054906101000a900473ffffffffffffffffffffffffffffffffffffffff1673ffffffffffffffffffffffffffffffffffffffff16636e89955082846040518363ffffffff167c010000000000000000000000000000000000000000000000000000000002815260040180836000191660001916815260200180602001828103825283818151815260200191508051906020019080838360005b838110156200313c5780820151818401526020810190506200311f565b50505050905090810190601f1680156200316a5780820380516001836020036101000a031916815260200191505b509350505050600060405180830381600087803b1580156200318b57600080fd5b505af1158015620031a0573d6000803e3d6000fd5b50505050505050565b6000806000620031ee6040805190810160405280601181526020017f54776f4b65794576656e74536f7572636500000000000000000000000000000081525062002e60565b91508173ffffffffffffffffffffffffffffffffffffffff16631a025f25856040518263ffffffff167c0100000000000000000000000000000000000000000000000000000000028152600401808273ffffffffffffffffffffffffffffffffffffffff1673ffffffffffffffffffffffffffffffffffffffff168152602001915050602060405180830381600087803b1580156200328c57600080fd5b505af1158015620032a1573d6000803e3d6000fd5b505050506040513d6020811015620032b857600080fd5b810190808051906020019092919050505090508092505050919050565b60405161037380620032e7833901905600608060405234801561001057600080fd5b506040516103733803806103738339810180604052810190808051820192919060200180518201929190602001805190602001909291905050508073ffffffffffffffffffffffffffffffffffffffff16633854355284846040518363ffffffff167c0100000000000000000000000000000000000000000000000000000000028152600401808060200180602001838103835285818151815260200191508051906020019080838360005b838110156100d75780820151818401526020810190506100bc565b50505050905090810190601f1680156101045780820380516001836020036101000a031916815260200191505b50838103825284818151815260200191508051906020019080838360005b8381101561013d578082015181840152602081019050610122565b50505050905090810190601f16801561016a5780820380516001836020036101000a031916815260200191505b50945050505050602060405180830381600087803b15801561018b57600080fd5b505af115801561019f573d6000803e3d6000fd5b505050506040513d60208110156101b557600080fd5b81019080805190602001909291905050506000806101000a81548173ffffffffffffffffffffffffffffffffffffffff021916908373ffffffffffffffffffffffffffffffffffffffff16021790555050505061015c806102176000396000f300608060405260043610610041576000357c0100000000000000000000000000000000000000000000000000000000900463ffffffff1680635c60da1b146100b0575b600061004b610107565b9050600073ffffffffffffffffffffffffffffffffffffffff168173ffffffffffffffffffffffffffffffffffffffff161415151561008957600080fd5b60405136600082376000803683855af43d806000843e81600081146100ac578184f35b8184fd5b3480156100bc57600080fd5b506100c5610107565b604051808273ffffffffffffffffffffffffffffffffffffffff1673ffffffffffffffffffffffffffffffffffffffff16815260200191505060405180910390f35b60008060009054906101000a900473ffffffffffffffffffffffffffffffffffffffff169050905600a165627a7a723058203c37cd73dc9533e905d5be25ed9233a03d69875b130eedfe5177af86687ac41e0029a165627a7a7230582036b1a456f406e198417fdb9429b57b75ff29d041df35a8dc35876566153dc8e90029",
  "source": "pragma solidity ^0.4.24;\n\n\nimport \"../interfaces/ITwoKeySingletoneRegistryFetchAddress.sol\";\nimport \"../interfaces/IHandleCampaignDeployment.sol\";\nimport \"../interfaces/ITwoKeyCampaignValidator.sol\";\nimport \"../interfaces/ITwoKeyEventSourceEvents.sol\";\nimport \"../upgradable-pattern-campaigns/ProxyCampaign.sol\";\nimport \"../upgradable-pattern-campaigns/UpgradeableCampaign.sol\";\nimport \"../upgradability/Upgradeable.sol\";\nimport \"../interfaces/storage-contracts/ITwoKeyFactoryStorage.sol\";\nimport \"../non-upgradable-singletons/ITwoKeySingletonUtils.sol\";\n\n\n/**\n * @author Nikola Madjarevic\n */\ncontract TwoKeyFactory is Upgradeable, ITwoKeySingletonUtils {\n\n    string constant _addressToCampaignType = \"addressToCampaignType\";\n    bool initialized;\n\n    ITwoKeyFactoryStorage PROXY_STORAGE_CONTRACT;\n\n    event ProxyForCampaign(\n        address proxyLogicHandler,\n        address proxyConversionHandler,\n        address proxyAcquisitionCampaign,\n        address proxyPurchasesHandler,\n        address contractor\n    );\n\n    event ProxyForDonationCampaign(\n        address proxyDonationCampaign,\n        address proxyDonationConversionHandler,\n        address proxyDonationLogicHandler,\n        address contractor\n    );\n\n\n    /**\n     * @notice Function to set initial parameters for the contract\n     * @param _twoKeySingletonRegistry is the address of singleton registry contract\n     */\n    function setInitialParams(\n        address _twoKeySingletonRegistry,\n        address _proxyStorage\n    )\n    public\n    {\n        require(initialized == false);\n\n        TWO_KEY_SINGLETON_REGISTRY = ITwoKeySingletoneRegistryFetchAddress(_twoKeySingletonRegistry);\n        PROXY_STORAGE_CONTRACT = ITwoKeyFactoryStorage(_proxyStorage);\n        initialized = true;\n    }\n\n    function getLatestContractVersion(string contractName) internal view returns (string) {\n        return ITwoKeySingletoneRegistryFetchAddress(TWO_KEY_SINGLETON_REGISTRY).getLatestContractVersion(contractName);\n    }\n\n\n    /**\n     * @notice Function used to deploy all necessary proxy contracts in order to use the campaign.\n     * @dev This function will handle all necessary actions which should be done on the contract\n     * in order to make them ready to work. Also, we've been unfortunately forced to use arrays\n     * as arguments since the stack is not deep enough to handle this amount of input information\n     * since this method handles kick-start of 3 contracts\n     * @param addresses is array of addresses needed [assetContractERC20,moderator]\n     * @param valuesConversion is array containing necessary values to start conversion handler contract\n     * @param valuesLogicHandler is array of values necessary to start logic handler contract\n     * @param values is array containing values necessary to start campaign contract\n     * @param _currency is the main currency token price is set\n     * @param _nonSingletonHash is the hash of non-singleton contracts active with responding\n     * 2key-protocol version at the moment\n     */\n    function createProxiesForAcquisitions(\n        address[] addresses,\n        uint[] valuesConversion,\n        uint[] valuesLogicHandler,\n        uint[] values,\n        string _currency,\n        string _nonSingletonHash\n    )\n    public\n    payable\n    {\n\n        //Deploy proxy for Acquisition contract\n        ProxyCampaign proxyAcquisition = new ProxyCampaign(\n            \"TwoKeyAcquisitionCampaignERC20\",\n            getLatestContractVersion(\"TwoKeyAcquisitionCampaignERC20\"),\n            address(TWO_KEY_SINGLETON_REGISTRY)\n        );\n\n        //Deploy proxy for ConversionHandler contract\n        ProxyCampaign proxyConversions = new ProxyCampaign(\n            \"TwoKeyConversionHandler\",\n            getLatestContractVersion(\"TwoKeyConversionHandler\"),\n            address(TWO_KEY_SINGLETON_REGISTRY)\n        );\n\n        //Deploy proxy for TwoKeyAcquisitionLogicHandler contract\n        ProxyCampaign proxyLogicHandler = new ProxyCampaign(\n            \"TwoKeyAcquisitionLogicHandler\",\n            getLatestContractVersion(\"TwoKeyAcquisitionLogicHandler\"),\n            address(TWO_KEY_SINGLETON_REGISTRY)\n        );\n\n\n        //Deploy proxy for TwoKeyPurchasesHandler contract\n        ProxyCampaign proxyPurchasesHandler = new ProxyCampaign(\n            \"TwoKeyPurchasesHandler\",\n            getLatestContractVersion(\"TwoKeyAcquisitionLogicHandler\"),\n            address(TWO_KEY_SINGLETON_REGISTRY)\n        );\n\n\n        //        UpgradeableCampaign(proxyPurchasesHandler).initialize.value(msg.value)(msg.sender);\n        //        UpgradeableCampaign(proxyLogicHandler).initialize.value(msg.value)(msg.sender);\n        //        UpgradeableCampaign(proxyConversions).initialize.value(msg.value)(msg.sender);\n        //        UpgradeableCampaign(proxyAcquisition).initialize.value(msg.value)(msg.sender);\n\n        IHandleCampaignDeployment(proxyPurchasesHandler).setInitialParamsPurchasesHandler(\n            valuesConversion,\n            msg.sender,\n            addresses[0],\n            getAddressFromTwoKeySingletonRegistry(\"TwoKeyEventSource\"),\n            proxyConversions\n        );\n\n        // Set initial arguments inside Conversion Handler contract\n        IHandleCampaignDeployment(proxyConversions).setInitialParamsConversionHandler(\n            valuesConversion,\n            proxyAcquisition,\n            proxyPurchasesHandler,\n            msg.sender,\n            addresses[0], //ERC20 address\n            TWO_KEY_SINGLETON_REGISTRY\n        );\n\n        // Set initial arguments inside Logic Handler contract\n        IHandleCampaignDeployment(proxyLogicHandler).setInitialParamsLogicHandler(\n            valuesLogicHandler,\n            _currency,\n            addresses[0], //asset contract erc20\n            addresses[1], // moderator\n            msg.sender,\n            proxyAcquisition,\n            address(TWO_KEY_SINGLETON_REGISTRY),\n            proxyConversions\n        );\n\n        // Set initial arguments inside AcquisitionCampaign contract\n        IHandleCampaignDeployment(proxyAcquisition).setInitialParamsCampaign(\n            address(TWO_KEY_SINGLETON_REGISTRY),\n            address(proxyLogicHandler),\n            address(proxyConversions),\n            addresses[1], //moderator\n            addresses[0], //asset contract\n            msg.sender, //contractor\n            values\n        );\n\n        // Validate campaign so it will be approved to interact (and write) to/with our singleton contracts\n        ITwoKeyCampaignValidator(getAddressFromTwoKeySingletonRegistry(\"TwoKeyCampaignValidator\"))\n        .validateAcquisitionCampaign(proxyAcquisition, _nonSingletonHash);\n\n        setAddressToCampaignType(proxyAcquisition, \"TOKEN_SELL\");\n\n        ITwoKeyEventSourceEvents(getAddressFromTwoKeySingletonRegistry(\"TwoKeyEventSource\"))\n        .acquisitionCampaignCreated(\n            proxyLogicHandler,\n            proxyConversions,\n            proxyAcquisition,\n            proxyPurchasesHandler,\n            plasmaOf(msg.sender)\n        );\n    }\n\n\n    /**\n     * @notice Function to deploy proxy contracts for donation campaigns\n     */\n    function createProxiesForDonationCampaign(\n        address _moderator,\n        uint [] numberValues,\n        bool [] booleanValues,\n        string _currency,\n        string tokenName,\n        string tokenSymbol,\n        string nonSingletonHash\n    )\n    public\n    {\n\n        // Deploying a proxy contract for donations\n        ProxyCampaign proxyDonationCampaign = new ProxyCampaign(\n            \"TwoKeyDonationCampaign\",\n            getLatestContractVersion(\"TwoKeyDonationCampaign\"),\n            TWO_KEY_SINGLETON_REGISTRY\n        );\n\n        //Deploying a proxy contract for donation conversion handler\n        ProxyCampaign proxyDonationConversionHandler = new ProxyCampaign(\n            \"TwoKeyDonationConversionHandler\",\n            getLatestContractVersion(\"TwoKeyDonationConversionHandler\"),\n            TWO_KEY_SINGLETON_REGISTRY\n        );\n\n        //Deploying a proxy contract for donation logic handler\n        ProxyCampaign proxyDonationLogicHandler = new ProxyCampaign(\n            \"TwoKeyDonationLogicHandler\",\n            getLatestContractVersion(\"TwoKeyDonationLogicHandler\"),\n            TWO_KEY_SINGLETON_REGISTRY\n        );\n\n        IHandleCampaignDeployment(proxyDonationLogicHandler).setInitialParamsDonationLogicHandler(\n            numberValues,\n            _currency,\n            msg.sender,\n            _moderator,\n            TWO_KEY_SINGLETON_REGISTRY,\n            proxyDonationCampaign,\n            proxyDonationConversionHandler\n        );\n\n        // Set initial parameters under Donation conversion handler\n        IHandleCampaignDeployment(proxyDonationConversionHandler).setInitialParamsDonationConversionHandler(\n            tokenName,\n            tokenSymbol,\n            _currency,\n            msg.sender, //contractor\n            proxyDonationCampaign,\n            address(TWO_KEY_SINGLETON_REGISTRY)\n        );\n//\n        // Set initial parameters under Donation campaign contract\n        IHandleCampaignDeployment(proxyDonationCampaign).setInitialParamsDonationCampaign(\n            msg.sender, //contractor\n            _moderator, //moderator address\n            TWO_KEY_SINGLETON_REGISTRY,\n            proxyDonationConversionHandler,\n            proxyDonationLogicHandler,\n            numberValues,\n            booleanValues\n        );\n\n        // Validate campaign\n        ITwoKeyCampaignValidator(getAddressFromTwoKeySingletonRegistry(\"TwoKeyCampaignValidator\"))\n        .validateDonationCampaign(\n            proxyDonationCampaign,\n            proxyDonationConversionHandler,\n            proxyDonationLogicHandler,\n            nonSingletonHash\n        );\n\n        setAddressToCampaignType(proxyDonationCampaign, \"DONATION_CAMPAIGN\");\n\n        ITwoKeyEventSourceEvents(getAddressFromTwoKeySingletonRegistry(\"TwoKeyEventSource\"))\n        .donationCampaignCreated(\n            proxyDonationCampaign,\n            proxyDonationConversionHandler,\n            proxyDonationLogicHandler,\n            plasmaOf(msg.sender)\n        );\n    }\n\n    /**\n     * @notice internal function to set address to campaign type\n     * @param _campaignAddress is the address of campaign\n     * @param _campaignType is the type of campaign (String)\n     */\n    function setAddressToCampaignType(address _campaignAddress, string _campaignType) internal {\n        bytes32 keyHash = keccak256(_addressToCampaignType, _campaignAddress);\n        PROXY_STORAGE_CONTRACT.setString(keyHash, _campaignType);\n    }\n\n    /**\n     * @notice Function working as a getter\n     * @param _key is the address of campaign\n     */\n    function addressToCampaignType(address _key) public view returns (string) {\n        return PROXY_STORAGE_CONTRACT.getString(keccak256(_addressToCampaignType, _key));\n    }\n\n    function plasmaOf(address _address) internal view returns (address) {\n        address twoKeyEventSource = getAddressFromTwoKeySingletonRegistry(\"TwoKeyEventSource\");\n        address plasma = ITwoKeyEventSourceEvents(twoKeyEventSource).plasmaOf(_address);\n        return plasma;\n    }\n\n\n\n}\n",
  "sourcePath": "/Users/nikolamadjarevic/Desktop/2key/contracts/contracts/2key/singleton-contracts/TwoKeyFactory.sol",
  "compiler": {
    "name": "solc",
    "version": "0.4.24+commit.e67f0147.Emscripten.clang"
  },
  "schemaVersion": "2.0.1",
  "updatedAt": "2019-11-07T08:15:06.275Z"
}