{
  "contractName": "TwoKeyExchangeRateContract",
  "abi": [
    {
      "constant": true,
      "inputs": [],
      "name": "PROXY_STORAGE_CONTRACT",
      "outputs": [
        {
          "name": "",
          "type": "address"
        }
      ],
      "payable": false,
      "stateMutability": "view",
      "type": "function"
    },
    {
      "constant": true,
      "inputs": [],
      "name": "implementation",
      "outputs": [
        {
          "name": "",
          "type": "address"
        }
      ],
      "payable": false,
      "stateMutability": "view",
      "type": "function"
    },
    {
      "constant": true,
      "inputs": [],
      "name": "TWO_KEY_SINGLETON_REGISTRY",
      "outputs": [
        {
          "name": "",
          "type": "address"
        }
      ],
      "payable": false,
      "stateMutability": "view",
      "type": "function"
    },
    {
      "constant": true,
      "inputs": [
        {
          "name": "_address",
          "type": "address"
        }
      ],
      "name": "getterChecker",
      "outputs": [
        {
          "name": "",
          "type": "bool"
        }
      ],
      "payable": false,
      "stateMutability": "view",
      "type": "function"
    },
    {
      "constant": false,
      "inputs": [
        {
          "name": "sender",
          "type": "address"
        }
      ],
      "name": "initialize",
      "outputs": [],
      "payable": true,
      "stateMutability": "payable",
      "type": "function"
    },
    {
      "constant": false,
      "inputs": [
        {
          "name": "_twoKeySingletonesRegistry",
          "type": "address"
        },
        {
          "name": "_proxyStorage",
          "type": "address"
        }
      ],
      "name": "setInitialParams",
      "outputs": [],
      "payable": false,
      "stateMutability": "nonpayable",
      "type": "function"
    },
    {
      "constant": false,
      "inputs": [
        {
          "name": "_currency",
          "type": "bytes32"
        },
        {
          "name": "_baseToTargetRate",
          "type": "uint256"
        }
      ],
      "name": "setFiatCurrencyDetails",
      "outputs": [],
      "payable": false,
      "stateMutability": "nonpayable",
      "type": "function"
    },
    {
      "constant": false,
      "inputs": [
        {
          "name": "_currencies",
          "type": "bytes32[]"
        },
        {
          "name": "_baseToTargetRates",
          "type": "uint256[]"
        }
      ],
      "name": "setMultipleFiatCurrencyDetails",
      "outputs": [],
      "payable": false,
      "stateMutability": "nonpayable",
      "type": "function"
    },
    {
      "constant": true,
      "inputs": [
        {
          "name": "base_target",
          "type": "string"
        }
      ],
      "name": "getBaseToTargetRate",
      "outputs": [
        {
          "name": "",
          "type": "uint256"
        }
      ],
      "payable": false,
      "stateMutability": "view",
      "type": "function"
    },
    {
      "constant": true,
      "inputs": [
        {
          "name": "base_target",
          "type": "string"
        },
        {
          "name": "base_amount",
          "type": "uint256"
        }
      ],
      "name": "exchangeCurrencies",
      "outputs": [
        {
          "name": "",
          "type": "uint256"
        }
      ],
      "payable": false,
      "stateMutability": "view",
      "type": "function"
    }
  ],
  "bytecode": "0x608060405234801561001057600080fd5b50611141806100206000396000f3006080604052600436106100a4576000357c0100000000000000000000000000000000000000000000000000000000900463ffffffff16806305dbe412146100a9578063105005a11461010c5780635c60da1b146101635780636c4a7dbd146101ba578063744248db146102415780638830afa0146102be578063a9bd894514610315578063c4d66de814610370578063d23d1afb146103a6578063f45c3cda1461044f575b600080fd5b3480156100b557600080fd5b5061010a600480360381019080803573ffffffffffffffffffffffffffffffffffffffff169060200190929190803573ffffffffffffffffffffffffffffffffffffffff16906020019092919050505061048a565b005b34801561011857600080fd5b5061012161054d565b604051808273ffffffffffffffffffffffffffffffffffffffff1673ffffffffffffffffffffffffffffffffffffffff16815260200191505060405180910390f35b34801561016f57600080fd5b50610178610573565b604051808273ffffffffffffffffffffffffffffffffffffffff1673ffffffffffffffffffffffffffffffffffffffff16815260200191505060405180910390f35b3480156101c657600080fd5b5061022b600480360381019080803590602001908201803590602001908080601f01602080910402602001604051908101604052809392919081815260200183838082843782019150505050505091929192908035906020019092919050505061059d565b6040518082815260200191505060405180910390f35b34801561024d57600080fd5b506102a8600480360381019080803590602001908201803590602001908080601f01602080910402602001604051908101604052809392919081815260200183838082843782019150505050505091929192905050506105c2565b6040518082815260200191505060405180910390f35b3480156102ca57600080fd5b506102d3610759565b604051808273ffffffffffffffffffffffffffffffffffffffff1673ffffffffffffffffffffffffffffffffffffffff16815260200191505060405180910390f35b34801561032157600080fd5b50610356600480360381019080803573ffffffffffffffffffffffffffffffffffffffff16906020019092919050505061077f565b604051808215151515815260200191505060405180910390f35b6103a4600480360381019080803573ffffffffffffffffffffffffffffffffffffffff1690602001909291905050506108a0565b005b3480156103b257600080fd5b5061044d60048036038101908080359060200190820180359060200190808060200260200160405190810160405280939291908181526020018383602002808284378201915050505050509192919290803590602001908201803590602001908080602002602001604051908101604052809392919081815260200183836020028082843782019150505050505091929192905050506108fe565b005b34801561045b57600080fd5b50610488600480360381019080803560001916906020019092919080359060200190929190505050610bc4565b005b60001515600260149054906101000a900460ff1615151415156104ac57600080fd5b81600260006101000a81548173ffffffffffffffffffffffffffffffffffffffff021916908373ffffffffffffffffffffffffffffffffffffffff16021790555080600360006101000a81548173ffffffffffffffffffffffffffffffffffffffff021916908373ffffffffffffffffffffffffffffffffffffffff1602179055506001600260146101000a81548160ff0219169083151502179055505050565b600360009054906101000a900473ffffffffffffffffffffffffffffffffffffffff1681565b6000600160009054906101000a900473ffffffffffffffffffffffffffffffffffffffff16905090565b60006105ba826105ac856105c2565b610e0b90919063ffffffff16565b905092915050565b60008060006105d084610e46565b91506040805190810160405280601181526020017f63757272656e63794e616d653272617465000000000000000000000000000000815250826040518083805190602001908083835b60208310151561063e5780518252602082019150602081019050602083039250610619565b6001836020036101000a03801982511681845116808217855250505050505090500182600019166000191681526020019250505060405180910390209050600360009054906101000a900473ffffffffffffffffffffffffffffffffffffffff1673ffffffffffffffffffffffffffffffffffffffff1663bd02d0f5826040518263ffffffff167c0100000000000000000000000000000000000000000000000000000000028152600401808260001916600019168152602001915050602060405180830381600087803b15801561071557600080fd5b505af1158015610729573d6000803e3d6000fd5b505050506040513d602081101561073f57600080fd5b810190808051906020019092919050505092505050919050565b600260009054906101000a900473ffffffffffffffffffffffffffffffffffffffff1681565b6000806107c06040805190810160405280601981526020017f54776f4b65794d61696e7461696e657273526567697374727900000000000000815250610e71565b90508073ffffffffffffffffffffffffffffffffffffffff16635cc7815c846040518263ffffffff167c0100000000000000000000000000000000000000000000000000000000028152600401808273ffffffffffffffffffffffffffffffffffffffff1673ffffffffffffffffffffffffffffffffffffffff168152602001915050602060405180830381600087803b15801561085d57600080fd5b505af1158015610871573d6000803e3d6000fd5b505050506040513d602081101561088757600080fd5b8101908080519060200190929190505050915050919050565b6000809054906101000a900473ffffffffffffffffffffffffffffffffffffffff1673ffffffffffffffffffffffffffffffffffffffff163373ffffffffffffffffffffffffffffffffffffffff161415156108fb57600080fd5b50565b6000806000806109426040805190810160405280601981526020017f54776f4b65794d61696e7461696e657273526567697374727900000000000000815250610e71565b90508073ffffffffffffffffffffffffffffffffffffffff16635cc7815c336040518263ffffffff167c0100000000000000000000000000000000000000000000000000000000028152600401808273ffffffffffffffffffffffffffffffffffffffff1673ffffffffffffffffffffffffffffffffffffffff168152602001915050602060405180830381600087803b1580156109df57600080fd5b505af11580156109f3573d6000803e3d6000fd5b505050506040513d6020811015610a0957600080fd5b81019080805190602001909291905050501515610a2557600080fd5b85519350600092505b83831015610bbc57610a6e8684815181101515610a4757fe5b906020019060200201518685815181101515610a5f57fe5b90602001906020020151610fab565b610aac6040805190810160405280601181526020017f54776f4b65794576656e74536f75726365000000000000000000000000000000815250610e71565b91508173ffffffffffffffffffffffffffffffffffffffff1663f8809a958785815181101515610ad857fe5b906020019060200201518786815181101515610af057fe5b9060200190602002015142336040518563ffffffff167c01000000000000000000000000000000000000000000000000000000000281526004018085600019166000191681526020018481526020018381526020018273ffffffffffffffffffffffffffffffffffffffff1673ffffffffffffffffffffffffffffffffffffffff168152602001945050505050600060405180830381600087803b158015610b9757600080fd5b505af1158015610bab573d6000803e3d6000fd5b505050508280600101935050610a2e565b505050505050565b600080610c056040805190810160405280601981526020017f54776f4b65794d61696e7461696e657273526567697374727900000000000000815250610e71565b90508073ffffffffffffffffffffffffffffffffffffffff16635cc7815c336040518263ffffffff167c0100000000000000000000000000000000000000000000000000000000028152600401808273ffffffffffffffffffffffffffffffffffffffff1673ffffffffffffffffffffffffffffffffffffffff168152602001915050602060405180830381600087803b158015610ca257600080fd5b505af1158015610cb6573d6000803e3d6000fd5b505050506040513d6020811015610ccc57600080fd5b81019080805190602001909291905050501515610ce857600080fd5b610cf28484610fab565b610d306040805190810160405280601181526020017f54776f4b65794576656e74536f75726365000000000000000000000000000000815250610e71565b91508173ffffffffffffffffffffffffffffffffffffffff1663f8809a95858542336040518563ffffffff167c01000000000000000000000000000000000000000000000000000000000281526004018085600019166000191681526020018481526020018381526020018273ffffffffffffffffffffffffffffffffffffffff1673ffffffffffffffffffffffffffffffffffffffff168152602001945050505050600060405180830381600087803b158015610ded57600080fd5b505af1158015610e01573d6000803e3d6000fd5b5050505050505050565b600080831415610e1e5760009050610e40565b8183029050818382811515610e2f57fe5b04141515610e3c57600080fd5b8090505b92915050565b60006060829050600081511415610e635760006001029150610e6b565b602083015191505b50919050565b6000600260009054906101000a900473ffffffffffffffffffffffffffffffffffffffff1673ffffffffffffffffffffffffffffffffffffffff1663db7a6d90836040518263ffffffff167c01000000000000000000000000000000000000000000000000000000000281526004018080602001828103825283818151815260200191508051906020019080838360005b83811015610f1d578082015181840152602081019050610f02565b50505050905090810190601f168015610f4a5780820380516001836020036101000a031916815260200191505b5092505050602060405180830381600087803b158015610f6957600080fd5b505af1158015610f7d573d6000803e3d6000fd5b505050506040513d6020811015610f9357600080fd5b81019080805190602001909291905050509050919050565b60006040805190810160405280601181526020017f63757272656e63794e616d653272617465000000000000000000000000000000815250836040518083805190602001908083835b6020831015156110195780518252602082019150602081019050602083039250610ff4565b6001836020036101000a03801982511681845116808217855250505050505090500182600019166000191681526020019250505060405180910390209050600360009054906101000a900473ffffffffffffffffffffffffffffffffffffffff1673ffffffffffffffffffffffffffffffffffffffff1663e2a4853a82846040518363ffffffff167c010000000000000000000000000000000000000000000000000000000002815260040180836000191660001916815260200182815260200192505050600060405180830381600087803b1580156110f857600080fd5b505af115801561110c573d6000803e3d6000fd5b505050505050505600a165627a7a723058206ce26e6c6a3b674f03913264cb51354b212ab6aa4c2d33c9ceb5688e94c408af0029",
  "source": "pragma solidity ^0.4.24;\n\nimport \"../interfaces/ITwoKeySingletoneRegistryFetchAddress.sol\";\nimport \"../interfaces/ITwoKeyMaintainersRegistry.sol\";\nimport \"../interfaces/storage-contracts/ITwoKeyExchangeRateContractStorage.sol\";\nimport \"../interfaces/ITwoKeyEventSourceEvents.sol\";\nimport \"../upgradability/Upgradeable.sol\";\nimport \"../libraries/SafeMath.sol\";\nimport \"../non-upgradable-singletons/ITwoKeySingletonUtils.sol\";\n\n\n/**\n * @author Nikola Madjarevic\n */\ncontract TwoKeyExchangeRateContract is Upgradeable, ITwoKeySingletonUtils {\n\n    /**\n     * Storage keys are stored on the top. Here they are in order to avoid any typos\n     */\n    string constant _currencyName2rate = \"currencyName2rate\";\n\n    using SafeMath for uint;\n    bool initialized;\n\n    ITwoKeyExchangeRateContractStorage public PROXY_STORAGE_CONTRACT;\n\n    /**\n     * @notice Function which will be called immediately after contract deployment\n     * @param _twoKeySingletonesRegistry is the address of TWO_KEY_SINGLETON_REGISTRY contract\n     * @param _proxyStorage is the address of proxy storage contract\n     */\n    function setInitialParams(\n        address _twoKeySingletonesRegistry,\n        address _proxyStorage\n    )\n    external\n    {\n        require(initialized == false);\n\n        TWO_KEY_SINGLETON_REGISTRY = _twoKeySingletonesRegistry;\n        PROXY_STORAGE_CONTRACT = ITwoKeyExchangeRateContractStorage(_proxyStorage);\n\n        initialized = true;\n    }\n\n\n    /**\n     * @notice Backend calls to update rates\n     * @dev only twoKeyMaintainer address will be eligible to update it\n     * @param _currency is the bytes32 (hex) representation of currency shortcut string\n     * @param _baseToTargetRate is the rate between base and target currency\n     */\n    function setFiatCurrencyDetails(\n        bytes32 _currency,\n        uint _baseToTargetRate\n    )\n    public\n    onlyMaintainer\n    {\n        storeFiatCurrencyDetails(_currency, _baseToTargetRate);\n        address twoKeyEventSource = getAddressFromTwoKeySingletonRegistry(\"TwoKeyEventSource\");\n        ITwoKeyEventSourceEvents(twoKeyEventSource).priceUpdated(_currency, _baseToTargetRate, block.timestamp, msg.sender);\n    }\n\n    /**\n     * @notice Function to update multiple rates at once\n     * @param _currencies is the array of currencies\n     * @dev Only maintainer can call this\n     */\n    function setMultipleFiatCurrencyDetails(\n        bytes32[] _currencies,\n        uint[] _baseToTargetRates\n    )\n    public\n    onlyMaintainer\n    {\n        uint numberOfFiats = _currencies.length; //either _isETHGreaterThanCurrencies.length\n        //There's no need for validation of input, because only we can call this and that costs gas\n        for(uint i=0; i<numberOfFiats; i++) {\n            storeFiatCurrencyDetails(_currencies[i], _baseToTargetRates[i]);\n            address twoKeyEventSource = getAddressFromTwoKeySingletonRegistry(\"TwoKeyEventSource\");\n            ITwoKeyEventSourceEvents(twoKeyEventSource).priceUpdated(_currencies[i], _baseToTargetRates[i], block.timestamp, msg.sender);\n        }\n    }\n\n    /**\n     * @notice Function to store details about currency\n     * @param _currency is the bytes32 (hex) representation of currency shortcut string\n     * @param _baseToTargetRate is the rate between base and target currency\n     */\n    function storeFiatCurrencyDetails(\n        bytes32 _currency,\n        uint _baseToTargetRate\n    )\n    internal\n    {\n        bytes32 hashKey = keccak256(_currencyName2rate, _currency);\n        PROXY_STORAGE_CONTRACT.setUint(hashKey, _baseToTargetRate);\n    }\n\n\n    /**\n     * @notice Function getter for base to target rate\n     * @param base_target is the name of the currency\n     */\n    function getBaseToTargetRate(\n        string base_target\n    )\n    public\n    view\n    returns (uint)\n    {\n        bytes32 key = stringToBytes32(base_target);\n        bytes32 hashKey = keccak256(_currencyName2rate, key);\n        return PROXY_STORAGE_CONTRACT.getUint(hashKey);\n    }\n\n\n    /**\n     * @notice Helper calculation function\n     */\n    function exchangeCurrencies(\n        string base_target,\n        uint base_amount\n    )\n    public\n    view\n    returns (uint)\n    {\n        return getBaseToTargetRate(base_target).mul(base_amount);\n    }\n\n\n    /**\n     * @notice Helper method to convert string to bytes32\n     * @dev If string.length > 32 then the rest after 32nd char will be deleted\n     * @return result\n     */\n    function stringToBytes32(\n        string memory source\n    )\n    internal\n    returns (bytes32 result)\n    {\n        bytes memory tempEmptyStringTest = bytes(source);\n        if (tempEmptyStringTest.length == 0) {\n            return 0x0;\n        }\n        assembly {\n            result := mload(add(source, 32))\n        }\n    }\n\n}\n",
  "sourcePath": "/Users/nikolamadjarevic/Desktop/2key/contracts/contracts/2key/singleton-contracts/TwoKeyExchangeRateContract.sol",
  "compiler": {
    "name": "solc",
    "version": "0.4.24+commit.e67f0147.Emscripten.clang"
  },
  "schemaVersion": "2.0.1",
  "updatedAt": "2019-11-07T08:15:06.195Z"
}