{
  "contractName": "TwoKeyLockupContract",
  "abi": [
    {
      "constant": true,
      "inputs": [],
      "name": "baseTokens",
      "outputs": [
        {
          "name": "",
          "type": "uint256"
        }
      ],
      "payable": false,
      "stateMutability": "view",
      "type": "function"
    },
    {
      "constant": true,
      "inputs": [],
      "name": "bonusTokens",
      "outputs": [
        {
          "name": "",
          "type": "uint256"
        }
      ],
      "payable": false,
      "stateMutability": "view",
      "type": "function"
    },
    {
      "constant": true,
      "inputs": [],
      "name": "converter",
      "outputs": [
        {
          "name": "",
          "type": "address"
        }
      ],
      "payable": false,
      "stateMutability": "view",
      "type": "function"
    },
    {
      "inputs": [
        {
          "name": "_bonusTokensVestingStartShiftInDaysFromDistributionDate",
          "type": "uint256"
        },
        {
          "name": "_numberOfVestingPortions",
          "type": "uint256"
        },
        {
          "name": "_numberOfDaysBetweenPortions",
          "type": "uint256"
        },
        {
          "name": "_tokenDistributionDate",
          "type": "uint256"
        },
        {
          "name": "_maxDistributionDateShiftInDays",
          "type": "uint256"
        },
        {
          "name": "_baseTokens",
          "type": "uint256"
        },
        {
          "name": "_bonusTokens",
          "type": "uint256"
        },
        {
          "name": "_conversionId",
          "type": "uint256"
        },
        {
          "name": "_converter",
          "type": "address"
        },
        {
          "name": "_contractor",
          "type": "address"
        },
        {
          "name": "_assetContractERC20",
          "type": "address"
        },
        {
          "name": "_twoKeyEventSource",
          "type": "address"
        }
      ],
      "payable": false,
      "stateMutability": "nonpayable",
      "type": "constructor"
    },
    {
      "anonymous": false,
      "inputs": [
        {
          "indexed": false,
          "name": "timestamp",
          "type": "uint256"
        },
        {
          "indexed": false,
          "name": "methodCaller",
          "type": "address"
        },
        {
          "indexed": false,
          "name": "tokensReceiver",
          "type": "address"
        },
        {
          "indexed": false,
          "name": "portionId",
          "type": "uint256"
        },
        {
          "indexed": false,
          "name": "portionAmount",
          "type": "uint256"
        }
      ],
      "name": "TokensWithdrawn",
      "type": "event"
    },
    {
      "constant": true,
      "inputs": [],
      "name": "getLockupSummary",
      "outputs": [
        {
          "name": "",
          "type": "uint256"
        },
        {
          "name": "",
          "type": "uint256"
        },
        {
          "name": "",
          "type": "uint256"
        },
        {
          "name": "",
          "type": "uint256"
        },
        {
          "name": "",
          "type": "uint256[]"
        },
        {
          "name": "",
          "type": "bool[]"
        }
      ],
      "payable": false,
      "stateMutability": "view",
      "type": "function"
    },
    {
      "constant": false,
      "inputs": [
        {
          "name": "_newDate",
          "type": "uint256"
        }
      ],
      "name": "changeTokenDistributionDate",
      "outputs": [],
      "payable": false,
      "stateMutability": "nonpayable",
      "type": "function"
    },
    {
      "constant": false,
      "inputs": [
        {
          "name": "part",
          "type": "uint256"
        }
      ],
      "name": "withdrawTokens",
      "outputs": [
        {
          "name": "",
          "type": "bool"
        }
      ],
      "payable": false,
      "stateMutability": "nonpayable",
      "type": "function"
    }
  ],
  "bytecode": "0x608060405234801561001057600080fd5b5060405161018080610bd383398101806040528101908080519060200190929190805190602001909291908051906020019092919080519060200190929190805190602001909291908051906020019092919080519060200190929190805190602001909291908051906020019092919080519060200190929190805190602001909291908051906020019092919050505060008c6000819055508b6002819055508a600381905550896001819055508860048190555087600681905550866007819055508560058190555084600a60006101000a81548173ffffffffffffffffffffffffffffffffffffffff021916908373ffffffffffffffffffffffffffffffffffffffff16021790555083600b60006101000a81548173ffffffffffffffffffffffffffffffffffffffff021916908373ffffffffffffffffffffffffffffffffffffffff16021790555082600c60006101000a81548173ffffffffffffffffffffffffffffffffffffffff021916908373ffffffffffffffffffffffffffffffffffffffff16021790555081600d60006101000a81548173ffffffffffffffffffffffffffffffffffffffff021916908373ffffffffffffffffffffffffffffffffffffffff1602179055506001546008600080815260200190815260200160002081905550620151808d0260015401600860006001815260200190815260200160002081905550600290505b60016002540181101561027557620151806003540260018203026008600060018152602001908152602001600020540160086000838152602001908152602001600020819055508080600101915050610221565b50505050505050505050505050610942806102916000396000f300608060405260043610610078576000357c0100000000000000000000000000000000000000000000000000000000900463ffffffff168063315a095d1461007d5780635a4fb6ab146100c257806376ba242c146100ed5780637969c16f146101185780638e7b713b146101e8578063bd38837b14610215575b600080fd5b34801561008957600080fd5b506100a86004803603810190808035906020019092919050505061026c565b604051808215151515815260200191505060405180910390f35b3480156100ce57600080fd5b506100d761068c565b6040518082815260200191505060405180910390f35b3480156100f957600080fd5b50610102610692565b6040518082815260200191505060405180910390f35b34801561012457600080fd5b5061012d610698565b604051808781526020018681526020018581526020018481526020018060200180602001838103835285818151815260200191508051906020019060200280838360005b8381101561018c578082015181840152602081019050610171565b50505050905001838103825284818151815260200191508051906020019060200280838360005b838110156101ce5780820151818401526020810190506101b3565b505050509050019850505050505050505060405180910390f35b3480156101f457600080fd5b50610213600480360381019080803590602001909291905050506107cb565b005b34801561022157600080fd5b5061022a6108f0565b604051808273ffffffffffffffffffffffffffffffffffffffff1673ffffffffffffffffffffffffffffffffffffffff16815260200191505060405180910390f35b600080600a60009054906101000a900473ffffffffffffffffffffffffffffffffffffffff1673ffffffffffffffffffffffffffffffffffffffff163373ffffffffffffffffffffffffffffffffffffffff1614806103c6575060011515600d60009054906101000a900473ffffffffffffffffffffffffffffffffffffffff1673ffffffffffffffffffffffffffffffffffffffff166340f59c21336040518263ffffffff167c0100000000000000000000000000000000000000000000000000000000028152600401808273ffffffffffffffffffffffffffffffffffffffff1673ffffffffffffffffffffffffffffffffffffffff168152602001915050602060405180830381600087803b15801561038757600080fd5b505af115801561039b573d6000803e3d6000fd5b505050506040513d60208110156103b157600080fd5b81019080805190602001909291905050501515145b15156103d157600080fd5b600015156009600085815260200190815260200160002060009054906101000a900460ff161515148015610409575060016002540183105b80156104275750600860008481526020019081526020016000205442115b151561043257600080fd5b6000831415610445576006549050610458565b60025460075481151561045457fe5b0490505b60016009600085815260200190815260200160002060006101000a81548160ff021916908315150217905550600c60009054906101000a900473ffffffffffffffffffffffffffffffffffffffff1673ffffffffffffffffffffffffffffffffffffffff1663a9059cbb600a60009054906101000a900473ffffffffffffffffffffffffffffffffffffffff16836040518363ffffffff167c0100000000000000000000000000000000000000000000000000000000028152600401808373ffffffffffffffffffffffffffffffffffffffff1673ffffffffffffffffffffffffffffffffffffffff16815260200182815260200192505050602060405180830381600087803b15801561056b57600080fd5b505af115801561057f573d6000803e3d6000fd5b505050506040513d602081101561059557600080fd5b810190808051906020019092919050505015156105b157600080fd5b7f898010b56ceee3a83f68f69f71e63a30864206dd181cf87395f25f6d715304cc4233600a60009054906101000a900473ffffffffffffffffffffffffffffffffffffffff168685604051808681526020018573ffffffffffffffffffffffffffffffffffffffff1673ffffffffffffffffffffffffffffffffffffffff1681526020018473ffffffffffffffffffffffffffffffffffffffff1673ffffffffffffffffffffffffffffffffffffffff1681526020018381526020018281526020019550505050505060405180910390a16001915050919050565b60065481565b60075481565b60008060008060608060608060006001600254016040519080825280602002602001820160405280156106da5781602001602082028038833980820191505090505b5092506001600254016040519080825280602002602001820160405280156107115781602001602082028038833980820191505090505b509150600090505b6001600254018110156107a6576008600082815260200190815260200160002054838281518110151561074857fe5b90602001906020020181815250506009600082815260200190815260200160002060009054906101000a900460ff16828281518110151561078557fe5b90602001906020020190151590811515815250508080600101915050610719565b6006546007546002546005548686985098509850985098509850505050909192939495565b600080600b60009054906101000a900473ffffffffffffffffffffffffffffffffffffffff1673ffffffffffffffffffffffffffffffffffffffff163373ffffffffffffffffffffffffffffffffffffffff1614151561082a57600080fd5b60001515600d60149054906101000a900460ff16151514151561084c57600080fd5b600154620151806004540284031115151561086657600080fd5b6001544210151561087657600080fd5b82600154039150600090505b6001600254018110156108c9578160086000838152602001908152602001600020540160086000838152602001908152602001600020819055508080600101915050610882565b6001600d60146101000a81548160ff02191690831515021790555082600181905550505050565b600a60009054906101000a900473ffffffffffffffffffffffffffffffffffffffff16815600a165627a7a723058208a63407114414f03dabcf1e7aba0469fa15aeb1d01423cb188429aedab9e3bf40029",
  "source": "pragma solidity ^0.4.24;\n\nimport \"../interfaces/IERC20.sol\";\nimport \"../interfaces/ITwoKeyEventSource.sol\";\n\ncontract TwoKeyLockupContract {\n\n    uint bonusTokensVestingStartShiftInDaysFromDistributionDate;\n    uint tokenDistributionDate;\n    uint numberOfVestingPortions; // For example 6\n    uint numberOfDaysBetweenPortions; // For example 30 days\n    uint maxDistributionDateShiftInDays;\n\n\n    uint conversionId;\n\n    uint public baseTokens;\n    uint public bonusTokens;\n\n\n    mapping(uint => uint) tokenUnlockingDate;\n    mapping(uint => bool) isWithdrawn;\n\n    address public converter;\n    address contractor;\n    address assetContractERC20;\n    address twoKeyEventSource;\n\n    bool changed;\n\n\n    event TokensWithdrawn(\n        uint timestamp,\n        address methodCaller,\n        address tokensReceiver,\n        uint portionId,\n        uint portionAmount\n    );\n\n    modifier onlyContractor() {\n        require(msg.sender == contractor);\n        _;\n    }\n\n    modifier onlyConverter() {\n        require(msg.sender == converter);\n        _;\n    }\n\n\n    constructor(\n        uint _bonusTokensVestingStartShiftInDaysFromDistributionDate,\n        uint _numberOfVestingPortions,\n        uint _numberOfDaysBetweenPortions,\n        uint _tokenDistributionDate,\n        uint _maxDistributionDateShiftInDays,\n        uint _baseTokens,\n        uint _bonusTokens,\n        uint _conversionId,\n        address _converter,\n        address _contractor,\n        address _assetContractERC20,\n        address _twoKeyEventSource\n    )\n    public\n    {\n        bonusTokensVestingStartShiftInDaysFromDistributionDate = _bonusTokensVestingStartShiftInDaysFromDistributionDate;\n        numberOfVestingPortions = _numberOfVestingPortions;\n        numberOfDaysBetweenPortions = _numberOfDaysBetweenPortions;\n        tokenDistributionDate = _tokenDistributionDate;\n        maxDistributionDateShiftInDays = _maxDistributionDateShiftInDays;\n        baseTokens = _baseTokens;\n        bonusTokens = _bonusTokens;\n        conversionId = _conversionId;\n        converter = _converter;\n        contractor = _contractor;\n        assetContractERC20 = _assetContractERC20;\n        twoKeyEventSource = _twoKeyEventSource;\n        tokenUnlockingDate[0] = tokenDistributionDate; //base tokens\n        tokenUnlockingDate[1] = tokenDistributionDate + _bonusTokensVestingStartShiftInDaysFromDistributionDate * (1 days); // first part of bonus in days after tokens\n        for(uint i=2 ;i<numberOfVestingPortions + 1; i++) {\n            tokenUnlockingDate[i] = tokenUnlockingDate[1] + (i-1) * (numberOfDaysBetweenPortions * 1 days);\n        }\n    }\n\n    function getLockupSummary()\n    public\n    view\n    returns (uint, uint, uint, uint, uint[], bool[])\n    {\n        uint[] memory dates = new uint[](numberOfVestingPortions+1);\n        bool[] memory areTokensWithdrawn = new bool[](numberOfVestingPortions+1);\n\n        for(uint i=0; i<numberOfVestingPortions+1;i++) {\n            dates[i] = tokenUnlockingDate[i];\n            areTokensWithdrawn[i] = isWithdrawn[i];\n        }\n        //total = base + bonus\n        // monthly bonus = bonus/numberOfVestingPortions\n        return (baseTokens, bonusTokens, numberOfVestingPortions, conversionId, dates, areTokensWithdrawn);\n    }\n\n\n    /// @notice Function to change token distribution date\n    /// @dev only contractor can issue calls to this method, and token distribution date can be changed only once\n    /// @param _newDate is new token distribution date we'd like to set\n    function changeTokenDistributionDate(\n        uint _newDate\n    )\n    public\n    onlyContractor\n    {\n        require(changed == false);\n        require(_newDate - (maxDistributionDateShiftInDays * (1 days)) <= tokenDistributionDate);\n        require(now < tokenDistributionDate);\n\n        uint shift = tokenDistributionDate - _newDate;\n        // If the date is changed shifting all tokens unlocking dates for the difference\n        for(uint i=0; i<numberOfVestingPortions+1;i++) {\n            tokenUnlockingDate[i] = tokenUnlockingDate[i] + shift;\n        }\n\n        changed = true;\n        tokenDistributionDate = _newDate;\n    }\n\n\n    /// @notice Function where converter can withdraw his funds\n    /// @return true is if transfer was successful, otherwise will revert\n    /// onlyConverter\n    function withdrawTokens(\n        uint part\n    )\n    public\n    returns (bool)\n    {\n        require(msg.sender == converter || ITwoKeyEventSource(twoKeyEventSource).isAddressMaintainer(msg.sender) == true);\n        require(isWithdrawn[part] == false && part < numberOfVestingPortions+1 && block.timestamp > tokenUnlockingDate[part]);\n        uint amount;\n        if(part == 0) {\n            amount = baseTokens;\n        } else {\n            amount = bonusTokens / numberOfVestingPortions;\n        }\n        isWithdrawn[part] = true;\n        require(IERC20(assetContractERC20).transfer(converter,amount));\n\n        // Emit an event after tokens are transfered\n        emit TokensWithdrawn(\n            block.timestamp,\n            msg.sender,\n            converter,\n            part,\n            amount\n        );\n\n        return true;\n    }\n\n}\n",
  "sourcePath": "/Users/nikolamadjarevic/Desktop/2key/contracts/contracts/2key/singleton-contracts/TwoKeyLockupContract.sol",
  "compiler": {
    "name": "solc",
    "version": "0.4.24+commit.e67f0147.Emscripten.clang"
  },
  "schemaVersion": "2.0.1",
  "updatedAt": "2019-07-09T14:45:03.696Z"
}