{
  "contractName": "TwoKeyRegistry",
  "abi": [
    {
      "constant": true,
      "inputs": [],
      "name": "PROXY_STORAGE_CONTRACT",
      "outputs": [
        {
          "name": "",
          "type": "address"
        }
      ],
      "payable": false,
      "stateMutability": "view",
      "type": "function"
    },
    {
      "constant": true,
      "inputs": [],
      "name": "implementation",
      "outputs": [
        {
          "name": "",
          "type": "address"
        }
      ],
      "payable": false,
      "stateMutability": "view",
      "type": "function"
    },
    {
      "constant": true,
      "inputs": [],
      "name": "TWO_KEY_SINGLETON_REGISTRY",
      "outputs": [
        {
          "name": "",
          "type": "address"
        }
      ],
      "payable": false,
      "stateMutability": "view",
      "type": "function"
    },
    {
      "constant": true,
      "inputs": [
        {
          "name": "_address",
          "type": "address"
        }
      ],
      "name": "getterChecker",
      "outputs": [
        {
          "name": "",
          "type": "bool"
        }
      ],
      "payable": false,
      "stateMutability": "view",
      "type": "function"
    },
    {
      "constant": false,
      "inputs": [
        {
          "name": "sender",
          "type": "address"
        }
      ],
      "name": "initialize",
      "outputs": [],
      "payable": true,
      "stateMutability": "payable",
      "type": "function"
    },
    {
      "anonymous": false,
      "inputs": [
        {
          "indexed": false,
          "name": "owner",
          "type": "address"
        },
        {
          "indexed": false,
          "name": "name",
          "type": "string"
        }
      ],
      "name": "UserNameChanged",
      "type": "event"
    },
    {
      "constant": false,
      "inputs": [
        {
          "name": "_twoKeySingletonesRegistry",
          "type": "address"
        },
        {
          "name": "_proxyStorage",
          "type": "address"
        }
      ],
      "name": "setInitialParams",
      "outputs": [],
      "payable": false,
      "stateMutability": "nonpayable",
      "type": "function"
    },
    {
      "constant": false,
      "inputs": [
        {
          "name": "_name",
          "type": "string"
        },
        {
          "name": "_sender",
          "type": "address"
        },
        {
          "name": "_fullName",
          "type": "string"
        },
        {
          "name": "_email",
          "type": "string"
        },
        {
          "name": "_username_walletName",
          "type": "string"
        },
        {
          "name": "_signatureName",
          "type": "bytes"
        },
        {
          "name": "_signatureWalletName",
          "type": "bytes"
        }
      ],
      "name": "addNameAndSetWalletName",
      "outputs": [],
      "payable": false,
      "stateMutability": "nonpayable",
      "type": "function"
    },
    {
      "constant": false,
      "inputs": [
        {
          "name": "_name",
          "type": "string"
        },
        {
          "name": "_sender",
          "type": "address"
        },
        {
          "name": "_fullName",
          "type": "string"
        },
        {
          "name": "_email",
          "type": "string"
        },
        {
          "name": "signature",
          "type": "bytes"
        }
      ],
      "name": "addName",
      "outputs": [],
      "payable": false,
      "stateMutability": "nonpayable",
      "type": "function"
    },
    {
      "constant": false,
      "inputs": [
        {
          "name": "_name",
          "type": "string"
        },
        {
          "name": "external_sig",
          "type": "bytes"
        }
      ],
      "name": "addNameSigned",
      "outputs": [],
      "payable": false,
      "stateMutability": "nonpayable",
      "type": "function"
    },
    {
      "constant": false,
      "inputs": [
        {
          "name": "note",
          "type": "bytes"
        }
      ],
      "name": "setNoteByUser",
      "outputs": [],
      "payable": false,
      "stateMutability": "nonpayable",
      "type": "function"
    },
    {
      "constant": false,
      "inputs": [
        {
          "name": "username",
          "type": "string"
        },
        {
          "name": "_address",
          "type": "address"
        },
        {
          "name": "_username_walletName",
          "type": "string"
        },
        {
          "name": "signature",
          "type": "bytes"
        }
      ],
      "name": "setWalletName",
      "outputs": [],
      "payable": false,
      "stateMutability": "nonpayable",
      "type": "function"
    },
    {
      "constant": false,
      "inputs": [
        {
          "name": "sig",
          "type": "bytes"
        }
      ],
      "name": "addPlasma2EthereumByUser",
      "outputs": [],
      "payable": false,
      "stateMutability": "nonpayable",
      "type": "function"
    },
    {
      "constant": false,
      "inputs": [
        {
          "name": "sig",
          "type": "bytes"
        },
        {
          "name": "note",
          "type": "bytes"
        },
        {
          "name": "external_sig",
          "type": "bytes"
        }
      ],
      "name": "setPlasma2EthereumAndNoteSigned",
      "outputs": [],
      "payable": false,
      "stateMutability": "nonpayable",
      "type": "function"
    },
    {
      "constant": true,
      "inputs": [
        {
          "name": "_name",
          "type": "string"
        }
      ],
      "name": "getUserName2UserAddress",
      "outputs": [
        {
          "name": "",
          "type": "address"
        }
      ],
      "payable": false,
      "stateMutability": "view",
      "type": "function"
    },
    {
      "constant": true,
      "inputs": [
        {
          "name": "_sender",
          "type": "address"
        }
      ],
      "name": "getUserAddress2UserName",
      "outputs": [
        {
          "name": "",
          "type": "string"
        }
      ],
      "payable": false,
      "stateMutability": "view",
      "type": "function"
    },
    {
      "constant": true,
      "inputs": [
        {
          "name": "plasma",
          "type": "address"
        }
      ],
      "name": "getPlasmaToEthereum",
      "outputs": [
        {
          "name": "",
          "type": "address"
        }
      ],
      "payable": false,
      "stateMutability": "view",
      "type": "function"
    },
    {
      "constant": true,
      "inputs": [
        {
          "name": "ethereum",
          "type": "address"
        }
      ],
      "name": "getEthereumToPlasma",
      "outputs": [
        {
          "name": "",
          "type": "address"
        }
      ],
      "payable": false,
      "stateMutability": "view",
      "type": "function"
    },
    {
      "constant": true,
      "inputs": [
        {
          "name": "_userAddress",
          "type": "address"
        }
      ],
      "name": "checkIfUserExists",
      "outputs": [
        {
          "name": "",
          "type": "bool"
        }
      ],
      "payable": false,
      "stateMutability": "view",
      "type": "function"
    },
    {
      "constant": true,
      "inputs": [
        {
          "name": "_user",
          "type": "address"
        }
      ],
      "name": "getUserData",
      "outputs": [
        {
          "name": "",
          "type": "bytes"
        }
      ],
      "payable": false,
      "stateMutability": "view",
      "type": "function"
    },
    {
      "constant": true,
      "inputs": [
        {
          "name": "keyAddress",
          "type": "address"
        }
      ],
      "name": "notes",
      "outputs": [
        {
          "name": "",
          "type": "bytes"
        }
      ],
      "payable": false,
      "stateMutability": "view",
      "type": "function"
    },
    {
      "constant": true,
      "inputs": [
        {
          "name": "keyAddress",
          "type": "address"
        }
      ],
      "name": "address2walletTag",
      "outputs": [
        {
          "name": "",
          "type": "bytes32"
        }
      ],
      "payable": false,
      "stateMutability": "view",
      "type": "function"
    },
    {
      "constant": true,
      "inputs": [
        {
          "name": "walletTag",
          "type": "bytes32"
        }
      ],
      "name": "walletTag2address",
      "outputs": [
        {
          "name": "",
          "type": "address"
        }
      ],
      "payable": false,
      "stateMutability": "view",
      "type": "function"
    },
    {
      "constant": true,
      "inputs": [
        {
          "name": "keyAddress",
          "type": "address"
        }
      ],
      "name": "address2username",
      "outputs": [
        {
          "name": "",
          "type": "string"
        }
      ],
      "payable": false,
      "stateMutability": "view",
      "type": "function"
    },
    {
      "constant": true,
      "inputs": [
        {
          "name": "_username",
          "type": "bytes32"
        }
      ],
      "name": "username2currentAddress",
      "outputs": [
        {
          "name": "",
          "type": "address"
        }
      ],
      "payable": false,
      "stateMutability": "view",
      "type": "function"
    }
  ],
  "bytecode": "0x608060405234801561001057600080fd5b50615bbf80620000216000396000f30060806040526004361061013e576000357c0100000000000000000000000000000000000000000000000000000000900463ffffffff16806305dbe4121461014357806307c24011146101a6578063105005a114610262578063127528d3146102b95780631888b887146103225780634143a6fd146104175780634644d9b2146104c65780635c60da1b146105825780636259b3b7146105d95780638830afa01461073457806389ca37821461078b5780638b81f21f146107f45780639371de2b14610853578063a5a37104146108ae578063a9bd894514610929578063b839706514610984578063bd93644a14610a07578063c04adc0114610ac3578063c4d66de814610caa578063d5b9399b14610ce0578063ec6c200014610df5578063edab043714610e66578063f7a0210b14610ee9578063ffc9896b14610f5a575b600080fd5b34801561014f57600080fd5b506101a4600480360381019080803573ffffffffffffffffffffffffffffffffffffffff169060200190929190803573ffffffffffffffffffffffffffffffffffffffff169060200190929190505050611016565b005b3480156101b257600080fd5b506101e7600480360381019080803573ffffffffffffffffffffffffffffffffffffffff1690602001909291905050506110d9565b6040518080602001828103825283818151815260200191508051906020019080838360005b8381101561022757808201518184015260208101905061020c565b50505050905090810190601f1680156102545780820380516001836020036101000a031916815260200191505b509250505060405180910390f35b34801561026e57600080fd5b50610277611284565b604051808273ffffffffffffffffffffffffffffffffffffffff1673ffffffffffffffffffffffffffffffffffffffff16815260200191505060405180910390f35b3480156102c557600080fd5b50610320600480360381019080803590602001908201803590602001908080601f01602080910402602001604051908101604052809392919081815260200183838082843782019150505050505091929192905050506112aa565b005b34801561032e57600080fd5b50610415600480360381019080803590602001908201803590602001908080601f0160208091040260200160405190810160405280939291908181526020018383808284378201915050505050509192919290803590602001908201803590602001908080601f0160208091040260200160405190810160405280939291908181526020018383808284378201915050505050509192919290803590602001908201803590602001908080601f01602080910402602001604051908101604052809392919081815260200183838082843782019150505050505091929192905050506112b7565b005b34801561042357600080fd5b506104c4600480360381019080803590602001908201803590602001908080601f0160208091040260200160405190810160405280939291908181526020018383808284378201915050505050509192919290803590602001908201803590602001908080601f0160208091040260200160405190810160405280939291908181526020018383808284378201915050505050509192919290505050611734565b005b3480156104d257600080fd5b50610507600480360381019080803573ffffffffffffffffffffffffffffffffffffffff169060200190929190505050611b58565b6040518080602001828103825283818151815260200191508051906020019080838360005b8381101561054757808201518184015260208101905061052c565b50505050905090810190601f1680156105745780820380516001836020036101000a031916815260200191505b509250505060405180910390f35b34801561058e57600080fd5b50610597611d03565b604051808273ffffffffffffffffffffffffffffffffffffffff1673ffffffffffffffffffffffffffffffffffffffff16815260200191505060405180910390f35b3480156105e557600080fd5b50610732600480360381019080803590602001908201803590602001908080601f0160208091040260200160405190810160405280939291908181526020018383808284378201915050505050509192919290803573ffffffffffffffffffffffffffffffffffffffff169060200190929190803590602001908201803590602001908080601f0160208091040260200160405190810160405280939291908181526020018383808284378201915050505050509192919290803590602001908201803590602001908080601f0160208091040260200160405190810160405280939291908181526020018383808284378201915050505050509192919290803590602001908201803590602001908080601f0160208091040260200160405190810160405280939291908181526020018383808284378201915050505050509192919290505050611d2d565b005b34801561074057600080fd5b5061074961265a565b604051808273ffffffffffffffffffffffffffffffffffffffff1673ffffffffffffffffffffffffffffffffffffffff16815260200191505060405180910390f35b34801561079757600080fd5b506107f2600480360381019080803590602001908201803590602001908080601f0160208091040260200160405190810160405280939291908181526020018383808284378201915050505050509192919290505050612680565b005b34801561080057600080fd5b50610835600480360381019080803573ffffffffffffffffffffffffffffffffffffffff16906020019092919050505061268d565b60405180826000191660001916815260200191505060405180910390f35b34801561085f57600080fd5b50610894600480360381019080803573ffffffffffffffffffffffffffffffffffffffff1690602001909291905050506127e2565b604051808215151515815260200191505060405180910390f35b3480156108ba57600080fd5b506108e7600480360381019080803590602001908201803590602001919091929391929390505050612e50565b604051808273ffffffffffffffffffffffffffffffffffffffff1673ffffffffffffffffffffffffffffffffffffffff16815260200191505060405180910390f35b34801561093557600080fd5b5061096a600480360381019080803573ffffffffffffffffffffffffffffffffffffffff169060200190929190505050612fb2565b604051808215151515815260200191505060405180910390f35b34801561099057600080fd5b506109c5600480360381019080803573ffffffffffffffffffffffffffffffffffffffff1690602001909291905050506130d3565b604051808273ffffffffffffffffffffffffffffffffffffffff1673ffffffffffffffffffffffffffffffffffffffff16815260200191505060405180910390f35b348015610a1357600080fd5b50610a48600480360381019080803573ffffffffffffffffffffffffffffffffffffffff169060200190929190505050613272565b6040518080602001828103825283818151815260200191508051906020019080838360005b83811015610a88578082015181840152602081019050610a6d565b50505050905090810190601f168015610ab55780820380516001836020036101000a031916815260200191505b509250505060405180910390f35b348015610acf57600080fd5b50610ca8600480360381019080803590602001908201803590602001908080601f0160208091040260200160405190810160405280939291908181526020018383808284378201915050505050509192919290803573ffffffffffffffffffffffffffffffffffffffff169060200190929190803590602001908201803590602001908080601f0160208091040260200160405190810160405280939291908181526020018383808284378201915050505050509192919290803590602001908201803590602001908080601f0160208091040260200160405190810160405280939291908181526020018383808284378201915050505050509192919290803590602001908201803590602001908080601f0160208091040260200160405190810160405280939291908181526020018383808284378201915050505050509192919290803590602001908201803590602001908080601f0160208091040260200160405190810160405280939291908181526020018383808284378201915050505050509192919290803590602001908201803590602001908080601f016020809104026020016040519081016040528093929190818152602001838380828437820191505050505050919291929050505061341d565b005b610cde600480360381019080803573ffffffffffffffffffffffffffffffffffffffff169060200190929190505050613563565b005b348015610cec57600080fd5b50610df3600480360381019080803590602001908201803590602001908080601f0160208091040260200160405190810160405280939291908181526020018383808284378201915050505050509192919290803573ffffffffffffffffffffffffffffffffffffffff169060200190929190803590602001908201803590602001908080601f0160208091040260200160405190810160405280939291908181526020018383808284378201915050505050509192919290803590602001908201803590602001908080601f01602080910402602001604051908101604052809392919081815260200183838082843782019150505050505091929192905050506135c1565b005b348015610e0157600080fd5b50610e246004803603810190808035600019169060200190929190505050613dc5565b604051808273ffffffffffffffffffffffffffffffffffffffff1673ffffffffffffffffffffffffffffffffffffffff16815260200191505060405180910390f35b348015610e7257600080fd5b50610ea7600480360381019080803573ffffffffffffffffffffffffffffffffffffffff169060200190929190505050613ee7565b604051808273ffffffffffffffffffffffffffffffffffffffff1673ffffffffffffffffffffffffffffffffffffffff16815260200191505060405180910390f35b348015610ef557600080fd5b50610f186004803603810190808035600019169060200190929190505050614086565b604051808273ffffffffffffffffffffffffffffffffffffffff1673ffffffffffffffffffffffffffffffffffffffff16815260200191505060405180910390f35b348015610f6657600080fd5b50610f9b600480360381019080803573ffffffffffffffffffffffffffffffffffffffff1690602001909291905050506141a8565b6040518080602001828103825283818151815260200191508051906020019080838360005b83811015610fdb578082015181840152602081019050610fc0565b50505050905090810190601f1680156110085780820380516001836020036101000a031916815260200191505b509250505060405180910390f35b60001515600260149054906101000a900460ff16151514151561103857600080fd5b81600260006101000a81548173ffffffffffffffffffffffffffffffffffffffff021916908373ffffffffffffffffffffffffffffffffffffffff16021790555080600360006101000a81548173ffffffffffffffffffffffffffffffffffffffff021916908373ffffffffffffffffffffffffffffffffffffffff1602179055506001600260146101000a81548160ff0219169083151502179055505050565b6060600360009054906101000a900473ffffffffffffffffffffffffffffffffffffffff1673ffffffffffffffffffffffffffffffffffffffff1663986e791a8360405180807f6164647265737332757365726e616d65000000000000000000000000000000008152506010018273ffffffffffffffffffffffffffffffffffffffff1673ffffffffffffffffffffffffffffffffffffffff166c0100000000000000000000000002815260140191505060405180910390206040518263ffffffff167c0100000000000000000000000000000000000000000000000000000000028152600401808260001916600019168152602001915050600060405180830381600087803b1580156111ec57600080fd5b505af1158015611200573d6000803e3d6000fd5b505050506040513d6000823e3d601f19601f82011682018060405250602081101561122a57600080fd5b81019080805164010000000081111561124257600080fd5b8281019050602081018481111561125857600080fd5b815185600182028301116401000000008211171561127557600080fd5b50509291905050509050919050565b600360009054906101000a900473ffffffffffffffffffffffffffffffffffffffff1681565b6112b4813361478d565b50565b60008060405160200180807f62797465732062696e64696e6720746f20657468657265756d2d706c61736d6181525060200190506040516020818303038152906040526040518082805190602001908083835b60208310151561132f578051825260208201915060208101905060208303925061130a565b6001836020036101000a038019825116818451168082178552505050505050905001915050604051809103902085856040516020018083805190602001908083835b6020831015156113965780518252602082019150602081019050602083039250611371565b6001836020036101000a03801982511681845116808217855250505050505090500182805190602001908083835b6020831015156113e957805182526020820191506020810190506020830392506113c4565b6001836020036101000a038019825116818451168082178552505050505050905001925050506040516020818303038152906040526040518082805190602001908083835b602083101515611453578051825260208201915060208101905060208303925061142e565b6001836020036101000a03801982511681845116808217855250505050505090500191505060405180910390206040516020018083600019166000191681526020018260001916600019168152602001925050506040516020818303038152906040526040518082805190602001908083835b6020831015156114eb57805182526020820191506020810190506020830392506114c6565b6001836020036101000a0380198251168184511680821785525050505050509050019150506040518091039020915073__Call__________________________________638b2c6d41838560006040518463ffffffff167c010000000000000000000000000000000000000000000000000000000002815260040180846000191660001916815260200180602001838152602001828103825284818151815260200191508051906020019080838360005b838110156115b757808201518184015260208101905061159c565b50505050905090810190601f1680156115e45780820380516001836020036101000a031916815260200191505b5094505050505060206040518083038186803b15801561160357600080fd5b505af4158015611617573d6000803e3d6000fd5b505050506040513d602081101561162d57600080fd5b810190808051906020019092919050505090508073ffffffffffffffffffffffffffffffffffffffff163373ffffffffffffffffffffffffffffffffffffffff16148061167f575061167e3361492d565b5b1515611719576040517f08c379a00000000000000000000000000000000000000000000000000000000081526004018080602001828103825260328152602001807f6f6e6c79206d61696e7461696e6572206f7220757365722063616e206368616e81526020017f676520657468657265756d2d706c61736d61000000000000000000000000000081525060400191505060405180910390fd5b6117238582614a4e565b61172d848261478d565b5050505050565b60008060405160200180807f62797465732062696e64696e6720746f206e616d65000000000000000000000081525060150190506040516020818303038152906040526040518082805190602001908083835b6020831015156117ac5780518252602082019150602081019050602083039250611787565b6001836020036101000a0380198251168184511680821785525050505050509050019150506040518091039020846040516020018082805190602001908083835b60208310151561181257805182526020820191506020810190506020830392506117ed565b6001836020036101000a0380198251168184511680821785525050505050509050019150506040516020818303038152906040526040518082805190602001908083835b60208310151561187b5780518252602082019150602081019050602083039250611856565b6001836020036101000a03801982511681845116808217855250505050505090500191505060405180910390206040516020018083600019166000191681526020018260001916600019168152602001925050506040516020818303038152906040526040518082805190602001908083835b60208310151561191357805182526020820191506020810190506020830392506118ee565b6001836020036101000a0380198251168184511680821785525050505050509050019150506040518091039020915073__Call__________________________________638b2c6d41838560006040518463ffffffff167c010000000000000000000000000000000000000000000000000000000002815260040180846000191660001916815260200180602001838152602001828103825284818151815260200191508051906020019080838360005b838110156119df5780820151818401526020810190506119c4565b50505050905090810190601f168015611a0c5780820380516001836020036101000a031916815260200191505b5094505050505060206040518083038186803b158015611a2b57600080fd5b505af4158015611a3f573d6000803e3d6000fd5b505050506040513d6020811015611a5557600080fd5b810190808051906020019092919050505090508073ffffffffffffffffffffffffffffffffffffffff163373ffffffffffffffffffffffffffffffffffffffff161480611aae575060011515611aaa3361492d565b1515145b1515611b48576040517f08c379a00000000000000000000000000000000000000000000000000000000081526004018080602001828103825260278152602001807f6f6e6c79206d61696e7461696e6572206f7220757365722063616e206368616e81526020017f6765206e616d650000000000000000000000000000000000000000000000000081525060400191505060405180910390fd5b611b5284826152e1565b50505050565b6060600360009054906101000a900473ffffffffffffffffffffffffffffffffffffffff1673ffffffffffffffffffffffffffffffffffffffff1663986e791a8360405180807f6164647265737332757365726e616d65000000000000000000000000000000008152506010018273ffffffffffffffffffffffffffffffffffffffff1673ffffffffffffffffffffffffffffffffffffffff166c0100000000000000000000000002815260140191505060405180910390206040518263ffffffff167c0100000000000000000000000000000000000000000000000000000000028152600401808260001916600019168152602001915050600060405180830381600087803b158015611c6b57600080fd5b505af1158015611c7f573d6000803e3d6000fd5b505050506040513d6000823e3d601f19601f820116820180604052506020811015611ca957600080fd5b810190808051640100000000811115611cc157600080fd5b82810190506020810184811115611cd757600080fd5b8151856001820283011164010000000082111715611cf457600080fd5b50509291905050509050919050565b6000600160009054906101000a900473ffffffffffffffffffffffffffffffffffffffff16905090565b6060600080600080600060011515611d443361492d565b15151480611d7d57503073ffffffffffffffffffffffffffffffffffffffff163373ffffffffffffffffffffffffffffffffffffffff16145b1515611d8857600080fd5b611d938b8a8a61579c565b955060405160200180807f62797465732062696e64696e6720746f206e616d65000000000000000000000081525060150190506040516020818303038152906040526040518082805190602001908083835b602083101515611e0a5780518252602082019150602081019050602083039250611de5565b6001836020036101000a0380198251168184511680821785525050505050509050019150506040518091039020866040516020018082805190602001908083835b602083101515611e705780518252602082019150602081019050602083039250611e4b565b6001836020036101000a0380198251168184511680821785525050505050509050019150506040516020818303038152906040526040518082805190602001908083835b602083101515611ed95780518252602082019150602081019050602083039250611eb4565b6001836020036101000a03801982511681845116808217855250505050505090500191505060405180910390206040516020018083600019166000191681526020018260001916600019168152602001925050506040516020818303038152906040526040518082805190602001908083835b602083101515611f715780518252602082019150602081019050602083039250611f4c565b6001836020036101000a0380198251168184511680821785525050505050509050019150506040518091039020945073__Call__________________________________638b2c6d41868960006040518463ffffffff167c010000000000000000000000000000000000000000000000000000000002815260040180846000191660001916815260200180602001838152602001828103825284818151815260200191508051906020019080838360005b8381101561203d578082015181840152602081019050612022565b50505050905090810190601f16801561206a5780820380516001836020036101000a031916815260200191505b5094505050505060206040518083038186803b15801561208957600080fd5b505af415801561209d573d6000803e3d6000fd5b505050506040513d60208110156120b357600080fd5b810190808051906020019092919050505093508973ffffffffffffffffffffffffffffffffffffffff168473ffffffffffffffffffffffffffffffffffffffff1614151561210057600080fd5b8960405180807f61646472657373546f5573657244617461000000000000000000000000000000815250601101807f757365726e616d650000000000000000000000000000000000000000000000008152506008018273ffffffffffffffffffffffffffffffffffffffff1673ffffffffffffffffffffffffffffffffffffffff166c01000000000000000000000000028152601401915050604051809103902092508960405180807f61646472657373546f5573657244617461000000000000000000000000000000815250601101807f66756c6c4e616d650000000000000000000000000000000000000000000000008152506008018273ffffffffffffffffffffffffffffffffffffffff1673ffffffffffffffffffffffffffffffffffffffff166c01000000000000000000000000028152601401915050604051809103902091508960405180807f61646472657373546f5573657244617461000000000000000000000000000000815250601101807f656d61696c0000000000000000000000000000000000000000000000000000008152506005018273ffffffffffffffffffffffffffffffffffffffff1673ffffffffffffffffffffffffffffffffffffffff166c0100000000000000000000000002815260140191505060405180910390209050600360009054906101000a900473ffffffffffffffffffffffffffffffffffffffff1673ffffffffffffffffffffffffffffffffffffffff16636e899550848d6040518363ffffffff167c010000000000000000000000000000000000000000000000000000000002815260040180836000191660001916815260200180602001828103825283818151815260200191508051906020019080838360005b838110156123a2578082015181840152602081019050612387565b50505050905090810190601f1680156123cf5780820380516001836020036101000a031916815260200191505b509350505050600060405180830381600087803b1580156123ef57600080fd5b505af1158015612403573d6000803e3d6000fd5b50505050600360009054906101000a900473ffffffffffffffffffffffffffffffffffffffff1673ffffffffffffffffffffffffffffffffffffffff16636e899550838b6040518363ffffffff167c010000000000000000000000000000000000000000000000000000000002815260040180836000191660001916815260200180602001828103825283818151815260200191508051906020019080838360005b838110156124c05780820151818401526020810190506124a5565b50505050905090810190601f1680156124ed5780820380516001836020036101000a031916815260200191505b509350505050600060405180830381600087803b15801561250d57600080fd5b505af1158015612521573d6000803e3d6000fd5b50505050600360009054906101000a900473ffffffffffffffffffffffffffffffffffffffff1673ffffffffffffffffffffffffffffffffffffffff16636e899550828a6040518363ffffffff167c010000000000000000000000000000000000000000000000000000000002815260040180836000191660001916815260200180602001828103825283818151815260200191508051906020019080838360005b838110156125de5780820151818401526020810190506125c3565b50505050905090810190601f16801561260b5780820380516001836020036101000a031916815260200191505b509350505050600060405180830381600087803b15801561262b57600080fd5b505af115801561263f573d6000803e3d6000fd5b5050505061264d8b8b6152e1565b5050505050505050505050565b600260009054906101000a900473ffffffffffffffffffffffffffffffffffffffff1681565b61268a8133614a4e565b50565b6000600360009054906101000a900473ffffffffffffffffffffffffffffffffffffffff1673ffffffffffffffffffffffffffffffffffffffff1663a6ed563e8360405180807f616464726573733277616c6c65745461670000000000000000000000000000008152506011018273ffffffffffffffffffffffffffffffffffffffff1673ffffffffffffffffffffffffffffffffffffffff166c0100000000000000000000000002815260140191505060405180910390206040518263ffffffff167c0100000000000000000000000000000000000000000000000000000000028152600401808260001916600019168152602001915050602060405180830381600087803b1580156127a057600080fd5b505af11580156127b4573d6000803e3d6000fd5b505050506040513d60208110156127ca57600080fd5b81019080805190602001909291905050509050919050565b600060608060008060606000600360009054906101000a900473ffffffffffffffffffffffffffffffffffffffff1673ffffffffffffffffffffffffffffffffffffffff1663986e791a8960405180807f6164647265737332757365726e616d65000000000000000000000000000000008152506010018273ffffffffffffffffffffffffffffffffffffffff1673ffffffffffffffffffffffffffffffffffffffff166c0100000000000000000000000002815260140191505060405180910390206040518263ffffffff167c0100000000000000000000000000000000000000000000000000000000028152600401808260001916600019168152602001915050600060405180830381600087803b1580156128ff57600080fd5b505af1158015612913573d6000803e3d6000fd5b505050506040513d6000823e3d601f19601f82011682018060405250602081101561293d57600080fd5b81019080805164010000000081111561295557600080fd5b8281019050602081018481111561296b57600080fd5b815185600182028301116401000000008211171561298857600080fd5b505092919050505095508594508760405180807f657468657265756d32706c61736d610000000000000000000000000000000000815250600f018273ffffffffffffffffffffffffffffffffffffffff1673ffffffffffffffffffffffffffffffffffffffff166c0100000000000000000000000002815260140191505060405180910390209350600360009054906101000a900473ffffffffffffffffffffffffffffffffffffffff1673ffffffffffffffffffffffffffffffffffffffff166321f8a721856040518263ffffffff167c0100000000000000000000000000000000000000000000000000000000028152600401808260001916600019168152602001915050602060405180830381600087803b158015612aa957600080fd5b505af1158015612abd573d6000803e3d6000fd5b505050506040513d6020811015612ad357600080fd5b81019080805190602001909291905050509250600360009054906101000a900473ffffffffffffffffffffffffffffffffffffffff1673ffffffffffffffffffffffffffffffffffffffff1663c031a1808960405180807f6e6f7465730000000000000000000000000000000000000000000000000000008152506005018273ffffffffffffffffffffffffffffffffffffffff1673ffffffffffffffffffffffffffffffffffffffff166c0100000000000000000000000002815260140191505060405180910390206040518263ffffffff167c0100000000000000000000000000000000000000000000000000000000028152600401808260001916600019168152602001915050600060405180830381600087803b158015612bf757600080fd5b505af1158015612c0b573d6000803e3d6000fd5b505050506040513d6000823e3d601f19601f820116820180604052506020811015612c3557600080fd5b810190808051640100000000811115612c4d57600080fd5b82810190506020810184811115612c6357600080fd5b8151856001820283011164010000000082111715612c8057600080fd5b50509291905050509150600360009054906101000a900473ffffffffffffffffffffffffffffffffffffffff1673ffffffffffffffffffffffffffffffffffffffff1663a6ed563e8960405180807f616464726573733277616c6c65745461670000000000000000000000000000008152506011018273ffffffffffffffffffffffffffffffffffffffff1673ffffffffffffffffffffffffffffffffffffffff166c0100000000000000000000000002815260140191505060405180910390206040518263ffffffff167c0100000000000000000000000000000000000000000000000000000000028152600401808260001916600019168152602001915050602060405180830381600087803b158015612d9b57600080fd5b505af1158015612daf573d6000803e3d6000fd5b505050506040513d6020811015612dc557600080fd5b81019080805190602001909291905050509050600085511480612def575060006001028160001916145b80612e265750600073ffffffffffffffffffffffffffffffffffffffff168373ffffffffffffffffffffffffffffffffffffffff16145b80612e32575060008251145b15612e405760009650612e45565b600196505b505050505050919050565b600080612e8e84848080601f016020809104026020016040519081016040528093929190818152602001838380828437820191505050505050615a2e565b9050600360009054906101000a900473ffffffffffffffffffffffffffffffffffffffff1673ffffffffffffffffffffffffffffffffffffffff166321f8a7218260405180807f757365726e616d653263757272656e7441646472657373000000000000000000815250601701826000191660001916815260200191505060405180910390206040518263ffffffff167c0100000000000000000000000000000000000000000000000000000000028152600401808260001916600019168152602001915050602060405180830381600087803b158015612f6e57600080fd5b505af1158015612f82573d6000803e3d6000fd5b505050506040513d6020811015612f9857600080fd5b810190808051906020019092919050505091505092915050565b600080612ff36040805190810160405280601981526020017f54776f4b65794d61696e7461696e657273526567697374727900000000000000815250615a59565b90508073ffffffffffffffffffffffffffffffffffffffff16635cc7815c846040518263ffffffff167c0100000000000000000000000000000000000000000000000000000000028152600401808273ffffffffffffffffffffffffffffffffffffffff1673ffffffffffffffffffffffffffffffffffffffff168152602001915050602060405180830381600087803b15801561309057600080fd5b505af11580156130a4573d6000803e3d6000fd5b505050506040513d60208110156130ba57600080fd5b8101908080519060200190929190505050915050919050565b60008060008360405180807f706c61736d6132657468657265756d0000000000000000000000000000000000815250600f018273ffffffffffffffffffffffffffffffffffffffff1673ffffffffffffffffffffffffffffffffffffffff166c0100000000000000000000000002815260140191505060405180910390209150600360009054906101000a900473ffffffffffffffffffffffffffffffffffffffff1673ffffffffffffffffffffffffffffffffffffffff166321f8a721836040518263ffffffff167c0100000000000000000000000000000000000000000000000000000000028152600401808260001916600019168152602001915050602060405180830381600087803b1580156131ec57600080fd5b505af1158015613200573d6000803e3d6000fd5b505050506040513d602081101561321657600080fd5b81019080805190602001909291905050509050600073ffffffffffffffffffffffffffffffffffffffff168173ffffffffffffffffffffffffffffffffffffffff161415156132675780925061326b565b8392505b5050919050565b6060600360009054906101000a900473ffffffffffffffffffffffffffffffffffffffff1673ffffffffffffffffffffffffffffffffffffffff1663c031a1808360405180807f6e6f7465730000000000000000000000000000000000000000000000000000008152506005018273ffffffffffffffffffffffffffffffffffffffff1673ffffffffffffffffffffffffffffffffffffffff166c0100000000000000000000000002815260140191505060405180910390206040518263ffffffff167c0100000000000000000000000000000000000000000000000000000000028152600401808260001916600019168152602001915050600060405180830381600087803b15801561338557600080fd5b505af1158015613399573d6000803e3d6000fd5b505050506040513d6000823e3d601f19601f8201168201806040525060208110156133c357600080fd5b8101908080516401000000008111156133db57600080fd5b828101905060208101848111156133f157600080fd5b815185600182028301116401000000008211171561340e57600080fd5b50509291905050509050919050565b600061345d6040805190810160405280601981526020017f54776f4b65794d61696e7461696e657273526567697374727900000000000000815250615a59565b90508073ffffffffffffffffffffffffffffffffffffffff16635cc7815c336040518263ffffffff167c0100000000000000000000000000000000000000000000000000000000028152600401808273ffffffffffffffffffffffffffffffffffffffff1673ffffffffffffffffffffffffffffffffffffffff168152602001915050602060405180830381600087803b1580156134fa57600080fd5b505af115801561350e573d6000803e3d6000fd5b505050506040513d602081101561352457600080fd5b8101908080519060200190929190505050151561354057600080fd5b61354d8888888887611d2d565b613559888886856135c1565b5050505050505050565b6000809054906101000a900473ffffffffffffffffffffffffffffffffffffffff1673ffffffffffffffffffffffffffffffffffffffff163373ffffffffffffffffffffffffffffffffffffffff161415156135be57600080fd5b50565b60008060606000806000806000600115156135db3361492d565b1515148061361457503073ffffffffffffffffffffffffffffffffffffffff163373ffffffffffffffffffffffffffffffffffffffff16145b151561361f57600080fd5b600073ffffffffffffffffffffffffffffffffffffffff168b73ffffffffffffffffffffffffffffffffffffffff161415151561365b57600080fd5b6136648c615a2e565b9750600360009054906101000a900473ffffffffffffffffffffffffffffffffffffffff1673ffffffffffffffffffffffffffffffffffffffff166321f8a7218960405180807f757365726e616d653263757272656e7441646472657373000000000000000000815250601701826000191660001916815260200191505060405180910390206040518263ffffffff167c0100000000000000000000000000000000000000000000000000000000028152600401808260001916600019168152602001915050602060405180830381600087803b15801561374457600080fd5b505af1158015613758573d6000803e3d6000fd5b505050506040513d602081101561376e57600080fd5b810190808051906020019092919050505096508a73ffffffffffffffffffffffffffffffffffffffff168773ffffffffffffffffffffffffffffffffffffffff161415156137bb57600080fd5b6137d68c8b602060405190810160405280600081525061579c565b955060405160200180807f62797465732062696e64696e6720746f206e616d65000000000000000000000081525060150190506040516020818303038152906040526040518082805190602001908083835b60208310151561384d5780518252602082019150602081019050602083039250613828565b6001836020036101000a0380198251168184511680821785525050505050509050019150506040518091039020866040516020018082805190602001908083835b6020831015156138b3578051825260208201915060208101905060208303925061388e565b6001836020036101000a0380198251168184511680821785525050505050509050019150506040516020818303038152906040526040518082805190602001908083835b60208310151561391c57805182526020820191506020810190506020830392506138f7565b6001836020036101000a03801982511681845116808217855250505050505090500191505060405180910390206040516020018083600019166000191681526020018260001916600019168152602001925050506040516020818303038152906040526040518082805190602001908083835b6020831015156139b4578051825260208201915060208101905060208303925061398f565b6001836020036101000a0380198251168184511680821785525050505050509050019150506040518091039020945073__Call__________________________________638b2c6d41868b60006040518463ffffffff167c010000000000000000000000000000000000000000000000000000000002815260040180846000191660001916815260200180602001838152602001828103825284818151815260200191508051906020019080838360005b83811015613a80578082015181840152602081019050613a65565b50505050905090810190601f168015613aad5780820380516001836020036101000a031916815260200191505b5094505050505060206040518083038186803b158015613acc57600080fd5b505af4158015613ae0573d6000803e3d6000fd5b505050506040513d6020811015613af657600080fd5b810190808051906020019092919050505093508a73ffffffffffffffffffffffffffffffffffffffff168473ffffffffffffffffffffffffffffffffffffffff16141515613b4357600080fd5b613b4c8a615a2e565b92508a60405180807f616464726573733277616c6c65745461670000000000000000000000000000008152506011018273ffffffffffffffffffffffffffffffffffffffff1673ffffffffffffffffffffffffffffffffffffffff166c0100000000000000000000000002815260140191505060405180910390209150600360009054906101000a900473ffffffffffffffffffffffffffffffffffffffff1673ffffffffffffffffffffffffffffffffffffffff16634e91db0883856040518363ffffffff167c0100000000000000000000000000000000000000000000000000000000028152600401808360001916600019168152602001826000191660001916815260200192505050600060405180830381600087803b158015613c7257600080fd5b505af1158015613c86573d6000803e3d6000fd5b505050508260405180807f77616c6c65745461673261646472657373000000000000000000000000000000815250601101826000191660001916815260200191505060405180910390209050600360009054906101000a900473ffffffffffffffffffffffffffffffffffffffff1673ffffffffffffffffffffffffffffffffffffffff1663ca446dd9828d6040518363ffffffff167c01000000000000000000000000000000000000000000000000000000000281526004018083600019166000191681526020018273ffffffffffffffffffffffffffffffffffffffff1673ffffffffffffffffffffffffffffffffffffffff16815260200192505050600060405180830381600087803b158015613d9f57600080fd5b505af1158015613db3573d6000803e3d6000fd5b50505050505050505050505050505050565b6000600360009054906101000a900473ffffffffffffffffffffffffffffffffffffffff1673ffffffffffffffffffffffffffffffffffffffff166321f8a7218360405180807f757365726e616d653263757272656e7441646472657373000000000000000000815250601701826000191660001916815260200191505060405180910390206040518263ffffffff167c0100000000000000000000000000000000000000000000000000000000028152600401808260001916600019168152602001915050602060405180830381600087803b158015613ea557600080fd5b505af1158015613eb9573d6000803e3d6000fd5b505050506040513d6020811015613ecf57600080fd5b81019080805190602001909291905050509050919050565b60008060008360405180807f657468657265756d32706c61736d610000000000000000000000000000000000815250600f018273ffffffffffffffffffffffffffffffffffffffff1673ffffffffffffffffffffffffffffffffffffffff166c0100000000000000000000000002815260140191505060405180910390209150600360009054906101000a900473ffffffffffffffffffffffffffffffffffffffff1673ffffffffffffffffffffffffffffffffffffffff166321f8a721836040518263ffffffff167c0100000000000000000000000000000000000000000000000000000000028152600401808260001916600019168152602001915050602060405180830381600087803b15801561400057600080fd5b505af1158015614014573d6000803e3d6000fd5b505050506040513d602081101561402a57600080fd5b81019080805190602001909291905050509050600073ffffffffffffffffffffffffffffffffffffffff168173ffffffffffffffffffffffffffffffffffffffff1614151561407b5780925061407f565b8392505b5050919050565b6000600360009054906101000a900473ffffffffffffffffffffffffffffffffffffffff1673ffffffffffffffffffffffffffffffffffffffff166321f8a7218360405180807f77616c6c65745461673261646472657373000000000000000000000000000000815250601101826000191660001916815260200191505060405180910390206040518263ffffffff167c0100000000000000000000000000000000000000000000000000000000028152600401808260001916600019168152602001915050602060405180830381600087803b15801561416657600080fd5b505af115801561417a573d6000803e3d6000fd5b505050506040513d602081101561419057600080fd5b81019080805190602001909291905050509050919050565b60606000806000806000808760405180807f61646472657373546f5573657244617461000000000000000000000000000000815250601101807f757365726e616d650000000000000000000000000000000000000000000000008152506008018273ffffffffffffffffffffffffffffffffffffffff1673ffffffffffffffffffffffffffffffffffffffff166c01000000000000000000000000028152601401915050604051809103902095508760405180807f61646472657373546f5573657244617461000000000000000000000000000000815250601101807f66756c6c4e616d650000000000000000000000000000000000000000000000008152506008018273ffffffffffffffffffffffffffffffffffffffff1673ffffffffffffffffffffffffffffffffffffffff166c01000000000000000000000000028152601401915050604051809103902094508760405180807f61646472657373546f5573657244617461000000000000000000000000000000815250601101807f656d61696c0000000000000000000000000000000000000000000000000000008152506005018273ffffffffffffffffffffffffffffffffffffffff1673ffffffffffffffffffffffffffffffffffffffff166c01000000000000000000000000028152601401915050604051809103902093506144ce600360009054906101000a900473ffffffffffffffffffffffffffffffffffffffff1673ffffffffffffffffffffffffffffffffffffffff1663986e791a886040518263ffffffff167c0100000000000000000000000000000000000000000000000000000000028152600401808260001916600019168152602001915050600060405180830381600087803b15801561443857600080fd5b505af115801561444c573d6000803e3d6000fd5b505050506040513d6000823e3d601f19601f82011682018060405250602081101561447657600080fd5b81019080805164010000000081111561448e57600080fd5b828101905060208101848111156144a457600080fd5b81518560018202830111640100000000821117156144c157600080fd5b5050929190505050615a2e565b9250614602600360009054906101000a900473ffffffffffffffffffffffffffffffffffffffff1673ffffffffffffffffffffffffffffffffffffffff1663986e791a876040518263ffffffff167c0100000000000000000000000000000000000000000000000000000000028152600401808260001916600019168152602001915050600060405180830381600087803b15801561456c57600080fd5b505af1158015614580573d6000803e3d6000fd5b505050506040513d6000823e3d601f19601f8201168201806040525060208110156145aa57600080fd5b8101908080516401000000008111156145c257600080fd5b828101905060208101848111156145d857600080fd5b81518560018202830111640100000000821117156145f557600080fd5b5050929190505050615a2e565b9150614736600360009054906101000a900473ffffffffffffffffffffffffffffffffffffffff1673ffffffffffffffffffffffffffffffffffffffff1663986e791a866040518263ffffffff167c0100000000000000000000000000000000000000000000000000000000028152600401808260001916600019168152602001915050600060405180830381600087803b1580156146a057600080fd5b505af11580156146b4573d6000803e3d6000fd5b505050506040513d6000823e3d601f19601f8201168201806040525060208110156146de57600080fd5b8101908080516401000000008111156146f657600080fd5b8281019050602081018481111561470c57600080fd5b815185600182028301116401000000008211171561472957600080fd5b5050929190505050615a2e565b90508282826040516020018084600019166000191681526020018360001916600019168152602001826000191660001916815260200193505050506040516020818303038152906040529650505050505050919050565b60008160405180807f6e6f7465730000000000000000000000000000000000000000000000000000008152506005018273ffffffffffffffffffffffffffffffffffffffff1673ffffffffffffffffffffffffffffffffffffffff166c0100000000000000000000000002815260140191505060405180910390209050600360009054906101000a900473ffffffffffffffffffffffffffffffffffffffff1673ffffffffffffffffffffffffffffffffffffffff16632e28d08482856040518363ffffffff167c010000000000000000000000000000000000000000000000000000000002815260040180836000191660001916815260200180602001828103825283818151815260200191508051906020019080838360005b838110156148c35780820151818401526020810190506148a8565b50505050905090810190601f1680156148f05780820380516001836020036101000a031916815260200191505b509350505050600060405180830381600087803b15801561491057600080fd5b505af1158015614924573d6000803e3d6000fd5b50505050505050565b60008061496e6040805190810160405280601981526020017f54776f4b65794d61696e7461696e657273526567697374727900000000000000815250615a59565b90508073ffffffffffffffffffffffffffffffffffffffff16635cc7815c846040518263ffffffff167c0100000000000000000000000000000000000000000000000000000000028152600401808273ffffffffffffffffffffffffffffffffffffffff1673ffffffffffffffffffffffffffffffffffffffff168152602001915050602060405180830381600087803b158015614a0b57600080fd5b505af1158015614a1f573d6000803e3d6000fd5b505050506040513d6020811015614a3557600080fd5b8101908080519060200190929190505050915050919050565b60008060008060405160200180807f62797465732062696e64696e6720746f20657468657265756d2061646472657381526020017f730000000000000000000000000000000000000000000000000000000000000081525060210190506040516020818303038152906040526040518082805190602001908083835b602083101515614aef5780518252602082019150602081019050602083039250614aca565b6001836020036101000a038019825116818451168082178552505050505050905001915050604051809103902085604051602001808273ffffffffffffffffffffffffffffffffffffffff1673ffffffffffffffffffffffffffffffffffffffff166c010000000000000000000000000281526014019150506040516020818303038152906040526040518082805190602001908083835b602083101515614bac5780518252602082019150602081019050602083039250614b87565b6001836020036101000a03801982511681845116808217855250505050505090500191505060405180910390206040516020018083600019166000191681526020018260001916600019168152602001925050506040516020818303038152906040526040518082805190602001908083835b602083101515614c445780518252602082019150602081019050602083039250614c1f565b6001836020036101000a0380198251168184511680821785525050505050509050019150506040518091039020935073__Call__________________________________638b2c6d41858860006040518463ffffffff167c010000000000000000000000000000000000000000000000000000000002815260040180846000191660001916815260200180602001838152602001828103825284818151815260200191508051906020019080838360005b83811015614d10578082015181840152602081019050614cf5565b50505050905090810190601f168015614d3d5780820380516001836020036101000a031916815260200191505b5094505050505060206040518083038186803b158015614d5c57600080fd5b505af4158015614d70573d6000803e3d6000fd5b505050506040513d6020811015614d8657600080fd5b810190808051906020019092919050505092508260405180807f706c61736d6132657468657265756d0000000000000000000000000000000000815250600f018273ffffffffffffffffffffffffffffffffffffffff1673ffffffffffffffffffffffffffffffffffffffff166c01000000000000000000000000028152601401915050604051809103902091508460405180807f657468657265756d32706c61736d610000000000000000000000000000000000815250600f018273ffffffffffffffffffffffffffffffffffffffff1673ffffffffffffffffffffffffffffffffffffffff166c0100000000000000000000000002815260140191505060405180910390209050600073ffffffffffffffffffffffffffffffffffffffff16600360009054906101000a900473ffffffffffffffffffffffffffffffffffffffff1673ffffffffffffffffffffffffffffffffffffffff166321f8a721846040518263ffffffff167c0100000000000000000000000000000000000000000000000000000000028152600401808260001916600019168152602001915050602060405180830381600087803b158015614f4057600080fd5b505af1158015614f54573d6000803e3d6000fd5b505050506040513d6020811015614f6a57600080fd5b810190808051906020019092919050505073ffffffffffffffffffffffffffffffffffffffff16148061509b57508473ffffffffffffffffffffffffffffffffffffffff16600360009054906101000a900473ffffffffffffffffffffffffffffffffffffffff1673ffffffffffffffffffffffffffffffffffffffff166321f8a721846040518263ffffffff167c0100000000000000000000000000000000000000000000000000000000028152600401808260001916600019168152602001915050602060405180830381600087803b15801561504857600080fd5b505af115801561505c573d6000803e3d6000fd5b505050506040513d602081101561507257600080fd5b810190808051906020019092919050505073ffffffffffffffffffffffffffffffffffffffff16145b151561510f576040517f08c379a00000000000000000000000000000000000000000000000000000000081526004018080602001828103825260178152602001807f63616e74206368616e6765206574683d3e706c61736d6100000000000000000081525060200191505060405180910390fd5b600360009054906101000a900473ffffffffffffffffffffffffffffffffffffffff1673ffffffffffffffffffffffffffffffffffffffff1663ca446dd983876040518363ffffffff167c01000000000000000000000000000000000000000000000000000000000281526004018083600019166000191681526020018273ffffffffffffffffffffffffffffffffffffffff1673ffffffffffffffffffffffffffffffffffffffff16815260200192505050600060405180830381600087803b1580156151dc57600080fd5b505af11580156151f0573d6000803e3d6000fd5b50505050600360009054906101000a900473ffffffffffffffffffffffffffffffffffffffff1673ffffffffffffffffffffffffffffffffffffffff1663ca446dd982856040518363ffffffff167c01000000000000000000000000000000000000000000000000000000000281526004018083600019166000191681526020018273ffffffffffffffffffffffffffffffffffffffff1673ffffffffffffffffffffffffffffffffffffffff16815260200192505050600060405180830381600087803b1580156152c157600080fd5b505af11580156152d5573d6000803e3d6000fd5b50505050505050505050565b60008060006152ef85615a2e565b92508260405180807f757365726e616d653263757272656e74416464726573730000000000000000008152506017018260001916600019168152602001915050604051809103902091508360405180807f6164647265737332757365726e616d65000000000000000000000000000000008152506010018273ffffffffffffffffffffffffffffffffffffffff1673ffffffffffffffffffffffffffffffffffffffff166c0100000000000000000000000002815260140191505060405180910390209050600073ffffffffffffffffffffffffffffffffffffffff16600360009054906101000a900473ffffffffffffffffffffffffffffffffffffffff1673ffffffffffffffffffffffffffffffffffffffff166321f8a721846040518263ffffffff167c0100000000000000000000000000000000000000000000000000000000028152600401808260001916600019168152602001915050602060405180830381600087803b15801561546557600080fd5b505af1158015615479573d6000803e3d6000fd5b505050506040513d602081101561548f57600080fd5b810190808051906020019092919050505073ffffffffffffffffffffffffffffffffffffffff161415156154c257600080fd5b600360009054906101000a900473ffffffffffffffffffffffffffffffffffffffff1673ffffffffffffffffffffffffffffffffffffffff16636e89955082876040518363ffffffff167c010000000000000000000000000000000000000000000000000000000002815260040180836000191660001916815260200180602001828103825283818151815260200191508051906020019080838360005b8381101561557b578082015181840152602081019050615560565b50505050905090810190601f1680156155a85780820380516001836020036101000a031916815260200191505b509350505050600060405180830381600087803b1580156155c857600080fd5b505af11580156155dc573d6000803e3d6000fd5b50505050600360009054906101000a900473ffffffffffffffffffffffffffffffffffffffff1673ffffffffffffffffffffffffffffffffffffffff1663ca446dd983866040518363ffffffff167c01000000000000000000000000000000000000000000000000000000000281526004018083600019166000191681526020018273ffffffffffffffffffffffffffffffffffffffff1673ffffffffffffffffffffffffffffffffffffffff16815260200192505050600060405180830381600087803b1580156156ad57600080fd5b505af11580156156c1573d6000803e3d6000fd5b505050507f9df5b3e0e60fff9b971dcb675e7193614408ac9f4ed701f4dfd04863c66beac18486604051808373ffffffffffffffffffffffffffffffffffffffff1673ffffffffffffffffffffffffffffffffffffffff16815260200180602001828103825283818151815260200191508051906020019080838360005b8381101561575a57808201518184015260208101905061573f565b50505050905090810190601f1680156157875780820380516001836020036101000a031916815260200191505b50935050505060405180910390a15050505050565b6060806060806060806000808a965089955088945084518651885101016040519080825280601f01601f1916602001820160405280156157eb5781602001602082028038833980820191505090505b50935083925060009150600090505b86518110156158ad57868181518110151561581157fe5b9060200101517f010000000000000000000000000000000000000000000000000000000000000090047f010000000000000000000000000000000000000000000000000000000000000002838380600101945081518110151561587057fe5b9060200101907effffffffffffffffffffffffffffffffffffffffffffffffffffffffffffff1916908160001a90535080806001019150506157fa565b600090505b85518110156159655785818151811015156158c957fe5b9060200101517f010000000000000000000000000000000000000000000000000000000000000090047f010000000000000000000000000000000000000000000000000000000000000002838380600101945081518110151561592857fe5b9060200101907effffffffffffffffffffffffffffffffffffffffffffffffffffffffffffff1916908160001a90535080806001019150506158b2565b600090505b8451811015615a1d57848181518110151561598157fe5b9060200101517f010000000000000000000000000000000000000000000000000000000000000090047f01000000000000000000000000000000000000000000000000000000000000000283838060010194508151811015156159e057fe5b9060200101907effffffffffffffffffffffffffffffffffffffffffffffffffffffffffffff1916908160001a905350808060010191505061596a565b829750505050505050509392505050565b60006060829050600081511415615a4b5760006001029150615a53565b602083015191505b50919050565b6000600260009054906101000a900473ffffffffffffffffffffffffffffffffffffffff1673ffffffffffffffffffffffffffffffffffffffff1663db7a6d90836040518263ffffffff167c01000000000000000000000000000000000000000000000000000000000281526004018080602001828103825283818151815260200191508051906020019080838360005b83811015615b05578082015181840152602081019050615aea565b50505050905090810190601f168015615b325780820380516001836020036101000a031916815260200191505b5092505050602060405180830381600087803b158015615b5157600080fd5b505af1158015615b65573d6000803e3d6000fd5b505050506040513d6020811015615b7b57600080fd5b810190808051906020019092919050505090509190505600a165627a7a72305820c988b79a880ef5c345ff5a1398101652ce4cc7c3e675df96b1f207fc3c3fd2d40029",
  "source": "pragma solidity ^0.4.24;\n\nimport \"../libraries/Call.sol\";\nimport \"../interfaces/ITwoKeyMaintainersRegistry.sol\";\nimport \"../libraries/Utils.sol\";\nimport \"../upgradability/Upgradeable.sol\";\nimport \"../interfaces/storage-contracts/ITwoKeyRegistryStorage.sol\";\nimport \"../interfaces/ITwoKeyEventSourceEvents.sol\";\nimport \"../non-upgradable-singletons/ITwoKeySingletonUtils.sol\";\n\n\ncontract TwoKeyRegistry is Upgradeable, Utils, ITwoKeySingletonUtils {\n\n    using Call for *;\n\n    bool initialized;\n\n    ITwoKeyRegistryStorage public PROXY_STORAGE_CONTRACT;\n\n    /// @notice Event is emitted when a user's name is changed\n    event UserNameChanged(address owner, string name);\n\n\n    function isMaintainer(address _caller) internal view returns (bool) {\n        address twoKeyMaintainersRegistry = getAddressFromTwoKeySingletonRegistry(\"TwoKeyMaintainersRegistry\");\n        return ITwoKeyMaintainersRegistry(twoKeyMaintainersRegistry).checkIsAddressMaintainer(_caller);\n    }\n\n\n    /**\n     * @notice Function which can be called only once\n     */\n    function setInitialParams(\n        address _twoKeySingletonesRegistry,\n        address _proxyStorage\n    )\n    external\n    {\n        require(initialized == false);\n\n        TWO_KEY_SINGLETON_REGISTRY = _twoKeySingletonesRegistry;\n        PROXY_STORAGE_CONTRACT = ITwoKeyRegistryStorage(_proxyStorage);\n\n        initialized = true;\n    }\n\n\n\n    /// @notice Function where new name/address pair is added or an old address is updated with new name\n    /// @dev private function\n    /// @param _name is name of user\n    /// @param _sender is address of user\n    function addNameInternal(\n        string _name,\n        address _sender\n    )\n    internal\n    {\n        bytes32 name = stringToBytes32(_name);\n\n        bytes32 keyHashUserNameToAddress = keccak256(\"username2currentAddress\", name);\n        bytes32 keyHashAddressToUserName = keccak256(\"address2username\", _sender);\n\n        // check if name is taken\n        if (PROXY_STORAGE_CONTRACT.getAddress(keyHashUserNameToAddress) != address(0)) {\n            revert();\n        }\n\n        PROXY_STORAGE_CONTRACT.setString(keyHashAddressToUserName, _name);\n        PROXY_STORAGE_CONTRACT.setAddress(keyHashUserNameToAddress, _sender);\n\n        emit UserNameChanged(_sender, _name);\n    }\n\n    /**\n     * @notice Function to concat this 2 functions at once\n     */\n    function addNameAndSetWalletName(\n        string _name,\n        address _sender,\n        string _fullName,\n        string _email,\n        string _username_walletName,\n        bytes _signatureName,\n        bytes _signatureWalletName\n    )\n    public\n    onlyMaintainer\n    {\n        addName(_name, _sender, _fullName, _email, _signatureName);\n        setWalletName(_name, _sender, _username_walletName, _signatureWalletName);\n    }\n\n    /// @notice Function where only admin can add a name - address pair\n    /// @param _name is name of user\n    /// @param _sender is address of user\n    function addName(\n        string _name,\n        address _sender,\n        string _fullName,\n        string _email,\n        bytes signature\n    )\n    public\n    {\n        require(isMaintainer(msg.sender)== true || msg.sender == address(this));\n\n        string memory concatenatedValues = strConcat(_name,_fullName,_email);\n        bytes32 hash = keccak256(abi.encodePacked(keccak256(abi.encodePacked(\"bytes binding to name\")),\n            keccak256(abi.encodePacked(concatenatedValues))));\n        address message_signer = Call.recoverHash(hash, signature, 0);\n        require(message_signer == _sender);\n        bytes32 keyHashUsername = keccak256(\"addressToUserData\", \"username\", _sender);\n        bytes32 keyHashFullName = keccak256(\"addressToUserData\", \"fullName\", _sender);\n        bytes32 keyHashEmail = keccak256(\"addressToUserData\", \"email\", _sender);\n\n        PROXY_STORAGE_CONTRACT.setString(keyHashUsername, _name);\n        PROXY_STORAGE_CONTRACT.setString(keyHashFullName, _fullName);\n        PROXY_STORAGE_CONTRACT.setString(keyHashEmail, _email);\n\n        addNameInternal(_name, _sender);\n    }\n\n    /// @notice Add signed name\n    /// @param _name is the name\n    /// @param external_sig is the external signature\n    function addNameSigned(\n        string _name,\n        bytes external_sig\n    )\n    public\n    {\n        bytes32 hash = keccak256(abi.encodePacked(keccak256(abi.encodePacked(\"bytes binding to name\")),\n            keccak256(abi.encodePacked(_name))));\n        address eth_address = Call.recoverHash(hash,external_sig,0);\n        require (msg.sender == eth_address || isMaintainer(msg.sender) == true, \"only maintainer or user can change name\");\n        addNameInternal(_name, eth_address);\n    }\n\n    function setNoteInternal(\n        bytes note,\n        address me\n    )\n    private\n    {\n        bytes32 keyHashNotes = keccak256(\"notes\", me);\n        PROXY_STORAGE_CONTRACT.setBytes(keyHashNotes, note);\n    }\n\n    function setNoteByUser(\n        bytes note\n    )\n    public\n    {\n        // note is a message you can store with sig. For example it could be the secret you used encrypted by you\n        setNoteInternal(note, msg.sender);\n    }\n\n\n    /// @notice Function where TwoKeyMaintainer can add walletname to address\n    /// @param username is the username of the user we want to update map for\n    /// @param _address is the address of the user we want to update map for\n    /// @param _username_walletName is the concatenated username + '_' + walletName, since sending from trusted provider no need to validate\n    function setWalletName(\n        string memory username,\n        address _address,\n        string memory _username_walletName,\n        bytes signature\n    )\n    public\n    {\n        require(isMaintainer(msg.sender) == true || msg.sender == address(this));\n        require(_address != address(0));\n        bytes32 usernameHex = stringToBytes32(username);\n        address usersAddress = PROXY_STORAGE_CONTRACT.getAddress(keccak256(\"username2currentAddress\", usernameHex));\n        require(usersAddress == _address); // validating that username exists\n\n        string memory concatenatedValues = strConcat(username,_username_walletName,\"\");\n\n        bytes32 hash = keccak256(abi.encodePacked(keccak256(abi.encodePacked(\"bytes binding to name\")),\n            keccak256(abi.encodePacked(concatenatedValues))));\n        address message_signer = Call.recoverHash(hash, signature, 0);\n        require(message_signer == _address);\n\n        bytes32 walletTag = stringToBytes32(_username_walletName);\n        bytes32 keyHashAddress2WalletTag = keccak256(\"address2walletTag\", _address);\n        PROXY_STORAGE_CONTRACT.setBytes32(keyHashAddress2WalletTag, walletTag);\n\n        bytes32 keyHashWalletTag2Address = keccak256(\"walletTag2address\", walletTag);\n        PROXY_STORAGE_CONTRACT.setAddress(keyHashWalletTag2Address, _address);\n    }\n\n    function addPlasma2EthereumInternal(\n        bytes sig,\n        address eth_address\n    )\n    private\n    {\n        // add an entry connecting msg.sender to the ethereum address that was used to sign sig.\n        // see setup_demo.js on how to generate sig\n        bytes32 hash = keccak256(abi.encodePacked(keccak256(abi.encodePacked(\"bytes binding to ethereum address\")),keccak256(abi.encodePacked(eth_address))));\n        address plasma_address = Call.recoverHash(hash,sig,0);\n        bytes32 keyHashPlasmaToEthereum = keccak256(\"plasma2ethereum\", plasma_address);\n        bytes32 keyHashEthereumToPlasma = keccak256(\"ethereum2plasma\", eth_address);\n\n        require(PROXY_STORAGE_CONTRACT.getAddress(keyHashPlasmaToEthereum) == address(0) || PROXY_STORAGE_CONTRACT.getAddress(keyHashPlasmaToEthereum) == eth_address, \"cant change eth=>plasma\");\n\n        PROXY_STORAGE_CONTRACT.setAddress(keyHashPlasmaToEthereum, eth_address);\n        PROXY_STORAGE_CONTRACT.setAddress(keyHashEthereumToPlasma, plasma_address);\n    }\n\n    function addPlasma2EthereumByUser(\n        bytes sig\n    )\n    public\n    {\n        addPlasma2EthereumInternal(sig, msg.sender);\n    }\n\n    function setPlasma2EthereumAndNoteSigned(\n        bytes sig,\n        bytes note,\n        bytes external_sig\n    )\n    public\n    {\n        bytes32 hash = keccak256(abi.encodePacked(keccak256(abi.encodePacked(\"bytes binding to ethereum-plasma\")),\n            keccak256(abi.encodePacked(sig,note))));\n        address eth_address = Call.recoverHash(hash,external_sig,0);\n        require (msg.sender == eth_address || isMaintainer(msg.sender), \"only maintainer or user can change ethereum-plasma\");\n        addPlasma2EthereumInternal(sig, eth_address);\n        setNoteInternal(note, eth_address);\n    }\n\n    /// View function - doesn't cost any gas to be executed\n    /// @notice Function to fetch address of the user that corresponds to given name\n    /// @param _name is name of user\n    /// @return address of the user as type address\n    function getUserName2UserAddress(\n        string _name\n    )\n    external\n    view\n    returns (address)\n    {\n        bytes32 name = stringToBytes32(_name);\n        return PROXY_STORAGE_CONTRACT.getAddress(keccak256(\"username2currentAddress\", name));\n    }\n\n    /// View function - doesn't cost any gas to be executed\n    /// @notice Function to fetch name that corresponds to the address\n    /// @param _sender is address of user\n    /// @return name of the user as type string\n    function getUserAddress2UserName(\n        address _sender\n    )\n    external\n    view\n    returns (string)\n    {\n        return PROXY_STORAGE_CONTRACT.getString(keccak256(\"address2username\", _sender));\n    }\n\n//    /**\n//     */\n//    function deleteUser(\n//        string userName\n//    )\n//    public\n//    {\n//        require(isMaintainer(msg.sender));\n//        bytes32 userNameHex = stringToBytes32(userName);\n//        address _ethereumAddress = username2currentAddress[userNameHex];\n//        username2currentAddress[userNameHex] = address(0);\n//\n//        address2username[_ethereumAddress] = \"\";\n//\n//        bytes32 walletTag = address2walletTag[_ethereumAddress];\n//        address2walletTag[_ethereumAddress] = bytes32(0);\n//        walletTag2address[walletTag] = address(0);\n//\n//        address plasma = ethereum2plasma[_ethereumAddress];\n//        ethereum2plasma[_ethereumAddress] = address(0);\n//        PROXY_STORAGE_CONTRACT.deleteAddress()\n//        plasma2ethereum[plasma] = address(0);\n//\n//        UserData memory userdata = addressToUserData[_ethereumAddress];\n//        userdata.username = \"\";\n//        userdata.fullName = \"\";\n//        userdata.email = \"\";\n//        addressToUserData[_ethereumAddress] = userdata;\n//\n//        notes[_ethereumAddress] = \"\";\n//    }\n\n\n    /**\n     * @notice Reading from mapping ethereum 2 plasma\n     * @param plasma is the plasma address we're searching eth address for\n     * @return ethereum address if exist otherwise 0x0 (address(0))\n     */\n    function getPlasmaToEthereum(\n        address plasma\n    )\n    public\n    view\n    returns (address)\n    {\n        bytes32 keyHashPlasmaToEthereum = keccak256(\"plasma2ethereum\", plasma);\n        address ethereum = PROXY_STORAGE_CONTRACT.getAddress(keyHashPlasmaToEthereum);\n        if(ethereum!= address(0)) {\n            return ethereum;\n        }\n        return plasma;\n    }\n\n    /**\n     * @notice Reading from mapping plasma 2 ethereum\n     * @param ethereum is the ethereum address we're searching plasma address for\n     * @return plasma address if exist otherwise 0x0 (address(0))\n     */\n    function getEthereumToPlasma(\n        address ethereum\n    )\n    public\n    view\n    returns (address)\n    {\n        bytes32 keyHashEthereumToPlasma = keccak256(\"ethereum2plasma\", ethereum);\n        address plasma = PROXY_STORAGE_CONTRACT.getAddress(keyHashEthereumToPlasma);\n        if(plasma != address(0)) {\n            return plasma;\n        }\n        return ethereum;\n    }\n\n\n    /**\n     * @notice Function to check if the user exists\n     * @param _userAddress is the address of the user\n     * @return true if exists otherwise false\n     */\n    function checkIfUserExists(\n        address _userAddress\n    )\n    external\n    view\n    returns (bool)\n    {\n        string memory username = PROXY_STORAGE_CONTRACT.getString(keccak256(\"address2username\", _userAddress));\n        bytes memory tempEmptyStringTest = bytes(username);\n        bytes32 keyHashEthereumToPlasma = keccak256(\"ethereum2plasma\", _userAddress);\n        address plasma = PROXY_STORAGE_CONTRACT.getAddress(keyHashEthereumToPlasma);\n        //notes[_userAddress].length == 0\n        bytes memory savedNotes = PROXY_STORAGE_CONTRACT.getBytes(keccak256(\"notes\", _userAddress));\n        bytes32 walletTag = PROXY_STORAGE_CONTRACT.getBytes32(keccak256(\"address2walletTag\", _userAddress));\n        if(tempEmptyStringTest.length == 0 || walletTag == 0 || plasma == address(0) || savedNotes.length == 0) {\n            return false;\n        }\n        return true;\n    }\n\n\n    function getUserData(\n        address _user\n    )\n    external\n    view\n    returns (bytes)\n    {\n        bytes32 keyHashUsername = keccak256(\"addressToUserData\", \"username\", _user);\n        bytes32 keyHashFullName = keccak256(\"addressToUserData\", \"fullName\", _user);\n        bytes32 keyHashEmail = keccak256(\"addressToUserData\", \"email\", _user);\n\n\n        bytes32 username = stringToBytes32(PROXY_STORAGE_CONTRACT.getString(keyHashUsername));\n        bytes32 fullName = stringToBytes32(PROXY_STORAGE_CONTRACT.getString(keyHashFullName));\n        bytes32 email = stringToBytes32(PROXY_STORAGE_CONTRACT.getString(keyHashEmail));\n\n        return (abi.encodePacked(username, fullName, email));\n    }\n\n    function notes(\n        address keyAddress\n    )\n    public\n    view\n    returns (bytes)\n    {\n        return PROXY_STORAGE_CONTRACT.getBytes(keccak256(\"notes\", keyAddress));\n    }\n\n    function address2walletTag(\n        address keyAddress\n    )\n    public\n    view\n    returns (bytes32)\n    {\n        return PROXY_STORAGE_CONTRACT.getBytes32(keccak256(\"address2walletTag\", keyAddress));\n    }\n\n    function walletTag2address(\n        bytes32 walletTag\n    )\n    public\n    view\n    returns (address)\n    {\n        return PROXY_STORAGE_CONTRACT.getAddress(keccak256(\"walletTag2address\", walletTag));\n    }\n\n    function address2username(\n        address keyAddress\n    )\n    public\n    view\n    returns (string)\n    {\n        return PROXY_STORAGE_CONTRACT.getString(keccak256(\"address2username\", keyAddress));\n    }\n\n    function username2currentAddress(\n        bytes32 _username\n    )\n    public\n    view\n    returns (address)\n    {\n        return PROXY_STORAGE_CONTRACT.getAddress(keccak256(\"username2currentAddress\", _username));\n    }\n\n\n\n}\n",
  "sourcePath": "/Users/nikolamadjarevic/Desktop/2key/contracts/contracts/2key/singleton-contracts/TwoKeyRegistry.sol",
  "compiler": {
    "name": "solc",
    "version": "0.4.24+commit.e67f0147.Emscripten.clang"
  },
  "schemaVersion": "2.0.1",
  "updatedAt": "2019-11-07T08:15:06.343Z"
}