{
  "contractName": "TwoKeyUpgradableExchange",
  "abi": [
    {
      "constant": true,
      "inputs": [],
      "name": "PROXY_STORAGE_CONTRACT",
      "outputs": [
        {
          "name": "",
          "type": "address"
        }
      ],
      "payable": false,
      "stateMutability": "view",
      "type": "function"
    },
    {
      "constant": true,
      "inputs": [],
      "name": "implementation",
      "outputs": [
        {
          "name": "",
          "type": "address"
        }
      ],
      "payable": false,
      "stateMutability": "view",
      "type": "function"
    },
    {
      "constant": true,
      "inputs": [],
      "name": "TWO_KEY_SINGLETON_REGISTRY",
      "outputs": [
        {
          "name": "",
          "type": "address"
        }
      ],
      "payable": false,
      "stateMutability": "view",
      "type": "function"
    },
    {
      "constant": true,
      "inputs": [
        {
          "name": "_address",
          "type": "address"
        }
      ],
      "name": "getterChecker",
      "outputs": [
        {
          "name": "",
          "type": "bool"
        }
      ],
      "payable": false,
      "stateMutability": "view",
      "type": "function"
    },
    {
      "constant": false,
      "inputs": [
        {
          "name": "sender",
          "type": "address"
        }
      ],
      "name": "initialize",
      "outputs": [],
      "payable": true,
      "stateMutability": "payable",
      "type": "function"
    },
    {
      "payable": true,
      "stateMutability": "payable",
      "type": "fallback"
    },
    {
      "anonymous": false,
      "inputs": [
        {
          "indexed": true,
          "name": "purchaser",
          "type": "address"
        },
        {
          "indexed": true,
          "name": "beneficiary",
          "type": "address"
        },
        {
          "indexed": false,
          "name": "value",
          "type": "uint256"
        },
        {
          "indexed": false,
          "name": "amount",
          "type": "uint256"
        }
      ],
      "name": "TokenSell",
      "type": "event"
    },
    {
      "anonymous": false,
      "inputs": [
        {
          "indexed": true,
          "name": "purchaser",
          "type": "address"
        },
        {
          "indexed": true,
          "name": "receiver",
          "type": "address"
        },
        {
          "indexed": false,
          "name": "weiReceived",
          "type": "uint256"
        },
        {
          "indexed": false,
          "name": "tokensBought",
          "type": "uint256"
        },
        {
          "indexed": false,
          "name": "rate",
          "type": "uint256"
        }
      ],
      "name": "TokenPurchase",
      "type": "event"
    },
    {
      "anonymous": false,
      "inputs": [
        {
          "indexed": false,
          "name": "caller",
          "type": "address"
        },
        {
          "indexed": false,
          "name": "beneficiary",
          "type": "address"
        },
        {
          "indexed": false,
          "name": "stableCoinsReserveBefore",
          "type": "uint256"
        },
        {
          "indexed": false,
          "name": "stableCoinsReserveAfter",
          "type": "uint256"
        },
        {
          "indexed": false,
          "name": "etherBalanceBefore",
          "type": "uint256"
        },
        {
          "indexed": false,
          "name": "etherBalanceAfter",
          "type": "uint256"
        },
        {
          "indexed": false,
          "name": "stableCoinsToWithdraw",
          "type": "uint256"
        },
        {
          "indexed": false,
          "name": "twoKeyAmount",
          "type": "uint256"
        }
      ],
      "name": "WithdrawExecuted",
      "type": "event"
    },
    {
      "anonymous": false,
      "inputs": [
        {
          "indexed": false,
          "name": "_daisReceived",
          "type": "uint256"
        },
        {
          "indexed": false,
          "name": "_ratio",
          "type": "uint256"
        },
        {
          "indexed": false,
          "name": "_numberOfContracts",
          "type": "uint256"
        }
      ],
      "name": "HedgedEther",
      "type": "event"
    },
    {
      "constant": false,
      "inputs": [
        {
          "name": "_token",
          "type": "address"
        },
        {
          "name": "_daiAddress",
          "type": "address"
        },
        {
          "name": "_kyberNetworkProxy",
          "type": "address"
        },
        {
          "name": "_twoKeySingletonesRegistry",
          "type": "address"
        },
        {
          "name": "_proxyStorageContract",
          "type": "address"
        }
      ],
      "name": "setInitialParams",
      "outputs": [],
      "payable": false,
      "stateMutability": "nonpayable",
      "type": "function"
    },
    {
      "constant": true,
      "inputs": [
        {
          "name": "startIndex",
          "type": "uint256"
        },
        {
          "name": "endIndex",
          "type": "uint256"
        }
      ],
      "name": "calculateSumOnContracts",
      "outputs": [
        {
          "name": "",
          "type": "uint256"
        }
      ],
      "payable": false,
      "stateMutability": "view",
      "type": "function"
    },
    {
      "constant": true,
      "inputs": [
        {
          "name": "_contractAddress",
          "type": "address"
        }
      ],
      "name": "getContractId",
      "outputs": [
        {
          "name": "",
          "type": "uint256"
        }
      ],
      "payable": false,
      "stateMutability": "view",
      "type": "function"
    },
    {
      "constant": true,
      "inputs": [
        {
          "name": "_2keyAmount",
          "type": "uint256"
        },
        {
          "name": "_campaignID",
          "type": "uint256"
        }
      ],
      "name": "getUSDStableCoinAmountFrom2keyUnits",
      "outputs": [
        {
          "name": "",
          "type": "uint256"
        }
      ],
      "payable": false,
      "stateMutability": "view",
      "type": "function"
    },
    {
      "constant": false,
      "inputs": [
        {
          "name": "_beneficiary",
          "type": "address"
        }
      ],
      "name": "buyTokens",
      "outputs": [
        {
          "name": "",
          "type": "uint256"
        }
      ],
      "payable": true,
      "stateMutability": "payable",
      "type": "function"
    },
    {
      "constant": false,
      "inputs": [
        {
          "name": "amountOfTokensWithdrawn",
          "type": "uint256"
        }
      ],
      "name": "report2KEYWithdrawnFromNetwork",
      "outputs": [],
      "payable": false,
      "stateMutability": "nonpayable",
      "type": "function"
    },
    {
      "constant": true,
      "inputs": [
        {
          "name": "amountEthWei",
          "type": "uint256"
        }
      ],
      "name": "getKyberExpectedRate",
      "outputs": [
        {
          "name": "",
          "type": "uint256"
        }
      ],
      "payable": false,
      "stateMutability": "view",
      "type": "function"
    },
    {
      "constant": false,
      "inputs": [
        {
          "name": "amountToBeHedged",
          "type": "uint256"
        },
        {
          "name": "approvedMinConversionRate",
          "type": "uint256"
        }
      ],
      "name": "startHedging",
      "outputs": [],
      "payable": false,
      "stateMutability": "nonpayable",
      "type": "function"
    },
    {
      "constant": true,
      "inputs": [
        {
          "name": "numberOfContractsCurrently",
          "type": "uint256"
        },
        {
          "name": "amountHedged",
          "type": "uint256"
        },
        {
          "name": "stableCoinsReceived",
          "type": "uint256"
        },
        {
          "name": "startIndex",
          "type": "uint256"
        },
        {
          "name": "endIndex",
          "type": "uint256"
        }
      ],
      "name": "calculateHedgedAndReceivedForDefinedChunk",
      "outputs": [
        {
          "name": "",
          "type": "uint256"
        },
        {
          "name": "",
          "type": "uint256"
        }
      ],
      "payable": false,
      "stateMutability": "view",
      "type": "function"
    },
    {
      "constant": false,
      "inputs": [
        {
          "name": "_ethWeiHedgedForThisChunk",
          "type": "uint256"
        },
        {
          "name": "_daiReceivedForThisChunk",
          "type": "uint256"
        },
        {
          "name": "_ratio",
          "type": "uint256"
        },
        {
          "name": "_startIndex",
          "type": "uint256"
        },
        {
          "name": "_endIndex",
          "type": "uint256"
        }
      ],
      "name": "reduceHedgedAmountFromContractsAndIncreaseDaiAvailable",
      "outputs": [],
      "payable": false,
      "stateMutability": "nonpayable",
      "type": "function"
    },
    {
      "constant": false,
      "inputs": [
        {
          "name": "_twoKeyUnits",
          "type": "uint256"
        },
        {
          "name": "_beneficiary",
          "type": "address"
        }
      ],
      "name": "buyStableCoinWith2key",
      "outputs": [],
      "payable": false,
      "stateMutability": "nonpayable",
      "type": "function"
    },
    {
      "constant": false,
      "inputs": [
        {
          "name": "amountDAI",
          "type": "uint256"
        },
        {
          "name": "amount2KEY",
          "type": "uint256"
        }
      ],
      "name": "buy2KEYFromBancor",
      "outputs": [],
      "payable": true,
      "stateMutability": "payable",
      "type": "function"
    },
    {
      "constant": true,
      "inputs": [],
      "name": "numberOfContracts",
      "outputs": [
        {
          "name": "",
          "type": "uint256"
        }
      ],
      "payable": false,
      "stateMutability": "view",
      "type": "function"
    },
    {
      "constant": true,
      "inputs": [
        {
          "name": "_contractID",
          "type": "uint256"
        }
      ],
      "name": "get2KEY2DAIHedgedRate",
      "outputs": [
        {
          "name": "",
          "type": "uint256"
        }
      ],
      "payable": false,
      "stateMutability": "view",
      "type": "function"
    },
    {
      "constant": true,
      "inputs": [
        {
          "name": "_contractID",
          "type": "uint256"
        }
      ],
      "name": "getEth2DaiAverageExchangeRatePerContract",
      "outputs": [
        {
          "name": "",
          "type": "uint256"
        }
      ],
      "payable": false,
      "stateMutability": "view",
      "type": "function"
    },
    {
      "constant": true,
      "inputs": [
        {
          "name": "_contractID",
          "type": "uint256"
        }
      ],
      "name": "getEth2KeyAverageRatePerContract",
      "outputs": [
        {
          "name": "",
          "type": "uint256"
        }
      ],
      "payable": false,
      "stateMutability": "view",
      "type": "function"
    },
    {
      "constant": true,
      "inputs": [],
      "name": "daiWeiAvailableToFill2KEYReserve",
      "outputs": [
        {
          "name": "",
          "type": "uint256"
        }
      ],
      "payable": false,
      "stateMutability": "view",
      "type": "function"
    },
    {
      "constant": true,
      "inputs": [
        {
          "name": "_contractID",
          "type": "uint256"
        }
      ],
      "name": "daiWeiAvailableToWithdraw",
      "outputs": [
        {
          "name": "",
          "type": "uint256"
        }
      ],
      "payable": false,
      "stateMutability": "view",
      "type": "function"
    },
    {
      "constant": true,
      "inputs": [
        {
          "name": "_contractID",
          "type": "uint256"
        }
      ],
      "name": "ethWeiAvailableToHedge",
      "outputs": [
        {
          "name": "",
          "type": "uint256"
        }
      ],
      "payable": false,
      "stateMutability": "view",
      "type": "function"
    },
    {
      "constant": true,
      "inputs": [
        {
          "name": "_contractAddress",
          "type": "address"
        }
      ],
      "name": "getAllStatsForContract",
      "outputs": [
        {
          "name": "",
          "type": "uint256"
        },
        {
          "name": "",
          "type": "uint256"
        },
        {
          "name": "",
          "type": "uint256"
        },
        {
          "name": "",
          "type": "uint256"
        },
        {
          "name": "",
          "type": "uint256"
        },
        {
          "name": "",
          "type": "uint256"
        }
      ],
      "payable": false,
      "stateMutability": "view",
      "type": "function"
    },
    {
      "constant": true,
      "inputs": [],
      "name": "spreadWei",
      "outputs": [
        {
          "name": "",
          "type": "uint256"
        }
      ],
      "payable": false,
      "stateMutability": "view",
      "type": "function"
    },
    {
      "constant": true,
      "inputs": [],
      "name": "sellRate2key",
      "outputs": [
        {
          "name": "",
          "type": "uint256"
        }
      ],
      "payable": false,
      "stateMutability": "view",
      "type": "function"
    },
    {
      "constant": true,
      "inputs": [],
      "name": "weiRaised",
      "outputs": [
        {
          "name": "",
          "type": "uint256"
        }
      ],
      "payable": false,
      "stateMutability": "view",
      "type": "function"
    },
    {
      "constant": false,
      "inputs": [],
      "name": "withdrawEther",
      "outputs": [],
      "payable": false,
      "stateMutability": "nonpayable",
      "type": "function"
    },
    {
      "constant": false,
      "inputs": [
        {
          "name": "_erc20TokenAddress",
          "type": "address"
        },
        {
          "name": "_tokenAmount",
          "type": "uint256"
        }
      ],
      "name": "withdrawERC20",
      "outputs": [],
      "payable": false,
      "stateMutability": "nonpayable",
      "type": "function"
    }
  ],
  "bytecode": "0x608060405234801561001057600080fd5b50613e33806100206000396000f300608060405260043610610180576000357c0100000000000000000000000000000000000000000000000000000000900463ffffffff168063105005a114610182578063164da4f6146101d95780631806e1c21461029c57806319803d80146102dd578063322c486f146103285780634042b66f146103695780635c60da1b14610394578063685602a9146103eb5780636bf2f8bc146104385780637362377b1461048357806377e5ec1b1461049a5780638830afa01461050a5780638947fd141461056157806395371d2f146105b6578063956011a1146105ed5780639ced0a7c14610667578063a1c215de146106a8578063a1db9782146106e9578063a430686314610736578063a6276f1314610777578063a9bd8945146107a2578063c435d68e146107fd578063c4d66de814610828578063cc08a85b1461085e578063d2fe65a81461088b578063d505c0dc146108b6578063d9c0bd1e146108f7578063ec8ac4d814610921578063ec9bd4241461096b578063ffde492d14610996575b005b34801561018e57600080fd5b506101976109ed565b604051808273ffffffffffffffffffffffffffffffffffffffff1673ffffffffffffffffffffffffffffffffffffffff16815260200191505060405180910390f35b3480156101e557600080fd5b5061029a600480360381019080803573ffffffffffffffffffffffffffffffffffffffff169060200190929190803573ffffffffffffffffffffffffffffffffffffffff169060200190929190803573ffffffffffffffffffffffffffffffffffffffff169060200190929190803573ffffffffffffffffffffffffffffffffffffffff169060200190929190803573ffffffffffffffffffffffffffffffffffffffff169060200190929190505050610a13565b005b3480156102a857600080fd5b506102c760048036038101908080359060200190929190505050610cf3565b6040518082815260200191505060405180910390f35b3480156102e957600080fd5b506103126004803603810190808035906020019092919080359060200190929190505050610d39565b6040518082815260200191505060405180910390f35b34801561033457600080fd5b5061035360048036038101908080359060200190929190505050610d83565b6040518082815260200191505060405180910390f35b34801561037557600080fd5b5061037e610dd4565b6040518082815260200191505060405180910390f35b3480156103a057600080fd5b506103a9610e19565b604051808273ffffffffffffffffffffffffffffffffffffffff1673ffffffffffffffffffffffffffffffffffffffff16815260200191505060405180910390f35b3480156103f757600080fd5b5061043660048036038101908080359060200190929190803573ffffffffffffffffffffffffffffffffffffffff169060200190929190505050610e43565b005b34801561044457600080fd5b5061046d6004803603810190808035906020019092919080359060200190929190505050611320565b6040518082815260200191505060405180910390f35b34801561048f57600080fd5b506104986113c2565b005b3480156104a657600080fd5b506104ed600480360381019080803590602001909291908035906020019092919080359060200190929190803590602001909291908035906020019092919050505061144a565b604051808381526020018281526020019250505060405180910390f35b34801561051657600080fd5b5061051f611495565b604051808273ffffffffffffffffffffffffffffffffffffffff1673ffffffffffffffffffffffffffffffffffffffff16815260200191505060405180910390f35b34801561056d57600080fd5b506105b460048036038101908080359060200190929190803590602001909291908035906020019092919080359060200190929190803590602001909291905050506114bb565b005b3480156105c257600080fd5b506105eb60048036038101908080359060200190929190803590602001909291905050506116d6565b005b3480156105f957600080fd5b5061062e600480360381019080803573ffffffffffffffffffffffffffffffffffffffff169060200190929190505050611a45565b60405180878152602001868152602001858152602001848152602001838152602001828152602001965050505050505060405180910390f35b34801561067357600080fd5b5061069260048036038101908080359060200190929190505050611aa7565b6040518082815260200191505060405180910390f35b3480156106b457600080fd5b506106d360048036038101908080359060200190929190505050611ca0565b6040518082815260200191505060405180910390f35b3480156106f557600080fd5b50610734600480360381019080803573ffffffffffffffffffffffffffffffffffffffff16906020019092919080359060200190929190505050611cf1565b005b34801561074257600080fd5b5061076160048036038101908080359060200190929190505050611e51565b6040518082815260200191505060405180910390f35b34801561078357600080fd5b5061078c611ea0565b6040518082815260200191505060405180910390f35b3480156107ae57600080fd5b506107e3600480360381019080803573ffffffffffffffffffffffffffffffffffffffff169060200190929190505050611ee5565b604051808215151515815260200191505060405180910390f35b34801561080957600080fd5b50610812612006565b6040518082815260200191505060405180910390f35b61085c600480360381019080803573ffffffffffffffffffffffffffffffffffffffff16906020019092919050505061204b565b005b34801561086a57600080fd5b50610889600480360381019080803590602001909291905050506120a9565b005b34801561089757600080fd5b506108a06121ee565b6040518082815260200191505060405180910390f35b3480156108c257600080fd5b506108e160048036038101908080359060200190929190505050612233565b6040518082815260200191505060405180910390f35b61091f6004803603810190808035906020019092919080359060200190929190505050612282565b005b610955600480360381019080803573ffffffffffffffffffffffffffffffffffffffff1690602001909291905050506128da565b6040518082815260200191505060405180910390f35b34801561097757600080fd5b50610980612c08565b6040518082815260200191505060405180910390f35b3480156109a257600080fd5b506109d7600480360381019080803573ffffffffffffffffffffffffffffffffffffffff169060200190929190505050612c4d565b6040518082815260200191505060405180910390f35b600360009054906101000a900473ffffffffffffffffffffffffffffffffffffffff1681565b60001515600260149054906101000a900460ff161515141515610a3557600080fd5b81600260006101000a81548173ffffffffffffffffffffffffffffffffffffffff021916908373ffffffffffffffffffffffffffffffffffffffff16021790555080600360006101000a81548173ffffffffffffffffffffffffffffffffffffffff021916908373ffffffffffffffffffffffffffffffffffffffff160217905550610afa60405180807f737072656164576569000000000000000000000000000000000000000000000081525060090190506040518091039020630290d741612ce2565b610b4160405180807f73656c6c52617465326b65790000000000000000000000000000000000000000815250600c019050604051809103902067016345785d8a0000612ce2565b610b8160405180807f7765695261697365640000000000000000000000000000000000000000000000815250600901905060405180910390206000612ce2565b610bc160405180807f6e756d6265724f66436f6e747261637473000000000000000000000000000000815250601101905060405180910390206000612ce2565b610c0060405180807f54574f5f4b45595f544f4b454e00000000000000000000000000000000000000815250600d019050604051809103902086612d9f565b610c3f60405180807f44414900000000000000000000000000000000000000000000000000000000008152506003019050604051809103902085612d9f565b610c9260405180807f4554485f544f4b454e5f414444524553530000000000000000000000000000008152506011019050604051809103902073eeeeeeeeeeeeeeeeeeeeeeeeeeeeeeeeeeeeeeee612d9f565b610cd160405180807f4b594245525f4e4554574f524b5f50524f5859000000000000000000000000008152506013019050604051809103902084612d9f565b6001600260146101000a81548160ff0219169083151502179055505050505050565b6000610d32610d0183610d83565b610d24670de0b6b3a7640000610d1686611ca0565b612e8890919063ffffffff16565b612ec390919063ffffffff16565b9050919050565b60008060008091508490505b8381111515610d7857610d69610d5a82611e51565b83612ed990919063ffffffff16565b91508080600101915050610d45565b819250505092915050565b6000806000610d9184612ef8565b9150610d9c84612f47565b9050610dcb82610dbd670de0b6b3a764000084612e8890919063ffffffff16565b612ec390919063ffffffff16565b92505050919050565b6000610e1460405180807f776569526169736564000000000000000000000000000000000000000000000081525060090190506040518091039020612f96565b905090565b6000600160009054906101000a900473ffffffffffffffffffffffffffffffffffffffff16905090565b600080600080600080610e8a6040805190810160405280601781526020017f54776f4b657943616d706169676e56616c696461746f72000000000000000000815250613073565b9050600115158173ffffffffffffffffffffffffffffffffffffffff166371c6a34f336040518263ffffffff167c0100000000000000000000000000000000000000000000000000000000028152600401808273ffffffffffffffffffffffffffffffffffffffff1673ffffffffffffffffffffffffffffffffffffffff168152602001915050602060405180830381600087803b158015610f2b57600080fd5b505af1158015610f3f573d6000803e3d6000fd5b505050506040513d6020811015610f5557600080fd5b81019080805190602001909291905050501515141515610f7457600080fd5b610fb260405180807f4441490000000000000000000000000000000000000000000000000000000000815250600301905060405180910390206131ad565b9550610ff260405180807f54574f5f4b45595f544f4b454e00000000000000000000000000000000000000815250600d01905060405180910390206131ad565b94506110068861100133612c4d565b611320565b93503073ffffffffffffffffffffffffffffffffffffffff163192508573ffffffffffffffffffffffffffffffffffffffff166370a08231306040518263ffffffff167c0100000000000000000000000000000000000000000000000000000000028152600401808273ffffffffffffffffffffffffffffffffffffffff1673ffffffffffffffffffffffffffffffffffffffff168152602001915050602060405180830381600087803b1580156110bd57600080fd5b505af11580156110d1573d6000803e3d6000fd5b505050506040513d60208110156110e757600080fd5b81019080805190602001909291905050509150611104338561328a565b611124878361111c87866133b190919063ffffffff16565b86888d6133cd565b8473ffffffffffffffffffffffffffffffffffffffff166323b872dd33308b6040518463ffffffff167c0100000000000000000000000000000000000000000000000000000000028152600401808473ffffffffffffffffffffffffffffffffffffffff1673ffffffffffffffffffffffffffffffffffffffff1681526020018373ffffffffffffffffffffffffffffffffffffffff1673ffffffffffffffffffffffffffffffffffffffff1681526020018281526020019350505050602060405180830381600087803b1580156111fb57600080fd5b505af115801561120f573d6000803e3d6000fd5b505050506040513d602081101561122557600080fd5b8101908080519060200190929190505050508573ffffffffffffffffffffffffffffffffffffffff1663a9059cbb88866040518363ffffffff167c0100000000000000000000000000000000000000000000000000000000028152600401808373ffffffffffffffffffffffffffffffffffffffff1673ffffffffffffffffffffffffffffffffffffffff16815260200182815260200192505050602060405180830381600087803b1580156112da57600080fd5b505af11580156112ee573d6000803e3d6000fd5b505050506040513d602081101561130457600080fd5b8101908080519060200190929190505050505050505050505050565b600080600080600061133186610cf3565b9350670de0b6b3a76400009250611384670de0b6b3a7640000611376611367611358612c08565b876133b190919063ffffffff16565b87612e8890919063ffffffff16565b612ec390919063ffffffff16565b91506113b3670de0b6b3a76400006113a5848a612e8890919063ffffffff16565b612ec390919063ffffffff16565b90508094505050505092915050565b60006114026040805190810160405280600b81526020017f54776f4b657941646d696e000000000000000000000000000000000000000000815250613073565b90508073ffffffffffffffffffffffffffffffffffffffff163373ffffffffffffffffffffffffffffffffffffffff1614151561143e57600080fd5b611447816134b3565b50565b60008060008061145a8686610d39565b9150611481886114738985612e8890919063ffffffff16565b612ec390919063ffffffff16565b905081819350935050509550959350505050565b600260009054906101000a900473ffffffffffffffffffffffffffffffffffffffff1681565b6000806000806000806000806115056040805190810160405280601981526020017f54776f4b65794d61696e7461696e657273526567697374727900000000000000815250613073565b90508073ffffffffffffffffffffffffffffffffffffffff16635cc7815c336040518263ffffffff167c0100000000000000000000000000000000000000000000000000000000028152600401808273ffffffffffffffffffffffffffffffffffffffff1673ffffffffffffffffffffffffffffffffffffffff168152602001915050602060405180830381600087803b1580156115a257600080fd5b505af11580156115b6573d6000803e3d6000fd5b505050506040513d60208110156115cc57600080fd5b810190808051906020019092919050505015156115e857600080fd5b6115f28d8e6134fd565b96508997505b88881115156116c757600061160c89611e51565b11156116ba5761161b88611e51565b9550670de0b6b3a76400009450611667670de0b6b3a764000061165961164a8a896133b190919063ffffffff16565b89612e8890919063ffffffff16565b612ec390919063ffffffff16565b935061167c84876133b190919063ffffffff16565b92506116ab670de0b6b3a764000061169d8d86612e8890919063ffffffff16565b612ec390919063ffffffff16565b91506116b98284868b613534565b5b87806001019850506115f8565b50505050505050505050505050565b600080600080600080600061171f6040805190810160405280601981526020017f54776f4b65794d61696e7461696e657273526567697374727900000000000000815250613073565b90508073ffffffffffffffffffffffffffffffffffffffff16635cc7815c336040518263ffffffff167c0100000000000000000000000000000000000000000000000000000000028152600401808273ffffffffffffffffffffffffffffffffffffffff1673ffffffffffffffffffffffffffffffffffffffff168152602001915050602060405180830381600087803b1580156117bc57600080fd5b505af11580156117d0573d6000803e3d6000fd5b505050506040513d60208110156117e657600080fd5b8101908080519060200190929190505050151561180257600080fd5b61184060405180807f4441490000000000000000000000000000000000000000000000000000000000815250600301905060405180910390206131ad565b96503073ffffffffffffffffffffffffffffffffffffffff163189111561187c573073ffffffffffffffffffffffffffffffffffffffff163198505b6118ba60405180807f4b594245525f4e4554574f524b5f50524f585900000000000000000000000000815250601301905060405180910390206131ad565b95508594506118c889611aa7565b93506118f160646118e3605f8b612e8890919063ffffffff16565b612ec390919063ffffffff16565b84101515156118ff57600080fd5b8473ffffffffffffffffffffffffffffffffffffffff16637a2a04568a89876040518463ffffffff167c0100000000000000000000000000000000000000000000000000000000028152600401808373ffffffffffffffffffffffffffffffffffffffff1673ffffffffffffffffffffffffffffffffffffffff168152602001828152602001925050506020604051808303818588803b1580156119a257600080fd5b505af11580156119b6573d6000803e3d6000fd5b50505050506040513d60208110156119cd57600080fd5b810190808051906020019092919050505092506119ea89846136e0565b91507fb045c562600cbdb0b5c00a32052819a23598616b1c544b42cd55fe5a7ebc3aa28383611a17612006565b60405180848152602001838152602001828152602001935050505060405180910390a1505050505050505050565b6000806000806000806000611a5988612c4d565b9050611a6481611e51565b611a6d82612233565b611a7683613717565b611a7f8461378c565b611a8885612f47565b611a9186612ef8565b9650965096509650965096505091939550919395565b600080600080600080611aee60405180807f4b594245525f4e4554574f524b5f50524f585900000000000000000000000000815250601301905060405180910390206131ad565b9450849350611b3160405180807f4554485f544f4b454e5f41444452455353000000000000000000000000000000815250601101905060405180910390206131ad565b9250611b7160405180807f4441490000000000000000000000000000000000000000000000000000000000815250600301905060405180910390206131ad565b91508373ffffffffffffffffffffffffffffffffffffffff1663809a9e5584848a6040518463ffffffff167c0100000000000000000000000000000000000000000000000000000000028152600401808473ffffffffffffffffffffffffffffffffffffffff1673ffffffffffffffffffffffffffffffffffffffff1681526020018373ffffffffffffffffffffffffffffffffffffffff1673ffffffffffffffffffffffffffffffffffffffff16815260200182815260200193505050506040805180830381600087803b158015611c4957600080fd5b505af1158015611c5d573d6000803e3d6000fd5b505050506040513d6040811015611c7357600080fd5b81019080805190602001909291908051906020019092919050505050809150508095505050505050919050565b6000806000611cae8461378c565b9150611cb984613717565b9050611ce882611cda670de0b6b3a764000084612e8890919063ffffffff16565b612ec390919063ffffffff16565b92505050919050565b6000611d316040805190810160405280600b81526020017f54776f4b657941646d696e000000000000000000000000000000000000000000815250613073565b90508073ffffffffffffffffffffffffffffffffffffffff163373ffffffffffffffffffffffffffffffffffffffff16141515611d6d57600080fd5b8273ffffffffffffffffffffffffffffffffffffffff1663a9059cbb82846040518363ffffffff167c0100000000000000000000000000000000000000000000000000000000028152600401808373ffffffffffffffffffffffffffffffffffffffff1673ffffffffffffffffffffffffffffffffffffffff16815260200182815260200192505050602060405180830381600087803b158015611e1057600080fd5b505af1158015611e24573d6000803e3d6000fd5b505050506040513d6020811015611e3a57600080fd5b810190808051906020019092919050505050505050565b6000611e998260405180807f657468576569417661696c61626c65546f4865646765000000000000000000008152506016018281526020019150506040518091039020612f96565b9050919050565b6000611ee060405180807f73656c6c52617465326b65790000000000000000000000000000000000000000815250600c0190506040518091039020612f96565b905090565b600080611f266040805190810160405280601981526020017f54776f4b65794d61696e7461696e657273526567697374727900000000000000815250613073565b90508073ffffffffffffffffffffffffffffffffffffffff16635cc7815c846040518263ffffffff167c0100000000000000000000000000000000000000000000000000000000028152600401808273ffffffffffffffffffffffffffffffffffffffff1673ffffffffffffffffffffffffffffffffffffffff168152602001915050602060405180830381600087803b158015611fc357600080fd5b505af1158015611fd7573d6000803e3d6000fd5b505050506040513d6020811015611fed57600080fd5b8101908080519060200190929190505050915050919050565b600061204660405180807f6e756d6265724f66436f6e74726163747300000000000000000000000000000081525060110190506040518091039020612f96565b905090565b6000809054906101000a900473ffffffffffffffffffffffffffffffffffffffff1673ffffffffffffffffffffffffffffffffffffffff163373ffffffffffffffffffffffffffffffffffffffff161415156120a657600080fd5b50565b6000806120ea6040805190810160405280601781526020017f54776f4b657943616d706169676e56616c696461746f72000000000000000000815250613073565b9050600115158173ffffffffffffffffffffffffffffffffffffffff166371c6a34f336040518263ffffffff167c0100000000000000000000000000000000000000000000000000000000028152600401808273ffffffffffffffffffffffffffffffffffffffff1673ffffffffffffffffffffffffffffffffffffffff168152602001915050602060405180830381600087803b15801561218b57600080fd5b505af115801561219f573d6000803e3d6000fd5b505050506040513d60208110156121b557600080fd5b810190808051906020019092919050505015151415156121d457600080fd5b6121dd33612c4d565b91506121e983836137db565b505050565b600061222e60405180807f646169576569417661696c61626c65546f46696c6c324b45595265736572766581525060200190506040518091039020612f96565b905090565b600061227b8260405180807f646169576569417661696c61626c65546f5769746864726177000000000000008152506019018281526020019150506040518091039020612f96565b9050919050565b6000806000606060008060006122cc6040805190810160405280601981526020017f54776f4b65794d61696e7461696e657273526567697374727900000000000000815250613073565b90508073ffffffffffffffffffffffffffffffffffffffff16635cc7815c336040518263ffffffff167c0100000000000000000000000000000000000000000000000000000000028152600401808273ffffffffffffffffffffffffffffffffffffffff1673ffffffffffffffffffffffffffffffffffffffff168152602001915050602060405180830381600087803b15801561236957600080fd5b505af115801561237d573d6000803e3d6000fd5b505050506040513d602081101561239357600080fd5b810190808051906020019092919050505015156123af57600080fd5b6123ed60405180807f4441490000000000000000000000000000000000000000000000000000000000815250600301905060405180910390206131ad565b965061242d60405180807f42414e434f525f434f4e56455254455200000000000000000000000000000000815250601001905060405180910390206131ad565b955061246d60405180807f424e540000000000000000000000000000000000000000000000000000000000815250600301905060405180910390206131ad565b94508673ffffffffffffffffffffffffffffffffffffffff1663095ea7b3878b6040518363ffffffff167c0100000000000000000000000000000000000000000000000000000000028152600401808373ffffffffffffffffffffffffffffffffffffffff1673ffffffffffffffffffffffffffffffffffffffff16815260200182815260200192505050602060405180830381600087803b15801561251257600080fd5b505af1158015612526573d6000803e3d6000fd5b505050506040513d602081101561253c57600080fd5b810190808051906020019092919050505050600560405190808252806020026020018201604052801561257e5781602001602082028038833980820191505090505b5093508684600081518110151561259157fe5b9060200190602002019073ffffffffffffffffffffffffffffffffffffffff16908173ffffffffffffffffffffffffffffffffffffffff1681525050848460018151811015156125dd57fe5b9060200190602002019073ffffffffffffffffffffffffffffffffffffffff16908173ffffffffffffffffffffffffffffffffffffffff16815250508484600281518110151561262957fe5b9060200190602002019073ffffffffffffffffffffffffffffffffffffffff16908173ffffffffffffffffffffffffffffffffffffffff16815250506126a360405180807f54574f5f4b45595f544f4b454e00000000000000000000000000000000000000815250600d01905060405180910390206131ad565b8460038151811015156126b257fe5b9060200190602002019073ffffffffffffffffffffffffffffffffffffffff16908173ffffffffffffffffffffffffffffffffffffffff168152505061272c60405180807f54574f5f4b45595f544f4b454e00000000000000000000000000000000000000815250600d01905060405180910390206131ad565b84600481518110151561273b57fe5b9060200190602002019073ffffffffffffffffffffffffffffffffffffffff16908173ffffffffffffffffffffffffffffffffffffffff16815250508573ffffffffffffffffffffffffffffffffffffffff1663f0843ba9858b8b6040518463ffffffff167c01000000000000000000000000000000000000000000000000000000000281526004018080602001848152602001838152602001828103825285818151815260200191508051906020019060200280838360005b838110156128105780820151818401526020810190506127f5565b50505050905001945050505050602060405180830381600087803b15801561283757600080fd5b505af115801561284b573d6000803e3d6000fd5b505050506040513d602081101561286157600080fd5b8101908080519060200190929190505050925060405180807f646169576569417661696c61626c65546f46696c6c324b4559526573657276658152506020019050604051809103902091506128cf826128ca8b6128bc6121ee565b6133b190919063ffffffff16565b612ce2565b505050505050505050565b6000806000806000806000806129246040805190810160405280601781526020017f54776f4b657943616d706169676e56616c696461746f72000000000000000000815250613073565b9050600115158173ffffffffffffffffffffffffffffffffffffffff166371c6a34f336040518263ffffffff167c0100000000000000000000000000000000000000000000000000000000028152600401808273ffffffffffffffffffffffffffffffffffffffff1673ffffffffffffffffffffffffffffffffffffffff168152602001915050602060405180830381600087803b1580156129c557600080fd5b505af11580156129d9573d6000803e3d6000fd5b505050506040513d60208110156129ef57600080fd5b81019080805190602001909291905050501515141515612a0e57600080fd5b612a1889346138bd565b612a21346139df565b965060405180807f7765695261697365640000000000000000000000000000000000000000000000815250600901905060405180910390209550612a7634612a6888612f96565b612ed990919063ffffffff16565b9450612a828686612ce2565b612a8b33612c4d565b93506000841415612aa257612a9f33613b26565b93505b8360405180807f657468526563656976656446726f6d436f6e747261637400000000000000000081525060170182815260200191505060405180910390209250612b0683612b0134612af388612ef8565b612ed990919063ffffffff16565b612ce2565b8360405180807f73656e74326b6579546f436f6e7472616374000000000000000000000000000081525060120182815260200191505060405180910390209150612b6a82612b6589612b5788612f47565b612ed990919063ffffffff16565b612ce2565b612b748434613c68565b612b7e8988613cd3565b8873ffffffffffffffffffffffffffffffffffffffff163373ffffffffffffffffffffffffffffffffffffffff167efe0e12b43090c1fc19a34aefa5cc138a4eeafc60ab800f855c730b3fb9480e348a612bd6611ea0565b60405180848152602001838152602001828152602001935050505060405180910390a386975050505050505050919050565b6000612c4860405180807f737072656164576569000000000000000000000000000000000000000000000081525060090190506040518091039020612f96565b905090565b60008060008360405180807f636f6e747261637441646472657373546f4964000000000000000000000000008152506013018273ffffffffffffffffffffffffffffffffffffffff1673ffffffffffffffffffffffffffffffffffffffff166c0100000000000000000000000002815260140191505060405180910390209150612cd682612f96565b90508092505050919050565b600360009054906101000a900473ffffffffffffffffffffffffffffffffffffffff1673ffffffffffffffffffffffffffffffffffffffff1663e2a4853a83836040518363ffffffff167c010000000000000000000000000000000000000000000000000000000002815260040180836000191660001916815260200182815260200192505050600060405180830381600087803b158015612d8357600080fd5b505af1158015612d97573d6000803e3d6000fd5b505050505050565b600360009054906101000a900473ffffffffffffffffffffffffffffffffffffffff1673ffffffffffffffffffffffffffffffffffffffff1663ca446dd983836040518363ffffffff167c01000000000000000000000000000000000000000000000000000000000281526004018083600019166000191681526020018273ffffffffffffffffffffffffffffffffffffffff1673ffffffffffffffffffffffffffffffffffffffff16815260200192505050600060405180830381600087803b158015612e6c57600080fd5b505af1158015612e80573d6000803e3d6000fd5b505050505050565b600080831415612e9b5760009050612ebd565b8183029050818382811515612eac57fe5b04141515612eb957600080fd5b8090505b92915050565b60008183811515612ed057fe5b04905092915050565b60008183019050828110151515612eef57600080fd5b80905092915050565b6000612f408260405180807f657468526563656976656446726f6d436f6e74726163740000000000000000008152506017018281526020019150506040518091039020612f96565b9050919050565b6000612f8f8260405180807f73656e74326b6579546f436f6e747261637400000000000000000000000000008152506012018281526020019150506040518091039020612f96565b9050919050565b6000600360009054906101000a900473ffffffffffffffffffffffffffffffffffffffff1673ffffffffffffffffffffffffffffffffffffffff1663bd02d0f5836040518263ffffffff167c0100000000000000000000000000000000000000000000000000000000028152600401808260001916600019168152602001915050602060405180830381600087803b15801561303157600080fd5b505af1158015613045573d6000803e3d6000fd5b505050506040513d602081101561305b57600080fd5b81019080805190602001909291905050509050919050565b6000600260009054906101000a900473ffffffffffffffffffffffffffffffffffffffff1673ffffffffffffffffffffffffffffffffffffffff1663db7a6d90836040518263ffffffff167c01000000000000000000000000000000000000000000000000000000000281526004018080602001828103825283818151815260200191508051906020019080838360005b8381101561311f578082015181840152602081019050613104565b50505050905090810190601f16801561314c5780820380516001836020036101000a031916815260200191505b5092505050602060405180830381600087803b15801561316b57600080fd5b505af115801561317f573d6000803e3d6000fd5b505050506040513d602081101561319557600080fd5b81019080805190602001909291905050509050919050565b6000600360009054906101000a900473ffffffffffffffffffffffffffffffffffffffff1673ffffffffffffffffffffffffffffffffffffffff166321f8a721836040518263ffffffff167c0100000000000000000000000000000000000000000000000000000000028152600401808260001916600019168152602001915050602060405180830381600087803b15801561324857600080fd5b505af115801561325c573d6000803e3d6000fd5b505050506040513d602081101561327257600080fd5b81019080805190602001909291905050509050919050565b60008061329684612c4d565b91508160405180807f646169576569417661696c61626c65546f57697468647261770000000000000081525060190182815260200191505060405180910390209050600360009054906101000a900473ffffffffffffffffffffffffffffffffffffffff1673ffffffffffffffffffffffffffffffffffffffff1663e2a4853a826133328661332487612233565b6133b190919063ffffffff16565b6040518363ffffffff167c010000000000000000000000000000000000000000000000000000000002815260040180836000191660001916815260200182815260200192505050600060405180830381600087803b15801561339357600080fd5b505af11580156133a7573d6000803e3d6000fd5b5050505050505050565b60008282111515156133c257600080fd5b818303905092915050565b7f9be0195c28468ef993738d39aaf3363fe8e28a9e38dabf6eac52d634ede405a133878787873073ffffffffffffffffffffffffffffffffffffffff16318888604051808973ffffffffffffffffffffffffffffffffffffffff1673ffffffffffffffffffffffffffffffffffffffff1681526020018873ffffffffffffffffffffffffffffffffffffffff1673ffffffffffffffffffffffffffffffffffffffff1681526020018781526020018681526020018581526020018481526020018381526020018281526020019850505050505050505060405180910390a1505050505050565b8073ffffffffffffffffffffffffffffffffffffffff166108fc349081150290604051600060405180830381858888f193505050501580156134f9573d6000803e3d6000fd5b5050565b600061352c8261351e670de0b6b3a764000086612e8890919063ffffffff16565b612ec390919063ffffffff16565b905092915050565b6000806000808460405180807f657468576569417661696c61626c65546f486564676500000000000000000000815250601601828152602001915050604051809103902093508460405180807f646169576569417661696c61626c65546f576974686472617700000000000000815250601901828152602001915050604051809103902092508460405180807f657468576569486564676564506572436f6e7472616374000000000000000000815250601701828152602001915050604051809103902091508460405180807f646169576569526563656976656446726f6d48656467696e67506572436f6e7481526020017f7261637400000000000000000000000000000000000000000000000000000000815250602401828152602001915050604051809103902090506136848161367f8a61367189613717565b612ed990919063ffffffff16565b612ce2565b6136a8826136a3896136958961378c565b612ed990919063ffffffff16565b612ce2565b6136b28487612ce2565b6136d6836136d18a6136c389612233565b612ed990919063ffffffff16565b612ce2565b5050505050505050565b600061370f83613701670de0b6b3a764000085612e8890919063ffffffff16565b612ec390919063ffffffff16565b905092915050565b60006137858260405180807f646169576569526563656976656446726f6d48656467696e67506572436f6e7481526020017f72616374000000000000000000000000000000000000000000000000000000008152506024018281526020019150506040518091039020612f96565b9050919050565b60006137d48260405180807f657468576569486564676564506572436f6e74726163740000000000000000008152506017018281526020019150506040518091039020612f96565b9050919050565b60008060008060008560405180807f646169576569417661696c61626c65546f5769746864726177000000000000008152506019018281526020019150506040518091039020945060405180807f646169576569417661696c61626c65546f46696c6c324b45595265736572766581525060200190506040518091039020935061386486612233565b92506138708787611320565b915061387a6121ee565b9050613898846138938484612ed990919063ffffffff16565b612ce2565b6138b4856138af84866133b190919063ffffffff16565b612ce2565b50505050505050565b600073ffffffffffffffffffffffffffffffffffffffff168273ffffffffffffffffffffffffffffffffffffffff1614151515613962576040517f08c379a00000000000000000000000000000000000000000000000000000000081526004018080602001828103825260208152602001807f62656e656669636961727920616464726573732063616e206e6f74206265203081525060200191505060405180910390fd5b600081141515156139db576040517f08c379a00000000000000000000000000000000000000000000000000000000081526004018080602001828103825260178152602001807f77656920616d6f756e742063616e206e6f74206265203000000000000000000081525060200191505060405180910390fd5b5050565b6000806000613a226040805190810160405280601a81526020017f54776f4b657945786368616e676552617465436f6e7472616374000000000000815250613073565b91508173ffffffffffffffffffffffffffffffffffffffff1663744248db6040518163ffffffff167c01000000000000000000000000000000000000000000000000000000000281526004018080602001828103825260038152602001807f5553440000000000000000000000000000000000000000000000000000000000815250602001915050602060405180830381600087803b158015613ac457600080fd5b505af1158015613ad8573d6000803e3d6000fd5b505050506040513d6020811015613aee57600080fd5b81019080805190602001909291905050509050613b1d613b0c611ea0565b828602612ec390919063ffffffff16565b92505050919050565b6000806000806000613b36612006565b9350613b4c600185612ed990919063ffffffff16565b92508560405180807f636f6e747261637441646472657373546f4964000000000000000000000000008152506013018273ffffffffffffffffffffffffffffffffffffffff1673ffffffffffffffffffffffffffffffffffffffff166c01000000000000000000000000028152601401915050604051809103902091508260405180807f6964546f436f6e7472616374416464726573730000000000000000000000000081525060130182815260200191505060405180910390209050613c138284612ce2565b613c1d8187612d9f565b613c5c60405180807f6e756d6265724f66436f6e7472616374730000000000000000000000000000008152506011019050604051809103902084612ce2565b82945050505050919050565b60008260405180807f657468576569417661696c61626c65546f48656467650000000000000000000081525060160182815260200191505060405180910390209050613cce81613cc984613cbb85612f96565b612ed990919063ffffffff16565b612ce2565b505050565b613cdd8282613ce1565b5050565b6000613d2160405180807f54574f5f4b45595f544f4b454e00000000000000000000000000000000000000815250600d01905060405180910390206131ad565b90508073ffffffffffffffffffffffffffffffffffffffff1663a9059cbb84846040518363ffffffff167c0100000000000000000000000000000000000000000000000000000000028152600401808373ffffffffffffffffffffffffffffffffffffffff1673ffffffffffffffffffffffffffffffffffffffff16815260200182815260200192505050602060405180830381600087803b158015613dc657600080fd5b505af1158015613dda573d6000803e3d6000fd5b505050506040513d6020811015613df057600080fd5b8101908080519060200190929190505050505050505600a165627a7a7230582083e569deddb5fb93b203945c23414b010339b141712deb5d75701d6a032016bc0029",
  "source": "pragma solidity ^0.4.24;\n\n\nimport \"../ERC20/ERC20.sol\";\n\nimport \"../interfaces/ITwoKeyExchangeRateContract.sol\";\nimport \"../interfaces/ITwoKeyCampaignValidator.sol\";\nimport \"../interfaces/IKyberNetworkProxy.sol\";\nimport \"../interfaces/storage-contracts/ITwoKeyUpgradableExchangeStorage.sol\";\nimport \"../interfaces/IERC20.sol\";\nimport \"../interfaces/IBancorContract.sol\";\n\nimport \"../upgradability/Upgradeable.sol\";\n\nimport \"../libraries/SafeMath.sol\";\nimport \"../libraries/GetCode.sol\";\nimport \"../non-upgradable-singletons/ITwoKeySingletonUtils.sol\";\n\n\ncontract TwoKeyUpgradableExchange is Upgradeable, ITwoKeySingletonUtils {\n\n    using SafeMath for uint256;\n\n    bool initialized;\n\n    ITwoKeyUpgradableExchangeStorage public PROXY_STORAGE_CONTRACT;\n\n    /**\n     * @notice Event will be fired every time someone buys tokens\n     */\n    event TokenSell(\n        address indexed purchaser,\n        address indexed beneficiary,\n        uint256 value,\n        uint256 amount\n    );\n\n\n    /**\n     * Event for token purchase logging\n     * @param purchaser who paid for the tokens\n     * @param receiver is who got the tokens\n     * @param weiReceived is how weis paid for purchase\n     * @param tokensBought is the amount of tokens purchased\n     * @param rate is the global variable rate on the contract\n     */\n    event TokenPurchase(\n        address indexed purchaser,\n        address indexed receiver,\n        uint256 weiReceived,\n        uint256 tokensBought,\n        uint256 rate\n    );\n\n\n    /**\n     * @notice This event will be fired every time a withdraw is executed\n     */\n    event WithdrawExecuted(\n        address caller,\n        address beneficiary,\n        uint stableCoinsReserveBefore,\n        uint stableCoinsReserveAfter,\n        uint etherBalanceBefore,\n        uint etherBalanceAfter,\n        uint stableCoinsToWithdraw,\n        uint twoKeyAmount\n    );\n\n    event HedgedEther (\n        uint _daisReceived,\n        uint _ratio,\n        uint _numberOfContracts\n    );\n\n\n    /**\n     * @notice Constructor of the contract, can be called only once\n     * @param _token is ERC20 2key token\n     * @param _daiAddress is the address of DAI on ropsten\n     * @param _kyberNetworkProxy is the address of Kyber network contract\n     * @param _twoKeySingletonesRegistry is the address of TWO_KEY_SINGLETON_REGISTRY\n     * @param _proxyStorageContract is the address of proxy of storage contract\n     */\n    function setInitialParams(\n        ERC20 _token,\n        address _daiAddress,\n        address _kyberNetworkProxy,\n        address _twoKeySingletonesRegistry,\n        address _proxyStorageContract\n    )\n    external\n    {\n        require(initialized == false);\n\n        TWO_KEY_SINGLETON_REGISTRY = _twoKeySingletonesRegistry;\n        PROXY_STORAGE_CONTRACT = ITwoKeyUpgradableExchangeStorage(_proxyStorageContract);\n        setUint(keccak256(\"spreadWei\"), 3**16); // 3% wei\n        // 0.1$ Wei\n        setUint(keccak256(\"sellRate2key\"),10**17);// When anyone send Ether to contract, 2key in exchange will be calculated on it's sell rate\n        setUint(keccak256(\"weiRaised\"),0);\n        setUint(keccak256(\"numberOfContracts\"), 0); //Number of contracts which have interacted with this contract through buyTokens function\n\n        setAddress(keccak256(\"TWO_KEY_TOKEN\"),address(_token));\n        setAddress(keccak256(\"DAI\"), _daiAddress);\n        setAddress(keccak256(\"ETH_TOKEN_ADDRESS\"), 0xeeeeeeeeeeeeeeeeeeeeeeeeeeeeeeeeeeeeeeee);\n        setAddress(keccak256(\"KYBER_NETWORK_PROXY\"), _kyberNetworkProxy);\n\n        initialized = true;\n    }\n\n    /**\n     * @notice Modifier which will validate if contract is allowed to buy tokens\n     */\n    modifier onlyValidatedContracts {\n        address twoKeyCampaignValidator = getAddressFromTwoKeySingletonRegistry(\"TwoKeyCampaignValidator\");\n        require(ITwoKeyCampaignValidator(twoKeyCampaignValidator).isCampaignValidated(msg.sender) == true);\n        _;\n    }\n\n\n    /**\n     * @dev Validation of an incoming purchase. Use require statements to revert state when conditions are not met. Use `super` in contracts that inherit from Crowdsale to extend their validations.\n     * @param _beneficiary Address performing the token purchase\n     * @param _weiAmount Value in wei involved in the purchase\n     */\n    function _preValidatePurchase(\n        address _beneficiary,\n        uint256 _weiAmount\n    )\n    private\n    {\n        require(_beneficiary != address(0),'beneficiary address can not be 0' );\n        require(_weiAmount != 0, 'wei amount can not be 0');\n    }\n\n\n    /**\n     * @dev Source of tokens. Override this method to modify the way in which the crowdsale ultimately gets and sends its tokens.\n     * @param _beneficiary Address performing the token purchase\n     * @param _tokenAmount Number of tokens to be emitted\n     */\n    function _deliverTokens(\n        address _beneficiary,\n        uint256 _tokenAmount\n    )\n    internal\n    {\n        //Take the address of token from storage\n        address tokenAddress = getAddress(keccak256(\"TWO_KEY_TOKEN\"));\n        ERC20(tokenAddress).transfer(_beneficiary, _tokenAmount);\n    }\n\n\n    /**\n     * @dev Executed when a purchase has been validated and is ready to be executed. Not necessarily emits/sends tokens.\n     * @param _beneficiary Address receiving the tokens\n     * @param _tokenAmount Number of tokens to be purchased\n     */\n    function _processPurchase(\n        address _beneficiary,\n        uint256 _tokenAmount\n    )\n    internal\n    {\n        _deliverTokens(_beneficiary, _tokenAmount);\n    }\n\n    /**\n     * @dev Determines how ETH is stored/forwarded on purchases.\n     */\n    function _forwardFunds(\n        address _twoKeyAdmin\n    )\n    internal\n    {\n        _twoKeyAdmin.transfer(msg.value);\n    }\n\n\n    /**\n     * @notice Function to calculate how much pnercentage will be deducted from values\n     */\n    function calculatePercentageToDeduct(\n        uint _ethWeiHedged,\n        uint _sumOfAmounts\n    )\n    internal\n    view\n    returns (uint)\n    {\n        return _ethWeiHedged.mul(10**18).div(_sumOfAmounts);\n    }\n\n    /**\n     * @notice Function to calculate ratio between eth and dai in WEI's\n     */\n    function calculateRatioBetweenDAIandETH(\n        uint _ethWeiHedged,\n        uint _daiReceived\n    )\n    internal\n    view\n    returns (uint)\n    {\n        return _daiReceived.mul(10**18).div(_ethWeiHedged);\n    }\n\n    /**\n     * @notice Function to calculate available to hedge sum on all contracts\n     */\n    function calculateSumOnContracts(\n        uint startIndex,\n        uint endIndex\n    )\n    public\n    view\n    returns (uint)\n    {\n        uint sumOfAmounts = 0; //Will represent total sum we have on the contract\n        uint i;\n\n        // Sum all amounts on all contracts\n        for(i=startIndex; i<=endIndex; i++) {\n            sumOfAmounts = sumOfAmounts.add(ethWeiAvailableToHedge(i));\n        }\n        return sumOfAmounts;\n    }\n\n    /**\n     * @notice Setter for EthWeiAvailableToHedge\n     * @param _contractID is the ID of the contract\n     * @param _msgValue is the amount sent\n     */\n    function updateEthWeiAvailableToHedge(\n        uint _contractID,\n        uint _msgValue\n    )\n    internal {\n        // Update EthWeiAvailableToHedge per contract\n        bytes32 ethWeiAvailableToHedgeKeyHash = keccak256(\"ethWeiAvailableToHedge\", _contractID);\n        setUint(ethWeiAvailableToHedgeKeyHash, getUint(ethWeiAvailableToHedgeKeyHash).add(_msgValue));\n    }\n\n\n\n    /**\n     * @notice Function to register new contract with corresponding ID\n     * @param _contractAddress is the address of the contract we're adding\n     */\n    function addNewContract(\n        address _contractAddress\n    )\n    internal\n    returns (uint)\n    {\n        // Get number of currently different contracts and increment by 1\n        uint numberOfContractsExisting = numberOfContracts();\n        uint id = numberOfContractsExisting.add(1);\n\n        bytes32 keyHashContractAddressToId = keccak256(\"contractAddressToId\", _contractAddress);\n        bytes32 keyHashIdToContractAddress = keccak256(\"idToContractAddress\", id);\n\n        // Set mappings id=>contractAddress and contractAddress=>id\n        setUint(keyHashContractAddressToId, id);\n        setAddress(keyHashIdToContractAddress, _contractAddress);\n\n        // Increment number of existing contracts\n        setUint(keccak256(\"numberOfContracts\"), id);\n\n        // Return contract ID\n        return id;\n    }\n\n    /**\n     * @notice Function to get contract id, if return 0 means contract is not existing\n     */\n    function getContractId(\n        address _contractAddress\n    )\n    public\n    view\n    returns (uint) {\n        bytes32 keyHashContractAddressToId = keccak256(\"contractAddressToId\", _contractAddress);\n        uint id = getUint(keyHashContractAddressToId);\n        return id;\n    }\n\n    /**\n     * @dev Override to extend the way in which ether is converted to tokens.\n     * @param _weiAmount Value in wei to be converted into tokens\n     * @return Number of tokens that can be purchased with the specified _weiAmount\n     */\n    function _getTokenAmountToBeSold(\n        uint256 _weiAmount\n    )\n    internal\n    view\n    returns (uint256)\n    {\n        address twoKeyExchangeRateContract = getAddressFromTwoKeySingletonRegistry(\"TwoKeyExchangeRateContract\");\n\n        uint rate = ITwoKeyExchangeRateContract(twoKeyExchangeRateContract).getBaseToTargetRate(\"USD\");\n        return (_weiAmount*rate).div(sellRate2key());\n    }\n\n    /**\n     * @notice Function to emit an event, created separately because of stack depth\n     */\n    function emitEventWithdrawExecuted(\n        address _beneficiary,\n        uint _stableCoinsOnContractBefore,\n        uint _stableCoinsAfter,\n        uint _etherBalanceOnContractBefore,\n        uint _stableCoinUnits,\n        uint twoKeyUnits\n    )\n    internal\n    {\n        emit WithdrawExecuted(\n            msg.sender,\n            _beneficiary,\n            _stableCoinsOnContractBefore,\n            _stableCoinsAfter,\n            _etherBalanceOnContractBefore,\n            this.balance,\n            _stableCoinUnits,\n            twoKeyUnits\n        );\n    }\n\n    // Internal wrapper methods\n    function getUint(\n        bytes32 key\n    )\n    internal\n    view\n    returns (uint)\n    {\n        return PROXY_STORAGE_CONTRACT.getUint(key);\n    }\n\n    // Internal wrapper methods\n    function setUint(\n        bytes32 key,\n        uint value\n    )\n    internal\n    {\n        PROXY_STORAGE_CONTRACT.setUint(key, value);\n    }\n\n    //Internal wrapper method\n    function getBool(\n        bytes32 key\n    )\n    internal\n    view\n    returns (bool)\n    {\n        PROXY_STORAGE_CONTRACT.getBool(key);\n    }\n\n    //Internal wrapper method\n    function setBool(\n        bytes32 key,\n        bool value\n    )\n    internal\n    {\n        PROXY_STORAGE_CONTRACT.setBool(key,value);\n    }\n\n    // Internal wrapper methods\n    function getAddress(\n        bytes32 key\n    )\n    internal\n    view\n    returns (address)\n    {\n        return PROXY_STORAGE_CONTRACT.getAddress(key);\n    }\n\n    // Internal wrapper methods\n    function setAddress(\n        bytes32 key,\n        address value\n    )\n    internal\n    {\n        PROXY_STORAGE_CONTRACT.setAddress(key, value);\n    }\n\n    /**\n     * @notice Function to get eth received from contract for specific contract ID\n     * @param _contractID is the ID of the contract we're requesting information\n     */\n    function ethReceivedFromContract(\n        uint _contractID\n    )\n    internal\n    view\n    returns (uint)\n    {\n        return getUint(keccak256(\"ethReceivedFromContract\", _contractID));\n    }\n\n    /**\n     * @notice Function to get how many 2keys are sent to selected contract\n     * @param _contractID is the ID of the contract we're requesting information\n     */\n    function sent2keyToContract(\n        uint _contractID\n    )\n    internal\n    view\n    returns (uint)\n    {\n        return getUint(keccak256(\"sent2keyToContract\", _contractID));\n    }\n\n    /**\n     * @notice Function to get how much ethWei hedged per contract\n     * @param _contractID is the ID of the contract we're requesting information\n     */\n    function ethWeiHedgedPerContract(\n        uint _contractID\n    )\n    internal\n    view\n    returns (uint)\n    {\n        return getUint(keccak256(\"ethWeiHedgedPerContract\", _contractID));\n    }\n\n    /**\n     * @notice Function to determine how many dai received from hedging per contract\n     * @param _contractID is the ID of the contract we're requesting information\n     */\n    function daiWeiReceivedFromHedgingPerContract(\n        uint _contractID\n    )\n    internal\n    view\n    returns (uint)\n    {\n        return getUint(keccak256(\"daiWeiReceivedFromHedgingPerContract\", _contractID));\n    }\n\n\n\n    /**\n     * @notice Function to calculate how many stable coins we can get for specific amount of 2keys\n     * @dev This is happening in case we're receiving (buying) 2key\n     * @param _2keyAmount is the amount of 2keys sent to the contract\n     */\n    function getUSDStableCoinAmountFrom2keyUnits(\n        uint256 _2keyAmount,\n        uint _campaignID\n    )\n    public\n    view\n    returns (uint256)\n    {\n        uint activeHedgeRate = get2KEY2DAIHedgedRate(_campaignID);\n\n        uint hundredPercent = 10**18;\n        uint rateWithSpread = activeHedgeRate.mul(hundredPercent.sub(spreadWei())).div(10**18);\n        uint amountOfDAIs = _2keyAmount.mul(rateWithSpread).div(10**18);\n\n        return amountOfDAIs;\n    }\n\n    /**\n     * @notice Function to buyTokens\n     * @param _beneficiary to get\n     * @return amount of tokens bought\n     */\n    function buyTokens(\n        address _beneficiary\n    )\n    public\n    payable\n    onlyValidatedContracts\n    returns (uint)\n    {\n        _preValidatePurchase(_beneficiary, msg.value);\n\n        // calculate token amount to be created\n        uint256 tokens = _getTokenAmountToBeSold(msg.value);\n\n        // update state\n        bytes32 weiRaisedKeyHash = keccak256(\"weiRaised\");\n        uint weiRaised = getUint(weiRaisedKeyHash).add(msg.value);\n        setUint(weiRaisedKeyHash,weiRaised);\n\n        // check if contract is first time interacting with this one\n        uint contractId = getContractId(msg.sender);\n\n        if(contractId == 0) {\n            contractId = addNewContract(msg.sender);\n        }\n\n        bytes32 ethReceivedFromContractKeyHash = keccak256(\"ethReceivedFromContract\", contractId);\n        setUint(ethReceivedFromContractKeyHash, ethReceivedFromContract(contractId).add(msg.value));\n\n        bytes32 sent2keyToContractKeyHash = keccak256(\"sent2keyToContract\", contractId);\n        setUint(sent2keyToContractKeyHash, sent2keyToContract(contractId).add(tokens));\n\n        updateEthWeiAvailableToHedge(contractId, msg.value);\n\n        _processPurchase(_beneficiary, tokens);\n\n\n        emit TokenPurchase(\n            msg.sender,\n            _beneficiary,\n            msg.value,\n            tokens,\n            sellRate2key()\n        );\n\n        return tokens;\n    }\n\n    /**\n     * @notice Function which will be called every time by campaign when referrer select to withdraw directly 2key token\n     * @param amountOfTokensWithdrawn is the amount of tokens he wants to withdraw\n     */\n    function report2KEYWithdrawnFromNetwork(\n        uint amountOfTokensWithdrawn\n    )\n    public\n    onlyValidatedContracts\n    {\n        uint _contractID = getContractId(msg.sender);\n        report2KEYWithdrawnFromNetworkInternal(amountOfTokensWithdrawn, _contractID);\n    }\n\n    /**\n     * @param amountOfTokensWithdrawn is the amount of tokens he wants to withdraw\n     * @param _contractID is the id of the contract\n     */\n    function report2KEYWithdrawnFromNetworkInternal(\n        uint amountOfTokensWithdrawn,\n        uint _contractID\n    )\n    internal\n    {\n        bytes32 _daiWeiAvailableToWithdrawKeyHash = keccak256(\"daiWeiAvailableToWithdraw\",_contractID);\n        bytes32 _daiWeiAvailableToFill2KEYReserveKeyHash = keccak256(\"daiWeiAvailableToFill2KEYReserve\");\n\n        uint _daiWeiAvailable = daiWeiAvailableToWithdraw(_contractID);\n        uint _daiWeiToReduce = getUSDStableCoinAmountFrom2keyUnits(amountOfTokensWithdrawn, _contractID);\n\n        uint _daiWeiAvailableToFill2keyReserveCurrently = daiWeiAvailableToFill2KEYReserve();\n\n\n\n        setUint(_daiWeiAvailableToFill2KEYReserveKeyHash, _daiWeiAvailableToFill2keyReserveCurrently.add(_daiWeiToReduce));\n        setUint(_daiWeiAvailableToWithdrawKeyHash, _daiWeiAvailable.sub(_daiWeiToReduce));\n    }\n\n    /**\n     * @notice Function to get expected rate from Kyber contract\n     * @param amountEthWei is the amount we'd like to exchange\n     * @return if the value is 0 that means we can't\n     */\n    function getKyberExpectedRate(\n        uint amountEthWei\n    )\n    public\n    view\n    returns (uint)\n    {\n        address kyberProxyContract = getAddress(keccak256(\"KYBER_NETWORK_PROXY\"));\n        IKyberNetworkProxy proxyContract = IKyberNetworkProxy(kyberProxyContract);\n\n        ERC20 eth = ERC20(getAddress(keccak256(\"ETH_TOKEN_ADDRESS\")));\n        ERC20 dai = ERC20(getAddress(keccak256(\"DAI\")));\n\n        uint minConversionRate;\n        (minConversionRate,) = proxyContract.getExpectedRate(eth, dai, amountEthWei);\n\n        return minConversionRate;\n    }\n\n\n    /**\n     * @notice Function to start hedging some ether amount\n     * @param amountToBeHedged is the amount we'd like to hedge\n     * @dev only maintainer can call this function\n     */\n    function startHedging(\n        uint amountToBeHedged,\n        uint approvedMinConversionRate\n    )\n    public\n    onlyMaintainer\n    {\n        ERC20 dai = ERC20(getAddress(keccak256(\"DAI\")));\n        if(amountToBeHedged > address(this).balance) {\n            amountToBeHedged = address(this).balance;\n        }\n        address kyberProxyContract = getAddress(keccak256(\"KYBER_NETWORK_PROXY\"));\n        IKyberNetworkProxy proxyContract = IKyberNetworkProxy(kyberProxyContract);\n\n        uint minConversionRate = getKyberExpectedRate(amountToBeHedged);\n        require(minConversionRate >= approvedMinConversionRate.mul(95).div(100)); //Means our rate can be at most same as their rate, because they're giving the best rate\n        uint stableCoinUnits = proxyContract.swapEtherToToken.value(amountToBeHedged)(dai,minConversionRate);\n        // Get the ratio between ETH and DAI for this hedging\n        uint ratio = calculateRatioBetweenDAIandETH(amountToBeHedged, stableCoinUnits);\n        //Emit event with important data\n        emit HedgedEther(stableCoinUnits, ratio, numberOfContracts());\n    }\n\n    function calculateHedgedAndReceivedForDefinedChunk(\n        uint numberOfContractsCurrently,\n        uint amountHedged,\n        uint stableCoinsReceived,\n        uint startIndex,\n        uint endIndex\n    )\n    public\n    view\n    returns (uint,uint)\n    {\n        //We're calculating sum on contracts between start and end index\n        uint sumInRange = calculateSumOnContracts(startIndex,endIndex);\n        //Now we need how much was hedged from this contracts between start and end index\n        uint stableCoinsReceivedForThisChunkOfContracts = (sumInRange.mul(stableCoinsReceived)).div(amountHedged);\n        // Returning for this piece of contracts\n        return (sumInRange, stableCoinsReceivedForThisChunkOfContracts);\n    }\n\n    /**\n     * @notice Function to reduce available amount to hedge and increase available DAI to withdraw\n     * @param _ethWeiHedgedForThisChunk is how much eth was hedged\n     * @param _daiReceivedForThisChunk is how much DAI's we got for that hedging\n     */\n    function reduceHedgedAmountFromContractsAndIncreaseDaiAvailable(\n        uint _ethWeiHedgedForThisChunk,\n        uint _daiReceivedForThisChunk,\n        uint _ratio,\n        uint _startIndex,\n        uint _endIndex\n    )\n    public\n    onlyMaintainer\n    {\n        uint i;\n        uint percentageToDeductWei = calculatePercentageToDeduct(_ethWeiHedgedForThisChunk, _ethWeiHedgedForThisChunk); // Percentage to deduct in WEI (less than 1)\n\n        for(i=_startIndex; i<=_endIndex; i++) {\n            if(ethWeiAvailableToHedge(i) > 0) {\n                uint beforeHedgingAvailableEthWeiForContract = ethWeiAvailableToHedge(i);\n                uint hundredPercentWei = 10**18;\n                uint afterHedgingAvailableEthWei = beforeHedgingAvailableEthWeiForContract.mul(hundredPercentWei.sub(percentageToDeductWei)).div(10**18);\n\n                uint hedgedEthWei = beforeHedgingAvailableEthWeiForContract.sub(afterHedgingAvailableEthWei);\n                uint daisReceived = hedgedEthWei.mul(_ratio).div(10**18);\n                updateAccountingValues(daisReceived, hedgedEthWei, afterHedgingAvailableEthWei, i);\n            }\n        }\n    }\n\n    /**\n     * @notice Internal function created to update specific values, separated because of stack depth\n     * @param _daisReceived is the amount of received dais\n     * @param _hedgedEthWei is the amount of ethWei hedged\n     * @param _afterHedgingAvailableEthWei is the amount available after hedging\n     * @param _contractID is the ID of the contract\n     */\n    function updateAccountingValues(\n        uint _daisReceived,\n        uint _hedgedEthWei,\n        uint _afterHedgingAvailableEthWei,\n        uint _contractID\n    )\n    internal\n    {\n        bytes32 ethWeiAvailableToHedgeKeyHash = keccak256(\"ethWeiAvailableToHedge\", _contractID);\n        bytes32 daiWeiAvailableToWithdrawKeyHash = keccak256(\"daiWeiAvailableToWithdraw\", _contractID);\n        bytes32 ethWeiHedgedPerContractKeyHash = keccak256(\"ethWeiHedgedPerContract\", _contractID);\n        bytes32 daiWeiReceivedFromHedgingPerContractKeyHash = keccak256(\"daiWeiReceivedFromHedgingPerContract\",_contractID);\n\n        setUint(daiWeiReceivedFromHedgingPerContractKeyHash, daiWeiReceivedFromHedgingPerContract(_contractID).add(_daisReceived));\n        setUint(ethWeiHedgedPerContractKeyHash, ethWeiHedgedPerContract(_contractID).add(_hedgedEthWei));\n        setUint(ethWeiAvailableToHedgeKeyHash, _afterHedgingAvailableEthWei);\n        setUint(daiWeiAvailableToWithdrawKeyHash, daiWeiAvailableToWithdraw(_contractID).add(_daisReceived));\n    }\n\n\n    /**\n     * @notice Function to reduce amount of dai available to be withdrawn from selected contract\n     * @param contractAddress is the address of the contract\n     * @param daiAmount is the amount of dais\n     */\n    function reduceDaiWeiAvailableToWithdraw(\n        address contractAddress,\n        uint daiAmount\n    )\n    internal\n    {\n        uint contractId = getContractId(contractAddress);\n        bytes32 keyHashDaiWeiAvailableToWithdraw = keccak256('daiWeiAvailableToWithdraw', contractId);\n        PROXY_STORAGE_CONTRACT.setUint(keyHashDaiWeiAvailableToWithdraw, daiWeiAvailableToWithdraw(contractId).sub(daiAmount));\n    }\n\n    /**\n     * @notice Function which will be called by 2key campaigns if user wants to withdraw his earnings in stableCoins\n     * @param _twoKeyUnits is the amount of 2key tokens which will be taken from campaign\n     * @param _beneficiary is the user who will receive the tokens\n     */\n    function buyStableCoinWith2key(\n        uint _twoKeyUnits,\n        address _beneficiary\n    )\n    external\n    onlyValidatedContracts\n    {\n        ERC20 dai = ERC20(getAddress(keccak256(\"DAI\")));\n        ERC20 token = ERC20(getAddress(keccak256(\"TWO_KEY_TOKEN\")));\n\n        uint stableCoinUnits = getUSDStableCoinAmountFrom2keyUnits(_twoKeyUnits, getContractId(msg.sender));\n        uint etherBalanceOnContractBefore = this.balance;\n        uint stableCoinsOnContractBefore = dai.balanceOf(address(this));\n\n        reduceDaiWeiAvailableToWithdraw(msg.sender, stableCoinUnits);\n\n        emitEventWithdrawExecuted(\n            _beneficiary,\n            stableCoinsOnContractBefore,\n            stableCoinsOnContractBefore.sub(stableCoinUnits),\n            etherBalanceOnContractBefore,\n            stableCoinUnits,\n            _twoKeyUnits\n        );\n\n        token.transferFrom(msg.sender, address(this), _twoKeyUnits);\n        dai.transfer(_beneficiary, stableCoinUnits);\n    }\n\n    /**\n     * @notice Function to buy 2key tokens from Bancor\n     * @param amountDAI we're willing to send (daiWeiAvailableToFill2keyReserve)\n     * @param amount2KEY the minimum amount of 2KEY that is acceptable in return\n     */\n    function buy2KEYFromBancor(\n        uint amountDAI,\n        uint amount2KEY\n    )\n    public\n    payable\n    onlyMaintainer\n    {\n        // Firstly we need to approve Bancor converter to take tokens from us\n        address dai = getAddress(keccak256(\"DAI\"));\n        address bancorConverter = getAddress(keccak256(\"BANCOR_CONVERTER\")); //TODO: See how to store this\n        address bancorToken = getAddress(keccak256(\"BNT\"));\n\n        // Approving bancor to take tokens from US\n        ERC20(dai).approve(bancorConverter, amountDAI);\n\n        // We need to create path\n        IERC20[] memory path = new IERC20[](5);\n        path[0] = IERC20(dai);\n        path[1] = IERC20(bancorToken);\n        path[2] = IERC20(bancorToken);\n        path[3] = IERC20(getAddress(keccak256(\"TWO_KEY_TOKEN\")));\n        path[4] = IERC20(getAddress(keccak256(\"TWO_KEY_TOKEN\")));\n\n        uint receivedTokens = IBancorContract(bancorConverter).quickConvert(path, amountDAI, amount2KEY);\n\n        bytes32 daiWeiAvailablbeToFill2keyReserveKeyHash = keccak256(\"daiWeiAvailableToFill2KEYReserve\");\n        setUint(daiWeiAvailablbeToFill2keyReserveKeyHash, daiWeiAvailableToFill2KEYReserve().sub(amountDAI));\n    }\n\n    /**\n     * @notice Function to return number of campaign contracts (different) interacted with this contract\n     */\n    function numberOfContracts() public view returns (uint) {\n        return getUint(keccak256(\"numberOfContracts\"));\n    }\n\n\n    /**\n     * @notice Function to get 2key to DAI hedged rate\n     * @param _contractID is the ID of the contract we're fetching this rate (avg)\n     */\n    function get2KEY2DAIHedgedRate(\n        uint _contractID\n    )\n    public\n    view\n    returns (uint)\n    {\n        //dai/eth  / 2key/eth = dai * eth /2key *eth = dai / 2key\n        return getEth2DaiAverageExchangeRatePerContract(_contractID).mul(10**18).div(getEth2KeyAverageRatePerContract(_contractID));\n    }\n\n    /**\n     * @notice Function to get Eth2DAI average exchange rate per contract\n     * @param _contractID is the ID of the contract we're requesting information\n     */\n    function getEth2DaiAverageExchangeRatePerContract(\n        uint _contractID\n    )\n    public\n    view\n    returns (uint)\n    {\n        uint ethWeiHedgedPerContractByNow = ethWeiHedgedPerContract(_contractID); //total hedged\n        uint daiWeiReceivedFromHedgingPerContractByNow = daiWeiReceivedFromHedgingPerContract(_contractID); //total received\n        // Average weighted by eth\n        return daiWeiReceivedFromHedgingPerContractByNow.mul(10**18).div(ethWeiHedgedPerContractByNow); //dai/eth\n    }\n\n\n    /**\n     * @notice Function to get Eth22key average exchange rate per contract\n     * @param _contractID is the ID of the contract we're requesting information\n     */\n    function getEth2KeyAverageRatePerContract(\n        uint _contractID\n    )\n    public\n    view\n    returns (uint)\n    {\n        uint ethReceivedFromContractByNow = ethReceivedFromContract(_contractID);\n        uint sent2keyToContractByNow = sent2keyToContract(_contractID);\n        // Average weighted by eth 2key/eth\n        return sent2keyToContractByNow.mul(10**18).div(ethReceivedFromContractByNow);\n    }\n\n    function daiWeiAvailableToFill2KEYReserve()\n    public\n    view\n    returns (uint)\n    {\n        return getUint(keccak256(\"daiWeiAvailableToFill2KEYReserve\"));\n    }\n\n    /**\n     * @notice Getter for mapping \"daiWeiAvailableToWithdraw\" (per contract)\n     */\n    function daiWeiAvailableToWithdraw(\n        uint _contractID\n    )\n    public\n    view\n    returns (uint)\n    {\n        return getUint(keccak256(\"daiWeiAvailableToWithdraw\", _contractID));\n    }\n\n    /**\n     * @notice Getter for \"mapping\" ethWeiAvailableToHedge (per contract)\n     */\n    function ethWeiAvailableToHedge(\n        uint _contractID\n    )\n    public\n    view\n    returns (uint)\n    {\n        return getUint(keccak256(\"ethWeiAvailableToHedge\", _contractID));\n    }\n\n    /**\n     * @notice Getter wrapping all information about income/outcome for every contract\n     * @param _contractAddress is the main campaign address\n     */\n    function getAllStatsForContract(\n        address _contractAddress\n    )\n    public\n    view\n    returns (uint,uint,uint,uint,uint,uint)\n    {\n        uint _contractID = getContractId(_contractAddress);\n        return (\n            ethWeiAvailableToHedge(_contractID),\n            daiWeiAvailableToWithdraw(_contractID),\n            daiWeiReceivedFromHedgingPerContract(_contractID),\n            ethWeiHedgedPerContract(_contractID),\n            sent2keyToContract(_contractID),\n            ethReceivedFromContract(_contractID)\n        );\n    }\n\n\n    function spreadWei()\n    public\n    view\n    returns (uint)\n    {\n        return getUint(keccak256(\"spreadWei\"));\n    }\n\n    /**\n     * @notice Getter for 2key sell rate\n     */\n    function sellRate2key()\n    public\n    view\n    returns (uint)\n    {\n        return getUint(keccak256(\"sellRate2key\"));\n    }\n\n    /**\n     * @notice Getter for weiRaised\n     */\n    function weiRaised()\n    public\n    view\n    returns (uint)\n    {\n        return getUint(keccak256(\"weiRaised\"));\n    }\n\n    /**\n     * @notice Withdraw all ether from contract\n     */\n    function withdrawEther()\n    public\n    {\n        address twoKeyAdmin = getAddressFromTwoKeySingletonRegistry(\"TwoKeyAdmin\");\n        require(msg.sender == twoKeyAdmin);\n        _forwardFunds(twoKeyAdmin);\n    }\n\n\n    /**\n     * @notice Function to withdraw any ERC20 tokens to TwoKeyAdmin\n     */\n    function withdrawERC20(\n        address _erc20TokenAddress,\n        uint _tokenAmount\n    )\n    public\n    {\n        address twoKeyAdmin = getAddressFromTwoKeySingletonRegistry(\"TwoKeyAdmin\");\n        require(msg.sender == twoKeyAdmin);\n        ERC20(_erc20TokenAddress).transfer(twoKeyAdmin, _tokenAmount);\n\n    }\n\n\n    /**\n     * @notice Fallback function to handle incoming ether\n     */\n    function ()\n    public\n    payable\n    {\n\n    }\n\n}\n",
  "sourcePath": "/Users/nikolamadjarevic/Desktop/2key/contracts/contracts/2key/singleton-contracts/TwoKeyUpgradableExchange.sol",
  "compiler": {
    "name": "solc",
    "version": "0.4.24+commit.e67f0147.Emscripten.clang"
  },
  "schemaVersion": "2.0.1",
  "updatedAt": "2019-11-07T08:15:06.408Z"
}