{
  "contractName": "TwoKeyAirdropCampaign",
  "abi": [
    {
      "constant": true,
      "inputs": [],
      "name": "numberOfTokensPerConverter",
      "outputs": [
        {
          "name": "",
          "type": "uint256"
        }
      ],
      "payable": false,
      "stateMutability": "view",
      "type": "function"
    },
    {
      "inputs": [
        {
          "name": "_inventory",
          "type": "uint256"
        },
        {
          "name": "_erc20ContractAddress",
          "type": "address"
        },
        {
          "name": "_campaignStartTime",
          "type": "uint256"
        },
        {
          "name": "_campaignEndTime",
          "type": "uint256"
        },
        {
          "name": "_numberOfTokensPerConverterAndReferralChain",
          "type": "uint256"
        }
      ],
      "payable": false,
      "stateMutability": "nonpayable",
      "type": "constructor"
    },
    {
      "constant": false,
      "inputs": [],
      "name": "activateCampaign",
      "outputs": [],
      "payable": false,
      "stateMutability": "nonpayable",
      "type": "function"
    },
    {
      "constant": false,
      "inputs": [
        {
          "name": "signature",
          "type": "bytes"
        }
      ],
      "name": "convert",
      "outputs": [],
      "payable": false,
      "stateMutability": "nonpayable",
      "type": "function"
    },
    {
      "constant": false,
      "inputs": [
        {
          "name": "conversionId",
          "type": "uint256"
        }
      ],
      "name": "approveConversion",
      "outputs": [],
      "payable": false,
      "stateMutability": "nonpayable",
      "type": "function"
    },
    {
      "constant": false,
      "inputs": [
        {
          "name": "conversionId",
          "type": "uint256"
        }
      ],
      "name": "rejectConversion",
      "outputs": [],
      "payable": false,
      "stateMutability": "nonpayable",
      "type": "function"
    },
    {
      "constant": true,
      "inputs": [],
      "name": "getContractInformations",
      "outputs": [
        {
          "name": "",
          "type": "bytes"
        }
      ],
      "payable": false,
      "stateMutability": "view",
      "type": "function"
    },
    {
      "constant": true,
      "inputs": [
        {
          "name": "_referrer",
          "type": "address"
        }
      ],
      "name": "getReferrerBalanceAndTotalEarnings",
      "outputs": [
        {
          "name": "",
          "type": "uint256"
        },
        {
          "name": "",
          "type": "uint256"
        }
      ],
      "payable": false,
      "stateMutability": "view",
      "type": "function"
    },
    {
      "constant": true,
      "inputs": [
        {
          "name": "conversionId",
          "type": "uint256"
        }
      ],
      "name": "getConversion",
      "outputs": [
        {
          "name": "",
          "type": "address"
        },
        {
          "name": "",
          "type": "uint256"
        },
        {
          "name": "",
          "type": "bytes32"
        }
      ],
      "payable": false,
      "stateMutability": "view",
      "type": "function"
    },
    {
      "constant": true,
      "inputs": [
        {
          "name": "_converter",
          "type": "address"
        }
      ],
      "name": "getConverterBalance",
      "outputs": [
        {
          "name": "",
          "type": "uint256"
        }
      ],
      "payable": false,
      "stateMutability": "view",
      "type": "function"
    },
    {
      "constant": false,
      "inputs": [],
      "name": "converterWithdraw",
      "outputs": [],
      "payable": false,
      "stateMutability": "nonpayable",
      "type": "function"
    },
    {
      "constant": false,
      "inputs": [],
      "name": "referrerWithdraw",
      "outputs": [],
      "payable": false,
      "stateMutability": "nonpayable",
      "type": "function"
    }
  ],
  "bytecode": "0x608060405260008060006101000a81548160ff021916908315150217905550600060085534801561002f57600080fd5b5060405160a080611825833981018060405281019080805190602001909291908051906020019092919080519060200190929190805190602001909291908051906020019092919050505033600060016101000a81548173ffffffffffffffffffffffffffffffffffffffff021916908373ffffffffffffffffffffffffffffffffffffffff1602179055508460018190555083600260006101000a81548173ffffffffffffffffffffffffffffffffffffffff021916908373ffffffffffffffffffffffffffffffffffffffff160217905550826003819055508160048190555080600581905550806006819055508060020260015481151561012f57fe5b0460098190555050505050506116db8061014a6000396000f3006080604052600436106100af576000357c0100000000000000000000000000000000000000000000000000000000900463ffffffff168063047abed7146100b457806306df000a1461013757806316c0be821461016257806333fd7b071461018f57806345003238146101a657806377677674146101bd57806382717879146101ea57806395d3b4de1461027a578063a0f5bd0c146102b5578063ea12e9b61461030c578063ed7d3b2d14610323575b600080fd5b3480156100c057600080fd5b506100df60048036038101908080359060200190929190505050610381565b604051808473ffffffffffffffffffffffffffffffffffffffff1673ffffffffffffffffffffffffffffffffffffffff1681526020018381526020018260001916600019168152602001935050505060405180910390f35b34801561014357600080fd5b5061014c610501565b6040518082815260200191505060405180910390f35b34801561016e57600080fd5b5061018d60048036038101908080359060200190929190505050610507565b005b34801561019b57600080fd5b506101a4610709565b005b3480156101b257600080fd5b506101bb6108de565b005b3480156101c957600080fd5b506101e860048036038101908080359060200190929190505050610bd0565b005b3480156101f657600080fd5b506101ff610dd2565b6040518080602001828103825283818151815260200191508051906020019080838360005b8381101561023f578082015181840152602081019050610224565b50505050905090810190601f16801561026c5780820380516001836020036101000a031916815260200191505b509250505060405180910390f35b34801561028657600080fd5b506102b3600480360381019080803590602001908201803590602001919091929391929390505050610ef7565b005b3480156102c157600080fd5b506102f6600480360381019080803573ffffffffffffffffffffffffffffffffffffffff169060200190929190505050611034565b6040518082815260200191505060405180910390f35b34801561031857600080fd5b50610321611204565b005b34801561032f57600080fd5b50610364600480360381019080803573ffffffffffffffffffffffffffffffffffffffff1690602001909291905050506113de565b604051808381526020018281526020019250505060405180910390f35b600080600061038e61166c565b60078581548110151561039d57fe5b9060005260206000209060030201606060405190810160405290816000820160009054906101000a900473ffffffffffffffffffffffffffffffffffffffff1673ffffffffffffffffffffffffffffffffffffffff1673ffffffffffffffffffffffffffffffffffffffff168152602001600182015481526020016002820160009054906101000a900460ff16600481111561043557fe5b600481111561044057fe5b815250509050806000015173ffffffffffffffffffffffffffffffffffffffff163373ffffffffffffffffffffffffffffffffffffffff1614806104d15750600060019054906101000a900473ffffffffffffffffffffffffffffffffffffffff1673ffffffffffffffffffffffffffffffffffffffff163373ffffffffffffffffffffffffffffffffffffffff16145b15156104dc57600080fd5b806000015181602001516104f383604001516114fc565b935093509350509193909250565b60055481565b61050f61166c565b600060019054906101000a900473ffffffffffffffffffffffffffffffffffffffff1673ffffffffffffffffffffffffffffffffffffffff163373ffffffffffffffffffffffffffffffffffffffff1614151561056b57600080fd5b60078281548110151561057a57fe5b9060005260206000209060030201606060405190810160405290816000820160009054906101000a900473ffffffffffffffffffffffffffffffffffffffff1673ffffffffffffffffffffffffffffffffffffffff1673ffffffffffffffffffffffffffffffffffffffff168152602001600182015481526020016002820160009054906101000a900460ff16600481111561061257fe5b600481111561061d57fe5b8152505090506000600481111561063057fe5b8160400151600481111561064057fe5b141561066a5760038160400190600481111561065857fe5b9081600481111561066557fe5b815250505b8060078381548110151561067a57fe5b906000526020600020906003020160008201518160000160006101000a81548173ffffffffffffffffffffffffffffffffffffffff021916908373ffffffffffffffffffffffffffffffffffffffff1602179055506020820151816001015560408201518160020160006101000a81548160ff021916908360048111156106fd57fe5b02179055509050505050565b6000600b60003373ffffffffffffffffffffffffffffffffffffffff1673ffffffffffffffffffffffffffffffffffffffff1681526020019081526020016000205411151561075757600080fd5b600260009054906101000a900473ffffffffffffffffffffffffffffffffffffffff1673ffffffffffffffffffffffffffffffffffffffff1663a9059cbb33600b60003373ffffffffffffffffffffffffffffffffffffffff1673ffffffffffffffffffffffffffffffffffffffff168152602001908152602001600020546040518363ffffffff167c0100000000000000000000000000000000000000000000000000000000028152600401808373ffffffffffffffffffffffffffffffffffffffff1673ffffffffffffffffffffffffffffffffffffffff16815260200182815260200192505050602060405180830381600087803b15801561085b57600080fd5b505af115801561086f573d6000803e3d6000fd5b505050506040513d602081101561088557600080fd5b8101908080519060200190929190505050506000600b60003373ffffffffffffffffffffffffffffffffffffffff1673ffffffffffffffffffffffffffffffffffffffff16815260200190815260200160002081905550565b60006108e861166c565b600a60003373ffffffffffffffffffffffffffffffffffffffff1673ffffffffffffffffffffffffffffffffffffffff16815260200190815260200160002054915060078281548110151561093957fe5b9060005260206000209060030201606060405190810160405290816000820160009054906101000a900473ffffffffffffffffffffffffffffffffffffffff1673ffffffffffffffffffffffffffffffffffffffff1673ffffffffffffffffffffffffffffffffffffffff168152602001600182015481526020016002820160009054906101000a900460ff1660048111156109d157fe5b60048111156109dc57fe5b815250509050600160048111156109ef57fe5b816040015160048111156109ff57fe5b141515610a0b57600080fd5b600281604001906004811115610a1d57fe5b90816004811115610a2a57fe5b81525050600260009054906101000a900473ffffffffffffffffffffffffffffffffffffffff1673ffffffffffffffffffffffffffffffffffffffff1663a9059cbb336005546040518363ffffffff167c0100000000000000000000000000000000000000000000000000000000028152600401808373ffffffffffffffffffffffffffffffffffffffff1673ffffffffffffffffffffffffffffffffffffffff16815260200182815260200192505050602060405180830381600087803b158015610af557600080fd5b505af1158015610b09573d6000803e3d6000fd5b505050506040513d6020811015610b1f57600080fd5b81019080805190602001909291905050505080600783815481101515610b4157fe5b906000526020600020906003020160008201518160000160006101000a81548173ffffffffffffffffffffffffffffffffffffffff021916908373ffffffffffffffffffffffffffffffffffffffff1602179055506020820151816001015560408201518160020160006101000a81548160ff02191690836004811115610bc457fe5b02179055509050505050565b610bd861166c565b600060019054906101000a900473ffffffffffffffffffffffffffffffffffffffff1673ffffffffffffffffffffffffffffffffffffffff163373ffffffffffffffffffffffffffffffffffffffff16141515610c3457600080fd5b600782815481101515610c4357fe5b9060005260206000209060030201606060405190810160405290816000820160009054906101000a900473ffffffffffffffffffffffffffffffffffffffff1673ffffffffffffffffffffffffffffffffffffffff1673ffffffffffffffffffffffffffffffffffffffff168152602001600182015481526020016002820160009054906101000a900460ff166004811115610cdb57fe5b6004811115610ce657fe5b81525050905060006004811115610cf957fe5b81604001516004811115610d0957fe5b1415610d3357600181604001906004811115610d2157fe5b90816004811115610d2e57fe5b815250505b80600783815481101515610d4357fe5b906000526020600020906003020160008201518160000160006101000a81548173ffffffffffffffffffffffffffffffffffffffff021916908373ffffffffffffffffffffffffffffffffffffffff1602179055506020820151816001015560408201518160020160006101000a81548160ff02191690836004811115610dc657fe5b02179055509050505050565b6060600060019054906101000a900473ffffffffffffffffffffffffffffffffffffffff16600154600260009054906101000a900473ffffffffffffffffffffffffffffffffffffffff16600354600454600554600854600954604051602001808973ffffffffffffffffffffffffffffffffffffffff1673ffffffffffffffffffffffffffffffffffffffff166c010000000000000000000000000281526014018881526020018773ffffffffffffffffffffffffffffffffffffffff1673ffffffffffffffffffffffffffffffffffffffff166c0100000000000000000000000002815260140186815260200185815260200184815260200183815260200182815260200198505050505050505050604051602081830303815290604052905090565b610eff61166c565b600115156000809054906101000a900460ff161515141515610f2057600080fd5b600954600854101515610f3257600080fd5b6060604051908101604052803373ffffffffffffffffffffffffffffffffffffffff16815260200142815260200160006004811115610f6d57fe5b81525090506007819080600181540180825580915050906001820390600052602060002090600302016000909192909190915060008201518160000160006101000a81548173ffffffffffffffffffffffffffffffffffffffff021916908373ffffffffffffffffffffffffffffffffffffffff1602179055506020820151816001015560408201518160020160006101000a81548160ff0219169083600481111561101557fe5b0217905550505050600860008154809291906001019190505550505050565b60008061103f61166c565b8373ffffffffffffffffffffffffffffffffffffffff163373ffffffffffffffffffffffffffffffffffffffff1614806110c65750600060019054906101000a900473ffffffffffffffffffffffffffffffffffffffff1673ffffffffffffffffffffffffffffffffffffffff163373ffffffffffffffffffffffffffffffffffffffff16145b15156110d157600080fd5b600a60008573ffffffffffffffffffffffffffffffffffffffff1673ffffffffffffffffffffffffffffffffffffffff16815260200190815260200160002054915060078281548110151561112257fe5b9060005260206000209060030201606060405190810160405290816000820160009054906101000a900473ffffffffffffffffffffffffffffffffffffffff1673ffffffffffffffffffffffffffffffffffffffff1673ffffffffffffffffffffffffffffffffffffffff168152602001600182015481526020016002820160009054906101000a900460ff1660048111156111ba57fe5b60048111156111c557fe5b815250509050600160048111156111d857fe5b816040015160048111156111e857fe5b14156111f85760055492506111fd565b600092505b5050919050565b60008060019054906101000a900473ffffffffffffffffffffffffffffffffffffffff1673ffffffffffffffffffffffffffffffffffffffff163373ffffffffffffffffffffffffffffffffffffffff1614151561126157600080fd5b600073ffffffffffffffffffffffffffffffffffffffff166370a08231306040518263ffffffff167c0100000000000000000000000000000000000000000000000000000000028152600401808273ffffffffffffffffffffffffffffffffffffffff1673ffffffffffffffffffffffffffffffffffffffff168152602001915050602060405180830381600087803b1580156112fd57600080fd5b505af1158015611311573d6000803e3d6000fd5b505050506040513d602081101561132757600080fd5b81019080805190602001909291905050509050600073ffffffffffffffffffffffffffffffffffffffff16600260009054906101000a900473ffffffffffffffffffffffffffffffffffffffff1673ffffffffffffffffffffffffffffffffffffffff1614156113ad5760015460056008540201811415156113a857600080fd5b6113c1565b600560085402811415156113c057600080fd5b5b60016000806101000a81548160ff02191690831515021790555050565b600080600060019054906101000a900473ffffffffffffffffffffffffffffffffffffffff1673ffffffffffffffffffffffffffffffffffffffff163373ffffffffffffffffffffffffffffffffffffffff16148061146857508273ffffffffffffffffffffffffffffffffffffffff163373ffffffffffffffffffffffffffffffffffffffff16145b151561147357600080fd5b600b60008473ffffffffffffffffffffffffffffffffffffffff1673ffffffffffffffffffffffffffffffffffffffff16815260200190815260200160002054600c60008573ffffffffffffffffffffffffffffffffffffffff1673ffffffffffffffffffffffffffffffffffffffff1681526020019081526020016000205491509150915091565b600080600481111561150a57fe5b82600481111561151657fe5b1415611544577f50454e44494e475f415050524f56414c000000000000000000000000000000009050611667565b6001600481111561155157fe5b82600481111561155d57fe5b141561158b577f415050524f5645440000000000000000000000000000000000000000000000009050611667565b6002600481111561159857fe5b8260048111156115a457fe5b14156115d2577f45584543555445440000000000000000000000000000000000000000000000009050611667565b600360048111156115df57fe5b8260048111156115eb57fe5b1415611619577f52454a45435445440000000000000000000000000000000000000000000000009050611667565b60048081111561162557fe5b82600481111561163157fe5b141561165f577f43414e43454c4c45445f42595f434f4e564552544552000000000000000000009050611667565b600060010290505b919050565b606060405190810160405280600073ffffffffffffffffffffffffffffffffffffffff16815260200160008152602001600060048111156116a957fe5b815250905600a165627a7a723058209c9588a822c773f4f43fc155436984ff5a853680655df8381288d9595ed8bde60029",
  "source": "pragma solidity ^0.4.24;\n\nimport \"./TwoKeyConversionStates.sol\";\nimport \"./interfaces/IERC20.sol\";\n\n/**\n * @author Nikola Madjarevic\n * Created at 12/20/18\n */\n//TODO: Inherit arc contract\ncontract TwoKeyAirdropCampaign is TwoKeyConversionStates {\n\n\n    // Campaign is activated once the 2key fee requirement is satisfied\n    bool isActivated = false;\n    // Here will be static address of the economy previously deployed (ropsten version)\n    address constant TWO_KEY_ECONOMY = address(0);\n    // Here will be static address of the contract which stores all other addresses of singletones (proxy)\n    address constant TWO_KEY_SINGLETONE_ADDRESSES = address(0);\n    // This is representing the contractor (creator) of the campaign\n    address contractor;\n    // This is the amount of the tokens contractor is willing to spend for the airdrop campaign\n    uint inventoryAmount;\n    // This will be the contract ERC20 from which we will do payouts\n    address erc20ContractAddress;\n    // Time when campaign starts\n    uint campaignStartTime;\n    // Time when campaign ends\n    uint campaignEndTime;\n    // This is representing the total number of tokens which will be given as reward to the converter\n    uint public numberOfTokensPerConverter;\n    // This is representing the total amount for the referral per conversion -> defaults to numberOfTokensPerConverter\n    uint referralReward;\n    // Array of conversion objects\n    Conversion[] conversions;\n    // Number of conversions - representing at the same time conversion id\n    uint numberOfConversions = 0;\n    // Regarding fixed inventory and reward per conversion there is total number of conversions per campaign\n    uint maxNumberOfConversions;\n    // Mapping converter address to the conversion => There can be only 1 converter per conversion\n    mapping(address => uint) converterToConversionId;\n    // Mapping referrer address to his balance\n    mapping(address => uint) referrerBalances;\n    // Mapping referrer address to his total earnings (only used for the statistics)\n    mapping(address => uint) referrerTotalEarnings;\n    // The amount of 2key tokens fee per conversion\n    uint constant CONVERSION_FEE_2KEY = 5;\n\n    struct Conversion {\n        address converter;\n        uint conversionTime; //We can add this optional thing, like saving timestamp when conversion is created\n        ConversionState state;\n    }\n\n    // Modifier which will prevent to do any actions if the time expired or didn't even started yet.\n    modifier isOngoing {\n        require(block.timestamp >= campaignStartTime && block.timestamp <= campaignEndTime);\n        _;\n    }\n\n    // Modifier which will restrict to overflow number of conversions\n    modifier onlyIfMaxNumberOfConversionsNotReached {\n        require(numberOfConversions < maxNumberOfConversions);\n        _;\n    }\n\n    // Modifier which will prevent to do any actions if the msg.sender is not the contractor\n    modifier onlyContractor {\n        require(msg.sender == contractor);\n        _;\n    }\n\n    // Modifier which will disallow function calls if it's not activated\n    modifier onlyIfActivated {\n        require(isActivated == true);\n        _;\n    }\n\n    constructor(\n        uint _inventory,\n        address _erc20ContractAddress,\n        uint _campaignStartTime,\n        uint _campaignEndTime,\n        uint _numberOfTokensPerConverterAndReferralChain\n    ) public {\n        contractor = msg.sender;\n        inventoryAmount = _inventory;\n        erc20ContractAddress = _erc20ContractAddress;\n        campaignStartTime = _campaignStartTime;\n        campaignEndTime = _campaignEndTime;\n        numberOfTokensPerConverter = _numberOfTokensPerConverterAndReferralChain;\n        referralReward = _numberOfTokensPerConverterAndReferralChain;\n        maxNumberOfConversions = inventoryAmount / (2*_numberOfTokensPerConverterAndReferralChain);\n        if(inventoryAmount - maxNumberOfConversions*2*_numberOfTokensPerConverterAndReferralChain > 0 ) {\n            //TODO: This is sufficient balance which can't be used, and will be returned back to the contractor\n        }\n    }\n\n    /**\n     * @notice Function to activate campaign\n     * @dev only contractor can activate campaign\n     * We're supposing that he has already sent his tokens to the contract, and also submitted (staked) 2key fee\n     */\n    function activateCampaign() external onlyContractor {\n        uint balance = IERC20(TWO_KEY_ECONOMY).balanceOf(address(this));\n        if(erc20ContractAddress == TWO_KEY_ECONOMY) {\n            require(balance == numberOfConversions * CONVERSION_FEE_2KEY + inventoryAmount);\n        } else {\n            require(balance == numberOfConversions * CONVERSION_FEE_2KEY);\n        }\n        isActivated = true;\n    }\n\n    /**\n     * @notice Function which will be executed to create conversion\n     * @dev This function will revert if the maxNumberOfConversions is reached\n     */\n    function convert(bytes signature) external onlyIfActivated onlyIfMaxNumberOfConversionsNotReached {\n        //TODO: Add validators, update rewards fields, parse signature, etc.\n        //TODO: Get from signature if there've been any converters\n        //TODO: We can't allow anyone to do the action if there's not refchain behind him\n        //TODO: Add validator that converter previously doesn't exist\n        Conversion memory c = Conversion({\n            converter: msg.sender,\n            conversionTime: block.timestamp,\n            state: ConversionState.PENDING_APPROVAL\n        });\n        conversions.push(c);\n        numberOfConversions++;\n    }\n\n    /**\n     * @notice Function to approve conversion\n     * @dev This function can be called only by contractor\n     * @param conversionId is the id of the conversion (position in the array of conversions)\n     */\n    function approveConversion(uint conversionId) external onlyContractor {\n        Conversion memory c = conversions[conversionId];\n        if(c.state == ConversionState.PENDING_APPROVAL) {\n            c.state = ConversionState.APPROVED;\n        }\n        conversions[conversionId] = c;\n    }\n\n    /**\n     * @notice Function to reject conversion\n     * @dev This function can be called only by contractor\n     * @param conversionId is the id of the conversion\n     */\n    function rejectConversion(uint conversionId) external onlyContractor {\n        Conversion memory c = conversions[conversionId];\n        if(c.state == ConversionState.PENDING_APPROVAL) {\n            c.state = ConversionState.REJECTED;\n        }\n        conversions[conversionId] = c;\n    }\n\n    /**\n     * @notice Function to return dynamic and static contract data, visible to everyone\n     * @return encoded data\n     */\n    function getContractInformations() external view returns (bytes) {\n        return abi.encodePacked(\n            contractor,\n            inventoryAmount,\n            erc20ContractAddress,\n            campaignStartTime,\n            campaignEndTime,\n            numberOfTokensPerConverter,\n            numberOfConversions,\n            maxNumberOfConversions\n        );\n    }\n\n    /**\n     * @notice Function returns the total available balance of the referrer and his total earnings for this campaign\n     * @dev only referrer by himself or contractor can see the balance of the referrer\n     * @param _referrer is the address of the referrer we're checking balance for\n     */\n    function getReferrerBalanceAndTotalEarnings(address _referrer) external view returns (uint,uint) {\n        require(msg.sender == contractor || msg.sender == _referrer);\n        return (referrerBalances[_referrer], referrerTotalEarnings[_referrer]);\n    }\n\n    /**\n     * @notice Function to get conversion object\n     * @param conversionId is the id of the conversion\n     * @return tuple containing respectively converter address, conversionTime, and state of the conversion\n     */\n    function getConversion(uint conversionId) external view returns (address, uint, bytes32) {\n        Conversion memory conversion = conversions[conversionId];\n        require(msg.sender == conversion.converter || msg.sender == contractor);\n        return (conversion.converter, conversion.conversionTime, convertConversionStateToBytes(conversion.state));\n    }\n\n    /**\n     * @notice Function to determine the balance of converter\n     * @dev Only converter by himself or contractor can see balance for the converter\n     * @param _converter address is the only argument we need\n     */\n    function getConverterBalance(address _converter) external view returns (uint) {\n        require(msg.sender == _converter || msg.sender == contractor);\n        uint conversionId = converterToConversionId[_converter];\n        Conversion memory conversion = conversions[conversionId];\n        if(conversion.state == ConversionState.APPROVED) {\n            return numberOfTokensPerConverter;\n        } else {\n            return 0;\n        }\n    }\n\n    /**\n     * @notice Once the conversion is approved, means that converter has done the required action and he can withdraw tokens\n     */\n    function converterWithdraw() external {\n        uint conversionId = converterToConversionId[msg.sender];\n        Conversion memory c = conversions[conversionId];\n        require(c.state == ConversionState.APPROVED);\n        c.state = ConversionState.EXECUTED;\n        IERC20(erc20ContractAddress).transfer(msg.sender, numberOfTokensPerConverter); //this is going to be an erc20 transfer\n        conversions[conversionId] = c;\n    }\n\n    /**\n     * @notice Function to withdraw erc20 tokens for the referrer\n     * @dev if referrer doesn't have any balance this will revert\n     */\n    function referrerWithdraw() external {\n        require(referrerBalances[msg.sender] > 0);\n        IERC20(erc20ContractAddress).transfer(msg.sender, referrerBalances[msg.sender]);\n        referrerBalances[msg.sender] = 0;\n    }\n\n\n    function convertConversionStateToBytes(ConversionState state) internal pure returns (bytes32) {\n        if(state == ConversionState.PENDING_APPROVAL) {\n            return bytes32(\"PENDING_APPROVAL\");\n        } else if(state == ConversionState.APPROVED) {\n            return bytes32(\"APPROVED\");\n        } else if(state == ConversionState.EXECUTED) {\n            return bytes32(\"EXECUTED\");\n        } else if(state == ConversionState.REJECTED) {\n            return bytes32(\"REJECTED\");\n        } else if(state == ConversionState.CANCELLED_BY_CONVERTER) {\n            return bytes32(\"CANCELLED_BY_CONVERTER\");\n        } else {\n            return bytes32(0);\n        }\n    }\n}\n",
  "sourcePath": "/Users/nikolamadjarevic/Desktop/2key/contracts/contracts/2key/TwoKeyAirdropCampaign.sol",
  "compiler": {
    "name": "solc",
    "version": "0.4.24+commit.e67f0147.Emscripten.clang"
  },
  "schemaVersion": "2.0.1",
  "updatedAt": "2019-08-01T06:45:19.995Z"
}