{
  "contractName": "TwoKeyAdminStorage",
  "abi": [
    {
      "constant": false,
      "inputs": [
        {
          "name": "_key",
          "type": "bytes32"
        }
      ],
      "name": "deleteBytes32",
      "outputs": [],
      "payable": false,
      "stateMutability": "nonpayable",
      "type": "function"
    },
    {
      "constant": false,
      "inputs": [
        {
          "name": "_key",
          "type": "bytes32"
        }
      ],
      "name": "deleteAddress",
      "outputs": [],
      "payable": false,
      "stateMutability": "nonpayable",
      "type": "function"
    },
    {
      "constant": true,
      "inputs": [
        {
          "name": "_key",
          "type": "bytes32"
        }
      ],
      "name": "getBoolArray",
      "outputs": [
        {
          "name": "",
          "type": "bool[]"
        }
      ],
      "payable": false,
      "stateMutability": "view",
      "type": "function"
    },
    {
      "constant": true,
      "inputs": [
        {
          "name": "_key",
          "type": "bytes32"
        }
      ],
      "name": "getAddress",
      "outputs": [
        {
          "name": "",
          "type": "address"
        }
      ],
      "payable": false,
      "stateMutability": "view",
      "type": "function"
    },
    {
      "constant": false,
      "inputs": [
        {
          "name": "_key",
          "type": "bytes32"
        },
        {
          "name": "_value",
          "type": "bytes32[]"
        }
      ],
      "name": "setBytes32Array",
      "outputs": [],
      "payable": false,
      "stateMutability": "nonpayable",
      "type": "function"
    },
    {
      "constant": false,
      "inputs": [
        {
          "name": "_proxyLogicContract",
          "type": "address"
        },
        {
          "name": "deployer",
          "type": "address"
        }
      ],
      "name": "setProxyLogicContractAndDeployer",
      "outputs": [],
      "payable": false,
      "stateMutability": "nonpayable",
      "type": "function"
    },
    {
      "constant": false,
      "inputs": [
        {
          "name": "_key",
          "type": "bytes32"
        }
      ],
      "name": "deleteBool",
      "outputs": [],
      "payable": false,
      "stateMutability": "nonpayable",
      "type": "function"
    },
    {
      "constant": true,
      "inputs": [
        {
          "name": "_key",
          "type": "bytes32"
        }
      ],
      "name": "getIntArray",
      "outputs": [
        {
          "name": "",
          "type": "int256[]"
        }
      ],
      "payable": false,
      "stateMutability": "view",
      "type": "function"
    },
    {
      "constant": false,
      "inputs": [
        {
          "name": "_key",
          "type": "bytes32"
        },
        {
          "name": "_value",
          "type": "bytes"
        }
      ],
      "name": "setBytes",
      "outputs": [],
      "payable": false,
      "stateMutability": "nonpayable",
      "type": "function"
    },
    {
      "constant": false,
      "inputs": [
        {
          "name": "_key",
          "type": "bytes32"
        },
        {
          "name": "_value",
          "type": "bool[]"
        }
      ],
      "name": "setBoolArray",
      "outputs": [],
      "payable": false,
      "stateMutability": "nonpayable",
      "type": "function"
    },
    {
      "constant": false,
      "inputs": [
        {
          "name": "_key",
          "type": "bytes32"
        },
        {
          "name": "_value",
          "type": "int256"
        }
      ],
      "name": "setInt",
      "outputs": [],
      "payable": false,
      "stateMutability": "nonpayable",
      "type": "function"
    },
    {
      "constant": false,
      "inputs": [
        {
          "name": "_key",
          "type": "bytes32"
        },
        {
          "name": "_value",
          "type": "bytes32"
        }
      ],
      "name": "setBytes32",
      "outputs": [],
      "payable": false,
      "stateMutability": "nonpayable",
      "type": "function"
    },
    {
      "constant": true,
      "inputs": [
        {
          "name": "_key",
          "type": "bytes32"
        }
      ],
      "name": "getAddressArray",
      "outputs": [
        {
          "name": "",
          "type": "address[]"
        }
      ],
      "payable": false,
      "stateMutability": "view",
      "type": "function"
    },
    {
      "constant": true,
      "inputs": [],
      "name": "implementation",
      "outputs": [
        {
          "name": "",
          "type": "address"
        }
      ],
      "payable": false,
      "stateMutability": "view",
      "type": "function"
    },
    {
      "constant": false,
      "inputs": [
        {
          "name": "_key",
          "type": "bytes32"
        },
        {
          "name": "_value",
          "type": "uint256[]"
        }
      ],
      "name": "setUintArray",
      "outputs": [],
      "payable": false,
      "stateMutability": "nonpayable",
      "type": "function"
    },
    {
      "constant": true,
      "inputs": [],
      "name": "PROXY_LOGIC_CONTRACT",
      "outputs": [
        {
          "name": "",
          "type": "address"
        }
      ],
      "payable": false,
      "stateMutability": "view",
      "type": "function"
    },
    {
      "constant": false,
      "inputs": [
        {
          "name": "_key",
          "type": "bytes32"
        }
      ],
      "name": "deleteBytes",
      "outputs": [],
      "payable": false,
      "stateMutability": "nonpayable",
      "type": "function"
    },
    {
      "constant": false,
      "inputs": [
        {
          "name": "_key",
          "type": "bytes32"
        },
        {
          "name": "_value",
          "type": "string"
        }
      ],
      "name": "setString",
      "outputs": [],
      "payable": false,
      "stateMutability": "nonpayable",
      "type": "function"
    },
    {
      "constant": true,
      "inputs": [
        {
          "name": "_key",
          "type": "bytes32"
        }
      ],
      "name": "getBool",
      "outputs": [
        {
          "name": "",
          "type": "bool"
        }
      ],
      "payable": false,
      "stateMutability": "view",
      "type": "function"
    },
    {
      "constant": true,
      "inputs": [
        {
          "name": "_key",
          "type": "bytes32"
        }
      ],
      "name": "getUintArray",
      "outputs": [
        {
          "name": "",
          "type": "uint256[]"
        }
      ],
      "payable": false,
      "stateMutability": "view",
      "type": "function"
    },
    {
      "constant": false,
      "inputs": [
        {
          "name": "_key",
          "type": "bytes32"
        }
      ],
      "name": "deleteInt",
      "outputs": [],
      "payable": false,
      "stateMutability": "nonpayable",
      "type": "function"
    },
    {
      "constant": false,
      "inputs": [
        {
          "name": "_proxyLogicContract",
          "type": "address"
        }
      ],
      "name": "setProxyLogicContract",
      "outputs": [],
      "payable": false,
      "stateMutability": "nonpayable",
      "type": "function"
    },
    {
      "constant": true,
      "inputs": [
        {
          "name": "_key",
          "type": "bytes32"
        }
      ],
      "name": "getString",
      "outputs": [
        {
          "name": "",
          "type": "string"
        }
      ],
      "payable": false,
      "stateMutability": "view",
      "type": "function"
    },
    {
      "constant": true,
      "inputs": [
        {
          "name": "_key",
          "type": "bytes32"
        }
      ],
      "name": "getBytes32",
      "outputs": [
        {
          "name": "",
          "type": "bytes32"
        }
      ],
      "payable": false,
      "stateMutability": "view",
      "type": "function"
    },
    {
      "constant": false,
      "inputs": [
        {
          "name": "_key",
          "type": "bytes32"
        },
        {
          "name": "_value",
          "type": "int256[]"
        }
      ],
      "name": "setIntArray",
      "outputs": [],
      "payable": false,
      "stateMutability": "nonpayable",
      "type": "function"
    },
    {
      "constant": false,
      "inputs": [
        {
          "name": "_key",
          "type": "bytes32"
        },
        {
          "name": "_value",
          "type": "bool"
        }
      ],
      "name": "setBool",
      "outputs": [],
      "payable": false,
      "stateMutability": "nonpayable",
      "type": "function"
    },
    {
      "constant": true,
      "inputs": [
        {
          "name": "_key",
          "type": "bytes32"
        }
      ],
      "name": "getUint",
      "outputs": [
        {
          "name": "",
          "type": "uint256"
        }
      ],
      "payable": false,
      "stateMutability": "view",
      "type": "function"
    },
    {
      "constant": true,
      "inputs": [
        {
          "name": "_key",
          "type": "bytes32"
        }
      ],
      "name": "getBytes",
      "outputs": [
        {
          "name": "",
          "type": "bytes"
        }
      ],
      "payable": false,
      "stateMutability": "view",
      "type": "function"
    },
    {
      "constant": true,
      "inputs": [],
      "name": "DEPLOYER",
      "outputs": [
        {
          "name": "",
          "type": "address"
        }
      ],
      "payable": false,
      "stateMutability": "view",
      "type": "function"
    },
    {
      "constant": false,
      "inputs": [
        {
          "name": "sender",
          "type": "address"
        }
      ],
      "name": "initialize",
      "outputs": [],
      "payable": true,
      "stateMutability": "payable",
      "type": "function"
    },
    {
      "constant": false,
      "inputs": [
        {
          "name": "_key",
          "type": "bytes32"
        },
        {
          "name": "_value",
          "type": "address"
        }
      ],
      "name": "setAddress",
      "outputs": [],
      "payable": false,
      "stateMutability": "nonpayable",
      "type": "function"
    },
    {
      "constant": true,
      "inputs": [
        {
          "name": "_key",
          "type": "bytes32"
        }
      ],
      "name": "getInt",
      "outputs": [
        {
          "name": "",
          "type": "int256"
        }
      ],
      "payable": false,
      "stateMutability": "view",
      "type": "function"
    },
    {
      "constant": true,
      "inputs": [
        {
          "name": "_key",
          "type": "bytes32"
        }
      ],
      "name": "getBytes32Array",
      "outputs": [
        {
          "name": "",
          "type": "bytes32[]"
        }
      ],
      "payable": false,
      "stateMutability": "view",
      "type": "function"
    },
    {
      "constant": false,
      "inputs": [
        {
          "name": "_key",
          "type": "bytes32"
        },
        {
          "name": "_value",
          "type": "uint256"
        }
      ],
      "name": "setUint",
      "outputs": [],
      "payable": false,
      "stateMutability": "nonpayable",
      "type": "function"
    },
    {
      "constant": false,
      "inputs": [
        {
          "name": "_key",
          "type": "bytes32"
        }
      ],
      "name": "deleteUint",
      "outputs": [],
      "payable": false,
      "stateMutability": "nonpayable",
      "type": "function"
    },
    {
      "constant": false,
      "inputs": [
        {
          "name": "_key",
          "type": "bytes32"
        },
        {
          "name": "_value",
          "type": "address[]"
        }
      ],
      "name": "setAddressArray",
      "outputs": [],
      "payable": false,
      "stateMutability": "nonpayable",
      "type": "function"
    },
    {
      "constant": false,
      "inputs": [
        {
          "name": "_key",
          "type": "bytes32"
        }
      ],
      "name": "deleteString",
      "outputs": [],
      "payable": false,
      "stateMutability": "nonpayable",
      "type": "function"
    }
  ],
  "bytecode": "0x608060405234801561001057600080fd5b5061242c806100206000396000f3006080604052600436106101cd576000357c0100000000000000000000000000000000000000000000000000000000900463ffffffff1680630b9adc57146101d25780630e14a37614610203578063116bb9291461023457806321f8a721146102ba578063260048461461032b57806328474b8e146103745780632c62ff2d146103d75780632d2899b6146104085780632e28d0841461048e57806335d4d407146104d75780633e49bed0146105205780634e91db081461055b5780635948f7331461059a5780635c60da1b146106205780635eb07dbd1461067757806360bf6a09146106c0578063616b59f6146107175780636e899550146107485780637ae1cfca1461079157806386ac6bdf146107da5780638c1600951461086057806394cff7ef14610891578063986e791a146108d4578063a6ed563e1461097e578063a9fcf76b146109cb578063abfdcced14610a14578063bd02d0f514610a51578063c031a18014610a96578063c1b8411a14610b40578063c4d66de814610b97578063ca446dd914610bcd578063dc97d96214610c1e578063dd03199714610c63578063e2a4853a14610ce9578063e2b202bf14610d24578063ec672cf614610d55578063f6bb3cc414610d9e575b600080fd5b3480156101de57600080fd5b506102016004803603810190808035600019169060200190929190505050610dcf565b005b34801561020f57600080fd5b506102326004803603810190808035600019169060200190929190505050610e4d565b005b34801561024057600080fd5b506102636004803603810190808035600019169060200190929190505050610eea565b6040518080602001828103825283818151815260200191508051906020019060200280838360005b838110156102a657808201518184015260208101905061028b565b505050509050019250505060405180910390f35b3480156102c657600080fd5b506102e96004803603810190808035600019169060200190929190505050610f82565b604051808273ffffffffffffffffffffffffffffffffffffffff1673ffffffffffffffffffffffffffffffffffffffff16815260200191505060405180910390f35b34801561033757600080fd5b506103726004803603810190808035600019169060200190929190803590602001908201803590602001919091929391929390505050610fc7565b005b34801561038057600080fd5b506103d5600480360381019080803573ffffffffffffffffffffffffffffffffffffffff169060200190929190803573ffffffffffffffffffffffffffffffffffffffff169060200190929190505050611053565b005b3480156103e357600080fd5b506104066004803603810190808035600019169060200190929190505050611115565b005b34801561041457600080fd5b50610437600480360381019080803560001916906020019092919050505061119f565b6040518080602001828103825283818151815260200191508051906020019060200280838360005b8381101561047a57808201518184015260208101905061045f565b505050509050019250505060405180910390f35b34801561049a57600080fd5b506104d56004803603810190808035600019169060200190929190803590602001908201803590602001919091929391929390505050611212565b005b3480156104e357600080fd5b5061051e600480360381019080803560001916906020019092919080359060200190820180359060200191909192939192939050505061129e565b005b34801561052c57600080fd5b5061055960048036038101908080356000191690602001909291908035906020019092919050505061132a565b005b34801561056757600080fd5b50610598600480360381019080803560001916906020019092919080356000191690602001909291905050506113aa565b005b3480156105a657600080fd5b506105c9600480360381019080803560001916906020019092919050505061142e565b6040518080602001828103825283818151815260200191508051906020019060200280838360005b8381101561060c5780820151818401526020810190506105f1565b505050509050019250505060405180910390f35b34801561062c57600080fd5b506106356114d7565b604051808273ffffffffffffffffffffffffffffffffffffffff1673ffffffffffffffffffffffffffffffffffffffff16815260200191505060405180910390f35b34801561068357600080fd5b506106be6004803603810190808035600019169060200190929190803590602001908201803590602001919091929391929390505050611501565b005b3480156106cc57600080fd5b506106d561158d565b604051808273ffffffffffffffffffffffffffffffffffffffff1673ffffffffffffffffffffffffffffffffffffffff16815260200191505060405180910390f35b34801561072357600080fd5b5061074660048036038101908080356000191690602001909291905050506115b3565b005b34801561075457600080fd5b5061078f6004803603810190808035600019169060200190929190803590602001908201803590602001919091929391929390505050611639565b005b34801561079d57600080fd5b506107c060048036038101908080356000191690602001909291905050506116c5565b604051808215151515815260200191505060405180910390f35b3480156107e657600080fd5b5061080960048036038101908080356000191690602001909291905050506116f7565b6040518080602001828103825283818151815260200191508051906020019060200280838360005b8381101561084c578082015181840152602081019050610831565b505050509050019250505060405180910390f35b34801561086c57600080fd5b5061088f600480360381019080803560001916906020019092919050505061176a565b005b34801561089d57600080fd5b506108d2600480360381019080803573ffffffffffffffffffffffffffffffffffffffff1690602001909291905050506117e8565b005b3480156108e057600080fd5b506109036004803603810190808035600019169060200190929190505050611888565b6040518080602001828103825283818151815260200191508051906020019080838360005b83811015610943578082015181840152602081019050610928565b50505050905090810190601f1680156109705780820380516001836020036101000a031916815260200191505b509250505060405180910390f35b34801561098a57600080fd5b506109ad6004803603810190808035600019169060200190929190505050611945565b60405180826000191660001916815260200191505060405180910390f35b3480156109d757600080fd5b50610a12600480360381019080803560001916906020019092919080359060200190820180359060200191909192939192939050505061196a565b005b348015610a2057600080fd5b50610a4f60048036038101908080356000191690602001909291908035151590602001909291905050506119f6565b005b348015610a5d57600080fd5b50610a806004803603810190808035600019169060200190929190505050611a89565b6040518082815260200191505060405180910390f35b348015610aa257600080fd5b50610ac56004803603810190808035600019169060200190929190505050611aae565b6040518080602001828103825283818151815260200191508051906020019080838360005b83811015610b05578082015181840152602081019050610aea565b50505050905090810190601f168015610b325780820380516001836020036101000a031916815260200191505b509250505060405180910390f35b348015610b4c57600080fd5b50610b55611b6b565b604051808273ffffffffffffffffffffffffffffffffffffffff1673ffffffffffffffffffffffffffffffffffffffff16815260200191505060405180910390f35b610bcb600480360381019080803573ffffffffffffffffffffffffffffffffffffffff169060200190929190505050611b91565b005b348015610bd957600080fd5b50610c1c6004803603810190808035600019169060200190929190803573ffffffffffffffffffffffffffffffffffffffff169060200190929190505050611bef565b005b348015610c2a57600080fd5b50610c4d6004803603810190808035600019169060200190929190505050611ca9565b6040518082815260200191505060405180910390f35b348015610c6f57600080fd5b50610c926004803603810190808035600019169060200190929190505050611cce565b6040518080602001828103825283818151815260200191508051906020019060200280838360005b83811015610cd5578082015181840152602081019050610cba565b505050509050019250505060405180910390f35b348015610cf557600080fd5b50610d22600480360381019080803560001916906020019092919080359060200190929190505050611d45565b005b348015610d3057600080fd5b50610d536004803603810190808035600019169060200190929190505050611dc5565b005b348015610d6157600080fd5b50610d9c6004803603810190808035600019169060200190929190803590602001908201803590602001919091929391929390505050611e43565b005b348015610daa57600080fd5b50610dcd6004803603810190808035600019169060200190929190505050611ecf565b005b600260009054906101000a900473ffffffffffffffffffffffffffffffffffffffff1673ffffffffffffffffffffffffffffffffffffffff163373ffffffffffffffffffffffffffffffffffffffff16141515610e2b57600080fd5b6004600082600019166000191681526020019081526020016000206000905550565b600260009054906101000a900473ffffffffffffffffffffffffffffffffffffffff1673ffffffffffffffffffffffffffffffffffffffff163373ffffffffffffffffffffffffffffffffffffffff16141515610ea957600080fd5b60076000826000191660001916815260200190815260200160002060006101000a81549073ffffffffffffffffffffffffffffffffffffffff021916905550565b6060600e60008360001916600019168152602001908152602001600020805480602002602001604051908101604052809291908181526020018280548015610f7657602002820191906000526020600020906000905b82829054906101000a900460ff16151581526020019060010190602082600001049283019260010382029150808411610f405790505b50505050509050919050565b600060076000836000191660001916815260200190815260200160002060009054906101000a900473ffffffffffffffffffffffffffffffffffffffff169050919050565b600260009054906101000a900473ffffffffffffffffffffffffffffffffffffffff1673ffffffffffffffffffffffffffffffffffffffff163373ffffffffffffffffffffffffffffffffffffffff1614151561102357600080fd5b8181600b60008660001916600019168152602001908152602001600020919061104d929190611f55565b50505050565b60001515600160149054906101000a900460ff16151514151561107557600080fd5b81600260006101000a81548173ffffffffffffffffffffffffffffffffffffffff021916908373ffffffffffffffffffffffffffffffffffffffff16021790555080600360006101000a81548173ffffffffffffffffffffffffffffffffffffffff021916908373ffffffffffffffffffffffffffffffffffffffff16021790555060018060146101000a81548160ff0219169083151502179055505050565b600260009054906101000a900473ffffffffffffffffffffffffffffffffffffffff1673ffffffffffffffffffffffffffffffffffffffff163373ffffffffffffffffffffffffffffffffffffffff1614151561117157600080fd5b60096000826000191660001916815260200190815260200160002060006101000a81549060ff021916905550565b6060600f6000836000191660001916815260200190815260200160002080548060200260200160405190810160405280929190818152602001828054801561120657602002820191906000526020600020905b8154815260200190600101908083116111f2575b50505050509050919050565b600260009054906101000a900473ffffffffffffffffffffffffffffffffffffffff1673ffffffffffffffffffffffffffffffffffffffff163373ffffffffffffffffffffffffffffffffffffffff1614151561126e57600080fd5b81816008600086600019166000191681526020019081526020016000209190611298929190611fac565b50505050565b600260009054906101000a900473ffffffffffffffffffffffffffffffffffffffff1673ffffffffffffffffffffffffffffffffffffffff163373ffffffffffffffffffffffffffffffffffffffff161415156112fa57600080fd5b8181600e60008660001916600019168152602001908152602001600020919061132492919061202c565b50505050565b600260009054906101000a900473ffffffffffffffffffffffffffffffffffffffff1673ffffffffffffffffffffffffffffffffffffffff163373ffffffffffffffffffffffffffffffffffffffff1614151561138657600080fd5b80600a60008460001916600019168152602001908152602001600020819055505050565b600260009054906101000a900473ffffffffffffffffffffffffffffffffffffffff1673ffffffffffffffffffffffffffffffffffffffff163373ffffffffffffffffffffffffffffffffffffffff1614151561140657600080fd5b8060046000846000191660001916815260200190815260200160002081600019169055505050565b6060600c600083600019166000191681526020019081526020016000208054806020026020016040519081016040528092919081815260200182805480156114cb57602002820191906000526020600020905b8160009054906101000a900473ffffffffffffffffffffffffffffffffffffffff1673ffffffffffffffffffffffffffffffffffffffff1681526020019060010190808311611481575b50505050509050919050565b6000600160009054906101000a900473ffffffffffffffffffffffffffffffffffffffff16905090565b600260009054906101000a900473ffffffffffffffffffffffffffffffffffffffff1673ffffffffffffffffffffffffffffffffffffffff163373ffffffffffffffffffffffffffffffffffffffff1614151561155d57600080fd5b8181600d6000866000191660001916815260200190815260200160002091906115879291906120d4565b50505050565b600260009054906101000a900473ffffffffffffffffffffffffffffffffffffffff1681565b600260009054906101000a900473ffffffffffffffffffffffffffffffffffffffff1673ffffffffffffffffffffffffffffffffffffffff163373ffffffffffffffffffffffffffffffffffffffff1614151561160f57600080fd5b60086000826000191660001916815260200190815260200160002060006116369190612121565b50565b600260009054906101000a900473ffffffffffffffffffffffffffffffffffffffff1673ffffffffffffffffffffffffffffffffffffffff163373ffffffffffffffffffffffffffffffffffffffff1614151561169557600080fd5b818160066000866000191660001916815260200190815260200160002091906116bf929190612169565b50505050565b600060096000836000191660001916815260200190815260200160002060009054906101000a900460ff169050919050565b6060600d6000836000191660001916815260200190815260200160002080548060200260200160405190810160405280929190818152602001828054801561175e57602002820191906000526020600020905b81548152602001906001019080831161174a575b50505050509050919050565b600260009054906101000a900473ffffffffffffffffffffffffffffffffffffffff1673ffffffffffffffffffffffffffffffffffffffff163373ffffffffffffffffffffffffffffffffffffffff161415156117c657600080fd5b600a600082600019166000191681526020019081526020016000206000905550565b600360009054906101000a900473ffffffffffffffffffffffffffffffffffffffff1673ffffffffffffffffffffffffffffffffffffffff163373ffffffffffffffffffffffffffffffffffffffff1614151561184457600080fd5b80600260006101000a81548173ffffffffffffffffffffffffffffffffffffffff021916908373ffffffffffffffffffffffffffffffffffffffff16021790555050565b60606006600083600019166000191681526020019081526020016000208054600181600116156101000203166002900480601f0160208091040260200160405190810160405280929190818152602001828054600181600116156101000203166002900480156119395780601f1061190e57610100808354040283529160200191611939565b820191906000526020600020905b81548152906001019060200180831161191c57829003601f168201915b50505050509050919050565b6000600460008360001916600019168152602001908152602001600020549050919050565b600260009054906101000a900473ffffffffffffffffffffffffffffffffffffffff1673ffffffffffffffffffffffffffffffffffffffff163373ffffffffffffffffffffffffffffffffffffffff161415156119c657600080fd5b8181600f6000866000191660001916815260200190815260200160002091906119f09291906121e9565b50505050565b600260009054906101000a900473ffffffffffffffffffffffffffffffffffffffff1673ffffffffffffffffffffffffffffffffffffffff163373ffffffffffffffffffffffffffffffffffffffff16141515611a5257600080fd5b8060096000846000191660001916815260200190815260200160002060006101000a81548160ff0219169083151502179055505050565b6000600560008360001916600019168152602001908152602001600020549050919050565b60606008600083600019166000191681526020019081526020016000208054600181600116156101000203166002900480601f016020809104026020016040519081016040528092919081815260200182805460018160011615610100020316600290048015611b5f5780601f10611b3457610100808354040283529160200191611b5f565b820191906000526020600020905b815481529060010190602001808311611b4257829003601f168201915b50505050509050919050565b600360009054906101000a900473ffffffffffffffffffffffffffffffffffffffff1681565b6000809054906101000a900473ffffffffffffffffffffffffffffffffffffffff1673ffffffffffffffffffffffffffffffffffffffff163373ffffffffffffffffffffffffffffffffffffffff16141515611bec57600080fd5b50565b600260009054906101000a900473ffffffffffffffffffffffffffffffffffffffff1673ffffffffffffffffffffffffffffffffffffffff163373ffffffffffffffffffffffffffffffffffffffff16141515611c4b57600080fd5b8060076000846000191660001916815260200190815260200160002060006101000a81548173ffffffffffffffffffffffffffffffffffffffff021916908373ffffffffffffffffffffffffffffffffffffffff1602179055505050565b6000600a60008360001916600019168152602001908152602001600020549050919050565b6060600b60008360001916600019168152602001908152602001600020805480602002602001604051908101604052809291908181526020018280548015611d3957602002820191906000526020600020905b81546000191681526020019060010190808311611d21575b50505050509050919050565b600260009054906101000a900473ffffffffffffffffffffffffffffffffffffffff1673ffffffffffffffffffffffffffffffffffffffff163373ffffffffffffffffffffffffffffffffffffffff16141515611da157600080fd5b80600560008460001916600019168152602001908152602001600020819055505050565b600260009054906101000a900473ffffffffffffffffffffffffffffffffffffffff1673ffffffffffffffffffffffffffffffffffffffff163373ffffffffffffffffffffffffffffffffffffffff16141515611e2157600080fd5b6005600082600019166000191681526020019081526020016000206000905550565b600260009054906101000a900473ffffffffffffffffffffffffffffffffffffffff1673ffffffffffffffffffffffffffffffffffffffff163373ffffffffffffffffffffffffffffffffffffffff16141515611e9f57600080fd5b8181600c600086600019166000191681526020019081526020016000209190611ec9929190612236565b50505050565b600260009054906101000a900473ffffffffffffffffffffffffffffffffffffffff1673ffffffffffffffffffffffffffffffffffffffff163373ffffffffffffffffffffffffffffffffffffffff16141515611f2b57600080fd5b6006600082600019166000191681526020019081526020016000206000611f5291906122d6565b50565b828054828255906000526020600020908101928215611f9b579160200282015b82811115611f9a57823560001916829060001916905591602001919060010190611f75565b5b509050611fa8919061231e565b5090565b828054600181600116156101000203166002900490600052602060002090601f016020900481019282601f10611fed57803560ff191683800117855561201b565b8280016001018555821561201b579182015b8281111561201a578235825591602001919060010190611fff565b5b5090506120289190612343565b5090565b82805482825590600052602060002090601f016020900481019282156120c35791602002820160005b83821115612094578335151583826101000a81548160ff0219169083151502179055509260200192600101602081600001049283019260010302612055565b80156120c15782816101000a81549060ff0219169055600101602081600001049283019260010302612094565b505b5090506120d09190612368565b5090565b828054828255906000526020600020908101928215612110579160200282015b8281111561210f5782358255916020019190600101906120f4565b5b50905061211d9190612343565b5090565b50805460018160011615610100020316600290046000825580601f106121475750612166565b601f0160209004906000526020600020908101906121659190612343565b5b50565b828054600181600116156101000203166002900490600052602060002090601f016020900481019282601f106121aa57803560ff19168380011785556121d8565b828001600101855582156121d8579182015b828111156121d75782358255916020019190600101906121bc565b5b5090506121e59190612343565b5090565b828054828255906000526020600020908101928215612225579160200282015b82811115612224578235825591602001919060010190612209565b5b5090506122329190612398565b5090565b8280548282559060005260206000209081019282156122c5579160200282015b828111156122c457823573ffffffffffffffffffffffffffffffffffffffff168260006101000a81548173ffffffffffffffffffffffffffffffffffffffff021916908373ffffffffffffffffffffffffffffffffffffffff16021790555091602001919060010190612256565b5b5090506122d291906123bd565b5090565b50805460018160011615610100020316600290046000825580601f106122fc575061231b565b601f01602090049060005260206000209081019061231a9190612343565b5b50565b61234091905b8082111561233c576000816000905550600101612324565b5090565b90565b61236591905b80821115612361576000816000905550600101612349565b5090565b90565b61239591905b8082111561239157600081816101000a81549060ff02191690555060010161236e565b5090565b90565b6123ba91905b808211156123b657600081600090555060010161239e565b5090565b90565b6123fd91905b808211156123f957600081816101000a81549073ffffffffffffffffffffffffffffffffffffffff0219169055506001016123c3565b5090565b905600a165627a7a723058200effa6cfa1bf8c1e4b4b3a4fbd600714bd2f2a0eea484668d094023cb1cd6f7b0029",
  "source": "pragma solidity ^0.4.24;\n\nimport \"../upgradability/StructuredStorage.sol\";\n\ncontract TwoKeyAdminStorage is StructuredStorage {\n\n}\n",
  "sourcePath": "/Users/nikolamadjarevic/Desktop/2key/contracts/contracts/2key/singleton-storage-contracts/TwoKeyAdminStorage.sol",
  "compiler": {
    "name": "solc",
    "version": "0.4.24+commit.e67f0147.Emscripten.clang"
  },
  "schemaVersion": "2.0.1",
  "updatedAt": "2019-11-07T08:15:06.171Z"
}