{
  "contractName": "TwoKeyPurchasesHandler",
  "abi": [
    {
      "constant": true,
      "inputs": [],
      "name": "implementation",
      "outputs": [
        {
          "name": "",
          "type": "address"
        }
      ],
      "payable": false,
      "stateMutability": "view",
      "type": "function"
    },
    {
      "constant": true,
      "inputs": [
        {
          "name": "",
          "type": "uint256"
        }
      ],
      "name": "portionToUnlockingDate",
      "outputs": [
        {
          "name": "",
          "type": "uint256"
        }
      ],
      "payable": false,
      "stateMutability": "view",
      "type": "function"
    },
    {
      "constant": true,
      "inputs": [],
      "name": "assetContractERC20",
      "outputs": [
        {
          "name": "",
          "type": "address"
        }
      ],
      "payable": false,
      "stateMutability": "view",
      "type": "function"
    },
    {
      "anonymous": false,
      "inputs": [
        {
          "indexed": false,
          "name": "timestamp",
          "type": "uint256"
        },
        {
          "indexed": false,
          "name": "methodCaller",
          "type": "address"
        },
        {
          "indexed": false,
          "name": "tokensReceiver",
          "type": "address"
        },
        {
          "indexed": false,
          "name": "portionId",
          "type": "uint256"
        },
        {
          "indexed": false,
          "name": "portionAmount",
          "type": "uint256"
        }
      ],
      "name": "TokensWithdrawn",
      "type": "event"
    },
    {
      "constant": false,
      "inputs": [
        {
          "name": "values",
          "type": "uint256[]"
        },
        {
          "name": "_contractor",
          "type": "address"
        },
        {
          "name": "_assetContractERC20",
          "type": "address"
        },
        {
          "name": "_twoKeyEventSource",
          "type": "address"
        },
        {
          "name": "_proxyConversionHandler",
          "type": "address"
        }
      ],
      "name": "setInitialParamsPurchasesHandler",
      "outputs": [],
      "payable": false,
      "stateMutability": "nonpayable",
      "type": "function"
    },
    {
      "constant": false,
      "inputs": [
        {
          "name": "_baseTokens",
          "type": "uint256"
        },
        {
          "name": "_bonusTokens",
          "type": "uint256"
        },
        {
          "name": "_conversionId",
          "type": "uint256"
        },
        {
          "name": "_converter",
          "type": "address"
        }
      ],
      "name": "startVesting",
      "outputs": [],
      "payable": false,
      "stateMutability": "nonpayable",
      "type": "function"
    },
    {
      "constant": false,
      "inputs": [
        {
          "name": "_newDate",
          "type": "uint256"
        }
      ],
      "name": "changeDistributionDate",
      "outputs": [],
      "payable": false,
      "stateMutability": "nonpayable",
      "type": "function"
    },
    {
      "constant": false,
      "inputs": [
        {
          "name": "conversionId",
          "type": "uint256"
        },
        {
          "name": "portion",
          "type": "uint256"
        }
      ],
      "name": "withdrawTokens",
      "outputs": [],
      "payable": false,
      "stateMutability": "nonpayable",
      "type": "function"
    },
    {
      "constant": true,
      "inputs": [
        {
          "name": "_conversionId",
          "type": "uint256"
        }
      ],
      "name": "getPurchaseInformation",
      "outputs": [
        {
          "name": "",
          "type": "address"
        },
        {
          "name": "",
          "type": "uint256"
        },
        {
          "name": "",
          "type": "uint256"
        },
        {
          "name": "",
          "type": "uint256[]"
        },
        {
          "name": "",
          "type": "bool[]"
        },
        {
          "name": "",
          "type": "uint256[]"
        }
      ],
      "payable": false,
      "stateMutability": "view",
      "type": "function"
    },
    {
      "constant": true,
      "inputs": [
        {
          "name": "_conversionId",
          "type": "uint256"
        }
      ],
      "name": "getAvailableAndLockedAndWithdrawnTokensPerConversion",
      "outputs": [
        {
          "name": "",
          "type": "uint256"
        },
        {
          "name": "",
          "type": "uint256"
        },
        {
          "name": "",
          "type": "uint256"
        }
      ],
      "payable": false,
      "stateMutability": "view",
      "type": "function"
    },
    {
      "constant": true,
      "inputs": [],
      "name": "getStaticInfo",
      "outputs": [
        {
          "name": "",
          "type": "uint256"
        },
        {
          "name": "",
          "type": "uint256"
        },
        {
          "name": "",
          "type": "uint256"
        },
        {
          "name": "",
          "type": "uint256"
        },
        {
          "name": "",
          "type": "uint256"
        },
        {
          "name": "",
          "type": "uint256"
        }
      ],
      "payable": false,
      "stateMutability": "view",
      "type": "function"
    },
    {
      "constant": true,
      "inputs": [],
      "name": "getPortionsUnlockingDates",
      "outputs": [
        {
          "name": "",
          "type": "uint256[]"
        }
      ],
      "payable": false,
      "stateMutability": "view",
      "type": "function"
    },
    {
      "constant": true,
      "inputs": [
        {
          "name": "_converter",
          "type": "address"
        }
      ],
      "name": "getMetricsPerConverterPerCampaign",
      "outputs": [
        {
          "name": "",
          "type": "uint256"
        },
        {
          "name": "",
          "type": "uint256"
        },
        {
          "name": "",
          "type": "uint256"
        },
        {
          "name": "",
          "type": "uint256"
        }
      ],
      "payable": false,
      "stateMutability": "view",
      "type": "function"
    }
  ],
  "bytecode": "0x608060405234801561001057600080fd5b50611ee3806100206000396000f3006080604052600436106100ba576000357c0100000000000000000000000000000000000000000000000000000000900463ffffffff1680631a395e74146100bf5780635c60da1b1461021257806361f099fc1461026957806364e516a9146102b85780636ea1d5a21461039e578063729c75a6146103df578063a6791ca01461044b578063b56374c3146104a2578063ba7bd2aa14610503578063d64b82581461053a578063e5861a03146105a6578063f4fea1f9146105f4575b600080fd5b3480156100cb57600080fd5b506100ea60048036038101908080359060200190929190505050610621565b604051808773ffffffffffffffffffffffffffffffffffffffff1673ffffffffffffffffffffffffffffffffffffffff168152602001868152602001858152602001806020018060200180602001848103845287818151815260200191508051906020019060200280838360005b83811015610173578082015181840152602081019050610158565b50505050905001848103835286818151815260200191508051906020019060200280838360005b838110156101b557808201518184015260208101905061019a565b50505050905001848103825285818151815260200191508051906020019060200280838360005b838110156101f75780820151818401526020810190506101dc565b50505050905001995050505050505050505060405180910390f35b34801561021e57600080fd5b506102276107d6565b604051808273ffffffffffffffffffffffffffffffffffffffff1673ffffffffffffffffffffffffffffffffffffffff16815260200191505060405180910390f35b34801561027557600080fd5b50610294600480360381019080803590602001909291905050506107ff565b60405180848152602001838152602001828152602001935050505060405180910390f35b3480156102c457600080fd5b5061039c60048036038101908080359060200190820180359060200190808060200260200160405190810160405280939291908181526020018383602002808284378201915050505050509192919290803573ffffffffffffffffffffffffffffffffffffffff169060200190929190803573ffffffffffffffffffffffffffffffffffffffff169060200190929190803573ffffffffffffffffffffffffffffffffffffffff169060200190929190803573ffffffffffffffffffffffffffffffffffffffff169060200190929190505050610a92565b005b3480156103aa57600080fd5b506103c960048036038101908080359060200190929190505050610e05565b6040518082815260200191505060405180910390f35b3480156103eb57600080fd5b50610420600480360381019080803573ffffffffffffffffffffffffffffffffffffffff169060200190929190505050610e1d565b6040518085815260200184815260200183815260200182815260200194505050505060405180910390f35b34801561045757600080fd5b50610460611137565b604051808273ffffffffffffffffffffffffffffffffffffffff1673ffffffffffffffffffffffffffffffffffffffff16815260200191505060405180910390f35b3480156104ae57600080fd5b50610501600480360381019080803590602001909291908035906020019092919080359060200190929190803573ffffffffffffffffffffffffffffffffffffffff16906020019092919050505061115d565b005b34801561050f57600080fd5b50610538600480360381019080803590602001909291908035906020019092919050505061121b565b005b34801561054657600080fd5b5061054f61166e565b6040518080602001828103825283818151815260200191508051906020019060200280838360005b83811015610592578082015181840152602081019050610577565b505050509050019250505060405180910390f35b3480156105b257600080fd5b506105bb611701565b60405180878152602001868152602001858152602001848152602001838152602001828152602001965050505050505060405180910390f35b34801561060057600080fd5b5061061f60048036038101908080359060200190929190505050611748565b005b60008060006060806060610633611d29565b6060600d60008a815260200190815260200160002060a060405190810160405290816000820160009054906101000a900473ffffffffffffffffffffffffffffffffffffffff1673ffffffffffffffffffffffffffffffffffffffff1673ffffffffffffffffffffffffffffffffffffffff16815260200160018201548152602001600282015481526020016003820180548060200260200160405190810160405280929190818152602001828054801561070d57602002820191906000526020600020905b8154815260200190600101908083116106f9575b505050505081526020016004820180548060200260200160405190810160405280929190818152602001828054801561078a57602002820191906000526020600020906000905b82829054906101000a900460ff161515815260200190600101906020826000010492830192600103820291508084116107545790505b505050505081525050915061079d61166e565b90508160000151826020015183604001518460600151856080015185829250819150975097509750975097509750505091939550919395565b60008060009054906101000a900473ffffffffffffffffffffffffffffffffffffffff16905090565b600080600061080c611d29565b6060600080600080600d60008b815260200190815260200160002060a060405190810160405290816000820160009054906101000a900473ffffffffffffffffffffffffffffffffffffffff1673ffffffffffffffffffffffffffffffffffffffff1673ffffffffffffffffffffffffffffffffffffffff1681526020016001820154815260200160028201548152602001600382018054806020026020016040519081016040528092919081815260200182805480156108ec57602002820191906000526020600020905b8154815260200190600101908083116108d8575b505050505081526020016004820180548060200260200160405190810160405280929190818152602001828054801561096957602002820191906000526020600020906000905b82829054906101000a900460ff161515815260200190600101906020826000010492830192600103820291508084116109335790505b505050505081525050955061097c61166e565b9450600090505b8451811015610a7c57848181518110151561099a57fe5b906020019060200201514210156109e0576109d98660600151828151811015156109c057fe5b90602001906020020151846118ad90919063ffffffff16565b9250610a6f565b600115158660800151828151811015156109f657fe5b9060200190602002015115151415610a3d57610a36866060015182815181101515610a1d57fe5b90602001906020020151836118ad90919063ffffffff16565b9150610a6e565b610a6b866060015182815181101515610a5257fe5b90602001906020020151856118ad90919063ffffffff16565b93505b5b8080600101915050610983565b8383839850985098505050505050509193909250565b60008060001515600260009054906101000a900460ff161515141515610ab757600080fd5b6064876004815181101515610ac857fe5b9060200190602002015111151515610adf57600080fd5b866002815181101515610aee57fe5b90602001906020020151600981905550866003815181101515610b0d57fe5b90602001906020020151600c81905550866004815181101515610b2c57fe5b90602001906020020151600a81905550866005815181101515610b4b57fe5b90602001906020020151600b81905550866006815181101515610b6a57fe5b90602001906020020151600881905550866007815181101515610b8957fe5b906020019060200201516001811115610b9e57fe5b600060146101000a81548160ff02191690836001811115610bbb57fe5b021790555085600560006101000a81548173ffffffffffffffffffffffffffffffffffffffff021916908373ffffffffffffffffffffffffffffffffffffffff16021790555084600360006101000a81548173ffffffffffffffffffffffffffffffffffffffff021916908373ffffffffffffffffffffffffffffffffffffffff16021790555083600660006101000a81548173ffffffffffffffffffffffffffffffffffffffff021916908373ffffffffffffffffffffffffffffffffffffffff160217905550826002806101000a81548173ffffffffffffffffffffffffffffffffffffffff021916908373ffffffffffffffffffffffffffffffffffffffff160217905550600180811115610ccf57fe5b600060149054906101000a900460ff166001811115610cea57fe5b1415610d2357610d1c610d0b62015180600b546118cc90919063ffffffff16565b6009546118ad90919063ffffffff16565b9150610d52565b610d4f610d3e620151806008546118cc90919063ffffffff16565b6009546118ad90919063ffffffff16565b91505b6009546001600080815260200190815260200160002081905550600190505b6001600a5401811015610de157610dbd610dae610d9c62015180600b546118cc90919063ffffffff16565b600184036118cc90919063ffffffff16565b836118ad90919063ffffffff16565b60016000838152602001908152602001600020819055508080600101915050610d71565b6001600260006101000a81548160ff02191690831515021790555050505050505050565b60016020528060005260406000206000915090505481565b6000806000806000606060008060008060008060006002809054906101000a900473ffffffffffffffffffffffffffffffffffffffff1673ffffffffffffffffffffffffffffffffffffffff1663b0f3684b8f6040518263ffffffff167c0100000000000000000000000000000000000000000000000000000000028152600401808273ffffffffffffffffffffffffffffffffffffffff1673ffffffffffffffffffffffffffffffffffffffff168152602001915050606060405180830381600087803b158015610eee57600080fd5b505af1158015610f02573d6000803e3d6000fd5b505050506040513d6060811015610f1857600080fd5b810190808051906020019092919080519060200190929190805190602001909291905050509091509050809950506002809054906101000a900473ffffffffffffffffffffffffffffffffffffffff1673ffffffffffffffffffffffffffffffffffffffff166386e1fb168f6040518263ffffffff167c0100000000000000000000000000000000000000000000000000000000028152600401808273ffffffffffffffffffffffffffffffffffffffff1673ffffffffffffffffffffffffffffffffffffffff168152602001915050600060405180830381600087803b15801561100257600080fd5b505af1158015611016573d6000803e3d6000fd5b505050506040513d6000823e3d601f19601f82011682018060405250602081101561104057600080fd5b81019080805164010000000081111561105857600080fd5b8281019050602081018481111561106e57600080fd5b815185602082028301116401000000008211171561108b57600080fd5b50509291905050509750600093505b875184101561111b576110c388858151811015156110b457fe5b906020019060200201516107ff565b8093508194508295505050506110e283886118ad90919063ffffffff16565b96506110f782876118ad90919063ffffffff16565b955061110c81866118ad90919063ffffffff16565b9450838060010194505061109a565b888787879c509c509c509c505050505050505050509193509193565b600360009054906101000a900473ffffffffffffffffffffffffffffffffffffffff1681565b6002809054906101000a900473ffffffffffffffffffffffffffffffffffffffff1673ffffffffffffffffffffffffffffffffffffffff163373ffffffffffffffffffffffffffffffffffffffff161415156111b857600080fd5b6001808111156111c457fe5b600060149054906101000a900460ff1660018111156111df57fe5b14156111f6576111f184848484611907565b611203565b61120284848484611ae2565b5b60076000815480929190600101919050555050505050565b6000600d600084815260200190815260200160002090508060000160009054906101000a900473ffffffffffffffffffffffffffffffffffffffff1673ffffffffffffffffffffffffffffffffffffffff163373ffffffffffffffffffffffffffffffffffffffff16148061138b575060011515600660009054906101000a900473ffffffffffffffffffffffffffffffffffffffff1673ffffffffffffffffffffffffffffffffffffffff166340f59c21336040518263ffffffff167c0100000000000000000000000000000000000000000000000000000000028152600401808273ffffffffffffffffffffffffffffffffffffffff1673ffffffffffffffffffffffffffffffffffffffff168152602001915050602060405180830381600087803b15801561134c57600080fd5b505af1158015611360573d6000803e3d6000fd5b505050506040513d602081101561137657600080fd5b81019080805190602001909291905050501515145b151561139657600080fd5b6000151581600401838154811015156113ab57fe5b90600052602060002090602091828204019190069054906101000a900460ff1615151480156113ec5750600160008381526020019081526020016000205442115b15156113f757600080fd5b7f898010b56ceee3a83f68f69f71e63a30864206dd181cf87395f25f6d715304cc4233600460009054906101000a900473ffffffffffffffffffffffffffffffffffffffff1685856003018781548110151561144f57fe5b9060005260206000200154604051808681526020018573ffffffffffffffffffffffffffffffffffffffff1673ffffffffffffffffffffffffffffffffffffffff1681526020018473ffffffffffffffffffffffffffffffffffffffff1673ffffffffffffffffffffffffffffffffffffffff1681526020018381526020018281526020019550505050505060405180910390a1600181600401838154811015156114f657fe5b90600052602060002090602091828204019190066101000a81548160ff021916908315150217905550600360009054906101000a900473ffffffffffffffffffffffffffffffffffffffff1673ffffffffffffffffffffffffffffffffffffffff1663a9059cbb8260000160009054906101000a900473ffffffffffffffffffffffffffffffffffffffff16836003018581548110151561159357fe5b90600052602060002001546040518363ffffffff167c0100000000000000000000000000000000000000000000000000000000028152600401808373ffffffffffffffffffffffffffffffffffffffff1673ffffffffffffffffffffffffffffffffffffffff16815260200182815260200192505050602060405180830381600087803b15801561162357600080fd5b505af1158015611637573d6000803e3d6000fd5b505050506040513d602081101561164d57600080fd5b8101908080519060200190929190505050151561166957600080fd5b505050565b60608060006001600a54016040519080825280602002602001820160405280156116a75781602001602082028038833980820191505090505b509150600090505b6001600a54018110156116f957600160008281526020019081526020016000205482828151811015156116de57fe5b906020019060200201818152505080806001019150506116af565b819250505090565b600080600080600080600854600954600a54600b54600c54600060149054906101000a900460ff16600181111561173457fe5b955095509550955095509550909192939495565b600080600560009054906101000a900473ffffffffffffffffffffffffffffffffffffffff1673ffffffffffffffffffffffffffffffffffffffff163373ffffffffffffffffffffffffffffffffffffffff161415156117a757600080fd5b60001515600260019054906101000a900460ff1615151415156117c957600080fd5b6009546117f66117e762015180600c546118cc90919063ffffffff16565b85611cf790919063ffffffff16565b1115151561180357600080fd5b6009544210151561181357600080fd5b61182883600954611cf790919063ffffffff16565b9150600090505b6001600a5401811015611886576118628260016000848152602001908152602001600020546118ad90919063ffffffff16565b6001600083815260200190815260200160002081905550808060010191505061182f565b6001600260016101000a81548160ff02191690831515021790555082600981905550505050565b600081830190508281101515156118c357600080fd5b80905092915050565b6000808314156118df5760009050611901565b81830290508183828115156118f057fe5b041415156118fd57600080fd5b8090505b92915050565b6060806000806000611917611d29565b6001600a540160405190808252806020026020018201604052801561194b5781602001602082028038833980820191505090505b5095506001600a54016040519080825280602002602001820160405280156119825781602001602082028038833980820191505090505b509450611998898b6118ad90919063ffffffff16565b93506119af600a5485611d1390919063ffffffff16565b9250600091505b600a548210156119ea578286838151811015156119cf57fe5b906020019060200201818152505081806001019250506119b6565b60a0604051908101604052808873ffffffffffffffffffffffffffffffffffffffff1681526020018b81526020018a815260200187815260200186815250905080600d60008a815260200190815260200160002060008201518160000160006101000a81548173ffffffffffffffffffffffffffffffffffffffff021916908373ffffffffffffffffffffffffffffffffffffffff16021790555060208201518160010155604082015181600201556060820151816003019080519060200190611ab5929190611d6f565b506080820151816004019080519060200190611ad2929190611dbc565b5090505050505050505050505050565b6060806000806000611af2611d29565b6001600a5401604051908082528060200260200182016040528015611b265781602001602082028038833980820191505090505b5095506001600a5401604051908082528060200260200182016040528015611b5d5781602001602082028038833980820191505090505b50945089866000815181101515611b7057fe5b9060200190602002018181525050611baa611b99620151806008546118cc90919063ffffffff16565b6009546118ad90919063ffffffff16565b9350611bc1600a548a611d1390919063ffffffff16565b9250600191505b6001600a5401821015611bff57828683815181101515611be457fe5b90602001906020020181815250508180600101925050611bc8565b60a0604051908101604052808873ffffffffffffffffffffffffffffffffffffffff1681526020018b81526020018a815260200187815260200186815250905080600d60008a815260200190815260200160002060008201518160000160006101000a81548173ffffffffffffffffffffffffffffffffffffffff021916908373ffffffffffffffffffffffffffffffffffffffff16021790555060208201518160010155604082015181600201556060820151816003019080519060200190611cca929190611d6f565b506080820151816004019080519060200190611ce7929190611dbc565b5090505050505050505050505050565b6000828211151515611d0857600080fd5b818303905092915050565b60008183811515611d2057fe5b04905092915050565b60a060405190810160405280600073ffffffffffffffffffffffffffffffffffffffff168152602001600081526020016000815260200160608152602001606081525090565b828054828255906000526020600020908101928215611dab579160200282015b82811115611daa578251825591602001919060010190611d8f565b5b509050611db89190611e62565b5090565b82805482825590600052602060002090601f01602090048101928215611e515791602002820160005b83821115611e2257835183826101000a81548160ff0219169083151502179055509260200192600101602081600001049283019260010302611de5565b8015611e4f5782816101000a81549060ff0219169055600101602081600001049283019260010302611e22565b505b509050611e5e9190611e87565b5090565b611e8491905b80821115611e80576000816000905550600101611e68565b5090565b90565b611eb491905b80821115611eb057600081816101000a81549060ff021916905550600101611e8d565b5090565b905600a165627a7a723058204ad348f9b87c1c87dd0b4afd2a47087553bdffad4a149fa8f04329149e1f47140029",
  "source": "pragma solidity ^0.4.24;\n\nimport \"../interfaces/ITwoKeyEventSource.sol\";\nimport \"../interfaces/IERC20.sol\";\nimport \"../upgradable-pattern-campaigns/UpgradeableCampaign.sol\";\nimport \"../libraries/SafeMath.sol\";\nimport \"../interfaces/ITwoKeyConversionHandler.sol\";\n\n/**\n * @author Nikola Madjarevic\n */\ncontract TwoKeyPurchasesHandler is UpgradeableCampaign {\n\n    using SafeMath for *;\n\n    enum VestingAmount {BONUS, BASE_AND_BONUS}\n    VestingAmount vestingAmount;\n\n    mapping(uint => uint) public portionToUnlockingDate;\n\n\n    bool initialized;\n    bool isDistributionDateChanged;\n\n    address proxyConversionHandler;\n    address public assetContractERC20;\n    address converter;\n    address contractor;\n    address twoKeyEventSource;\n\n\n    uint numberOfPurchases;\n    uint bonusTokensVestingStartShiftInDaysFromDistributionDate;\n    uint tokenDistributionDate; // Start of token distribution\n    uint numberOfVestingPortions; // For example 6\n    uint numberOfDaysBetweenPortions; // For example 30 days\n    uint maxDistributionDateShiftInDays;\n\n    mapping(uint => Purchase) conversionIdToPurchase;\n\n\n    event TokensWithdrawn(\n        uint timestamp,\n        address methodCaller,\n        address tokensReceiver,\n        uint portionId,\n        uint portionAmount\n    );\n\n    struct Purchase {\n        address converter;\n        uint baseTokens;\n        uint bonusTokens;\n        uint [] portionAmounts;\n        bool [] isPortionWithdrawn;\n    }\n\n    function setInitialParamsPurchasesHandler(\n        uint[] values,\n        address _contractor,\n        address _assetContractERC20,\n        address _twoKeyEventSource,\n        address _proxyConversionHandler\n    )\n    public\n    {\n        require(initialized == false);\n        require(values[4] <= 100);\n        tokenDistributionDate = values[2];\n        maxDistributionDateShiftInDays = values[3];\n        numberOfVestingPortions = values[4];\n        numberOfDaysBetweenPortions = values[5];\n        bonusTokensVestingStartShiftInDaysFromDistributionDate = values[6];\n        vestingAmount = VestingAmount(values[7]);\n        contractor = _contractor;\n        assetContractERC20 = _assetContractERC20;\n        twoKeyEventSource = _twoKeyEventSource;\n        proxyConversionHandler = _proxyConversionHandler;\n\n        uint bonusVestingStartDate;\n        // In case vested amounts are both bonus and base, bonusTokensVestingStartShiftInDaysFromDistributionDate is ignored\n        if(vestingAmount == VestingAmount.BASE_AND_BONUS) {\n            bonusVestingStartDate = tokenDistributionDate.add(numberOfDaysBetweenPortions.mul(1 days));\n        } else {\n            bonusVestingStartDate = tokenDistributionDate.add(bonusTokensVestingStartShiftInDaysFromDistributionDate.mul(1 days));\n        }\n\n\n        portionToUnlockingDate[0] = tokenDistributionDate;\n\n        for(uint i=1; i<numberOfVestingPortions + 1; i++) {\n            portionToUnlockingDate[i] = bonusVestingStartDate.add((i-1).mul(numberOfDaysBetweenPortions.mul(1 days)));\n        }\n\n        initialized = true;\n    }\n\n\n    function startVesting(\n        uint _baseTokens,\n        uint _bonusTokens,\n        uint _conversionId,\n        address _converter\n    )\n    public\n    {\n        require(msg.sender == proxyConversionHandler);\n        if(vestingAmount == VestingAmount.BASE_AND_BONUS) {\n            baseAndBonusVesting(_baseTokens, _bonusTokens, _conversionId, _converter);\n        } else {\n            bonusVestingOnly(_baseTokens, _bonusTokens, _conversionId, _converter);\n        }\n        numberOfPurchases++;\n    }\n\n    function bonusVestingOnly(\n        uint _baseTokens,\n        uint _bonusTokens,\n        uint _conversionId,\n        address _converter\n    )\n    internal\n    {\n        uint [] memory portionAmounts = new uint[](numberOfVestingPortions+1);\n        bool [] memory isPortionWithdrawn = new bool[](numberOfVestingPortions+1);\n        portionAmounts[0] = _baseTokens;\n\n        uint bonusVestingStartDate = tokenDistributionDate.add(bonusTokensVestingStartShiftInDaysFromDistributionDate.mul(1 days));\n        uint bonusPortionAmount = _bonusTokens.div(numberOfVestingPortions);\n\n        for(uint i=1; i<numberOfVestingPortions + 1; i++) {\n            portionAmounts[i] = bonusPortionAmount;\n        }\n\n        Purchase memory purchase = Purchase(\n            _converter,\n            _baseTokens,\n            _bonusTokens,\n            portionAmounts,\n            isPortionWithdrawn\n        );\n\n        conversionIdToPurchase[_conversionId] = purchase;\n    }\n\n    function baseAndBonusVesting(\n        uint _baseTokens,\n        uint _bonusTokens,\n        uint _conversionId,\n        address _converter\n    )\n    internal\n    {\n        uint [] memory portionAmounts = new uint[](numberOfVestingPortions+1);\n        bool [] memory isPortionWithdrawn = new bool[](numberOfVestingPortions+1);\n\n        uint totalAmount = _baseTokens.add(_bonusTokens);\n        uint portion = totalAmount.div(numberOfVestingPortions);\n\n        for(uint i=0; i<numberOfVestingPortions; i++) {\n            portionAmounts[i] = portion;\n        }\n\n        Purchase memory purchase = Purchase(\n            _converter,\n            _baseTokens,\n            _bonusTokens,\n            portionAmounts,\n            isPortionWithdrawn\n        );\n\n        conversionIdToPurchase[_conversionId] = purchase;\n    }\n\n\n    function changeDistributionDate(\n        uint _newDate\n    )\n    public\n    {\n        require(msg.sender == contractor);\n        require(isDistributionDateChanged == false);\n        require(_newDate.sub(maxDistributionDateShiftInDays.mul(1 days)) <= tokenDistributionDate);\n        require(now < tokenDistributionDate);\n\n        uint shift = tokenDistributionDate.sub(_newDate);\n        // If the date is changed shifting all tokens unlocking dates for the difference\n        for(uint i=0; i<numberOfVestingPortions+1;i++) {\n            portionToUnlockingDate[i] = portionToUnlockingDate[i].add(shift);\n        }\n\n        isDistributionDateChanged = true;\n        tokenDistributionDate = _newDate;\n    }\n\n\n    function withdrawTokens(\n        uint conversionId,\n        uint portion\n    )\n    public\n    {\n        Purchase p = conversionIdToPurchase[conversionId];\n        //Only converter of maintainer can call this function\n        require(msg.sender == p.converter || ITwoKeyEventSource(twoKeyEventSource).isAddressMaintainer(msg.sender) == true);\n        require(p.isPortionWithdrawn[portion] == false && block.timestamp > portionToUnlockingDate[portion]);\n\n        emit TokensWithdrawn (\n            block.timestamp,\n            msg.sender,\n            converter,\n            portion,\n            p.portionAmounts[portion]\n        );\n\n        p.isPortionWithdrawn[portion] = true;\n        //Transfer tokens\n        require(IERC20(assetContractERC20).transfer(p.converter, p.portionAmounts[portion]));\n    }\n\n    function getPurchaseInformation(\n        uint _conversionId\n    )\n    public\n    view\n    returns (address, uint, uint, uint[], bool[], uint[])\n    {\n        Purchase memory p = conversionIdToPurchase[_conversionId];\n        uint [] memory unlockingDates = getPortionsUnlockingDates();\n        return (\n            p.converter,\n            p.baseTokens,\n            p.bonusTokens,\n            p.portionAmounts,\n            p.isPortionWithdrawn,\n            unlockingDates\n        );\n    }\n\n    function getAvailableAndLockedAndWithdrawnTokensPerConversion(\n        uint _conversionId\n    )\n    public\n    view\n    returns (uint,uint,uint)\n    {\n        Purchase memory p = conversionIdToPurchase[_conversionId];\n        uint[] memory unlockingDates = getPortionsUnlockingDates();\n\n        uint availableTokens;\n        uint lockedTokens;\n        uint withdrawnTokens;\n        /**\n         If unlocking date is after block.timestamp, then this portion amount and all after it are locked\n         Otherwise, if the date is before block.timestamp, it's either withdrawn or available to withdraw\n         */\n        for(uint j=0; j<unlockingDates.length; j++) {\n            if(block.timestamp < unlockingDates[j]) {\n                lockedTokens = lockedTokens.add(p.portionAmounts[j]);\n            } else {\n                if(p.isPortionWithdrawn[j] == true) {\n                    withdrawnTokens = withdrawnTokens.add(p.portionAmounts[j]);\n                } else {\n                    availableTokens = availableTokens.add(p.portionAmounts[j]);\n                }\n            }\n        }\n\n        return (availableTokens, lockedTokens, withdrawnTokens);\n    }\n\n    function getStaticInfo()\n    public\n    view\n    returns (uint,uint,uint,uint,uint,uint)\n    {\n        return (\n            bonusTokensVestingStartShiftInDaysFromDistributionDate,\n            tokenDistributionDate,\n            numberOfVestingPortions,\n            numberOfDaysBetweenPortions,\n            maxDistributionDateShiftInDays,\n            uint(vestingAmount)\n        );\n    }\n\n    function getPortionsUnlockingDates()\n    public\n    view\n    returns (uint[])\n    {\n        uint [] memory dates = new uint[](numberOfVestingPortions+1);\n        for(uint i=0; i< numberOfVestingPortions+1; i++) {\n            dates[i] = portionToUnlockingDate[i];\n        }\n        return dates;\n    }\n\n    function getMetricsPerConverterPerCampaign(\n        address _converter\n    )\n    public\n    view\n    returns (uint, uint,uint,uint)\n    {\n        uint totalUnitsConverterBought;\n        (,,totalUnitsConverterBought) = ITwoKeyConversionHandler(proxyConversionHandler).getConverterPurchasesStats(_converter);\n\n        uint[] memory conversionIds = ITwoKeyConversionHandler(proxyConversionHandler).getConverterConversionIds(_converter);\n        uint totalAvailable;\n        uint totalLocked;\n        uint totalWithdrawn;\n\n        for(uint i=0; i<conversionIds.length; i++) {\n            uint available;\n            uint locked;\n            uint withdrawn;\n\n            (available,locked,withdrawn) = getAvailableAndLockedAndWithdrawnTokensPerConversion(conversionIds[i]);\n\n            totalAvailable = totalAvailable.add(available);\n            totalLocked = totalLocked.add(locked);\n            totalWithdrawn = totalWithdrawn.add(withdrawn);\n        }\n\n        return (totalUnitsConverterBought, totalAvailable, totalLocked, totalWithdrawn);\n    }\n\n\n}\n",
  "sourcePath": "/Users/nikolamadjarevic/Desktop/2key/contracts/contracts/2key/acquisition-campaign-contracts/TwoKeyPurchasesHandler.sol",
  "compiler": {
    "name": "solc",
    "version": "0.4.24+commit.e67f0147.Emscripten.clang"
  },
  "schemaVersion": "2.0.1",
  "updatedAt": "2019-11-07T08:14:37.670Z"
}