{
  "contractName": "TwoKeyConversionHandler",
  "abi": [
    {
      "constant": true,
      "inputs": [],
      "name": "twoKeyPurchasesHandler",
      "outputs": [
        {
          "name": "",
          "type": "address"
        }
      ],
      "payable": false,
      "stateMutability": "view",
      "type": "function"
    },
    {
      "constant": true,
      "inputs": [
        {
          "name": "state",
          "type": "bytes32"
        }
      ],
      "name": "getAllConvertersPerState",
      "outputs": [
        {
          "name": "",
          "type": "address[]"
        }
      ],
      "payable": false,
      "stateMutability": "view",
      "type": "function"
    },
    {
      "constant": true,
      "inputs": [],
      "name": "isFiatConversionAutomaticallyApproved",
      "outputs": [
        {
          "name": "",
          "type": "bool"
        }
      ],
      "payable": false,
      "stateMutability": "view",
      "type": "function"
    },
    {
      "constant": true,
      "inputs": [],
      "name": "implementation",
      "outputs": [
        {
          "name": "",
          "type": "address"
        }
      ],
      "payable": false,
      "stateMutability": "view",
      "type": "function"
    },
    {
      "constant": true,
      "inputs": [],
      "name": "getNumberOfConversions",
      "outputs": [
        {
          "name": "",
          "type": "uint256"
        }
      ],
      "payable": false,
      "stateMutability": "view",
      "type": "function"
    },
    {
      "constant": true,
      "inputs": [
        {
          "name": "",
          "type": "address"
        }
      ],
      "name": "converterToPositionIndex",
      "outputs": [
        {
          "name": "",
          "type": "uint256"
        }
      ],
      "payable": false,
      "stateMutability": "view",
      "type": "function"
    },
    {
      "constant": true,
      "inputs": [
        {
          "name": "_converter",
          "type": "address"
        }
      ],
      "name": "getConverterConversionIds",
      "outputs": [
        {
          "name": "",
          "type": "uint256[]"
        }
      ],
      "payable": false,
      "stateMutability": "view",
      "type": "function"
    },
    {
      "constant": false,
      "inputs": [
        {
          "name": "_converter",
          "type": "address"
        }
      ],
      "name": "approveConverter",
      "outputs": [],
      "payable": false,
      "stateMutability": "nonpayable",
      "type": "function"
    },
    {
      "constant": true,
      "inputs": [
        {
          "name": "_converter",
          "type": "address"
        }
      ],
      "name": "getLastConverterConversionId",
      "outputs": [
        {
          "name": "",
          "type": "uint256"
        }
      ],
      "payable": false,
      "stateMutability": "view",
      "type": "function"
    },
    {
      "constant": true,
      "inputs": [],
      "name": "getCampaignSummary",
      "outputs": [
        {
          "name": "",
          "type": "uint256"
        },
        {
          "name": "",
          "type": "uint256"
        },
        {
          "name": "",
          "type": "uint256"
        },
        {
          "name": "",
          "type": "uint256[]"
        }
      ],
      "payable": false,
      "stateMutability": "view",
      "type": "function"
    },
    {
      "constant": true,
      "inputs": [
        {
          "name": "_converter",
          "type": "address"
        }
      ],
      "name": "getStateForConverter",
      "outputs": [
        {
          "name": "",
          "type": "bytes32"
        }
      ],
      "payable": false,
      "stateMutability": "view",
      "type": "function"
    },
    {
      "anonymous": false,
      "inputs": [
        {
          "indexed": false,
          "name": "conversionId",
          "type": "uint256"
        }
      ],
      "name": "ConversionCreated",
      "type": "event"
    },
    {
      "constant": false,
      "inputs": [
        {
          "name": "values",
          "type": "uint256[]"
        },
        {
          "name": "_twoKeyAcquisitionCampaignERC20",
          "type": "address"
        },
        {
          "name": "_twoKeyPurchasesHandler",
          "type": "address"
        },
        {
          "name": "_contractor",
          "type": "address"
        },
        {
          "name": "_assetContractERC20",
          "type": "address"
        },
        {
          "name": "_twoKeySingletonRegistry",
          "type": "address"
        }
      ],
      "name": "setInitialParamsConversionHandler",
      "outputs": [],
      "payable": false,
      "stateMutability": "nonpayable",
      "type": "function"
    },
    {
      "constant": false,
      "inputs": [
        {
          "name": "_converterAddress",
          "type": "address"
        },
        {
          "name": "_conversionAmount",
          "type": "uint256"
        },
        {
          "name": "_maxReferralRewardETHWei",
          "type": "uint256"
        },
        {
          "name": "baseTokensForConverterUnits",
          "type": "uint256"
        },
        {
          "name": "bonusTokensForConverterUnits",
          "type": "uint256"
        },
        {
          "name": "isConversionFiat",
          "type": "bool"
        },
        {
          "name": "_isAnonymous",
          "type": "bool"
        },
        {
          "name": "conversionAmountCampaignCurrency",
          "type": "uint256"
        }
      ],
      "name": "supportForCreateConversion",
      "outputs": [
        {
          "name": "",
          "type": "uint256"
        }
      ],
      "payable": false,
      "stateMutability": "nonpayable",
      "type": "function"
    },
    {
      "constant": false,
      "inputs": [
        {
          "name": "_conversionId",
          "type": "uint256"
        }
      ],
      "name": "executeConversion",
      "outputs": [],
      "payable": false,
      "stateMutability": "nonpayable",
      "type": "function"
    },
    {
      "constant": true,
      "inputs": [
        {
          "name": "conversionId",
          "type": "uint256"
        }
      ],
      "name": "getConversion",
      "outputs": [
        {
          "name": "",
          "type": "bytes"
        }
      ],
      "payable": false,
      "stateMutability": "view",
      "type": "function"
    },
    {
      "constant": false,
      "inputs": [
        {
          "name": "_converter",
          "type": "address"
        }
      ],
      "name": "rejectConverter",
      "outputs": [],
      "payable": false,
      "stateMutability": "nonpayable",
      "type": "function"
    },
    {
      "constant": false,
      "inputs": [
        {
          "name": "_conversionId",
          "type": "uint256"
        }
      ],
      "name": "converterCancelConversion",
      "outputs": [],
      "payable": false,
      "stateMutability": "nonpayable",
      "type": "function"
    },
    {
      "constant": true,
      "inputs": [
        {
          "name": "_converter",
          "type": "address"
        }
      ],
      "name": "getConverterPurchasesStats",
      "outputs": [
        {
          "name": "",
          "type": "uint256"
        },
        {
          "name": "",
          "type": "uint256"
        },
        {
          "name": "",
          "type": "uint256"
        }
      ],
      "payable": false,
      "stateMutability": "view",
      "type": "function"
    }
  ],
  "bytecode": "0x608060405234801561001057600080fd5b50614f92806100206000396000f3006080604052600436106100fc576000357c0100000000000000000000000000000000000000000000000000000000900463ffffffff168063047abed7146101015780630c671921146101a75780630ebdf788146101ea5780631011e763146102175780632a6038b71461026e5780632ae6df4e146103745780634ed2f42d146103a157806354c4ff82146104275780635c60da1b14610456578063795e1511146104ad5780638680da56146104d857806386e1fb161461052f5780638f749c02146105c75780639021c9581461060a578063a00c96d714610661578063b0f3684b146106e2578063c3040fd114610747578063e6dcd78e146107a6575b600080fd5b34801561010d57600080fd5b5061012c60048036038101908080359060200190929190505050610847565b6040518080602001828103825283818151815260200191508051906020019080838360005b8381101561016c578082015181840152602081019050610151565b50505050905090810190601f1680156101995780820380516001836020036101000a031916815260200191505b509250505060405180910390f35b3480156101b357600080fd5b506101e8600480360381019080803573ffffffffffffffffffffffffffffffffffffffff169060200190929190505050610bc0565b005b3480156101f657600080fd5b5061021560048036038101908080359060200190929190505050611456565b005b34801561022357600080fd5b5061022c6124a4565b604051808273ffffffffffffffffffffffffffffffffffffffff1673ffffffffffffffffffffffffffffffffffffffff16815260200191505060405180910390f35b34801561027a57600080fd5b5061037260048036038101908080359060200190820180359060200190808060200260200160405190810160405280939291908181526020018383602002808284378201915050505050509192919290803573ffffffffffffffffffffffffffffffffffffffff169060200190929190803573ffffffffffffffffffffffffffffffffffffffff169060200190929190803573ffffffffffffffffffffffffffffffffffffffff169060200190929190803573ffffffffffffffffffffffffffffffffffffffff169060200190929190803573ffffffffffffffffffffffffffffffffffffffff1690602001909291905050506124ca565b005b34801561038057600080fd5b5061039f60048036038101908080359060200190929190505050612830565b005b3480156103ad57600080fd5b506103d06004803603810190808035600019169060200190929190505050612be6565b6040518080602001828103825283818151815260200191508051906020019060200280838360005b838110156104135780820151818401526020810190506103f8565b505050509050019250505060405180910390f35b34801561043357600080fd5b5061043c612c8f565b604051808215151515815260200191505060405180910390f35b34801561046257600080fd5b5061046b612ca2565b604051808273ffffffffffffffffffffffffffffffffffffffff1673ffffffffffffffffffffffffffffffffffffffff16815260200191505060405180910390f35b3480156104b957600080fd5b506104c2612ccb565b6040518082815260200191505060405180910390f35b3480156104e457600080fd5b50610519600480360381019080803573ffffffffffffffffffffffffffffffffffffffff169060200190929190505050612cd5565b6040518082815260200191505060405180910390f35b34801561053b57600080fd5b50610570600480360381019080803573ffffffffffffffffffffffffffffffffffffffff169060200190929190505050612ced565b6040518080602001828103825283818151815260200191508051906020019060200280838360005b838110156105b3578082015181840152602081019050610598565b505050509050019250505060405180910390f35b3480156105d357600080fd5b50610608600480360381019080803573ffffffffffffffffffffffffffffffffffffffff169060200190929190505050612d84565b005b34801561061657600080fd5b5061064b600480360381019080803573ffffffffffffffffffffffffffffffffffffffff16906020019092919050505061305a565b6040518082815260200191505060405180910390f35b34801561066d57600080fd5b506106766130ff565b6040518085815260200184815260200183815260200180602001828103825283818151815260200191508051906020019060200280838360005b838110156106cb5780820151818401526020810190506106b0565b505050509050019550505050505060405180910390f35b3480156106ee57600080fd5b50610723600480360381019080803573ffffffffffffffffffffffffffffffffffffffff169060200190929190505050613201565b60405180848152602001838152602001828152602001935050505060405180910390f35b34801561075357600080fd5b50610788600480360381019080803573ffffffffffffffffffffffffffffffffffffffff1690602001909291905050506132d3565b60405180826000191660001916815260200191505060405180910390f35b3480156107b257600080fd5b50610831600480360381019080803573ffffffffffffffffffffffffffffffffffffffff1690602001909291908035906020019092919080359060200190929190803590602001909291908035906020019092919080351515906020019092919080351515906020019092919080359060200190929190505050613331565b6040518082815260200191505060405180910390f35b6060610851614d59565b600060128481548110151561086257fe5b90600052602060002090600c02016101a060405190810160405290816000820160009054906101000a900473ffffffffffffffffffffffffffffffffffffffff1673ffffffffffffffffffffffffffffffffffffffff1673ffffffffffffffffffffffffffffffffffffffff168152602001600182015481526020016002820160009054906101000a900473ffffffffffffffffffffffffffffffffffffffff1673ffffffffffffffffffffffffffffffffffffffff1673ffffffffffffffffffffffffffffffffffffffff1681526020016002820160149054906101000a900460ff16600481111561095157fe5b600481111561095c57fe5b815260200160038201548152602001600482015481526020016005820154815260200160068201548152602001600782015481526020016008820154815260200160098201548152602001600a8201548152602001600b820160009054906101000a900460ff16151515158152505091506000905060001515600e6000846040015173ffffffffffffffffffffffffffffffffffffffff1673ffffffffffffffffffffffffffffffffffffffff16815260200190815260200160002060009054906101000a900460ff1615151415610a3657816040015190505b8160000151826020015182846060015185608001518660a001518760c001518860e001518961010001518a61012001518b61014001518c61016001518d6101800151604051602001808e73ffffffffffffffffffffffffffffffffffffffff1673ffffffffffffffffffffffffffffffffffffffff166c010000000000000000000000000281526014018d81526020018c73ffffffffffffffffffffffffffffffffffffffff1673ffffffffffffffffffffffffffffffffffffffff166c010000000000000000000000000281526014018b6004811115610b1357fe5b60ff167f01000000000000000000000000000000000000000000000000000000000000000281526001018a815260200189815260200188815260200187815260200186815260200185815260200184815260200183815260200182151515157f01000000000000000000000000000000000000000000000000000000000000000281526001019d505050505050505050505050505060405160208183030381529060405292505050919050565b6000806000806000806000610c096040805190810160405280601981526020017f54776f4b65794d61696e7461696e6572735265676973747279000000000000008152506137a5565b9050600560009054906101000a900473ffffffffffffffffffffffffffffffffffffffff1673ffffffffffffffffffffffffffffffffffffffff163373ffffffffffffffffffffffffffffffffffffffff161480610d3957508073ffffffffffffffffffffffffffffffffffffffff1663cd2a81dc336040518263ffffffff167c0100000000000000000000000000000000000000000000000000000000028152600401808273ffffffffffffffffffffffffffffffffffffffff1673ffffffffffffffffffffffffffffffffffffffff168152602001915050602060405180830381600087803b158015610cfd57600080fd5b505af1158015610d11573d6000803e3d6000fd5b505050506040513d6020811015610d2757600080fd5b81019080805190602001909291905050505b80610e1657508073ffffffffffffffffffffffffffffffffffffffff16635cc7815c336040518263ffffffff167c0100000000000000000000000000000000000000000000000000000000028152600401808273ffffffffffffffffffffffffffffffffffffffff1673ffffffffffffffffffffffffffffffffffffffff168152602001915050602060405180830381600087803b158015610dda57600080fd5b505af1158015610dee573d6000803e3d6000fd5b505050506040513d6020811015610e0457600080fd5b81019080805190602001909291905050505b1515610e2157600080fd5b610e2a886138df565b6000965060009550600b60008973ffffffffffffffffffffffffffffffffffffffff1673ffffffffffffffffffffffffffffffffffffffff168152602001908152602001600020805490509450600093505b8484101561128457600b60008973ffffffffffffffffffffffffffffffffffffffff1673ffffffffffffffffffffffffffffffffffffffff16815260200190815260200160002084815481101515610ed057fe5b90600052602060002001549250601283815481101515610eec57fe5b90600052602060002090600c0201915060006004811115610f0957fe5b8260020160149054906101000a900460ff166004811115610f2657fe5b1480610f59575060016004811115610f3a57fe5b8260020160149054906101000a900460ff166004811115610f5757fe5b145b156112775760006004811115610f6b57fe5b8260020160149054906101000a900460ff166004811115610f8857fe5b1415610fdf57610fbc600160046000815481101515610fa357fe5b906000526020600020015461395c90919063ffffffff16565b60046000815481101515610fcc57fe5b906000526020600020018190555061102c565b61100d600160046001815481101515610ff457fe5b906000526020600020015461395c90919063ffffffff16565b6004600181548110151561101d57fe5b90600052602060002001819055505b61105a60016004600281548110151561104157fe5b906000526020600020015461397890919063ffffffff16565b6004600281548110151561106a57fe5b9060005260206000200181905550600760009054906101000a900473ffffffffffffffffffffffffffffffffffffffff1673ffffffffffffffffffffffffffffffffffffffff16634a7501bc89600560009054906101000a900473ffffffffffffffffffffffffffffffffffffffff16601360009054906101000a900473ffffffffffffffffffffffffffffffffffffffff166040518463ffffffff167c0100000000000000000000000000000000000000000000000000000000028152600401808473ffffffffffffffffffffffffffffffffffffffff1673ffffffffffffffffffffffffffffffffffffffff1681526020018373ffffffffffffffffffffffffffffffffffffffff1673ffffffffffffffffffffffffffffffffffffffff1681526020018273ffffffffffffffffffffffffffffffffffffffff1673ffffffffffffffffffffffffffffffffffffffff1681526020019350505050600060405180830381600087803b1580156111e157600080fd5b505af11580156111f5573d6000803e3d6000fd5b5050505060038260020160146101000a81548160ff0219169083600481111561121a57fe5b021790555061123a8260080154836007015461397890919063ffffffff16565b870196506000151582600b0160009054906101000a900460ff16151514156112765761127382600301548761397890919063ffffffff16565b95505b5b8380600101945050610e7c565b6000871180156112945750600086115b1561142057601360009054906101000a900473ffffffffffffffffffffffffffffffffffffffff1673ffffffffffffffffffffffffffffffffffffffff16639217d386886040518263ffffffff167c010000000000000000000000000000000000000000000000000000000002815260040180828152602001915050600060405180830381600087803b15801561132a57600080fd5b505af115801561133e573d6000803e3d6000fd5b50505050601360009054906101000a900473ffffffffffffffffffffffffffffffffffffffff1673ffffffffffffffffffffffffffffffffffffffff1663b5ce6b7889886040518363ffffffff167c0100000000000000000000000000000000000000000000000000000000028152600401808373ffffffffffffffffffffffffffffffffffffffff1673ffffffffffffffffffffffffffffffffffffffff16815260200182815260200192505050600060405180830381600087803b15801561140757600080fd5b505af115801561141b573d6000803e3d6000fd5b505050505b61144c601360009054906101000a900473ffffffffffffffffffffffffffffffffffffffff1689613997565b5050505050505050565b600080600060128481548110151561146a57fe5b90600052602060002090600c020192506114958360080154846007015461397890919063ffffffff16565b9150600260038111156114a457fe5b600c60008560020160009054906101000a900473ffffffffffffffffffffffffffffffffffffffff1673ffffffffffffffffffffffffffffffffffffffff1673ffffffffffffffffffffffffffffffffffffffff16815260200190815260200160002060009054906101000a900460ff16600381111561152057fe5b14151561152c57600080fd5b6001151583600b0160009054906101000a900460ff16151514156117c457601160009054906101000a900460ff16156115b05761158d60016004600181548110151561157457fe5b906000526020600020015461395c90919063ffffffff16565b6004600181548110151561159d57fe5b906000526020600020018190555061168f565b600060048111156115bd57fe5b8360020160149054906101000a900460ff1660048111156115da57fe5b1415156115e657600080fd5b600560009054906101000a900473ffffffffffffffffffffffffffffffffffffffff1673ffffffffffffffffffffffffffffffffffffffff163373ffffffffffffffffffffffffffffffffffffffff1614151561164257600080fd5b61167060016004600081548110151561165757fe5b906000526020600020015461395c90919063ffffffff16565b6004600081548110151561168057fe5b90600052602060002001819055505b6116c08360030154600460098154811015156116a757fe5b906000526020600020015461397890919063ffffffff16565b600460098154811015156116d057fe5b90600052602060002001819055506117588360030154601560008660020160009054906101000a900473ffffffffffffffffffffffffffffffffffffffff1673ffffffffffffffffffffffffffffffffffffffff1673ffffffffffffffffffffffffffffffffffffffff1681526020019081526020016000205461397890919063ffffffff16565b601560008560020160009054906101000a900473ffffffffffffffffffffffffffffffffffffffff1673ffffffffffffffffffffffffffffffffffffffff1673ffffffffffffffffffffffffffffffffffffffff16815260200190815260200160002081905550611928565b600160048111156117d157fe5b8360020160149054906101000a900460ff1660048111156117ee57fe5b1415156117fa57600080fd5b6118748360030154600960008660020160009054906101000a900473ffffffffffffffffffffffffffffffffffffffff1673ffffffffffffffffffffffffffffffffffffffff1673ffffffffffffffffffffffffffffffffffffffff1681526020019081526020016000205461397890919063ffffffff16565b600960008560020160009054906101000a900473ffffffffffffffffffffffffffffffffffffffff1673ffffffffffffffffffffffffffffffffffffffff1673ffffffffffffffffffffffffffffffffffffffff168152602001908152602001600020819055506119096001600460018154811015156118f057fe5b906000526020600020015461395c90919063ffffffff16565b6004600181548110151561191957fe5b90600052602060002001819055505b6119b883600801546119aa8560070154601660008860020160009054906101000a900473ffffffffffffffffffffffffffffffffffffffff1673ffffffffffffffffffffffffffffffffffffffff1673ffffffffffffffffffffffffffffffffffffffff1681526020019081526020016000205461397890919063ffffffff16565b61397890919063ffffffff16565b601660008560020160009054906101000a900473ffffffffffffffffffffffffffffffffffffffff1673ffffffffffffffffffffffffffffffffffffffff1673ffffffffffffffffffffffffffffffffffffffff1681526020019081526020016000208190555060009050601360009054906101000a900473ffffffffffffffffffffffffffffffffffffffff1673ffffffffffffffffffffffffffffffffffffffff16634969281084600401548560020160009054906101000a900473ffffffffffffffffffffffffffffffffffffffff168787600b0160009054906101000a900460ff166040518563ffffffff167c0100000000000000000000000000000000000000000000000000000000028152600401808581526020018473ffffffffffffffffffffffffffffffffffffffff1673ffffffffffffffffffffffffffffffffffffffff16815260200183815260200182151515158152602001945050505050602060405180830381600087803b158015611b3557600080fd5b505af1158015611b49573d6000803e3d6000fd5b505050506040513d6020811015611b5f57600080fd5b81019080805190602001909291905050509050600760009054906101000a900473ffffffffffffffffffffffffffffffffffffffff1673ffffffffffffffffffffffffffffffffffffffff16630c34a68f8460020160009054906101000a900473ffffffffffffffffffffffffffffffffffffffff16600560009054906101000a900473ffffffffffffffffffffffffffffffffffffffff16601360009054906101000a900473ffffffffffffffffffffffffffffffffffffffff166040518463ffffffff167c0100000000000000000000000000000000000000000000000000000000028152600401808473ffffffffffffffffffffffffffffffffffffffff1673ffffffffffffffffffffffffffffffffffffffff1681526020018373ffffffffffffffffffffffffffffffffffffffff1673ffffffffffffffffffffffffffffffffffffffff1681526020018273ffffffffffffffffffffffffffffffffffffffff1673ffffffffffffffffffffffffffffffffffffffff1681526020019350505050600060405180830381600087803b158015611cff57600080fd5b505af1158015611d13573d6000803e3d6000fd5b50505050611d448160046008815481101515611d2b57fe5b906000526020600020015461397890919063ffffffff16565b60046008815481101515611d5457fe5b9060005260206000200181905550601360009054906101000a900473ffffffffffffffffffffffffffffffffffffffff1673ffffffffffffffffffffffffffffffffffffffff16639217d386836040518263ffffffff167c010000000000000000000000000000000000000000000000000000000002815260040180828152602001915050600060405180830381600087803b158015611df357600080fd5b505af1158015611e07573d6000803e3d6000fd5b505050506000151583600b0160009054906101000a900460ff1615151415611fd357601360009054906101000a900473ffffffffffffffffffffffffffffffffffffffff1673ffffffffffffffffffffffffffffffffffffffff16638cb9bbd884600601546040518263ffffffff167c010000000000000000000000000000000000000000000000000000000002815260040180828152602001915050600060405180830381600087803b158015611ebe57600080fd5b505af1158015611ed2573d6000803e3d6000fd5b50505050601360009054906101000a900473ffffffffffffffffffffffffffffffffffffffff1673ffffffffffffffffffffffffffffffffffffffff16634eca80c684600101546040518263ffffffff167c010000000000000000000000000000000000000000000000000000000002815260040180828152602001915050600060405180830381600087803b158015611f6b57600080fd5b505af1158015611f7f573d6000803e3d6000fd5b50505050611fb4836003015460046006815481101515611f9b57fe5b906000526020600020015461397890919063ffffffff16565b60046006815481101515611fc457fe5b90600052602060002001819055505b60001515600f60008560020160009054906101000a900473ffffffffffffffffffffffffffffffffffffffff1673ffffffffffffffffffffffffffffffffffffffff1673ffffffffffffffffffffffffffffffffffffffff16815260200190815260200160002060009054906101000a900460ff16151514156121195761207e60016004600581548110151561206557fe5b906000526020600020015461397890919063ffffffff16565b6004600581548110151561208e57fe5b90600052602060002001819055506001600f60008560020160009054906101000a900473ffffffffffffffffffffffffffffffffffffffff1673ffffffffffffffffffffffffffffffffffffffff1673ffffffffffffffffffffffffffffffffffffffff16815260200190815260200160002060006101000a81548160ff0219169083151502179055505b601460009054906101000a900473ffffffffffffffffffffffffffffffffffffffff1673ffffffffffffffffffffffffffffffffffffffff1663b56374c384600701548560080154878760020160009054906101000a900473ffffffffffffffffffffffffffffffffffffffff166040518563ffffffff167c0100000000000000000000000000000000000000000000000000000000028152600401808581526020018481526020018381526020018273ffffffffffffffffffffffffffffffffffffffff1673ffffffffffffffffffffffffffffffffffffffff168152602001945050505050600060405180830381600087803b15801561221a57600080fd5b505af115801561222e573d6000803e3d6000fd5b50505050601360009054906101000a900473ffffffffffffffffffffffffffffffffffffffff1673ffffffffffffffffffffffffffffffffffffffff1663991bbd41601460009054906101000a900473ffffffffffffffffffffffffffffffffffffffff16846040518363ffffffff167c0100000000000000000000000000000000000000000000000000000000028152600401808373ffffffffffffffffffffffffffffffffffffffff1673ffffffffffffffffffffffffffffffffffffffff16815260200182815260200192505050600060405180830381600087803b15801561231957600080fd5b505af115801561232d573d6000803e3d6000fd5b5050505061237160106000868152602001908152602001600020546004600a81548110151561235857fe5b906000526020600020015461397890919063ffffffff16565b6004600a81548110151561238157fe5b906000526020600020018190555080836005018190555060028360020160146101000a81548160ff021916908360048111156123b957fe5b02179055506123ec6001600460038154811015156123d357fe5b906000526020600020015461397890919063ffffffff16565b600460038154811015156123fc57fe5b9060005260206000200181905550612437826004600781548110151561241e57fe5b906000526020600020015461397890919063ffffffff16565b6004600781548110151561244757fe5b906000526020600020018190555061249e8360020160009054906101000a900473ffffffffffffffffffffffffffffffffffffffff16856124998660080154876007015461397890919063ffffffff16565b613bbd565b50505050565b601460009054906101000a900473ffffffffffffffffffffffffffffffffffffffff1681565b60001515600260009054906101000a900460ff1615151415156124ec57600080fd5b600b60405190808252806020026020018201604052801561251c5781602001602082028038833980820191505090505b5060049080519060200190612532929190614dfb565b5085600081518110151561254257fe5b90602001906020020151600181905550600186600181518110151561256357fe5b90602001906020020151141561258f576001601160006101000a81548160ff0219169083151502179055505b60018660088151811015156125a057fe5b9060200190602002015114156125cc576001601760006101000a81548160ff0219169083151502179055505b83601460006101000a81548173ffffffffffffffffffffffffffffffffffffffff021916908373ffffffffffffffffffffffffffffffffffffffff16021790555084601360006101000a81548173ffffffffffffffffffffffffffffffffffffffff021916908373ffffffffffffffffffffffffffffffffffffffff16021790555080600860006101000a81548173ffffffffffffffffffffffffffffffffffffffff021916908373ffffffffffffffffffffffffffffffffffffffff16021790555082600560006101000a81548173ffffffffffffffffffffffffffffffffffffffff021916908373ffffffffffffffffffffffffffffffffffffffff16021790555081601760016101000a81548173ffffffffffffffffffffffffffffffffffffffff021916908373ffffffffffffffffffffffffffffffffffffffff16021790555061274f6040805190810160405280601181526020017f54776f4b65794576656e74536f757263650000000000000000000000000000008152506137a5565b600660006101000a81548173ffffffffffffffffffffffffffffffffffffffff021916908373ffffffffffffffffffffffffffffffffffffffff1602179055506127cd6040805190810160405280601c81526020017f54776f4b65794261736552657075746174696f6e5265676973747279000000008152506137a5565b600760006101000a81548173ffffffffffffffffffffffffffffffffffffffff021916908373ffffffffffffffffffffffffffffffffffffffff1602179055506001600260006101000a81548160ff021916908315150217905550505050505050565b60008060128381548110151561284257fe5b90600052602060002090600c020191504282600a015410151561286457600080fd5b8160020160009054906101000a900473ffffffffffffffffffffffffffffffffffffffff1673ffffffffffffffffffffffffffffffffffffffff163373ffffffffffffffffffffffffffffffffffffffff161415156128c257600080fd5b600060048111156128cf57fe5b8260020160149054906101000a900460ff1660048111156128ec57fe5b14156129435761292060016004600081548110151561290757fe5b906000526020600020015461395c90919063ffffffff16565b6004600081548110151561293057fe5b90600052602060002001819055506129ca565b6001600481111561295057fe5b8260020160149054906101000a900460ff16600481111561296d57fe5b14156129c4576129a160016004600181548110151561298857fe5b906000526020600020015461395c90919063ffffffff16565b600460018154811015156129b157fe5b90600052602060002001819055506129c9565b600080fd5b5b6129f760016004808154811015156129de57fe5b906000526020600020015461397890919063ffffffff16565b600480815481101515612a0657fe5b906000526020600020018190555060048260020160146101000a81548160ff02191690836004811115612a3557fe5b0217905550612a558260080154836007015461397890919063ffffffff16565b9050601360009054906101000a900473ffffffffffffffffffffffffffffffffffffffff1673ffffffffffffffffffffffffffffffffffffffff16639217d386826040518263ffffffff167c010000000000000000000000000000000000000000000000000000000002815260040180828152602001915050600060405180830381600087803b158015612ae857600080fd5b505af1158015612afc573d6000803e3d6000fd5b50505050601360009054906101000a900473ffffffffffffffffffffffffffffffffffffffff1673ffffffffffffffffffffffffffffffffffffffff1663b5ce6b783384600301546040518363ffffffff167c0100000000000000000000000000000000000000000000000000000000028152600401808373ffffffffffffffffffffffffffffffffffffffff1673ffffffffffffffffffffffffffffffffffffffff16815260200182815260200192505050600060405180830381600087803b158015612bc957600080fd5b505af1158015612bdd573d6000803e3d6000fd5b50505050505050565b6060600a60008360001916600019168152602001908152602001600020805480602002602001604051908101604052809291908181526020018280548015612c8357602002820191906000526020600020905b8160009054906101000a900473ffffffffffffffffffffffffffffffffffffffff1673ffffffffffffffffffffffffffffffffffffffff1681526020019060010190808311612c39575b50505050509050919050565b601160009054906101000a900460ff1681565b60008060009054906101000a900473ffffffffffffffffffffffffffffffffffffffff16905090565b6000600354905090565b600d6020528060005260406000206000915090505481565b6060600b60008373ffffffffffffffffffffffffffffffffffffffff1673ffffffffffffffffffffffffffffffffffffffff168152602001908152602001600020805480602002602001604051908101604052809291908181526020018280548015612d7857602002820191906000526020600020905b815481526020019060010190808311612d64575b50505050509050919050565b6000612dc46040805190810160405280601981526020017f54776f4b65794d61696e7461696e6572735265676973747279000000000000008152506137a5565b9050600560009054906101000a900473ffffffffffffffffffffffffffffffffffffffff1673ffffffffffffffffffffffffffffffffffffffff163373ffffffffffffffffffffffffffffffffffffffff161480612ef457508073ffffffffffffffffffffffffffffffffffffffff1663cd2a81dc336040518263ffffffff167c0100000000000000000000000000000000000000000000000000000000028152600401808273ffffffffffffffffffffffffffffffffffffffff1673ffffffffffffffffffffffffffffffffffffffff168152602001915050602060405180830381600087803b158015612eb857600080fd5b505af1158015612ecc573d6000803e3d6000fd5b505050506040513d6020811015612ee257600080fd5b81019080805190602001909291905050505b80612fd157508073ffffffffffffffffffffffffffffffffffffffff16635cc7815c336040518263ffffffff167c0100000000000000000000000000000000000000000000000000000000028152600401808273ffffffffffffffffffffffffffffffffffffffff1673ffffffffffffffffffffffffffffffffffffffff168152602001915050602060405180830381600087803b158015612f9557600080fd5b505af1158015612fa9573d6000803e3d6000fd5b505050506040513d6020811015612fbf57600080fd5b81019080805190602001909291905050505b1515612fdc57600080fd5b60016003811115612fe957fe5b600c60008473ffffffffffffffffffffffffffffffffffffffff1673ffffffffffffffffffffffffffffffffffffffff16815260200190815260200160002060009054906101000a900460ff16600381111561304157fe5b14151561304d57600080fd5b61305682613df4565b5050565b6000600b60008373ffffffffffffffffffffffffffffffffffffffff1673ffffffffffffffffffffffffffffffffffffffff1681526020019081526020016000206001600b60008573ffffffffffffffffffffffffffffffffffffffff1673ffffffffffffffffffffffffffffffffffffffff16815260200190815260200160002080549050038154811015156130ed57fe5b90600052602060002001549050919050565b600080600060606000806000806000806131196001613e88565b95506131256002613e88565b94506131316003613e88565b9350600a60008760001916600019168152602001908152602001600020805490509250600a60008660001916600019168152602001908152602001600020805490509150600a600085600019166000191681526020019081526020016000208054905090508282826004808054806020026020016040519081016040528092919081815260200182805480156131e657602002820191906000526020600020905b8154815260200190600101908083116131d2575b50505050509050995099509950995050505050505090919293565b6000806000600960008573ffffffffffffffffffffffffffffffffffffffff1673ffffffffffffffffffffffffffffffffffffffff16815260200190815260200160002054601560008673ffffffffffffffffffffffffffffffffffffffff1673ffffffffffffffffffffffffffffffffffffffff16815260200190815260200160002054601660008773ffffffffffffffffffffffffffffffffffffffff1673ffffffffffffffffffffffffffffffffffffffff168152602001908152602001600020549250925092509193909250565b600061332a600c60008473ffffffffffffffffffffffffffffffffffffffff1673ffffffffffffffffffffffffffffffffffffffff16815260200190815260200160002060009054906101000a900460ff16613e88565b9050919050565b60008060008061333f614d59565b601360009054906101000a900473ffffffffffffffffffffffffffffffffffffffff1673ffffffffffffffffffffffffffffffffffffffff163373ffffffffffffffffffffffffffffffffffffffff1614151561339b57600080fd5b6133b48d601760009054906101000a900460ff16613fab565b86600e60008f73ffffffffffffffffffffffffffffffffffffffff1673ffffffffffffffffffffffffffffffffffffffff16815260200190815260200160002060006101000a81548160ff021916908315150217905550600093508b925061341b88614415565b915060001515881515141561345d576134338c61453f565b935061345a61344b858d61397890919063ffffffff16565b8d61395c90919063ffffffff16565b92505b6101a060405190810160405280600560009054906101000a900473ffffffffffffffffffffffffffffffffffffffff1673ffffffffffffffffffffffffffffffffffffffff1681526020018481526020018e73ffffffffffffffffffffffffffffffffffffffff1681526020018360048111156134d657fe5b81526020018d81526020018c8152602001600081526020018581526020018b81526020018a815260200142815260200161352f613520610e1060015461463390919063ffffffff16565b4261397890919063ffffffff16565b815260200189151581525090506012819080600181540180825580915050906001820390600052602060002090600c02016000909192909190915060008201518160000160006101000a81548173ffffffffffffffffffffffffffffffffffffffff021916908373ffffffffffffffffffffffffffffffffffffffff1602179055506020820151816001015560408201518160020160006101000a81548173ffffffffffffffffffffffffffffffffffffffff021916908373ffffffffffffffffffffffffffffffffffffffff16021790555060608201518160020160146101000a81548160ff0219169083600481111561362657fe5b02179055506080820151816003015560a0820151816004015560c0820151816005015560e0820151816006015561010082015181600701556101208201518160080155610140820151816009015561016082015181600a015561018082015181600b0160006101000a81548160ff021916908315150217905550505050600b60008e73ffffffffffffffffffffffffffffffffffffffff1673ffffffffffffffffffffffffffffffffffffffff168152602001908152602001600020600354908060018154018082558091505090600182039060005260206000200160009091929091909150555085601060006003548152602001908152602001600020819055506137388d8b8b8f8c60035461466e565b7f56f2a80b3bb17fa71f15d08d5a8dd990f5ee7aaefcfda4e2651cf27432fdaf7b6003546040518082815260200191505060405180910390a1613787600160035461397890919063ffffffff16565b60038190555060016003540394505050505098975050505050505050565b6000600860009054906101000a900473ffffffffffffffffffffffffffffffffffffffff1673ffffffffffffffffffffffffffffffffffffffff1663db7a6d90836040518263ffffffff167c01000000000000000000000000000000000000000000000000000000000281526004018080602001828103825283818151815260200191508051906020019080838360005b83811015613851578082015181840152602081019050613836565b50505050905090810190601f16801561387e5780820380516001836020036101000a031916815260200191505b5092505050602060405180830381600087803b15801561389d57600080fd5b505af11580156138b1573d6000803e3d6000fd5b505050506040513d60208110156138c757600080fd5b81019080805190602001909291905050509050919050565b600160038111156138ec57fe5b600c60008373ffffffffffffffffffffffffffffffffffffffff1673ffffffffffffffffffffffffffffffffffffffff16815260200190815260200160002060009054906101000a900460ff16600381111561394457fe5b14151561395057600080fd5b613959816148c4565b50565b600082821115151561396d57600080fd5b818303905092915050565b6000818301905082811015151561398e57600080fd5b80905092915050565b600660009054906101000a900473ffffffffffffffffffffffffffffffffffffffff1673ffffffffffffffffffffffffffffffffffffffff1663d2097037601360009054906101000a900473ffffffffffffffffffffffffffffffffffffffff16600660009054906101000a900473ffffffffffffffffffffffffffffffffffffffff1673ffffffffffffffffffffffffffffffffffffffff16631a025f25856040518263ffffffff167c0100000000000000000000000000000000000000000000000000000000028152600401808273ffffffffffffffffffffffffffffffffffffffff1673ffffffffffffffffffffffffffffffffffffffff168152602001915050602060405180830381600087803b158015613ab557600080fd5b505af1158015613ac9573d6000803e3d6000fd5b505050506040513d6020811015613adf57600080fd5b81019080805190602001909291905050506040518363ffffffff167c0100000000000000000000000000000000000000000000000000000000028152600401808373ffffffffffffffffffffffffffffffffffffffff1673ffffffffffffffffffffffffffffffffffffffff1681526020018273ffffffffffffffffffffffffffffffffffffffff1673ffffffffffffffffffffffffffffffffffffffff16815260200192505050600060405180830381600087803b158015613ba157600080fd5b505af1158015613bb5573d6000803e3d6000fd5b505050505050565b600660009054906101000a900473ffffffffffffffffffffffffffffffffffffffff1673ffffffffffffffffffffffffffffffffffffffff166319de3640601360009054906101000a900473ffffffffffffffffffffffffffffffffffffffff16600660009054906101000a900473ffffffffffffffffffffffffffffffffffffffff1673ffffffffffffffffffffffffffffffffffffffff16631a025f25876040518263ffffffff167c0100000000000000000000000000000000000000000000000000000000028152600401808273ffffffffffffffffffffffffffffffffffffffff1673ffffffffffffffffffffffffffffffffffffffff168152602001915050602060405180830381600087803b158015613cdb57600080fd5b505af1158015613cef573d6000803e3d6000fd5b505050506040513d6020811015613d0557600080fd5b810190808051906020019092919050505085856040518563ffffffff167c0100000000000000000000000000000000000000000000000000000000028152600401808573ffffffffffffffffffffffffffffffffffffffff1673ffffffffffffffffffffffffffffffffffffffff1681526020018473ffffffffffffffffffffffffffffffffffffffff1673ffffffffffffffffffffffffffffffffffffffff168152602001838152602001828152602001945050505050600060405180830381600087803b158015613dd757600080fd5b505af1158015613deb573d6000803e3d6000fd5b50505050505050565b60007f415050524f5645440000000000000000000000000000000000000000000000009050613e238282614958565b6002600c60008473ffffffffffffffffffffffffffffffffffffffff1673ffffffffffffffffffffffffffffffffffffffff16815260200190815260200160002060006101000a81548160ff02191690836003811115613e7f57fe5b02179055505050565b6000816003811115613e9657fe5b60006003811115613ea357fe5b1415613ed1577f4e4f545f4558495354494e4700000000000000000000000000000000000000009050613fa6565b816003811115613edd57fe5b60016003811115613eea57fe5b1415613f18577f50454e44494e475f415050524f56414c000000000000000000000000000000009050613fa6565b816003811115613f2457fe5b60026003811115613f3157fe5b1415613f5f577f415050524f5645440000000000000000000000000000000000000000000000009050613fa6565b816003811115613f6b57fe5b600380811115613f7757fe5b1415613fa5577f52454a45435445440000000000000000000000000000000000000000000000009050613fa6565b5b919050565b60011515811515141561421f57600380811115613fc457fe5b600c60008473ffffffffffffffffffffffffffffffffffffffff1673ffffffffffffffffffffffffffffffffffffffff16815260200190815260200160002060009054906101000a900460ff16600381111561401c57fe5b1415151561402957600080fd5b6000600381111561403657fe5b600c60008473ffffffffffffffffffffffffffffffffffffffff1673ffffffffffffffffffffffffffffffffffffffff16815260200190815260200160002060009054906101000a900460ff16600381111561408e57fe5b141561421a576001600c60008473ffffffffffffffffffffffffffffffffffffffff1673ffffffffffffffffffffffffffffffffffffffff16815260200190815260200160002060006101000a81548160ff021916908360038111156140f057fe5b0217905550600a60007f50454e44494e475f415050524f56414c00000000000000000000000000000000600019166000191681526020019081526020016000208290806001815401808255809150509060018203906000526020600020016000909192909190916101000a81548173ffffffffffffffffffffffffffffffffffffffff021916908373ffffffffffffffffffffffffffffffffffffffff160217905550506001600a60007f50454e44494e475f415050524f56414c00000000000000000000000000000000600019166000191681526020019081526020016000208054905003600d60008473ffffffffffffffffffffffffffffffffffffffff1673ffffffffffffffffffffffffffffffffffffffff168152602001908152602001600020819055505b614411565b6000600381111561422c57fe5b600c60008473ffffffffffffffffffffffffffffffffffffffff1673ffffffffffffffffffffffffffffffffffffffff16815260200190815260200160002060009054906101000a900460ff16600381111561428457fe5b1415614410576002600c60008473ffffffffffffffffffffffffffffffffffffffff1673ffffffffffffffffffffffffffffffffffffffff16815260200190815260200160002060006101000a81548160ff021916908360038111156142e657fe5b0217905550600a60007f415050524f564544000000000000000000000000000000000000000000000000600019166000191681526020019081526020016000208290806001815401808255809150509060018203906000526020600020016000909192909190916101000a81548173ffffffffffffffffffffffffffffffffffffffff021916908373ffffffffffffffffffffffffffffffffffffffff160217905550506001600a60007f415050524f564544000000000000000000000000000000000000000000000000600019166000191681526020019081526020016000208054905003600d60008473ffffffffffffffffffffffffffffffffffffffff1673ffffffffffffffffffffffffffffffffffffffff168152602001908152602001600020819055505b5b5050565b60008060001515831515141561447a576001905061445760016004600181548110151561443e57fe5b906000526020600020015461397890919063ffffffff16565b6004600181548110151561446757fe5b9060005260206000200181905550614536565b601160009054906101000a900460ff16156144e457600190506144c16001600460018154811015156144a857fe5b906000526020600020015461397890919063ffffffff16565b600460018154811015156144d157fe5b9060005260206000200181905550614535565b600090506145166001600460008154811015156144fd57fe5b906000526020600020015461397890919063ffffffff16565b6004600081548110151561452657fe5b90600052602060002001819055505b5b80915050919050565b600080614628606461461a600660009054906101000a900473ffffffffffffffffffffffffffffffffffffffff1673ffffffffffffffffffffffffffffffffffffffff16635211fb006040518163ffffffff167c0100000000000000000000000000000000000000000000000000000000028152600401602060405180830381600087803b1580156145d057600080fd5b505af11580156145e4573d6000803e3d6000fd5b505050506040513d60208110156145fa57600080fd5b81019080805190602001909291905050508661463390919063ffffffff16565b614d4390919063ffffffff16565b905080915050919050565b6000808314156146465760009050614668565b818302905081838281151561465757fe5b0414151561466457600080fd5b8090505b92915050565b600660009054906101000a900473ffffffffffffffffffffffffffffffffffffffff1673ffffffffffffffffffffffffffffffffffffffff166380520435601360009054906101000a900473ffffffffffffffffffffffffffffffffffffffff16600660009054906101000a900473ffffffffffffffffffffffffffffffffffffffff1673ffffffffffffffffffffffffffffffffffffffff16631a025f258a6040518263ffffffff167c0100000000000000000000000000000000000000000000000000000000028152600401808273ffffffffffffffffffffffffffffffffffffffff1673ffffffffffffffffffffffffffffffffffffffff168152602001915050602060405180830381600087803b15801561478c57600080fd5b505af11580156147a0573d6000803e3d6000fd5b505050506040513d60208110156147b657600080fd5b810190808051906020019092919050505088888888886040518863ffffffff167c0100000000000000000000000000000000000000000000000000000000028152600401808873ffffffffffffffffffffffffffffffffffffffff1673ffffffffffffffffffffffffffffffffffffffff1681526020018773ffffffffffffffffffffffffffffffffffffffff1673ffffffffffffffffffffffffffffffffffffffff16815260200186815260200185815260200184815260200183151515158152602001828152602001975050505050505050600060405180830381600087803b1580156148a457600080fd5b505af11580156148b8573d6000803e3d6000fd5b50505050505050505050565b60007f52454a454354454400000000000000000000000000000000000000000000000090506148f38282614958565b6003600c60008473ffffffffffffffffffffffffffffffffffffffff1673ffffffffffffffffffffffffffffffffffffffff16815260200190815260200160002060006101000a81548160ff0219169083600381111561494f57fe5b02179055505050565b6000806060600080600c60008873ffffffffffffffffffffffffffffffffffffffff1673ffffffffffffffffffffffffffffffffffffffff16815260200190815260200160002060009054906101000a900460ff1694506149b885613e88565b9350600a60008560001916600019168152602001908152602001600020805480602002602001604051908101604052809291908181526020018280548015614a5557602002820191906000526020600020905b8160009054906101000a900473ffffffffffffffffffffffffffffffffffffffff1673ffffffffffffffffffffffffffffffffffffffff1681526020019060010190808311614a0b575b50505050509250600d60008873ffffffffffffffffffffffffffffffffffffffff1673ffffffffffffffffffffffffffffffffffffffff1681526020019081526020016000205491508673ffffffffffffffffffffffffffffffffffffffff168383815181101515614ac357fe5b9060200190602002015173ffffffffffffffffffffffffffffffffffffffff161415614d3a57600a600087600019166000191681526020019081526020016000208790806001815401808255809150509060018203906000526020600020016000909192909190916101000a81548173ffffffffffffffffffffffffffffffffffffffff021916908373ffffffffffffffffffffffffffffffffffffffff160217905550506001600a600088600019166000191681526020019081526020016000208054905003600d60008973ffffffffffffffffffffffffffffffffffffffff1673ffffffffffffffffffffffffffffffffffffffff16815260200190815260200160002081905550826001845103815181101515614bdf57fe5b906020019060200201519050808383815181101515614bfa57fe5b9060200190602002019073ffffffffffffffffffffffffffffffffffffffff16908173ffffffffffffffffffffffffffffffffffffffff168152505081600d60008373ffffffffffffffffffffffffffffffffffffffff1673ffffffffffffffffffffffffffffffffffffffff16815260200190815260200160002081905550826001845103815181101515614c8c57fe5b906020019060200201600073ffffffffffffffffffffffffffffffffffffffff1681525082600a600086600019166000191681526020019081526020016000209080519060200190614cdf929190614e48565b50614d126001600a600087600019166000191681526020019081526020016000208054905061395c90919063ffffffff16565b600a6000866000191660001916815260200190815260200160002081614d389190614ed2565b505b50505050505050565b60008183811515614d5057fe5b04905092915050565b6101a060405190810160405280600073ffffffffffffffffffffffffffffffffffffffff16815260200160008152602001600073ffffffffffffffffffffffffffffffffffffffff16815260200160006004811115614db457fe5b815260200160008152602001600081526020016000815260200160008152602001600081526020016000815260200160008152602001600081526020016000151581525090565b828054828255906000526020600020908101928215614e37579160200282015b82811115614e36578251825591602001919060010190614e1b565b5b509050614e449190614efe565b5090565b828054828255906000526020600020908101928215614ec1579160200282015b82811115614ec05782518260006101000a81548173ffffffffffffffffffffffffffffffffffffffff021916908373ffffffffffffffffffffffffffffffffffffffff16021790555091602001919060010190614e68565b5b509050614ece9190614f23565b5090565b815481835581811115614ef957818360005260206000209182019101614ef89190614efe565b5b505050565b614f2091905b80821115614f1c576000816000905550600101614f04565b5090565b90565b614f6391905b80821115614f5f57600081816101000a81549073ffffffffffffffffffffffffffffffffffffffff021916905550600101614f29565b5090565b905600a165627a7a72305820e60cde7e2d26de69f7599ca7fd560e2b0e12f9062a93a68091412a84cef956f10029",
  "source": "pragma solidity ^0.4.24;\n\nimport \"../campaign-mutual-contracts/TwoKeyCampaignConversionHandler.sol\";\nimport \"../upgradable-pattern-campaigns/UpgradeableCampaign.sol\";\nimport \"../interfaces/ITwoKeyAcquisitionCampaignERC20.sol\";\nimport \"../interfaces/ITwoKeyBaseReputationRegistry.sol\";\nimport \"../interfaces/ITwoKeyPurchasesHandler.sol\";\n\n/**\n * @author Nikola Madjarevic\n */\ncontract TwoKeyConversionHandler is UpgradeableCampaign, TwoKeyCampaignConversionHandler {\n\n    bool public isFiatConversionAutomaticallyApproved;\n\n    Conversion[] conversions;\n    ITwoKeyAcquisitionCampaignERC20 twoKeyCampaign;\n    address public twoKeyPurchasesHandler;\n\n    mapping(address => uint256) private amountConverterSpentFiatWei; // Amount converter spent for Fiat conversions\n    mapping(address => uint256) private unitsConverterBought; // Number of units (ERC20 tokens) bought\n\n    bool isKYCRequired;\n    address assetContractERC20;\n\n\n    /// Structure which will represent conversion\n    struct Conversion {\n        address contractor; // Contractor (creator) of campaign\n        uint256 contractorProceedsETHWei; // How much contractor will receive for this conversion\n        address converter; // Converter is one who's buying tokens -> plasma address\n        ConversionState state;\n        uint256 conversionAmount; // Amount for conversion (In ETH / FIAT)\n        uint256 maxReferralRewardETHWei; // Total referral reward for the conversion\n        uint256 maxReferralReward2key;\n        uint256 moderatorFeeETHWei;\n        uint256 baseTokenUnits;\n        uint256 bonusTokenUnits;\n        uint256 conversionCreatedAt; // When conversion is created\n        uint256 conversionExpiresAt; // When conversion expires\n        bool isConversionFiat;\n    }\n\n    function setInitialParamsConversionHandler(\n        uint [] values,\n        address _twoKeyAcquisitionCampaignERC20,\n        address _twoKeyPurchasesHandler,\n        address _contractor,\n        address _assetContractERC20,\n        address _twoKeySingletonRegistry\n    )\n    public\n    {\n        require(isCampaignInitialized == false);\n        counters = new uint[](11);\n\n        expiryConversionInHours = values[0];\n\n        if(values[1] == 1) {\n            isFiatConversionAutomaticallyApproved = true;\n        }\n\n        if(values[8] == 1) {\n            isKYCRequired = true;\n        }\n\n        // Instance of interface\n        twoKeyPurchasesHandler = _twoKeyPurchasesHandler;\n        twoKeyCampaign = ITwoKeyAcquisitionCampaignERC20(_twoKeyAcquisitionCampaignERC20);\n\n        twoKeySingletonRegistry = _twoKeySingletonRegistry;\n        contractor = _contractor;\n        assetContractERC20 =_assetContractERC20;\n        twoKeyEventSource = getAddressFromTwoKeySingletonRegistry(\"TwoKeyEventSource\");\n        twoKeyBaseReputationRegistry = getAddressFromTwoKeySingletonRegistry(\"TwoKeyBaseReputationRegistry\");\n        isCampaignInitialized = true;\n    }\n\n\n\n    function emitExecutedEvent(\n        address _converterAddress,\n        uint conversionId,\n        uint tokens\n    )\n    internal\n    view\n    {\n        ITwoKeyEventSource(twoKeyEventSource).executedV1(\n            twoKeyCampaign,\n            ITwoKeyEventSource(twoKeyEventSource).plasmaOf(_converterAddress),\n            conversionId,\n            tokens\n        );\n    }\n\n    function emitRejectedEvent(\n        address _campaignAddress,\n        address _converterAddress\n    )\n    internal\n    view\n    {\n        ITwoKeyEventSource(twoKeyEventSource).rejected(\n            twoKeyCampaign,\n            ITwoKeyEventSource(twoKeyEventSource).plasmaOf(_converterAddress)\n        );\n    }\n\n    function emitConvertedEvent(\n        address converterAddress,\n        uint baseTokens,\n        uint bonusTokens,\n        uint conversionAmount,\n        bool isFiatConversion,\n        uint conversionId\n    )\n    internal\n    view\n    {\n        ITwoKeyEventSource(twoKeyEventSource).convertedAcquisitionV2(\n            twoKeyCampaign,\n            ITwoKeyEventSource(twoKeyEventSource).plasmaOf(converterAddress),\n            baseTokens,\n            bonusTokens,\n            conversionAmount,\n            isFiatConversion,\n            conversionId\n        );\n    }\n\n    function handleConversionState(\n        bool isConversionFiat\n    )\n    internal\n    returns (ConversionState)\n    {\n        ConversionState state;\n        if(isConversionFiat == false) {\n            state = ConversionState.APPROVED; // All eth conversions are auto approved\n            counters[1] = counters[1].add(1);\n        } else {\n            //This means fiat conversion is automatically approved\n            if(isFiatConversionAutomaticallyApproved) {\n                state = ConversionState.APPROVED;\n                counters[1] = counters[1].add(1); // Increase the number of approved conversions\n            } else {\n                state = ConversionState.PENDING_APPROVAL; // Fiat conversion state is PENDING_APPROVAL\n                counters[0] = counters[0].add(1); // If conversion is FIAT it will be always first pending and will have to be approved\n            }\n        }\n        return state;\n    }\n\n    /// @notice Support function to create conversion\n    /// @dev This function can only be called from TwoKeyAcquisitionCampaign contract address\n    /// @param _converterAddress is the address of the converter\n    /// @param _conversionAmount is the amount for conversion in ETH\n    function supportForCreateConversion(\n        address _converterAddress,\n        uint256 _conversionAmount,\n        uint256 _maxReferralRewardETHWei,\n        uint256 baseTokensForConverterUnits,\n        uint256 bonusTokensForConverterUnits,\n        bool isConversionFiat,\n        bool _isAnonymous,\n        uint conversionAmountCampaignCurrency\n    )\n    public\n    returns (uint)\n    {\n        require(msg.sender == address(twoKeyCampaign));\n\n        handleConverterState(_converterAddress, isKYCRequired);\n\n        // Set if converter want to be anonymous\n        isConverterAnonymous[_converterAddress] = _isAnonymous;\n\n        uint _moderatorFeeETHWei = 0;\n        uint256 _contractorProceeds = _conversionAmount; //In case of fiat conversion, this is going to be fiat value\n\n        ConversionState state = handleConversionState(isConversionFiat);\n\n        if(isConversionFiat == false) {\n            _moderatorFeeETHWei = calculateModeratorFee(_conversionAmount);\n            _contractorProceeds = _conversionAmount.sub(_maxReferralRewardETHWei.add(_moderatorFeeETHWei));\n        }\n\n\n        Conversion memory c = Conversion(contractor, _contractorProceeds, _converterAddress,\n            state ,_conversionAmount, _maxReferralRewardETHWei, 0, _moderatorFeeETHWei, baseTokensForConverterUnits,\n            bonusTokensForConverterUnits,\n            now, now.add(expiryConversionInHours.mul(1 hours)), isConversionFiat);\n\n        conversions.push(c);\n\n        converterToHisConversions[_converterAddress].push(numberOfConversions);\n\n        conversionToCampaignCurrencyAmountAtTimeOfCreation[numberOfConversions] = conversionAmountCampaignCurrency;\n\n        emitConvertedEvent(\n            _converterAddress,\n            baseTokensForConverterUnits,\n            bonusTokensForConverterUnits,\n            _conversionAmount,\n            isConversionFiat,\n            numberOfConversions\n        );\n\n        emit ConversionCreated(numberOfConversions);\n\n        numberOfConversions = numberOfConversions.add(1);\n\n        return numberOfConversions - 1;\n    }\n\n\n    /**\n     * @notice Function to perform all the logic which has to be done when we're performing conversion\n     * @param _conversionId is the id\n     */\n    function executeConversion(\n        uint _conversionId\n    )\n    public\n    {\n        Conversion conversion = conversions[_conversionId];\n\n        uint totalUnits = conversion.baseTokenUnits.add(conversion.bonusTokenUnits);\n\n        // Converter must be approved in all cases\n        require(converterToState[conversion.converter] == ConverterState.APPROVED);\n\n        if(conversion.isConversionFiat == true) {\n            if(isFiatConversionAutomaticallyApproved) {\n                counters[1] = counters[1].sub(1); // Decrease number of approved conversions\n            } else {\n                require(conversion.state == ConversionState.PENDING_APPROVAL);\n                require(msg.sender == contractor); // first check who calls this in order to save gas\n//                uint availableTokens = twoKeyAcquisitionCampaignERC20.getAvailableAndNonReservedTokensAmount();\n//                require(totalUnits < availableTokens);\n                //Sufficient because we reserve tokens at the time of creation, in case we bought all, we'll get 0 which will always throw\n                counters[0] = counters[0].sub(1); //Decrease number of pending conversions\n            }\n\n            //Update raised funds FIAT once the conversion is executed\n            counters[9] = counters[9].add(conversion.conversionAmount);\n\n            //Update amount converter spent in FIAT\n            amountConverterSpentFiatWei[conversion.converter] = amountConverterSpentFiatWei[conversion.converter].add(conversion.conversionAmount);\n        } else {\n            require(conversion.state == ConversionState.APPROVED);\n            amountConverterSpentEthWEI[conversion.converter] = amountConverterSpentEthWEI[conversion.converter].add(conversion.conversionAmount);\n            counters[1] = counters[1].sub(1); //Decrease number of approved conversions\n        }\n        //Update bought units\n        unitsConverterBought[conversion.converter] = unitsConverterBought[conversion.converter].add(conversion.baseTokenUnits).add(conversion.bonusTokenUnits);\n\n        // Total rewards for referrers\n        uint totalReward2keys = 0;\n\n        // Buy tokens from campaign and distribute rewards between referrers\n        totalReward2keys = twoKeyCampaign.buyTokensAndDistributeReferrerRewards(\n            conversion.maxReferralRewardETHWei,\n            conversion.converter,\n            _conversionId,\n            conversion.isConversionFiat\n        );\n\n        //Update reputation points in registry for conversion executed event\n        ITwoKeyBaseReputationRegistry(twoKeyBaseReputationRegistry).updateOnConversionExecutedEvent(\n            conversion.converter,\n            contractor,\n            twoKeyCampaign\n        );\n\n        // Add total rewards\n        counters[8] = counters[8].add(totalReward2keys);\n\n        // update reserved amount of tokens on acquisition contract\n        twoKeyCampaign.updateReservedAmountOfTokensIfConversionRejectedOrExecuted(totalUnits);\n\n        //Update total raised funds\n        if(conversion.isConversionFiat == false) {\n            // update moderator balances\n            twoKeyCampaign.buyTokensForModeratorRewards(conversion.moderatorFeeETHWei);\n            // update contractor proceeds\n            twoKeyCampaign.updateContractorProceeds(conversion.contractorProceedsETHWei);\n            // add conversion amount to counter\n            counters[6] = counters[6].add(conversion.conversionAmount);\n        }\n\n        if(doesConverterHaveExecutedConversions[conversion.converter] == false) {\n            counters[5] = counters[5].add(1); //increase number of unique converters\n            doesConverterHaveExecutedConversions[conversion.converter] = true;\n        }\n\n        ITwoKeyPurchasesHandler(twoKeyPurchasesHandler).startVesting(\n            conversion.baseTokenUnits,\n            conversion.bonusTokenUnits,\n            _conversionId,\n            conversion.converter\n        );\n\n        // Transfer tokens to lockup contract\n        twoKeyCampaign.moveFungibleAsset(address(twoKeyPurchasesHandler), totalUnits);\n        counters[10] = counters[10].add(conversionToCampaignCurrencyAmountAtTimeOfCreation[_conversionId]);\n        conversion.maxReferralReward2key = totalReward2keys;\n        conversion.state = ConversionState.EXECUTED;\n        counters[3] = counters[3].add(1); //Increase number of executed conversions\n        counters[7] = counters[7].add(totalUnits); //update sold tokens once conversion is executed\n\n        emitExecutedEvent(conversion.converter, _conversionId, conversion.baseTokenUnits.add(conversion.bonusTokenUnits));\n    }\n\n\n    /**\n     * @notice Function to get conversion details by id\n     * @param conversionId is the id of conversion\n     */\n    function getConversion(\n        uint conversionId\n    )\n    external\n    view\n    returns (bytes)\n    {\n        Conversion memory conversion = conversions[conversionId];\n        address empty = address(0);\n        if(isConverterAnonymous[conversion.converter] == false) {\n            empty = conversion.converter;\n        }\n        return abi.encodePacked (\n            conversion.contractor,\n            conversion.contractorProceedsETHWei,\n            empty,\n            conversion.state,\n            conversion.conversionAmount,\n            conversion.maxReferralRewardETHWei,\n            conversion.maxReferralReward2key,\n            conversion.moderatorFeeETHWei,\n            conversion.baseTokenUnits,\n            conversion.bonusTokenUnits,\n            conversion.conversionCreatedAt,\n            conversion.conversionExpiresAt,\n            conversion.isConversionFiat\n        );\n    }\n\n\n    /// @notice Function where we can reject converter\n    /// @dev only maintainer or contractor can call this function\n    /// @param _converter is the address of converter\n    function rejectConverter(\n        address _converter\n    )\n    public\n    onlyContractorOrMaintainer\n    {\n        rejectConverterInternal(_converter);\n        uint reservedAmount = 0;\n        uint refundAmount = 0;\n        uint len = converterToHisConversions[_converter].length;\n        for(uint i=0; i< len; i++) {\n            uint conversionId = converterToHisConversions[_converter][i];\n            Conversion c = conversions[conversionId];\n            if(c.state == ConversionState.PENDING_APPROVAL || c.state == ConversionState.APPROVED) {\n                if(c.state == ConversionState.PENDING_APPROVAL) {\n                    counters[0] = counters[0].sub(1); //Reduce number of pending conversions\n                } else {\n                    counters[1] = counters[1].sub(1); //Reduce number of approved conversions\n                }\n                counters[2] = counters[2].add(1); //Increase number of rejected conversions\n                ITwoKeyBaseReputationRegistry(twoKeyBaseReputationRegistry).updateOnConversionRejectedEvent(_converter, contractor, twoKeyCampaign);\n                c.state = ConversionState.REJECTED;\n                reservedAmount += c.baseTokenUnits.add(c.bonusTokenUnits);\n                if(c.isConversionFiat == false) {\n                    refundAmount = refundAmount.add(c.conversionAmount);\n                }\n            }\n        }\n        //If there's an amount to be returned and reserved tokens, update state and execute cashback\n        if(reservedAmount > 0 && refundAmount > 0) {\n            twoKeyCampaign.updateReservedAmountOfTokensIfConversionRejectedOrExecuted(reservedAmount);\n            twoKeyCampaign.sendBackEthWhenConversionCancelledOrRejected(_converter, refundAmount);\n        }\n\n        emitRejectedEvent(twoKeyCampaign, _converter);\n    }\n\n\n    /**\n     * @notice Function to cancel conversion and get back money\n     * @param _conversionId is the id of the conversion\n     * @dev returns all the funds to the converter back\n     */\n    function converterCancelConversion(\n        uint _conversionId\n    )\n    external\n    {\n        Conversion conversion = conversions[_conversionId];\n        require(conversion.conversionExpiresAt < block.timestamp);\n        require(msg.sender == conversion.converter);\n\n        if(conversion.state == ConversionState.PENDING_APPROVAL) {\n            counters[0] = counters[0].sub(1); // Reduce number of pending conversions\n        } else if (conversion.state == ConversionState.APPROVED) {\n            counters[1] = counters[1].sub(1); // Reduce number of approved conversions\n        } else {\n            revert(); // If conversion is not in either pending or approved state it can't be cancelled\n        }\n\n        counters[4] = counters[4].add(1); // Increase number of cancelled conversions\n\n        conversion.state = ConversionState.CANCELLED_BY_CONVERTER; //Modify conversion state\n\n        uint tokensToRefund = conversion.baseTokenUnits.add(conversion.bonusTokenUnits);\n\n        twoKeyCampaign.updateReservedAmountOfTokensIfConversionRejectedOrExecuted(tokensToRefund); //Update reserved amount of tokens\n        twoKeyCampaign.sendBackEthWhenConversionCancelledOrRejected(msg.sender, conversion.conversionAmount); // send back ether\n    }\n\n    /**\n     * @notice Function to fetch how much user spent money and bought units in total\n     * @param _converter is the converter we're checking this information for\n     */\n    function getConverterPurchasesStats(\n        address _converter\n    )\n    public\n    view\n    returns (uint,uint,uint)\n    {\n        return (\n            amountConverterSpentEthWEI[_converter],\n            amountConverterSpentFiatWei[_converter],\n            unitsConverterBought[_converter]\n        );\n    }\n\n\n}\n",
  "sourcePath": "/Users/nikolamadjarevic/Desktop/2key/contracts/contracts/2key/acquisition-campaign-contracts/TwoKeyConversionHandler.sol",
  "compiler": {
    "name": "solc",
    "version": "0.4.24+commit.e67f0147.Emscripten.clang"
  },
  "schemaVersion": "2.0.1",
  "updatedAt": "2019-11-07T08:14:37.787Z"
}