{
  "contractName": "TwoKeyAcquisitionCampaignERC20",
  "abi": [
    {
      "constant": true,
      "inputs": [],
      "name": "publicMetaHash",
      "outputs": [
        {
          "name": "",
          "type": "string"
        }
      ],
      "payable": false,
      "stateMutability": "view",
      "type": "function"
    },
    {
      "constant": true,
      "inputs": [],
      "name": "logicHandler",
      "outputs": [
        {
          "name": "",
          "type": "address"
        }
      ],
      "payable": false,
      "stateMutability": "view",
      "type": "function"
    },
    {
      "constant": false,
      "inputs": [
        {
          "name": "_newPublicMetaHash",
          "type": "string"
        }
      ],
      "name": "updateIpfsHashOfCampaign",
      "outputs": [],
      "payable": false,
      "stateMutability": "nonpayable",
      "type": "function"
    },
    {
      "constant": true,
      "inputs": [],
      "name": "totalSupply",
      "outputs": [
        {
          "name": "",
          "type": "uint256"
        }
      ],
      "payable": false,
      "stateMutability": "view",
      "type": "function"
    },
    {
      "constant": true,
      "inputs": [
        {
          "name": "",
          "type": "address"
        }
      ],
      "name": "public_link_key",
      "outputs": [
        {
          "name": "",
          "type": "address"
        }
      ],
      "payable": false,
      "stateMutability": "view",
      "type": "function"
    },
    {
      "constant": true,
      "inputs": [],
      "name": "moderator",
      "outputs": [
        {
          "name": "",
          "type": "address"
        }
      ],
      "payable": false,
      "stateMutability": "view",
      "type": "function"
    },
    {
      "constant": false,
      "inputs": [
        {
          "name": "_address",
          "type": "address"
        },
        {
          "name": "_withdrawAsStable",
          "type": "bool"
        }
      ],
      "name": "referrerWithdraw",
      "outputs": [],
      "payable": false,
      "stateMutability": "nonpayable",
      "type": "function"
    },
    {
      "constant": true,
      "inputs": [],
      "name": "privateMetaHash",
      "outputs": [
        {
          "name": "",
          "type": "string"
        }
      ],
      "payable": false,
      "stateMutability": "view",
      "type": "function"
    },
    {
      "constant": true,
      "inputs": [
        {
          "name": "_receiver",
          "type": "address"
        }
      ],
      "name": "getReceivedFrom",
      "outputs": [
        {
          "name": "",
          "type": "address"
        }
      ],
      "payable": false,
      "stateMutability": "view",
      "type": "function"
    },
    {
      "constant": true,
      "inputs": [],
      "name": "getModeratorTotalEarnings",
      "outputs": [
        {
          "name": "",
          "type": "uint256"
        }
      ],
      "payable": false,
      "stateMutability": "view",
      "type": "function"
    },
    {
      "constant": true,
      "inputs": [],
      "name": "implementation",
      "outputs": [
        {
          "name": "",
          "type": "address"
        }
      ],
      "payable": false,
      "stateMutability": "view",
      "type": "function"
    },
    {
      "constant": true,
      "inputs": [
        {
          "name": "me",
          "type": "address"
        }
      ],
      "name": "publicLinkKeyOf",
      "outputs": [
        {
          "name": "",
          "type": "address"
        }
      ],
      "payable": false,
      "stateMutability": "view",
      "type": "function"
    },
    {
      "constant": true,
      "inputs": [
        {
          "name": "_owner",
          "type": "address"
        }
      ],
      "name": "balanceOf",
      "outputs": [
        {
          "name": "",
          "type": "uint256"
        }
      ],
      "payable": false,
      "stateMutability": "view",
      "type": "function"
    },
    {
      "constant": true,
      "inputs": [],
      "name": "getConstantInfo",
      "outputs": [
        {
          "name": "",
          "type": "uint256"
        },
        {
          "name": "",
          "type": "uint256"
        },
        {
          "name": "",
          "type": "bool"
        }
      ],
      "payable": false,
      "stateMutability": "view",
      "type": "function"
    },
    {
      "constant": true,
      "inputs": [],
      "name": "getContractorBalanceAndTotalProceeds",
      "outputs": [
        {
          "name": "",
          "type": "uint256"
        },
        {
          "name": "",
          "type": "uint256"
        }
      ],
      "payable": false,
      "stateMutability": "view",
      "type": "function"
    },
    {
      "constant": true,
      "inputs": [
        {
          "name": "_influencer",
          "type": "address"
        }
      ],
      "name": "getReferrerPlasmaBalance",
      "outputs": [
        {
          "name": "",
          "type": "uint256"
        }
      ],
      "payable": false,
      "stateMutability": "view",
      "type": "function"
    },
    {
      "constant": true,
      "inputs": [],
      "name": "conversionHandler",
      "outputs": [
        {
          "name": "",
          "type": "address"
        }
      ],
      "payable": false,
      "stateMutability": "view",
      "type": "function"
    },
    {
      "constant": true,
      "inputs": [],
      "name": "usd2KEYrateWei",
      "outputs": [
        {
          "name": "",
          "type": "uint256"
        }
      ],
      "payable": false,
      "stateMutability": "view",
      "type": "function"
    },
    {
      "constant": false,
      "inputs": [
        {
          "name": "_cancelledConverter",
          "type": "address"
        },
        {
          "name": "_conversionAmount",
          "type": "uint256"
        }
      ],
      "name": "sendBackEthWhenConversionCancelledOrRejected",
      "outputs": [],
      "payable": false,
      "stateMutability": "nonpayable",
      "type": "function"
    },
    {
      "constant": false,
      "inputs": [
        {
          "name": "_publicMetaHash",
          "type": "string"
        },
        {
          "name": "_privateMetaHash",
          "type": "string"
        },
        {
          "name": "_publicKey",
          "type": "address"
        }
      ],
      "name": "startCampaignWithInitialParams",
      "outputs": [],
      "payable": false,
      "stateMutability": "nonpayable",
      "type": "function"
    },
    {
      "constant": false,
      "inputs": [
        {
          "name": "_influencer",
          "type": "address"
        },
        {
          "name": "_balance",
          "type": "uint256"
        }
      ],
      "name": "updateReferrerPlasmaBalance",
      "outputs": [],
      "payable": false,
      "stateMutability": "nonpayable",
      "type": "function"
    },
    {
      "constant": true,
      "inputs": [
        {
          "name": "me",
          "type": "address"
        }
      ],
      "name": "getReferrerCut",
      "outputs": [
        {
          "name": "",
          "type": "uint256"
        }
      ],
      "payable": false,
      "stateMutability": "view",
      "type": "function"
    },
    {
      "constant": true,
      "inputs": [],
      "name": "contractor",
      "outputs": [
        {
          "name": "",
          "type": "address"
        }
      ],
      "payable": false,
      "stateMutability": "view",
      "type": "function"
    },
    {
      "constant": false,
      "inputs": [
        {
          "name": "_twoKeySingletonesRegistry",
          "type": "address"
        },
        {
          "name": "_twoKeyAcquisitionLogicHandler",
          "type": "address"
        },
        {
          "name": "_conversionHandler",
          "type": "address"
        },
        {
          "name": "_moderator",
          "type": "address"
        },
        {
          "name": "_assetContractERC20",
          "type": "address"
        },
        {
          "name": "_contractor",
          "type": "address"
        },
        {
          "name": "values",
          "type": "uint256[]"
        }
      ],
      "name": "setInitialParamsCampaign",
      "outputs": [],
      "payable": false,
      "stateMutability": "nonpayable",
      "type": "function"
    },
    {
      "constant": false,
      "inputs": [],
      "name": "specifyFiatConversionRewards",
      "outputs": [],
      "payable": true,
      "stateMutability": "payable",
      "type": "function"
    },
    {
      "constant": false,
      "inputs": [
        {
          "name": "signature",
          "type": "bytes"
        },
        {
          "name": "receiver",
          "type": "address"
        }
      ],
      "name": "joinAndShareARC",
      "outputs": [],
      "payable": false,
      "stateMutability": "nonpayable",
      "type": "function"
    },
    {
      "constant": false,
      "inputs": [
        {
          "name": "signature",
          "type": "bytes"
        },
        {
          "name": "_isAnonymous",
          "type": "bool"
        }
      ],
      "name": "convert",
      "outputs": [],
      "payable": true,
      "stateMutability": "payable",
      "type": "function"
    },
    {
      "constant": false,
      "inputs": [
        {
          "name": "signature",
          "type": "bytes"
        },
        {
          "name": "_converter",
          "type": "address"
        },
        {
          "name": "conversionAmountFiatWei",
          "type": "uint256"
        },
        {
          "name": "_isAnonymous",
          "type": "bool"
        }
      ],
      "name": "convertFiat",
      "outputs": [],
      "payable": false,
      "stateMutability": "nonpayable",
      "type": "function"
    },
    {
      "constant": false,
      "inputs": [
        {
          "name": "_maxReferralRewardETHWei",
          "type": "uint256"
        },
        {
          "name": "_converter",
          "type": "address"
        },
        {
          "name": "_conversionId",
          "type": "uint256"
        },
        {
          "name": "_isConversionFiat",
          "type": "bool"
        }
      ],
      "name": "buyTokensAndDistributeReferrerRewards",
      "outputs": [
        {
          "name": "",
          "type": "uint256"
        }
      ],
      "payable": false,
      "stateMutability": "nonpayable",
      "type": "function"
    },
    {
      "constant": false,
      "inputs": [
        {
          "name": "moderatorFee",
          "type": "uint256"
        }
      ],
      "name": "buyTokensForModeratorRewards",
      "outputs": [],
      "payable": false,
      "stateMutability": "nonpayable",
      "type": "function"
    },
    {
      "constant": false,
      "inputs": [
        {
          "name": "_to",
          "type": "address"
        },
        {
          "name": "_amount",
          "type": "uint256"
        }
      ],
      "name": "moveFungibleAsset",
      "outputs": [],
      "payable": false,
      "stateMutability": "nonpayable",
      "type": "function"
    },
    {
      "constant": false,
      "inputs": [
        {
          "name": "value",
          "type": "uint256"
        }
      ],
      "name": "updateContractorProceeds",
      "outputs": [],
      "payable": false,
      "stateMutability": "nonpayable",
      "type": "function"
    },
    {
      "constant": false,
      "inputs": [
        {
          "name": "value",
          "type": "uint256"
        }
      ],
      "name": "updateReservedAmountOfTokensIfConversionRejectedOrExecuted",
      "outputs": [],
      "payable": false,
      "stateMutability": "nonpayable",
      "type": "function"
    },
    {
      "constant": true,
      "inputs": [],
      "name": "getInventoryStatus",
      "outputs": [
        {
          "name": "",
          "type": "uint256"
        },
        {
          "name": "",
          "type": "uint256"
        },
        {
          "name": "",
          "type": "uint256"
        },
        {
          "name": "",
          "type": "uint256"
        }
      ],
      "payable": false,
      "stateMutability": "view",
      "type": "function"
    },
    {
      "constant": true,
      "inputs": [
        {
          "name": "last_influencer",
          "type": "address"
        }
      ],
      "name": "getReferrerCuts",
      "outputs": [
        {
          "name": "",
          "type": "uint256[]"
        }
      ],
      "payable": false,
      "stateMutability": "view",
      "type": "function"
    },
    {
      "constant": true,
      "inputs": [],
      "name": "getAvailableAndNonReservedTokensAmount",
      "outputs": [
        {
          "name": "",
          "type": "uint256"
        }
      ],
      "payable": false,
      "stateMutability": "view",
      "type": "function"
    },
    {
      "constant": true,
      "inputs": [],
      "name": "getContractorBalance",
      "outputs": [
        {
          "name": "",
          "type": "uint256"
        }
      ],
      "payable": false,
      "stateMutability": "view",
      "type": "function"
    },
    {
      "constant": false,
      "inputs": [],
      "name": "withdrawContractor",
      "outputs": [],
      "payable": false,
      "stateMutability": "nonpayable",
      "type": "function"
    },
    {
      "constant": false,
      "inputs": [],
      "name": "withdrawUnsoldTokens",
      "outputs": [],
      "payable": false,
      "stateMutability": "nonpayable",
      "type": "function"
    }
  ],
  "bytecode": "0x6080604052620f424060015534801561001757600080fd5b50615db280620000286000396000f3006080604052600436106101e3576000357c0100000000000000000000000000000000000000000000000000000000900463ffffffff1680630566f64c146101e857806308c04306146102785780630fbf629d146102cf57806314f829e61461033857806318160ddd146103c1578063383d0d06146103ec578063387439041461046f5780633a56df51146104c65780633afa973a1461051557806349692810146105a55780634c070ced1461061c5780634e52acc71461069f5780634eca80c6146106b657806354cbb687146106e35780635c60da1b1461070e578063612e2880146107655780636d78aa5d146107e85780636e92b750146107f257806370a082311461088a57806371e53aad146108e157806371e6de281461091e578063788fac2d146109505780637981a7e0146109a75780637d24f03a146109fe57806389cbe21114610a295780638cb9bbd814610a545780639217d38614610a81578063991bbd4114610aae578063a5cb772d14610afb578063b2becc2114610b63578063b5ce6b7814610ba3578063c1ba46b714610bf0578063c680a85d14610cbf578063c8bdbfb614610de5578063cbd6a1ea14610dfc578063cf9d8ce714610e27578063d393409f14610e74578063ede89f6414610f13578063fbfd204514610f6a575b600080fd5b3480156101f457600080fd5b506101fd610fc1565b6040518080602001828103825283818151815260200191508051906020019080838360005b8381101561023d578082015181840152602081019050610222565b50505050905090810190601f16801561026a5780820380516001836020036101000a031916815260200191505b509250505060405180910390f35b34801561028457600080fd5b5061028d61105f565b604051808273ffffffffffffffffffffffffffffffffffffffff1673ffffffffffffffffffffffffffffffffffffffff16815260200191505060405180910390f35b3480156102db57600080fd5b50610336600480360381019080803590602001908201803590602001908080601f0160208091040260200160405190810160405280939291908181526020018383808284378201915050505050509192919290505050611085565b005b34801561034457600080fd5b506103bf600480360381019080803590602001908201803590602001908080601f0160208091040260200160405190810160405280939291908181526020018383808284378201915050505050509192919290803573ffffffffffffffffffffffffffffffffffffffff1690602001909291905050506110fb565b005b3480156103cd57600080fd5b506103d6611304565b6040518082815260200191505060405180910390f35b3480156103f857600080fd5b5061042d600480360381019080803573ffffffffffffffffffffffffffffffffffffffff16906020019092919050505061130e565b604051808273ffffffffffffffffffffffffffffffffffffffff1673ffffffffffffffffffffffffffffffffffffffff16815260200191505060405180910390f35b34801561047b57600080fd5b50610484611341565b604051808273ffffffffffffffffffffffffffffffffffffffff1673ffffffffffffffffffffffffffffffffffffffff16815260200191505060405180910390f35b3480156104d257600080fd5b50610513600480360381019080803573ffffffffffffffffffffffffffffffffffffffff169060200190929190803515159060200190929190505050611367565b005b34801561052157600080fd5b5061052a611b1c565b6040518080602001828103825283818151815260200191508051906020019080838360005b8381101561056a57808201518184015260208101905061054f565b50505050905090810190601f1680156105975780820380516001836020036101000a031916815260200191505b509250505060405180910390f35b3480156105b157600080fd5b5061060660048036038101908080359060200190929190803573ffffffffffffffffffffffffffffffffffffffff16906020019092919080359060200190929190803515159060200190929190505050611bba565b6040518082815260200191505060405180910390f35b34801561062857600080fd5b5061065d600480360381019080803573ffffffffffffffffffffffffffffffffffffffff169060200190929190505050611d95565b604051808273ffffffffffffffffffffffffffffffffffffffff1673ffffffffffffffffffffffffffffffffffffffff16815260200191505060405180910390f35b3480156106ab57600080fd5b506106b4611dfe565b005b3480156106c257600080fd5b506106e160048036038101908080359060200190929190505050611e64565b005b3480156106ef57600080fd5b506106f8611ef9565b6040518082815260200191505060405180910390f35b34801561071a57600080fd5b50610723611f03565b604051808273ffffffffffffffffffffffffffffffffffffffff1673ffffffffffffffffffffffffffffffffffffffff16815260200191505060405180910390f35b34801561077157600080fd5b506107a6600480360381019080803573ffffffffffffffffffffffffffffffffffffffff169060200190929190505050611f2c565b604051808273ffffffffffffffffffffffffffffffffffffffff1673ffffffffffffffffffffffffffffffffffffffff16815260200191505060405180910390f35b6107f061208c565b005b3480156107fe57600080fd5b50610833600480360381019080803573ffffffffffffffffffffffffffffffffffffffff16906020019092919050505061226c565b6040518080602001828103825283818151815260200191508051906020019060200280838360005b8381101561087657808201518184015260208101905061085b565b505050509050019250505060405180910390f35b34801561089657600080fd5b506108cb600480360381019080803573ffffffffffffffffffffffffffffffffffffffff16906020019092919050505061248c565b6040518082815260200191505060405180910390f35b3480156108ed57600080fd5b506108f66124d5565b6040518084815260200183815260200182151515158152602001935050505060405180910390f35b34801561092a57600080fd5b506109336124fb565b604051808381526020018281526020019250505060405180910390f35b34801561095c57600080fd5b50610991600480360381019080803573ffffffffffffffffffffffffffffffffffffffff16906020019092919050505061250c565b6040518082815260200191505060405180910390f35b3480156109b357600080fd5b506109bc61264c565b604051808273ffffffffffffffffffffffffffffffffffffffff1673ffffffffffffffffffffffffffffffffffffffff16815260200191505060405180910390f35b348015610a0a57600080fd5b50610a13612672565b6040518082815260200191505060405180910390f35b348015610a3557600080fd5b50610a3e612678565b6040518082815260200191505060405180910390f35b348015610a6057600080fd5b50610a7f60048036038101908080359060200190929190505050612682565b005b348015610a8d57600080fd5b50610aac60048036038101908080359060200190929190505050612895565b005b348015610aba57600080fd5b50610af9600480360381019080803573ffffffffffffffffffffffffffffffffffffffff1690602001909291908035906020019092919050505061290f565b005b610b61600480360381019080803590602001908201803590602001908080601f0160208091040260200160405190810160405280939291908181526020018383808284378201915050505050509192919290803515159060200190929190505050612a70565b005b348015610b6f57600080fd5b50610b78612a9c565b6040518085815260200184815260200183815260200182815260200194505050505060405180910390f35b348015610baf57600080fd5b50610bee600480360381019080803573ffffffffffffffffffffffffffffffffffffffff16906020019092919080359060200190929190505050612ba0565b005b348015610bfc57600080fd5b50610cbd600480360381019080803590602001908201803590602001908080601f0160208091040260200160405190810160405280939291908181526020018383808284378201915050505050509192919290803590602001908201803590602001908080601f0160208091040260200160405190810160405280939291908181526020018383808284378201915050505050509192919290803573ffffffffffffffffffffffffffffffffffffffff169060200190929190505050612c47565b005b348015610ccb57600080fd5b50610de3600480360381019080803573ffffffffffffffffffffffffffffffffffffffff169060200190929190803573ffffffffffffffffffffffffffffffffffffffff169060200190929190803573ffffffffffffffffffffffffffffffffffffffff169060200190929190803573ffffffffffffffffffffffffffffffffffffffff169060200190929190803573ffffffffffffffffffffffffffffffffffffffff169060200190929190803573ffffffffffffffffffffffffffffffffffffffff16906020019092919080359060200190820180359060200190808060200260200160405190810160405280939291908181526020018383602002808284378201915050505050509192919290505050612ce0565b005b348015610df157600080fd5b50610dfa6133d0565b005b348015610e0857600080fd5b50610e11613892565b6040518082815260200191505060405180910390f35b348015610e3357600080fd5b50610e72600480360381019080803573ffffffffffffffffffffffffffffffffffffffff16906020019092919080359060200190929190505050613986565b005b348015610e8057600080fd5b50610f11600480360381019080803590602001908201803590602001908080601f0160208091040260200160405190810160405280939291908181526020018383808284378201915050505050509192919290803573ffffffffffffffffffffffffffffffffffffffff16906020019092919080359060200190929190803515159060200190929190505050613a7b565b005b348015610f1f57600080fd5b50610f54600480360381019080803573ffffffffffffffffffffffffffffffffffffffff169060200190929190505050613be2565b6040518082815260200191505060405180910390f35b348015610f7657600080fd5b50610f7f613d22565b604051808273ffffffffffffffffffffffffffffffffffffffff1673ffffffffffffffffffffffffffffffffffffffff16815260200191505060405180910390f35b60118054600181600116156101000203166002900480601f0160208091040260200160405190810160405280929190818152602001828054600181600116156101000203166002900480156110575780601f1061102c57610100808354040283529160200191611057565b820191906000526020600020905b81548152906001019060200180831161103a57829003601f168201915b505050505081565b600560009054906101000a900473ffffffffffffffffffffffffffffffffffffffff1681565b600960009054906101000a900473ffffffffffffffffffffffffffffffffffffffff1673ffffffffffffffffffffffffffffffffffffffff163373ffffffffffffffffffffffffffffffffffffffff161415156110e157600080fd5b80601190805190602001906110f7929190615ce1565b5050565b6111058233613d48565b6112ff600360009054906101000a900473ffffffffffffffffffffffffffffffffffffffff1673ffffffffffffffffffffffffffffffffffffffff16631a025f25336040518263ffffffff167c0100000000000000000000000000000000000000000000000000000000028152600401808273ffffffffffffffffffffffffffffffffffffffff1673ffffffffffffffffffffffffffffffffffffffff168152602001915050602060405180830381600087803b1580156111c557600080fd5b505af11580156111d9573d6000803e3d6000fd5b505050506040513d60208110156111ef57600080fd5b8101908080519060200190929190505050600360009054906101000a900473ffffffffffffffffffffffffffffffffffffffff1673ffffffffffffffffffffffffffffffffffffffff16631a025f25846040518263ffffffff167c0100000000000000000000000000000000000000000000000000000000028152600401808273ffffffffffffffffffffffffffffffffffffffff1673ffffffffffffffffffffffffffffffffffffffff168152602001915050602060405180830381600087803b1580156112bd57600080fd5b505af11580156112d1573d6000803e3d6000fd5b505050506040513d60208110156112e757600080fd5b81019080805190602001909291905050506001614096565b505050565b6000600154905090565b60156020528060005260406000206000915054906101000a900473ffffffffffffffffffffffffffffffffffffffff1681565b600a60009054906101000a900473ffffffffffffffffffffffffffffffffffffffff1681565b6000806000808573ffffffffffffffffffffffffffffffffffffffff163373ffffffffffffffffffffffffffffffffffffffff16148061149b5750600360009054906101000a900473ffffffffffffffffffffffffffffffffffffffff1673ffffffffffffffffffffffffffffffffffffffff166340f59c21336040518263ffffffff167c0100000000000000000000000000000000000000000000000000000000028152600401808273ffffffffffffffffffffffffffffffffffffffff1673ffffffffffffffffffffffffffffffffffffffff168152602001915050602060405180830381600087803b15801561145f57600080fd5b505af1158015611473573d6000803e3d6000fd5b505050506040513d602081101561148957600080fd5b81019080805190602001909291905050505b15156114a657600080fd5b600360009054906101000a900473ffffffffffffffffffffffffffffffffffffffff1673ffffffffffffffffffffffffffffffffffffffff16631a025f25876040518263ffffffff167c0100000000000000000000000000000000000000000000000000000000028152600401808273ffffffffffffffffffffffffffffffffffffffff1673ffffffffffffffffffffffffffffffffffffffff168152602001915050602060405180830381600087803b15801561156357600080fd5b505af1158015611577573d6000803e3d6000fd5b505050506040513d602081101561158d57600080fd5b810190808051906020019092919050505090506000601460008373ffffffffffffffffffffffffffffffffffffffff1673ffffffffffffffffffffffffffffffffffffffff16815260200190815260200160002054141515611b14576116276040805190810160405280600b81526020017f54776f4b657941646d696e000000000000000000000000000000000000000000815250614497565b93506116676040805190810160405280601881526020017f54776f4b657955706772616461626c6545786368616e67650000000000000000815250614497565b9250601460008273ffffffffffffffffffffffffffffffffffffffff1673ffffffffffffffffffffffffffffffffffffffff1681526020019081526020016000205491506000601460008373ffffffffffffffffffffffffffffffffffffffff1673ffffffffffffffffffffffffffffffffffffffff168152602001908152602001600020819055506001151585151514156118be57600760009054906101000a900473ffffffffffffffffffffffffffffffffffffffff1673ffffffffffffffffffffffffffffffffffffffff1663095ea7b384846040518363ffffffff167c0100000000000000000000000000000000000000000000000000000000028152600401808373ffffffffffffffffffffffffffffffffffffffff1673ffffffffffffffffffffffffffffffffffffffff16815260200182815260200192505050602060405180830381600087803b1580156117c257600080fd5b505af11580156117d6573d6000803e3d6000fd5b505050506040513d60208110156117ec57600080fd5b8101908080519060200190929190505050508273ffffffffffffffffffffffffffffffffffffffff1663685602a983886040518363ffffffff167c0100000000000000000000000000000000000000000000000000000000028152600401808381526020018273ffffffffffffffffffffffffffffffffffffffff1673ffffffffffffffffffffffffffffffffffffffff16815260200192505050600060405180830381600087803b1580156118a157600080fd5b505af11580156118b5573d6000803e3d6000fd5b50505050611af8565b8373ffffffffffffffffffffffffffffffffffffffff1663f0cd4dce6040518163ffffffff167c0100000000000000000000000000000000000000000000000000000000028152600401602060405180830381600087803b15801561192257600080fd5b505af1158015611936573d6000803e3d6000fd5b505050506040513d602081101561194c57600080fd5b810190808051906020019092919050505042101515611af2578273ffffffffffffffffffffffffffffffffffffffff1663cc08a85b836040518263ffffffff167c010000000000000000000000000000000000000000000000000000000002815260040180828152602001915050600060405180830381600087803b1580156119d457600080fd5b505af11580156119e8573d6000803e3d6000fd5b50505050600760009054906101000a900473ffffffffffffffffffffffffffffffffffffffff1673ffffffffffffffffffffffffffffffffffffffff1663a9059cbb87846040518363ffffffff167c0100000000000000000000000000000000000000000000000000000000028152600401808373ffffffffffffffffffffffffffffffffffffffff1673ffffffffffffffffffffffffffffffffffffffff16815260200182815260200192505050602060405180830381600087803b158015611ab157600080fd5b505af1158015611ac5573d6000803e3d6000fd5b505050506040513d6020811015611adb57600080fd5b810190808051906020019092919050505050611af7565b600080fd5b5b611b0d826010546145d190919063ffffffff16565b6010819055505b505050505050565b60128054600181600116156101000203166002900480601f016020809104026020016040519081016040528092919081815260200182805460018160011615610100020316600290048015611bb25780601f10611b8757610100808354040283529160200191611bb2565b820191906000526020600020905b815481529060010190602001808311611b9557829003601f168201915b505050505081565b600080600460009054906101000a900473ffffffffffffffffffffffffffffffffffffffff1673ffffffffffffffffffffffffffffffffffffffff163373ffffffffffffffffffffffffffffffffffffffff16141515611c1957600080fd5b6000600e541115611d89578215611c7b57611c59601854611c4b670de0b6b3a7640000896145ed90919063ffffffff16565b61462890919063ffffffff16565b9050611c708160105461463e90919063ffffffff16565b601081905550611ca3565b611c85863061465d565b9050611c9c8160105461463e90919063ffffffff16565b6010819055505b600560009054906101000a900473ffffffffffffffffffffffffffffffffffffffff1673ffffffffffffffffffffffffffffffffffffffff16633afda04d8686846040518463ffffffff167c0100000000000000000000000000000000000000000000000000000000028152600401808473ffffffffffffffffffffffffffffffffffffffff1673ffffffffffffffffffffffffffffffffffffffff1681526020018381526020018281526020019350505050600060405180830381600087803b158015611d7057600080fd5b505af1158015611d84573d6000803e3d6000fd5b505050505b80915050949350505050565b6000601660008373ffffffffffffffffffffffffffffffffffffffff1673ffffffffffffffffffffffffffffffffffffffff16815260200190815260200160002060009054906101000a900473ffffffffffffffffffffffffffffffffffffffff169050919050565b600960009054906101000a900473ffffffffffffffffffffffffffffffffffffffff1673ffffffffffffffffffffffffffffffffffffffff163373ffffffffffffffffffffffffffffffffffffffff16141515611e5a57600080fd5b611e62614786565b565b600460009054906101000a900473ffffffffffffffffffffffffffffffffffffffff1673ffffffffffffffffffffffffffffffffffffffff163373ffffffffffffffffffffffffffffffffffffffff16141515611ec057600080fd5b611ed581600d5461463e90919063ffffffff16565b600d81905550611ef081600c5461463e90919063ffffffff16565b600c8190555050565b6000600f54905090565b60008060009054906101000a900473ffffffffffffffffffffffffffffffffffffffff16905090565b600060156000600360009054906101000a900473ffffffffffffffffffffffffffffffffffffffff1673ffffffffffffffffffffffffffffffffffffffff16631a025f25856040518263ffffffff167c0100000000000000000000000000000000000000000000000000000000028152600401808273ffffffffffffffffffffffffffffffffffffffff1673ffffffffffffffffffffffffffffffffffffffff168152602001915050602060405180830381600087803b158015611fef57600080fd5b505af1158015612003573d6000803e3d6000fd5b505050506040513d602081101561201957600080fd5b810190808051906020019092919050505073ffffffffffffffffffffffffffffffffffffffff1673ffffffffffffffffffffffffffffffffffffffff16815260200190815260200160002060009054906101000a900473ffffffffffffffffffffffffffffffffffffffff169050919050565b600080600960009054906101000a900473ffffffffffffffffffffffffffffffffffffffff1673ffffffffffffffffffffffffffffffffffffffff163373ffffffffffffffffffffffffffffffffffffffff161415156120eb57600080fd5b60006018541415156120fc57600080fd5b6001601760156101000a81548160ff021916908315150217905550612121343061465d565b91506121616040805190810160405280601a81526020017f54776f4b657945786368616e676552617465436f6e7472616374000000000000815250614497565b73ffffffffffffffffffffffffffffffffffffffff1663744248db6040518163ffffffff167c01000000000000000000000000000000000000000000000000000000000281526004018080602001828103825260038152602001807f5553440000000000000000000000000000000000000000000000000000000000815250602001915050602060405180830381600087803b15801561220057600080fd5b505af1158015612214573d6000803e3d6000fd5b505050506040513d602081101561222a57600080fd5b810190808051906020019092919050505090506122628261225483346145ed90919063ffffffff16565b61462890919063ffffffff16565b6018819055505050565b60608060606000806000600560009054906101000a900473ffffffffffffffffffffffffffffffffffffffff1673ffffffffffffffffffffffffffffffffffffffff1663df65845a886040518263ffffffff167c0100000000000000000000000000000000000000000000000000000000028152600401808273ffffffffffffffffffffffffffffffffffffffff1673ffffffffffffffffffffffffffffffffffffffff168152602001915050600060405180830381600087803b15801561233357600080fd5b505af1158015612347573d6000803e3d6000fd5b505050506040513d6000823e3d601f19601f82011682018060405250602081101561237157600080fd5b81019080805164010000000081111561238957600080fd5b8281019050602081018481111561239f57600080fd5b81518560208202830111640100000000821117156123bc57600080fd5b5050929190505050945060018551016040519080825280602002602001820160405280156123f95781602001602082028038833980820191505090505b50935084519250600091505b8282101561245957848281518110151561241b57fe5b90602001906020020151905061243081613be2565b848381518110151561243e57fe5b90602001906020020181815250508180600101925050612405565b61246287613be2565b84865181518110151561247157fe5b90602001906020020181815250508395505050505050919050565b6000600260008373ffffffffffffffffffffffffffffffffffffffff1673ffffffffffffffffffffffffffffffffffffffff168152602001908152602001600020549050919050565b6000806000600b54600e54600a60149054906101000a900460ff16925092509250909192565b600080600c54600d54915091509091565b600060146000600360009054906101000a900473ffffffffffffffffffffffffffffffffffffffff1673ffffffffffffffffffffffffffffffffffffffff16631a025f25856040518263ffffffff167c0100000000000000000000000000000000000000000000000000000000028152600401808273ffffffffffffffffffffffffffffffffffffffff1673ffffffffffffffffffffffffffffffffffffffff168152602001915050602060405180830381600087803b1580156125cf57600080fd5b505af11580156125e3573d6000803e3d6000fd5b505050506040513d60208110156125f957600080fd5b810190808051906020019092919050505073ffffffffffffffffffffffffffffffffffffffff1673ffffffffffffffffffffffffffffffffffffffff168152602001908152602001600020549050919050565b600460009054906101000a900473ffffffffffffffffffffffffffffffffffffffff1681565b60185481565b6000600c54905090565b6000806000806000600460009054906101000a900473ffffffffffffffffffffffffffffffffffffffff1673ffffffffffffffffffffffffffffffffffffffff163373ffffffffffffffffffffffffffffffffffffffff161415156126e657600080fd5b6127246040805190810160405280601981526020017f54776f4b657944656570467265657a65546f6b656e506f6f6c00000000000000815250614497565b9450600360009054906101000a900473ffffffffffffffffffffffffffffffffffffffff1673ffffffffffffffffffffffffffffffffffffffff16635d680c9c6040518163ffffffff167c0100000000000000000000000000000000000000000000000000000000028152600401602060405180830381600087803b1580156127ac57600080fd5b505af11580156127c0573d6000803e3d6000fd5b505050506040513d60208110156127d657600080fd5b8101908080519060200190929190505050935060649250612825606461281761280887876145d190919063ffffffff16565b896145ed90919063ffffffff16565b61462890919063ffffffff16565b915061285382600a60009054906101000a900473ffffffffffffffffffffffffffffffffffffffff1661465d565b905061287161286b83886145d190919063ffffffff16565b8661465d565b5061288781600f5461463e90919063ffffffff16565b600f81905550505050505050565b600460009054906101000a900473ffffffffffffffffffffffffffffffffffffffff1673ffffffffffffffffffffffffffffffffffffffff163373ffffffffffffffffffffffffffffffffffffffff161415156128f157600080fd5b612906816019546145d190919063ffffffff16565b60198190555050565b600460009054906101000a900473ffffffffffffffffffffffffffffffffffffffff1673ffffffffffffffffffffffffffffffffffffffff163373ffffffffffffffffffffffffffffffffffffffff1614151561296b57600080fd5b601760019054906101000a900473ffffffffffffffffffffffffffffffffffffffff1673ffffffffffffffffffffffffffffffffffffffff1663a9059cbb83836040518363ffffffff167c0100000000000000000000000000000000000000000000000000000000028152600401808373ffffffffffffffffffffffffffffffffffffffff1673ffffffffffffffffffffffffffffffffffffffff16815260200182815260200192505050602060405180830381600087803b158015612a3057600080fd5b505af1158015612a44573d6000803e3d6000fd5b505050506040513d6020811015612a5a57600080fd5b8101908080519060200190929190505050505050565b6000612a7d600034614801565b9050612a893384614941565b612a97343360008585614adb565b505050565b6000806000806000612acf601760019054906101000a900473ffffffffffffffffffffffffffffffffffffffff16614f23565b9050600760009054906101000a900473ffffffffffffffffffffffffffffffffffffffff1673ffffffffffffffffffffffffffffffffffffffff16601760019054906101000a900473ffffffffffffffffffffffffffffffffffffffff1673ffffffffffffffffffffffffffffffffffffffff161415612b5e5780601954601054839450945094509450612b99565b80601954601054612b90600760009054906101000a900473ffffffffffffffffffffffffffffffffffffffff16614f23565b94509450945094505b5090919293565b600460009054906101000a900473ffffffffffffffffffffffffffffffffffffffff1673ffffffffffffffffffffffffffffffffffffffff163373ffffffffffffffffffffffffffffffffffffffff16141515612bfc57600080fd5b8173ffffffffffffffffffffffffffffffffffffffff166108fc829081150290604051600060405180830381858888f19350505050158015612c42573d6000803e3d6000fd5b505050565b600960009054906101000a900473ffffffffffffffffffffffffffffffffffffffff1673ffffffffffffffffffffffffffffffffffffffff163373ffffffffffffffffffffffffffffffffffffffff16141515612ca357600080fd5b8260119080519060200190612cb9929190615ce1565b508160129080519060200190612cd0929190615ce1565b50612cdb3382615002565b505050565b60001515601760009054906101000a900460ff161515141515612d0257600080fd5b68056bc75e2d63100000816000815181101515612d1b57fe5b9060200190602002015111151515612d3257600080fd5b81600960006101000a81548173ffffffffffffffffffffffffffffffffffffffff021916908373ffffffffffffffffffffffffffffffffffffffff16021790555083600a60006101000a81548173ffffffffffffffffffffffffffffffffffffffff021916908373ffffffffffffffffffffffffffffffffffffffff16021790555086600660006101000a81548173ffffffffffffffffffffffffffffffffffffffff021916908373ffffffffffffffffffffffffffffffffffffffff160217905550612e336040805190810160405280601181526020017f54776f4b65794576656e74536f75726365000000000000000000000000000000815250614497565b600360006101000a81548173ffffffffffffffffffffffffffffffffffffffff021916908373ffffffffffffffffffffffffffffffffffffffff1602179055508673ffffffffffffffffffffffffffffffffffffffff1663f716c79a6040518163ffffffff167c010000000000000000000000000000000000000000000000000000000002815260040180806020018281038252600d8152602001807f54776f4b657945636f6e6f6d7900000000000000000000000000000000000000815250602001915050602060405180830381600087803b158015612f1357600080fd5b505af1158015612f27573d6000803e3d6000fd5b505050506040513d6020811015612f3d57600080fd5b8101908080519060200190929190505050600760006101000a81548173ffffffffffffffffffffffffffffffffffffffff021916908373ffffffffffffffffffffffffffffffffffffffff160217905550806000815181101515612f9d57fe5b90602001906020020151600e81905550806001815181101515612fbc57fe5b90602001906020020151600b819055506001816002815181101515612fdd57fe5b906020019060200201511415613009576001600a60146101000a81548160ff0219169083151502179055505b600181600381518110151561301a57fe5b906020019060200201511415613046576001600a60156101000a81548160ff0219169083151502179055505b80600481518110151561305557fe5b90602001906020020151600181905550600360009054906101000a900473ffffffffffffffffffffffffffffffffffffffff1673ffffffffffffffffffffffffffffffffffffffff16631a025f25600960009054906101000a900473ffffffffffffffffffffffffffffffffffffffff166040518263ffffffff167c0100000000000000000000000000000000000000000000000000000000028152600401808273ffffffffffffffffffffffffffffffffffffffff1673ffffffffffffffffffffffffffffffffffffffff168152602001915050602060405180830381600087803b15801561314457600080fd5b505af1158015613158573d6000803e3d6000fd5b505050506040513d602081101561316e57600080fd5b8101908080519060200190929190505050600860006101000a81548173ffffffffffffffffffffffffffffffffffffffff021916908373ffffffffffffffffffffffffffffffffffffffff160217905550600860009054906101000a900473ffffffffffffffffffffffffffffffffffffffff1660166000600860009054906101000a900473ffffffffffffffffffffffffffffffffffffffff1673ffffffffffffffffffffffffffffffffffffffff1673ffffffffffffffffffffffffffffffffffffffff16815260200190815260200160002060006101000a81548173ffffffffffffffffffffffffffffffffffffffff021916908373ffffffffffffffffffffffffffffffffffffffff16021790555060015460026000600860009054906101000a900473ffffffffffffffffffffffffffffffffffffffff1673ffffffffffffffffffffffffffffffffffffffff1673ffffffffffffffffffffffffffffffffffffffff1681526020019081526020016000208190555085600560006101000a81548173ffffffffffffffffffffffffffffffffffffffff021916908373ffffffffffffffffffffffffffffffffffffffff16021790555084600460006101000a81548173ffffffffffffffffffffffffffffffffffffffff021916908373ffffffffffffffffffffffffffffffffffffffff16021790555082601760016101000a81548173ffffffffffffffffffffffffffffffffffffffff021916908373ffffffffffffffffffffffffffffffffffffffff1602179055506001601760006101000a81548160ff02191690831515021790555050505050505050565b600080600960009054906101000a900473ffffffffffffffffffffffffffffffffffffffff1673ffffffffffffffffffffffffffffffffffffffff163373ffffffffffffffffffffffffffffffffffffffff1614151561342f57600080fd5b60011515600560009054906101000a900473ffffffffffffffffffffffffffffffffffffffff1673ffffffffffffffffffffffffffffffffffffffff166328e2b4496040518163ffffffff167c0100000000000000000000000000000000000000000000000000000000028152600401602060405180830381600087803b1580156134b957600080fd5b505af11580156134cd573d6000803e3d6000fd5b505050506040513d60208110156134e357600080fd5b8101908080519060200190929190505050151514151561350257600080fd5b61350a613892565b9150601760019054906101000a900473ffffffffffffffffffffffffffffffffffffffff1673ffffffffffffffffffffffffffffffffffffffff1663a9059cbb600960009054906101000a900473ffffffffffffffffffffffffffffffffffffffff16846040518363ffffffff167c0100000000000000000000000000000000000000000000000000000000028152600401808373ffffffffffffffffffffffffffffffffffffffff1673ffffffffffffffffffffffffffffffffffffffff16815260200182815260200192505050602060405180830381600087803b1580156135f357600080fd5b505af1158015613607573d6000803e3d6000fd5b505050506040513d602081101561361d57600080fd5b810190808051906020019092919050505050600760009054906101000a900473ffffffffffffffffffffffffffffffffffffffff1673ffffffffffffffffffffffffffffffffffffffff16601760019054906101000a900473ffffffffffffffffffffffffffffffffffffffff1673ffffffffffffffffffffffffffffffffffffffff1614151561388e5760001515601760159054906101000a900460ff16151514156136d2576136cc6152ed565b5061388d565b600115156137146040805190810160405280600b81526020017f54776f4b657941646d696e000000000000000000000000000000000000000000815250614497565b73ffffffffffffffffffffffffffffffffffffffff1663f0cd4dce6040518163ffffffff167c0100000000000000000000000000000000000000000000000000000000028152600401602060405180830381600087803b15801561377757600080fd5b505af115801561378b573d6000803e3d6000fd5b505050506040513d60208110156137a157600080fd5b81019080805190602001909291905050504210151515141561388c576137c56152ed565b90506138056040805190810160405280601881526020017f54776f4b657955706772616461626c6545786368616e67650000000000000000815250614497565b73ffffffffffffffffffffffffffffffffffffffff1663cc08a85b826040518263ffffffff167c010000000000000000000000000000000000000000000000000000000002815260040180828152602001915050600060405180830381600087803b15801561387357600080fd5b505af1158015613887573d6000803e3d6000fd5b505050505b5b5b5050565b6000806138c0601760019054906101000a900473ffffffffffffffffffffffffffffffffffffffff16614f23565b9050600760009054906101000a900473ffffffffffffffffffffffffffffffffffffffff1673ffffffffffffffffffffffffffffffffffffffff16601760019054906101000a900473ffffffffffffffffffffffffffffffffffffffff1673ffffffffffffffffffffffffffffffffffffffff16141561396a5761396361395460105460195461463e90919063ffffffff16565b826145d190919063ffffffff16565b9150613982565b61397f601954826145d190919063ffffffff16565b91505b5090565b600560009054906101000a900473ffffffffffffffffffffffffffffffffffffffff1673ffffffffffffffffffffffffffffffffffffffff163373ffffffffffffffffffffffffffffffffffffffff161415156139e257600080fd5b613a3481601460008573ffffffffffffffffffffffffffffffffffffffff1673ffffffffffffffffffffffffffffffffffffffff1681526020019081526020016000205461463e90919063ffffffff16565b601460008473ffffffffffffffffffffffffffffffffffffffff1673ffffffffffffffffffffffffffffffffffffffff168152602001908152602001600020819055505050565b60008373ffffffffffffffffffffffffffffffffffffffff163373ffffffffffffffffffffffffffffffffffffffff161480613bab5750600360009054906101000a900473ffffffffffffffffffffffffffffffffffffffff1673ffffffffffffffffffffffffffffffffffffffff166340f59c21336040518263ffffffff167c0100000000000000000000000000000000000000000000000000000000028152600401808273ffffffffffffffffffffffffffffffffffffffff1673ffffffffffffffffffffffffffffffffffffffff168152602001915050602060405180830381600087803b158015613b6f57600080fd5b505af1158015613b83573d6000803e3d6000fd5b505050506040513d6020811015613b9957600080fd5b81019080805190602001909291905050505b1515613bb657600080fd5b613bc1600184614801565b9050613bcd8486614941565b613bdb838560018585614adb565b5050505050565b600060136000600360009054906101000a900473ffffffffffffffffffffffffffffffffffffffff1673ffffffffffffffffffffffffffffffffffffffff16631a025f25856040518263ffffffff167c0100000000000000000000000000000000000000000000000000000000028152600401808273ffffffffffffffffffffffffffffffffffffffff1673ffffffffffffffffffffffffffffffffffffffff168152602001915050602060405180830381600087803b158015613ca557600080fd5b505af1158015613cb9573d6000803e3d6000fd5b505050506040513d6020811015613ccf57600080fd5b810190808051906020019092919050505073ffffffffffffffffffffffffffffffffffffffff1673ffffffffffffffffffffffffffffffffffffffff168152602001908152602001600020549050919050565b600960009054906101000a900473ffffffffffffffffffffffffffffffffffffffff1681565b6060806060600080600080613d5d898961546b565b809750819850829950839a505050505086519050600092505b8083101561408b57600360009054906101000a900473ffffffffffffffffffffffffffffffffffffffff1673ffffffffffffffffffffffffffffffffffffffff16631a025f258885815181101515613dca57fe5b906020019060200201516040518263ffffffff167c0100000000000000000000000000000000000000000000000000000000028152600401808273ffffffffffffffffffffffffffffffffffffffff1673ffffffffffffffffffffffffffffffffffffffff168152602001915050602060405180830381600087803b158015613e5257600080fd5b505af1158015613e66573d6000803e3d6000fd5b505050506040513d6020811015613e7c57600080fd5b810190808051906020019092919050505091506000601660008473ffffffffffffffffffffffffffffffffffffffff1673ffffffffffffffffffffffffffffffffffffffff16815260200190815260200160002060009054906101000a900473ffffffffffffffffffffffffffffffffffffffff1673ffffffffffffffffffffffffffffffffffffffff161415613f1f57613f1984836001614096565b50614022565b8373ffffffffffffffffffffffffffffffffffffffff16601660008473ffffffffffffffffffffffffffffffffffffffff1673ffffffffffffffffffffffffffffffffffffffff16815260200190815260200160002060009054906101000a900473ffffffffffffffffffffffffffffffffffffffff1673ffffffffffffffffffffffffffffffffffffffff16141515614021576040517f08c379a00000000000000000000000000000000000000000000000000000000081526004018080602001828103825260168152602001807f6f6e6c792074726565204152437320616c6c6f7765640000000000000000000081525060200191505060405180910390fd5b5b81935085518310156140505761404f82878581518110151561404057fe5b90602001906020020151615002565b5b845183101561407e5761407d82868581518110151561406b57fe5b9060200190602002015160ff16615b05565b5b8280600101935050613d76565b505050505050505050565b60006001821415156140a757600080fd5b6000600260008673ffffffffffffffffffffffffffffffffffffffff1673ffffffffffffffffffffffffffffffffffffffff168152602001908152602001600020541115156140f557600080fd5b6141486001600260008773ffffffffffffffffffffffffffffffffffffffff1673ffffffffffffffffffffffffffffffffffffffff168152602001908152602001600020546145d190919063ffffffff16565b600260008673ffffffffffffffffffffffffffffffffffffffff1673ffffffffffffffffffffffffffffffffffffffff168152602001908152602001600020819055506141df600b54600260008673ffffffffffffffffffffffffffffffffffffffff1673ffffffffffffffffffffffffffffffffffffffff1681526020019081526020016000205461463e90919063ffffffff16565b600260008573ffffffffffffffffffffffffffffffffffffffff1673ffffffffffffffffffffffffffffffffffffffff1681526020019081526020016000208190555061424c61423b6001600b546145d190919063ffffffff16565b60015461463e90919063ffffffff16565b6001819055506000601660008573ffffffffffffffffffffffffffffffffffffffff1673ffffffffffffffffffffffffffffffffffffffff16815260200190815260200160002060009054906101000a900473ffffffffffffffffffffffffffffffffffffffff1673ffffffffffffffffffffffffffffffffffffffff16141561440e57600360009054906101000a900473ffffffffffffffffffffffffffffffffffffffff1673ffffffffffffffffffffffffffffffffffffffff16638af1cbb93086866040518463ffffffff167c0100000000000000000000000000000000000000000000000000000000028152600401808473ffffffffffffffffffffffffffffffffffffffff1673ffffffffffffffffffffffffffffffffffffffff1681526020018373ffffffffffffffffffffffffffffffffffffffff1673ffffffffffffffffffffffffffffffffffffffff1681526020018273ffffffffffffffffffffffffffffffffffffffff1673ffffffffffffffffffffffffffffffffffffffff1681526020019350505050600060405180830381600087803b1580156143f557600080fd5b505af1158015614409573d6000803e3d6000fd5b505050505b83601660008573ffffffffffffffffffffffffffffffffffffffff1673ffffffffffffffffffffffffffffffffffffffff16815260200190815260200160002060006101000a81548173ffffffffffffffffffffffffffffffffffffffff021916908373ffffffffffffffffffffffffffffffffffffffff160217905550600190509392505050565b6000600660009054906101000a900473ffffffffffffffffffffffffffffffffffffffff1673ffffffffffffffffffffffffffffffffffffffff1663db7a6d90836040518263ffffffff167c01000000000000000000000000000000000000000000000000000000000281526004018080602001828103825283818151815260200191508051906020019080838360005b83811015614543578082015181840152602081019050614528565b50505050905090810190601f1680156145705780820380516001836020036101000a031916815260200191505b5092505050602060405180830381600087803b15801561458f57600080fd5b505af11580156145a3573d6000803e3d6000fd5b505050506040513d60208110156145b957600080fd5b81019080805190602001909291905050509050919050565b60008282111515156145e257600080fd5b818303905092915050565b6000808314156146005760009050614622565b818302905081838281151561461157fe5b0414151561461e57600080fd5b8090505b92915050565b6000818381151561463557fe5b04905092915050565b6000818301905082811015151561465457600080fd5b80905092915050565b60008060006146a06040805190810160405280601881526020017f54776f4b657955706772616461626c6545786368616e67650000000000000000815250614497565b91508173ffffffffffffffffffffffffffffffffffffffff1663ec8ac4d886866040518363ffffffff167c0100000000000000000000000000000000000000000000000000000000028152600401808273ffffffffffffffffffffffffffffffffffffffff1673ffffffffffffffffffffffffffffffffffffffff1681526020019150506020604051808303818588803b15801561473d57600080fd5b505af1158015614751573d6000803e3d6000fd5b50505050506040513d602081101561476857600080fd5b81019080805190602001909291905050509050809250505092915050565b6000600c5490506000600c81905550600960009054906101000a900473ffffffffffffffffffffffffffffffffffffffff1673ffffffffffffffffffffffffffffffffffffffff166108fc829081150290604051600060405180830381858888f193505050501580156147fd573d6000803e3d6000fd5b5050565b6000806000600560009054906101000a900473ffffffffffffffffffffffffffffffffffffffff1673ffffffffffffffffffffffffffffffffffffffff16639da8afed3386886040518463ffffffff167c0100000000000000000000000000000000000000000000000000000000028152600401808473ffffffffffffffffffffffffffffffffffffffff1673ffffffffffffffffffffffffffffffffffffffff1681526020018381526020018215151515815260200193505050506040805180830381600087803b1580156148d657600080fd5b505af11580156148ea573d6000803e3d6000fd5b505050506040513d604081101561490057600080fd5b81019080805190602001909291908051906020019092919050505080925081935050506001151582151514151561493657600080fd5b809250505092915050565b600073ffffffffffffffffffffffffffffffffffffffff1660166000600360009054906101000a900473ffffffffffffffffffffffffffffffffffffffff1673ffffffffffffffffffffffffffffffffffffffff16631a025f25866040518263ffffffff167c0100000000000000000000000000000000000000000000000000000000028152600401808273ffffffffffffffffffffffffffffffffffffffff1673ffffffffffffffffffffffffffffffffffffffff168152602001915050602060405180830381600087803b158015614a1a57600080fd5b505af1158015614a2e573d6000803e3d6000fd5b505050506040513d6020811015614a4457600080fd5b810190808051906020019092919050505073ffffffffffffffffffffffffffffffffffffffff1673ffffffffffffffffffffffffffffffffffffffff16815260200190815260200160002060009054906101000a900473ffffffffffffffffffffffffffffffffffffffff1673ffffffffffffffffffffffffffffffffffffffff161415614ad757614ad68183613d48565b5b5050565b600080600080600080600560009054906101000a900473ffffffffffffffffffffffffffffffffffffffff1673ffffffffffffffffffffffffffffffffffffffff16637fc0c0c78c8b6040518363ffffffff167c01000000000000000000000000000000000000000000000000000000000281526004018083815260200182151515158152602001925050506040805180830381600087803b158015614b8057600080fd5b505af1158015614b94573d6000803e3d6000fd5b505050506040513d6040811015614baa57600080fd5b8101908080519060200190929190805190602001909291905050508096508197505050614be0858761463e90919063ffffffff16565b9350614bea613892565b9250838310151515614bfb57600080fd5b614c236064614c15600e548e6145ed90919063ffffffff16565b61462890919063ffffffff16565b9150614c3a8460195461463e90919063ffffffff16565b601981905550600460009054906101000a900473ffffffffffffffffffffffffffffffffffffffff1673ffffffffffffffffffffffffffffffffffffffff1663e6dcd78e8b8d858a8a8f8f8f6040518963ffffffff167c0100000000000000000000000000000000000000000000000000000000028152600401808973ffffffffffffffffffffffffffffffffffffffff1673ffffffffffffffffffffffffffffffffffffffff168152602001888152602001878152602001868152602001858152602001841515151581526020018315151515815260200182815260200198505050505050505050602060405180830381600087803b158015614d3d57600080fd5b505af1158015614d51573d6000803e3d6000fd5b505050506040513d6020811015614d6757600080fd5b8101908080519060200190929190505050905060001515600a60149054906101000a900460ff1615151415614f1657600015158915151480614e665750600460009054906101000a900473ffffffffffffffffffffffffffffffffffffffff1673ffffffffffffffffffffffffffffffffffffffff166354c4ff826040518163ffffffff167c0100000000000000000000000000000000000000000000000000000000028152600401602060405180830381600087803b158015614e2a57600080fd5b505af1158015614e3e573d6000803e3d6000fd5b505050506040513d6020811015614e5457600080fd5b81019080805190602001909291905050505b15614f1557600460009054906101000a900473ffffffffffffffffffffffffffffffffffffffff1673ffffffffffffffffffffffffffffffffffffffff16630ebdf788826040518263ffffffff167c010000000000000000000000000000000000000000000000000000000002815260040180828152602001915050600060405180830381600087803b158015614efc57600080fd5b505af1158015614f10573d6000803e3d6000fd5b505050505b5b5050505050505050505050565b60008173ffffffffffffffffffffffffffffffffffffffff166370a08231306040518263ffffffff167c0100000000000000000000000000000000000000000000000000000000028152600401808273ffffffffffffffffffffffffffffffffffffffff1673ffffffffffffffffffffffffffffffffffffffff168152602001915050602060405180830381600087803b158015614fc057600080fd5b505af1158015614fd4573d6000803e3d6000fd5b505050506040513d6020811015614fea57600080fd5b81019080805190602001909291905050509050919050565b6000600360009054906101000a900473ffffffffffffffffffffffffffffffffffffffff1673ffffffffffffffffffffffffffffffffffffffff16631a025f25846040518263ffffffff167c0100000000000000000000000000000000000000000000000000000000028152600401808273ffffffffffffffffffffffffffffffffffffffff1673ffffffffffffffffffffffffffffffffffffffff168152602001915050602060405180830381600087803b1580156150c157600080fd5b505af11580156150d5573d6000803e3d6000fd5b505050506040513d60208110156150eb57600080fd5b8101908080519060200190929190505050925060006151098461248c565b11151561511557600080fd5b601560008473ffffffffffffffffffffffffffffffffffffffff1673ffffffffffffffffffffffffffffffffffffffff16815260200190815260200160002060009054906101000a900473ffffffffffffffffffffffffffffffffffffffff169050600073ffffffffffffffffffffffffffffffffffffffff168173ffffffffffffffffffffffffffffffffffffffff16141561522f5781601560008573ffffffffffffffffffffffffffffffffffffffff1673ffffffffffffffffffffffffffffffffffffffff16815260200190815260200160002060006101000a81548173ffffffffffffffffffffffffffffffffffffffff021916908373ffffffffffffffffffffffffffffffffffffffff16021790555061526a565b8173ffffffffffffffffffffffffffffffffffffffff168173ffffffffffffffffffffffffffffffffffffffff1614151561526957600080fd5b5b81601560008573ffffffffffffffffffffffffffffffffffffffff1673ffffffffffffffffffffffffffffffffffffffff16815260200190815260200160002060006101000a81548173ffffffffffffffffffffffffffffffffffffffff021916908373ffffffffffffffffffffffffffffffffffffffff160217905550505050565b600080600061531d600760009054906101000a900473ffffffffffffffffffffffffffffffffffffffff16614f23565b9150615334601054836145d190919063ffffffff16565b9050600081111561546357600760009054906101000a900473ffffffffffffffffffffffffffffffffffffffff1673ffffffffffffffffffffffffffffffffffffffff1663a9059cbb600960009054906101000a900473ffffffffffffffffffffffffffffffffffffffff16836040518363ffffffff167c0100000000000000000000000000000000000000000000000000000000028152600401808373ffffffffffffffffffffffffffffffffffffffff1673ffffffffffffffffffffffffffffffffffffffff16815260200182815260200192505050602060405180830381600087803b15801561542657600080fd5b505af115801561543a573d6000803e3d6000fd5b505050506040513d602081101561545057600080fd5b8101908080519060200190929190505050505b809250505090565b60608060606000806000606080606060158b01519450600360009054906101000a900473ffffffffffffffffffffffffffffffffffffffff1673ffffffffffffffffffffffffffffffffffffffff16631a025f25866040518263ffffffff167c0100000000000000000000000000000000000000000000000000000000028152600401808273ffffffffffffffffffffffffffffffffffffffff1673ffffffffffffffffffffffffffffffffffffffff168152602001915050602060405180830381600087803b15801561553e57600080fd5b505af1158015615552573d6000803e3d6000fd5b505050506040513d602081101561556857600080fd5b81019080805190602001909291905050509450601560008673ffffffffffffffffffffffffffffffffffffffff1673ffffffffffffffffffffffffffffffffffffffff16815260200190815260200160002060009054906101000a900473ffffffffffffffffffffffffffffffffffffffff16935073__Call__________________________________63ff3209ba8c86600360009054906101000a900473ffffffffffffffffffffffffffffffffffffffff1673ffffffffffffffffffffffffffffffffffffffff16631a025f258f6040518263ffffffff167c0100000000000000000000000000000000000000000000000000000000028152600401808273ffffffffffffffffffffffffffffffffffffffff1673ffffffffffffffffffffffffffffffffffffffff168152602001915050602060405180830381600087803b1580156156b657600080fd5b505af11580156156ca573d6000803e3d6000fd5b505050506040513d60208110156156e057600080fd5b81019080805190602001909291905050506040518463ffffffff167c010000000000000000000000000000000000000000000000000000000002815260040180806020018473ffffffffffffffffffffffffffffffffffffffff1673ffffffffffffffffffffffffffffffffffffffff1681526020018373ffffffffffffffffffffffffffffffffffffffff1673ffffffffffffffffffffffffffffffffffffffff168152602001828103825285818151815260200191508051906020019080838360005b838110156157c05780820151818401526020810190506157a5565b50505050905090810190601f1680156157ed5780820380516001836020036101000a031916815260200191505b5094505050505060006040518083038186803b15801561580c57600080fd5b505af4158015615820573d6000803e3d6000fd5b505050506040513d6000823e3d601f19601f82011682018060405250606081101561584a57600080fd5b81019080805164010000000081111561586257600080fd5b8281019050602081018481111561587857600080fd5b815185602082028301116401000000008211171561589557600080fd5b505092919060200180516401000000008111156158b157600080fd5b828101905060208101848111156158c757600080fd5b81518560208202830111640100000000821117156158e457600080fd5b5050929190602001805164010000000081111561590057600080fd5b8281019050602081018481111561591657600080fd5b815185602082028301116401000000008211171561593357600080fd5b5050929190505050809350819450829550505050600360009054906101000a900473ffffffffffffffffffffffffffffffffffffffff1673ffffffffffffffffffffffffffffffffffffffff16631a025f258b6040518263ffffffff167c0100000000000000000000000000000000000000000000000000000000028152600401808273ffffffffffffffffffffffffffffffffffffffff1673ffffffffffffffffffffffffffffffffffffffff168152602001915050602060405180830381600087803b158015615a0457600080fd5b505af1158015615a18573d6000803e3d6000fd5b505050506040513d6020811015615a2e57600080fd5b810190808051906020019092919050505073ffffffffffffffffffffffffffffffffffffffff16836001855103815181101515615a6757fe5b9060200190602002015173ffffffffffffffffffffffffffffffffffffffff161480615ae057503373ffffffffffffffffffffffffffffffffffffffff16600960009054906101000a900473ffffffffffffffffffffffffffffffffffffffff1673ffffffffffffffffffffffffffffffffffffffff16145b1515615aeb57600080fd5b828282879850985098509850505050505092959194509250565b6000600360009054906101000a900473ffffffffffffffffffffffffffffffffffffffff1673ffffffffffffffffffffffffffffffffffffffff16631a025f25846040518263ffffffff167c0100000000000000000000000000000000000000000000000000000000028152600401808273ffffffffffffffffffffffffffffffffffffffff1673ffffffffffffffffffffffffffffffffffffffff168152602001915050602060405180830381600087803b158015615bc457600080fd5b505af1158015615bd8573d6000803e3d6000fd5b505050506040513d6020811015615bee57600080fd5b810190808051906020019092919050505090506000601360008373ffffffffffffffffffffffffffffffffffffffff1673ffffffffffffffffffffffffffffffffffffffff168152602001908152602001600020541480615c8d575081601360008373ffffffffffffffffffffffffffffffffffffffff1673ffffffffffffffffffffffffffffffffffffffff16815260200190815260200160002054145b1515615c9857600080fd5b81601360008373ffffffffffffffffffffffffffffffffffffffff1673ffffffffffffffffffffffffffffffffffffffff16815260200190815260200160002081905550505050565b828054600181600116156101000203166002900490600052602060002090601f016020900481019282601f10615d2257805160ff1916838001178555615d50565b82800160010185558215615d50579182015b82811115615d4f578251825591602001919060010190615d34565b5b509050615d5d9190615d61565b5090565b615d8391905b80821115615d7f576000816000905550600101615d67565b5090565b905600a165627a7a72305820b7284749b37f6f8e51d608dd867c0700eef1e8c928d3108d31956e3381c172320029",
  "source": "pragma solidity ^0.4.24;\n\nimport \"../campaign-mutual-contracts/TwoKeyCampaign.sol\";\nimport \"../interfaces/ITwoKeyAcquisitionLogicHandler.sol\";\nimport \"../interfaces/ITwoKeyConversionHandler.sol\";\nimport \"../interfaces/ITwoKeyExchangeRateContract.sol\";\nimport \"../upgradable-pattern-campaigns/UpgradeableCampaign.sol\";\n/**\n * @author Nikola Madjarevic\n */\ncontract TwoKeyAcquisitionCampaignERC20 is UpgradeableCampaign, TwoKeyCampaign {\n\n    bool isCampaignInitialized; // Once this is set to true can't be modified\n\n    address assetContractERC20; // Asset contract is address of ERC20 inventory\n    bool boughtRewardsWithEther;\n\n    uint public usd2KEYrateWei;\n    uint reservedAmountOfTokens; // Reserved amount of tokens for the converters who are pending approval\n\n\n    /**\n     * @notice This function is simulation for the constructor, since we're relying on proxies\n     * @param _twoKeySingletonesRegistry is the address of TwoKeySingletonsRegistry contract\n     * @param _twoKeyAcquisitionLogicHandler is the address of TwoKeyAcquisitionLogicHandler contract\n     * @param _conversionHandler is the address of TwoKeyConversionHandler contract\n     * @param _moderator is the moderator address\n     * @param _assetContractERC20 is the ERC20 contract being sold inside campaign\n     * @param _contractor is the contractor of the campaign\n     * @param values is the array containing values [maxReferralRewardPercent (in weis), conversionQuota]\n     */\n    function setInitialParamsCampaign(\n        address _twoKeySingletonesRegistry,\n        address _twoKeyAcquisitionLogicHandler,\n        address _conversionHandler,\n        address _moderator,\n        address _assetContractERC20,\n        address _contractor,\n        uint [] values\n    )\n    public\n    {\n        require(isCampaignInitialized == false); // Security layer to make sure the function will act as a constructor\n        require(values[0] <= 100*(10**18)); // Require that max referral reward is less than 100%\n        contractor = _contractor;\n        moderator = _moderator;\n\n        twoKeySingletonesRegistry = _twoKeySingletonesRegistry;\n\n        twoKeyEventSource = TwoKeyEventSource(getContractProxyAddress(\"TwoKeyEventSource\"));\n        twoKeyEconomy = ITwoKeySingletoneRegistryFetchAddress(_twoKeySingletonesRegistry).getNonUpgradableContractAddress(\"TwoKeyEconomy\");\n\n        maxReferralRewardPercent = values[0];\n        conversionQuota = values[1];\n\n        // KYC\n        if(values[2] == 1) {\n            isKYCRequired = true;\n        }\n        // MCTR\n        if(values[3] == 1) {\n            mustConvertToReferr = true;\n        }\n\n        totalSupply_ = values[4];\n\n        ownerPlasma = twoKeyEventSource.plasmaOf(contractor);\n        received_from[ownerPlasma] = ownerPlasma;\n        balances[ownerPlasma] = totalSupply_;\n\n\n\n        logicHandler = _twoKeyAcquisitionLogicHandler;\n        conversionHandler = _conversionHandler;\n        assetContractERC20 = _assetContractERC20;\n\n        isCampaignInitialized = true;\n    }\n\n\n\n    /**\n     * @notice Internal function to check the balance of the specific ERC20 on this contract\n     * @param tokenAddress is the ERC20 contract address\n     */\n    function getTokenBalance(\n        address tokenAddress\n    )\n    internal\n    view\n    returns (uint)\n    {\n        return IERC20(tokenAddress).balanceOf(address(this));\n    }\n\n    /**\n     * @notice Function to set cut of\n     * @param me is the address (ethereum)\n     * @param cut is the cut value\n     */\n    function setCutOf(\n        address me,\n        uint256 cut\n    )\n    internal\n    {\n        // what is the percentage of the bounty s/he will receive when acting as an influencer\n        // the value 255 is used to signal equal partition with other influencers\n        // A sender can set the value only once in a contract\n        address plasma = twoKeyEventSource.plasmaOf(me);\n        require(referrerPlasma2cut[plasma] == 0 || referrerPlasma2cut[plasma] == cut);\n        referrerPlasma2cut[plasma] = cut;\n    }\n\n\n    /**\n     * @notice Function to track arcs and make ref tree\n     * @param sig is the signature user joins from\n     */\n    function distributeArcsBasedOnSignature(\n        bytes sig,\n        address _converter\n    )\n    private\n    {\n        address[] memory influencers;\n        address[] memory keys;\n        uint8[] memory weights;\n        address old_address;\n        (influencers, keys, weights, old_address) = super.getInfluencersKeysAndWeightsFromSignature(sig, _converter);\n        uint i;\n        address new_address;\n        uint numberOfInfluencers = influencers.length;\n        for (i = 0; i < numberOfInfluencers; i++) {\n            new_address = twoKeyEventSource.plasmaOf(influencers[i]);\n\n            if (received_from[new_address] == 0) {\n                transferFrom(old_address, new_address, 1);\n            } else {\n                require(received_from[new_address] == old_address,'only tree ARCs allowed');\n            }\n\n            old_address = new_address;\n\n            if (i < keys.length) {\n                setPublicLinkKeyOf(new_address, keys[i]);\n            }\n\n            if (i < weights.length) {\n                setCutOf(new_address, uint256(weights[i]));\n            }\n        }\n    }\n\n\n    /**\n     * @notice Function to add fiat inventory for rewards\n     * @dev only contractor can add this inventory\n     */\n    function specifyFiatConversionRewards()\n    public\n    onlyContractor\n    payable\n    {\n        //It can be called only ONCE per campaign\n        require(usd2KEYrateWei == 0);\n\n        boughtRewardsWithEther = true;\n        uint amountOfTwoKeys = buyTokensFromUpgradableExchange(msg.value, address(this));\n        uint rateUsdToEth = ITwoKeyExchangeRateContract(getContractProxyAddress(\"TwoKeyExchangeRateContract\")).getBaseToTargetRate(\"USD\");\n\n        usd2KEYrateWei = (msg.value).mul(rateUsdToEth).div(amountOfTwoKeys); //0.1 DOLLAR\n    }\n\n//    function storeRateBeforeInventoryIsAdded()\n//    public\n//    onlyContractor\n//    {\n//        require(usd2KEYrateWei == 0);\n//\n//        usd2KEYrateWei = (IUpgradableExchange(getContractProxyAddress(\"TwoKeyUpgradableExchange\")).sellRate2key());\n//    }\n\n\n    /**\n     * @notice Function to join with signature and share 1 arc to the receiver\n     * @param signature is the signature\n     * @param receiver is the address we're sending ARCs to\n     */\n    function joinAndShareARC(\n        bytes signature,\n        address receiver\n    )\n    public\n    {\n        distributeArcsBasedOnSignature(signature, msg.sender);\n        transferFrom(twoKeyEventSource.plasmaOf(msg.sender), twoKeyEventSource.plasmaOf(receiver), 1);\n    }\n\n    function validateRequirements(\n        bool _isFiat,\n        uint _conversionAmount\n    )\n    internal\n    returns (uint)\n    {\n        bool canConvert;\n        uint conversionAmountCampaignCurrency;\n        (canConvert, conversionAmountCampaignCurrency) = ITwoKeyAcquisitionLogicHandler(logicHandler).checkAllRequirementsForConversionAndTotalRaised(\n            msg.sender,\n            _conversionAmount,\n            _isFiat);\n\n        require(canConvert==true);\n        return conversionAmountCampaignCurrency;\n    }\n\n    function distributeArcsIfNecessary(\n        address _converter,\n        bytes signature\n    )\n    internal\n    {\n        if(received_from[twoKeyEventSource.plasmaOf(_converter)] == address(0)) {\n            distributeArcsBasedOnSignature(signature, _converter);\n        }\n    }\n\n    /**\n     * @notice Function where converter can convert\n     * @dev payable function\n     */\n    function convert(\n        bytes signature,\n        bool _isAnonymous\n    )\n    public\n    payable\n    {\n        uint conversionAmountCampaignCurrency = validateRequirements(false, msg.value);\n        distributeArcsIfNecessary(msg.sender, signature);\n        createConversion(msg.value, msg.sender, false, _isAnonymous, conversionAmountCampaignCurrency);\n    }\n\n    /**\n     * @notice Function to convert if the conversion is in fiat\n     * @dev This can be executed only in case currency is fiat\n     * @param _converter is the address of converter who want's fiat conversion\n     * @param conversionAmountFiatWei is the amount of conversion converted to wei units\n     * @param _isAnonymous if converter chooses to be anonymous\n     */\n    function convertFiat(\n        bytes signature,\n        address _converter,\n        uint conversionAmountFiatWei,\n        bool _isAnonymous\n    )\n    public\n    {\n        // Validate that sender is either _converter or maintainer\n        require(msg.sender == _converter || twoKeyEventSource.isAddressMaintainer(msg.sender));\n        uint conversionAmountCampaignCurrency = validateRequirements(true, conversionAmountFiatWei);\n        distributeArcsIfNecessary(_converter, signature);\n        createConversion(conversionAmountFiatWei, _converter, true, _isAnonymous, conversionAmountCampaignCurrency);\n    }\n\n    /*\n     * @notice Function which is executed to create conversion\n     * @param conversionAmountETHWeiOrFiat is the amount of the ether sent to the contract\n     * @param converterAddress is the sender of eth to the contract\n     */\n    function createConversion(\n        uint conversionAmountETHWeiOrFiat,\n        address converterAddress,\n        bool isFiatConversion,\n        bool isAnonymous,\n        uint conversionAmountCampaignCurrency\n    )\n    private\n    {\n        uint baseTokensForConverterUnits;\n        uint bonusTokensForConverterUnits;\n\n        (baseTokensForConverterUnits, bonusTokensForConverterUnits)\n        = ITwoKeyAcquisitionLogicHandler(logicHandler).getEstimatedTokenAmount(conversionAmountETHWeiOrFiat, isFiatConversion);\n\n        uint totalTokensForConverterUnits = baseTokensForConverterUnits.add(bonusTokensForConverterUnits);\n\n        uint256 _total_units = getAvailableAndNonReservedTokensAmount();\n        require(_total_units >= totalTokensForConverterUnits);\n\n        uint256 maxReferralRewardFiatOrETHWei = conversionAmountETHWeiOrFiat.mul(maxReferralRewardPercent).div(100);\n\n        reservedAmountOfTokens = reservedAmountOfTokens.add(totalTokensForConverterUnits);\n\n        uint conversionId = ITwoKeyConversionHandler(conversionHandler).supportForCreateConversion(\n            converterAddress,\n            conversionAmountETHWeiOrFiat,\n            maxReferralRewardFiatOrETHWei,\n            baseTokensForConverterUnits,\n            bonusTokensForConverterUnits,\n            isFiatConversion,\n            isAnonymous,\n            conversionAmountCampaignCurrency\n        );\n\n        if(isKYCRequired == false) {\n            if(isFiatConversion == false || ITwoKeyConversionHandler(conversionHandler).isFiatConversionAutomaticallyApproved()) {\n                ITwoKeyConversionHandler(conversionHandler).executeConversion(conversionId);\n            }\n        }\n    }\n\n    /**\n     * @notice Function to delegate call to logic handler and update data, and buy tokens\n     * @param _maxReferralRewardETHWei total reward in ether wei\n     * @param _converter is the converter address\n     * @param _conversionId is the ID of conversion\n     */\n    function buyTokensAndDistributeReferrerRewards(\n        uint256 _maxReferralRewardETHWei,\n        address _converter,\n        uint _conversionId,\n        bool _isConversionFiat\n    )\n    public\n    onlyTwoKeyConversionHandler\n    returns (uint)\n    {\n        //Fiat rewards = fiatamount * moderatorPercentage / 100  / 0.095\n        uint totalBounty2keys;\n        //If fiat conversion do exactly the same just send different reward and don't buy tokens, take them from contract\n        if(maxReferralRewardPercent > 0) {\n            if(_isConversionFiat) {\n                totalBounty2keys = ((_maxReferralRewardETHWei.mul(10**18)).div(usd2KEYrateWei));\n                reservedAmount2keyForRewards = reservedAmount2keyForRewards.add(totalBounty2keys);\n            } else {\n                //Buy tokens from upgradable exchange\n                totalBounty2keys = buyTokensFromUpgradableExchange(_maxReferralRewardETHWei, address(this));\n                reservedAmount2keyForRewards = reservedAmount2keyForRewards.add(totalBounty2keys);\n            }\n            // Update reserved amount\n            //Handle refchain rewards\n            ITwoKeyAcquisitionLogicHandler(logicHandler).updateRefchainRewards(\n                _converter,\n                _conversionId,\n                totalBounty2keys);\n        }\n        return totalBounty2keys;\n    }\n\n\n    /**\n     * @notice Function which will buy tokens from upgradable exchange for moderator\n     * @param moderatorFee is the fee in tokens moderator earned\n     */\n    function buyTokensForModeratorRewards(\n        uint moderatorFee\n    )\n    public\n    onlyTwoKeyConversionHandler\n    {\n        //Get deep freeze token pool address\n        address twoKeyDeepFreezeTokenPool = getContractProxyAddress(\"TwoKeyDeepFreezeTokenPool\");\n\n        uint networkFee = twoKeyEventSource.getTwoKeyDefaultNetworkTaxPercent();\n\n        uint total = 100;\n        // Balance which will go to moderator\n        uint balance = moderatorFee.mul(total.sub(networkFee)).div(100);\n\n        uint moderatorEarnings2key = buyTokensFromUpgradableExchange(balance,moderator); // Buy tokens for moderator\n        buyTokensFromUpgradableExchange(moderatorFee.sub(balance), twoKeyDeepFreezeTokenPool); // Buy tokens for deep freeze token pool\n\n        moderatorTotalEarnings2key = moderatorTotalEarnings2key.add(moderatorEarnings2key);\n    }\n\n    /**\n     * @notice Move some amount of ERC20 from our campaign to someone\n     * @param _to address we're sending the amount of ERC20\n     * @param _amount is the amount of ERC20's we're going to transfer\n     * @return true if successful, otherwise reverts\n     */\n    function moveFungibleAsset(\n        address _to,\n        uint256 _amount\n    )\n    public\n    onlyTwoKeyConversionHandler\n    {\n        IERC20(assetContractERC20).transfer(_to, _amount);\n    }\n\n\n    /**\n     * @notice Option to update contractor proceeds\n     * @dev can be called only from TwoKeyConversionHandler contract\n     * @param value it the value we'd like to add to total contractor proceeds and contractor balance\n     */\n    function updateContractorProceeds(\n        uint value\n    )\n    public\n    onlyTwoKeyConversionHandler\n    {\n        contractorTotalProceeds = contractorTotalProceeds.add(value);\n        contractorBalance = contractorBalance.add(value);\n    }\n\n    /**\n     * @notice Function to update amount of the reserved tokens in case conversion is rejected\n     * @param value is the amount to reduce from reserved state\n     */\n    function updateReservedAmountOfTokensIfConversionRejectedOrExecuted(\n        uint value\n    )\n    public\n    onlyTwoKeyConversionHandler\n    {\n        reservedAmountOfTokens = reservedAmountOfTokens.sub(value);\n    }\n\n    /**\n     * @notice Function to return status of inventory\n     * @return current ERC20 balance on inventory address, reserved amount of tokens for converters,\n     * and reserved amount of tokens for the rewards\n     */\n    function getInventoryStatus()\n    public\n    view\n    returns (uint,uint,uint,uint)\n    {\n        uint inventoryBalance = getTokenBalance(assetContractERC20);\n        if(assetContractERC20 == twoKeyEconomy) {\n            return (inventoryBalance, reservedAmountOfTokens, reservedAmount2keyForRewards, inventoryBalance);\n        } else {\n            return (inventoryBalance, reservedAmountOfTokens, reservedAmount2keyForRewards, getTokenBalance(twoKeyEconomy));\n        }\n    }\n\n    /**\n     * @notice Function which acts like getter for all cuts in array\n     * @param last_influencer is the last influencer\n     * @return array of integers containing cuts respectively\n     */\n    function getReferrerCuts(\n        address last_influencer\n    )\n    public\n    view\n    returns (uint256[])\n    {\n        address[] memory influencers = ITwoKeyAcquisitionLogicHandler(logicHandler).getReferrers(last_influencer);\n        uint256[] memory cuts = new uint256[](influencers.length + 1);\n\n        uint numberOfInfluencers = influencers.length;\n        for (uint i = 0; i < numberOfInfluencers; i++) {\n            address influencer = influencers[i];\n            cuts[i] = getReferrerCut(influencer);\n        }\n        cuts[influencers.length] = getReferrerCut(last_influencer);\n        return cuts;\n    }\n\n    /**\n     * @notice Function to check available amount of the tokens on the contract\n     */\n    function getAvailableAndNonReservedTokensAmount()\n    public\n    view\n    returns (uint)\n    {\n        uint inventoryBalance = getTokenBalance(assetContractERC20);\n        if(assetContractERC20 == twoKeyEconomy) {\n            return (inventoryBalance.sub(reservedAmountOfTokens.add(reservedAmount2keyForRewards)));\n        }\n        return (inventoryBalance.sub(reservedAmountOfTokens));\n    }\n\n    /**\n     * @notice Function to fetch contractor balance in ETH\n     * @dev only contractor can call this function, otherwise it will revert\n     * @return value of contractor balance in ETH WEI\n     */\n    function getContractorBalance()\n    external\n    view\n    returns (uint)\n    {\n        return contractorBalance;\n    }\n\n    /**\n     * @notice Function where contractor can withdraw his earnings after campaign ends\n     * @dev onlyContractor can call this function\n     */\n    function withdrawContractor()\n    public\n    onlyContractor\n    {\n        withdrawContractorInternal();\n    }\n\n\n    /**\n     * @notice Function to withdraw remaining rewards inventory in the contract\n     */\n    function withdrawRemainingRewardsInventory()\n    internal\n    returns (uint)\n    {\n        uint tokensBalance = getTokenBalance(twoKeyEconomy);\n        uint rewardsNotSpent = tokensBalance.sub(reservedAmount2keyForRewards);\n        if(rewardsNotSpent > 0) {\n            IERC20(twoKeyEconomy).transfer(contractor, rewardsNotSpent);\n        }\n        return rewardsNotSpent;\n    }\n\n\n    /**\n     * @notice Function where contractor can withdraw all unsold tokens and all inventory which is not spent\n     * from his campaign once time requirement is satisfied\n     */\n    function withdrawUnsoldTokens() public onlyContractor {\n        require(ITwoKeyAcquisitionLogicHandler(logicHandler).canContractorWithdrawUnsoldTokens() == true);\n        uint unsoldTokens = getAvailableAndNonReservedTokensAmount();\n        IERC20(assetContractERC20).transfer(contractor, unsoldTokens);\n\n        if(assetContractERC20 != twoKeyEconomy) {\n            if(boughtRewardsWithEther == false) {\n                withdrawRemainingRewardsInventory();\n            } else {\n                if(block.timestamp >= ITwoKeyAdmin(getContractProxyAddress(\"TwoKeyAdmin\")).getTwoKeyRewardsReleaseDate() == true) {\n                    uint rewardsNotSpent = withdrawRemainingRewardsInventory();\n                    IUpgradableExchange(getContractProxyAddress(\"TwoKeyUpgradableExchange\"))\n                        .report2KEYWithdrawnFromNetwork(rewardsNotSpent);\n                }\n            }\n        }\n    }\n\n}\n\n",
  "sourcePath": "/Users/nikolamadjarevic/Desktop/2key/contracts/contracts/2key/acquisition-campaign-contracts/TwoKeyAcquisitionCampaignERC20.sol",
  "compiler": {
    "name": "solc",
    "version": "0.4.24+commit.e67f0147.Emscripten.clang"
  },
  "schemaVersion": "2.0.1",
  "updatedAt": "2019-11-07T08:14:37.762Z"
}