{
  "contractName": "TwoKeyPlasmaSingletoneRegistry",
  "abi": [
    {
      "constant": true,
      "inputs": [],
      "name": "deployer",
      "outputs": [
        {
          "name": "",
          "type": "address"
        }
      ],
      "payable": false,
      "stateMutability": "view",
      "type": "function"
    },
    {
      "inputs": [],
      "payable": false,
      "stateMutability": "nonpayable",
      "type": "constructor"
    },
    {
      "anonymous": false,
      "inputs": [
        {
          "indexed": false,
          "name": "logicProxy",
          "type": "address"
        },
        {
          "indexed": false,
          "name": "storageProxy",
          "type": "address"
        }
      ],
      "name": "ProxiesDeployed",
      "type": "event"
    },
    {
      "anonymous": false,
      "inputs": [
        {
          "indexed": false,
          "name": "proxy",
          "type": "address"
        }
      ],
      "name": "ProxyCreated",
      "type": "event"
    },
    {
      "anonymous": false,
      "inputs": [
        {
          "indexed": false,
          "name": "version",
          "type": "string"
        },
        {
          "indexed": false,
          "name": "implementation",
          "type": "address"
        }
      ],
      "name": "VersionAdded",
      "type": "event"
    },
    {
      "constant": false,
      "inputs": [
        {
          "name": "contractName",
          "type": "string"
        },
        {
          "name": "version",
          "type": "string"
        },
        {
          "name": "implementation",
          "type": "address"
        }
      ],
      "name": "addVersion",
      "outputs": [],
      "payable": false,
      "stateMutability": "nonpayable",
      "type": "function"
    },
    {
      "constant": false,
      "inputs": [
        {
          "name": "contractLogicName",
          "type": "string"
        },
        {
          "name": "contractStorageName",
          "type": "string"
        },
        {
          "name": "contractLogicImplementation",
          "type": "address"
        },
        {
          "name": "contractStorageImplementation",
          "type": "address"
        },
        {
          "name": "version",
          "type": "string"
        }
      ],
      "name": "addVersionDuringCreation",
      "outputs": [],
      "payable": false,
      "stateMutability": "nonpayable",
      "type": "function"
    },
    {
      "constant": true,
      "inputs": [
        {
          "name": "contractName",
          "type": "string"
        },
        {
          "name": "version",
          "type": "string"
        }
      ],
      "name": "getVersion",
      "outputs": [
        {
          "name": "",
          "type": "address"
        }
      ],
      "payable": false,
      "stateMutability": "view",
      "type": "function"
    },
    {
      "constant": true,
      "inputs": [
        {
          "name": "contractName",
          "type": "string"
        }
      ],
      "name": "getLatestContractVersion",
      "outputs": [
        {
          "name": "",
          "type": "string"
        }
      ],
      "payable": false,
      "stateMutability": "view",
      "type": "function"
    },
    {
      "constant": true,
      "inputs": [
        {
          "name": "_contractName",
          "type": "string"
        }
      ],
      "name": "getContractProxyAddress",
      "outputs": [
        {
          "name": "",
          "type": "address"
        }
      ],
      "payable": false,
      "stateMutability": "view",
      "type": "function"
    },
    {
      "constant": false,
      "inputs": [
        {
          "name": "contractName",
          "type": "string"
        },
        {
          "name": "contractNameStorage",
          "type": "string"
        },
        {
          "name": "version",
          "type": "string"
        }
      ],
      "name": "createProxy",
      "outputs": [],
      "payable": false,
      "stateMutability": "nonpayable",
      "type": "function"
    },
    {
      "constant": false,
      "inputs": [
        {
          "name": "contractName",
          "type": "string"
        },
        {
          "name": "version",
          "type": "string"
        }
      ],
      "name": "upgradeContract",
      "outputs": [],
      "payable": false,
      "stateMutability": "nonpayable",
      "type": "function"
    }
  ],
  "bytecode": "0x608060405234801561001057600080fd5b50336000806101000a81548173ffffffffffffffffffffffffffffffffffffffff021916908373ffffffffffffffffffffffffffffffffffffffff16021790555061224f806100606000396000f30060806040526004361062000097576000357c0100000000000000000000000000000000000000000000000000000000900463ffffffff16806333ef5846146200009c5780633854355214620001945780634895392914620002865780634d4a76f51462000338578063a34d1806146200040a578063d5f3948814620004f2578063db7a6d90146200054c578063e62111c014620005f8575b600080fd5b348015620000a957600080fd5b5062000192600480360381019080803590602001908201803590602001908080601f0160208091040260200160405190810160405280939291908181526020018383808284378201915050505050509192919290803590602001908201803590602001908080601f0160208091040260200160405190810160405280939291908181526020018383808284378201915050505050509192919290803590602001908201803590602001908080601f016020809104026020016040519081016040528093929190818152602001838380828437820191505050505050919291929050505062000730565b005b348015620001a157600080fd5b5062000244600480360381019080803590602001908201803590602001908080601f0160208091040260200160405190810160405280939291908181526020018383808284378201915050505050509192919290803590602001908201803590602001908080601f016020809104026020016040519081016040528093929190818152602001838380828437820191505050505050919291929050505062000a77565b604051808273ffffffffffffffffffffffffffffffffffffffff1673ffffffffffffffffffffffffffffffffffffffff16815260200191505060405180910390f35b3480156200029357600080fd5b5062000336600480360381019080803590602001908201803590602001908080601f0160208091040260200160405190810160405280939291908181526020018383808284378201915050505050509192919290803590602001908201803590602001908080601f016020809104026020016040519081016040528093929190818152602001838380828437820191505050505050919291929050505062000b7a565b005b3480156200034557600080fd5b5062000408600480360381019080803590602001908201803590602001908080601f0160208091040260200160405190810160405280939291908181526020018383808284378201915050505050509192919290803590602001908201803590602001908080601f0160208091040260200160405190810160405280939291908181526020018383808284378201915050505050509192919290803573ffffffffffffffffffffffffffffffffffffffff16906020019092919050505062000d8f565b005b3480156200041757600080fd5b5062000474600480360381019080803590602001908201803590602001908080601f0160208091040260200160405190810160405280939291908181526020018383808284378201915050505050509192919290505050620012c1565b6040518080602001828103825283818151815260200191508051906020019080838360005b83811015620004b657808201518184015260208101905062000499565b50505050905090810190601f168015620004e45780820380516001836020036101000a031916815260200191505b509250505060405180910390f35b348015620004ff57600080fd5b506200050a620013d4565b604051808273ffffffffffffffffffffffffffffffffffffffff1673ffffffffffffffffffffffffffffffffffffffff16815260200191505060405180910390f35b3480156200055957600080fd5b50620005b6600480360381019080803590602001908201803590602001908080601f0160208091040260200160405190810160405280939291908181526020018383808284378201915050505050509192919290505050620013f9565b604051808273ffffffffffffffffffffffffffffffffffffffff1673ffffffffffffffffffffffffffffffffffffffff16815260200191505060405180910390f35b3480156200060557600080fd5b506200072e600480360381019080803590602001908201803590602001908080601f0160208091040260200160405190810160405280939291908181526020018383808284378201915050505050509192919290803590602001908201803590602001908080601f0160208091040260200160405190810160405280939291908181526020018383808284378201915050505050509192919290803573ffffffffffffffffffffffffffffffffffffffff169060200190929190803573ffffffffffffffffffffffffffffffffffffffff169060200190929190803590602001908201803590602001908080601f016020809104026020016040519081016040528093929190818152602001838380828437820191505050505050919291929050505062001490565b005b6000806000600260405180807f54776f4b6579506c61736d614d61696e7461696e657273526567697374727900815250601f019050908152602001604051809103902060009054906101000a900473ffffffffffffffffffffffffffffffffffffffff1690506000809054906101000a900473ffffffffffffffffffffffffffffffffffffffff1673ffffffffffffffffffffffffffffffffffffffff163373ffffffffffffffffffffffffffffffffffffffff161480620008c757508073ffffffffffffffffffffffffffffffffffffffff1663cd2a81dc336040518263ffffffff167c0100000000000000000000000000000000000000000000000000000000028152600401808273ffffffffffffffffffffffffffffffffffffffff1673ffffffffffffffffffffffffffffffffffffffff168152602001915050602060405180830381600087803b1580156200088957600080fd5b505af11580156200089e573d6000803e3d6000fd5b505050506040513d6020811015620008b557600080fd5b81019080805190602001909291905050505b1515620008d357600080fd5b620008df868562001a1e565b9250620008ed858562001a1e565b91508173ffffffffffffffffffffffffffffffffffffffff166328474b8e84336040518363ffffffff167c0100000000000000000000000000000000000000000000000000000000028152600401808373ffffffffffffffffffffffffffffffffffffffff1673ffffffffffffffffffffffffffffffffffffffff1681526020018273ffffffffffffffffffffffffffffffffffffffff1673ffffffffffffffffffffffffffffffffffffffff16815260200192505050600060405180830381600087803b158015620009bf57600080fd5b505af1158015620009d4573d6000803e3d6000fd5b505050507f4f77447014a5aac8b38888b4720a78a43d44a6301dbf1b456c1da3715d5a5df48383604051808373ffffffffffffffffffffffffffffffffffffffff1673ffffffffffffffffffffffffffffffffffffffff1681526020018273ffffffffffffffffffffffffffffffffffffffff1673ffffffffffffffffffffffffffffffffffffffff1681526020019250505060405180910390a1505050505050565b60006001836040518082805190602001908083835b60208310151562000ab3578051825260208201915060208101905060208303925062000a8c565b6001836020036101000a0380198251168184511680821785525050505050509050019150509081526020016040518091039020826040518082805190602001908083835b60208310151562000b1e578051825260208201915060208101905060208303925062000af7565b6001836020036101000a038019825116818451168082178552505050505050905001915050908152602001604051809103902060009054906101000a900473ffffffffffffffffffffffffffffffffffffffff16905092915050565b6000806000809054906101000a900473ffffffffffffffffffffffffffffffffffffffff1673ffffffffffffffffffffffffffffffffffffffff163373ffffffffffffffffffffffffffffffffffffffff1614151562000bd957600080fd5b62000be484620013f9565b915062000bf2848462000a77565b90508173ffffffffffffffffffffffffffffffffffffffff16632bc38f788585846040518463ffffffff167c01000000000000000000000000000000000000000000000000000000000281526004018080602001806020018473ffffffffffffffffffffffffffffffffffffffff1673ffffffffffffffffffffffffffffffffffffffff168152602001838103835286818151815260200191508051906020019080838360005b8381101562000cb657808201518184015260208101905062000c99565b50505050905090810190601f16801562000ce45780820380516001836020036101000a031916815260200191505b50838103825285818151815260200191508051906020019080838360005b8381101562000d1f57808201518184015260208101905062000d02565b50505050905090810190601f16801562000d4d5780820380516001836020036101000a031916815260200191505b5095505050505050600060405180830381600087803b15801562000d7057600080fd5b505af115801562000d85573d6000803e3d6000fd5b5050505050505050565b6000600260405180807f54776f4b6579506c61736d614d61696e7461696e657273526567697374727900815250601f019050908152602001604051809103902060009054906101000a900473ffffffffffffffffffffffffffffffffffffffff1690506000809054906101000a900473ffffffffffffffffffffffffffffffffffffffff1673ffffffffffffffffffffffffffffffffffffffff163373ffffffffffffffffffffffffffffffffffffffff16148062000f2357508073ffffffffffffffffffffffffffffffffffffffff1663cd2a81dc336040518263ffffffff167c0100000000000000000000000000000000000000000000000000000000028152600401808273ffffffffffffffffffffffffffffffffffffffff1673ffffffffffffffffffffffffffffffffffffffff168152602001915050602060405180830381600087803b15801562000ee557600080fd5b505af115801562000efa573d6000803e3d6000fd5b505050506040513d602081101562000f1157600080fd5b81019080805190602001909291905050505b151562000f2f57600080fd5b60006001856040518082805190602001908083835b60208310151562000f6b578051825260208201915060208101905060208303925062000f44565b6001836020036101000a0380198251168184511680821785525050505050509050019150509081526020016040518091039020846040518082805190602001908083835b60208310151562000fd6578051825260208201915060208101905060208303925062000faf565b6001836020036101000a038019825116818451168082178552505050505050905001915050908152602001604051809103902060009054906101000a900473ffffffffffffffffffffffffffffffffffffffff1673ffffffffffffffffffffffffffffffffffffffff161415156200104d57600080fd5b816001856040518082805190602001908083835b60208310151562001088578051825260208201915060208101905060208303925062001061565b6001836020036101000a0380198251168184511680821785525050505050509050019150509081526020016040518091039020846040518082805190602001908083835b602083101515620010f35780518252602082019150602081019050602083039250620010cc565b6001836020036101000a038019825116818451168082178552505050505050905001915050908152602001604051809103902060006101000a81548173ffffffffffffffffffffffffffffffffffffffff021916908373ffffffffffffffffffffffffffffffffffffffff160217905550826003856040518082805190602001908083835b6020831015156200119f578051825260208201915060208101905060208303925062001178565b6001836020036101000a03801982511681845116808217855250505050505090500191505090815260200160405180910390209080519060200190620011e792919062001be4565b507fe2a08c9e50f4a219841f60ac40fa9d1f2cccb83ac2d3439c8c568fdf1f7c19e4838360405180806020018373ffffffffffffffffffffffffffffffffffffffff1673ffffffffffffffffffffffffffffffffffffffff168152602001828103825284818151815260200191508051906020019080838360005b838110156200127f57808201518184015260208101905062001262565b50505050905090810190601f168015620012ad5780820380516001836020036101000a031916815260200191505b50935050505060405180910390a150505050565b60606003826040518082805190602001908083835b602083101515620012fd5780518252602082019150602081019050602083039250620012d6565b6001836020036101000a03801982511681845116808217855250505050505090500191505090815260200160405180910390208054600181600116156101000203166002900480601f016020809104026020016040519081016040528092919081815260200182805460018160011615610100020316600290048015620013c85780601f106200139c57610100808354040283529160200191620013c8565b820191906000526020600020905b815481529060010190602001808311620013aa57829003601f168201915b50505050509050919050565b6000809054906101000a900473ffffffffffffffffffffffffffffffffffffffff1681565b60006002826040518082805190602001908083835b6020831015156200143557805182526020820191506020810190506020830392506200140e565b6001836020036101000a038019825116818451168082178552505050505050905001915050908152602001604051809103902060009054906101000a900473ffffffffffffffffffffffffffffffffffffffff169050919050565b6000600260405180807f54776f4b6579506c61736d614d61696e7461696e657273526567697374727900815250601f019050908152602001604051809103902060009054906101000a900473ffffffffffffffffffffffffffffffffffffffff1690506000809054906101000a900473ffffffffffffffffffffffffffffffffffffffff1673ffffffffffffffffffffffffffffffffffffffff163373ffffffffffffffffffffffffffffffffffffffff1614806200162457508073ffffffffffffffffffffffffffffffffffffffff1663cd2a81dc336040518263ffffffff167c0100000000000000000000000000000000000000000000000000000000028152600401808273ffffffffffffffffffffffffffffffffffffffff1673ffffffffffffffffffffffffffffffffffffffff168152602001915050602060405180830381600087803b158015620015e657600080fd5b505af1158015620015fb573d6000803e3d6000fd5b505050506040513d60208110156200161257600080fd5b81019080805190602001909291905050505b15156200163057600080fd5b60405180807f312e302e300000000000000000000000000000000000000000000000000000008152506005019050604051809103902060001916826040518082805190602001908083835b602083101515620016a257805182526020820191506020810190506020830392506200167b565b6001836020036101000a038019825116818451168082178552505050505050905001915050604051809103902060001916141515620016e057600080fd5b836001876040518082805190602001908083835b6020831015156200171b5780518252602082019150602081019050602083039250620016f4565b6001836020036101000a0380198251168184511680821785525050505050509050019150509081526020016040518091039020836040518082805190602001908083835b6020831015156200178657805182526020820191506020810190506020830392506200175f565b6001836020036101000a038019825116818451168082178552505050505050905001915050908152602001604051809103902060006101000a81548173ffffffffffffffffffffffffffffffffffffffff021916908373ffffffffffffffffffffffffffffffffffffffff160217905550826001866040518082805190602001908083835b6020831015156200183257805182526020820191506020810190506020830392506200180b565b6001836020036101000a0380198251168184511680821785525050505050509050019150509081526020016040518091039020836040518082805190602001908083835b6020831015156200189d578051825260208201915060208101905060208303925062001876565b6001836020036101000a038019825116818451168082178552505050505050905001915050908152602001604051809103902060006101000a81548173ffffffffffffffffffffffffffffffffffffffff021916908373ffffffffffffffffffffffffffffffffffffffff160217905550816003876040518082805190602001908083835b60208310151562001949578051825260208201915060208101905060208303925062001922565b6001836020036101000a038019825116818451168082178552505050505050905001915050908152602001604051809103902090805190602001906200199192919062001be4565b50816003866040518082805190602001908083835b602083101515620019cd5780518252602082019150602081019050602083039250620019a6565b6001836020036101000a0380198251168184511680821785525050505050509050019150509081526020016040518091039020908051906020019062001a1592919062001be4565b50505050505050565b600080838362001a2d62001c6b565b808060200180602001838103835285818151815260200191508051906020019080838360005b8381101562001a7057808201518184015260208101905062001a53565b50505050905090810190601f16801562001a9e5780820380516001836020036101000a031916815260200191505b50838103825284818151815260200191508051906020019080838360005b8381101562001ad957808201518184015260208101905062001abc565b50505050905090810190601f16801562001b075780820380516001836020036101000a031916815260200191505b50945050505050604051809103906000f08015801562001b2b573d6000803e3d6000fd5b509050806002856040518082805190602001908083835b60208310151562001b69578051825260208201915060208101905060208303925062001b42565b6001836020036101000a038019825116818451168082178552505050505050905001915050908152602001604051809103902060006101000a81548173ffffffffffffffffffffffffffffffffffffffff021916908373ffffffffffffffffffffffffffffffffffffffff1602179055508091505092915050565b828054600181600116156101000203166002900490600052602060002090601f016020900481019282601f1062001c2757805160ff191683800117855562001c58565b8280016001018555821562001c58579182015b8281111562001c5757825182559160200191906001019062001c3a565b5b50905062001c67919062001c7c565b5090565b60405161057f8062001ca583390190565b62001ca191905b8082111562001c9d57600081600090555060010162001c83565b5090565b905600608060405234801561001057600080fd5b5060405161057f38038061057f8339810180604052810190808051820192919060200180518201929190505050336000806101000a81548173ffffffffffffffffffffffffffffffffffffffff021916908373ffffffffffffffffffffffffffffffffffffffff1602179055506000809054906101000a900473ffffffffffffffffffffffffffffffffffffffff1673ffffffffffffffffffffffffffffffffffffffff16633854355283836040518363ffffffff167c0100000000000000000000000000000000000000000000000000000000028152600401808060200180602001838103835285818151815260200191508051906020019080838360005b8381101561012b578082015181840152602081019050610110565b50505050905090810190601f1680156101585780820380516001836020036101000a031916815260200191505b50838103825284818151815260200191508051906020019080838360005b83811015610191578082015181840152602081019050610176565b50505050905090810190601f1680156101be5780820380516001836020036101000a031916815260200191505b50945050505050602060405180830381600087803b1580156101df57600080fd5b505af11580156101f3573d6000803e3d6000fd5b505050506040513d602081101561020957600080fd5b8101908080519060200190929190505050600160006101000a81548173ffffffffffffffffffffffffffffffffffffffff021916908373ffffffffffffffffffffffffffffffffffffffff16021790555050506103148061026b6000396000f30060806040526004361061004c576000357c0100000000000000000000000000000000000000000000000000000000900463ffffffff1680632bc38f78146100bb5780635c60da1b1461018a575b60006100566101e1565b9050600073ffffffffffffffffffffffffffffffffffffffff168173ffffffffffffffffffffffffffffffffffffffff161415151561009457600080fd5b60405136600082376000803683855af43d806000843e81600081146100b7578184f35b8184fd5b3480156100c757600080fd5b50610188600480360381019080803590602001908201803590602001908080601f0160208091040260200160405190810160405280939291908181526020018383808284378201915050505050509192919290803590602001908201803590602001908080601f0160208091040260200160405190810160405280939291908181526020018383808284378201915050505050509192919290803573ffffffffffffffffffffffffffffffffffffffff16906020019092919050505061020b565b005b34801561019657600080fd5b5061019f6101e1565b604051808273ffffffffffffffffffffffffffffffffffffffff1673ffffffffffffffffffffffffffffffffffffffff16815260200191505060405180910390f35b6000600160009054906101000a900473ffffffffffffffffffffffffffffffffffffffff16905090565b6000809054906101000a900473ffffffffffffffffffffffffffffffffffffffff1673ffffffffffffffffffffffffffffffffffffffff163373ffffffffffffffffffffffffffffffffffffffff1614151561026657600080fd5b600073ffffffffffffffffffffffffffffffffffffffff168173ffffffffffffffffffffffffffffffffffffffff16141515156102a257600080fd5b80600160006101000a81548173ffffffffffffffffffffffffffffffffffffffff021916908373ffffffffffffffffffffffffffffffffffffffff1602179055505050505600a165627a7a72305820d54beae2a10d67877afbbf683191cd56b53cd70acf34099dc1e01d94e3ba936b0029a165627a7a72305820d20af17a3baff74c6c1e37ef095684193e9532a9cc4cbae71976fa1d0f7601540029",
  "source": "pragma solidity ^0.4.24;\n\nimport \"../interfaces/ITwoKeySingletonesRegistry.sol\";\nimport \"../interfaces/IStructuredStorage.sol\";\nimport \"../interfaces/ITwoKeyMaintainersRegistry.sol\";\nimport \"../upgradability/UpgradeabilityProxy.sol\";\nimport \"../upgradability/Upgradeable.sol\";\n\n/**\n * @author Nikola Madjarevic\n */\ncontract TwoKeyPlasmaSingletoneRegistry is ITwoKeySingletonesRegistry {\n\n    address public deployer;\n\n    mapping (string => mapping(string => address)) internal versions;\n    mapping (string => address) contractToProxy;\n    mapping (string => string) contractNameToLatestVersionName;\n\n    event ProxiesDeployed(\n        address logicProxy,\n        address storageProxy\n    );\n\n    constructor() public {\n        deployer = msg.sender;\n    }\n\n    modifier onlyMaintainer {\n        address twoKeyPlasmaMaintainersRegistry = contractToProxy[\"TwoKeyPlasmaMaintainersRegistry\"];\n        require(msg.sender == deployer || ITwoKeyMaintainersRegistry(twoKeyPlasmaMaintainersRegistry).onlyMaintainer(msg.sender));\n        _;\n    }\n\n    /**\n     * @dev Registers a new version with its implementation address\n     * @param version representing the version name of the new implementation to be registered\n     * @param implementation representing the address of the new implementation to be registered\n     */\n    function addVersion(string contractName, string version, address implementation) public onlyMaintainer {\n        require(versions[contractName][version] == 0x0);\n        versions[contractName][version] = implementation;\n        contractNameToLatestVersionName[contractName] = version;\n        emit VersionAdded(version, implementation);\n    }\n\n    function addVersionDuringCreation(\n        string contractLogicName,\n        string contractStorageName,\n        address contractLogicImplementation,\n        address contractStorageImplementation,\n        string version\n    )\n    public\n    onlyMaintainer\n    {\n        // Can be called only when we're creating first time contracts\n        require(keccak256(version) == keccak256(\"1.0.0\"));\n\n        versions[contractLogicName][version] = contractLogicImplementation;\n        versions[contractStorageName][version] = contractStorageImplementation;\n\n        contractNameToLatestVersionName[contractLogicName] = version;\n        contractNameToLatestVersionName[contractStorageName] = version;\n    }\n\n    /**\n     * @dev Tells the address of the implementation for a given version\n     * @param version to query the implementation of\n     * @return address of the implementation registered for the given version\n     */\n    function getVersion(string contractName, string version) public view returns (address) {\n        return versions[contractName][version];\n    }\n\n    /**\n     * @notice Gets the latest contract version\n     * @param contractName is the name of the contract\n     * @return string representation of the last version\n     */\n    function getLatestContractVersion(string contractName) public view returns (string) {\n        return contractNameToLatestVersionName[contractName];\n    }\n\n    /**\n     * @notice Function to return address of proxy for specific contract\n     * @param _contractName is the name of the contract we'd like to get proxy address\n     * @return is the address of the proxy for the specific contract\n     */\n    function getContractProxyAddress(string _contractName) public view returns (address) {\n        return contractToProxy[_contractName];\n    }\n\n    function deployProxy(\n        string contractName,\n        string version\n    )\n    internal\n    returns (address)\n    {\n        UpgradeabilityProxy proxy = new UpgradeabilityProxy(contractName, version);\n        contractToProxy[contractName] = proxy;\n        return address(proxy);\n    }\n\n    /**\n     * @dev Creates an upgradeable proxy for both Storage and Logic\n     * @param version representing the first version to be set for the proxy\n     */\n    function createProxy(\n        string contractName,\n        string contractNameStorage,\n        string version\n    )\n    public\n    onlyMaintainer\n    {\n        address logicProxy = deployProxy(contractName, version);\n        address storageProxy = deployProxy(contractNameStorage, version);\n\n        IStructuredStorage(storageProxy).setProxyLogicContractAndDeployer(logicProxy, msg.sender);\n        emit ProxiesDeployed(logicProxy, storageProxy);\n    }\n\n    function upgradeContract(\n        string contractName,\n        string version\n    )\n    public\n    {\n        require(msg.sender == deployer);\n        address proxyAddress = getContractProxyAddress(contractName);\n        address _impl = getVersion(contractName, version);\n        UpgradeabilityProxy(proxyAddress).upgradeTo(contractName, version, _impl);\n    }\n\n}\n",
  "sourcePath": "/Users/nikolamadjarevic/Desktop/2key/contracts/contracts/2key/non-upgradable-singletons/TwoKeyPlasmaSingletoneRegistry.sol",
  "compiler": {
    "name": "solc",
    "version": "0.4.24+commit.e67f0147.Emscripten.clang"
  },
  "schemaVersion": "2.0.1",
  "updatedAt": "2019-11-07T08:15:06.218Z"
}