{
  "contractName": "TwoKeyEconomy",
  "abi": [
    {
      "constant": true,
      "inputs": [],
      "name": "name",
      "outputs": [
        {
          "name": "",
          "type": "string"
        }
      ],
      "payable": false,
      "stateMutability": "view",
      "type": "function"
    },
    {
      "constant": false,
      "inputs": [
        {
          "name": "_spender",
          "type": "address"
        },
        {
          "name": "_value",
          "type": "uint256"
        }
      ],
      "name": "approve",
      "outputs": [
        {
          "name": "",
          "type": "bool"
        }
      ],
      "payable": false,
      "stateMutability": "nonpayable",
      "type": "function"
    },
    {
      "constant": true,
      "inputs": [],
      "name": "twoKeyAdmin",
      "outputs": [
        {
          "name": "",
          "type": "address"
        }
      ],
      "payable": false,
      "stateMutability": "view",
      "type": "function"
    },
    {
      "constant": true,
      "inputs": [],
      "name": "totalSupply",
      "outputs": [
        {
          "name": "",
          "type": "uint256"
        }
      ],
      "payable": false,
      "stateMutability": "view",
      "type": "function"
    },
    {
      "constant": false,
      "inputs": [
        {
          "name": "_from",
          "type": "address"
        },
        {
          "name": "_to",
          "type": "address"
        },
        {
          "name": "_value",
          "type": "uint256"
        }
      ],
      "name": "transferFrom",
      "outputs": [
        {
          "name": "",
          "type": "bool"
        }
      ],
      "payable": false,
      "stateMutability": "nonpayable",
      "type": "function"
    },
    {
      "constant": true,
      "inputs": [],
      "name": "decimals",
      "outputs": [
        {
          "name": "",
          "type": "uint8"
        }
      ],
      "payable": false,
      "stateMutability": "view",
      "type": "function"
    },
    {
      "constant": false,
      "inputs": [
        {
          "name": "_spender",
          "type": "address"
        },
        {
          "name": "_subtractedValue",
          "type": "uint256"
        }
      ],
      "name": "decreaseApproval",
      "outputs": [
        {
          "name": "",
          "type": "bool"
        }
      ],
      "payable": false,
      "stateMutability": "nonpayable",
      "type": "function"
    },
    {
      "constant": true,
      "inputs": [
        {
          "name": "_owner",
          "type": "address"
        }
      ],
      "name": "balanceOf",
      "outputs": [
        {
          "name": "",
          "type": "uint256"
        }
      ],
      "payable": false,
      "stateMutability": "view",
      "type": "function"
    },
    {
      "constant": true,
      "inputs": [],
      "name": "symbol",
      "outputs": [
        {
          "name": "",
          "type": "string"
        }
      ],
      "payable": false,
      "stateMutability": "view",
      "type": "function"
    },
    {
      "constant": false,
      "inputs": [
        {
          "name": "_to",
          "type": "address"
        },
        {
          "name": "_value",
          "type": "uint256"
        }
      ],
      "name": "transfer",
      "outputs": [
        {
          "name": "",
          "type": "bool"
        }
      ],
      "payable": false,
      "stateMutability": "nonpayable",
      "type": "function"
    },
    {
      "constant": false,
      "inputs": [
        {
          "name": "_spender",
          "type": "address"
        },
        {
          "name": "_addedValue",
          "type": "uint256"
        }
      ],
      "name": "increaseApproval",
      "outputs": [
        {
          "name": "",
          "type": "bool"
        }
      ],
      "payable": false,
      "stateMutability": "nonpayable",
      "type": "function"
    },
    {
      "constant": true,
      "inputs": [
        {
          "name": "_owner",
          "type": "address"
        },
        {
          "name": "_spender",
          "type": "address"
        }
      ],
      "name": "allowance",
      "outputs": [
        {
          "name": "",
          "type": "uint256"
        }
      ],
      "payable": false,
      "stateMutability": "view",
      "type": "function"
    },
    {
      "constant": true,
      "inputs": [],
      "name": "transfersFrozen",
      "outputs": [
        {
          "name": "",
          "type": "bool"
        }
      ],
      "payable": false,
      "stateMutability": "view",
      "type": "function"
    },
    {
      "constant": true,
      "inputs": [],
      "name": "twoKeySingletonRegistry",
      "outputs": [
        {
          "name": "",
          "type": "address"
        }
      ],
      "payable": false,
      "stateMutability": "view",
      "type": "function"
    },
    {
      "inputs": [
        {
          "name": "_twoKeySingletonRegistry",
          "type": "address"
        }
      ],
      "payable": false,
      "stateMutability": "nonpayable",
      "type": "constructor"
    },
    {
      "anonymous": false,
      "inputs": [
        {
          "indexed": true,
          "name": "from",
          "type": "address"
        },
        {
          "indexed": true,
          "name": "to",
          "type": "address"
        },
        {
          "indexed": false,
          "name": "value",
          "type": "uint256"
        }
      ],
      "name": "Transfer",
      "type": "event"
    },
    {
      "anonymous": false,
      "inputs": [
        {
          "indexed": true,
          "name": "tokenOwner",
          "type": "address"
        },
        {
          "indexed": true,
          "name": "spender",
          "type": "address"
        },
        {
          "indexed": false,
          "name": "tokens",
          "type": "uint256"
        }
      ],
      "name": "Approval",
      "type": "event"
    },
    {
      "constant": false,
      "inputs": [],
      "name": "freezeTransfers",
      "outputs": [],
      "payable": false,
      "stateMutability": "nonpayable",
      "type": "function"
    },
    {
      "constant": false,
      "inputs": [],
      "name": "unfreezeTransfers",
      "outputs": [],
      "payable": false,
      "stateMutability": "nonpayable",
      "type": "function"
    }
  ],
  "bytecode": "0x60806040526000600360016101000a81548160ff0219169083151502179055506040805190810160405280600d81526020017f54776f4b657945636f6e6f6d7900000000000000000000000000000000000000815250600690805190602001906200006c92919062000b2f565b506040805190810160405280600481526020017f324b45590000000000000000000000000000000000000000000000000000000081525060079080519060200190620000ba92919062000b2f565b506012600860006101000a81548160ff021916908360ff160217905550348015620000e457600080fd5b506040516020806200221f83398101806040528101908080519060200190929190505050600080600083600960006101000a81548173ffffffffffffffffffffffffffffffffffffffff021916908373ffffffffffffffffffffffffffffffffffffffff160217905550600960009054906101000a900473ffffffffffffffffffffffffffffffffffffffff1673ffffffffffffffffffffffffffffffffffffffff1663db7a6d906040518163ffffffff167c010000000000000000000000000000000000000000000000000000000002815260040180806020018281038252600b8152602001807f54776f4b657941646d696e000000000000000000000000000000000000000000815250602001915050602060405180830381600087803b1580156200021157600080fd5b505af115801562000226573d6000803e3d6000fd5b505050506040513d60208110156200023d57600080fd5b8101908080519060200190929190505050600860016101000a81548173ffffffffffffffffffffffffffffffffffffffff021916908373ffffffffffffffffffffffffffffffffffffffff160217905550600960009054906101000a900473ffffffffffffffffffffffffffffffffffffffff1673ffffffffffffffffffffffffffffffffffffffff1663db7a6d906040518163ffffffff167c01000000000000000000000000000000000000000000000000000000000281526004018080602001828103825260188152602001807f54776f4b657955706772616461626c6545786368616e67650000000000000000815250602001915050602060405180830381600087803b1580156200035157600080fd5b505af115801562000366573d6000803e3d6000fd5b505050506040513d60208110156200037d57600080fd5b81019080805190602001909291905050509250600960009054906101000a900473ffffffffffffffffffffffffffffffffffffffff1673ffffffffffffffffffffffffffffffffffffffff1663db7a6d906040518163ffffffff167c01000000000000000000000000000000000000000000000000000000000281526004018080602001828103825260188152602001807f54776f4b6579436f6d6d756e697479546f6b656e506f6f6c0000000000000000815250602001915050602060405180830381600087803b1580156200045357600080fd5b505af115801562000468573d6000803e3d6000fd5b505050506040513d60208110156200047f57600080fd5b81019080805190602001909291905050509150600960009054906101000a900473ffffffffffffffffffffffffffffffffffffffff1673ffffffffffffffffffffffffffffffffffffffff1663db7a6d906040518163ffffffff167c01000000000000000000000000000000000000000000000000000000000281526004018080602001828103825260178152602001807f54776f4b65794c6f6e675465726d546f6b656e506f6f6c000000000000000000815250602001915050602060405180830381600087803b1580156200055557600080fd5b505af11580156200056a573d6000803e3d6000fd5b505050506040513d60208110156200058157600080fd5b810190808051906020019092919050505090506b033b2e3c9fd0803ce8000000600081905550620005f06064620005d3600360005462000ad964010000000002620015b4179091906401000000009004565b62000b1864010000000002620015ef179091906401000000009004565b600560008573ffffffffffffffffffffffffffffffffffffffff1673ffffffffffffffffffffffffffffffffffffffff168152602001908152602001600020819055508273ffffffffffffffffffffffffffffffffffffffff163073ffffffffffffffffffffffffffffffffffffffff167fddf252ad1be2c89b69c2b068fc378daa952ba7f163c4a11628f55a4df523b3ef620006cb6064620006ae600360005462000ad964010000000002620015b4179091906401000000009004565b62000b1864010000000002620015ef179091906401000000009004565b6040518082815260200191505060405180910390a36200072960646200070c601460005462000ad964010000000002620015b4179091906401000000009004565b62000b1864010000000002620015ef179091906401000000009004565b600560008473ffffffffffffffffffffffffffffffffffffffff1673ffffffffffffffffffffffffffffffffffffffff168152602001908152602001600020819055508173ffffffffffffffffffffffffffffffffffffffff163073ffffffffffffffffffffffffffffffffffffffff167fddf252ad1be2c89b69c2b068fc378daa952ba7f163c4a11628f55a4df523b3ef620008046064620007e7601460005462000ad964010000000002620015b4179091906401000000009004565b62000b1864010000000002620015ef179091906401000000009004565b6040518082815260200191505060405180910390a362000862606462000845602860005462000ad964010000000002620015b4179091906401000000009004565b62000b1864010000000002620015ef179091906401000000009004565b600560008373ffffffffffffffffffffffffffffffffffffffff1673ffffffffffffffffffffffffffffffffffffffff168152602001908152602001600020819055508073ffffffffffffffffffffffffffffffffffffffff163073ffffffffffffffffffffffffffffffffffffffff167fddf252ad1be2c89b69c2b068fc378daa952ba7f163c4a11628f55a4df523b3ef6200093d606462000920602860005462000ad964010000000002620015b4179091906401000000009004565b62000b1864010000000002620015ef179091906401000000009004565b6040518082815260200191505060405180910390a36200099b60646200097e602560005462000ad964010000000002620015b4179091906401000000009004565b62000b1864010000000002620015ef179091906401000000009004565b60056000600860019054906101000a900473ffffffffffffffffffffffffffffffffffffffff1673ffffffffffffffffffffffffffffffffffffffff1673ffffffffffffffffffffffffffffffffffffffff16815260200190815260200160002081905550600860019054906101000a900473ffffffffffffffffffffffffffffffffffffffff1673ffffffffffffffffffffffffffffffffffffffff163073ffffffffffffffffffffffffffffffffffffffff167fddf252ad1be2c89b69c2b068fc378daa952ba7f163c4a11628f55a4df523b3ef62000aba606462000a9d602560005462000ad964010000000002620015b4179091906401000000009004565b62000b1864010000000002620015ef179091906401000000009004565b6040518082815260200191505060405180910390a35050505062000bde565b60008083141562000aee576000905062000b12565b818302905081838281151562000b0057fe5b0414151562000b0e57600080fd5b8090505b92915050565b6000818381151562000b2657fe5b04905092915050565b828054600181600116156101000203166002900490600052602060002090601f016020900481019282601f1062000b7257805160ff191683800117855562000ba3565b8280016001018555821562000ba3579182015b8281111562000ba257825182559160200191906001019062000b85565b5b50905062000bb2919062000bb6565b5090565b62000bdb91905b8082111562000bd757600081600090555060010162000bbd565b5090565b90565b6116318062000bee6000396000f3006080604052600436106100e6576000357c0100000000000000000000000000000000000000000000000000000000900463ffffffff16806301502460146100eb57806306fdde0314610102578063095ea7b31461019257806310aaf1ba146101f757806318160ddd1461024e57806323b872dd14610279578063313ce567146102fe57806331c420d41461032f578063661884631461034657806370a08231146103ab57806395d89b4114610402578063a9059cbb14610492578063d73dd623146104f7578063dd62ed3e1461055c578063e45b8134146105d3578063f0ecd3c014610602575b600080fd5b3480156100f757600080fd5b50610100610659565b005b34801561010e57600080fd5b506101176106d2565b6040518080602001828103825283818151815260200191508051906020019080838360005b8381101561015757808201518184015260208101905061013c565b50505050905090810190601f1680156101845780820380516001836020036101000a031916815260200191505b509250505060405180910390f35b34801561019e57600080fd5b506101dd600480360381019080803573ffffffffffffffffffffffffffffffffffffffff16906020019092919080359060200190929190505050610770565b604051808215151515815260200191505060405180910390f35b34801561020357600080fd5b5061020c610862565b604051808273ffffffffffffffffffffffffffffffffffffffff1673ffffffffffffffffffffffffffffffffffffffff16815260200191505060405180910390f35b34801561025a57600080fd5b50610263610888565b6040518082815260200191505060405180910390f35b34801561028557600080fd5b506102e4600480360381019080803573ffffffffffffffffffffffffffffffffffffffff169060200190929190803573ffffffffffffffffffffffffffffffffffffffff16906020019092919080359060200190929190505050610891565b604051808215151515815260200191505060405180910390f35b34801561030a57600080fd5b50610313610c72565b604051808260ff1660ff16815260200191505060405180910390f35b34801561033b57600080fd5b50610344610c85565b005b34801561035257600080fd5b50610391600480360381019080803573ffffffffffffffffffffffffffffffffffffffff16906020019092919080359060200190929190505050610cfe565b604051808215151515815260200191505060405180910390f35b3480156103b757600080fd5b506103ec600480360381019080803573ffffffffffffffffffffffffffffffffffffffff169060200190929190505050610f90565b6040518082815260200191505060405180910390f35b34801561040e57600080fd5b50610417610fd9565b6040518080602001828103825283818151815260200191508051906020019080838360005b8381101561045757808201518184015260208101905061043c565b50505050905090810190601f1680156104845780820380516001836020036101000a031916815260200191505b509250505060405180910390f35b34801561049e57600080fd5b506104dd600480360381019080803573ffffffffffffffffffffffffffffffffffffffff16906020019092919080359060200190929190505050611077565b604051808215151515815260200191505060405180910390f35b34801561050357600080fd5b50610542600480360381019080803573ffffffffffffffffffffffffffffffffffffffff169060200190929190803590602001909291905050506112bd565b604051808215151515815260200191505060405180910390f35b34801561056857600080fd5b506105bd600480360381019080803573ffffffffffffffffffffffffffffffffffffffff169060200190929190803573ffffffffffffffffffffffffffffffffffffffff1690602001909291905050506114b9565b6040518082815260200191505060405180910390f35b3480156105df57600080fd5b506105e8611540565b604051808215151515815260200191505060405180910390f35b34801561060e57600080fd5b50610617611553565b604051808273ffffffffffffffffffffffffffffffffffffffff1673ffffffffffffffffffffffffffffffffffffffff16815260200191505060405180910390f35b600860019054906101000a900473ffffffffffffffffffffffffffffffffffffffff1673ffffffffffffffffffffffffffffffffffffffff163373ffffffffffffffffffffffffffffffffffffffff161415156106b557600080fd5b6001600360016101000a81548160ff021916908315150217905550565b60068054600181600116156101000203166002900480601f0160208091040260200160405190810160405280929190818152602001828054600181600116156101000203166002900480156107685780601f1061073d57610100808354040283529160200191610768565b820191906000526020600020905b81548152906001019060200180831161074b57829003601f168201915b505050505081565b600081600460003373ffffffffffffffffffffffffffffffffffffffff1673ffffffffffffffffffffffffffffffffffffffff16815260200190815260200160002060008573ffffffffffffffffffffffffffffffffffffffff1673ffffffffffffffffffffffffffffffffffffffff168152602001908152602001600020819055508273ffffffffffffffffffffffffffffffffffffffff163373ffffffffffffffffffffffffffffffffffffffff167f8c5be1e5ebec7d5bd14f71427d1e84f3dd0314c0f7b2291e5b200ac8c7c3b925846040518082815260200191505060405180910390a36001905092915050565b600860019054906101000a900473ffffffffffffffffffffffffffffffffffffffff1681565b60008054905090565b6000801515600360019054906101000a900460ff1615151415156108b457600080fd5b600560008573ffffffffffffffffffffffffffffffffffffffff1673ffffffffffffffffffffffffffffffffffffffff16815260200190815260200160002054821115151561090257600080fd5b600460008573ffffffffffffffffffffffffffffffffffffffff1673ffffffffffffffffffffffffffffffffffffffff16815260200190815260200160002060003373ffffffffffffffffffffffffffffffffffffffff1673ffffffffffffffffffffffffffffffffffffffff16815260200190815260200160002054821115151561098d57600080fd5b600073ffffffffffffffffffffffffffffffffffffffff168373ffffffffffffffffffffffffffffffffffffffff16141515156109c957600080fd5b610a1b82600560008773ffffffffffffffffffffffffffffffffffffffff1673ffffffffffffffffffffffffffffffffffffffff1681526020019081526020016000205461157990919063ffffffff16565b600560008673ffffffffffffffffffffffffffffffffffffffff1673ffffffffffffffffffffffffffffffffffffffff16815260200190815260200160002081905550610ab082600560008673ffffffffffffffffffffffffffffffffffffffff1673ffffffffffffffffffffffffffffffffffffffff1681526020019081526020016000205461159590919063ffffffff16565b600560008573ffffffffffffffffffffffffffffffffffffffff1673ffffffffffffffffffffffffffffffffffffffff16815260200190815260200160002081905550610b8282600460008773ffffffffffffffffffffffffffffffffffffffff1673ffffffffffffffffffffffffffffffffffffffff16815260200190815260200160002060003373ffffffffffffffffffffffffffffffffffffffff1673ffffffffffffffffffffffffffffffffffffffff1681526020019081526020016000205461157990919063ffffffff16565b600460008673ffffffffffffffffffffffffffffffffffffffff1673ffffffffffffffffffffffffffffffffffffffff16815260200190815260200160002060003373ffffffffffffffffffffffffffffffffffffffff1673ffffffffffffffffffffffffffffffffffffffff168152602001908152602001600020819055508273ffffffffffffffffffffffffffffffffffffffff168473ffffffffffffffffffffffffffffffffffffffff167fddf252ad1be2c89b69c2b068fc378daa952ba7f163c4a11628f55a4df523b3ef846040518082815260200191505060405180910390a3600190509392505050565b600860009054906101000a900460ff1681565b600860019054906101000a900473ffffffffffffffffffffffffffffffffffffffff1673ffffffffffffffffffffffffffffffffffffffff163373ffffffffffffffffffffffffffffffffffffffff16141515610ce157600080fd5b6000600360016101000a81548160ff021916908315150217905550565b600080600460003373ffffffffffffffffffffffffffffffffffffffff1673ffffffffffffffffffffffffffffffffffffffff16815260200190815260200160002060008573ffffffffffffffffffffffffffffffffffffffff1673ffffffffffffffffffffffffffffffffffffffff1681526020019081526020016000205490508083101515610e10576000600460003373ffffffffffffffffffffffffffffffffffffffff1673ffffffffffffffffffffffffffffffffffffffff16815260200190815260200160002060008673ffffffffffffffffffffffffffffffffffffffff1673ffffffffffffffffffffffffffffffffffffffff16815260200190815260200160002081905550610ea4565b610e23838261157990919063ffffffff16565b600460003373ffffffffffffffffffffffffffffffffffffffff1673ffffffffffffffffffffffffffffffffffffffff16815260200190815260200160002060008673ffffffffffffffffffffffffffffffffffffffff1673ffffffffffffffffffffffffffffffffffffffff168152602001908152602001600020819055505b8373ffffffffffffffffffffffffffffffffffffffff163373ffffffffffffffffffffffffffffffffffffffff167f8c5be1e5ebec7d5bd14f71427d1e84f3dd0314c0f7b2291e5b200ac8c7c3b925600460003373ffffffffffffffffffffffffffffffffffffffff1673ffffffffffffffffffffffffffffffffffffffff16815260200190815260200160002060008873ffffffffffffffffffffffffffffffffffffffff1673ffffffffffffffffffffffffffffffffffffffff168152602001908152602001600020546040518082815260200191505060405180910390a3600191505092915050565b6000600560008373ffffffffffffffffffffffffffffffffffffffff1673ffffffffffffffffffffffffffffffffffffffff168152602001908152602001600020549050919050565b60078054600181600116156101000203166002900480601f01602080910402602001604051908101604052809291908181526020018280546001816001161561010002031660029004801561106f5780601f106110445761010080835404028352916020019161106f565b820191906000526020600020905b81548152906001019060200180831161105257829003601f168201915b505050505081565b6000801515600360019054906101000a900460ff16151514151561109a57600080fd5b600560003373ffffffffffffffffffffffffffffffffffffffff1673ffffffffffffffffffffffffffffffffffffffff1681526020019081526020016000205482111515156110e857600080fd5b600073ffffffffffffffffffffffffffffffffffffffff168373ffffffffffffffffffffffffffffffffffffffff161415151561112457600080fd5b61117682600560003373ffffffffffffffffffffffffffffffffffffffff1673ffffffffffffffffffffffffffffffffffffffff1681526020019081526020016000205461157990919063ffffffff16565b600560003373ffffffffffffffffffffffffffffffffffffffff1673ffffffffffffffffffffffffffffffffffffffff1681526020019081526020016000208190555061120b82600560008673ffffffffffffffffffffffffffffffffffffffff1673ffffffffffffffffffffffffffffffffffffffff1681526020019081526020016000205461159590919063ffffffff16565b600560008573ffffffffffffffffffffffffffffffffffffffff1673ffffffffffffffffffffffffffffffffffffffff168152602001908152602001600020819055508273ffffffffffffffffffffffffffffffffffffffff163373ffffffffffffffffffffffffffffffffffffffff167fddf252ad1be2c89b69c2b068fc378daa952ba7f163c4a11628f55a4df523b3ef846040518082815260200191505060405180910390a36001905092915050565b600061134e82600460003373ffffffffffffffffffffffffffffffffffffffff1673ffffffffffffffffffffffffffffffffffffffff16815260200190815260200160002060008673ffffffffffffffffffffffffffffffffffffffff1673ffffffffffffffffffffffffffffffffffffffff1681526020019081526020016000205461159590919063ffffffff16565b600460003373ffffffffffffffffffffffffffffffffffffffff1673ffffffffffffffffffffffffffffffffffffffff16815260200190815260200160002060008573ffffffffffffffffffffffffffffffffffffffff1673ffffffffffffffffffffffffffffffffffffffff168152602001908152602001600020819055508273ffffffffffffffffffffffffffffffffffffffff163373ffffffffffffffffffffffffffffffffffffffff167f8c5be1e5ebec7d5bd14f71427d1e84f3dd0314c0f7b2291e5b200ac8c7c3b925600460003373ffffffffffffffffffffffffffffffffffffffff1673ffffffffffffffffffffffffffffffffffffffff16815260200190815260200160002060008773ffffffffffffffffffffffffffffffffffffffff1673ffffffffffffffffffffffffffffffffffffffff168152602001908152602001600020546040518082815260200191505060405180910390a36001905092915050565b6000600460008473ffffffffffffffffffffffffffffffffffffffff1673ffffffffffffffffffffffffffffffffffffffff16815260200190815260200160002060008373ffffffffffffffffffffffffffffffffffffffff1673ffffffffffffffffffffffffffffffffffffffff16815260200190815260200160002054905092915050565b600360019054906101000a900460ff1681565b600960009054906101000a900473ffffffffffffffffffffffffffffffffffffffff1681565b600082821115151561158a57600080fd5b818303905092915050565b600081830190508281101515156115ab57600080fd5b80905092915050565b6000808314156115c757600090506115e9565b81830290508183828115156115d857fe5b041415156115e557600080fd5b8090505b92915050565b600081838115156115fc57fe5b049050929150505600a165627a7a72305820922897e322f7a015e5ef3620f90f58bd84403c2c9369d8c4dc55fc59544b81fd0029",
  "source": "pragma solidity 0.4.24;\n\n\nimport \"../interfaces/ITwoKeySingletoneRegistryFetchAddress.sol\";\nimport \"../ERC20/StandardTokenModified.sol\";\n\n\ncontract TwoKeyEconomy is StandardTokenModified {\n    string public name = 'TwoKeyEconomy';\n    string public symbol= '2KEY';\n    uint8 public decimals= 18;\n\n    address public twoKeyAdmin;\n    address public twoKeySingletonRegistry;\n\n    modifier onlyTwoKeyAdmin {\n        require(msg.sender == twoKeyAdmin);\n        _;\n    }\n\n    constructor (\n        address _twoKeySingletonRegistry\n    )\n    public\n    {\n        twoKeySingletonRegistry = _twoKeySingletonRegistry;\n\n        twoKeyAdmin = ITwoKeySingletoneRegistryFetchAddress(twoKeySingletonRegistry).\n            getContractProxyAddress(\"TwoKeyAdmin\");\n\n        address twoKeyUpgradableExchange = ITwoKeySingletoneRegistryFetchAddress(twoKeySingletonRegistry).\n            getContractProxyAddress(\"TwoKeyUpgradableExchange\");\n        address twoKeyCommunityTokenPool = ITwoKeySingletoneRegistryFetchAddress(twoKeySingletonRegistry).\n            getContractProxyAddress(\"TwoKeyCommunityTokenPool\");\n        address twoKeyLongTermTokenPool = ITwoKeySingletoneRegistryFetchAddress(twoKeySingletonRegistry).\n            getContractProxyAddress(\"TwoKeyLongTermTokenPool\");\n\n        totalSupply_= 1000000000000000000000000000; // 1B tokens total minted supply\n\n\n        // Updating balances\n        balances[twoKeyUpgradableExchange] = totalSupply_.mul(3).div(100);\n        emit Transfer(address(this), twoKeyUpgradableExchange, totalSupply_.mul(3).div(100));\n\n        balances[twoKeyCommunityTokenPool] = totalSupply_.mul(20).div(100);\n        emit Transfer(address(this), twoKeyCommunityTokenPool, totalSupply_.mul(20).div(100));\n\n        balances[twoKeyLongTermTokenPool] = totalSupply_.mul(40).div(100);\n        emit Transfer(address(this), twoKeyLongTermTokenPool, totalSupply_.mul(40).div(100));\n\n        balances[twoKeyAdmin] = totalSupply_.mul(37).div(100);\n        emit Transfer(address(this), twoKeyAdmin, totalSupply_.mul(37).div(100));\n    }\n\n\n    /// @notice TwoKeyAmin is available to freeze all transfers on ERC for some period of time\n    /// @dev in TwoKeyAdmin only Congress can call this\n    function freezeTransfers()\n    public\n    onlyTwoKeyAdmin\n    {\n        transfersFrozen = true;\n    }\n\n    /// @notice TwoKeyAmin is available to unfreeze all transfers on ERC for some period of time\n    /// @dev in TwoKeyAdmin only Congress can call this\n    function unfreezeTransfers()\n    public\n    onlyTwoKeyAdmin\n    {\n        transfersFrozen = false;\n    }\n\n}\n",
  "sourcePath": "/Users/nikolamadjarevic/Desktop/2key/contracts/contracts/2key/non-upgradable-singletons/TwoKeyEconomy.sol",
  "compiler": {
    "name": "solc",
    "version": "0.4.24+commit.e67f0147.Emscripten.clang"
  },
  "schemaVersion": "2.0.1",
  "updatedAt": "2019-11-07T08:14:37.473Z"
}