{
  "contractName": "TwoKeyRegistryV1",
  "abi": [
    {
      "constant": false,
      "inputs": [
        {
          "name": "_twoKeySingletonesRegistry",
          "type": "address"
        },
        {
          "name": "_proxyStorage",
          "type": "address"
        }
      ],
      "name": "setInitialParams",
      "outputs": [],
      "payable": false,
      "stateMutability": "nonpayable",
      "type": "function"
    },
    {
      "constant": true,
      "inputs": [
        {
          "name": "keyAddress",
          "type": "address"
        }
      ],
      "name": "address2username",
      "outputs": [
        {
          "name": "",
          "type": "string"
        }
      ],
      "payable": false,
      "stateMutability": "view",
      "type": "function"
    },
    {
      "constant": true,
      "inputs": [],
      "name": "PROXY_STORAGE_CONTRACT",
      "outputs": [
        {
          "name": "",
          "type": "address"
        }
      ],
      "payable": false,
      "stateMutability": "view",
      "type": "function"
    },
    {
      "constant": false,
      "inputs": [
        {
          "name": "note",
          "type": "bytes"
        }
      ],
      "name": "setNoteByUser",
      "outputs": [],
      "payable": false,
      "stateMutability": "nonpayable",
      "type": "function"
    },
    {
      "constant": false,
      "inputs": [
        {
          "name": "sig",
          "type": "bytes"
        },
        {
          "name": "note",
          "type": "bytes"
        },
        {
          "name": "external_sig",
          "type": "bytes"
        }
      ],
      "name": "setPlasma2EthereumAndNoteSigned",
      "outputs": [],
      "payable": false,
      "stateMutability": "nonpayable",
      "type": "function"
    },
    {
      "constant": false,
      "inputs": [
        {
          "name": "_name",
          "type": "string"
        },
        {
          "name": "external_sig",
          "type": "bytes"
        }
      ],
      "name": "addNameSigned",
      "outputs": [],
      "payable": false,
      "stateMutability": "nonpayable",
      "type": "function"
    },
    {
      "constant": true,
      "inputs": [
        {
          "name": "_sender",
          "type": "address"
        }
      ],
      "name": "getUserAddress2UserName",
      "outputs": [
        {
          "name": "",
          "type": "string"
        }
      ],
      "payable": false,
      "stateMutability": "view",
      "type": "function"
    },
    {
      "constant": true,
      "inputs": [],
      "name": "implementation",
      "outputs": [
        {
          "name": "",
          "type": "address"
        }
      ],
      "payable": false,
      "stateMutability": "view",
      "type": "function"
    },
    {
      "constant": false,
      "inputs": [
        {
          "name": "_name",
          "type": "string"
        },
        {
          "name": "_sender",
          "type": "address"
        },
        {
          "name": "_fullName",
          "type": "string"
        },
        {
          "name": "_email",
          "type": "string"
        },
        {
          "name": "signature",
          "type": "bytes"
        }
      ],
      "name": "addName",
      "outputs": [],
      "payable": false,
      "stateMutability": "nonpayable",
      "type": "function"
    },
    {
      "constant": true,
      "inputs": [],
      "name": "TWO_KEY_SINGLETON_REGISTRY",
      "outputs": [
        {
          "name": "",
          "type": "address"
        }
      ],
      "payable": false,
      "stateMutability": "view",
      "type": "function"
    },
    {
      "constant": false,
      "inputs": [
        {
          "name": "sig",
          "type": "bytes"
        }
      ],
      "name": "addPlasma2EthereumByUser",
      "outputs": [],
      "payable": false,
      "stateMutability": "nonpayable",
      "type": "function"
    },
    {
      "constant": true,
      "inputs": [
        {
          "name": "keyAddress",
          "type": "address"
        }
      ],
      "name": "address2walletTag",
      "outputs": [
        {
          "name": "",
          "type": "bytes32"
        }
      ],
      "payable": false,
      "stateMutability": "view",
      "type": "function"
    },
    {
      "constant": true,
      "inputs": [
        {
          "name": "_userAddress",
          "type": "address"
        }
      ],
      "name": "checkIfUserExists",
      "outputs": [
        {
          "name": "",
          "type": "bool"
        }
      ],
      "payable": false,
      "stateMutability": "view",
      "type": "function"
    },
    {
      "constant": true,
      "inputs": [
        {
          "name": "_name",
          "type": "string"
        }
      ],
      "name": "getUserName2UserAddress",
      "outputs": [
        {
          "name": "",
          "type": "address"
        }
      ],
      "payable": false,
      "stateMutability": "view",
      "type": "function"
    },
    {
      "constant": true,
      "inputs": [
        {
          "name": "plasma",
          "type": "address"
        }
      ],
      "name": "getPlasmaToEthereum",
      "outputs": [
        {
          "name": "",
          "type": "address"
        }
      ],
      "payable": false,
      "stateMutability": "view",
      "type": "function"
    },
    {
      "constant": true,
      "inputs": [
        {
          "name": "keyAddress",
          "type": "address"
        }
      ],
      "name": "notes",
      "outputs": [
        {
          "name": "",
          "type": "bytes"
        }
      ],
      "payable": false,
      "stateMutability": "view",
      "type": "function"
    },
    {
      "constant": false,
      "inputs": [
        {
          "name": "_name",
          "type": "string"
        },
        {
          "name": "_sender",
          "type": "address"
        },
        {
          "name": "_fullName",
          "type": "string"
        },
        {
          "name": "_email",
          "type": "string"
        },
        {
          "name": "_username_walletName",
          "type": "string"
        },
        {
          "name": "_signatureName",
          "type": "bytes"
        },
        {
          "name": "_signatureWalletName",
          "type": "bytes"
        }
      ],
      "name": "addNameAndSetWalletName",
      "outputs": [],
      "payable": false,
      "stateMutability": "nonpayable",
      "type": "function"
    },
    {
      "constant": false,
      "inputs": [
        {
          "name": "sender",
          "type": "address"
        }
      ],
      "name": "initialize",
      "outputs": [],
      "payable": true,
      "stateMutability": "payable",
      "type": "function"
    },
    {
      "constant": false,
      "inputs": [
        {
          "name": "username",
          "type": "string"
        },
        {
          "name": "_address",
          "type": "address"
        },
        {
          "name": "_username_walletName",
          "type": "string"
        },
        {
          "name": "signature",
          "type": "bytes"
        }
      ],
      "name": "setWalletName",
      "outputs": [],
      "payable": false,
      "stateMutability": "nonpayable",
      "type": "function"
    },
    {
      "constant": true,
      "inputs": [
        {
          "name": "_username",
          "type": "bytes32"
        }
      ],
      "name": "username2currentAddress",
      "outputs": [
        {
          "name": "",
          "type": "address"
        }
      ],
      "payable": false,
      "stateMutability": "view",
      "type": "function"
    },
    {
      "constant": true,
      "inputs": [
        {
          "name": "ethereum",
          "type": "address"
        }
      ],
      "name": "getEthereumToPlasma",
      "outputs": [
        {
          "name": "",
          "type": "address"
        }
      ],
      "payable": false,
      "stateMutability": "view",
      "type": "function"
    },
    {
      "constant": true,
      "inputs": [
        {
          "name": "walletTag",
          "type": "bytes32"
        }
      ],
      "name": "walletTag2address",
      "outputs": [
        {
          "name": "",
          "type": "address"
        }
      ],
      "payable": false,
      "stateMutability": "view",
      "type": "function"
    },
    {
      "constant": true,
      "inputs": [
        {
          "name": "_user",
          "type": "address"
        }
      ],
      "name": "getUserData",
      "outputs": [
        {
          "name": "",
          "type": "bytes"
        }
      ],
      "payable": false,
      "stateMutability": "view",
      "type": "function"
    },
    {
      "anonymous": false,
      "inputs": [
        {
          "indexed": false,
          "name": "owner",
          "type": "address"
        },
        {
          "indexed": false,
          "name": "name",
          "type": "string"
        }
      ],
      "name": "UserNameChanged",
      "type": "event"
    },
    {
      "constant": true,
      "inputs": [],
      "name": "getMaintainers",
      "outputs": [
        {
          "name": "",
          "type": "address[]"
        }
      ],
      "payable": false,
      "stateMutability": "view",
      "type": "function"
    }
  ],
  "bytecode": "0x608060405234801561001057600080fd5b50615ce080620000216000396000f30060806040526004361061013e576000357c0100000000000000000000000000000000000000000000000000000000900463ffffffff16806305dbe4121461014357806307c24011146101a6578063105005a114610262578063127528d3146102b95780631888b887146103225780634143a6fd146104175780634644d9b2146104c65780635c60da1b146105825780636259b3b7146105d95780638830afa01461073457806389ca37821461078b5780638b81f21f146107f45780639371de2b14610853578063a5a37104146108ae578063b839706514610929578063bd93644a146109ac578063c04adc0114610a68578063c4d66de814610c4f578063d17f422514610c85578063d5b9399b14610cf1578063ec6c200014610e06578063edab043714610e77578063f7a0210b14610efa578063ffc9896b14610f6b575b600080fd5b34801561014f57600080fd5b506101a4600480360381019080803573ffffffffffffffffffffffffffffffffffffffff169060200190929190803573ffffffffffffffffffffffffffffffffffffffff169060200190929190505050611027565b005b3480156101b257600080fd5b506101e7600480360381019080803573ffffffffffffffffffffffffffffffffffffffff1690602001909291905050506110ea565b6040518080602001828103825283818151815260200191508051906020019080838360005b8381101561022757808201518184015260208101905061020c565b50505050905090810190601f1680156102545780820380516001836020036101000a031916815260200191505b509250505060405180910390f35b34801561026e57600080fd5b50610277611295565b604051808273ffffffffffffffffffffffffffffffffffffffff1673ffffffffffffffffffffffffffffffffffffffff16815260200191505060405180910390f35b3480156102c557600080fd5b50610320600480360381019080803590602001908201803590602001908080601f01602080910402602001604051908101604052809392919081815260200183838082843782019150505050505091929192905050506112bb565b005b34801561032e57600080fd5b50610415600480360381019080803590602001908201803590602001908080601f0160208091040260200160405190810160405280939291908181526020018383808284378201915050505050509192919290803590602001908201803590602001908080601f0160208091040260200160405190810160405280939291908181526020018383808284378201915050505050509192919290803590602001908201803590602001908080601f01602080910402602001604051908101604052809392919081815260200183838082843782019150505050505091929192905050506112c8565b005b34801561042357600080fd5b506104c4600480360381019080803590602001908201803590602001908080601f0160208091040260200160405190810160405280939291908181526020018383808284378201915050505050509192919290803590602001908201803590602001908080601f0160208091040260200160405190810160405280939291908181526020018383808284378201915050505050509192919290505050611745565b005b3480156104d257600080fd5b50610507600480360381019080803573ffffffffffffffffffffffffffffffffffffffff169060200190929190505050611b69565b6040518080602001828103825283818151815260200191508051906020019080838360005b8381101561054757808201518184015260208101905061052c565b50505050905090810190601f1680156105745780820380516001836020036101000a031916815260200191505b509250505060405180910390f35b34801561058e57600080fd5b50610597611d14565b604051808273ffffffffffffffffffffffffffffffffffffffff1673ffffffffffffffffffffffffffffffffffffffff16815260200191505060405180910390f35b3480156105e557600080fd5b50610732600480360381019080803590602001908201803590602001908080601f0160208091040260200160405190810160405280939291908181526020018383808284378201915050505050509192919290803573ffffffffffffffffffffffffffffffffffffffff169060200190929190803590602001908201803590602001908080601f0160208091040260200160405190810160405280939291908181526020018383808284378201915050505050509192919290803590602001908201803590602001908080601f0160208091040260200160405190810160405280939291908181526020018383808284378201915050505050509192919290803590602001908201803590602001908080601f0160208091040260200160405190810160405280939291908181526020018383808284378201915050505050509192919290505050611d3e565b005b34801561074057600080fd5b5061074961266b565b604051808273ffffffffffffffffffffffffffffffffffffffff1673ffffffffffffffffffffffffffffffffffffffff16815260200191505060405180910390f35b34801561079757600080fd5b506107f2600480360381019080803590602001908201803590602001908080601f0160208091040260200160405190810160405280939291908181526020018383808284378201915050505050509192919290505050612691565b005b34801561080057600080fd5b50610835600480360381019080803573ffffffffffffffffffffffffffffffffffffffff16906020019092919050505061269e565b60405180826000191660001916815260200191505060405180910390f35b34801561085f57600080fd5b50610894600480360381019080803573ffffffffffffffffffffffffffffffffffffffff1690602001909291905050506127f3565b604051808215151515815260200191505060405180910390f35b3480156108ba57600080fd5b506108e7600480360381019080803590602001908201803590602001919091929391929390505050612e61565b604051808273ffffffffffffffffffffffffffffffffffffffff1673ffffffffffffffffffffffffffffffffffffffff16815260200191505060405180910390f35b34801561093557600080fd5b5061096a600480360381019080803573ffffffffffffffffffffffffffffffffffffffff169060200190929190505050612fc3565b604051808273ffffffffffffffffffffffffffffffffffffffff1673ffffffffffffffffffffffffffffffffffffffff16815260200191505060405180910390f35b3480156109b857600080fd5b506109ed600480360381019080803573ffffffffffffffffffffffffffffffffffffffff169060200190929190505050613162565b6040518080602001828103825283818151815260200191508051906020019080838360005b83811015610a2d578082015181840152602081019050610a12565b50505050905090810190601f168015610a5a5780820380516001836020036101000a031916815260200191505b509250505060405180910390f35b348015610a7457600080fd5b50610c4d600480360381019080803590602001908201803590602001908080601f0160208091040260200160405190810160405280939291908181526020018383808284378201915050505050509192919290803573ffffffffffffffffffffffffffffffffffffffff169060200190929190803590602001908201803590602001908080601f0160208091040260200160405190810160405280939291908181526020018383808284378201915050505050509192919290803590602001908201803590602001908080601f0160208091040260200160405190810160405280939291908181526020018383808284378201915050505050509192919290803590602001908201803590602001908080601f0160208091040260200160405190810160405280939291908181526020018383808284378201915050505050509192919290803590602001908201803590602001908080601f0160208091040260200160405190810160405280939291908181526020018383808284378201915050505050509192919290803590602001908201803590602001908080601f016020809104026020016040519081016040528093929190818152602001838380828437820191505050505050919291929050505061330d565b005b610c83600480360381019080803573ffffffffffffffffffffffffffffffffffffffff1690602001909291905050506135e7565b005b348015610c9157600080fd5b50610c9a613645565b6040518080602001828103825283818151815260200191508051906020019060200280838360005b83811015610cdd578082015181840152602081019050610cc2565b505050509050019250505060405180910390f35b348015610cfd57600080fd5b50610e04600480360381019080803590602001908201803590602001908080601f0160208091040260200160405190810160405280939291908181526020018383808284378201915050505050509192919290803573ffffffffffffffffffffffffffffffffffffffff169060200190929190803590602001908201803590602001908080601f0160208091040260200160405190810160405280939291908181526020018383808284378201915050505050509192919290803590602001908201803590602001908080601f01602080910402602001604051908101604052809392919081815260200183838082843782019150505050505091929192905050506136e2565b005b348015610e1257600080fd5b50610e356004803603810190808035600019169060200190929190505050613ee6565b604051808273ffffffffffffffffffffffffffffffffffffffff1673ffffffffffffffffffffffffffffffffffffffff16815260200191505060405180910390f35b348015610e8357600080fd5b50610eb8600480360381019080803573ffffffffffffffffffffffffffffffffffffffff169060200190929190505050614008565b604051808273ffffffffffffffffffffffffffffffffffffffff1673ffffffffffffffffffffffffffffffffffffffff16815260200191505060405180910390f35b348015610f0657600080fd5b50610f2960048036038101908080356000191690602001909291905050506141a7565b604051808273ffffffffffffffffffffffffffffffffffffffff1673ffffffffffffffffffffffffffffffffffffffff16815260200191505060405180910390f35b348015610f7757600080fd5b50610fac600480360381019080803573ffffffffffffffffffffffffffffffffffffffff1690602001909291905050506142c9565b6040518080602001828103825283818151815260200191508051906020019080838360005b83811015610fec578082015181840152602081019050610fd1565b50505050905090810190601f1680156110195780820380516001836020036101000a031916815260200191505b509250505060405180910390f35b60001515600260149054906101000a900460ff16151514151561104957600080fd5b81600260006101000a81548173ffffffffffffffffffffffffffffffffffffffff021916908373ffffffffffffffffffffffffffffffffffffffff16021790555080600360006101000a81548173ffffffffffffffffffffffffffffffffffffffff021916908373ffffffffffffffffffffffffffffffffffffffff1602179055506001600260146101000a81548160ff0219169083151502179055505050565b6060600360009054906101000a900473ffffffffffffffffffffffffffffffffffffffff1673ffffffffffffffffffffffffffffffffffffffff1663986e791a8360405180807f6164647265737332757365726e616d65000000000000000000000000000000008152506010018273ffffffffffffffffffffffffffffffffffffffff1673ffffffffffffffffffffffffffffffffffffffff166c0100000000000000000000000002815260140191505060405180910390206040518263ffffffff167c0100000000000000000000000000000000000000000000000000000000028152600401808260001916600019168152602001915050600060405180830381600087803b1580156111fd57600080fd5b505af1158015611211573d6000803e3d6000fd5b505050506040513d6000823e3d601f19601f82011682018060405250602081101561123b57600080fd5b81019080805164010000000081111561125357600080fd5b8281019050602081018481111561126957600080fd5b815185600182028301116401000000008211171561128657600080fd5b50509291905050509050919050565b600360009054906101000a900473ffffffffffffffffffffffffffffffffffffffff1681565b6112c581336148ae565b50565b60008060405160200180807f62797465732062696e64696e6720746f20657468657265756d2d706c61736d6181525060200190506040516020818303038152906040526040518082805190602001908083835b602083101515611340578051825260208201915060208101905060208303925061131b565b6001836020036101000a038019825116818451168082178552505050505050905001915050604051809103902085856040516020018083805190602001908083835b6020831015156113a75780518252602082019150602081019050602083039250611382565b6001836020036101000a03801982511681845116808217855250505050505090500182805190602001908083835b6020831015156113fa57805182526020820191506020810190506020830392506113d5565b6001836020036101000a038019825116818451168082178552505050505050905001925050506040516020818303038152906040526040518082805190602001908083835b602083101515611464578051825260208201915060208101905060208303925061143f565b6001836020036101000a03801982511681845116808217855250505050505090500191505060405180910390206040516020018083600019166000191681526020018260001916600019168152602001925050506040516020818303038152906040526040518082805190602001908083835b6020831015156114fc57805182526020820191506020810190506020830392506114d7565b6001836020036101000a0380198251168184511680821785525050505050509050019150506040518091039020915073__Call__________________________________638b2c6d41838560006040518463ffffffff167c010000000000000000000000000000000000000000000000000000000002815260040180846000191660001916815260200180602001838152602001828103825284818151815260200191508051906020019080838360005b838110156115c85780820151818401526020810190506115ad565b50505050905090810190601f1680156115f55780820380516001836020036101000a031916815260200191505b5094505050505060206040518083038186803b15801561161457600080fd5b505af4158015611628573d6000803e3d6000fd5b505050506040513d602081101561163e57600080fd5b810190808051906020019092919050505090508073ffffffffffffffffffffffffffffffffffffffff163373ffffffffffffffffffffffffffffffffffffffff161480611690575061168f33614a4e565b5b151561172a576040517f08c379a00000000000000000000000000000000000000000000000000000000081526004018080602001828103825260328152602001807f6f6e6c79206d61696e7461696e6572206f7220757365722063616e206368616e81526020017f676520657468657265756d2d706c61736d61000000000000000000000000000081525060400191505060405180910390fd5b6117348582614b6f565b61173e84826148ae565b5050505050565b60008060405160200180807f62797465732062696e64696e6720746f206e616d65000000000000000000000081525060150190506040516020818303038152906040526040518082805190602001908083835b6020831015156117bd5780518252602082019150602081019050602083039250611798565b6001836020036101000a0380198251168184511680821785525050505050509050019150506040518091039020846040516020018082805190602001908083835b60208310151561182357805182526020820191506020810190506020830392506117fe565b6001836020036101000a0380198251168184511680821785525050505050509050019150506040516020818303038152906040526040518082805190602001908083835b60208310151561188c5780518252602082019150602081019050602083039250611867565b6001836020036101000a03801982511681845116808217855250505050505090500191505060405180910390206040516020018083600019166000191681526020018260001916600019168152602001925050506040516020818303038152906040526040518082805190602001908083835b60208310151561192457805182526020820191506020810190506020830392506118ff565b6001836020036101000a0380198251168184511680821785525050505050509050019150506040518091039020915073__Call__________________________________638b2c6d41838560006040518463ffffffff167c010000000000000000000000000000000000000000000000000000000002815260040180846000191660001916815260200180602001838152602001828103825284818151815260200191508051906020019080838360005b838110156119f05780820151818401526020810190506119d5565b50505050905090810190601f168015611a1d5780820380516001836020036101000a031916815260200191505b5094505050505060206040518083038186803b158015611a3c57600080fd5b505af4158015611a50573d6000803e3d6000fd5b505050506040513d6020811015611a6657600080fd5b810190808051906020019092919050505090508073ffffffffffffffffffffffffffffffffffffffff163373ffffffffffffffffffffffffffffffffffffffff161480611abf575060011515611abb33614a4e565b1515145b1515611b59576040517f08c379a00000000000000000000000000000000000000000000000000000000081526004018080602001828103825260278152602001807f6f6e6c79206d61696e7461696e6572206f7220757365722063616e206368616e81526020017f6765206e616d650000000000000000000000000000000000000000000000000081525060400191505060405180910390fd5b611b638482615402565b50505050565b6060600360009054906101000a900473ffffffffffffffffffffffffffffffffffffffff1673ffffffffffffffffffffffffffffffffffffffff1663986e791a8360405180807f6164647265737332757365726e616d65000000000000000000000000000000008152506010018273ffffffffffffffffffffffffffffffffffffffff1673ffffffffffffffffffffffffffffffffffffffff166c0100000000000000000000000002815260140191505060405180910390206040518263ffffffff167c0100000000000000000000000000000000000000000000000000000000028152600401808260001916600019168152602001915050600060405180830381600087803b158015611c7c57600080fd5b505af1158015611c90573d6000803e3d6000fd5b505050506040513d6000823e3d601f19601f820116820180604052506020811015611cba57600080fd5b810190808051640100000000811115611cd257600080fd5b82810190506020810184811115611ce857600080fd5b8151856001820283011164010000000082111715611d0557600080fd5b50509291905050509050919050565b6000600160009054906101000a900473ffffffffffffffffffffffffffffffffffffffff16905090565b6060600080600080600060011515611d5533614a4e565b15151480611d8e57503073ffffffffffffffffffffffffffffffffffffffff163373ffffffffffffffffffffffffffffffffffffffff16145b1515611d9957600080fd5b611da48b8a8a6158bd565b955060405160200180807f62797465732062696e64696e6720746f206e616d65000000000000000000000081525060150190506040516020818303038152906040526040518082805190602001908083835b602083101515611e1b5780518252602082019150602081019050602083039250611df6565b6001836020036101000a0380198251168184511680821785525050505050509050019150506040518091039020866040516020018082805190602001908083835b602083101515611e815780518252602082019150602081019050602083039250611e5c565b6001836020036101000a0380198251168184511680821785525050505050509050019150506040516020818303038152906040526040518082805190602001908083835b602083101515611eea5780518252602082019150602081019050602083039250611ec5565b6001836020036101000a03801982511681845116808217855250505050505090500191505060405180910390206040516020018083600019166000191681526020018260001916600019168152602001925050506040516020818303038152906040526040518082805190602001908083835b602083101515611f825780518252602082019150602081019050602083039250611f5d565b6001836020036101000a0380198251168184511680821785525050505050509050019150506040518091039020945073__Call__________________________________638b2c6d41868960006040518463ffffffff167c010000000000000000000000000000000000000000000000000000000002815260040180846000191660001916815260200180602001838152602001828103825284818151815260200191508051906020019080838360005b8381101561204e578082015181840152602081019050612033565b50505050905090810190601f16801561207b5780820380516001836020036101000a031916815260200191505b5094505050505060206040518083038186803b15801561209a57600080fd5b505af41580156120ae573d6000803e3d6000fd5b505050506040513d60208110156120c457600080fd5b810190808051906020019092919050505093508973ffffffffffffffffffffffffffffffffffffffff168473ffffffffffffffffffffffffffffffffffffffff1614151561211157600080fd5b8960405180807f61646472657373546f5573657244617461000000000000000000000000000000815250601101807f757365726e616d650000000000000000000000000000000000000000000000008152506008018273ffffffffffffffffffffffffffffffffffffffff1673ffffffffffffffffffffffffffffffffffffffff166c01000000000000000000000000028152601401915050604051809103902092508960405180807f61646472657373546f5573657244617461000000000000000000000000000000815250601101807f66756c6c4e616d650000000000000000000000000000000000000000000000008152506008018273ffffffffffffffffffffffffffffffffffffffff1673ffffffffffffffffffffffffffffffffffffffff166c01000000000000000000000000028152601401915050604051809103902091508960405180807f61646472657373546f5573657244617461000000000000000000000000000000815250601101807f656d61696c0000000000000000000000000000000000000000000000000000008152506005018273ffffffffffffffffffffffffffffffffffffffff1673ffffffffffffffffffffffffffffffffffffffff166c0100000000000000000000000002815260140191505060405180910390209050600360009054906101000a900473ffffffffffffffffffffffffffffffffffffffff1673ffffffffffffffffffffffffffffffffffffffff16636e899550848d6040518363ffffffff167c010000000000000000000000000000000000000000000000000000000002815260040180836000191660001916815260200180602001828103825283818151815260200191508051906020019080838360005b838110156123b3578082015181840152602081019050612398565b50505050905090810190601f1680156123e05780820380516001836020036101000a031916815260200191505b509350505050600060405180830381600087803b15801561240057600080fd5b505af1158015612414573d6000803e3d6000fd5b50505050600360009054906101000a900473ffffffffffffffffffffffffffffffffffffffff1673ffffffffffffffffffffffffffffffffffffffff16636e899550838b6040518363ffffffff167c010000000000000000000000000000000000000000000000000000000002815260040180836000191660001916815260200180602001828103825283818151815260200191508051906020019080838360005b838110156124d15780820151818401526020810190506124b6565b50505050905090810190601f1680156124fe5780820380516001836020036101000a031916815260200191505b509350505050600060405180830381600087803b15801561251e57600080fd5b505af1158015612532573d6000803e3d6000fd5b50505050600360009054906101000a900473ffffffffffffffffffffffffffffffffffffffff1673ffffffffffffffffffffffffffffffffffffffff16636e899550828a6040518363ffffffff167c010000000000000000000000000000000000000000000000000000000002815260040180836000191660001916815260200180602001828103825283818151815260200191508051906020019080838360005b838110156125ef5780820151818401526020810190506125d4565b50505050905090810190601f16801561261c5780820380516001836020036101000a031916815260200191505b509350505050600060405180830381600087803b15801561263c57600080fd5b505af1158015612650573d6000803e3d6000fd5b5050505061265e8b8b615402565b5050505050505050505050565b600260009054906101000a900473ffffffffffffffffffffffffffffffffffffffff1681565b61269b8133614b6f565b50565b6000600360009054906101000a900473ffffffffffffffffffffffffffffffffffffffff1673ffffffffffffffffffffffffffffffffffffffff1663a6ed563e8360405180807f616464726573733277616c6c65745461670000000000000000000000000000008152506011018273ffffffffffffffffffffffffffffffffffffffff1673ffffffffffffffffffffffffffffffffffffffff166c0100000000000000000000000002815260140191505060405180910390206040518263ffffffff167c0100000000000000000000000000000000000000000000000000000000028152600401808260001916600019168152602001915050602060405180830381600087803b1580156127b157600080fd5b505af11580156127c5573d6000803e3d6000fd5b505050506040513d60208110156127db57600080fd5b81019080805190602001909291905050509050919050565b600060608060008060606000600360009054906101000a900473ffffffffffffffffffffffffffffffffffffffff1673ffffffffffffffffffffffffffffffffffffffff1663986e791a8960405180807f6164647265737332757365726e616d65000000000000000000000000000000008152506010018273ffffffffffffffffffffffffffffffffffffffff1673ffffffffffffffffffffffffffffffffffffffff166c0100000000000000000000000002815260140191505060405180910390206040518263ffffffff167c0100000000000000000000000000000000000000000000000000000000028152600401808260001916600019168152602001915050600060405180830381600087803b15801561291057600080fd5b505af1158015612924573d6000803e3d6000fd5b505050506040513d6000823e3d601f19601f82011682018060405250602081101561294e57600080fd5b81019080805164010000000081111561296657600080fd5b8281019050602081018481111561297c57600080fd5b815185600182028301116401000000008211171561299957600080fd5b505092919050505095508594508760405180807f657468657265756d32706c61736d610000000000000000000000000000000000815250600f018273ffffffffffffffffffffffffffffffffffffffff1673ffffffffffffffffffffffffffffffffffffffff166c0100000000000000000000000002815260140191505060405180910390209350600360009054906101000a900473ffffffffffffffffffffffffffffffffffffffff1673ffffffffffffffffffffffffffffffffffffffff166321f8a721856040518263ffffffff167c0100000000000000000000000000000000000000000000000000000000028152600401808260001916600019168152602001915050602060405180830381600087803b158015612aba57600080fd5b505af1158015612ace573d6000803e3d6000fd5b505050506040513d6020811015612ae457600080fd5b81019080805190602001909291905050509250600360009054906101000a900473ffffffffffffffffffffffffffffffffffffffff1673ffffffffffffffffffffffffffffffffffffffff1663c031a1808960405180807f6e6f7465730000000000000000000000000000000000000000000000000000008152506005018273ffffffffffffffffffffffffffffffffffffffff1673ffffffffffffffffffffffffffffffffffffffff166c0100000000000000000000000002815260140191505060405180910390206040518263ffffffff167c0100000000000000000000000000000000000000000000000000000000028152600401808260001916600019168152602001915050600060405180830381600087803b158015612c0857600080fd5b505af1158015612c1c573d6000803e3d6000fd5b505050506040513d6000823e3d601f19601f820116820180604052506020811015612c4657600080fd5b810190808051640100000000811115612c5e57600080fd5b82810190506020810184811115612c7457600080fd5b8151856001820283011164010000000082111715612c9157600080fd5b50509291905050509150600360009054906101000a900473ffffffffffffffffffffffffffffffffffffffff1673ffffffffffffffffffffffffffffffffffffffff1663a6ed563e8960405180807f616464726573733277616c6c65745461670000000000000000000000000000008152506011018273ffffffffffffffffffffffffffffffffffffffff1673ffffffffffffffffffffffffffffffffffffffff166c0100000000000000000000000002815260140191505060405180910390206040518263ffffffff167c0100000000000000000000000000000000000000000000000000000000028152600401808260001916600019168152602001915050602060405180830381600087803b158015612dac57600080fd5b505af1158015612dc0573d6000803e3d6000fd5b505050506040513d6020811015612dd657600080fd5b81019080805190602001909291905050509050600085511480612e00575060006001028160001916145b80612e375750600073ffffffffffffffffffffffffffffffffffffffff168373ffffffffffffffffffffffffffffffffffffffff16145b80612e43575060008251145b15612e515760009650612e56565b600196505b505050505050919050565b600080612e9f84848080601f016020809104026020016040519081016040528093929190818152602001838380828437820191505050505050615b4f565b9050600360009054906101000a900473ffffffffffffffffffffffffffffffffffffffff1673ffffffffffffffffffffffffffffffffffffffff166321f8a7218260405180807f757365726e616d653263757272656e7441646472657373000000000000000000815250601701826000191660001916815260200191505060405180910390206040518263ffffffff167c0100000000000000000000000000000000000000000000000000000000028152600401808260001916600019168152602001915050602060405180830381600087803b158015612f7f57600080fd5b505af1158015612f93573d6000803e3d6000fd5b505050506040513d6020811015612fa957600080fd5b810190808051906020019092919050505091505092915050565b60008060008360405180807f706c61736d6132657468657265756d0000000000000000000000000000000000815250600f018273ffffffffffffffffffffffffffffffffffffffff1673ffffffffffffffffffffffffffffffffffffffff166c0100000000000000000000000002815260140191505060405180910390209150600360009054906101000a900473ffffffffffffffffffffffffffffffffffffffff1673ffffffffffffffffffffffffffffffffffffffff166321f8a721836040518263ffffffff167c0100000000000000000000000000000000000000000000000000000000028152600401808260001916600019168152602001915050602060405180830381600087803b1580156130dc57600080fd5b505af11580156130f0573d6000803e3d6000fd5b505050506040513d602081101561310657600080fd5b81019080805190602001909291905050509050600073ffffffffffffffffffffffffffffffffffffffff168173ffffffffffffffffffffffffffffffffffffffff161415156131575780925061315b565b8392505b5050919050565b6060600360009054906101000a900473ffffffffffffffffffffffffffffffffffffffff1673ffffffffffffffffffffffffffffffffffffffff1663c031a1808360405180807f6e6f7465730000000000000000000000000000000000000000000000000000008152506005018273ffffffffffffffffffffffffffffffffffffffff1673ffffffffffffffffffffffffffffffffffffffff166c0100000000000000000000000002815260140191505060405180910390206040518263ffffffff167c0100000000000000000000000000000000000000000000000000000000028152600401808260001916600019168152602001915050600060405180830381600087803b15801561327557600080fd5b505af1158015613289573d6000803e3d6000fd5b505050506040513d6000823e3d601f19601f8201168201806040525060208110156132b357600080fd5b8101908080516401000000008111156132cb57600080fd5b828101905060208101848111156132e157600080fd5b81518560018202830111640100000000821117156132fe57600080fd5b50509291905050509050919050565b61331633614a4e565b151561332157600080fd5b61332e8787878786611d3e565b61333a878785846136e2565b6133786040805190810160405280601181526020017f54776f4b65794576656e74536f75726365000000000000000000000000000000815250615b7a565b73ffffffffffffffffffffffffffffffffffffffff1663af5985c388888888886040518663ffffffff167c010000000000000000000000000000000000000000000000000000000002815260040180806020018673ffffffffffffffffffffffffffffffffffffffff1673ffffffffffffffffffffffffffffffffffffffff16815260200180602001806020018060200185810385528a818151815260200191508051906020019080838360005b83811015613441578082015181840152602081019050613426565b50505050905090810190601f16801561346e5780820380516001836020036101000a031916815260200191505b50858103845288818151815260200191508051906020019080838360005b838110156134a757808201518184015260208101905061348c565b50505050905090810190601f1680156134d45780820380516001836020036101000a031916815260200191505b50858103835287818151815260200191508051906020019080838360005b8381101561350d5780820151818401526020810190506134f2565b50505050905090810190601f16801561353a5780820380516001836020036101000a031916815260200191505b50858103825286818151815260200191508051906020019080838360005b83811015613573578082015181840152602081019050613558565b50505050905090810190601f1680156135a05780820380516001836020036101000a031916815260200191505b509950505050505050505050600060405180830381600087803b1580156135c657600080fd5b505af11580156135da573d6000803e3d6000fd5b5050505050505050505050565b6000809054906101000a900473ffffffffffffffffffffffffffffffffffffffff1673ffffffffffffffffffffffffffffffffffffffff163373ffffffffffffffffffffffffffffffffffffffff1614151561364257600080fd5b50565b60608060016040519080825280602002602001820160405280156136785781602001602082028038833980820191505090505b509050739aace881c7a80b596d38eaff66edbb5368d2f2c581600081518110151561369f57fe5b9060200190602002019073ffffffffffffffffffffffffffffffffffffffff16908173ffffffffffffffffffffffffffffffffffffffff16815250508091505090565b60008060606000806000806000600115156136fc33614a4e565b1515148061373557503073ffffffffffffffffffffffffffffffffffffffff163373ffffffffffffffffffffffffffffffffffffffff16145b151561374057600080fd5b600073ffffffffffffffffffffffffffffffffffffffff168b73ffffffffffffffffffffffffffffffffffffffff161415151561377c57600080fd5b6137858c615b4f565b9750600360009054906101000a900473ffffffffffffffffffffffffffffffffffffffff1673ffffffffffffffffffffffffffffffffffffffff166321f8a7218960405180807f757365726e616d653263757272656e7441646472657373000000000000000000815250601701826000191660001916815260200191505060405180910390206040518263ffffffff167c0100000000000000000000000000000000000000000000000000000000028152600401808260001916600019168152602001915050602060405180830381600087803b15801561386557600080fd5b505af1158015613879573d6000803e3d6000fd5b505050506040513d602081101561388f57600080fd5b810190808051906020019092919050505096508a73ffffffffffffffffffffffffffffffffffffffff168773ffffffffffffffffffffffffffffffffffffffff161415156138dc57600080fd5b6138f78c8b60206040519081016040528060008152506158bd565b955060405160200180807f62797465732062696e64696e6720746f206e616d65000000000000000000000081525060150190506040516020818303038152906040526040518082805190602001908083835b60208310151561396e5780518252602082019150602081019050602083039250613949565b6001836020036101000a0380198251168184511680821785525050505050509050019150506040518091039020866040516020018082805190602001908083835b6020831015156139d457805182526020820191506020810190506020830392506139af565b6001836020036101000a0380198251168184511680821785525050505050509050019150506040516020818303038152906040526040518082805190602001908083835b602083101515613a3d5780518252602082019150602081019050602083039250613a18565b6001836020036101000a03801982511681845116808217855250505050505090500191505060405180910390206040516020018083600019166000191681526020018260001916600019168152602001925050506040516020818303038152906040526040518082805190602001908083835b602083101515613ad55780518252602082019150602081019050602083039250613ab0565b6001836020036101000a0380198251168184511680821785525050505050509050019150506040518091039020945073__Call__________________________________638b2c6d41868b60006040518463ffffffff167c010000000000000000000000000000000000000000000000000000000002815260040180846000191660001916815260200180602001838152602001828103825284818151815260200191508051906020019080838360005b83811015613ba1578082015181840152602081019050613b86565b50505050905090810190601f168015613bce5780820380516001836020036101000a031916815260200191505b5094505050505060206040518083038186803b158015613bed57600080fd5b505af4158015613c01573d6000803e3d6000fd5b505050506040513d6020811015613c1757600080fd5b810190808051906020019092919050505093508a73ffffffffffffffffffffffffffffffffffffffff168473ffffffffffffffffffffffffffffffffffffffff16141515613c6457600080fd5b613c6d8a615b4f565b92508a60405180807f616464726573733277616c6c65745461670000000000000000000000000000008152506011018273ffffffffffffffffffffffffffffffffffffffff1673ffffffffffffffffffffffffffffffffffffffff166c0100000000000000000000000002815260140191505060405180910390209150600360009054906101000a900473ffffffffffffffffffffffffffffffffffffffff1673ffffffffffffffffffffffffffffffffffffffff16634e91db0883856040518363ffffffff167c0100000000000000000000000000000000000000000000000000000000028152600401808360001916600019168152602001826000191660001916815260200192505050600060405180830381600087803b158015613d9357600080fd5b505af1158015613da7573d6000803e3d6000fd5b505050508260405180807f77616c6c65745461673261646472657373000000000000000000000000000000815250601101826000191660001916815260200191505060405180910390209050600360009054906101000a900473ffffffffffffffffffffffffffffffffffffffff1673ffffffffffffffffffffffffffffffffffffffff1663ca446dd9828d6040518363ffffffff167c01000000000000000000000000000000000000000000000000000000000281526004018083600019166000191681526020018273ffffffffffffffffffffffffffffffffffffffff1673ffffffffffffffffffffffffffffffffffffffff16815260200192505050600060405180830381600087803b158015613ec057600080fd5b505af1158015613ed4573d6000803e3d6000fd5b50505050505050505050505050505050565b6000600360009054906101000a900473ffffffffffffffffffffffffffffffffffffffff1673ffffffffffffffffffffffffffffffffffffffff166321f8a7218360405180807f757365726e616d653263757272656e7441646472657373000000000000000000815250601701826000191660001916815260200191505060405180910390206040518263ffffffff167c0100000000000000000000000000000000000000000000000000000000028152600401808260001916600019168152602001915050602060405180830381600087803b158015613fc657600080fd5b505af1158015613fda573d6000803e3d6000fd5b505050506040513d6020811015613ff057600080fd5b81019080805190602001909291905050509050919050565b60008060008360405180807f657468657265756d32706c61736d610000000000000000000000000000000000815250600f018273ffffffffffffffffffffffffffffffffffffffff1673ffffffffffffffffffffffffffffffffffffffff166c0100000000000000000000000002815260140191505060405180910390209150600360009054906101000a900473ffffffffffffffffffffffffffffffffffffffff1673ffffffffffffffffffffffffffffffffffffffff166321f8a721836040518263ffffffff167c0100000000000000000000000000000000000000000000000000000000028152600401808260001916600019168152602001915050602060405180830381600087803b15801561412157600080fd5b505af1158015614135573d6000803e3d6000fd5b505050506040513d602081101561414b57600080fd5b81019080805190602001909291905050509050600073ffffffffffffffffffffffffffffffffffffffff168173ffffffffffffffffffffffffffffffffffffffff1614151561419c578092506141a0565b8392505b5050919050565b6000600360009054906101000a900473ffffffffffffffffffffffffffffffffffffffff1673ffffffffffffffffffffffffffffffffffffffff166321f8a7218360405180807f77616c6c65745461673261646472657373000000000000000000000000000000815250601101826000191660001916815260200191505060405180910390206040518263ffffffff167c0100000000000000000000000000000000000000000000000000000000028152600401808260001916600019168152602001915050602060405180830381600087803b15801561428757600080fd5b505af115801561429b573d6000803e3d6000fd5b505050506040513d60208110156142b157600080fd5b81019080805190602001909291905050509050919050565b60606000806000806000808760405180807f61646472657373546f5573657244617461000000000000000000000000000000815250601101807f757365726e616d650000000000000000000000000000000000000000000000008152506008018273ffffffffffffffffffffffffffffffffffffffff1673ffffffffffffffffffffffffffffffffffffffff166c01000000000000000000000000028152601401915050604051809103902095508760405180807f61646472657373546f5573657244617461000000000000000000000000000000815250601101807f66756c6c4e616d650000000000000000000000000000000000000000000000008152506008018273ffffffffffffffffffffffffffffffffffffffff1673ffffffffffffffffffffffffffffffffffffffff166c01000000000000000000000000028152601401915050604051809103902094508760405180807f61646472657373546f5573657244617461000000000000000000000000000000815250601101807f656d61696c0000000000000000000000000000000000000000000000000000008152506005018273ffffffffffffffffffffffffffffffffffffffff1673ffffffffffffffffffffffffffffffffffffffff166c01000000000000000000000000028152601401915050604051809103902093506145ef600360009054906101000a900473ffffffffffffffffffffffffffffffffffffffff1673ffffffffffffffffffffffffffffffffffffffff1663986e791a886040518263ffffffff167c0100000000000000000000000000000000000000000000000000000000028152600401808260001916600019168152602001915050600060405180830381600087803b15801561455957600080fd5b505af115801561456d573d6000803e3d6000fd5b505050506040513d6000823e3d601f19601f82011682018060405250602081101561459757600080fd5b8101908080516401000000008111156145af57600080fd5b828101905060208101848111156145c557600080fd5b81518560018202830111640100000000821117156145e257600080fd5b5050929190505050615b4f565b9250614723600360009054906101000a900473ffffffffffffffffffffffffffffffffffffffff1673ffffffffffffffffffffffffffffffffffffffff1663986e791a876040518263ffffffff167c0100000000000000000000000000000000000000000000000000000000028152600401808260001916600019168152602001915050600060405180830381600087803b15801561468d57600080fd5b505af11580156146a1573d6000803e3d6000fd5b505050506040513d6000823e3d601f19601f8201168201806040525060208110156146cb57600080fd5b8101908080516401000000008111156146e357600080fd5b828101905060208101848111156146f957600080fd5b815185600182028301116401000000008211171561471657600080fd5b5050929190505050615b4f565b9150614857600360009054906101000a900473ffffffffffffffffffffffffffffffffffffffff1673ffffffffffffffffffffffffffffffffffffffff1663986e791a866040518263ffffffff167c0100000000000000000000000000000000000000000000000000000000028152600401808260001916600019168152602001915050600060405180830381600087803b1580156147c157600080fd5b505af11580156147d5573d6000803e3d6000fd5b505050506040513d6000823e3d601f19601f8201168201806040525060208110156147ff57600080fd5b81019080805164010000000081111561481757600080fd5b8281019050602081018481111561482d57600080fd5b815185600182028301116401000000008211171561484a57600080fd5b5050929190505050615b4f565b90508282826040516020018084600019166000191681526020018360001916600019168152602001826000191660001916815260200193505050506040516020818303038152906040529650505050505050919050565b60008160405180807f6e6f7465730000000000000000000000000000000000000000000000000000008152506005018273ffffffffffffffffffffffffffffffffffffffff1673ffffffffffffffffffffffffffffffffffffffff166c0100000000000000000000000002815260140191505060405180910390209050600360009054906101000a900473ffffffffffffffffffffffffffffffffffffffff1673ffffffffffffffffffffffffffffffffffffffff16632e28d08482856040518363ffffffff167c010000000000000000000000000000000000000000000000000000000002815260040180836000191660001916815260200180602001828103825283818151815260200191508051906020019080838360005b838110156149e45780820151818401526020810190506149c9565b50505050905090810190601f168015614a115780820380516001836020036101000a031916815260200191505b509350505050600060405180830381600087803b158015614a3157600080fd5b505af1158015614a45573d6000803e3d6000fd5b50505050505050565b600080614a8f6040805190810160405280601981526020017f54776f4b65794d61696e7461696e657273526567697374727900000000000000815250615b7a565b90508073ffffffffffffffffffffffffffffffffffffffff1663cd2a81dc846040518263ffffffff167c0100000000000000000000000000000000000000000000000000000000028152600401808273ffffffffffffffffffffffffffffffffffffffff1673ffffffffffffffffffffffffffffffffffffffff168152602001915050602060405180830381600087803b158015614b2c57600080fd5b505af1158015614b40573d6000803e3d6000fd5b505050506040513d6020811015614b5657600080fd5b8101908080519060200190929190505050915050919050565b60008060008060405160200180807f62797465732062696e64696e6720746f20657468657265756d2061646472657381526020017f730000000000000000000000000000000000000000000000000000000000000081525060210190506040516020818303038152906040526040518082805190602001908083835b602083101515614c105780518252602082019150602081019050602083039250614beb565b6001836020036101000a038019825116818451168082178552505050505050905001915050604051809103902085604051602001808273ffffffffffffffffffffffffffffffffffffffff1673ffffffffffffffffffffffffffffffffffffffff166c010000000000000000000000000281526014019150506040516020818303038152906040526040518082805190602001908083835b602083101515614ccd5780518252602082019150602081019050602083039250614ca8565b6001836020036101000a03801982511681845116808217855250505050505090500191505060405180910390206040516020018083600019166000191681526020018260001916600019168152602001925050506040516020818303038152906040526040518082805190602001908083835b602083101515614d655780518252602082019150602081019050602083039250614d40565b6001836020036101000a0380198251168184511680821785525050505050509050019150506040518091039020935073__Call__________________________________638b2c6d41858860006040518463ffffffff167c010000000000000000000000000000000000000000000000000000000002815260040180846000191660001916815260200180602001838152602001828103825284818151815260200191508051906020019080838360005b83811015614e31578082015181840152602081019050614e16565b50505050905090810190601f168015614e5e5780820380516001836020036101000a031916815260200191505b5094505050505060206040518083038186803b158015614e7d57600080fd5b505af4158015614e91573d6000803e3d6000fd5b505050506040513d6020811015614ea757600080fd5b810190808051906020019092919050505092508260405180807f706c61736d6132657468657265756d0000000000000000000000000000000000815250600f018273ffffffffffffffffffffffffffffffffffffffff1673ffffffffffffffffffffffffffffffffffffffff166c01000000000000000000000000028152601401915050604051809103902091508460405180807f657468657265756d32706c61736d610000000000000000000000000000000000815250600f018273ffffffffffffffffffffffffffffffffffffffff1673ffffffffffffffffffffffffffffffffffffffff166c0100000000000000000000000002815260140191505060405180910390209050600073ffffffffffffffffffffffffffffffffffffffff16600360009054906101000a900473ffffffffffffffffffffffffffffffffffffffff1673ffffffffffffffffffffffffffffffffffffffff166321f8a721846040518263ffffffff167c0100000000000000000000000000000000000000000000000000000000028152600401808260001916600019168152602001915050602060405180830381600087803b15801561506157600080fd5b505af1158015615075573d6000803e3d6000fd5b505050506040513d602081101561508b57600080fd5b810190808051906020019092919050505073ffffffffffffffffffffffffffffffffffffffff1614806151bc57508473ffffffffffffffffffffffffffffffffffffffff16600360009054906101000a900473ffffffffffffffffffffffffffffffffffffffff1673ffffffffffffffffffffffffffffffffffffffff166321f8a721846040518263ffffffff167c0100000000000000000000000000000000000000000000000000000000028152600401808260001916600019168152602001915050602060405180830381600087803b15801561516957600080fd5b505af115801561517d573d6000803e3d6000fd5b505050506040513d602081101561519357600080fd5b810190808051906020019092919050505073ffffffffffffffffffffffffffffffffffffffff16145b1515615230576040517f08c379a00000000000000000000000000000000000000000000000000000000081526004018080602001828103825260178152602001807f63616e74206368616e6765206574683d3e706c61736d6100000000000000000081525060200191505060405180910390fd5b600360009054906101000a900473ffffffffffffffffffffffffffffffffffffffff1673ffffffffffffffffffffffffffffffffffffffff1663ca446dd983876040518363ffffffff167c01000000000000000000000000000000000000000000000000000000000281526004018083600019166000191681526020018273ffffffffffffffffffffffffffffffffffffffff1673ffffffffffffffffffffffffffffffffffffffff16815260200192505050600060405180830381600087803b1580156152fd57600080fd5b505af1158015615311573d6000803e3d6000fd5b50505050600360009054906101000a900473ffffffffffffffffffffffffffffffffffffffff1673ffffffffffffffffffffffffffffffffffffffff1663ca446dd982856040518363ffffffff167c01000000000000000000000000000000000000000000000000000000000281526004018083600019166000191681526020018273ffffffffffffffffffffffffffffffffffffffff1673ffffffffffffffffffffffffffffffffffffffff16815260200192505050600060405180830381600087803b1580156153e257600080fd5b505af11580156153f6573d6000803e3d6000fd5b50505050505050505050565b600080600061541085615b4f565b92508260405180807f757365726e616d653263757272656e74416464726573730000000000000000008152506017018260001916600019168152602001915050604051809103902091508360405180807f6164647265737332757365726e616d65000000000000000000000000000000008152506010018273ffffffffffffffffffffffffffffffffffffffff1673ffffffffffffffffffffffffffffffffffffffff166c0100000000000000000000000002815260140191505060405180910390209050600073ffffffffffffffffffffffffffffffffffffffff16600360009054906101000a900473ffffffffffffffffffffffffffffffffffffffff1673ffffffffffffffffffffffffffffffffffffffff166321f8a721846040518263ffffffff167c0100000000000000000000000000000000000000000000000000000000028152600401808260001916600019168152602001915050602060405180830381600087803b15801561558657600080fd5b505af115801561559a573d6000803e3d6000fd5b505050506040513d60208110156155b057600080fd5b810190808051906020019092919050505073ffffffffffffffffffffffffffffffffffffffff161415156155e357600080fd5b600360009054906101000a900473ffffffffffffffffffffffffffffffffffffffff1673ffffffffffffffffffffffffffffffffffffffff16636e89955082876040518363ffffffff167c010000000000000000000000000000000000000000000000000000000002815260040180836000191660001916815260200180602001828103825283818151815260200191508051906020019080838360005b8381101561569c578082015181840152602081019050615681565b50505050905090810190601f1680156156c95780820380516001836020036101000a031916815260200191505b509350505050600060405180830381600087803b1580156156e957600080fd5b505af11580156156fd573d6000803e3d6000fd5b50505050600360009054906101000a900473ffffffffffffffffffffffffffffffffffffffff1673ffffffffffffffffffffffffffffffffffffffff1663ca446dd983866040518363ffffffff167c01000000000000000000000000000000000000000000000000000000000281526004018083600019166000191681526020018273ffffffffffffffffffffffffffffffffffffffff1673ffffffffffffffffffffffffffffffffffffffff16815260200192505050600060405180830381600087803b1580156157ce57600080fd5b505af11580156157e2573d6000803e3d6000fd5b505050507f9df5b3e0e60fff9b971dcb675e7193614408ac9f4ed701f4dfd04863c66beac18486604051808373ffffffffffffffffffffffffffffffffffffffff1673ffffffffffffffffffffffffffffffffffffffff16815260200180602001828103825283818151815260200191508051906020019080838360005b8381101561587b578082015181840152602081019050615860565b50505050905090810190601f1680156158a85780820380516001836020036101000a031916815260200191505b50935050505060405180910390a15050505050565b6060806060806060806000808a965089955088945084518651885101016040519080825280601f01601f19166020018201604052801561590c5781602001602082028038833980820191505090505b50935083925060009150600090505b86518110156159ce57868181518110151561593257fe5b9060200101517f010000000000000000000000000000000000000000000000000000000000000090047f010000000000000000000000000000000000000000000000000000000000000002838380600101945081518110151561599157fe5b9060200101907effffffffffffffffffffffffffffffffffffffffffffffffffffffffffffff1916908160001a905350808060010191505061591b565b600090505b8551811015615a865785818151811015156159ea57fe5b9060200101517f010000000000000000000000000000000000000000000000000000000000000090047f0100000000000000000000000000000000000000000000000000000000000000028383806001019450815181101515615a4957fe5b9060200101907effffffffffffffffffffffffffffffffffffffffffffffffffffffffffffff1916908160001a90535080806001019150506159d3565b600090505b8451811015615b3e578481815181101515615aa257fe5b9060200101517f010000000000000000000000000000000000000000000000000000000000000090047f0100000000000000000000000000000000000000000000000000000000000000028383806001019450815181101515615b0157fe5b9060200101907effffffffffffffffffffffffffffffffffffffffffffffffffffffffffffff1916908160001a9053508080600101915050615a8b565b829750505050505050509392505050565b60006060829050600081511415615b6c5760006001029150615b74565b602083015191505b50919050565b6000600260009054906101000a900473ffffffffffffffffffffffffffffffffffffffff1673ffffffffffffffffffffffffffffffffffffffff1663db7a6d90836040518263ffffffff167c01000000000000000000000000000000000000000000000000000000000281526004018080602001828103825283818151815260200191508051906020019080838360005b83811015615c26578082015181840152602081019050615c0b565b50505050905090810190601f168015615c535780820380516001836020036101000a031916815260200191505b5092505050602060405180830381600087803b158015615c7257600080fd5b505af1158015615c86573d6000803e3d6000fd5b505050506040513d6020811015615c9c57600080fd5b810190808051906020019092919050505090509190505600a165627a7a7230582089290d7cb6be85d98cb66d776af78726817f37e35d054d23407606f535b9a6b00029",
  "source": "pragma solidity ^0.4.24;\n\nimport \"../2key/singleton-contracts/TwoKeyRegistry.sol\";\n\ncontract TwoKeyRegistryV1 is TwoKeyRegistry {\n    function getMaintainers() public view returns (address[]) {\n        address [] memory add = new address[](1);\n        add[0] = 0x9aace881c7a80b596d38eaff66edbb5368d2f2c5;\n        return add;\n    }\n}\n",
  "sourcePath": "/Users/nikolamadjarevic/Desktop/2key/contracts/contracts/upgradable-contracts-test/TwoKeyRegistryV1.sol",
  "compiler": {
    "name": "solc",
    "version": "0.4.24+commit.e67f0147.Emscripten.clang"
  },
  "schemaVersion": "2.0.1",
  "updatedAt": "2019-07-18T12:16:47.648Z"
}