{
  "contractName": "TwoKeyAcquisitionLogicHandler",
  "abi": [
    {
      "constant": true,
      "inputs": [
        {
          "name": "_user",
          "type": "address"
        },
        {
          "name": "plasma",
          "type": "bool"
        },
        {
          "name": "signature",
          "type": "bytes"
        }
      ],
      "name": "getSuperStatistics",
      "outputs": [
        {
          "name": "",
          "type": "bytes"
        }
      ],
      "payable": false,
      "stateMutability": "view",
      "type": "function"
    },
    {
      "constant": true,
      "inputs": [],
      "name": "IS_CAMPAIGN_ACTIVE",
      "outputs": [
        {
          "name": "",
          "type": "bool"
        }
      ],
      "payable": false,
      "stateMutability": "view",
      "type": "function"
    },
    {
      "constant": true,
      "inputs": [
        {
          "name": "me",
          "type": "address"
        }
      ],
      "name": "ethereumOf",
      "outputs": [
        {
          "name": "",
          "type": "address"
        }
      ],
      "payable": false,
      "stateMutability": "view",
      "type": "function"
    },
    {
      "constant": true,
      "inputs": [],
      "name": "ALLOWED_GAP",
      "outputs": [
        {
          "name": "",
          "type": "uint256"
        }
      ],
      "payable": false,
      "stateMutability": "view",
      "type": "function"
    },
    {
      "constant": true,
      "inputs": [
        {
          "name": "me",
          "type": "address"
        }
      ],
      "name": "plasmaOf",
      "outputs": [
        {
          "name": "",
          "type": "address"
        }
      ],
      "payable": false,
      "stateMutability": "view",
      "type": "function"
    },
    {
      "constant": true,
      "inputs": [
        {
          "name": "",
          "type": "address"
        }
      ],
      "name": "referrerPlasma2TotalEarnings2key",
      "outputs": [
        {
          "name": "",
          "type": "uint256"
        }
      ],
      "payable": false,
      "stateMutability": "view",
      "type": "function"
    },
    {
      "constant": true,
      "inputs": [
        {
          "name": "_referrer",
          "type": "address"
        }
      ],
      "name": "getReferrerPlasmaTotalEarnings",
      "outputs": [
        {
          "name": "",
          "type": "uint256"
        }
      ],
      "payable": false,
      "stateMutability": "view",
      "type": "function"
    },
    {
      "constant": true,
      "inputs": [],
      "name": "getIncentiveModel",
      "outputs": [
        {
          "name": "",
          "type": "uint8"
        }
      ],
      "payable": false,
      "stateMutability": "view",
      "type": "function"
    },
    {
      "constant": false,
      "inputs": [
        {
          "name": "_converter",
          "type": "address"
        },
        {
          "name": "_conversionId",
          "type": "uint256"
        },
        {
          "name": "totalBounty2keys",
          "type": "uint256"
        }
      ],
      "name": "updateRefchainRewards",
      "outputs": [],
      "payable": false,
      "stateMutability": "nonpayable",
      "type": "function"
    },
    {
      "constant": true,
      "inputs": [],
      "name": "campaignRaisedIncludingPendingConversions",
      "outputs": [
        {
          "name": "",
          "type": "uint256"
        }
      ],
      "payable": false,
      "stateMutability": "view",
      "type": "function"
    },
    {
      "constant": false,
      "inputs": [
        {
          "name": "value",
          "type": "uint256"
        }
      ],
      "name": "updateMinContributionETHOrUSD",
      "outputs": [],
      "payable": false,
      "stateMutability": "nonpayable",
      "type": "function"
    },
    {
      "constant": true,
      "inputs": [],
      "name": "implementation",
      "outputs": [
        {
          "name": "",
          "type": "address"
        }
      ],
      "payable": false,
      "stateMutability": "view",
      "type": "function"
    },
    {
      "constant": true,
      "inputs": [],
      "name": "conversionHandler",
      "outputs": [
        {
          "name": "",
          "type": "address"
        }
      ],
      "payable": false,
      "stateMutability": "view",
      "type": "function"
    },
    {
      "constant": true,
      "inputs": [],
      "name": "twoKeyCampaign",
      "outputs": [
        {
          "name": "",
          "type": "address"
        }
      ],
      "payable": false,
      "stateMutability": "view",
      "type": "function"
    },
    {
      "constant": true,
      "inputs": [
        {
          "name": "_referrerPlasmaList",
          "type": "address[]"
        }
      ],
      "name": "getReferrersBalancesAndTotalEarnings",
      "outputs": [
        {
          "name": "",
          "type": "uint256[]"
        },
        {
          "name": "",
          "type": "uint256[]"
        }
      ],
      "payable": false,
      "stateMutability": "view",
      "type": "function"
    },
    {
      "constant": true,
      "inputs": [
        {
          "name": "_referrerAddress",
          "type": "address"
        },
        {
          "name": "_sig",
          "type": "bytes"
        },
        {
          "name": "_conversionIds",
          "type": "uint256[]"
        }
      ],
      "name": "getReferrerBalanceAndTotalEarningsAndNumberOfConversions",
      "outputs": [
        {
          "name": "",
          "type": "uint256"
        },
        {
          "name": "",
          "type": "uint256"
        },
        {
          "name": "",
          "type": "uint256"
        },
        {
          "name": "",
          "type": "uint256[]"
        },
        {
          "name": "",
          "type": "address"
        }
      ],
      "payable": false,
      "stateMutability": "view",
      "type": "function"
    },
    {
      "constant": true,
      "inputs": [
        {
          "name": "",
          "type": "address"
        }
      ],
      "name": "referrerPlasmaAddressToCounterOfConversions",
      "outputs": [
        {
          "name": "",
          "type": "uint256"
        }
      ],
      "payable": false,
      "stateMutability": "view",
      "type": "function"
    },
    {
      "constant": true,
      "inputs": [
        {
          "name": "customer",
          "type": "address"
        }
      ],
      "name": "getReferrers",
      "outputs": [
        {
          "name": "",
          "type": "address[]"
        }
      ],
      "payable": false,
      "stateMutability": "view",
      "type": "function"
    },
    {
      "constant": true,
      "inputs": [],
      "name": "currency",
      "outputs": [
        {
          "name": "",
          "type": "string"
        }
      ],
      "payable": false,
      "stateMutability": "view",
      "type": "function"
    },
    {
      "constant": true,
      "inputs": [
        {
          "name": "_address",
          "type": "address"
        }
      ],
      "name": "getAddressJoinedStatus",
      "outputs": [
        {
          "name": "",
          "type": "bool"
        }
      ],
      "payable": false,
      "stateMutability": "view",
      "type": "function"
    },
    {
      "constant": false,
      "inputs": [
        {
          "name": "value",
          "type": "uint256"
        }
      ],
      "name": "updateMaxContributionETHorUSD",
      "outputs": [],
      "payable": false,
      "stateMutability": "nonpayable",
      "type": "function"
    },
    {
      "constant": false,
      "inputs": [
        {
          "name": "values",
          "type": "uint256[]"
        },
        {
          "name": "_currency",
          "type": "string"
        },
        {
          "name": "_assetContractERC20",
          "type": "address"
        },
        {
          "name": "_moderator",
          "type": "address"
        },
        {
          "name": "_contractor",
          "type": "address"
        },
        {
          "name": "_acquisitionCampaignAddress",
          "type": "address"
        },
        {
          "name": "_twoKeySingletoneRegistry",
          "type": "address"
        },
        {
          "name": "_twoKeyConversionHandler",
          "type": "address"
        }
      ],
      "name": "setInitialParamsLogicHandler",
      "outputs": [],
      "payable": false,
      "stateMutability": "nonpayable",
      "type": "function"
    },
    {
      "constant": false,
      "inputs": [],
      "name": "activateCampaign",
      "outputs": [],
      "payable": false,
      "stateMutability": "nonpayable",
      "type": "function"
    },
    {
      "constant": false,
      "inputs": [
        {
          "name": "converter",
          "type": "address"
        },
        {
          "name": "conversionAmount",
          "type": "uint256"
        },
        {
          "name": "isFiatConversion",
          "type": "bool"
        }
      ],
      "name": "checkAllRequirementsForConversionAndTotalRaised",
      "outputs": [
        {
          "name": "",
          "type": "bool"
        },
        {
          "name": "",
          "type": "uint256"
        }
      ],
      "payable": false,
      "stateMutability": "nonpayable",
      "type": "function"
    },
    {
      "constant": true,
      "inputs": [
        {
          "name": "converter",
          "type": "address"
        },
        {
          "name": "amountWillingToSpend",
          "type": "uint256"
        },
        {
          "name": "isFiat",
          "type": "bool"
        }
      ],
      "name": "canConversionBeCreatedInTermsOfMinMaxContribution",
      "outputs": [
        {
          "name": "",
          "type": "bool"
        }
      ],
      "payable": false,
      "stateMutability": "view",
      "type": "function"
    },
    {
      "constant": true,
      "inputs": [
        {
          "name": "converter",
          "type": "address"
        },
        {
          "name": "amountWillingToSpendFiatWei",
          "type": "uint256"
        }
      ],
      "name": "validateMinMaxContributionForFIATConversion",
      "outputs": [
        {
          "name": "",
          "type": "bool"
        },
        {
          "name": "",
          "type": "uint256"
        }
      ],
      "payable": false,
      "stateMutability": "view",
      "type": "function"
    },
    {
      "constant": true,
      "inputs": [
        {
          "name": "converter",
          "type": "address"
        },
        {
          "name": "amountWillingToSpendEthWei",
          "type": "uint256"
        }
      ],
      "name": "validateMinMaxContributionForETHConversion",
      "outputs": [
        {
          "name": "",
          "type": "bool"
        },
        {
          "name": "",
          "type": "uint256"
        }
      ],
      "payable": false,
      "stateMutability": "view",
      "type": "function"
    },
    {
      "constant": true,
      "inputs": [],
      "name": "canContractorWithdrawUnsoldTokens",
      "outputs": [
        {
          "name": "",
          "type": "bool"
        }
      ],
      "payable": false,
      "stateMutability": "view",
      "type": "function"
    },
    {
      "constant": true,
      "inputs": [],
      "name": "getInvestmentRules",
      "outputs": [
        {
          "name": "",
          "type": "bool"
        },
        {
          "name": "",
          "type": "uint256"
        },
        {
          "name": "",
          "type": "bool"
        }
      ],
      "payable": false,
      "stateMutability": "view",
      "type": "function"
    },
    {
      "constant": true,
      "inputs": [
        {
          "name": "conversionAmountETHWeiOrFiat",
          "type": "uint256"
        },
        {
          "name": "isFiatConversion",
          "type": "bool"
        }
      ],
      "name": "getEstimatedTokenAmount",
      "outputs": [
        {
          "name": "",
          "type": "uint256"
        },
        {
          "name": "",
          "type": "uint256"
        }
      ],
      "payable": false,
      "stateMutability": "view",
      "type": "function"
    },
    {
      "constant": true,
      "inputs": [],
      "name": "getConstantInfo",
      "outputs": [
        {
          "name": "",
          "type": "uint256"
        },
        {
          "name": "",
          "type": "uint256"
        },
        {
          "name": "",
          "type": "uint256"
        },
        {
          "name": "",
          "type": "uint256"
        },
        {
          "name": "",
          "type": "uint256"
        },
        {
          "name": "",
          "type": "uint256"
        },
        {
          "name": "",
          "type": "uint256"
        }
      ],
      "payable": false,
      "stateMutability": "view",
      "type": "function"
    }
  ],
  "bytecode": "0x608060405234801561001057600080fd5b50615318806100206000396000f30060806040526004361061018b576000357c0100000000000000000000000000000000000000000000000000000000900463ffffffff1680630724a6091461019057806308732c1a1461029e578063102a8e70146102cd5780631118be89146103505780631a025f251461037b5780631f820281146103fe5780631fc8d9091461045557806320c434da146104ac5780632698adf51461051857806328e2b449146105515780633afda04d146105805780633b2b5a48146105d75780635077f69e146106025780635c60da1b1461062f578063624aead91461068657806371e53aad146106f75780637981a7e01461074c5780637fc0c0c7146107a35780638c221eb2146107f75780639da8afed14610963578063a222b952146109db578063ab09765914610a32578063b0577c0514610a9e578063bc536b2a14610ba1578063c501ea5214610d0a578063df65845a14610d61578063e5a6b10f14610df9578063ea12e9b614610e89578063ed38b8ae14610ea0578063fbab697c14610efb578063fde2379e14610f28575b600080fd5b34801561019c57600080fd5b50610223600480360381019080803573ffffffffffffffffffffffffffffffffffffffff169060200190929190803515159060200190929190803590602001908201803590602001908080601f0160208091040260200160405190810160405280939291908181526020018383808284378201915050505050509192919290505050610f69565b6040518080602001828103825283818151815260200191508051906020019080838360005b83811015610263578082015181840152602081019050610248565b50505050905090810190601f1680156102905780820380516001836020036101000a031916815260200191505b509250505060405180910390f35b3480156102aa57600080fd5b506102b3611324565b604051808215151515815260200191505060405180910390f35b3480156102d957600080fd5b5061030e600480360381019080803573ffffffffffffffffffffffffffffffffffffffff169060200190929190505050611337565b604051808273ffffffffffffffffffffffffffffffffffffffff1673ffffffffffffffffffffffffffffffffffffffff16815260200191505060405180910390f35b34801561035c57600080fd5b5061036561147c565b6040518082815260200191505060405180910390f35b34801561038757600080fd5b506103bc600480360381019080803573ffffffffffffffffffffffffffffffffffffffff169060200190929190505050611482565b604051808273ffffffffffffffffffffffffffffffffffffffff1673ffffffffffffffffffffffffffffffffffffffff16815260200191505060405180910390f35b34801561040a57600080fd5b5061043f600480360381019080803573ffffffffffffffffffffffffffffffffffffffff1690602001909291905050506115c7565b6040518082815260200191505060405180910390f35b34801561046157600080fd5b50610496600480360381019080803573ffffffffffffffffffffffffffffffffffffffff1690602001909291905050506115df565b6040518082815260200191505060405180910390f35b3480156104b857600080fd5b506104f7600480360381019080803573ffffffffffffffffffffffffffffffffffffffff16906020019092919080359060200190929190505050611628565b60405180831515151581526020018281526020019250505060405180910390f35b34801561052457600080fd5b5061052d6118dc565b6040518082600481111561053d57fe5b60ff16815260200191505060405180910390f35b34801561055d57600080fd5b506105666118f2565b604051808215151515815260200191505060405180910390f35b34801561058c57600080fd5b506105d5600480360381019080803573ffffffffffffffffffffffffffffffffffffffff1690602001909291908035906020019092919080359060200190929190505050611901565b005b3480156105e357600080fd5b506105ec611d60565b6040518082815260200191505060405180910390f35b34801561060e57600080fd5b5061062d60048036038101908080359060200190929190505050611d66565b005b34801561063b57600080fd5b50610644611dcc565b604051808273ffffffffffffffffffffffffffffffffffffffff1673ffffffffffffffffffffffffffffffffffffffff16815260200191505060405180910390f35b34801561069257600080fd5b506106dd600480360381019080803573ffffffffffffffffffffffffffffffffffffffff16906020019092919080359060200190929190803515159060200190929190505050611df5565b604051808215151515815260200191505060405180910390f35b34801561070357600080fd5b5061070c611e2d565b6040518088815260200187815260200186815260200185815260200184815260200183815260200182815260200197505050505050505060405180910390f35b34801561075857600080fd5b50610761611e64565b604051808273ffffffffffffffffffffffffffffffffffffffff1673ffffffffffffffffffffffffffffffffffffffff16815260200191505060405180910390f35b3480156107af57600080fd5b506107da60048036038101908080359060200190929190803515159060200190929190505050611e8a565b604051808381526020018281526020019250505060405180910390f35b34801561080357600080fd5b5061096160048036038101908080359060200190820180359060200190808060200260200160405190810160405280939291908181526020018383602002808284378201915050505050509192919290803590602001908201803590602001908080601f0160208091040260200160405190810160405280939291908181526020018383808284378201915050505050509192919290803573ffffffffffffffffffffffffffffffffffffffff169060200190929190803573ffffffffffffffffffffffffffffffffffffffff169060200190929190803573ffffffffffffffffffffffffffffffffffffffff169060200190929190803573ffffffffffffffffffffffffffffffffffffffff169060200190929190803573ffffffffffffffffffffffffffffffffffffffff169060200190929190803573ffffffffffffffffffffffffffffffffffffffff1690602001909291905050506121c2565b005b34801561096f57600080fd5b506109ba600480360381019080803573ffffffffffffffffffffffffffffffffffffffff16906020019092919080359060200190929190803515159060200190929190505050612a01565b60405180831515151581526020018281526020019250505060405180910390f35b3480156109e757600080fd5b506109f0612b34565b604051808273ffffffffffffffffffffffffffffffffffffffff1673ffffffffffffffffffffffffffffffffffffffff16815260200191505060405180910390f35b348015610a3e57600080fd5b50610a7d600480360381019080803573ffffffffffffffffffffffffffffffffffffffff16906020019092919080359060200190929190505050612b5a565b60405180831515151581526020018281526020019250505060405180910390f35b348015610aaa57600080fd5b50610b0260048036038101908080359060200190820180359060200190808060200260200160405190810160405280939291908181526020018383602002808284378201915050505050509192919290505050612d75565b604051808060200180602001838103835285818151815260200191508051906020019060200280838360005b83811015610b49578082015181840152602081019050610b2e565b50505050905001838103825284818151815260200191508051906020019060200280838360005b83811015610b8b578082015181840152602081019050610b70565b5050505090500194505050505060405180910390f35b348015610bad57600080fd5b50610c6b600480360381019080803573ffffffffffffffffffffffffffffffffffffffff169060200190929190803590602001908201803590602001908080601f0160208091040260200160405190810160405280939291908181526020018383808284378201915050505050509192919290803590602001908201803590602001908080602002602001604051908101604052809392919081815260200183836020028082843782019150505050505091929192905050506131b0565b60405180868152602001858152602001848152602001806020018373ffffffffffffffffffffffffffffffffffffffff1673ffffffffffffffffffffffffffffffffffffffff168152602001828103825284818151815260200191508051906020019060200280838360005b83811015610cf2578082015181840152602081019050610cd7565b50505050905001965050505050505060405180910390f35b348015610d1657600080fd5b50610d4b600480360381019080803573ffffffffffffffffffffffffffffffffffffffff16906020019092919050505061344f565b6040518082815260200191505060405180910390f35b348015610d6d57600080fd5b50610da2600480360381019080803573ffffffffffffffffffffffffffffffffffffffff169060200190929190505050613467565b6040518080602001828103825283818151815260200191508051906020019060200280838360005b83811015610de5578082015181840152602081019050610dca565b505050509050019250505060405180910390f35b348015610e0557600080fd5b50610e0e6137bf565b6040518080602001828103825283818151815260200191508051906020019080838360005b83811015610e4e578082015181840152602081019050610e33565b50505050905090810190601f168015610e7b5780820380516001836020036101000a031916815260200191505b509250505060405180910390f35b348015610e9557600080fd5b50610e9e61385d565b005b348015610eac57600080fd5b50610ee1600480360381019080803573ffffffffffffffffffffffffffffffffffffffff169060200190929190505050613a46565b604051808215151515815260200191505060405180910390f35b348015610f0757600080fd5b50610f2660048036038101908080359060200190929190505050613d85565b005b348015610f3457600080fd5b50610f3d613deb565b604051808415151515815260200183815260200182151515158152602001935050505060405180910390f35b60606000606060008060006060899550881561107a57600260009054906101000a900473ffffffffffffffffffffffffffffffffffffffff1673ffffffffffffffffffffffffffffffffffffffff1663b83970658b6040518263ffffffff167c0100000000000000000000000000000000000000000000000000000000028152600401808273ffffffffffffffffffffffffffffffffffffffff1673ffffffffffffffffffffffffffffffffffffffff168152602001915050602060405180830381600087803b15801561103c57600080fd5b505af1158015611050573d6000803e3d6000fd5b505050506040513d602081101561106657600080fd5b810190808051906020019092919050505095505b600260009054906101000a900473ffffffffffffffffffffffffffffffffffffffff1673ffffffffffffffffffffffffffffffffffffffff1663ffc9896b876040518263ffffffff167c0100000000000000000000000000000000000000000000000000000000028152600401808273ffffffffffffffffffffffffffffffffffffffff1673ffffffffffffffffffffffffffffffffffffffff168152602001915050600060405180830381600087803b15801561113757600080fd5b505af115801561114b573d6000803e3d6000fd5b505050506040513d6000823e3d601f19601f82011682018060405250602081101561117557600080fd5b81019080805164010000000081111561118d57600080fd5b828101905060208101848111156111a357600080fd5b81518560018202830111640100000000821117156111c057600080fd5b505092919050505094506111d38a613a46565b93506111e08a8a84613e1d565b9050848487836040516020018085805190602001908083835b60208310151561121e57805182526020820191506020810190506020830392506111f9565b6001836020036101000a03801982511681845116808217855250505050505090500184151515157f01000000000000000000000000000000000000000000000000000000000000000281526001018373ffffffffffffffffffffffffffffffffffffffff1673ffffffffffffffffffffffffffffffffffffffff166c0100000000000000000000000002815260140182805190602001908083835b6020831015156112de57805182526020820191506020810190506020830392506112b9565b6001836020036101000a03801982511681845116808217855250505050505090500194505050505060405160208183030381529060405296505050505050509392505050565b601560009054906101000a900460ff1681565b600080600260009054906101000a900473ffffffffffffffffffffffffffffffffffffffff1673ffffffffffffffffffffffffffffffffffffffff1663b8397065846040518263ffffffff167c0100000000000000000000000000000000000000000000000000000000028152600401808273ffffffffffffffffffffffffffffffffffffffff1673ffffffffffffffffffffffffffffffffffffffff168152602001915050602060405180830381600087803b1580156113f757600080fd5b505af115801561140b573d6000803e3d6000fd5b505050506040513d602081101561142157600080fd5b81019080805190602001909291905050509050600073ffffffffffffffffffffffffffffffffffffffff168173ffffffffffffffffffffffffffffffffffffffff1614151561147257809150611476565b8291505b50919050565b600e5481565b600080600260009054906101000a900473ffffffffffffffffffffffffffffffffffffffff1673ffffffffffffffffffffffffffffffffffffffff1663edab0437846040518263ffffffff167c0100000000000000000000000000000000000000000000000000000000028152600401808273ffffffffffffffffffffffffffffffffffffffff1673ffffffffffffffffffffffffffffffffffffffff168152602001915050602060405180830381600087803b15801561154257600080fd5b505af1158015611556573d6000803e3d6000fd5b505050506040513d602081101561156c57600080fd5b81019080805190602001909291905050509050600073ffffffffffffffffffffffffffffffffffffffff168173ffffffffffffffffffffffffffffffffffffffff161415156115bd578091506115c1565b8291505b50919050565b60126020528060005260406000206000915090505481565b6000601260008373ffffffffffffffffffffffffffffffffffffffff1673ffffffffffffffffffffffffffffffffffffffff168152602001908152602001600020549050919050565b6000806000806000806000600660009054906101000a900473ffffffffffffffffffffffffffffffffffffffff1673ffffffffffffffffffffffffffffffffffffffff1663b0f3684b8a6040518263ffffffff167c0100000000000000000000000000000000000000000000000000000000028152600401808273ffffffffffffffffffffffffffffffffffffffff1673ffffffffffffffffffffffffffffffffffffffff168152602001915050606060405180830381600087803b1580156116f057600080fd5b505af1158015611704573d6000803e3d6000fd5b505050506040513d606081101561171a57600080fd5b8101908080519060200190929190805190602001909291908051906020019092919050505050809550819650505061175285856142fa565b925060405180807f45544800000000000000000000000000000000000000000000000000000000008152506003019050604051809103902060001916600f60405180828054600181600116156101000203166002900480156117eb5780601f106117c95761010080835404028352918201916117eb565b820191906000526020600020905b8154815290600101906020018083116117d7575b5050915050604051809103902060001916141561184457876118186103e88561443490919063ffffffff16565b118015611827575087600a5411155b1561183857600183965096506118d0565b600083965096506118d0565b61184c614453565b915061187b670de0b6b3a764000061186d848b6145cf90919063ffffffff16565b61460a90919063ffffffff16565b905080611893600e548561443490919063ffffffff16565b101580156118b757506118b1600e548261443490919063ffffffff16565b600a5411155b156118c857600183965096506118d0565b600083965096505b50505050509250929050565b60008060159054906101000a900460ff16905090565b60006118fc614620565b905090565b60606000806000806060600080600560009054906101000a900473ffffffffffffffffffffffffffffffffffffffff1673ffffffffffffffffffffffffffffffffffffffff163373ffffffffffffffffffffffffffffffffffffffff1614151561196a57600080fd5b6119738b613467565b9750875196506001600481111561198657fe5b600060159054906101000a900460ff1660048111156119a157fe5b14156119f4576119b1898861468f565b9450600095505b868610156119ef576119e288878151811015156119d157fe5b90602001906020020151868c6146c4565b85806001019650506119b8565b611d53565b60026004811115611a0157fe5b600060159054906101000a900460ff166004811115611a1c57fe5b1415611aa757611a2c8988614a59565b80955081965050506000871115611aa257600095505b60018703861015611a7c57611a6f8887815181101515611a5e57fe5b90602001906020020151868c6146c4565b8580600101965050611a42565b611aa18860018903815181101515611a9057fe5b90602001906020020151858c6146c4565b5b611d52565b60036004811115611ab457fe5b600060159054906101000a900460ff166004811115611acf57fe5b1415611b3b57611ae189886002614ac8565b9250600095505b86861015611b3657611b298887815181101515611b0157fe5b906020019060200201518488815181101515611b1957fe5b906020019060200201518c6146c4565b8580600101965050611ae8565b611d51565b60006004811115611b4857fe5b600060159054906101000a900460ff166004811115611b6357fe5b1415611d5057600095505b86861015611d4f576001885103861415611b8a57889150611d0b565b600560009054906101000a900473ffffffffffffffffffffffffffffffffffffffff1673ffffffffffffffffffffffffffffffffffffffff1663ede89f648988815181101515611bd657fe5b906020019060200201516040518263ffffffff167c0100000000000000000000000000000000000000000000000000000000028152600401808273ffffffffffffffffffffffffffffffffffffffff1673ffffffffffffffffffffffffffffffffffffffff168152602001915050602060405180830381600087803b158015611c5e57600080fd5b505af1158015611c72573d6000803e3d6000fd5b505050506040513d6020811015611c8857600080fd5b81019080805190602001909291905050509050600081118015611cac575060658111155b15611cf157611cea6064611cdc611ccd600185614b9490919063ffffffff16565b8c6145cf90919063ffffffff16565b61460a90919063ffffffff16565b9150611d0a565b611d07868951038a61460a90919063ffffffff16565b91505b5b611d2d8887815181101515611d1c57fe5b90602001906020020151838c6146c4565b611d40828a614b9490919063ffffffff16565b98508580600101965050611b6e565b5b5b5b5b5050505050505050505050565b60105481565b600860009054906101000a900473ffffffffffffffffffffffffffffffffffffffff1673ffffffffffffffffffffffffffffffffffffffff163373ffffffffffffffffffffffffffffffffffffffff16141515611dc257600080fd5b80600a8190555050565b60008060009054906101000a900473ffffffffffffffffffffffffffffffffffffffff16905090565b6000808215611e1257611e088585612b5a565b5080915050611e22565b611e1c8585611628565b50809150505b809150509392505050565b6000806000806000806000600c54600d54600a54600b54601754601654601854965096509650965096509650965090919293949596565b600660009054906101000a900473ffffffffffffffffffffffffffffffffffffffff1681565b60008060008060008060006016549450600115158815151415611f0b57611ed485611ec6670de0b6b3a76400008c6145cf90919063ffffffff16565b61460a90919063ffffffff16565b9350611efe6064611ef0601854876145cf90919063ffffffff16565b61460a90919063ffffffff16565b92508383965096506121b6565b60405180807f45544800000000000000000000000000000000000000000000000000000000008152506003019050604051809103902060001916600f6040518082805460018160011615610100020316600290048015611fa25780601f10611f80576101008083540402835291820191611fa2565b820191906000526020600020905b815481529060010190602001808311611f8e575b505091505060405180910390206000191614151561215957611ff86040805190810160405280601a81526020017f54776f4b657945786368616e676552617465436f6e7472616374000000000000815250614bb0565b91508173ffffffffffffffffffffffffffffffffffffffff1663744248db600f6040518263ffffffff167c010000000000000000000000000000000000000000000000000000000002815260040180806020018281038252838181546001816001161561010002031660029004815260200191508054600181600116156101000203166002900480156120cc5780601f106120a1576101008083540402835291602001916120cc565b820191906000526020600020905b8154815290600101906020018083116120af57829003601f168201915b505092505050602060405180830381600087803b1580156120ec57600080fd5b505af1158015612100573d6000803e3d6000fd5b505050506040513d602081101561211657600080fd5b81019080805190602001909291905050509050612156670de0b6b3a7640000612148838c6145cf90919063ffffffff16565b61460a90919063ffffffff16565b98505b61218385612175601754600a0a8c6145cf90919063ffffffff16565b61460a90919063ffffffff16565b93506121ad606461219f601854876145cf90919063ffffffff16565b61460a90919063ffffffff16565b92508383965096505b50505050509250929050565b8760008151811015156121d157fe5b906020019060200201518860018151811015156121ea57fe5b906020019060200201511015151561220157600080fd5b87600381518110151561221057fe5b9060200190602002015188600481518110151561222957fe5b9060200190602002015111151561223f57600080fd5b68056bc75e2d6310000088600581518110151561225857fe5b906020019060200201511115151561226f57600080fd5b60001515600060149054906101000a900460ff16151514151561229157600080fd5b8760018151811015156122a057fe5b906020019060200201518860008151811015156122b957fe5b9060200190602002015114156122e45760016015806101000a81548160ff0219169083151502179055505b8760008151811015156122f357fe5b90602001906020020151600a8190555087600181518110151561231257fe5b90602001906020020151600b8190555087600281518110151561233157fe5b9060200190602002015160168190555087600381518110151561235057fe5b90602001906020020151600c8190555087600481518110151561236f57fe5b90602001906020020151600d8190555087600581518110151561238e57fe5b906020019060200201516018819055508760068151811015156123ad57fe5b9060200190602002015160048111156123c257fe5b600060156101000a81548160ff021916908360048111156123df57fe5b021790555060018860078151811015156123f557fe5b906020019060200201511415612421576001601560166101000a81548160ff0219169083151502179055505b87600881518110151561243057fe5b90602001906020020151601981905550600188600981518110151561245157fe5b90602001906020020151141561247d576001601160006101000a81548160ff0219169083151502179055505b87600a81518110151561248c57fe5b90602001906020020151601a8190555086600f90805190602001906124b2929190615247565b5060405180807f45544800000000000000000000000000000000000000000000000000000000008152506003019050604051809103902060001916876040518082805190602001908083835b60208310151561252357805182526020820191506020810190506020830392506124fe565b6001836020036101000a038019825116818451168082178552505050505050905001915050604051809103902060001916141561258d57662386f26fc1000088600081518110151561257157fe5b906020019060200201511015151561258857600080fd5b6125bd565b670de0b6b3a76400008860008151811015156125a557fe5b90602001906020020151101515156125bc57600080fd5b5b85601560016101000a81548173ffffffffffffffffffffffffffffffffffffffff021916908373ffffffffffffffffffffffffffffffffffffffff16021790555084600960006101000a81548173ffffffffffffffffffffffffffffffffffffffff021916908373ffffffffffffffffffffffffffffffffffffffff16021790555083600860006101000a81548173ffffffffffffffffffffffffffffffffffffffff021916908373ffffffffffffffffffffffffffffffffffffffff1602179055508573ffffffffffffffffffffffffffffffffffffffff1663313ce5676040518163ffffffff167c0100000000000000000000000000000000000000000000000000000000028152600401602060405180830381600087803b1580156126e457600080fd5b505af11580156126f8573d6000803e3d6000fd5b505050506040513d602081101561270e57600080fd5b810190808051906020019092919050505060178190555082600560006101000a81548173ffffffffffffffffffffffffffffffffffffffff021916908373ffffffffffffffffffffffffffffffffffffffff16021790555081600360006101000a81548173ffffffffffffffffffffffffffffffffffffffff021916908373ffffffffffffffffffffffffffffffffffffffff1602179055506127e56040805190810160405280600e81526020017f54776f4b65795265676973747279000000000000000000000000000000000000815250614bb0565b600260006101000a81548173ffffffffffffffffffffffffffffffffffffffff021916908373ffffffffffffffffffffffffffffffffffffffff1602179055506128636040805190810160405280601981526020017f54776f4b65794d61696e7461696e657273526567697374727900000000000000815250614bb0565b600160006101000a81548173ffffffffffffffffffffffffffffffffffffffff021916908373ffffffffffffffffffffffffffffffffffffffff1602179055506128e16040805190810160405280601181526020017f54776f4b65794576656e74536f75726365000000000000000000000000000000815250614bb0565b600460006101000a81548173ffffffffffffffffffffffffffffffffffffffff021916908373ffffffffffffffffffffffffffffffffffffffff16021790555061294c600860009054906101000a900473ffffffffffffffffffffffffffffffffffffffff16611482565b600760006101000a81548173ffffffffffffffffffffffffffffffffffffffff021916908373ffffffffffffffffffffffffffffffffffffffff16021790555080600660006101000a81548173ffffffffffffffffffffffffffffffffffffffff021916908373ffffffffffffffffffffffffffffffffffffffff160217905550670de0b6b3a7640000600e819055506001600060146101000a81548160ff0219169083151502179055505050505050505050565b6000806000600560009054906101000a900473ffffffffffffffffffffffffffffffffffffffff1673ffffffffffffffffffffffffffffffffffffffff163373ffffffffffffffffffffffffffffffffffffffff16141515612a6257600080fd5b601560169054906101000a900460ff1615612a8f5760011515841515141515612a8a57600080fd5b612aa3565b60001515841515141515612aa257600080fd5b5b60011515601560009054906101000a900460ff161515141515612ac557600080fd5b60011515612ad4878787611df5565b1515141515612ae257600080fd5b612aec8585614cea565b905060011515612afc8286614dec565b1515141515612b0a57600080fd5b60011515612b16614e2e565b1515141515612b2457600080fd5b6001819250925050935093915050565b600560009054906101000a900473ffffffffffffffffffffffffffffffffffffffff1681565b600080600080600060405180807f45544800000000000000000000000000000000000000000000000000000000008152506003019050604051809103902060001916600f6040518082805460018160011615610100020316600290048015612bf95780601f10612bd7576101008083540402835291820191612bf9565b820191906000526020600020905b815481529060010190602001808311612be5575b50509150506040518091039020600019161415612c1f5760008080905094509450612d6b565b600660009054906101000a900473ffffffffffffffffffffffffffffffffffffffff1673ffffffffffffffffffffffffffffffffffffffff1663b0f3684b886040518263ffffffff167c0100000000000000000000000000000000000000000000000000000000028152600401808273ffffffffffffffffffffffffffffffffffffffff1673ffffffffffffffffffffffffffffffffffffffff168152602001915050606060405180830381600087803b158015612cdc57600080fd5b505af1158015612cf0573d6000803e3d6000fd5b505050506040513d6060811015612d0657600080fd5b81019080805190602001909291908051906020019092919080519060200190929190505050508093508194505050612d3e83836142fa565b9050858110158015612d52575085600a5411155b15612d635760018194509450612d6b565b600081945094505b5050509250929050565b60608060006060806000600160009054906101000a900473ffffffffffffffffffffffffffffffffffffffff1673ffffffffffffffffffffffffffffffffffffffff1663cd2a81dc336040518263ffffffff167c0100000000000000000000000000000000000000000000000000000000028152600401808273ffffffffffffffffffffffffffffffffffffffff1673ffffffffffffffffffffffffffffffffffffffff168152602001915050602060405180830381600087803b158015612e3c57600080fd5b505af1158015612e50573d6000803e3d6000fd5b505050506040513d6020811015612e6657600080fd5b810190808051906020019092919050505080612f765750600160009054906101000a900473ffffffffffffffffffffffffffffffffffffffff1673ffffffffffffffffffffffffffffffffffffffff16635cc7815c336040518263ffffffff167c0100000000000000000000000000000000000000000000000000000000028152600401808273ffffffffffffffffffffffffffffffffffffffff1673ffffffffffffffffffffffffffffffffffffffff168152602001915050602060405180830381600087803b158015612f3a57600080fd5b505af1158015612f4e573d6000803e3d6000fd5b505050506040513d6020811015612f6457600080fd5b81019080805190602001909291905050505b1515612f8157600080fd5b8651935083604051908082528060200260200182016040528015612fb45781602001602082028038833980820191505090505b50925083604051908082528060200260200182016040528015612fe65781602001602082028038833980820191505090505b509150600090505b838110156131a157600560009054906101000a900473ffffffffffffffffffffffffffffffffffffffff1673ffffffffffffffffffffffffffffffffffffffff1663788fac2d888381518110151561304257fe5b906020019060200201516040518263ffffffff167c0100000000000000000000000000000000000000000000000000000000028152600401808273ffffffffffffffffffffffffffffffffffffffff1673ffffffffffffffffffffffffffffffffffffffff168152602001915050602060405180830381600087803b1580156130ca57600080fd5b505af11580156130de573d6000803e3d6000fd5b505050506040513d60208110156130f457600080fd5b8101908080519060200190929190505050838281518110151561311357fe5b906020019060200201818152505060126000888381518110151561313357fe5b9060200190602002015173ffffffffffffffffffffffffffffffffffffffff1673ffffffffffffffffffffffffffffffffffffffff16815260200190815260200160002054828281518110151561318657fe5b90602001906020020181815250508080600101915050612fee565b82829550955050505050915091565b60008060006060600080606060008060008b5111156131d9576131d28b614e5a565b9b506131e5565b6131e28c611482565b9b505b89519350836040519080825280602002602001820160405280156132185781602001602082028038833980820191505090505b509250600091505b838210156132b957601460008d73ffffffffffffffffffffffffffffffffffffffff1673ffffffffffffffffffffffffffffffffffffffff16815260200190815260200160002060008b8481518110151561327757fe5b90602001906020020151815260200190815260200160002054838381518110151561329e57fe5b90602001906020020181815250508180600101925050613220565b600560009054906101000a900473ffffffffffffffffffffffffffffffffffffffff1673ffffffffffffffffffffffffffffffffffffffff1663788fac2d8d6040518263ffffffff167c0100000000000000000000000000000000000000000000000000000000028152600401808273ffffffffffffffffffffffffffffffffffffffff1673ffffffffffffffffffffffffffffffffffffffff168152602001915050602060405180830381600087803b15801561337657600080fd5b505af115801561338a573d6000803e3d6000fd5b505050506040513d60208110156133a057600080fd5b8101908080519060200190929190505050905080601260008e73ffffffffffffffffffffffffffffffffffffffff1673ffffffffffffffffffffffffffffffffffffffff16815260200190815260200160002054601360008f73ffffffffffffffffffffffffffffffffffffffff1673ffffffffffffffffffffffffffffffffffffffff16815260200190815260200160002054858f9850985098509850985050505050939792965093509350565b60136020528060005260406000206000915090505481565b6060600080606061347785611482565b9250600091505b60011561360557613585600560009054906101000a900473ffffffffffffffffffffffffffffffffffffffff1673ffffffffffffffffffffffffffffffffffffffff16634c070ced856040518263ffffffff167c0100000000000000000000000000000000000000000000000000000000028152600401808273ffffffffffffffffffffffffffffffffffffffff1673ffffffffffffffffffffffffffffffffffffffff168152602001915050602060405180830381600087803b15801561354557600080fd5b505af1158015613559573d6000803e3d6000fd5b505050506040513d602081101561356f57600080fd5b8101908080519060200190929190505050611482565b92506135b2600860009054906101000a900473ffffffffffffffffffffffffffffffffffffffff16611482565b73ffffffffffffffffffffffffffffffffffffffff168373ffffffffffffffffffffffffffffffffffffffff1614156135ea57613605565b6135fe60018361443490919063ffffffff16565b915061347e565b816040519080825280602002602001820160405280156136345781602001602082028038833980820191505090505b50905061364085611482565b92505b60008211156137b45761374c600560009054906101000a900473ffffffffffffffffffffffffffffffffffffffff1673ffffffffffffffffffffffffffffffffffffffff16634c070ced856040518263ffffffff167c0100000000000000000000000000000000000000000000000000000000028152600401808273ffffffffffffffffffffffffffffffffffffffff1673ffffffffffffffffffffffffffffffffffffffff168152602001915050602060405180830381600087803b15801561370c57600080fd5b505af1158015613720573d6000803e3d6000fd5b505050506040513d602081101561373657600080fd5b8101908080519060200190929190505050611482565b9250613762600183614b9490919063ffffffff16565b915082818381518110151561377357fe5b9060200190602002019073ffffffffffffffffffffffffffffffffffffffff16908173ffffffffffffffffffffffffffffffffffffffff1681525050613643565b809350505050919050565b600f8054600181600116156101000203166002900480601f0160208091040260200160405190810160405280929190818152602001828054600181600116156101000203166002900480156138555780601f1061382a57610100808354040283529160200191613855565b820191906000526020600020905b81548152906001019060200180831161383857829003601f168201915b505050505081565b6000600860009054906101000a900473ffffffffffffffffffffffffffffffffffffffff1673ffffffffffffffffffffffffffffffffffffffff163373ffffffffffffffffffffffffffffffffffffffff161415156138bb57600080fd5b60001515601560009054906101000a900460ff1615151415156138dd57600080fd5b601560019054906101000a900473ffffffffffffffffffffffffffffffffffffffff1673ffffffffffffffffffffffffffffffffffffffff166370a08231600560009054906101000a900473ffffffffffffffffffffffffffffffffffffffff166040518263ffffffff167c0100000000000000000000000000000000000000000000000000000000028152600401808273ffffffffffffffffffffffffffffffffffffffff1673ffffffffffffffffffffffffffffffffffffffff168152602001915050602060405180830381600087803b1580156139bc57600080fd5b505af11580156139d0573d6000803e3d6000fd5b505050506040513d60208110156139e657600080fd5b81019080805190602001909291905050509050601954613a1b670de0b6b3a7640000601654840261460a90919063ffffffff16565b10151515613a2857600080fd5b6001601560006101000a81548160ff02191690831515021790555050565b600080613a5283611482565b9050600073ffffffffffffffffffffffffffffffffffffffff168373ffffffffffffffffffffffffffffffffffffffff161415613a925760009150613d7f565b600760009054906101000a900473ffffffffffffffffffffffffffffffffffffffff1673ffffffffffffffffffffffffffffffffffffffff168173ffffffffffffffffffffffffffffffffffffffff161480613b3b5750600960009054906101000a900473ffffffffffffffffffffffffffffffffffffffff1673ffffffffffffffffffffffffffffffffffffffff168373ffffffffffffffffffffffffffffffffffffffff16145b80613c6a5750600073ffffffffffffffffffffffffffffffffffffffff16600560009054906101000a900473ffffffffffffffffffffffffffffffffffffffff1673ffffffffffffffffffffffffffffffffffffffff16634c070ced836040518263ffffffff167c0100000000000000000000000000000000000000000000000000000000028152600401808273ffffffffffffffffffffffffffffffffffffffff1673ffffffffffffffffffffffffffffffffffffffff168152602001915050602060405180830381600087803b158015613c1657600080fd5b505af1158015613c2a573d6000803e3d6000fd5b505050506040513d6020811015613c4057600080fd5b810190808051906020019092919050505073ffffffffffffffffffffffffffffffffffffffff1614155b80613d6c57506000600560009054906101000a900473ffffffffffffffffffffffffffffffffffffffff1673ffffffffffffffffffffffffffffffffffffffff166370a08231836040518263ffffffff167c0100000000000000000000000000000000000000000000000000000000028152600401808273ffffffffffffffffffffffffffffffffffffffff1673ffffffffffffffffffffffffffffffffffffffff168152602001915050602060405180830381600087803b158015613d2f57600080fd5b505af1158015613d43573d6000803e3d6000fd5b505050506040513d6020811015613d5957600080fd5b8101908080519060200190929190505050115b15613d7a5760019150613d7f565b600091505b50919050565b600860009054906101000a900473ffffffffffffffffffffffffffffffffffffffff1673ffffffffffffffffffffffffffffffffffffffff163373ffffffffffffffffffffffffffffffffffffffff16141515613de157600080fd5b80600b8190555050565b60008060006015809054906101000a900460ff16601954601160009054906101000a900460ff16925092509250909192565b6060600080600080600080600080613e348c611337565b9650613e3f8c611482565b9550600860009054906101000a900473ffffffffffffffffffffffffffffffffffffffff1673ffffffffffffffffffffffffffffffffffffffff168c73ffffffffffffffffffffffffffffffffffffffff161415613f9b576000806000806000604051602001808660ff167f01000000000000000000000000000000000000000000000000000000000000000281526001018560ff167f01000000000000000000000000000000000000000000000000000000000000000281526001018460ff167f010000000000000000000000000000000000000000000000000000000000000002815260010183151515157f010000000000000000000000000000000000000000000000000000000000000002815260010182151515157f010000000000000000000000000000000000000000000000000000000000000002815260010195505050505050604051602081830303815290604052506142ea565b600660009054906101000a900473ffffffffffffffffffffffffffffffffffffffff1673ffffffffffffffffffffffffffffffffffffffff1663b0f3684b886040518263ffffffff167c0100000000000000000000000000000000000000000000000000000000028152600401808273ffffffffffffffffffffffffffffffffffffffff1673ffffffffffffffffffffffffffffffffffffffff168152602001915050606060405180830381600087803b15801561405857600080fd5b505af115801561406c573d6000803e3d6000fd5b505050506040513d606081101561408257600080fd5b8101908080519060200190929190805190602001909291908051906020019092919050505080955081935082945050505060008311156141bb5760019450600660009054906101000a900473ffffffffffffffffffffffffffffffffffffffff1673ffffffffffffffffffffffffffffffffffffffff1663c3040fd1886040518263ffffffff167c0100000000000000000000000000000000000000000000000000000000028152600401808273ffffffffffffffffffffffffffffffffffffffff1673ffffffffffffffffffffffffffffffffffffffff168152602001915050602060405180830381600087803b15801561417d57600080fd5b505af1158015614191573d6000803e3d6000fd5b505050506040513d60208110156141a757600080fd5b810190808051906020019092919050505097505b6000601260008873ffffffffffffffffffffffffffffffffffffffff1673ffffffffffffffffffffffffffffffffffffffff16815260200190815260200160002054111561420857600193505b81601260008873ffffffffffffffffffffffffffffffffffffffff1673ffffffffffffffffffffffffffffffffffffffff168152602001908152602001600020548487878c6040516020018087815260200186815260200185815260200184151515157f010000000000000000000000000000000000000000000000000000000000000002815260010183151515157f01000000000000000000000000000000000000000000000000000000000000000281526001018260001916600019168152602001965050505050505060405160208183030381529060405298506142eb565b5b50505050505050509392505050565b60008060008060008060405180807f45544800000000000000000000000000000000000000000000000000000000008152506003019050604051809103902060001916600f604051808280546001816001161561010002031660029004801561439a5780601f1061437857610100808354040283529182019161439a565b820191906000526020600020905b815481529060010190602001808311614386575b505091505060405180910390206000191614156143d0576143c688600b54614b9490919063ffffffff16565b9450849550614429565b6143d8614453565b9350614409876143fb670de0b6b3a7640000878c0261460a90919063ffffffff16565b61443490919063ffffffff16565b9250600b5491506144238383614b9490919063ffffffff16565b90508095505b505050505092915050565b6000818301905082811015151561444a57600080fd5b80905092915050565b60008060006144966040805190810160405280601a81526020017f54776f4b657945786368616e676552617465436f6e7472616374000000000000815250614bb0565b91508173ffffffffffffffffffffffffffffffffffffffff1663744248db600f6040518263ffffffff167c0100000000000000000000000000000000000000000000000000000000028152600401808060200182810382528381815460018160011615610100020316600290048152602001915080546001816001161561010002031660029004801561456a5780601f1061453f5761010080835404028352916020019161456a565b820191906000526020600020905b81548152906001019060200180831161454d57829003601f168201915b505092505050602060405180830381600087803b15801561458a57600080fd5b505af115801561459e573d6000803e3d6000fd5b505050506040513d60208110156145b457600080fd5b81019080805190602001909291905050509050809250505090565b6000808314156145e25760009050614604565b81830290508183828115156145f357fe5b0414151561460057600080fd5b8090505b92915050565b6000818381151561461757fe5b04905092915050565b600080151561462d614e2e565b1515141561463e576001905061468c565b60011515601160009054906101000a900460ff1615151480156146795750601954614676600a5460105461443490919063ffffffff16565b10155b15614687576001905061468c565b600090505b90565b60008060008311156146b8576146ae838561460a90919063ffffffff16565b90508091506146bd565b600091505b5092915050565b600560009054906101000a900473ffffffffffffffffffffffffffffffffffffffff1673ffffffffffffffffffffffffffffffffffffffff1663cf9d8ce784846040518363ffffffff167c0100000000000000000000000000000000000000000000000000000000028152600401808373ffffffffffffffffffffffffffffffffffffffff1673ffffffffffffffffffffffffffffffffffffffff16815260200182815260200192505050600060405180830381600087803b15801561478957600080fd5b505af115801561479d573d6000803e3d6000fd5b505050506147f382601260008673ffffffffffffffffffffffffffffffffffffffff1673ffffffffffffffffffffffffffffffffffffffff1681526020019081526020016000205461443490919063ffffffff16565b601260008573ffffffffffffffffffffffffffffffffffffffff1673ffffffffffffffffffffffffffffffffffffffff1681526020019081526020016000208190555081601460008573ffffffffffffffffffffffffffffffffffffffff1673ffffffffffffffffffffffffffffffffffffffff1681526020019081526020016000206000838152602001908152602001600020819055506148de6001601360008673ffffffffffffffffffffffffffffffffffffffff1673ffffffffffffffffffffffffffffffffffffffff1681526020019081526020016000205461443490919063ffffffff16565b601360008573ffffffffffffffffffffffffffffffffffffffff1673ffffffffffffffffffffffffffffffffffffffff16815260200190815260200160002081905550600460009054906101000a900473ffffffffffffffffffffffffffffffffffffffff1673ffffffffffffffffffffffffffffffffffffffff1663bd6cd0d1600560009054906101000a900473ffffffffffffffffffffffffffffffffffffffff1685856040518463ffffffff167c0100000000000000000000000000000000000000000000000000000000028152600401808473ffffffffffffffffffffffffffffffffffffffff1673ffffffffffffffffffffffffffffffffffffffff1681526020018373ffffffffffffffffffffffffffffffffffffffff1673ffffffffffffffffffffffffffffffffffffffff1681526020018281526020019350505050600060405180830381600087803b158015614a3c57600080fd5b505af1158015614a50573d6000803e3d6000fd5b50505050505050565b6000806000806000851115614ab157614a8e614a7f60028761443490919063ffffffff16565b8761460a90919063ffffffff16565b9150614aa46003836145cf90919063ffffffff16565b9050818193509350614abf565b600080819150809050935093505b50509250929050565b60608060008085604051908082528060200260200182016040528015614afd5781602001602082028038833980820191505090505b5092506000861115614b8757614b1487878761516d565b9150600090505b85811015614b8657614b3881860a8361460a90919063ffffffff16565b83614b5f614b5060018561443490919063ffffffff16565b89614b9490919063ffffffff16565b815181101515614b6b57fe5b90602001906020020181815250508080600101915050614b1b565b5b8293505050509392505050565b6000828211151515614ba557600080fd5b818303905092915050565b6000600360009054906101000a900473ffffffffffffffffffffffffffffffffffffffff1673ffffffffffffffffffffffffffffffffffffffff1663db7a6d90836040518263ffffffff167c01000000000000000000000000000000000000000000000000000000000281526004018080602001828103825283818151815260200191508051906020019080838360005b83811015614c5c578082015181840152602081019050614c41565b50505050905090810190601f168015614c895780820380516001836020036101000a031916815260200191505b5092505050602060405180830381600087803b158015614ca857600080fd5b505af1158015614cbc573d6000803e3d6000fd5b505050506040513d6020811015614cd257600080fd5b81019080805190602001909291905050509050919050565b60008060405180807f45544800000000000000000000000000000000000000000000000000000000008152506003019050604051809103902060001916600f6040518082805460018160011615610100020316600290048015614d845780601f10614d62576101008083540402835291820191614d84565b820191906000526020600020905b815481529060010190602001808311614d70575b50509150506040518091039020600019161480614d9e5750825b15614dab57839150614de5565b614db3614453565b9050614de2670de0b6b3a7640000614dd483876145cf90919063ffffffff16565b61460a90919063ffffffff16565b91505b5092915050565b600080614e048460105461443490919063ffffffff16565b9050614e0f816151f0565b1515614e1a57600080fd5b614e238161523d565b600191505092915050565b6000600c544210158015614e445750600d544211155b15614e525760019050614e57565b600090505b90565b600080600060405160200180807f62797465732062696e64696e6720726566657272657220746f20706c61736d6181525060200190506040516020818303038152906040526040518082805190602001908083835b602083101515614ed45780518252602082019150602081019050602083039250614eaf565b6001836020036101000a038019825116818451168082178552505050505050905001915050604051809103902060405160200180807f4745545f52454645525245525f5245574152445300000000000000000000000081525060140190506040516020818303038152906040526040518082805190602001908083835b602083101515614f765780518252602082019150602081019050602083039250614f51565b6001836020036101000a03801982511681845116808217855250505050505090500191505060405180910390206040516020018083600019166000191681526020018260001916600019168152602001925050506040516020818303038152906040526040518082805190602001908083835b60208310151561500e5780518252602082019150602081019050602083039250614fe9565b6001836020036101000a0380198251168184511680821785525050505050509050019150506040518091039020915073__Call__________________________________638b2c6d41838660006040518463ffffffff167c010000000000000000000000000000000000000000000000000000000002815260040180846000191660001916815260200180602001838152602001828103825284818151815260200191508051906020019080838360005b838110156150da5780820151818401526020810190506150bf565b50505050905090810190601f1680156151075780820380516001836020036101000a031916815260200191505b5094505050505060206040518083038186803b15801561512657600080fd5b505af415801561513a573d6000803e3d6000fd5b505050506040513d602081101561515057600080fd5b810190808051906020019092919050505090508092505050919050565b6000806000806001925060019150600190505b858110156151bf5761519b85846145cf90919063ffffffff16565b92506151b0838361443490919063ffffffff16565b91508080600101915050615180565b6151e4826151d6858a6145cf90919063ffffffff16565b61460a90919063ffffffff16565b93505050509392505050565b600060011515601160009054906101000a900460ff161515141561523457615225600a5460195461443490919063ffffffff16565b821115151561523357600080fd5b5b60019050919050565b8060108190555050565b828054600181600116156101000203166002900490600052602060002090601f016020900481019282601f1061528857805160ff19168380011785556152b6565b828001600101855582156152b6579182015b828111156152b557825182559160200191906001019061529a565b5b5090506152c391906152c7565b5090565b6152e991905b808211156152e55760008160009055506001016152cd565b5090565b905600a165627a7a72305820b94a4b6a68e5622593892d746ff308f9a9ab2799cfe9187762d5bdbf53bc26ee0029",
  "source": "pragma solidity ^0.4.24;\nimport \"../interfaces/IERC20.sol\";\nimport \"../interfaces/ITwoKeyConversionHandler.sol\";\nimport \"../interfaces/ITwoKeyAcquisitionCampaignERC20.sol\";\nimport \"../upgradable-pattern-campaigns/UpgradeableCampaign.sol\";\nimport \"../campaign-mutual-contracts/TwoKeyCampaignLogicHandler.sol\";\n\n/**\n * @author Nikola Madjarevic\n * Created at 1/15/19\n */\ncontract TwoKeyAcquisitionLogicHandler is UpgradeableCampaign, TwoKeyCampaignLogicHandler {\n\n    bool public IS_CAMPAIGN_ACTIVE;\n\n    address assetContractERC20;\n\n    bool isFixedInvestmentAmount; // This means that minimal contribution is equal maximal contribution\n    bool isAcceptingFiat;\n\n    uint pricePerUnitInETHWeiOrUSD; // There's single price for the unit ERC20 (Should be in WEI)\n    uint unit_decimals; // ERC20 selling data\n    uint maxConverterBonusPercent; // Maximal bonus percent per converter\n    uint campaignHardCapWei; // Hard cap of campaign\n    uint campaignSoftCapWei; //Soft cap of campaign\n\n    function setInitialParamsLogicHandler(\n        uint [] values,\n        string _currency,\n        address _assetContractERC20,\n        address _moderator,\n        address _contractor,\n        address _acquisitionCampaignAddress,\n        address _twoKeySingletoneRegistry,\n        address _twoKeyConversionHandler\n    )\n    public\n    {\n        require(values[1] >= values[0]);\n        require(values[4] > values[3]);\n        require(values[5] <= 100*(10**18));\n\n        require(initialized == false);\n\n        if(values[0] == values[1]) {\n            isFixedInvestmentAmount = true;\n        }\n\n        minContributionAmountWei = values[0];\n        maxContributionAmountWei = values[1];\n        pricePerUnitInETHWeiOrUSD = values[2];\n        campaignStartTime = values[3];\n        campaignEndTime = values[4];\n        maxConverterBonusPercent = values[5];\n\n        //Add as 6th argument incentive model uint\n        incentiveModel = IncentiveModel(values[6]);\n\n        if(values[7] == 1) {\n            isAcceptingFiat = true;\n        }\n\n        campaignHardCapWei = values[8];\n\n        if(values[9] == 1) {\n            endCampaignOnceGoalReached = true;\n        }\n\n        campaignSoftCapWei = values[10];\n\n        currency = _currency;\n\n        if(keccak256(_currency) == keccak256(\"ETH\")) {\n            // 0.01 ether\n            require(values[0] >= (10**16));\n        } else {\n            // 1 dollar\n            require(values[0] >= (10**18));\n        }\n\n        assetContractERC20 = _assetContractERC20;\n        moderator = _moderator;\n        contractor = _contractor;\n        unit_decimals = IERC20(_assetContractERC20).decimals();\n\n        twoKeyCampaign = _acquisitionCampaignAddress;\n        twoKeySingletonRegistry = _twoKeySingletoneRegistry;\n\n        twoKeyRegistry = getAddressFromRegistry(\"TwoKeyRegistry\");\n        twoKeyMaintainersRegistry = getAddressFromRegistry(\"TwoKeyMaintainersRegistry\");\n        twoKeyEventSource = getAddressFromRegistry(\"TwoKeyEventSource\");\n        ownerPlasma = plasmaOf(contractor);\n        conversionHandler = _twoKeyConversionHandler;\n\n        ALLOWED_GAP = 1000000000000000000; //1 USD allowed GAP for ETH conversions in case FIAT is campaign currency\n\n        initialized = true;\n    }\n\n    /**\n     * @notice Function to activate campaign, can be called only ONCE\n     * @dev onlyContractor can call this function\n     */\n    function activateCampaign() public onlyContractor {\n        require(IS_CAMPAIGN_ACTIVE == false);\n        uint balanceOfTokensOnAcquisitionAtTheBeginning = IERC20(assetContractERC20).balanceOf(twoKeyCampaign);\n        //balance is in weis, price is in weis and hardcap is regular number\n        require((balanceOfTokensOnAcquisitionAtTheBeginning * pricePerUnitInETHWeiOrUSD).div(10**18) >= campaignHardCapWei);\n        IS_CAMPAIGN_ACTIVE = true;\n    }\n\n    /**\n     * @notice Function which will validate following:\n     * (1) is campaign active in terms of time\n     * (2) is campaign active in case contractor selected `endCampaignWhenHardCapReached`\n     * (3) if converter has reached max contribution amount\n     * @param converter is the address who want to convert\n     * @param conversionAmount is the amount of conversion\n     * @param isFiatConversion is flag if conversion is fiat or ether\n     */\n    function checkAllRequirementsForConversionAndTotalRaised(address converter, uint conversionAmount, bool isFiatConversion) external returns (bool,uint) {\n        require(msg.sender == twoKeyCampaign);\n        if(isAcceptingFiat) {\n            require(isFiatConversion == true);\n        } else {\n            require(isFiatConversion == false);\n        }\n        require(IS_CAMPAIGN_ACTIVE == true);\n        require(canConversionBeCreatedInTermsOfMinMaxContribution(converter, conversionAmount, isFiatConversion) == true);\n        uint conversionAmountCampaignCurrency = convertConversionAmountToCampaignCurrency(conversionAmount, isFiatConversion);\n        require(updateRaisedFundsAndValidateConversionInTermsOfHardCap(conversionAmountCampaignCurrency, isFiatConversion) == true);\n        require(checkIsCampaignActiveInTermsOfTime() == true);\n        return (true, conversionAmountCampaignCurrency);\n    }\n\n\n    function checkHowMuchUserCanConvert(uint alreadySpentETHWei, uint alreadySpentFiatWEI) internal view returns (uint) {\n        if(keccak256(currency) == keccak256('ETH')) {\n            uint leftToSpendInEther = maxContributionAmountWei.sub(alreadySpentETHWei);\n            return leftToSpendInEther;\n        } else {\n            uint rate = getRateFromExchange();\n            uint totalAmountSpentConvertedToFIAT = ((alreadySpentETHWei*rate).div(10**18)).add(alreadySpentFiatWEI);\n            uint limit = maxContributionAmountWei; // Initially we assume it's fiat currency campaign\n            uint leftToSpendInFiats = limit.sub(totalAmountSpentConvertedToFIAT);\n            return leftToSpendInFiats;\n        }\n    }\n\n\n    function convertConversionAmountToCampaignCurrency(uint conversionAmount, bool isFiatConversion) internal view returns (uint) {\n        if(keccak256(currency) == keccak256('ETH') || isFiatConversion) {\n            return conversionAmount;\n        }\n        uint rate = getRateFromExchange();\n        return conversionAmount.mul(rate).div(10**18);\n    }\n\n    /**\n     * @notice Function which will validate if conversion can be created if endCampaignWhenHardCapReached is selected\n     * @param campaignRaisedIncludingConversion is how much will be total campaign raised with new conversion\n     */\n    function canConversionBeCreatedInTermsOfHardCap(uint campaignRaisedIncludingConversion) internal view returns (bool) {\n        if(endCampaignOnceGoalReached == true) {\n            require(campaignRaisedIncludingConversion <= campaignHardCapWei.add(minContributionAmountWei)); //small GAP\n        }\n        return true;\n    }\n\n    function updateRaisedFundsAndValidateConversionInTermsOfHardCap(uint conversionAmountCampaignCurrency, bool isFiatConversion) internal returns (bool) {\n        uint newTotalRaisedFunds = campaignRaisedIncludingPendingConversions.add(conversionAmountCampaignCurrency);\n        require(canConversionBeCreatedInTermsOfHardCap(newTotalRaisedFunds)); // checking that criteria is satisfied\n        updateTotalRaisedFunds(newTotalRaisedFunds); //updating new total raised funds\n        return true;\n    }\n\n    //TODO: set internal\n    function canConversionBeCreatedInTermsOfMinMaxContribution(address converter, uint amountWillingToSpend, bool isFiat) public view returns (bool) {\n        bool canConvert;\n        //If we reach this point means we have reached point that campaign is still active\n        if(isFiat) {\n            (canConvert,)= validateMinMaxContributionForFIATConversion(converter, amountWillingToSpend);\n        } else {\n            (canConvert,) = validateMinMaxContributionForETHConversion(converter, amountWillingToSpend);\n        }\n        return canConvert;\n    }\n\n    //TODO: set internal\n    function validateMinMaxContributionForFIATConversion(address converter, uint amountWillingToSpendFiatWei) public view returns (bool,uint) {\n        uint alreadySpentETHWei;\n        uint alreadySpentFIATWEI;\n        if(keccak256(currency) == keccak256('ETH')) {\n            return (false, 0);\n        } else {\n            (alreadySpentETHWei,alreadySpentFIATWEI,) = ITwoKeyConversionHandler(conversionHandler).getConverterPurchasesStats(converter);\n\n            uint leftToSpendFiat = checkHowMuchUserCanConvert(alreadySpentETHWei,alreadySpentFIATWEI);\n            if(leftToSpendFiat >= amountWillingToSpendFiatWei && minContributionAmountWei <= amountWillingToSpendFiatWei) {\n                return (true,leftToSpendFiat);\n            } else {\n                return (false,leftToSpendFiat);\n            }\n        }\n    }\n\n    function validateMinMaxContributionForETHConversion(address converter, uint amountWillingToSpendEthWei) public view returns (bool,uint) {\n        uint alreadySpentETHWei;\n        uint alreadySpentFIATWEI;\n        (alreadySpentETHWei,alreadySpentFIATWEI,) = ITwoKeyConversionHandler(conversionHandler).getConverterPurchasesStats(converter);\n        uint leftToSpend = checkHowMuchUserCanConvert(alreadySpentETHWei, alreadySpentFIATWEI);\n\n        if(keccak256(currency) == keccak256('ETH')) {\n            //Adding a deviation of 1000 weis\n            if(leftToSpend.add(1000) > amountWillingToSpendEthWei && minContributionAmountWei <= amountWillingToSpendEthWei) {\n                return(true, leftToSpend);\n            } else {\n                return(false, leftToSpend);\n            }\n        } else {\n            uint rate = getRateFromExchange();\n            uint amountToBeSpentInFiat = (amountWillingToSpendEthWei.mul(rate)).div(10**18);\n            //Adding gap of 100 weis\n            if(leftToSpend.add(ALLOWED_GAP) >= amountToBeSpentInFiat && minContributionAmountWei <= amountToBeSpentInFiat.add(ALLOWED_GAP)) {\n                return (true,leftToSpend);\n            } else {\n                return (false,leftToSpend);\n            }\n        }\n    }\n\n\n    /**\n     * @notice Function to check if campaign has ended\n     */\n    function isCampaignEnded() internal view returns (bool) {\n        if(checkIsCampaignActiveInTermsOfTime() == false) {\n            return true;\n        }\n        if(endCampaignOnceGoalReached == true && campaignRaisedIncludingPendingConversions.add(minContributionAmountWei) >= campaignHardCapWei) {\n            return true;\n        }\n        return false;\n    }\n\n    /**\n     * @notice Function to check if contractor can withdraw unsold tokens\n     */\n    function canContractorWithdrawUnsoldTokens() public view returns (bool) {\n        return isCampaignEnded();\n    }\n\n\n    /**recover\n     * @notice Function to get investment rules\n     * @return tuple containing if investment amount is fixed\n     */\n    function getInvestmentRules()\n    public\n    view\n    returns (bool,uint,bool)\n    {\n        return (\n            isFixedInvestmentAmount,\n            campaignHardCapWei,\n            endCampaignOnceGoalReached\n        );\n    }\n\n    /**\n     * @notice Function which will calculate the base amount, bonus amount\n     * @param conversionAmountETHWeiOrFiat is amount of eth in conversion\n     * @return tuple containing (base,bonus)\n     */\n    function getEstimatedTokenAmount(\n        uint conversionAmountETHWeiOrFiat,\n        bool isFiatConversion\n    )\n    public\n    view\n    returns (uint, uint)\n    {\n        uint value = pricePerUnitInETHWeiOrUSD;\n        uint baseTokensForConverterUnits;\n        uint bonusTokensForConverterUnits;\n        if(isFiatConversion == true) {\n            baseTokensForConverterUnits = conversionAmountETHWeiOrFiat.mul(10**18).div(value);\n            bonusTokensForConverterUnits = baseTokensForConverterUnits.mul(maxConverterBonusPercent).div(100);\n            return (baseTokensForConverterUnits, bonusTokensForConverterUnits);\n        } else {\n            if(keccak256(currency) != keccak256('ETH')) {\n                address ethUSDExchangeContract = getAddressFromRegistry(\"TwoKeyExchangeRateContract\");\n                uint rate = ITwoKeyExchangeRateContract(ethUSDExchangeContract).getBaseToTargetRate(currency);\n\n                conversionAmountETHWeiOrFiat = (conversionAmountETHWeiOrFiat.mul(rate)).div(10 ** 18); //converting eth to $wei\n            }\n        }\n\n        baseTokensForConverterUnits = conversionAmountETHWeiOrFiat.mul(10 ** unit_decimals).div(value);\n        bonusTokensForConverterUnits = baseTokensForConverterUnits.mul(maxConverterBonusPercent).div(100);\n        return (baseTokensForConverterUnits, bonusTokensForConverterUnits);\n    }\n\n    /**\n     * @notice Get all constants from the contract\n     * @return all constants from the contract\n     */\n    function getConstantInfo()\n    public\n    view\n    returns (uint,uint,uint,uint,uint,uint,uint)\n    {\n        return (\n            campaignStartTime,\n            campaignEndTime,\n            minContributionAmountWei,\n            maxContributionAmountWei,\n            unit_decimals,\n            pricePerUnitInETHWeiOrUSD,\n            maxConverterBonusPercent\n        );\n    }\n\n\n    /**\n     * @notice Function to fetch stats for the address\n     */\n    function getAddressStatistic(\n        address _address,\n        bool plasma,\n        address referrer\n    )\n    internal\n    view\n    returns (bytes)\n    {\n        bytes32 state; // NOT-EXISTING AS CONVERTER DEFAULT STATE\n\n        address eth_address = ethereumOf(_address);\n        address plasma_address = plasmaOf(_address);\n\n        if(_address == contractor) {\n            abi.encodePacked(0, 0, 0, false, false);\n        } else {\n            bool isConverter;\n            bool isReferrer;\n            uint unitsConverterBought;\n            uint amountConverterSpent;\n            uint amountConverterSpentFIAT;\n\n            (amountConverterSpent,amountConverterSpentFIAT, unitsConverterBought) = ITwoKeyConversionHandler(conversionHandler).getConverterPurchasesStats(eth_address);\n            if(unitsConverterBought> 0) {\n                isConverter = true;\n                state = ITwoKeyConversionHandler(conversionHandler).getStateForConverter(eth_address);\n            }\n            if(referrerPlasma2TotalEarnings2key[plasma_address] > 0) {\n                isReferrer = true;\n            }\n\n            return abi.encodePacked(\n                amountConverterSpent,\n                referrerPlasma2TotalEarnings2key[plasma_address],\n                unitsConverterBought,\n                isConverter,\n                isReferrer,\n                state\n            );\n        }\n    }\n\n}\n",
  "sourcePath": "/Users/nikolamadjarevic/Desktop/2key/contracts/contracts/2key/acquisition-campaign-contracts/TwoKeyAcquisitionLogicHandler.sol",
  "compiler": {
    "name": "solc",
    "version": "0.4.24+commit.e67f0147.Emscripten.clang"
  },
  "schemaVersion": "2.0.1",
  "updatedAt": "2019-11-07T08:14:37.742Z"
}