{
  "contractName": "TwoKeyCampaignValidator",
  "abi": [
    {
      "constant": true,
      "inputs": [],
      "name": "PROXY_STORAGE_CONTRACT",
      "outputs": [
        {
          "name": "",
          "type": "address"
        }
      ],
      "payable": false,
      "stateMutability": "view",
      "type": "function"
    },
    {
      "constant": true,
      "inputs": [],
      "name": "implementation",
      "outputs": [
        {
          "name": "",
          "type": "address"
        }
      ],
      "payable": false,
      "stateMutability": "view",
      "type": "function"
    },
    {
      "constant": true,
      "inputs": [],
      "name": "TWO_KEY_SINGLETON_REGISTRY",
      "outputs": [
        {
          "name": "",
          "type": "address"
        }
      ],
      "payable": false,
      "stateMutability": "view",
      "type": "function"
    },
    {
      "constant": true,
      "inputs": [
        {
          "name": "_address",
          "type": "address"
        }
      ],
      "name": "getterChecker",
      "outputs": [
        {
          "name": "",
          "type": "bool"
        }
      ],
      "payable": false,
      "stateMutability": "view",
      "type": "function"
    },
    {
      "constant": false,
      "inputs": [
        {
          "name": "sender",
          "type": "address"
        }
      ],
      "name": "initialize",
      "outputs": [],
      "payable": true,
      "stateMutability": "payable",
      "type": "function"
    },
    {
      "constant": false,
      "inputs": [
        {
          "name": "_twoKeySingletoneRegistry",
          "type": "address"
        },
        {
          "name": "_proxyStorage",
          "type": "address"
        }
      ],
      "name": "setInitialParams",
      "outputs": [],
      "payable": false,
      "stateMutability": "nonpayable",
      "type": "function"
    },
    {
      "constant": false,
      "inputs": [
        {
          "name": "campaign",
          "type": "address"
        },
        {
          "name": "nonSingletonHash",
          "type": "string"
        }
      ],
      "name": "validateAcquisitionCampaign",
      "outputs": [],
      "payable": false,
      "stateMutability": "nonpayable",
      "type": "function"
    },
    {
      "constant": false,
      "inputs": [
        {
          "name": "campaign",
          "type": "address"
        },
        {
          "name": "donationConversionHandler",
          "type": "address"
        },
        {
          "name": "donationLogicHandler",
          "type": "address"
        },
        {
          "name": "nonSingletonHash",
          "type": "string"
        }
      ],
      "name": "validateDonationCampaign",
      "outputs": [],
      "payable": false,
      "stateMutability": "nonpayable",
      "type": "function"
    },
    {
      "constant": true,
      "inputs": [
        {
          "name": "campaign",
          "type": "address"
        }
      ],
      "name": "isCampaignValidated",
      "outputs": [
        {
          "name": "",
          "type": "bool"
        }
      ],
      "payable": false,
      "stateMutability": "view",
      "type": "function"
    },
    {
      "constant": true,
      "inputs": [
        {
          "name": "campaign",
          "type": "address"
        }
      ],
      "name": "campaign2NonSingletonHash",
      "outputs": [
        {
          "name": "",
          "type": "string"
        }
      ],
      "payable": false,
      "stateMutability": "view",
      "type": "function"
    }
  ],
  "bytecode": "0x608060405234801561001057600080fd5b50611f77806100206000396000f3006080604052600436106100a4576000357c0100000000000000000000000000000000000000000000000000000000900463ffffffff16806305dbe412146100a9578063105005a11461010c5780635c60da1b1461016357806371c6a34f146101ba5780638830afa014610215578063a9bd89451461026c578063c4d66de8146102c7578063dd9707ef146102fd578063e048757b146103b9578063f147f86614610482575b600080fd5b3480156100b557600080fd5b5061010a600480360381019080803573ffffffffffffffffffffffffffffffffffffffff169060200190929190803573ffffffffffffffffffffffffffffffffffffffff16906020019092919050505061050b565b005b34801561011857600080fd5b506101216105ce565b604051808273ffffffffffffffffffffffffffffffffffffffff1673ffffffffffffffffffffffffffffffffffffffff16815260200191505060405180910390f35b34801561016f57600080fd5b506101786105f4565b604051808273ffffffffffffffffffffffffffffffffffffffff1673ffffffffffffffffffffffffffffffffffffffff16815260200191505060405180910390f35b3480156101c657600080fd5b506101fb600480360381019080803573ffffffffffffffffffffffffffffffffffffffff16906020019092919050505061061e565b604051808215151515815260200191505060405180910390f35b34801561022157600080fd5b5061022a6107da565b604051808273ffffffffffffffffffffffffffffffffffffffff1673ffffffffffffffffffffffffffffffffffffffff16815260200191505060405180910390f35b34801561027857600080fd5b506102ad600480360381019080803573ffffffffffffffffffffffffffffffffffffffff169060200190929190505050610800565b604051808215151515815260200191505060405180910390f35b6102fb600480360381019080803573ffffffffffffffffffffffffffffffffffffffff169060200190929190505050610921565b005b34801561030957600080fd5b5061033e600480360381019080803573ffffffffffffffffffffffffffffffffffffffff16906020019092919050505061097f565b6040518080602001828103825283818151815260200191508051906020019080838360005b8381101561037e578082015181840152602081019050610363565b50505050905090810190601f1680156103ab5780820380516001836020036101000a031916815260200191505b509250505060405180910390f35b3480156103c557600080fd5b50610480600480360381019080803573ffffffffffffffffffffffffffffffffffffffff169060200190929190803573ffffffffffffffffffffffffffffffffffffffff169060200190929190803573ffffffffffffffffffffffffffffffffffffffff169060200190929190803590602001908201803590602001908080601f0160208091040260200160405190810160405280939291908181526020018383808284378201915050505050509192919290505050610b8c565b005b34801561048e57600080fd5b50610509600480360381019080803573ffffffffffffffffffffffffffffffffffffffff169060200190929190803590602001908201803590602001908080601f01602080910402602001604051908101604052809392919081815260200183838082843782019150505050505091929192905050506112d8565b005b60001515600260149054906101000a900460ff16151514151561052d57600080fd5b81600260006101000a81548173ffffffffffffffffffffffffffffffffffffffff021916908373ffffffffffffffffffffffffffffffffffffffff16021790555080600360006101000a81548173ffffffffffffffffffffffffffffffffffffffff021916908373ffffffffffffffffffffffffffffffffffffffff1602179055506001600260146101000a81548160ff0219169083151502179055505050565b600360009054906101000a900473ffffffffffffffffffffffffffffffffffffffff1681565b6000600160009054906101000a900473ffffffffffffffffffffffffffffffffffffffff16905090565b6000806040805190810160405280601381526020017f697343616d706169676e56616c69646174656400000000000000000000000000815250836040518083805190602001908083835b60208310151561068d5780518252602082019150602081019050602083039250610668565b6001836020036101000a0380198251168184511680821785525050505050509050018273ffffffffffffffffffffffffffffffffffffffff1673ffffffffffffffffffffffffffffffffffffffff166c010000000000000000000000000281526014019250505060405180910390209050600360009054906101000a900473ffffffffffffffffffffffffffffffffffffffff1673ffffffffffffffffffffffffffffffffffffffff16637ae1cfca826040518263ffffffff167c0100000000000000000000000000000000000000000000000000000000028152600401808260001916600019168152602001915050602060405180830381600087803b15801561079757600080fd5b505af11580156107ab573d6000803e3d6000fd5b505050506040513d60208110156107c157600080fd5b8101908080519060200190929190505050915050919050565b600260009054906101000a900473ffffffffffffffffffffffffffffffffffffffff1681565b6000806108416040805190810160405280601981526020017f54776f4b65794d61696e7461696e657273526567697374727900000000000000815250611b69565b90508073ffffffffffffffffffffffffffffffffffffffff16635cc7815c846040518263ffffffff167c0100000000000000000000000000000000000000000000000000000000028152600401808273ffffffffffffffffffffffffffffffffffffffff1673ffffffffffffffffffffffffffffffffffffffff168152602001915050602060405180830381600087803b1580156108de57600080fd5b505af11580156108f2573d6000803e3d6000fd5b505050506040513d602081101561090857600080fd5b8101908080519060200190929190505050915050919050565b6000809054906101000a900473ffffffffffffffffffffffffffffffffffffffff1673ffffffffffffffffffffffffffffffffffffffff163373ffffffffffffffffffffffffffffffffffffffff1614151561097c57600080fd5b50565b6060600360009054906101000a900473ffffffffffffffffffffffffffffffffffffffff1673ffffffffffffffffffffffffffffffffffffffff1663986e791a6040805190810160405280601981526020017f63616d706169676e324e6f6e53696e676c65746f6e4861736800000000000000815250846040518083805190602001908083835b602083101515610a2b5780518252602082019150602081019050602083039250610a06565b6001836020036101000a0380198251168184511680821785525050505050509050018273ffffffffffffffffffffffffffffffffffffffff1673ffffffffffffffffffffffffffffffffffffffff166c010000000000000000000000000281526014019250505060405180910390206040518263ffffffff167c0100000000000000000000000000000000000000000000000000000000028152600401808260001916600019168152602001915050600060405180830381600087803b158015610af457600080fd5b505af1158015610b08573d6000803e3d6000fd5b505050506040513d6000823e3d601f19601f820116820180604052506020811015610b3257600080fd5b810190808051640100000000811115610b4a57600080fd5b82810190506020810184811115610b6057600080fd5b8151856001820283011164010000000082111715610b7d57600080fd5b50509291905050509050919050565b6000610bcc6040805190810160405280600d81526020017f54776f4b6579466163746f727900000000000000000000000000000000000000815250611b69565b90508073ffffffffffffffffffffffffffffffffffffffff163373ffffffffffffffffffffffffffffffffffffffff16141515610c0857600080fd5b600360009054906101000a900473ffffffffffffffffffffffffffffffffffffffff1673ffffffffffffffffffffffffffffffffffffffff1663abfdcced6040805190810160405280601381526020017f697343616d706169676e56616c69646174656400000000000000000000000000815250876040518083805190602001908083835b602083101515610cb25780518252602082019150602081019050602083039250610c8d565b6001836020036101000a0380198251168184511680821785525050505050509050018273ffffffffffffffffffffffffffffffffffffffff1673ffffffffffffffffffffffffffffffffffffffff166c0100000000000000000000000002815260140192505050604051809103902060016040518363ffffffff167c01000000000000000000000000000000000000000000000000000000000281526004018083600019166000191681526020018215151515815260200192505050600060405180830381600087803b158015610d8857600080fd5b505af1158015610d9c573d6000803e3d6000fd5b50505050600360009054906101000a900473ffffffffffffffffffffffffffffffffffffffff1673ffffffffffffffffffffffffffffffffffffffff1663abfdcced6040805190810160405280601381526020017f697343616d706169676e56616c69646174656400000000000000000000000000815250866040518083805190602001908083835b602083101515610e4a5780518252602082019150602081019050602083039250610e25565b6001836020036101000a0380198251168184511680821785525050505050509050018273ffffffffffffffffffffffffffffffffffffffff1673ffffffffffffffffffffffffffffffffffffffff166c0100000000000000000000000002815260140192505050604051809103902060016040518363ffffffff167c01000000000000000000000000000000000000000000000000000000000281526004018083600019166000191681526020018215151515815260200192505050600060405180830381600087803b158015610f2057600080fd5b505af1158015610f34573d6000803e3d6000fd5b50505050600360009054906101000a900473ffffffffffffffffffffffffffffffffffffffff1673ffffffffffffffffffffffffffffffffffffffff1663abfdcced6040805190810160405280601381526020017f697343616d706169676e56616c69646174656400000000000000000000000000815250856040518083805190602001908083835b602083101515610fe25780518252602082019150602081019050602083039250610fbd565b6001836020036101000a0380198251168184511680821785525050505050509050018273ffffffffffffffffffffffffffffffffffffffff1673ffffffffffffffffffffffffffffffffffffffff166c0100000000000000000000000002815260140192505050604051809103902060016040518363ffffffff167c01000000000000000000000000000000000000000000000000000000000281526004018083600019166000191681526020018215151515815260200192505050600060405180830381600087803b1580156110b857600080fd5b505af11580156110cc573d6000803e3d6000fd5b50505050600360009054906101000a900473ffffffffffffffffffffffffffffffffffffffff1673ffffffffffffffffffffffffffffffffffffffff16636e8995506040805190810160405280601981526020017f63616d706169676e324e6f6e53696e676c65746f6e4861736800000000000000815250876040518083805190602001908083835b60208310151561117a5780518252602082019150602081019050602083039250611155565b6001836020036101000a0380198251168184511680821785525050505050509050018273ffffffffffffffffffffffffffffffffffffffff1673ffffffffffffffffffffffffffffffffffffffff166c01000000000000000000000000028152601401925050506040518091039020846040518363ffffffff167c010000000000000000000000000000000000000000000000000000000002815260040180836000191660001916815260200180602001828103825283818151815260200191508051906020019080838360005b83811015611263578082015181840152602081019050611248565b50505050905090810190601f1680156112905780820380516001836020036101000a031916815260200191505b509350505050600060405180830381600087803b1580156112b057600080fd5b505af11580156112c4573d6000803e3d6000fd5b505050506112d185611ca3565b5050505050565b600080600061131b6040805190810160405280600d81526020017f54776f4b6579466163746f727900000000000000000000000000000000000000815250611b69565b90508073ffffffffffffffffffffffffffffffffffffffff163373ffffffffffffffffffffffffffffffffffffffff1614151561135757600080fd5b8473ffffffffffffffffffffffffffffffffffffffff16637981a7e06040518163ffffffff167c0100000000000000000000000000000000000000000000000000000000028152600401602060405180830381600087803b1580156113bb57600080fd5b505af11580156113cf573d6000803e3d6000fd5b505050506040513d60208110156113e557600080fd5b810190808051906020019092919050505092508473ffffffffffffffffffffffffffffffffffffffff166308c043066040518163ffffffff167c0100000000000000000000000000000000000000000000000000000000028152600401602060405180830381600087803b15801561145c57600080fd5b505af1158015611470573d6000803e3d6000fd5b505050506040513d602081101561148657600080fd5b81019080805190602001909291905050509150600360009054906101000a900473ffffffffffffffffffffffffffffffffffffffff1673ffffffffffffffffffffffffffffffffffffffff1663abfdcced6040805190810160405280601381526020017f697343616d706169676e56616c69646174656400000000000000000000000000815250856040518083805190602001908083835b602083101515611543578051825260208201915060208101905060208303925061151e565b6001836020036101000a0380198251168184511680821785525050505050509050018273ffffffffffffffffffffffffffffffffffffffff1673ffffffffffffffffffffffffffffffffffffffff166c0100000000000000000000000002815260140192505050604051809103902060016040518363ffffffff167c01000000000000000000000000000000000000000000000000000000000281526004018083600019166000191681526020018215151515815260200192505050600060405180830381600087803b15801561161957600080fd5b505af115801561162d573d6000803e3d6000fd5b50505050600360009054906101000a900473ffffffffffffffffffffffffffffffffffffffff1673ffffffffffffffffffffffffffffffffffffffff1663abfdcced6040805190810160405280601381526020017f697343616d706169676e56616c69646174656400000000000000000000000000815250846040518083805190602001908083835b6020831015156116db57805182526020820191506020810190506020830392506116b6565b6001836020036101000a0380198251168184511680821785525050505050509050018273ffffffffffffffffffffffffffffffffffffffff1673ffffffffffffffffffffffffffffffffffffffff166c0100000000000000000000000002815260140192505050604051809103902060016040518363ffffffff167c01000000000000000000000000000000000000000000000000000000000281526004018083600019166000191681526020018215151515815260200192505050600060405180830381600087803b1580156117b157600080fd5b505af11580156117c5573d6000803e3d6000fd5b50505050600360009054906101000a900473ffffffffffffffffffffffffffffffffffffffff1673ffffffffffffffffffffffffffffffffffffffff1663abfdcced6040805190810160405280601381526020017f697343616d706169676e56616c69646174656400000000000000000000000000815250876040518083805190602001908083835b602083101515611873578051825260208201915060208101905060208303925061184e565b6001836020036101000a0380198251168184511680821785525050505050509050018273ffffffffffffffffffffffffffffffffffffffff1673ffffffffffffffffffffffffffffffffffffffff166c0100000000000000000000000002815260140192505050604051809103902060016040518363ffffffff167c01000000000000000000000000000000000000000000000000000000000281526004018083600019166000191681526020018215151515815260200192505050600060405180830381600087803b15801561194957600080fd5b505af115801561195d573d6000803e3d6000fd5b50505050600360009054906101000a900473ffffffffffffffffffffffffffffffffffffffff1673ffffffffffffffffffffffffffffffffffffffff16636e8995506040805190810160405280601981526020017f63616d706169676e324e6f6e53696e676c65746f6e4861736800000000000000815250876040518083805190602001908083835b602083101515611a0b57805182526020820191506020810190506020830392506119e6565b6001836020036101000a0380198251168184511680821785525050505050509050018273ffffffffffffffffffffffffffffffffffffffff1673ffffffffffffffffffffffffffffffffffffffff166c01000000000000000000000000028152601401925050506040518091039020866040518363ffffffff167c010000000000000000000000000000000000000000000000000000000002815260040180836000191660001916815260200180602001828103825283818151815260200191508051906020019080838360005b83811015611af4578082015181840152602081019050611ad9565b50505050905090810190601f168015611b215780820380516001836020036101000a031916815260200191505b509350505050600060405180830381600087803b158015611b4157600080fd5b505af1158015611b55573d6000803e3d6000fd5b50505050611b6285611ca3565b5050505050565b6000600260009054906101000a900473ffffffffffffffffffffffffffffffffffffffff1673ffffffffffffffffffffffffffffffffffffffff1663db7a6d90836040518263ffffffff167c01000000000000000000000000000000000000000000000000000000000281526004018080602001828103825283818151815260200191508051906020019080838360005b83811015611c15578082015181840152602081019050611bfa565b50505050905090810190601f168015611c425780820380516001836020036101000a031916815260200191505b5092505050602060405180830381600087803b158015611c6157600080fd5b505af1158015611c75573d6000803e3d6000fd5b505050506040513d6020811015611c8b57600080fd5b81019080805190602001909291905050509050919050565b60008060008373ffffffffffffffffffffffffffffffffffffffff1663fbfd20456040518163ffffffff167c0100000000000000000000000000000000000000000000000000000000028152600401602060405180830381600087803b158015611d0c57600080fd5b505af1158015611d20573d6000803e3d6000fd5b505050506040513d6020811015611d3657600080fd5b810190808051906020019092919050505092508373ffffffffffffffffffffffffffffffffffffffff1663387439046040518163ffffffff167c0100000000000000000000000000000000000000000000000000000000028152600401602060405180830381600087803b158015611dad57600080fd5b505af1158015611dc1573d6000803e3d6000fd5b505050506040513d6020811015611dd757600080fd5b81019080805190602001909291905050509150611e286040805190810160405280601181526020017f54776f4b65794576656e74536f75726365000000000000000000000000000000815250611b69565b90508073ffffffffffffffffffffffffffffffffffffffff16632254a1b78585856040518463ffffffff167c0100000000000000000000000000000000000000000000000000000000028152600401808473ffffffffffffffffffffffffffffffffffffffff1673ffffffffffffffffffffffffffffffffffffffff1681526020018373ffffffffffffffffffffffffffffffffffffffff1673ffffffffffffffffffffffffffffffffffffffff1681526020018273ffffffffffffffffffffffffffffffffffffffff1673ffffffffffffffffffffffffffffffffffffffff1681526020019350505050600060405180830381600087803b158015611f2d57600080fd5b505af1158015611f41573d6000803e3d6000fd5b50505050505050505600a165627a7a7230582035df63b059837fc1c37350375a6d0ca0460c171282e90357f90d40fddff936bf0029",
  "source": "pragma solidity ^0.4.24;\n\nimport \"../interfaces/ITwoKeyCampaign.sol\";\nimport \"../interfaces/ITwoKeyEventSourceEvents.sol\";\nimport \"../interfaces/ITwoKeyCampaignPublicAddresses.sol\";\nimport \"../interfaces/ITwoKeyDonationCampaign.sol\";\nimport \"../interfaces/ITwoKeyDonationCampaignFetchAddresses.sol\";\nimport \"../interfaces/IGetImplementation.sol\";\nimport \"../interfaces/IStructuredStorage.sol\";\nimport \"../interfaces/storage-contracts/ITwoKeyCampaignValidatorStorage.sol\";\n\nimport \"../upgradability/Upgradeable.sol\";\nimport \"../non-upgradable-singletons/ITwoKeySingletonUtils.sol\";\n\n\n/**\n * @author Nikola Madjarevic\n * Created at 2/12/19\n */\ncontract TwoKeyCampaignValidator is Upgradeable, ITwoKeySingletonUtils {\n\n    /**\n     * Storage keys are stored on the top. Here they are in order to avoid any typos\n     */\n    string constant _isCampaignValidated = \"isCampaignValidated\";\n    string constant _campaign2NonSingletonHash = \"campaign2NonSingletonHash\";\n\n    bool initialized;\n\n    ITwoKeyCampaignValidatorStorage public PROXY_STORAGE_CONTRACT;\n\n    /**\n     * @notice Function to set initial parameters in this contract\n     * @param _twoKeySingletoneRegistry is the address of TwoKeySingletoneRegistry contract\n     * @param _proxyStorage is the address of proxy of storage contract\n     */\n    function setInitialParams(\n        address _twoKeySingletoneRegistry,\n        address _proxyStorage\n    )\n    public\n    {\n        require(initialized == false);\n\n        TWO_KEY_SINGLETON_REGISTRY = _twoKeySingletoneRegistry;\n        PROXY_STORAGE_CONTRACT = ITwoKeyCampaignValidatorStorage(_proxyStorage);\n\n        initialized = true;\n    }\n\n    // Modifier which will make function throw if caller is not TwoKeyFactory proxy contract\n    modifier onlyTwoKeyFactory {\n        address twoKeyFactory = getAddressFromTwoKeySingletonRegistry(\"TwoKeyFactory\");\n        require(msg.sender == twoKeyFactory);\n        _;\n    }\n\n    /**\n     * @notice Function which will make newly created campaign validated\n     * @param campaign is the address of the campaign\n     * @param nonSingletonHash is the non singleton hash at the moment of campaign creation\n     */\n    function validateAcquisitionCampaign(\n        address campaign,\n        string nonSingletonHash\n    )\n    public\n    onlyTwoKeyFactory\n    {\n        address conversionHandler = ITwoKeyCampaign(campaign).conversionHandler();\n        address logicHandler = ITwoKeyCampaign(campaign).logicHandler();\n\n        PROXY_STORAGE_CONTRACT.setBool(keccak256(_isCampaignValidated, conversionHandler), true);\n        PROXY_STORAGE_CONTRACT.setBool(keccak256(_isCampaignValidated, logicHandler), true);\n        PROXY_STORAGE_CONTRACT.setBool(keccak256(_isCampaignValidated,campaign), true);\n        PROXY_STORAGE_CONTRACT.setString(keccak256(_campaign2NonSingletonHash,campaign), nonSingletonHash);\n\n        emitCreatedEvent(campaign);\n    }\n\n    /**\n     * @notice Function which will make newly created campaign validated\n     * @param campaign is the campaign address\n     * @dev Validates all the required stuff, if the campaign is not validated, it can't update our singletones\n     */\n    function validateDonationCampaign(\n        address campaign,\n        address donationConversionHandler,\n        address donationLogicHandler,\n        string nonSingletonHash\n    )\n    public\n    onlyTwoKeyFactory\n    {\n        PROXY_STORAGE_CONTRACT.setBool(keccak256(_isCampaignValidated,campaign), true);\n        PROXY_STORAGE_CONTRACT.setBool(keccak256(_isCampaignValidated,donationConversionHandler), true);\n        PROXY_STORAGE_CONTRACT.setBool(keccak256(_isCampaignValidated,donationLogicHandler), true);\n\n        PROXY_STORAGE_CONTRACT.setString(keccak256(_campaign2NonSingletonHash,campaign), nonSingletonHash);\n\n        emitCreatedEvent(campaign);\n    }\n\n\n    /**\n     * @notice Function which will return either is or not one of the campaign contracts validated\n     * @param campaign is any contract deployed during any campaign creation through TwoKeyFactory\n     */\n    function isCampaignValidated(address campaign) public view returns (bool) {\n        bytes32 hashKey = keccak256(_isCampaignValidated, campaign);\n        return PROXY_STORAGE_CONTRACT.getBool(hashKey);\n    }\n\n    /**\n     * @notice Function which is serving as getter for non-singleton hash at the time of campaign creation\n     * @param campaign is the address of strictly main campaign contract (TwoKeyAcquisitionCampaignERC20, TwoKeyDonationCampaign for now)\n     */\n    function campaign2NonSingletonHash(address campaign) public view returns (string) {\n        return PROXY_STORAGE_CONTRACT.getString(keccak256(_campaign2NonSingletonHash, campaign));\n    }\n\n    /**\n     * @notice Function to emit event on TwoKeyEventSource contract\n     */\n    function emitCreatedEvent(address campaign) internal {\n        address contractor = ITwoKeyCampaignPublicAddresses(campaign).contractor();\n        address moderator = ITwoKeyCampaignPublicAddresses(campaign).moderator();\n\n        //Get the event source address\n        address twoKeyEventSource = getAddressFromTwoKeySingletonRegistry(\"TwoKeyEventSource\");\n        // Emit event\n        ITwoKeyEventSourceEvents(twoKeyEventSource).created(campaign,contractor,moderator);\n    }\n}\n",
  "sourcePath": "/Users/nikolamadjarevic/Desktop/2key/contracts/contracts/2key/singleton-contracts/TwoKeyCampaignValidator.sol",
  "compiler": {
    "name": "solc",
    "version": "0.4.24+commit.e67f0147.Emscripten.clang"
  },
  "schemaVersion": "2.0.1",
  "updatedAt": "2019-11-07T08:15:06.214Z"
}