{
  "contractName": "TwoKeySignatureValidator",
  "abi": [
    {
      "constant": true,
      "inputs": [],
      "name": "PROXY_STORAGE_CONTRACT",
      "outputs": [
        {
          "name": "",
          "type": "address"
        }
      ],
      "payable": false,
      "stateMutability": "view",
      "type": "function"
    },
    {
      "constant": true,
      "inputs": [],
      "name": "implementation",
      "outputs": [
        {
          "name": "",
          "type": "address"
        }
      ],
      "payable": false,
      "stateMutability": "view",
      "type": "function"
    },
    {
      "constant": true,
      "inputs": [],
      "name": "TWO_KEY_SINGLETON_REGISTRY",
      "outputs": [
        {
          "name": "",
          "type": "address"
        }
      ],
      "payable": false,
      "stateMutability": "view",
      "type": "function"
    },
    {
      "constant": true,
      "inputs": [
        {
          "name": "_address",
          "type": "address"
        }
      ],
      "name": "getterChecker",
      "outputs": [
        {
          "name": "",
          "type": "bool"
        }
      ],
      "payable": false,
      "stateMutability": "view",
      "type": "function"
    },
    {
      "constant": false,
      "inputs": [
        {
          "name": "sender",
          "type": "address"
        }
      ],
      "name": "initialize",
      "outputs": [],
      "payable": true,
      "stateMutability": "payable",
      "type": "function"
    },
    {
      "constant": false,
      "inputs": [
        {
          "name": "_twoKeySingletonRegistry",
          "type": "address"
        },
        {
          "name": "_proxyStorage",
          "type": "address"
        }
      ],
      "name": "setInitialParams",
      "outputs": [],
      "payable": false,
      "stateMutability": "nonpayable",
      "type": "function"
    },
    {
      "constant": true,
      "inputs": [
        {
          "name": "_name",
          "type": "string"
        },
        {
          "name": "_fullName",
          "type": "string"
        },
        {
          "name": "_email",
          "type": "string"
        },
        {
          "name": "signature",
          "type": "bytes"
        }
      ],
      "name": "validateSignUserData",
      "outputs": [
        {
          "name": "",
          "type": "address"
        }
      ],
      "payable": false,
      "stateMutability": "pure",
      "type": "function"
    },
    {
      "constant": true,
      "inputs": [
        {
          "name": "_name",
          "type": "string"
        },
        {
          "name": "signature",
          "type": "bytes"
        }
      ],
      "name": "validateSignName",
      "outputs": [
        {
          "name": "",
          "type": "address"
        }
      ],
      "payable": false,
      "stateMutability": "pure",
      "type": "function"
    },
    {
      "constant": true,
      "inputs": [
        {
          "name": "username",
          "type": "string"
        },
        {
          "name": "_username_walletName",
          "type": "string"
        },
        {
          "name": "signature",
          "type": "bytes"
        }
      ],
      "name": "validateSignWalletName",
      "outputs": [
        {
          "name": "",
          "type": "address"
        }
      ],
      "payable": false,
      "stateMutability": "pure",
      "type": "function"
    }
  ],
  "bytecode": "0x608060405234801561001057600080fd5b506116dc806100206000396000f300608060405260043610610099576000357c0100000000000000000000000000000000000000000000000000000000900463ffffffff16806305dbe4121461009e578063105005a1146101015780631a3cac091461015857806355da8ada1461028d5780635c60da1b146104085780638830afa01461045f578063a9bd8945146104b6578063c4d66de814610511578063cfa1930f14610547575b600080fd5b3480156100aa57600080fd5b506100ff600480360381019080803573ffffffffffffffffffffffffffffffffffffffff169060200190929190803573ffffffffffffffffffffffffffffffffffffffff169060200190929190505050610636565b005b34801561010d57600080fd5b506101166106f9565b604051808273ffffffffffffffffffffffffffffffffffffffff1673ffffffffffffffffffffffffffffffffffffffff16815260200191505060405180910390f35b34801561016457600080fd5b5061024b600480360381019080803590602001908201803590602001908080601f0160208091040260200160405190810160405280939291908181526020018383808284378201915050505050509192919290803590602001908201803590602001908080601f0160208091040260200160405190810160405280939291908181526020018383808284378201915050505050509192919290803590602001908201803590602001908080601f016020809104026020016040519081016040528093929190818152602001838380828437820191505050505050919291929050505061071f565b604051808273ffffffffffffffffffffffffffffffffffffffff1673ffffffffffffffffffffffffffffffffffffffff16815260200191505060405180910390f35b34801561029957600080fd5b506103c6600480360381019080803590602001908201803590602001908080601f0160208091040260200160405190810160405280939291908181526020018383808284378201915050505050509192919290803590602001908201803590602001908080601f0160208091040260200160405190810160405280939291908181526020018383808284378201915050505050509192919290803590602001908201803590602001908080601f0160208091040260200160405190810160405280939291908181526020018383808284378201915050505050509192919290803590602001908201803590602001908080601f0160208091040260200160405190810160405280939291908181526020018383808284378201915050505050509192919290505050610a81565b604051808273ffffffffffffffffffffffffffffffffffffffff1673ffffffffffffffffffffffffffffffffffffffff16815260200191505060405180910390f35b34801561041457600080fd5b5061041d610dd4565b604051808273ffffffffffffffffffffffffffffffffffffffff1673ffffffffffffffffffffffffffffffffffffffff16815260200191505060405180910390f35b34801561046b57600080fd5b50610474610dfe565b604051808273ffffffffffffffffffffffffffffffffffffffff1673ffffffffffffffffffffffffffffffffffffffff16815260200191505060405180910390f35b3480156104c257600080fd5b506104f7600480360381019080803573ffffffffffffffffffffffffffffffffffffffff169060200190929190505050610e24565b604051808215151515815260200191505060405180910390f35b610545600480360381019080803573ffffffffffffffffffffffffffffffffffffffff169060200190929190505050610f45565b005b34801561055357600080fd5b506105f4600480360381019080803590602001908201803590602001908080601f0160208091040260200160405190810160405280939291908181526020018383808284378201915050505050509192919290803590602001908201803590602001908080601f0160208091040260200160405190810160405280939291908181526020018383808284378201915050505050509192919290505050610fa3565b604051808273ffffffffffffffffffffffffffffffffffffffff1673ffffffffffffffffffffffffffffffffffffffff16815260200191505060405180910390f35b60001515600260149054906101000a900460ff16151514151561065857600080fd5b81600260006101000a81548173ffffffffffffffffffffffffffffffffffffffff021916908373ffffffffffffffffffffffffffffffffffffffff16021790555080600360006101000a81548173ffffffffffffffffffffffffffffffffffffffff021916908373ffffffffffffffffffffffffffffffffffffffff1602179055506001600260146101000a81548160ff0219169083151502179055505050565b600360009054906101000a900473ffffffffffffffffffffffffffffffffffffffff1681565b60006060600080610741878760206040519081016040528060008152506112e4565b925060405160200180807f62797465732062696e64696e6720746f206e616d65000000000000000000000081525060150190506040516020818303038152906040526040518082805190602001908083835b6020831015156107b85780518252602082019150602081019050602083039250610793565b6001836020036101000a0380198251168184511680821785525050505050509050019150506040518091039020836040516020018082805190602001908083835b60208310151561081e57805182526020820191506020810190506020830392506107f9565b6001836020036101000a0380198251168184511680821785525050505050509050019150506040516020818303038152906040526040518082805190602001908083835b6020831015156108875780518252602082019150602081019050602083039250610862565b6001836020036101000a03801982511681845116808217855250505050505090500191505060405180910390206040516020018083600019166000191681526020018260001916600019168152602001925050506040516020818303038152906040526040518082805190602001908083835b60208310151561091f57805182526020820191506020810190506020830392506108fa565b6001836020036101000a0380198251168184511680821785525050505050509050019150506040518091039020915073__Call__________________________________638b2c6d41838760006040518463ffffffff167c010000000000000000000000000000000000000000000000000000000002815260040180846000191660001916815260200180602001838152602001828103825284818151815260200191508051906020019080838360005b838110156109eb5780820151818401526020810190506109d0565b50505050905090810190601f168015610a185780820380516001836020036101000a031916815260200191505b5094505050505060206040518083038186803b158015610a3757600080fd5b505af4158015610a4b573d6000803e3d6000fd5b505050506040513d6020811015610a6157600080fd5b810190808051906020019092919050505090508093505050509392505050565b60006060600080610a938888886112e4565b925060405160200180807f62797465732062696e64696e6720746f206e616d65000000000000000000000081525060150190506040516020818303038152906040526040518082805190602001908083835b602083101515610b0a5780518252602082019150602081019050602083039250610ae5565b6001836020036101000a0380198251168184511680821785525050505050509050019150506040518091039020836040516020018082805190602001908083835b602083101515610b705780518252602082019150602081019050602083039250610b4b565b6001836020036101000a0380198251168184511680821785525050505050509050019150506040516020818303038152906040526040518082805190602001908083835b602083101515610bd95780518252602082019150602081019050602083039250610bb4565b6001836020036101000a03801982511681845116808217855250505050505090500191505060405180910390206040516020018083600019166000191681526020018260001916600019168152602001925050506040516020818303038152906040526040518082805190602001908083835b602083101515610c715780518252602082019150602081019050602083039250610c4c565b6001836020036101000a0380198251168184511680821785525050505050509050019150506040518091039020915073__Call__________________________________638b2c6d41838760006040518463ffffffff167c010000000000000000000000000000000000000000000000000000000002815260040180846000191660001916815260200180602001838152602001828103825284818151815260200191508051906020019080838360005b83811015610d3d578082015181840152602081019050610d22565b50505050905090810190601f168015610d6a5780820380516001836020036101000a031916815260200191505b5094505050505060206040518083038186803b158015610d8957600080fd5b505af4158015610d9d573d6000803e3d6000fd5b505050506040513d6020811015610db357600080fd5b81019080805190602001909291905050509050809350505050949350505050565b6000600160009054906101000a900473ffffffffffffffffffffffffffffffffffffffff16905090565b600260009054906101000a900473ffffffffffffffffffffffffffffffffffffffff1681565b600080610e656040805190810160405280601981526020017f54776f4b65794d61696e7461696e657273526567697374727900000000000000815250611576565b90508073ffffffffffffffffffffffffffffffffffffffff16635cc7815c846040518263ffffffff167c0100000000000000000000000000000000000000000000000000000000028152600401808273ffffffffffffffffffffffffffffffffffffffff1673ffffffffffffffffffffffffffffffffffffffff168152602001915050602060405180830381600087803b158015610f0257600080fd5b505af1158015610f16573d6000803e3d6000fd5b505050506040513d6020811015610f2c57600080fd5b8101908080519060200190929190505050915050919050565b6000809054906101000a900473ffffffffffffffffffffffffffffffffffffffff1673ffffffffffffffffffffffffffffffffffffffff163373ffffffffffffffffffffffffffffffffffffffff16141515610fa057600080fd5b50565b600080600060405160200180807f62797465732062696e64696e6720746f206e616d65000000000000000000000081525060150190506040516020818303038152906040526040518082805190602001908083835b60208310151561101d5780518252602082019150602081019050602083039250610ff8565b6001836020036101000a0380198251168184511680821785525050505050509050019150506040518091039020856040516020018082805190602001908083835b602083101515611083578051825260208201915060208101905060208303925061105e565b6001836020036101000a0380198251168184511680821785525050505050509050019150506040516020818303038152906040526040518082805190602001908083835b6020831015156110ec57805182526020820191506020810190506020830392506110c7565b6001836020036101000a03801982511681845116808217855250505050505090500191505060405180910390206040516020018083600019166000191681526020018260001916600019168152602001925050506040516020818303038152906040526040518082805190602001908083835b602083101515611184578051825260208201915060208101905060208303925061115f565b6001836020036101000a0380198251168184511680821785525050505050509050019150506040518091039020915073__Call__________________________________638b2c6d41838660006040518463ffffffff167c010000000000000000000000000000000000000000000000000000000002815260040180846000191660001916815260200180602001838152602001828103825284818151815260200191508051906020019080838360005b83811015611250578082015181840152602081019050611235565b50505050905090810190601f16801561127d5780820380516001836020036101000a031916815260200191505b5094505050505060206040518083038186803b15801561129c57600080fd5b505af41580156112b0573d6000803e3d6000fd5b505050506040513d60208110156112c657600080fd5b81019080805190602001909291905050509050809250505092915050565b6060806060806060806000808a965089955088945084518651885101016040519080825280601f01601f1916602001820160405280156113335781602001602082028038833980820191505090505b50935083925060009150600090505b86518110156113f557868181518110151561135957fe5b9060200101517f010000000000000000000000000000000000000000000000000000000000000090047f01000000000000000000000000000000000000000000000000000000000000000283838060010194508151811015156113b857fe5b9060200101907effffffffffffffffffffffffffffffffffffffffffffffffffffffffffffff1916908160001a9053508080600101915050611342565b600090505b85518110156114ad57858181518110151561141157fe5b9060200101517f010000000000000000000000000000000000000000000000000000000000000090047f010000000000000000000000000000000000000000000000000000000000000002838380600101945081518110151561147057fe5b9060200101907effffffffffffffffffffffffffffffffffffffffffffffffffffffffffffff1916908160001a90535080806001019150506113fa565b600090505b84518110156115655784818151811015156114c957fe5b9060200101517f010000000000000000000000000000000000000000000000000000000000000090047f010000000000000000000000000000000000000000000000000000000000000002838380600101945081518110151561152857fe5b9060200101907effffffffffffffffffffffffffffffffffffffffffffffffffffffffffffff1916908160001a90535080806001019150506114b2565b829750505050505050509392505050565b6000600260009054906101000a900473ffffffffffffffffffffffffffffffffffffffff1673ffffffffffffffffffffffffffffffffffffffff1663db7a6d90836040518263ffffffff167c01000000000000000000000000000000000000000000000000000000000281526004018080602001828103825283818151815260200191508051906020019080838360005b83811015611622578082015181840152602081019050611607565b50505050905090810190601f16801561164f5780820380516001836020036101000a031916815260200191505b5092505050602060405180830381600087803b15801561166e57600080fd5b505af1158015611682573d6000803e3d6000fd5b505050506040513d602081101561169857600080fd5b810190808051906020019092919050505090509190505600a165627a7a72305820d80b49e098b0b48e18fc5f65c1f171d4fc601c6af57ddc94cd72e980522f28b20029",
  "source": "pragma solidity ^0.4.24;\n\nimport \"../upgradability/Upgradeable.sol\";\nimport \"../libraries/Utils.sol\";\nimport \"../interfaces/storage-contracts/ITwoKeySignatureValidatorStorage.sol\";\nimport \"../libraries/Call.sol\";\nimport \"../non-upgradable-singletons/ITwoKeySingletonUtils.sol\";\n\ncontract TwoKeySignatureValidator is Upgradeable, Utils, ITwoKeySingletonUtils {\n\n    using Call for *;\n    bool initialized;\n    ITwoKeySignatureValidatorStorage public PROXY_STORAGE_CONTRACT;\n\n    /**\n     * @notice Function to simulate constructor\n     * @param _twoKeySingletonRegistry is the address of TWO_KEY_SINGLETON_REGISTRY\n     * @param _proxyStorage is the address of proxy of storage contracts\n     */\n    function setInitialParams(\n        address _twoKeySingletonRegistry,\n        address _proxyStorage\n    )\n    public\n    {\n        require(initialized == false);\n\n        TWO_KEY_SINGLETON_REGISTRY = _twoKeySingletonRegistry;\n        PROXY_STORAGE_CONTRACT = ITwoKeySignatureValidatorStorage(_proxyStorage);\n\n        initialized = true;\n    }\n\n    /**\n     * @notice Function to validate signature which will sign user data\n     * @param _name is the name of user\n     * @param _fullName is the full name of user\n     * @param _email is the email of user\n     * @param signature is the signature\n     * @return if signature is good it will resolve address, otherwise it will be address(0)\n     */\n    function validateSignUserData(\n        string _name,\n        string _fullName,\n        string _email,\n        bytes signature\n    )\n    public\n    pure\n    returns (address)\n    {\n        string memory concatenatedValues = strConcat(_name,_fullName,_email);\n        bytes32 hash = keccak256(abi.encodePacked(keccak256(abi.encodePacked(\"bytes binding to name\")),\n            keccak256(abi.encodePacked(concatenatedValues))));\n        address message_signer = Call.recoverHash(hash, signature, 0);\n        return message_signer;\n    }\n\n    /**\n     * @notice Function to validate signature which will sign name\n     * @param _name is user name to be signed\n     * @param signature is signature containing that signed name\n     * @return if signature is good it will resolve address, otherwise it will be address(0)\n     */\n    function validateSignName(\n        string _name,\n        bytes signature\n    )\n    public\n    pure\n    returns (address)\n    {\n        bytes32 hash = keccak256(abi.encodePacked(keccak256(abi.encodePacked(\"bytes binding to name\")),\n            keccak256(abi.encodePacked(_name))));\n        address eth_address = Call.recoverHash(hash,signature,0);\n        return eth_address;\n    }\n\n    /**\n     * @notice Function to validate signature which will sign wallet name\n     * @param username is the username of the user\n     * @param _username_walletName is = concat(username,'_',walletName)\n     * @return if signature is good it will resolve address, otherwise it will be address(0)\n     */\n    function validateSignWalletName(\n        string memory username,\n        string memory _username_walletName,\n        bytes signature\n    )\n    public\n    pure\n    returns (address)\n    {\n        string memory concatenatedValues = strConcat(username,_username_walletName,\"\");\n\n        bytes32 hash = keccak256(abi.encodePacked(keccak256(abi.encodePacked(\"bytes binding to name\")),\n            keccak256(abi.encodePacked(concatenatedValues))));\n        address message_signer = Call.recoverHash(hash, signature, 0);\n        return message_signer;\n    }\n}\n",
  "sourcePath": "/Users/nikolamadjarevic/Desktop/2key/contracts/contracts/2key/singleton-contracts/TwoKeySignatureValidator.sol",
  "compiler": {
    "name": "solc",
    "version": "0.4.24+commit.e67f0147.Emscripten.clang"
  },
  "schemaVersion": "2.0.1",
  "updatedAt": "2019-11-07T08:15:06.203Z"
}