{
  "contractName": "Upgradeable",
  "abi": [
    {
      "constant": true,
      "inputs": [],
      "name": "implementation",
      "outputs": [
        {
          "name": "",
          "type": "address"
        }
      ],
      "payable": false,
      "stateMutability": "view",
      "type": "function"
    },
    {
      "constant": false,
      "inputs": [
        {
          "name": "sender",
          "type": "address"
        }
      ],
      "name": "initialize",
      "outputs": [],
      "payable": true,
      "stateMutability": "payable",
      "type": "function"
    }
  ],
  "bytecode": "0x608060405234801561001057600080fd5b50610192806100206000396000f30060806040526004361061004c576000357c0100000000000000000000000000000000000000000000000000000000900463ffffffff1680635c60da1b14610051578063c4d66de8146100a8575b600080fd5b34801561005d57600080fd5b506100666100de565b604051808273ffffffffffffffffffffffffffffffffffffffff1673ffffffffffffffffffffffffffffffffffffffff16815260200191505060405180910390f35b6100dc600480360381019080803573ffffffffffffffffffffffffffffffffffffffff169060200190929190505050610108565b005b6000600160009054906101000a900473ffffffffffffffffffffffffffffffffffffffff16905090565b6000809054906101000a900473ffffffffffffffffffffffffffffffffffffffff1673ffffffffffffffffffffffffffffffffffffffff163373ffffffffffffffffffffffffffffffffffffffff1614151561016357600080fd5b505600a165627a7a723058206fc6874eabc63e8cb1ce9aebf0529ca488325da04be33f156464df55e7747aec0029",
  "source": "pragma solidity ^0.4.24;\n\nimport \"./UpgradabilityStorage.sol\";\n\ncontract Upgradeable is UpgradeabilityStorage {\n    /**\n     * @dev Validates the caller is the versions registry.\n     * @param sender representing the address deploying the initial behavior of the contract\n     */\n    function initialize(address sender) public payable {\n        require(msg.sender == address(registry));\n    }\n}\n",
  "sourcePath": "/Users/nikolamadjarevic/Desktop/2key/contracts/contracts/2key/upgradability/Upgradeable.sol",
  "compiler": {
    "name": "solc",
    "version": "0.4.24+commit.e67f0147.Emscripten.clang"
  },
  "schemaVersion": "2.0.1",
  "updatedAt": "2019-11-07T08:14:37.344Z"
}