{
  "contractName": "ComposableAssetFactory",
  "abi": [
    {
      "constant": true,
      "inputs": [
        {
          "name": "_operator",
          "type": "address"
        },
        {
          "name": "_role",
          "type": "string"
        }
      ],
      "name": "checkRole",
      "outputs": [],
      "payable": false,
      "stateMutability": "view",
      "type": "function"
    },
    {
      "constant": true,
      "inputs": [
        {
          "name": "_operator",
          "type": "address"
        },
        {
          "name": "_role",
          "type": "string"
        }
      ],
      "name": "hasRole",
      "outputs": [
        {
          "name": "",
          "type": "bool"
        }
      ],
      "payable": false,
      "stateMutability": "view",
      "type": "function"
    },
    {
      "constant": true,
      "inputs": [],
      "name": "ROLE_CONTROLLER",
      "outputs": [
        {
          "name": "",
          "type": "string"
        }
      ],
      "payable": false,
      "stateMutability": "view",
      "type": "function"
    },
    {
      "constant": false,
      "inputs": [
        {
          "name": "addr",
          "type": "address"
        },
        {
          "name": "roleName",
          "type": "string"
        }
      ],
      "name": "adminRemoveRole",
      "outputs": [],
      "payable": false,
      "stateMutability": "nonpayable",
      "type": "function"
    },
    {
      "constant": false,
      "inputs": [
        {
          "name": "addr",
          "type": "address"
        },
        {
          "name": "roleName",
          "type": "string"
        }
      ],
      "name": "adminAddRole",
      "outputs": [],
      "payable": false,
      "stateMutability": "nonpayable",
      "type": "function"
    },
    {
      "constant": true,
      "inputs": [],
      "name": "ROLE_ADMIN",
      "outputs": [
        {
          "name": "",
          "type": "string"
        }
      ],
      "payable": false,
      "stateMutability": "view",
      "type": "function"
    },
    {
      "inputs": [
        {
          "name": "_openingTime",
          "type": "uint256"
        },
        {
          "name": "_closingTime",
          "type": "uint256"
        }
      ],
      "payable": false,
      "stateMutability": "nonpayable",
      "type": "constructor"
    },
    {
      "anonymous": false,
      "inputs": [
        {
          "indexed": true,
          "name": "_contract",
          "type": "address"
        }
      ],
      "name": "Expired",
      "type": "event"
    },
    {
      "anonymous": false,
      "inputs": [
        {
          "indexed": true,
          "name": "operator",
          "type": "address"
        },
        {
          "indexed": false,
          "name": "role",
          "type": "string"
        }
      ],
      "name": "RoleAdded",
      "type": "event"
    },
    {
      "anonymous": false,
      "inputs": [
        {
          "indexed": true,
          "name": "operator",
          "type": "address"
        },
        {
          "indexed": false,
          "name": "role",
          "type": "string"
        }
      ],
      "name": "RoleRemoved",
      "type": "event"
    },
    {
      "constant": false,
      "inputs": [
        {
          "name": "_tokenID",
          "type": "uint256"
        },
        {
          "name": "_assetContract",
          "type": "address"
        },
        {
          "name": "_amount",
          "type": "uint256"
        }
      ],
      "name": "addFungibleAsset",
      "outputs": [
        {
          "name": "",
          "type": "bool"
        }
      ],
      "payable": false,
      "stateMutability": "nonpayable",
      "type": "function"
    },
    {
      "constant": false,
      "inputs": [
        {
          "name": "_tokenID",
          "type": "uint256"
        },
        {
          "name": "_assetContract",
          "type": "address"
        },
        {
          "name": "_index",
          "type": "uint256"
        }
      ],
      "name": "addNonFungibleAsset",
      "outputs": [
        {
          "name": "",
          "type": "bool"
        }
      ],
      "payable": false,
      "stateMutability": "nonpayable",
      "type": "function"
    },
    {
      "constant": false,
      "inputs": [
        {
          "name": "_to",
          "type": "address"
        },
        {
          "name": "_tokenID",
          "type": "uint256"
        },
        {
          "name": "_assetContract",
          "type": "address"
        },
        {
          "name": "_amount",
          "type": "uint256"
        }
      ],
      "name": "transferFungibleAsset",
      "outputs": [
        {
          "name": "",
          "type": "bool"
        }
      ],
      "payable": false,
      "stateMutability": "nonpayable",
      "type": "function"
    },
    {
      "constant": false,
      "inputs": [
        {
          "name": "_to",
          "type": "address"
        },
        {
          "name": "_tokenID",
          "type": "uint256"
        },
        {
          "name": "_assetContract",
          "type": "address"
        },
        {
          "name": "_amount",
          "type": "uint256"
        }
      ],
      "name": "expireFungible",
      "outputs": [
        {
          "name": "",
          "type": "bool"
        }
      ],
      "payable": false,
      "stateMutability": "nonpayable",
      "type": "function"
    },
    {
      "constant": false,
      "inputs": [
        {
          "name": "_to",
          "type": "address"
        },
        {
          "name": "_tokenID",
          "type": "uint256"
        },
        {
          "name": "_assetContract",
          "type": "address"
        },
        {
          "name": "_assetTokenID",
          "type": "uint256"
        }
      ],
      "name": "expireNonFungible",
      "outputs": [
        {
          "name": "",
          "type": "bool"
        }
      ],
      "payable": false,
      "stateMutability": "nonpayable",
      "type": "function"
    }
  ],
  "bytecode": "0x60806040523480156200001157600080fd5b506040516040806200190d83398101806040528101908080519060200190929190805190602001909291905050506200008f336040805190810160405280600581526020017f61646d696e000000000000000000000000000000000000000000000000000000815250620000c5640100000000026401000000009004565b4282101515156200009f57600080fd5b818110151515620000af57600080fd5b816001819055508060028190555050506200026c565b62000154826000836040518082805190602001908083835b602083101515620001045780518252602082019150602081019050602083039250620000dd565b6001836020036101000a03801982511681845116808217855250505050505090500191505090815260200160405180910390206200020e6401000000000262001607179091906401000000009004565b8173ffffffffffffffffffffffffffffffffffffffff167fbfec83d64eaa953f2708271a023ab9ee82057f8f3578d548c1a4ba0b5b700489826040518080602001828103825283818151815260200191508051906020019080838360005b83811015620001cf578082015181840152602081019050620001b2565b50505050905090810190601f168015620001fd5780820380516001836020036101000a031916815260200191505b509250505060405180910390a25050565b60018260000160008373ffffffffffffffffffffffffffffffffffffffff1673ffffffffffffffffffffffffffffffffffffffff16815260200190815260200160002060006101000a81548160ff0219169083151502179055505050565b611691806200027c6000396000f3006080604052600436106100af576000357c0100000000000000000000000000000000000000000000000000000000900463ffffffff1680630988ca8c146100b4578063217fe6c61461013d5780635b4df1ca146101de578063659377171461026e57806388cee87e146102fd578063a4d4a09414610386578063b25fa92c146103f5578063b706568f1461047e578063be1fd0381461050d578063d391014b1461057c578063e6ada8c71461060c575b600080fd5b3480156100c057600080fd5b5061013b600480360381019080803573ffffffffffffffffffffffffffffffffffffffff169060200190929190803590602001908201803590602001908080601f016020809104026020016040519081016040528093929190818152602001838380828437820191505050505050919291929050505061069b565b005b34801561014957600080fd5b506101c4600480360381019080803573ffffffffffffffffffffffffffffffffffffffff169060200190929190803590602001908201803590602001908080601f016020809104026020016040519081016040528093929190818152602001838380828437820191505050505050919291929050505061071c565b604051808215151515815260200191505060405180910390f35b3480156101ea57600080fd5b506101f36107a3565b6040518080602001828103825283818151815260200191508051906020019080838360005b83811015610233578082015181840152602081019050610218565b50505050905090810190601f1680156102605780820380516001836020036101000a031916815260200191505b509250505060405180910390f35b34801561027a57600080fd5b506102e3600480360381019080803573ffffffffffffffffffffffffffffffffffffffff16906020019092919080359060200190929190803573ffffffffffffffffffffffffffffffffffffffff169060200190929190803590602001909291905050506107dc565b604051808215151515815260200191505060405180910390f35b34801561030957600080fd5b50610384600480360381019080803573ffffffffffffffffffffffffffffffffffffffff169060200190929190803590602001908201803590602001908080601f016020809104026020016040519081016040528093929190818152602001838380828437820191505050505050919291929050505061088b565b005b34801561039257600080fd5b506103db60048036038101908080359060200190929190803573ffffffffffffffffffffffffffffffffffffffff169060200190929190803590602001909291905050506108d8565b604051808215151515815260200191505060405180910390f35b34801561040157600080fd5b5061047c600480360381019080803573ffffffffffffffffffffffffffffffffffffffff169060200190929190803590602001908201803590602001908080601f0160208091040260200160405190810160405280939291908181526020018383808284378201915050505050509192919290505050610ab3565b005b34801561048a57600080fd5b506104f3600480360381019080803573ffffffffffffffffffffffffffffffffffffffff16906020019092919080359060200190929190803573ffffffffffffffffffffffffffffffffffffffff16906020019092919080359060200190929190505050610b00565b604051808215151515815260200191505060405180910390f35b34801561051957600080fd5b5061056260048036038101908080359060200190929190803573ffffffffffffffffffffffffffffffffffffffff16906020019092919080359060200190929190505050610b18565b604051808215151515815260200191505060405180910390f35b34801561058857600080fd5b50610591610d84565b6040518080602001828103825283818151815260200191508051906020019080838360005b838110156105d15780820151818401526020810190506105b6565b50505050905090810190601f1680156105fe5780820380516001836020036101000a031916815260200191505b509250505060405180910390f35b34801561061857600080fd5b50610681600480360381019080803573ffffffffffffffffffffffffffffffffffffffff16906020019092919080359060200190929190803573ffffffffffffffffffffffffffffffffffffffff16906020019092919080359060200190929190505050610dbd565b604051808215151515815260200191505060405180910390f35b610718826000836040518082805190602001908083835b6020831015156106d757805182526020820191506020810190506020830392506106b2565b6001836020036101000a0380198251168184511680821785525050505050509050019150509081526020016040518091039020610e6c90919063ffffffff16565b5050565b600061079b836000846040518082805190602001908083835b60208310151561075a5780518252602082019150602081019050602083039250610735565b6001836020036101000a0380198251168184511680821785525050505050509050019150509081526020016040518091039020610e8590919063ffffffff16565b905092915050565b6040805190810160405280600a81526020017f636f6e74726f6c6c65720000000000000000000000000000000000000000000081525081565b60006040805190810160405280600a81526020017f636f6e74726f6c6c65720000000000000000000000000000000000000000000081525061081e338261069b565b6002544211151561082e57600080fd5b61083a86868686610ede565b503073ffffffffffffffffffffffffffffffffffffffff167fd5669ebe8b90ed693033f1915dcea031e7a16a6f146a8326c02eec10eed77edd60405160405180910390a26001915050949350505050565b6108ca336040805190810160405280600581526020017f61646d696e00000000000000000000000000000000000000000000000000000081525061069b565b6108d482826110ad565b5050565b600060015442101580156108ee57506002544211155b15156108f957600080fd5b8273ffffffffffffffffffffffffffffffffffffffff1660405180807f7472616e7366657246726f6d28616464726573732c616464726573732c75696e81526020017f7432353629000000000000000000000000000000000000000000000000000000815250602501905060405180910390207c010000000000000000000000000000000000000000000000000000000090043330856040518463ffffffff167c0100000000000000000000000000000000000000000000000000000000028152600401808473ffffffffffffffffffffffffffffffffffffffff1673ffffffffffffffffffffffffffffffffffffffff1681526020018373ffffffffffffffffffffffffffffffffffffffff1673ffffffffffffffffffffffffffffffffffffffff16815260200182815260200193505050506000604051808303816000875af1925050501515610a4a57600080fd5b816003600086815260200190815260200160002060008573ffffffffffffffffffffffffffffffffffffffff1673ffffffffffffffffffffffffffffffffffffffff16815260200190815260200160002060008282540192505081905550600190509392505050565b610af2336040805190810160405280600581526020017f61646d696e00000000000000000000000000000000000000000000000000000081525061069b565b610afc82826111e1565b5050565b6000610b0e85858585610ede565b9050949350505050565b6000806001544210158015610b2f57506002544211155b1515610b3a57600080fd5b8373ffffffffffffffffffffffffffffffffffffffff1660405180807f7472616e7366657246726f6d28616464726573732c616464726573732c75696e81526020017f7432353629000000000000000000000000000000000000000000000000000000815250602501905060405180910390207c0100000000000000000000000000000000000000000000000000000000900433856040518363ffffffff167c0100000000000000000000000000000000000000000000000000000000028152600401808373ffffffffffffffffffffffffffffffffffffffff1673ffffffffffffffffffffffffffffffffffffffff168152602001828152602001925050506000604051808303816000875af1925050501515610c5757600080fd5b8383604051602001808373ffffffffffffffffffffffffffffffffffffffff1673ffffffffffffffffffffffffffffffffffffffff166c01000000000000000000000000028152601401828152602001925050506040516020818303038152906040526040518082805190602001908083835b602083101515610cef5780518252602082019150602081019050602083039250610cca565b6001836020036101000a038019825116818451168082178552505050505050905001915050604051809103902060019004905060016003600087815260200190815260200160002060008373ffffffffffffffffffffffffffffffffffffffff1673ffffffffffffffffffffffffffffffffffffffff1681526020019081526020016000208190555060019150509392505050565b6040805190810160405280600581526020017f61646d696e00000000000000000000000000000000000000000000000000000081525081565b60006040805190810160405280600a81526020017f636f6e74726f6c6c657200000000000000000000000000000000000000000000815250610dff338261069b565b60025442111515610e0f57600080fd5b610e1b86868686611315565b503073ffffffffffffffffffffffffffffffffffffffff167fd5669ebe8b90ed693033f1915dcea031e7a16a6f146a8326c02eec10eed77edd60405160405180910390a26001915050949350505050565b610e768282610e85565b1515610e8157600080fd5b5050565b60008260000160008373ffffffffffffffffffffffffffffffffffffffff1673ffffffffffffffffffffffffffffffffffffffff16815260200190815260200160002060009054906101000a900460ff16905092915050565b60008273ffffffffffffffffffffffffffffffffffffffff1660405160200180807f7472616e7366657228616464726573732c75696e74323536290000000000000081525060190190506040516020818303038152906040526040518082805190602001908083835b602083101515610f6c5780518252602082019150602081019050602083039250610f47565b6001836020036101000a03801982511681845116808217855250505050505090500191505060405180910390207c0100000000000000000000000000000000000000000000000000000000900486846040518363ffffffff167c0100000000000000000000000000000000000000000000000000000000028152600401808373ffffffffffffffffffffffffffffffffffffffff1673ffffffffffffffffffffffffffffffffffffffff168152602001828152602001925050506000604051808303816000875af192505050151561104357600080fd5b816003600086815260200190815260200160002060008573ffffffffffffffffffffffffffffffffffffffff1673ffffffffffffffffffffffffffffffffffffffff1681526020019081526020016000206000828254039250508190555060019050949350505050565b61112a826000836040518082805190602001908083835b6020831015156110e957805182526020820191506020810190506020830392506110c4565b6001836020036101000a03801982511681845116808217855250505050505090500191505090815260200160405180910390206115a990919063ffffffff16565b8173ffffffffffffffffffffffffffffffffffffffff167fd211483f91fc6eff862467f8de606587a30c8fc9981056f051b897a418df803a826040518080602001828103825283818151815260200191508051906020019080838360005b838110156111a3578082015181840152602081019050611188565b50505050905090810190601f1680156111d05780820380516001836020036101000a031916815260200191505b509250505060405180910390a25050565b61125e826000836040518082805190602001908083835b60208310151561121d57805182526020820191506020810190506020830392506111f8565b6001836020036101000a038019825116818451168082178552505050505050905001915050908152602001604051809103902061160790919063ffffffff16565b8173ffffffffffffffffffffffffffffffffffffffff167fbfec83d64eaa953f2708271a023ab9ee82057f8f3578d548c1a4ba0b5b700489826040518080602001828103825283818151815260200191508051906020019080838360005b838110156112d75780820151818401526020810190506112bc565b50505050905090810190601f1680156113045780820380516001836020036101000a031916815260200191505b509250505060405180910390a25050565b6000808383604051602001808373ffffffffffffffffffffffffffffffffffffffff1673ffffffffffffffffffffffffffffffffffffffff166c01000000000000000000000000028152601401828152602001925050506040516020818303038152906040526040518082805190602001908083835b6020831015156113b0578051825260208201915060208101905060208303925061138b565b6001836020036101000a03801982511681845116808217855250505050505090500191505060405180910390206001900490508373ffffffffffffffffffffffffffffffffffffffff1660405160200180807f7472616e7366657228616464726573732c75696e74323536290000000000000081525060190190506040516020818303038152906040526040518082805190602001908083835b60208310151561146f578051825260208201915060208101905060208303925061144a565b6001836020036101000a03801982511681845116808217855250505050505090500191505060405180910390207c0100000000000000000000000000000000000000000000000000000000900487856040518363ffffffff167c0100000000000000000000000000000000000000000000000000000000028152600401808373ffffffffffffffffffffffffffffffffffffffff1673ffffffffffffffffffffffffffffffffffffffff168152602001828152602001925050506000604051808303816000875af192505050151561154657600080fd5b60006003600087815260200190815260200160002060008373ffffffffffffffffffffffffffffffffffffffff1673ffffffffffffffffffffffffffffffffffffffff168152602001908152602001600020819055506001915050949350505050565b60008260000160008373ffffffffffffffffffffffffffffffffffffffff1673ffffffffffffffffffffffffffffffffffffffff16815260200190815260200160002060006101000a81548160ff0219169083151502179055505050565b60018260000160008373ffffffffffffffffffffffffffffffffffffffff1673ffffffffffffffffffffffffffffffffffffffff16815260200190815260200160002060006101000a81548160ff02191690831515021790555050505600a165627a7a72305820c3e25b315ff76f34c365ae61ae67953c241e1a80a72f6f8cdf8d7403d4984acd0029",
  "source": "pragma solidity ^0.4.24;\n\n// based on https://medium.com/coinmonks/introducing-crypto-composables-ee5701fde217\n\nimport '../openzeppelin-solidity/contracts/math/SafeMath.sol';\n\nimport './RBACWithAdmin.sol';\n\ncontract ComposableAssetFactory is RBACWithAdmin { \n\n  event Expired(address indexed _contract);\n\n  using SafeMath for uint256;\n  \n\n  uint256 private openingTime;\n  uint256 private closingTime;\n\n  modifier isOngoing() {\n    require(block.timestamp >= openingTime && block.timestamp <= closingTime);\n    _;\n  }\n\n  modifier isClosed() {\n    require(now > closingTime);\n    _;\n  }\n\n\n  /*\n  \n    The contract acts as a store. The assets data structure is the catalogue of the store.\n    \n    Each asset is identified by a uint256 tokenID that acts as a SKU (shop keeping unit)\n\n    This SKU is set by the owner and is unique only with this particular contract\n    \n      mapping(uint256 => ...)\n\n    maps a tokenID to the asset\n    Such a tokenID identifies one of:\n\n    1. ERC20 : which is represented by an entry mapping(address => uint256)\n    which maps the ERC20 contract to the amount tokens we have\n    2. ERC721: which is represented by an entry mapping(address => uint256)\n    where the address is a hash of the concatenation of the ERC721 contract address and the unique token within that contract, and \n    the uint256 value is 1 or 0\n\n  */\n\n\n  // TODO (udi) I think it she mapping(uint256 => address) and not mapping(uint256 => mapping(address => uint256))\n  // the uint256 is SKU and the address is of ERC20 or ERC721 there is just one address per SKU so we dont need more than one.\n  //    You can the balanceOf method (both in ERC20 and ERC721) instead of using the last uint256 or counting how many entries you have\n  //    in mapping(address => uint256). From reading the interface of ERC721 it looks like it is not very important to\n  //    remeber which NFT you used. If you really want you can do a mapping from SKU to a struct. the first item in the\n  //    struct is the address and the second item is a map of all the NFT the campaign owns mapping(uint256 => bool)\n  //    but this is not elegant because this mapping is only needed for ERC721 and not for ERC20 so you should really put\n  //    it in a subclass. Anyway I dont think we need ETC721 and even if we support ERC721 we dont need to keep track of which tokenID (NFT)\n  //    is used.\n  //\n  mapping(uint256 => mapping(address => uint256)) assets;\n\n\n  /// @notice Constructor for factory\n  /// @dev RBACWithAdmin() is contract we've inherited and it's constructor will set msg.sender to be an admin\n  /// @param _openingTime is opening time\n  /// @param _closingTime is closing time\n  constructor(uint256 _openingTime, uint256 _closingTime) RBACWithAdmin() public {\n    require(_openingTime >= now);\n    require(_closingTime >= _openingTime);    \n    openingTime = _openingTime;\n    closingTime = _closingTime;\n  }\n\n\n  // remove isOngoing modifier - there is the error, need to find out.\n  // add erc20 asset amount to the store, which adds an amount of that erc20 to our catalogue\n  function addFungibleAsset(uint256 _tokenID, address _assetContract, uint256 _amount) isOngoing public returns (bool) {\n    require(\n      _assetContract.call(\n        bytes4(keccak256(\"transferFrom(address,address,uint256)\")),\n        msg.sender,\n        address(this),\n        _amount\n      )\n    );\n\n    // set as asset\n    assets[_tokenID][_assetContract] += _amount;\n\n    return true;\n  }\n\n  // add erc721 asset to the store, which adds a particular unique item from that erc721 to our catalogue\n  function addNonFungibleAsset(uint256 _tokenID, address _assetContract, uint256 _index) isOngoing public returns (bool) {\n    require(\n      _assetContract.call(\n        bytes4(keccak256(\"transferFrom(address,address,uint256)\")),\n        msg.sender,\n        _index\n      )\n    );\n\n    // set as asset\n    address assetToken = address(\n      keccak256(abi.encodePacked(_assetContract, _index))\n    );\n    assets[_tokenID][assetToken] = 1;\n\n    return true;\n  }\n  // commented line where transaction reverted.\n  // move an amount of erc20 from our catalogue to someone\n  function moveFungibleAsset(\n    address _to,\n    uint256 _tokenID,\n    address _assetContract,\n    uint256 _amount) internal returns (bool) {\n//    require(assets[_tokenID][_assetContract] >= _amount);\n    require(\n      _assetContract.call(\n        bytes4(keccak256(abi.encodePacked(\"transfer(address,uint256)\"))),\n        _to, _amount\n      )\n    );\n\n    assets[_tokenID][_assetContract] -= _amount;\n    return true;\n  }\n\n  // transfer a unique item from a erc721 in our catalogue to someone\n  function moveNonFungibleAsset(\n    address _to,\n    uint256 _tokenID,\n    address _assetContract,\n    uint256 _assetTokenID) internal returns (bool) {\n    address assetToken = address(\n      keccak256(abi.encodePacked(_assetContract, _assetTokenID))\n    );\n//    require(assets[_tokenID][assetToken] == 1);\n    require(\n      _assetContract.call(\n        bytes4(keccak256(abi.encodePacked(\"transfer(address,uint256)\"))),\n        _to, _assetTokenID\n      )\n    );\n\n    assets[_tokenID][assetToken] = 0;\n    return true;\n  }\n\n  // transfer an amount of erc20 from our catalogue to someone\n  // If transferFungibleAsset is internal that means it can't be called from out of the contract - set it to public\n  // onlyRole(ROLE_CONTROLLER) modifier also doesn't work, need to check it.\n  function transferFungibleAsset(\n    address _to,\n    uint256 _tokenID,\n    address _assetContract,\n    uint256 _amount)  public returns (bool) {\n    return moveFungibleAsset(_to, _tokenID, _assetContract, _amount);\n  }\n\n  // transfer a unique item from a erc721 in our catalogue to someone\n  function transferNonFungibleAsset(\n    address _to,\n    uint256 _tokenID,\n    address _assetContract,\n    uint256 _assetTokenID) isOngoing onlyRole(ROLE_CONTROLLER) internal returns (bool) {\n    return moveNonFungibleAsset(_to, _tokenID, _assetContract, _assetTokenID);\n  }\n\n  function expireFungible(\n    address _to,\n    uint256 _tokenID,\n    address _assetContract,\n    uint256 _amount) onlyRole(ROLE_CONTROLLER) isClosed public returns (bool) {\n    moveFungibleAsset(_to, _tokenID, _assetContract, _amount);\n    emit Expired(address(this));\n    return true;\n  }\n\n  function expireNonFungible(\n    address _to,\n    uint256 _tokenID,\n    address _assetContract,\n    uint256 _assetTokenID) onlyRole(ROLE_CONTROLLER) isClosed public returns (bool){   \n    moveNonFungibleAsset(_to, _tokenID, _assetContract, _assetTokenID);\n    emit Expired(address(this));\n    return true;\n  }\n\n}\n",
  "sourcePath": "/Users/nikolamadjarevic/Desktop/2key/contracts/contracts/2key/ComposableAssetFactory.sol",
  "compiler": {
    "name": "solc",
    "version": "0.4.24+commit.e67f0147.Emscripten.clang"
  },
  "schemaVersion": "2.0.1",
  "updatedAt": "2018-08-23T15:15:17.476Z"
}