{
  "contractName": "ComposableAssetFactory",
  "abi": [
    {
      "constant": false,
      "inputs": [],
      "name": "renounceOwnership",
      "outputs": [],
      "payable": false,
      "stateMutability": "nonpayable",
      "type": "function"
    },
    {
      "constant": true,
      "inputs": [],
      "name": "owner",
      "outputs": [
        {
          "name": "",
          "type": "address"
        }
      ],
      "payable": false,
      "stateMutability": "view",
      "type": "function"
    },
    {
      "constant": false,
      "inputs": [
        {
          "name": "_newOwner",
          "type": "address"
        }
      ],
      "name": "transferOwnership",
      "outputs": [],
      "payable": false,
      "stateMutability": "nonpayable",
      "type": "function"
    },
    {
      "anonymous": false,
      "inputs": [
        {
          "indexed": true,
          "name": "previousOwner",
          "type": "address"
        }
      ],
      "name": "OwnershipRenounced",
      "type": "event"
    },
    {
      "anonymous": false,
      "inputs": [
        {
          "indexed": true,
          "name": "previousOwner",
          "type": "address"
        },
        {
          "indexed": true,
          "name": "newOwner",
          "type": "address"
        }
      ],
      "name": "OwnershipTransferred",
      "type": "event"
    },
    {
      "constant": false,
      "inputs": [
        {
          "name": "_tokenID",
          "type": "uint256"
        },
        {
          "name": "_childContract",
          "type": "address"
        },
        {
          "name": "_amount",
          "type": "uint256"
        }
      ],
      "name": "addFungibleChild",
      "outputs": [
        {
          "name": "",
          "type": "bool"
        }
      ],
      "payable": false,
      "stateMutability": "nonpayable",
      "type": "function"
    },
    {
      "constant": false,
      "inputs": [
        {
          "name": "_tokenID",
          "type": "uint256"
        },
        {
          "name": "_childContract",
          "type": "address"
        },
        {
          "name": "_index",
          "type": "uint256"
        }
      ],
      "name": "addNonFungibleChild",
      "outputs": [
        {
          "name": "",
          "type": "bool"
        }
      ],
      "payable": false,
      "stateMutability": "nonpayable",
      "type": "function"
    },
    {
      "constant": false,
      "inputs": [
        {
          "name": "_to",
          "type": "address"
        },
        {
          "name": "_tokenID",
          "type": "uint256"
        },
        {
          "name": "_childContract",
          "type": "address"
        },
        {
          "name": "_childTokenID",
          "type": "uint256"
        }
      ],
      "name": "transferNonFungibleChild",
      "outputs": [
        {
          "name": "",
          "type": "bool"
        }
      ],
      "payable": false,
      "stateMutability": "nonpayable",
      "type": "function"
    },
    {
      "constant": false,
      "inputs": [
        {
          "name": "_to",
          "type": "address"
        },
        {
          "name": "_tokenID",
          "type": "uint256"
        },
        {
          "name": "_childContract",
          "type": "address"
        },
        {
          "name": "_amount",
          "type": "uint256"
        }
      ],
      "name": "transferFungibleChild",
      "outputs": [
        {
          "name": "",
          "type": "bool"
        }
      ],
      "payable": false,
      "stateMutability": "nonpayable",
      "type": "function"
    },
    {
      "constant": false,
      "inputs": [],
      "name": "kill",
      "outputs": [],
      "payable": false,
      "stateMutability": "nonpayable",
      "type": "function"
    }
  ],
  "bytecode": "0x6080604052336000806101000a81548173ffffffffffffffffffffffffffffffffffffffff021916908373ffffffffffffffffffffffffffffffffffffffff1602179055506113a1806100536000396000f30060806040526004361061008e576000357c0100000000000000000000000000000000000000000000000000000000900463ffffffff168063132b27911461009357806341c0e1b5146101225780634340267814610139578063715018a6146101a857806371e5dec2146101bf5780638da5cb5b1461022e578063ba50478f14610285578063f2fde38b14610314575b600080fd5b34801561009f57600080fd5b50610108600480360381019080803573ffffffffffffffffffffffffffffffffffffffff16906020019092919080359060200190929190803573ffffffffffffffffffffffffffffffffffffffff16906020019092919080359060200190929190505050610357565b604051808215151515815260200191505060405180910390f35b34801561012e57600080fd5b506101376105e0565b005b34801561014557600080fd5b5061018e60048036038101908080359060200190929190803573ffffffffffffffffffffffffffffffffffffffff16906020019092919080359060200190929190505050610675565b604051808215151515815260200191505060405180910390f35b3480156101b457600080fd5b506101bd6109c8565b005b3480156101cb57600080fd5b5061021460048036038101908080359060200190929190803573ffffffffffffffffffffffffffffffffffffffff16906020019092919080359060200190929190505050610aca565b604051808215151515815260200191505060405180910390f35b34801561023a57600080fd5b50610243610d59565b604051808273ffffffffffffffffffffffffffffffffffffffff1673ffffffffffffffffffffffffffffffffffffffff16815260200191505060405180910390f35b34801561029157600080fd5b506102fa600480360381019080803573ffffffffffffffffffffffffffffffffffffffff16906020019092919080359060200190929190803573ffffffffffffffffffffffffffffffffffffffff16906020019092919080359060200190929190505050610d7e565b604051808215151515815260200191505060405180910390f35b34801561032057600080fd5b50610355600480360381019080803573ffffffffffffffffffffffffffffffffffffffff1690602001909291905050506110cb565b005b60008060009054906101000a900473ffffffffffffffffffffffffffffffffffffffff1673ffffffffffffffffffffffffffffffffffffffff163373ffffffffffffffffffffffffffffffffffffffff161415156103b457600080fd5b816001600086815260200190815260200160002060008573ffffffffffffffffffffffffffffffffffffffff1673ffffffffffffffffffffffffffffffffffffffff168152602001908152602001600020541015151561041357600080fd5b8273ffffffffffffffffffffffffffffffffffffffff1660405160200180807f7472616e7366657228616464726573732c75696e74323536290000000000000081525060190190506040516020818303038152906040526040518082805190602001908083835b60208310151561049f578051825260208201915060208101905060208303925061047a565b6001836020036101000a03801982511681845116808217855250505050505090500191505060405180910390207c0100000000000000000000000000000000000000000000000000000000900486846040518363ffffffff167c0100000000000000000000000000000000000000000000000000000000028152600401808373ffffffffffffffffffffffffffffffffffffffff1673ffffffffffffffffffffffffffffffffffffffff168152602001828152602001925050506000604051808303816000875af192505050151561057657600080fd5b816001600086815260200190815260200160002060008573ffffffffffffffffffffffffffffffffffffffff1673ffffffffffffffffffffffffffffffffffffffff1681526020019081526020016000206000828254039250508190555060019050949350505050565b6000809054906101000a900473ffffffffffffffffffffffffffffffffffffffff1673ffffffffffffffffffffffffffffffffffffffff163373ffffffffffffffffffffffffffffffffffffffff1614151561063b57600080fd5b6000809054906101000a900473ffffffffffffffffffffffffffffffffffffffff1673ffffffffffffffffffffffffffffffffffffffff16ff5b6000806000809054906101000a900473ffffffffffffffffffffffffffffffffffffffff1673ffffffffffffffffffffffffffffffffffffffff163373ffffffffffffffffffffffffffffffffffffffff161415156106d357600080fd5b8373ffffffffffffffffffffffffffffffffffffffff1660405160200180807f7472616e7366657246726f6d28616464726573732c616464726573732c75696e81526020017f743235360000000000000000000000000000000000000000000000000000000081525060240190506040516020818303038152906040526040518082805190602001908083835b6020831015156107855780518252602082019150602081019050602083039250610760565b6001836020036101000a03801982511681845116808217855250505050505090500191505060405180910390207c010000000000000000000000000000000000000000000000000000000090043330866040518463ffffffff167c0100000000000000000000000000000000000000000000000000000000028152600401808473ffffffffffffffffffffffffffffffffffffffff1673ffffffffffffffffffffffffffffffffffffffff1681526020018373ffffffffffffffffffffffffffffffffffffffff1673ffffffffffffffffffffffffffffffffffffffff16815260200182815260200193505050506000604051808303816000875af192505050151561089057600080fd5b8383604051602001808373ffffffffffffffffffffffffffffffffffffffff1673ffffffffffffffffffffffffffffffffffffffff166c01000000000000000000000000028152601401828152602001925050506040516020818303038152906040526040518082805190602001908083835b6020831015156109285780518252602082019150602081019050602083039250610903565b6001836020036101000a0380198251168184511680821785525050505050509050019150506040518091039020600190049050600180600087815260200190815260200160002060008373ffffffffffffffffffffffffffffffffffffffff1673ffffffffffffffffffffffffffffffffffffffff168152602001908152602001600020819055506109bc85856000611132565b60019150509392505050565b6000809054906101000a900473ffffffffffffffffffffffffffffffffffffffff1673ffffffffffffffffffffffffffffffffffffffff163373ffffffffffffffffffffffffffffffffffffffff16141515610a2357600080fd5b6000809054906101000a900473ffffffffffffffffffffffffffffffffffffffff1673ffffffffffffffffffffffffffffffffffffffff167ff8df31144d9c2f0f6b59d69b8b98abd5459d07f2742c4df920b25aae33c6482060405160405180910390a260008060006101000a81548173ffffffffffffffffffffffffffffffffffffffff021916908373ffffffffffffffffffffffffffffffffffffffff160217905550565b60008060009054906101000a900473ffffffffffffffffffffffffffffffffffffffff1673ffffffffffffffffffffffffffffffffffffffff163373ffffffffffffffffffffffffffffffffffffffff16141515610b2757600080fd5b8273ffffffffffffffffffffffffffffffffffffffff1660405160200180807f7472616e7366657246726f6d28616464726573732c616464726573732c75696e81526020017f743235360000000000000000000000000000000000000000000000000000000081525060240190506040516020818303038152906040526040518082805190602001908083835b602083101515610bd95780518252602082019150602081019050602083039250610bb4565b6001836020036101000a03801982511681845116808217855250505050505090500191505060405180910390207c010000000000000000000000000000000000000000000000000000000090043330856040518463ffffffff167c0100000000000000000000000000000000000000000000000000000000028152600401808473ffffffffffffffffffffffffffffffffffffffff1673ffffffffffffffffffffffffffffffffffffffff1681526020018373ffffffffffffffffffffffffffffffffffffffff1673ffffffffffffffffffffffffffffffffffffffff16815260200182815260200193505050506000604051808303816000875af1925050501515610ce457600080fd5b816001600086815260200190815260200160002060008573ffffffffffffffffffffffffffffffffffffffff1673ffffffffffffffffffffffffffffffffffffffff16815260200190815260200160002060008282540192505081905550610d4e84846001611132565b600190509392505050565b6000809054906101000a900473ffffffffffffffffffffffffffffffffffffffff1681565b6000806000809054906101000a900473ffffffffffffffffffffffffffffffffffffffff1673ffffffffffffffffffffffffffffffffffffffff163373ffffffffffffffffffffffffffffffffffffffff16141515610ddc57600080fd5b8383604051602001808373ffffffffffffffffffffffffffffffffffffffff1673ffffffffffffffffffffffffffffffffffffffff166c01000000000000000000000000028152601401828152602001925050506040516020818303038152906040526040518082805190602001908083835b602083101515610e745780518252602082019150602081019050602083039250610e4f565b6001836020036101000a0380198251168184511680821785525050505050509050019150506040518091039020600190049050600180600087815260200190815260200160002060008373ffffffffffffffffffffffffffffffffffffffff1673ffffffffffffffffffffffffffffffffffffffff16815260200190815260200160002054141515610f0557600080fd5b8373ffffffffffffffffffffffffffffffffffffffff1660405160200180807f7472616e7366657228616464726573732c75696e74323536290000000000000081525060190190506040516020818303038152906040526040518082805190602001908083835b602083101515610f915780518252602082019150602081019050602083039250610f6c565b6001836020036101000a03801982511681845116808217855250505050505090500191505060405180910390207c0100000000000000000000000000000000000000000000000000000000900487856040518363ffffffff167c0100000000000000000000000000000000000000000000000000000000028152600401808373ffffffffffffffffffffffffffffffffffffffff1673ffffffffffffffffffffffffffffffffffffffff168152602001828152602001925050506000604051808303816000875af192505050151561106857600080fd5b60006001600087815260200190815260200160002060008373ffffffffffffffffffffffffffffffffffffffff1673ffffffffffffffffffffffffffffffffffffffff168152602001908152602001600020819055506001915050949350505050565b6000809054906101000a900473ffffffffffffffffffffffffffffffffffffffff1673ffffffffffffffffffffffffffffffffffffffff163373ffffffffffffffffffffffffffffffffffffffff1614151561112657600080fd5b61112f8161127b565b50565b600080600090505b600280549050811015611185578460028281548110151561115757fe5b90600052602060002090600202016000015414156111785760019150611185565b808060010191505061113a565b8115156112745760026060604051908101604052808781526020018673ffffffffffffffffffffffffffffffffffffffff1681526020018560038111156111c857fe5b815250908060018154018082558091505090600182039060005260206000209060020201600090919290919091506000820151816000015560208201518160010160006101000a81548173ffffffffffffffffffffffffffffffffffffffff021916908373ffffffffffffffffffffffffffffffffffffffff16021790555060408201518160010160146101000a81548160ff0219169083600381111561126b57fe5b02179055505050505b5050505050565b600073ffffffffffffffffffffffffffffffffffffffff168173ffffffffffffffffffffffffffffffffffffffff16141515156112b757600080fd5b8073ffffffffffffffffffffffffffffffffffffffff166000809054906101000a900473ffffffffffffffffffffffffffffffffffffffff1673ffffffffffffffffffffffffffffffffffffffff167f8be0079c531659141344cd1fd0a4f28419497f9722a3daafe3b4186f6b6457e060405160405180910390a3806000806101000a81548173ffffffffffffffffffffffffffffffffffffffff021916908373ffffffffffffffffffffffffffffffffffffffff160217905550505600a165627a7a723058200703288dac05592ecd0b47660890f45cc2b79c764c0b2b2a422a04e7a75f6b440029",
  "source": "pragma solidity ^0.4.24;\n\n// based on https://medium.com/coinmonks/introducing-crypto-composables-ee5701fde217\n\nimport 'openzeppelin-solidity/contracts/ownership/Ownable.sol';\nimport './TwoKeyTypes.sol';\n\ncontract ComposableAssetFactory is Ownable, TwoKeyTypes {  \n\n  /*\n  \n    The contract acts as a store. The children data structure is the catalogue of the store.\n    \n    Each asset is identified by a uint256 tokenID that acts as a SKU (shop keeping unit)\n\n    This SKU is set by the owner and is unique only with this particular contract\n    \n      mapping(uint256 => ...)\n\n    maps a tokenID to the asset\n    Such a tokenID identifies one of:\n\n    1. ERC20 : which is represented by an entry mapping(address => uint256)\n    which maps the ERC20 contract to the amount tokens we have\n    2. ERC721: which is represented by an entry mapping(address => uint256)\n    where the address is a hash of the concatenation of the ERC721 contract address and the unique token within that contract, and \n    the uint256 value is 1 or 0\n\n  */\n\n\n  // TODO (udi) I think it she mapping(uint256 => address) and not mapping(uint256 => mapping(address => uint256))\n  // the uint256 is SKU and the address is of ERC20 or ERC721 there is just one address per SKU so we dont need more than one.\n  //    You can the balanceOf method (both in ERC20 and ERC721) instead of using the last uint256 or counting how many entries you have\n  //    in mapping(address => uint256). From reading the interface of ERC721 it looks like it is not very important to\n  //    remeber which NFT you used. If you really want you can do a mapping from SKU to a struct. the first item in the\n  //    struct is the address and the second item is a map of all the NFT the campaign owns mapping(uint256 => bool)\n  //    but this is not elegant because this mapping is only needed for ERC721 and not for ERC20 so you should really put\n  //    it in a subclass. Anyway I dont think we need ETC721 and even if we support ERC721 we dont need to keep track of which tokenID (NFT)\n  //    is used.\n  //\n  mapping(uint256 => mapping(address => uint256)) children;\n\n  \n  // for each asset in store, we hold its capaign type\n  struct Item {\n    uint256 tokenID;\n    address childContractID;\n    CampaignType campaignType;\n  }\n\n  // list of items in store\n  Item[] inventory;\n\n  // add asset to inventory list\n  function addToInventory(uint256 _tokenID, address _childContract, CampaignType _type) internal {\n  // _tokenID: shop keeping unit,  \n    bool found; \n    for(uint256 i = 0; i < inventory.length; i++) { \n      if (inventory[i].tokenID == _tokenID) {\n        found = true;\n        break;\n      }\n    }\n    if (!found) {\n      inventory.push(Item(_tokenID, _childContract, _type));      \n    }\n  }\n\n  // remove asset from inventory list\n  function removeFromInventory(uint256 _tokenID) internal {\n    for(uint256 i = 0; i < inventory.length; i++) { \n      if (inventory[i].tokenID == _tokenID) {\n        uint256 currentLength = inventory.length;\n        inventory[i] = inventory[currentLength - 1];\n        delete inventory[currentLength - 1];\n        inventory.length--;\n        break;\n      }\n    }\n  }\n\n  // get type of item in inventory\n  function getType(uint256 _tokenID) internal view returns (CampaignType)  {\n    for(uint256 i = 0; i < inventory.length; i++) { \n      if (inventory[i].tokenID == _tokenID) {\n        return inventory[i].campaignType;\n      }\n    }\n    return CampaignType.None;\n  }\n\n\n  \n  // add erc20 asset amount to the store, which adds an amount of that erc20 to our catalogue\n  function addFungibleChild(uint256 _tokenID, address _childContract, uint256 _amount) onlyOwner public returns (bool) {\n    require(\n      _childContract.call(\n        bytes4(keccak256(abi.encodePacked(\"transferFrom(address,address,uint256\"))),\n        msg.sender,\n        this,\n        _amount\n      )\n    );\n\n    // set as child\n    children[_tokenID][_childContract] += _amount;\n    addToInventory(_tokenID, _childContract, CampaignType.Fungible);\n    return true;\n  }\n\n  // add erc721 asset to the store, which adds a particular unique item from that erc721 to our catalogue\n  function addNonFungibleChild(uint256 _tokenID, address _childContract, uint256 _index) onlyOwner public returns (bool) {\n    require(\n      _childContract.call(\n        bytes4(keccak256(abi.encodePacked(\"transferFrom(address,address,uint256\"))),\n        msg.sender,\n        this,\n        _index\n      )\n    );\n    address childToken = address(\n      keccak256(abi.encodePacked(_childContract, _index))\n    );\n    // set as child\n    children[_tokenID][childToken] = 1;\n    addToInventory(_tokenID, _childContract, CampaignType.NonFungible);\n    return true;\n  }\n\n  // transfer a unique item from a erc721 in our catalogue to someone\n  function transferNonFungibleChild(\n    address _to,\n    uint256 _tokenID,\n    address _childContract,\n    uint256 _childTokenID) public onlyOwner returns (bool) {\n    address childToken = address(\n      keccak256(abi.encodePacked(_childContract, _childTokenID))\n    );\n    require(children[_tokenID][childToken] == 1);\n    require(\n      _childContract.call(\n        bytes4(keccak256(abi.encodePacked(\"transfer(address,uint256)\"))),\n        _to, _childTokenID\n      )\n    );\n\n    children[_tokenID][childToken] = 0;\n\n    return true;\n  }\n\n  // transfer an amount of erc20 from our catalogue to someone\n  function transferFungibleChild(\n    address _to,\n    uint256 _tokenID,\n    address _childContract,\n    uint256 _amount) onlyOwner public returns (bool) {\n    require(children[_tokenID][_childContract] >= _amount);\n    require(\n      _childContract.call(\n        bytes4(keccak256(abi.encodePacked(\"transfer(address,uint256)\"))),\n        _to, _amount\n      )\n    );\n\n    children[_tokenID][_childContract] -= _amount;\n\n    return true;\n  }\n\n\n  // kill the contract, transfering everyting to the owner\n  // Since the ERC721 and ERC20 store ownership by owner of this contract\n  // that ownership need not be transferred\n  function kill() public onlyOwner {        \n      selfdestruct(owner);\n  }\n\n}\n",
  "sourcePath": "/Users/udi/2key/contracts/contracts/ComposableAssetFactory.sol",
  "compiler": {
    "name": "solc",
    "version": "0.4.24+commit.e67f0147.Emscripten.clang"
  },
  "schemaVersion": "2.0.1",
  "updatedAt": "2018-08-22T09:10:00.208Z"
}