{
  "contractName": "RBAC",
  "abi": [
    {
      "anonymous": false,
      "inputs": [
        {
          "indexed": true,
          "name": "operator",
          "type": "address"
        },
        {
          "indexed": false,
          "name": "role",
          "type": "string"
        }
      ],
      "name": "RoleAdded",
      "type": "event"
    },
    {
      "anonymous": false,
      "inputs": [
        {
          "indexed": true,
          "name": "operator",
          "type": "address"
        },
        {
          "indexed": false,
          "name": "role",
          "type": "string"
        }
      ],
      "name": "RoleRemoved",
      "type": "event"
    },
    {
      "constant": true,
      "inputs": [
        {
          "name": "_operator",
          "type": "address"
        },
        {
          "name": "_role",
          "type": "string"
        }
      ],
      "name": "checkRole",
      "outputs": [],
      "payable": false,
      "stateMutability": "view",
      "type": "function"
    },
    {
      "constant": true,
      "inputs": [
        {
          "name": "_operator",
          "type": "address"
        },
        {
          "name": "_role",
          "type": "string"
        }
      ],
      "name": "hasRole",
      "outputs": [
        {
          "name": "",
          "type": "bool"
        }
      ],
      "payable": false,
      "stateMutability": "view",
      "type": "function"
    }
  ],
  "bytecode": "0x608060405234801561001057600080fd5b50610321806100206000396000f30060806040526004361061004c576000357c0100000000000000000000000000000000000000000000000000000000900463ffffffff1680630988ca8c14610051578063217fe6c6146100da575b600080fd5b34801561005d57600080fd5b506100d8600480360381019080803573ffffffffffffffffffffffffffffffffffffffff169060200190929190803590602001908201803590602001908080601f016020809104026020016040519081016040528093929190818152602001838380828437820191505050505050919291929050505061017b565b005b3480156100e657600080fd5b50610161600480360381019080803573ffffffffffffffffffffffffffffffffffffffff169060200190929190803590602001908201803590602001908080601f01602080910402602001604051908101604052809392919081815260200183838082843782019150505050505091929192905050506101fc565b604051808215151515815260200191505060405180910390f35b6101f8826000836040518082805190602001908083835b6020831015156101b75780518252602082019150602081019050602083039250610192565b6001836020036101000a038019825116818451168082178552505050505050905001915050908152602001604051809103902061028390919063ffffffff16565b5050565b600061027b836000846040518082805190602001908083835b60208310151561023a5780518252602082019150602081019050602083039250610215565b6001836020036101000a038019825116818451168082178552505050505050905001915050908152602001604051809103902061029c90919063ffffffff16565b905092915050565b61028d828261029c565b151561029857600080fd5b5050565b60008260000160008373ffffffffffffffffffffffffffffffffffffffff1673ffffffffffffffffffffffffffffffffffffffff16815260200190815260200160002060009054906101000a900460ff169050929150505600a165627a7a72305820f04daf112f8fe0071690b79f58cd0c801c1d957f588c48bee19319ba426f8eff0029",
  "source": "pragma solidity ^0.4.24;\n\nimport \"./Roles.sol\";\n\n\n/**\n * @title RBAC (Role-Based Access Control)\n * @author Matt Condon (@Shrugs)\n * @dev Stores and provides setters and getters for roles and addresses.\n * Supports unlimited numbers of roles and addresses.\n * See //contracts/mocks/RBACMock.sol for an example of usage.\n * This RBAC method uses strings to key roles. It may be beneficial\n * for you to write your own implementation of this interface using Enums or similar.\n */\ncontract RBAC {\n  using Roles for Roles.Role;\n\n  mapping (string => Roles.Role) private roles;\n\n  event RoleAdded(address indexed operator, string role);\n  event RoleRemoved(address indexed operator, string role);\n\n  /**\n   * @dev reverts if addr does not have role\n   * @param _operator address\n   * @param _role the name of the role\n   * // reverts\n   */\n  function checkRole(address _operator, string _role)\n    public\n    view\n  {\n    roles[_role].check(_operator);\n  }\n\n  /**\n   * @dev determine if addr has role\n   * @param _operator address\n   * @param _role the name of the role\n   * @return bool\n   */\n  function hasRole(address _operator, string _role)\n    public\n    view\n    returns (bool)\n  {\n    return roles[_role].has(_operator);\n  }\n\n  /**\n   * @dev add a role to an address\n   * @param _operator address\n   * @param _role the name of the role\n   */\n  function addRole(address _operator, string _role)\n    internal\n  {\n    roles[_role].add(_operator);\n    emit RoleAdded(_operator, _role);\n  }\n\n  /**\n   * @dev remove a role from an address\n   * @param _operator address\n   * @param _role the name of the role\n   */\n  function removeRole(address _operator, string _role)\n    internal\n  {\n    roles[_role].remove(_operator);\n    emit RoleRemoved(_operator, _role);\n  }\n\n  /**\n   * @dev modifier to scope access to a single role (uses msg.sender as addr)\n   * @param _role the name of the role\n   * // reverts\n   */\n  modifier onlyRole(string _role)\n  {\n    checkRole(msg.sender, _role);\n    _;\n  }\n\n  /**\n   * @dev modifier to scope access to a set of roles (uses msg.sender as addr)\n   * @param _roles the names of the roles to scope access to\n   * // reverts\n   *\n   * @TODO - when solidity supports dynamic arrays as arguments to modifiers, provide this\n   *  see: https://github.com/ethereum/solidity/issues/2467\n   */\n  // modifier onlyRoles(string[] _roles) {\n  //     bool hasAnyRole = false;\n  //     for (uint8 i = 0; i < _roles.length; i++) {\n  //         if (hasRole(msg.sender, _roles[i])) {\n  //             hasAnyRole = true;\n  //             break;\n  //         }\n  //     }\n\n  //     require(hasAnyRole);\n\n  //     _;\n  // }\n}\n",
  "sourcePath": "/Users/aydnep/2key/contracts/contracts/openzeppelin-solidity/contracts/access/rbac/RBAC.sol",
  "compiler": {
    "name": "solc",
    "version": "0.4.24+commit.e67f0147.Emscripten.clang"
  },
  "schemaVersion": "2.0.1",
  "updatedAt": "2018-08-21T14:33:39.103Z"
}