{
  "contractName": "SignatureBouncer",
  "abi": [
    {
      "constant": true,
      "inputs": [
        {
          "name": "_operator",
          "type": "address"
        },
        {
          "name": "_role",
          "type": "string"
        }
      ],
      "name": "checkRole",
      "outputs": [],
      "payable": false,
      "stateMutability": "view",
      "type": "function"
    },
    {
      "constant": true,
      "inputs": [
        {
          "name": "_operator",
          "type": "address"
        },
        {
          "name": "_role",
          "type": "string"
        }
      ],
      "name": "hasRole",
      "outputs": [
        {
          "name": "",
          "type": "bool"
        }
      ],
      "payable": false,
      "stateMutability": "view",
      "type": "function"
    },
    {
      "constant": false,
      "inputs": [],
      "name": "renounceOwnership",
      "outputs": [],
      "payable": false,
      "stateMutability": "nonpayable",
      "type": "function"
    },
    {
      "constant": true,
      "inputs": [],
      "name": "owner",
      "outputs": [
        {
          "name": "",
          "type": "address"
        }
      ],
      "payable": false,
      "stateMutability": "view",
      "type": "function"
    },
    {
      "constant": true,
      "inputs": [],
      "name": "ROLE_BOUNCER",
      "outputs": [
        {
          "name": "",
          "type": "string"
        }
      ],
      "payable": false,
      "stateMutability": "view",
      "type": "function"
    },
    {
      "constant": false,
      "inputs": [
        {
          "name": "_newOwner",
          "type": "address"
        }
      ],
      "name": "transferOwnership",
      "outputs": [],
      "payable": false,
      "stateMutability": "nonpayable",
      "type": "function"
    },
    {
      "anonymous": false,
      "inputs": [
        {
          "indexed": true,
          "name": "operator",
          "type": "address"
        },
        {
          "indexed": false,
          "name": "role",
          "type": "string"
        }
      ],
      "name": "RoleAdded",
      "type": "event"
    },
    {
      "anonymous": false,
      "inputs": [
        {
          "indexed": true,
          "name": "operator",
          "type": "address"
        },
        {
          "indexed": false,
          "name": "role",
          "type": "string"
        }
      ],
      "name": "RoleRemoved",
      "type": "event"
    },
    {
      "anonymous": false,
      "inputs": [
        {
          "indexed": true,
          "name": "previousOwner",
          "type": "address"
        }
      ],
      "name": "OwnershipRenounced",
      "type": "event"
    },
    {
      "anonymous": false,
      "inputs": [
        {
          "indexed": true,
          "name": "previousOwner",
          "type": "address"
        },
        {
          "indexed": true,
          "name": "newOwner",
          "type": "address"
        }
      ],
      "name": "OwnershipTransferred",
      "type": "event"
    },
    {
      "constant": false,
      "inputs": [
        {
          "name": "_bouncer",
          "type": "address"
        }
      ],
      "name": "addBouncer",
      "outputs": [],
      "payable": false,
      "stateMutability": "nonpayable",
      "type": "function"
    },
    {
      "constant": false,
      "inputs": [
        {
          "name": "_bouncer",
          "type": "address"
        }
      ],
      "name": "removeBouncer",
      "outputs": [],
      "payable": false,
      "stateMutability": "nonpayable",
      "type": "function"
    }
  ],
  "bytecode": "0x6080604052336000806101000a81548173ffffffffffffffffffffffffffffffffffffffff021916908373ffffffffffffffffffffffffffffffffffffffff160217905550610cc1806100536000396000f30060806040526004361061008e576000357c0100000000000000000000000000000000000000000000000000000000900463ffffffff1680630988ca8c146100935780631479290e1461011c578063217fe6c61461015f578063715018a614610200578063888764c8146102175780638da5cb5b1461025a578063d466ab6b146102b1578063f2fde38b14610341575b600080fd5b34801561009f57600080fd5b5061011a600480360381019080803573ffffffffffffffffffffffffffffffffffffffff169060200190929190803590602001908201803590602001908080601f0160208091040260200160405190810160405280939291908181526020018383808284378201915050505050509192919290505050610384565b005b34801561012857600080fd5b5061015d600480360381019080803573ffffffffffffffffffffffffffffffffffffffff169060200190929190505050610405565b005b34801561016b57600080fd5b506101e6600480360381019080803573ffffffffffffffffffffffffffffffffffffffff169060200190929190803590602001908201803590602001908080601f01602080910402602001604051908101604052809392919081815260200183838082843782019150505050505091929192905050506104de565b604051808215151515815260200191505060405180910390f35b34801561020c57600080fd5b50610215610565565b005b34801561022357600080fd5b50610258600480360381019080803573ffffffffffffffffffffffffffffffffffffffff169060200190929190505050610667565b005b34801561026657600080fd5b5061026f610740565b604051808273ffffffffffffffffffffffffffffffffffffffff1673ffffffffffffffffffffffffffffffffffffffff16815260200191505060405180910390f35b3480156102bd57600080fd5b506102c6610765565b6040518080602001828103825283818151815260200191508051906020019080838360005b838110156103065780820151818401526020810190506102eb565b50505050905090810190601f1680156103335780820380516001836020036101000a031916815260200191505b509250505060405180910390f35b34801561034d57600080fd5b50610382600480360381019080803573ffffffffffffffffffffffffffffffffffffffff16906020019092919050505061079e565b005b610401826001836040518082805190602001908083835b6020831015156103c0578051825260208201915060208101905060208303925061039b565b6001836020036101000a038019825116818451168082178552505050505050905001915050908152602001604051809103902061080590919063ffffffff16565b5050565b6000809054906101000a900473ffffffffffffffffffffffffffffffffffffffff1673ffffffffffffffffffffffffffffffffffffffff163373ffffffffffffffffffffffffffffffffffffffff1614151561046057600080fd5b600073ffffffffffffffffffffffffffffffffffffffff168173ffffffffffffffffffffffffffffffffffffffff161415151561049c57600080fd5b6104db816040805190810160405280600781526020017f626f756e6365720000000000000000000000000000000000000000000000000081525061081e565b50565b600061055d836001846040518082805190602001908083835b60208310151561051c57805182526020820191506020810190506020830392506104f7565b6001836020036101000a038019825116818451168082178552505050505050905001915050908152602001604051809103902061095290919063ffffffff16565b905092915050565b6000809054906101000a900473ffffffffffffffffffffffffffffffffffffffff1673ffffffffffffffffffffffffffffffffffffffff163373ffffffffffffffffffffffffffffffffffffffff161415156105c057600080fd5b6000809054906101000a900473ffffffffffffffffffffffffffffffffffffffff1673ffffffffffffffffffffffffffffffffffffffff167ff8df31144d9c2f0f6b59d69b8b98abd5459d07f2742c4df920b25aae33c6482060405160405180910390a260008060006101000a81548173ffffffffffffffffffffffffffffffffffffffff021916908373ffffffffffffffffffffffffffffffffffffffff160217905550565b6000809054906101000a900473ffffffffffffffffffffffffffffffffffffffff1673ffffffffffffffffffffffffffffffffffffffff163373ffffffffffffffffffffffffffffffffffffffff161415156106c257600080fd5b600073ffffffffffffffffffffffffffffffffffffffff168173ffffffffffffffffffffffffffffffffffffffff16141515156106fe57600080fd5b61073d816040805190810160405280600781526020017f626f756e636572000000000000000000000000000000000000000000000000008152506109ab565b50565b6000809054906101000a900473ffffffffffffffffffffffffffffffffffffffff1681565b6040805190810160405280600781526020017f626f756e6365720000000000000000000000000000000000000000000000000081525081565b6000809054906101000a900473ffffffffffffffffffffffffffffffffffffffff1673ffffffffffffffffffffffffffffffffffffffff163373ffffffffffffffffffffffffffffffffffffffff161415156107f957600080fd5b61080281610adf565b50565b61080f8282610952565b151561081a57600080fd5b5050565b61089b826001836040518082805190602001908083835b60208310151561085a5780518252602082019150602081019050602083039250610835565b6001836020036101000a0380198251168184511680821785525050505050509050019150509081526020016040518091039020610bd990919063ffffffff16565b8173ffffffffffffffffffffffffffffffffffffffff167fd211483f91fc6eff862467f8de606587a30c8fc9981056f051b897a418df803a826040518080602001828103825283818151815260200191508051906020019080838360005b838110156109145780820151818401526020810190506108f9565b50505050905090810190601f1680156109415780820380516001836020036101000a031916815260200191505b509250505060405180910390a25050565b60008260000160008373ffffffffffffffffffffffffffffffffffffffff1673ffffffffffffffffffffffffffffffffffffffff16815260200190815260200160002060009054906101000a900460ff16905092915050565b610a28826001836040518082805190602001908083835b6020831015156109e757805182526020820191506020810190506020830392506109c2565b6001836020036101000a0380198251168184511680821785525050505050509050019150509081526020016040518091039020610c3790919063ffffffff16565b8173ffffffffffffffffffffffffffffffffffffffff167fbfec83d64eaa953f2708271a023ab9ee82057f8f3578d548c1a4ba0b5b700489826040518080602001828103825283818151815260200191508051906020019080838360005b83811015610aa1578082015181840152602081019050610a86565b50505050905090810190601f168015610ace5780820380516001836020036101000a031916815260200191505b509250505060405180910390a25050565b600073ffffffffffffffffffffffffffffffffffffffff168173ffffffffffffffffffffffffffffffffffffffff1614151515610b1b57600080fd5b8073ffffffffffffffffffffffffffffffffffffffff166000809054906101000a900473ffffffffffffffffffffffffffffffffffffffff1673ffffffffffffffffffffffffffffffffffffffff167f8be0079c531659141344cd1fd0a4f28419497f9722a3daafe3b4186f6b6457e060405160405180910390a3806000806101000a81548173ffffffffffffffffffffffffffffffffffffffff021916908373ffffffffffffffffffffffffffffffffffffffff16021790555050565b60008260000160008373ffffffffffffffffffffffffffffffffffffffff1673ffffffffffffffffffffffffffffffffffffffff16815260200190815260200160002060006101000a81548160ff0219169083151502179055505050565b60018260000160008373ffffffffffffffffffffffffffffffffffffffff1673ffffffffffffffffffffffffffffffffffffffff16815260200190815260200160002060006101000a81548160ff02191690831515021790555050505600a165627a7a72305820f80d6241c9d81a02927657e2e9c27b13fcffd90b0f8cdb01ec9c051aa5544b2d0029",
  "source": "pragma solidity ^0.4.24;\n\nimport \"../ownership/Ownable.sol\";\nimport \"../access/rbac/RBAC.sol\";\nimport \"../ECRecovery.sol\";\n\n\n/**\n * @title SignatureBouncer\n * @author PhABC, Shrugs and aflesher\n * @dev Bouncer allows users to submit a signature as a permission to do an action.\n * If the signature is from one of the authorized bouncer addresses, the signature\n * is valid. The owner of the contract adds/removes bouncers.\n * Bouncer addresses can be individual servers signing grants or different\n * users within a decentralized club that have permission to invite other members.\n * This technique is useful for whitelists and airdrops; instead of putting all\n * valid addresses on-chain, simply sign a grant of the form\n * keccak256(abi.encodePacked(`:contractAddress` + `:granteeAddress`)) using a valid bouncer address.\n * Then restrict access to your crowdsale/whitelist/airdrop using the\n * `onlyValidSignature` modifier (or implement your own using isValidSignature).\n * In addition to `onlyValidSignature`, `onlyValidSignatureAndMethod` and\n * `onlyValidSignatureAndData` can be used to restrict access to only a given method\n * or a given method with given parameters respectively.\n * See the tests Bouncer.test.js for specific usage examples.\n * @notice A method that uses the `onlyValidSignatureAndData` modifier must make the _sig\n * parameter the \"last\" parameter. You cannot sign a message that has its own\n * signature in it so the last 128 bytes of msg.data (which represents the\n * length of the _sig data and the _sig data itself) is ignored when validating.\n * Also non fixed sized parameters make constructing the data in the signature\n * much more complex. See https://ethereum.stackexchange.com/a/50616 for more details.\n */\ncontract SignatureBouncer is Ownable, RBAC {\n  using ECRecovery for bytes32;\n\n  string public constant ROLE_BOUNCER = \"bouncer\";\n  uint constant METHOD_ID_SIZE = 4;\n  // signature size is 65 bytes (tightly packed v + r + s), but gets padded to 96 bytes\n  uint constant SIGNATURE_SIZE = 96;\n\n  /**\n   * @dev requires that a valid signature of a bouncer was provided\n   */\n  modifier onlyValidSignature(bytes _sig)\n  {\n    require(isValidSignature(msg.sender, _sig));\n    _;\n  }\n\n  /**\n   * @dev requires that a valid signature with a specifed method of a bouncer was provided\n   */\n  modifier onlyValidSignatureAndMethod(bytes _sig)\n  {\n    require(isValidSignatureAndMethod(msg.sender, _sig));\n    _;\n  }\n\n  /**\n   * @dev requires that a valid signature with a specifed method and params of a bouncer was provided\n   */\n  modifier onlyValidSignatureAndData(bytes _sig)\n  {\n    require(isValidSignatureAndData(msg.sender, _sig));\n    _;\n  }\n\n  /**\n   * @dev allows the owner to add additional bouncer addresses\n   */\n  function addBouncer(address _bouncer)\n    public\n    onlyOwner\n  {\n    require(_bouncer != address(0));\n    addRole(_bouncer, ROLE_BOUNCER);\n  }\n\n  /**\n   * @dev allows the owner to remove bouncer addresses\n   */\n  function removeBouncer(address _bouncer)\n    public\n    onlyOwner\n  {\n    require(_bouncer != address(0));\n    removeRole(_bouncer, ROLE_BOUNCER);\n  }\n\n  /**\n   * @dev is the signature of `this + sender` from a bouncer?\n   * @return bool\n   */\n  function isValidSignature(address _address, bytes _sig)\n    internal\n    view\n    returns (bool)\n  {\n    return isValidDataHash(\n      keccak256(abi.encodePacked(address(this), _address)),\n      _sig\n    );\n  }\n\n  /**\n   * @dev is the signature of `this + sender + methodId` from a bouncer?\n   * @return bool\n   */\n  function isValidSignatureAndMethod(address _address, bytes _sig)\n    internal\n    view\n    returns (bool)\n  {\n    bytes memory data = new bytes(METHOD_ID_SIZE);\n    for (uint i = 0; i < data.length; i++) {\n      data[i] = msg.data[i];\n    }\n    return isValidDataHash(\n      keccak256(abi.encodePacked(address(this), _address, data)),\n      _sig\n    );\n  }\n\n  /**\n    * @dev is the signature of `this + sender + methodId + params(s)` from a bouncer?\n    * @notice the _sig parameter of the method being validated must be the \"last\" parameter\n    * @return bool\n    */\n  function isValidSignatureAndData(address _address, bytes _sig)\n    internal\n    view\n    returns (bool)\n  {\n    require(msg.data.length > SIGNATURE_SIZE);\n    bytes memory data = new bytes(msg.data.length - SIGNATURE_SIZE);\n    for (uint i = 0; i < data.length; i++) {\n      data[i] = msg.data[i];\n    }\n    return isValidDataHash(\n      keccak256(abi.encodePacked(address(this), _address, data)),\n      _sig\n    );\n  }\n\n  /**\n   * @dev internal function to convert a hash to an eth signed message\n   * and then recover the signature and check it against the bouncer role\n   * @return bool\n   */\n  function isValidDataHash(bytes32 _hash, bytes _sig)\n    internal\n    view\n    returns (bool)\n  {\n    address signer = _hash\n      .toEthSignedMessageHash()\n      .recover(_sig);\n    return hasRole(signer, ROLE_BOUNCER);\n  }\n}\n",
  "sourcePath": "/Users/nikolamadjarevic/Desktop/2key/contracts/contracts/openzeppelin-solidity/contracts/access/SignatureBouncer.sol",
  "compiler": {
    "name": "solc",
    "version": "0.4.24+commit.e67f0147.Emscripten.clang"
  },
  "schemaVersion": "2.0.1",
  "updatedAt": "2018-09-04T14:11:52.350Z"
}