{
  "contractName": "SplitPayment",
  "abi": [
    {
      "constant": true,
      "inputs": [],
      "name": "totalShares",
      "outputs": [
        {
          "name": "",
          "type": "uint256"
        }
      ],
      "payable": false,
      "stateMutability": "view",
      "type": "function"
    },
    {
      "constant": true,
      "inputs": [
        {
          "name": "",
          "type": "uint256"
        }
      ],
      "name": "payees",
      "outputs": [
        {
          "name": "",
          "type": "address"
        }
      ],
      "payable": false,
      "stateMutability": "view",
      "type": "function"
    },
    {
      "constant": true,
      "inputs": [
        {
          "name": "",
          "type": "address"
        }
      ],
      "name": "released",
      "outputs": [
        {
          "name": "",
          "type": "uint256"
        }
      ],
      "payable": false,
      "stateMutability": "view",
      "type": "function"
    },
    {
      "constant": true,
      "inputs": [
        {
          "name": "",
          "type": "address"
        }
      ],
      "name": "shares",
      "outputs": [
        {
          "name": "",
          "type": "uint256"
        }
      ],
      "payable": false,
      "stateMutability": "view",
      "type": "function"
    },
    {
      "constant": true,
      "inputs": [],
      "name": "totalReleased",
      "outputs": [
        {
          "name": "",
          "type": "uint256"
        }
      ],
      "payable": false,
      "stateMutability": "view",
      "type": "function"
    },
    {
      "inputs": [
        {
          "name": "_payees",
          "type": "address[]"
        },
        {
          "name": "_shares",
          "type": "uint256[]"
        }
      ],
      "payable": true,
      "stateMutability": "payable",
      "type": "constructor"
    },
    {
      "payable": true,
      "stateMutability": "payable",
      "type": "fallback"
    },
    {
      "constant": false,
      "inputs": [],
      "name": "claim",
      "outputs": [],
      "payable": false,
      "stateMutability": "nonpayable",
      "type": "function"
    }
  ],
  "bytecode": "0x60806040526000805560006001556040516107e93803806107e9833981018060405281019080805182019291906020018051820192919050505060008151835114151561004b57600080fd5b600090505b82518110156100ad576100a0838281518110151561006a57fe5b90602001906020020151838381518110151561008257fe5b906020019060200201516100b5640100000000026401000000009004565b8080600101915050610050565b505050610240565b600073ffffffffffffffffffffffffffffffffffffffff168273ffffffffffffffffffffffffffffffffffffffff16141515156100f157600080fd5b60008111151561010057600080fd5b6000600260008473ffffffffffffffffffffffffffffffffffffffff1673ffffffffffffffffffffffffffffffffffffffff1681526020019081526020016000205414151561014e57600080fd5b60048290806001815401808255809150509060018203906000526020600020016000909192909190916101000a81548173ffffffffffffffffffffffffffffffffffffffff021916908373ffffffffffffffffffffffffffffffffffffffff1602179055505080600260008473ffffffffffffffffffffffffffffffffffffffff1673ffffffffffffffffffffffffffffffffffffffff1681526020019081526020016000208190555061021a81600054610224640100000000026104eb179091906401000000009004565b6000819055505050565b6000818301905082811015151561023757fe5b80905092915050565b61059a8061024f6000396000f300608060405260043610610078576000357c0100000000000000000000000000000000000000000000000000000000900463ffffffff1680633a98ef391461007a5780634e71d92d146100a557806363037b0c146100bc5780639852595c14610129578063ce7c2ac214610180578063e33b7de3146101d7575b005b34801561008657600080fd5b5061008f610202565b6040518082815260200191505060405180910390f35b3480156100b157600080fd5b506100ba610208565b005b3480156100c857600080fd5b506100e760048036038101908080359060200190929190505050610477565b604051808273ffffffffffffffffffffffffffffffffffffffff1673ffffffffffffffffffffffffffffffffffffffff16815260200191505060405180910390f35b34801561013557600080fd5b5061016a600480360381019080803573ffffffffffffffffffffffffffffffffffffffff1690602001909291905050506104b5565b6040518082815260200191505060405180910390f35b34801561018c57600080fd5b506101c1600480360381019080803573ffffffffffffffffffffffffffffffffffffffff1690602001909291905050506104cd565b6040518082815260200191505060405180910390f35b3480156101e357600080fd5b506101ec6104e5565b6040518082815260200191505060405180910390f35b60005481565b60008060003392506000600260008573ffffffffffffffffffffffffffffffffffffffff1673ffffffffffffffffffffffffffffffffffffffff1681526020019081526020016000205411151561025e57600080fd5b61028a6001543073ffffffffffffffffffffffffffffffffffffffff16316104eb90919063ffffffff16565b9150610343600360008573ffffffffffffffffffffffffffffffffffffffff1673ffffffffffffffffffffffffffffffffffffffff16815260200190815260200160002054610335600054610327600260008973ffffffffffffffffffffffffffffffffffffffff1673ffffffffffffffffffffffffffffffffffffffff168152602001908152602001600020548761050790919063ffffffff16565b61053f90919063ffffffff16565b61055590919063ffffffff16565b90506000811415151561035557600080fd5b803073ffffffffffffffffffffffffffffffffffffffff16311015151561037b57600080fd5b6103cd81600360008673ffffffffffffffffffffffffffffffffffffffff1673ffffffffffffffffffffffffffffffffffffffff168152602001908152602001600020546104eb90919063ffffffff16565b600360008573ffffffffffffffffffffffffffffffffffffffff1673ffffffffffffffffffffffffffffffffffffffff16815260200190815260200160002081905550610425816001546104eb90919063ffffffff16565b6001819055508273ffffffffffffffffffffffffffffffffffffffff166108fc829081150290604051600060405180830381858888f19350505050158015610471573d6000803e3d6000fd5b50505050565b60048181548110151561048657fe5b906000526020600020016000915054906101000a900473ffffffffffffffffffffffffffffffffffffffff1681565b60036020528060005260406000206000915090505481565b60026020528060005260406000206000915090505481565b60015481565b600081830190508281101515156104fe57fe5b80905092915050565b60008083141561051a5760009050610539565b818302905081838281151561052b57fe5b0414151561053557fe5b8090505b92915050565b6000818381151561054c57fe5b04905092915050565b600082821115151561056357fe5b8183039050929150505600a165627a7a72305820828edbdaf3ce7db06d7f682a977197564d8b5b0c3893dcefe54eb736b35b7a4a0029",
  "source": "pragma solidity ^0.4.24;\n\nimport \"../math/SafeMath.sol\";\n\n\n/**\n * @title SplitPayment\n * @dev Base contract that supports multiple payees claiming funds sent to this contract\n * according to the proportion they own.\n */\ncontract SplitPayment {\n  using SafeMath for uint256;\n\n  uint256 public totalShares = 0;\n  uint256 public totalReleased = 0;\n\n  mapping(address => uint256) public shares;\n  mapping(address => uint256) public released;\n  address[] public payees;\n\n  /**\n   * @dev Constructor\n   */\n  constructor(address[] _payees, uint256[] _shares) public payable {\n    require(_payees.length == _shares.length);\n\n    for (uint256 i = 0; i < _payees.length; i++) {\n      addPayee(_payees[i], _shares[i]);\n    }\n  }\n\n  /**\n   * @dev payable fallback\n   */\n  function () external payable {}\n\n  /**\n   * @dev Claim your share of the balance.\n   */\n  function claim() public {\n    address payee = msg.sender;\n\n    require(shares[payee] > 0);\n\n    uint256 totalReceived = address(this).balance.add(totalReleased);\n    uint256 payment = totalReceived.mul(\n      shares[payee]).div(\n        totalShares).sub(\n          released[payee]\n    );\n\n    require(payment != 0);\n    require(address(this).balance >= payment);\n\n    released[payee] = released[payee].add(payment);\n    totalReleased = totalReleased.add(payment);\n\n    payee.transfer(payment);\n  }\n\n  /**\n   * @dev Add a new payee to the contract.\n   * @param _payee The address of the payee to add.\n   * @param _shares The number of shares owned by the payee.\n   */\n  function addPayee(address _payee, uint256 _shares) internal {\n    require(_payee != address(0));\n    require(_shares > 0);\n    require(shares[_payee] == 0);\n\n    payees.push(_payee);\n    shares[_payee] = _shares;\n    totalShares = totalShares.add(_shares);\n  }\n}\n",
  "sourcePath": "/Users/nikolamadjarevic/Desktop/2key/contracts/contracts/openzeppelin-solidity/contracts/payment/SplitPayment.sol",
  "compiler": {
    "name": "solc",
    "version": "0.4.24+commit.e67f0147.Emscripten.clang"
  },
  "schemaVersion": "2.0.1",
  "updatedAt": "2018-09-12T11:47:25.726Z"
}