{
  "contractName": "Superuser",
  "abi": [
    {
      "constant": true,
      "inputs": [
        {
          "name": "_operator",
          "type": "address"
        },
        {
          "name": "_role",
          "type": "string"
        }
      ],
      "name": "checkRole",
      "outputs": [],
      "payable": false,
      "stateMutability": "view",
      "type": "function"
    },
    {
      "constant": true,
      "inputs": [
        {
          "name": "_operator",
          "type": "address"
        },
        {
          "name": "_role",
          "type": "string"
        }
      ],
      "name": "hasRole",
      "outputs": [
        {
          "name": "",
          "type": "bool"
        }
      ],
      "payable": false,
      "stateMutability": "view",
      "type": "function"
    },
    {
      "constant": false,
      "inputs": [],
      "name": "renounceOwnership",
      "outputs": [],
      "payable": false,
      "stateMutability": "nonpayable",
      "type": "function"
    },
    {
      "constant": true,
      "inputs": [],
      "name": "owner",
      "outputs": [
        {
          "name": "",
          "type": "address"
        }
      ],
      "payable": false,
      "stateMutability": "view",
      "type": "function"
    },
    {
      "constant": true,
      "inputs": [],
      "name": "ROLE_SUPERUSER",
      "outputs": [
        {
          "name": "",
          "type": "string"
        }
      ],
      "payable": false,
      "stateMutability": "view",
      "type": "function"
    },
    {
      "inputs": [],
      "payable": false,
      "stateMutability": "nonpayable",
      "type": "constructor"
    },
    {
      "anonymous": false,
      "inputs": [
        {
          "indexed": true,
          "name": "operator",
          "type": "address"
        },
        {
          "indexed": false,
          "name": "role",
          "type": "string"
        }
      ],
      "name": "RoleAdded",
      "type": "event"
    },
    {
      "anonymous": false,
      "inputs": [
        {
          "indexed": true,
          "name": "operator",
          "type": "address"
        },
        {
          "indexed": false,
          "name": "role",
          "type": "string"
        }
      ],
      "name": "RoleRemoved",
      "type": "event"
    },
    {
      "anonymous": false,
      "inputs": [
        {
          "indexed": true,
          "name": "previousOwner",
          "type": "address"
        }
      ],
      "name": "OwnershipRenounced",
      "type": "event"
    },
    {
      "anonymous": false,
      "inputs": [
        {
          "indexed": true,
          "name": "previousOwner",
          "type": "address"
        },
        {
          "indexed": true,
          "name": "newOwner",
          "type": "address"
        }
      ],
      "name": "OwnershipTransferred",
      "type": "event"
    },
    {
      "constant": true,
      "inputs": [
        {
          "name": "_addr",
          "type": "address"
        }
      ],
      "name": "isSuperuser",
      "outputs": [
        {
          "name": "",
          "type": "bool"
        }
      ],
      "payable": false,
      "stateMutability": "view",
      "type": "function"
    },
    {
      "constant": false,
      "inputs": [
        {
          "name": "_newSuperuser",
          "type": "address"
        }
      ],
      "name": "transferSuperuser",
      "outputs": [],
      "payable": false,
      "stateMutability": "nonpayable",
      "type": "function"
    },
    {
      "constant": false,
      "inputs": [
        {
          "name": "_newOwner",
          "type": "address"
        }
      ],
      "name": "transferOwnership",
      "outputs": [],
      "payable": false,
      "stateMutability": "nonpayable",
      "type": "function"
    }
  ],
  "bytecode": "0x608060405234801561001057600080fd5b50336000806101000a81548173ffffffffffffffffffffffffffffffffffffffff021916908373ffffffffffffffffffffffffffffffffffffffff16021790555061009f336040805190810160405280600981526020017f73757065727573657200000000000000000000000000000000000000000000008152506100a4640100000000026401000000009004565b610243565b61012e826001836040518082805190602001908083835b6020831015156100e057805182526020820191506020810190506020830392506100bb565b6001836020036101000a03801982511681845116808217855250505050505090500191505090815260200160405180910390206101e564010000000002610bf1179091906401000000009004565b8173ffffffffffffffffffffffffffffffffffffffff167fbfec83d64eaa953f2708271a023ab9ee82057f8f3578d548c1a4ba0b5b700489826040518080602001828103825283818151815260200191508051906020019080838360005b838110156101a757808201518184015260208101905061018c565b50505050905090810190601f1680156101d45780820380516001836020036101000a031916815260200191505b509250505060405180910390a25050565b60018260000160008373ffffffffffffffffffffffffffffffffffffffff1673ffffffffffffffffffffffffffffffffffffffff16815260200190815260200160002060006101000a81548160ff0219169083151502179055505050565b610c7b806102526000396000f30060806040526004361061008e576000357c0100000000000000000000000000000000000000000000000000000000900463ffffffff1680630988ca8c14610093578063217fe6c61461011c57806357c393fa146101bd578063715018a6146102005780638da5cb5b14610217578063bceee05e1461026e578063ebb4f484146102c9578063f2fde38b14610359575b600080fd5b34801561009f57600080fd5b5061011a600480360381019080803573ffffffffffffffffffffffffffffffffffffffff169060200190929190803590602001908201803590602001908080601f016020809104026020016040519081016040528093929190818152602001838380828437820191505050505050919291929050505061039c565b005b34801561012857600080fd5b506101a3600480360381019080803573ffffffffffffffffffffffffffffffffffffffff169060200190929190803590602001908201803590602001908080601f016020809104026020016040519081016040528093929190818152602001838380828437820191505050505050919291929050505061041d565b604051808215151515815260200191505060405180910390f35b3480156101c957600080fd5b506101fe600480360381019080803573ffffffffffffffffffffffffffffffffffffffff1690602001909291905050506104a4565b005b34801561020c57600080fd5b506102156105a0565b005b34801561022357600080fd5b5061022c6106a2565b604051808273ffffffffffffffffffffffffffffffffffffffff1673ffffffffffffffffffffffffffffffffffffffff16815260200191505060405180910390f35b34801561027a57600080fd5b506102af600480360381019080803573ffffffffffffffffffffffffffffffffffffffff1690602001909291905050506106c7565b604051808215151515815260200191505060405180910390f35b3480156102d557600080fd5b506102de61070f565b6040518080602001828103825283818151815260200191508051906020019080838360005b8381101561031e578082015181840152602081019050610303565b50505050905090810190601f16801561034b5780820380516001836020036101000a031916815260200191505b509250505060405180910390f35b34801561036557600080fd5b5061039a600480360381019080803573ffffffffffffffffffffffffffffffffffffffff169060200190929190505050610748565b005b610419826001836040518082805190602001908083835b6020831015156103d857805182526020820191506020810190506020830392506103b3565b6001836020036101000a03801982511681845116808217855250505050505090500191505090815260200160405180910390206107bf90919063ffffffff16565b5050565b600061049c836001846040518082805190602001908083835b60208310151561045b5780518252602082019150602081019050602083039250610436565b6001836020036101000a03801982511681845116808217855250505050505090500191505090815260200160405180910390206107d890919063ffffffff16565b905092915050565b6104e3336040805190810160405280600981526020017f737570657275736572000000000000000000000000000000000000000000000081525061039c565b600073ffffffffffffffffffffffffffffffffffffffff168173ffffffffffffffffffffffffffffffffffffffff161415151561051f57600080fd5b61055e336040805190810160405280600981526020017f7375706572757365720000000000000000000000000000000000000000000000815250610831565b61059d816040805190810160405280600981526020017f7375706572757365720000000000000000000000000000000000000000000000815250610965565b50565b6000809054906101000a900473ffffffffffffffffffffffffffffffffffffffff1673ffffffffffffffffffffffffffffffffffffffff163373ffffffffffffffffffffffffffffffffffffffff161415156105fb57600080fd5b6000809054906101000a900473ffffffffffffffffffffffffffffffffffffffff1673ffffffffffffffffffffffffffffffffffffffff167ff8df31144d9c2f0f6b59d69b8b98abd5459d07f2742c4df920b25aae33c6482060405160405180910390a260008060006101000a81548173ffffffffffffffffffffffffffffffffffffffff021916908373ffffffffffffffffffffffffffffffffffffffff160217905550565b6000809054906101000a900473ffffffffffffffffffffffffffffffffffffffff1681565b6000610708826040805190810160405280600981526020017f737570657275736572000000000000000000000000000000000000000000000081525061041d565b9050919050565b6040805190810160405280600981526020017f737570657275736572000000000000000000000000000000000000000000000081525081565b6000809054906101000a900473ffffffffffffffffffffffffffffffffffffffff1673ffffffffffffffffffffffffffffffffffffffff163373ffffffffffffffffffffffffffffffffffffffff1614806107a857506107a7336106c7565b5b15156107b357600080fd5b6107bc81610a99565b50565b6107c982826107d8565b15156107d457600080fd5b5050565b60008260000160008373ffffffffffffffffffffffffffffffffffffffff1673ffffffffffffffffffffffffffffffffffffffff16815260200190815260200160002060009054906101000a900460ff16905092915050565b6108ae826001836040518082805190602001908083835b60208310151561086d5780518252602082019150602081019050602083039250610848565b6001836020036101000a0380198251168184511680821785525050505050509050019150509081526020016040518091039020610b9390919063ffffffff16565b8173ffffffffffffffffffffffffffffffffffffffff167fd211483f91fc6eff862467f8de606587a30c8fc9981056f051b897a418df803a826040518080602001828103825283818151815260200191508051906020019080838360005b8381101561092757808201518184015260208101905061090c565b50505050905090810190601f1680156109545780820380516001836020036101000a031916815260200191505b509250505060405180910390a25050565b6109e2826001836040518082805190602001908083835b6020831015156109a1578051825260208201915060208101905060208303925061097c565b6001836020036101000a0380198251168184511680821785525050505050509050019150509081526020016040518091039020610bf190919063ffffffff16565b8173ffffffffffffffffffffffffffffffffffffffff167fbfec83d64eaa953f2708271a023ab9ee82057f8f3578d548c1a4ba0b5b700489826040518080602001828103825283818151815260200191508051906020019080838360005b83811015610a5b578082015181840152602081019050610a40565b50505050905090810190601f168015610a885780820380516001836020036101000a031916815260200191505b509250505060405180910390a25050565b600073ffffffffffffffffffffffffffffffffffffffff168173ffffffffffffffffffffffffffffffffffffffff1614151515610ad557600080fd5b8073ffffffffffffffffffffffffffffffffffffffff166000809054906101000a900473ffffffffffffffffffffffffffffffffffffffff1673ffffffffffffffffffffffffffffffffffffffff167f8be0079c531659141344cd1fd0a4f28419497f9722a3daafe3b4186f6b6457e060405160405180910390a3806000806101000a81548173ffffffffffffffffffffffffffffffffffffffff021916908373ffffffffffffffffffffffffffffffffffffffff16021790555050565b60008260000160008373ffffffffffffffffffffffffffffffffffffffff1673ffffffffffffffffffffffffffffffffffffffff16815260200190815260200160002060006101000a81548160ff0219169083151502179055505050565b60018260000160008373ffffffffffffffffffffffffffffffffffffffff1673ffffffffffffffffffffffffffffffffffffffff16815260200190815260200160002060006101000a81548160ff02191690831515021790555050505600a165627a7a72305820738608aeaeea27762730129ef5422f3babceee85c74d26c8f250498eaba557e90029",
  "source": "pragma solidity ^0.4.24;\n\n\nimport \"./Ownable.sol\";\nimport \"../access/rbac/RBAC.sol\";\n\n\n/**\n * @title Superuser\n * @dev The Superuser contract defines a single superuser who can transfer the ownership\n * of a contract to a new address, even if he is not the owner.\n * A superuser can transfer his role to a new address.\n */\ncontract Superuser is Ownable, RBAC {\n  string public constant ROLE_SUPERUSER = \"superuser\";\n\n  constructor () public {\n    addRole(msg.sender, ROLE_SUPERUSER);\n  }\n\n  /**\n   * @dev Throws if called by any account that's not a superuser.\n   */\n  modifier onlySuperuser() {\n    checkRole(msg.sender, ROLE_SUPERUSER);\n    _;\n  }\n\n  modifier onlyOwnerOrSuperuser() {\n    require(msg.sender == owner || isSuperuser(msg.sender));\n    _;\n  }\n\n  /**\n   * @dev getter to determine if address has superuser role\n   */\n  function isSuperuser(address _addr)\n    public\n    view\n    returns (bool)\n  {\n    return hasRole(_addr, ROLE_SUPERUSER);\n  }\n\n  /**\n   * @dev Allows the current superuser to transfer his role to a newSuperuser.\n   * @param _newSuperuser The address to transfer ownership to.\n   */\n  function transferSuperuser(address _newSuperuser) public onlySuperuser {\n    require(_newSuperuser != address(0));\n    removeRole(msg.sender, ROLE_SUPERUSER);\n    addRole(_newSuperuser, ROLE_SUPERUSER);\n  }\n\n  /**\n   * @dev Allows the current superuser or owner to transfer control of the contract to a newOwner.\n   * @param _newOwner The address to transfer ownership to.\n   */\n  function transferOwnership(address _newOwner) public onlyOwnerOrSuperuser {\n    _transferOwnership(_newOwner);\n  }\n}\n",
  "sourcePath": "/Users/nikolamadjarevic/Desktop/2key/contracts/contracts/openzeppelin-solidity/contracts/ownership/Superuser.sol",
  "compiler": {
    "name": "solc",
    "version": "0.4.24+commit.e67f0147.Emscripten.clang"
  },
  "schemaVersion": "2.0.1",
  "updatedAt": "2018-09-04T19:35:44.626Z"
}