{
  "contractName": "TwoKeyUpgradableExchange",
  "abi": [
    {
      "constant": true,
      "inputs": [
        {
          "name": "_operator",
          "type": "address"
        },
        {
          "name": "_role",
          "type": "string"
        }
      ],
      "name": "checkRole",
      "outputs": [],
      "payable": false,
      "stateMutability": "view",
      "type": "function"
    },
    {
      "constant": true,
      "inputs": [
        {
          "name": "_operator",
          "type": "address"
        },
        {
          "name": "_role",
          "type": "string"
        }
      ],
      "name": "hasRole",
      "outputs": [
        {
          "name": "",
          "type": "bool"
        }
      ],
      "payable": false,
      "stateMutability": "view",
      "type": "function"
    },
    {
      "constant": true,
      "inputs": [],
      "name": "rate",
      "outputs": [
        {
          "name": "",
          "type": "uint256"
        }
      ],
      "payable": false,
      "stateMutability": "view",
      "type": "function"
    },
    {
      "constant": true,
      "inputs": [],
      "name": "weiRaised",
      "outputs": [
        {
          "name": "",
          "type": "uint256"
        }
      ],
      "payable": false,
      "stateMutability": "view",
      "type": "function"
    },
    {
      "constant": true,
      "inputs": [],
      "name": "wallet",
      "outputs": [
        {
          "name": "",
          "type": "address"
        }
      ],
      "payable": false,
      "stateMutability": "view",
      "type": "function"
    },
    {
      "constant": true,
      "inputs": [],
      "name": "ROLE_CONTROLLER",
      "outputs": [
        {
          "name": "",
          "type": "string"
        }
      ],
      "payable": false,
      "stateMutability": "view",
      "type": "function"
    },
    {
      "constant": false,
      "inputs": [],
      "name": "renounceOwnership",
      "outputs": [],
      "payable": false,
      "stateMutability": "nonpayable",
      "type": "function"
    },
    {
      "constant": false,
      "inputs": [
        {
          "name": "addr",
          "type": "address"
        },
        {
          "name": "roleName",
          "type": "string"
        }
      ],
      "name": "adminRemoveRole",
      "outputs": [],
      "payable": false,
      "stateMutability": "nonpayable",
      "type": "function"
    },
    {
      "constant": true,
      "inputs": [],
      "name": "owner",
      "outputs": [
        {
          "name": "",
          "type": "address"
        }
      ],
      "payable": false,
      "stateMutability": "view",
      "type": "function"
    },
    {
      "constant": false,
      "inputs": [
        {
          "name": "addr",
          "type": "address"
        },
        {
          "name": "roleName",
          "type": "string"
        }
      ],
      "name": "adminAddRole",
      "outputs": [],
      "payable": false,
      "stateMutability": "nonpayable",
      "type": "function"
    },
    {
      "constant": true,
      "inputs": [],
      "name": "getAdminRole",
      "outputs": [
        {
          "name": "",
          "type": "string"
        }
      ],
      "payable": false,
      "stateMutability": "view",
      "type": "function"
    },
    {
      "constant": true,
      "inputs": [],
      "name": "onlyControllerRole",
      "outputs": [
        {
          "name": "",
          "type": "bool"
        }
      ],
      "payable": false,
      "stateMutability": "view",
      "type": "function"
    },
    {
      "constant": true,
      "inputs": [],
      "name": "ROLE_ADMIN",
      "outputs": [
        {
          "name": "",
          "type": "string"
        }
      ],
      "payable": false,
      "stateMutability": "view",
      "type": "function"
    },
    {
      "constant": true,
      "inputs": [],
      "name": "getControllerRole",
      "outputs": [
        {
          "name": "",
          "type": "string"
        }
      ],
      "payable": false,
      "stateMutability": "view",
      "type": "function"
    },
    {
      "constant": false,
      "inputs": [
        {
          "name": "_newOwner",
          "type": "address"
        }
      ],
      "name": "transferOwnership",
      "outputs": [],
      "payable": false,
      "stateMutability": "nonpayable",
      "type": "function"
    },
    {
      "constant": true,
      "inputs": [],
      "name": "token",
      "outputs": [
        {
          "name": "",
          "type": "address"
        }
      ],
      "payable": false,
      "stateMutability": "view",
      "type": "function"
    },
    {
      "inputs": [
        {
          "name": "_rate",
          "type": "uint256"
        },
        {
          "name": "_wallet",
          "type": "address"
        },
        {
          "name": "_token",
          "type": "address"
        },
        {
          "name": "_twoKeyAdmin",
          "type": "address"
        }
      ],
      "payable": false,
      "stateMutability": "nonpayable",
      "type": "constructor"
    },
    {
      "payable": true,
      "stateMutability": "payable",
      "type": "fallback"
    },
    {
      "anonymous": false,
      "inputs": [
        {
          "indexed": true,
          "name": "purchaser",
          "type": "address"
        },
        {
          "indexed": true,
          "name": "beneficiary",
          "type": "address"
        },
        {
          "indexed": false,
          "name": "value",
          "type": "uint256"
        },
        {
          "indexed": false,
          "name": "amount",
          "type": "uint256"
        }
      ],
      "name": "TokenSell",
      "type": "event"
    },
    {
      "anonymous": false,
      "inputs": [
        {
          "indexed": true,
          "name": "operator",
          "type": "address"
        },
        {
          "indexed": false,
          "name": "role",
          "type": "string"
        }
      ],
      "name": "RoleAdded",
      "type": "event"
    },
    {
      "anonymous": false,
      "inputs": [
        {
          "indexed": true,
          "name": "operator",
          "type": "address"
        },
        {
          "indexed": false,
          "name": "role",
          "type": "string"
        }
      ],
      "name": "RoleRemoved",
      "type": "event"
    },
    {
      "anonymous": false,
      "inputs": [
        {
          "indexed": true,
          "name": "previousOwner",
          "type": "address"
        }
      ],
      "name": "OwnershipRenounced",
      "type": "event"
    },
    {
      "anonymous": false,
      "inputs": [
        {
          "indexed": true,
          "name": "previousOwner",
          "type": "address"
        },
        {
          "indexed": true,
          "name": "newOwner",
          "type": "address"
        }
      ],
      "name": "OwnershipTransferred",
      "type": "event"
    },
    {
      "anonymous": false,
      "inputs": [
        {
          "indexed": true,
          "name": "purchaser",
          "type": "address"
        },
        {
          "indexed": true,
          "name": "beneficiary",
          "type": "address"
        },
        {
          "indexed": false,
          "name": "value",
          "type": "uint256"
        },
        {
          "indexed": false,
          "name": "amount",
          "type": "uint256"
        }
      ],
      "name": "TokenPurchase",
      "type": "event"
    },
    {
      "constant": false,
      "inputs": [
        {
          "name": "_tokenAmount",
          "type": "uint256"
        }
      ],
      "name": "sellTokens",
      "outputs": [],
      "payable": true,
      "stateMutability": "payable",
      "type": "function"
    },
    {
      "constant": false,
      "inputs": [
        {
          "name": "_to",
          "type": "address"
        }
      ],
      "name": "upgrade",
      "outputs": [],
      "payable": false,
      "stateMutability": "nonpayable",
      "type": "function"
    },
    {
      "constant": false,
      "inputs": [
        {
          "name": "_beneficiary",
          "type": "address"
        }
      ],
      "name": "buyTokens",
      "outputs": [],
      "payable": true,
      "stateMutability": "payable",
      "type": "function"
    }
  ],
  "bytecode": "0x60806040523480156200001157600080fd5b50604051608080620020d7833981018060405281019080805190602001909291908051906020019092919080519060200190929190805190602001909291905050506000818585856000831115156200006957600080fd5b600073ffffffffffffffffffffffffffffffffffffffff168273ffffffffffffffffffffffffffffffffffffffff1614151515620000a657600080fd5b600073ffffffffffffffffffffffffffffffffffffffff168173ffffffffffffffffffffffffffffffffffffffff1614151515620000e357600080fd5b8260028190555081600160006101000a81548173ffffffffffffffffffffffffffffffffffffffff021916908373ffffffffffffffffffffffffffffffffffffffff160217905550806000806101000a81548173ffffffffffffffffffffffffffffffffffffffff021916908373ffffffffffffffffffffffffffffffffffffffff16021790555050505033600460006101000a81548173ffffffffffffffffffffffffffffffffffffffff021916908373ffffffffffffffffffffffffffffffffffffffff160217905550600073ffffffffffffffffffffffffffffffffffffffff168173ffffffffffffffffffffffffffffffffffffffff1614156200022c5733600660006101000a81548173ffffffffffffffffffffffffffffffffffffffff021916908373ffffffffffffffffffffffffffffffffffffffff1602179055506200026e565b80600660006101000a81548173ffffffffffffffffffffffffffffffffffffffff021916908373ffffffffffffffffffffffffffffffffffffffff1602179055505b620002e0600660009054906101000a900473ffffffffffffffffffffffffffffffffffffffff166040805190810160405280600581526020017f61646d696e000000000000000000000000000000000000000000000000000000815250620003e1640100000000026401000000009004565b50600073ffffffffffffffffffffffffffffffffffffffff168273ffffffffffffffffffffffffffffffffffffffff16141515156200031e57600080fd5b8190508073ffffffffffffffffffffffffffffffffffffffff1663ebdb2122306040518263ffffffff167c0100000000000000000000000000000000000000000000000000000000028152600401808273ffffffffffffffffffffffffffffffffffffffff1673ffffffffffffffffffffffffffffffffffffffff168152602001915050600060405180830381600087803b158015620003bd57600080fd5b505af1158015620003d2573d6000803e3d6000fd5b50505050505050505062000588565b62000470826005836040518082805190602001908083835b602083101515620004205780518252602082019150602081019050602083039250620003f9565b6001836020036101000a03801982511681845116808217855250505050505090500191505090815260200160405180910390206200052a6401000000000262001834179091906401000000009004565b8173ffffffffffffffffffffffffffffffffffffffff167fbfec83d64eaa953f2708271a023ab9ee82057f8f3578d548c1a4ba0b5b700489826040518080602001828103825283818151815260200191508051906020019080838360005b83811015620004eb578082015181840152602081019050620004ce565b50505050905090810190601f168015620005195780820380516001836020036101000a031916815260200191505b509250505060405180910390a25050565b60018260000160008373ffffffffffffffffffffffffffffffffffffffff1673ffffffffffffffffffffffffffffffffffffffff16815260200190815260200160002060006101000a81548160ff0219169083151502179055505050565b611b3f80620005986000396000f300608060405260043610610107576000357c0100000000000000000000000000000000000000000000000000000000900463ffffffff1680630900f010146101cb5780630988ca8c1461020e578063217fe6c6146102975780632c4e722e146103385780634042b66f14610363578063521eb2731461038e5780635b4df1ca146103e55780636c11bcd314610475578063715018a61461049557806388cee87e146104ac5780638da5cb5b14610535578063b25fa92c1461058c578063b3ecf23614610615578063d06baae4146106a5578063d391014b146106d4578063ec8ac4d814610764578063efe9dcb71461079a578063f2fde38b1461082a578063fc0c546a1461086d575b600073ffffffffffffffffffffffffffffffffffffffff16600760009054906101000a900473ffffffffffffffffffffffffffffffffffffffff1673ffffffffffffffffffffffffffffffffffffffff161415156101c957600760009054906101000a900473ffffffffffffffffffffffffffffffffffffffff1673ffffffffffffffffffffffffffffffffffffffff166108fc349081150290604051600060405180830381858888f193505050501580156101c7573d6000803e3d6000fd5b505b005b3480156101d757600080fd5b5061020c600480360381019080803573ffffffffffffffffffffffffffffffffffffffff1690602001909291905050506108c4565b005b34801561021a57600080fd5b50610295600480360381019080803573ffffffffffffffffffffffffffffffffffffffff169060200190929190803590602001908201803590602001908080601f01602080910402602001604051908101604052809392919081815260200183838082843782019150505050505091929192905050506109c1565b005b3480156102a357600080fd5b5061031e600480360381019080803573ffffffffffffffffffffffffffffffffffffffff169060200190929190803590602001908201803590602001908080601f0160208091040260200160405190810160405280939291908181526020018383808284378201915050505050509192919290505050610a42565b604051808215151515815260200191505060405180910390f35b34801561034457600080fd5b5061034d610ac9565b6040518082815260200191505060405180910390f35b34801561036f57600080fd5b50610378610acf565b6040518082815260200191505060405180910390f35b34801561039a57600080fd5b506103a3610ad5565b604051808273ffffffffffffffffffffffffffffffffffffffff1673ffffffffffffffffffffffffffffffffffffffff16815260200191505060405180910390f35b3480156103f157600080fd5b506103fa610afb565b6040518080602001828103825283818151815260200191508051906020019080838360005b8381101561043a57808201518184015260208101905061041f565b50505050905090810190601f1680156104675780820380516001836020036101000a031916815260200191505b509250505060405180910390f35b61049360048036038101908080359060200190929190505050610b34565b005b3480156104a157600080fd5b506104aa610f2f565b005b3480156104b857600080fd5b50610533600480360381019080803573ffffffffffffffffffffffffffffffffffffffff169060200190929190803590602001908201803590602001908080601f0160208091040260200160405190810160405280939291908181526020018383808284378201915050505050509192919290505050611034565b005b34801561054157600080fd5b5061054a611081565b604051808273ffffffffffffffffffffffffffffffffffffffff1673ffffffffffffffffffffffffffffffffffffffff16815260200191505060405180910390f35b34801561059857600080fd5b50610613600480360381019080803573ffffffffffffffffffffffffffffffffffffffff169060200190929190803590602001908201803590602001908080601f01602080910402602001604051908101604052809392919081815260200183838082843782019150505050505091929192905050506110a7565b005b34801561062157600080fd5b5061062a6110f4565b6040518080602001828103825283818151815260200191508051906020019080838360005b8381101561066a57808201518184015260208101905061064f565b50505050905090810190601f1680156106975780820380516001836020036101000a031916815260200191505b509250505060405180910390f35b3480156106b157600080fd5b506106ba611131565b604051808215151515815260200191505060405180910390f35b3480156106e057600080fd5b506106e9611179565b6040518080602001828103825283818151815260200191508051906020019080838360005b8381101561072957808201518184015260208101905061070e565b50505050905090810190601f1680156107565780820380516001836020036101000a031916815260200191505b509250505060405180910390f35b610798600480360381019080803573ffffffffffffffffffffffffffffffffffffffff1690602001909291905050506111b2565b005b3480156107a657600080fd5b506107af61121b565b6040518080602001828103825283818151815260200191508051906020019080838360005b838110156107ef5780820151818401526020810190506107d4565b50505050905090810190601f16801561081c5780820380516001836020036101000a031916815260200191505b509250505060405180910390f35b34801561083657600080fd5b5061086b600480360381019080803573ffffffffffffffffffffffffffffffffffffffff169060200190929190505050611258565b005b34801561087957600080fd5b506108826112c0565b604051808273ffffffffffffffffffffffffffffffffffffffff1673ffffffffffffffffffffffffffffffffffffffff16815260200191505060405180910390f35b600073ffffffffffffffffffffffffffffffffffffffff16600760009054906101000a900473ffffffffffffffffffffffffffffffffffffffff1673ffffffffffffffffffffffffffffffffffffffff1614151561092157600080fd5b600460009054906101000a900473ffffffffffffffffffffffffffffffffffffffff1673ffffffffffffffffffffffffffffffffffffffff163373ffffffffffffffffffffffffffffffffffffffff1614151561097d57600080fd5b80600760006101000a81548173ffffffffffffffffffffffffffffffffffffffff021916908373ffffffffffffffffffffffffffffffffffffffff16021790555050565b610a3e826005836040518082805190602001908083835b6020831015156109fd57805182526020820191506020810190506020830392506109d8565b6001836020036101000a03801982511681845116808217855250505050505090500191505090815260200160405180910390206112e590919063ffffffff16565b5050565b6000610ac1836005846040518082805190602001908083835b602083101515610a805780518252602082019150602081019050602083039250610a5b565b6001836020036101000a03801982511681845116808217855250505050505090500191505090815260200160405180910390206112fe90919063ffffffff16565b905092915050565b60025481565b60035481565b600160009054906101000a900473ffffffffffffffffffffffffffffffffffffffff1681565b6040805190810160405280600a81526020017f636f6e74726f6c6c65720000000000000000000000000000000000000000000081525081565b60008073ffffffffffffffffffffffffffffffffffffffff16600760009054906101000a900473ffffffffffffffffffffffffffffffffffffffff1673ffffffffffffffffffffffffffffffffffffffff16141515610b9257600080fd5b816000809054906101000a900473ffffffffffffffffffffffffffffffffffffffff1673ffffffffffffffffffffffffffffffffffffffff1663dd62ed3e30336040518363ffffffff167c0100000000000000000000000000000000000000000000000000000000028152600401808373ffffffffffffffffffffffffffffffffffffffff1673ffffffffffffffffffffffffffffffffffffffff1681526020018273ffffffffffffffffffffffffffffffffffffffff1673ffffffffffffffffffffffffffffffffffffffff16815260200192505050602060405180830381600087803b158015610c8357600080fd5b505af1158015610c97573d6000803e3d6000fd5b505050506040513d6020811015610cad57600080fd5b810190808051906020019092919050505010151515610ccb57600080fd5b6000809054906101000a900473ffffffffffffffffffffffffffffffffffffffff1673ffffffffffffffffffffffffffffffffffffffff166323b872dd3330856040518463ffffffff167c0100000000000000000000000000000000000000000000000000000000028152600401808473ffffffffffffffffffffffffffffffffffffffff1673ffffffffffffffffffffffffffffffffffffffff1681526020018373ffffffffffffffffffffffffffffffffffffffff1673ffffffffffffffffffffffffffffffffffffffff1681526020018281526020019350505050602060405180830381600087803b158015610dc357600080fd5b505af1158015610dd7573d6000803e3d6000fd5b505050506040513d6020811015610ded57600080fd5b81019080805190602001909291905050501515610e0957600080fd5b610e1282611357565b90503073ffffffffffffffffffffffffffffffffffffffff16318110151515610e3a57600080fd5b610e4f8160035461137590919063ffffffff16565b6003819055503373ffffffffffffffffffffffffffffffffffffffff166108fc829081150290604051600060405180830381858888f19350505050158015610e9b573d6000803e3d6000fd5b50600160009054906101000a900473ffffffffffffffffffffffffffffffffffffffff1673ffffffffffffffffffffffffffffffffffffffff163373ffffffffffffffffffffffffffffffffffffffff167f600c9b3d78dfe3edf6fe01b2806344f8b10d1f94eeeadbd9a4472fea14ca60738385604051808381526020018281526020019250505060405180910390a35050565b600460009054906101000a900473ffffffffffffffffffffffffffffffffffffffff1673ffffffffffffffffffffffffffffffffffffffff163373ffffffffffffffffffffffffffffffffffffffff16141515610f8b57600080fd5b600460009054906101000a900473ffffffffffffffffffffffffffffffffffffffff1673ffffffffffffffffffffffffffffffffffffffff167ff8df31144d9c2f0f6b59d69b8b98abd5459d07f2742c4df920b25aae33c6482060405160405180910390a26000600460006101000a81548173ffffffffffffffffffffffffffffffffffffffff021916908373ffffffffffffffffffffffffffffffffffffffff160217905550565b611073336040805190810160405280600581526020017f61646d696e0000000000000000000000000000000000000000000000000000008152506109c1565b61107d828261138e565b5050565b600460009054906101000a900473ffffffffffffffffffffffffffffffffffffffff1681565b6110e6336040805190810160405280600581526020017f61646d696e0000000000000000000000000000000000000000000000000000008152506109c1565b6110f082826114c2565b5050565b60606040805190810160405280600581526020017f61646d696e000000000000000000000000000000000000000000000000000000815250905090565b6000611172336040805190810160405280600a81526020017f636f6e74726f6c6c6572000000000000000000000000000000000000000000008152506109c1565b6001905090565b6040805190810160405280600581526020017f61646d696e00000000000000000000000000000000000000000000000000000081525081565b600073ffffffffffffffffffffffffffffffffffffffff16600760009054906101000a900473ffffffffffffffffffffffffffffffffffffffff1673ffffffffffffffffffffffffffffffffffffffff1614151561120f57600080fd5b611218816115f6565b50565b60606040805190810160405280600a81526020017f636f6e74726f6c6c657200000000000000000000000000000000000000000000815250905090565b600460009054906101000a900473ffffffffffffffffffffffffffffffffffffffff1673ffffffffffffffffffffffffffffffffffffffff163373ffffffffffffffffffffffffffffffffffffffff161415156112b457600080fd5b6112bd816116c4565b50565b6000809054906101000a900473ffffffffffffffffffffffffffffffffffffffff1681565b6112ef82826112fe565b15156112fa57600080fd5b5050565b60008260000160008373ffffffffffffffffffffffffffffffffffffffff1673ffffffffffffffffffffffffffffffffffffffff16815260200190815260200160002060009054906101000a900460ff16905092915050565b600061136e600254836117c090919063ffffffff16565b9050919050565b600082821115151561138357fe5b818303905092915050565b61140b826005836040518082805190602001908083835b6020831015156113ca57805182526020820191506020810190506020830392506113a5565b6001836020036101000a03801982511681845116808217855250505050505090500191505090815260200160405180910390206117d690919063ffffffff16565b8173ffffffffffffffffffffffffffffffffffffffff167fd211483f91fc6eff862467f8de606587a30c8fc9981056f051b897a418df803a826040518080602001828103825283818151815260200191508051906020019080838360005b83811015611484578082015181840152602081019050611469565b50505050905090810190601f1680156114b15780820380516001836020036101000a031916815260200191505b509250505060405180910390a25050565b61153f826005836040518082805190602001908083835b6020831015156114fe57805182526020820191506020810190506020830392506114d9565b6001836020036101000a038019825116818451168082178552505050505050905001915050908152602001604051809103902061183490919063ffffffff16565b8173ffffffffffffffffffffffffffffffffffffffff167fbfec83d64eaa953f2708271a023ab9ee82057f8f3578d548c1a4ba0b5b700489826040518080602001828103825283818151815260200191508051906020019080838360005b838110156115b857808201518184015260208101905061159d565b50505050905090810190601f1680156115e55780820380516001836020036101000a031916815260200191505b509250505060405180910390a25050565b6000803491506116068383611892565b61160f826118e2565b90506116268260035461190090919063ffffffff16565b600381905550611636838261191c565b8273ffffffffffffffffffffffffffffffffffffffff163373ffffffffffffffffffffffffffffffffffffffff167f623b3804fa71d67900d064613da8f94b9617215ee90799290593e1745087ad188484604051808381526020018281526020019250505060405180910390a36116ad838361192a565b6116b561192e565b6116bf8383611999565b505050565b600073ffffffffffffffffffffffffffffffffffffffff168173ffffffffffffffffffffffffffffffffffffffff161415151561170057600080fd5b8073ffffffffffffffffffffffffffffffffffffffff16600460009054906101000a900473ffffffffffffffffffffffffffffffffffffffff1673ffffffffffffffffffffffffffffffffffffffff167f8be0079c531659141344cd1fd0a4f28419497f9722a3daafe3b4186f6b6457e060405160405180910390a380600460006101000a81548173ffffffffffffffffffffffffffffffffffffffff021916908373ffffffffffffffffffffffffffffffffffffffff16021790555050565b600081838115156117cd57fe5b04905092915050565b60008260000160008373ffffffffffffffffffffffffffffffffffffffff1673ffffffffffffffffffffffffffffffffffffffff16815260200190815260200160002060006101000a81548160ff0219169083151502179055505050565b60018260000160008373ffffffffffffffffffffffffffffffffffffffff1673ffffffffffffffffffffffffffffffffffffffff16815260200190815260200160002060006101000a81548160ff0219169083151502179055505050565b600073ffffffffffffffffffffffffffffffffffffffff168273ffffffffffffffffffffffffffffffffffffffff16141515156118ce57600080fd5b600081141515156118de57600080fd5b5050565b60006118f96002548361199d90919063ffffffff16565b9050919050565b6000818301905082811015151561191357fe5b80905092915050565b61192682826119d5565b5050565b5050565b600160009054906101000a900473ffffffffffffffffffffffffffffffffffffffff1673ffffffffffffffffffffffffffffffffffffffff166108fc349081150290604051600060405180830381858888f19350505050158015611996573d6000803e3d6000fd5b50565b5050565b6000808314156119b057600090506119cf565b81830290508183828115156119c157fe5b041415156119cb57fe5b8090505b92915050565b611a2182826000809054906101000a900473ffffffffffffffffffffffffffffffffffffffff1673ffffffffffffffffffffffffffffffffffffffff16611a259092919063ffffffff16565b5050565b8273ffffffffffffffffffffffffffffffffffffffff1663a9059cbb83836040518363ffffffff167c0100000000000000000000000000000000000000000000000000000000028152600401808373ffffffffffffffffffffffffffffffffffffffff1673ffffffffffffffffffffffffffffffffffffffff16815260200182815260200192505050602060405180830381600087803b158015611ac857600080fd5b505af1158015611adc573d6000803e3d6000fd5b505050506040513d6020811015611af257600080fd5b81019080805190602001909291905050501515611b0e57600080fd5b5050505600a165627a7a72305820ea9175ed4fad0eb44c43d934b624b7e3f6c231b6b06049b2d76462ca915664b20029",
  "source": "pragma solidity ^0.4.24;\n\nimport '../openzeppelin-solidity/contracts/crowdsale/Crowdsale.sol';\nimport '../openzeppelin-solidity/contracts/ownership/Ownable.sol';\nimport '../openzeppelin-solidity/contracts/token/ERC20/ERC20.sol';\nimport \"./TwoKeyAdmin.sol\";\nimport \"./RBACWithAdmin.sol\";\n\ncontract TwoKeyUpgradableExchange is Crowdsale, Ownable,RBACWithAdmin {\n\n\taddress filler;\n\n\tevent TokenSell(address indexed purchaser, address indexed beneficiary, uint256 value, uint256 amount);\n\n\tmodifier onlyAlive() {\n\t\trequire(filler == address(0));\n\t\t_;\n\t}\n\n\tconstructor(uint256 _rate, address _wallet, ERC20 _token,address _twoKeyAdmin) RBACWithAdmin(_twoKeyAdmin)\n\t\tCrowdsale(_rate, _wallet, _token) Ownable() public {\n\t\trequire(_twoKeyAdmin != address(0));\n\t\tTwoKeyAdmin admin ;\n    \tadmin = TwoKeyAdmin(_twoKeyAdmin);\n    \tadmin.setTwoKeyExchange(address(this));\t\n\t}\n\n\tfunction sellTokens(uint256 _tokenAmount) public onlyAlive payable {\n\t\trequire(token.allowance(this, msg.sender) >= _tokenAmount);\n\t\trequire(token.transferFrom(msg.sender, this, _tokenAmount));\n\n\t\tuint256 weiAmount = _getWeiAmount(_tokenAmount);\n\t\trequire(weiAmount >= address(this).balance);\n\t    weiRaised = weiRaised.sub(weiAmount);\n\t    msg.sender.transfer(weiAmount);\n\n\t    emit TokenSell(msg.sender, wallet, weiAmount, _tokenAmount);\n\t}\n\n\tfunction _getWeiAmount(uint256 _tokenAmount) internal view returns (uint256) {\n\t    return _tokenAmount.div(rate);\n\t}\n\t\n\tfunction upgrade(address _to) public onlyAlive onlyOwner {\n\t\tfiller = _to;\n\t}\n\n\tfunction() external payable {\n\t\tif (filler != address(0))\n\t\t\tfiller.transfer(msg.value);\n\t}\n\n\tfunction buyTokens(address _beneficiary) public onlyAlive payable {\n\t\tsuper.buyTokens(_beneficiary);\n\t}\n\n}",
  "sourcePath": "/Users/nikolamadjarevic/Desktop/2key/contracts/contracts/2key/TwoKeyUpgradableExchange.sol",
  "compiler": {
    "name": "solc",
    "version": "0.4.24+commit.e67f0147.Emscripten.clang"
  },
  "schemaVersion": "2.0.1",
  "updatedAt": "2018-09-12T08:30:24.492Z"
}