{
  "contractName": "TwoKeyEventSource",
  "abi": [
    {
      "inputs": [
        {
          "name": "_twoKeyAdminAddress",
          "type": "address"
        }
      ],
      "payable": false,
      "stateMutability": "nonpayable",
      "type": "constructor"
    },
    {
      "anonymous": false,
      "inputs": [
        {
          "indexed": true,
          "name": "_campaign",
          "type": "address"
        },
        {
          "indexed": true,
          "name": "_owner",
          "type": "address"
        }
      ],
      "name": "Created",
      "type": "event"
    },
    {
      "anonymous": false,
      "inputs": [
        {
          "indexed": true,
          "name": "_campaign",
          "type": "address"
        },
        {
          "indexed": true,
          "name": "_from",
          "type": "address"
        },
        {
          "indexed": true,
          "name": "_to",
          "type": "address"
        }
      ],
      "name": "Joined",
      "type": "event"
    },
    {
      "anonymous": false,
      "inputs": [
        {
          "indexed": true,
          "name": "_campaign",
          "type": "address"
        },
        {
          "indexed": true,
          "name": "_converter",
          "type": "address"
        },
        {
          "indexed": false,
          "name": "_tokenID",
          "type": "uint256"
        },
        {
          "indexed": false,
          "name": "_childContractID",
          "type": "address"
        },
        {
          "indexed": false,
          "name": "_indexOrAmount",
          "type": "uint256"
        },
        {
          "indexed": false,
          "name": "_type",
          "type": "uint8"
        }
      ],
      "name": "Escrow",
      "type": "event"
    },
    {
      "anonymous": false,
      "inputs": [
        {
          "indexed": true,
          "name": "_campaign",
          "type": "address"
        },
        {
          "indexed": true,
          "name": "_to",
          "type": "address"
        },
        {
          "indexed": false,
          "name": "_amount",
          "type": "uint256"
        }
      ],
      "name": "Rewarded",
      "type": "event"
    },
    {
      "anonymous": false,
      "inputs": [
        {
          "indexed": true,
          "name": "_campaign",
          "type": "address"
        },
        {
          "indexed": true,
          "name": "_converter",
          "type": "address"
        },
        {
          "indexed": true,
          "name": "_tokenID",
          "type": "uint256"
        },
        {
          "indexed": false,
          "name": "_childContractID",
          "type": "address"
        },
        {
          "indexed": false,
          "name": "_indexOrAmount",
          "type": "uint256"
        },
        {
          "indexed": false,
          "name": "_type",
          "type": "uint8"
        }
      ],
      "name": "Fulfilled",
      "type": "event"
    },
    {
      "anonymous": false,
      "inputs": [
        {
          "indexed": true,
          "name": "_campaign",
          "type": "address"
        },
        {
          "indexed": true,
          "name": "_converter",
          "type": "address"
        },
        {
          "indexed": true,
          "name": "_tokenID",
          "type": "uint256"
        },
        {
          "indexed": false,
          "name": "_childContractID",
          "type": "address"
        },
        {
          "indexed": false,
          "name": "_indexOrAmount",
          "type": "uint256"
        },
        {
          "indexed": false,
          "name": "_type",
          "type": "uint8"
        }
      ],
      "name": "Cancelled",
      "type": "event"
    },
    {
      "constant": false,
      "inputs": [
        {
          "name": "_contractAddress",
          "type": "address"
        }
      ],
      "name": "addContract",
      "outputs": [],
      "payable": false,
      "stateMutability": "nonpayable",
      "type": "function"
    },
    {
      "constant": false,
      "inputs": [
        {
          "name": "_contractAddress",
          "type": "address"
        }
      ],
      "name": "removeContract",
      "outputs": [],
      "payable": false,
      "stateMutability": "nonpayable",
      "type": "function"
    },
    {
      "constant": false,
      "inputs": [
        {
          "name": "_newAddress",
          "type": "address"
        }
      ],
      "name": "addAuthorizedAddress",
      "outputs": [],
      "payable": false,
      "stateMutability": "nonpayable",
      "type": "function"
    },
    {
      "constant": false,
      "inputs": [
        {
          "name": "_authorizedAddress",
          "type": "address"
        }
      ],
      "name": "removeAuthorizedAddress",
      "outputs": [],
      "payable": false,
      "stateMutability": "nonpayable",
      "type": "function"
    },
    {
      "constant": false,
      "inputs": [
        {
          "name": "_contractCode",
          "type": "bytes"
        },
        {
          "name": "_campaignType",
          "type": "uint8"
        }
      ],
      "name": "addCampaignType",
      "outputs": [],
      "payable": false,
      "stateMutability": "nonpayable",
      "type": "function"
    },
    {
      "constant": false,
      "inputs": [
        {
          "name": "_newAdminAddress",
          "type": "address"
        }
      ],
      "name": "changeAdmin",
      "outputs": [],
      "payable": false,
      "stateMutability": "nonpayable",
      "type": "function"
    },
    {
      "constant": true,
      "inputs": [
        {
          "name": "_contractCode",
          "type": "bytes"
        }
      ],
      "name": "checkCanEmit",
      "outputs": [
        {
          "name": "",
          "type": "bool"
        }
      ],
      "payable": false,
      "stateMutability": "view",
      "type": "function"
    },
    {
      "constant": false,
      "inputs": [
        {
          "name": "_campaign",
          "type": "address"
        },
        {
          "name": "_owner",
          "type": "address"
        }
      ],
      "name": "created",
      "outputs": [],
      "payable": false,
      "stateMutability": "nonpayable",
      "type": "function"
    },
    {
      "constant": false,
      "inputs": [
        {
          "name": "_campaign",
          "type": "address"
        },
        {
          "name": "_from",
          "type": "address"
        },
        {
          "name": "_to",
          "type": "address"
        }
      ],
      "name": "joined",
      "outputs": [],
      "payable": false,
      "stateMutability": "nonpayable",
      "type": "function"
    },
    {
      "constant": false,
      "inputs": [
        {
          "name": "_campaign",
          "type": "address"
        },
        {
          "name": "_converter",
          "type": "address"
        },
        {
          "name": "_tokenID",
          "type": "uint256"
        },
        {
          "name": "_childContractID",
          "type": "address"
        },
        {
          "name": "_indexOrAmount",
          "type": "uint256"
        },
        {
          "name": "_type",
          "type": "uint8"
        }
      ],
      "name": "escrow",
      "outputs": [],
      "payable": false,
      "stateMutability": "nonpayable",
      "type": "function"
    },
    {
      "constant": false,
      "inputs": [
        {
          "name": "_campaign",
          "type": "address"
        },
        {
          "name": "_to",
          "type": "address"
        },
        {
          "name": "_amount",
          "type": "uint256"
        }
      ],
      "name": "rewarded",
      "outputs": [],
      "payable": false,
      "stateMutability": "nonpayable",
      "type": "function"
    },
    {
      "constant": false,
      "inputs": [
        {
          "name": "_campaign",
          "type": "address"
        },
        {
          "name": "_converter",
          "type": "address"
        },
        {
          "name": "_tokenID",
          "type": "uint256"
        },
        {
          "name": "_childContractID",
          "type": "address"
        },
        {
          "name": "_indexOrAmount",
          "type": "uint256"
        },
        {
          "name": "_type",
          "type": "uint8"
        }
      ],
      "name": "fulfilled",
      "outputs": [],
      "payable": false,
      "stateMutability": "nonpayable",
      "type": "function"
    },
    {
      "constant": false,
      "inputs": [
        {
          "name": "_campaign",
          "type": "address"
        },
        {
          "name": "_converter",
          "type": "address"
        },
        {
          "name": "_tokenID",
          "type": "uint256"
        },
        {
          "name": "_childContractID",
          "type": "address"
        },
        {
          "name": "_indexOrAmount",
          "type": "uint256"
        },
        {
          "name": "_type",
          "type": "uint8"
        }
      ],
      "name": "cancelled",
      "outputs": [],
      "payable": false,
      "stateMutability": "nonpayable",
      "type": "function"
    },
    {
      "constant": true,
      "inputs": [],
      "name": "getAdmin",
      "outputs": [
        {
          "name": "",
          "type": "address"
        }
      ],
      "payable": false,
      "stateMutability": "view",
      "type": "function"
    },
    {
      "constant": true,
      "inputs": [
        {
          "name": "_subAdmin",
          "type": "address"
        }
      ],
      "name": "checkIsAuthorized",
      "outputs": [
        {
          "name": "",
          "type": "bool"
        }
      ],
      "payable": false,
      "stateMutability": "view",
      "type": "function"
    }
  ],
  "bytecode": "0x608060405234801561001057600080fd5b506040516020806116fe83398101806040528101908080519060200190929190505050806000806101000a81548173ffffffffffffffffffffffffffffffffffffffff021916908373ffffffffffffffffffffffffffffffffffffffff1602179055505061167b806100836000396000f3006080604052600436106100db576000357c0100000000000000000000000000000000000000000000000000000000900463ffffffff1680631d186584146100e05780633a0f6a3c1461014357806342f1181e146101e757806345d29f0f1461022a5780635f539d69146102ce578063693cc8a5146103115780636e9960c31461038757806370712939146103de5780638af1cbb9146104215780638e8f6283146104a45780638f28397014610548578063bd6cd0d11461058b578063c375c2ef146105f8578063c7a85e5f1461063b578063f204c88c14610696575b600080fd5b3480156100ec57600080fd5b50610141600480360381019080803573ffffffffffffffffffffffffffffffffffffffff169060200190929190803573ffffffffffffffffffffffffffffffffffffffff169060200190929190505050610717565b005b34801561014f57600080fd5b506101e5600480360381019080803573ffffffffffffffffffffffffffffffffffffffff169060200190929190803573ffffffffffffffffffffffffffffffffffffffff16906020019092919080359060200190929190803573ffffffffffffffffffffffffffffffffffffffff16906020019092919080359060200190929190803560ff16906020019092919050505061080e565b005b3480156101f357600080fd5b50610228600480360381019080803573ffffffffffffffffffffffffffffffffffffffff16906020019092919050505061095f565b005b34801561023657600080fd5b506102cc600480360381019080803573ffffffffffffffffffffffffffffffffffffffff169060200190929190803573ffffffffffffffffffffffffffffffffffffffff16906020019092919080359060200190929190803573ffffffffffffffffffffffffffffffffffffffff16906020019092919080359060200190929190803560ff169060200190929190505050610a51565b005b3480156102da57600080fd5b5061030f600480360381019080803573ffffffffffffffffffffffffffffffffffffffff169060200190929190505050610ba9565b005b34801561031d57600080fd5b50610385600480360381019080803590602001908201803590602001908080601f0160208091040260200160405190810160405280939291908181526020018383808284378201915050505050509192919290803560ff169060200190929190505050610d2f565b005b34801561039357600080fd5b5061039c610e4a565b604051808273ffffffffffffffffffffffffffffffffffffffff1673ffffffffffffffffffffffffffffffffffffffff16815260200191505060405180910390f35b3480156103ea57600080fd5b5061041f600480360381019080803573ffffffffffffffffffffffffffffffffffffffff169060200190929190505050610e73565b005b34801561042d57600080fd5b506104a2600480360381019080803573ffffffffffffffffffffffffffffffffffffffff169060200190929190803573ffffffffffffffffffffffffffffffffffffffff169060200190929190803573ffffffffffffffffffffffffffffffffffffffff169060200190929190505050610fc4565b005b3480156104b057600080fd5b50610546600480360381019080803573ffffffffffffffffffffffffffffffffffffffff169060200190929190803573ffffffffffffffffffffffffffffffffffffffff16906020019092919080359060200190929190803573ffffffffffffffffffffffffffffffffffffffff16906020019092919080359060200190929190803560ff1690602001909291905050506110d3565b005b34801561055457600080fd5b50610589600480360381019080803573ffffffffffffffffffffffffffffffffffffffff169060200190929190505050611224565b005b34801561059757600080fd5b506105f6600480360381019080803573ffffffffffffffffffffffffffffffffffffffff169060200190929190803573ffffffffffffffffffffffffffffffffffffffff169060200190929190803590602001909291905050506112c2565b005b34801561060457600080fd5b50610639600480360381019080803573ffffffffffffffffffffffffffffffffffffffff1690602001909291905050506113c5565b005b34801561064757600080fd5b5061067c600480360381019080803573ffffffffffffffffffffffffffffffffffffffff16906020019092919050505061154c565b604051808215151515815260200191505060405180910390f35b3480156106a257600080fd5b506106fd600480360381019080803590602001908201803590602001908080601f01602080910402602001604051908101604052809392919081815260200183838082843782019150505050505091929192905050506115a2565b604051808215151515815260200191505060405180910390f35b606061072233611624565b9050600115156001826040518082805190602001908083835b602083101515610760578051825260208201915060208101905060208303925061073b565b6001836020036101000a038019825116818451168082178552505050505050905001915050908152602001604051809103902060009054906101000a900460ff1615151415156107af57600080fd5b8173ffffffffffffffffffffffffffffffffffffffff168373ffffffffffffffffffffffffffffffffffffffff167f587ece4cd19692c5be1a4184503d607d45542d2aca0698c0068f52e09ccb541c60405160405180910390a3505050565b606061081933611624565b9050600115156001826040518082805190602001908083835b6020831015156108575780518252602082019150602081019050602083039250610832565b6001836020036101000a038019825116818451168082178552505050505050905001915050908152602001604051809103902060009054906101000a900460ff1615151415156108a657600080fd5b848673ffffffffffffffffffffffffffffffffffffffff168873ffffffffffffffffffffffffffffffffffffffff167f31d1450da12c7969e2e80053e9bcbeaff71faed858b70ec949c19e4ce2a15ee8878787604051808473ffffffffffffffffffffffffffffffffffffffff1673ffffffffffffffffffffffffffffffffffffffff16815260200183815260200182600381111561094157fe5b60ff168152602001935050505060405180910390a450505050505050565b6000809054906101000a900473ffffffffffffffffffffffffffffffffffffffff1673ffffffffffffffffffffffffffffffffffffffff163373ffffffffffffffffffffffffffffffffffffffff161415156109ba57600080fd5b600073ffffffffffffffffffffffffffffffffffffffff168173ffffffffffffffffffffffffffffffffffffffff16141515156109f657600080fd5b6001600360008373ffffffffffffffffffffffffffffffffffffffff1673ffffffffffffffffffffffffffffffffffffffff16815260200190815260200160002060006101000a81548160ff02191690831515021790555050565b6060610a5c33611624565b9050600115156001826040518082805190602001908083835b602083101515610a9a5780518252602082019150602081019050602083039250610a75565b6001836020036101000a038019825116818451168082178552505050505050905001915050908152602001604051809103902060009054906101000a900460ff161515141515610ae957600080fd5b8573ffffffffffffffffffffffffffffffffffffffff168773ffffffffffffffffffffffffffffffffffffffff167fb05d7e658563578e425732405770c551f908ca64d3b39e8d655695676adfbf2787878787604051808581526020018473ffffffffffffffffffffffffffffffffffffffff1673ffffffffffffffffffffffffffffffffffffffff168152602001838152602001826003811115610b8a57fe5b60ff16815260200194505050505060405180910390a350505050505050565b606060011515600360003373ffffffffffffffffffffffffffffffffffffffff1673ffffffffffffffffffffffffffffffffffffffff16815260200190815260200160002060009054906101000a900460ff1615151480610c5657506000809054906101000a900473ffffffffffffffffffffffffffffffffffffffff1673ffffffffffffffffffffffffffffffffffffffff163373ffffffffffffffffffffffffffffffffffffffff16145b1515610c6157600080fd5b600073ffffffffffffffffffffffffffffffffffffffff168273ffffffffffffffffffffffffffffffffffffffff1614151515610c9d57600080fd5b610ca682611624565b9050600180826040518082805190602001908083835b602083101515610ce15780518252602082019150602081019050602083039250610cbc565b6001836020036101000a038019825116818451168082178552505050505050905001915050908152602001604051809103902060006101000a81548160ff0219169083151502179055505050565b600115156001836040518082805190602001908083835b602083101515610d6b5780518252602082019150602081019050602083039250610d46565b6001836020036101000a038019825116818451168082178552505050505050905001915050908152602001604051809103902060009054906101000a900460ff161515141515610dba57600080fd5b806002836040518082805190602001908083835b602083101515610df35780518252602082019150602081019050602083039250610dce565b6001836020036101000a038019825116818451168082178552505050505050905001915050908152602001604051809103902060006101000a81548160ff02191690836003811115610e4157fe5b02179055505050565b60008060009054906101000a900473ffffffffffffffffffffffffffffffffffffffff16905090565b6000809054906101000a900473ffffffffffffffffffffffffffffffffffffffff1673ffffffffffffffffffffffffffffffffffffffff163373ffffffffffffffffffffffffffffffffffffffff16141515610ece57600080fd5b600073ffffffffffffffffffffffffffffffffffffffff168173ffffffffffffffffffffffffffffffffffffffff1614151515610f0a57600080fd5b60011515600360008373ffffffffffffffffffffffffffffffffffffffff1673ffffffffffffffffffffffffffffffffffffffff16815260200190815260200160002060009054906101000a900460ff161515141515610f6957600080fd5b6000600360008373ffffffffffffffffffffffffffffffffffffffff1673ffffffffffffffffffffffffffffffffffffffff16815260200190815260200160002060006101000a81548160ff02191690831515021790555050565b6060610fcf33611624565b9050600115156001826040518082805190602001908083835b60208310151561100d5780518252602082019150602081019050602083039250610fe8565b6001836020036101000a038019825116818451168082178552505050505050905001915050908152602001604051809103902060009054906101000a900460ff16151514151561105c57600080fd5b8173ffffffffffffffffffffffffffffffffffffffff168373ffffffffffffffffffffffffffffffffffffffff168573ffffffffffffffffffffffffffffffffffffffff167f2bd729a8054724da0df9fdf02b37398fb43652780a2590cef6fa6e8abcf4367860405160405180910390a450505050565b60606110de33611624565b9050600115156001826040518082805190602001908083835b60208310151561111c57805182526020820191506020810190506020830392506110f7565b6001836020036101000a038019825116818451168082178552505050505050905001915050908152602001604051809103902060009054906101000a900460ff16151514151561116b57600080fd5b848673ffffffffffffffffffffffffffffffffffffffff168873ffffffffffffffffffffffffffffffffffffffff167f21d6556a28b7fe5a660e5d6c013bcada2d9914fbe3e8a69364208f9b5e3d64a1878787604051808473ffffffffffffffffffffffffffffffffffffffff1673ffffffffffffffffffffffffffffffffffffffff16815260200183815260200182600381111561120657fe5b60ff168152602001935050505060405180910390a450505050505050565b6000809054906101000a900473ffffffffffffffffffffffffffffffffffffffff1673ffffffffffffffffffffffffffffffffffffffff163373ffffffffffffffffffffffffffffffffffffffff1614151561127f57600080fd5b806000806101000a81548173ffffffffffffffffffffffffffffffffffffffff021916908373ffffffffffffffffffffffffffffffffffffffff16021790555050565b60606112cd33611624565b9050600115156001826040518082805190602001908083835b60208310151561130b57805182526020820191506020810190506020830392506112e6565b6001836020036101000a038019825116818451168082178552505050505050905001915050908152602001604051809103902060009054906101000a900460ff16151514151561135a57600080fd5b8273ffffffffffffffffffffffffffffffffffffffff168473ffffffffffffffffffffffffffffffffffffffff167f6876a213a761d9b4f8d7ba3609528ef85da671684271f75fdacb41be8db29f45846040518082815260200191505060405180910390a350505050565b606060011515600360003373ffffffffffffffffffffffffffffffffffffffff1673ffffffffffffffffffffffffffffffffffffffff16815260200190815260200160002060009054906101000a900460ff161515148061147257506000809054906101000a900473ffffffffffffffffffffffffffffffffffffffff1673ffffffffffffffffffffffffffffffffffffffff163373ffffffffffffffffffffffffffffffffffffffff16145b151561147d57600080fd5b600073ffffffffffffffffffffffffffffffffffffffff168273ffffffffffffffffffffffffffffffffffffffff16141515156114b957600080fd5b6114c282611624565b905060006001826040518082805190602001908083835b6020831015156114fe57805182526020820191506020810190506020830392506114d9565b6001836020036101000a038019825116818451168082178552505050505050905001915050908152602001604051809103902060006101000a81548160ff0219169083151502179055505050565b6000600360008373ffffffffffffffffffffffffffffffffffffffff1673ffffffffffffffffffffffffffffffffffffffff16815260200190815260200160002060009054906101000a900460ff169050919050565b60006001826040518082805190602001908083835b6020831015156115dc57805182526020820191506020810190506020830392506115b7565b6001836020036101000a038019825116818451168082178552505050505050905001915050908152602001604051809103902060009054906101000a900460ff169050919050565b6060813b6040519150601f19601f602083010116820160405280825280600060208401853c509190505600a165627a7a7230582024264ff4480a6fef9f1de01564cd16028149a57da89a7be4bd497f2b3a9af1e20029",
  "source": "pragma solidity ^0.4.24;\n\nimport './TwoKeyTypes.sol';\nimport \"./GetCode.sol\";\nimport \"./TwoKeyAdmin.sol\";\n\ncontract TwoKeyEventSource is TwoKeyTypes {\n\n    /// Events\n    event Created(address indexed _campaign, address indexed _owner);\n    event Joined(address indexed _campaign, address indexed _from, address indexed _to);\n    event Escrow(address indexed _campaign, address indexed _converter, uint256 _tokenID, address _childContractID, uint256 _indexOrAmount, CampaignType _type);\n    event Rewarded(address indexed _campaign, address indexed _to, uint256 _amount);\n    event Fulfilled(address indexed _campaign, address indexed _converter, uint256 indexed _tokenID, address _childContractID, uint256 _indexOrAmount, CampaignType _type);\n    event Cancelled(address indexed _campaign, address indexed _converter, uint256 indexed _tokenID, address _childContractID, uint256 _indexOrAmount, CampaignType _type);\n\n\n\n\n    ///Address of the contract admin - interface\n    TwoKeyAdmin twoKeyAdmin;\n\n\n\n    ///Mapping contract bytecode to boolean if is allowed to emit an event\n    mapping(bytes => bool) canEmit;\n\n    /// Mapping contract bytecode to enumerator CampaignType.\n    mapping(bytes => CampaignType) codeToType;\n\n\n    ///Mapping an address to boolean if allowed to modify\n    mapping(address => bool) authorizedSubadmins;\n\n\n\n    ///@notice Modifier which allows only admin to call a function - can be easily modified if there is going to be more admins\n    modifier onlyAdmin {\n        require(msg.sender == address(twoKeyAdmin));\n        _;\n    }\n\n    ///@notice Modifier which allows all modifiers to update canEmit mapping - ever\n    modifier onlyAuthorizedSubadmins {\n        require(authorizedSubadmins[msg.sender] == true || msg.sender == address(twoKeyAdmin));\n        _;\n    }\n\n    ///@notice Modifier which will only allow allowed contracts to emit an event\n    modifier onlyAllowedContracts {\n        //just to use contract code instead of msg.sender address\n        bytes memory code = GetCode.at(msg.sender);\n        require(canEmit[code] == true);\n        _;\n    }\n\n    /// @notice Constructor during deployment of contract we need to set an admin address (means TwoKeyAdmin needs to be previously deployed)\n    /// @param _twoKeyAdminAddress is the address of TwoKeyAdmin contract previously deployed\n    constructor(address _twoKeyAdminAddress) public {\n        twoKeyAdmin = TwoKeyAdmin(_twoKeyAdminAddress);\n    }\n\n    /// @notice function where admin or any authorized person (will be added if needed) can add more contracts to allow them call methods\n    /// @param _contractAddress is actually the address of contract we'd like to allow\n    /// @dev We first fetch bytes32 contract code and then update our mapping\n    /// @dev only admin can call this or an authorized person\n    function addContract(address _contractAddress) public onlyAuthorizedSubadmins {\n        require(_contractAddress != address(0));\n        bytes memory _contractCode = GetCode.at(_contractAddress);\n        canEmit[_contractCode] = true;\n    }\n\n    /// @notice function where admin or any authorized person (will be added if needed) can remove contract (disable permissions to emit Events)\n    /// @param _contractAddress is actually the address of contract we'd like to disable\n    /// @dev We first fetch bytes32 contract code and then update our mapping\n    /// @dev only admin can call this or an authorized person\n    function removeContract(address _contractAddress) public onlyAuthorizedSubadmins {\n        require(_contractAddress != address(0));\n        bytes memory _contractCode = GetCode.at(_contractAddress);\n        canEmit[_contractCode] = false;\n    }\n\n    /// @notice Function where an admin can authorize any other person to modify allowed contracts\n    /// @param _newAddress is the address of new modifier contract / account\n    /// @dev if only contract can be modifier then we'll add one more validation step\n    function addAuthorizedAddress(address _newAddress) public onlyAdmin {\n        require(_newAddress != address(0));\n        authorizedSubadmins[_newAddress] = true;\n    }\n\n    /// @notice Function to remove authorization from an modifier\n    /// @param _authorizedAddress is the address of modifier\n    /// @dev checking if that address is set to true before since we'll spend 21k gas if it's already false to override that value\n    function removeAuthorizedAddress(address _authorizedAddress) public onlyAdmin {\n        require(_authorizedAddress != address(0));\n        require(authorizedSubadmins[_authorizedAddress] == true);\n\n        authorizedSubadmins[_authorizedAddress] = false;\n    }\n\n    /// @notice Function to map contract code to type of campaign\n    /// @dev is contract required to be allowed to emit to even exist in mapping codeToType\n    /// @param _contractCode is code od contract\n    /// @param _campaignType is enumerator representing type of campaign\n    function addCampaignType(bytes _contractCode, CampaignType _campaignType) {\n        require(canEmit[_contractCode] == true); //Check if this validation is needed\n        codeToType[_contractCode] = _campaignType;\n    }\n\n    /// @notice Function where admin can be changed\n    /// @param _newAdminAddress is the address of new admin\n    /// @dev think about some security layer here\n    function changeAdmin(address _newAdminAddress) public onlyAdmin {\n        twoKeyAdmin = TwoKeyAdmin(_newAdminAddress);\n    }\n\n    function checkCanEmit(bytes _contractCode) public view returns (bool) {\n        return canEmit[_contractCode];\n    }\n\n    /// @dev Only allowed contracts can call this function ---> means can emit events\n    function created(address _campaign, address _owner) public onlyAllowedContracts{\n    \temit Created(_campaign, _owner);\n    }\n\n    /// @dev Only allowed contracts can call this function ---> means can emit events\n    function joined(address _campaign, address _from, address _to) public onlyAllowedContracts{\n    \temit Joined(_campaign, _from, _to);\n    }\n\n    /// @dev Only allowed contracts can call this function ---> means can emit events\n    function escrow(address _campaign, address _converter, uint256 _tokenID, address _childContractID, uint256 _indexOrAmount, CampaignType _type) public onlyAllowedContracts{\n    \temit Escrow(_campaign, _converter, _tokenID, _childContractID, _indexOrAmount, _type);\n    }\n\n    /// @dev Only allowed contracts can call this function ---> means can emit events\n    function rewarded(address _campaign, address _to, uint256 _amount) public onlyAllowedContracts {\n    \temit Rewarded(_campaign, _to, _amount);\n\t}\n\n    /// @dev Only allowed contracts can call this function ---> means can emit events\n\tfunction fulfilled(address  _campaign, address _converter, uint256 _tokenID, address _childContractID, uint256 _indexOrAmount, CampaignType _type) public onlyAllowedContracts {\n\t\temit Fulfilled(_campaign, _converter, _tokenID, _childContractID, _indexOrAmount, _type);\n\t}\n\n    /// @dev Only allowed contracts can call this function ---> means can emit events\n\tfunction cancelled(address  _campaign, address _converter, uint256 _tokenID, address _childContractID, uint256 _indexOrAmount, CampaignType _type) public onlyAllowedContracts{\n\t\temit Cancelled(_campaign, _converter, _tokenID, _childContractID, _indexOrAmount, _type);\n\t}\n\n\n    function getAdmin() public view returns (address) {\n        return address(twoKeyAdmin);\n    }\n\n    function checkIsAuthorized(address _subAdmin) public view returns (bool) {\n        return authorizedSubadmins[_subAdmin];\n    }\n}",
  "sourcePath": "/Users/nikolamadjarevic/Desktop/2key/contracts/contracts/2key/TwoKeyEventSource.sol",
  "compiler": {
    "name": "solc",
    "version": "0.4.24+commit.e67f0147.Emscripten.clang"
  },
  "schemaVersion": "2.0.1",
  "updatedAt": "2018-08-28T16:35:42.237Z"
}