{
  "contractName": "TwoKeyAcquisitionCampaignERC20",
  "abi": [
    {
      "constant": true,
      "inputs": [
        {
          "name": "",
          "type": "address"
        }
      ],
      "name": "units",
      "outputs": [
        {
          "name": "",
          "type": "uint256"
        }
      ],
      "payable": false,
      "stateMutability": "view",
      "type": "function"
    },
    {
      "constant": true,
      "inputs": [],
      "name": "name",
      "outputs": [
        {
          "name": "",
          "type": "string"
        }
      ],
      "payable": false,
      "stateMutability": "view",
      "type": "function"
    },
    {
      "constant": false,
      "inputs": [
        {
          "name": "_spender",
          "type": "address"
        },
        {
          "name": "_value",
          "type": "uint256"
        }
      ],
      "name": "approve",
      "outputs": [
        {
          "name": "",
          "type": "bool"
        }
      ],
      "payable": false,
      "stateMutability": "nonpayable",
      "type": "function"
    },
    {
      "constant": false,
      "inputs": [
        {
          "name": "_to",
          "type": "address"
        },
        {
          "name": "_value",
          "type": "uint256"
        }
      ],
      "name": "transferQuota",
      "outputs": [
        {
          "name": "",
          "type": "bool"
        }
      ],
      "payable": false,
      "stateMutability": "nonpayable",
      "type": "function"
    },
    {
      "constant": true,
      "inputs": [],
      "name": "cost",
      "outputs": [
        {
          "name": "",
          "type": "uint256"
        }
      ],
      "payable": false,
      "stateMutability": "view",
      "type": "function"
    },
    {
      "constant": true,
      "inputs": [
        {
          "name": "c",
          "type": "address"
        },
        {
          "name": "_method",
          "type": "bytes"
        },
        {
          "name": "_val",
          "type": "uint256"
        }
      ],
      "name": "call_return",
      "outputs": [
        {
          "name": "answer",
          "type": "uint256"
        }
      ],
      "payable": false,
      "stateMutability": "view",
      "type": "function"
    },
    {
      "constant": true,
      "inputs": [],
      "name": "totalSupply",
      "outputs": [
        {
          "name": "",
          "type": "uint256"
        }
      ],
      "payable": false,
      "stateMutability": "view",
      "type": "function"
    },
    {
      "constant": false,
      "inputs": [
        {
          "name": "_from",
          "type": "address"
        },
        {
          "name": "_to",
          "type": "address"
        },
        {
          "name": "_value",
          "type": "uint256"
        }
      ],
      "name": "transferFrom",
      "outputs": [
        {
          "name": "",
          "type": "bool"
        }
      ],
      "payable": false,
      "stateMutability": "nonpayable",
      "type": "function"
    },
    {
      "constant": true,
      "inputs": [
        {
          "name": "",
          "type": "address"
        }
      ],
      "name": "received_from",
      "outputs": [
        {
          "name": "",
          "type": "address"
        }
      ],
      "payable": false,
      "stateMutability": "view",
      "type": "function"
    },
    {
      "constant": true,
      "inputs": [],
      "name": "decimals",
      "outputs": [
        {
          "name": "",
          "type": "uint8"
        }
      ],
      "payable": false,
      "stateMutability": "view",
      "type": "function"
    },
    {
      "constant": true,
      "inputs": [
        {
          "name": "",
          "type": "address"
        }
      ],
      "name": "public_link_key",
      "outputs": [
        {
          "name": "",
          "type": "address"
        }
      ],
      "payable": false,
      "stateMutability": "view",
      "type": "function"
    },
    {
      "constant": false,
      "inputs": [
        {
          "name": "_from",
          "type": "address"
        },
        {
          "name": "_to",
          "type": "address"
        },
        {
          "name": "_value",
          "type": "uint256"
        }
      ],
      "name": "transferFromQuota",
      "outputs": [
        {
          "name": "",
          "type": "bool"
        }
      ],
      "payable": false,
      "stateMutability": "nonpayable",
      "type": "function"
    },
    {
      "constant": false,
      "inputs": [
        {
          "name": "_spender",
          "type": "address"
        },
        {
          "name": "_subtractedValue",
          "type": "uint256"
        }
      ],
      "name": "decreaseApproval",
      "outputs": [
        {
          "name": "",
          "type": "bool"
        }
      ],
      "payable": false,
      "stateMutability": "nonpayable",
      "type": "function"
    },
    {
      "constant": true,
      "inputs": [
        {
          "name": "_owner",
          "type": "address"
        }
      ],
      "name": "balanceOf",
      "outputs": [
        {
          "name": "",
          "type": "uint256"
        }
      ],
      "payable": false,
      "stateMutability": "view",
      "type": "function"
    },
    {
      "constant": true,
      "inputs": [],
      "name": "ipfs_hash",
      "outputs": [
        {
          "name": "",
          "type": "string"
        }
      ],
      "payable": false,
      "stateMutability": "view",
      "type": "function"
    },
    {
      "constant": true,
      "inputs": [],
      "name": "bounty",
      "outputs": [
        {
          "name": "",
          "type": "uint256"
        }
      ],
      "payable": false,
      "stateMutability": "view",
      "type": "function"
    },
    {
      "constant": true,
      "inputs": [],
      "name": "symbol",
      "outputs": [
        {
          "name": "",
          "type": "string"
        }
      ],
      "payable": false,
      "stateMutability": "view",
      "type": "function"
    },
    {
      "constant": true,
      "inputs": [
        {
          "name": "",
          "type": "address"
        }
      ],
      "name": "influencer2cut",
      "outputs": [
        {
          "name": "",
          "type": "uint256"
        }
      ],
      "payable": false,
      "stateMutability": "view",
      "type": "function"
    },
    {
      "constant": false,
      "inputs": [
        {
          "name": "_to",
          "type": "address"
        },
        {
          "name": "_value",
          "type": "uint256"
        }
      ],
      "name": "transfer",
      "outputs": [
        {
          "name": "",
          "type": "bool"
        }
      ],
      "payable": false,
      "stateMutability": "nonpayable",
      "type": "function"
    },
    {
      "constant": true,
      "inputs": [],
      "name": "quota",
      "outputs": [
        {
          "name": "",
          "type": "uint256"
        }
      ],
      "payable": false,
      "stateMutability": "view",
      "type": "function"
    },
    {
      "constant": false,
      "inputs": [
        {
          "name": "_spender",
          "type": "address"
        },
        {
          "name": "_addedValue",
          "type": "uint256"
        }
      ],
      "name": "increaseApproval",
      "outputs": [
        {
          "name": "",
          "type": "bool"
        }
      ],
      "payable": false,
      "stateMutability": "nonpayable",
      "type": "function"
    },
    {
      "constant": true,
      "inputs": [
        {
          "name": "_owner",
          "type": "address"
        },
        {
          "name": "_spender",
          "type": "address"
        }
      ],
      "name": "allowance",
      "outputs": [
        {
          "name": "",
          "type": "uint256"
        }
      ],
      "payable": false,
      "stateMutability": "view",
      "type": "function"
    },
    {
      "constant": true,
      "inputs": [
        {
          "name": "",
          "type": "address"
        }
      ],
      "name": "conversions",
      "outputs": [
        {
          "name": "from",
          "type": "address"
        },
        {
          "name": "payout",
          "type": "uint256"
        },
        {
          "name": "converter",
          "type": "address"
        },
        {
          "name": "isFulfilled",
          "type": "bool"
        },
        {
          "name": "isCancelled",
          "type": "bool"
        },
        {
          "name": "assetName",
          "type": "string"
        },
        {
          "name": "assetContract",
          "type": "address"
        },
        {
          "name": "amount",
          "type": "uint256"
        },
        {
          "name": "campaignType",
          "type": "uint8"
        },
        {
          "name": "openingTime",
          "type": "uint256"
        },
        {
          "name": "closingTime",
          "type": "uint256"
        }
      ],
      "payable": false,
      "stateMutability": "view",
      "type": "function"
    },
    {
      "inputs": [
        {
          "name": "_twoKeyEventSource",
          "type": "address"
        },
        {
          "name": "_twoKeyEconomy",
          "type": "address"
        },
        {
          "name": "_whitelistInfluencer",
          "type": "address"
        },
        {
          "name": "_whitelistConverter",
          "type": "address"
        },
        {
          "name": "_contractor",
          "type": "address"
        },
        {
          "name": "_moderator",
          "type": "address"
        },
        {
          "name": "_openingTime",
          "type": "uint256"
        },
        {
          "name": "_closingTime",
          "type": "uint256"
        },
        {
          "name": "_expiryConversion",
          "type": "uint256"
        },
        {
          "name": "_escrowPercentage",
          "type": "uint256"
        },
        {
          "name": "_rate",
          "type": "uint256"
        },
        {
          "name": "_maxPi",
          "type": "uint256"
        }
      ],
      "payable": false,
      "stateMutability": "nonpayable",
      "type": "constructor"
    },
    {
      "payable": true,
      "stateMutability": "payable",
      "type": "fallback"
    },
    {
      "anonymous": false,
      "inputs": [
        {
          "indexed": true,
          "name": "to",
          "type": "address"
        },
        {
          "indexed": false,
          "name": "units",
          "type": "uint256"
        }
      ],
      "name": "Fulfilled",
      "type": "event"
    },
    {
      "anonymous": false,
      "inputs": [
        {
          "indexed": true,
          "name": "to",
          "type": "address"
        },
        {
          "indexed": false,
          "name": "amount",
          "type": "uint256"
        }
      ],
      "name": "Rewarded",
      "type": "event"
    },
    {
      "anonymous": false,
      "inputs": [
        {
          "indexed": true,
          "name": "_contract",
          "type": "address"
        }
      ],
      "name": "Expired",
      "type": "event"
    },
    {
      "anonymous": false,
      "inputs": [
        {
          "indexed": false,
          "name": "_sender",
          "type": "address"
        },
        {
          "indexed": false,
          "name": "value",
          "type": "uint256"
        }
      ],
      "name": "ReceivedEther",
      "type": "event"
    },
    {
      "anonymous": false,
      "inputs": [
        {
          "indexed": true,
          "name": "owner",
          "type": "address"
        },
        {
          "indexed": true,
          "name": "spender",
          "type": "address"
        },
        {
          "indexed": false,
          "name": "value",
          "type": "uint256"
        }
      ],
      "name": "Approval",
      "type": "event"
    },
    {
      "anonymous": false,
      "inputs": [
        {
          "indexed": true,
          "name": "from",
          "type": "address"
        },
        {
          "indexed": true,
          "name": "to",
          "type": "address"
        },
        {
          "indexed": false,
          "name": "value",
          "type": "uint256"
        }
      ],
      "name": "Transfer",
      "type": "event"
    },
    {
      "constant": false,
      "inputs": [
        {
          "name": "_assetContract",
          "type": "address"
        }
      ],
      "name": "addAssetContractERC20",
      "outputs": [],
      "payable": false,
      "stateMutability": "nonpayable",
      "type": "function"
    },
    {
      "constant": false,
      "inputs": [
        {
          "name": "_amount",
          "type": "uint256"
        }
      ],
      "name": "addFungibleAsset",
      "outputs": [
        {
          "name": "",
          "type": "bool"
        }
      ],
      "payable": false,
      "stateMutability": "nonpayable",
      "type": "function"
    },
    {
      "constant": true,
      "inputs": [],
      "name": "checkInventoryBalance",
      "outputs": [
        {
          "name": "",
          "type": "uint256"
        }
      ],
      "payable": false,
      "stateMutability": "view",
      "type": "function"
    },
    {
      "constant": false,
      "inputs": [],
      "name": "checkAndUpdateInventoryBalance",
      "outputs": [
        {
          "name": "",
          "type": "uint256"
        }
      ],
      "payable": false,
      "stateMutability": "nonpayable",
      "type": "function"
    },
    {
      "constant": false,
      "inputs": [
        {
          "name": "_from",
          "type": "address"
        },
        {
          "name": "_assetName",
          "type": "string"
        },
        {
          "name": "_assetContract",
          "type": "address"
        },
        {
          "name": "_amount",
          "type": "uint256"
        }
      ],
      "name": "buyFromWithTwoKey",
      "outputs": [],
      "payable": true,
      "stateMutability": "payable",
      "type": "function"
    },
    {
      "constant": false,
      "inputs": [
        {
          "name": "_tokenID",
          "type": "uint256"
        },
        {
          "name": "_assetContract",
          "type": "address"
        },
        {
          "name": "_amount",
          "type": "uint256"
        }
      ],
      "name": "transferAssetTwoKeyToken",
      "outputs": [],
      "payable": false,
      "stateMutability": "nonpayable",
      "type": "function"
    },
    {
      "constant": false,
      "inputs": [
        {
          "name": "_converter",
          "type": "address"
        },
        {
          "name": "_assetName",
          "type": "string"
        },
        {
          "name": "_assetContract",
          "type": "address"
        },
        {
          "name": "_amount",
          "type": "uint256"
        }
      ],
      "name": "cancelAssetTwoKey",
      "outputs": [
        {
          "name": "",
          "type": "bool"
        }
      ],
      "payable": false,
      "stateMutability": "nonpayable",
      "type": "function"
    },
    {
      "constant": false,
      "inputs": [
        {
          "name": "_converter",
          "type": "address"
        },
        {
          "name": "_assetContract",
          "type": "address"
        },
        {
          "name": "_amount",
          "type": "uint256"
        }
      ],
      "name": "expireEscrow",
      "outputs": [
        {
          "name": "",
          "type": "bool"
        }
      ],
      "payable": false,
      "stateMutability": "nonpayable",
      "type": "function"
    },
    {
      "constant": false,
      "inputs": [
        {
          "name": "_amount",
          "type": "uint256"
        }
      ],
      "name": "redeemTwoKeyToken",
      "outputs": [],
      "payable": false,
      "stateMutability": "nonpayable",
      "type": "function"
    },
    {
      "constant": true,
      "inputs": [
        {
          "name": "_from",
          "type": "address"
        }
      ],
      "name": "checkAmountAddressSent",
      "outputs": [
        {
          "name": "",
          "type": "uint256"
        }
      ],
      "payable": false,
      "stateMutability": "view",
      "type": "function"
    },
    {
      "constant": true,
      "inputs": [],
      "name": "getContractBalance",
      "outputs": [
        {
          "name": "",
          "type": "uint256"
        }
      ],
      "payable": false,
      "stateMutability": "view",
      "type": "function"
    },
    {
      "constant": true,
      "inputs": [],
      "name": "getAssetContractAddress",
      "outputs": [
        {
          "name": "",
          "type": "address"
        }
      ],
      "payable": false,
      "stateMutability": "view",
      "type": "function"
    },
    {
      "constant": false,
      "inputs": [
        {
          "name": "_public_link_key",
          "type": "address"
        }
      ],
      "name": "setPublicLinkKey",
      "outputs": [],
      "payable": false,
      "stateMutability": "nonpayable",
      "type": "function"
    },
    {
      "constant": true,
      "inputs": [
        {
          "name": "last_influencer",
          "type": "address"
        }
      ],
      "name": "getCuts",
      "outputs": [
        {
          "name": "",
          "type": "uint256[]"
        }
      ],
      "payable": false,
      "stateMutability": "view",
      "type": "function"
    },
    {
      "constant": false,
      "inputs": [
        {
          "name": "sig",
          "type": "bytes"
        }
      ],
      "name": "transferSig",
      "outputs": [],
      "payable": false,
      "stateMutability": "nonpayable",
      "type": "function"
    },
    {
      "constant": false,
      "inputs": [],
      "name": "buyProduct",
      "outputs": [],
      "payable": true,
      "stateMutability": "payable",
      "type": "function"
    },
    {
      "constant": false,
      "inputs": [
        {
          "name": "_units",
          "type": "uint256"
        },
        {
          "name": "_bounty",
          "type": "uint256"
        }
      ],
      "name": "updateRefchainRewardsAndConverterProceeds",
      "outputs": [],
      "payable": true,
      "stateMutability": "payable",
      "type": "function"
    }
  ],
  "bytecode": "0x6080604052620f42406003556000600d60006101000a81548160ff021916908360ff1602179055503480156200003457600080fd5b50604051610180806200649e8339810180604052810190808051906020019092919080519060200190929190805190602001909291908051906020019092919080519060200190929190805190602001909291908051906020019092919080519060200190929190805190602001909291908051906020019092919080519060200190929190805190602001909291905050508b88600073ffffffffffffffffffffffffffffffffffffffff168273ffffffffffffffffffffffffffffffffffffffff16141515156200010657600080fd5b80600760006101000a81548173ffffffffffffffffffffffffffffffffffffffff021916908373ffffffffffffffffffffffffffffffffffffffff16021790555081600660006101000a81548173ffffffffffffffffffffffffffffffffffffffff021916908373ffffffffffffffffffffffffffffffffffffffff1602179055505050600073ffffffffffffffffffffffffffffffffffffffff168b73ffffffffffffffffffffffffffffffffffffffff1614151515620001c757600080fd5b600073ffffffffffffffffffffffffffffffffffffffff168a73ffffffffffffffffffffffffffffffffffffffff16141515156200020457600080fd5b600073ffffffffffffffffffffffffffffffffffffffff168973ffffffffffffffffffffffffffffffffffffffff16141515156200024157600080fd5b6000821115156200025157600080fd5b6000811115156200026157600080fd5b8a601a60006101000a81548173ffffffffffffffffffffffffffffffffffffffff021916908373ffffffffffffffffffffffffffffffffffffffff16021790555089601b60006101000a81548173ffffffffffffffffffffffffffffffffffffffff021916908373ffffffffffffffffffffffffffffffffffffffff16021790555088601c60006101000a81548173ffffffffffffffffffffffffffffffffffffffff021916908373ffffffffffffffffffffffffffffffffffffffff16021790555086602160006101000a81548173ffffffffffffffffffffffffffffffffffffffff021916908373ffffffffffffffffffffffffffffffffffffffff16021790555085601f8190555084602081905550836022819055508260238190555080602481905550600660009054906101000a900473ffffffffffffffffffffffffffffffffffffffff1673ffffffffffffffffffffffffffffffffffffffff16631d18658430600760009054906101000a900473ffffffffffffffffffffffffffffffffffffffff166040518363ffffffff167c0100000000000000000000000000000000000000000000000000000000028152600401808373ffffffffffffffffffffffffffffffffffffffff1673ffffffffffffffffffffffffffffffffffffffff1681526020018273ffffffffffffffffffffffffffffffffffffffff1673ffffffffffffffffffffffffffffffffffffffff16815260200192505050600060405180830381600087803b1580156200049c57600080fd5b505af1158015620004b1573d6000803e3d6000fd5b50505050505050505050505050505050615fcd80620004d16000396000f3006080604052600436106101ed576000357c0100000000000000000000000000000000000000000000000000000000900463ffffffff168062eba350146102b657806306fdde031461030d578063095ea7b31461039d57806311abc0ca1461040257806312d0ba911461046757806313faede6146104be57806314b1adee146104e957806318160ddd146105905780631b781a8b146105bb57806323b872dd146106245780632d376e94146106a9578063313ce5671461072c57806332c9b1831461075d578063383d0d06146107b4578063442e97dd146108375780634d77c9c8146108bc57806366188463146108e75780636959f83e1461094c5780636f9fb98a1461098f57806370a08231146109ba578063714cf66b14610a11578063809051db14610a56578063943dfef114610ae657806395d89b4114610b115780639ada9b7b14610ba15780639dc464ae14610bab578063a9059cbb14610c02578063b22e8eb614610c67578063c15efea314610cbe578063cacb670814610d43578063cebe09c914610d70578063d1ec779f14610d9b578063d4d2805614610dde578063d73dd62314610e09578063d851b22914610e6e578063dca6bcdc14610f06578063dd62ed3e14610fac578063dfa54f6614611023578063e59f04121461104d578063ff3e6f29146111e9575b6000341115156101fc57600080fd5b34601460003373ffffffffffffffffffffffffffffffffffffffff1673ffffffffffffffffffffffffffffffffffffffff168152602001908152602001600020600082825401925050819055507fa419615bc8fda4c87663805ee2a3597a6d71c1d476911d9892f340d965bc7bf13334604051808373ffffffffffffffffffffffffffffffffffffffff1673ffffffffffffffffffffffffffffffffffffffff1681526020018281526020019250505060405180910390a1005b3480156102c257600080fd5b506102f7600480360381019080803573ffffffffffffffffffffffffffffffffffffffff1690602001909291905050506112b4565b6040518082815260200191505060405180910390f35b34801561031957600080fd5b506103226112cc565b6040518080602001828103825283818151815260200191508051906020019080838360005b83811015610362578082015181840152602081019050610347565b50505050905090810190601f16801561038f5780820380516001836020036101000a031916815260200191505b509250505060405180910390f35b3480156103a957600080fd5b506103e8600480360381019080803573ffffffffffffffffffffffffffffffffffffffff1690602001909291908035906020019092919050505061136a565b604051808215151515815260200191505060405180910390f35b34801561040e57600080fd5b5061044d600480360381019080803573ffffffffffffffffffffffffffffffffffffffff1690602001909291908035906020019092919050505061145c565b604051808215151515815260200191505060405180910390f35b34801561047357600080fd5b506104bc60048036038101908080359060200190929190803573ffffffffffffffffffffffffffffffffffffffff169060200190929190803590602001909291905050506116b1565b005b3480156104ca57600080fd5b506104d3611a7b565b6040518082815260200191505060405180910390f35b3480156104f557600080fd5b5061057a600480360381019080803573ffffffffffffffffffffffffffffffffffffffff169060200190929190803590602001908201803590602001908080601f016020809104026020016040519081016040528093929190818152602001838380828437820191505050505050919291929080359060200190929190505050611a81565b6040518082815260200191505060405180910390f35b34801561059c57600080fd5b506105a5611b25565b6040518082815260200191505060405180910390f35b3480156105c757600080fd5b50610622600480360381019080803590602001908201803590602001908080601f0160208091040260200160405190810160405280939291908181526020018383808284378201915050505050509192919290505050611b2f565b005b34801561063057600080fd5b5061068f600480360381019080803573ffffffffffffffffffffffffffffffffffffffff169060200190929190803573ffffffffffffffffffffffffffffffffffffffff1690602001909291908035906020019092919050505061215d565b604051808215151515815260200191505060405180910390f35b3480156106b557600080fd5b506106ea600480360381019080803573ffffffffffffffffffffffffffffffffffffffff1690602001909291905050506124ff565b604051808273ffffffffffffffffffffffffffffffffffffffff1673ffffffffffffffffffffffffffffffffffffffff16815260200191505060405180910390f35b34801561073857600080fd5b50610741612532565b604051808260ff1660ff16815260200191505060405180910390f35b34801561076957600080fd5b50610772612545565b604051808273ffffffffffffffffffffffffffffffffffffffff1673ffffffffffffffffffffffffffffffffffffffff16815260200191505060405180910390f35b3480156107c057600080fd5b506107f5600480360381019080803573ffffffffffffffffffffffffffffffffffffffff16906020019092919050505061256f565b604051808273ffffffffffffffffffffffffffffffffffffffff1673ffffffffffffffffffffffffffffffffffffffff16815260200191505060405180910390f35b34801561084357600080fd5b506108a2600480360381019080803573ffffffffffffffffffffffffffffffffffffffff169060200190929190803573ffffffffffffffffffffffffffffffffffffffff169060200190929190803590602001909291905050506125a2565b604051808215151515815260200191505060405180910390f35b3480156108c857600080fd5b506108d1612992565b6040518082815260200191505060405180910390f35b3480156108f357600080fd5b50610932600480360381019080803573ffffffffffffffffffffffffffffffffffffffff16906020019092919080359060200190929190505050612a16565b604051808215151515815260200191505060405180910390f35b34801561095857600080fd5b5061098d600480360381019080803573ffffffffffffffffffffffffffffffffffffffff169060200190929190505050612ca8565b005b34801561099b57600080fd5b506109a4612cec565b6040518082815260200191505060405180910390f35b3480156109c657600080fd5b506109fb600480360381019080803573ffffffffffffffffffffffffffffffffffffffff169060200190929190505050612cf6565b6040518082815260200191505060405180910390f35b348015610a1d57600080fd5b50610a3c60048036038101908080359060200190929190505050612d3e565b604051808215151515815260200191505060405180910390f35b348015610a6257600080fd5b50610a6b612ecc565b6040518080602001828103825283818151815260200191508051906020019080838360005b83811015610aab578082015181840152602081019050610a90565b50505050905090810190601f168015610ad85780820380516001836020036101000a031916815260200191505b509250505060405180910390f35b348015610af257600080fd5b50610afb612f6a565b6040518082815260200191505060405180910390f35b348015610b1d57600080fd5b50610b26612f70565b6040518080602001828103825283818151815260200191508051906020019080838360005b83811015610b66578082015181840152602081019050610b4b565b50505050905090810190601f168015610b935780820380516001836020036101000a031916815260200191505b509250505060405180910390f35b610ba961300e565b005b348015610bb757600080fd5b50610bec600480360381019080803573ffffffffffffffffffffffffffffffffffffffff16906020019092919050505061319c565b6040518082815260200191505060405180910390f35b348015610c0e57600080fd5b50610c4d600480360381019080803573ffffffffffffffffffffffffffffffffffffffff169060200190929190803590602001909291905050506131b4565b604051808215151515815260200191505060405180910390f35b348015610c7357600080fd5b50610ca8600480360381019080803573ffffffffffffffffffffffffffffffffffffffff169060200190929190505050613496565b6040518082815260200191505060405180910390f35b348015610cca57600080fd5b50610d29600480360381019080803573ffffffffffffffffffffffffffffffffffffffff169060200190929190803573ffffffffffffffffffffffffffffffffffffffff169060200190929190803590602001909291905050506134df565b604051808215151515815260200191505060405180910390f35b348015610d4f57600080fd5b50610d6e600480360381019080803590602001909291905050506137f2565b005b348015610d7c57600080fd5b50610d85613a19565b6040518082815260200191505060405180910390f35b348015610da757600080fd5b50610ddc600480360381019080803573ffffffffffffffffffffffffffffffffffffffff169060200190929190505050613a1f565b005b348015610dea57600080fd5b50610df3613b57565b6040518082815260200191505060405180910390f35b348015610e1557600080fd5b50610e54600480360381019080803573ffffffffffffffffffffffffffffffffffffffff16906020019092919080359060200190929190505050613b72565b604051808215151515815260200191505060405180910390f35b348015610e7a57600080fd5b50610eaf600480360381019080803573ffffffffffffffffffffffffffffffffffffffff169060200190929190505050613d6e565b6040518080602001828103825283818151815260200191508051906020019060200280838360005b83811015610ef2578082015181840152602081019050610ed7565b505050509050019250505060405180910390f35b610faa600480360381019080803573ffffffffffffffffffffffffffffffffffffffff169060200190929190803590602001908201803590602001908080601f0160208091040260200160405190810160405280939291908181526020018383808284378201915050505050509192919290803573ffffffffffffffffffffffffffffffffffffffff16906020019092919080359060200190929190505050613eb5565b005b348015610fb857600080fd5b5061100d600480360381019080803573ffffffffffffffffffffffffffffffffffffffff169060200190929190803573ffffffffffffffffffffffffffffffffffffffff169060200190929190505050613ec7565b6040518082815260200191505060405180910390f35b61104b6004803603810190808035906020019092919080359060200190929190505050613f4e565b005b34801561105957600080fd5b5061108e600480360381019080803573ffffffffffffffffffffffffffffffffffffffff169060200190929190505050614318565b604051808c73ffffffffffffffffffffffffffffffffffffffff1673ffffffffffffffffffffffffffffffffffffffff1681526020018b81526020018a73ffffffffffffffffffffffffffffffffffffffff1673ffffffffffffffffffffffffffffffffffffffff1681526020018915151515815260200188151515158152602001806020018773ffffffffffffffffffffffffffffffffffffffff1673ffffffffffffffffffffffffffffffffffffffff16815260200186815260200185600781111561115857fe5b60ff168152602001848152602001838152602001828103825288818151815260200191508051906020019080838360005b838110156111a4578082015181840152602081019050611189565b50505050905090810190601f1680156111d15780820380516001836020036101000a031916815260200191505b509c5050505050505050505050505060405180910390f35b3480156111f557600080fd5b5061129a600480360381019080803573ffffffffffffffffffffffffffffffffffffffff169060200190929190803590602001908201803590602001908080601f0160208091040260200160405190810160405280939291908181526020018383808284378201915050505050509192919290803573ffffffffffffffffffffffffffffffffffffffff16906020019092919080359060200190929190505050614491565b604051808215151515815260200191505060405180910390f35b60156020528060005260406000206000915090505481565b600a8054600181600116156101000203166002900480601f0160208091040260200160405190810160405280929190818152602001828054600181600116156101000203166002900480156113625780601f1061133757610100808354040283529160200191611362565b820191906000526020600020905b81548152906001019060200180831161134557829003601f168201915b505050505081565b600081600260003373ffffffffffffffffffffffffffffffffffffffff1673ffffffffffffffffffffffffffffffffffffffff16815260200190815260200160002060008573ffffffffffffffffffffffffffffffffffffffff1673ffffffffffffffffffffffffffffffffffffffff168152602001908152602001600020819055508273ffffffffffffffffffffffffffffffffffffffff163373ffffffffffffffffffffffffffffffffffffffff167f8c5be1e5ebec7d5bd14f71427d1e84f3dd0314c0f7b2291e5b200ac8c7c3b925846040518082815260200191505060405180910390a36001905092915050565b60008073ffffffffffffffffffffffffffffffffffffffff168373ffffffffffffffffffffffffffffffffffffffff161415151561149957600080fd5b6000803373ffffffffffffffffffffffffffffffffffffffff1673ffffffffffffffffffffffffffffffffffffffff1681526020019081526020016000205482111515156114e657600080fd5b611537826000803373ffffffffffffffffffffffffffffffffffffffff1673ffffffffffffffffffffffffffffffffffffffff1681526020019081526020016000205461491890919063ffffffff16565b6000803373ffffffffffffffffffffffffffffffffffffffff1673ffffffffffffffffffffffffffffffffffffffff168152602001908152602001600020819055506115ce60085483026000808673ffffffffffffffffffffffffffffffffffffffff1673ffffffffffffffffffffffffffffffffffffffff1681526020019081526020016000205461493190919063ffffffff16565b6000808573ffffffffffffffffffffffffffffffffffffffff1673ffffffffffffffffffffffffffffffffffffffff1681526020019081526020016000208190555061163c61162b6001600854038461494d90919063ffffffff16565b60035461493190919063ffffffff16565b6003819055508273ffffffffffffffffffffffffffffffffffffffff163373ffffffffffffffffffffffffffffffffffffffff167fddf252ad1be2c89b69c2b068fc378daa952ba7f163c4a11628f55a4df523b3ef846040518082815260200191505060405180910390a36001905092915050565b601c60009054906101000a900473ffffffffffffffffffffffffffffffffffffffff1673ffffffffffffffffffffffffffffffffffffffff16633af32abf336040518263ffffffff167c0100000000000000000000000000000000000000000000000000000000028152600401808273ffffffffffffffffffffffffffffffffffffffff1673ffffffffffffffffffffffffffffffffffffffff168152602001915050602060405180830381600087803b15801561176e57600080fd5b505af1158015611782573d6000803e3d6000fd5b505050506040513d602081101561179857600080fd5b810190808051906020019092919050505015156117b457600080fd5b6117bc615e50565b601260003373ffffffffffffffffffffffffffffffffffffffff1673ffffffffffffffffffffffffffffffffffffffff16815260200190815260200160002061016060405190810160405290816000820160009054906101000a900473ffffffffffffffffffffffffffffffffffffffff1673ffffffffffffffffffffffffffffffffffffffff1673ffffffffffffffffffffffffffffffffffffffff168152602001600182015481526020016002820160009054906101000a900473ffffffffffffffffffffffffffffffffffffffff1673ffffffffffffffffffffffffffffffffffffffff1673ffffffffffffffffffffffffffffffffffffffff1681526020016002820160149054906101000a900460ff161515151581526020016002820160159054906101000a900460ff16151515158152602001600382018054600181600116156101000203166002900480601f01602080910402602001604051908101604052809291908181526020018280546001816001161561010002031660029004801561198d5780601f106119625761010080835404028352916020019161198d565b820191906000526020600020905b81548152906001019060200180831161197057829003601f168201915b505050505081526020016004820160009054906101000a900473ffffffffffffffffffffffffffffffffffffffff1673ffffffffffffffffffffffffffffffffffffffff1673ffffffffffffffffffffffffffffffffffffffff168152602001600582015481526020016006820160009054906101000a900460ff166007811115611a1457fe5b6007811115611a1f57fe5b81526020016007820154815260200160088201548152505090508060600151158015611a4d57508060800151155b1515611a5857600080fd5b611a60614985565b611a6a33836150d5565b1515611a7557600080fd5b50505050565b600e5481565b600080836040518082805190602001908083835b602083101515611aba5780518252602082019150602081019050602083039250611a95565b6001836020036101000a0380198251168184511680821785525050505050509050019150506040518091039020905060405181815283600482015260208160248360008a613a98f16000811415611b1057600080fd5b81519350602482016040525050509392505050565b6000600154905090565b6000806000806000806000806000806000809a508b5160148c01111515611b5d5760148b019a508a8c015199505b602560008b73ffffffffffffffffffffffffffffffffffffffff1673ffffffffffffffffffffffffffffffffffffffff16815260200190815260200160002060009054906101000a900473ffffffffffffffffffffffffffffffffffffffff169850600073ffffffffffffffffffffffffffffffffffffffff168973ffffffffffffffffffffffffffffffffffffffff1614151515611bfb57600080fd5b5b8b5160418c0111151561214f5760208b019a508a8c0151975060208b019a508a8c0151965060018b019a508a8c015195508b5160298c011015611e8b5760018b019a508a8c0151915060008260ff16111515611c5757600080fd5b60148b019a508a8c0151925060148b019a508a8c015193506000601360008573ffffffffffffffffffffffffffffffffffffffff1673ffffffffffffffffffffffffffffffffffffffff168152602001908152602001600020541415611d03578160ff16601360008573ffffffffffffffffffffffffffffffffffffffff1673ffffffffffffffffffffffffffffffffffffffff16815260200190815260200160002081905550611d54565b8160ff16601360008573ffffffffffffffffffffffffffffffffffffffff1673ffffffffffffffffffffffffffffffffffffffff16815260200190815260200160002054141515611d5357600080fd5b5b818484604051602001808460ff1660ff167f01000000000000000000000000000000000000000000000000000000000000000281526001018373ffffffffffffffffffffffffffffffffffffffff1673ffffffffffffffffffffffffffffffffffffffff166c010000000000000000000000000281526014018273ffffffffffffffffffffffffffffffffffffffff1673ffffffffffffffffffffffffffffffffffffffff166c0100000000000000000000000002815260140193505050506040516020818303038152906040526040518082805190602001908083835b602083101515611e575780518252602082019150602081019050602083039250611e32565b6001836020036101000a03801982511681845116808217855250505050505090500191505060405180910390209450611f5d565b8b518b141515611e9a57600080fd5b33925082604051602001808273ffffffffffffffffffffffffffffffffffffffff1673ffffffffffffffffffffffffffffffffffffffff166c010000000000000000000000000281526014019150506040516020818303038152906040526040518082805190602001908083835b602083101515611f2d5780518252602082019150602081019050602083039250611f08565b6001836020036101000a038019825116818451168082178552505050505050905001915050604051809103902094505b6000600960008573ffffffffffffffffffffffffffffffffffffffff1673ffffffffffffffffffffffffffffffffffffffff16815260200190815260200160002060009054906101000a900473ffffffffffffffffffffffffffffffffffffffff1673ffffffffffffffffffffffffffffffffffffffff161415611fed57611fe78a84600161215d565b50612087565b8973ffffffffffffffffffffffffffffffffffffffff16600960008573ffffffffffffffffffffffffffffffffffffffff1673ffffffffffffffffffffffffffffffffffffffff16815260200190815260200160002060009054906101000a900473ffffffffffffffffffffffffffffffffffffffff1673ffffffffffffffffffffffffffffffffffffffff1614151561208657600080fd5b5b600185878a8a604051600081526020016040526040518085600019166000191681526020018460ff1660ff1681526020018360001916600019168152602001826000191660001916815260200194505050505060206040516020810390808403906000865af11580156120fe573d6000803e3d6000fd5b5050506020604051035190508873ffffffffffffffffffffffffffffffffffffffff168173ffffffffffffffffffffffffffffffffffffffff1614151561214457600080fd5b839850829950611bfc565b505050505050505050505050565b600080600960008573ffffffffffffffffffffffffffffffffffffffff1673ffffffffffffffffffffffffffffffffffffffff16815260200190815260200160002060009054906101000a900473ffffffffffffffffffffffffffffffffffffffff1673ffffffffffffffffffffffffffffffffffffffff161415156121e257600080fd5b600073ffffffffffffffffffffffffffffffffffffffff168473ffffffffffffffffffffffffffffffffffffffff161415151561221e57600080fd5b6001600260008673ffffffffffffffffffffffffffffffffffffffff1673ffffffffffffffffffffffffffffffffffffffff16815260200190815260200160002060003373ffffffffffffffffffffffffffffffffffffffff1673ffffffffffffffffffffffffffffffffffffffff168152602001908152602001600020819055506122ab8484846125a2565b156124f3576000600960008573ffffffffffffffffffffffffffffffffffffffff1673ffffffffffffffffffffffffffffffffffffffff16815260200190815260200160002060009054906101000a900473ffffffffffffffffffffffffffffffffffffffff1673ffffffffffffffffffffffffffffffffffffffff16141561246c57600660009054906101000a900473ffffffffffffffffffffffffffffffffffffffff1673ffffffffffffffffffffffffffffffffffffffff16638af1cbb93086866040518463ffffffff167c0100000000000000000000000000000000000000000000000000000000028152600401808473ffffffffffffffffffffffffffffffffffffffff1673ffffffffffffffffffffffffffffffffffffffff1681526020018373ffffffffffffffffffffffffffffffffffffffff1673ffffffffffffffffffffffffffffffffffffffff1681526020018273ffffffffffffffffffffffffffffffffffffffff1673ffffffffffffffffffffffffffffffffffffffff1681526020019350505050600060405180830381600087803b15801561245357600080fd5b505af1158015612467573d6000803e3d6000fd5b505050505b83600960008573ffffffffffffffffffffffffffffffffffffffff1673ffffffffffffffffffffffffffffffffffffffff16815260200190815260200160002060006101000a81548173ffffffffffffffffffffffffffffffffffffffff021916908373ffffffffffffffffffffffffffffffffffffffff160217905550600190506124f8565b600090505b9392505050565b60096020528060005260406000206000915054906101000a900473ffffffffffffffffffffffffffffffffffffffff1681565b600d60009054906101000a900460ff1681565b6000601760009054906101000a900473ffffffffffffffffffffffffffffffffffffffff16905090565b60256020528060005260406000206000915054906101000a900473ffffffffffffffffffffffffffffffffffffffff1681565b60008073ffffffffffffffffffffffffffffffffffffffff168373ffffffffffffffffffffffffffffffffffffffff16141515156125df57600080fd5b6000808573ffffffffffffffffffffffffffffffffffffffff1673ffffffffffffffffffffffffffffffffffffffff16815260200190815260200160002054821115151561262c57600080fd5b600260008573ffffffffffffffffffffffffffffffffffffffff1673ffffffffffffffffffffffffffffffffffffffff16815260200190815260200160002060003373ffffffffffffffffffffffffffffffffffffffff1673ffffffffffffffffffffffffffffffffffffffff1681526020019081526020016000205482111515156126b757600080fd5b612708826000808773ffffffffffffffffffffffffffffffffffffffff1673ffffffffffffffffffffffffffffffffffffffff1681526020019081526020016000205461491890919063ffffffff16565b6000808673ffffffffffffffffffffffffffffffffffffffff1673ffffffffffffffffffffffffffffffffffffffff1681526020019081526020016000208190555061279f60085483026000808673ffffffffffffffffffffffffffffffffffffffff1673ffffffffffffffffffffffffffffffffffffffff1681526020019081526020016000205461493190919063ffffffff16565b6000808573ffffffffffffffffffffffffffffffffffffffff1673ffffffffffffffffffffffffffffffffffffffff1681526020019081526020016000208190555061280d6127fc6001600854038461494d90919063ffffffff16565b60035461493190919063ffffffff16565b6003819055506128a282600260008773ffffffffffffffffffffffffffffffffffffffff1673ffffffffffffffffffffffffffffffffffffffff16815260200190815260200160002060003373ffffffffffffffffffffffffffffffffffffffff1673ffffffffffffffffffffffffffffffffffffffff1681526020019081526020016000205461491890919063ffffffff16565b600260008673ffffffffffffffffffffffffffffffffffffffff1673ffffffffffffffffffffffffffffffffffffffff16815260200190815260200160002060003373ffffffffffffffffffffffffffffffffffffffff1673ffffffffffffffffffffffffffffffffffffffff168152602001908152602001600020819055508273ffffffffffffffffffffffffffffffffffffffff168473ffffffffffffffffffffffffffffffffffffffff167fddf252ad1be2c89b69c2b068fc378daa952ba7f163c4a11628f55a4df523b3ef846040518082815260200191505060405180910390a3600190509392505050565b600080612a0d601760009054906101000a900473ffffffffffffffffffffffffffffffffffffffff166040805190810160405280601281526020017f62616c616e63654f6628616464726573732900000000000000000000000000008152503073ffffffffffffffffffffffffffffffffffffffff16611a81565b90508091505090565b600080600260003373ffffffffffffffffffffffffffffffffffffffff1673ffffffffffffffffffffffffffffffffffffffff16815260200190815260200160002060008573ffffffffffffffffffffffffffffffffffffffff1673ffffffffffffffffffffffffffffffffffffffff1681526020019081526020016000205490508083101515612b28576000600260003373ffffffffffffffffffffffffffffffffffffffff1673ffffffffffffffffffffffffffffffffffffffff16815260200190815260200160002060008673ffffffffffffffffffffffffffffffffffffffff1673ffffffffffffffffffffffffffffffffffffffff16815260200190815260200160002081905550612bbc565b612b3b838261491890919063ffffffff16565b600260003373ffffffffffffffffffffffffffffffffffffffff1673ffffffffffffffffffffffffffffffffffffffff16815260200190815260200160002060008673ffffffffffffffffffffffffffffffffffffffff1673ffffffffffffffffffffffffffffffffffffffff168152602001908152602001600020819055505b8373ffffffffffffffffffffffffffffffffffffffff163373ffffffffffffffffffffffffffffffffffffffff167f8c5be1e5ebec7d5bd14f71427d1e84f3dd0314c0f7b2291e5b200ac8c7c3b925600260003373ffffffffffffffffffffffffffffffffffffffff1673ffffffffffffffffffffffffffffffffffffffff16815260200190815260200160002060008873ffffffffffffffffffffffffffffffffffffffff1673ffffffffffffffffffffffffffffffffffffffff168152602001908152602001600020546040518082815260200191505060405180910390a3600191505092915050565b80601760006101000a81548173ffffffffffffffffffffffffffffffffffffffff021916908373ffffffffffffffffffffffffffffffffffffffff16021790555050565b6000601654905090565b60008060008373ffffffffffffffffffffffffffffffffffffffff1673ffffffffffffffffffffffffffffffffffffffff168152602001908152602001600020549050919050565b6000601760009054906101000a900473ffffffffffffffffffffffffffffffffffffffff1673ffffffffffffffffffffffffffffffffffffffff1660405180807f7472616e7366657246726f6d28616464726573732c616464726573732c75696e81526020017f7432353629000000000000000000000000000000000000000000000000000000815250602501905060405180910390207c010000000000000000000000000000000000000000000000000000000090043330856040518463ffffffff167c0100000000000000000000000000000000000000000000000000000000028152600401808473ffffffffffffffffffffffffffffffffffffffff1673ffffffffffffffffffffffffffffffffffffffff1681526020018373ffffffffffffffffffffffffffffffffffffffff1673ffffffffffffffffffffffffffffffffffffffff16815260200182815260200193505050506000604051808303816000875af1925050501515612eb357600080fd5b8160166000828254019250508190555060019050919050565b600b8054600181600116156101000203166002900480601f016020809104026020016040519081016040528092919081815260200182805460018160011615610100020316600290048015612f625780601f10612f3757610100808354040283529160200191612f62565b820191906000526020600020905b815481529060010190602001808311612f4557829003601f168201915b505050505081565b600f5481565b600c8054600181600116156101000203166002900480601f0160208091040260200160405190810160405280929190818152602001828054600181600116156101000203166002900480156130065780601f10612fdb57610100808354040283529160200191613006565b820191906000526020600020905b815481529060010190602001808311612fe957829003601f168201915b505050505081565b6000806012601181905550613045600e54613037601154600a0a3461494d90919063ffffffff16565b6150e990919063ffffffff16565b9150613073601154600a0a61306584600f5461494d90919063ffffffff16565b6150e990919063ffffffff16565b905061307f8282613f4e565b601760009054906101000a900473ffffffffffffffffffffffffffffffffffffffff1673ffffffffffffffffffffffffffffffffffffffff1660405180807f7472616e7366657228616464726573732c75696e743235362900000000000000815250601901905060405180910390207c0100000000000000000000000000000000000000000000000000000000900433846040518363ffffffff167c0100000000000000000000000000000000000000000000000000000000028152600401808373ffffffffffffffffffffffffffffffffffffffff1673ffffffffffffffffffffffffffffffffffffffff168152602001828152602001925050506000604051808303816000875af192505050151561319857600080fd5b5050565b60136020528060005260406000206000915090505481565b600080600960008573ffffffffffffffffffffffffffffffffffffffff1673ffffffffffffffffffffffffffffffffffffffff16815260200190815260200160002060009054906101000a900473ffffffffffffffffffffffffffffffffffffffff1673ffffffffffffffffffffffffffffffffffffffff1614151561323957600080fd5b613243838361145c565b1561348b576000600960008573ffffffffffffffffffffffffffffffffffffffff1673ffffffffffffffffffffffffffffffffffffffff16815260200190815260200160002060009054906101000a900473ffffffffffffffffffffffffffffffffffffffff1673ffffffffffffffffffffffffffffffffffffffff16141561340457600660009054906101000a900473ffffffffffffffffffffffffffffffffffffffff1673ffffffffffffffffffffffffffffffffffffffff16638af1cbb93033866040518463ffffffff167c0100000000000000000000000000000000000000000000000000000000028152600401808473ffffffffffffffffffffffffffffffffffffffff1673ffffffffffffffffffffffffffffffffffffffff1681526020018373ffffffffffffffffffffffffffffffffffffffff1673ffffffffffffffffffffffffffffffffffffffff1681526020018273ffffffffffffffffffffffffffffffffffffffff1673ffffffffffffffffffffffffffffffffffffffff1681526020019350505050600060405180830381600087803b1580156133eb57600080fd5b505af11580156133ff573d6000803e3d6000fd5b505050505b33600960008573ffffffffffffffffffffffffffffffffffffffff1673ffffffffffffffffffffffffffffffffffffffff16815260200190815260200160002060006101000a81548173ffffffffffffffffffffffffffffffffffffffff021916908373ffffffffffffffffffffffffffffffffffffffff16021790555060019050613490565b600090505b92915050565b6000601460008373ffffffffffffffffffffffffffffffffffffffff1673ffffffffffffffffffffffffffffffffffffffff168152602001908152602001600020549050919050565b60006134e9615e50565b601260008673ffffffffffffffffffffffffffffffffffffffff1673ffffffffffffffffffffffffffffffffffffffff16815260200190815260200160002061016060405190810160405290816000820160009054906101000a900473ffffffffffffffffffffffffffffffffffffffff1673ffffffffffffffffffffffffffffffffffffffff1673ffffffffffffffffffffffffffffffffffffffff168152602001600182015481526020016002820160009054906101000a900473ffffffffffffffffffffffffffffffffffffffff1673ffffffffffffffffffffffffffffffffffffffff1673ffffffffffffffffffffffffffffffffffffffff1681526020016002820160149054906101000a900460ff161515151581526020016002820160159054906101000a900460ff16151515158152602001600382018054600181600116156101000203166002900480601f0160208091040260200160405190810160405280929190818152602001828054600181600116156101000203166002900480156136ba5780601f1061368f576101008083540402835291602001916136ba565b820191906000526020600020905b81548152906001019060200180831161369d57829003601f168201915b505050505081526020016004820160009054906101000a900473ffffffffffffffffffffffffffffffffffffffff1673ffffffffffffffffffffffffffffffffffffffff1673ffffffffffffffffffffffffffffffffffffffff168152602001600582015481526020016006820160009054906101000a900460ff16600781111561374157fe5b600781111561374c57fe5b8152602001600782015481526020016008820154815250509050806080015115801561377a57508060600151155b151561378557600080fd5b8061014001514211151561379857600080fd5b6137a38585856150ff565b3073ffffffffffffffffffffffffffffffffffffffff167fd5669ebe8b90ed693033f1915dcea031e7a16a6f146a8326c02eec10eed77edd60405160405180910390a260019150509392505050565b80600460003373ffffffffffffffffffffffffffffffffffffffff1673ffffffffffffffffffffffffffffffffffffffff16815260200190815260200160002054101580156138415750600081115b151561384c57600080fd5b61389e81600460003373ffffffffffffffffffffffffffffffffffffffff1673ffffffffffffffffffffffffffffffffffffffff1681526020019081526020016000205461491890919063ffffffff16565b600460003373ffffffffffffffffffffffffffffffffffffffff1673ffffffffffffffffffffffffffffffffffffffff16815260200190815260200160002081905550601a60009054906101000a900473ffffffffffffffffffffffffffffffffffffffff1673ffffffffffffffffffffffffffffffffffffffff166323b872dd3033846040518463ffffffff167c0100000000000000000000000000000000000000000000000000000000028152600401808473ffffffffffffffffffffffffffffffffffffffff1673ffffffffffffffffffffffffffffffffffffffff1681526020018373ffffffffffffffffffffffffffffffffffffffff1673ffffffffffffffffffffffffffffffffffffffff1681526020018281526020019350505050602060405180830381600087803b1580156139da57600080fd5b505af11580156139ee573d6000803e3d6000fd5b505050506040513d6020811015613a0457600080fd5b81019080805190602001909291905050505050565b60105481565b60003390506000613a2f82612cf6565b111515613a3b57600080fd5b600073ffffffffffffffffffffffffffffffffffffffff16602560008373ffffffffffffffffffffffffffffffffffffffff1673ffffffffffffffffffffffffffffffffffffffff16815260200190815260200160002060009054906101000a900473ffffffffffffffffffffffffffffffffffffffff1673ffffffffffffffffffffffffffffffffffffffff16141515613ad557600080fd5b81602560008373ffffffffffffffffffffffffffffffffffffffff1673ffffffffffffffffffffffffffffffffffffffff16815260200190815260200160002060006101000a81548173ffffffffffffffffffffffffffffffffffffffff021916908373ffffffffffffffffffffffffffffffffffffffff1602179055505050565b600080613b62612992565b9050806016819055508091505090565b6000613c0382600260003373ffffffffffffffffffffffffffffffffffffffff1673ffffffffffffffffffffffffffffffffffffffff16815260200190815260200160002060008673ffffffffffffffffffffffffffffffffffffffff1673ffffffffffffffffffffffffffffffffffffffff1681526020019081526020016000205461493190919063ffffffff16565b600260003373ffffffffffffffffffffffffffffffffffffffff1673ffffffffffffffffffffffffffffffffffffffff16815260200190815260200160002060008573ffffffffffffffffffffffffffffffffffffffff1673ffffffffffffffffffffffffffffffffffffffff168152602001908152602001600020819055508273ffffffffffffffffffffffffffffffffffffffff163373ffffffffffffffffffffffffffffffffffffffff167f8c5be1e5ebec7d5bd14f71427d1e84f3dd0314c0f7b2291e5b200ac8c7c3b925600260003373ffffffffffffffffffffffffffffffffffffffff1673ffffffffffffffffffffffffffffffffffffffff16815260200190815260200160002060008773ffffffffffffffffffffffffffffffffffffffff1673ffffffffffffffffffffffffffffffffffffffff168152602001908152602001600020546040518082815260200191505060405180910390a36001905092915050565b60608060006060600080613d8187615691565b94508451935060018401604051908082528060200260200182016040528015613db95781602001602082028038833980820191505090505b509250600091505b83821015613e4c578482815181101515613dd757fe5b906020019060200201519050601360008273ffffffffffffffffffffffffffffffffffffffff1673ffffffffffffffffffffffffffffffffffffffff168152602001908152602001600020548383815181101515613e3157fe5b90602001906020020181815250508180600101925050613dc1565b601360008873ffffffffffffffffffffffffffffffffffffffff1673ffffffffffffffffffffffffffffffffffffffff168152602001908152602001600020548385815181101515613e9a57fe5b90602001906020020181815250508295505050505050919050565b613ec184848484615876565b50505050565b6000600260008473ffffffffffffffffffffffffffffffffffffffff1673ffffffffffffffffffffffffffffffffffffffff16815260200190815260200160002060008373ffffffffffffffffffffffffffffffffffffffff1673ffffffffffffffffffffffffffffffffffffffff16815260200190815260200160002054905092915050565b60008060006060600080600080600080339950613f6a8a612cf6565b9850600089111515613f7b57600080fd5b613f83612992565b975060008c111515613f9457600080fd5b8b8810151515613fa357600080fd5b613fac8a615691565b96508651955060009450600093505b858410156141bb578684815181101515613fd157fe5b90602001906020020151925060018603841415613ff0578a91506140a1565b601360008473ffffffffffffffffffffffffffffffffffffffff1673ffffffffffffffffffffffffffffffffffffffff168152602001908152602001600020549050600081118015614043575060658111155b1561408857614081606461407361406460018561491890919063ffffffff16565b8e61494d90919063ffffffff16565b6150e990919063ffffffff16565b91506140a0565b61409d8487038c6150e990919063ffffffff16565b91505b5b6140f382600560008673ffffffffffffffffffffffffffffffffffffffff1673ffffffffffffffffffffffffffffffffffffffff1681526020019081526020016000205461493190919063ffffffff16565b600560008573ffffffffffffffffffffffffffffffffffffffff1673ffffffffffffffffffffffffffffffffffffffff168152602001908152602001600020819055508273ffffffffffffffffffffffffffffffffffffffff167fb3b7a071186534c03b40695710096f289fd4ed6c1a374aff0bb648955e4fe563836040518082815260200191505060405180910390a2614197828661493190919063ffffffff16565b94506141ac828c61491890919063ffffffff16565b9a508380600101945050613fbb565b6141e2856141d43460195461493190919063ffffffff16565b61491890919063ffffffff16565b60198190555061423a8c601560008d73ffffffffffffffffffffffffffffffffffffffff1673ffffffffffffffffffffffffffffffffffffffff1681526020019081526020016000205461493190919063ffffffff16565b601560008c73ffffffffffffffffffffffffffffffffffffffff1673ffffffffffffffffffffffffffffffffffffffff168152602001908152602001600020819055508973ffffffffffffffffffffffffffffffffffffffff167f6f48e292651bd1d141885ed3aa208544a172f61dce0faf20bf98d87e15f558f6601560008d73ffffffffffffffffffffffffffffffffffffffff1673ffffffffffffffffffffffffffffffffffffffff168152602001908152602001600020546040518082815260200191505060405180910390a2505050505050505050505050565b60126020528060005260406000206000915090508060000160009054906101000a900473ffffffffffffffffffffffffffffffffffffffff16908060010154908060020160009054906101000a900473ffffffffffffffffffffffffffffffffffffffff16908060020160149054906101000a900460ff16908060020160159054906101000a900460ff1690806003018054600181600116156101000203166002900480601f01602080910402602001604051908101604052809291908181526020018280546001816001161561010002031660029004801561443c5780601f106144115761010080835404028352916020019161443c565b820191906000526020600020905b81548152906001019060200180831161441f57829003601f168201915b5050505050908060040160009054906101000a900473ffffffffffffffffffffffffffffffffffffffff16908060050154908060060160009054906101000a900460ff1690806007015490806008015490508b565b600061449b615e50565b601260008773ffffffffffffffffffffffffffffffffffffffff1673ffffffffffffffffffffffffffffffffffffffff16815260200190815260200160002061016060405190810160405290816000820160009054906101000a900473ffffffffffffffffffffffffffffffffffffffff1673ffffffffffffffffffffffffffffffffffffffff1673ffffffffffffffffffffffffffffffffffffffff168152602001600182015481526020016002820160009054906101000a900473ffffffffffffffffffffffffffffffffffffffff1673ffffffffffffffffffffffffffffffffffffffff1673ffffffffffffffffffffffffffffffffffffffff1681526020016002820160149054906101000a900460ff161515151581526020016002820160159054906101000a900460ff16151515158152602001600382018054600181600116156101000203166002900480601f01602080910402602001604051908101604052809291908181526020018280546001816001161561010002031660029004801561466c5780601f106146415761010080835404028352916020019161466c565b820191906000526020600020905b81548152906001019060200180831161464f57829003601f168201915b505050505081526020016004820160009054906101000a900473ffffffffffffffffffffffffffffffffffffffff1673ffffffffffffffffffffffffffffffffffffffff1673ffffffffffffffffffffffffffffffffffffffff168152602001600582015481526020016006820160009054906101000a900460ff1660078111156146f357fe5b60078111156146fe57fe5b8152602001600782015481526020016008820154815250509050806080015115801561472c57508060600151155b151561473757600080fd5b6147428685856150ff565b600660009054906101000a900473ffffffffffffffffffffffffffffffffffffffff1673ffffffffffffffffffffffffffffffffffffffff1663078f4ca2308888888860066040518763ffffffff167c0100000000000000000000000000000000000000000000000000000000028152600401808773ffffffffffffffffffffffffffffffffffffffff1673ffffffffffffffffffffffffffffffffffffffff1681526020018673ffffffffffffffffffffffffffffffffffffffff1673ffffffffffffffffffffffffffffffffffffffff168152602001806020018573ffffffffffffffffffffffffffffffffffffffff1673ffffffffffffffffffffffffffffffffffffffff16815260200184815260200183600781111561486257fe5b60ff168152602001828103825286818151815260200191508051906020019080838360005b838110156148a2578082015181840152602081019050614887565b50505050905090810190601f1680156148cf5780820380516001836020036101000a031916815260200191505b50975050505050505050600060405180830381600087803b1580156148f357600080fd5b505af1158015614907573d6000803e3d6000fd5b505050506001915050949350505050565b600082821115151561492657fe5b818303905092915050565b6000818301905082811015151561494457fe5b80905092915050565b600080831415614960576000905061497f565b818302905081838281151561497157fe5b0414151561497b57fe5b8090505b92915050565b61498d615e50565b6000806000601260003373ffffffffffffffffffffffffffffffffffffffff1673ffffffffffffffffffffffffffffffffffffffff16815260200190815260200160002061016060405190810160405290816000820160009054906101000a900473ffffffffffffffffffffffffffffffffffffffff1673ffffffffffffffffffffffffffffffffffffffff1673ffffffffffffffffffffffffffffffffffffffff168152602001600182015481526020016002820160009054906101000a900473ffffffffffffffffffffffffffffffffffffffff1673ffffffffffffffffffffffffffffffffffffffff1673ffffffffffffffffffffffffffffffffffffffff1681526020016002820160149054906101000a900460ff161515151581526020016002820160159054906101000a900460ff16151515158152602001600382018054600181600116156101000203166002900480601f016020809104026020016040519081016040528092919081815260200182805460018160011615610100020316600290048015614b635780601f10614b3857610100808354040283529160200191614b63565b820191906000526020600020905b815481529060010190602001808311614b4657829003601f168201915b505050505081526020016004820160009054906101000a900473ffffffffffffffffffffffffffffffffffffffff1673ffffffffffffffffffffffffffffffffffffffff1673ffffffffffffffffffffffffffffffffffffffff168152602001600582015481526020016006820160009054906101000a900460ff166007811115614bea57fe5b6007811115614bf557fe5b8152602001600782015481526020016008820154815250509350600184606001901515908115158152505083601260003373ffffffffffffffffffffffffffffffffffffffff1673ffffffffffffffffffffffffffffffffffffffff16815260200190815260200160002060008201518160000160006101000a81548173ffffffffffffffffffffffffffffffffffffffff021916908373ffffffffffffffffffffffffffffffffffffffff1602179055506020820151816001015560408201518160020160006101000a81548173ffffffffffffffffffffffffffffffffffffffff021916908373ffffffffffffffffffffffffffffffffffffffff16021790555060608201518160020160146101000a81548160ff02191690831515021790555060808201518160020160156101000a81548160ff02191690831515021790555060a0820151816003019080519060200190614d54929190615efc565b5060c08201518160040160006101000a81548173ffffffffffffffffffffffffffffffffffffffff021916908373ffffffffffffffffffffffffffffffffffffffff16021790555060e082015181600501556101008201518160060160006101000a81548160ff02191690836007811115614dcb57fe5b021790555061012082015181600701556101408201518160080155905050614df68460200151615c58565b9250601a60009054906101000a900473ffffffffffffffffffffffffffffffffffffffff1673ffffffffffffffffffffffffffffffffffffffff1663a9059cbb602160009054906101000a900473ffffffffffffffffffffffffffffffffffffffff16614e6e601e548761494d90919063ffffffff16565b6040518363ffffffff167c0100000000000000000000000000000000000000000000000000000000028152600401808373ffffffffffffffffffffffffffffffffffffffff1673ffffffffffffffffffffffffffffffffffffffff16815260200182815260200192505050602060405180830381600087803b158015614ef357600080fd5b505af1158015614f07573d6000803e3d6000fd5b505050506040513d6020811015614f1d57600080fd5b81019080805190602001909291905050501515614f3957600080fd5b83602001519150614f686064614f5a8460245461494d90919063ffffffff16565b6150e990919063ffffffff16565b9050601a60009054906101000a900473ffffffffffffffffffffffffffffffffffffffff1673ffffffffffffffffffffffffffffffffffffffff1663a9059cbb600760009054906101000a900473ffffffffffffffffffffffffffffffffffffffff16615004601e54614ff686614fe88a8a61491890919063ffffffff16565b61491890919063ffffffff16565b61494d90919063ffffffff16565b6040518363ffffffff167c0100000000000000000000000000000000000000000000000000000000028152600401808373ffffffffffffffffffffffffffffffffffffffff1673ffffffffffffffffffffffffffffffffffffffff16815260200182815260200192505050602060405180830381600087803b15801561508957600080fd5b505af115801561509d573d6000803e3d6000fd5b505050506040513d60208110156150b357600080fd5b810190808051906020019092919050505015156150cf57600080fd5b50505050565b60006150e18383615ca3565b905092915050565b600081838115156150f657fe5b04905092915050565b615107615e50565b601260008573ffffffffffffffffffffffffffffffffffffffff1673ffffffffffffffffffffffffffffffffffffffff16815260200190815260200160002061016060405190810160405290816000820160009054906101000a900473ffffffffffffffffffffffffffffffffffffffff1673ffffffffffffffffffffffffffffffffffffffff1673ffffffffffffffffffffffffffffffffffffffff168152602001600182015481526020016002820160009054906101000a900473ffffffffffffffffffffffffffffffffffffffff1673ffffffffffffffffffffffffffffffffffffffff1673ffffffffffffffffffffffffffffffffffffffff1681526020016002820160149054906101000a900460ff161515151581526020016002820160159054906101000a900460ff16151515158152602001600382018054600181600116156101000203166002900480601f0160208091040260200160405190810160405280929190818152602001828054600181600116156101000203166002900480156152d85780601f106152ad576101008083540402835291602001916152d8565b820191906000526020600020905b8154815290600101906020018083116152bb57829003601f168201915b505050505081526020016004820160009054906101000a900473ffffffffffffffffffffffffffffffffffffffff1673ffffffffffffffffffffffffffffffffffffffff1673ffffffffffffffffffffffffffffffffffffffff168152602001600582015481526020016006820160009054906101000a900460ff16600781111561535f57fe5b600781111561536a57fe5b8152602001600782015481526020016008820154815250509050600181608001901515908115158152505080601260008673ffffffffffffffffffffffffffffffffffffffff1673ffffffffffffffffffffffffffffffffffffffff16815260200190815260200160002060008201518160000160006101000a81548173ffffffffffffffffffffffffffffffffffffffff021916908373ffffffffffffffffffffffffffffffffffffffff1602179055506020820151816001015560408201518160020160006101000a81548173ffffffffffffffffffffffffffffffffffffffff021916908373ffffffffffffffffffffffffffffffffffffffff16021790555060608201518160020160146101000a81548160ff02191690831515021790555060808201518160020160156101000a81548160ff02191690831515021790555060a08201518160030190805190602001906154c9929190615efc565b5060c08201518160040160006101000a81548173ffffffffffffffffffffffffffffffffffffffff021916908373ffffffffffffffffffffffffffffffffffffffff16021790555060e082015181600501556101008201518160060160006101000a81548160ff0219169083600781111561554057fe5b02179055506101208201518160070155610140820151816008015590505061556782612d3e565b50601a60009054906101000a900473ffffffffffffffffffffffffffffffffffffffff1673ffffffffffffffffffffffffffffffffffffffff1663a9059cbb856155c0601e54856020015161494d90919063ffffffff16565b6040518363ffffffff167c0100000000000000000000000000000000000000000000000000000000028152600401808373ffffffffffffffffffffffffffffffffffffffff1673ffffffffffffffffffffffffffffffffffffffff16815260200182815260200192505050602060405180830381600087803b15801561564557600080fd5b505af1158015615659573d6000803e3d6000fd5b505050506040513d602081101561566f57600080fd5b8101908080519060200190929190505050151561568b57600080fd5b50505050565b60606000806060849250600091505b60011561577157600960008473ffffffffffffffffffffffffffffffffffffffff1673ffffffffffffffffffffffffffffffffffffffff16815260200190815260200160002060009054906101000a900473ffffffffffffffffffffffffffffffffffffffff169250600760009054906101000a900473ffffffffffffffffffffffffffffffffffffffff1673ffffffffffffffffffffffffffffffffffffffff168373ffffffffffffffffffffffffffffffffffffffff16141561576457615771565b81806001019250506156a0565b816040519080825280602002602001820160405280156157a05781602001602082028038833980820191505090505b5090508492505b600082111561586b57600960008473ffffffffffffffffffffffffffffffffffffffff1673ffffffffffffffffffffffffffffffffffffffff16815260200190815260200160002060009054906101000a900473ffffffffffffffffffffffffffffffffffffffff16925081806001900392505082818381518110151561582a57fe5b9060200190602002019073ffffffffffffffffffffffffffffffffffffffff16908173ffffffffffffffffffffffffffffffffffffffff16815250506157a7565b809350505050919050565b6000615880615e50565b60008311151561588f57600080fd5b601a60009054906101000a900473ffffffffffffffffffffffffffffffffffffffff1673ffffffffffffffffffffffffffffffffffffffff166323b872dd3330866040518463ffffffff167c0100000000000000000000000000000000000000000000000000000000028152600401808473ffffffffffffffffffffffffffffffffffffffff1673ffffffffffffffffffffffffffffffffffffffff1681526020018373ffffffffffffffffffffffffffffffffffffffff1673ffffffffffffffffffffffffffffffffffffffff1681526020018281526020019350505050602060405180830381600087803b15801561598857600080fd5b505af115801561599c573d6000803e3d6000fd5b505050506040513d60208110156159b257600080fd5b810190808051906020019092919050505015156159ce57600080fd5b60019150610160604051908101604052808773ffffffffffffffffffffffffffffffffffffffff1681526020018481526020013373ffffffffffffffffffffffffffffffffffffffff1681526020016000151581526020016000151581526020018681526020018573ffffffffffffffffffffffffffffffffffffffff16815260200183815260200160066007811115615a6457fe5b8152602001428152602001603c6022540242018152509050816016540360168190555080601260003373ffffffffffffffffffffffffffffffffffffffff1673ffffffffffffffffffffffffffffffffffffffff16815260200190815260200160002060008201518160000160006101000a81548173ffffffffffffffffffffffffffffffffffffffff021916908373ffffffffffffffffffffffffffffffffffffffff1602179055506020820151816001015560408201518160020160006101000a81548173ffffffffffffffffffffffffffffffffffffffff021916908373ffffffffffffffffffffffffffffffffffffffff16021790555060608201518160020160146101000a81548160ff02191690831515021790555060808201518160020160156101000a81548160ff02191690831515021790555060a0820151816003019080519060200190615bbb929190615efc565b5060c08201518160040160006101000a81548173ffffffffffffffffffffffffffffffffffffffff021916908373ffffffffffffffffffffffffffffffffffffffff16021790555060e082015181600501556101008201518160060160006101000a81548160ff02191690836007811115615c3257fe5b021790555061012082015181600701556101408201518160080155905050505050505050565b60008060006023541115615c9857615c8e6064615c806023548661494d90919063ffffffff16565b6150e990919063ffffffff16565b9050809150615c9d565b600091505b50919050565b60008160165410151515615cb657600080fd5b601760009054906101000a900473ffffffffffffffffffffffffffffffffffffffff1673ffffffffffffffffffffffffffffffffffffffff1660405160200180807f7472616e7366657228616464726573732c75696e74323536290000000000000081525060190190506040516020818303038152906040526040518082805190602001908083835b602083101515615d645780518252602082019150602081019050602083039250615d3f565b6001836020036101000a03801982511681845116808217855250505050505090500191505060405180910390207c0100000000000000000000000000000000000000000000000000000000900484846040518363ffffffff167c0100000000000000000000000000000000000000000000000000000000028152600401808373ffffffffffffffffffffffffffffffffffffffff1673ffffffffffffffffffffffffffffffffffffffff168152602001828152602001925050506000604051808303816000875af1925050501515615e3b57600080fd5b81601654036016819055506001905092915050565b61016060405190810160405280600073ffffffffffffffffffffffffffffffffffffffff16815260200160008152602001600073ffffffffffffffffffffffffffffffffffffffff16815260200160001515815260200160001515815260200160608152602001600073ffffffffffffffffffffffffffffffffffffffff1681526020016000815260200160006007811115615ee857fe5b815260200160008152602001600081525090565b828054600181600116156101000203166002900490600052602060002090601f016020900481019282601f10615f3d57805160ff1916838001178555615f6b565b82800160010185558215615f6b579182015b82811115615f6a578251825591602001919060010190615f4f565b5b509050615f789190615f7c565b5090565b615f9e91905b80821115615f9a576000816000905550600101615f82565b5090565b905600a165627a7a72305820e51f237b5c71698737220d34329e08b0ea262872888bc9fae51a93d17cf47d450029",
  "source": "pragma solidity ^0.4.24;\n\nimport '../openzeppelin-solidity/contracts/math/SafeMath.sol';\nimport \"./TwoKeyTypes.sol\";\nimport \"./TwoKeyCampaignARC.sol\";\nimport \"./TwoKeyEventSource.sol\";\nimport \"./TwoKeyWhitelisted.sol\";\nimport './TwoKeyEconomy.sol';\nimport \"./TwoKeySignedContract.sol\";\nimport \"./Utils.sol\";\n\n/// @author Nikola Madjarevic\n/// Contract which will represent campaign for the fungible assets\ncontract TwoKeyAcquisitionCampaignERC20 is TwoKeyCampaignARC, TwoKeyTypes, Utils {\n\n\n    event Fulfilled(address indexed to, uint256 units);\n    event Rewarded(address indexed to, uint256 amount);\n    /// @notice Event which will be emitted when conversion expire\n    event Expired(address indexed _contract);\n\n    /// @notice Event which will be emitted when fallback function is executed\n    event ReceivedEther(address _sender, uint value);\n\n    /// Using safemath to avoid overflows during math operations\n    using SafeMath for uint256;\n\n    /// Structure which will represent conversion\n    struct Conversion {\n        address from;\n        uint256 payout;\n        address converter;\n        bool isFulfilled;\n        bool isCancelled;\n        string assetName;\n        address assetContract;\n        uint256 amount;\n        CampaignType campaignType;\n        uint256 openingTime;\n        uint256 closingTime;\n    }\n\n    string public name;\n    string public ipfs_hash;\n    string public symbol;\n    uint8 public decimals = 0;  // ARCs are not divisable\n    uint256 public cost; // Cost of product in wei\n    uint256 public bounty; // Cost of product in wei\n    uint256 public quota;  // maximal tokens that can be passed in transferFrom\n    uint256 unit_decimals;  // units being sold can be fractional (for example tokens in ERC20)\n\n    mapping (address => Conversion) public conversions;\n    mapping(address => uint256) public influencer2cut;\n\n    /// Amount converter put to the contract in Ether\n    mapping (address => uint) balancesConvertersETH;\n    mapping(address => uint256) public units; // number of units bought\n    /// Balance will represent how many that tokens (erc20) we have on our Campaign\n    uint campaignInventoryUnitsBalance;\n\n    /// asset contract is address of that ERC20 inventory\n    address assetContract;\n\n    /// asset name is short name of the asset for example \"2key\"\n    string assetName;\n    uint converterProceeds;\n\n    TwoKeyEconomy twoKeyEconomy;\n    TwoKeyWhitelisted whitelistInfluencer;\n    TwoKeyWhitelisted whitelistConverter;\n\n\n    uint price; /// There's single price for the unit ERC20\n    uint256 rate; /// rate of conversion from TwoKey to ETH\n    uint openingTime;\n    uint closingTime;\n    address moderator;\n    uint256 expiryConversion; /// how long will hold asset in escrow\n    uint256 escrowPercentage; /// percentage of payout to. be paid for moderator for escrow\n    uint256 maxPi;\n\n\n    constructor(address _twoKeyEventSource, address _twoKeyEconomy,\n        address _whitelistInfluencer, address _whitelistConverter,\n        address _contractor, address _moderator, uint _openingTime, uint _closingTime,\n        uint _expiryConversion, uint _escrowPercentage, uint _rate, uint _maxPi) TwoKeyCampaignARC(_twoKeyEventSource, _contractor)StandardToken()\n        public {\n            require(_twoKeyEconomy != address(0));\n            require(_whitelistInfluencer != address(0));\n            require(_whitelistConverter != address(0));\n            require(_rate > 0);\n            require(_maxPi > 0);\n\n\n            twoKeyEconomy = TwoKeyEconomy(_twoKeyEconomy);\n            whitelistInfluencer = TwoKeyWhitelisted(_whitelistInfluencer);\n            whitelistConverter = TwoKeyWhitelisted(_whitelistConverter);\n\n            moderator = _moderator;\n            openingTime = _openingTime;\n            closingTime = _closingTime;\n            expiryConversion = _expiryConversion;\n            escrowPercentage = _escrowPercentage;\n            maxPi = _maxPi;\n\n            // Emit event that TwoKeyCampaign is created\n            twoKeyEventSource.created(address(this), contractor);\n    }\n\n\n    /// @notice Function to add asset contract of specific ERC20\n    /// @param _assetContract of that asset Contract\n    function addAssetContractERC20(address _assetContract) public {\n        assetContract = _assetContract;\n    }\n\n    /// @notice Modifier which is going to check if current time is between opening-closing campaign time\n    modifier isOngoing() {\n        require(block.timestamp >= openingTime && block.timestamp <= closingTime);\n        _;\n    }\n\n    /// @notice Modifier which is going to check if campaign is closed (if time is greater then closing time)\n    modifier isClosed() {\n        require(now > closingTime);\n        _;\n    }\n\n    /// @notice Modifier to check is the influencer eligible for participation in campaign\n    modifier isWhiteListedInfluencer() {\n        require(whitelistInfluencer.isWhitelisted(msg.sender));\n        _;\n    }\n\n    /// @notice Modifier to check is the converter eligible for participation in conversion\n    modifier isWhitelistedConverter() {\n        require(whitelistConverter.isWhitelisted(msg.sender));\n        _;\n    }\n\n\n    /// @notice Modifier to check if the Converter did the conversion\n    modifier didConverterConvert() {\n        Conversion memory c = conversions[msg.sender];\n        require(!c.isFulfilled && !c.isCancelled);\n        _;\n    }\n\n\n    /// @notice Method to add fungible asset to our contract\n    /// @dev When user calls this method, he just says the actual amount of ERC20 he'd like to transfer to us\n    /// @param _amount is the amount of ERC20 contract he'd like to give us\n    /// @return true if successful, otherwise transaction will revert\n    function addFungibleAsset(uint256 _amount) public returns (bool) {\n        require(\n            assetContract.call(\n                bytes4(keccak256(\"transferFrom(address,address,uint256)\")),\n                msg.sender,\n                address(this),\n                _amount\n            )\n        );\n        campaignInventoryUnitsBalance += _amount;\n        return true;\n    }\n\n    /// @notice Function to check balance of the ERC20 inventory (view - no gas needed to call this function)\n    /// @dev we're using interface of ERC20 and fetching the balance of this contract address\n    /// @return balance value as uint\n    function checkInventoryBalance() public view returns (uint) {\n//        uint balance = IERC20(assetContract).balanceOf(address(this));\n        uint balance = Utils.call_return(assetContract,\"balanceOf(address)\",uint(this));\n        return balance;\n    }\n\n    /// @notice Function which will check the balance and automatically update the balance in our contract regarding balance response\n    /// @return balance of ERC20 we have in our contract\n    function checkAndUpdateInventoryBalance() public returns (uint) {\n        uint balance = checkInventoryBalance();\n        campaignInventoryUnitsBalance = balance;\n        return balance;\n    }\n\n    /// @notice Move some amount of ERC20 from our campaignInventoryUnitsBalance to someone\n    /// @dev internal function\n    /// @param _to address we're sending the amount of ERC20\n    /// @param _amount is the amount of ERC20's we're going to transfer\n    /// @return true if successful, otherwise reverts\n    function moveFungibleAsset(address _to, uint256 _amount) internal returns (bool) {\n        require(campaignInventoryUnitsBalance >= _amount);\n        require(\n            assetContract.call(\n                bytes4(keccak256(abi.encodePacked(\"transfer(address,uint256)\"))),\n                _to, _amount\n            )\n        );\n        campaignInventoryUnitsBalance = campaignInventoryUnitsBalance - _amount;\n        return true;\n    }\n\n    // transfer an amount of erc20 from our catalogue to someone\n    // This should be called when conversion is executed\n    // Refactor!\n    /// @notice Function which will transfer fungible assets from contract to someone\n    /// @param _to is the address we're sending the fungible assets\n    /// @param _amount is the amount of ERC20 we're going to transfer\n    /// @return true if trasaction completes otherwise transaction will revert\n    function transferFungibleAsset(address _to, uint256 _amount) internal returns (bool) {\n        return moveFungibleAsset(_to, _amount);\n    }\n\n    // TODO: Udis code which sends rewards etc get it\n    // TODO: Expiry of conversion event (Two-steps for conversion user puts in ether, and converter being approved by KYC)\n    // TODO: When conversion happens, there's timeout where converter can be approved, otherwise everything's transfered to contractor\n\n    /// I wanna pay for something with TwoKey tokens\n    /// Amount should be the amount of twokey tokens\n    /// tokenID -> assetName\n    /// Acquisition campaign is campaign which is selling something which can be bought with 2key or ETH\n    function fulfillFungibleTwoKeyToken(address _from, string _assetName, address _assetContract, uint256 _amount)  internal {\n        require(_amount > 0);\n        // require(price > 0);\n        //        uint256 payout = price.mul(_amount).mul(rate);\n\n        /// Make sure that the payment has been sent\n        require(twoKeyEconomy.transferFrom(msg.sender, this, _amount));\n\n        /// compute how many units he can buy with amount of twokey\n        /// TODO: Where's this defined, where's price defined\n        uint _units = 1;\n\n        Conversion memory c = Conversion(_from, _amount, msg.sender, false, false, _assetName, _assetContract, _units, CampaignType.CPA_FUNGIBLE, now, now + expiryConversion * 1 minutes);\n        // move funds\n        campaignInventoryUnitsBalance = campaignInventoryUnitsBalance - _units;\n        //        twoKeyEventSource.escrow(address(this), msg.sender, _assetName, _assetContract, units, CampaignType.CPA_FUNGIBLE);\n        conversions[msg.sender] = c;\n    }\n\n    function fulfillFungibleETH(\n        address _from,\n        uint256 _amountETH\n    ) isOngoing internal {\n        uint _amount = msg.value;\n        // TODO: Idea is that payout is msg.value\n        // Compute for the amount of ether how much tokens can be got by the amount\n        require(_amount > 0);\n        //        require(price > 0);\n        uint payout = 1;\n        //        uint256 payout = price.mul(_amount);\n        require(msg.value == payout);\n        //TODO: Someone put 100 eth and he's entitled to X base + Y bonus  = (X+Y) taken from Inventory\n        //TODO: Take the msg.value, and regarding value I compute number of base and bonus tokens - sum of base and bonus is took out of the twoKeyCampaignInvent\n        Conversion memory c = Conversion(_from, payout, msg.sender, false, false, assetName, assetContract, _amount, CampaignType.CPA_FUNGIBLE, now, now + expiryConversion * 1 days);\n\n\n        // move funds\n        // rename to remove from inventory\n        campaignInventoryUnitsBalance = campaignInventoryUnitsBalance - _amount;\n        //\t\tremoveFungibleAssets(_tokenID, _assetContract, _amount);\n\n        //tokenID can be string specifying the name of token (\"ETH\", \"BTC\",etc)\n        // value in escrow (msg.value), total amount of tokens\n        //        twoKeyEventSource.escrow(address(this), msg.sender, _assetName, _assetContract, _amount, CampaignType.CPA_FUNGIBLE);\n        conversions[msg.sender] = c;\n    }\n\n\n    function buyFromWithTwoKey(address _from, string _assetName, address _assetContract, uint256 _amount) public payable {\n        fulfillFungibleTwoKeyToken(_from, _assetName, _assetContract, _amount);\n    }\n\n    /**\n     * given the total payout, calculates the moderator fee\n     * @param  _payout total payout for escrow\n     * @return moderator fee\n     */\n    function calculateModeratorFee(uint256 _payout) internal view returns (uint256)  {\n        if (escrowPercentage > 0) { // send the fee to moderator\n            uint256 fee = _payout.mul(escrowPercentage).div(100);\n            return fee;\n        }\n        return 0;\n    }\n\n\n    function transferAssetTwoKeyToken(uint256 _tokenID, address _assetContract, uint256 _amount) isWhitelistedConverter didConverterConvert public {\n        actuallyFulfilledTwoKeyToken();\n        require(transferFungibleAsset(msg.sender, _amount));\n    }\n\n\n    function cancelledEscrow(address _converter, address _assetContract, uint256 _amount) internal {\n        Conversion memory c = conversions[_converter];\n        c.isCancelled = true;\n        conversions[_converter] = c;\n        addFungibleAsset(_amount);\n        require(twoKeyEconomy.transfer(_converter, (c.payout).mul(rate)));\n    }\n\n\n    function cancelAssetTwoKey(address _converter, string _assetName, address _assetContract, uint256 _amount)  public returns (bool) {\n        Conversion memory c = conversions[_converter];\n        require(!c.isCancelled && !c.isFulfilled);\n        cancelledEscrow(_converter, _assetContract, _amount);\n        twoKeyEventSource.cancelled(address(this), _converter, _assetName, _assetContract, _amount, CampaignType.CPA_FUNGIBLE);\n\n        return true;\n    }\n\n\n    //onlyRole(ROLE_CONTROLLER) - comment\n    function expireEscrow(address _converter,address _assetContract, uint256 _amount) public returns (bool) {\n        Conversion memory c = conversions[_converter];\n        require(!c.isCancelled && !c.isFulfilled);\n        require(now > c.closingTime);\n        cancelledEscrow(_converter, _assetContract, _amount);\n        emit Expired(address(this));\n        return true;\n    }\n\n    function actuallyFulfilledTwoKeyToken() internal {\n        Conversion memory c = conversions[msg.sender];\n        c.isFulfilled = true;\n        conversions[msg.sender] = c;\n        uint256 fee = calculateModeratorFee(c.payout);\n\n        require(twoKeyEconomy.transfer(moderator, fee.mul(rate)));\n\n        uint256 payout = c.payout;\n        uint256 maxReward = maxPi.mul(payout).div(100);\n\n        // transfer payout - fee - rewards to seller\n        require(twoKeyEconomy.transfer(contractor, (payout.sub(fee).sub(maxReward)).mul(rate)));\n\n//        transferRewardsTwoKeyToken(c.from, maxReward.mul(rate));\n        //        twoKeyEventSource.fulfilled(address(this), c.converter, c.tokenID, c.assetContract, c.indexOrAmount, c.campaignType);\n    }\n\n    // @notice Function where an influencer that wishes to cash an _amount of 2key from the campaign can do it\n    function redeemTwoKeyToken(uint256 _amount) public {\n        require(referrerBalances2KEY[msg.sender] >= _amount && _amount > 0);\n        referrerBalances2KEY[msg.sender] = referrerBalances2KEY[msg.sender].sub(_amount);\n        twoKeyEconomy.transferFrom(this, msg.sender, _amount);\n    }\n\n    /// @notice (Fallback)Payable function which will accept all transactions which are sending ether to contract\n    /// @dev we require that msg.value is greater than 0\n    /// @dev function will update the mapping balances where we're mapping how much ether has been sent to contract from specified address\n    /// @dev will emit an event with address and value sent\n    function () external payable {\n        require(msg.value > 0);\n        balancesConvertersETH[msg.sender] += msg.value;\n        //        fulfillFungibleETH(from, msg.value);\n        emit ReceivedEther(msg.sender, msg.value);\n    }\n\n    /// @notice Function to check how much eth has been sent to contract from address\n    /// @param _from is the address we'd like to check balance\n    /// @return amount of ether sent to contract from the specified address\n    function checkAmountAddressSent(address _from) public view returns (uint) {\n        return balancesConvertersETH[_from];\n    }\n\n    /// @notice Function to check contract balance of specified ERC20 tokens\n    /// @return balance\n    function getContractBalance() public view returns(uint) {\n        return campaignInventoryUnitsBalance;\n    }\n\n    /// @notice View function to fetch the address of asset contract\n    /// @return address of that asset contract\n    function getAssetContractAddress() public view returns(address) {\n        return assetContract;\n    }\n\n\n    //==========================================================================================\n    //==========================================================================================\n\n    // the 2key link generated by the owner of this contract contains a secret which is a private key,\n    // this is the public part of this secret\n    mapping(address => address)  public public_link_key;\n\n    function setPublicLinkKey(address _public_link_key) public {\n        address owner_influencer = msg.sender;\n        require(balanceOf(owner_influencer) > 0);\n        require(public_link_key[owner_influencer] == address(0));\n        public_link_key[owner_influencer] = _public_link_key;\n    }\n\n    function setCut(uint256 cut) private {\n        // the sender sets what is the percentage of the bounty s/he will receive when acting as an influencer\n        // the value 255 is used to signal equal partition with other influencers\n        // A sender can set the value only once in a contract\n        require(cut <= 100 || cut == 255);\n        require(influencer2cut[msg.sender] == 0);\n        if (cut <= 100) {\n            cut++;\n        }\n        influencer2cut[msg.sender] = cut;\n    }\n    function getCuts(address last_influencer) public view returns (uint256[]) {\n        address[] memory influencers = getInfluencers(last_influencer);\n        uint n_influencers = influencers.length;\n        uint256[] memory cuts = new uint256[](n_influencers + 1);\n        for (uint i = 0; i < n_influencers; i++) {\n            address influencer = influencers[i];\n            cuts[i] = influencer2cut[influencer];\n        }\n        cuts[n_influencers] = influencer2cut[last_influencer];\n        return cuts;\n    }\n\n    function transferSig(bytes sig) public {\n        // move ARCs based on signature information\n        // if version=1, with_cut is true then sig also include the cut (percentage) each influencer takes from the bounty\n        // the cut is stored in influencer2cut\n        uint idx = 0;\n        //    uint8 version;\n        //    if (idx+1 <= sig.length) {\n        //      idx += 1;\n        //      assembly\n        //      {\n        //        version := mload(add(sig, idx))\n        //      }\n        //    }\n        //    require(version < 2);\n        //    bool with_cut = false;\n        //    if (version == 1) {\n        //      with_cut = true;\n        //    }\n\n        address old_address;\n        if (idx+20 <= sig.length) {\n            idx += 20;\n            assembly\n            {\n                old_address := mload(add(sig, idx))\n            }\n        }\n\n        address old_public_link_key = public_link_key[old_address];\n        require(old_public_link_key != address(0));\n\n        while (idx + 65 <= sig.length) {\n            // The signature format is a compact form of:\n            //   {bytes32 r}{bytes32 s}{uint8 v}\n            // Compact means, uint8 is not padded to 32 bytes.\n            idx += 32;\n            bytes32 r;\n            assembly\n            {\n                r := mload(add(sig, idx))\n            }\n\n            idx += 32;\n            bytes32 s;\n            assembly\n            {\n                s := mload(add(sig, idx))\n            }\n\n            idx += 1;\n            uint8 v;\n            assembly\n            {\n                v := mload(add(sig, idx))\n            }\n\n            bytes32 hash;\n            address new_public_key;\n            address new_address;\n            //      if (idx + (with_cut ? 41 : 40) < sig.length) {\n            if (idx + 41 < sig.length) {  // its  a < and not a <= because we dont want this to be the final iteration for the converter\n                uint8 bounty_cut;\n                //        if (with_cut)\n                {\n                    idx += 1;\n                    assembly\n                    {\n                        bounty_cut := mload(add(sig, idx))\n                    }\n                    require(bounty_cut > 0);  // 0 and 255 are used to indicate default (equal part) behaviour\n                }\n\n                idx += 20;\n                assembly\n                {\n                    new_address := mload(add(sig, idx))\n                }\n\n                idx += 20;\n                assembly\n                {\n                    new_public_key := mload(add(sig, idx))\n                }\n\n                //        if (with_cut)\n                {\n                    //          require(bounty_cut > 0);\n                    if (influencer2cut[new_address] == 0) {\n                        influencer2cut[new_address] = uint256(bounty_cut);\n                    } else {\n                        require(influencer2cut[new_address] == uint256(bounty_cut));\n                    }\n                    hash = keccak256(abi.encodePacked(bounty_cut, new_public_key, new_address));\n                }\n                //        else {\n                //          hash = keccak256(abi.encodePacked(new_public_key, new_address));\n                //        }\n            } else {\n                require(idx == sig.length);\n                // signed message for the last step is the address of the converter\n                new_address = msg.sender;\n                hash = keccak256(abi.encodePacked(new_address));\n            }\n            // assume users can take ARCs only once... this could be changed\n            if (received_from[new_address] == 0) {\n                transferFrom(old_address, new_address, 1);\n            } else {\n                require(received_from[new_address] == old_address);\n            }\n\n            // check if we received a valid signature\n            address signer = ecrecover(hash, v, r, s);\n            if (signer != old_public_link_key) {\n                revert();\n            }\n            old_public_link_key = new_public_key;\n            old_address = new_address;\n        }\n        //    require(idx == sig.length);\n    }\n\n    function buyProduct() public payable {\n        unit_decimals = 18; // uint256(erc20_token_sell_contract.decimals());\n        // cost is the cost of a single token. Each token has 10**decimals units\n        // TODO: Compute valid base units and bonus units per the msg.value and token price and bonus percentage\n        uint256 _units = msg.value.mul(10**unit_decimals).div(cost);\n        // bounty is the cost of a single token. Compute the bounty for the units\n        // we are buying\n        // TODO: Replace bounty with new parameter maxReferralReward\n\n        uint256 _bounty = bounty.mul(_units).div(10**unit_decimals);\n        // TODO replace _bounty with this conversion reward\n        // Example; MaxReferralReward = 10% then msg.value = 100ETH\n        // then this conversionReward = 10ETH\n\n\n        // TODO: this function has to be part of conversion\n        updateRefchainRewardsAndConverterProceeds(_units, _bounty);\n        require(assetContract.call(bytes4(keccak256(\"transfer(address,uint256)\")),msg.sender,_units));\n    }\n\n//    function buyFrom(address _from) private payable {\n//        require(_from != address(0));\n//        address _to = msg.sender;\n//        if (balanceOf(_to) == 0) {\n//            transferFrom(_from, _to, 1);\n//        }\n//        buyProduct();\n//    }\n\n    function updateRefchainRewardsAndConverterProceeds(uint256 _units, uint256 _bounty) public payable {\n        // buy coins with cut\n        // low level product purchase function\n        address customer = msg.sender;\n        uint256 customer_balance = balanceOf(customer);\n        require(customer_balance > 0);\n\n        uint256 _total_units = checkInventoryBalance();\n\n        require(_units > 0);\n        require(_total_units >= _units);\n        address[] memory influencers = getInfluencers(customer);\n        uint n_influencers = influencers.length;\n\n        // distribute bounty to influencers\n        uint256 total_bounty = 0;\n        for (uint i = 0; i < n_influencers; i++) {\n            address influencer = influencers[i];  // influencers is in reverse order\n            uint256 b;\n            if (i == n_influencers-1) {  // if its the last influencer then all the bounty goes to it.\n                b = _bounty;\n            } else {\n                uint256 cut = influencer2cut[influencer];\n                //        emit Log(\"CUT\", influencer, cut);\n                if (cut > 0 && cut <= 101) {\n                    b = _bounty.mul(cut.sub(1)).div(100);\n                } else {  // cut == 0 or 255 indicates equal particine of the bounty\n                    b = _bounty.div(n_influencers-i);\n                }\n            }\n            referrerBalancesETH[influencer] = referrerBalancesETH[influencer].add(b);\n            emit Rewarded(influencer, b);\n            total_bounty = total_bounty.add(b);\n            _bounty = _bounty.sub(b);\n        }\n\n        // all that is left from the cost is given to the owner for selling the product\n        converterProceeds = converterProceeds.add(msg.value).sub(total_bounty); // TODO we want the cost of a token to be fixed?\n        units[customer] = units[customer].add(_units);\n\n        emit Fulfilled(customer, units[customer]);\n    }\n}\n",
  "sourcePath": "/Users/aydnep/2key/contracts/contracts/2key/TwoKeyAcquisitionCampaignERC20.sol",
  "compiler": {
    "name": "solc",
    "version": "0.4.24+commit.e67f0147.Emscripten.clang"
  },
  "schemaVersion": "2.0.1",
  "updatedAt": "2018-09-09T08:41:38.270Z"
}