{
  "contractName": "TwoKeyCampaign",
  "abi": [
    {
      "constant": false,
      "inputs": [
        {
          "name": "_spender",
          "type": "address"
        },
        {
          "name": "_value",
          "type": "uint256"
        }
      ],
      "name": "approve",
      "outputs": [
        {
          "name": "",
          "type": "bool"
        }
      ],
      "payable": false,
      "stateMutability": "nonpayable",
      "type": "function"
    },
    {
      "constant": true,
      "inputs": [
        {
          "name": "_operator",
          "type": "address"
        },
        {
          "name": "_role",
          "type": "string"
        }
      ],
      "name": "checkRole",
      "outputs": [],
      "payable": false,
      "stateMutability": "view",
      "type": "function"
    },
    {
      "constant": false,
      "inputs": [
        {
          "name": "_to",
          "type": "address"
        },
        {
          "name": "_value",
          "type": "uint256"
        }
      ],
      "name": "transferQuota",
      "outputs": [
        {
          "name": "",
          "type": "bool"
        }
      ],
      "payable": false,
      "stateMutability": "nonpayable",
      "type": "function"
    },
    {
      "constant": true,
      "inputs": [],
      "name": "totalSupply",
      "outputs": [
        {
          "name": "",
          "type": "uint256"
        }
      ],
      "payable": false,
      "stateMutability": "view",
      "type": "function"
    },
    {
      "constant": true,
      "inputs": [
        {
          "name": "_operator",
          "type": "address"
        },
        {
          "name": "_role",
          "type": "string"
        }
      ],
      "name": "hasRole",
      "outputs": [
        {
          "name": "",
          "type": "bool"
        }
      ],
      "payable": false,
      "stateMutability": "view",
      "type": "function"
    },
    {
      "constant": false,
      "inputs": [
        {
          "name": "_from",
          "type": "address"
        },
        {
          "name": "_to",
          "type": "address"
        },
        {
          "name": "_value",
          "type": "uint256"
        }
      ],
      "name": "transferFrom",
      "outputs": [
        {
          "name": "",
          "type": "bool"
        }
      ],
      "payable": false,
      "stateMutability": "nonpayable",
      "type": "function"
    },
    {
      "constant": true,
      "inputs": [
        {
          "name": "",
          "type": "address"
        }
      ],
      "name": "received_from",
      "outputs": [
        {
          "name": "",
          "type": "address"
        }
      ],
      "payable": false,
      "stateMutability": "view",
      "type": "function"
    },
    {
      "constant": false,
      "inputs": [
        {
          "name": "_from",
          "type": "address"
        },
        {
          "name": "_to",
          "type": "address"
        },
        {
          "name": "_value",
          "type": "uint256"
        }
      ],
      "name": "transferFromQuota",
      "outputs": [
        {
          "name": "",
          "type": "bool"
        }
      ],
      "payable": false,
      "stateMutability": "nonpayable",
      "type": "function"
    },
    {
      "constant": true,
      "inputs": [],
      "name": "ROLE_CONTROLLER",
      "outputs": [
        {
          "name": "",
          "type": "string"
        }
      ],
      "payable": false,
      "stateMutability": "view",
      "type": "function"
    },
    {
      "constant": false,
      "inputs": [
        {
          "name": "_from",
          "type": "address"
        },
        {
          "name": "_maxReward",
          "type": "uint256"
        }
      ],
      "name": "transferRewardsTwoKeyToken",
      "outputs": [],
      "payable": false,
      "stateMutability": "nonpayable",
      "type": "function"
    },
    {
      "constant": false,
      "inputs": [
        {
          "name": "_to",
          "type": "address"
        },
        {
          "name": "_tokenID",
          "type": "uint256"
        },
        {
          "name": "_assetContract",
          "type": "address"
        },
        {
          "name": "_amount",
          "type": "uint256"
        }
      ],
      "name": "expireFungible",
      "outputs": [
        {
          "name": "",
          "type": "bool"
        }
      ],
      "payable": false,
      "stateMutability": "nonpayable",
      "type": "function"
    },
    {
      "constant": false,
      "inputs": [
        {
          "name": "_spender",
          "type": "address"
        },
        {
          "name": "_subtractedValue",
          "type": "uint256"
        }
      ],
      "name": "decreaseApproval",
      "outputs": [
        {
          "name": "",
          "type": "bool"
        }
      ],
      "payable": false,
      "stateMutability": "nonpayable",
      "type": "function"
    },
    {
      "constant": true,
      "inputs": [
        {
          "name": "_owner",
          "type": "address"
        }
      ],
      "name": "balanceOf",
      "outputs": [
        {
          "name": "",
          "type": "uint256"
        }
      ],
      "payable": false,
      "stateMutability": "view",
      "type": "function"
    },
    {
      "constant": false,
      "inputs": [
        {
          "name": "addr",
          "type": "address"
        },
        {
          "name": "roleName",
          "type": "string"
        }
      ],
      "name": "adminRemoveRole",
      "outputs": [],
      "payable": false,
      "stateMutability": "nonpayable",
      "type": "function"
    },
    {
      "constant": false,
      "inputs": [
        {
          "name": "_tokenID",
          "type": "uint256"
        },
        {
          "name": "_assetContract",
          "type": "address"
        },
        {
          "name": "_amount",
          "type": "uint256"
        }
      ],
      "name": "addFungibleAsset",
      "outputs": [
        {
          "name": "",
          "type": "bool"
        }
      ],
      "payable": false,
      "stateMutability": "nonpayable",
      "type": "function"
    },
    {
      "constant": false,
      "inputs": [
        {
          "name": "_to",
          "type": "address"
        },
        {
          "name": "_value",
          "type": "uint256"
        }
      ],
      "name": "transfer",
      "outputs": [
        {
          "name": "",
          "type": "bool"
        }
      ],
      "payable": false,
      "stateMutability": "nonpayable",
      "type": "function"
    },
    {
      "constant": false,
      "inputs": [
        {
          "name": "addr",
          "type": "address"
        },
        {
          "name": "roleName",
          "type": "string"
        }
      ],
      "name": "adminAddRole",
      "outputs": [],
      "payable": false,
      "stateMutability": "nonpayable",
      "type": "function"
    },
    {
      "constant": false,
      "inputs": [
        {
          "name": "_to",
          "type": "address"
        },
        {
          "name": "_tokenID",
          "type": "uint256"
        },
        {
          "name": "_assetContract",
          "type": "address"
        },
        {
          "name": "_amount",
          "type": "uint256"
        }
      ],
      "name": "transferFungibleAsset",
      "outputs": [
        {
          "name": "",
          "type": "bool"
        }
      ],
      "payable": false,
      "stateMutability": "nonpayable",
      "type": "function"
    },
    {
      "constant": false,
      "inputs": [
        {
          "name": "_tokenID",
          "type": "uint256"
        },
        {
          "name": "_assetContract",
          "type": "address"
        },
        {
          "name": "_index",
          "type": "uint256"
        }
      ],
      "name": "addNonFungibleAsset",
      "outputs": [
        {
          "name": "",
          "type": "bool"
        }
      ],
      "payable": false,
      "stateMutability": "nonpayable",
      "type": "function"
    },
    {
      "constant": true,
      "inputs": [],
      "name": "quota",
      "outputs": [
        {
          "name": "",
          "type": "uint256"
        }
      ],
      "payable": false,
      "stateMutability": "view",
      "type": "function"
    },
    {
      "constant": true,
      "inputs": [],
      "name": "ROLE_ADMIN",
      "outputs": [
        {
          "name": "",
          "type": "string"
        }
      ],
      "payable": false,
      "stateMutability": "view",
      "type": "function"
    },
    {
      "constant": false,
      "inputs": [
        {
          "name": "_spender",
          "type": "address"
        },
        {
          "name": "_addedValue",
          "type": "uint256"
        }
      ],
      "name": "increaseApproval",
      "outputs": [
        {
          "name": "",
          "type": "bool"
        }
      ],
      "payable": false,
      "stateMutability": "nonpayable",
      "type": "function"
    },
    {
      "constant": true,
      "inputs": [
        {
          "name": "_owner",
          "type": "address"
        },
        {
          "name": "_spender",
          "type": "address"
        }
      ],
      "name": "allowance",
      "outputs": [
        {
          "name": "",
          "type": "uint256"
        }
      ],
      "payable": false,
      "stateMutability": "view",
      "type": "function"
    },
    {
      "constant": true,
      "inputs": [
        {
          "name": "",
          "type": "address"
        }
      ],
      "name": "conversions",
      "outputs": [
        {
          "name": "from",
          "type": "address"
        },
        {
          "name": "payout",
          "type": "uint256"
        },
        {
          "name": "converter",
          "type": "address"
        },
        {
          "name": "isFulfilled",
          "type": "bool"
        },
        {
          "name": "isCancelled",
          "type": "bool"
        },
        {
          "name": "tokenID",
          "type": "uint256"
        },
        {
          "name": "assetContract",
          "type": "address"
        },
        {
          "name": "indexOrAmount",
          "type": "uint256"
        },
        {
          "name": "campaignType",
          "type": "uint8"
        },
        {
          "name": "openingTime",
          "type": "uint256"
        },
        {
          "name": "closingTime",
          "type": "uint256"
        }
      ],
      "payable": false,
      "stateMutability": "view",
      "type": "function"
    },
    {
      "constant": false,
      "inputs": [
        {
          "name": "_to",
          "type": "address"
        },
        {
          "name": "_tokenID",
          "type": "uint256"
        },
        {
          "name": "_assetContract",
          "type": "address"
        },
        {
          "name": "_assetTokenID",
          "type": "uint256"
        }
      ],
      "name": "expireNonFungible",
      "outputs": [
        {
          "name": "",
          "type": "bool"
        }
      ],
      "payable": false,
      "stateMutability": "nonpayable",
      "type": "function"
    },
    {
      "inputs": [
        {
          "name": "_eventSource",
          "type": "address"
        },
        {
          "name": "_economy",
          "type": "address"
        },
        {
          "name": "_whitelistInfluencer",
          "type": "address"
        },
        {
          "name": "_whitelistConverter",
          "type": "address"
        },
        {
          "name": "_contractor",
          "type": "address"
        },
        {
          "name": "_moderator",
          "type": "address"
        },
        {
          "name": "_openingTime",
          "type": "uint256"
        },
        {
          "name": "_closingTime",
          "type": "uint256"
        },
        {
          "name": "_expiryConversion",
          "type": "uint256"
        },
        {
          "name": "_escrowPrecentage",
          "type": "uint256"
        },
        {
          "name": "_rate",
          "type": "uint256"
        },
        {
          "name": "_maxPi",
          "type": "uint256"
        }
      ],
      "payable": false,
      "stateMutability": "nonpayable",
      "type": "constructor"
    },
    {
      "anonymous": false,
      "inputs": [
        {
          "indexed": true,
          "name": "_contract",
          "type": "address"
        }
      ],
      "name": "Expired",
      "type": "event"
    },
    {
      "anonymous": false,
      "inputs": [
        {
          "indexed": true,
          "name": "operator",
          "type": "address"
        },
        {
          "indexed": false,
          "name": "role",
          "type": "string"
        }
      ],
      "name": "RoleAdded",
      "type": "event"
    },
    {
      "anonymous": false,
      "inputs": [
        {
          "indexed": true,
          "name": "operator",
          "type": "address"
        },
        {
          "indexed": false,
          "name": "role",
          "type": "string"
        }
      ],
      "name": "RoleRemoved",
      "type": "event"
    },
    {
      "anonymous": false,
      "inputs": [
        {
          "indexed": true,
          "name": "owner",
          "type": "address"
        },
        {
          "indexed": true,
          "name": "spender",
          "type": "address"
        },
        {
          "indexed": false,
          "name": "value",
          "type": "uint256"
        }
      ],
      "name": "Approval",
      "type": "event"
    },
    {
      "anonymous": false,
      "inputs": [
        {
          "indexed": true,
          "name": "from",
          "type": "address"
        },
        {
          "indexed": true,
          "name": "to",
          "type": "address"
        },
        {
          "indexed": false,
          "name": "value",
          "type": "uint256"
        }
      ],
      "name": "Transfer",
      "type": "event"
    },
    {
      "constant": false,
      "inputs": [
        {
          "name": "_tokenID",
          "type": "uint256"
        },
        {
          "name": "_assetContract",
          "type": "address"
        },
        {
          "name": "_assetTokenIDOrAmount",
          "type": "uint256"
        },
        {
          "name": "_type",
          "type": "uint8"
        }
      ],
      "name": "transferAssetTwoKeyToken",
      "outputs": [],
      "payable": false,
      "stateMutability": "nonpayable",
      "type": "function"
    },
    {
      "constant": false,
      "inputs": [
        {
          "name": "_converter",
          "type": "address"
        },
        {
          "name": "_tokenID",
          "type": "uint256"
        },
        {
          "name": "_assetContract",
          "type": "address"
        },
        {
          "name": "_assetTokenIDOrAmount",
          "type": "uint256"
        },
        {
          "name": "_type",
          "type": "uint8"
        }
      ],
      "name": "cancelAssetTwoKey",
      "outputs": [
        {
          "name": "",
          "type": "bool"
        }
      ],
      "payable": false,
      "stateMutability": "nonpayable",
      "type": "function"
    },
    {
      "constant": false,
      "inputs": [
        {
          "name": "_converter",
          "type": "address"
        },
        {
          "name": "_tokenID",
          "type": "uint256"
        },
        {
          "name": "_assetContract",
          "type": "address"
        },
        {
          "name": "_assetTokenIDOrAmount",
          "type": "uint256"
        },
        {
          "name": "_type",
          "type": "uint8"
        }
      ],
      "name": "expireEscrow",
      "outputs": [
        {
          "name": "",
          "type": "bool"
        }
      ],
      "payable": false,
      "stateMutability": "nonpayable",
      "type": "function"
    },
    {
      "constant": false,
      "inputs": [
        {
          "name": "_tokenID",
          "type": "uint256"
        },
        {
          "name": "_assetContract",
          "type": "address"
        },
        {
          "name": "_pricePerUnit",
          "type": "uint256"
        }
      ],
      "name": "setPriceFungible",
      "outputs": [],
      "payable": false,
      "stateMutability": "nonpayable",
      "type": "function"
    },
    {
      "constant": false,
      "inputs": [
        {
          "name": "_tokenID",
          "type": "uint256"
        },
        {
          "name": "_assetContract",
          "type": "address"
        },
        {
          "name": "_index",
          "type": "uint256"
        },
        {
          "name": "_pricePerUnit",
          "type": "uint256"
        }
      ],
      "name": "setPriceNonFungible",
      "outputs": [],
      "payable": false,
      "stateMutability": "nonpayable",
      "type": "function"
    },
    {
      "constant": false,
      "inputs": [
        {
          "name": "_amount",
          "type": "uint256"
        }
      ],
      "name": "redeemTwoKeyToken",
      "outputs": [],
      "payable": false,
      "stateMutability": "nonpayable",
      "type": "function"
    },
    {
      "constant": false,
      "inputs": [
        {
          "name": "_from",
          "type": "address"
        },
        {
          "name": "_tokenID",
          "type": "uint256"
        },
        {
          "name": "_assetContract",
          "type": "address"
        },
        {
          "name": "_amountOrIndex",
          "type": "uint256"
        },
        {
          "name": "_campaignType",
          "type": "uint8"
        }
      ],
      "name": "buyFromWithTwoKey",
      "outputs": [],
      "payable": true,
      "stateMutability": "payable",
      "type": "function"
    }
  ],
  "bytecode": "0x6080604052620f42406003553480156200001857600080fd5b506040516101808062006bf183398101806040528101908080519060200190929190805190602001909291908051906020019092919080519060200190929190805190602001909291908051906020019092919080519060200190929190805190602001909291908051906020019092919080519060200190929190805190602001909291908051906020019092919050505085858d8a600073ffffffffffffffffffffffffffffffffffffffff168273ffffffffffffffffffffffffffffffffffffffff1614151515620000ec57600080fd5b80600660006101000a81548173ffffffffffffffffffffffffffffffffffffffff021916908373ffffffffffffffffffffffffffffffffffffffff16021790555081600560006101000a81548173ffffffffffffffffffffffffffffffffffffffff021916908373ffffffffffffffffffffffffffffffffffffffff1602179055505050620001c0336040805190810160405280600581526020017f61646d696e00000000000000000000000000000000000000000000000000000081525062000202640100000000026401000000009004565b428210151515620001d057600080fd5b818110151515620001e057600080fd5b81600a8190555080600b819055505050505050505050505050505050620003a9565b62000291826009836040518082805190602001908083835b6020831015156200024157805182526020820191506020810190506020830392506200021a565b6001836020036101000a03801982511681845116808217855250505050505090500191505090815260200160405180910390206200034b6401000000000262006702179091906401000000009004565b8173ffffffffffffffffffffffffffffffffffffffff167fbfec83d64eaa953f2708271a023ab9ee82057f8f3578d548c1a4ba0b5b700489826040518080602001828103825283818151815260200191508051906020019080838360005b838110156200030c578082015181840152602081019050620002ef565b50505050905090810190601f1680156200033a5780820380516001836020036101000a031916815260200191505b509250505060405180910390a25050565b60018260000160008373ffffffffffffffffffffffffffffffffffffffff1673ffffffffffffffffffffffffffffffffffffffff16815260200190815260200160002060006101000a81548160ff0219169083151502179055505050565b61683880620003b96000396000f300608060405260043610610196576000357c0100000000000000000000000000000000000000000000000000000000900463ffffffff168063095ea7b31461019b5780630988ca8c1461020057806311abc0ca1461028957806318160ddd146102ee578063217fe6c61461031957806323b872dd146103ba5780632d376e941461043f578063309ba30e146104c257806341eef50f14610523578063442e97dd146105875780635b4df1ca1461060c5780635c06b5e31461069c57806365937717146106e9578063661884631461077857806370a08231146107dd57806388cee87e146108345780638ca055a7146108bd578063a4d4a09414610959578063a603126d146109c8578063a9059cbb14610a64578063ad0e27c114610ac9578063b25fa92c14610b20578063b706568f14610ba9578063be1fd03814610c38578063cacb670814610ca7578063cebe09c914610cd4578063d391014b14610cff578063d73dd62314610d8f578063dd62ed3e14610df4578063e59f041214610e6b578063e6ada8c714610fa2578063f140f98d14611031575b600080fd5b3480156101a757600080fd5b506101e6600480360381019080803573ffffffffffffffffffffffffffffffffffffffff169060200190929190803590602001909291905050506110a8565b604051808215151515815260200191505060405180910390f35b34801561020c57600080fd5b50610287600480360381019080803573ffffffffffffffffffffffffffffffffffffffff169060200190929190803590602001908201803590602001908080601f016020809104026020016040519081016040528093929190818152602001838380828437820191505050505050919291929050505061119a565b005b34801561029557600080fd5b506102d4600480360381019080803573ffffffffffffffffffffffffffffffffffffffff1690602001909291908035906020019092919050505061121b565b604051808215151515815260200191505060405180910390f35b3480156102fa57600080fd5b50610303611470565b6040518082815260200191505060405180910390f35b34801561032557600080fd5b506103a0600480360381019080803573ffffffffffffffffffffffffffffffffffffffff169060200190929190803590602001908201803590602001908080601f016020809104026020016040519081016040528093929190818152602001838380828437820191505050505050919291929050505061147a565b604051808215151515815260200191505060405180910390f35b3480156103c657600080fd5b50610425600480360381019080803573ffffffffffffffffffffffffffffffffffffffff169060200190929190803573ffffffffffffffffffffffffffffffffffffffff16906020019092919080359060200190929190505050611501565b604051808215151515815260200191505060405180910390f35b34801561044b57600080fd5b50610480600480360381019080803573ffffffffffffffffffffffffffffffffffffffff1690602001909291905050506118a3565b604051808273ffffffffffffffffffffffffffffffffffffffff1673ffffffffffffffffffffffffffffffffffffffff16815260200191505060405180910390f35b3480156104ce57600080fd5b5061052160048036038101908080359060200190929190803573ffffffffffffffffffffffffffffffffffffffff16906020019092919080359060200190929190803590602001909291905050506118d6565b005b34801561052f57600080fd5b5061058560048036038101908080359060200190929190803573ffffffffffffffffffffffffffffffffffffffff16906020019092919080359060200190929190803560ff169060200190929190505050611a40565b005b34801561059357600080fd5b506105f2600480360381019080803573ffffffffffffffffffffffffffffffffffffffff169060200190929190803573ffffffffffffffffffffffffffffffffffffffff16906020019092919080359060200190929190505050611de5565b604051808215151515815260200191505060405180910390f35b34801561061857600080fd5b506106216121d5565b6040518080602001828103825283818151815260200191508051906020019080838360005b83811015610661578082015181840152602081019050610646565b50505050905090810190601f16801561068e5780820380516001836020036101000a031916815260200191505b509250505060405180910390f35b3480156106a857600080fd5b506106e7600480360381019080803573ffffffffffffffffffffffffffffffffffffffff1690602001909291908035906020019092919050505061220e565b005b3480156106f557600080fd5b5061075e600480360381019080803573ffffffffffffffffffffffffffffffffffffffff16906020019092919080359060200190929190803573ffffffffffffffffffffffffffffffffffffffff16906020019092919080359060200190929190505050612658565b604051808215151515815260200191505060405180910390f35b34801561078457600080fd5b506107c3600480360381019080803573ffffffffffffffffffffffffffffffffffffffff16906020019092919080359060200190929190505050612707565b604051808215151515815260200191505060405180910390f35b3480156107e957600080fd5b5061081e600480360381019080803573ffffffffffffffffffffffffffffffffffffffff169060200190929190505050612999565b6040518082815260200191505060405180910390f35b34801561084057600080fd5b506108bb600480360381019080803573ffffffffffffffffffffffffffffffffffffffff169060200190929190803590602001908201803590602001908080601f01602080910402602001604051908101604052809392919081815260200183838082843782019150505050505091929192905050506129e1565b005b3480156108c957600080fd5b5061093f600480360381019080803573ffffffffffffffffffffffffffffffffffffffff16906020019092919080359060200190929190803573ffffffffffffffffffffffffffffffffffffffff16906020019092919080359060200190929190803560ff169060200190929190505050612a2e565b604051808215151515815260200191505060405180910390f35b34801561096557600080fd5b506109ae60048036038101908080359060200190929190803573ffffffffffffffffffffffffffffffffffffffff16906020019092919080359060200190929190505050612fc5565b604051808215151515815260200191505060405180910390f35b3480156109d457600080fd5b50610a4a600480360381019080803573ffffffffffffffffffffffffffffffffffffffff16906020019092919080359060200190929190803573ffffffffffffffffffffffffffffffffffffffff16906020019092919080359060200190929190803560ff1690602001909291905050506131a0565b604051808215151515815260200191505060405180910390f35b348015610a7057600080fd5b50610aaf600480360381019080803573ffffffffffffffffffffffffffffffffffffffff16906020019092919080359060200190929190505050613471565b604051808215151515815260200191505060405180910390f35b348015610ad557600080fd5b50610b1e60048036038101908080359060200190929190803573ffffffffffffffffffffffffffffffffffffffff16906020019092919080359060200190929190505050613753565b005b348015610b2c57600080fd5b50610ba7600480360381019080803573ffffffffffffffffffffffffffffffffffffffff169060200190929190803590602001908201803590602001908080601f01602080910402602001604051908101604052809392919081815260200183838082843782019150505050505091929192905050506137ee565b005b348015610bb557600080fd5b50610c1e600480360381019080803573ffffffffffffffffffffffffffffffffffffffff16906020019092919080359060200190929190803573ffffffffffffffffffffffffffffffffffffffff1690602001909291908035906020019092919050505061383b565b604051808215151515815260200191505060405180910390f35b348015610c4457600080fd5b50610c8d60048036038101908080359060200190929190803573ffffffffffffffffffffffffffffffffffffffff16906020019092919080359060200190929190505050613853565b604051808215151515815260200191505060405180910390f35b348015610cb357600080fd5b50610cd260048036038101908080359060200190929190505050613abf565b005b348015610ce057600080fd5b50610ce9613ce6565b6040518082815260200191505060405180910390f35b348015610d0b57600080fd5b50610d14613cec565b6040518080602001828103825283818151815260200191508051906020019080838360005b83811015610d54578082015181840152602081019050610d39565b50505050905090810190601f168015610d815780820380516001836020036101000a031916815260200191505b509250505060405180910390f35b348015610d9b57600080fd5b50610dda600480360381019080803573ffffffffffffffffffffffffffffffffffffffff16906020019092919080359060200190929190505050613d25565b604051808215151515815260200191505060405180910390f35b348015610e0057600080fd5b50610e55600480360381019080803573ffffffffffffffffffffffffffffffffffffffff169060200190929190803573ffffffffffffffffffffffffffffffffffffffff169060200190929190505050613f21565b6040518082815260200191505060405180910390f35b348015610e7757600080fd5b50610eac600480360381019080803573ffffffffffffffffffffffffffffffffffffffff169060200190929190505050613fa8565b604051808c73ffffffffffffffffffffffffffffffffffffffff1673ffffffffffffffffffffffffffffffffffffffff1681526020018b81526020018a73ffffffffffffffffffffffffffffffffffffffff1673ffffffffffffffffffffffffffffffffffffffff16815260200189151515158152602001881515151581526020018781526020018673ffffffffffffffffffffffffffffffffffffffff1673ffffffffffffffffffffffffffffffffffffffff168152602001858152602001846003811115610f7857fe5b60ff1681526020018381526020018281526020019b50505050505050505050505060405180910390f35b348015610fae57600080fd5b50611017600480360381019080803573ffffffffffffffffffffffffffffffffffffffff16906020019092919080359060200190929190803573ffffffffffffffffffffffffffffffffffffffff16906020019092919080359060200190929190505050614089565b604051808215151515815260200191505060405180910390f35b6110a6600480360381019080803573ffffffffffffffffffffffffffffffffffffffff16906020019092919080359060200190929190803573ffffffffffffffffffffffffffffffffffffffff16906020019092919080359060200190929190803560ff169060200190929190505050614138565b005b600081600260003373ffffffffffffffffffffffffffffffffffffffff1673ffffffffffffffffffffffffffffffffffffffff16815260200190815260200160002060008573ffffffffffffffffffffffffffffffffffffffff1673ffffffffffffffffffffffffffffffffffffffff168152602001908152602001600020819055508273ffffffffffffffffffffffffffffffffffffffff163373ffffffffffffffffffffffffffffffffffffffff167f8c5be1e5ebec7d5bd14f71427d1e84f3dd0314c0f7b2291e5b200ac8c7c3b925846040518082815260200191505060405180910390a36001905092915050565b611217826009836040518082805190602001908083835b6020831015156111d657805182526020820191506020810190506020830392506111b1565b6001836020036101000a038019825116818451168082178552505050505050905001915050908152602001604051809103902061419c90919063ffffffff16565b5050565b60008073ffffffffffffffffffffffffffffffffffffffff168373ffffffffffffffffffffffffffffffffffffffff161415151561125857600080fd5b6000803373ffffffffffffffffffffffffffffffffffffffff1673ffffffffffffffffffffffffffffffffffffffff1681526020019081526020016000205482111515156112a557600080fd5b6112f6826000803373ffffffffffffffffffffffffffffffffffffffff1673ffffffffffffffffffffffffffffffffffffffff168152602001908152602001600020546141b590919063ffffffff16565b6000803373ffffffffffffffffffffffffffffffffffffffff1673ffffffffffffffffffffffffffffffffffffffff1681526020019081526020016000208190555061138d60075483026000808673ffffffffffffffffffffffffffffffffffffffff1673ffffffffffffffffffffffffffffffffffffffff168152602001908152602001600020546141ce90919063ffffffff16565b6000808573ffffffffffffffffffffffffffffffffffffffff1673ffffffffffffffffffffffffffffffffffffffff168152602001908152602001600020819055506113fb6113ea600160075403846141ea90919063ffffffff16565b6003546141ce90919063ffffffff16565b6003819055508273ffffffffffffffffffffffffffffffffffffffff163373ffffffffffffffffffffffffffffffffffffffff167fddf252ad1be2c89b69c2b068fc378daa952ba7f163c4a11628f55a4df523b3ef846040518082815260200191505060405180910390a36001905092915050565b6000600154905090565b60006114f9836009846040518082805190602001908083835b6020831015156114b85780518252602082019150602081019050602083039250611493565b6001836020036101000a038019825116818451168082178552505050505050905001915050908152602001604051809103902061422290919063ffffffff16565b905092915050565b600080600860008573ffffffffffffffffffffffffffffffffffffffff1673ffffffffffffffffffffffffffffffffffffffff16815260200190815260200160002060009054906101000a900473ffffffffffffffffffffffffffffffffffffffff1673ffffffffffffffffffffffffffffffffffffffff1614151561158657600080fd5b600073ffffffffffffffffffffffffffffffffffffffff168473ffffffffffffffffffffffffffffffffffffffff16141515156115c257600080fd5b6001600260008673ffffffffffffffffffffffffffffffffffffffff1673ffffffffffffffffffffffffffffffffffffffff16815260200190815260200160002060003373ffffffffffffffffffffffffffffffffffffffff1673ffffffffffffffffffffffffffffffffffffffff1681526020019081526020016000208190555061164f848484611de5565b15611897576000600860008573ffffffffffffffffffffffffffffffffffffffff1673ffffffffffffffffffffffffffffffffffffffff16815260200190815260200160002060009054906101000a900473ffffffffffffffffffffffffffffffffffffffff1673ffffffffffffffffffffffffffffffffffffffff16141561181057600560009054906101000a900473ffffffffffffffffffffffffffffffffffffffff1673ffffffffffffffffffffffffffffffffffffffff16638af1cbb93086866040518463ffffffff167c0100000000000000000000000000000000000000000000000000000000028152600401808473ffffffffffffffffffffffffffffffffffffffff1673ffffffffffffffffffffffffffffffffffffffff1681526020018373ffffffffffffffffffffffffffffffffffffffff1673ffffffffffffffffffffffffffffffffffffffff1681526020018273ffffffffffffffffffffffffffffffffffffffff1673ffffffffffffffffffffffffffffffffffffffff1681526020019350505050600060405180830381600087803b1580156117f757600080fd5b505af115801561180b573d6000803e3d6000fd5b505050505b83600860008573ffffffffffffffffffffffffffffffffffffffff1673ffffffffffffffffffffffffffffffffffffffff16815260200190815260200160002060006101000a81548173ffffffffffffffffffffffffffffffffffffffff021916908373ffffffffffffffffffffffffffffffffffffffff1602179055506001905061189c565b600090505b9392505050565b60086020528060005260406000206000915054906101000a900473ffffffffffffffffffffffffffffffffffffffff1681565b60006040805190810160405280600a81526020017f636f6e74726f6c6c657200000000000000000000000000000000000000000000815250611918338261119a565b8484604051602001808373ffffffffffffffffffffffffffffffffffffffff1673ffffffffffffffffffffffffffffffffffffffff166c01000000000000000000000000028152601401828152602001925050506040516020818303038152906040526040518082805190602001908083835b6020831015156119b0578051825260208201915060208101905060208303925061198b565b6001836020036101000a0380198251168184511680821785525050505050509050019150506040518091039020600190049150826012600088815260200190815260200160002060008473ffffffffffffffffffffffffffffffffffffffff1673ffffffffffffffffffffffffffffffffffffffff16815260200190815260200160002081905550505050505050565b601160009054906101000a900473ffffffffffffffffffffffffffffffffffffffff1673ffffffffffffffffffffffffffffffffffffffff16633af32abf336040518263ffffffff167c0100000000000000000000000000000000000000000000000000000000028152600401808273ffffffffffffffffffffffffffffffffffffffff1673ffffffffffffffffffffffffffffffffffffffff168152602001915050602060405180830381600087803b158015611afd57600080fd5b505af1158015611b11573d6000803e3d6000fd5b505050506040513d6020811015611b2757600080fd5b81019080805190602001909291905050501515611b4357600080fd5b611b4b616760565b600d60003373ffffffffffffffffffffffffffffffffffffffff1673ffffffffffffffffffffffffffffffffffffffff16815260200190815260200160002061016060405190810160405290816000820160009054906101000a900473ffffffffffffffffffffffffffffffffffffffff1673ffffffffffffffffffffffffffffffffffffffff1673ffffffffffffffffffffffffffffffffffffffff168152602001600182015481526020016002820160009054906101000a900473ffffffffffffffffffffffffffffffffffffffff1673ffffffffffffffffffffffffffffffffffffffff1673ffffffffffffffffffffffffffffffffffffffff1681526020016002820160149054906101000a900460ff161515151581526020016002820160159054906101000a900460ff16151515158152602001600382015481526020016004820160009054906101000a900473ffffffffffffffffffffffffffffffffffffffff1673ffffffffffffffffffffffffffffffffffffffff1673ffffffffffffffffffffffffffffffffffffffff168152602001600582015481526020016006820160009054906101000a900460ff166003811115611d0b57fe5b6003811115611d1657fe5b815260200160078201548152602001600882015481525050905060008160a0015114151515611d4457600080fd5b8060600151158015611d5857508060800151155b1515611d6357600080fd5b611d6b61427b565b60006003811115611d7857fe5b826003811115611d8457fe5b1415611da657611d9633868686614aba565b1515611da157600080fd5b611dde565b60016003811115611db357fe5b826003811115611dbf57fe5b1415611ddd57611dd13386868661383b565b1515611ddc57600080fd5b5b5b5050505050565b60008073ffffffffffffffffffffffffffffffffffffffff168373ffffffffffffffffffffffffffffffffffffffff1614151515611e2257600080fd5b6000808573ffffffffffffffffffffffffffffffffffffffff1673ffffffffffffffffffffffffffffffffffffffff168152602001908152602001600020548211151515611e6f57600080fd5b600260008573ffffffffffffffffffffffffffffffffffffffff1673ffffffffffffffffffffffffffffffffffffffff16815260200190815260200160002060003373ffffffffffffffffffffffffffffffffffffffff1673ffffffffffffffffffffffffffffffffffffffff168152602001908152602001600020548211151515611efa57600080fd5b611f4b826000808773ffffffffffffffffffffffffffffffffffffffff1673ffffffffffffffffffffffffffffffffffffffff168152602001908152602001600020546141b590919063ffffffff16565b6000808673ffffffffffffffffffffffffffffffffffffffff1673ffffffffffffffffffffffffffffffffffffffff16815260200190815260200160002081905550611fe260075483026000808673ffffffffffffffffffffffffffffffffffffffff1673ffffffffffffffffffffffffffffffffffffffff168152602001908152602001600020546141ce90919063ffffffff16565b6000808573ffffffffffffffffffffffffffffffffffffffff1673ffffffffffffffffffffffffffffffffffffffff1681526020019081526020016000208190555061205061203f600160075403846141ea90919063ffffffff16565b6003546141ce90919063ffffffff16565b6003819055506120e582600260008773ffffffffffffffffffffffffffffffffffffffff1673ffffffffffffffffffffffffffffffffffffffff16815260200190815260200160002060003373ffffffffffffffffffffffffffffffffffffffff1673ffffffffffffffffffffffffffffffffffffffff168152602001908152602001600020546141b590919063ffffffff16565b600260008673ffffffffffffffffffffffffffffffffffffffff1673ffffffffffffffffffffffffffffffffffffffff16815260200190815260200160002060003373ffffffffffffffffffffffffffffffffffffffff1673ffffffffffffffffffffffffffffffffffffffff168152602001908152602001600020819055508273ffffffffffffffffffffffffffffffffffffffff168473ffffffffffffffffffffffffffffffffffffffff167fddf252ad1be2c89b69c2b068fc378daa952ba7f163c4a11628f55a4df523b3ef846040518082815260200191505060405180910390a3600190509392505050565b6040805190810160405280600a81526020017f636f6e74726f6c6c65720000000000000000000000000000000000000000000081525081565b60008060008060008073ffffffffffffffffffffffffffffffffffffffff168773ffffffffffffffffffffffffffffffffffffffff161415151561225157600080fd5b33945060003073ffffffffffffffffffffffffffffffffffffffff166370a08231876040518263ffffffff167c0100000000000000000000000000000000000000000000000000000000028152600401808273ffffffffffffffffffffffffffffffffffffffff1673ffffffffffffffffffffffffffffffffffffffff168152602001915050602060405180830381600087803b1580156122f157600080fd5b505af1158015612305573d6000803e3d6000fd5b505050506040513d602081101561231b57600080fd5b810190808051906020019092919050505014156123405761233e87866001611501565b505b3392505b60011561241557600860008473ffffffffffffffffffffffffffffffffffffffff1673ffffffffffffffffffffffffffffffffffffffff16815260200190815260200160002060009054906101000a900473ffffffffffffffffffffffffffffffffffffffff169250600660009054906101000a900473ffffffffffffffffffffffffffffffffffffffff1673ffffffffffffffffffffffffffffffffffffffff168373ffffffffffffffffffffffffffffffffffffffff16141561240857612415565b8380600101945050612344565b6124288487614b3290919063ffffffff16565b9150339250600090505b8381101561264f57600860008473ffffffffffffffffffffffffffffffffffffffff1673ffffffffffffffffffffffffffffffffffffffff16815260200190815260200160002060009054906101000a900473ffffffffffffffffffffffffffffffffffffffff1692506124ee82600460008673ffffffffffffffffffffffffffffffffffffffff1673ffffffffffffffffffffffffffffffffffffffff168152602001908152602001600020546141ce90919063ffffffff16565b600460008573ffffffffffffffffffffffffffffffffffffffff1673ffffffffffffffffffffffffffffffffffffffff16815260200190815260200160002081905550600560009054906101000a900473ffffffffffffffffffffffffffffffffffffffff1673ffffffffffffffffffffffffffffffffffffffff1663bd6cd0d13085856040518463ffffffff167c0100000000000000000000000000000000000000000000000000000000028152600401808473ffffffffffffffffffffffffffffffffffffffff1673ffffffffffffffffffffffffffffffffffffffff1681526020018373ffffffffffffffffffffffffffffffffffffffff1673ffffffffffffffffffffffffffffffffffffffff1681526020018281526020019350505050600060405180830381600087803b15801561262a57600080fd5b505af115801561263e573d6000803e3d6000fd5b505050508080600101915050612432565b50505050505050565b60006040805190810160405280600a81526020017f636f6e74726f6c6c65720000000000000000000000000000000000000000000081525061269a338261119a565b600b54421115156126aa57600080fd5b6126b686868686614b48565b503073ffffffffffffffffffffffffffffffffffffffff167fd5669ebe8b90ed693033f1915dcea031e7a16a6f146a8326c02eec10eed77edd60405160405180910390a26001915050949350505050565b600080600260003373ffffffffffffffffffffffffffffffffffffffff1673ffffffffffffffffffffffffffffffffffffffff16815260200190815260200160002060008573ffffffffffffffffffffffffffffffffffffffff1673ffffffffffffffffffffffffffffffffffffffff1681526020019081526020016000205490508083101515612819576000600260003373ffffffffffffffffffffffffffffffffffffffff1673ffffffffffffffffffffffffffffffffffffffff16815260200190815260200160002060008673ffffffffffffffffffffffffffffffffffffffff1673ffffffffffffffffffffffffffffffffffffffff168152602001908152602001600020819055506128ad565b61282c83826141b590919063ffffffff16565b600260003373ffffffffffffffffffffffffffffffffffffffff1673ffffffffffffffffffffffffffffffffffffffff16815260200190815260200160002060008673ffffffffffffffffffffffffffffffffffffffff1673ffffffffffffffffffffffffffffffffffffffff168152602001908152602001600020819055505b8373ffffffffffffffffffffffffffffffffffffffff163373ffffffffffffffffffffffffffffffffffffffff167f8c5be1e5ebec7d5bd14f71427d1e84f3dd0314c0f7b2291e5b200ac8c7c3b925600260003373ffffffffffffffffffffffffffffffffffffffff1673ffffffffffffffffffffffffffffffffffffffff16815260200190815260200160002060008873ffffffffffffffffffffffffffffffffffffffff1673ffffffffffffffffffffffffffffffffffffffff168152602001908152602001600020546040518082815260200191505060405180910390a3600191505092915050565b60008060008373ffffffffffffffffffffffffffffffffffffffff1673ffffffffffffffffffffffffffffffffffffffff168152602001908152602001600020549050919050565b612a20336040805190810160405280600581526020017f61646d696e00000000000000000000000000000000000000000000000000000081525061119a565b612a2a8282614d17565b5050565b6000612a38616760565b6040805190810160405280600a81526020017f636f6e74726f6c6c657200000000000000000000000000000000000000000000815250612a78338261119a565b600d60008973ffffffffffffffffffffffffffffffffffffffff1673ffffffffffffffffffffffffffffffffffffffff16815260200190815260200160002061016060405190810160405290816000820160009054906101000a900473ffffffffffffffffffffffffffffffffffffffff1673ffffffffffffffffffffffffffffffffffffffff1673ffffffffffffffffffffffffffffffffffffffff168152602001600182015481526020016002820160009054906101000a900473ffffffffffffffffffffffffffffffffffffffff1673ffffffffffffffffffffffffffffffffffffffff1673ffffffffffffffffffffffffffffffffffffffff1681526020016002820160149054906101000a900460ff161515151581526020016002820160159054906101000a900460ff16151515158152602001600382015481526020016004820160009054906101000a900473ffffffffffffffffffffffffffffffffffffffff1673ffffffffffffffffffffffffffffffffffffffff1673ffffffffffffffffffffffffffffffffffffffff168152602001600582015481526020016006820160009054906101000a900460ff166003811115612c3857fe5b6003811115612c4357fe5b815260200160078201548152602001600882015481525050915060008260a0015114158015612c7457508160800151155b8015612c8257508160600151155b1515612c8d57600080fd5b60006003811115612c9a57fe5b846003811115612ca657fe5b1415612e2357612cba888888886000614e4b565b600e60009054906101000a900473ffffffffffffffffffffffffffffffffffffffff1673ffffffffffffffffffffffffffffffffffffffff16638e8f6283308a8a8a8a60006040518763ffffffff167c0100000000000000000000000000000000000000000000000000000000028152600401808773ffffffffffffffffffffffffffffffffffffffff1673ffffffffffffffffffffffffffffffffffffffff1681526020018673ffffffffffffffffffffffffffffffffffffffff1673ffffffffffffffffffffffffffffffffffffffff1681526020018581526020018473ffffffffffffffffffffffffffffffffffffffff1673ffffffffffffffffffffffffffffffffffffffff168152602001838152602001826003811115612ddc57fe5b60ff1681526020019650505050505050600060405180830381600087803b158015612e0657600080fd5b505af1158015612e1a573d6000803e3d6000fd5b50505050612fb6565b60016003811115612e3057fe5b846003811115612e3c57fe5b1415612fb557612e50888888886001614e4b565b600e60009054906101000a900473ffffffffffffffffffffffffffffffffffffffff1673ffffffffffffffffffffffffffffffffffffffff16638e8f6283308a8a8a8a60016040518763ffffffff167c0100000000000000000000000000000000000000000000000000000000028152600401808773ffffffffffffffffffffffffffffffffffffffff1673ffffffffffffffffffffffffffffffffffffffff1681526020018673ffffffffffffffffffffffffffffffffffffffff1673ffffffffffffffffffffffffffffffffffffffff1681526020018581526020018473ffffffffffffffffffffffffffffffffffffffff1673ffffffffffffffffffffffffffffffffffffffff168152602001838152602001826003811115612f7257fe5b60ff1681526020019650505050505050600060405180830381600087803b158015612f9c57600080fd5b505af1158015612fb0573d6000803e3d6000fd5b505050505b5b60019250505095945050505050565b6000600a544210158015612fdb5750600b544211155b1515612fe657600080fd5b8273ffffffffffffffffffffffffffffffffffffffff1660405180807f7472616e7366657246726f6d28616464726573732c616464726573732c75696e81526020017f7432353629000000000000000000000000000000000000000000000000000000815250602501905060405180910390207c010000000000000000000000000000000000000000000000000000000090043330856040518463ffffffff167c0100000000000000000000000000000000000000000000000000000000028152600401808473ffffffffffffffffffffffffffffffffffffffff1673ffffffffffffffffffffffffffffffffffffffff1681526020018373ffffffffffffffffffffffffffffffffffffffff1673ffffffffffffffffffffffffffffffffffffffff16815260200182815260200193505050506000604051808303816000875af192505050151561313757600080fd5b81600c600086815260200190815260200160002060008573ffffffffffffffffffffffffffffffffffffffff1673ffffffffffffffffffffffffffffffffffffffff16815260200190815260200160002060008282540192505081905550600190509392505050565b60006131aa616760565b6040805190810160405280600a81526020017f636f6e74726f6c6c6572000000000000000000000000000000000000000000008152506131ea338261119a565b600d60008973ffffffffffffffffffffffffffffffffffffffff1673ffffffffffffffffffffffffffffffffffffffff16815260200190815260200160002061016060405190810160405290816000820160009054906101000a900473ffffffffffffffffffffffffffffffffffffffff1673ffffffffffffffffffffffffffffffffffffffff1673ffffffffffffffffffffffffffffffffffffffff168152602001600182015481526020016002820160009054906101000a900473ffffffffffffffffffffffffffffffffffffffff1673ffffffffffffffffffffffffffffffffffffffff1673ffffffffffffffffffffffffffffffffffffffff1681526020016002820160149054906101000a900460ff161515151581526020016002820160159054906101000a900460ff16151515158152602001600382015481526020016004820160009054906101000a900473ffffffffffffffffffffffffffffffffffffffff1673ffffffffffffffffffffffffffffffffffffffff1673ffffffffffffffffffffffffffffffffffffffff168152602001600582015481526020016006820160009054906101000a900460ff1660038111156133aa57fe5b60038111156133b557fe5b815260200160078201548152602001600882015481525050915060008260a00151141580156133e657508160800151155b80156133f457508160600151155b15156133ff57600080fd5b8161014001514211151561341257600080fd5b61341f8888888888614e4b565b3073ffffffffffffffffffffffffffffffffffffffff167fd5669ebe8b90ed693033f1915dcea031e7a16a6f146a8326c02eec10eed77edd60405160405180910390a260019250505095945050505050565b600080600860008573ffffffffffffffffffffffffffffffffffffffff1673ffffffffffffffffffffffffffffffffffffffff16815260200190815260200160002060009054906101000a900473ffffffffffffffffffffffffffffffffffffffff1673ffffffffffffffffffffffffffffffffffffffff161415156134f657600080fd5b613500838361121b565b15613748576000600860008573ffffffffffffffffffffffffffffffffffffffff1673ffffffffffffffffffffffffffffffffffffffff16815260200190815260200160002060009054906101000a900473ffffffffffffffffffffffffffffffffffffffff1673ffffffffffffffffffffffffffffffffffffffff1614156136c157600560009054906101000a900473ffffffffffffffffffffffffffffffffffffffff1673ffffffffffffffffffffffffffffffffffffffff16638af1cbb93033866040518463ffffffff167c0100000000000000000000000000000000000000000000000000000000028152600401808473ffffffffffffffffffffffffffffffffffffffff1673ffffffffffffffffffffffffffffffffffffffff1681526020018373ffffffffffffffffffffffffffffffffffffffff1673ffffffffffffffffffffffffffffffffffffffff1681526020018273ffffffffffffffffffffffffffffffffffffffff1673ffffffffffffffffffffffffffffffffffffffff1681526020019350505050600060405180830381600087803b1580156136a857600080fd5b505af11580156136bc573d6000803e3d6000fd5b505050505b33600860008573ffffffffffffffffffffffffffffffffffffffff1673ffffffffffffffffffffffffffffffffffffffff16815260200190815260200160002060006101000a81548173ffffffffffffffffffffffffffffffffffffffff021916908373ffffffffffffffffffffffffffffffffffffffff1602179055506001905061374d565b600090505b92915050565b6040805190810160405280600a81526020017f636f6e74726f6c6c657200000000000000000000000000000000000000000000815250613793338261119a565b816012600086815260200190815260200160002060008573ffffffffffffffffffffffffffffffffffffffff1673ffffffffffffffffffffffffffffffffffffffff1681526020019081526020016000208190555050505050565b61382d336040805190810160405280600581526020017f61646d696e00000000000000000000000000000000000000000000000000000081525061119a565b61383782826154f1565b5050565b600061384985858585614b48565b9050949350505050565b600080600a54421015801561386a5750600b544211155b151561387557600080fd5b8373ffffffffffffffffffffffffffffffffffffffff1660405180807f7472616e7366657246726f6d28616464726573732c616464726573732c75696e81526020017f7432353629000000000000000000000000000000000000000000000000000000815250602501905060405180910390207c0100000000000000000000000000000000000000000000000000000000900433856040518363ffffffff167c0100000000000000000000000000000000000000000000000000000000028152600401808373ffffffffffffffffffffffffffffffffffffffff1673ffffffffffffffffffffffffffffffffffffffff168152602001828152602001925050506000604051808303816000875af192505050151561399257600080fd5b8383604051602001808373ffffffffffffffffffffffffffffffffffffffff1673ffffffffffffffffffffffffffffffffffffffff166c01000000000000000000000000028152601401828152602001925050506040516020818303038152906040526040518082805190602001908083835b602083101515613a2a5780518252602082019150602081019050602083039250613a05565b6001836020036101000a03801982511681845116808217855250505050505090500191505060405180910390206001900490506001600c600087815260200190815260200160002060008373ffffffffffffffffffffffffffffffffffffffff1673ffffffffffffffffffffffffffffffffffffffff1681526020019081526020016000208190555060019150509392505050565b80600460003373ffffffffffffffffffffffffffffffffffffffff1673ffffffffffffffffffffffffffffffffffffffff1681526020019081526020016000205410158015613b0e5750600081115b1515613b1957600080fd5b613b6b81600460003373ffffffffffffffffffffffffffffffffffffffff1673ffffffffffffffffffffffffffffffffffffffff168152602001908152602001600020546141b590919063ffffffff16565b600460003373ffffffffffffffffffffffffffffffffffffffff1673ffffffffffffffffffffffffffffffffffffffff16815260200190815260200160002081905550600f60009054906101000a900473ffffffffffffffffffffffffffffffffffffffff1673ffffffffffffffffffffffffffffffffffffffff166323b872dd3033846040518463ffffffff167c0100000000000000000000000000000000000000000000000000000000028152600401808473ffffffffffffffffffffffffffffffffffffffff1673ffffffffffffffffffffffffffffffffffffffff1681526020018373ffffffffffffffffffffffffffffffffffffffff1673ffffffffffffffffffffffffffffffffffffffff1681526020018281526020019350505050602060405180830381600087803b158015613ca757600080fd5b505af1158015613cbb573d6000803e3d6000fd5b505050506040513d6020811015613cd157600080fd5b81019080805190602001909291905050505050565b60075481565b6040805190810160405280600581526020017f61646d696e00000000000000000000000000000000000000000000000000000081525081565b6000613db682600260003373ffffffffffffffffffffffffffffffffffffffff1673ffffffffffffffffffffffffffffffffffffffff16815260200190815260200160002060008673ffffffffffffffffffffffffffffffffffffffff1673ffffffffffffffffffffffffffffffffffffffff168152602001908152602001600020546141ce90919063ffffffff16565b600260003373ffffffffffffffffffffffffffffffffffffffff1673ffffffffffffffffffffffffffffffffffffffff16815260200190815260200160002060008573ffffffffffffffffffffffffffffffffffffffff1673ffffffffffffffffffffffffffffffffffffffff168152602001908152602001600020819055508273ffffffffffffffffffffffffffffffffffffffff163373ffffffffffffffffffffffffffffffffffffffff167f8c5be1e5ebec7d5bd14f71427d1e84f3dd0314c0f7b2291e5b200ac8c7c3b925600260003373ffffffffffffffffffffffffffffffffffffffff1673ffffffffffffffffffffffffffffffffffffffff16815260200190815260200160002060008773ffffffffffffffffffffffffffffffffffffffff1673ffffffffffffffffffffffffffffffffffffffff168152602001908152602001600020546040518082815260200191505060405180910390a36001905092915050565b6000600260008473ffffffffffffffffffffffffffffffffffffffff1673ffffffffffffffffffffffffffffffffffffffff16815260200190815260200160002060008373ffffffffffffffffffffffffffffffffffffffff1673ffffffffffffffffffffffffffffffffffffffff16815260200190815260200160002054905092915050565b600d6020528060005260406000206000915090508060000160009054906101000a900473ffffffffffffffffffffffffffffffffffffffff16908060010154908060020160009054906101000a900473ffffffffffffffffffffffffffffffffffffffff16908060020160149054906101000a900460ff16908060020160159054906101000a900460ff16908060030154908060040160009054906101000a900473ffffffffffffffffffffffffffffffffffffffff16908060050154908060060160009054906101000a900460ff1690806007015490806008015490508b565b60006040805190810160405280600a81526020017f636f6e74726f6c6c6572000000000000000000000000000000000000000000008152506140cb338261119a565b600b54421115156140db57600080fd5b6140e786868686615625565b503073ffffffffffffffffffffffffffffffffffffffff167fd5669ebe8b90ed693033f1915dcea031e7a16a6f146a8326c02eec10eed77edd60405160405180910390a26001915050949350505050565b6001600381111561414557fe5b81600381111561415157fe5b141561416857614163858585856158b9565b614195565b6000600381111561417557fe5b81600381111561418157fe5b14156141945761419385858585615f2f565b5b5b5050505050565b6141a68282614222565b15156141b157600080fd5b5050565b60008282111515156141c357fe5b818303905092915050565b600081830190508281101515156141e157fe5b80905092915050565b6000808314156141fd576000905061421c565b818302905081838281151561420e57fe5b0414151561421857fe5b8090505b92915050565b60008260000160008373ffffffffffffffffffffffffffffffffffffffff1673ffffffffffffffffffffffffffffffffffffffff16815260200190815260200160002060009054906101000a900460ff16905092915050565b614283616760565b6000806000600d60003373ffffffffffffffffffffffffffffffffffffffff1673ffffffffffffffffffffffffffffffffffffffff16815260200190815260200160002061016060405190810160405290816000820160009054906101000a900473ffffffffffffffffffffffffffffffffffffffff1673ffffffffffffffffffffffffffffffffffffffff1673ffffffffffffffffffffffffffffffffffffffff168152602001600182015481526020016002820160009054906101000a900473ffffffffffffffffffffffffffffffffffffffff1673ffffffffffffffffffffffffffffffffffffffff1673ffffffffffffffffffffffffffffffffffffffff1681526020016002820160149054906101000a900460ff161515151581526020016002820160159054906101000a900460ff16151515158152602001600382015481526020016004820160009054906101000a900473ffffffffffffffffffffffffffffffffffffffff1673ffffffffffffffffffffffffffffffffffffffff1673ffffffffffffffffffffffffffffffffffffffff168152602001600582015481526020016006820160009054906101000a900460ff16600381111561444857fe5b600381111561445357fe5b8152602001600782015481526020016008820154815250509350600184606001901515908115158152505083600d60003373ffffffffffffffffffffffffffffffffffffffff1673ffffffffffffffffffffffffffffffffffffffff16815260200190815260200160002060008201518160000160006101000a81548173ffffffffffffffffffffffffffffffffffffffff021916908373ffffffffffffffffffffffffffffffffffffffff1602179055506020820151816001015560408201518160020160006101000a81548173ffffffffffffffffffffffffffffffffffffffff021916908373ffffffffffffffffffffffffffffffffffffffff16021790555060608201518160020160146101000a81548160ff02191690831515021790555060808201518160020160156101000a81548160ff02191690831515021790555060a0820151816003015560c08201518160040160006101000a81548173ffffffffffffffffffffffffffffffffffffffff021916908373ffffffffffffffffffffffffffffffffffffffff16021790555060e082015181600501556101008201518160060160006101000a81548160ff0219169083600381111561461657fe5b0217905550610120820151816007015561014082015181600801559050506146418460200151616659565b9250600f60009054906101000a900473ffffffffffffffffffffffffffffffffffffffff1673ffffffffffffffffffffffffffffffffffffffff1663a9059cbb601560009054906101000a900473ffffffffffffffffffffffffffffffffffffffff166146b9601354876141ea90919063ffffffff16565b6040518363ffffffff167c0100000000000000000000000000000000000000000000000000000000028152600401808373ffffffffffffffffffffffffffffffffffffffff1673ffffffffffffffffffffffffffffffffffffffff16815260200182815260200192505050602060405180830381600087803b15801561473e57600080fd5b505af1158015614752573d6000803e3d6000fd5b505050506040513d602081101561476857600080fd5b8101908080519060200190929190505050151561478457600080fd5b836020015191506147b360646147a5846018546141ea90919063ffffffff16565b614b3290919063ffffffff16565b9050600f60009054906101000a900473ffffffffffffffffffffffffffffffffffffffff1673ffffffffffffffffffffffffffffffffffffffff1663a9059cbb601460009054906101000a900473ffffffffffffffffffffffffffffffffffffffff1661484f601354614841866148338a8a6141b590919063ffffffff16565b6141b590919063ffffffff16565b6141ea90919063ffffffff16565b6040518363ffffffff167c0100000000000000000000000000000000000000000000000000000000028152600401808373ffffffffffffffffffffffffffffffffffffffff1673ffffffffffffffffffffffffffffffffffffffff16815260200182815260200192505050602060405180830381600087803b1580156148d457600080fd5b505af11580156148e8573d6000803e3d6000fd5b505050506040513d60208110156148fe57600080fd5b8101908080519060200190929190505050151561491a57600080fd5b61493c8460000151614937601354846141ea90919063ffffffff16565b61220e565b600e60009054906101000a900473ffffffffffffffffffffffffffffffffffffffff1673ffffffffffffffffffffffffffffffffffffffff16633a0f6a3c3086604001518760a001518860c001518960e001518a61010001516040518763ffffffff167c0100000000000000000000000000000000000000000000000000000000028152600401808773ffffffffffffffffffffffffffffffffffffffff1673ffffffffffffffffffffffffffffffffffffffff1681526020018673ffffffffffffffffffffffffffffffffffffffff1673ffffffffffffffffffffffffffffffffffffffff1681526020018581526020018473ffffffffffffffffffffffffffffffffffffffff1673ffffffffffffffffffffffffffffffffffffffff168152602001838152602001826003811115614a7257fe5b60ff1681526020019650505050505050600060405180830381600087803b158015614a9c57600080fd5b505af1158015614ab0573d6000803e3d6000fd5b5050505050505050565b6000600a544210158015614ad05750600b544211155b1515614adb57600080fd5b6040805190810160405280600a81526020017f636f6e74726f6c6c657200000000000000000000000000000000000000000000815250614b1b338261119a565b614b2786868686615625565b915050949350505050565b60008183811515614b3f57fe5b04905092915050565b60008273ffffffffffffffffffffffffffffffffffffffff1660405160200180807f7472616e7366657228616464726573732c75696e74323536290000000000000081525060190190506040516020818303038152906040526040518082805190602001908083835b602083101515614bd65780518252602082019150602081019050602083039250614bb1565b6001836020036101000a03801982511681845116808217855250505050505090500191505060405180910390207c0100000000000000000000000000000000000000000000000000000000900486846040518363ffffffff167c0100000000000000000000000000000000000000000000000000000000028152600401808373ffffffffffffffffffffffffffffffffffffffff1673ffffffffffffffffffffffffffffffffffffffff168152602001828152602001925050506000604051808303816000875af1925050501515614cad57600080fd5b81600c600086815260200190815260200160002060008573ffffffffffffffffffffffffffffffffffffffff1673ffffffffffffffffffffffffffffffffffffffff1681526020019081526020016000206000828254039250508190555060019050949350505050565b614d94826009836040518082805190602001908083835b602083101515614d535780518252602082019150602081019050602083039250614d2e565b6001836020036101000a03801982511681845116808217855250505050505090500191505090815260200160405180910390206166a490919063ffffffff16565b8173ffffffffffffffffffffffffffffffffffffffff167fd211483f91fc6eff862467f8de606587a30c8fc9981056f051b897a418df803a826040518080602001828103825283818151815260200191508051906020019080838360005b83811015614e0d578082015181840152602081019050614df2565b50505050905090810190601f168015614e3a5780820380516001836020036101000a031916815260200191505b509250505060405180910390a25050565b614e53616760565b6000600d60008873ffffffffffffffffffffffffffffffffffffffff1673ffffffffffffffffffffffffffffffffffffffff16815260200190815260200160002061016060405190810160405290816000820160009054906101000a900473ffffffffffffffffffffffffffffffffffffffff1673ffffffffffffffffffffffffffffffffffffffff1673ffffffffffffffffffffffffffffffffffffffff168152602001600182015481526020016002820160009054906101000a900473ffffffffffffffffffffffffffffffffffffffff1673ffffffffffffffffffffffffffffffffffffffff1673ffffffffffffffffffffffffffffffffffffffff1681526020016002820160149054906101000a900460ff161515151581526020016002820160159054906101000a900460ff16151515158152602001600382015481526020016004820160009054906101000a900473ffffffffffffffffffffffffffffffffffffffff1673ffffffffffffffffffffffffffffffffffffffff1673ffffffffffffffffffffffffffffffffffffffff168152602001600582015481526020016006820160009054906101000a900460ff16600381111561501557fe5b600381111561502057fe5b8152602001600782015481526020016008820154815250509150600182608001901515908115158152505081600d60008973ffffffffffffffffffffffffffffffffffffffff1673ffffffffffffffffffffffffffffffffffffffff16815260200190815260200160002060008201518160000160006101000a81548173ffffffffffffffffffffffffffffffffffffffff021916908373ffffffffffffffffffffffffffffffffffffffff1602179055506020820151816001015560408201518160020160006101000a81548173ffffffffffffffffffffffffffffffffffffffff021916908373ffffffffffffffffffffffffffffffffffffffff16021790555060608201518160020160146101000a81548160ff02191690831515021790555060808201518160020160156101000a81548160ff02191690831515021790555060a0820151816003015560c08201518160040160006101000a81548173ffffffffffffffffffffffffffffffffffffffff021916908373ffffffffffffffffffffffffffffffffffffffff16021790555060e082015181600501556101008201518160060160006101000a81548160ff021916908360038111156151e357fe5b0217905550610120820151816007015561014082015181600801559050506000600381111561520e57fe5b83600381111561521a57fe5b1415615346578484604051602001808373ffffffffffffffffffffffffffffffffffffffff1673ffffffffffffffffffffffffffffffffffffffff166c01000000000000000000000000028152601401828152602001925050506040516020818303038152906040526040518082805190602001908083835b6020831015156152b85780518252602082019150602081019050602083039250615293565b6001836020036101000a03801982511681845116808217855250505050505090500191505060405180910390206001900490506001600c600088815260200190815260200160002060008373ffffffffffffffffffffffffffffffffffffffff1673ffffffffffffffffffffffffffffffffffffffff168152602001908152602001600020819055506153c5565b6001600381111561535357fe5b83600381111561535f57fe5b14156153c45783600c600088815260200190815260200160002060008773ffffffffffffffffffffffffffffffffffffffff1673ffffffffffffffffffffffffffffffffffffffff168152602001908152602001600020600082825401925050819055505b5b600f60009054906101000a900473ffffffffffffffffffffffffffffffffffffffff1673ffffffffffffffffffffffffffffffffffffffff1663a9059cbb8861541d60135486602001516141ea90919063ffffffff16565b6040518363ffffffff167c0100000000000000000000000000000000000000000000000000000000028152600401808373ffffffffffffffffffffffffffffffffffffffff1673ffffffffffffffffffffffffffffffffffffffff16815260200182815260200192505050602060405180830381600087803b1580156154a257600080fd5b505af11580156154b6573d6000803e3d6000fd5b505050506040513d60208110156154cc57600080fd5b810190808051906020019092919050505015156154e857600080fd5b50505050505050565b61556e826009836040518082805190602001908083835b60208310151561552d5780518252602082019150602081019050602083039250615508565b6001836020036101000a038019825116818451168082178552505050505050905001915050908152602001604051809103902061670290919063ffffffff16565b8173ffffffffffffffffffffffffffffffffffffffff167fbfec83d64eaa953f2708271a023ab9ee82057f8f3578d548c1a4ba0b5b700489826040518080602001828103825283818151815260200191508051906020019080838360005b838110156155e75780820151818401526020810190506155cc565b50505050905090810190601f1680156156145780820380516001836020036101000a031916815260200191505b509250505060405180910390a25050565b6000808383604051602001808373ffffffffffffffffffffffffffffffffffffffff1673ffffffffffffffffffffffffffffffffffffffff166c01000000000000000000000000028152601401828152602001925050506040516020818303038152906040526040518082805190602001908083835b6020831015156156c0578051825260208201915060208101905060208303925061569b565b6001836020036101000a03801982511681845116808217855250505050505090500191505060405180910390206001900490508373ffffffffffffffffffffffffffffffffffffffff1660405160200180807f7472616e7366657228616464726573732c75696e74323536290000000000000081525060190190506040516020818303038152906040526040518082805190602001908083835b60208310151561577f578051825260208201915060208101905060208303925061575a565b6001836020036101000a03801982511681845116808217855250505050505090500191505060405180910390207c0100000000000000000000000000000000000000000000000000000000900487856040518363ffffffff167c0100000000000000000000000000000000000000000000000000000000028152600401808373ffffffffffffffffffffffffffffffffffffffff1673ffffffffffffffffffffffffffffffffffffffff168152602001828152602001925050506000604051808303816000875af192505050151561585657600080fd5b6000600c600087815260200190815260200160002060008373ffffffffffffffffffffffffffffffffffffffff1673ffffffffffffffffffffffffffffffffffffffff168152602001908152602001600020819055506001915050949350505050565b60006158c3616760565b600a5442101580156158d75750600b544211155b15156158e257600080fd5b600083118015615942575060006012600087815260200190815260200160002060008673ffffffffffffffffffffffffffffffffffffffff1673ffffffffffffffffffffffffffffffffffffffff16815260200190815260200160002054115b151561594d57600080fd5b6159c46013546159b685601260008a815260200190815260200160002060008973ffffffffffffffffffffffffffffffffffffffff1673ffffffffffffffffffffffffffffffffffffffff168152602001908152602001600020546141ea90919063ffffffff16565b6141ea90919063ffffffff16565b9150600f60009054906101000a900473ffffffffffffffffffffffffffffffffffffffff1673ffffffffffffffffffffffffffffffffffffffff166323b872dd3330856040518463ffffffff167c0100000000000000000000000000000000000000000000000000000000028152600401808473ffffffffffffffffffffffffffffffffffffffff1673ffffffffffffffffffffffffffffffffffffffff1681526020018373ffffffffffffffffffffffffffffffffffffffff1673ffffffffffffffffffffffffffffffffffffffff1681526020018281526020019350505050602060405180830381600087803b158015615abf57600080fd5b505af1158015615ad3573d6000803e3d6000fd5b505050506040513d6020811015615ae957600080fd5b81019080805190602001909291905050501515615b0557600080fd5b610160604051908101604052808773ffffffffffffffffffffffffffffffffffffffff1681526020018381526020013373ffffffffffffffffffffffffffffffffffffffff1681526020016000151581526020016000151581526020018681526020018573ffffffffffffffffffffffffffffffffffffffff16815260200184815260200160016003811115615b9757fe5b8152602001428152602001603c601654024201815250905082600c600087815260200190815260200160002060008673ffffffffffffffffffffffffffffffffffffffff1673ffffffffffffffffffffffffffffffffffffffff16815260200190815260200160002060008282540392505081905550600e60009054906101000a900473ffffffffffffffffffffffffffffffffffffffff1673ffffffffffffffffffffffffffffffffffffffff166345d29f0f303388888860016040518763ffffffff167c0100000000000000000000000000000000000000000000000000000000028152600401808773ffffffffffffffffffffffffffffffffffffffff1673ffffffffffffffffffffffffffffffffffffffff1681526020018673ffffffffffffffffffffffffffffffffffffffff1673ffffffffffffffffffffffffffffffffffffffff1681526020018581526020018473ffffffffffffffffffffffffffffffffffffffff1673ffffffffffffffffffffffffffffffffffffffff168152602001838152602001826003811115615d2f57fe5b60ff1681526020019650505050505050600060405180830381600087803b158015615d5957600080fd5b505af1158015615d6d573d6000803e3d6000fd5b5050505080600d60003373ffffffffffffffffffffffffffffffffffffffff1673ffffffffffffffffffffffffffffffffffffffff16815260200190815260200160002060008201518160000160006101000a81548173ffffffffffffffffffffffffffffffffffffffff021916908373ffffffffffffffffffffffffffffffffffffffff1602179055506020820151816001015560408201518160020160006101000a81548173ffffffffffffffffffffffffffffffffffffffff021916908373ffffffffffffffffffffffffffffffffffffffff16021790555060608201518160020160146101000a81548160ff02191690831515021790555060808201518160020160156101000a81548160ff02191690831515021790555060a0820151816003015560c08201518160040160006101000a81548173ffffffffffffffffffffffffffffffffffffffff021916908373ffffffffffffffffffffffffffffffffffffffff16021790555060e082015181600501556101008201518160060160006101000a81548160ff02191690836003811115615f0957fe5b021790555061012082015181600701556101408201518160080155905050505050505050565b600080615f3a616760565b600a544210158015615f4e5750600b544211155b1515615f5957600080fd5b8484604051602001808373ffffffffffffffffffffffffffffffffffffffff1673ffffffffffffffffffffffffffffffffffffffff166c01000000000000000000000000028152601401828152602001925050506040516020818303038152906040526040518082805190602001908083835b602083101515615ff15780518252602082019150602081019050602083039250615fcc565b6001836020036101000a038019825116818451168082178552505050505050905001915050604051809103902060019004925060008414158015616085575060006012600088815260200190815260200160002060008573ffffffffffffffffffffffffffffffffffffffff1673ffffffffffffffffffffffffffffffffffffffff16815260200190815260200160002054115b151561609057600080fd5b6160f56013546012600089815260200190815260200160002060008673ffffffffffffffffffffffffffffffffffffffff1673ffffffffffffffffffffffffffffffffffffffff168152602001908152602001600020546141ea90919063ffffffff16565b9150600f60009054906101000a900473ffffffffffffffffffffffffffffffffffffffff1673ffffffffffffffffffffffffffffffffffffffff166323b872dd3330856040518463ffffffff167c0100000000000000000000000000000000000000000000000000000000028152600401808473ffffffffffffffffffffffffffffffffffffffff1673ffffffffffffffffffffffffffffffffffffffff1681526020018373ffffffffffffffffffffffffffffffffffffffff1673ffffffffffffffffffffffffffffffffffffffff1681526020018281526020019350505050602060405180830381600087803b1580156161f057600080fd5b505af1158015616204573d6000803e3d6000fd5b505050506040513d602081101561621a57600080fd5b8101908080519060200190929190505050151561623657600080fd5b610160604051908101604052808873ffffffffffffffffffffffffffffffffffffffff1681526020018381526020013373ffffffffffffffffffffffffffffffffffffffff1681526020016000151581526020016000151581526020018781526020018673ffffffffffffffffffffffffffffffffffffffff168152602001858152602001600060038111156162c857fe5b8152602001428152602001603c60165402420181525090506000600c600088815260200190815260200160002060008573ffffffffffffffffffffffffffffffffffffffff1673ffffffffffffffffffffffffffffffffffffffff16815260200190815260200160002081905550600e60009054906101000a900473ffffffffffffffffffffffffffffffffffffffff1673ffffffffffffffffffffffffffffffffffffffff166345d29f0f303389898960006040518763ffffffff167c0100000000000000000000000000000000000000000000000000000000028152600401808773ffffffffffffffffffffffffffffffffffffffff1673ffffffffffffffffffffffffffffffffffffffff1681526020018673ffffffffffffffffffffffffffffffffffffffff1673ffffffffffffffffffffffffffffffffffffffff1681526020018581526020018473ffffffffffffffffffffffffffffffffffffffff1673ffffffffffffffffffffffffffffffffffffffff16815260200183815260200182600381111561645857fe5b60ff1681526020019650505050505050600060405180830381600087803b15801561648257600080fd5b505af1158015616496573d6000803e3d6000fd5b5050505080600d60003373ffffffffffffffffffffffffffffffffffffffff1673ffffffffffffffffffffffffffffffffffffffff16815260200190815260200160002060008201518160000160006101000a81548173ffffffffffffffffffffffffffffffffffffffff021916908373ffffffffffffffffffffffffffffffffffffffff1602179055506020820151816001015560408201518160020160006101000a81548173ffffffffffffffffffffffffffffffffffffffff021916908373ffffffffffffffffffffffffffffffffffffffff16021790555060608201518160020160146101000a81548160ff02191690831515021790555060808201518160020160156101000a81548160ff02191690831515021790555060a0820151816003015560c08201518160040160006101000a81548173ffffffffffffffffffffffffffffffffffffffff021916908373ffffffffffffffffffffffffffffffffffffffff16021790555060e082015181600501556101008201518160060160006101000a81548160ff0219169083600381111561663257fe5b02179055506101208201518160070155610140820151816008015590505050505050505050565b600080600060175411156166995761668f6064616681601754866141ea90919063ffffffff16565b614b3290919063ffffffff16565b905080915061669e565b600091505b50919050565b60008260000160008373ffffffffffffffffffffffffffffffffffffffff1673ffffffffffffffffffffffffffffffffffffffff16815260200190815260200160002060006101000a81548160ff0219169083151502179055505050565b60018260000160008373ffffffffffffffffffffffffffffffffffffffff1673ffffffffffffffffffffffffffffffffffffffff16815260200190815260200160002060006101000a81548160ff0219169083151502179055505050565b61016060405190810160405280600073ffffffffffffffffffffffffffffffffffffffff16815260200160008152602001600073ffffffffffffffffffffffffffffffffffffffff16815260200160001515815260200160001515815260200160008152602001600073ffffffffffffffffffffffffffffffffffffffff16815260200160008152602001600060038111156167f857fe5b8152602001600081526020016000815250905600a165627a7a72305820866000cfd5647565e76efe4f61ddfc6e408e48793b22a908c62bdc44af0971b10029",
  "source": "pragma solidity ^0.4.24; \n\nimport '../openzeppelin-solidity/contracts/math/SafeMath.sol';\n\nimport './ERC20full.sol';\nimport './TwoKeyEconomy.sol';\nimport './TwoKeyWhitelisted.sol';\nimport './ComposableAssetFactory.sol';\nimport './TwoKeyTypes.sol';\nimport './TwoKeyEventSource.sol';\nimport './TwoKeyARC.sol';\n\ncontract TwoKeyCampaign is TwoKeyARC, ComposableAssetFactory, TwoKeyTypes {\n\n\tusing SafeMath for uint256;\n\n\tstruct Conversion {\n\t\taddress from;\n\t\tuint256 payout;\n\t\taddress converter;\t\n\t\tbool isFulfilled;\n\t\tbool isCancelled;\n\t\tuint256 tokenID;\n\t\taddress assetContract;\n\t\tuint256 indexOrAmount;\n\t\tCampaignType campaignType;\n\t\tuint256 openingTime;\n\t\tuint256 closingTime;\n\t}\n\n\tmapping (address => Conversion) public conversions;\n\n\t\n\t// emit through it events for backend to listen to\n\tTwoKeyEventSource eventSource;\n\n\t// 2key token\n\tTwoKeyEconomy economy;\n\n\t// whitelists will be managed by their ownership\n\t// they are the vehicles to convey KYC for different roles: converter, influencer, contractor\n\t// whitelists are outside the campaign\n\t// these whtelists may be shared across campaigns\n\n\t// whitelist of influencers, to which users are added after kyc\n\t// TODO (udi) what should I do if I dont want to manage a white list?\n\tTwoKeyWhitelisted whitelistInfluencer;\n\n\t// whitelist of converters, to which users are added after kyc\n\tTwoKeyWhitelisted whitelistConverter;\n\n\t// prices of assets\n\t// TODO (udi) there should be just one token->address->price you dont need two maps\n\tmapping(uint256 => mapping(address => uint256)) prices; \n\n\t// rate of conversion from TwoKey to ETH\n\tuint256 rate;\n\n\n\taddress contractor;\n\taddress moderator;\n\n\t// parameters of escrow\n\n\t// how long will hold asset in escrow\n\tuint256 expiryConversion;\n\n\t// precentage of payout to. be paid for moderator for escrow\n\tuint256 escrowPrecentage;\n\n    // maximum precentage of all rewards out of payout for asset\n    // acording to incentive model, for each campaign, \n    // we set its maximum reward which the campaign is created as a precentage of the payout for\n    // an item sold in the campaign\n    // this reward is spread among influencers causing in some way a conversion\n    // the incentive model determines how to spread the reward\n\tuint256 maxPi;  \n\n \n    // is the influencer eligible for participation in campaign\n\tmodifier isWhiteListedInfluencer() {\n\t\trequire(whitelistInfluencer.isWhitelisted(msg.sender));\n\t\t_;\n\t}\n\n\t// is the converter eligible for participation in conversion\n    modifier isWhitelistedConverter() {\n        require(whitelistConverter.isWhitelisted(msg.sender));\n        _;\n    }\n\n    modifier didConverterConvert() {\n        Conversion memory c = conversions[msg.sender];\n    \trequire(c.tokenID != 0);\n    \trequire(!c.isFulfilled && !c.isCancelled);\n        _;\n    }\n\n\n\n\t// if we just work with two key tokens, \n\t// rate is 1, and all prices are in two key tokens\n\t/*\n\t\n\t */\n\tconstructor(\n\t\tTwoKeyEventSource _eventSource, \n\t\tTwoKeyEconomy _economy,\n\t\tTwoKeyWhitelisted _whitelistInfluencer,\n\t\tTwoKeyWhitelisted _whitelistConverter, \n\t\t \n\t\taddress _contractor,\n\t\taddress _moderator, \n\t\t\n\t\tuint256 _openingTime,\n\t\tuint256 _closingTime,\n\t\tuint256 _expiryConversion, \n\t\tuint256 _escrowPrecentage,\n\t\tuint256 _rate,\n\t\tuint256 _maxPi) TwoKeyARC(_eventSource, _contractor) ComposableAssetFactory(_openingTime, _closingTime) StandardToken() public {\n\n\n\t\t/// requires that all contracts from constructor are already deployed\n//\t\trequire(_eventSource != address(0));\n//\t\trequire(_economy != address(0));\n//\t\trequire(_whitelistInfluencer != address(0));\n//\t\trequire(_whitelistConverter != address(0));\n//\n//\t\t/// uint values\n//\t\trequire(_rate > 0);\n//\t\trequire(_maxPi > 0);\n//\n//\t\t/// adminAddRole can only be called from the address which is already admin, meaning address of this contract need to be an admin\n//\t\t/// This can revert transaction\n//\t\tadminAddRole(msg.sender, ROLE_CONTROLLER);\n//\t\tadminAddRole(_contractor, ROLE_CONTROLLER);\n//\t\tadminAddRole(_moderator, ROLE_CONTROLLER);\n//\n//\t\tbalances[msg.sender] = totalSupply_;\n//\n//\t\teconomy = _economy;\n//\t\twhitelistInfluencer = _whitelistInfluencer;\n//\t\twhitelistConverter = _whitelistConverter;\n//\n//\t\tcontractor = _contractor;\n//\t\tmoderator = _moderator;\n//\n//\t\texpiryConversion = _expiryConversion;\n//\t\tescrowPrecentage = _escrowPrecentage;\n//\n//\t\trate = _rate;\n\n\t\t// in general max_pi is dynamic and is computed by the incentive model \n\t    // per conversion\n\t    // there should be a discount - but not for now\n\n//\t    maxPi = _maxPi;\n\n\t\t\n\t\t// eventSource.created(address(this), contractor);\n\n\t}\n\n    /*  \n\t    fulfills a fungible asset purchase\n\t    creates the escrow for a fungible asset\n\t    computes the payout \n\t    transfers to the escrow the asset purchased\n    */ \n\tfunction fulfillFungibleTwoKeyToken(\n\t\taddress _from, \n\t\tuint256 _tokenID, \n\t\taddress _assetContract, \n\t\tuint256 _amount) isOngoing internal {\t\n\t\trequire(_amount > 0 && prices[_tokenID][_assetContract] > 0);\n\t\tuint256 payout = prices[_tokenID][_assetContract].mul(_amount).mul(rate);\n\t\trequire(economy.transferFrom(msg.sender, this, payout));\t\n\t\tConversion memory c = Conversion(_from, payout, msg.sender, false, false, _tokenID, _assetContract, _amount, CampaignType.Fungible, now, now + expiryConversion * 1 minutes);\n\t\t// move funds\n\t\tassets[_tokenID][_assetContract] -= _amount;\n\t\teventSource.escrow(address(this), msg.sender, _tokenID, _assetContract, _amount, CampaignType.Fungible);\t\n\t\tconversions[msg.sender] = c;\n\t}\n\n\n    /*  \n\t    fulfills a non fungible asset purchase\n\t    creates the escrow for a fungible asset\n\t    computes the payout \n\t    transfers to the escrow the asset purchased\n    */ \n\tfunction fulfillNonFungibleTwoKeyToken(address _from, uint256 _tokenID, address _assetContract, uint256 _index) isOngoing internal {\t\n\t\taddress assetToken = address(\n\t      keccak256(abi.encodePacked(_assetContract, _index))\n\t    );\n\t\trequire(_index != 0 && prices[_tokenID][assetToken] > 0);\n\t\tuint256 payout = prices[_tokenID][assetToken].mul(rate);\n\t\trequire(economy.transferFrom(msg.sender, this, payout));\t\n\t\tConversion memory c = Conversion(_from, payout, msg.sender, false, false, _tokenID, _assetContract, _index, CampaignType.NonFungible, now, now + expiryConversion * 1 minutes);\n\t\t// move funds\n\t\tassets[_tokenID][assetToken] = 0;\n\t\teventSource.escrow(address(this), msg.sender, _tokenID, _assetContract, _index, CampaignType.NonFungible);\n\t\tconversions[msg.sender] = c;\n\t}\n\n\t/**\n     * given the total payout, calculates the moderator fee\n     * @param  _payout total payout for escrow \n     * @return moderator fee\n     */\n    function calculateModeratorFee(uint256 _payout) internal view returns (uint256)  {\n        if (escrowPrecentage > 0) { // send the fee to moderator\n            uint256 fee = _payout.mul(escrowPrecentage).div(100);\n            return fee;\n        }  \n        return 0;      \n    }\n\n    /**\n     * transferAssetTwoKeyToken \n     * @param  _tokenID  sku of asset\n     * @param  _assetContract erc721 representing the asset class\n     * @param  _assetTokenIDOrAmount  unique index of asset or amount of asset\n     * @param  _type Fungible or NonFungible\n     * \n     * transfer the asset to the converter,\n     */\n    function transferAssetTwoKeyToken(\n        uint256 _tokenID,\n        address _assetContract,\n        uint256 _assetTokenIDOrAmount,\n        CampaignType _type) isWhitelistedConverter didConverterConvert public {    \n        actuallyFulfilledTwoKeyToken();  \n        if (_type == CampaignType.NonFungible) {\n\t\t\trequire(transferNonFungibleAsset(msg.sender, _tokenID, _assetContract, _assetTokenIDOrAmount));  \n        } else if (_type == CampaignType.Fungible) {\n\t\t\trequire(transferFungibleAsset(msg.sender, _tokenID, _assetContract, _assetTokenIDOrAmount));  \n        }\n                    \n    }\n\n    function cancelledEscrow(\n    \taddress _converter,\n        uint256 _tokenID,\n        address _assetContract,\n        uint256 _assetTokenIDOrAmount,\n        CampaignType _type) internal {\n        Conversion memory c = conversions[_converter];\n        c.isCancelled = true;\n        conversions[_converter] = c;\n        if (_type == CampaignType.NonFungible) {\n\t        address assetToken = address(\n\t\t      keccak256(abi.encodePacked(_assetContract, _assetTokenIDOrAmount))\n\t\t    );\n\t        assets[_tokenID][assetToken] = 1;          \t\n        } else if (_type == CampaignType.Fungible) {\n\t        assets[_tokenID][_assetContract] += _assetTokenIDOrAmount;  \n        }\n\n        require(economy.transfer(_converter, (c.payout).mul(rate)));\t\n    }\n\n\n    /**\n     * cancelAssetTwoKey \n     * cancels the purchase buy transfering the assets back to the campaign\n     * and refunding the converter\n     * @param  _tokenID  sku of asset\n     * @param  _assetContract erc721 representing the asset class\n     * @param  _assetTokenIDOrAmount unique index of asset or amount of asset\n     * @param  _type NonFungible or Fungible\n     * \n     */\n    function cancelAssetTwoKey(\n        address _converter,\n        uint256 _tokenID,\n        address _assetContract,\n        uint256 _assetTokenIDOrAmount,\n        CampaignType _type) onlyRole(ROLE_CONTROLLER) public returns (bool) {\n    \tConversion memory c = conversions[_converter];\n\t    require(c.tokenID != 0 && !c.isCancelled && !c.isFulfilled);\n\t    if (_type == CampaignType.NonFungible) {\n\t    \tcancelledEscrow(_converter, _tokenID, _assetContract, _assetTokenIDOrAmount, CampaignType.NonFungible);\n\t        eventSource.cancelled(address(this), _converter, _tokenID, _assetContract, _assetTokenIDOrAmount, CampaignType.NonFungible);\n\t    } else if (_type == CampaignType.Fungible) {\n\t    \tcancelledEscrow(_converter, _tokenID, _assetContract, _assetTokenIDOrAmount, CampaignType.Fungible);\n        \teventSource.cancelled(address(this), _converter, _tokenID, _assetContract, _assetTokenIDOrAmount, CampaignType.Fungible);\n\t    }\n        return true;\n    }\n\n\n    function expireEscrow(\n\t\taddress _converter,\n\t\tuint256 _tokenID,\n\t\taddress _assetContract,\n\t\tuint256 _assetTokenIDOrAmount,\n\t\tCampaignType _type) onlyRole(ROLE_CONTROLLER) public returns (bool){   \n\t    Conversion memory c = conversions[_converter];\n\t    require(c.tokenID != 0 && !c.isCancelled && !c.isFulfilled);\n    \trequire(now > c.closingTime);\n\t\tcancelledEscrow(_converter, _tokenID, _assetContract, _assetTokenIDOrAmount, _type);\n\t\temit Expired(address(this));\n\t\treturn true;\n\t}\n\n\n    /**\n     * calculates moderetor fee, pays the moderator, \n     * computes total reward\n     * transfer payout to contractor, deducting the fee and the total reward\n     * asks the campaign to distribute rewards to influencers\n     */\n\n\tfunction actuallyFulfilledTwoKeyToken() internal {\n\t\tConversion memory c = conversions[msg.sender];\n        c.isFulfilled = true; \n        conversions[msg.sender] = c;\n\t\tuint256 fee = calculateModeratorFee(c.payout);\n        require(economy.transfer(moderator, fee.mul(rate))); \n        uint256 payout = c.payout;\n        uint256 maxReward = maxPi.mul(payout).div(100);\n        \n        // transfer payout - fee - rewards to seller\n        require(economy.transfer(contractor, (payout.sub(fee).sub(maxReward)).mul(rate)));\n        \n        transferRewardsTwoKeyToken(c.from, maxReward.mul(rate));\n        eventSource.fulfilled(address(this), c.converter, c.tokenID, c.assetContract, c.indexOrAmount, c.campaignType);\n\t}\n\n\t// set price for fungible asset held by the campaign\n\tfunction setPriceFungible(uint256 _tokenID, address _assetContract, uint256 _pricePerUnit) onlyRole(ROLE_CONTROLLER) public {\n\t\tprices[_tokenID][_assetContract] = _pricePerUnit;\n\t}\n\n\t// set price for a non fungible asset held by the campaign\n\tfunction setPriceNonFungible(uint256 _tokenID, address _assetContract, uint256 _index, uint256 _pricePerUnit) onlyRole(ROLE_CONTROLLER) public {\n\t\taddress assetToken = address(\n\t      keccak256(abi.encodePacked(_assetContract, _index))\n\t    );\n\t\tprices[_tokenID][assetToken] = _pricePerUnit;\n\t}\n\n\t// an influencer that wishes to cash an _amount of 2key from the campaign\n\tfunction redeemTwoKeyToken(uint256 _amount) public {\n        require(xbalancesTwoKey[msg.sender] >= _amount && _amount > 0);\n        xbalancesTwoKey[msg.sender] = xbalancesTwoKey[msg.sender].sub(_amount);\n        economy.transferFrom(this, msg.sender, _amount);\n    }\n\n    /**\n  \t * buy product with twokey token,\n  \t * _from is the influencer from which you received the referral\n  \t * _tokenID is the asset sku\n  \t * _assetContract - erc20 (fungible) or erc721 (non fungible) which represents the class of the asset\n  \t * _amountOrIndex - for erc20 amount in asset class, for erc21 index within asset class\n  \t */\n\tfunction buyFromWithTwoKey(\n\t\taddress _from, \n\t\tuint256 _tokenID, \n\t\taddress _assetContract, \n\t\tuint256 _amountOrIndex, \n\t\tCampaignType _campaignType) public payable {\n\t\tif (_campaignType == CampaignType.Fungible) {\n\t\t\tfulfillFungibleTwoKeyToken(_from, _tokenID, _assetContract, _amountOrIndex);\n\t\t} else if (_campaignType == CampaignType.NonFungible) {\n\t\t\tfulfillNonFungibleTwoKeyToken(_from, _tokenID, _assetContract, _amountOrIndex);\n\t\t} \n\t}\n\n}\n\n",
  "sourcePath": "/Users/aydnep/2key/contracts/contracts/2key/TwoKeyCampaign.sol",
  "compiler": {
    "name": "solc",
    "version": "0.4.24+commit.e67f0147.Emscripten.clang"
  },
  "schemaVersion": "2.0.1",
  "updatedAt": "2018-08-22T06:50:50.768Z"
}