{
  "contractName": "TwoKeyAdmin",
  "abi": [
    {
      "constant": false,
      "inputs": [],
      "name": "renounceOwnership",
      "outputs": [],
      "payable": false,
      "stateMutability": "nonpayable",
      "type": "function"
    },
    {
      "constant": true,
      "inputs": [],
      "name": "owner",
      "outputs": [
        {
          "name": "",
          "type": "address"
        }
      ],
      "payable": false,
      "stateMutability": "view",
      "type": "function"
    },
    {
      "constant": false,
      "inputs": [
        {
          "name": "_newOwner",
          "type": "address"
        }
      ],
      "name": "transferOwnership",
      "outputs": [],
      "payable": false,
      "stateMutability": "nonpayable",
      "type": "function"
    },
    {
      "constant": false,
      "inputs": [
        {
          "name": "_recipient",
          "type": "address"
        }
      ],
      "name": "destroyAndSend",
      "outputs": [],
      "payable": false,
      "stateMutability": "nonpayable",
      "type": "function"
    },
    {
      "inputs": [
        {
          "name": "_electorateAdmins",
          "type": "address"
        }
      ],
      "payable": true,
      "stateMutability": "payable",
      "type": "constructor"
    },
    {
      "payable": true,
      "stateMutability": "payable",
      "type": "fallback"
    },
    {
      "anonymous": false,
      "inputs": [
        {
          "indexed": true,
          "name": "previousOwner",
          "type": "address"
        }
      ],
      "name": "OwnershipRenounced",
      "type": "event"
    },
    {
      "anonymous": false,
      "inputs": [
        {
          "indexed": true,
          "name": "previousOwner",
          "type": "address"
        },
        {
          "indexed": true,
          "name": "newOwner",
          "type": "address"
        }
      ],
      "name": "OwnershipTransferred",
      "type": "event"
    },
    {
      "constant": false,
      "inputs": [
        {
          "name": "_newAdminContract",
          "type": "address"
        }
      ],
      "name": "replaceOneself",
      "outputs": [],
      "payable": false,
      "stateMutability": "nonpayable",
      "type": "function"
    },
    {
      "constant": false,
      "inputs": [
        {
          "name": "_to",
          "type": "address"
        },
        {
          "name": "_tokens",
          "type": "uint256"
        }
      ],
      "name": "transferByAdmins",
      "outputs": [],
      "payable": false,
      "stateMutability": "nonpayable",
      "type": "function"
    },
    {
      "constant": false,
      "inputs": [
        {
          "name": "newExchange",
          "type": "address"
        }
      ],
      "name": "upgradeEconomyExchangeByAdmins",
      "outputs": [],
      "payable": false,
      "stateMutability": "nonpayable",
      "type": "function"
    },
    {
      "constant": false,
      "inputs": [
        {
          "name": "to",
          "type": "address"
        },
        {
          "name": "amount",
          "type": "uint256"
        }
      ],
      "name": "transferEtherByAdmins",
      "outputs": [],
      "payable": false,
      "stateMutability": "nonpayable",
      "type": "function"
    },
    {
      "constant": false,
      "inputs": [],
      "name": "destroy",
      "outputs": [],
      "payable": false,
      "stateMutability": "nonpayable",
      "type": "function"
    },
    {
      "constant": false,
      "inputs": [
        {
          "name": "_address",
          "type": "address"
        }
      ],
      "name": "twoKeyEventSourceAddAuthorizedAddress",
      "outputs": [],
      "payable": false,
      "stateMutability": "nonpayable",
      "type": "function"
    },
    {
      "constant": false,
      "inputs": [
        {
          "name": "_twoKeyEventSource",
          "type": "address"
        }
      ],
      "name": "addTwoKeyEventSource",
      "outputs": [],
      "payable": false,
      "stateMutability": "nonpayable",
      "type": "function"
    },
    {
      "constant": false,
      "inputs": [
        {
          "name": "_contractAddress",
          "type": "address"
        }
      ],
      "name": "twoKeyEventSourceAddAuthorizedContracts",
      "outputs": [],
      "payable": false,
      "stateMutability": "nonpayable",
      "type": "function"
    },
    {
      "constant": false,
      "inputs": [
        {
          "name": "_name",
          "type": "string"
        },
        {
          "name": "_addr",
          "type": "address"
        }
      ],
      "name": "addNameToReg",
      "outputs": [],
      "payable": false,
      "stateMutability": "nonpayable",
      "type": "function"
    },
    {
      "constant": false,
      "inputs": [
        {
          "name": "_exchange",
          "type": "address"
        }
      ],
      "name": "setTwoKeyExchange",
      "outputs": [],
      "payable": false,
      "stateMutability": "nonpayable",
      "type": "function"
    },
    {
      "constant": false,
      "inputs": [
        {
          "name": "_economy",
          "type": "address"
        }
      ],
      "name": "setTwoKeyEconomy",
      "outputs": [],
      "payable": false,
      "stateMutability": "nonpayable",
      "type": "function"
    },
    {
      "constant": true,
      "inputs": [
        {
          "name": "_addr",
          "type": "address"
        }
      ],
      "name": "getEtherBalanceOfAnAddress",
      "outputs": [
        {
          "name": "",
          "type": "uint256"
        }
      ],
      "payable": false,
      "stateMutability": "view",
      "type": "function"
    },
    {
      "constant": true,
      "inputs": [],
      "name": "getTwoKeyEconomy",
      "outputs": [
        {
          "name": "_economy",
          "type": "address"
        }
      ],
      "payable": false,
      "stateMutability": "view",
      "type": "function"
    },
    {
      "constant": false,
      "inputs": [
        {
          "name": "_address",
          "type": "address"
        }
      ],
      "name": "setTwoKeyReg",
      "outputs": [],
      "payable": false,
      "stateMutability": "nonpayable",
      "type": "function"
    },
    {
      "constant": true,
      "inputs": [],
      "name": "getTwoKeyReg",
      "outputs": [
        {
          "name": "_address",
          "type": "address"
        }
      ],
      "payable": false,
      "stateMutability": "view",
      "type": "function"
    },
    {
      "constant": true,
      "inputs": [],
      "name": "getTwoKeyUpgradableExchange",
      "outputs": [
        {
          "name": "_exchange",
          "type": "address"
        }
      ],
      "payable": false,
      "stateMutability": "view",
      "type": "function"
    }
  ],
  "bytecode": "0x6080604052604051602080611f4c83398101806040528101908080519060200190929190505050336000806101000a81548173ffffffffffffffffffffffffffffffffffffffff021916908373ffffffffffffffffffffffffffffffffffffffff160217905550600073ffffffffffffffffffffffffffffffffffffffff168173ffffffffffffffffffffffffffffffffffffffff16141515156100a257600080fd5b6000600460146101000a81548160ff02191690831515021790555080600260006101000a81548173ffffffffffffffffffffffffffffffffffffffff021916908373ffffffffffffffffffffffffffffffffffffffff16021790555050611e3e8061010e6000396000f300608060405260043610610112576000357c0100000000000000000000000000000000000000000000000000000000900463ffffffff168063036ec727146101935780630a408e12146101d6578063139468b91461021957806338a35aba146102665780634ee5eada146102a957806352be6b4a14610300578063630de41314610357578063715018a61461039a57806371947e2d146103b157806374cda7e4146104085780637fc7a28b1461049157806383197ef0146104d457806388478c92146104eb5780638da5cb5b1461052e578063a3b688f214610585578063b2bf67ac146105d2578063ccb9a0ec14610615578063ebdb21221461066c578063f2fde38b146106af578063f5074f41146106f2575b600460149054906101000a900460ff161561019157600460009054906101000a900473ffffffffffffffffffffffffffffffffffffffff1673ffffffffffffffffffffffffffffffffffffffff166108fc349081150290604051600060405180830381858888f1935050505015801561018f573d6000803e3d6000fd5b505b005b34801561019f57600080fd5b506101d4600480360381019080803573ffffffffffffffffffffffffffffffffffffffff169060200190929190505050610735565b005b3480156101e257600080fd5b50610217600480360381019080803573ffffffffffffffffffffffffffffffffffffffff1690602001909291905050506107b5565b005b34801561022557600080fd5b50610264600480360381019080803573ffffffffffffffffffffffffffffffffffffffff16906020019092919080359060200190929190505050610941565b005b34801561027257600080fd5b506102a7600480360381019080803573ffffffffffffffffffffffffffffffffffffffff169060200190929190505050610b06565b005b3480156102b557600080fd5b506102be610b86565b604051808273ffffffffffffffffffffffffffffffffffffffff1673ffffffffffffffffffffffffffffffffffffffff16815260200191505060405180910390f35b34801561030c57600080fd5b50610341600480360381019080803573ffffffffffffffffffffffffffffffffffffffff169060200190929190505050610bb0565b6040518082815260200191505060405180910390f35b34801561036357600080fd5b50610398600480360381019080803573ffffffffffffffffffffffffffffffffffffffff169060200190929190505050610bd1565b005b3480156103a657600080fd5b506103af611440565b005b3480156103bd57600080fd5b506103c6611542565b604051808273ffffffffffffffffffffffffffffffffffffffff1673ffffffffffffffffffffffffffffffffffffffff16815260200191505060405180910390f35b34801561041457600080fd5b5061048f600480360381019080803590602001908201803590602001908080601f0160208091040260200160405190810160405280939291908181526020018383808284378201915050505050509192919290803573ffffffffffffffffffffffffffffffffffffffff16906020019092919050505061156c565b005b34801561049d57600080fd5b506104d2600480360381019080803573ffffffffffffffffffffffffffffffffffffffff1690602001909291905050506116b2565b005b3480156104e057600080fd5b506104e9611732565b005b3480156104f757600080fd5b5061052c600480360381019080803573ffffffffffffffffffffffffffffffffffffffff169060200190929190505050611819565b005b34801561053a57600080fd5b5061054361192d565b604051808273ffffffffffffffffffffffffffffffffffffffff1673ffffffffffffffffffffffffffffffffffffffff16815260200191505060405180910390f35b34801561059157600080fd5b506105d0600480360381019080803573ffffffffffffffffffffffffffffffffffffffff16906020019092919080359060200190929190505050611952565b005b3480156105de57600080fd5b50610613600480360381019080803573ffffffffffffffffffffffffffffffffffffffff169060200190929190505050611a5d565b005b34801561062157600080fd5b5061062a611b71565b604051808273ffffffffffffffffffffffffffffffffffffffff1673ffffffffffffffffffffffffffffffffffffffff16815260200191505060405180910390f35b34801561067857600080fd5b506106ad600480360381019080803573ffffffffffffffffffffffffffffffffffffffff169060200190929190505050611b9b565b005b3480156106bb57600080fd5b506106f0600480360381019080803573ffffffffffffffffffffffffffffffffffffffff169060200190929190505050611c3d565b005b3480156106fe57600080fd5b50610733600480360381019080803573ffffffffffffffffffffffffffffffffffffffff169060200190929190505050611ca4565b005b600073ffffffffffffffffffffffffffffffffffffffff168173ffffffffffffffffffffffffffffffffffffffff161415151561077157600080fd5b80600560006101000a81548173ffffffffffffffffffffffffffffffffffffffff021916908373ffffffffffffffffffffffffffffffffffffffff16021790555050565b600460149054906101000a900460ff161515156107d157600080fd5b600260009054906101000a900473ffffffffffffffffffffffffffffffffffffffff1673ffffffffffffffffffffffffffffffffffffffff163373ffffffffffffffffffffffffffffffffffffffff1614151561082d57600080fd5b600073ffffffffffffffffffffffffffffffffffffffff168173ffffffffffffffffffffffffffffffffffffffff161415151561086957600080fd5b600360009054906101000a900473ffffffffffffffffffffffffffffffffffffffff1673ffffffffffffffffffffffffffffffffffffffff16630900f010826040518263ffffffff167c0100000000000000000000000000000000000000000000000000000000028152600401808273ffffffffffffffffffffffffffffffffffffffff1673ffffffffffffffffffffffffffffffffffffffff168152602001915050600060405180830381600087803b15801561092657600080fd5b505af115801561093a573d6000803e3d6000fd5b5050505050565b600460149054906101000a900460ff1615151561095d57600080fd5b600260009054906101000a900473ffffffffffffffffffffffffffffffffffffffff1673ffffffffffffffffffffffffffffffffffffffff163373ffffffffffffffffffffffffffffffffffffffff161415156109b957600080fd5b600073ffffffffffffffffffffffffffffffffffffffff168273ffffffffffffffffffffffffffffffffffffffff16141580156109f65750600081115b1515610a0157600080fd5b600160009054906101000a900473ffffffffffffffffffffffffffffffffffffffff1673ffffffffffffffffffffffffffffffffffffffff1663a9059cbb83836040518363ffffffff167c0100000000000000000000000000000000000000000000000000000000028152600401808373ffffffffffffffffffffffffffffffffffffffff1673ffffffffffffffffffffffffffffffffffffffff16815260200182815260200192505050602060405180830381600087803b158015610ac657600080fd5b505af1158015610ada573d6000803e3d6000fd5b505050506040513d6020811015610af057600080fd5b8101908080519060200190929190505050505050565b600073ffffffffffffffffffffffffffffffffffffffff168173ffffffffffffffffffffffffffffffffffffffff1614151515610b4257600080fd5b80600160006101000a81548173ffffffffffffffffffffffffffffffffffffffff021916908373ffffffffffffffffffffffffffffffffffffffff16021790555050565b6000600660009054906101000a900473ffffffffffffffffffffffffffffffffffffffff16905090565b60008173ffffffffffffffffffffffffffffffffffffffff16319050919050565b600080600460149054906101000a900460ff16151515610bf057600080fd5b600260009054906101000a900473ffffffffffffffffffffffffffffffffffffffff1673ffffffffffffffffffffffffffffffffffffffff163373ffffffffffffffffffffffffffffffffffffffff16141515610c4c57600080fd5b600160009054906101000a900473ffffffffffffffffffffffffffffffffffffffff1673ffffffffffffffffffffffffffffffffffffffff166370a08231306040518263ffffffff167c0100000000000000000000000000000000000000000000000000000000028152600401808273ffffffffffffffffffffffffffffffffffffffff1673ffffffffffffffffffffffffffffffffffffffff168152602001915050602060405180830381600087803b158015610d0957600080fd5b505af1158015610d1d573d6000803e3d6000fd5b505050506040513d6020811015610d3357600080fd5b8101908080519060200190929190505050915082905082600460006101000a81548173ffffffffffffffffffffffffffffffffffffffff021916908373ffffffffffffffffffffffffffffffffffffffff1602179055508073ffffffffffffffffffffffffffffffffffffffff166338a35aba600160009054906101000a900473ffffffffffffffffffffffffffffffffffffffff166040518263ffffffff167c0100000000000000000000000000000000000000000000000000000000028152600401808273ffffffffffffffffffffffffffffffffffffffff1673ffffffffffffffffffffffffffffffffffffffff168152602001915050600060405180830381600087803b158015610e4757600080fd5b505af1158015610e5b573d6000803e3d6000fd5b505050508073ffffffffffffffffffffffffffffffffffffffff16637fc7a28b600660009054906101000a900473ffffffffffffffffffffffffffffffffffffffff166040518263ffffffff167c0100000000000000000000000000000000000000000000000000000000028152600401808273ffffffffffffffffffffffffffffffffffffffff1673ffffffffffffffffffffffffffffffffffffffff168152602001915050600060405180830381600087803b158015610f1c57600080fd5b505af1158015610f30573d6000803e3d6000fd5b505050506001600460146101000a81548160ff021916908315150217905550600160009054906101000a900473ffffffffffffffffffffffffffffffffffffffff1673ffffffffffffffffffffffffffffffffffffffff1663a9059cbb84846040518363ffffffff167c0100000000000000000000000000000000000000000000000000000000028152600401808373ffffffffffffffffffffffffffffffffffffffff1673ffffffffffffffffffffffffffffffffffffffff16815260200182815260200192505050602060405180830381600087803b15801561101457600080fd5b505af1158015611028573d6000803e3d6000fd5b505050506040513d602081101561103e57600080fd5b810190808051906020019092919050505050600160009054906101000a900473ffffffffffffffffffffffffffffffffffffffff1673ffffffffffffffffffffffffffffffffffffffff1663b25fa92c846040518263ffffffff167c0100000000000000000000000000000000000000000000000000000000028152600401808273ffffffffffffffffffffffffffffffffffffffff1673ffffffffffffffffffffffffffffffffffffffff16815260200180602001828103825260058152602001807f61646d696e00000000000000000000000000000000000000000000000000000081525060200192505050600060405180830381600087803b15801561114657600080fd5b505af115801561115a573d6000803e3d6000fd5b505050508073ffffffffffffffffffffffffffffffffffffffff166108fc3073ffffffffffffffffffffffffffffffffffffffff16319081150290604051600060405180830381858888f193505050501580156111bb573d6000803e3d6000fd5b508073ffffffffffffffffffffffffffffffffffffffff166338a35aba600160009054906101000a900473ffffffffffffffffffffffffffffffffffffffff166040518263ffffffff167c0100000000000000000000000000000000000000000000000000000000028152600401808273ffffffffffffffffffffffffffffffffffffffff1673ffffffffffffffffffffffffffffffffffffffff168152602001915050600060405180830381600087803b15801561127957600080fd5b505af115801561128d573d6000803e3d6000fd5b505050508073ffffffffffffffffffffffffffffffffffffffff16637fc7a28b600660009054906101000a900473ffffffffffffffffffffffffffffffffffffffff166040518263ffffffff167c0100000000000000000000000000000000000000000000000000000000028152600401808273ffffffffffffffffffffffffffffffffffffffff1673ffffffffffffffffffffffffffffffffffffffff168152602001915050600060405180830381600087803b15801561134e57600080fd5b505af1158015611362573d6000803e3d6000fd5b505050508073ffffffffffffffffffffffffffffffffffffffff1663ebdb2122600360009054906101000a900473ffffffffffffffffffffffffffffffffffffffff166040518263ffffffff167c0100000000000000000000000000000000000000000000000000000000028152600401808273ffffffffffffffffffffffffffffffffffffffff1673ffffffffffffffffffffffffffffffffffffffff168152602001915050600060405180830381600087803b15801561142357600080fd5b505af1158015611437573d6000803e3d6000fd5b50505050505050565b6000809054906101000a900473ffffffffffffffffffffffffffffffffffffffff1673ffffffffffffffffffffffffffffffffffffffff163373ffffffffffffffffffffffffffffffffffffffff1614151561149b57600080fd5b6000809054906101000a900473ffffffffffffffffffffffffffffffffffffffff1673ffffffffffffffffffffffffffffffffffffffff167ff8df31144d9c2f0f6b59d69b8b98abd5459d07f2742c4df920b25aae33c6482060405160405180910390a260008060006101000a81548173ffffffffffffffffffffffffffffffffffffffff021916908373ffffffffffffffffffffffffffffffffffffffff160217905550565b6000600360009054906101000a900473ffffffffffffffffffffffffffffffffffffffff16905090565b600660009054906101000a900473ffffffffffffffffffffffffffffffffffffffff1673ffffffffffffffffffffffffffffffffffffffff166315f0e1cc83836040518363ffffffff167c010000000000000000000000000000000000000000000000000000000002815260040180806020018373ffffffffffffffffffffffffffffffffffffffff1673ffffffffffffffffffffffffffffffffffffffff168152602001828103825284818151815260200191508051906020019080838360005b8381101561164957808201518184015260208101905061162e565b50505050905090810190601f1680156116765780820380516001836020036101000a031916815260200191505b509350505050600060405180830381600087803b15801561169657600080fd5b505af11580156116aa573d6000803e3d6000fd5b505050505050565b600073ffffffffffffffffffffffffffffffffffffffff168173ffffffffffffffffffffffffffffffffffffffff16141515156116ee57600080fd5b80600660006101000a81548173ffffffffffffffffffffffffffffffffffffffff021916908373ffffffffffffffffffffffffffffffffffffffff16021790555050565b600260009054906101000a900473ffffffffffffffffffffffffffffffffffffffff1673ffffffffffffffffffffffffffffffffffffffff163373ffffffffffffffffffffffffffffffffffffffff1614151561178e57600080fd5b600460149054906101000a900460ff1615156117de576000809054906101000a900473ffffffffffffffffffffffffffffffffffffffff1673ffffffffffffffffffffffffffffffffffffffff16ff5b600460009054906101000a900473ffffffffffffffffffffffffffffffffffffffff1673ffffffffffffffffffffffffffffffffffffffff16ff5b600073ffffffffffffffffffffffffffffffffffffffff168173ffffffffffffffffffffffffffffffffffffffff161415151561185557600080fd5b600560009054906101000a900473ffffffffffffffffffffffffffffffffffffffff1673ffffffffffffffffffffffffffffffffffffffff166342f1181e826040518263ffffffff167c0100000000000000000000000000000000000000000000000000000000028152600401808273ffffffffffffffffffffffffffffffffffffffff1673ffffffffffffffffffffffffffffffffffffffff168152602001915050600060405180830381600087803b15801561191257600080fd5b505af1158015611926573d6000803e3d6000fd5b5050505050565b6000809054906101000a900473ffffffffffffffffffffffffffffffffffffffff1681565b600460149054906101000a900460ff1615151561196e57600080fd5b600260009054906101000a900473ffffffffffffffffffffffffffffffffffffffff1673ffffffffffffffffffffffffffffffffffffffff163373ffffffffffffffffffffffffffffffffffffffff161415156119ca57600080fd5b600073ffffffffffffffffffffffffffffffffffffffff168273ffffffffffffffffffffffffffffffffffffffff1614158015611a075750600081115b1515611a1257600080fd5b8173ffffffffffffffffffffffffffffffffffffffff166108fc829081150290604051600060405180830381858888f19350505050158015611a58573d6000803e3d6000fd5b505050565b600073ffffffffffffffffffffffffffffffffffffffff168173ffffffffffffffffffffffffffffffffffffffff1614151515611a9957600080fd5b600560009054906101000a900473ffffffffffffffffffffffffffffffffffffffff1673ffffffffffffffffffffffffffffffffffffffff16635f539d69826040518263ffffffff167c0100000000000000000000000000000000000000000000000000000000028152600401808273ffffffffffffffffffffffffffffffffffffffff1673ffffffffffffffffffffffffffffffffffffffff168152602001915050600060405180830381600087803b158015611b5657600080fd5b505af1158015611b6a573d6000803e3d6000fd5b5050505050565b6000600160009054906101000a900473ffffffffffffffffffffffffffffffffffffffff16905090565b600073ffffffffffffffffffffffffffffffffffffffff168173ffffffffffffffffffffffffffffffffffffffff1614151515611bd757600080fd5b600360009054906101000a900473ffffffffffffffffffffffffffffffffffffffff16600360006101000a81548173ffffffffffffffffffffffffffffffffffffffff021916908373ffffffffffffffffffffffffffffffffffffffff16021790555050565b6000809054906101000a900473ffffffffffffffffffffffffffffffffffffffff1673ffffffffffffffffffffffffffffffffffffffff163373ffffffffffffffffffffffffffffffffffffffff16141515611c9857600080fd5b611ca181611d18565b50565b6000809054906101000a900473ffffffffffffffffffffffffffffffffffffffff1673ffffffffffffffffffffffffffffffffffffffff163373ffffffffffffffffffffffffffffffffffffffff16141515611cff57600080fd5b8073ffffffffffffffffffffffffffffffffffffffff16ff5b600073ffffffffffffffffffffffffffffffffffffffff168173ffffffffffffffffffffffffffffffffffffffff1614151515611d5457600080fd5b8073ffffffffffffffffffffffffffffffffffffffff166000809054906101000a900473ffffffffffffffffffffffffffffffffffffffff1673ffffffffffffffffffffffffffffffffffffffff167f8be0079c531659141344cd1fd0a4f28419497f9722a3daafe3b4186f6b6457e060405160405180910390a3806000806101000a81548173ffffffffffffffffffffffffffffffffffffffff021916908373ffffffffffffffffffffffffffffffffffffffff160217905550505600a165627a7a72305820211988bbb988b4a303b4814f889226642828225729dc2e8aa47922db83055a030029",
  "source": "pragma solidity ^0.4.24; \n\nimport '../openzeppelin-solidity/contracts/lifecycle/Destructible.sol';\nimport '../openzeppelin-solidity/contracts/ownership/Ownable.sol';\n\nimport './TwoKeyEconomy.sol';\nimport './TwoKeyUpgradableExchange.sol';\nimport \"../interfaces/IAdminContract.sol\";\nimport \"./TwoKeyEventSource.sol\";\nimport \"./TwoKeyReg.sol\";\n\n// SAFT are to be implemented by transferEtherByAdmins with the amount including the discount, according to the prevailing rate\n\ncontract TwoKeyAdmin is  Ownable, Destructible, AdminContract {\n\n\tTwoKeyEconomy private economy;\n\taddress private electorateAdmins;\n\tTwoKeyUpgradableExchange private exchange;\n\taddress private newTwoKeyAdminAddress;\n\tbool private wasReplaced; \n\tTwoKeyEventSource twoKeyEventSource;\n\tTwoKeyReg private twoKeyReg;\n\n\tconstructor(\n\t\taddress _electorateAdmins\t\t\n\t) Ownable() Destructible() payable public {\n\t\trequire(_electorateAdmins != address(0));\n\t\twasReplaced = false;\n\t\telectorateAdmins = _electorateAdmins;\t\n\t}\n\n    \n    /// @notice Function where only elected admin can replace the exisitng admin contract with new admin contract. \n    /// @dev This method is expected to transfer it's current economy to new admin contract\n    /// @param _newAdminContract is address of New Admin Contract\n\tfunction replaceOneself(address _newAdminContract) external wasNotReplaced adminsVotingApproved {\n\t\tuint balanceOfOldAdmin = economy.balanceOf(address(this));\n\t\tTwoKeyAdmin newAdminContractObject = TwoKeyAdmin(_newAdminContract);\n\t\tnewTwoKeyAdminAddress = _newAdminContract;\n\t\tnewAdminContractObject.setTwoKeyEconomy(economy);\n\t\tnewAdminContractObject.setTwoKeyReg(twoKeyReg);\n\t\twasReplaced = true;\n\t\teconomy.transfer(_newAdminContract, balanceOfOldAdmin);\t\n\t\teconomy.adminAddRole(_newAdminContract, \"admin\");\n\t\tnewAdminContractObject.transfer(address(this).balance);\t\t\t\t\n        newAdminContractObject.setTwoKeyEconomy(economy);\n\t\tnewAdminContractObject.setTwoKeyReg(twoKeyReg);\n\t\tnewAdminContractObject.setTwoKeyExchange(exchange);\n\t\t// twoKeyEventSource.changeAdmin(_newAdminContract);\n\t}\n\t\n    /// @notice Function where only elected admin can transfer tokens to an address\n    /// @dev We're recuring to address different from address 0 and token amount greator than 0\n    /// @param _to receiver's address\n    /// @param _tokens is token amounts to be transfers\n\tfunction transferByAdmins(address _to, uint256 _tokens) external wasNotReplaced adminsVotingApproved {\n\t\trequire (_to != address(0) && _tokens > 0);\n\t\teconomy.transfer(_to, _tokens);\n\t}\n\n    /// @notice Function where only elected admin can upgrade exchange contract address\n    /// @dev We're recuring newExchange address different from address 0\n    /// @param newExchange is New Upgradable Exchange contract address\n\tfunction upgradeEconomyExchangeByAdmins(address newExchange) external wasNotReplaced adminsVotingApproved {\n\t\trequire (newExchange != address(0));\n\t\texchange.upgrade(newExchange);\n\t}\n\n    /// @notice Function where only elected admin can transfer ethers to an address\n    /// @dev We're recuring to address different from address 0 and amount greator than 0\n    /// @param to receiver's address\n    /// @param amount of ethers to be transfers\n\tfunction transferEtherByAdmins(address to, uint256 amount) external wasNotReplaced adminsVotingApproved {\n\t\trequire(to != address(0)  && amount > 0);\n\t\tto.transfer(amount);\n\t}\n\n\t// lifecycle methods\n\t/// @notice Function will transfer payable value to new admin contract if admin contract is replaced else will be stored this the exisitng admin contract as it's balance\n\t/// @dev A payable fallback method\n\tfunction() public payable {\n\t\tif (wasReplaced) {\n\t\t\tnewTwoKeyAdminAddress.transfer(msg.value);\n\t\t}\n\t}\n\n    /// @notice Function will transfer contract balance to owner if contract was never replaced else will transfer the funds to the new Admin contract address  \n\tfunction destroy() public adminsVotingApproved {\n\t\tif (!wasReplaced)\n\t\t\tselfdestruct(owner);\n\t\telse\n\t\t\tselfdestruct(newTwoKeyAdminAddress);\n\t}\n\n\t// modifiers\n    /// @notice Modifier will revert if calling address is not a member of electorateAdmins \n\tmodifier adminsVotingApproved() {\n\t\trequire(msg.sender == electorateAdmins);\n\t    _;\n\t}\n\n    /// @notice Modifier will revert if contract is already replaced \n\tmodifier wasNotReplaced() {\n\t\trequire(!wasReplaced);\n\t\t_;\n\t}\n\n    /// @notice Function to whitelist address as an authorized user for twoKeyEventSource contract\n\t/// @param _address is address of user\n\tfunction twoKeyEventSourceAddAuthorizedAddress(address _address) public {\n\t\trequire(_address != address(0));\n\t\ttwoKeyEventSource.addAuthorizedAddress(_address);\n\t}\n\n    /// @notice Function to add twoKeyEventSource contract to twoKeyAdmin \n\t/// @dev We're requiring twoKeyEventSource contract address different from address 0 as it is required to be deployed before calling this method\n\t/// @param _twoKeyEventSource is address of twoKeyEventSource contract address\n\tfunction addTwoKeyEventSource(address _twoKeyEventSource) public {\n\t\trequire(_twoKeyEventSource != address(0));\n\t\ttwoKeyEventSource = TwoKeyEventSource(_twoKeyEventSource);\n\t}\n\n    /// @notice Function to whitelist contract address for Event Source contract \n\t/// @dev We're requiring contract address different from address 0 as it is required to be deployed before calling this method\n\t/// @param _contractAddress is address of a contract\n\tfunction twoKeyEventSourceAddAuthorizedContracts(address _contractAddress) public {\n\t\trequire(_contractAddress != address(0));\n\t\ttwoKeyEventSource.addContract(_contractAddress);\n\t}\n\n    /// @notice Function to add/update name - address pair from twoKeyAdmin\n\t/// @param _name is name of user\n\t/// @param _addr is address of user\n    function addNameToReg(string _name, address _addr) public {\n    \ttwoKeyReg.addName(_name, _addr);\n    }\n\n\t// modifier for admin call check\n\t//<TBD> may be owner\n    \n    /// @notice Function to set twoKeyExchange contract address \n\t/// @dev We're requiring twoKeyExchange contract address different from address 0 as it is required to be deployed before calling this method\n\t/// @param _exchange is address of twoKeyExchange contract address\n\tfunction setTwoKeyExchange(address _exchange) public  {\n\t\trequire(_exchange != address(0));\n    \texchange = TwoKeyUpgradableExchange(exchange);\n    \t\n    }\n\n    // modifier for admin call check\n\t//<TBD> may be owner\n\n    /// @notice Function to set twoKeyEconomy contract address \n\t/// @dev We're requiring twoKeyEconomy contract address different from address 0 as it is required to be deployed before calling this method\n\t/// @param _economy is address of twoKeyEconomy contract address\n\tfunction setTwoKeyEconomy(address _economy) public   {\n\t\trequire(_economy != address(0));\n\t\teconomy = TwoKeyEconomy(_economy);\n\t}\n\n    /// View function - doesn't cost any gas to be executed\n\t/// @notice Function to get Ether Balance of given address \n\t/// @param _addr is address of user\n\t/// @return Ether balance of given address\n\tfunction getEtherBalanceOfAnAddress(address _addr) public view returns (uint256){\n\t\treturn address(_addr).balance;\n\t}\n\t// modifier for admin call check\n\t//<TBD> may be owner\n\t\n\t/// View function - doesn't cost any gas to be executed\n\t/// @notice Function to fetch twoKeyEconomy contract address \n\t/// @return _economy is address of twoKeyEconomy contract \n    function getTwoKeyEconomy () public view  returns(address _economy)  {\n    \treturn address(economy);\n    }\n\n\t// modifier for admin call check\n\t//<TBD> may be owner\n\n\t/// @notice Function to set twoKeyReg contract address \n\t/// @dev We're requiring twoKeyReg contract address different from address 0 as it is required to be deployed before calling this method\n\t/// @param _address is address of twoKeyReg contract address \n\tfunction setTwoKeyReg(address _address) public  {\n\t\trequire(_address != address(0));\n\t\ttwoKeyReg = TwoKeyReg(_address);\n\n\t}\n\n    // modifier for admin call check\n\t//<TBD> may be owner\n\t\n\t/// View function - doesn't cost any gas to be executed\n\t/// @notice Function to fetch twoKeyReg contract address \n\t/// @return _address is address of twoKeyReg contract\n    function getTwoKeyReg () public view returns(address _address)  {\n    \treturn address(twoKeyReg);\n    }\n\n    /// View function - doesn't cost any gas to be executed\n\t/// @notice Function to fetch twoKeyUpgradableExchange contract address \n\t/// @return _address is address of twoKeyUpgradableExchange contract\n    function getTwoKeyUpgradableExchange () public view returns(address _exchange)  {\n    \treturn address(exchange);\n    }\n    \n} ",
  "sourcePath": "/Users/aydnep/2key/contracts/contracts/2key/TwoKeyAdmin.sol",
  "compiler": {
    "name": "solc",
    "version": "0.4.24+commit.e67f0147.Emscripten.clang"
  },
  "schemaVersion": "2.0.1",
  "updatedAt": "2018-09-11T07:24:30.217Z"
}