{
  "contractName": "TwoKeyCampaignInventory",
  "abi": [
    {
      "constant": true,
      "inputs": [
        {
          "name": "_operator",
          "type": "address"
        },
        {
          "name": "_role",
          "type": "string"
        }
      ],
      "name": "checkRole",
      "outputs": [],
      "payable": false,
      "stateMutability": "view",
      "type": "function"
    },
    {
      "constant": true,
      "inputs": [
        {
          "name": "_operator",
          "type": "address"
        },
        {
          "name": "_role",
          "type": "string"
        }
      ],
      "name": "hasRole",
      "outputs": [
        {
          "name": "",
          "type": "bool"
        }
      ],
      "payable": false,
      "stateMutability": "view",
      "type": "function"
    },
    {
      "constant": true,
      "inputs": [],
      "name": "ROLE_CONTROLLER",
      "outputs": [
        {
          "name": "",
          "type": "string"
        }
      ],
      "payable": false,
      "stateMutability": "view",
      "type": "function"
    },
    {
      "constant": false,
      "inputs": [
        {
          "name": "addr",
          "type": "address"
        },
        {
          "name": "roleName",
          "type": "string"
        }
      ],
      "name": "adminRemoveRole",
      "outputs": [],
      "payable": false,
      "stateMutability": "nonpayable",
      "type": "function"
    },
    {
      "constant": false,
      "inputs": [
        {
          "name": "addr",
          "type": "address"
        },
        {
          "name": "roleName",
          "type": "string"
        }
      ],
      "name": "adminAddRole",
      "outputs": [],
      "payable": false,
      "stateMutability": "nonpayable",
      "type": "function"
    },
    {
      "constant": true,
      "inputs": [],
      "name": "getAdminRole",
      "outputs": [
        {
          "name": "",
          "type": "string"
        }
      ],
      "payable": false,
      "stateMutability": "view",
      "type": "function"
    },
    {
      "constant": true,
      "inputs": [],
      "name": "onlyControllerRole",
      "outputs": [
        {
          "name": "",
          "type": "bool"
        }
      ],
      "payable": false,
      "stateMutability": "view",
      "type": "function"
    },
    {
      "constant": true,
      "inputs": [],
      "name": "ROLE_ADMIN",
      "outputs": [
        {
          "name": "",
          "type": "string"
        }
      ],
      "payable": false,
      "stateMutability": "view",
      "type": "function"
    },
    {
      "constant": true,
      "inputs": [],
      "name": "getControllerRole",
      "outputs": [
        {
          "name": "",
          "type": "string"
        }
      ],
      "payable": false,
      "stateMutability": "view",
      "type": "function"
    },
    {
      "inputs": [],
      "payable": false,
      "stateMutability": "nonpayable",
      "type": "constructor"
    },
    {
      "anonymous": false,
      "inputs": [
        {
          "indexed": true,
          "name": "_contract",
          "type": "address"
        }
      ],
      "name": "Expired",
      "type": "event"
    },
    {
      "anonymous": false,
      "inputs": [
        {
          "indexed": true,
          "name": "operator",
          "type": "address"
        },
        {
          "indexed": false,
          "name": "role",
          "type": "string"
        }
      ],
      "name": "RoleAdded",
      "type": "event"
    },
    {
      "anonymous": false,
      "inputs": [
        {
          "indexed": true,
          "name": "operator",
          "type": "address"
        },
        {
          "indexed": false,
          "name": "role",
          "type": "string"
        }
      ],
      "name": "RoleRemoved",
      "type": "event"
    },
    {
      "constant": false,
      "inputs": [
        {
          "name": "_tokenID",
          "type": "uint256"
        },
        {
          "name": "_assetContract",
          "type": "address"
        },
        {
          "name": "_amount",
          "type": "uint256"
        }
      ],
      "name": "addFungibleAsset",
      "outputs": [
        {
          "name": "",
          "type": "bool"
        }
      ],
      "payable": false,
      "stateMutability": "nonpayable",
      "type": "function"
    },
    {
      "constant": false,
      "inputs": [
        {
          "name": "_tokenID",
          "type": "uint256"
        },
        {
          "name": "_assetContract",
          "type": "address"
        },
        {
          "name": "_index",
          "type": "uint256"
        }
      ],
      "name": "addNonFungibleAsset",
      "outputs": [
        {
          "name": "",
          "type": "bool"
        }
      ],
      "payable": false,
      "stateMutability": "nonpayable",
      "type": "function"
    },
    {
      "constant": false,
      "inputs": [
        {
          "name": "_to",
          "type": "address"
        },
        {
          "name": "_tokenID",
          "type": "uint256"
        },
        {
          "name": "_assetContract",
          "type": "address"
        },
        {
          "name": "_amount",
          "type": "uint256"
        }
      ],
      "name": "transferFungibleAsset",
      "outputs": [
        {
          "name": "",
          "type": "bool"
        }
      ],
      "payable": false,
      "stateMutability": "nonpayable",
      "type": "function"
    },
    {
      "constant": false,
      "inputs": [
        {
          "name": "_to",
          "type": "address"
        },
        {
          "name": "_tokenID",
          "type": "uint256"
        },
        {
          "name": "_assetContract",
          "type": "address"
        },
        {
          "name": "_assetTokenID",
          "type": "uint256"
        }
      ],
      "name": "transferNonFungibleAsset",
      "outputs": [
        {
          "name": "",
          "type": "bool"
        }
      ],
      "payable": false,
      "stateMutability": "nonpayable",
      "type": "function"
    },
    {
      "constant": false,
      "inputs": [
        {
          "name": "_to",
          "type": "address"
        },
        {
          "name": "_tokenID",
          "type": "uint256"
        },
        {
          "name": "_assetContract",
          "type": "address"
        },
        {
          "name": "_amount",
          "type": "uint256"
        }
      ],
      "name": "expireFungible",
      "outputs": [
        {
          "name": "",
          "type": "bool"
        }
      ],
      "payable": false,
      "stateMutability": "nonpayable",
      "type": "function"
    },
    {
      "constant": false,
      "inputs": [
        {
          "name": "_to",
          "type": "address"
        },
        {
          "name": "_tokenID",
          "type": "uint256"
        },
        {
          "name": "_assetContract",
          "type": "address"
        },
        {
          "name": "_assetTokenID",
          "type": "uint256"
        }
      ],
      "name": "expireNonFungible",
      "outputs": [
        {
          "name": "",
          "type": "bool"
        }
      ],
      "payable": false,
      "stateMutability": "nonpayable",
      "type": "function"
    },
    {
      "constant": false,
      "inputs": [
        {
          "name": "_tokenID",
          "type": "uint256"
        },
        {
          "name": "_assetContract",
          "type": "address"
        },
        {
          "name": "_amount",
          "type": "uint256"
        }
      ],
      "name": "removeFungibleAssets",
      "outputs": [],
      "payable": false,
      "stateMutability": "nonpayable",
      "type": "function"
    },
    {
      "constant": false,
      "inputs": [
        {
          "name": "_tokenID",
          "type": "uint256"
        },
        {
          "name": "_assetContract",
          "type": "address"
        },
        {
          "name": "_amount",
          "type": "uint256"
        }
      ],
      "name": "addFungibleAssets",
      "outputs": [],
      "payable": false,
      "stateMutability": "nonpayable",
      "type": "function"
    },
    {
      "constant": false,
      "inputs": [
        {
          "name": "_tokenID",
          "type": "uint256"
        },
        {
          "name": "_assetContract",
          "type": "address"
        }
      ],
      "name": "setFungibleAssetsToZero",
      "outputs": [],
      "payable": false,
      "stateMutability": "nonpayable",
      "type": "function"
    },
    {
      "constant": false,
      "inputs": [
        {
          "name": "_tokenID",
          "type": "uint256"
        },
        {
          "name": "_assetContract",
          "type": "address"
        }
      ],
      "name": "setFungibleAssetsToOne",
      "outputs": [],
      "payable": false,
      "stateMutability": "nonpayable",
      "type": "function"
    },
    {
      "constant": true,
      "inputs": [],
      "name": "isOnGoing",
      "outputs": [
        {
          "name": "",
          "type": "bool"
        }
      ],
      "payable": false,
      "stateMutability": "view",
      "type": "function"
    },
    {
      "constant": true,
      "inputs": [],
      "name": "isClosed",
      "outputs": [
        {
          "name": "",
          "type": "bool"
        }
      ],
      "payable": false,
      "stateMutability": "view",
      "type": "function"
    }
  ],
  "bytecode": "0x60806040523480156200001157600080fd5b5062000062336040805190810160405280600581526020017f61646d696e00000000000000000000000000000000000000000000000000000081525062000068640100000000026401000000009004565b6200020f565b620000f7826000836040518082805190602001908083835b602083101515620000a7578051825260208201915060208101905060208303925062000080565b6001836020036101000a0380198251168184511680821785525050505050509050019150509081526020016040518091039020620001b16401000000000262001cf3179091906401000000009004565b8173ffffffffffffffffffffffffffffffffffffffff167fbfec83d64eaa953f2708271a023ab9ee82057f8f3578d548c1a4ba0b5b700489826040518080602001828103825283818151815260200191508051906020019080838360005b838110156200017257808201518184015260208101905062000155565b50505050905090810190601f168015620001a05780820380516001836020036101000a031916815260200191505b509250505060405180910390a25050565b60018260000160008373ffffffffffffffffffffffffffffffffffffffff1673ffffffffffffffffffffffffffffffffffffffff16815260200190815260200160002060006101000a81548160ff0219169083151502179055505050565b611d7d806200021f6000396000f30060806040526004361061011d576000357c0100000000000000000000000000000000000000000000000000000000900463ffffffff1680630988ca8c14610122578063217fe6c6146101ab5780633453cba91461024c5780635192c9ea1461027b5780635b4df1ca146102d257806365937717146103625780636a5ea8d9146103f157806388cee87e1461043e5780639e1f1260146104c7578063a4d4a09414610556578063b25fa92c146105c5578063b3ecf2361461064e578063b706568f146106de578063be1fd0381461076d578063c2b6b58c146107dc578063d06baae41461080b578063d391014b1461083a578063db9e4b8f146108ca578063e6ada8c714610921578063e71e144c146109b0578063efe9dcb7146109fd575b600080fd5b34801561012e57600080fd5b506101a9600480360381019080803573ffffffffffffffffffffffffffffffffffffffff169060200190929190803590602001908201803590602001908080601f0160208091040260200160405190810160405280939291908181526020018383808284378201915050505050509192919290505050610a8d565b005b3480156101b757600080fd5b50610232600480360381019080803573ffffffffffffffffffffffffffffffffffffffff169060200190929190803590602001908201803590602001908080601f0160208091040260200160405190810160405280939291908181526020018383808284378201915050505050509192919290505050610b0e565b604051808215151515815260200191505060405180910390f35b34801561025857600080fd5b50610261610b95565b604051808215151515815260200191505060405180910390f35b34801561028757600080fd5b506102d060048036038101908080359060200190929190803573ffffffffffffffffffffffffffffffffffffffff16906020019092919080359060200190929190505050610bbd565b005b3480156102de57600080fd5b506102e7610c20565b6040518080602001828103825283818151815260200191508051906020019080838360005b8381101561032757808201518184015260208101905061030c565b50505050905090810190601f1680156103545780820380516001836020036101000a031916815260200191505b509250505060405180910390f35b34801561036e57600080fd5b506103d7600480360381019080803573ffffffffffffffffffffffffffffffffffffffff16906020019092919080359060200190929190803573ffffffffffffffffffffffffffffffffffffffff16906020019092919080359060200190929190505050610c59565b604051808215151515815260200191505060405180910390f35b3480156103fd57600080fd5b5061043c60048036038101908080359060200190929190803573ffffffffffffffffffffffffffffffffffffffff169060200190929190505050610d12565b005b34801561044a57600080fd5b506104c5600480360381019080803573ffffffffffffffffffffffffffffffffffffffff169060200190929190803590602001908201803590602001908080601f0160208091040260200160405190810160405280939291908181526020018383808284378201915050505050509192919290505050610d6c565b005b3480156104d357600080fd5b5061053c600480360381019080803573ffffffffffffffffffffffffffffffffffffffff16906020019092919080359060200190929190803573ffffffffffffffffffffffffffffffffffffffff16906020019092919080359060200190929190505050610db9565b604051808215151515815260200191505060405180910390f35b34801561056257600080fd5b506105ab60048036038101908080359060200190929190803573ffffffffffffffffffffffffffffffffffffffff16906020019092919080359060200190929190505050610e2c565b604051808215151515815260200191505060405180910390f35b3480156105d157600080fd5b5061064c600480360381019080803573ffffffffffffffffffffffffffffffffffffffff169060200190929190803590602001908201803590602001908080601f0160208091040260200160405190810160405280939291908181526020018383808284378201915050505050509192919290505050611002565b005b34801561065a57600080fd5b5061066361104f565b6040518080602001828103825283818151815260200191508051906020019080838360005b838110156106a3578082015181840152602081019050610688565b50505050905090810190601f1680156106d05780820380516001836020036101000a031916815260200191505b509250505060405180910390f35b3480156106ea57600080fd5b50610753600480360381019080803573ffffffffffffffffffffffffffffffffffffffff16906020019092919080359060200190929190803573ffffffffffffffffffffffffffffffffffffffff1690602001909291908035906020019092919050505061108c565b604051808215151515815260200191505060405180910390f35b34801561077957600080fd5b506107c260048036038101908080359060200190929190803573ffffffffffffffffffffffffffffffffffffffff169060200190929190803590602001909291905050506110a4565b604051808215151515815260200191505060405180910390f35b3480156107e857600080fd5b506107f161130b565b604051808215151515815260200191505060405180910390f35b34801561081757600080fd5b50610820611324565b604051808215151515815260200191505060405180910390f35b34801561084657600080fd5b5061084f61136c565b6040518080602001828103825283818151815260200191508051906020019080838360005b8381101561088f578082015181840152602081019050610874565b50505050905090810190601f1680156108bc5780820380516001836020036101000a031916815260200191505b509250505060405180910390f35b3480156108d657600080fd5b5061091f60048036038101908080359060200190929190803573ffffffffffffffffffffffffffffffffffffffff169060200190929190803590602001909291905050506113a5565b005b34801561092d57600080fd5b50610996600480360381019080803573ffffffffffffffffffffffffffffffffffffffff16906020019092919080359060200190929190803573ffffffffffffffffffffffffffffffffffffffff16906020019092919080359060200190929190505050611408565b604051808215151515815260200191505060405180910390f35b3480156109bc57600080fd5b506109fb60048036038101908080359060200190929190803573ffffffffffffffffffffffffffffffffffffffff1690602001909291905050506114c1565b005b348015610a0957600080fd5b50610a1261151b565b6040518080602001828103825283818151815260200191508051906020019080838360005b83811015610a52578082015181840152602081019050610a37565b50505050905090810190601f168015610a7f5780820380516001836020036101000a031916815260200191505b509250505060405180910390f35b610b0a826000836040518082805190602001908083835b602083101515610ac95780518252602082019150602081019050602083039250610aa4565b6001836020036101000a038019825116818451168082178552505050505050905001915050908152602001604051809103902061155890919063ffffffff16565b5050565b6000610b8d836000846040518082805190602001908083835b602083101515610b4c5780518252602082019150602081019050602083039250610b27565b6001836020036101000a038019825116818451168082178552505050505050905001915050908152602001604051809103902061157190919063ffffffff16565b905092915050565b60006001544210158015610bab57506002544211155b1515610bb657600080fd5b6001905090565b806003600085815260200190815260200160002060008473ffffffffffffffffffffffffffffffffffffffff1673ffffffffffffffffffffffffffffffffffffffff16815260200190815260200160002060008282540192505081905550505050565b6040805190810160405280600a81526020017f636f6e74726f6c6c65720000000000000000000000000000000000000000000081525081565b60006040805190810160405280600a81526020017f636f6e74726f6c6c657200000000000000000000000000000000000000000000815250610c9b3382610a8d565b60011515610ca761130b565b1515141515610cb557600080fd5b610cc1868686866115ca565b503073ffffffffffffffffffffffffffffffffffffffff167fd5669ebe8b90ed693033f1915dcea031e7a16a6f146a8326c02eec10eed77edd60405160405180910390a26001915050949350505050565b60016003600084815260200190815260200160002060008373ffffffffffffffffffffffffffffffffffffffff1673ffffffffffffffffffffffffffffffffffffffff168152602001908152602001600020819055505050565b610dab336040805190810160405280600581526020017f61646d696e000000000000000000000000000000000000000000000000000000815250610a8d565b610db58282611799565b5050565b60006040805190810160405280600a81526020017f636f6e74726f6c6c657200000000000000000000000000000000000000000000815250610dfb3382610a8d565b60011515610e07610b95565b1515141515610e1557600080fd5b610e21868686866118cd565b915050949350505050565b600060011515610e3a610b95565b1515141515610e4857600080fd5b8273ffffffffffffffffffffffffffffffffffffffff1660405180807f7472616e7366657246726f6d28616464726573732c616464726573732c75696e81526020017f7432353629000000000000000000000000000000000000000000000000000000815250602501905060405180910390207c010000000000000000000000000000000000000000000000000000000090043330856040518463ffffffff167c0100000000000000000000000000000000000000000000000000000000028152600401808473ffffffffffffffffffffffffffffffffffffffff1673ffffffffffffffffffffffffffffffffffffffff1681526020018373ffffffffffffffffffffffffffffffffffffffff1673ffffffffffffffffffffffffffffffffffffffff16815260200182815260200193505050506000604051808303816000875af1925050501515610f9957600080fd5b816003600086815260200190815260200160002060008573ffffffffffffffffffffffffffffffffffffffff1673ffffffffffffffffffffffffffffffffffffffff16815260200190815260200160002060008282540192505081905550600190509392505050565b611041336040805190810160405280600581526020017f61646d696e000000000000000000000000000000000000000000000000000000815250610a8d565b61104b8282611b61565b5050565b60606040805190810160405280600581526020017f61646d696e000000000000000000000000000000000000000000000000000000815250905090565b600061109a858585856115ca565b9050949350505050565b600080600115156110b3610b95565b15151415156110c157600080fd5b8373ffffffffffffffffffffffffffffffffffffffff1660405180807f7472616e7366657246726f6d28616464726573732c616464726573732c75696e81526020017f7432353629000000000000000000000000000000000000000000000000000000815250602501905060405180910390207c0100000000000000000000000000000000000000000000000000000000900433856040518363ffffffff167c0100000000000000000000000000000000000000000000000000000000028152600401808373ffffffffffffffffffffffffffffffffffffffff1673ffffffffffffffffffffffffffffffffffffffff168152602001828152602001925050506000604051808303816000875af19250505015156111de57600080fd5b8383604051602001808373ffffffffffffffffffffffffffffffffffffffff1673ffffffffffffffffffffffffffffffffffffffff166c01000000000000000000000000028152601401828152602001925050506040516020818303038152906040526040518082805190602001908083835b6020831015156112765780518252602082019150602081019050602083039250611251565b6001836020036101000a038019825116818451168082178552505050505050905001915050604051809103902060019004905060016003600087815260200190815260200160002060008373ffffffffffffffffffffffffffffffffffffffff1673ffffffffffffffffffffffffffffffffffffffff1681526020019081526020016000208190555060019150509392505050565b60006002544211151561131d57600080fd5b6001905090565b6000611365336040805190810160405280600a81526020017f636f6e74726f6c6c657200000000000000000000000000000000000000000000815250610a8d565b6001905090565b6040805190810160405280600581526020017f61646d696e00000000000000000000000000000000000000000000000000000081525081565b806003600085815260200190815260200160002060008473ffffffffffffffffffffffffffffffffffffffff1673ffffffffffffffffffffffffffffffffffffffff16815260200190815260200160002060008282540392505081905550505050565b60006040805190810160405280600a81526020017f636f6e74726f6c6c65720000000000000000000000000000000000000000000081525061144a3382610a8d565b6001151561145661130b565b151514151561146457600080fd5b611470868686866118cd565b503073ffffffffffffffffffffffffffffffffffffffff167fd5669ebe8b90ed693033f1915dcea031e7a16a6f146a8326c02eec10eed77edd60405160405180910390a26001915050949350505050565b60006003600084815260200190815260200160002060008373ffffffffffffffffffffffffffffffffffffffff1673ffffffffffffffffffffffffffffffffffffffff168152602001908152602001600020819055505050565b60606040805190810160405280600a81526020017f636f6e74726f6c6c657200000000000000000000000000000000000000000000815250905090565b6115628282611571565b151561156d57600080fd5b5050565b60008260000160008373ffffffffffffffffffffffffffffffffffffffff1673ffffffffffffffffffffffffffffffffffffffff16815260200190815260200160002060009054906101000a900460ff16905092915050565b60008273ffffffffffffffffffffffffffffffffffffffff1660405160200180807f7472616e7366657228616464726573732c75696e74323536290000000000000081525060190190506040516020818303038152906040526040518082805190602001908083835b6020831015156116585780518252602082019150602081019050602083039250611633565b6001836020036101000a03801982511681845116808217855250505050505090500191505060405180910390207c0100000000000000000000000000000000000000000000000000000000900486846040518363ffffffff167c0100000000000000000000000000000000000000000000000000000000028152600401808373ffffffffffffffffffffffffffffffffffffffff1673ffffffffffffffffffffffffffffffffffffffff168152602001828152602001925050506000604051808303816000875af192505050151561172f57600080fd5b816003600086815260200190815260200160002060008573ffffffffffffffffffffffffffffffffffffffff1673ffffffffffffffffffffffffffffffffffffffff1681526020019081526020016000206000828254039250508190555060019050949350505050565b611816826000836040518082805190602001908083835b6020831015156117d557805182526020820191506020810190506020830392506117b0565b6001836020036101000a0380198251168184511680821785525050505050509050019150509081526020016040518091039020611c9590919063ffffffff16565b8173ffffffffffffffffffffffffffffffffffffffff167fd211483f91fc6eff862467f8de606587a30c8fc9981056f051b897a418df803a826040518080602001828103825283818151815260200191508051906020019080838360005b8381101561188f578082015181840152602081019050611874565b50505050905090810190601f1680156118bc5780820380516001836020036101000a031916815260200191505b509250505060405180910390a25050565b6000808383604051602001808373ffffffffffffffffffffffffffffffffffffffff1673ffffffffffffffffffffffffffffffffffffffff166c01000000000000000000000000028152601401828152602001925050506040516020818303038152906040526040518082805190602001908083835b6020831015156119685780518252602082019150602081019050602083039250611943565b6001836020036101000a03801982511681845116808217855250505050505090500191505060405180910390206001900490508373ffffffffffffffffffffffffffffffffffffffff1660405160200180807f7472616e7366657228616464726573732c75696e74323536290000000000000081525060190190506040516020818303038152906040526040518082805190602001908083835b602083101515611a275780518252602082019150602081019050602083039250611a02565b6001836020036101000a03801982511681845116808217855250505050505090500191505060405180910390207c0100000000000000000000000000000000000000000000000000000000900487856040518363ffffffff167c0100000000000000000000000000000000000000000000000000000000028152600401808373ffffffffffffffffffffffffffffffffffffffff1673ffffffffffffffffffffffffffffffffffffffff168152602001828152602001925050506000604051808303816000875af1925050501515611afe57600080fd5b60006003600087815260200190815260200160002060008373ffffffffffffffffffffffffffffffffffffffff1673ffffffffffffffffffffffffffffffffffffffff168152602001908152602001600020819055506001915050949350505050565b611bde826000836040518082805190602001908083835b602083101515611b9d5780518252602082019150602081019050602083039250611b78565b6001836020036101000a0380198251168184511680821785525050505050509050019150509081526020016040518091039020611cf390919063ffffffff16565b8173ffffffffffffffffffffffffffffffffffffffff167fbfec83d64eaa953f2708271a023ab9ee82057f8f3578d548c1a4ba0b5b700489826040518080602001828103825283818151815260200191508051906020019080838360005b83811015611c57578082015181840152602081019050611c3c565b50505050905090810190601f168015611c845780820380516001836020036101000a031916815260200191505b509250505060405180910390a25050565b60008260000160008373ffffffffffffffffffffffffffffffffffffffff1673ffffffffffffffffffffffffffffffffffffffff16815260200190815260200160002060006101000a81548160ff0219169083151502179055505050565b60018260000160008373ffffffffffffffffffffffffffffffffffffffff1673ffffffffffffffffffffffffffffffffffffffff16815260200190815260200160002060006101000a81548160ff02191690831515021790555050505600a165627a7a723058209a190c249e1c3ea72e0aaf223ed7e8c8670f6c24caacb7add1e768cbec30e2310029",
  "source": "pragma solidity ^0.4.24;\n\n// based on https://medium.com/coinmonks/introducing-crypto-composables-ee5701fde217\n\nimport '../openzeppelin-solidity/contracts/math/SafeMath.sol';\n\nimport './RBACWithAdmin.sol';\n\ncontract TwoKeyCampaignInventory is RBACWithAdmin {\n\n  event Expired(address indexed _contract);\n\n  using SafeMath for uint256;\n\n  uint openingTime;\n  uint closingTime;\n  /// TODO: Strictly owned and all methods can be called only by TwoKeyCampaign contracts\n\n\n//  modifier isOngoing() {\n//    require(block.timestamp >= openingTime && block.timestamp <= closingTime);\n//    _;\n//  }\n//\n//  modifier isClosed() {\n//    require(now > closingTime);\n//    _;\n//  }\n\n\n  /*\n  \n    The contract acts as a store. The assets data structure is the catalogue of the store.\n    \n    Each asset is identified by a uint256 tokenID that acts as a SKU (shop keeping unit)\n\n    This SKU is set by the owner and is unique only with this particular contract\n    \n      mapping(uint256 => ...)\n\n    maps a tokenID to the asset\n    Such a tokenID identifies one of:\n\n    1. ERC20 : which is represented by an entry mapping(address => uint256)\n    which maps the ERC20 contract to the amount tokens we have\n    2. ERC721: which is represented by an entry mapping(address => uint256)\n    where the address is a hash of the concatenation of the ERC721 contract address and the unique token within that contract, and \n    the uint256 value is 1 or 0\n\n  */\n\n\n  // TODO (udi) I think it she mapping(uint256 => address) and not mapping(uint256 => mapping(address => uint256))\n  // the uint256 is SKU and the address is of ERC20 or ERC721 there is just one address per SKU so we dont need more than one.\n  //    You can the balanceOf method (both in ERC20 and ERC721) instead of using the last uint256 or counting how many entries you have\n  //    in mapping(address => uint256). From reading the interface of ERC721 it looks like it is not very important to\n  //    remeber which NFT you used. If you really want you can do a mapping from SKU to a struct. the first item in the\n  //    struct is the address and the second item is a map of all the NFT the campaign owns mapping(uint256 => bool)\n  //    but this is not elegant because this mapping is only needed for ERC721 and not for ERC20 so you should really put\n  //    it in a subclass. Anyway I dont think we need ETC721 and even if we support ERC721 we dont need to keep track of which tokenID (NFT)\n  //    is used.\n  //\n  mapping(uint256 => mapping(address => uint256)) assets;\n\n\n  constructor() RBACWithAdmin() public {\n\n  }\n\n\n  // add erc20 asset amount to the store, which adds an amount of that erc20 to our catalogue\n  function addFungibleAsset(uint256 _tokenID, address _assetContract, uint256 _amount) public returns (bool) {\n    require(isOnGoing() == true);\n    require(\n      _assetContract.call(\n        bytes4(keccak256(\"transferFrom(address,address,uint256)\")),\n        msg.sender,\n        address(this),\n        _amount\n      )\n    );\n\n    // set as asset\n    assets[_tokenID][_assetContract] += _amount;\n\n    return true;\n  }\n\n  // add erc721 asset to the store, which adds a particular unique item from that erc721 to our catalogue\n  function addNonFungibleAsset(uint256 _tokenID, address _assetContract, uint256 _index) public returns (bool) {\n    require(isOnGoing() == true);\n    require(\n      _assetContract.call(\n        bytes4(keccak256(\"transferFrom(address,address,uint256)\")),\n        msg.sender,\n        _index\n      )\n    );\n\n    // set as asset\n    address assetToken = address(\n      keccak256(abi.encodePacked(_assetContract, _index))\n    );\n    assets[_tokenID][assetToken] = 1;\n\n    return true;\n  }\n  // commented line where transaction reverted.\n  // move an amount of erc20 from our catalogue to someone\n  function moveFungibleAsset(\n    address _to,\n    uint256 _tokenID,\n    address _assetContract,\n    uint256 _amount) internal returns (bool) {\n//    require(assets[_tokenID][_assetContract] >= _amount);\n    require(\n      _assetContract.call(\n        bytes4(keccak256(abi.encodePacked(\"transfer(address,uint256)\"))),\n        _to, _amount\n      )\n    );\n\n    assets[_tokenID][_assetContract] -= _amount;\n    return true;\n  }\n\n  // transfer a unique item from a erc721 in our catalogue to someone\n  function moveNonFungibleAsset(\n    address _to,\n    uint256 _tokenID,\n    address _assetContract,\n    uint256 _assetTokenID) internal returns (bool) {\n    address assetToken = address(\n      keccak256(abi.encodePacked(_assetContract, _assetTokenID))\n    );\n//    require(assets[_tokenID][assetToken] == 1);\n    require(\n      _assetContract.call(\n        bytes4(keccak256(abi.encodePacked(\"transfer(address,uint256)\"))),\n        _to, _assetTokenID\n      )\n    );\n\n    assets[_tokenID][assetToken] = 0;\n    return true;\n  }\n\n  // transfer an amount of erc20 from our catalogue to someone\n  // If transferFungibleAsset is internal that means it can't be called from out of the contract - set it to public\n  // onlyRole(ROLE_CONTROLLER) modifier also doesn't work, need to check it.\n  function transferFungibleAsset(\n    address _to,\n    uint256 _tokenID,\n    address _assetContract,\n    uint256 _amount) public returns (bool) {\n    return moveFungibleAsset(_to, _tokenID, _assetContract, _amount);\n  }\n\n  // transfer a unique item from a erc721 in our catalogue to someone\n  // public - need to be callable only by two key campaign\n  function transferNonFungibleAsset(\n    address _to,\n    uint256 _tokenID,\n    address _assetContract,\n    uint256 _assetTokenID) onlyRole(ROLE_CONTROLLER) public returns (bool) {\n    require(isOnGoing() == true);\n    return moveNonFungibleAsset(_to, _tokenID, _assetContract, _assetTokenID);\n  }\n\n  function expireFungible(\n    address _to,\n    uint256 _tokenID,\n    address _assetContract,\n    uint256 _amount) onlyRole(ROLE_CONTROLLER) public returns (bool) {\n    require(isClosed() == true);\n    moveFungibleAsset(_to, _tokenID, _assetContract, _amount);\n    emit Expired(address(this));\n    return true;\n  }\n\n  function expireNonFungible(\n    address _to,\n    uint256 _tokenID,\n    address _assetContract,\n    uint256 _assetTokenID) onlyRole(ROLE_CONTROLLER) public returns (bool){\n    require(isClosed() == true);\n    moveNonFungibleAsset(_to, _tokenID, _assetContract, _assetTokenID);\n    emit Expired(address(this));\n    return true;\n  }\n\n  /// @notice Since we don't any more inherit this contract, we can access to it's variables and modify them only with functions\n  /// @notice Removes specific amount of assets\n  /// @dev need to setup some kind of validation that only TwoKeyCampaign contract can call this\n  /// @param _tokenID is id of token\n  /// @param _assetContract is address of asset contract\n  /// @param _amount is the actual amount\n  function removeFungibleAssets(uint _tokenID, address _assetContract, uint _amount) public {\n      assets[_tokenID][_assetContract] -= _amount;\n  }\n  /// @notice Since we don't any more inherit this contract, we can access to it's variables and modify them only with functions\n  /// @notice Adds specific amount of assets\n  /// @dev need to setup some kind of validation that only TwoKeyCampaign contract can call this\n  /// @param _tokenID is id of token\n  /// @param _assetContract is address of asset contract\n  /// @param _amount is the actual amount\n  function addFungibleAssets(uint _tokenID, address _assetContract, uint _amount) public {\n    assets[_tokenID][_assetContract] += _amount;\n  }\n  /// @notice Since we don't any more inherit this contract, we can access to it's variables and modify them only with functions\n  /// @notice Sets amount of assets to 0\n  /// @dev need to setup some kind of validation that only TwoKeyCampaign contract can call this\n  /// @param _tokenID is id of token\n  /// @param _assetContract is address of asset contract\n  function setFungibleAssetsToZero(uint _tokenID, address _assetContract) public {\n    assets[_tokenID][_assetContract] = 0;\n  }\n  /// @notice Since we don't any more inherit this contract, we can access to it's variables and modify them only with functions\n  /// @notice Sets amount of assets to 1\n  /// @dev need to setup some kind of validation that only TwoKeyCampaign contract can call this\n  /// @param _tokenID is id of token\n  /// @param _assetContract is address of asset contract\n  function setFungibleAssetsToOne(uint _tokenID, address _assetContract) public {\n    assets[_tokenID][_assetContract] = 1;\n  }\n\n\n\n  /// Since we can't use modifiers anymore here, we'll use functions and call them in other contracts / implement modifiers there\n  /// @notice Function to replace old modifier isOngoing - checks if current time is between opening and closing time\n  /// @dev Because TwoKeyCampaign doesn't inherit anymore this contract, it doesn't have access to it's modifiers\n  /// @return - if require pass will return true, otherwise it will revert trnx\n  function isOnGoing() public view returns (bool) {\n    require(block.timestamp >= openingTime && block.timestamp <= closingTime);\n    return true;\n  }\n\n\n  /// Since we can't use modifiers anymore here, we'll use functions and call them in other contracts / implement modifiers there\n  /// @notice Function to replace old modifier isClosed - checks if current time is greater than closingTime\n  /// @dev Because TwoKeyCampaign doesn't inherit anymore this contract, it doesn't have access to it's modifiers\n  /// @return - if require pass, will return true, otherwise it will revert trnx\n  function isClosed() public view returns (bool) {\n    require(block.timestamp > closingTime);\n    return true;\n  }\n\n}\n",
  "sourcePath": "/Users/aydnep/2key/contracts/contracts/2key/TwoKeyCampaignInventory.sol",
  "compiler": {
    "name": "solc",
    "version": "0.4.24+commit.e67f0147.Emscripten.clang"
  },
  "schemaVersion": "2.0.1",
  "updatedAt": "2018-08-30T09:14:44.116Z"
}