{
  "contractName": "TwoKeyEscrow",
  "abi": [
    {
      "constant": false,
      "inputs": [
        {
          "name": "_to",
          "type": "address"
        },
        {
          "name": "_tokenID",
          "type": "uint256"
        },
        {
          "name": "_childContract",
          "type": "address"
        },
        {
          "name": "_amount",
          "type": "uint256"
        }
      ],
      "name": "transferFungibleChild",
      "outputs": [
        {
          "name": "",
          "type": "bool"
        }
      ],
      "payable": false,
      "stateMutability": "nonpayable",
      "type": "function"
    },
    {
      "constant": false,
      "inputs": [],
      "name": "kill",
      "outputs": [],
      "payable": false,
      "stateMutability": "nonpayable",
      "type": "function"
    },
    {
      "constant": false,
      "inputs": [
        {
          "name": "_tokenID",
          "type": "uint256"
        },
        {
          "name": "_childContract",
          "type": "address"
        },
        {
          "name": "_index",
          "type": "uint256"
        }
      ],
      "name": "addNonFungibleChild",
      "outputs": [
        {
          "name": "",
          "type": "bool"
        }
      ],
      "payable": false,
      "stateMutability": "nonpayable",
      "type": "function"
    },
    {
      "constant": false,
      "inputs": [],
      "name": "renounceOwnership",
      "outputs": [],
      "payable": false,
      "stateMutability": "nonpayable",
      "type": "function"
    },
    {
      "constant": false,
      "inputs": [
        {
          "name": "_tokenID",
          "type": "uint256"
        },
        {
          "name": "_childContract",
          "type": "address"
        },
        {
          "name": "_amount",
          "type": "uint256"
        }
      ],
      "name": "addFungibleChild",
      "outputs": [
        {
          "name": "",
          "type": "bool"
        }
      ],
      "payable": false,
      "stateMutability": "nonpayable",
      "type": "function"
    },
    {
      "constant": true,
      "inputs": [],
      "name": "owner",
      "outputs": [
        {
          "name": "",
          "type": "address"
        }
      ],
      "payable": false,
      "stateMutability": "view",
      "type": "function"
    },
    {
      "constant": false,
      "inputs": [
        {
          "name": "_to",
          "type": "address"
        },
        {
          "name": "_tokenID",
          "type": "uint256"
        },
        {
          "name": "_childContract",
          "type": "address"
        },
        {
          "name": "_childTokenID",
          "type": "uint256"
        }
      ],
      "name": "transferNonFungibleChild",
      "outputs": [
        {
          "name": "",
          "type": "bool"
        }
      ],
      "payable": false,
      "stateMutability": "nonpayable",
      "type": "function"
    },
    {
      "constant": false,
      "inputs": [
        {
          "name": "_to",
          "type": "address"
        }
      ],
      "name": "expire",
      "outputs": [],
      "payable": false,
      "stateMutability": "nonpayable",
      "type": "function"
    },
    {
      "constant": false,
      "inputs": [
        {
          "name": "_newOwner",
          "type": "address"
        }
      ],
      "name": "transferOwnership",
      "outputs": [],
      "payable": false,
      "stateMutability": "nonpayable",
      "type": "function"
    },
    {
      "constant": true,
      "inputs": [],
      "name": "token",
      "outputs": [
        {
          "name": "",
          "type": "address"
        }
      ],
      "payable": false,
      "stateMutability": "view",
      "type": "function"
    },
    {
      "inputs": [
        {
          "name": "_eventSource",
          "type": "address"
        },
        {
          "name": "_from",
          "type": "address"
        },
        {
          "name": "_economy",
          "type": "address"
        },
        {
          "name": "_payout",
          "type": "uint256"
        },
        {
          "name": "_campaign",
          "type": "address"
        },
        {
          "name": "_buyer",
          "type": "address"
        },
        {
          "name": "_seller",
          "type": "address"
        },
        {
          "name": "_moderator",
          "type": "address"
        },
        {
          "name": "_escrowPrecentage",
          "type": "uint256"
        },
        {
          "name": "_start",
          "type": "uint256"
        },
        {
          "name": "_duration",
          "type": "uint256"
        },
        {
          "name": "_whitelistConverter",
          "type": "address"
        },
        {
          "name": "_rate",
          "type": "uint256"
        },
        {
          "name": "_maxPi",
          "type": "uint256"
        }
      ],
      "payable": false,
      "stateMutability": "nonpayable",
      "type": "constructor"
    },
    {
      "anonymous": false,
      "inputs": [
        {
          "indexed": true,
          "name": "_contract",
          "type": "address"
        }
      ],
      "name": "Expired",
      "type": "event"
    },
    {
      "anonymous": false,
      "inputs": [
        {
          "indexed": true,
          "name": "previousOwner",
          "type": "address"
        }
      ],
      "name": "OwnershipRenounced",
      "type": "event"
    },
    {
      "anonymous": false,
      "inputs": [
        {
          "indexed": true,
          "name": "previousOwner",
          "type": "address"
        },
        {
          "indexed": true,
          "name": "newOwner",
          "type": "address"
        }
      ],
      "name": "OwnershipTransferred",
      "type": "event"
    },
    {
      "constant": false,
      "inputs": [
        {
          "name": "_tokenID",
          "type": "uint256"
        },
        {
          "name": "_childContract",
          "type": "address"
        },
        {
          "name": "_childTokenID",
          "type": "uint256"
        }
      ],
      "name": "transferNonFungibleChildTwoKeyToken",
      "outputs": [],
      "payable": false,
      "stateMutability": "nonpayable",
      "type": "function"
    },
    {
      "constant": false,
      "inputs": [
        {
          "name": "_tokenID",
          "type": "uint256"
        },
        {
          "name": "_childContract",
          "type": "address"
        },
        {
          "name": "_amount",
          "type": "uint256"
        }
      ],
      "name": "transferFungibleChildTwoKeyToken",
      "outputs": [],
      "payable": false,
      "stateMutability": "nonpayable",
      "type": "function"
    },
    {
      "constant": false,
      "inputs": [
        {
          "name": "_tokenID",
          "type": "uint256"
        },
        {
          "name": "_childContract",
          "type": "address"
        },
        {
          "name": "_childTokenID",
          "type": "uint256"
        }
      ],
      "name": "cancelNonFungibleChildTwoKey",
      "outputs": [],
      "payable": false,
      "stateMutability": "nonpayable",
      "type": "function"
    },
    {
      "constant": false,
      "inputs": [
        {
          "name": "_tokenID",
          "type": "uint256"
        },
        {
          "name": "_childContract",
          "type": "address"
        },
        {
          "name": "_amount",
          "type": "uint256"
        }
      ],
      "name": "cancelFungibleChildTwoKey",
      "outputs": [],
      "payable": false,
      "stateMutability": "nonpayable",
      "type": "function"
    }
  ],
  "bytecode": "0x608060405234801561001057600080fd5b506040516101c080613810833981018060405281019080805190602001909291908051906020019092919080519060200190929190805190602001909291908051906020019092919080519060200190929190805190602001909291908051906020019092919080519060200190929190805190602001909291908051906020019092919080519060200190929190805190602001909291908051906020019092919050505084848181336000806101000a81548173ffffffffffffffffffffffffffffffffffffffff021916908373ffffffffffffffffffffffffffffffffffffffff1602179055508160018190555080600281905550505050508d600660006101000a81548173ffffffffffffffffffffffffffffffffffffffff021916908373ffffffffffffffffffffffffffffffffffffffff1602179055508c600760006101000a81548173ffffffffffffffffffffffffffffffffffffffff021916908373ffffffffffffffffffffffffffffffffffffffff1602179055508b600960006101000a81548173ffffffffffffffffffffffffffffffffffffffff021916908373ffffffffffffffffffffffffffffffffffffffff16021790555089600a60006101000a81548173ffffffffffffffffffffffffffffffffffffffff021916908373ffffffffffffffffffffffffffffffffffffffff16021790555088600b60006101000a81548173ffffffffffffffffffffffffffffffffffffffff021916908373ffffffffffffffffffffffffffffffffffffffff16021790555087600c60006101000a81548173ffffffffffffffffffffffffffffffffffffffff021916908373ffffffffffffffffffffffffffffffffffffffff16021790555086600d60006101000a81548173ffffffffffffffffffffffffffffffffffffffff021916908373ffffffffffffffffffffffffffffffffffffffff16021790555085600e8190555081600f81905550806010819055508a60088190555082601160006101000a81548173ffffffffffffffffffffffffffffffffffffffff021916908373ffffffffffffffffffffffffffffffffffffffff16021790555050505050505050505050505050506134c38061034d6000396000f3006080604052600436106100d0576000357c0100000000000000000000000000000000000000000000000000000000900463ffffffff16806306bd6136146100d5578063132b27911461012c578063318279f6146101bb5780633953cd641461021257806341c0e1b5146102695780634340267814610280578063642243c8146102ef578063715018a61461034657806371e5dec21461035d5780638da5cb5b146103cc578063ba50478f14610423578063c8db233e146104b2578063f2fde38b146104f5578063fc0c546a14610538575b600080fd5b3480156100e157600080fd5b5061012a60048036038101908080359060200190929190803573ffffffffffffffffffffffffffffffffffffffff1690602001909291908035906020019092919050505061058f565b005b34801561013857600080fd5b506101a1600480360381019080803573ffffffffffffffffffffffffffffffffffffffff16906020019092919080359060200190929190803573ffffffffffffffffffffffffffffffffffffffff169060200190929190803590602001909291905050506108f9565b604051808215151515815260200191505060405180910390f35b3480156101c757600080fd5b5061021060048036038101908080359060200190929190803573ffffffffffffffffffffffffffffffffffffffff16906020019092919080359060200190929190505050610b82565b005b34801561021e57600080fd5b5061026760048036038101908080359060200190929190803573ffffffffffffffffffffffffffffffffffffffff169060200190929190803590602001909291905050506113e2565b005b34801561027557600080fd5b5061027e61174c565b005b34801561028c57600080fd5b506102d560048036038101908080359060200190929190803573ffffffffffffffffffffffffffffffffffffffff169060200190929190803590602001909291905050506117e1565b604051808215151515815260200191505060405180910390f35b3480156102fb57600080fd5b5061034460048036038101908080359060200190929190803573ffffffffffffffffffffffffffffffffffffffff16906020019092919080359060200190929190505050611b35565b005b34801561035257600080fd5b5061035b61245c565b005b34801561036957600080fd5b506103b260048036038101908080359060200190929190803573ffffffffffffffffffffffffffffffffffffffff1690602001909291908035906020019092919050505061255e565b604051808215151515815260200191505060405180910390f35b3480156103d857600080fd5b506103e16127ed565b604051808273ffffffffffffffffffffffffffffffffffffffff1673ffffffffffffffffffffffffffffffffffffffff16815260200191505060405180910390f35b34801561042f57600080fd5b50610498600480360381019080803573ffffffffffffffffffffffffffffffffffffffff16906020019092919080359060200190929190803573ffffffffffffffffffffffffffffffffffffffff16906020019092919080359060200190929190505050612812565b604051808215151515815260200191505060405180910390f35b3480156104be57600080fd5b506104f3600480360381019080803573ffffffffffffffffffffffffffffffffffffffff169060200190929190505050612b60565b005b34801561050157600080fd5b50610536600480360381019080803573ffffffffffffffffffffffffffffffffffffffff1690602001909291905050506130d2565b005b34801561054457600080fd5b5061054d613139565b604051808273ffffffffffffffffffffffffffffffffffffffff1673ffffffffffffffffffffffffffffffffffffffff16815260200191505060405180910390f35b6000809054906101000a900473ffffffffffffffffffffffffffffffffffffffff1673ffffffffffffffffffffffffffffffffffffffff163373ffffffffffffffffffffffffffffffffffffffff161415156105ea57600080fd5b6000600f541115156105fb57600080fd5b610629600a60009054906101000a900473ffffffffffffffffffffffffffffffffffffffff168484846108f9565b50600560009054906101000a900473ffffffffffffffffffffffffffffffffffffffff1673ffffffffffffffffffffffffffffffffffffffff1663a9059cbb600b60009054906101000a900473ffffffffffffffffffffffffffffffffffffffff166106a2600f5460085461315f90919063ffffffff16565b6040518363ffffffff167c0100000000000000000000000000000000000000000000000000000000028152600401808373ffffffffffffffffffffffffffffffffffffffff1673ffffffffffffffffffffffffffffffffffffffff16815260200182815260200192505050602060405180830381600087803b15801561072757600080fd5b505af115801561073b573d6000803e3d6000fd5b505050506040513d602081101561075157600080fd5b810190808051906020019092919050505050600660009054906101000a900473ffffffffffffffffffffffffffffffffffffffff1673ffffffffffffffffffffffffffffffffffffffff1663aa72a865600a60009054906101000a900473ffffffffffffffffffffffffffffffffffffffff16600b60009054906101000a900473ffffffffffffffffffffffffffffffffffffffff168686866040518663ffffffff167c0100000000000000000000000000000000000000000000000000000000028152600401808673ffffffffffffffffffffffffffffffffffffffff1673ffffffffffffffffffffffffffffffffffffffff1681526020018573ffffffffffffffffffffffffffffffffffffffff1673ffffffffffffffffffffffffffffffffffffffff1681526020018481526020018373ffffffffffffffffffffffffffffffffffffffff1673ffffffffffffffffffffffffffffffffffffffff16815260200182815260200195505050505050600060405180830381600087803b1580156108dc57600080fd5b505af11580156108f0573d6000803e3d6000fd5b50505050505050565b60008060009054906101000a900473ffffffffffffffffffffffffffffffffffffffff1673ffffffffffffffffffffffffffffffffffffffff163373ffffffffffffffffffffffffffffffffffffffff1614151561095657600080fd5b816003600086815260200190815260200160002060008573ffffffffffffffffffffffffffffffffffffffff1673ffffffffffffffffffffffffffffffffffffffff16815260200190815260200160002054101515156109b557600080fd5b8273ffffffffffffffffffffffffffffffffffffffff1660405160200180807f7472616e7366657228616464726573732c75696e74323536290000000000000081525060190190506040516020818303038152906040526040518082805190602001908083835b602083101515610a415780518252602082019150602081019050602083039250610a1c565b6001836020036101000a03801982511681845116808217855250505050505090500191505060405180910390207c0100000000000000000000000000000000000000000000000000000000900486846040518363ffffffff167c0100000000000000000000000000000000000000000000000000000000028152600401808373ffffffffffffffffffffffffffffffffffffffff1673ffffffffffffffffffffffffffffffffffffffff168152602001828152602001925050506000604051808303816000875af1925050501515610b1857600080fd5b816003600086815260200190815260200160002060008573ffffffffffffffffffffffffffffffffffffffff1673ffffffffffffffffffffffffffffffffffffffff1681526020019081526020016000206000828254039250508190555060019050949350505050565b6000806000809054906101000a900473ffffffffffffffffffffffffffffffffffffffff1673ffffffffffffffffffffffffffffffffffffffff163373ffffffffffffffffffffffffffffffffffffffff16141515610be057600080fd5b601160009054906101000a900473ffffffffffffffffffffffffffffffffffffffff1673ffffffffffffffffffffffffffffffffffffffff16633af32abf336040518263ffffffff167c0100000000000000000000000000000000000000000000000000000000028152600401808273ffffffffffffffffffffffffffffffffffffffff1673ffffffffffffffffffffffffffffffffffffffff168152602001915050602060405180830381600087803b158015610c9d57600080fd5b505af1158015610cb1573d6000803e3d6000fd5b505050506040513d6020811015610cc757600080fd5b81019080805190602001909291905050501515610ce357600080fd5b6000600f54111515610cf457600080fd5b610df4600560009054906101000a900473ffffffffffffffffffffffffffffffffffffffff1673ffffffffffffffffffffffffffffffffffffffff166370a08231306040518263ffffffff167c0100000000000000000000000000000000000000000000000000000000028152600401808273ffffffffffffffffffffffffffffffffffffffff1673ffffffffffffffffffffffffffffffffffffffff168152602001915050602060405180830381600087803b158015610db457600080fd5b505af1158015610dc8573d6000803e3d6000fd5b505050506040513d6020811015610dde57600080fd5b8101908080519060200190929190505050613197565b9150600560009054906101000a900473ffffffffffffffffffffffffffffffffffffffff1673ffffffffffffffffffffffffffffffffffffffff166323b872dd30600d60009054906101000a900473ffffffffffffffffffffffffffffffffffffffff16610e6d600f548761315f90919063ffffffff16565b6040518463ffffffff167c0100000000000000000000000000000000000000000000000000000000028152600401808473ffffffffffffffffffffffffffffffffffffffff1673ffffffffffffffffffffffffffffffffffffffff1681526020018373ffffffffffffffffffffffffffffffffffffffff1673ffffffffffffffffffffffffffffffffffffffff1681526020018281526020019350505050602060405180830381600087803b158015610f2557600080fd5b505af1158015610f39573d6000803e3d6000fd5b505050506040513d6020811015610f4f57600080fd5b81019080805190602001909291905050501515610f6b57600080fd5b610f99600b60009054906101000a900473ffffffffffffffffffffffffffffffffffffffff168686866108f9565b1515610fa457600080fd5b610fce6064610fc060085460105461315f90919063ffffffff16565b6131e290919063ffffffff16565b9050600560009054906101000a900473ffffffffffffffffffffffffffffffffffffffff1673ffffffffffffffffffffffffffffffffffffffff1663a9059cbb600c60009054906101000a900473ffffffffffffffffffffffffffffffffffffffff1661106c600f5461105e86611050896008546131f890919063ffffffff16565b6131f890919063ffffffff16565b61315f90919063ffffffff16565b6040518363ffffffff167c0100000000000000000000000000000000000000000000000000000000028152600401808373ffffffffffffffffffffffffffffffffffffffff1673ffffffffffffffffffffffffffffffffffffffff16815260200182815260200192505050602060405180830381600087803b1580156110f157600080fd5b505af1158015611105573d6000803e3d6000fd5b505050506040513d602081101561111b57600080fd5b8101908080519060200190929190505050151561113757600080fd5b600a60009054906101000a900473ffffffffffffffffffffffffffffffffffffffff1673ffffffffffffffffffffffffffffffffffffffff16635c06b5e3600760009054906101000a900473ffffffffffffffffffffffffffffffffffffffff166111ad600f548561315f90919063ffffffff16565b6040518363ffffffff167c0100000000000000000000000000000000000000000000000000000000028152600401808373ffffffffffffffffffffffffffffffffffffffff1673ffffffffffffffffffffffffffffffffffffffff16815260200182815260200192505050600060405180830381600087803b15801561123257600080fd5b505af1158015611246573d6000803e3d6000fd5b50505050600660009054906101000a900473ffffffffffffffffffffffffffffffffffffffff1673ffffffffffffffffffffffffffffffffffffffff16639b01cd2f600a60009054906101000a900473ffffffffffffffffffffffffffffffffffffffff16600b60009054906101000a900473ffffffffffffffffffffffffffffffffffffffff168888886040518663ffffffff167c0100000000000000000000000000000000000000000000000000000000028152600401808673ffffffffffffffffffffffffffffffffffffffff1673ffffffffffffffffffffffffffffffffffffffff1681526020018573ffffffffffffffffffffffffffffffffffffffff1673ffffffffffffffffffffffffffffffffffffffff1681526020018481526020018373ffffffffffffffffffffffffffffffffffffffff1673ffffffffffffffffffffffffffffffffffffffff16815260200182815260200195505050505050600060405180830381600087803b1580156113c357600080fd5b505af11580156113d7573d6000803e3d6000fd5b505050505050505050565b6000809054906101000a900473ffffffffffffffffffffffffffffffffffffffff1673ffffffffffffffffffffffffffffffffffffffff163373ffffffffffffffffffffffffffffffffffffffff1614151561143d57600080fd5b6000600f5411151561144e57600080fd5b61147c600a60009054906101000a900473ffffffffffffffffffffffffffffffffffffffff16848484612812565b50600560009054906101000a900473ffffffffffffffffffffffffffffffffffffffff1673ffffffffffffffffffffffffffffffffffffffff1663a9059cbb600b60009054906101000a900473ffffffffffffffffffffffffffffffffffffffff166114f5600f5460085461315f90919063ffffffff16565b6040518363ffffffff167c0100000000000000000000000000000000000000000000000000000000028152600401808373ffffffffffffffffffffffffffffffffffffffff1673ffffffffffffffffffffffffffffffffffffffff16815260200182815260200192505050602060405180830381600087803b15801561157a57600080fd5b505af115801561158e573d6000803e3d6000fd5b505050506040513d60208110156115a457600080fd5b810190808051906020019092919050505050600660009054906101000a900473ffffffffffffffffffffffffffffffffffffffff1673ffffffffffffffffffffffffffffffffffffffff1663aa72a865600a60009054906101000a900473ffffffffffffffffffffffffffffffffffffffff16600b60009054906101000a900473ffffffffffffffffffffffffffffffffffffffff168686866040518663ffffffff167c0100000000000000000000000000000000000000000000000000000000028152600401808673ffffffffffffffffffffffffffffffffffffffff1673ffffffffffffffffffffffffffffffffffffffff1681526020018573ffffffffffffffffffffffffffffffffffffffff1673ffffffffffffffffffffffffffffffffffffffff1681526020018481526020018373ffffffffffffffffffffffffffffffffffffffff1673ffffffffffffffffffffffffffffffffffffffff16815260200182815260200195505050505050600060405180830381600087803b15801561172f57600080fd5b505af1158015611743573d6000803e3d6000fd5b50505050505050565b6000809054906101000a900473ffffffffffffffffffffffffffffffffffffffff1673ffffffffffffffffffffffffffffffffffffffff163373ffffffffffffffffffffffffffffffffffffffff161415156117a757600080fd5b6000809054906101000a900473ffffffffffffffffffffffffffffffffffffffff1673ffffffffffffffffffffffffffffffffffffffff16ff5b6000806000809054906101000a900473ffffffffffffffffffffffffffffffffffffffff1673ffffffffffffffffffffffffffffffffffffffff163373ffffffffffffffffffffffffffffffffffffffff1614151561183f57600080fd5b8373ffffffffffffffffffffffffffffffffffffffff1660405160200180807f7472616e7366657246726f6d28616464726573732c616464726573732c75696e81526020017f743235360000000000000000000000000000000000000000000000000000000081525060240190506040516020818303038152906040526040518082805190602001908083835b6020831015156118f157805182526020820191506020810190506020830392506118cc565b6001836020036101000a03801982511681845116808217855250505050505090500191505060405180910390207c010000000000000000000000000000000000000000000000000000000090043330866040518463ffffffff167c0100000000000000000000000000000000000000000000000000000000028152600401808473ffffffffffffffffffffffffffffffffffffffff1673ffffffffffffffffffffffffffffffffffffffff1681526020018373ffffffffffffffffffffffffffffffffffffffff1673ffffffffffffffffffffffffffffffffffffffff16815260200182815260200193505050506000604051808303816000875af19250505015156119fc57600080fd5b8383604051602001808373ffffffffffffffffffffffffffffffffffffffff1673ffffffffffffffffffffffffffffffffffffffff166c01000000000000000000000000028152601401828152602001925050506040516020818303038152906040526040518082805190602001908083835b602083101515611a945780518252602082019150602081019050602083039250611a6f565b6001836020036101000a038019825116818451168082178552505050505050905001915050604051809103902060019004905060016003600087815260200190815260200160002060008373ffffffffffffffffffffffffffffffffffffffff1673ffffffffffffffffffffffffffffffffffffffff16815260200190815260200160002081905550611b2985856000613211565b60019150509392505050565b60008060008060009054906101000a900473ffffffffffffffffffffffffffffffffffffffff1673ffffffffffffffffffffffffffffffffffffffff163373ffffffffffffffffffffffffffffffffffffffff16141515611b9557600080fd5b601160009054906101000a900473ffffffffffffffffffffffffffffffffffffffff1673ffffffffffffffffffffffffffffffffffffffff16633af32abf336040518263ffffffff167c0100000000000000000000000000000000000000000000000000000000028152600401808273ffffffffffffffffffffffffffffffffffffffff1673ffffffffffffffffffffffffffffffffffffffff168152602001915050602060405180830381600087803b158015611c5257600080fd5b505af1158015611c66573d6000803e3d6000fd5b505050506040513d6020811015611c7c57600080fd5b81019080805190602001909291905050501515611c9857600080fd5b6000600f54111515611ca957600080fd5b611da9600560009054906101000a900473ffffffffffffffffffffffffffffffffffffffff1673ffffffffffffffffffffffffffffffffffffffff166370a08231306040518263ffffffff167c0100000000000000000000000000000000000000000000000000000000028152600401808273ffffffffffffffffffffffffffffffffffffffff1673ffffffffffffffffffffffffffffffffffffffff168152602001915050602060405180830381600087803b158015611d6957600080fd5b505af1158015611d7d573d6000803e3d6000fd5b505050506040513d6020811015611d9357600080fd5b8101908080519060200190929190505050613197565b9250600560009054906101000a900473ffffffffffffffffffffffffffffffffffffffff1673ffffffffffffffffffffffffffffffffffffffff1663a9059cbb600d60009054906101000a900473ffffffffffffffffffffffffffffffffffffffff16611e21600f548761315f90919063ffffffff16565b6040518363ffffffff167c0100000000000000000000000000000000000000000000000000000000028152600401808373ffffffffffffffffffffffffffffffffffffffff1673ffffffffffffffffffffffffffffffffffffffff16815260200182815260200192505050602060405180830381600087803b158015611ea657600080fd5b505af1158015611eba573d6000803e3d6000fd5b505050506040513d6020811015611ed057600080fd5b81019080805190602001909291905050501515611eec57600080fd5b611f1a600b60009054906101000a900473ffffffffffffffffffffffffffffffffffffffff16878787612812565b1515611f2557600080fd5b611f4f6064611f4160085460105461315f90919063ffffffff16565b6131e290919063ffffffff16565b9150600560009054906101000a900473ffffffffffffffffffffffffffffffffffffffff1673ffffffffffffffffffffffffffffffffffffffff1663a9059cbb600c60009054906101000a900473ffffffffffffffffffffffffffffffffffffffff16611feb600f54611fdd87611fcf8a896131f890919063ffffffff16565b6131f890919063ffffffff16565b61315f90919063ffffffff16565b6040518363ffffffff167c0100000000000000000000000000000000000000000000000000000000028152600401808373ffffffffffffffffffffffffffffffffffffffff1673ffffffffffffffffffffffffffffffffffffffff16815260200182815260200192505050602060405180830381600087803b15801561207057600080fd5b505af1158015612084573d6000803e3d6000fd5b505050506040513d602081101561209a57600080fd5b810190808051906020019092919050505015156120b657600080fd5b600a60009054906101000a900473ffffffffffffffffffffffffffffffffffffffff1673ffffffffffffffffffffffffffffffffffffffff16635c06b5e3600760009054906101000a900473ffffffffffffffffffffffffffffffffffffffff1661212c600f548661315f90919063ffffffff16565b6040518363ffffffff167c0100000000000000000000000000000000000000000000000000000000028152600401808373ffffffffffffffffffffffffffffffffffffffff1673ffffffffffffffffffffffffffffffffffffffff16815260200182815260200192505050600060405180830381600087803b1580156121b157600080fd5b505af11580156121c5573d6000803e3d6000fd5b50505050600560009054906101000a900473ffffffffffffffffffffffffffffffffffffffff1673ffffffffffffffffffffffffffffffffffffffff166370a08231306040518263ffffffff167c0100000000000000000000000000000000000000000000000000000000028152600401808273ffffffffffffffffffffffffffffffffffffffff1673ffffffffffffffffffffffffffffffffffffffff168152602001915050602060405180830381600087803b15801561228657600080fd5b505af115801561229a573d6000803e3d6000fd5b505050506040513d60208110156122b057600080fd5b81019080805190602001909291905050509050600660009054906101000a900473ffffffffffffffffffffffffffffffffffffffff1673ffffffffffffffffffffffffffffffffffffffff16639b01cd2f600a60009054906101000a900473ffffffffffffffffffffffffffffffffffffffff16600b60009054906101000a900473ffffffffffffffffffffffffffffffffffffffff168989896040518663ffffffff167c0100000000000000000000000000000000000000000000000000000000028152600401808673ffffffffffffffffffffffffffffffffffffffff1673ffffffffffffffffffffffffffffffffffffffff1681526020018573ffffffffffffffffffffffffffffffffffffffff1673ffffffffffffffffffffffffffffffffffffffff1681526020018481526020018373ffffffffffffffffffffffffffffffffffffffff1673ffffffffffffffffffffffffffffffffffffffff16815260200182815260200195505050505050600060405180830381600087803b15801561243c57600080fd5b505af1158015612450573d6000803e3d6000fd5b50505050505050505050565b6000809054906101000a900473ffffffffffffffffffffffffffffffffffffffff1673ffffffffffffffffffffffffffffffffffffffff163373ffffffffffffffffffffffffffffffffffffffff161415156124b757600080fd5b6000809054906101000a900473ffffffffffffffffffffffffffffffffffffffff1673ffffffffffffffffffffffffffffffffffffffff167ff8df31144d9c2f0f6b59d69b8b98abd5459d07f2742c4df920b25aae33c6482060405160405180910390a260008060006101000a81548173ffffffffffffffffffffffffffffffffffffffff021916908373ffffffffffffffffffffffffffffffffffffffff160217905550565b60008060009054906101000a900473ffffffffffffffffffffffffffffffffffffffff1673ffffffffffffffffffffffffffffffffffffffff163373ffffffffffffffffffffffffffffffffffffffff161415156125bb57600080fd5b8273ffffffffffffffffffffffffffffffffffffffff1660405160200180807f7472616e7366657246726f6d28616464726573732c616464726573732c75696e81526020017f743235360000000000000000000000000000000000000000000000000000000081525060240190506040516020818303038152906040526040518082805190602001908083835b60208310151561266d5780518252602082019150602081019050602083039250612648565b6001836020036101000a03801982511681845116808217855250505050505090500191505060405180910390207c010000000000000000000000000000000000000000000000000000000090043330856040518463ffffffff167c0100000000000000000000000000000000000000000000000000000000028152600401808473ffffffffffffffffffffffffffffffffffffffff1673ffffffffffffffffffffffffffffffffffffffff1681526020018373ffffffffffffffffffffffffffffffffffffffff1673ffffffffffffffffffffffffffffffffffffffff16815260200182815260200193505050506000604051808303816000875af192505050151561277857600080fd5b816003600086815260200190815260200160002060008573ffffffffffffffffffffffffffffffffffffffff1673ffffffffffffffffffffffffffffffffffffffff168152602001908152602001600020600082825401925050819055506127e284846001613211565b600190509392505050565b6000809054906101000a900473ffffffffffffffffffffffffffffffffffffffff1681565b6000806000809054906101000a900473ffffffffffffffffffffffffffffffffffffffff1673ffffffffffffffffffffffffffffffffffffffff163373ffffffffffffffffffffffffffffffffffffffff1614151561287057600080fd5b8383604051602001808373ffffffffffffffffffffffffffffffffffffffff1673ffffffffffffffffffffffffffffffffffffffff166c01000000000000000000000000028152601401828152602001925050506040516020818303038152906040526040518082805190602001908083835b60208310151561290857805182526020820191506020810190506020830392506128e3565b6001836020036101000a038019825116818451168082178552505050505050905001915050604051809103902060019004905060016003600087815260200190815260200160002060008373ffffffffffffffffffffffffffffffffffffffff1673ffffffffffffffffffffffffffffffffffffffff1681526020019081526020016000205414151561299a57600080fd5b8373ffffffffffffffffffffffffffffffffffffffff1660405160200180807f7472616e7366657228616464726573732c75696e74323536290000000000000081525060190190506040516020818303038152906040526040518082805190602001908083835b602083101515612a265780518252602082019150602081019050602083039250612a01565b6001836020036101000a03801982511681845116808217855250505050505090500191505060405180910390207c0100000000000000000000000000000000000000000000000000000000900487856040518363ffffffff167c0100000000000000000000000000000000000000000000000000000000028152600401808373ffffffffffffffffffffffffffffffffffffffff1673ffffffffffffffffffffffffffffffffffffffff168152602001828152602001925050506000604051808303816000875af1925050501515612afd57600080fd5b60006003600087815260200190815260200160002060008373ffffffffffffffffffffffffffffffffffffffff1673ffffffffffffffffffffffffffffffffffffffff168152602001908152602001600020819055506001915050949350505050565b6000612b6a613454565b6000809054906101000a900473ffffffffffffffffffffffffffffffffffffffff1673ffffffffffffffffffffffffffffffffffffffff163373ffffffffffffffffffffffffffffffffffffffff16141515612bc557600080fd5b426002546001540111151515612bda57600080fd5b600091505b600480549050821015612ea057600482815481101515612bfb57fe5b906000526020600020906002020160606040519081016040529081600082015481526020016001820160009054906101000a900473ffffffffffffffffffffffffffffffffffffffff1673ffffffffffffffffffffffffffffffffffffffff1673ffffffffffffffffffffffffffffffffffffffff1681526020016001820160149054906101000a900460ff166003811115612c9357fe5b6003811115612c9e57fe5b81525050905060016003811115612cb157fe5b81604001516003811115612cc157fe5b148015612d265750600160036000836000015181526020019081526020016000206000836020015173ffffffffffffffffffffffffffffffffffffffff1673ffffffffffffffffffffffffffffffffffffffff16815260200190815260200160002054145b15612d9d57612d97838260000151836020015160036000866000015181526020019081526020016000206000866020015173ffffffffffffffffffffffffffffffffffffffff1673ffffffffffffffffffffffffffffffffffffffff16815260200190815260200160002054612812565b50612e93565b60006003811115612daa57fe5b81604001516003811115612dba57fe5b148015612e1f5750600060036000836000015181526020019081526020016000206000836020015173ffffffffffffffffffffffffffffffffffffffff1673ffffffffffffffffffffffffffffffffffffffff16815260200190815260200160002054115b15612e9257612e90838260000151836020015160036000866000015181526020019081526020016000206000866020015173ffffffffffffffffffffffffffffffffffffffff1673ffffffffffffffffffffffffffffffffffffffff16815260200190815260200160002054612812565b505b5b8180600101925050612bdf565b600560009054906101000a900473ffffffffffffffffffffffffffffffffffffffff1673ffffffffffffffffffffffffffffffffffffffff1663a9059cbb6000809054906101000a900473ffffffffffffffffffffffffffffffffffffffff16600560009054906101000a900473ffffffffffffffffffffffffffffffffffffffff1673ffffffffffffffffffffffffffffffffffffffff166370a08231306040518263ffffffff167c0100000000000000000000000000000000000000000000000000000000028152600401808273ffffffffffffffffffffffffffffffffffffffff1673ffffffffffffffffffffffffffffffffffffffff168152602001915050602060405180830381600087803b158015612fbd57600080fd5b505af1158015612fd1573d6000803e3d6000fd5b505050506040513d6020811015612fe757600080fd5b81019080805190602001909291905050506040518363ffffffff167c0100000000000000000000000000000000000000000000000000000000028152600401808373ffffffffffffffffffffffffffffffffffffffff1673ffffffffffffffffffffffffffffffffffffffff16815260200182815260200192505050602060405180830381600087803b15801561307d57600080fd5b505af1158015613091573d6000803e3d6000fd5b505050506040513d60208110156130a757600080fd5b8101908080519060200190929190505050503073ffffffffffffffffffffffffffffffffffffffff16ff5b6000809054906101000a900473ffffffffffffffffffffffffffffffffffffffff1673ffffffffffffffffffffffffffffffffffffffff163373ffffffffffffffffffffffffffffffffffffffff1614151561312d57600080fd5b6131368161335a565b50565b600560009054906101000a900473ffffffffffffffffffffffffffffffffffffffff1681565b6000808314156131725760009050613191565b818302905081838281151561318357fe5b0414151561318d57fe5b8090505b92915050565b6000806000600e5411156131d7576131cd60646131bf600e548661315f90919063ffffffff16565b6131e290919063ffffffff16565b90508091506131dc565b600091505b50919050565b600081838115156131ef57fe5b04905092915050565b600082821115151561320657fe5b818303905092915050565b600080600090505b600480549050811015613264578460048281548110151561323657fe5b90600052602060002090600202016000015414156132575760019150613264565b8080600101915050613219565b8115156133535760046060604051908101604052808781526020018673ffffffffffffffffffffffffffffffffffffffff1681526020018560038111156132a757fe5b815250908060018154018082558091505090600182039060005260206000209060020201600090919290919091506000820151816000015560208201518160010160006101000a81548173ffffffffffffffffffffffffffffffffffffffff021916908373ffffffffffffffffffffffffffffffffffffffff16021790555060408201518160010160146101000a81548160ff0219169083600381111561334a57fe5b02179055505050505b5050505050565b600073ffffffffffffffffffffffffffffffffffffffff168173ffffffffffffffffffffffffffffffffffffffff161415151561339657600080fd5b8073ffffffffffffffffffffffffffffffffffffffff166000809054906101000a900473ffffffffffffffffffffffffffffffffffffffff1673ffffffffffffffffffffffffffffffffffffffff167f8be0079c531659141344cd1fd0a4f28419497f9722a3daafe3b4186f6b6457e060405160405180910390a3806000806101000a81548173ffffffffffffffffffffffffffffffffffffffff021916908373ffffffffffffffffffffffffffffffffffffffff16021790555050565b60606040519081016040528060008152602001600073ffffffffffffffffffffffffffffffffffffffff1681526020016000600381111561349157fe5b815250905600a165627a7a72305820592dea162ea042398f35f291870bbcf58ce1d8a44b2031a718e9365fbd3e4e3e0029",
  "source": "pragma solidity ^0.4.24;\n\nimport 'openzeppelin-solidity/contracts/math/SafeMath.sol';\n\nimport './TimedComposableAssetFactory.sol';\nimport './TwoKeyWhitelisted.sol';\nimport './TwoKeyCampaign.sol';\nimport './TwoKeyEconomy.sol';\nimport './TwoKeyEventSource.sol';\n\ncontract TwoKeyEscrow is TimedComposableAssetFactory {\n\n    using SafeMath for uint256;\n\n    // emit through it events for backend to listen to\n    TwoKeyEventSource eventSource;\n\n    // influencer from which referral was received\n    address internal from;\n\n    // payout to converter \n    // from which moderator fee and rewards will be paid\n    uint256 internal payout;\n\n    // 2key token \n    TwoKeyEconomy internal economy;\n\n    // campaign generating this escrow\n    TwoKeyCampaign internal campaign;\n\n    address internal buyer;\n    address internal seller;\n    address internal moderator;\n\n    // precentage of moderator fee for escrow from payout \n    uint256 internal escrowPrecentage;\n\n    // rate of conversion from TwoKey to ETH\n    uint256 internal rate;\n\n    // maximum precentage of all rewards out of payout for asset\n    uint256 internal maxPi;\n\n    /*\n     * whitelist of converters. \n     * to actually conclude the escorw positively, \n     * the converter is to be approved first through the moderator\n     */\n    TwoKeyWhitelisted whitelistConverter;\n\n    // is the converter eligible for participation in conversion\n    modifier isWhiteListedConverter() {\n        require(whitelistConverter.isWhitelisted(msg.sender));\n        _;\n    }\n\n    constructor(TwoKeyEventSource _eventSource, address _from, TwoKeyEconomy _economy, uint256 _payout, TwoKeyCampaign _campaign, address _buyer, address _seller, address _moderator, uint256 _escrowPrecentage, uint256 _start, uint256 _duration, TwoKeyWhitelisted _whitelistConverter, uint256 _rate, uint256 _maxPi) TimedComposableAssetFactory(_start, _duration) public {\n        eventSource = _eventSource;\n        from = _from;\n        economy =_economy;\n        campaign = _campaign;\n        buyer = _buyer;\n        seller = _seller;\n        moderator = _moderator;\n        escrowPrecentage = _escrowPrecentage;\n        rate = _rate;\n        maxPi = _maxPi;\n        payout = _payout;\n        whitelistConverter = _whitelistConverter;\n    }\n\n    /**\n     * given the total payout, calculates the moderator fee\n     * @param  _balance total payout for escrow \n     * @return moderator fee\n     */\n    function calculateModeratorFee(uint256 _balance) internal view returns (uint256)  {\n        if (escrowPrecentage > 0) { // send the fee to moderator\n            uint256 fee = _balance.mul(escrowPrecentage).div(100);\n            return fee;\n        }  \n        return 0;      \n    }\n\n    /**\n     * transferNonFungibleChildTwoKeyToken \n     * @param  _tokenID  sku of asset\n     * @param  _childContract erc721 representing the asset class\n     * @param  _childTokenID  unique index of asset\n     * \n     * calculates moderetor fee, pays the moderator, \n     * transfer the asset to the buyer,\n     * computes total reward\n     * transfer payout to buyer, deducting the fee and the total reward\n     * asks the campaign to distribute rewards to influencers\n     */\n    function transferNonFungibleChildTwoKeyToken(\n        uint256 _tokenID,\n        address _childContract,\n        uint256 _childTokenID) onlyOwner isWhiteListedConverter public {\n        require(rate > 0);\n        uint256 fee = calculateModeratorFee(token.balanceOf(this));\n        require(token.transfer(moderator, fee.mul(rate)));\n        require(super.transferNonFungibleChild(buyer, _tokenID, _childContract, _childTokenID));         \n       \n        uint256 maxReward = maxPi.mul(payout).div(100);\n\n        // transfer payout - fee - rewards to seller\n        require(token.transfer(seller, ourBalance.sub(fee).sub(maxReward).mul(rate)));\n \n        // transfer rewards from escrow to influencers\n        campaign.transferRewardsTwoKeyToken(from, maxReward.mul(rate));\n        uint256 ourBalance = token.balanceOf(this);\n        eventSource.fulfilled(campaign, buyer, _tokenID, _childContract, _childTokenID);     \n    }\n\n    /**\n     * transferFungibleChildTwoKeyToken \n     * @param  _tokenID  sku of asset\n     * @param  _childContract erc20 representing the asset class\n     * @param  _amount amount of asset bought\n     * \n     * calculates moderetor fee, pays the moderator, \n     * transfer the asset to the buyer,\n     * computes total reward\n     * transfer payout to buyer, deducting the fee and the total reward\n     * asks the campaign to distribute rewards to influencers\n     */\n    function transferFungibleChildTwoKeyToken(\n        uint256 _tokenID,\n        address _childContract,\n        uint256 _amount) onlyOwner isWhiteListedConverter public { \n        require(rate > 0);   \n        uint256 fee = calculateModeratorFee(token.balanceOf(this));\n        require(token.transferFrom(this, moderator, fee.mul(rate)));\n        require(super.transferFungibleChild(buyer, _tokenID, _childContract, _amount));         \n        \n        uint256 maxReward = maxPi.mul(payout).div(100);\n\n        // transfer payout - fee - rewards to seller\n        require(token.transfer(seller, (payout.sub(fee).sub(maxReward)).mul(rate)));\n        \n        campaign.transferRewardsTwoKeyToken(from, maxReward.mul(rate));\n        eventSource.fulfilled(campaign, buyer, _tokenID, _childContract, _amount);        \n    }\n\n    /**\n     * cancelNonFungibleChildTwoKey \n     * cancels the purchase buy transfering the assets back to the campaign\n     * and refunding the buyer\n     * @param  _tokenID  sku of asset\n     * @param  _childContract erc721 representing the asset class\n     * @param  _childTokenID unique index of asset\n     * \n     */\n    function cancelNonFungibleChildTwoKey(\n        uint256 _tokenID,\n        address _childContract,\n        uint256 _childTokenID) onlyOwner public {\n        require(rate > 0);\n        super.transferNonFungibleChild(campaign, _tokenID, _childContract, _childTokenID);\n        token.transfer(buyer, payout.mul(rate));\n        eventSource.cancelled(campaign, buyer, _tokenID, _childContract, _childTokenID);\n    }\n\n    /**\n     * cancelFungibleChildTwoKey \n     * cancels the purchase buy transfering the assets back to the campaign\n     * and refunding the buyer\n     * @param  _tokenID  sku of asset\n     * @param  _childContract erc20 representing the asset class\n     * @param  _amount amount of asset bought\n     * \n     */\n    function cancelFungibleChildTwoKey(\n        uint256 _tokenID,\n        address _childContract,\n        uint256 _amount) onlyOwner public {\n        require(rate > 0);\n        super.transferFungibleChild(campaign, _tokenID, _childContract, _amount);\n        token.transfer(buyer, payout.mul(rate));\n        eventSource.cancelled(campaign, buyer, _tokenID, _childContract, _amount);\n    }\n\n}",
  "sourcePath": "/Users/aydnep/2key/contracts/contracts/TwoKeyEscrow.sol",
  "compiler": {
    "name": "solc",
    "version": "0.4.24+commit.e67f0147.Emscripten.clang"
  },
  "schemaVersion": "2.0.1",
  "updatedAt": "2018-08-23T05:51:20.600Z"
}