{
  "contractName": "TwoKeyCampaignETHCrowdsale",
  "abi": [
    {
      "constant": true,
      "inputs": [
        {
          "name": "",
          "type": "address"
        }
      ],
      "name": "units",
      "outputs": [
        {
          "name": "",
          "type": "uint256"
        }
      ],
      "payable": false,
      "stateMutability": "view",
      "type": "function"
    },
    {
      "constant": true,
      "inputs": [],
      "name": "name",
      "outputs": [
        {
          "name": "",
          "type": "string"
        }
      ],
      "payable": false,
      "stateMutability": "view",
      "type": "function"
    },
    {
      "constant": false,
      "inputs": [
        {
          "name": "_spender",
          "type": "address"
        },
        {
          "name": "_value",
          "type": "uint256"
        }
      ],
      "name": "approve",
      "outputs": [
        {
          "name": "",
          "type": "bool"
        }
      ],
      "payable": false,
      "stateMutability": "nonpayable",
      "type": "function"
    },
    {
      "constant": false,
      "inputs": [
        {
          "name": "utilsContract",
          "type": "address"
        }
      ],
      "name": "addUtilsContract",
      "outputs": [],
      "payable": false,
      "stateMutability": "nonpayable",
      "type": "function"
    },
    {
      "constant": false,
      "inputs": [
        {
          "name": "_to",
          "type": "address"
        },
        {
          "name": "_value",
          "type": "uint256"
        }
      ],
      "name": "transferQuota",
      "outputs": [
        {
          "name": "",
          "type": "bool"
        }
      ],
      "payable": false,
      "stateMutability": "nonpayable",
      "type": "function"
    },
    {
      "constant": false,
      "inputs": [
        {
          "name": "_tokenID",
          "type": "uint256"
        },
        {
          "name": "_assetContract",
          "type": "address"
        },
        {
          "name": "_amount",
          "type": "uint256"
        }
      ],
      "name": "transferAssetTwoKeyToken",
      "outputs": [],
      "payable": false,
      "stateMutability": "nonpayable",
      "type": "function"
    },
    {
      "constant": true,
      "inputs": [],
      "name": "cost",
      "outputs": [
        {
          "name": "",
          "type": "uint256"
        }
      ],
      "payable": false,
      "stateMutability": "view",
      "type": "function"
    },
    {
      "constant": true,
      "inputs": [],
      "name": "totalSupply",
      "outputs": [
        {
          "name": "",
          "type": "uint256"
        }
      ],
      "payable": false,
      "stateMutability": "view",
      "type": "function"
    },
    {
      "constant": false,
      "inputs": [
        {
          "name": "sig",
          "type": "bytes"
        }
      ],
      "name": "transferSig",
      "outputs": [],
      "payable": false,
      "stateMutability": "nonpayable",
      "type": "function"
    },
    {
      "constant": false,
      "inputs": [
        {
          "name": "_from",
          "type": "address"
        },
        {
          "name": "_to",
          "type": "address"
        },
        {
          "name": "_value",
          "type": "uint256"
        }
      ],
      "name": "transferFrom",
      "outputs": [
        {
          "name": "",
          "type": "bool"
        }
      ],
      "payable": false,
      "stateMutability": "nonpayable",
      "type": "function"
    },
    {
      "constant": true,
      "inputs": [
        {
          "name": "",
          "type": "address"
        }
      ],
      "name": "received_from",
      "outputs": [
        {
          "name": "",
          "type": "address"
        }
      ],
      "payable": false,
      "stateMutability": "view",
      "type": "function"
    },
    {
      "constant": true,
      "inputs": [],
      "name": "decimals",
      "outputs": [
        {
          "name": "",
          "type": "uint8"
        }
      ],
      "payable": false,
      "stateMutability": "view",
      "type": "function"
    },
    {
      "constant": true,
      "inputs": [],
      "name": "getAssetContractAddress",
      "outputs": [
        {
          "name": "",
          "type": "address"
        }
      ],
      "payable": false,
      "stateMutability": "view",
      "type": "function"
    },
    {
      "constant": true,
      "inputs": [
        {
          "name": "",
          "type": "address"
        }
      ],
      "name": "public_link_key",
      "outputs": [
        {
          "name": "",
          "type": "address"
        }
      ],
      "payable": false,
      "stateMutability": "view",
      "type": "function"
    },
    {
      "constant": false,
      "inputs": [
        {
          "name": "_from",
          "type": "address"
        },
        {
          "name": "_to",
          "type": "address"
        },
        {
          "name": "_value",
          "type": "uint256"
        }
      ],
      "name": "transferFromQuota",
      "outputs": [
        {
          "name": "",
          "type": "bool"
        }
      ],
      "payable": false,
      "stateMutability": "nonpayable",
      "type": "function"
    },
    {
      "constant": true,
      "inputs": [],
      "name": "checkInventoryBalance",
      "outputs": [
        {
          "name": "",
          "type": "uint256"
        }
      ],
      "payable": false,
      "stateMutability": "view",
      "type": "function"
    },
    {
      "constant": false,
      "inputs": [
        {
          "name": "_spender",
          "type": "address"
        },
        {
          "name": "_subtractedValue",
          "type": "uint256"
        }
      ],
      "name": "decreaseApproval",
      "outputs": [
        {
          "name": "",
          "type": "bool"
        }
      ],
      "payable": false,
      "stateMutability": "nonpayable",
      "type": "function"
    },
    {
      "constant": false,
      "inputs": [
        {
          "name": "_assetContract",
          "type": "address"
        }
      ],
      "name": "addAssetContractERC20",
      "outputs": [],
      "payable": false,
      "stateMutability": "nonpayable",
      "type": "function"
    },
    {
      "constant": true,
      "inputs": [],
      "name": "getContractBalance",
      "outputs": [
        {
          "name": "",
          "type": "uint256"
        }
      ],
      "payable": false,
      "stateMutability": "view",
      "type": "function"
    },
    {
      "constant": true,
      "inputs": [
        {
          "name": "_owner",
          "type": "address"
        }
      ],
      "name": "balanceOf",
      "outputs": [
        {
          "name": "",
          "type": "uint256"
        }
      ],
      "payable": false,
      "stateMutability": "view",
      "type": "function"
    },
    {
      "constant": false,
      "inputs": [
        {
          "name": "_amount",
          "type": "uint256"
        }
      ],
      "name": "addFungibleAsset",
      "outputs": [
        {
          "name": "",
          "type": "bool"
        }
      ],
      "payable": false,
      "stateMutability": "nonpayable",
      "type": "function"
    },
    {
      "constant": true,
      "inputs": [],
      "name": "ipfs_hash",
      "outputs": [
        {
          "name": "",
          "type": "string"
        }
      ],
      "payable": false,
      "stateMutability": "view",
      "type": "function"
    },
    {
      "constant": true,
      "inputs": [],
      "name": "bounty",
      "outputs": [
        {
          "name": "",
          "type": "uint256"
        }
      ],
      "payable": false,
      "stateMutability": "view",
      "type": "function"
    },
    {
      "constant": true,
      "inputs": [],
      "name": "symbol",
      "outputs": [
        {
          "name": "",
          "type": "string"
        }
      ],
      "payable": false,
      "stateMutability": "view",
      "type": "function"
    },
    {
      "constant": false,
      "inputs": [],
      "name": "buyProduct",
      "outputs": [],
      "payable": true,
      "stateMutability": "payable",
      "type": "function"
    },
    {
      "constant": true,
      "inputs": [
        {
          "name": "",
          "type": "address"
        }
      ],
      "name": "influencer2cut",
      "outputs": [
        {
          "name": "",
          "type": "uint256"
        }
      ],
      "payable": false,
      "stateMutability": "view",
      "type": "function"
    },
    {
      "constant": false,
      "inputs": [
        {
          "name": "_to",
          "type": "address"
        },
        {
          "name": "_value",
          "type": "uint256"
        }
      ],
      "name": "transfer",
      "outputs": [
        {
          "name": "",
          "type": "bool"
        }
      ],
      "payable": false,
      "stateMutability": "nonpayable",
      "type": "function"
    },
    {
      "constant": true,
      "inputs": [
        {
          "name": "_from",
          "type": "address"
        }
      ],
      "name": "checkAmountAddressSent",
      "outputs": [
        {
          "name": "",
          "type": "uint256"
        }
      ],
      "payable": false,
      "stateMutability": "view",
      "type": "function"
    },
    {
      "constant": false,
      "inputs": [
        {
          "name": "_converter",
          "type": "address"
        },
        {
          "name": "_assetContract",
          "type": "address"
        },
        {
          "name": "_amount",
          "type": "uint256"
        }
      ],
      "name": "expireEscrow",
      "outputs": [
        {
          "name": "",
          "type": "bool"
        }
      ],
      "payable": false,
      "stateMutability": "nonpayable",
      "type": "function"
    },
    {
      "constant": false,
      "inputs": [
        {
          "name": "_amount",
          "type": "uint256"
        }
      ],
      "name": "redeemTwoKeyToken",
      "outputs": [],
      "payable": false,
      "stateMutability": "nonpayable",
      "type": "function"
    },
    {
      "constant": true,
      "inputs": [],
      "name": "quota",
      "outputs": [
        {
          "name": "",
          "type": "uint256"
        }
      ],
      "payable": false,
      "stateMutability": "view",
      "type": "function"
    },
    {
      "constant": false,
      "inputs": [
        {
          "name": "_public_link_key",
          "type": "address"
        }
      ],
      "name": "setPublicLinkKey",
      "outputs": [],
      "payable": false,
      "stateMutability": "nonpayable",
      "type": "function"
    },
    {
      "constant": false,
      "inputs": [],
      "name": "checkAndUpdateInventoryBalance",
      "outputs": [
        {
          "name": "",
          "type": "uint256"
        }
      ],
      "payable": false,
      "stateMutability": "nonpayable",
      "type": "function"
    },
    {
      "constant": false,
      "inputs": [
        {
          "name": "_spender",
          "type": "address"
        },
        {
          "name": "_addedValue",
          "type": "uint256"
        }
      ],
      "name": "increaseApproval",
      "outputs": [
        {
          "name": "",
          "type": "bool"
        }
      ],
      "payable": false,
      "stateMutability": "nonpayable",
      "type": "function"
    },
    {
      "constant": true,
      "inputs": [
        {
          "name": "last_influencer",
          "type": "address"
        }
      ],
      "name": "getCuts",
      "outputs": [
        {
          "name": "",
          "type": "uint256[]"
        }
      ],
      "payable": false,
      "stateMutability": "view",
      "type": "function"
    },
    {
      "constant": false,
      "inputs": [
        {
          "name": "_from",
          "type": "address"
        },
        {
          "name": "_assetName",
          "type": "string"
        },
        {
          "name": "_assetContract",
          "type": "address"
        },
        {
          "name": "_amount",
          "type": "uint256"
        }
      ],
      "name": "buyFromWithTwoKey",
      "outputs": [],
      "payable": true,
      "stateMutability": "payable",
      "type": "function"
    },
    {
      "constant": true,
      "inputs": [
        {
          "name": "_owner",
          "type": "address"
        },
        {
          "name": "_spender",
          "type": "address"
        }
      ],
      "name": "allowance",
      "outputs": [
        {
          "name": "",
          "type": "uint256"
        }
      ],
      "payable": false,
      "stateMutability": "view",
      "type": "function"
    },
    {
      "constant": false,
      "inputs": [
        {
          "name": "_units",
          "type": "uint256"
        },
        {
          "name": "_bounty",
          "type": "uint256"
        }
      ],
      "name": "updateRefchainRewardsAndConverterProceeds",
      "outputs": [],
      "payable": true,
      "stateMutability": "payable",
      "type": "function"
    },
    {
      "constant": true,
      "inputs": [
        {
          "name": "",
          "type": "address"
        }
      ],
      "name": "conversions",
      "outputs": [
        {
          "name": "from",
          "type": "address"
        },
        {
          "name": "payout",
          "type": "uint256"
        },
        {
          "name": "converter",
          "type": "address"
        },
        {
          "name": "isFulfilled",
          "type": "bool"
        },
        {
          "name": "isCancelled",
          "type": "bool"
        },
        {
          "name": "assetName",
          "type": "string"
        },
        {
          "name": "assetContract",
          "type": "address"
        },
        {
          "name": "amount",
          "type": "uint256"
        },
        {
          "name": "campaignType",
          "type": "uint8"
        },
        {
          "name": "openingTime",
          "type": "uint256"
        },
        {
          "name": "closingTime",
          "type": "uint256"
        }
      ],
      "payable": false,
      "stateMutability": "view",
      "type": "function"
    },
    {
      "constant": false,
      "inputs": [
        {
          "name": "_converter",
          "type": "address"
        },
        {
          "name": "_assetName",
          "type": "string"
        },
        {
          "name": "_assetContract",
          "type": "address"
        },
        {
          "name": "_amount",
          "type": "uint256"
        }
      ],
      "name": "cancelAssetTwoKey",
      "outputs": [
        {
          "name": "",
          "type": "bool"
        }
      ],
      "payable": false,
      "stateMutability": "nonpayable",
      "type": "function"
    },
    {
      "inputs": [
        {
          "name": "_eventSource",
          "type": "address"
        },
        {
          "name": "_economy",
          "type": "address"
        },
        {
          "name": "_whitelistInfluencer",
          "type": "address"
        },
        {
          "name": "_whitelistConverter",
          "type": "address"
        },
        {
          "name": "_contractor",
          "type": "address"
        },
        {
          "name": "_moderator",
          "type": "address"
        },
        {
          "name": "_start",
          "type": "uint256"
        },
        {
          "name": "_duration",
          "type": "uint256"
        },
        {
          "name": "_expiryConversion",
          "type": "uint256"
        },
        {
          "name": "_escrowPrecentage",
          "type": "uint256"
        },
        {
          "name": "_rate",
          "type": "uint256"
        },
        {
          "name": "_maxPi",
          "type": "uint256"
        }
      ],
      "payable": false,
      "stateMutability": "nonpayable",
      "type": "constructor"
    },
    {
      "payable": true,
      "stateMutability": "payable",
      "type": "fallback"
    },
    {
      "anonymous": false,
      "inputs": [
        {
          "indexed": true,
          "name": "to",
          "type": "address"
        },
        {
          "indexed": false,
          "name": "units",
          "type": "uint256"
        }
      ],
      "name": "Fulfilled",
      "type": "event"
    },
    {
      "anonymous": false,
      "inputs": [
        {
          "indexed": true,
          "name": "to",
          "type": "address"
        },
        {
          "indexed": false,
          "name": "amount",
          "type": "uint256"
        }
      ],
      "name": "Rewarded",
      "type": "event"
    },
    {
      "anonymous": false,
      "inputs": [
        {
          "indexed": true,
          "name": "_contract",
          "type": "address"
        }
      ],
      "name": "Expired",
      "type": "event"
    },
    {
      "anonymous": false,
      "inputs": [
        {
          "indexed": false,
          "name": "_sender",
          "type": "address"
        },
        {
          "indexed": false,
          "name": "value",
          "type": "uint256"
        }
      ],
      "name": "ReceivedEther",
      "type": "event"
    },
    {
      "anonymous": false,
      "inputs": [
        {
          "indexed": true,
          "name": "owner",
          "type": "address"
        },
        {
          "indexed": true,
          "name": "spender",
          "type": "address"
        },
        {
          "indexed": false,
          "name": "value",
          "type": "uint256"
        }
      ],
      "name": "Approval",
      "type": "event"
    },
    {
      "anonymous": false,
      "inputs": [
        {
          "indexed": true,
          "name": "from",
          "type": "address"
        },
        {
          "indexed": true,
          "name": "to",
          "type": "address"
        },
        {
          "indexed": false,
          "name": "value",
          "type": "uint256"
        }
      ],
      "name": "Transfer",
      "type": "event"
    }
  ],
  "bytecode": "0x6080604052620f42406003556000600d60006101000a81548160ff021916908360ff1602179055503480156200003457600080fd5b50604051610180806200650b8339810180604052810190808051906020019092919080519060200190929190805190602001909291908051906020019092919080519060200190929190805190602001909291908051906020019092919080519060200190929190805190602001909291908051906020019092919080519060200190929190805190602001909291905050508b8b8b8b8b8b8b8b8b8b8b8b8b88600073ffffffffffffffffffffffffffffffffffffffff168273ffffffffffffffffffffffffffffffffffffffff16141515156200011257600080fd5b80600760006101000a81548173ffffffffffffffffffffffffffffffffffffffff021916908373ffffffffffffffffffffffffffffffffffffffff16021790555081600660006101000a81548173ffffffffffffffffffffffffffffffffffffffff021916908373ffffffffffffffffffffffffffffffffffffffff1602179055505050600073ffffffffffffffffffffffffffffffffffffffff168b73ffffffffffffffffffffffffffffffffffffffff1614151515620001d357600080fd5b600073ffffffffffffffffffffffffffffffffffffffff168a73ffffffffffffffffffffffffffffffffffffffff16141515156200021057600080fd5b600073ffffffffffffffffffffffffffffffffffffffff168973ffffffffffffffffffffffffffffffffffffffff16141515156200024d57600080fd5b6000821115156200025d57600080fd5b6000811115156200026d57600080fd5b8a601a60006101000a81548173ffffffffffffffffffffffffffffffffffffffff021916908373ffffffffffffffffffffffffffffffffffffffff16021790555089601b60006101000a81548173ffffffffffffffffffffffffffffffffffffffff021916908373ffffffffffffffffffffffffffffffffffffffff16021790555088601c60006101000a81548173ffffffffffffffffffffffffffffffffffffffff021916908373ffffffffffffffffffffffffffffffffffffffff16021790555086602260006101000a81548173ffffffffffffffffffffffffffffffffffffffff021916908373ffffffffffffffffffffffffffffffffffffffff1602179055508560208190555084602181905550836023819055508260248190555080602581905550600660009054906101000a900473ffffffffffffffffffffffffffffffffffffffff1673ffffffffffffffffffffffffffffffffffffffff16631d18658430600760009054906101000a900473ffffffffffffffffffffffffffffffffffffffff166040518363ffffffff167c0100000000000000000000000000000000000000000000000000000000028152600401808373ffffffffffffffffffffffffffffffffffffffff1673ffffffffffffffffffffffffffffffffffffffff1681526020018273ffffffffffffffffffffffffffffffffffffffff1673ffffffffffffffffffffffffffffffffffffffff16815260200192505050600060405180830381600087803b158015620004a857600080fd5b505af1158015620004bd573d6000803e3d6000fd5b5050505050505050505050505050505050505050505050505050505061602280620004e96000396000f3006080604052600436106101ed576000357c0100000000000000000000000000000000000000000000000000000000900463ffffffff168062eba350146102b657806306fdde031461030d578063095ea7b31461039d5780630fa953d71461040257806311abc0ca1461044557806312d0ba91146104aa57806313faede61461050157806318160ddd1461052c5780631b781a8b1461055757806323b872dd146105c05780632d376e9414610645578063313ce567146106c857806332c9b183146106f9578063383d0d0614610750578063442e97dd146107d35780634d77c9c81461085857806366188463146108835780636959f83e146108e85780636f9fb98a1461092b57806370a0823114610956578063714cf66b146109ad578063809051db146109f2578063943dfef114610a8257806395d89b4114610aad5780639ada9b7b14610b3d5780639dc464ae14610b47578063a9059cbb14610b9e578063b22e8eb614610c03578063c15efea314610c5a578063cacb670814610cdf578063cebe09c914610d0c578063d1ec779f14610d37578063d4d2805614610d7a578063d73dd62314610da5578063d851b22914610e0a578063dca6bcdc14610ea2578063dd62ed3e14610f48578063dfa54f6614610fbf578063e59f041214610fe9578063ff3e6f2914611185575b6000341115156101fc57600080fd5b34601460003373ffffffffffffffffffffffffffffffffffffffff1673ffffffffffffffffffffffffffffffffffffffff168152602001908152602001600020600082825401925050819055507fa419615bc8fda4c87663805ee2a3597a6d71c1d476911d9892f340d965bc7bf13334604051808373ffffffffffffffffffffffffffffffffffffffff1673ffffffffffffffffffffffffffffffffffffffff1681526020018281526020019250505060405180910390a1005b3480156102c257600080fd5b506102f7600480360381019080803573ffffffffffffffffffffffffffffffffffffffff169060200190929190505050611250565b6040518082815260200191505060405180910390f35b34801561031957600080fd5b50610322611268565b6040518080602001828103825283818151815260200191508051906020019080838360005b83811015610362578082015181840152602081019050610347565b50505050905090810190601f16801561038f5780820380516001836020036101000a031916815260200191505b509250505060405180910390f35b3480156103a957600080fd5b506103e8600480360381019080803573ffffffffffffffffffffffffffffffffffffffff16906020019092919080359060200190929190505050611306565b604051808215151515815260200191505060405180910390f35b34801561040e57600080fd5b50610443600480360381019080803573ffffffffffffffffffffffffffffffffffffffff1690602001909291905050506113f8565b005b34801561045157600080fd5b50610490600480360381019080803573ffffffffffffffffffffffffffffffffffffffff1690602001909291908035906020019092919050505061143c565b604051808215151515815260200191505060405180910390f35b3480156104b657600080fd5b506104ff60048036038101908080359060200190929190803573ffffffffffffffffffffffffffffffffffffffff16906020019092919080359060200190929190505050611691565b005b34801561050d57600080fd5b50610516611a5b565b6040518082815260200191505060405180910390f35b34801561053857600080fd5b50610541611a61565b6040518082815260200191505060405180910390f35b34801561056357600080fd5b506105be600480360381019080803590602001908201803590602001908080601f0160208091040260200160405190810160405280939291908181526020018383808284378201915050505050509192919290505050611a6b565b005b3480156105cc57600080fd5b5061062b600480360381019080803573ffffffffffffffffffffffffffffffffffffffff169060200190929190803573ffffffffffffffffffffffffffffffffffffffff16906020019092919080359060200190929190505050612099565b604051808215151515815260200191505060405180910390f35b34801561065157600080fd5b50610686600480360381019080803573ffffffffffffffffffffffffffffffffffffffff16906020019092919050505061243b565b604051808273ffffffffffffffffffffffffffffffffffffffff1673ffffffffffffffffffffffffffffffffffffffff16815260200191505060405180910390f35b3480156106d457600080fd5b506106dd61246e565b604051808260ff1660ff16815260200191505060405180910390f35b34801561070557600080fd5b5061070e612481565b604051808273ffffffffffffffffffffffffffffffffffffffff1673ffffffffffffffffffffffffffffffffffffffff16815260200191505060405180910390f35b34801561075c57600080fd5b50610791600480360381019080803573ffffffffffffffffffffffffffffffffffffffff1690602001909291905050506124ab565b604051808273ffffffffffffffffffffffffffffffffffffffff1673ffffffffffffffffffffffffffffffffffffffff16815260200191505060405180910390f35b3480156107df57600080fd5b5061083e600480360381019080803573ffffffffffffffffffffffffffffffffffffffff169060200190929190803573ffffffffffffffffffffffffffffffffffffffff169060200190929190803590602001909291905050506124de565b604051808215151515815260200191505060405180910390f35b34801561086457600080fd5b5061086d6128ce565b6040518082815260200191505060405180910390f35b34801561088f57600080fd5b506108ce600480360381019080803573ffffffffffffffffffffffffffffffffffffffff16906020019092919080359060200190929190505050612a4b565b604051808215151515815260200191505060405180910390f35b3480156108f457600080fd5b50610929600480360381019080803573ffffffffffffffffffffffffffffffffffffffff169060200190929190505050612cdd565b005b34801561093757600080fd5b50610940612d21565b6040518082815260200191505060405180910390f35b34801561096257600080fd5b50610997600480360381019080803573ffffffffffffffffffffffffffffffffffffffff169060200190929190505050612d2b565b6040518082815260200191505060405180910390f35b3480156109b957600080fd5b506109d860048036038101908080359060200190929190505050612d73565b604051808215151515815260200191505060405180910390f35b3480156109fe57600080fd5b50610a07612f01565b6040518080602001828103825283818151815260200191508051906020019080838360005b83811015610a47578082015181840152602081019050610a2c565b50505050905090810190601f168015610a745780820380516001836020036101000a031916815260200191505b509250505060405180910390f35b348015610a8e57600080fd5b50610a97612f9f565b6040518082815260200191505060405180910390f35b348015610ab957600080fd5b50610ac2612fa5565b6040518080602001828103825283818151815260200191508051906020019080838360005b83811015610b02578082015181840152602081019050610ae7565b50505050905090810190601f168015610b2f5780820380516001836020036101000a031916815260200191505b509250505060405180910390f35b610b45613043565b005b348015610b5357600080fd5b50610b88600480360381019080803573ffffffffffffffffffffffffffffffffffffffff1690602001909291905050506131d1565b6040518082815260200191505060405180910390f35b348015610baa57600080fd5b50610be9600480360381019080803573ffffffffffffffffffffffffffffffffffffffff169060200190929190803590602001909291905050506131e9565b604051808215151515815260200191505060405180910390f35b348015610c0f57600080fd5b50610c44600480360381019080803573ffffffffffffffffffffffffffffffffffffffff1690602001909291905050506134cb565b6040518082815260200191505060405180910390f35b348015610c6657600080fd5b50610cc5600480360381019080803573ffffffffffffffffffffffffffffffffffffffff169060200190929190803573ffffffffffffffffffffffffffffffffffffffff16906020019092919080359060200190929190505050613514565b604051808215151515815260200191505060405180910390f35b348015610ceb57600080fd5b50610d0a60048036038101908080359060200190929190505050613827565b005b348015610d1857600080fd5b50610d21613a4e565b6040518082815260200191505060405180910390f35b348015610d4357600080fd5b50610d78600480360381019080803573ffffffffffffffffffffffffffffffffffffffff169060200190929190505050613a54565b005b348015610d8657600080fd5b50610d8f613b86565b6040518082815260200191505060405180910390f35b348015610db157600080fd5b50610df0600480360381019080803573ffffffffffffffffffffffffffffffffffffffff16906020019092919080359060200190929190505050613ba1565b604051808215151515815260200191505060405180910390f35b348015610e1657600080fd5b50610e4b600480360381019080803573ffffffffffffffffffffffffffffffffffffffff169060200190929190505050613d9d565b6040518080602001828103825283818151815260200191508051906020019060200280838360005b83811015610e8e578082015181840152602081019050610e73565b505050509050019250505060405180910390f35b610f46600480360381019080803573ffffffffffffffffffffffffffffffffffffffff169060200190929190803590602001908201803590602001908080601f0160208091040260200160405190810160405280939291908181526020018383808284378201915050505050509192919290803573ffffffffffffffffffffffffffffffffffffffff16906020019092919080359060200190929190505050613ee0565b005b348015610f5457600080fd5b50610fa9600480360381019080803573ffffffffffffffffffffffffffffffffffffffff169060200190929190803573ffffffffffffffffffffffffffffffffffffffff169060200190929190505050613ef2565b6040518082815260200191505060405180910390f35b610fe76004803603810190808035906020019092919080359060200190929190505050613f79565b005b348015610ff557600080fd5b5061102a600480360381019080803573ffffffffffffffffffffffffffffffffffffffff169060200190929190505050614340565b604051808c73ffffffffffffffffffffffffffffffffffffffff1673ffffffffffffffffffffffffffffffffffffffff1681526020018b81526020018a73ffffffffffffffffffffffffffffffffffffffff1673ffffffffffffffffffffffffffffffffffffffff1681526020018915151515815260200188151515158152602001806020018773ffffffffffffffffffffffffffffffffffffffff1673ffffffffffffffffffffffffffffffffffffffff1681526020018681526020018560078111156110f457fe5b60ff168152602001848152602001838152602001828103825288818151815260200191508051906020019080838360005b83811015611140578082015181840152602081019050611125565b50505050905090810190601f16801561116d5780820380516001836020036101000a031916815260200191505b509c5050505050505050505050505060405180910390f35b34801561119157600080fd5b50611236600480360381019080803573ffffffffffffffffffffffffffffffffffffffff169060200190929190803590602001908201803590602001908080601f0160208091040260200160405190810160405280939291908181526020018383808284378201915050505050509192919290803573ffffffffffffffffffffffffffffffffffffffff169060200190929190803590602001909291905050506144b9565b604051808215151515815260200191505060405180910390f35b60156020528060005260406000206000915090505481565b600a8054600181600116156101000203166002900480601f0160208091040260200160405190810160405280929190818152602001828054600181600116156101000203166002900480156112fe5780601f106112d3576101008083540402835291602001916112fe565b820191906000526020600020905b8154815290600101906020018083116112e157829003601f168201915b505050505081565b600081600260003373ffffffffffffffffffffffffffffffffffffffff1673ffffffffffffffffffffffffffffffffffffffff16815260200190815260200160002060008573ffffffffffffffffffffffffffffffffffffffff1673ffffffffffffffffffffffffffffffffffffffff168152602001908152602001600020819055508273ffffffffffffffffffffffffffffffffffffffff163373ffffffffffffffffffffffffffffffffffffffff167f8c5be1e5ebec7d5bd14f71427d1e84f3dd0314c0f7b2291e5b200ac8c7c3b925846040518082815260200191505060405180910390a36001905092915050565b80601d60006101000a81548173ffffffffffffffffffffffffffffffffffffffff021916908373ffffffffffffffffffffffffffffffffffffffff16021790555050565b60008073ffffffffffffffffffffffffffffffffffffffff168373ffffffffffffffffffffffffffffffffffffffff161415151561147957600080fd5b6000803373ffffffffffffffffffffffffffffffffffffffff1673ffffffffffffffffffffffffffffffffffffffff1681526020019081526020016000205482111515156114c657600080fd5b611517826000803373ffffffffffffffffffffffffffffffffffffffff1673ffffffffffffffffffffffffffffffffffffffff1681526020019081526020016000205461494090919063ffffffff16565b6000803373ffffffffffffffffffffffffffffffffffffffff1673ffffffffffffffffffffffffffffffffffffffff168152602001908152602001600020819055506115ae60085483026000808673ffffffffffffffffffffffffffffffffffffffff1673ffffffffffffffffffffffffffffffffffffffff1681526020019081526020016000205461495990919063ffffffff16565b6000808573ffffffffffffffffffffffffffffffffffffffff1673ffffffffffffffffffffffffffffffffffffffff1681526020019081526020016000208190555061161c61160b6001600854038461497590919063ffffffff16565b60035461495990919063ffffffff16565b6003819055508273ffffffffffffffffffffffffffffffffffffffff163373ffffffffffffffffffffffffffffffffffffffff167fddf252ad1be2c89b69c2b068fc378daa952ba7f163c4a11628f55a4df523b3ef846040518082815260200191505060405180910390a36001905092915050565b601c60009054906101000a900473ffffffffffffffffffffffffffffffffffffffff1673ffffffffffffffffffffffffffffffffffffffff16633af32abf336040518263ffffffff167c0100000000000000000000000000000000000000000000000000000000028152600401808273ffffffffffffffffffffffffffffffffffffffff1673ffffffffffffffffffffffffffffffffffffffff168152602001915050602060405180830381600087803b15801561174e57600080fd5b505af1158015611762573d6000803e3d6000fd5b505050506040513d602081101561177857600080fd5b8101908080519060200190929190505050151561179457600080fd5b61179c615ea5565b601260003373ffffffffffffffffffffffffffffffffffffffff1673ffffffffffffffffffffffffffffffffffffffff16815260200190815260200160002061016060405190810160405290816000820160009054906101000a900473ffffffffffffffffffffffffffffffffffffffff1673ffffffffffffffffffffffffffffffffffffffff1673ffffffffffffffffffffffffffffffffffffffff168152602001600182015481526020016002820160009054906101000a900473ffffffffffffffffffffffffffffffffffffffff1673ffffffffffffffffffffffffffffffffffffffff1673ffffffffffffffffffffffffffffffffffffffff1681526020016002820160149054906101000a900460ff161515151581526020016002820160159054906101000a900460ff16151515158152602001600382018054600181600116156101000203166002900480601f01602080910402602001604051908101604052809291908181526020018280546001816001161561010002031660029004801561196d5780601f106119425761010080835404028352916020019161196d565b820191906000526020600020905b81548152906001019060200180831161195057829003601f168201915b505050505081526020016004820160009054906101000a900473ffffffffffffffffffffffffffffffffffffffff1673ffffffffffffffffffffffffffffffffffffffff1673ffffffffffffffffffffffffffffffffffffffff168152602001600582015481526020016006820160009054906101000a900460ff1660078111156119f457fe5b60078111156119ff57fe5b81526020016007820154815260200160088201548152505090508060600151158015611a2d57508060800151155b1515611a3857600080fd5b611a406149ad565b611a4a338361512a565b1515611a5557600080fd5b50505050565b600e5481565b6000600154905090565b6000806000806000806000806000806000809a508b5160148c01111515611a995760148b019a508a8c015199505b602660008b73ffffffffffffffffffffffffffffffffffffffff1673ffffffffffffffffffffffffffffffffffffffff16815260200190815260200160002060009054906101000a900473ffffffffffffffffffffffffffffffffffffffff169850600073ffffffffffffffffffffffffffffffffffffffff168973ffffffffffffffffffffffffffffffffffffffff1614151515611b3757600080fd5b5b8b5160418c0111151561208b5760208b019a508a8c0151975060208b019a508a8c0151965060018b019a508a8c015195508b5160298c011015611dc75760018b019a508a8c0151915060008260ff16111515611b9357600080fd5b60148b019a508a8c0151925060148b019a508a8c015193506000601360008573ffffffffffffffffffffffffffffffffffffffff1673ffffffffffffffffffffffffffffffffffffffff168152602001908152602001600020541415611c3f578160ff16601360008573ffffffffffffffffffffffffffffffffffffffff1673ffffffffffffffffffffffffffffffffffffffff16815260200190815260200160002081905550611c90565b8160ff16601360008573ffffffffffffffffffffffffffffffffffffffff1673ffffffffffffffffffffffffffffffffffffffff16815260200190815260200160002054141515611c8f57600080fd5b5b818484604051602001808460ff1660ff167f01000000000000000000000000000000000000000000000000000000000000000281526001018373ffffffffffffffffffffffffffffffffffffffff1673ffffffffffffffffffffffffffffffffffffffff166c010000000000000000000000000281526014018273ffffffffffffffffffffffffffffffffffffffff1673ffffffffffffffffffffffffffffffffffffffff166c0100000000000000000000000002815260140193505050506040516020818303038152906040526040518082805190602001908083835b602083101515611d935780518252602082019150602081019050602083039250611d6e565b6001836020036101000a03801982511681845116808217855250505050505090500191505060405180910390209450611e99565b8b518b141515611dd657600080fd5b33925082604051602001808273ffffffffffffffffffffffffffffffffffffffff1673ffffffffffffffffffffffffffffffffffffffff166c010000000000000000000000000281526014019150506040516020818303038152906040526040518082805190602001908083835b602083101515611e695780518252602082019150602081019050602083039250611e44565b6001836020036101000a038019825116818451168082178552505050505050905001915050604051809103902094505b6000600960008573ffffffffffffffffffffffffffffffffffffffff1673ffffffffffffffffffffffffffffffffffffffff16815260200190815260200160002060009054906101000a900473ffffffffffffffffffffffffffffffffffffffff1673ffffffffffffffffffffffffffffffffffffffff161415611f2957611f238a846001612099565b50611fc3565b8973ffffffffffffffffffffffffffffffffffffffff16600960008573ffffffffffffffffffffffffffffffffffffffff1673ffffffffffffffffffffffffffffffffffffffff16815260200190815260200160002060009054906101000a900473ffffffffffffffffffffffffffffffffffffffff1673ffffffffffffffffffffffffffffffffffffffff16141515611fc257600080fd5b5b600185878a8a604051600081526020016040526040518085600019166000191681526020018460ff1660ff1681526020018360001916600019168152602001826000191660001916815260200194505050505060206040516020810390808403906000865af115801561203a573d6000803e3d6000fd5b5050506020604051035190508873ffffffffffffffffffffffffffffffffffffffff168173ffffffffffffffffffffffffffffffffffffffff1614151561208057600080fd5b839850829950611b38565b505050505050505050505050565b600080600960008573ffffffffffffffffffffffffffffffffffffffff1673ffffffffffffffffffffffffffffffffffffffff16815260200190815260200160002060009054906101000a900473ffffffffffffffffffffffffffffffffffffffff1673ffffffffffffffffffffffffffffffffffffffff1614151561211e57600080fd5b600073ffffffffffffffffffffffffffffffffffffffff168473ffffffffffffffffffffffffffffffffffffffff161415151561215a57600080fd5b6001600260008673ffffffffffffffffffffffffffffffffffffffff1673ffffffffffffffffffffffffffffffffffffffff16815260200190815260200160002060003373ffffffffffffffffffffffffffffffffffffffff1673ffffffffffffffffffffffffffffffffffffffff168152602001908152602001600020819055506121e78484846124de565b1561242f576000600960008573ffffffffffffffffffffffffffffffffffffffff1673ffffffffffffffffffffffffffffffffffffffff16815260200190815260200160002060009054906101000a900473ffffffffffffffffffffffffffffffffffffffff1673ffffffffffffffffffffffffffffffffffffffff1614156123a857600660009054906101000a900473ffffffffffffffffffffffffffffffffffffffff1673ffffffffffffffffffffffffffffffffffffffff16638af1cbb93086866040518463ffffffff167c0100000000000000000000000000000000000000000000000000000000028152600401808473ffffffffffffffffffffffffffffffffffffffff1673ffffffffffffffffffffffffffffffffffffffff1681526020018373ffffffffffffffffffffffffffffffffffffffff1673ffffffffffffffffffffffffffffffffffffffff1681526020018273ffffffffffffffffffffffffffffffffffffffff1673ffffffffffffffffffffffffffffffffffffffff1681526020019350505050600060405180830381600087803b15801561238f57600080fd5b505af11580156123a3573d6000803e3d6000fd5b505050505b83600960008573ffffffffffffffffffffffffffffffffffffffff1673ffffffffffffffffffffffffffffffffffffffff16815260200190815260200160002060006101000a81548173ffffffffffffffffffffffffffffffffffffffff021916908373ffffffffffffffffffffffffffffffffffffffff16021790555060019050612434565b600090505b9392505050565b60096020528060005260406000206000915054906101000a900473ffffffffffffffffffffffffffffffffffffffff1681565b600d60009054906101000a900460ff1681565b6000601760009054906101000a900473ffffffffffffffffffffffffffffffffffffffff16905090565b60266020528060005260406000206000915054906101000a900473ffffffffffffffffffffffffffffffffffffffff1681565b60008073ffffffffffffffffffffffffffffffffffffffff168373ffffffffffffffffffffffffffffffffffffffff161415151561251b57600080fd5b6000808573ffffffffffffffffffffffffffffffffffffffff1673ffffffffffffffffffffffffffffffffffffffff16815260200190815260200160002054821115151561256857600080fd5b600260008573ffffffffffffffffffffffffffffffffffffffff1673ffffffffffffffffffffffffffffffffffffffff16815260200190815260200160002060003373ffffffffffffffffffffffffffffffffffffffff1673ffffffffffffffffffffffffffffffffffffffff1681526020019081526020016000205482111515156125f357600080fd5b612644826000808773ffffffffffffffffffffffffffffffffffffffff1673ffffffffffffffffffffffffffffffffffffffff1681526020019081526020016000205461494090919063ffffffff16565b6000808673ffffffffffffffffffffffffffffffffffffffff1673ffffffffffffffffffffffffffffffffffffffff168152602001908152602001600020819055506126db60085483026000808673ffffffffffffffffffffffffffffffffffffffff1673ffffffffffffffffffffffffffffffffffffffff1681526020019081526020016000205461495990919063ffffffff16565b6000808573ffffffffffffffffffffffffffffffffffffffff1673ffffffffffffffffffffffffffffffffffffffff168152602001908152602001600020819055506127496127386001600854038461497590919063ffffffff16565b60035461495990919063ffffffff16565b6003819055506127de82600260008773ffffffffffffffffffffffffffffffffffffffff1673ffffffffffffffffffffffffffffffffffffffff16815260200190815260200160002060003373ffffffffffffffffffffffffffffffffffffffff1673ffffffffffffffffffffffffffffffffffffffff1681526020019081526020016000205461494090919063ffffffff16565b600260008673ffffffffffffffffffffffffffffffffffffffff1673ffffffffffffffffffffffffffffffffffffffff16815260200190815260200160002060003373ffffffffffffffffffffffffffffffffffffffff1673ffffffffffffffffffffffffffffffffffffffff168152602001908152602001600020819055508273ffffffffffffffffffffffffffffffffffffffff168473ffffffffffffffffffffffffffffffffffffffff167fddf252ad1be2c89b69c2b068fc378daa952ba7f163c4a11628f55a4df523b3ef846040518082815260200191505060405180910390a3600190509392505050565b600080601d60009054906101000a900473ffffffffffffffffffffffffffffffffffffffff1673ffffffffffffffffffffffffffffffffffffffff166314b1adee601760009054906101000a900473ffffffffffffffffffffffffffffffffffffffff163073ffffffffffffffffffffffffffffffffffffffff166040518363ffffffff167c0100000000000000000000000000000000000000000000000000000000028152600401808373ffffffffffffffffffffffffffffffffffffffff1673ffffffffffffffffffffffffffffffffffffffff16815260200180602001838152602001828103825260128152602001807f62616c616e63654f6628616464726573732900000000000000000000000000008152506020019350505050602060405180830381600087803b158015612a0757600080fd5b505af1158015612a1b573d6000803e3d6000fd5b505050506040513d6020811015612a3157600080fd5b810190808051906020019092919050505090508091505090565b600080600260003373ffffffffffffffffffffffffffffffffffffffff1673ffffffffffffffffffffffffffffffffffffffff16815260200190815260200160002060008573ffffffffffffffffffffffffffffffffffffffff1673ffffffffffffffffffffffffffffffffffffffff1681526020019081526020016000205490508083101515612b5d576000600260003373ffffffffffffffffffffffffffffffffffffffff1673ffffffffffffffffffffffffffffffffffffffff16815260200190815260200160002060008673ffffffffffffffffffffffffffffffffffffffff1673ffffffffffffffffffffffffffffffffffffffff16815260200190815260200160002081905550612bf1565b612b70838261494090919063ffffffff16565b600260003373ffffffffffffffffffffffffffffffffffffffff1673ffffffffffffffffffffffffffffffffffffffff16815260200190815260200160002060008673ffffffffffffffffffffffffffffffffffffffff1673ffffffffffffffffffffffffffffffffffffffff168152602001908152602001600020819055505b8373ffffffffffffffffffffffffffffffffffffffff163373ffffffffffffffffffffffffffffffffffffffff167f8c5be1e5ebec7d5bd14f71427d1e84f3dd0314c0f7b2291e5b200ac8c7c3b925600260003373ffffffffffffffffffffffffffffffffffffffff1673ffffffffffffffffffffffffffffffffffffffff16815260200190815260200160002060008873ffffffffffffffffffffffffffffffffffffffff1673ffffffffffffffffffffffffffffffffffffffff168152602001908152602001600020546040518082815260200191505060405180910390a3600191505092915050565b80601760006101000a81548173ffffffffffffffffffffffffffffffffffffffff021916908373ffffffffffffffffffffffffffffffffffffffff16021790555050565b6000601654905090565b60008060008373ffffffffffffffffffffffffffffffffffffffff1673ffffffffffffffffffffffffffffffffffffffff168152602001908152602001600020549050919050565b6000601760009054906101000a900473ffffffffffffffffffffffffffffffffffffffff1673ffffffffffffffffffffffffffffffffffffffff1660405180807f7472616e7366657246726f6d28616464726573732c616464726573732c75696e81526020017f7432353629000000000000000000000000000000000000000000000000000000815250602501905060405180910390207c010000000000000000000000000000000000000000000000000000000090043330856040518463ffffffff167c0100000000000000000000000000000000000000000000000000000000028152600401808473ffffffffffffffffffffffffffffffffffffffff1673ffffffffffffffffffffffffffffffffffffffff1681526020018373ffffffffffffffffffffffffffffffffffffffff1673ffffffffffffffffffffffffffffffffffffffff16815260200182815260200193505050506000604051808303816000875af1925050501515612ee857600080fd5b8160166000828254019250508190555060019050919050565b600b8054600181600116156101000203166002900480601f016020809104026020016040519081016040528092919081815260200182805460018160011615610100020316600290048015612f975780601f10612f6c57610100808354040283529160200191612f97565b820191906000526020600020905b815481529060010190602001808311612f7a57829003601f168201915b505050505081565b600f5481565b600c8054600181600116156101000203166002900480601f01602080910402602001604051908101604052809291908181526020018280546001816001161561010002031660029004801561303b5780601f106130105761010080835404028352916020019161303b565b820191906000526020600020905b81548152906001019060200180831161301e57829003601f168201915b505050505081565b600080601260118190555061307a600e5461306c601154600a0a3461497590919063ffffffff16565b61513e90919063ffffffff16565b91506130a8601154600a0a61309a84600f5461497590919063ffffffff16565b61513e90919063ffffffff16565b90506130b48282613f79565b601760009054906101000a900473ffffffffffffffffffffffffffffffffffffffff1673ffffffffffffffffffffffffffffffffffffffff1660405180807f7472616e7366657228616464726573732c75696e743235362900000000000000815250601901905060405180910390207c0100000000000000000000000000000000000000000000000000000000900433846040518363ffffffff167c0100000000000000000000000000000000000000000000000000000000028152600401808373ffffffffffffffffffffffffffffffffffffffff1673ffffffffffffffffffffffffffffffffffffffff168152602001828152602001925050506000604051808303816000875af19250505015156131cd57600080fd5b5050565b60136020528060005260406000206000915090505481565b600080600960008573ffffffffffffffffffffffffffffffffffffffff1673ffffffffffffffffffffffffffffffffffffffff16815260200190815260200160002060009054906101000a900473ffffffffffffffffffffffffffffffffffffffff1673ffffffffffffffffffffffffffffffffffffffff1614151561326e57600080fd5b613278838361143c565b156134c0576000600960008573ffffffffffffffffffffffffffffffffffffffff1673ffffffffffffffffffffffffffffffffffffffff16815260200190815260200160002060009054906101000a900473ffffffffffffffffffffffffffffffffffffffff1673ffffffffffffffffffffffffffffffffffffffff16141561343957600660009054906101000a900473ffffffffffffffffffffffffffffffffffffffff1673ffffffffffffffffffffffffffffffffffffffff16638af1cbb93033866040518463ffffffff167c0100000000000000000000000000000000000000000000000000000000028152600401808473ffffffffffffffffffffffffffffffffffffffff1673ffffffffffffffffffffffffffffffffffffffff1681526020018373ffffffffffffffffffffffffffffffffffffffff1673ffffffffffffffffffffffffffffffffffffffff1681526020018273ffffffffffffffffffffffffffffffffffffffff1673ffffffffffffffffffffffffffffffffffffffff1681526020019350505050600060405180830381600087803b15801561342057600080fd5b505af1158015613434573d6000803e3d6000fd5b505050505b33600960008573ffffffffffffffffffffffffffffffffffffffff1673ffffffffffffffffffffffffffffffffffffffff16815260200190815260200160002060006101000a81548173ffffffffffffffffffffffffffffffffffffffff021916908373ffffffffffffffffffffffffffffffffffffffff160217905550600190506134c5565b600090505b92915050565b6000601460008373ffffffffffffffffffffffffffffffffffffffff1673ffffffffffffffffffffffffffffffffffffffff168152602001908152602001600020549050919050565b600061351e615ea5565b601260008673ffffffffffffffffffffffffffffffffffffffff1673ffffffffffffffffffffffffffffffffffffffff16815260200190815260200160002061016060405190810160405290816000820160009054906101000a900473ffffffffffffffffffffffffffffffffffffffff1673ffffffffffffffffffffffffffffffffffffffff1673ffffffffffffffffffffffffffffffffffffffff168152602001600182015481526020016002820160009054906101000a900473ffffffffffffffffffffffffffffffffffffffff1673ffffffffffffffffffffffffffffffffffffffff1673ffffffffffffffffffffffffffffffffffffffff1681526020016002820160149054906101000a900460ff161515151581526020016002820160159054906101000a900460ff16151515158152602001600382018054600181600116156101000203166002900480601f0160208091040260200160405190810160405280929190818152602001828054600181600116156101000203166002900480156136ef5780601f106136c4576101008083540402835291602001916136ef565b820191906000526020600020905b8154815290600101906020018083116136d257829003601f168201915b505050505081526020016004820160009054906101000a900473ffffffffffffffffffffffffffffffffffffffff1673ffffffffffffffffffffffffffffffffffffffff1673ffffffffffffffffffffffffffffffffffffffff168152602001600582015481526020016006820160009054906101000a900460ff16600781111561377657fe5b600781111561378157fe5b815260200160078201548152602001600882015481525050905080608001511580156137af57508060600151155b15156137ba57600080fd5b806101400151421115156137cd57600080fd5b6137d8858585615154565b3073ffffffffffffffffffffffffffffffffffffffff167fd5669ebe8b90ed693033f1915dcea031e7a16a6f146a8326c02eec10eed77edd60405160405180910390a260019150509392505050565b80600460003373ffffffffffffffffffffffffffffffffffffffff1673ffffffffffffffffffffffffffffffffffffffff16815260200190815260200160002054101580156138765750600081115b151561388157600080fd5b6138d381600460003373ffffffffffffffffffffffffffffffffffffffff1673ffffffffffffffffffffffffffffffffffffffff1681526020019081526020016000205461494090919063ffffffff16565b600460003373ffffffffffffffffffffffffffffffffffffffff1673ffffffffffffffffffffffffffffffffffffffff16815260200190815260200160002081905550601a60009054906101000a900473ffffffffffffffffffffffffffffffffffffffff1673ffffffffffffffffffffffffffffffffffffffff166323b872dd3033846040518463ffffffff167c0100000000000000000000000000000000000000000000000000000000028152600401808473ffffffffffffffffffffffffffffffffffffffff1673ffffffffffffffffffffffffffffffffffffffff1681526020018373ffffffffffffffffffffffffffffffffffffffff1673ffffffffffffffffffffffffffffffffffffffff1681526020018281526020019350505050602060405180830381600087803b158015613a0f57600080fd5b505af1158015613a23573d6000803e3d6000fd5b505050506040513d6020811015613a3957600080fd5b81019080805190602001909291905050505050565b60105481565b6000613a5f33612d2b565b111515613a6b57600080fd5b600073ffffffffffffffffffffffffffffffffffffffff16602660003373ffffffffffffffffffffffffffffffffffffffff1673ffffffffffffffffffffffffffffffffffffffff16815260200190815260200160002060009054906101000a900473ffffffffffffffffffffffffffffffffffffffff1673ffffffffffffffffffffffffffffffffffffffff16141515613b0557600080fd5b80602660003373ffffffffffffffffffffffffffffffffffffffff1673ffffffffffffffffffffffffffffffffffffffff16815260200190815260200160002060006101000a81548173ffffffffffffffffffffffffffffffffffffffff021916908373ffffffffffffffffffffffffffffffffffffffff16021790555050565b600080613b916128ce565b9050806016819055508091505090565b6000613c3282600260003373ffffffffffffffffffffffffffffffffffffffff1673ffffffffffffffffffffffffffffffffffffffff16815260200190815260200160002060008673ffffffffffffffffffffffffffffffffffffffff1673ffffffffffffffffffffffffffffffffffffffff1681526020019081526020016000205461495990919063ffffffff16565b600260003373ffffffffffffffffffffffffffffffffffffffff1673ffffffffffffffffffffffffffffffffffffffff16815260200190815260200160002060008573ffffffffffffffffffffffffffffffffffffffff1673ffffffffffffffffffffffffffffffffffffffff168152602001908152602001600020819055508273ffffffffffffffffffffffffffffffffffffffff163373ffffffffffffffffffffffffffffffffffffffff167f8c5be1e5ebec7d5bd14f71427d1e84f3dd0314c0f7b2291e5b200ac8c7c3b925600260003373ffffffffffffffffffffffffffffffffffffffff1673ffffffffffffffffffffffffffffffffffffffff16815260200190815260200160002060008773ffffffffffffffffffffffffffffffffffffffff1673ffffffffffffffffffffffffffffffffffffffff168152602001908152602001600020546040518082815260200191505060405180910390a36001905092915050565b6060806060600080613dae866156e6565b93506001845101604051908082528060200260200182016040528015613de35781602001602082028038833980820191505090505b509250600091505b8351821015613e77578382815181101515613e0257fe5b906020019060200201519050601360008273ffffffffffffffffffffffffffffffffffffffff1673ffffffffffffffffffffffffffffffffffffffff168152602001908152602001600020548383815181101515613e5c57fe5b90602001906020020181815250508180600101925050613deb565b601360008773ffffffffffffffffffffffffffffffffffffffff1673ffffffffffffffffffffffffffffffffffffffff16815260200190815260200160002054838551815181101515613ec657fe5b906020019060200201818152505082945050505050919050565b613eec848484846158cb565b50505050565b6000600260008473ffffffffffffffffffffffffffffffffffffffff1673ffffffffffffffffffffffffffffffffffffffff16815260200190815260200160002060008373ffffffffffffffffffffffffffffffffffffffff1673ffffffffffffffffffffffffffffffffffffffff16815260200190815260200160002054905092915050565b600080600060606000806000806000339850613f9489612d2b565b9750600088111515613fa557600080fd5b613fad6128ce565b965060008b111515613fbe57600080fd5b8a8710151515613fcd57600080fd5b613fd6896156e6565b955060009450600093505b85518410156141e4578584815181101515613ff857fe5b9060200190602002015192506001865103841415614018578991506140ca565b601360008473ffffffffffffffffffffffffffffffffffffffff1673ffffffffffffffffffffffffffffffffffffffff16815260200190815260200160002054905060008111801561406b575060658111155b156140b0576140a9606461409b61408c60018561494090919063ffffffff16565b8d61497590919063ffffffff16565b61513e90919063ffffffff16565b91506140c9565b6140c6848751038b61513e90919063ffffffff16565b91505b5b61411c82600560008673ffffffffffffffffffffffffffffffffffffffff1673ffffffffffffffffffffffffffffffffffffffff1681526020019081526020016000205461495990919063ffffffff16565b600560008573ffffffffffffffffffffffffffffffffffffffff1673ffffffffffffffffffffffffffffffffffffffff168152602001908152602001600020819055508273ffffffffffffffffffffffffffffffffffffffff167fb3b7a071186534c03b40695710096f289fd4ed6c1a374aff0bb648955e4fe563836040518082815260200191505060405180910390a26141c0828661495990919063ffffffff16565b94506141d5828b61494090919063ffffffff16565b99508380600101945050613fe1565b61420b856141fd3460195461495990919063ffffffff16565b61494090919063ffffffff16565b6019819055506142638b601560008c73ffffffffffffffffffffffffffffffffffffffff1673ffffffffffffffffffffffffffffffffffffffff1681526020019081526020016000205461495990919063ffffffff16565b601560008b73ffffffffffffffffffffffffffffffffffffffff1673ffffffffffffffffffffffffffffffffffffffff168152602001908152602001600020819055508873ffffffffffffffffffffffffffffffffffffffff167f6f48e292651bd1d141885ed3aa208544a172f61dce0faf20bf98d87e15f558f6601560008c73ffffffffffffffffffffffffffffffffffffffff1673ffffffffffffffffffffffffffffffffffffffff168152602001908152602001600020546040518082815260200191505060405180910390a25050505050505050505050565b60126020528060005260406000206000915090508060000160009054906101000a900473ffffffffffffffffffffffffffffffffffffffff16908060010154908060020160009054906101000a900473ffffffffffffffffffffffffffffffffffffffff16908060020160149054906101000a900460ff16908060020160159054906101000a900460ff1690806003018054600181600116156101000203166002900480601f0160208091040260200160405190810160405280929190818152602001828054600181600116156101000203166002900480156144645780601f1061443957610100808354040283529160200191614464565b820191906000526020600020905b81548152906001019060200180831161444757829003601f168201915b5050505050908060040160009054906101000a900473ffffffffffffffffffffffffffffffffffffffff16908060050154908060060160009054906101000a900460ff1690806007015490806008015490508b565b60006144c3615ea5565b601260008773ffffffffffffffffffffffffffffffffffffffff1673ffffffffffffffffffffffffffffffffffffffff16815260200190815260200160002061016060405190810160405290816000820160009054906101000a900473ffffffffffffffffffffffffffffffffffffffff1673ffffffffffffffffffffffffffffffffffffffff1673ffffffffffffffffffffffffffffffffffffffff168152602001600182015481526020016002820160009054906101000a900473ffffffffffffffffffffffffffffffffffffffff1673ffffffffffffffffffffffffffffffffffffffff1673ffffffffffffffffffffffffffffffffffffffff1681526020016002820160149054906101000a900460ff161515151581526020016002820160159054906101000a900460ff16151515158152602001600382018054600181600116156101000203166002900480601f0160208091040260200160405190810160405280929190818152602001828054600181600116156101000203166002900480156146945780601f1061466957610100808354040283529160200191614694565b820191906000526020600020905b81548152906001019060200180831161467757829003601f168201915b505050505081526020016004820160009054906101000a900473ffffffffffffffffffffffffffffffffffffffff1673ffffffffffffffffffffffffffffffffffffffff1673ffffffffffffffffffffffffffffffffffffffff168152602001600582015481526020016006820160009054906101000a900460ff16600781111561471b57fe5b600781111561472657fe5b8152602001600782015481526020016008820154815250509050806080015115801561475457508060600151155b151561475f57600080fd5b61476a868585615154565b600660009054906101000a900473ffffffffffffffffffffffffffffffffffffffff1673ffffffffffffffffffffffffffffffffffffffff1663078f4ca2308888888860066040518763ffffffff167c0100000000000000000000000000000000000000000000000000000000028152600401808773ffffffffffffffffffffffffffffffffffffffff1673ffffffffffffffffffffffffffffffffffffffff1681526020018673ffffffffffffffffffffffffffffffffffffffff1673ffffffffffffffffffffffffffffffffffffffff168152602001806020018573ffffffffffffffffffffffffffffffffffffffff1673ffffffffffffffffffffffffffffffffffffffff16815260200184815260200183600781111561488a57fe5b60ff168152602001828103825286818151815260200191508051906020019080838360005b838110156148ca5780820151818401526020810190506148af565b50505050905090810190601f1680156148f75780820380516001836020036101000a031916815260200191505b50975050505050505050600060405180830381600087803b15801561491b57600080fd5b505af115801561492f573d6000803e3d6000fd5b505050506001915050949350505050565b600082821115151561494e57fe5b818303905092915050565b6000818301905082811015151561496c57fe5b80905092915050565b60008083141561498857600090506149a7565b818302905081838281151561499957fe5b041415156149a357fe5b8090505b92915050565b6149b5615ea5565b6000806000601260003373ffffffffffffffffffffffffffffffffffffffff1673ffffffffffffffffffffffffffffffffffffffff16815260200190815260200160002061016060405190810160405290816000820160009054906101000a900473ffffffffffffffffffffffffffffffffffffffff1673ffffffffffffffffffffffffffffffffffffffff1673ffffffffffffffffffffffffffffffffffffffff168152602001600182015481526020016002820160009054906101000a900473ffffffffffffffffffffffffffffffffffffffff1673ffffffffffffffffffffffffffffffffffffffff1673ffffffffffffffffffffffffffffffffffffffff1681526020016002820160149054906101000a900460ff161515151581526020016002820160159054906101000a900460ff16151515158152602001600382018054600181600116156101000203166002900480601f016020809104026020016040519081016040528092919081815260200182805460018160011615610100020316600290048015614b8b5780601f10614b6057610100808354040283529160200191614b8b565b820191906000526020600020905b815481529060010190602001808311614b6e57829003601f168201915b505050505081526020016004820160009054906101000a900473ffffffffffffffffffffffffffffffffffffffff1673ffffffffffffffffffffffffffffffffffffffff1673ffffffffffffffffffffffffffffffffffffffff168152602001600582015481526020016006820160009054906101000a900460ff166007811115614c1257fe5b6007811115614c1d57fe5b8152602001600782015481526020016008820154815250509350600184606001901515908115158152505083601260003373ffffffffffffffffffffffffffffffffffffffff1673ffffffffffffffffffffffffffffffffffffffff16815260200190815260200160002060008201518160000160006101000a81548173ffffffffffffffffffffffffffffffffffffffff021916908373ffffffffffffffffffffffffffffffffffffffff1602179055506020820151816001015560408201518160020160006101000a81548173ffffffffffffffffffffffffffffffffffffffff021916908373ffffffffffffffffffffffffffffffffffffffff16021790555060608201518160020160146101000a81548160ff02191690831515021790555060808201518160020160156101000a81548160ff02191690831515021790555060a0820151816003019080519060200190614d7c929190615f51565b5060c08201518160040160006101000a81548173ffffffffffffffffffffffffffffffffffffffff021916908373ffffffffffffffffffffffffffffffffffffffff16021790555060e082015181600501556101008201518160060160006101000a81548160ff02191690836007811115614df357fe5b021790555061012082015181600701556101408201518160080155905050614e1e8460200151615cad565b9250602260009054906101000a900473ffffffffffffffffffffffffffffffffffffffff1673ffffffffffffffffffffffffffffffffffffffff166108fc849081150290604051600060405180830381858888f19350505050158015614e88573d6000803e3d6000fd5b5083602001519150614eb86064614eaa8460255461497590919063ffffffff16565b61513e90919063ffffffff16565b9050600760009054906101000a900473ffffffffffffffffffffffffffffffffffffffff1673ffffffffffffffffffffffffffffffffffffffff166108fc614f1b83614f0d878761494090919063ffffffff16565b61494090919063ffffffff16565b9081150290604051600060405180830381858888f19350505050158015614f46573d6000803e3d6000fd5b50600660009054906101000a900473ffffffffffffffffffffffffffffffffffffffff1673ffffffffffffffffffffffffffffffffffffffff1663388f32c83086604001518760a001518860c001518960e001518a61010001516040518763ffffffff167c0100000000000000000000000000000000000000000000000000000000028152600401808773ffffffffffffffffffffffffffffffffffffffff1673ffffffffffffffffffffffffffffffffffffffff1681526020018673ffffffffffffffffffffffffffffffffffffffff1673ffffffffffffffffffffffffffffffffffffffff168152602001806020018573ffffffffffffffffffffffffffffffffffffffff1673ffffffffffffffffffffffffffffffffffffffff16815260200184815260200183600781111561507b57fe5b60ff168152602001828103825286818151815260200191508051906020019080838360005b838110156150bb5780820151818401526020810190506150a0565b50505050905090810190601f1680156150e85780820380516001836020036101000a031916815260200191505b50975050505050505050600060405180830381600087803b15801561510c57600080fd5b505af1158015615120573d6000803e3d6000fd5b5050505050505050565b60006151368383615cf8565b905092915050565b6000818381151561514b57fe5b04905092915050565b61515c615ea5565b601260008573ffffffffffffffffffffffffffffffffffffffff1673ffffffffffffffffffffffffffffffffffffffff16815260200190815260200160002061016060405190810160405290816000820160009054906101000a900473ffffffffffffffffffffffffffffffffffffffff1673ffffffffffffffffffffffffffffffffffffffff1673ffffffffffffffffffffffffffffffffffffffff168152602001600182015481526020016002820160009054906101000a900473ffffffffffffffffffffffffffffffffffffffff1673ffffffffffffffffffffffffffffffffffffffff1673ffffffffffffffffffffffffffffffffffffffff1681526020016002820160149054906101000a900460ff161515151581526020016002820160159054906101000a900460ff16151515158152602001600382018054600181600116156101000203166002900480601f01602080910402602001604051908101604052809291908181526020018280546001816001161561010002031660029004801561532d5780601f106153025761010080835404028352916020019161532d565b820191906000526020600020905b81548152906001019060200180831161531057829003601f168201915b505050505081526020016004820160009054906101000a900473ffffffffffffffffffffffffffffffffffffffff1673ffffffffffffffffffffffffffffffffffffffff1673ffffffffffffffffffffffffffffffffffffffff168152602001600582015481526020016006820160009054906101000a900460ff1660078111156153b457fe5b60078111156153bf57fe5b8152602001600782015481526020016008820154815250509050600181608001901515908115158152505080601260008673ffffffffffffffffffffffffffffffffffffffff1673ffffffffffffffffffffffffffffffffffffffff16815260200190815260200160002060008201518160000160006101000a81548173ffffffffffffffffffffffffffffffffffffffff021916908373ffffffffffffffffffffffffffffffffffffffff1602179055506020820151816001015560408201518160020160006101000a81548173ffffffffffffffffffffffffffffffffffffffff021916908373ffffffffffffffffffffffffffffffffffffffff16021790555060608201518160020160146101000a81548160ff02191690831515021790555060808201518160020160156101000a81548160ff02191690831515021790555060a082015181600301908051906020019061551e929190615f51565b5060c08201518160040160006101000a81548173ffffffffffffffffffffffffffffffffffffffff021916908373ffffffffffffffffffffffffffffffffffffffff16021790555060e082015181600501556101008201518160060160006101000a81548160ff0219169083600781111561559557fe5b0217905550610120820151816007015561014082015181600801559050506155bc82612d73565b50601a60009054906101000a900473ffffffffffffffffffffffffffffffffffffffff1673ffffffffffffffffffffffffffffffffffffffff1663a9059cbb85615615601f54856020015161497590919063ffffffff16565b6040518363ffffffff167c0100000000000000000000000000000000000000000000000000000000028152600401808373ffffffffffffffffffffffffffffffffffffffff1673ffffffffffffffffffffffffffffffffffffffff16815260200182815260200192505050602060405180830381600087803b15801561569a57600080fd5b505af11580156156ae573d6000803e3d6000fd5b505050506040513d60208110156156c457600080fd5b810190808051906020019092919050505015156156e057600080fd5b50505050565b60606000806060849250600091505b6001156157c657600960008473ffffffffffffffffffffffffffffffffffffffff1673ffffffffffffffffffffffffffffffffffffffff16815260200190815260200160002060009054906101000a900473ffffffffffffffffffffffffffffffffffffffff169250600760009054906101000a900473ffffffffffffffffffffffffffffffffffffffff1673ffffffffffffffffffffffffffffffffffffffff168373ffffffffffffffffffffffffffffffffffffffff1614156157b9576157c6565b81806001019250506156f5565b816040519080825280602002602001820160405280156157f55781602001602082028038833980820191505090505b5090508492505b60008211156158c057600960008473ffffffffffffffffffffffffffffffffffffffff1673ffffffffffffffffffffffffffffffffffffffff16815260200190815260200160002060009054906101000a900473ffffffffffffffffffffffffffffffffffffffff16925081806001900392505082818381518110151561587f57fe5b9060200190602002019073ffffffffffffffffffffffffffffffffffffffff16908173ffffffffffffffffffffffffffffffffffffffff16815250506157fc565b809350505050919050565b60006158d5615ea5565b6000831115156158e457600080fd5b601a60009054906101000a900473ffffffffffffffffffffffffffffffffffffffff1673ffffffffffffffffffffffffffffffffffffffff166323b872dd3330866040518463ffffffff167c0100000000000000000000000000000000000000000000000000000000028152600401808473ffffffffffffffffffffffffffffffffffffffff1673ffffffffffffffffffffffffffffffffffffffff1681526020018373ffffffffffffffffffffffffffffffffffffffff1673ffffffffffffffffffffffffffffffffffffffff1681526020018281526020019350505050602060405180830381600087803b1580156159dd57600080fd5b505af11580156159f1573d6000803e3d6000fd5b505050506040513d6020811015615a0757600080fd5b81019080805190602001909291905050501515615a2357600080fd5b60019150610160604051908101604052808773ffffffffffffffffffffffffffffffffffffffff1681526020018481526020013373ffffffffffffffffffffffffffffffffffffffff1681526020016000151581526020016000151581526020018681526020018573ffffffffffffffffffffffffffffffffffffffff16815260200183815260200160066007811115615ab957fe5b8152602001428152602001603c6023540242018152509050816016540360168190555080601260003373ffffffffffffffffffffffffffffffffffffffff1673ffffffffffffffffffffffffffffffffffffffff16815260200190815260200160002060008201518160000160006101000a81548173ffffffffffffffffffffffffffffffffffffffff021916908373ffffffffffffffffffffffffffffffffffffffff1602179055506020820151816001015560408201518160020160006101000a81548173ffffffffffffffffffffffffffffffffffffffff021916908373ffffffffffffffffffffffffffffffffffffffff16021790555060608201518160020160146101000a81548160ff02191690831515021790555060808201518160020160156101000a81548160ff02191690831515021790555060a0820151816003019080519060200190615c10929190615f51565b5060c08201518160040160006101000a81548173ffffffffffffffffffffffffffffffffffffffff021916908373ffffffffffffffffffffffffffffffffffffffff16021790555060e082015181600501556101008201518160060160006101000a81548160ff02191690836007811115615c8757fe5b021790555061012082015181600701556101408201518160080155905050505050505050565b60008060006024541115615ced57615ce36064615cd56024548661497590919063ffffffff16565b61513e90919063ffffffff16565b9050809150615cf2565b600091505b50919050565b60008160165410151515615d0b57600080fd5b601760009054906101000a900473ffffffffffffffffffffffffffffffffffffffff1673ffffffffffffffffffffffffffffffffffffffff1660405160200180807f7472616e7366657228616464726573732c75696e74323536290000000000000081525060190190506040516020818303038152906040526040518082805190602001908083835b602083101515615db95780518252602082019150602081019050602083039250615d94565b6001836020036101000a03801982511681845116808217855250505050505090500191505060405180910390207c0100000000000000000000000000000000000000000000000000000000900484846040518363ffffffff167c0100000000000000000000000000000000000000000000000000000000028152600401808373ffffffffffffffffffffffffffffffffffffffff1673ffffffffffffffffffffffffffffffffffffffff168152602001828152602001925050506000604051808303816000875af1925050501515615e9057600080fd5b81601654036016819055506001905092915050565b61016060405190810160405280600073ffffffffffffffffffffffffffffffffffffffff16815260200160008152602001600073ffffffffffffffffffffffffffffffffffffffff16815260200160001515815260200160001515815260200160608152602001600073ffffffffffffffffffffffffffffffffffffffff1681526020016000815260200160006007811115615f3d57fe5b815260200160008152602001600081525090565b828054600181600116156101000203166002900490600052602060002090601f016020900481019282601f10615f9257805160ff1916838001178555615fc0565b82800160010185558215615fc0579182015b82811115615fbf578251825591602001919060010190615fa4565b5b509050615fcd9190615fd1565b5090565b615ff391905b80821115615fef576000816000905550600101615fd7565b5090565b905600a165627a7a72305820c2caacb035a2a809b6735adec5d2fc9285b89fbd6d69cca239bf433a40186af30029",
  "source": "pragma solidity ^0.4.24; \n\nimport '../openzeppelin-solidity/contracts/math/SafeMath.sol';\n\nimport './TwoKeyCampaignETH.sol';\nimport './TwoKeyReg.sol';\nimport './TwoKeyEconomy.sol';\nimport './TwoKeyEventSource.sol';\nimport \"./TwoKeyWhitelisted.sol\";\nimport \"./TwoKeyCampaignInventory.sol\";\n\n/// TODO : Do we need crowdsale contract?\ncontract TwoKeyCampaignETHCrowdsale is TwoKeyCampaignETH {\n\n\tusing SafeMath for uint256;\n\n\tconstructor(\n\t\taddress _eventSource,\n\t\taddress _economy,\n\t\taddress _whitelistInfluencer,\n\t\taddress _whitelistConverter,\n\n\t\taddress _contractor,\n\t\taddress _moderator,\n\n\n\t\tuint256 _start,\n\t\tuint256 _duration,\n\t\tuint256 _expiryConversion,\n\t\tuint256 _escrowPrecentage,\n\t\tuint256 _rate,\n\t\tuint256 _maxPi) TwoKeyAcquisitionCampaignERC20(\n\t\t_eventSource,\n\t\t_economy,\n\t\t_whitelistInfluencer,\n\t\t_whitelistConverter,\n\t\t_contractor,\n\t\t_moderator,\n\t\t_start,\n\t\t_duration,\n\t\t_expiryConversion,\n\t\t_escrowPrecentage,\n\t\t_rate,\n\t\t_maxPi\n\t) public {\n\t}\n\n\t// buy product with ETH\n\t// We don't need tokenID since campaign sales 1 type of ... We don't need asset contract\n\t// TODO: buyFungibleFromWithEth\n\t// address _from, uint256 _tokenID, address _assetContract, uint256 _amountOrIndex can be removed\n\t// We don't need params, know who's sender and the amount is calculated with msg.value\n//\tfunction buyFromWithETH(address _from, string _assetName, address _assetContract, uint256 _amount) public payable {\n////\t    buyTokens(address(this));\n////\t    require(twoKeyCampaignInventory.addFungibleAsset(_tokenID, _assetContract, _amountOrIndex));\n//\t    buyFromWithETH(_from, _assetName, _assetContract, _amount, CampaignType.CPA_FUNGIBLE);\n//\t}\n\n}\n\n",
  "sourcePath": "/Users/nikolamadjarevic/Desktop/2key/contracts/contracts/2key/TwoKeyCampaignETHCrowdsale.sol",
  "compiler": {
    "name": "solc",
    "version": "0.4.24+commit.e67f0147.Emscripten.clang"
  },
  "schemaVersion": "2.0.1",
  "updatedAt": "2018-09-07T21:27:19.376Z"
}