{
  "contractName": "TwoKeyEventSource",
  "abi": [
    {
      "inputs": [
        {
          "name": "_twoKeyAdminAddress",
          "type": "address"
        }
      ],
      "payable": false,
      "stateMutability": "nonpayable",
      "type": "constructor"
    },
    {
      "anonymous": false,
      "inputs": [
        {
          "indexed": true,
          "name": "_campaign",
          "type": "address"
        },
        {
          "indexed": true,
          "name": "_owner",
          "type": "address"
        }
      ],
      "name": "Created",
      "type": "event"
    },
    {
      "anonymous": false,
      "inputs": [
        {
          "indexed": true,
          "name": "_campaign",
          "type": "address"
        },
        {
          "indexed": true,
          "name": "_from",
          "type": "address"
        },
        {
          "indexed": true,
          "name": "_to",
          "type": "address"
        }
      ],
      "name": "Joined",
      "type": "event"
    },
    {
      "anonymous": false,
      "inputs": [
        {
          "indexed": true,
          "name": "_campaign",
          "type": "address"
        },
        {
          "indexed": true,
          "name": "_converter",
          "type": "address"
        },
        {
          "indexed": false,
          "name": "assetName",
          "type": "string"
        },
        {
          "indexed": false,
          "name": "_childContractID",
          "type": "address"
        },
        {
          "indexed": false,
          "name": "_indexOrAmount",
          "type": "uint256"
        },
        {
          "indexed": false,
          "name": "_type",
          "type": "uint8"
        }
      ],
      "name": "Escrow",
      "type": "event"
    },
    {
      "anonymous": false,
      "inputs": [
        {
          "indexed": true,
          "name": "_campaign",
          "type": "address"
        },
        {
          "indexed": true,
          "name": "_to",
          "type": "address"
        },
        {
          "indexed": false,
          "name": "_amount",
          "type": "uint256"
        }
      ],
      "name": "Rewarded",
      "type": "event"
    },
    {
      "anonymous": false,
      "inputs": [
        {
          "indexed": true,
          "name": "_campaign",
          "type": "address"
        },
        {
          "indexed": true,
          "name": "_converter",
          "type": "address"
        },
        {
          "indexed": true,
          "name": "assetName",
          "type": "string"
        },
        {
          "indexed": false,
          "name": "_childContractID",
          "type": "address"
        },
        {
          "indexed": false,
          "name": "_indexOrAmount",
          "type": "uint256"
        },
        {
          "indexed": false,
          "name": "_type",
          "type": "uint8"
        }
      ],
      "name": "Fulfilled",
      "type": "event"
    },
    {
      "anonymous": false,
      "inputs": [
        {
          "indexed": true,
          "name": "_campaign",
          "type": "address"
        },
        {
          "indexed": true,
          "name": "_converter",
          "type": "address"
        },
        {
          "indexed": true,
          "name": "assetName",
          "type": "string"
        },
        {
          "indexed": false,
          "name": "_childContractID",
          "type": "address"
        },
        {
          "indexed": false,
          "name": "_indexOrAmount",
          "type": "uint256"
        },
        {
          "indexed": false,
          "name": "_type",
          "type": "uint8"
        }
      ],
      "name": "Cancelled",
      "type": "event"
    },
    {
      "constant": false,
      "inputs": [
        {
          "name": "_twoKeyReg",
          "type": "address"
        }
      ],
      "name": "addTwoKeyReg",
      "outputs": [],
      "payable": false,
      "stateMutability": "nonpayable",
      "type": "function"
    },
    {
      "constant": false,
      "inputs": [
        {
          "name": "_contractAddress",
          "type": "address"
        }
      ],
      "name": "addContract",
      "outputs": [],
      "payable": false,
      "stateMutability": "nonpayable",
      "type": "function"
    },
    {
      "constant": false,
      "inputs": [
        {
          "name": "_contractAddress",
          "type": "address"
        }
      ],
      "name": "removeContract",
      "outputs": [],
      "payable": false,
      "stateMutability": "nonpayable",
      "type": "function"
    },
    {
      "constant": false,
      "inputs": [
        {
          "name": "_newAddress",
          "type": "address"
        }
      ],
      "name": "addAuthorizedAddress",
      "outputs": [],
      "payable": false,
      "stateMutability": "nonpayable",
      "type": "function"
    },
    {
      "constant": false,
      "inputs": [
        {
          "name": "_authorizedAddress",
          "type": "address"
        }
      ],
      "name": "removeAuthorizedAddress",
      "outputs": [],
      "payable": false,
      "stateMutability": "nonpayable",
      "type": "function"
    },
    {
      "constant": false,
      "inputs": [
        {
          "name": "_contractCode",
          "type": "bytes"
        },
        {
          "name": "_campaignType",
          "type": "uint8"
        }
      ],
      "name": "addCampaignType",
      "outputs": [],
      "payable": false,
      "stateMutability": "nonpayable",
      "type": "function"
    },
    {
      "constant": false,
      "inputs": [
        {
          "name": "_newAdminAddress",
          "type": "address"
        }
      ],
      "name": "changeAdmin",
      "outputs": [],
      "payable": false,
      "stateMutability": "nonpayable",
      "type": "function"
    },
    {
      "constant": true,
      "inputs": [
        {
          "name": "_contractCode",
          "type": "bytes"
        }
      ],
      "name": "checkCanEmit",
      "outputs": [
        {
          "name": "",
          "type": "bool"
        }
      ],
      "payable": false,
      "stateMutability": "view",
      "type": "function"
    },
    {
      "constant": false,
      "inputs": [
        {
          "name": "_campaign",
          "type": "address"
        },
        {
          "name": "_owner",
          "type": "address"
        }
      ],
      "name": "created",
      "outputs": [],
      "payable": false,
      "stateMutability": "nonpayable",
      "type": "function"
    },
    {
      "constant": false,
      "inputs": [
        {
          "name": "_campaign",
          "type": "address"
        },
        {
          "name": "_from",
          "type": "address"
        },
        {
          "name": "_to",
          "type": "address"
        }
      ],
      "name": "joined",
      "outputs": [],
      "payable": false,
      "stateMutability": "nonpayable",
      "type": "function"
    },
    {
      "constant": false,
      "inputs": [
        {
          "name": "_campaign",
          "type": "address"
        },
        {
          "name": "_converter",
          "type": "address"
        },
        {
          "name": "_assetName",
          "type": "string"
        },
        {
          "name": "_childContractID",
          "type": "address"
        },
        {
          "name": "_indexOrAmount",
          "type": "uint256"
        },
        {
          "name": "_type",
          "type": "uint8"
        }
      ],
      "name": "escrow",
      "outputs": [],
      "payable": false,
      "stateMutability": "nonpayable",
      "type": "function"
    },
    {
      "constant": false,
      "inputs": [
        {
          "name": "_campaign",
          "type": "address"
        },
        {
          "name": "_to",
          "type": "address"
        },
        {
          "name": "_amount",
          "type": "uint256"
        }
      ],
      "name": "rewarded",
      "outputs": [],
      "payable": false,
      "stateMutability": "nonpayable",
      "type": "function"
    },
    {
      "constant": false,
      "inputs": [
        {
          "name": "_campaign",
          "type": "address"
        },
        {
          "name": "_converter",
          "type": "address"
        },
        {
          "name": "_assetName",
          "type": "string"
        },
        {
          "name": "_childContractID",
          "type": "address"
        },
        {
          "name": "_indexOrAmount",
          "type": "uint256"
        },
        {
          "name": "_type",
          "type": "uint8"
        }
      ],
      "name": "fulfilled",
      "outputs": [],
      "payable": false,
      "stateMutability": "nonpayable",
      "type": "function"
    },
    {
      "constant": false,
      "inputs": [
        {
          "name": "_campaign",
          "type": "address"
        },
        {
          "name": "_converter",
          "type": "address"
        },
        {
          "name": "_assetName",
          "type": "string"
        },
        {
          "name": "_childContractID",
          "type": "address"
        },
        {
          "name": "_indexOrAmount",
          "type": "uint256"
        },
        {
          "name": "_type",
          "type": "uint8"
        }
      ],
      "name": "cancelled",
      "outputs": [],
      "payable": false,
      "stateMutability": "nonpayable",
      "type": "function"
    },
    {
      "constant": true,
      "inputs": [],
      "name": "getAdmin",
      "outputs": [
        {
          "name": "",
          "type": "address"
        }
      ],
      "payable": false,
      "stateMutability": "view",
      "type": "function"
    },
    {
      "constant": true,
      "inputs": [
        {
          "name": "_subAdmin",
          "type": "address"
        }
      ],
      "name": "checkIsAuthorized",
      "outputs": [
        {
          "name": "",
          "type": "bool"
        }
      ],
      "payable": false,
      "stateMutability": "view",
      "type": "function"
    }
  ],
  "bytecode": "0x608060405234801561001057600080fd5b5060405160208061198383398101806040528101908080519060200190929190505050806000806101000a81548173ffffffffffffffffffffffffffffffffffffffff021916908373ffffffffffffffffffffffffffffffffffffffff16021790555050611900806100836000396000f3006080604052600436106100e6576000357c0100000000000000000000000000000000000000000000000000000000900463ffffffff168063078f4ca2146100eb5780631d186584146101cb578063388f32c81461022e57806342f1181e1461030e578063440897b11461035157806351f05455146103945780635f539d6914610474578063693cc8a5146104b75780636e9960c31461052d57806370712939146105845780638af1cbb9146105c75780638f2839701461064a578063bd6cd0d11461068d578063c375c2ef146106fa578063c7a85e5f1461073d578063f204c88c14610798575b600080fd5b3480156100f757600080fd5b506101c9600480360381019080803573ffffffffffffffffffffffffffffffffffffffff169060200190929190803573ffffffffffffffffffffffffffffffffffffffff169060200190929190803590602001908201803590602001908080601f0160208091040260200160405190810160405280939291908181526020018383808284378201915050505050509192919290803573ffffffffffffffffffffffffffffffffffffffff16906020019092919080359060200190929190803560ff169060200190929190505050610819565b005b3480156101d757600080fd5b5061022c600480360381019080803573ffffffffffffffffffffffffffffffffffffffff169060200190929190803573ffffffffffffffffffffffffffffffffffffffff1690602001909291905050506109cc565b005b34801561023a57600080fd5b5061030c600480360381019080803573ffffffffffffffffffffffffffffffffffffffff169060200190929190803573ffffffffffffffffffffffffffffffffffffffff169060200190929190803590602001908201803590602001908080601f0160208091040260200160405190810160405280939291908181526020018383808284378201915050505050509192919290803573ffffffffffffffffffffffffffffffffffffffff16906020019092919080359060200190929190803560ff169060200190929190505050610a2a565b005b34801561031a57600080fd5b5061034f600480360381019080803573ffffffffffffffffffffffffffffffffffffffff169060200190929190505050610bdd565b005b34801561035d57600080fd5b50610392600480360381019080803573ffffffffffffffffffffffffffffffffffffffff169060200190929190505050610c74565b005b3480156103a057600080fd5b50610472600480360381019080803573ffffffffffffffffffffffffffffffffffffffff169060200190929190803573ffffffffffffffffffffffffffffffffffffffff169060200190929190803590602001908201803590602001908080601f0160208091040260200160405190810160405280939291908181526020018383808284378201915050505050509192919290803573ffffffffffffffffffffffffffffffffffffffff16906020019092919080359060200190929190803560ff169060200190929190505050610cb8565b005b34801561048057600080fd5b506104b5600480360381019080803573ffffffffffffffffffffffffffffffffffffffff169060200190929190505050610e75565b005b3480156104c357600080fd5b5061052b600480360381019080803590602001908201803590602001908080601f0160208091040260200160405190810160405280939291908181526020018383808284378201915050505050509192919290803560ff169060200190929190505050610ffc565b005b34801561053957600080fd5b50610542611117565b604051808273ffffffffffffffffffffffffffffffffffffffff1673ffffffffffffffffffffffffffffffffffffffff16815260200191505060405180910390f35b34801561059057600080fd5b506105c5600480360381019080803573ffffffffffffffffffffffffffffffffffffffff169060200190929190505050611140565b005b3480156105d357600080fd5b50610648600480360381019080803573ffffffffffffffffffffffffffffffffffffffff169060200190929190803573ffffffffffffffffffffffffffffffffffffffff169060200190929190803573ffffffffffffffffffffffffffffffffffffffff169060200190929190505050611291565b005b34801561065657600080fd5b5061068b600480360381019080803573ffffffffffffffffffffffffffffffffffffffff1690602001909291905050506114a9565b005b34801561069957600080fd5b506106f8600480360381019080803573ffffffffffffffffffffffffffffffffffffffff169060200190929190803573ffffffffffffffffffffffffffffffffffffffff16906020019092919080359060200190929190505050611547565b005b34801561070657600080fd5b5061073b600480360381019080803573ffffffffffffffffffffffffffffffffffffffff16906020019092919050505061164a565b005b34801561074957600080fd5b5061077e600480360381019080803573ffffffffffffffffffffffffffffffffffffffff1690602001909291905050506117d1565b604051808215151515815260200191505060405180910390f35b3480156107a457600080fd5b506107ff600480360381019080803590602001908201803590602001908080601f0160208091040260200160405190810160405280939291908181526020018383808284378201915050505050509192919290505050611827565b604051808215151515815260200191505060405180910390f35b6060610824336118a9565b9050600115156002826040518082805190602001908083835b602083101515610862578051825260208201915060208101905060208303925061083d565b6001836020036101000a038019825116818451168082178552505050505050905001915050908152602001604051809103902060009054906101000a900460ff1615151415156108b157600080fd5b846040518082805190602001908083835b6020831015156108e757805182526020820191506020810190506020830392506108c2565b6001836020036101000a03801982511681845116808217855250505050505090500191505060405180910390208673ffffffffffffffffffffffffffffffffffffffff168873ffffffffffffffffffffffffffffffffffffffff167f219c6f4c7ad0529af33d103f90915fbac79429582688b377d86bd215f821de44878787604051808473ffffffffffffffffffffffffffffffffffffffff1673ffffffffffffffffffffffffffffffffffffffff1681526020018381526020018260078111156109ae57fe5b60ff168152602001935050505060405180910390a450505050505050565b8073ffffffffffffffffffffffffffffffffffffffff168273ffffffffffffffffffffffffffffffffffffffff167f587ece4cd19692c5be1a4184503d607d45542d2aca0698c0068f52e09ccb541c60405160405180910390a35050565b6060610a35336118a9565b9050600115156002826040518082805190602001908083835b602083101515610a735780518252602082019150602081019050602083039250610a4e565b6001836020036101000a038019825116818451168082178552505050505050905001915050908152602001604051809103902060009054906101000a900460ff161515141515610ac257600080fd5b846040518082805190602001908083835b602083101515610af85780518252602082019150602081019050602083039250610ad3565b6001836020036101000a03801982511681845116808217855250505050505090500191505060405180910390208673ffffffffffffffffffffffffffffffffffffffff168873ffffffffffffffffffffffffffffffffffffffff167f52151b19afee8191e0fcea2e9b198c20ff0d5ed7c9172b0a668861e929ba6bb6878787604051808473ffffffffffffffffffffffffffffffffffffffff1673ffffffffffffffffffffffffffffffffffffffff168152602001838152602001826007811115610bbf57fe5b60ff168152602001935050505060405180910390a450505050505050565b600073ffffffffffffffffffffffffffffffffffffffff168173ffffffffffffffffffffffffffffffffffffffff1614151515610c1957600080fd5b6001600460008373ffffffffffffffffffffffffffffffffffffffff1673ffffffffffffffffffffffffffffffffffffffff16815260200190815260200160002060006101000a81548160ff02191690831515021790555050565b80600160006101000a81548173ffffffffffffffffffffffffffffffffffffffff021916908373ffffffffffffffffffffffffffffffffffffffff16021790555050565b6060610cc3336118a9565b9050600115156002826040518082805190602001908083835b602083101515610d015780518252602082019150602081019050602083039250610cdc565b6001836020036101000a038019825116818451168082178552505050505050905001915050908152602001604051809103902060009054906101000a900460ff161515141515610d5057600080fd5b8573ffffffffffffffffffffffffffffffffffffffff168773ffffffffffffffffffffffffffffffffffffffff167fa79ca6895240c7568eacd5970ab79c1f430c16e52900fcc0a91b86b789bfb2908787878760405180806020018573ffffffffffffffffffffffffffffffffffffffff1673ffffffffffffffffffffffffffffffffffffffff168152602001848152602001836007811115610def57fe5b60ff168152602001828103825286818151815260200191508051906020019080838360005b83811015610e2f578082015181840152602081019050610e14565b50505050905090810190601f168015610e5c5780820380516001836020036101000a031916815260200191505b509550505050505060405180910390a350505050505050565b606060011515600460003373ffffffffffffffffffffffffffffffffffffffff1673ffffffffffffffffffffffffffffffffffffffff16815260200190815260200160002060009054906101000a900460ff1615151480610f2257506000809054906101000a900473ffffffffffffffffffffffffffffffffffffffff1673ffffffffffffffffffffffffffffffffffffffff163373ffffffffffffffffffffffffffffffffffffffff16145b1515610f2d57600080fd5b600073ffffffffffffffffffffffffffffffffffffffff168273ffffffffffffffffffffffffffffffffffffffff1614151515610f6957600080fd5b610f72826118a9565b905060016002826040518082805190602001908083835b602083101515610fae5780518252602082019150602081019050602083039250610f89565b6001836020036101000a038019825116818451168082178552505050505050905001915050908152602001604051809103902060006101000a81548160ff0219169083151502179055505050565b600115156002836040518082805190602001908083835b6020831015156110385780518252602082019150602081019050602083039250611013565b6001836020036101000a038019825116818451168082178552505050505050905001915050908152602001604051809103902060009054906101000a900460ff16151514151561108757600080fd5b806003836040518082805190602001908083835b6020831015156110c0578051825260208201915060208101905060208303925061109b565b6001836020036101000a038019825116818451168082178552505050505050905001915050908152602001604051809103902060006101000a81548160ff0219169083600781111561110e57fe5b02179055505050565b60008060009054906101000a900473ffffffffffffffffffffffffffffffffffffffff16905090565b6000809054906101000a900473ffffffffffffffffffffffffffffffffffffffff1673ffffffffffffffffffffffffffffffffffffffff163373ffffffffffffffffffffffffffffffffffffffff1614151561119b57600080fd5b600073ffffffffffffffffffffffffffffffffffffffff168173ffffffffffffffffffffffffffffffffffffffff16141515156111d757600080fd5b60011515600460008373ffffffffffffffffffffffffffffffffffffffff1673ffffffffffffffffffffffffffffffffffffffff16815260200190815260200160002060009054906101000a900460ff16151514151561123657600080fd5b6000600460008373ffffffffffffffffffffffffffffffffffffffff1673ffffffffffffffffffffffffffffffffffffffff16815260200190815260200160002060006101000a81548160ff02191690831515021790555050565b606061129c336118a9565b9050600115156002826040518082805190602001908083835b6020831015156112da57805182526020820191506020810190506020830392506112b5565b6001836020036101000a038019825116818451168082178552505050505050905001915050908152602001604051809103902060009054906101000a900460ff16151514151561132957600080fd5b600160009054906101000a900473ffffffffffffffffffffffffffffffffffffffff1673ffffffffffffffffffffffffffffffffffffffff1663f99892cc85856040518363ffffffff167c0100000000000000000000000000000000000000000000000000000000028152600401808373ffffffffffffffffffffffffffffffffffffffff1673ffffffffffffffffffffffffffffffffffffffff1681526020018273ffffffffffffffffffffffffffffffffffffffff1673ffffffffffffffffffffffffffffffffffffffff16815260200192505050600060405180830381600087803b15801561141a57600080fd5b505af115801561142e573d6000803e3d6000fd5b505050508173ffffffffffffffffffffffffffffffffffffffff168373ffffffffffffffffffffffffffffffffffffffff168573ffffffffffffffffffffffffffffffffffffffff167f2bd729a8054724da0df9fdf02b37398fb43652780a2590cef6fa6e8abcf4367860405160405180910390a450505050565b6000809054906101000a900473ffffffffffffffffffffffffffffffffffffffff1673ffffffffffffffffffffffffffffffffffffffff163373ffffffffffffffffffffffffffffffffffffffff1614151561150457600080fd5b806000806101000a81548173ffffffffffffffffffffffffffffffffffffffff021916908373ffffffffffffffffffffffffffffffffffffffff16021790555050565b6060611552336118a9565b9050600115156002826040518082805190602001908083835b602083101515611590578051825260208201915060208101905060208303925061156b565b6001836020036101000a038019825116818451168082178552505050505050905001915050908152602001604051809103902060009054906101000a900460ff1615151415156115df57600080fd5b8273ffffffffffffffffffffffffffffffffffffffff168473ffffffffffffffffffffffffffffffffffffffff167f6876a213a761d9b4f8d7ba3609528ef85da671684271f75fdacb41be8db29f45846040518082815260200191505060405180910390a350505050565b606060011515600460003373ffffffffffffffffffffffffffffffffffffffff1673ffffffffffffffffffffffffffffffffffffffff16815260200190815260200160002060009054906101000a900460ff16151514806116f757506000809054906101000a900473ffffffffffffffffffffffffffffffffffffffff1673ffffffffffffffffffffffffffffffffffffffff163373ffffffffffffffffffffffffffffffffffffffff16145b151561170257600080fd5b600073ffffffffffffffffffffffffffffffffffffffff168273ffffffffffffffffffffffffffffffffffffffff161415151561173e57600080fd5b611747826118a9565b905060006002826040518082805190602001908083835b602083101515611783578051825260208201915060208101905060208303925061175e565b6001836020036101000a038019825116818451168082178552505050505050905001915050908152602001604051809103902060006101000a81548160ff0219169083151502179055505050565b6000600460008373ffffffffffffffffffffffffffffffffffffffff1673ffffffffffffffffffffffffffffffffffffffff16815260200190815260200160002060009054906101000a900460ff169050919050565b60006002826040518082805190602001908083835b602083101515611861578051825260208201915060208101905060208303925061183c565b6001836020036101000a038019825116818451168082178552505050505050905001915050908152602001604051809103902060009054906101000a900460ff169050919050565b6060813b6040519150601f19601f602083010116820160405280825280600060208401853c509190505600a165627a7a72305820eaac25c27ca6a0053ea64e85e3f36d44225e628750829c13a6c9db2c2a42c3980029",
  "source": "pragma solidity ^0.4.24;\n\nimport './TwoKeyTypes.sol';\nimport \"./GetCode.sol\";\nimport \"./TwoKeyAdmin.sol\";\nimport \"../interfaces/ITwoKeyReg.sol\";\n\ncontract TwoKeyEventSource is TwoKeyTypes {\n\n    /// Events\n    event Created(address indexed _campaign, address indexed _owner);\n    event Joined(address indexed _campaign, address indexed _from, address indexed _to);\n    event Escrow(address indexed _campaign, address indexed _converter, string assetName, address _childContractID, uint256 _indexOrAmount, CampaignType _type);\n    event Rewarded(address indexed _campaign, address indexed _to, uint256 _amount);\n    event Fulfilled(address indexed _campaign, address indexed _converter, string indexed assetName, address _childContractID, uint256 _indexOrAmount, CampaignType _type);\n    event Cancelled(address indexed _campaign, address indexed _converter, string indexed assetName, address _childContractID, uint256 _indexOrAmount, CampaignType _type);\n    /// event Convert (?)\n\n\n    ///Address of the contract admin - interface\n    TwoKeyAdmin twoKeyAdmin;\n\n    /// Interface representing TwoKeyReg contract (Reducing gas usage that's why interface instead of contract instance)\n    ITwoKeyReg interfaceTwoKeyReg;\n\n    ///Mapping contract bytecode to boolean if is allowed to emit an event\n    mapping(bytes => bool) canEmit;\n\n    /// Mapping contract bytecode to enumerator CampaignType.\n    mapping(bytes => CampaignType) codeToType;\n\n\n    ///Mapping an address to boolean if allowed to modify\n    mapping(address => bool) authorizedSubadmins;\n\n\n    ///@notice Modifier which allows only admin to call a function - can be easily modified if there is going to be more admins\n    modifier onlyAdmin {\n        require(msg.sender == address(twoKeyAdmin));\n        _;\n    }\n\n    ///@notice Modifier which allows all modifiers to update canEmit mapping - ever\n    modifier onlyAuthorizedSubadmins {\n        require(authorizedSubadmins[msg.sender] == true || msg.sender == address(twoKeyAdmin));\n        _;\n    }\n\n    ///@notice Modifier which will only allow allowed contracts to emit an event\n    modifier onlyAllowedContracts {\n        //just to use contract code instead of msg.sender address\n        bytes memory code = GetCode.at(msg.sender);\n        require(canEmit[code] == true);\n        _;\n    }\n\n    /// @notice Constructor during deployment of contract we need to set an admin address (means TwoKeyAdmin needs to be previously deployed)\n    /// @param _twoKeyAdminAddress is the address of TwoKeyAdmin contract previously deployed\n    constructor(address _twoKeyAdminAddress) public {\n        twoKeyAdmin = TwoKeyAdmin(_twoKeyAdminAddress);\n    }\n\n    /// TODO: Put in constructor because of security issues (?)\n    /// TODO: TwoKeyAdmin is owner\n    /// TODO: Research about synchronization (concurrency)\n    /// TODO: Bytecodes whitelist\n    function addTwoKeyReg(address _twoKeyReg) public {\n        interfaceTwoKeyReg = ITwoKeyReg(_twoKeyReg);\n    }\n    /// @notice function where admin or any authorized person (will be added if needed) can add more contracts to allow them call methods\n    /// @param _contractAddress is actually the address of contract we'd like to allow\n    /// @dev We first fetch bytes32 contract code and then update our mapping\n    /// @dev only admin can call this or an authorized person\n    function addContract(address _contractAddress) public onlyAuthorizedSubadmins {\n        require(_contractAddress != address(0));\n        bytes memory _contractCode = GetCode.at(_contractAddress);\n        canEmit[_contractCode] = true;\n    }\n\n    /// @notice function where admin or any authorized person (will be added if needed) can remove contract (disable permissions to emit Events)\n    /// @param _contractAddress is actually the address of contract we'd like to disable\n    /// @dev We first fetch bytes32 contract code and then update our mapping\n    /// @dev only admin can call this or an authorized person\n    function removeContract(address _contractAddress) public onlyAuthorizedSubadmins {\n        require(_contractAddress != address(0));\n        bytes memory _contractCode = GetCode.at(_contractAddress);\n        canEmit[_contractCode] = false;\n    }\n\n    /// @notice Function where an admin can authorize any other person to modify allowed contracts\n    /// @param _newAddress is the address of new modifier contract / account\n    /// @dev if only contract can be modifier then we'll add one more validation step\n    function addAuthorizedAddress(address _newAddress) public {\n        require(_newAddress != address(0));\n        authorizedSubadmins[_newAddress] = true;\n    }\n\n    /// @notice Function to remove authorization from an modifier\n    /// @param _authorizedAddress is the address of modifier\n    /// @dev checking if that address is set to true before since we'll spend 21k gas if it's already false to override that value\n    function removeAuthorizedAddress(address _authorizedAddress) public onlyAdmin {\n        require(_authorizedAddress != address(0));\n        require(authorizedSubadmins[_authorizedAddress] == true);\n\n        authorizedSubadmins[_authorizedAddress] = false;\n    }\n\n    /// @notice Function to map contract code to type of campaign\n    /// @dev is contract required to be allowed to emit to even exist in mapping codeToType\n    /// @param _contractCode is code od contract\n    /// @param _campaignType is enumerator representing type of campaign\n    function addCampaignType(bytes _contractCode, CampaignType _campaignType) {\n        require(canEmit[_contractCode] == true); //Check if this validation is needed\n        codeToType[_contractCode] = _campaignType;\n    }\n\n    /// @notice Function where admin can be changed\n    /// @param _newAdminAddress is the address of new admin\n    /// @dev think about some security layer here\n    function changeAdmin(address _newAdminAddress) public onlyAdmin {\n        twoKeyAdmin = TwoKeyAdmin(_newAdminAddress);\n    }\n\n    function checkCanEmit(bytes _contractCode) public view returns (bool) {\n        return canEmit[_contractCode];\n    }\n\n    /// @dev Only allowed contracts can call this function ---> means can emit events\n    /// This user will be contractor\n    /// onlyAllowedContracts commented so Andri can fetch this\n    function created(address _campaign, address _owner) public {\n//        interfaceTwoKeyReg.addWhereContractor(_campaign, _owner);\n    \temit Created(_campaign, _owner);\n\n    }\n\n    /// @dev Only allowed contracts can call this function ---> means can emit events\n    /// This user will be refferer\n    function joined(address _campaign, address _from, address _to) public onlyAllowedContracts {\n        interfaceTwoKeyReg.addWhereReferrer(_campaign, _from);\n    \temit Joined(_campaign, _from, _to);\n    }\n\n    /// @dev Only allowed contracts can call this function ---> means can emit events\n    function escrow(address _campaign, address _converter, string _assetName, address _childContractID, uint256 _indexOrAmount, CampaignType _type) public onlyAllowedContracts{\n    \temit Escrow(_campaign, _converter, _assetName, _childContractID, _indexOrAmount, _type);\n    }\n\n    /// @dev Only allowed contracts can call this function ---> means can emit events\n    function rewarded(address _campaign, address _to, uint256 _amount) public onlyAllowedContracts {\n    \temit Rewarded(_campaign, _to, _amount);\n\t}\n\n    /// @dev Only allowed contracts can call this function ---> means can emit events\n\tfunction fulfilled(address  _campaign, address _converter, string _assetName, address _childContractID, uint256 _indexOrAmount, CampaignType _type) public onlyAllowedContracts {\n\t\temit Fulfilled(_campaign, _converter, _assetName, _childContractID, _indexOrAmount, _type);\n\t}\n\n    /// @dev Only allowed contracts can call this function ---> means can emit events\n\tfunction cancelled(address  _campaign, address _converter, string _assetName, address _childContractID, uint256 _indexOrAmount, CampaignType _type) public onlyAllowedContracts{\n\t\temit Cancelled(_campaign, _converter, _assetName, _childContractID, _indexOrAmount, _type);\n\t}\n\n\n    function getAdmin() public view returns (address) {\n        return address(twoKeyAdmin);\n    }\n\n    function checkIsAuthorized(address _subAdmin) public view returns (bool) {\n        return authorizedSubadmins[_subAdmin];\n    }\n}",
  "sourcePath": "/Users/aydnep/2key/contracts/contracts/2key/TwoKeyEventSource.sol",
  "compiler": {
    "name": "solc",
    "version": "0.4.24+commit.e67f0147.Emscripten.clang"
  },
  "schemaVersion": "2.0.1",
  "updatedAt": "2018-09-11T16:57:49.987Z"
}