{
  "contractName": "TwoKeyEventSource",
  "abi": [
    {
      "anonymous": false,
      "inputs": [
        {
          "indexed": true,
          "name": "_owner",
          "type": "address"
        },
        {
          "indexed": false,
          "name": "_campaign",
          "type": "address"
        }
      ],
      "name": "Created",
      "type": "event"
    },
    {
      "anonymous": false,
      "inputs": [
        {
          "indexed": true,
          "name": "_to",
          "type": "address"
        },
        {
          "indexed": false,
          "name": "_campaign",
          "type": "address"
        }
      ],
      "name": "Joined",
      "type": "event"
    },
    {
      "anonymous": false,
      "inputs": [
        {
          "indexed": true,
          "name": "_campaign",
          "type": "address"
        },
        {
          "indexed": true,
          "name": "_escrow",
          "type": "address"
        },
        {
          "indexed": true,
          "name": "_sender",
          "type": "address"
        },
        {
          "indexed": false,
          "name": "_tokenID",
          "type": "uint256"
        },
        {
          "indexed": false,
          "name": "_childContractID",
          "type": "address"
        },
        {
          "indexed": false,
          "name": "_indexOrAmount",
          "type": "uint256"
        }
      ],
      "name": "Escrow",
      "type": "event"
    },
    {
      "anonymous": false,
      "inputs": [
        {
          "indexed": true,
          "name": "_campaign",
          "type": "address"
        },
        {
          "indexed": true,
          "name": "_to",
          "type": "address"
        },
        {
          "indexed": false,
          "name": "_amount",
          "type": "uint256"
        }
      ],
      "name": "Rewarded",
      "type": "event"
    },
    {
      "anonymous": false,
      "inputs": [
        {
          "indexed": true,
          "name": "_campaign",
          "type": "address"
        },
        {
          "indexed": true,
          "name": "_converter",
          "type": "address"
        },
        {
          "indexed": true,
          "name": "_tokenID",
          "type": "uint256"
        },
        {
          "indexed": false,
          "name": "_childContractID",
          "type": "address"
        },
        {
          "indexed": false,
          "name": "_indexOrAmount",
          "type": "uint256"
        }
      ],
      "name": "Fulfilled",
      "type": "event"
    },
    {
      "anonymous": false,
      "inputs": [
        {
          "indexed": true,
          "name": "_campaign",
          "type": "address"
        },
        {
          "indexed": true,
          "name": "_converter",
          "type": "address"
        },
        {
          "indexed": true,
          "name": "_tokenID",
          "type": "uint256"
        },
        {
          "indexed": false,
          "name": "_childContractID",
          "type": "address"
        },
        {
          "indexed": false,
          "name": "_indexOrAmount",
          "type": "uint256"
        }
      ],
      "name": "Cancelled",
      "type": "event"
    },
    {
      "constant": false,
      "inputs": [
        {
          "name": "_owner",
          "type": "address"
        }
      ],
      "name": "created",
      "outputs": [],
      "payable": false,
      "stateMutability": "nonpayable",
      "type": "function"
    },
    {
      "constant": false,
      "inputs": [
        {
          "name": "_to",
          "type": "address"
        }
      ],
      "name": "joined",
      "outputs": [],
      "payable": false,
      "stateMutability": "nonpayable",
      "type": "function"
    },
    {
      "constant": false,
      "inputs": [
        {
          "name": "_campaign",
          "type": "address"
        },
        {
          "name": "_escrow",
          "type": "address"
        },
        {
          "name": "_sender",
          "type": "address"
        },
        {
          "name": "_tokenID",
          "type": "uint256"
        },
        {
          "name": "_childContractID",
          "type": "address"
        },
        {
          "name": "_indexOrAmount",
          "type": "uint256"
        }
      ],
      "name": "escrow",
      "outputs": [],
      "payable": false,
      "stateMutability": "nonpayable",
      "type": "function"
    },
    {
      "constant": false,
      "inputs": [
        {
          "name": "_campaign",
          "type": "address"
        },
        {
          "name": "_to",
          "type": "address"
        },
        {
          "name": "_amount",
          "type": "uint256"
        }
      ],
      "name": "rewarded",
      "outputs": [],
      "payable": false,
      "stateMutability": "nonpayable",
      "type": "function"
    },
    {
      "constant": false,
      "inputs": [
        {
          "name": "_campaign",
          "type": "address"
        },
        {
          "name": "_converter",
          "type": "address"
        },
        {
          "name": "_tokenID",
          "type": "uint256"
        },
        {
          "name": "_childContractID",
          "type": "address"
        },
        {
          "name": "_indexOrAmount",
          "type": "uint256"
        }
      ],
      "name": "fulfilled",
      "outputs": [],
      "payable": false,
      "stateMutability": "nonpayable",
      "type": "function"
    },
    {
      "constant": false,
      "inputs": [
        {
          "name": "_campaign",
          "type": "address"
        },
        {
          "name": "_converter",
          "type": "address"
        },
        {
          "name": "_tokenID",
          "type": "uint256"
        },
        {
          "name": "_childContractID",
          "type": "address"
        },
        {
          "name": "_indexOrAmount",
          "type": "uint256"
        }
      ],
      "name": "cancelled",
      "outputs": [],
      "payable": false,
      "stateMutability": "nonpayable",
      "type": "function"
    }
  ],
  "bytecode": "0x608060405234801561001057600080fd5b506106f3806100206000396000f300608060405260043610610078576000357c0100000000000000000000000000000000000000000000000000000000900463ffffffff1680634590d0a41461007d5780639b01cd2f14610134578063aa72a865146101cb578063bd6cd0d114610262578063d42efd83146102cf578063f887d01914610312575b600080fd5b34801561008957600080fd5b50610132600480360381019080803573ffffffffffffffffffffffffffffffffffffffff169060200190929190803573ffffffffffffffffffffffffffffffffffffffff169060200190929190803573ffffffffffffffffffffffffffffffffffffffff16906020019092919080359060200190929190803573ffffffffffffffffffffffffffffffffffffffff16906020019092919080359060200190929190505050610355565b005b34801561014057600080fd5b506101c9600480360381019080803573ffffffffffffffffffffffffffffffffffffffff169060200190929190803573ffffffffffffffffffffffffffffffffffffffff16906020019092919080359060200190929190803573ffffffffffffffffffffffffffffffffffffffff16906020019092919080359060200190929190505050610415565b005b3480156101d757600080fd5b50610260600480360381019080803573ffffffffffffffffffffffffffffffffffffffff169060200190929190803573ffffffffffffffffffffffffffffffffffffffff16906020019092919080359060200190929190803573ffffffffffffffffffffffffffffffffffffffff169060200190929190803590602001909291905050506104b6565b005b34801561026e57600080fd5b506102cd600480360381019080803573ffffffffffffffffffffffffffffffffffffffff169060200190929190803573ffffffffffffffffffffffffffffffffffffffff16906020019092919080359060200190929190505050610557565b005b3480156102db57600080fd5b50610310600480360381019080803573ffffffffffffffffffffffffffffffffffffffff1690602001909291905050506105c1565b005b34801561031e57600080fd5b50610353600480360381019080803573ffffffffffffffffffffffffffffffffffffffff169060200190929190505050610644565b005b8373ffffffffffffffffffffffffffffffffffffffff168573ffffffffffffffffffffffffffffffffffffffff168773ffffffffffffffffffffffffffffffffffffffff167f808fa259ae592867fbb664ee75e75ff529d3c1a8c5d12f2b3fa54d59c0bb6178868686604051808481526020018373ffffffffffffffffffffffffffffffffffffffff1673ffffffffffffffffffffffffffffffffffffffff168152602001828152602001935050505060405180910390a4505050505050565b828473ffffffffffffffffffffffffffffffffffffffff168673ffffffffffffffffffffffffffffffffffffffff167f39b5e70d6de943f142e697a8b03d99972ef48fd02abd4445586578f9c30d53758585604051808373ffffffffffffffffffffffffffffffffffffffff1673ffffffffffffffffffffffffffffffffffffffff1681526020018281526020019250505060405180910390a45050505050565b828473ffffffffffffffffffffffffffffffffffffffff168673ffffffffffffffffffffffffffffffffffffffff167fc55c665c5ccb8fa9fd822167f4cbae325396f18691f29f205c2c273180f62ec38585604051808373ffffffffffffffffffffffffffffffffffffffff1673ffffffffffffffffffffffffffffffffffffffff1681526020018281526020019250505060405180910390a45050505050565b8173ffffffffffffffffffffffffffffffffffffffff168373ffffffffffffffffffffffffffffffffffffffff167f6876a213a761d9b4f8d7ba3609528ef85da671684271f75fdacb41be8db29f45836040518082815260200191505060405180910390a3505050565b60003390508173ffffffffffffffffffffffffffffffffffffffff167f587ece4cd19692c5be1a4184503d607d45542d2aca0698c0068f52e09ccb541c82604051808273ffffffffffffffffffffffffffffffffffffffff1673ffffffffffffffffffffffffffffffffffffffff16815260200191505060405180910390a25050565b60003390508173ffffffffffffffffffffffffffffffffffffffff167f7702dccda75540ad1dca8d5276c048f4a5c0e4203f6da4be214bfb1901b203ea82604051808273ffffffffffffffffffffffffffffffffffffffff1673ffffffffffffffffffffffffffffffffffffffff16815260200191505060405180910390a250505600a165627a7a72305820273261c688497349a3274b5fa9020463fe9df6a70d282b527988deb0dc0aac420029",
  "source": "pragma solidity ^0.4.24;\n\ncontract TwoKeyEventSource {\n\n    event Created(address indexed _owner, address _campaign); // TODO Yoram changed\n    event Joined(address indexed _to, address _campaign);  // TODO Yoram Joined event is different\n\tevent Escrow(address indexed _campaign, address indexed _escrow, address indexed _sender, uint256 _tokenID, address _childContractID, uint256 _indexOrAmount);\n\tevent Rewarded(address indexed _campaign, address indexed _to, uint256 _amount);\n    event Fulfilled(address indexed _campaign, address indexed _converter, uint256 indexed _tokenID, address _childContractID, uint256 _indexOrAmount);\n    event Cancelled(address indexed _campaign, address indexed _converter, uint256 indexed _tokenID, address _childContractID, uint256 _indexOrAmount);\n\n    function created(// address _campaign, // TODO Yoram are you OK with this?\n\t\taddress _owner) public {\n\t\taddress _campaign = msg.sender;\n\t\t// TODO Yoram: check if we can get the code of c and check if the has exists in a list allowed codes\n\t\t// TODO Yoram: only the owner of TwoKeyReg is allowed to edit the list of allowed codes\n    \temit Created(_owner, _campaign);\n    }\n\n    function joined(// address _campaign, // TODO Yoram are you OK with this?\n//\t\taddress _from,  // TODO Yoram are you OK with this?\n\t\taddress _to) public {\n\t\taddress _campaign = msg.sender;\n    \temit Joined(_to, _campaign); // TODO Yoram Joined event is different\n    }\n\n    function escrow(address _campaign, address _escrow, address _sender, uint256 _tokenID, address _childContractID, uint256 _indexOrAmount) public {\n    \temit Escrow(_campaign, _escrow, _sender, _tokenID, _childContractID, _indexOrAmount);\n    }\n\n    function rewarded(address _campaign, address _to, uint256 _amount) public {\n    \temit Rewarded(_campaign, _to, _amount);\n\t}\n\n\tfunction fulfilled(address  _campaign, address _converter, uint256 _tokenID, address _childContractID, uint256 _indexOrAmount) public {\n\t\temit Fulfilled(_campaign, _converter, _tokenID, _childContractID, _indexOrAmount);\n\t}\n\n\tfunction cancelled(address  _campaign, address _converter, uint256 _tokenID, address _childContractID, uint256 _indexOrAmount) public {\n\t\temit Cancelled(_campaign, _converter, _tokenID, _childContractID, _indexOrAmount);\n\t}\n\n}",
  "sourcePath": "/Users/aydnep/2key/contracts/contracts/TwoKeyEventSource.sol",
  "compiler": {
    "name": "solc",
    "version": "0.4.24+commit.e67f0147.Emscripten.clang"
  },
  "schemaVersion": "2.0.1",
  "updatedAt": "2018-08-24T08:05:25.977Z"
}