{
  "contractName": "TwoKeyAdmin",
  "abi": [
    {
      "constant": false,
      "inputs": [],
      "name": "renounceOwnership",
      "outputs": [],
      "payable": false,
      "stateMutability": "nonpayable",
      "type": "function"
    },
    {
      "constant": true,
      "inputs": [],
      "name": "owner",
      "outputs": [
        {
          "name": "",
          "type": "address"
        }
      ],
      "payable": false,
      "stateMutability": "view",
      "type": "function"
    },
    {
      "constant": false,
      "inputs": [
        {
          "name": "_newOwner",
          "type": "address"
        }
      ],
      "name": "transferOwnership",
      "outputs": [],
      "payable": false,
      "stateMutability": "nonpayable",
      "type": "function"
    },
    {
      "constant": false,
      "inputs": [
        {
          "name": "_recipient",
          "type": "address"
        }
      ],
      "name": "destroyAndSend",
      "outputs": [],
      "payable": false,
      "stateMutability": "nonpayable",
      "type": "function"
    },
    {
      "inputs": [
        {
          "name": "_electorateAdmins",
          "type": "address"
        },
        {
          "name": "_exchange",
          "type": "address"
        }
      ],
      "payable": true,
      "stateMutability": "payable",
      "type": "constructor"
    },
    {
      "payable": true,
      "stateMutability": "payable",
      "type": "fallback"
    },
    {
      "anonymous": false,
      "inputs": [
        {
          "indexed": true,
          "name": "previousOwner",
          "type": "address"
        }
      ],
      "name": "OwnershipRenounced",
      "type": "event"
    },
    {
      "anonymous": false,
      "inputs": [
        {
          "indexed": true,
          "name": "previousOwner",
          "type": "address"
        },
        {
          "indexed": true,
          "name": "newOwner",
          "type": "address"
        }
      ],
      "name": "OwnershipTransferred",
      "type": "event"
    },
    {
      "constant": false,
      "inputs": [
        {
          "name": "newAdminContract",
          "type": "address"
        }
      ],
      "name": "replaceOneself",
      "outputs": [],
      "payable": false,
      "stateMutability": "nonpayable",
      "type": "function"
    },
    {
      "constant": false,
      "inputs": [
        {
          "name": "_to",
          "type": "address"
        },
        {
          "name": "_tokens",
          "type": "uint256"
        }
      ],
      "name": "transferByAdmins",
      "outputs": [],
      "payable": false,
      "stateMutability": "nonpayable",
      "type": "function"
    },
    {
      "constant": false,
      "inputs": [
        {
          "name": "newExchange",
          "type": "address"
        }
      ],
      "name": "upgradeEconomyExchangeByAdmins",
      "outputs": [],
      "payable": false,
      "stateMutability": "nonpayable",
      "type": "function"
    },
    {
      "constant": false,
      "inputs": [
        {
          "name": "to",
          "type": "address"
        },
        {
          "name": "amount",
          "type": "uint256"
        }
      ],
      "name": "transferEtherByAdmins",
      "outputs": [],
      "payable": false,
      "stateMutability": "nonpayable",
      "type": "function"
    },
    {
      "constant": false,
      "inputs": [],
      "name": "destroy",
      "outputs": [],
      "payable": false,
      "stateMutability": "nonpayable",
      "type": "function"
    },
    {
      "constant": false,
      "inputs": [
        {
          "name": "_address",
          "type": "address"
        }
      ],
      "name": "twoKeyEventSourceAddAuthorizedAddress",
      "outputs": [],
      "payable": false,
      "stateMutability": "nonpayable",
      "type": "function"
    },
    {
      "constant": false,
      "inputs": [
        {
          "name": "_twoKeyEventSource",
          "type": "address"
        }
      ],
      "name": "addTwoKeyEventSource",
      "outputs": [],
      "payable": false,
      "stateMutability": "nonpayable",
      "type": "function"
    },
    {
      "constant": false,
      "inputs": [
        {
          "name": "_contractAddress",
          "type": "address"
        }
      ],
      "name": "twoKeyEventSourceAddAuthorizedContracts",
      "outputs": [],
      "payable": false,
      "stateMutability": "nonpayable",
      "type": "function"
    },
    {
      "constant": false,
      "inputs": [
        {
          "name": "_economy",
          "type": "address"
        }
      ],
      "name": "setTwoKeyEconomy",
      "outputs": [],
      "payable": false,
      "stateMutability": "nonpayable",
      "type": "function"
    },
    {
      "constant": false,
      "inputs": [
        {
          "name": "_address",
          "type": "address"
        }
      ],
      "name": "setTwoKeyReg",
      "outputs": [],
      "payable": false,
      "stateMutability": "nonpayable",
      "type": "function"
    },
    {
      "constant": false,
      "inputs": [
        {
          "name": "_exchange",
          "type": "address"
        }
      ],
      "name": "setTwoKeyExchange",
      "outputs": [],
      "payable": false,
      "stateMutability": "nonpayable",
      "type": "function"
    },
    {
      "constant": true,
      "inputs": [],
      "name": "getTwoKeyEconomy",
      "outputs": [
        {
          "name": "_economy",
          "type": "address"
        }
      ],
      "payable": false,
      "stateMutability": "view",
      "type": "function"
    },
    {
      "constant": true,
      "inputs": [],
      "name": "getTwoKeyReg",
      "outputs": [
        {
          "name": "_address",
          "type": "address"
        }
      ],
      "payable": false,
      "stateMutability": "view",
      "type": "function"
    }
  ],
  "bytecode": "0x6080604052604051604080611a7a8339810180604052810190808051906020019092919080519060200190929190505050336000806101000a81548173ffffffffffffffffffffffffffffffffffffffff021916908373ffffffffffffffffffffffffffffffffffffffff160217905550600073ffffffffffffffffffffffffffffffffffffffff168273ffffffffffffffffffffffffffffffffffffffff16141515156100ac57600080fd5b600073ffffffffffffffffffffffffffffffffffffffff168173ffffffffffffffffffffffffffffffffffffffff16141515156100e857600080fd5b6000600460146101000a81548160ff02191690831515021790555080600360006101000a81548173ffffffffffffffffffffffffffffffffffffffff021916908373ffffffffffffffffffffffffffffffffffffffff16021790555081600260006101000a81548173ffffffffffffffffffffffffffffffffffffffff021916908373ffffffffffffffffffffffffffffffffffffffff16021790555050506118e4806101966000396000f3006080604052600436106100f1576000357c0100000000000000000000000000000000000000000000000000000000900463ffffffff168063036ec727146101725780630a408e12146101b5578063139468b9146101f857806338a35aba146102455780634ee5eada14610288578063630de413146102df578063715018a6146103225780637fc7a28b1461033957806383197ef01461037c57806388478c92146103935780638da5cb5b146103d6578063a3b688f21461042d578063b2bf67ac1461047a578063ccb9a0ec146104bd578063ebdb212214610514578063f2fde38b14610557578063f5074f411461059a575b600460149054906101000a900460ff161561017057600460009054906101000a900473ffffffffffffffffffffffffffffffffffffffff1673ffffffffffffffffffffffffffffffffffffffff166108fc349081150290604051600060405180830381858888f1935050505015801561016e573d6000803e3d6000fd5b505b005b34801561017e57600080fd5b506101b3600480360381019080803573ffffffffffffffffffffffffffffffffffffffff1690602001909291905050506105dd565b005b3480156101c157600080fd5b506101f6600480360381019080803573ffffffffffffffffffffffffffffffffffffffff16906020019092919050505061065d565b005b34801561020457600080fd5b50610243600480360381019080803573ffffffffffffffffffffffffffffffffffffffff169060200190929190803590602001909291905050506107e4565b005b34801561025157600080fd5b50610286600480360381019080803573ffffffffffffffffffffffffffffffffffffffff169060200190929190505050610961565b005b34801561029457600080fd5b5061029d6109e1565b604051808273ffffffffffffffffffffffffffffffffffffffff1673ffffffffffffffffffffffffffffffffffffffff16815260200191505060405180910390f35b3480156102eb57600080fd5b50610320600480360381019080803573ffffffffffffffffffffffffffffffffffffffff169060200190929190505050610a0b565b005b34801561032e57600080fd5b50610337610ffb565b005b34801561034557600080fd5b5061037a600480360381019080803573ffffffffffffffffffffffffffffffffffffffff1690602001909291905050506110fd565b005b34801561038857600080fd5b5061039161117d565b005b34801561039f57600080fd5b506103d4600480360381019080803573ffffffffffffffffffffffffffffffffffffffff169060200190929190505050611263565b005b3480156103e257600080fd5b506103eb611377565b604051808273ffffffffffffffffffffffffffffffffffffffff1673ffffffffffffffffffffffffffffffffffffffff16815260200191505060405180910390f35b34801561043957600080fd5b50610478600480360381019080803573ffffffffffffffffffffffffffffffffffffffff1690602001909291908035906020019092919050505061139c565b005b34801561048657600080fd5b506104bb600480360381019080803573ffffffffffffffffffffffffffffffffffffffff1690602001909291905050506114a7565b005b3480156104c957600080fd5b506104d26115bb565b604051808273ffffffffffffffffffffffffffffffffffffffff1673ffffffffffffffffffffffffffffffffffffffff16815260200191505060405180910390f35b34801561052057600080fd5b50610555600480360381019080803573ffffffffffffffffffffffffffffffffffffffff1690602001909291905050506115e5565b005b34801561056357600080fd5b50610598600480360381019080803573ffffffffffffffffffffffffffffffffffffffff1690602001909291905050506116e3565b005b3480156105a657600080fd5b506105db600480360381019080803573ffffffffffffffffffffffffffffffffffffffff16906020019092919050505061174a565b005b600073ffffffffffffffffffffffffffffffffffffffff168173ffffffffffffffffffffffffffffffffffffffff161415151561061957600080fd5b80600560006101000a81548173ffffffffffffffffffffffffffffffffffffffff021916908373ffffffffffffffffffffffffffffffffffffffff16021790555050565b600460149054906101000a900460ff1615151561067957600080fd5b600260009054906101000a900473ffffffffffffffffffffffffffffffffffffffff1673ffffffffffffffffffffffffffffffffffffffff163373ffffffffffffffffffffffffffffffffffffffff161415156106d557600080fd5b600073ffffffffffffffffffffffffffffffffffffffff168173ffffffffffffffffffffffffffffffffffffffff161415156107e157600360009054906101000a900473ffffffffffffffffffffffffffffffffffffffff1673ffffffffffffffffffffffffffffffffffffffff16630900f010826040518263ffffffff167c0100000000000000000000000000000000000000000000000000000000028152600401808273ffffffffffffffffffffffffffffffffffffffff1673ffffffffffffffffffffffffffffffffffffffff168152602001915050600060405180830381600087803b1580156107c857600080fd5b505af11580156107dc573d6000803e3d6000fd5b505050505b50565b600460149054906101000a900460ff1615151561080057600080fd5b600260009054906101000a900473ffffffffffffffffffffffffffffffffffffffff1673ffffffffffffffffffffffffffffffffffffffff163373ffffffffffffffffffffffffffffffffffffffff1614151561085c57600080fd5b600160009054906101000a900473ffffffffffffffffffffffffffffffffffffffff1673ffffffffffffffffffffffffffffffffffffffff1663a9059cbb83836040518363ffffffff167c0100000000000000000000000000000000000000000000000000000000028152600401808373ffffffffffffffffffffffffffffffffffffffff1673ffffffffffffffffffffffffffffffffffffffff16815260200182815260200192505050602060405180830381600087803b15801561092157600080fd5b505af1158015610935573d6000803e3d6000fd5b505050506040513d602081101561094b57600080fd5b8101908080519060200190929190505050505050565b600073ffffffffffffffffffffffffffffffffffffffff168173ffffffffffffffffffffffffffffffffffffffff161415151561099d57600080fd5b80600160006101000a81548173ffffffffffffffffffffffffffffffffffffffff021916908373ffffffffffffffffffffffffffffffffffffffff16021790555050565b6000600660009054906101000a900473ffffffffffffffffffffffffffffffffffffffff16905090565b600080600460149054906101000a900460ff16151515610a2a57600080fd5b600260009054906101000a900473ffffffffffffffffffffffffffffffffffffffff1673ffffffffffffffffffffffffffffffffffffffff163373ffffffffffffffffffffffffffffffffffffffff16141515610a8657600080fd5b600160009054906101000a900473ffffffffffffffffffffffffffffffffffffffff1673ffffffffffffffffffffffffffffffffffffffff166370a08231306040518263ffffffff167c0100000000000000000000000000000000000000000000000000000000028152600401808273ffffffffffffffffffffffffffffffffffffffff1673ffffffffffffffffffffffffffffffffffffffff168152602001915050602060405180830381600087803b158015610b4357600080fd5b505af1158015610b57573d6000803e3d6000fd5b505050506040513d6020811015610b6d57600080fd5b8101908080519060200190929190505050915082905082600460006101000a81548173ffffffffffffffffffffffffffffffffffffffff021916908373ffffffffffffffffffffffffffffffffffffffff1602179055508073ffffffffffffffffffffffffffffffffffffffff166338a35aba600160009054906101000a900473ffffffffffffffffffffffffffffffffffffffff166040518263ffffffff167c0100000000000000000000000000000000000000000000000000000000028152600401808273ffffffffffffffffffffffffffffffffffffffff1673ffffffffffffffffffffffffffffffffffffffff168152602001915050600060405180830381600087803b158015610c8157600080fd5b505af1158015610c95573d6000803e3d6000fd5b505050508073ffffffffffffffffffffffffffffffffffffffff16637fc7a28b600660009054906101000a900473ffffffffffffffffffffffffffffffffffffffff166040518263ffffffff167c0100000000000000000000000000000000000000000000000000000000028152600401808273ffffffffffffffffffffffffffffffffffffffff1673ffffffffffffffffffffffffffffffffffffffff168152602001915050600060405180830381600087803b158015610d5657600080fd5b505af1158015610d6a573d6000803e3d6000fd5b505050506001600460146101000a81548160ff021916908315150217905550600160009054906101000a900473ffffffffffffffffffffffffffffffffffffffff1673ffffffffffffffffffffffffffffffffffffffff1663a9059cbb84846040518363ffffffff167c0100000000000000000000000000000000000000000000000000000000028152600401808373ffffffffffffffffffffffffffffffffffffffff1673ffffffffffffffffffffffffffffffffffffffff16815260200182815260200192505050602060405180830381600087803b158015610e4e57600080fd5b505af1158015610e62573d6000803e3d6000fd5b505050506040513d6020811015610e7857600080fd5b810190808051906020019092919050505050600160009054906101000a900473ffffffffffffffffffffffffffffffffffffffff1673ffffffffffffffffffffffffffffffffffffffff1663b25fa92c846040518263ffffffff167c0100000000000000000000000000000000000000000000000000000000028152600401808273ffffffffffffffffffffffffffffffffffffffff1673ffffffffffffffffffffffffffffffffffffffff16815260200180602001828103825260058152602001807f61646d696e00000000000000000000000000000000000000000000000000000081525060200192505050600060405180830381600087803b158015610f8057600080fd5b505af1158015610f94573d6000803e3d6000fd5b505050508273ffffffffffffffffffffffffffffffffffffffff166108fc3073ffffffffffffffffffffffffffffffffffffffff16319081150290604051600060405180830381858888f19350505050158015610ff5573d6000803e3d6000fd5b50505050565b6000809054906101000a900473ffffffffffffffffffffffffffffffffffffffff1673ffffffffffffffffffffffffffffffffffffffff163373ffffffffffffffffffffffffffffffffffffffff1614151561105657600080fd5b6000809054906101000a900473ffffffffffffffffffffffffffffffffffffffff1673ffffffffffffffffffffffffffffffffffffffff167ff8df31144d9c2f0f6b59d69b8b98abd5459d07f2742c4df920b25aae33c6482060405160405180910390a260008060006101000a81548173ffffffffffffffffffffffffffffffffffffffff021916908373ffffffffffffffffffffffffffffffffffffffff160217905550565b600073ffffffffffffffffffffffffffffffffffffffff168173ffffffffffffffffffffffffffffffffffffffff161415151561113957600080fd5b80600660006101000a81548173ffffffffffffffffffffffffffffffffffffffff021916908373ffffffffffffffffffffffffffffffffffffffff16021790555050565b600260009054906101000a900473ffffffffffffffffffffffffffffffffffffffff1673ffffffffffffffffffffffffffffffffffffffff163373ffffffffffffffffffffffffffffffffffffffff161415156111d957600080fd5b600460149054906101000a900460ff1615611228576000809054906101000a900473ffffffffffffffffffffffffffffffffffffffff1673ffffffffffffffffffffffffffffffffffffffff16ff5b600460009054906101000a900473ffffffffffffffffffffffffffffffffffffffff1673ffffffffffffffffffffffffffffffffffffffff16ff5b600073ffffffffffffffffffffffffffffffffffffffff168173ffffffffffffffffffffffffffffffffffffffff161415151561129f57600080fd5b600560009054906101000a900473ffffffffffffffffffffffffffffffffffffffff1673ffffffffffffffffffffffffffffffffffffffff166342f1181e826040518263ffffffff167c0100000000000000000000000000000000000000000000000000000000028152600401808273ffffffffffffffffffffffffffffffffffffffff1673ffffffffffffffffffffffffffffffffffffffff168152602001915050600060405180830381600087803b15801561135c57600080fd5b505af1158015611370573d6000803e3d6000fd5b5050505050565b6000809054906101000a900473ffffffffffffffffffffffffffffffffffffffff1681565b600460149054906101000a900460ff161515156113b857600080fd5b600260009054906101000a900473ffffffffffffffffffffffffffffffffffffffff1673ffffffffffffffffffffffffffffffffffffffff163373ffffffffffffffffffffffffffffffffffffffff1614151561141457600080fd5b600073ffffffffffffffffffffffffffffffffffffffff168273ffffffffffffffffffffffffffffffffffffffff16141580156114515750600081115b151561145c57600080fd5b8173ffffffffffffffffffffffffffffffffffffffff166108fc829081150290604051600060405180830381858888f193505050501580156114a2573d6000803e3d6000fd5b505050565b600073ffffffffffffffffffffffffffffffffffffffff168173ffffffffffffffffffffffffffffffffffffffff16141515156114e357600080fd5b600560009054906101000a900473ffffffffffffffffffffffffffffffffffffffff1673ffffffffffffffffffffffffffffffffffffffff16635f539d69826040518263ffffffff167c0100000000000000000000000000000000000000000000000000000000028152600401808273ffffffffffffffffffffffffffffffffffffffff1673ffffffffffffffffffffffffffffffffffffffff168152602001915050600060405180830381600087803b1580156115a057600080fd5b505af11580156115b4573d6000803e3d6000fd5b5050505050565b6000600160009054906101000a900473ffffffffffffffffffffffffffffffffffffffff16905090565b600260009054906101000a900473ffffffffffffffffffffffffffffffffffffffff1673ffffffffffffffffffffffffffffffffffffffff163373ffffffffffffffffffffffffffffffffffffffff1614151561164157600080fd5b600073ffffffffffffffffffffffffffffffffffffffff168173ffffffffffffffffffffffffffffffffffffffff161415151561167d57600080fd5b600360009054906101000a900473ffffffffffffffffffffffffffffffffffffffff16600360006101000a81548173ffffffffffffffffffffffffffffffffffffffff021916908373ffffffffffffffffffffffffffffffffffffffff16021790555050565b6000809054906101000a900473ffffffffffffffffffffffffffffffffffffffff1673ffffffffffffffffffffffffffffffffffffffff163373ffffffffffffffffffffffffffffffffffffffff1614151561173e57600080fd5b611747816117be565b50565b6000809054906101000a900473ffffffffffffffffffffffffffffffffffffffff1673ffffffffffffffffffffffffffffffffffffffff163373ffffffffffffffffffffffffffffffffffffffff161415156117a557600080fd5b8073ffffffffffffffffffffffffffffffffffffffff16ff5b600073ffffffffffffffffffffffffffffffffffffffff168173ffffffffffffffffffffffffffffffffffffffff16141515156117fa57600080fd5b8073ffffffffffffffffffffffffffffffffffffffff166000809054906101000a900473ffffffffffffffffffffffffffffffffffffffff1673ffffffffffffffffffffffffffffffffffffffff167f8be0079c531659141344cd1fd0a4f28419497f9722a3daafe3b4186f6b6457e060405160405180910390a3806000806101000a81548173ffffffffffffffffffffffffffffffffffffffff021916908373ffffffffffffffffffffffffffffffffffffffff160217905550505600a165627a7a72305820c12ea7cec8d2ab07a3184a7ed69c0c5d08da2e5462a443a54c75adc610e723c00029",
  "source": "pragma solidity ^0.4.24; \n\nimport '../openzeppelin-solidity/contracts/lifecycle/Destructible.sol';\nimport '../openzeppelin-solidity/contracts/ownership/Ownable.sol';\n\nimport './TwoKeyEconomy.sol';\nimport './TwoKeyUpgradableExchange.sol';\nimport \"../interfaces/IAdminContract.sol\";\nimport \"./TwoKeyEventSource.sol\";\nimport \"./TwoKeyReg.sol\";\n\n\n\n// SAFT are to be implemented by transferEtherByAdmins with the amount including the discount, according to the prevailing rate\n\ncontract TwoKeyAdmin is  Ownable, Destructible, AdminContract {\n\n\t\n\n\tTwoKeyEconomy private economy;\n\taddress private electorateAdmins;\n\tTwoKeyUpgradableExchange private exchange;\n\taddress private newTwoKeyAdminAddress;\n\tbool private wasReplaced; \n\tTwoKeyEventSource twoKeyEventSource;\n\tTwoKeyReg private twoKeyReg;\n\n\tconstructor(\n\t\taddress _electorateAdmins,\n\t\tTwoKeyUpgradableExchange _exchange\n\t) Ownable() Destructible() payable public {\n\t\trequire(_electorateAdmins != address(0));\n\t\trequire(_exchange != address(0));\n\t\twasReplaced = false;\n\t\texchange = _exchange;\n\t\telectorateAdmins = _electorateAdmins;\t\n\t}\n\n\tfunction replaceOneself(address newAdminContract) external wasNotReplaced adminsVotingApproved {\n\t\t// take care of : twoKeyReg, TwoKeyEconomy, twoKeyEventSource,TwoKeyUpgradableExchange\n\n\t\t//AdminContract adminContract = AdminContract(newAdminContract);\n\t\t//uint balanceOfOldAdmin = economy.balanceOf(adminContract);\n\t\t\n\t\tuint balanceOfOldAdmin = economy.balanceOf(address(this\t));\n\t\tTwoKeyAdmin newAdminContractObject= TwoKeyAdmin(newAdminContract);\n\t\tnewTwoKeyAdminAddress=newAdminContract;\n\n\t\t// move to deploy\n\t\t// assign default values to new admin here:\n\t\t newAdminContractObject.setTwoKeyEconomy(economy);\n\t\t//newAdminContract.SetTwoKeyExchange(exchange);\n\t\t newAdminContractObject.setTwoKeyReg(twoKeyReg);\n\n\n\t\twasReplaced = true;\n\n\t\teconomy.transfer(newAdminContract, balanceOfOldAdmin);\t\n\t\t//economy.transferOwnership(newAdminContract);\n\n\t\t//economy.transferOwnership(newAdminContract)\n\t\teconomy.adminAddRole(newAdminContract,\"admin\");\n\t\t//exchange.transferOwnership(newAdminContract); // need to take care\n\t\tnewAdminContract.transfer(address(this).balance);\n\t\t//eventsource\t\n\t}\n\n\t\n\n\tfunction transferByAdmins(address _to, uint256 _tokens) external wasNotReplaced adminsVotingApproved {\n\t\teconomy.transfer(_to, _tokens);\n\t}\n\n\n\tfunction upgradeEconomyExchangeByAdmins(address newExchange) external wasNotReplaced adminsVotingApproved {\n\t\tif (newExchange != address(0))\n\t\t\texchange.upgrade(newExchange);\n\t}\n\n\tfunction transferEtherByAdmins(address to, uint256 amount) external wasNotReplaced adminsVotingApproved {\n\t\trequire(to != address(0)  && amount > 0);\n\t\tto.transfer(amount);\n\t}\n\n\n\t// lifecycle methods\n\n\tfunction() public payable {\n\t\tif (wasReplaced) {\n\t\t\tnewTwoKeyAdminAddress.transfer(msg.value);\n\t\t}\n\t}\n\n\tfunction destroy() public adminsVotingApproved {\n\t\tif (wasReplaced)\n\t\t\tselfdestruct(owner);\n\t\telse\n\t\t\tselfdestruct(newTwoKeyAdminAddress);\n\t}\n\n\t// modifiers\n\tmodifier adminsVotingApproved() {\n\t\trequire(msg.sender == electorateAdmins);\n\t    _;\n\t}\n\n\tmodifier wasNotReplaced() {\n\t\trequire(!wasReplaced);\n\t\t_;\n\t}\n\n\tfunction twoKeyEventSourceAddAuthorizedAddress(address _address) public {\n\t\trequire(_address != address(0));\n\t\ttwoKeyEventSource.addAuthorizedAddress(_address);\n\t}\n\tfunction addTwoKeyEventSource(address _twoKeyEventSource) public {\n\t\trequire(_twoKeyEventSource != address(0));\n\t\ttwoKeyEventSource = TwoKeyEventSource(_twoKeyEventSource);\n\t}\n\n\tfunction twoKeyEventSourceAddAuthorizedContracts(address _contractAddress) public {\n\t\trequire(_contractAddress != address(0));\n\t\ttwoKeyEventSource.addContract(_contractAddress);\n\t}\n\n\t// modifier for admin call check\n\t//<TBD> may be owner\n    function setTwoKeyEconomy(address _economy) public   {\n\t\trequire(_economy != address(0));\n    \teconomy = TwoKeyEconomy(_economy);\n\n    }\n\n\t// modifier for admin call check\n\t//<TBD> may be owner\n    function setTwoKeyReg(address _address) public  {\n\t\trequire(_address != address(0));\n    \ttwoKeyReg = TwoKeyReg(_address);\n\n    }\n\n\tfunction setTwoKeyExchange(address _exchange) public adminsVotingApproved {\n\t\trequire(_exchange != address(0));\n    \texchange = TwoKeyUpgradableExchange(exchange);\n    \t\n    }\n\n\n// modifier for admin call check\n\t//<TBD> may be owner\n    function getTwoKeyEconomy () public view  returns(address _economy)  {\n    \treturn address(economy);\n    }\n\n    // modifier for admin call check\n\t//<TBD> may be owner\n    function getTwoKeyReg () public view  returns(address _address)  {\n    \treturn address(twoKeyReg);\n    }\n    \n} ",
  "sourcePath": "/Users/nikolamadjarevic/Desktop/2key/contracts/contracts/2key/TwoKeyAdmin.sol",
  "compiler": {
    "name": "solc",
    "version": "0.4.24+commit.e67f0147.Emscripten.clang"
  },
  "schemaVersion": "2.0.1",
  "updatedAt": "2018-09-03T20:38:03.022Z"
}