{
  "contractName": "TwoKeyAcquisitionCampaignERC20",
  "abi": [
    {
      "constant": true,
      "inputs": [
        {
          "name": "",
          "type": "address"
        }
      ],
      "name": "units",
      "outputs": [
        {
          "name": "",
          "type": "uint256"
        }
      ],
      "payable": false,
      "stateMutability": "view",
      "type": "function"
    },
    {
      "constant": true,
      "inputs": [],
      "name": "name",
      "outputs": [
        {
          "name": "",
          "type": "string"
        }
      ],
      "payable": false,
      "stateMutability": "view",
      "type": "function"
    },
    {
      "constant": false,
      "inputs": [
        {
          "name": "_spender",
          "type": "address"
        },
        {
          "name": "_value",
          "type": "uint256"
        }
      ],
      "name": "approve",
      "outputs": [
        {
          "name": "",
          "type": "bool"
        }
      ],
      "payable": false,
      "stateMutability": "nonpayable",
      "type": "function"
    },
    {
      "constant": false,
      "inputs": [
        {
          "name": "_to",
          "type": "address"
        },
        {
          "name": "_value",
          "type": "uint256"
        }
      ],
      "name": "transferQuota",
      "outputs": [
        {
          "name": "",
          "type": "bool"
        }
      ],
      "payable": false,
      "stateMutability": "nonpayable",
      "type": "function"
    },
    {
      "constant": true,
      "inputs": [],
      "name": "cost",
      "outputs": [
        {
          "name": "",
          "type": "uint256"
        }
      ],
      "payable": false,
      "stateMutability": "view",
      "type": "function"
    },
    {
      "constant": true,
      "inputs": [
        {
          "name": "c",
          "type": "address"
        },
        {
          "name": "_method",
          "type": "bytes"
        },
        {
          "name": "_val",
          "type": "uint256"
        }
      ],
      "name": "call_return",
      "outputs": [
        {
          "name": "answer",
          "type": "uint256"
        }
      ],
      "payable": false,
      "stateMutability": "view",
      "type": "function"
    },
    {
      "constant": true,
      "inputs": [],
      "name": "totalSupply",
      "outputs": [
        {
          "name": "",
          "type": "uint256"
        }
      ],
      "payable": false,
      "stateMutability": "view",
      "type": "function"
    },
    {
      "constant": false,
      "inputs": [
        {
          "name": "_from",
          "type": "address"
        },
        {
          "name": "_to",
          "type": "address"
        },
        {
          "name": "_value",
          "type": "uint256"
        }
      ],
      "name": "transferFrom",
      "outputs": [
        {
          "name": "",
          "type": "bool"
        }
      ],
      "payable": false,
      "stateMutability": "nonpayable",
      "type": "function"
    },
    {
      "constant": true,
      "inputs": [
        {
          "name": "",
          "type": "address"
        }
      ],
      "name": "received_from",
      "outputs": [
        {
          "name": "",
          "type": "address"
        }
      ],
      "payable": false,
      "stateMutability": "view",
      "type": "function"
    },
    {
      "constant": true,
      "inputs": [],
      "name": "decimals",
      "outputs": [
        {
          "name": "",
          "type": "uint8"
        }
      ],
      "payable": false,
      "stateMutability": "view",
      "type": "function"
    },
    {
      "constant": true,
      "inputs": [
        {
          "name": "",
          "type": "address"
        }
      ],
      "name": "public_link_key",
      "outputs": [
        {
          "name": "",
          "type": "address"
        }
      ],
      "payable": false,
      "stateMutability": "view",
      "type": "function"
    },
    {
      "constant": false,
      "inputs": [
        {
          "name": "_from",
          "type": "address"
        },
        {
          "name": "_to",
          "type": "address"
        },
        {
          "name": "_value",
          "type": "uint256"
        }
      ],
      "name": "transferFromQuota",
      "outputs": [
        {
          "name": "",
          "type": "bool"
        }
      ],
      "payable": false,
      "stateMutability": "nonpayable",
      "type": "function"
    },
    {
      "constant": false,
      "inputs": [
        {
          "name": "_spender",
          "type": "address"
        },
        {
          "name": "_subtractedValue",
          "type": "uint256"
        }
      ],
      "name": "decreaseApproval",
      "outputs": [
        {
          "name": "",
          "type": "bool"
        }
      ],
      "payable": false,
      "stateMutability": "nonpayable",
      "type": "function"
    },
    {
      "constant": true,
      "inputs": [
        {
          "name": "_owner",
          "type": "address"
        }
      ],
      "name": "balanceOf",
      "outputs": [
        {
          "name": "",
          "type": "uint256"
        }
      ],
      "payable": false,
      "stateMutability": "view",
      "type": "function"
    },
    {
      "constant": true,
      "inputs": [],
      "name": "ipfs_hash",
      "outputs": [
        {
          "name": "",
          "type": "string"
        }
      ],
      "payable": false,
      "stateMutability": "view",
      "type": "function"
    },
    {
      "constant": true,
      "inputs": [],
      "name": "bounty",
      "outputs": [
        {
          "name": "",
          "type": "uint256"
        }
      ],
      "payable": false,
      "stateMutability": "view",
      "type": "function"
    },
    {
      "constant": true,
      "inputs": [],
      "name": "symbol",
      "outputs": [
        {
          "name": "",
          "type": "string"
        }
      ],
      "payable": false,
      "stateMutability": "view",
      "type": "function"
    },
    {
      "constant": true,
      "inputs": [
        {
          "name": "",
          "type": "address"
        }
      ],
      "name": "influencer2cut",
      "outputs": [
        {
          "name": "",
          "type": "uint256"
        }
      ],
      "payable": false,
      "stateMutability": "view",
      "type": "function"
    },
    {
      "constant": false,
      "inputs": [
        {
          "name": "_to",
          "type": "address"
        },
        {
          "name": "_value",
          "type": "uint256"
        }
      ],
      "name": "transfer",
      "outputs": [
        {
          "name": "",
          "type": "bool"
        }
      ],
      "payable": false,
      "stateMutability": "nonpayable",
      "type": "function"
    },
    {
      "constant": true,
      "inputs": [],
      "name": "quota",
      "outputs": [
        {
          "name": "",
          "type": "uint256"
        }
      ],
      "payable": false,
      "stateMutability": "view",
      "type": "function"
    },
    {
      "constant": false,
      "inputs": [
        {
          "name": "_spender",
          "type": "address"
        },
        {
          "name": "_addedValue",
          "type": "uint256"
        }
      ],
      "name": "increaseApproval",
      "outputs": [
        {
          "name": "",
          "type": "bool"
        }
      ],
      "payable": false,
      "stateMutability": "nonpayable",
      "type": "function"
    },
    {
      "constant": true,
      "inputs": [
        {
          "name": "_owner",
          "type": "address"
        },
        {
          "name": "_spender",
          "type": "address"
        }
      ],
      "name": "allowance",
      "outputs": [
        {
          "name": "",
          "type": "uint256"
        }
      ],
      "payable": false,
      "stateMutability": "view",
      "type": "function"
    },
    {
      "constant": true,
      "inputs": [
        {
          "name": "",
          "type": "address"
        }
      ],
      "name": "conversions",
      "outputs": [
        {
          "name": "from",
          "type": "address"
        },
        {
          "name": "payout",
          "type": "uint256"
        },
        {
          "name": "converter",
          "type": "address"
        },
        {
          "name": "isFulfilled",
          "type": "bool"
        },
        {
          "name": "isCancelled",
          "type": "bool"
        },
        {
          "name": "assetName",
          "type": "string"
        },
        {
          "name": "assetContract",
          "type": "address"
        },
        {
          "name": "amount",
          "type": "uint256"
        },
        {
          "name": "campaignType",
          "type": "uint8"
        },
        {
          "name": "openingTime",
          "type": "uint256"
        },
        {
          "name": "closingTime",
          "type": "uint256"
        }
      ],
      "payable": false,
      "stateMutability": "view",
      "type": "function"
    },
    {
      "inputs": [
        {
          "name": "_twoKeyEventSource",
          "type": "address"
        },
        {
          "name": "_twoKeyEconomy",
          "type": "address"
        },
        {
          "name": "_whitelistInfluencer",
          "type": "address"
        },
        {
          "name": "_whitelistConverter",
          "type": "address"
        },
        {
          "name": "_contractor",
          "type": "address"
        },
        {
          "name": "_moderator",
          "type": "address"
        },
        {
          "name": "_openingTime",
          "type": "uint256"
        },
        {
          "name": "_closingTime",
          "type": "uint256"
        },
        {
          "name": "_expiryConversion",
          "type": "uint256"
        },
        {
          "name": "_escrowPercentage",
          "type": "uint256"
        },
        {
          "name": "_rate",
          "type": "uint256"
        },
        {
          "name": "_maxPi",
          "type": "uint256"
        },
        {
          "name": "_assetContract",
          "type": "address"
        }
      ],
      "payable": false,
      "stateMutability": "nonpayable",
      "type": "constructor"
    },
    {
      "payable": true,
      "stateMutability": "payable",
      "type": "fallback"
    },
    {
      "anonymous": false,
      "inputs": [
        {
          "indexed": true,
          "name": "to",
          "type": "address"
        },
        {
          "indexed": false,
          "name": "units",
          "type": "uint256"
        }
      ],
      "name": "Fulfilled",
      "type": "event"
    },
    {
      "anonymous": false,
      "inputs": [
        {
          "indexed": true,
          "name": "to",
          "type": "address"
        },
        {
          "indexed": false,
          "name": "amount",
          "type": "uint256"
        }
      ],
      "name": "Rewarded",
      "type": "event"
    },
    {
      "anonymous": false,
      "inputs": [
        {
          "indexed": true,
          "name": "_contract",
          "type": "address"
        }
      ],
      "name": "Expired",
      "type": "event"
    },
    {
      "anonymous": false,
      "inputs": [
        {
          "indexed": false,
          "name": "_sender",
          "type": "address"
        },
        {
          "indexed": false,
          "name": "value",
          "type": "uint256"
        }
      ],
      "name": "ReceivedEther",
      "type": "event"
    },
    {
      "anonymous": false,
      "inputs": [
        {
          "indexed": true,
          "name": "owner",
          "type": "address"
        },
        {
          "indexed": true,
          "name": "spender",
          "type": "address"
        },
        {
          "indexed": false,
          "name": "value",
          "type": "uint256"
        }
      ],
      "name": "Approval",
      "type": "event"
    },
    {
      "anonymous": false,
      "inputs": [
        {
          "indexed": true,
          "name": "from",
          "type": "address"
        },
        {
          "indexed": true,
          "name": "to",
          "type": "address"
        },
        {
          "indexed": false,
          "name": "value",
          "type": "uint256"
        }
      ],
      "name": "Transfer",
      "type": "event"
    },
    {
      "constant": false,
      "inputs": [
        {
          "name": "_amount",
          "type": "uint256"
        }
      ],
      "name": "addFungibleAsset",
      "outputs": [
        {
          "name": "",
          "type": "bool"
        }
      ],
      "payable": false,
      "stateMutability": "nonpayable",
      "type": "function"
    },
    {
      "constant": true,
      "inputs": [],
      "name": "checkInventoryBalance",
      "outputs": [
        {
          "name": "",
          "type": "uint256"
        }
      ],
      "payable": false,
      "stateMutability": "view",
      "type": "function"
    },
    {
      "constant": false,
      "inputs": [],
      "name": "checkAndUpdateInventoryBalance",
      "outputs": [
        {
          "name": "",
          "type": "uint256"
        }
      ],
      "payable": false,
      "stateMutability": "nonpayable",
      "type": "function"
    },
    {
      "constant": false,
      "inputs": [
        {
          "name": "_from",
          "type": "address"
        },
        {
          "name": "_assetName",
          "type": "string"
        },
        {
          "name": "_amount",
          "type": "uint256"
        }
      ],
      "name": "buyFromWithTwoKey",
      "outputs": [],
      "payable": true,
      "stateMutability": "payable",
      "type": "function"
    },
    {
      "constant": false,
      "inputs": [
        {
          "name": "_tokenID",
          "type": "uint256"
        },
        {
          "name": "_assetContract",
          "type": "address"
        },
        {
          "name": "_amount",
          "type": "uint256"
        }
      ],
      "name": "transferAssetTwoKeyToken",
      "outputs": [],
      "payable": false,
      "stateMutability": "nonpayable",
      "type": "function"
    },
    {
      "constant": false,
      "inputs": [
        {
          "name": "_converter",
          "type": "address"
        },
        {
          "name": "_assetName",
          "type": "string"
        },
        {
          "name": "_assetContract",
          "type": "address"
        },
        {
          "name": "_amount",
          "type": "uint256"
        }
      ],
      "name": "cancelAssetTwoKey",
      "outputs": [
        {
          "name": "",
          "type": "bool"
        }
      ],
      "payable": false,
      "stateMutability": "nonpayable",
      "type": "function"
    },
    {
      "constant": false,
      "inputs": [
        {
          "name": "_converter",
          "type": "address"
        },
        {
          "name": "_assetContract",
          "type": "address"
        },
        {
          "name": "_amount",
          "type": "uint256"
        }
      ],
      "name": "expireEscrow",
      "outputs": [
        {
          "name": "",
          "type": "bool"
        }
      ],
      "payable": false,
      "stateMutability": "nonpayable",
      "type": "function"
    },
    {
      "constant": false,
      "inputs": [
        {
          "name": "_amount",
          "type": "uint256"
        }
      ],
      "name": "redeemTwoKeyToken",
      "outputs": [],
      "payable": false,
      "stateMutability": "nonpayable",
      "type": "function"
    },
    {
      "constant": true,
      "inputs": [
        {
          "name": "_from",
          "type": "address"
        }
      ],
      "name": "checkAmountAddressSent",
      "outputs": [
        {
          "name": "",
          "type": "uint256"
        }
      ],
      "payable": false,
      "stateMutability": "view",
      "type": "function"
    },
    {
      "constant": true,
      "inputs": [],
      "name": "getContractBalance",
      "outputs": [
        {
          "name": "",
          "type": "uint256"
        }
      ],
      "payable": false,
      "stateMutability": "view",
      "type": "function"
    },
    {
      "constant": true,
      "inputs": [],
      "name": "getAssetContractAddress",
      "outputs": [
        {
          "name": "",
          "type": "address"
        }
      ],
      "payable": false,
      "stateMutability": "view",
      "type": "function"
    },
    {
      "constant": false,
      "inputs": [
        {
          "name": "_public_link_key",
          "type": "address"
        }
      ],
      "name": "setPublicLinkKey",
      "outputs": [],
      "payable": false,
      "stateMutability": "nonpayable",
      "type": "function"
    },
    {
      "constant": true,
      "inputs": [
        {
          "name": "last_influencer",
          "type": "address"
        }
      ],
      "name": "getCuts",
      "outputs": [
        {
          "name": "",
          "type": "uint256[]"
        }
      ],
      "payable": false,
      "stateMutability": "view",
      "type": "function"
    },
    {
      "constant": false,
      "inputs": [
        {
          "name": "sig",
          "type": "bytes"
        }
      ],
      "name": "transferSig",
      "outputs": [],
      "payable": false,
      "stateMutability": "nonpayable",
      "type": "function"
    },
    {
      "constant": false,
      "inputs": [],
      "name": "buyProduct",
      "outputs": [],
      "payable": true,
      "stateMutability": "payable",
      "type": "function"
    },
    {
      "constant": false,
      "inputs": [
        {
          "name": "_units",
          "type": "uint256"
        },
        {
          "name": "_bounty",
          "type": "uint256"
        }
      ],
      "name": "updateRefchainRewardsAndConverterProceeds",
      "outputs": [],
      "payable": true,
      "stateMutability": "payable",
      "type": "function"
    }
  ],
  "bytecode": "0x6080604052620f42406003556000600d60006101000a81548160ff021916908360ff1602179055503480156200003457600080fd5b506040516101a080620064a9833981018060405281019080805190602001909291908051906020019092919080519060200190929190805190602001909291908051906020019092919080519060200190929190805190602001909291908051906020019092919080519060200190929190805190602001909291908051906020019092919080519060200190929190805190602001909291905050508c89600073ffffffffffffffffffffffffffffffffffffffff168273ffffffffffffffffffffffffffffffffffffffff16141515156200011057600080fd5b80600760006101000a81548173ffffffffffffffffffffffffffffffffffffffff021916908373ffffffffffffffffffffffffffffffffffffffff16021790555081600660006101000a81548173ffffffffffffffffffffffffffffffffffffffff021916908373ffffffffffffffffffffffffffffffffffffffff1602179055505050600073ffffffffffffffffffffffffffffffffffffffff168c73ffffffffffffffffffffffffffffffffffffffff1614151515620001d157600080fd5b600073ffffffffffffffffffffffffffffffffffffffff168b73ffffffffffffffffffffffffffffffffffffffff16141515156200020e57600080fd5b600073ffffffffffffffffffffffffffffffffffffffff168a73ffffffffffffffffffffffffffffffffffffffff16141515156200024b57600080fd5b600073ffffffffffffffffffffffffffffffffffffffff168173ffffffffffffffffffffffffffffffffffffffff16141515156200028857600080fd5b6000831115156200029857600080fd5b600082111515620002a857600080fd5b8b601960006101000a81548173ffffffffffffffffffffffffffffffffffffffff021916908373ffffffffffffffffffffffffffffffffffffffff1602179055508a601a60006101000a81548173ffffffffffffffffffffffffffffffffffffffff021916908373ffffffffffffffffffffffffffffffffffffffff16021790555089601b60006101000a81548173ffffffffffffffffffffffffffffffffffffffff021916908373ffffffffffffffffffffffffffffffffffffffff16021790555080601660006101000a81548173ffffffffffffffffffffffffffffffffffffffff021916908373ffffffffffffffffffffffffffffffffffffffff16021790555087602060006101000a81548173ffffffffffffffffffffffffffffffffffffffff021916908373ffffffffffffffffffffffffffffffffffffffff16021790555086601e8190555085601f81905550846021819055508360228190555081602381905550600660009054906101000a900473ffffffffffffffffffffffffffffffffffffffff1673ffffffffffffffffffffffffffffffffffffffff16631d18658430600760009054906101000a900473ffffffffffffffffffffffffffffffffffffffff166040518363ffffffff167c0100000000000000000000000000000000000000000000000000000000028152600401808373ffffffffffffffffffffffffffffffffffffffff1673ffffffffffffffffffffffffffffffffffffffff1681526020018273ffffffffffffffffffffffffffffffffffffffff1673ffffffffffffffffffffffffffffffffffffffff16815260200192505050600060405180830381600087803b1580156200052457600080fd5b505af115801562000539573d6000803e3d6000fd5b5050505050505050505050505050505050615f4f806200055a6000396000f3006080604052600436106101e2576000357c0100000000000000000000000000000000000000000000000000000000900463ffffffff168062eba350146102ab57806306fdde0314610302578063095ea7b31461039257806311abc0ca146103f757806312d0ba911461045c57806313faede6146104b357806314b1adee146104de57806318160ddd146105855780631b781a8b146105b057806323b872dd146106195780632d376e941461069e578063313ce5671461072157806332c9b18314610752578063383d0d06146107a9578063442e97dd1461082c5780634d77c9c8146108b157806366188463146108dc5780636f9fb98a1461094157806370a082311461096c578063714cf66b146109c3578063809051db14610a08578063943dfef114610a9857806395d89b4114610ac35780639ada9b7b14610b535780639dc464ae14610b5d578063a9059cbb14610bb4578063b22e8eb614610c19578063c15efea314610c70578063cacb670814610cf5578063cd5b34ea14610d22578063cebe09c914610da8578063d1ec779f14610dd3578063d4d2805614610e16578063d73dd62314610e41578063d851b22914610ea6578063dd62ed3e14610f3e578063dfa54f6614610fb5578063e59f041214610fdf578063ff3e6f291461117b575b6000341115156101f157600080fd5b34601360003373ffffffffffffffffffffffffffffffffffffffff1673ffffffffffffffffffffffffffffffffffffffff168152602001908152602001600020600082825401925050819055507fa419615bc8fda4c87663805ee2a3597a6d71c1d476911d9892f340d965bc7bf13334604051808373ffffffffffffffffffffffffffffffffffffffff1673ffffffffffffffffffffffffffffffffffffffff1681526020018281526020019250505060405180910390a1005b3480156102b757600080fd5b506102ec600480360381019080803573ffffffffffffffffffffffffffffffffffffffff169060200190929190505050611246565b6040518082815260200191505060405180910390f35b34801561030e57600080fd5b5061031761125e565b6040518080602001828103825283818151815260200191508051906020019080838360005b8381101561035757808201518184015260208101905061033c565b50505050905090810190601f1680156103845780820380516001836020036101000a031916815260200191505b509250505060405180910390f35b34801561039e57600080fd5b506103dd600480360381019080803573ffffffffffffffffffffffffffffffffffffffff169060200190929190803590602001909291905050506112fc565b604051808215151515815260200191505060405180910390f35b34801561040357600080fd5b50610442600480360381019080803573ffffffffffffffffffffffffffffffffffffffff169060200190929190803590602001909291905050506113ee565b604051808215151515815260200191505060405180910390f35b34801561046857600080fd5b506104b160048036038101908080359060200190929190803573ffffffffffffffffffffffffffffffffffffffff16906020019092919080359060200190929190505050611643565b005b3480156104bf57600080fd5b506104c8611a0d565b6040518082815260200191505060405180910390f35b3480156104ea57600080fd5b5061056f600480360381019080803573ffffffffffffffffffffffffffffffffffffffff169060200190929190803590602001908201803590602001908080601f016020809104026020016040519081016040528093929190818152602001838380828437820191505050505050919291929080359060200190929190505050611a13565b6040518082815260200191505060405180910390f35b34801561059157600080fd5b5061059a611ab7565b6040518082815260200191505060405180910390f35b3480156105bc57600080fd5b50610617600480360381019080803590602001908201803590602001908080601f0160208091040260200160405190810160405280939291908181526020018383808284378201915050505050509192919290505050611ac1565b005b34801561062557600080fd5b50610684600480360381019080803573ffffffffffffffffffffffffffffffffffffffff169060200190929190803573ffffffffffffffffffffffffffffffffffffffff169060200190929190803590602001909291905050506120ef565b604051808215151515815260200191505060405180910390f35b3480156106aa57600080fd5b506106df600480360381019080803573ffffffffffffffffffffffffffffffffffffffff169060200190929190505050612491565b604051808273ffffffffffffffffffffffffffffffffffffffff1673ffffffffffffffffffffffffffffffffffffffff16815260200191505060405180910390f35b34801561072d57600080fd5b506107366124c4565b604051808260ff1660ff16815260200191505060405180910390f35b34801561075e57600080fd5b506107676124d7565b604051808273ffffffffffffffffffffffffffffffffffffffff1673ffffffffffffffffffffffffffffffffffffffff16815260200191505060405180910390f35b3480156107b557600080fd5b506107ea600480360381019080803573ffffffffffffffffffffffffffffffffffffffff169060200190929190505050612501565b604051808273ffffffffffffffffffffffffffffffffffffffff1673ffffffffffffffffffffffffffffffffffffffff16815260200191505060405180910390f35b34801561083857600080fd5b50610897600480360381019080803573ffffffffffffffffffffffffffffffffffffffff169060200190929190803573ffffffffffffffffffffffffffffffffffffffff16906020019092919080359060200190929190505050612534565b604051808215151515815260200191505060405180910390f35b3480156108bd57600080fd5b506108c6612924565b6040518082815260200191505060405180910390f35b3480156108e857600080fd5b50610927600480360381019080803573ffffffffffffffffffffffffffffffffffffffff169060200190929190803590602001909291905050506129a8565b604051808215151515815260200191505060405180910390f35b34801561094d57600080fd5b50610956612c3a565b6040518082815260200191505060405180910390f35b34801561097857600080fd5b506109ad600480360381019080803573ffffffffffffffffffffffffffffffffffffffff169060200190929190505050612c44565b6040518082815260200191505060405180910390f35b3480156109cf57600080fd5b506109ee60048036038101908080359060200190929190505050612c8c565b604051808215151515815260200191505060405180910390f35b348015610a1457600080fd5b50610a1d612e1a565b6040518080602001828103825283818151815260200191508051906020019080838360005b83811015610a5d578082015181840152602081019050610a42565b50505050905090810190601f168015610a8a5780820380516001836020036101000a031916815260200191505b509250505060405180910390f35b348015610aa457600080fd5b50610aad612eb8565b6040518082815260200191505060405180910390f35b348015610acf57600080fd5b50610ad8612ebe565b6040518080602001828103825283818151815260200191508051906020019080838360005b83811015610b18578082015181840152602081019050610afd565b50505050905090810190601f168015610b455780820380516001836020036101000a031916815260200191505b509250505060405180910390f35b610b5b612f5c565b005b348015610b6957600080fd5b50610b9e600480360381019080803573ffffffffffffffffffffffffffffffffffffffff1690602001909291905050506130ea565b6040518082815260200191505060405180910390f35b348015610bc057600080fd5b50610bff600480360381019080803573ffffffffffffffffffffffffffffffffffffffff16906020019092919080359060200190929190505050613102565b604051808215151515815260200191505060405180910390f35b348015610c2557600080fd5b50610c5a600480360381019080803573ffffffffffffffffffffffffffffffffffffffff1690602001909291905050506133e4565b6040518082815260200191505060405180910390f35b348015610c7c57600080fd5b50610cdb600480360381019080803573ffffffffffffffffffffffffffffffffffffffff169060200190929190803573ffffffffffffffffffffffffffffffffffffffff1690602001909291908035906020019092919050505061342d565b604051808215151515815260200191505060405180910390f35b348015610d0157600080fd5b50610d2060048036038101908080359060200190929190505050613740565b005b610da6600480360381019080803573ffffffffffffffffffffffffffffffffffffffff169060200190929190803590602001908201803590602001908080601f016020809104026020016040519081016040528093929190818152602001838380828437820191505050505050919291929080359060200190929190505050613967565b005b348015610db457600080fd5b50610dbd613977565b6040518082815260200191505060405180910390f35b348015610ddf57600080fd5b50610e14600480360381019080803573ffffffffffffffffffffffffffffffffffffffff16906020019092919050505061397d565b005b348015610e2257600080fd5b50610e2b613aaf565b6040518082815260200191505060405180910390f35b348015610e4d57600080fd5b50610e8c600480360381019080803573ffffffffffffffffffffffffffffffffffffffff16906020019092919080359060200190929190505050613aca565b604051808215151515815260200191505060405180910390f35b348015610eb257600080fd5b50610ee7600480360381019080803573ffffffffffffffffffffffffffffffffffffffff169060200190929190505050613cc6565b6040518080602001828103825283818151815260200191508051906020019060200280838360005b83811015610f2a578082015181840152602081019050610f0f565b505050509050019250505060405180910390f35b348015610f4a57600080fd5b50610f9f600480360381019080803573ffffffffffffffffffffffffffffffffffffffff169060200190929190803573ffffffffffffffffffffffffffffffffffffffff169060200190929190505050613e09565b6040518082815260200191505060405180910390f35b610fdd6004803603810190808035906020019092919080359060200190929190505050613e90565b005b348015610feb57600080fd5b50611020600480360381019080803573ffffffffffffffffffffffffffffffffffffffff169060200190929190505050614257565b604051808c73ffffffffffffffffffffffffffffffffffffffff1673ffffffffffffffffffffffffffffffffffffffff1681526020018b81526020018a73ffffffffffffffffffffffffffffffffffffffff1673ffffffffffffffffffffffffffffffffffffffff1681526020018915151515815260200188151515158152602001806020018773ffffffffffffffffffffffffffffffffffffffff1673ffffffffffffffffffffffffffffffffffffffff1681526020018681526020018560078111156110ea57fe5b60ff168152602001848152602001838152602001828103825288818151815260200191508051906020019080838360005b8381101561113657808201518184015260208101905061111b565b50505050905090810190601f1680156111635780820380516001836020036101000a031916815260200191505b509c5050505050505050505050505060405180910390f35b34801561118757600080fd5b5061122c600480360381019080803573ffffffffffffffffffffffffffffffffffffffff169060200190929190803590602001908201803590602001908080601f0160208091040260200160405190810160405280939291908181526020018383808284378201915050505050509192919290803573ffffffffffffffffffffffffffffffffffffffff169060200190929190803590602001909291905050506143d0565b604051808215151515815260200191505060405180910390f35b60146020528060005260406000206000915090505481565b600a8054600181600116156101000203166002900480601f0160208091040260200160405190810160405280929190818152602001828054600181600116156101000203166002900480156112f45780601f106112c9576101008083540402835291602001916112f4565b820191906000526020600020905b8154815290600101906020018083116112d757829003601f168201915b505050505081565b600081600260003373ffffffffffffffffffffffffffffffffffffffff1673ffffffffffffffffffffffffffffffffffffffff16815260200190815260200160002060008573ffffffffffffffffffffffffffffffffffffffff1673ffffffffffffffffffffffffffffffffffffffff168152602001908152602001600020819055508273ffffffffffffffffffffffffffffffffffffffff163373ffffffffffffffffffffffffffffffffffffffff167f8c5be1e5ebec7d5bd14f71427d1e84f3dd0314c0f7b2291e5b200ac8c7c3b925846040518082815260200191505060405180910390a36001905092915050565b60008073ffffffffffffffffffffffffffffffffffffffff168373ffffffffffffffffffffffffffffffffffffffff161415151561142b57600080fd5b6000803373ffffffffffffffffffffffffffffffffffffffff1673ffffffffffffffffffffffffffffffffffffffff16815260200190815260200160002054821115151561147857600080fd5b6114c9826000803373ffffffffffffffffffffffffffffffffffffffff1673ffffffffffffffffffffffffffffffffffffffff1681526020019081526020016000205461485790919063ffffffff16565b6000803373ffffffffffffffffffffffffffffffffffffffff1673ffffffffffffffffffffffffffffffffffffffff1681526020019081526020016000208190555061156060085483026000808673ffffffffffffffffffffffffffffffffffffffff1673ffffffffffffffffffffffffffffffffffffffff1681526020019081526020016000205461487090919063ffffffff16565b6000808573ffffffffffffffffffffffffffffffffffffffff1673ffffffffffffffffffffffffffffffffffffffff168152602001908152602001600020819055506115ce6115bd6001600854038461488c90919063ffffffff16565b60035461487090919063ffffffff16565b6003819055508273ffffffffffffffffffffffffffffffffffffffff163373ffffffffffffffffffffffffffffffffffffffff167fddf252ad1be2c89b69c2b068fc378daa952ba7f163c4a11628f55a4df523b3ef846040518082815260200191505060405180910390a36001905092915050565b601b60009054906101000a900473ffffffffffffffffffffffffffffffffffffffff1673ffffffffffffffffffffffffffffffffffffffff16633af32abf336040518263ffffffff167c0100000000000000000000000000000000000000000000000000000000028152600401808273ffffffffffffffffffffffffffffffffffffffff1673ffffffffffffffffffffffffffffffffffffffff168152602001915050602060405180830381600087803b15801561170057600080fd5b505af1158015611714573d6000803e3d6000fd5b505050506040513d602081101561172a57600080fd5b8101908080519060200190929190505050151561174657600080fd5b61174e615dd2565b601160003373ffffffffffffffffffffffffffffffffffffffff1673ffffffffffffffffffffffffffffffffffffffff16815260200190815260200160002061016060405190810160405290816000820160009054906101000a900473ffffffffffffffffffffffffffffffffffffffff1673ffffffffffffffffffffffffffffffffffffffff1673ffffffffffffffffffffffffffffffffffffffff168152602001600182015481526020016002820160009054906101000a900473ffffffffffffffffffffffffffffffffffffffff1673ffffffffffffffffffffffffffffffffffffffff1673ffffffffffffffffffffffffffffffffffffffff1681526020016002820160149054906101000a900460ff161515151581526020016002820160159054906101000a900460ff16151515158152602001600382018054600181600116156101000203166002900480601f01602080910402602001604051908101604052809291908181526020018280546001816001161561010002031660029004801561191f5780601f106118f45761010080835404028352916020019161191f565b820191906000526020600020905b81548152906001019060200180831161190257829003601f168201915b505050505081526020016004820160009054906101000a900473ffffffffffffffffffffffffffffffffffffffff1673ffffffffffffffffffffffffffffffffffffffff1673ffffffffffffffffffffffffffffffffffffffff168152602001600582015481526020016006820160009054906101000a900460ff1660078111156119a657fe5b60078111156119b157fe5b815260200160078201548152602001600882015481525050905080606001511580156119df57508060800151155b15156119ea57600080fd5b6119f26148c4565b6119fc3383615014565b1515611a0757600080fd5b50505050565b600e5481565b600080836040518082805190602001908083835b602083101515611a4c5780518252602082019150602081019050602083039250611a27565b6001836020036101000a0380198251168184511680821785525050505050509050019150506040518091039020905060405181815283600482015260208160248360008a613a98f16000811415611aa257600080fd5b81519350602482016040525050509392505050565b6000600154905090565b6000806000806000806000806000806000809a508b5160148c01111515611aef5760148b019a508a8c015199505b602460008b73ffffffffffffffffffffffffffffffffffffffff1673ffffffffffffffffffffffffffffffffffffffff16815260200190815260200160002060009054906101000a900473ffffffffffffffffffffffffffffffffffffffff169850600073ffffffffffffffffffffffffffffffffffffffff168973ffffffffffffffffffffffffffffffffffffffff1614151515611b8d57600080fd5b5b8b5160418c011115156120e15760208b019a508a8c0151975060208b019a508a8c0151965060018b019a508a8c015195508b5160298c011015611e1d5760018b019a508a8c0151915060008260ff16111515611be957600080fd5b60148b019a508a8c0151925060148b019a508a8c015193506000601260008573ffffffffffffffffffffffffffffffffffffffff1673ffffffffffffffffffffffffffffffffffffffff168152602001908152602001600020541415611c95578160ff16601260008573ffffffffffffffffffffffffffffffffffffffff1673ffffffffffffffffffffffffffffffffffffffff16815260200190815260200160002081905550611ce6565b8160ff16601260008573ffffffffffffffffffffffffffffffffffffffff1673ffffffffffffffffffffffffffffffffffffffff16815260200190815260200160002054141515611ce557600080fd5b5b818484604051602001808460ff1660ff167f01000000000000000000000000000000000000000000000000000000000000000281526001018373ffffffffffffffffffffffffffffffffffffffff1673ffffffffffffffffffffffffffffffffffffffff166c010000000000000000000000000281526014018273ffffffffffffffffffffffffffffffffffffffff1673ffffffffffffffffffffffffffffffffffffffff166c0100000000000000000000000002815260140193505050506040516020818303038152906040526040518082805190602001908083835b602083101515611de95780518252602082019150602081019050602083039250611dc4565b6001836020036101000a03801982511681845116808217855250505050505090500191505060405180910390209450611eef565b8b518b141515611e2c57600080fd5b33925082604051602001808273ffffffffffffffffffffffffffffffffffffffff1673ffffffffffffffffffffffffffffffffffffffff166c010000000000000000000000000281526014019150506040516020818303038152906040526040518082805190602001908083835b602083101515611ebf5780518252602082019150602081019050602083039250611e9a565b6001836020036101000a038019825116818451168082178552505050505050905001915050604051809103902094505b6000600960008573ffffffffffffffffffffffffffffffffffffffff1673ffffffffffffffffffffffffffffffffffffffff16815260200190815260200160002060009054906101000a900473ffffffffffffffffffffffffffffffffffffffff1673ffffffffffffffffffffffffffffffffffffffff161415611f7f57611f798a8460016120ef565b50612019565b8973ffffffffffffffffffffffffffffffffffffffff16600960008573ffffffffffffffffffffffffffffffffffffffff1673ffffffffffffffffffffffffffffffffffffffff16815260200190815260200160002060009054906101000a900473ffffffffffffffffffffffffffffffffffffffff1673ffffffffffffffffffffffffffffffffffffffff1614151561201857600080fd5b5b600185878a8a604051600081526020016040526040518085600019166000191681526020018460ff1660ff1681526020018360001916600019168152602001826000191660001916815260200194505050505060206040516020810390808403906000865af1158015612090573d6000803e3d6000fd5b5050506020604051035190508873ffffffffffffffffffffffffffffffffffffffff168173ffffffffffffffffffffffffffffffffffffffff161415156120d657600080fd5b839850829950611b8e565b505050505050505050505050565b600080600960008573ffffffffffffffffffffffffffffffffffffffff1673ffffffffffffffffffffffffffffffffffffffff16815260200190815260200160002060009054906101000a900473ffffffffffffffffffffffffffffffffffffffff1673ffffffffffffffffffffffffffffffffffffffff1614151561217457600080fd5b600073ffffffffffffffffffffffffffffffffffffffff168473ffffffffffffffffffffffffffffffffffffffff16141515156121b057600080fd5b6001600260008673ffffffffffffffffffffffffffffffffffffffff1673ffffffffffffffffffffffffffffffffffffffff16815260200190815260200160002060003373ffffffffffffffffffffffffffffffffffffffff1673ffffffffffffffffffffffffffffffffffffffff1681526020019081526020016000208190555061223d848484612534565b15612485576000600960008573ffffffffffffffffffffffffffffffffffffffff1673ffffffffffffffffffffffffffffffffffffffff16815260200190815260200160002060009054906101000a900473ffffffffffffffffffffffffffffffffffffffff1673ffffffffffffffffffffffffffffffffffffffff1614156123fe57600660009054906101000a900473ffffffffffffffffffffffffffffffffffffffff1673ffffffffffffffffffffffffffffffffffffffff16638af1cbb93086866040518463ffffffff167c0100000000000000000000000000000000000000000000000000000000028152600401808473ffffffffffffffffffffffffffffffffffffffff1673ffffffffffffffffffffffffffffffffffffffff1681526020018373ffffffffffffffffffffffffffffffffffffffff1673ffffffffffffffffffffffffffffffffffffffff1681526020018273ffffffffffffffffffffffffffffffffffffffff1673ffffffffffffffffffffffffffffffffffffffff1681526020019350505050600060405180830381600087803b1580156123e557600080fd5b505af11580156123f9573d6000803e3d6000fd5b505050505b83600960008573ffffffffffffffffffffffffffffffffffffffff1673ffffffffffffffffffffffffffffffffffffffff16815260200190815260200160002060006101000a81548173ffffffffffffffffffffffffffffffffffffffff021916908373ffffffffffffffffffffffffffffffffffffffff1602179055506001905061248a565b600090505b9392505050565b60096020528060005260406000206000915054906101000a900473ffffffffffffffffffffffffffffffffffffffff1681565b600d60009054906101000a900460ff1681565b6000601660009054906101000a900473ffffffffffffffffffffffffffffffffffffffff16905090565b60246020528060005260406000206000915054906101000a900473ffffffffffffffffffffffffffffffffffffffff1681565b60008073ffffffffffffffffffffffffffffffffffffffff168373ffffffffffffffffffffffffffffffffffffffff161415151561257157600080fd5b6000808573ffffffffffffffffffffffffffffffffffffffff1673ffffffffffffffffffffffffffffffffffffffff1681526020019081526020016000205482111515156125be57600080fd5b600260008573ffffffffffffffffffffffffffffffffffffffff1673ffffffffffffffffffffffffffffffffffffffff16815260200190815260200160002060003373ffffffffffffffffffffffffffffffffffffffff1673ffffffffffffffffffffffffffffffffffffffff16815260200190815260200160002054821115151561264957600080fd5b61269a826000808773ffffffffffffffffffffffffffffffffffffffff1673ffffffffffffffffffffffffffffffffffffffff1681526020019081526020016000205461485790919063ffffffff16565b6000808673ffffffffffffffffffffffffffffffffffffffff1673ffffffffffffffffffffffffffffffffffffffff1681526020019081526020016000208190555061273160085483026000808673ffffffffffffffffffffffffffffffffffffffff1673ffffffffffffffffffffffffffffffffffffffff1681526020019081526020016000205461487090919063ffffffff16565b6000808573ffffffffffffffffffffffffffffffffffffffff1673ffffffffffffffffffffffffffffffffffffffff1681526020019081526020016000208190555061279f61278e6001600854038461488c90919063ffffffff16565b60035461487090919063ffffffff16565b60038190555061283482600260008773ffffffffffffffffffffffffffffffffffffffff1673ffffffffffffffffffffffffffffffffffffffff16815260200190815260200160002060003373ffffffffffffffffffffffffffffffffffffffff1673ffffffffffffffffffffffffffffffffffffffff1681526020019081526020016000205461485790919063ffffffff16565b600260008673ffffffffffffffffffffffffffffffffffffffff1673ffffffffffffffffffffffffffffffffffffffff16815260200190815260200160002060003373ffffffffffffffffffffffffffffffffffffffff1673ffffffffffffffffffffffffffffffffffffffff168152602001908152602001600020819055508273ffffffffffffffffffffffffffffffffffffffff168473ffffffffffffffffffffffffffffffffffffffff167fddf252ad1be2c89b69c2b068fc378daa952ba7f163c4a11628f55a4df523b3ef846040518082815260200191505060405180910390a3600190509392505050565b60008061299f601660009054906101000a900473ffffffffffffffffffffffffffffffffffffffff166040805190810160405280601281526020017f62616c616e63654f6628616464726573732900000000000000000000000000008152503073ffffffffffffffffffffffffffffffffffffffff16611a13565b90508091505090565b600080600260003373ffffffffffffffffffffffffffffffffffffffff1673ffffffffffffffffffffffffffffffffffffffff16815260200190815260200160002060008573ffffffffffffffffffffffffffffffffffffffff1673ffffffffffffffffffffffffffffffffffffffff1681526020019081526020016000205490508083101515612aba576000600260003373ffffffffffffffffffffffffffffffffffffffff1673ffffffffffffffffffffffffffffffffffffffff16815260200190815260200160002060008673ffffffffffffffffffffffffffffffffffffffff1673ffffffffffffffffffffffffffffffffffffffff16815260200190815260200160002081905550612b4e565b612acd838261485790919063ffffffff16565b600260003373ffffffffffffffffffffffffffffffffffffffff1673ffffffffffffffffffffffffffffffffffffffff16815260200190815260200160002060008673ffffffffffffffffffffffffffffffffffffffff1673ffffffffffffffffffffffffffffffffffffffff168152602001908152602001600020819055505b8373ffffffffffffffffffffffffffffffffffffffff163373ffffffffffffffffffffffffffffffffffffffff167f8c5be1e5ebec7d5bd14f71427d1e84f3dd0314c0f7b2291e5b200ac8c7c3b925600260003373ffffffffffffffffffffffffffffffffffffffff1673ffffffffffffffffffffffffffffffffffffffff16815260200190815260200160002060008873ffffffffffffffffffffffffffffffffffffffff1673ffffffffffffffffffffffffffffffffffffffff168152602001908152602001600020546040518082815260200191505060405180910390a3600191505092915050565b6000601554905090565b60008060008373ffffffffffffffffffffffffffffffffffffffff1673ffffffffffffffffffffffffffffffffffffffff168152602001908152602001600020549050919050565b6000601660009054906101000a900473ffffffffffffffffffffffffffffffffffffffff1673ffffffffffffffffffffffffffffffffffffffff1660405180807f7472616e7366657246726f6d28616464726573732c616464726573732c75696e81526020017f7432353629000000000000000000000000000000000000000000000000000000815250602501905060405180910390207c010000000000000000000000000000000000000000000000000000000090043330856040518463ffffffff167c0100000000000000000000000000000000000000000000000000000000028152600401808473ffffffffffffffffffffffffffffffffffffffff1673ffffffffffffffffffffffffffffffffffffffff1681526020018373ffffffffffffffffffffffffffffffffffffffff1673ffffffffffffffffffffffffffffffffffffffff16815260200182815260200193505050506000604051808303816000875af1925050501515612e0157600080fd5b8160156000828254019250508190555060019050919050565b600b8054600181600116156101000203166002900480601f016020809104026020016040519081016040528092919081815260200182805460018160011615610100020316600290048015612eb05780601f10612e8557610100808354040283529160200191612eb0565b820191906000526020600020905b815481529060010190602001808311612e9357829003601f168201915b505050505081565b600f5481565b600c8054600181600116156101000203166002900480601f016020809104026020016040519081016040528092919081815260200182805460018160011615610100020316600290048015612f545780601f10612f2957610100808354040283529160200191612f54565b820191906000526020600020905b815481529060010190602001808311612f3757829003601f168201915b505050505081565b6000806012601081905550612f93600e54612f85601054600a0a3461488c90919063ffffffff16565b61502890919063ffffffff16565b9150612fc1601054600a0a612fb384600f5461488c90919063ffffffff16565b61502890919063ffffffff16565b9050612fcd8282613e90565b601660009054906101000a900473ffffffffffffffffffffffffffffffffffffffff1673ffffffffffffffffffffffffffffffffffffffff1660405180807f7472616e7366657228616464726573732c75696e743235362900000000000000815250601901905060405180910390207c0100000000000000000000000000000000000000000000000000000000900433846040518363ffffffff167c0100000000000000000000000000000000000000000000000000000000028152600401808373ffffffffffffffffffffffffffffffffffffffff1673ffffffffffffffffffffffffffffffffffffffff168152602001828152602001925050506000604051808303816000875af19250505015156130e657600080fd5b5050565b60126020528060005260406000206000915090505481565b600080600960008573ffffffffffffffffffffffffffffffffffffffff1673ffffffffffffffffffffffffffffffffffffffff16815260200190815260200160002060009054906101000a900473ffffffffffffffffffffffffffffffffffffffff1673ffffffffffffffffffffffffffffffffffffffff1614151561318757600080fd5b61319183836113ee565b156133d9576000600960008573ffffffffffffffffffffffffffffffffffffffff1673ffffffffffffffffffffffffffffffffffffffff16815260200190815260200160002060009054906101000a900473ffffffffffffffffffffffffffffffffffffffff1673ffffffffffffffffffffffffffffffffffffffff16141561335257600660009054906101000a900473ffffffffffffffffffffffffffffffffffffffff1673ffffffffffffffffffffffffffffffffffffffff16638af1cbb93033866040518463ffffffff167c0100000000000000000000000000000000000000000000000000000000028152600401808473ffffffffffffffffffffffffffffffffffffffff1673ffffffffffffffffffffffffffffffffffffffff1681526020018373ffffffffffffffffffffffffffffffffffffffff1673ffffffffffffffffffffffffffffffffffffffff1681526020018273ffffffffffffffffffffffffffffffffffffffff1673ffffffffffffffffffffffffffffffffffffffff1681526020019350505050600060405180830381600087803b15801561333957600080fd5b505af115801561334d573d6000803e3d6000fd5b505050505b33600960008573ffffffffffffffffffffffffffffffffffffffff1673ffffffffffffffffffffffffffffffffffffffff16815260200190815260200160002060006101000a81548173ffffffffffffffffffffffffffffffffffffffff021916908373ffffffffffffffffffffffffffffffffffffffff160217905550600190506133de565b600090505b92915050565b6000601360008373ffffffffffffffffffffffffffffffffffffffff1673ffffffffffffffffffffffffffffffffffffffff168152602001908152602001600020549050919050565b6000613437615dd2565b601160008673ffffffffffffffffffffffffffffffffffffffff1673ffffffffffffffffffffffffffffffffffffffff16815260200190815260200160002061016060405190810160405290816000820160009054906101000a900473ffffffffffffffffffffffffffffffffffffffff1673ffffffffffffffffffffffffffffffffffffffff1673ffffffffffffffffffffffffffffffffffffffff168152602001600182015481526020016002820160009054906101000a900473ffffffffffffffffffffffffffffffffffffffff1673ffffffffffffffffffffffffffffffffffffffff1673ffffffffffffffffffffffffffffffffffffffff1681526020016002820160149054906101000a900460ff161515151581526020016002820160159054906101000a900460ff16151515158152602001600382018054600181600116156101000203166002900480601f0160208091040260200160405190810160405280929190818152602001828054600181600116156101000203166002900480156136085780601f106135dd57610100808354040283529160200191613608565b820191906000526020600020905b8154815290600101906020018083116135eb57829003601f168201915b505050505081526020016004820160009054906101000a900473ffffffffffffffffffffffffffffffffffffffff1673ffffffffffffffffffffffffffffffffffffffff1673ffffffffffffffffffffffffffffffffffffffff168152602001600582015481526020016006820160009054906101000a900460ff16600781111561368f57fe5b600781111561369a57fe5b815260200160078201548152602001600882015481525050905080608001511580156136c857508060600151155b15156136d357600080fd5b806101400151421115156136e657600080fd5b6136f185858561503e565b3073ffffffffffffffffffffffffffffffffffffffff167fd5669ebe8b90ed693033f1915dcea031e7a16a6f146a8326c02eec10eed77edd60405160405180910390a260019150509392505050565b80600460003373ffffffffffffffffffffffffffffffffffffffff1673ffffffffffffffffffffffffffffffffffffffff168152602001908152602001600020541015801561378f5750600081115b151561379a57600080fd5b6137ec81600460003373ffffffffffffffffffffffffffffffffffffffff1673ffffffffffffffffffffffffffffffffffffffff1681526020019081526020016000205461485790919063ffffffff16565b600460003373ffffffffffffffffffffffffffffffffffffffff1673ffffffffffffffffffffffffffffffffffffffff16815260200190815260200160002081905550601960009054906101000a900473ffffffffffffffffffffffffffffffffffffffff1673ffffffffffffffffffffffffffffffffffffffff166323b872dd3033846040518463ffffffff167c0100000000000000000000000000000000000000000000000000000000028152600401808473ffffffffffffffffffffffffffffffffffffffff1673ffffffffffffffffffffffffffffffffffffffff1681526020018373ffffffffffffffffffffffffffffffffffffffff1673ffffffffffffffffffffffffffffffffffffffff1681526020018281526020019350505050602060405180830381600087803b15801561392857600080fd5b505af115801561393c573d6000803e3d6000fd5b505050506040513d602081101561395257600080fd5b81019080805190602001909291905050505050565b6139728383836155d0565b505050565b60085481565b600061398833612c44565b11151561399457600080fd5b600073ffffffffffffffffffffffffffffffffffffffff16602460003373ffffffffffffffffffffffffffffffffffffffff1673ffffffffffffffffffffffffffffffffffffffff16815260200190815260200160002060009054906101000a900473ffffffffffffffffffffffffffffffffffffffff1673ffffffffffffffffffffffffffffffffffffffff16141515613a2e57600080fd5b80602460003373ffffffffffffffffffffffffffffffffffffffff1673ffffffffffffffffffffffffffffffffffffffff16815260200190815260200160002060006101000a81548173ffffffffffffffffffffffffffffffffffffffff021916908373ffffffffffffffffffffffffffffffffffffffff16021790555050565b600080613aba612924565b9050806015819055508091505090565b6000613b5b82600260003373ffffffffffffffffffffffffffffffffffffffff1673ffffffffffffffffffffffffffffffffffffffff16815260200190815260200160002060008673ffffffffffffffffffffffffffffffffffffffff1673ffffffffffffffffffffffffffffffffffffffff1681526020019081526020016000205461487090919063ffffffff16565b600260003373ffffffffffffffffffffffffffffffffffffffff1673ffffffffffffffffffffffffffffffffffffffff16815260200190815260200160002060008573ffffffffffffffffffffffffffffffffffffffff1673ffffffffffffffffffffffffffffffffffffffff168152602001908152602001600020819055508273ffffffffffffffffffffffffffffffffffffffff163373ffffffffffffffffffffffffffffffffffffffff167f8c5be1e5ebec7d5bd14f71427d1e84f3dd0314c0f7b2291e5b200ac8c7c3b925600260003373ffffffffffffffffffffffffffffffffffffffff1673ffffffffffffffffffffffffffffffffffffffff16815260200190815260200160002060008773ffffffffffffffffffffffffffffffffffffffff1673ffffffffffffffffffffffffffffffffffffffff168152602001908152602001600020546040518082815260200191505060405180910390a36001905092915050565b6060806060600080613cd7866159f5565b93506001845101604051908082528060200260200182016040528015613d0c5781602001602082028038833980820191505090505b509250600091505b8351821015613da0578382815181101515613d2b57fe5b906020019060200201519050601260008273ffffffffffffffffffffffffffffffffffffffff1673ffffffffffffffffffffffffffffffffffffffff168152602001908152602001600020548383815181101515613d8557fe5b90602001906020020181815250508180600101925050613d14565b601260008773ffffffffffffffffffffffffffffffffffffffff1673ffffffffffffffffffffffffffffffffffffffff16815260200190815260200160002054838551815181101515613def57fe5b906020019060200201818152505082945050505050919050565b6000600260008473ffffffffffffffffffffffffffffffffffffffff1673ffffffffffffffffffffffffffffffffffffffff16815260200190815260200160002060008373ffffffffffffffffffffffffffffffffffffffff1673ffffffffffffffffffffffffffffffffffffffff16815260200190815260200160002054905092915050565b600080600060606000806000806000339850613eab89612c44565b9750600088111515613ebc57600080fd5b613ec4612924565b965060008b111515613ed557600080fd5b8a8710151515613ee457600080fd5b613eed896159f5565b955060009450600093505b85518410156140fb578584815181101515613f0f57fe5b9060200190602002015192506001865103841415613f2f57899150613fe1565b601260008473ffffffffffffffffffffffffffffffffffffffff1673ffffffffffffffffffffffffffffffffffffffff168152602001908152602001600020549050600081118015613f82575060658111155b15613fc757613fc06064613fb2613fa360018561485790919063ffffffff16565b8d61488c90919063ffffffff16565b61502890919063ffffffff16565b9150613fe0565b613fdd848751038b61502890919063ffffffff16565b91505b5b61403382600560008673ffffffffffffffffffffffffffffffffffffffff1673ffffffffffffffffffffffffffffffffffffffff1681526020019081526020016000205461487090919063ffffffff16565b600560008573ffffffffffffffffffffffffffffffffffffffff1673ffffffffffffffffffffffffffffffffffffffff168152602001908152602001600020819055508273ffffffffffffffffffffffffffffffffffffffff167fb3b7a071186534c03b40695710096f289fd4ed6c1a374aff0bb648955e4fe563836040518082815260200191505060405180910390a26140d7828661487090919063ffffffff16565b94506140ec828b61485790919063ffffffff16565b99508380600101945050613ef8565b614122856141143460185461487090919063ffffffff16565b61485790919063ffffffff16565b60188190555061417a8b601460008c73ffffffffffffffffffffffffffffffffffffffff1673ffffffffffffffffffffffffffffffffffffffff1681526020019081526020016000205461487090919063ffffffff16565b601460008b73ffffffffffffffffffffffffffffffffffffffff1673ffffffffffffffffffffffffffffffffffffffff168152602001908152602001600020819055508873ffffffffffffffffffffffffffffffffffffffff167f6f48e292651bd1d141885ed3aa208544a172f61dce0faf20bf98d87e15f558f6601460008c73ffffffffffffffffffffffffffffffffffffffff1673ffffffffffffffffffffffffffffffffffffffff168152602001908152602001600020546040518082815260200191505060405180910390a25050505050505050505050565b60116020528060005260406000206000915090508060000160009054906101000a900473ffffffffffffffffffffffffffffffffffffffff16908060010154908060020160009054906101000a900473ffffffffffffffffffffffffffffffffffffffff16908060020160149054906101000a900460ff16908060020160159054906101000a900460ff1690806003018054600181600116156101000203166002900480601f01602080910402602001604051908101604052809291908181526020018280546001816001161561010002031660029004801561437b5780601f106143505761010080835404028352916020019161437b565b820191906000526020600020905b81548152906001019060200180831161435e57829003601f168201915b5050505050908060040160009054906101000a900473ffffffffffffffffffffffffffffffffffffffff16908060050154908060060160009054906101000a900460ff1690806007015490806008015490508b565b60006143da615dd2565b601160008773ffffffffffffffffffffffffffffffffffffffff1673ffffffffffffffffffffffffffffffffffffffff16815260200190815260200160002061016060405190810160405290816000820160009054906101000a900473ffffffffffffffffffffffffffffffffffffffff1673ffffffffffffffffffffffffffffffffffffffff1673ffffffffffffffffffffffffffffffffffffffff168152602001600182015481526020016002820160009054906101000a900473ffffffffffffffffffffffffffffffffffffffff1673ffffffffffffffffffffffffffffffffffffffff1673ffffffffffffffffffffffffffffffffffffffff1681526020016002820160149054906101000a900460ff161515151581526020016002820160159054906101000a900460ff16151515158152602001600382018054600181600116156101000203166002900480601f0160208091040260200160405190810160405280929190818152602001828054600181600116156101000203166002900480156145ab5780601f10614580576101008083540402835291602001916145ab565b820191906000526020600020905b81548152906001019060200180831161458e57829003601f168201915b505050505081526020016004820160009054906101000a900473ffffffffffffffffffffffffffffffffffffffff1673ffffffffffffffffffffffffffffffffffffffff1673ffffffffffffffffffffffffffffffffffffffff168152602001600582015481526020016006820160009054906101000a900460ff16600781111561463257fe5b600781111561463d57fe5b8152602001600782015481526020016008820154815250509050806080015115801561466b57508060600151155b151561467657600080fd5b61468186858561503e565b600660009054906101000a900473ffffffffffffffffffffffffffffffffffffffff1673ffffffffffffffffffffffffffffffffffffffff1663078f4ca2308888888860066040518763ffffffff167c0100000000000000000000000000000000000000000000000000000000028152600401808773ffffffffffffffffffffffffffffffffffffffff1673ffffffffffffffffffffffffffffffffffffffff1681526020018673ffffffffffffffffffffffffffffffffffffffff1673ffffffffffffffffffffffffffffffffffffffff168152602001806020018573ffffffffffffffffffffffffffffffffffffffff1673ffffffffffffffffffffffffffffffffffffffff1681526020018481526020018360078111156147a157fe5b60ff168152602001828103825286818151815260200191508051906020019080838360005b838110156147e15780820151818401526020810190506147c6565b50505050905090810190601f16801561480e5780820380516001836020036101000a031916815260200191505b50975050505050505050600060405180830381600087803b15801561483257600080fd5b505af1158015614846573d6000803e3d6000fd5b505050506001915050949350505050565b600082821115151561486557fe5b818303905092915050565b6000818301905082811015151561488357fe5b80905092915050565b60008083141561489f57600090506148be565b81830290508183828115156148b057fe5b041415156148ba57fe5b8090505b92915050565b6148cc615dd2565b6000806000601160003373ffffffffffffffffffffffffffffffffffffffff1673ffffffffffffffffffffffffffffffffffffffff16815260200190815260200160002061016060405190810160405290816000820160009054906101000a900473ffffffffffffffffffffffffffffffffffffffff1673ffffffffffffffffffffffffffffffffffffffff1673ffffffffffffffffffffffffffffffffffffffff168152602001600182015481526020016002820160009054906101000a900473ffffffffffffffffffffffffffffffffffffffff1673ffffffffffffffffffffffffffffffffffffffff1673ffffffffffffffffffffffffffffffffffffffff1681526020016002820160149054906101000a900460ff161515151581526020016002820160159054906101000a900460ff16151515158152602001600382018054600181600116156101000203166002900480601f016020809104026020016040519081016040528092919081815260200182805460018160011615610100020316600290048015614aa25780601f10614a7757610100808354040283529160200191614aa2565b820191906000526020600020905b815481529060010190602001808311614a8557829003601f168201915b505050505081526020016004820160009054906101000a900473ffffffffffffffffffffffffffffffffffffffff1673ffffffffffffffffffffffffffffffffffffffff1673ffffffffffffffffffffffffffffffffffffffff168152602001600582015481526020016006820160009054906101000a900460ff166007811115614b2957fe5b6007811115614b3457fe5b8152602001600782015481526020016008820154815250509350600184606001901515908115158152505083601160003373ffffffffffffffffffffffffffffffffffffffff1673ffffffffffffffffffffffffffffffffffffffff16815260200190815260200160002060008201518160000160006101000a81548173ffffffffffffffffffffffffffffffffffffffff021916908373ffffffffffffffffffffffffffffffffffffffff1602179055506020820151816001015560408201518160020160006101000a81548173ffffffffffffffffffffffffffffffffffffffff021916908373ffffffffffffffffffffffffffffffffffffffff16021790555060608201518160020160146101000a81548160ff02191690831515021790555060808201518160020160156101000a81548160ff02191690831515021790555060a0820151816003019080519060200190614c93929190615e7e565b5060c08201518160040160006101000a81548173ffffffffffffffffffffffffffffffffffffffff021916908373ffffffffffffffffffffffffffffffffffffffff16021790555060e082015181600501556101008201518160060160006101000a81548160ff02191690836007811115614d0a57fe5b021790555061012082015181600701556101408201518160080155905050614d358460200151615bda565b9250601960009054906101000a900473ffffffffffffffffffffffffffffffffffffffff1673ffffffffffffffffffffffffffffffffffffffff1663a9059cbb602060009054906101000a900473ffffffffffffffffffffffffffffffffffffffff16614dad601d548761488c90919063ffffffff16565b6040518363ffffffff167c0100000000000000000000000000000000000000000000000000000000028152600401808373ffffffffffffffffffffffffffffffffffffffff1673ffffffffffffffffffffffffffffffffffffffff16815260200182815260200192505050602060405180830381600087803b158015614e3257600080fd5b505af1158015614e46573d6000803e3d6000fd5b505050506040513d6020811015614e5c57600080fd5b81019080805190602001909291905050501515614e7857600080fd5b83602001519150614ea76064614e998460235461488c90919063ffffffff16565b61502890919063ffffffff16565b9050601960009054906101000a900473ffffffffffffffffffffffffffffffffffffffff1673ffffffffffffffffffffffffffffffffffffffff1663a9059cbb600760009054906101000a900473ffffffffffffffffffffffffffffffffffffffff16614f43601d54614f3586614f278a8a61485790919063ffffffff16565b61485790919063ffffffff16565b61488c90919063ffffffff16565b6040518363ffffffff167c0100000000000000000000000000000000000000000000000000000000028152600401808373ffffffffffffffffffffffffffffffffffffffff1673ffffffffffffffffffffffffffffffffffffffff16815260200182815260200192505050602060405180830381600087803b158015614fc857600080fd5b505af1158015614fdc573d6000803e3d6000fd5b505050506040513d6020811015614ff257600080fd5b8101908080519060200190929190505050151561500e57600080fd5b50505050565b60006150208383615c25565b905092915050565b6000818381151561503557fe5b04905092915050565b615046615dd2565b601160008573ffffffffffffffffffffffffffffffffffffffff1673ffffffffffffffffffffffffffffffffffffffff16815260200190815260200160002061016060405190810160405290816000820160009054906101000a900473ffffffffffffffffffffffffffffffffffffffff1673ffffffffffffffffffffffffffffffffffffffff1673ffffffffffffffffffffffffffffffffffffffff168152602001600182015481526020016002820160009054906101000a900473ffffffffffffffffffffffffffffffffffffffff1673ffffffffffffffffffffffffffffffffffffffff1673ffffffffffffffffffffffffffffffffffffffff1681526020016002820160149054906101000a900460ff161515151581526020016002820160159054906101000a900460ff16151515158152602001600382018054600181600116156101000203166002900480601f0160208091040260200160405190810160405280929190818152602001828054600181600116156101000203166002900480156152175780601f106151ec57610100808354040283529160200191615217565b820191906000526020600020905b8154815290600101906020018083116151fa57829003601f168201915b505050505081526020016004820160009054906101000a900473ffffffffffffffffffffffffffffffffffffffff1673ffffffffffffffffffffffffffffffffffffffff1673ffffffffffffffffffffffffffffffffffffffff168152602001600582015481526020016006820160009054906101000a900460ff16600781111561529e57fe5b60078111156152a957fe5b8152602001600782015481526020016008820154815250509050600181608001901515908115158152505080601160008673ffffffffffffffffffffffffffffffffffffffff1673ffffffffffffffffffffffffffffffffffffffff16815260200190815260200160002060008201518160000160006101000a81548173ffffffffffffffffffffffffffffffffffffffff021916908373ffffffffffffffffffffffffffffffffffffffff1602179055506020820151816001015560408201518160020160006101000a81548173ffffffffffffffffffffffffffffffffffffffff021916908373ffffffffffffffffffffffffffffffffffffffff16021790555060608201518160020160146101000a81548160ff02191690831515021790555060808201518160020160156101000a81548160ff02191690831515021790555060a0820151816003019080519060200190615408929190615e7e565b5060c08201518160040160006101000a81548173ffffffffffffffffffffffffffffffffffffffff021916908373ffffffffffffffffffffffffffffffffffffffff16021790555060e082015181600501556101008201518160060160006101000a81548160ff0219169083600781111561547f57fe5b0217905550610120820151816007015561014082015181600801559050506154a682612c8c565b50601960009054906101000a900473ffffffffffffffffffffffffffffffffffffffff1673ffffffffffffffffffffffffffffffffffffffff1663a9059cbb856154ff601d54856020015161488c90919063ffffffff16565b6040518363ffffffff167c0100000000000000000000000000000000000000000000000000000000028152600401808373ffffffffffffffffffffffffffffffffffffffff1673ffffffffffffffffffffffffffffffffffffffff16815260200182815260200192505050602060405180830381600087803b15801561558457600080fd5b505af1158015615598573d6000803e3d6000fd5b505050506040513d60208110156155ae57600080fd5b810190808051906020019092919050505015156155ca57600080fd5b50505050565b60006155da615dd2565b6000831115156155e957600080fd5b6000601c541115156155fa57600080fd5b601960009054906101000a900473ffffffffffffffffffffffffffffffffffffffff1673ffffffffffffffffffffffffffffffffffffffff166323b872dd3330866040518463ffffffff167c0100000000000000000000000000000000000000000000000000000000028152600401808473ffffffffffffffffffffffffffffffffffffffff1673ffffffffffffffffffffffffffffffffffffffff1681526020018373ffffffffffffffffffffffffffffffffffffffff1673ffffffffffffffffffffffffffffffffffffffff1681526020018281526020019350505050602060405180830381600087803b1580156156f357600080fd5b505af1158015615707573d6000803e3d6000fd5b505050506040513d602081101561571d57600080fd5b8101908080519060200190929190505050151561573957600080fd5b601c54601d54840281151561574a57fe5b049150610160604051908101604052808673ffffffffffffffffffffffffffffffffffffffff1681526020018481526020013373ffffffffffffffffffffffffffffffffffffffff168152602001600015158152602001600015158152602001858152602001601660009054906101000a900473ffffffffffffffffffffffffffffffffffffffff1673ffffffffffffffffffffffffffffffffffffffff1681526020018381526020016006600781111561580157fe5b81526020014281526020016102586021540242018152509050816015540360158190555080601160003373ffffffffffffffffffffffffffffffffffffffff1673ffffffffffffffffffffffffffffffffffffffff16815260200190815260200160002060008201518160000160006101000a81548173ffffffffffffffffffffffffffffffffffffffff021916908373ffffffffffffffffffffffffffffffffffffffff1602179055506020820151816001015560408201518160020160006101000a81548173ffffffffffffffffffffffffffffffffffffffff021916908373ffffffffffffffffffffffffffffffffffffffff16021790555060608201518160020160146101000a81548160ff02191690831515021790555060808201518160020160156101000a81548160ff02191690831515021790555060a0820151816003019080519060200190615959929190615e7e565b5060c08201518160040160006101000a81548173ffffffffffffffffffffffffffffffffffffffff021916908373ffffffffffffffffffffffffffffffffffffffff16021790555060e082015181600501556101008201518160060160006101000a81548160ff021916908360078111156159d057fe5b0217905550610120820151816007015561014082015181600801559050505050505050565b60606000806060849250600091505b600115615ad557600960008473ffffffffffffffffffffffffffffffffffffffff1673ffffffffffffffffffffffffffffffffffffffff16815260200190815260200160002060009054906101000a900473ffffffffffffffffffffffffffffffffffffffff169250600760009054906101000a900473ffffffffffffffffffffffffffffffffffffffff1673ffffffffffffffffffffffffffffffffffffffff168373ffffffffffffffffffffffffffffffffffffffff161415615ac857615ad5565b8180600101925050615a04565b81604051908082528060200260200182016040528015615b045781602001602082028038833980820191505090505b5090508492505b6000821115615bcf57600960008473ffffffffffffffffffffffffffffffffffffffff1673ffffffffffffffffffffffffffffffffffffffff16815260200190815260200160002060009054906101000a900473ffffffffffffffffffffffffffffffffffffffff169250818060019003925050828183815181101515615b8e57fe5b9060200190602002019073ffffffffffffffffffffffffffffffffffffffff16908173ffffffffffffffffffffffffffffffffffffffff1681525050615b0b565b809350505050919050565b60008060006022541115615c1a57615c106064615c026022548661488c90919063ffffffff16565b61502890919063ffffffff16565b9050809150615c1f565b600091505b50919050565b60008160155410151515615c3857600080fd5b601660009054906101000a900473ffffffffffffffffffffffffffffffffffffffff1673ffffffffffffffffffffffffffffffffffffffff1660405160200180807f7472616e7366657228616464726573732c75696e74323536290000000000000081525060190190506040516020818303038152906040526040518082805190602001908083835b602083101515615ce65780518252602082019150602081019050602083039250615cc1565b6001836020036101000a03801982511681845116808217855250505050505090500191505060405180910390207c0100000000000000000000000000000000000000000000000000000000900484846040518363ffffffff167c0100000000000000000000000000000000000000000000000000000000028152600401808373ffffffffffffffffffffffffffffffffffffffff1673ffffffffffffffffffffffffffffffffffffffff168152602001828152602001925050506000604051808303816000875af1925050501515615dbd57600080fd5b81601554036015819055506001905092915050565b61016060405190810160405280600073ffffffffffffffffffffffffffffffffffffffff16815260200160008152602001600073ffffffffffffffffffffffffffffffffffffffff16815260200160001515815260200160001515815260200160608152602001600073ffffffffffffffffffffffffffffffffffffffff1681526020016000815260200160006007811115615e6a57fe5b815260200160008152602001600081525090565b828054600181600116156101000203166002900490600052602060002090601f016020900481019282601f10615ebf57805160ff1916838001178555615eed565b82800160010185558215615eed579182015b82811115615eec578251825591602001919060010190615ed1565b5b509050615efa9190615efe565b5090565b615f2091905b80821115615f1c576000816000905550600101615f04565b5090565b905600a165627a7a72305820445e7c68867240572672f361c3dd8ed0da87760a219cbe643059f8a1a94859240029",
  "source": "pragma solidity ^0.4.24;\n\nimport '../openzeppelin-solidity/contracts/math/SafeMath.sol';\nimport \"./TwoKeyTypes.sol\";\nimport \"./TwoKeyCampaignARC.sol\";\nimport \"./TwoKeyEventSource.sol\";\nimport \"./TwoKeyWhitelisted.sol\";\nimport './TwoKeyEconomy.sol';\nimport \"./TwoKeySignedContract.sol\";\nimport \"./Utils.sol\";\n\n/// @author Nikola Madjarevic\n/// Contract which will represent campaign for the fungible assets\ncontract TwoKeyAcquisitionCampaignERC20 is TwoKeyCampaignARC, TwoKeyTypes, Utils {\n\n\n    event Fulfilled(address indexed to, uint256 units);\n    event Rewarded(address indexed to, uint256 amount);\n\n    /// @notice Event which will be emitted when conversion expire\n    event Expired(address indexed _contract);\n    /// @notice Event which will be emitted when fallback function is executed\n    event ReceivedEther(address _sender, uint value);\n\n\n    /// Using safemath to avoid overflows during math operations\n    using SafeMath for uint256;\n\n    /// Structure which will represent conversion\n    struct Conversion {\n        address from;\n        uint256 payout;\n        address converter;\n        bool isFulfilled;\n        bool isCancelled;\n        string assetName;\n        address assetContract;\n        uint256 amount;\n        CampaignType campaignType;\n        uint256 openingTime;\n        uint256 closingTime;\n    }\n\n    string public name;\n    string public ipfs_hash;\n    string public symbol;\n    uint8 public decimals = 0;  // ARCs are not divisable\n    uint256 public cost; // Cost of product in wei\n    uint256 public bounty; // Cost of product in wei\n//    uint256 public quota;  // maximal tokens that can be passed in transferFrom\n    uint256 unit_decimals;  // units being sold can be fractional (for example tokens in ERC20)\n\n    mapping (address => Conversion) public conversions;\n    mapping(address => uint256) public influencer2cut;\n\n    /// Amount converter put to the contract in Ether\n    mapping (address => uint) balancesConvertersETH;\n    mapping(address => uint256) public units; // number of units bought\n\n    /// Balance will represent how many that tokens (erc20) we have on our Campaign\n    uint campaignInventoryUnitsBalance;\n\n    /// asset contract is address of that ERC20 inventory\n    address assetContract;\n\n    /// asset name is short name of the asset for example \"2key\"\n    string assetName;\n\n    uint converterProceeds;\n\n    TwoKeyEconomy twoKeyEconomy;\n    TwoKeyWhitelisted whitelistInfluencer;\n    TwoKeyWhitelisted whitelistConverter;\n\n\n    uint price; /// There's single price for the unit ERC20\n    uint256 rate; /// rate of conversion from TwoKey to ETH\n    uint openingTime;\n    uint closingTime;\n    address moderator;\n    uint256 expiryConversion; /// how long will hold asset in escrow\n    uint256 escrowPercentage; /// percentage of payout to. be paid for moderator for escrow\n    uint256 maxPi;\n\n\n    constructor(address _twoKeyEventSource, address _twoKeyEconomy,\n        address _whitelistInfluencer, address _whitelistConverter,\n        address _contractor, address _moderator, uint _openingTime, uint _closingTime,\n        uint _expiryConversion, uint _escrowPercentage, uint _rate, uint _maxPi,\n        address _assetContract) TwoKeyCampaignARC(_twoKeyEventSource, _contractor)StandardToken()\n        public {\n            require(_twoKeyEconomy != address(0));\n            require(_whitelistInfluencer != address(0));\n            require(_whitelistConverter != address(0));\n            require(_assetContract != address(0));\n            require(_rate > 0);\n            require(_maxPi > 0);\n\n\n            twoKeyEconomy = TwoKeyEconomy(_twoKeyEconomy);\n            whitelistInfluencer = TwoKeyWhitelisted(_whitelistInfluencer);\n            whitelistConverter = TwoKeyWhitelisted(_whitelistConverter);\n            assetContract = _assetContract;\n            moderator = _moderator;\n            openingTime = _openingTime;\n            closingTime = _closingTime;\n            expiryConversion = _expiryConversion;\n            escrowPercentage = _escrowPercentage;\n            maxPi = _maxPi;\n\n            // Emit event that TwoKeyCampaign is created\n            twoKeyEventSource.created(address(this), contractor);\n    }\n\n\n    /// @notice Modifier which is going to check if current time is between opening-closing campaign time\n    modifier isOngoing() {\n        require(block.timestamp >= openingTime && block.timestamp <= closingTime);\n        _;\n    }\n\n    /// @notice Modifier which is going to check if campaign is closed (if time is greater then closing time)\n    modifier isClosed() {\n        require(now > closingTime);\n        _;\n    }\n\n    /// @notice Modifier to check is the influencer eligible for participation in campaign\n    modifier isWhiteListedInfluencer() {\n        require(whitelistInfluencer.isWhitelisted(msg.sender));\n        _;\n    }\n\n    /// @notice Modifier to check is the converter eligible for participation in conversion\n    modifier isWhitelistedConverter() {\n        require(whitelistConverter.isWhitelisted(msg.sender));\n        _;\n    }\n\n\n    /// @notice Modifier to check if the Converter did the conversion\n    modifier didConverterConvert() {\n        Conversion memory c = conversions[msg.sender];\n        require(!c.isFulfilled && !c.isCancelled);\n        _;\n    }\n\n\n    /// @notice Method to add fungible asset to our contract\n    /// @dev When user calls this method, he just says the actual amount of ERC20 he'd like to transfer to us\n    /// @param _amount is the amount of ERC20 contract he'd like to give us\n    /// @return true if successful, otherwise transaction will revert\n    function addFungibleAsset(uint256 _amount) public returns (bool) {\n        require(\n            assetContract.call(\n                bytes4(keccak256(\"transferFrom(address,address,uint256)\")),\n                msg.sender,\n                address(this),\n                _amount\n            )\n        );\n        campaignInventoryUnitsBalance += _amount;\n        return true;\n    }\n\n    /// @notice Function to check balance of the ERC20 inventory (view - no gas needed to call this function)\n    /// @dev we're using Utils contract and fetching the balance of this contract address\n    /// @return balance value as uint\n    function checkInventoryBalance() public view returns (uint) {\n        uint balance = Utils.call_return(assetContract,\"balanceOf(address)\",uint(this));\n        return balance;\n    }\n\n    /// @notice Function which will check the balance and automatically update the balance in our contract regarding balance response\n    /// @return balance of ERC20 we have in our contract\n    function checkAndUpdateInventoryBalance() public returns (uint) {\n        uint balance = checkInventoryBalance();\n        campaignInventoryUnitsBalance = balance;\n        return balance;\n    }\n\n    /// @notice Move some amount of ERC20 from our campaignInventoryUnitsBalance to someone\n    /// @dev internal function\n    /// @param _to address we're sending the amount of ERC20\n    /// @param _amount is the amount of ERC20's we're going to transfer\n    /// @return true if successful, otherwise reverts\n    function moveFungibleAsset(address _to, uint256 _amount) internal returns (bool) {\n        require(campaignInventoryUnitsBalance >= _amount);\n        require(\n            assetContract.call(\n                bytes4(keccak256(abi.encodePacked(\"transfer(address,uint256)\"))),\n                _to, _amount\n            )\n        );\n        campaignInventoryUnitsBalance = campaignInventoryUnitsBalance - _amount;\n        return true;\n    }\n\n    // transfer an amount of erc20 from our catalogue to someone\n    // This should be called when conversion is executed\n\n    /// @notice Function which will transfer fungible assets from contract to someone\n    /// @param _to is the address we're sending the fungible assets\n    /// @param _amount is the amount of ERC20 we're going to transfer\n    /// @return true if trasaction completes otherwise transaction will revert\n    function transferFungibleAsset(address _to, uint256 _amount) internal returns (bool) {\n        return moveFungibleAsset(_to, _amount);\n    }\n\n    // TODO: Udis code which sends rewards etc get it\n    // TODO: Expiry of conversion event (Two-steps for conversion user puts in ether, and converter being approved by KYC)\n    // TODO: When conversion happens, there's timeout where converter can be approved, otherwise everything's transfered to contractor\n\n    /// @notice Function where user puts TwoKey to the contract\n    /// @dev we calculate how many ERC20s he can get and initiate the conversion\n    /// @dev function is internal, meaning can't be called outside of the contract\n    /// @param _from (??)\n    /// @param _assetName is the name of unit (erc20)\n    /// @param _amount is the amount of twoKey tokens we are transferring\n    /// no need to put assetContract to param since it's now state variable\n    function fulfillFungibleTwoKeyToken(address _from, string _assetName, uint256 _amount)  internal {\n        require(_amount > 0);\n        require(price > 0);\n        //        uint256 payout = price.mul(_amount).mul(rate);\n\n        /// Make sure that the payment has been sent\n        require(twoKeyEconomy.transferFrom(msg.sender, this, _amount));\n\n        /// _amount*rate = value of put TwoKey tokens in ETH / (divided) by price in ETH of the ERC20\n        uint _units = (_amount*rate) / price;\n\n        Conversion memory c = Conversion(_from, _amount, msg.sender, false, false, _assetName, assetContract, _units, CampaignType.CPA_FUNGIBLE, now, now + expiryConversion * 10 minutes);\n        // move funds\n        campaignInventoryUnitsBalance = campaignInventoryUnitsBalance - _units;\n//        twoKeyEventSource.escrow(address(this), msg.sender, _assetName, _assetContract, units, CampaignType.CPA_FUNGIBLE);\n        conversions[msg.sender] = c;\n    }\n\n    function fulfillFungibleETH(\n        address _from,\n        uint256 _amountETH\n    ) isOngoing internal {\n//        uint _amount = msg.value;\n        // TODO: Idea is that payout is msg.value\n        // Compute for the amount of ether how much tokens can be got by the amount\n        require(msg.value > 0);\n        //        require(price > 0);\n        uint payout = 1;\n        //        uint256 payout = price.mul(_amount);\n        require(msg.value == payout);\n        //TODO: Someone put 100 eth and he's entitled to X base + Y bonus  = (X+Y) taken from Inventory\n        //TODO: Take the msg.value, and regarding value I compute number of base and bonus tokens - sum of base and bonus is took out of the twoKeyCampaignInvent\n        Conversion memory c = Conversion(_from, payout, msg.sender, false, false, assetName, assetContract, msg.value, CampaignType.CPA_FUNGIBLE, now, now + expiryConversion * 1 days);\n\n\n        // move funds\n        campaignInventoryUnitsBalance = campaignInventoryUnitsBalance - msg.value;\n\n        // value in escrow (msg.value), total amount of tokens\n        //        twoKeyEventSource.escrow(address(this), msg.sender, _assetName, _assetContract, _amount, CampaignType.CPA_FUNGIBLE);\n        conversions[msg.sender] = c;\n    }\n\n    /// Is there a need to put assetContract as parameter , address _assetContract\n    function buyFromWithTwoKey(address _from, string _assetName, uint256 _amount) public payable {\n        fulfillFungibleTwoKeyToken(_from, _assetName, _amount);\n    }\n\n    /**\n     * given the total payout, calculates the moderator fee\n     * @param  _payout total payout for escrow\n     * @return moderator fee\n     */\n    function calculateModeratorFee(uint256 _payout) internal view returns (uint256)  {\n        if (escrowPercentage > 0) { // send the fee to moderator\n            uint256 fee = _payout.mul(escrowPercentage).div(100);\n            return fee;\n        }\n        return 0;\n    }\n\n\n    function transferAssetTwoKeyToken(uint256 _tokenID, address _assetContract, uint256 _amount) isWhitelistedConverter didConverterConvert public {\n        actuallyFulfilledTwoKeyToken();\n        require(transferFungibleAsset(msg.sender, _amount));\n    }\n\n\n    function cancelledEscrow(address _converter, address _assetContract, uint256 _amount) internal {\n        Conversion memory c = conversions[_converter];\n        c.isCancelled = true;\n        conversions[_converter] = c;\n        addFungibleAsset(_amount);\n        require(twoKeyEconomy.transfer(_converter, (c.payout).mul(rate)));\n    }\n\n\n    function cancelAssetTwoKey(address _converter, string _assetName, address _assetContract, uint256 _amount)  public returns (bool) {\n        Conversion memory c = conversions[_converter];\n        require(!c.isCancelled && !c.isFulfilled);\n        cancelledEscrow(_converter, _assetContract, _amount);\n        twoKeyEventSource.cancelled(address(this), _converter, _assetName, _assetContract, _amount, CampaignType.CPA_FUNGIBLE);\n\n        return true;\n    }\n\n\n    //onlyRole(ROLE_CONTROLLER) - comment\n    function expireEscrow(address _converter,address _assetContract, uint256 _amount) public returns (bool) {\n        Conversion memory c = conversions[_converter];\n        require(!c.isCancelled && !c.isFulfilled);\n        require(now > c.closingTime);\n        cancelledEscrow(_converter, _assetContract, _amount);\n        emit Expired(address(this));\n        return true;\n    }\n\n    function actuallyFulfilledTwoKeyToken() internal {\n        Conversion memory c = conversions[msg.sender];\n        c.isFulfilled = true;\n        conversions[msg.sender] = c;\n        uint256 fee = calculateModeratorFee(c.payout);\n\n        require(twoKeyEconomy.transfer(moderator, fee.mul(rate)));\n\n        uint256 payout = c.payout;\n        uint256 maxReward = maxPi.mul(payout).div(100);\n\n        // transfer payout - fee - rewards to seller\n        require(twoKeyEconomy.transfer(contractor, (payout.sub(fee).sub(maxReward)).mul(rate)));\n\n//        transferRewardsTwoKeyToken(c.from, maxReward.mul(rate));\n        //        twoKeyEventSource.fulfilled(address(this), c.converter, c.tokenID, c.assetContract, c.indexOrAmount, c.campaignType);\n    }\n\n    // @notice Function where an influencer that wishes to cash an _amount of 2key from the campaign can do it\n    function redeemTwoKeyToken(uint256 _amount) public {\n        require(referrerBalances2KEY[msg.sender] >= _amount && _amount > 0);\n        referrerBalances2KEY[msg.sender] = referrerBalances2KEY[msg.sender].sub(_amount);\n        twoKeyEconomy.transferFrom(this, msg.sender, _amount);\n    }\n\n    /// @notice (Fallback)Payable function which will accept all transactions which are sending ether to contract\n    /// @dev we require that msg.value is greater than 0\n    /// @dev function will update the mapping balances where we're mapping how much ether has been sent to contract from specified address\n    /// @dev will emit an event with address and value sent\n    function () external payable {\n        require(msg.value > 0);\n        balancesConvertersETH[msg.sender] += msg.value;\n        //        fulfillFungibleETH(from, msg.value);\n        emit ReceivedEther(msg.sender, msg.value);\n    }\n\n    /// @notice Function to check how much eth has been sent to contract from address\n    /// @param _from is the address we'd like to check balance\n    /// @return amount of ether sent to contract from the specified address\n    function checkAmountAddressSent(address _from) public view returns (uint) {\n        return balancesConvertersETH[_from];\n    }\n\n    /// @notice Function to check contract balance of specified ERC20 tokens\n    /// @return balance\n    function getContractBalance() public view returns(uint) {\n        return campaignInventoryUnitsBalance;\n    }\n\n    /// @notice View function to fetch the address of asset contract\n    /// @return address of that asset contract\n    function getAssetContractAddress() public view returns(address) {\n        return assetContract;\n    }\n\n\n    //==========================================================================================\n    //==========================================================================================\n\n    // the 2key link generated by the owner of this contract contains a secret which is a private key,\n    // this is the public part of this secret\n    mapping(address => address)  public public_link_key;\n\n    function setPublicLinkKey(address _public_link_key) public {\n        require(balanceOf(msg.sender) > 0);\n        require(public_link_key[msg.sender] == address(0));\n        public_link_key[msg.sender] = _public_link_key;\n    }\n\n    function setCut(uint256 cut) private {\n        // the sender sets what is the percentage of the bounty s/he will receive when acting as an influencer\n        // the value 255 is used to signal equal partition with other influencers\n        // A sender can set the value only once in a contract\n        require(cut <= 100 || cut == 255);\n        require(influencer2cut[msg.sender] == 0);\n        if (cut <= 100) {\n            cut++;\n        }\n        influencer2cut[msg.sender] = cut;\n    }\n\n\n    function getCuts(address last_influencer) public view returns (uint256[]) {\n        address[] memory influencers = getInfluencers(last_influencer);\n        uint256[] memory cuts = new uint256[](influencers.length + 1);\n        for (uint i = 0; i < influencers.length; i++) {\n            address influencer = influencers[i];\n            cuts[i] = influencer2cut[influencer];\n        }\n        cuts[influencers.length] = influencer2cut[last_influencer];\n        return cuts;\n    }\n\n    function transferSig(bytes sig) public {\n        // move ARCs based on signature information\n        // if version=1, with_cut is true then sig also include the cut (percentage) each influencer takes from the bounty\n        // the cut is stored in influencer2cut\n        uint idx = 0;\n        //    uint8 version;\n        //    if (idx+1 <= sig.length) {\n        //      idx += 1;\n        //      assembly\n        //      {\n        //        version := mload(add(sig, idx))\n        //      }\n        //    }\n        //    require(version < 2);\n        //    bool with_cut = false;\n        //    if (version == 1) {\n        //      with_cut = true;\n        //    }\n\n        address old_address;\n        if (idx+20 <= sig.length) {\n            idx += 20;\n            assembly\n            {\n                old_address := mload(add(sig, idx))\n            }\n        }\n\n        address old_public_link_key = public_link_key[old_address];\n        require(old_public_link_key != address(0));\n\n        while (idx + 65 <= sig.length) {\n            // The signature format is a compact form of:\n            //   {bytes32 r}{bytes32 s}{uint8 v}\n            // Compact means, uint8 is not padded to 32 bytes.\n            idx += 32;\n            bytes32 r;\n            assembly\n            {\n                r := mload(add(sig, idx))\n            }\n\n            idx += 32;\n            bytes32 s;\n            assembly\n            {\n                s := mload(add(sig, idx))\n            }\n\n            idx += 1;\n            uint8 v;\n            assembly\n            {\n                v := mload(add(sig, idx))\n            }\n\n            bytes32 hash;\n            address new_public_key;\n            address new_address;\n            //      if (idx + (with_cut ? 41 : 40) < sig.length) {\n            if (idx + 41 < sig.length) {  // its  a < and not a <= because we dont want this to be the final iteration for the converter\n                uint8 bounty_cut;\n                //        if (with_cut)\n                {\n                    idx += 1;\n                    assembly\n                    {\n                        bounty_cut := mload(add(sig, idx))\n                    }\n                    require(bounty_cut > 0);  // 0 and 255 are used to indicate default (equal part) behaviour\n                }\n\n                idx += 20;\n                assembly\n                {\n                    new_address := mload(add(sig, idx))\n                }\n\n                idx += 20;\n                assembly\n                {\n                    new_public_key := mload(add(sig, idx))\n                }\n\n                //        if (with_cut)\n                {\n                    //          require(bounty_cut > 0);\n                    if (influencer2cut[new_address] == 0) {\n                        influencer2cut[new_address] = uint256(bounty_cut);\n                    } else {\n                        require(influencer2cut[new_address] == uint256(bounty_cut));\n                    }\n                    hash = keccak256(abi.encodePacked(bounty_cut, new_public_key, new_address));\n                }\n                //        else {\n                //          hash = keccak256(abi.encodePacked(new_public_key, new_address));\n                //        }\n            } else {\n                require(idx == sig.length);\n                // signed message for the last step is the address of the converter\n                new_address = msg.sender;\n                hash = keccak256(abi.encodePacked(new_address));\n            }\n            // assume users can take ARCs only once... this could be changed\n            if (received_from[new_address] == 0) {\n                transferFrom(old_address, new_address, 1);\n            } else {\n                require(received_from[new_address] == old_address);\n            }\n\n            // check if we received a valid signature\n            address signer = ecrecover(hash, v, r, s);\n            if (signer != old_public_link_key) {\n                revert();\n            }\n            old_public_link_key = new_public_key;\n            old_address = new_address;\n        }\n        //    require(idx == sig.length);\n    }\n\n    function buyProduct() public payable {\n        unit_decimals = 18; // uint256(erc20_token_sell_contract.decimals());\n        // cost is the cost of a single token. Each token has 10**decimals units\n        // TODO: Compute valid base units and bonus units per the msg.value and token price and bonus percentage\n        uint256 _units = msg.value.mul(10**unit_decimals).div(cost);\n        // bounty is the cost of a single token. Compute the bounty for the units\n        // we are buying\n        // TODO: Replace bounty with new parameter maxReferralReward\n        uint256 _bounty = bounty.mul(_units).div(10**unit_decimals);\n        // TODO replace _bounty with this conversion reward\n        // Example; MaxReferralReward = 10% then msg.value = 100ETH\n        // then this conversionReward = 10ETH\n        // TODO: this function has to be part of conversion\n        updateRefchainRewardsAndConverterProceeds(_units, _bounty);\n        require(assetContract.call(bytes4(keccak256(\"transfer(address,uint256)\")),msg.sender,_units));\n    }\n\n    // Should be payable but internal functions can't be payable\n    function buyFrom(address _from) private {\n        require(_from != address(0));\n        address _to = msg.sender;\n        if (balanceOf(_to) == 0) {\n            transferFrom(_from, _to, 1);\n        }\n        buyProduct();\n    }\n\n    function updateRefchainRewardsAndConverterProceeds(uint256 _units, uint256 _bounty) public payable {\n        // buy coins with cut\n        // low level product purchase function\n        address customer = msg.sender;\n        uint256 customer_balance = balanceOf(customer);\n        require(customer_balance > 0);\n\n        uint256 _total_units = checkInventoryBalance();\n\n        require(_units > 0);\n        require(_total_units >= _units);\n        address[] memory influencers = getInfluencers(customer);\n//        uint n_influencers = influencers.length;\n\n        // distribute bounty to influencers\n        uint256 total_bounty = 0;\n        for (uint i = 0; i < influencers.length; i++) {\n            address influencer = influencers[i];  // influencers is in reverse order\n            uint256 b;\n            if (i == influencers.length -1) {  // if its the last influencer then all the bounty goes to it.\n                b = _bounty;\n            } else {\n                uint256 cut = influencer2cut[influencer];\n                //        emit Log(\"CUT\", influencer, cut);\n                if (cut > 0 && cut <= 101) {\n                    b = _bounty.mul(cut.sub(1)).div(100);\n                } else {  // cut == 0 or 255 indicates equal particine of the bounty\n                    b = _bounty.div(influencers.length -i);\n                }\n            }\n            referrerBalancesETH[influencer] = referrerBalancesETH[influencer].add(b);\n            emit Rewarded(influencer, b);\n            total_bounty = total_bounty.add(b);\n            _bounty = _bounty.sub(b);\n        }\n\n        // all that is left from the cost is given to the owner for selling the product\n        converterProceeds = converterProceeds.add(msg.value).sub(total_bounty); // TODO we want the cost of a token to be fixed?\n        units[customer] = units[customer].add(_units);\n\n        emit Fulfilled(customer, units[customer]);\n    }\n//    function getConstantInfo() public view returns (string,string,uint,uint,uint,address,string,uint) {\n//        return (name,symbol,cost,bounty,quota,contractor,ipfs_hash,unit_decimals);\n//    }\n}\n",
  "sourcePath": "/Users/nikolamadjarevic/Desktop/2key/contracts/contracts/2key/TwoKeyAcquisitionCampaignERC20.sol",
  "compiler": {
    "name": "solc",
    "version": "0.4.24+commit.e67f0147.Emscripten.clang"
  },
  "schemaVersion": "2.0.1",
  "updatedAt": "2018-09-12T08:30:26.264Z"
}