{
  "contractName": "TwoKeyEventSource",
  "abi": [
    {
      "inputs": [
        {
          "name": "_twoKeyAdminAddress",
          "type": "address"
        }
      ],
      "payable": false,
      "stateMutability": "nonpayable",
      "type": "constructor"
    },
    {
      "anonymous": false,
      "inputs": [
        {
          "indexed": true,
          "name": "_campaign",
          "type": "address"
        },
        {
          "indexed": true,
          "name": "_owner",
          "type": "address"
        }
      ],
      "name": "Created",
      "type": "event"
    },
    {
      "anonymous": false,
      "inputs": [
        {
          "indexed": true,
          "name": "_campaign",
          "type": "address"
        },
        {
          "indexed": true,
          "name": "_from",
          "type": "address"
        },
        {
          "indexed": true,
          "name": "_to",
          "type": "address"
        }
      ],
      "name": "Joined",
      "type": "event"
    },
    {
      "anonymous": false,
      "inputs": [
        {
          "indexed": true,
          "name": "_campaign",
          "type": "address"
        },
        {
          "indexed": true,
          "name": "_converter",
          "type": "address"
        },
        {
          "indexed": false,
          "name": "_tokenID",
          "type": "uint256"
        },
        {
          "indexed": false,
          "name": "_childContractID",
          "type": "address"
        },
        {
          "indexed": false,
          "name": "_indexOrAmount",
          "type": "uint256"
        },
        {
          "indexed": false,
          "name": "_type",
          "type": "uint8"
        }
      ],
      "name": "Escrow",
      "type": "event"
    },
    {
      "anonymous": false,
      "inputs": [
        {
          "indexed": true,
          "name": "_campaign",
          "type": "address"
        },
        {
          "indexed": true,
          "name": "_to",
          "type": "address"
        },
        {
          "indexed": false,
          "name": "_amount",
          "type": "uint256"
        }
      ],
      "name": "Rewarded",
      "type": "event"
    },
    {
      "anonymous": false,
      "inputs": [
        {
          "indexed": true,
          "name": "_campaign",
          "type": "address"
        },
        {
          "indexed": true,
          "name": "_converter",
          "type": "address"
        },
        {
          "indexed": true,
          "name": "_tokenID",
          "type": "uint256"
        },
        {
          "indexed": false,
          "name": "_childContractID",
          "type": "address"
        },
        {
          "indexed": false,
          "name": "_indexOrAmount",
          "type": "uint256"
        },
        {
          "indexed": false,
          "name": "_type",
          "type": "uint8"
        }
      ],
      "name": "Fulfilled",
      "type": "event"
    },
    {
      "anonymous": false,
      "inputs": [
        {
          "indexed": true,
          "name": "_campaign",
          "type": "address"
        },
        {
          "indexed": true,
          "name": "_converter",
          "type": "address"
        },
        {
          "indexed": true,
          "name": "_tokenID",
          "type": "uint256"
        },
        {
          "indexed": false,
          "name": "_childContractID",
          "type": "address"
        },
        {
          "indexed": false,
          "name": "_indexOrAmount",
          "type": "uint256"
        },
        {
          "indexed": false,
          "name": "_type",
          "type": "uint8"
        }
      ],
      "name": "Cancelled",
      "type": "event"
    },
    {
      "constant": false,
      "inputs": [
        {
          "name": "_contractAddress",
          "type": "address"
        }
      ],
      "name": "addContract",
      "outputs": [],
      "payable": false,
      "stateMutability": "nonpayable",
      "type": "function"
    },
    {
      "constant": false,
      "inputs": [
        {
          "name": "_contractAddress",
          "type": "address"
        }
      ],
      "name": "removeContract",
      "outputs": [],
      "payable": false,
      "stateMutability": "nonpayable",
      "type": "function"
    },
    {
      "constant": false,
      "inputs": [
        {
          "name": "_newAddress",
          "type": "address"
        }
      ],
      "name": "addAuthorizedAddress",
      "outputs": [],
      "payable": false,
      "stateMutability": "nonpayable",
      "type": "function"
    },
    {
      "constant": false,
      "inputs": [
        {
          "name": "_authorizedAddress",
          "type": "address"
        }
      ],
      "name": "removeAuthorizedAddress",
      "outputs": [],
      "payable": false,
      "stateMutability": "nonpayable",
      "type": "function"
    },
    {
      "constant": false,
      "inputs": [
        {
          "name": "_contractCode",
          "type": "bytes"
        },
        {
          "name": "_campaignType",
          "type": "uint8"
        }
      ],
      "name": "addCampaignType",
      "outputs": [],
      "payable": false,
      "stateMutability": "nonpayable",
      "type": "function"
    },
    {
      "constant": false,
      "inputs": [
        {
          "name": "_newAdminAddress",
          "type": "address"
        }
      ],
      "name": "changeAdmin",
      "outputs": [],
      "payable": false,
      "stateMutability": "nonpayable",
      "type": "function"
    },
    {
      "constant": true,
      "inputs": [
        {
          "name": "_contractCode",
          "type": "bytes"
        }
      ],
      "name": "checkCanEmit",
      "outputs": [
        {
          "name": "",
          "type": "bool"
        }
      ],
      "payable": false,
      "stateMutability": "view",
      "type": "function"
    },
    {
      "constant": false,
      "inputs": [
        {
          "name": "_campaign",
          "type": "address"
        },
        {
          "name": "_owner",
          "type": "address"
        }
      ],
      "name": "created",
      "outputs": [],
      "payable": false,
      "stateMutability": "nonpayable",
      "type": "function"
    },
    {
      "constant": false,
      "inputs": [
        {
          "name": "_campaign",
          "type": "address"
        },
        {
          "name": "_from",
          "type": "address"
        },
        {
          "name": "_to",
          "type": "address"
        }
      ],
      "name": "joined",
      "outputs": [],
      "payable": false,
      "stateMutability": "nonpayable",
      "type": "function"
    },
    {
      "constant": false,
      "inputs": [
        {
          "name": "_campaign",
          "type": "address"
        },
        {
          "name": "_converter",
          "type": "address"
        },
        {
          "name": "_tokenID",
          "type": "uint256"
        },
        {
          "name": "_childContractID",
          "type": "address"
        },
        {
          "name": "_indexOrAmount",
          "type": "uint256"
        },
        {
          "name": "_type",
          "type": "uint8"
        }
      ],
      "name": "escrow",
      "outputs": [],
      "payable": false,
      "stateMutability": "nonpayable",
      "type": "function"
    },
    {
      "constant": false,
      "inputs": [
        {
          "name": "_campaign",
          "type": "address"
        },
        {
          "name": "_to",
          "type": "address"
        },
        {
          "name": "_amount",
          "type": "uint256"
        }
      ],
      "name": "rewarded",
      "outputs": [],
      "payable": false,
      "stateMutability": "nonpayable",
      "type": "function"
    },
    {
      "constant": false,
      "inputs": [
        {
          "name": "_campaign",
          "type": "address"
        },
        {
          "name": "_converter",
          "type": "address"
        },
        {
          "name": "_tokenID",
          "type": "uint256"
        },
        {
          "name": "_childContractID",
          "type": "address"
        },
        {
          "name": "_indexOrAmount",
          "type": "uint256"
        },
        {
          "name": "_type",
          "type": "uint8"
        }
      ],
      "name": "fulfilled",
      "outputs": [],
      "payable": false,
      "stateMutability": "nonpayable",
      "type": "function"
    },
    {
      "constant": false,
      "inputs": [
        {
          "name": "_campaign",
          "type": "address"
        },
        {
          "name": "_converter",
          "type": "address"
        },
        {
          "name": "_tokenID",
          "type": "uint256"
        },
        {
          "name": "_childContractID",
          "type": "address"
        },
        {
          "name": "_indexOrAmount",
          "type": "uint256"
        },
        {
          "name": "_type",
          "type": "uint8"
        }
      ],
      "name": "cancelled",
      "outputs": [],
      "payable": false,
      "stateMutability": "nonpayable",
      "type": "function"
    }
  ],
  "bytecode": "0x608060405234801561001057600080fd5b506040516020806115b783398101806040528101908080519060200190929190505050806000806101000a81548173ffffffffffffffffffffffffffffffffffffffff021916908373ffffffffffffffffffffffffffffffffffffffff16021790555050611534806100836000396000f3006080604052600436106100c5576000357c0100000000000000000000000000000000000000000000000000000000900463ffffffff1680631d186584146100ca5780633a0f6a3c1461012d57806342f1181e146101d157806345d29f0f146102145780635f539d69146102b8578063693cc8a5146102fb57806370712939146103715780638af1cbb9146103b45780638e8f6283146104375780638f283970146104db578063bd6cd0d11461051e578063c375c2ef1461058b578063f204c88c146105ce575b600080fd5b3480156100d657600080fd5b5061012b600480360381019080803573ffffffffffffffffffffffffffffffffffffffff169060200190929190803573ffffffffffffffffffffffffffffffffffffffff16906020019092919050505061064f565b005b34801561013957600080fd5b506101cf600480360381019080803573ffffffffffffffffffffffffffffffffffffffff169060200190929190803573ffffffffffffffffffffffffffffffffffffffff16906020019092919080359060200190929190803573ffffffffffffffffffffffffffffffffffffffff16906020019092919080359060200190929190803560ff169060200190929190505050610746565b005b3480156101dd57600080fd5b50610212600480360381019080803573ffffffffffffffffffffffffffffffffffffffff169060200190929190505050610897565b005b34801561022057600080fd5b506102b6600480360381019080803573ffffffffffffffffffffffffffffffffffffffff169060200190929190803573ffffffffffffffffffffffffffffffffffffffff16906020019092919080359060200190929190803573ffffffffffffffffffffffffffffffffffffffff16906020019092919080359060200190929190803560ff169060200190929190505050610989565b005b3480156102c457600080fd5b506102f9600480360381019080803573ffffffffffffffffffffffffffffffffffffffff169060200190929190505050610ae1565b005b34801561030757600080fd5b5061036f600480360381019080803590602001908201803590602001908080601f0160208091040260200160405190810160405280939291908181526020018383808284378201915050505050509192919290803560ff169060200190929190505050610c67565b005b34801561037d57600080fd5b506103b2600480360381019080803573ffffffffffffffffffffffffffffffffffffffff169060200190929190505050610d82565b005b3480156103c057600080fd5b50610435600480360381019080803573ffffffffffffffffffffffffffffffffffffffff169060200190929190803573ffffffffffffffffffffffffffffffffffffffff169060200190929190803573ffffffffffffffffffffffffffffffffffffffff169060200190929190505050610ed3565b005b34801561044357600080fd5b506104d9600480360381019080803573ffffffffffffffffffffffffffffffffffffffff169060200190929190803573ffffffffffffffffffffffffffffffffffffffff16906020019092919080359060200190929190803573ffffffffffffffffffffffffffffffffffffffff16906020019092919080359060200190929190803560ff169060200190929190505050610fe2565b005b3480156104e757600080fd5b5061051c600480360381019080803573ffffffffffffffffffffffffffffffffffffffff169060200190929190505050611133565b005b34801561052a57600080fd5b50610589600480360381019080803573ffffffffffffffffffffffffffffffffffffffff169060200190929190803573ffffffffffffffffffffffffffffffffffffffff169060200190929190803590602001909291905050506111d1565b005b34801561059757600080fd5b506105cc600480360381019080803573ffffffffffffffffffffffffffffffffffffffff1690602001909291905050506112d4565b005b3480156105da57600080fd5b50610635600480360381019080803590602001908201803590602001908080601f016020809104026020016040519081016040528093929190818152602001838380828437820191505050505050919291929050505061145b565b604051808215151515815260200191505060405180910390f35b606061065a336114dd565b9050600115156001826040518082805190602001908083835b6020831015156106985780518252602082019150602081019050602083039250610673565b6001836020036101000a038019825116818451168082178552505050505050905001915050908152602001604051809103902060009054906101000a900460ff1615151415156106e757600080fd5b8173ffffffffffffffffffffffffffffffffffffffff168373ffffffffffffffffffffffffffffffffffffffff167f587ece4cd19692c5be1a4184503d607d45542d2aca0698c0068f52e09ccb541c60405160405180910390a3505050565b6060610751336114dd565b9050600115156001826040518082805190602001908083835b60208310151561078f578051825260208201915060208101905060208303925061076a565b6001836020036101000a038019825116818451168082178552505050505050905001915050908152602001604051809103902060009054906101000a900460ff1615151415156107de57600080fd5b848673ffffffffffffffffffffffffffffffffffffffff168873ffffffffffffffffffffffffffffffffffffffff167f31d1450da12c7969e2e80053e9bcbeaff71faed858b70ec949c19e4ce2a15ee8878787604051808473ffffffffffffffffffffffffffffffffffffffff1673ffffffffffffffffffffffffffffffffffffffff16815260200183815260200182600381111561087957fe5b60ff168152602001935050505060405180910390a450505050505050565b6000809054906101000a900473ffffffffffffffffffffffffffffffffffffffff1673ffffffffffffffffffffffffffffffffffffffff163373ffffffffffffffffffffffffffffffffffffffff161415156108f257600080fd5b600073ffffffffffffffffffffffffffffffffffffffff168173ffffffffffffffffffffffffffffffffffffffff161415151561092e57600080fd5b6001600360008373ffffffffffffffffffffffffffffffffffffffff1673ffffffffffffffffffffffffffffffffffffffff16815260200190815260200160002060006101000a81548160ff02191690831515021790555050565b6060610994336114dd565b9050600115156001826040518082805190602001908083835b6020831015156109d257805182526020820191506020810190506020830392506109ad565b6001836020036101000a038019825116818451168082178552505050505050905001915050908152602001604051809103902060009054906101000a900460ff161515141515610a2157600080fd5b8573ffffffffffffffffffffffffffffffffffffffff168773ffffffffffffffffffffffffffffffffffffffff167fb05d7e658563578e425732405770c551f908ca64d3b39e8d655695676adfbf2787878787604051808581526020018473ffffffffffffffffffffffffffffffffffffffff1673ffffffffffffffffffffffffffffffffffffffff168152602001838152602001826003811115610ac257fe5b60ff16815260200194505050505060405180910390a350505050505050565b606060011515600360003373ffffffffffffffffffffffffffffffffffffffff1673ffffffffffffffffffffffffffffffffffffffff16815260200190815260200160002060009054906101000a900460ff1615151480610b8e57506000809054906101000a900473ffffffffffffffffffffffffffffffffffffffff1673ffffffffffffffffffffffffffffffffffffffff163373ffffffffffffffffffffffffffffffffffffffff16145b1515610b9957600080fd5b600073ffffffffffffffffffffffffffffffffffffffff168273ffffffffffffffffffffffffffffffffffffffff1614151515610bd557600080fd5b610bde826114dd565b9050600180826040518082805190602001908083835b602083101515610c195780518252602082019150602081019050602083039250610bf4565b6001836020036101000a038019825116818451168082178552505050505050905001915050908152602001604051809103902060006101000a81548160ff0219169083151502179055505050565b600115156001836040518082805190602001908083835b602083101515610ca35780518252602082019150602081019050602083039250610c7e565b6001836020036101000a038019825116818451168082178552505050505050905001915050908152602001604051809103902060009054906101000a900460ff161515141515610cf257600080fd5b806002836040518082805190602001908083835b602083101515610d2b5780518252602082019150602081019050602083039250610d06565b6001836020036101000a038019825116818451168082178552505050505050905001915050908152602001604051809103902060006101000a81548160ff02191690836003811115610d7957fe5b02179055505050565b6000809054906101000a900473ffffffffffffffffffffffffffffffffffffffff1673ffffffffffffffffffffffffffffffffffffffff163373ffffffffffffffffffffffffffffffffffffffff16141515610ddd57600080fd5b600073ffffffffffffffffffffffffffffffffffffffff168173ffffffffffffffffffffffffffffffffffffffff1614151515610e1957600080fd5b60011515600360008373ffffffffffffffffffffffffffffffffffffffff1673ffffffffffffffffffffffffffffffffffffffff16815260200190815260200160002060009054906101000a900460ff161515141515610e7857600080fd5b6000600360008373ffffffffffffffffffffffffffffffffffffffff1673ffffffffffffffffffffffffffffffffffffffff16815260200190815260200160002060006101000a81548160ff02191690831515021790555050565b6060610ede336114dd565b9050600115156001826040518082805190602001908083835b602083101515610f1c5780518252602082019150602081019050602083039250610ef7565b6001836020036101000a038019825116818451168082178552505050505050905001915050908152602001604051809103902060009054906101000a900460ff161515141515610f6b57600080fd5b8173ffffffffffffffffffffffffffffffffffffffff168373ffffffffffffffffffffffffffffffffffffffff168573ffffffffffffffffffffffffffffffffffffffff167f2bd729a8054724da0df9fdf02b37398fb43652780a2590cef6fa6e8abcf4367860405160405180910390a450505050565b6060610fed336114dd565b9050600115156001826040518082805190602001908083835b60208310151561102b5780518252602082019150602081019050602083039250611006565b6001836020036101000a038019825116818451168082178552505050505050905001915050908152602001604051809103902060009054906101000a900460ff16151514151561107a57600080fd5b848673ffffffffffffffffffffffffffffffffffffffff168873ffffffffffffffffffffffffffffffffffffffff167f21d6556a28b7fe5a660e5d6c013bcada2d9914fbe3e8a69364208f9b5e3d64a1878787604051808473ffffffffffffffffffffffffffffffffffffffff1673ffffffffffffffffffffffffffffffffffffffff16815260200183815260200182600381111561111557fe5b60ff168152602001935050505060405180910390a450505050505050565b6000809054906101000a900473ffffffffffffffffffffffffffffffffffffffff1673ffffffffffffffffffffffffffffffffffffffff163373ffffffffffffffffffffffffffffffffffffffff1614151561118e57600080fd5b806000806101000a81548173ffffffffffffffffffffffffffffffffffffffff021916908373ffffffffffffffffffffffffffffffffffffffff16021790555050565b60606111dc336114dd565b9050600115156001826040518082805190602001908083835b60208310151561121a57805182526020820191506020810190506020830392506111f5565b6001836020036101000a038019825116818451168082178552505050505050905001915050908152602001604051809103902060009054906101000a900460ff16151514151561126957600080fd5b8273ffffffffffffffffffffffffffffffffffffffff168473ffffffffffffffffffffffffffffffffffffffff167f6876a213a761d9b4f8d7ba3609528ef85da671684271f75fdacb41be8db29f45846040518082815260200191505060405180910390a350505050565b606060011515600360003373ffffffffffffffffffffffffffffffffffffffff1673ffffffffffffffffffffffffffffffffffffffff16815260200190815260200160002060009054906101000a900460ff161515148061138157506000809054906101000a900473ffffffffffffffffffffffffffffffffffffffff1673ffffffffffffffffffffffffffffffffffffffff163373ffffffffffffffffffffffffffffffffffffffff16145b151561138c57600080fd5b600073ffffffffffffffffffffffffffffffffffffffff168273ffffffffffffffffffffffffffffffffffffffff16141515156113c857600080fd5b6113d1826114dd565b905060006001826040518082805190602001908083835b60208310151561140d57805182526020820191506020810190506020830392506113e8565b6001836020036101000a038019825116818451168082178552505050505050905001915050908152602001604051809103902060006101000a81548160ff0219169083151502179055505050565b60006001826040518082805190602001908083835b6020831015156114955780518252602082019150602081019050602083039250611470565b6001836020036101000a038019825116818451168082178552505050505050905001915050908152602001604051809103902060009054906101000a900460ff169050919050565b6060813b6040519150601f19601f602083010116820160405280825280600060208401853c509190505600a165627a7a723058200241e25ba9b70f416e9f37688d980bb1d59ef09bf20b5f3b4f1571be6ec72bd40029",
  "source": "pragma solidity ^0.4.24;\n\nimport './TwoKeyTypes.sol';\nimport \"./TwoKeyAdmin.sol\";\nimport \"./GetCode.sol\";\n\ncontract TwoKeyEventSource is TwoKeyTypes {\n\n    /// Events\n    event Created(address indexed _campaign, address indexed _owner);\n    event Joined(address indexed _campaign, address indexed _from, address indexed _to);\n    event Escrow(address indexed _campaign, address indexed _converter, uint256 _tokenID, address _childContractID, uint256 _indexOrAmount, CampaignType _type);\n    event Rewarded(address indexed _campaign, address indexed _to, uint256 _amount);\n    event Fulfilled(address indexed _campaign, address indexed _converter, uint256 indexed _tokenID, address _childContractID, uint256 _indexOrAmount, CampaignType _type);\n    event Cancelled(address indexed _campaign, address indexed _converter, uint256 indexed _tokenID, address _childContractID, uint256 _indexOrAmount, CampaignType _type);\n\n\n    ///Address of the contract admin\n    TwoKeyAdmin twoKeyAdmin;\n\n    ///Mapping contract bytecode to boolean if is allowed to emit an event\n    mapping(bytes => bool) canEmit;\n\n    /// Mapping contract bytecode to enumerator CampaignType.\n    mapping(bytes => CampaignType) codeToType;\n\n\n    ///Mapping an address to boolean if allowed to modify\n    mapping(address => bool) authorizedSubadmins;\n\n\n\n    ///@notice Modifier which allows only admin to call a function - can be easily modified if there is going to be more admins\n    modifier onlyAdmin {\n        require(msg.sender == address(twoKeyAdmin));\n        _;\n    }\n\n    ///@notice Modifier which allows all modifiers to update canEmit mapping - ever\n    modifier onlyAuthorizedSubadmins {\n        require(authorizedSubadmins[msg.sender] == true || msg.sender == address(twoKeyAdmin));\n        _;\n    }\n\n    ///@notice Modifier which will only allow allowed contracts to emit an event\n    modifier onlyAllowedContracts {\n        //just to use contract code instead of msg.sender address\n        bytes memory code = GetCode.at(msg.sender);\n        require(canEmit[code] == true);\n        _;\n    }\n\n    /// @notice function where admin or any authorized person (will be added if needed) can add more contracts to allow them call methods\n    /// @param _contractAddress is actually the address of contract we'd like to allow\n    /// @dev We first fetch bytes32 contract code and then update our mapping\n    /// @dev only admin can call this or an authorized person\n    function addContract(address _contractAddress) public onlyAuthorizedSubadmins {\n        require(_contractAddress != address(0));\n        bytes memory _contractCode = GetCode.at(_contractAddress);\n        canEmit[_contractCode] = true;\n    }\n\n    /// @notice function where admin or any authorized person (will be added if needed) can remove contract (disable permissions to emit Events)\n    /// @param _contractAddress is actually the address of contract we'd like to disable\n    /// @dev We first fetch bytes32 contract code and then update our mapping\n    /// @dev only admin can call this or an authorized person\n    function removeContract(address _contractAddress) public onlyAuthorizedSubadmins {\n        require(_contractAddress != address(0));\n        bytes memory _contractCode = GetCode.at(_contractAddress);\n        canEmit[_contractCode] = false;\n    }\n\n    /// @notice Function where an admin can authorize any other person to modify allowed contracts\n    /// @param _newAddress is the address of new modifier contract / account\n    /// @dev if only contract can be modifier then we'll add one more validation step\n    function addAuthorizedAddress(address _newAddress) public onlyAdmin {\n        require(_newAddress != address(0));\n        authorizedSubadmins[_newAddress] = true;\n    }\n\n    /// @notice Function to remove authorization from an modifier\n    /// @param _authorizedAddress is the address of modifier\n    /// @dev checking if that address is set to true before since we'll spend 21k gas if it's already false to override that value\n    function removeAuthorizedAddress(address _authorizedAddress) public onlyAdmin {\n        require(_authorizedAddress != address(0));\n        require(authorizedSubadmins[_authorizedAddress] == true);\n\n        authorizedSubadmins[_authorizedAddress] = false;\n    }\n\n    /// @notice Function to map contract code to type of campaign\n    /// @dev is contract required to be allowed to emit to even exist in mapping codeToType\n    /// @param _contractCode is code od contract\n    /// @param _campaignType is enumerator representing type of campaign\n    function addCampaignType(bytes _contractCode, CampaignType _campaignType) {\n        require(canEmit[_contractCode] == true); //Check if this validation is needed\n        codeToType[_contractCode] = _campaignType;\n    }\n\n    /// @notice Function where admin can be changed\n    /// @param _newAdminAddress is the address of new admin\n    /// @dev think about some security layer here\n    function changeAdmin(address _newAdminAddress) public onlyAdmin {\n        twoKeyAdmin = TwoKeyAdmin(_newAdminAddress);\n    }\n\n    function checkCanEmit(bytes _contractCode) public view returns (bool) {\n        return canEmit[_contractCode];\n    }\n\n    /// @notice Constructor during deployment of contract we need to set an admin address (means TwoKeyAdmin needs to be previously deployed)\n    /// @param _twoKeyAdminAddress is the address of TwoKeyAdmin contract previously deployed\n    constructor(address _twoKeyAdminAddress) public {\n        twoKeyAdmin = TwoKeyAdmin(_twoKeyAdminAddress);\n    }\n\n    /// @dev Only allowed contracts can call this function ---> means can emit events\n    function created(address _campaign, address _owner) public onlyAllowedContracts{\n    \temit Created(_campaign, _owner);\n    }\n\n    /// @dev Only allowed contracts can call this function ---> means can emit events\n    function joined(address _campaign, address _from, address _to) public onlyAllowedContracts{\n    \temit Joined(_campaign, _from, _to);\n    }\n\n    /// @dev Only allowed contracts can call this function ---> means can emit events\n    function escrow(address _campaign, address _converter, uint256 _tokenID, address _childContractID, uint256 _indexOrAmount, CampaignType _type) public onlyAllowedContracts{\n    \temit Escrow(_campaign, _converter, _tokenID, _childContractID, _indexOrAmount, _type);\n    }\n\n    /// @dev Only allowed contracts can call this function ---> means can emit events\n    function rewarded(address _campaign, address _to, uint256 _amount) public onlyAllowedContracts {\n    \temit Rewarded(_campaign, _to, _amount);\n\t}\n\n    /// @dev Only allowed contracts can call this function ---> means can emit events\n\tfunction fulfilled(address  _campaign, address _converter, uint256 _tokenID, address _childContractID, uint256 _indexOrAmount, CampaignType _type) public onlyAllowedContracts {\n\t\temit Fulfilled(_campaign, _converter, _tokenID, _childContractID, _indexOrAmount, _type);\n\t}\n\n    /// @dev Only allowed contracts can call this function ---> means can emit events\n\tfunction cancelled(address  _campaign, address _converter, uint256 _tokenID, address _childContractID, uint256 _indexOrAmount, CampaignType _type) public onlyAllowedContracts{\n\t\temit Cancelled(_campaign, _converter, _tokenID, _childContractID, _indexOrAmount, _type);\n\t}\n\n}",
  "sourcePath": "/Users/aydnep/2key/contracts/contracts/2key/TwoKeyEventSource.sol",
  "compiler": {
    "name": "solc",
    "version": "0.4.24+commit.e67f0147.Emscripten.clang"
  },
  "schemaVersion": "2.0.1",
  "updatedAt": "2018-08-21T06:34:02.916Z"
}