{
  "contractName": "TwoKeyReg",
  "abi": [
    {
      "constant": true,
      "inputs": [
        {
          "name": "_operator",
          "type": "address"
        },
        {
          "name": "_role",
          "type": "string"
        }
      ],
      "name": "checkRole",
      "outputs": [],
      "payable": false,
      "stateMutability": "view",
      "type": "function"
    },
    {
      "constant": true,
      "inputs": [
        {
          "name": "_operator",
          "type": "address"
        },
        {
          "name": "_role",
          "type": "string"
        }
      ],
      "name": "hasRole",
      "outputs": [
        {
          "name": "",
          "type": "bool"
        }
      ],
      "payable": false,
      "stateMutability": "view",
      "type": "function"
    },
    {
      "constant": true,
      "inputs": [
        {
          "name": "",
          "type": "address"
        },
        {
          "name": "",
          "type": "uint256"
        }
      ],
      "name": "userToCampaignsWhereReferrer",
      "outputs": [
        {
          "name": "",
          "type": "address"
        }
      ],
      "payable": false,
      "stateMutability": "view",
      "type": "function"
    },
    {
      "constant": true,
      "inputs": [
        {
          "name": "",
          "type": "address"
        },
        {
          "name": "",
          "type": "uint256"
        }
      ],
      "name": "userToCampaignsWhereConverter",
      "outputs": [
        {
          "name": "",
          "type": "address"
        }
      ],
      "payable": false,
      "stateMutability": "view",
      "type": "function"
    },
    {
      "constant": true,
      "inputs": [],
      "name": "ROLE_CONTROLLER",
      "outputs": [
        {
          "name": "",
          "type": "string"
        }
      ],
      "payable": false,
      "stateMutability": "view",
      "type": "function"
    },
    {
      "constant": false,
      "inputs": [],
      "name": "renounceOwnership",
      "outputs": [],
      "payable": false,
      "stateMutability": "nonpayable",
      "type": "function"
    },
    {
      "constant": true,
      "inputs": [
        {
          "name": "",
          "type": "address"
        }
      ],
      "name": "owner2name",
      "outputs": [
        {
          "name": "",
          "type": "string"
        }
      ],
      "payable": false,
      "stateMutability": "view",
      "type": "function"
    },
    {
      "constant": false,
      "inputs": [
        {
          "name": "addr",
          "type": "address"
        },
        {
          "name": "roleName",
          "type": "string"
        }
      ],
      "name": "adminRemoveRole",
      "outputs": [],
      "payable": false,
      "stateMutability": "nonpayable",
      "type": "function"
    },
    {
      "constant": true,
      "inputs": [],
      "name": "owner",
      "outputs": [
        {
          "name": "",
          "type": "address"
        }
      ],
      "payable": false,
      "stateMutability": "view",
      "type": "function"
    },
    {
      "constant": true,
      "inputs": [
        {
          "name": "",
          "type": "address"
        },
        {
          "name": "",
          "type": "uint256"
        }
      ],
      "name": "userToCampaignsWhereModerator",
      "outputs": [
        {
          "name": "",
          "type": "address"
        }
      ],
      "payable": false,
      "stateMutability": "view",
      "type": "function"
    },
    {
      "constant": false,
      "inputs": [
        {
          "name": "addr",
          "type": "address"
        },
        {
          "name": "roleName",
          "type": "string"
        }
      ],
      "name": "adminAddRole",
      "outputs": [],
      "payable": false,
      "stateMutability": "nonpayable",
      "type": "function"
    },
    {
      "constant": true,
      "inputs": [],
      "name": "getAdminRole",
      "outputs": [
        {
          "name": "",
          "type": "string"
        }
      ],
      "payable": false,
      "stateMutability": "view",
      "type": "function"
    },
    {
      "constant": true,
      "inputs": [],
      "name": "onlyControllerRole",
      "outputs": [
        {
          "name": "",
          "type": "bool"
        }
      ],
      "payable": false,
      "stateMutability": "view",
      "type": "function"
    },
    {
      "constant": true,
      "inputs": [],
      "name": "ROLE_ADMIN",
      "outputs": [
        {
          "name": "",
          "type": "string"
        }
      ],
      "payable": false,
      "stateMutability": "view",
      "type": "function"
    },
    {
      "constant": true,
      "inputs": [
        {
          "name": "",
          "type": "bytes32"
        }
      ],
      "name": "name2owner",
      "outputs": [
        {
          "name": "",
          "type": "address"
        }
      ],
      "payable": false,
      "stateMutability": "view",
      "type": "function"
    },
    {
      "constant": true,
      "inputs": [],
      "name": "getControllerRole",
      "outputs": [
        {
          "name": "",
          "type": "string"
        }
      ],
      "payable": false,
      "stateMutability": "view",
      "type": "function"
    },
    {
      "constant": false,
      "inputs": [
        {
          "name": "_newOwner",
          "type": "address"
        }
      ],
      "name": "transferOwnership",
      "outputs": [],
      "payable": false,
      "stateMutability": "nonpayable",
      "type": "function"
    },
    {
      "constant": true,
      "inputs": [
        {
          "name": "",
          "type": "address"
        },
        {
          "name": "",
          "type": "uint256"
        }
      ],
      "name": "userToCampaignsWhereContractor",
      "outputs": [
        {
          "name": "",
          "type": "address"
        }
      ],
      "payable": false,
      "stateMutability": "view",
      "type": "function"
    },
    {
      "inputs": [
        {
          "name": "_twoKeyEventSource",
          "type": "address"
        },
        {
          "name": "_twoKeyAdmin",
          "type": "address"
        }
      ],
      "payable": false,
      "stateMutability": "nonpayable",
      "type": "constructor"
    },
    {
      "anonymous": false,
      "inputs": [
        {
          "indexed": false,
          "name": "owner",
          "type": "address"
        },
        {
          "indexed": false,
          "name": "name",
          "type": "string"
        }
      ],
      "name": "UserNameChanged",
      "type": "event"
    },
    {
      "anonymous": false,
      "inputs": [
        {
          "indexed": true,
          "name": "operator",
          "type": "address"
        },
        {
          "indexed": false,
          "name": "role",
          "type": "string"
        }
      ],
      "name": "RoleAdded",
      "type": "event"
    },
    {
      "anonymous": false,
      "inputs": [
        {
          "indexed": true,
          "name": "operator",
          "type": "address"
        },
        {
          "indexed": false,
          "name": "role",
          "type": "string"
        }
      ],
      "name": "RoleRemoved",
      "type": "event"
    },
    {
      "anonymous": false,
      "inputs": [
        {
          "indexed": true,
          "name": "previousOwner",
          "type": "address"
        }
      ],
      "name": "OwnershipRenounced",
      "type": "event"
    },
    {
      "anonymous": false,
      "inputs": [
        {
          "indexed": true,
          "name": "previousOwner",
          "type": "address"
        },
        {
          "indexed": true,
          "name": "newOwner",
          "type": "address"
        }
      ],
      "name": "OwnershipTransferred",
      "type": "event"
    },
    {
      "constant": false,
      "inputs": [
        {
          "name": "_twoKeyEventSource",
          "type": "address"
        }
      ],
      "name": "changeTwoKeyEventSource",
      "outputs": [],
      "payable": false,
      "stateMutability": "nonpayable",
      "type": "function"
    },
    {
      "constant": false,
      "inputs": [
        {
          "name": "_userAddress",
          "type": "address"
        },
        {
          "name": "_contractAddress",
          "type": "address"
        }
      ],
      "name": "addWhereContractor",
      "outputs": [],
      "payable": false,
      "stateMutability": "nonpayable",
      "type": "function"
    },
    {
      "constant": false,
      "inputs": [
        {
          "name": "_userAddress",
          "type": "address"
        },
        {
          "name": "_contractAddress",
          "type": "address"
        }
      ],
      "name": "addWhereModerator",
      "outputs": [],
      "payable": false,
      "stateMutability": "nonpayable",
      "type": "function"
    },
    {
      "constant": false,
      "inputs": [
        {
          "name": "_userAddress",
          "type": "address"
        },
        {
          "name": "_contractAddress",
          "type": "address"
        }
      ],
      "name": "addWhereReferrer",
      "outputs": [],
      "payable": false,
      "stateMutability": "nonpayable",
      "type": "function"
    },
    {
      "constant": false,
      "inputs": [
        {
          "name": "_userAddress",
          "type": "address"
        },
        {
          "name": "_contractAddress",
          "type": "address"
        }
      ],
      "name": "addWhereConverter",
      "outputs": [],
      "payable": false,
      "stateMutability": "nonpayable",
      "type": "function"
    },
    {
      "constant": true,
      "inputs": [
        {
          "name": "_userAddress",
          "type": "address"
        }
      ],
      "name": "getContractsWhereUserIsContractor",
      "outputs": [
        {
          "name": "",
          "type": "address[]"
        }
      ],
      "payable": false,
      "stateMutability": "view",
      "type": "function"
    },
    {
      "constant": true,
      "inputs": [
        {
          "name": "_userAddress",
          "type": "address"
        }
      ],
      "name": "getContractsWhereUserIsModerator",
      "outputs": [
        {
          "name": "",
          "type": "address[]"
        }
      ],
      "payable": false,
      "stateMutability": "view",
      "type": "function"
    },
    {
      "constant": true,
      "inputs": [
        {
          "name": "_userAddress",
          "type": "address"
        }
      ],
      "name": "getContractsWhereUserIsReferrer",
      "outputs": [
        {
          "name": "",
          "type": "address[]"
        }
      ],
      "payable": false,
      "stateMutability": "view",
      "type": "function"
    },
    {
      "constant": true,
      "inputs": [
        {
          "name": "_userAddress",
          "type": "address"
        }
      ],
      "name": "getContractsWhereUserIsConverter",
      "outputs": [
        {
          "name": "",
          "type": "address[]"
        }
      ],
      "payable": false,
      "stateMutability": "view",
      "type": "function"
    },
    {
      "constant": true,
      "inputs": [],
      "name": "getTwoKeyEventSourceAddress",
      "outputs": [
        {
          "name": "",
          "type": "address"
        }
      ],
      "payable": false,
      "stateMutability": "view",
      "type": "function"
    },
    {
      "constant": false,
      "inputs": [
        {
          "name": "_name",
          "type": "string"
        },
        {
          "name": "_sender",
          "type": "address"
        }
      ],
      "name": "addName",
      "outputs": [],
      "payable": false,
      "stateMutability": "nonpayable",
      "type": "function"
    },
    {
      "constant": false,
      "inputs": [
        {
          "name": "_name",
          "type": "string"
        }
      ],
      "name": "addNameByUser",
      "outputs": [],
      "payable": false,
      "stateMutability": "nonpayable",
      "type": "function"
    },
    {
      "constant": true,
      "inputs": [
        {
          "name": "_name",
          "type": "string"
        }
      ],
      "name": "getName2Owner",
      "outputs": [
        {
          "name": "",
          "type": "address"
        }
      ],
      "payable": false,
      "stateMutability": "view",
      "type": "function"
    },
    {
      "constant": true,
      "inputs": [
        {
          "name": "_sender",
          "type": "address"
        }
      ],
      "name": "getOwner2Name",
      "outputs": [
        {
          "name": "",
          "type": "string"
        }
      ],
      "payable": false,
      "stateMutability": "view",
      "type": "function"
    }
  ],
  "bytecode": "0x60806040523480156200001157600080fd5b5060405160408062003404833981018060405281019080805190602001909291908051906020019092919050505080336000806101000a81548173ffffffffffffffffffffffffffffffffffffffff021916908373ffffffffffffffffffffffffffffffffffffffff160217905550600073ffffffffffffffffffffffffffffffffffffffff168173ffffffffffffffffffffffffffffffffffffffff161415620000fd5733600260006101000a81548173ffffffffffffffffffffffffffffffffffffffff021916908373ffffffffffffffffffffffffffffffffffffffff1602179055506200013f565b80600260006101000a81548173ffffffffffffffffffffffffffffffffffffffff021916908373ffffffffffffffffffffffffffffffffffffffff1602179055505b620001b1600260009054906101000a900473ffffffffffffffffffffffffffffffffffffffff166040805190810160405280600581526020017f61646d696e0000000000000000000000000000000000000000000000000000008152506200038d640100000000026401000000009004565b50600073ffffffffffffffffffffffffffffffffffffffff168273ffffffffffffffffffffffffffffffffffffffff1614151515620001ef57600080fd5b600073ffffffffffffffffffffffffffffffffffffffff168173ffffffffffffffffffffffffffffffffffffffff16141515156200022c57600080fd5b81600360006101000a81548173ffffffffffffffffffffffffffffffffffffffff021916908373ffffffffffffffffffffffffffffffffffffffff16021790555080600560006101000a81548173ffffffffffffffffffffffffffffffffffffffff021916908373ffffffffffffffffffffffffffffffffffffffff160217905550600560009054906101000a900473ffffffffffffffffffffffffffffffffffffffff1673ffffffffffffffffffffffffffffffffffffffff16637fc7a28b306040518263ffffffff167c0100000000000000000000000000000000000000000000000000000000028152600401808273ffffffffffffffffffffffffffffffffffffffff1673ffffffffffffffffffffffffffffffffffffffff168152602001915050600060405180830381600087803b1580156200036c57600080fd5b505af115801562000381573d6000803e3d6000fd5b50505050505062000534565b6200041c826001836040518082805190602001908083835b602083101515620003cc5780518252602082019150602081019050602083039250620003a5565b6001836020036101000a0380198251168184511680821785525050505050509050019150509081526020016040518091039020620004d66401000000000262002d91179091906401000000009004565b8173ffffffffffffffffffffffffffffffffffffffff167fbfec83d64eaa953f2708271a023ab9ee82057f8f3578d548c1a4ba0b5b700489826040518080602001828103825283818151815260200191508051906020019080838360005b83811015620004975780820151818401526020810190506200047a565b50505050905090810190601f168015620004c55780820380516001836020036101000a031916815260200191505b509250505060405180910390a25050565b60018260000160008373ffffffffffffffffffffffffffffffffffffffff1673ffffffffffffffffffffffffffffffffffffffff16815260200190815260200160002060006101000a81548160ff0219169083151502179055505050565b612ec080620005446000396000f300608060405260043610610196576000357c0100000000000000000000000000000000000000000000000000000000900463ffffffff1680630988ca8c1461019b5780630b4a49d6146102245780630ed6b38d1461027b57806315f0e1cc146102de578063217fe6c614610367578063382a6fa4146104085780633defca9a1461044b5780635507bc46146104d857806355345e92146105655780635b4df1ca146105c8578063715018a6146106585780637d11f0f11461066f578063805ee0e51461072b57806388cee87e146107c35780638b06565d1461084c5780638da5cb5b146108f5578063a12d32311461094c578063b1299e94146109e4578063b25fa92c14610a71578063b3ecf23614610afa578063cc28e95c14610b8a578063cc95a59014610c22578063d06baae414610cba578063d391014b14610ce9578063e175622114610d79578063e373773614610e35578063ec0219e414610e98578063efe1319714610f09578063efe9dcb714610f72578063f2fde38b14611002578063f51ebe2314611045578063f99892cc146110d2575b600080fd5b3480156101a757600080fd5b50610222600480360381019080803573ffffffffffffffffffffffffffffffffffffffff169060200190929190803590602001908201803590602001908080601f0160208091040260200160405190810160405280939291908181526020018383808284378201915050505050509192919290505050611135565b005b34801561023057600080fd5b506102396111b6565b604051808273ffffffffffffffffffffffffffffffffffffffff1673ffffffffffffffffffffffffffffffffffffffff16815260200191505060405180910390f35b34801561028757600080fd5b506102dc600480360381019080803573ffffffffffffffffffffffffffffffffffffffff169060200190929190803573ffffffffffffffffffffffffffffffffffffffff1690602001909291905050506111e0565b005b3480156102ea57600080fd5b50610365600480360381019080803590602001908201803590602001908080601f0160208091040260200160405190810160405280939291908181526020018383808284378201915050505050509192919290803573ffffffffffffffffffffffffffffffffffffffff16906020019092919050505061131f565b005b34801561037357600080fd5b506103ee600480360381019080803573ffffffffffffffffffffffffffffffffffffffff169060200190929190803590602001908201803590602001908080601f016020809104026020016040519081016040528093929190818152602001838380828437820191505050505050919291929050505061136c565b604051808215151515815260200191505060405180910390f35b34801561041457600080fd5b50610449600480360381019080803573ffffffffffffffffffffffffffffffffffffffff1690602001909291905050506113f3565b005b34801561045757600080fd5b50610496600480360381019080803573ffffffffffffffffffffffffffffffffffffffff169060200190929190803590602001909291905050506114ce565b604051808273ffffffffffffffffffffffffffffffffffffffff1673ffffffffffffffffffffffffffffffffffffffff16815260200191505060405180910390f35b3480156104e457600080fd5b50610523600480360381019080803573ffffffffffffffffffffffffffffffffffffffff1690602001909291908035906020019092919050505061151b565b604051808273ffffffffffffffffffffffffffffffffffffffff1673ffffffffffffffffffffffffffffffffffffffff16815260200191505060405180910390f35b34801561057157600080fd5b506105c6600480360381019080803573ffffffffffffffffffffffffffffffffffffffff169060200190929190803573ffffffffffffffffffffffffffffffffffffffff169060200190929190505050611568565b005b3480156105d457600080fd5b506105dd61160f565b6040518080602001828103825283818151815260200191508051906020019080838360005b8381101561061d578082015181840152602081019050610602565b50505050905090810190601f16801561064a5780820380516001836020036101000a031916815260200191505b509250505060405180910390f35b34801561066457600080fd5b5061066d611648565b005b34801561067b57600080fd5b506106b0600480360381019080803573ffffffffffffffffffffffffffffffffffffffff16906020019092919050505061174a565b6040518080602001828103825283818151815260200191508051906020019080838360005b838110156106f05780820151818401526020810190506106d5565b50505050905090810190601f16801561071d5780820380516001836020036101000a031916815260200191505b509250505060405180910390f35b34801561073757600080fd5b5061076c600480360381019080803573ffffffffffffffffffffffffffffffffffffffff1690602001909291905050506117fa565b6040518080602001828103825283818151815260200191508051906020019060200280838360005b838110156107af578082015181840152602081019050610794565b505050509050019250505060405180910390f35b3480156107cf57600080fd5b5061084a600480360381019080803573ffffffffffffffffffffffffffffffffffffffff169060200190929190803590602001908201803590602001908080601f0160208091040260200160405190810160405280939291908181526020018383808284378201915050505050509192919290505050611903565b005b34801561085857600080fd5b506108b3600480360381019080803590602001908201803590602001908080601f0160208091040260200160405190810160405280939291908181526020018383808284378201915050505050509192919290505050611950565b604051808273ffffffffffffffffffffffffffffffffffffffff1673ffffffffffffffffffffffffffffffffffffffff16815260200191505060405180910390f35b34801561090157600080fd5b5061090a611a63565b604051808273ffffffffffffffffffffffffffffffffffffffff1673ffffffffffffffffffffffffffffffffffffffff16815260200191505060405180910390f35b34801561095857600080fd5b5061098d600480360381019080803573ffffffffffffffffffffffffffffffffffffffff169060200190929190505050611a88565b6040518080602001828103825283818151815260200191508051906020019060200280838360005b838110156109d05780820151818401526020810190506109b5565b505050509050019250505060405180910390f35b3480156109f057600080fd5b50610a2f600480360381019080803573ffffffffffffffffffffffffffffffffffffffff16906020019092919080359060200190929190505050611b91565b604051808273ffffffffffffffffffffffffffffffffffffffff1673ffffffffffffffffffffffffffffffffffffffff16815260200191505060405180910390f35b348015610a7d57600080fd5b50610af8600480360381019080803573ffffffffffffffffffffffffffffffffffffffff169060200190929190803590602001908201803590602001908080601f0160208091040260200160405190810160405280939291908181526020018383808284378201915050505050509192919290505050611bde565b005b348015610b0657600080fd5b50610b0f611c2b565b6040518080602001828103825283818151815260200191508051906020019080838360005b83811015610b4f578082015181840152602081019050610b34565b50505050905090810190601f168015610b7c5780820380516001836020036101000a031916815260200191505b509250505060405180910390f35b348015610b9657600080fd5b50610bcb600480360381019080803573ffffffffffffffffffffffffffffffffffffffff169060200190929190505050611c68565b6040518080602001828103825283818151815260200191508051906020019060200280838360005b83811015610c0e578082015181840152602081019050610bf3565b505050509050019250505060405180910390f35b348015610c2e57600080fd5b50610c63600480360381019080803573ffffffffffffffffffffffffffffffffffffffff169060200190929190505050611d71565b6040518080602001828103825283818151815260200191508051906020019060200280838360005b83811015610ca6578082015181840152602081019050610c8b565b505050509050019250505060405180910390f35b348015610cc657600080fd5b50610ccf611e7a565b604051808215151515815260200191505060405180910390f35b348015610cf557600080fd5b50610cfe611ec2565b6040518080602001828103825283818151815260200191508051906020019080838360005b83811015610d3e578082015181840152602081019050610d23565b50505050905090810190601f168015610d6b5780820380516001836020036101000a031916815260200191505b509250505060405180910390f35b348015610d8557600080fd5b50610dba600480360381019080803573ffffffffffffffffffffffffffffffffffffffff169060200190929190505050611efb565b6040518080602001828103825283818151815260200191508051906020019080838360005b83811015610dfa578082015181840152602081019050610ddf565b50505050905090810190601f168015610e275780820380516001836020036101000a031916815260200191505b509250505060405180910390f35b348015610e4157600080fd5b50610e96600480360381019080803573ffffffffffffffffffffffffffffffffffffffff169060200190929190803573ffffffffffffffffffffffffffffffffffffffff169060200190929190505050611fdc565b005b348015610ea457600080fd5b50610ec7600480360381019080803560001916906020019092919050505061211b565b604051808273ffffffffffffffffffffffffffffffffffffffff1673ffffffffffffffffffffffffffffffffffffffff16815260200191505060405180910390f35b348015610f1557600080fd5b50610f70600480360381019080803590602001908201803590602001908080601f016020809104026020016040519081016040528093929190818152602001838380828437820191505050505050919291929050505061214e565b005b348015610f7e57600080fd5b50610f8761215b565b6040518080602001828103825283818151815260200191508051906020019080838360005b83811015610fc7578082015181840152602081019050610fac565b50505050905090810190601f168015610ff45780820380516001836020036101000a031916815260200191505b509250505060405180910390f35b34801561100e57600080fd5b50611043600480360381019080803573ffffffffffffffffffffffffffffffffffffffff169060200190929190505050612198565b005b34801561105157600080fd5b50611090600480360381019080803573ffffffffffffffffffffffffffffffffffffffff169060200190929190803590602001909291905050506121ff565b604051808273ffffffffffffffffffffffffffffffffffffffff1673ffffffffffffffffffffffffffffffffffffffff16815260200191505060405180910390f35b3480156110de57600080fd5b50611133600480360381019080803573ffffffffffffffffffffffffffffffffffffffff169060200190929190803573ffffffffffffffffffffffffffffffffffffffff16906020019092919050505061224c565b005b6111b2826001836040518082805190602001908083835b602083101515611171578051825260208201915060208101905060208303925061114c565b6001836020036101000a038019825116818451168082178552505050505050905001915050908152602001604051809103902061238b90919063ffffffff16565b5050565b6000600360009054906101000a900473ffffffffffffffffffffffffffffffffffffffff16905090565b600360009054906101000a900473ffffffffffffffffffffffffffffffffffffffff1673ffffffffffffffffffffffffffffffffffffffff163373ffffffffffffffffffffffffffffffffffffffff1614151561123c57600080fd5b600073ffffffffffffffffffffffffffffffffffffffff168173ffffffffffffffffffffffffffffffffffffffff161415151561127857600080fd5b600760008373ffffffffffffffffffffffffffffffffffffffff1673ffffffffffffffffffffffffffffffffffffffff1681526020019081526020016000208190806001815401808255809150509060018203906000526020600020016000909192909190916101000a81548173ffffffffffffffffffffffffffffffffffffffff021916908373ffffffffffffffffffffffffffffffffffffffff160217905550505050565b61135e336040805190810160405280600581526020017f61646d696e000000000000000000000000000000000000000000000000000000815250611135565b61136882826123a4565b5050565b60006113eb836001846040518082805190602001908083835b6020831015156113aa5780518252602082019150602081019050602083039250611385565b6001836020036101000a038019825116818451168082178552505050505050905001915050908152602001604051809103902061297890919063ffffffff16565b905092915050565b6000809054906101000a900473ffffffffffffffffffffffffffffffffffffffff1673ffffffffffffffffffffffffffffffffffffffff163373ffffffffffffffffffffffffffffffffffffffff1614151561144e57600080fd5b600073ffffffffffffffffffffffffffffffffffffffff168173ffffffffffffffffffffffffffffffffffffffff161415151561148a57600080fd5b80600360006101000a81548173ffffffffffffffffffffffffffffffffffffffff021916908373ffffffffffffffffffffffffffffffffffffffff16021790555050565b6008602052816000526040600020818154811015156114e957fe5b906000526020600020016000915091509054906101000a900473ffffffffffffffffffffffffffffffffffffffff1681565b60096020528160005260406000208181548110151561153657fe5b906000526020600020016000915091509054906101000a900473ffffffffffffffffffffffffffffffffffffffff1681565b600660008373ffffffffffffffffffffffffffffffffffffffff1673ffffffffffffffffffffffffffffffffffffffff1681526020019081526020016000208190806001815401808255809150509060018203906000526020600020016000909192909190916101000a81548173ffffffffffffffffffffffffffffffffffffffff021916908373ffffffffffffffffffffffffffffffffffffffff160217905550505050565b6040805190810160405280600a81526020017f636f6e74726f6c6c65720000000000000000000000000000000000000000000081525081565b6000809054906101000a900473ffffffffffffffffffffffffffffffffffffffff1673ffffffffffffffffffffffffffffffffffffffff163373ffffffffffffffffffffffffffffffffffffffff161415156116a357600080fd5b6000809054906101000a900473ffffffffffffffffffffffffffffffffffffffff1673ffffffffffffffffffffffffffffffffffffffff167ff8df31144d9c2f0f6b59d69b8b98abd5459d07f2742c4df920b25aae33c6482060405160405180910390a260008060006101000a81548173ffffffffffffffffffffffffffffffffffffffff021916908373ffffffffffffffffffffffffffffffffffffffff160217905550565b600a6020528060005260406000206000915090508054600181600116156101000203166002900480601f0160208091040260200160405190810160405280929190818152602001828054600181600116156101000203166002900480156117f25780601f106117c7576101008083540402835291602001916117f2565b820191906000526020600020905b8154815290600101906020018083116117d557829003601f168201915b505050505081565b6060600073ffffffffffffffffffffffffffffffffffffffff168273ffffffffffffffffffffffffffffffffffffffff161415151561183857600080fd5b600860008373ffffffffffffffffffffffffffffffffffffffff1673ffffffffffffffffffffffffffffffffffffffff1681526020019081526020016000208054806020026020016040519081016040528092919081815260200182805480156118f757602002820191906000526020600020905b8160009054906101000a900473ffffffffffffffffffffffffffffffffffffffff1673ffffffffffffffffffffffffffffffffffffffff16815260200190600101908083116118ad575b50505050509050919050565b611942336040805190810160405280600581526020017f61646d696e000000000000000000000000000000000000000000000000000000815250611135565b61194c82826129d1565b5050565b6000600b6000836040516020018082805190602001908083835b60208310151561198f578051825260208201915060208101905060208303925061196a565b6001836020036101000a0380198251168184511680821785525050505050509050019150506040516020818303038152906040526040518082805190602001908083835b6020831015156119f857805182526020820191506020810190506020830392506119d3565b6001836020036101000a03801982511681845116808217855250505050505090500191505060405180910390206000191660001916815260200190815260200160002060009054906101000a900473ffffffffffffffffffffffffffffffffffffffff169050919050565b6000809054906101000a900473ffffffffffffffffffffffffffffffffffffffff1681565b6060600073ffffffffffffffffffffffffffffffffffffffff168273ffffffffffffffffffffffffffffffffffffffff1614151515611ac657600080fd5b600660008373ffffffffffffffffffffffffffffffffffffffff1673ffffffffffffffffffffffffffffffffffffffff168152602001908152602001600020805480602002602001604051908101604052809291908181526020018280548015611b8557602002820191906000526020600020905b8160009054906101000a900473ffffffffffffffffffffffffffffffffffffffff1673ffffffffffffffffffffffffffffffffffffffff1681526020019060010190808311611b3b575b50505050509050919050565b600760205281600052604060002081815481101515611bac57fe5b906000526020600020016000915091509054906101000a900473ffffffffffffffffffffffffffffffffffffffff1681565b611c1d336040805190810160405280600581526020017f61646d696e000000000000000000000000000000000000000000000000000000815250611135565b611c278282612b05565b5050565b60606040805190810160405280600581526020017f61646d696e000000000000000000000000000000000000000000000000000000815250905090565b6060600073ffffffffffffffffffffffffffffffffffffffff168273ffffffffffffffffffffffffffffffffffffffff1614151515611ca657600080fd5b600760008373ffffffffffffffffffffffffffffffffffffffff1673ffffffffffffffffffffffffffffffffffffffff168152602001908152602001600020805480602002602001604051908101604052809291908181526020018280548015611d6557602002820191906000526020600020905b8160009054906101000a900473ffffffffffffffffffffffffffffffffffffffff1673ffffffffffffffffffffffffffffffffffffffff1681526020019060010190808311611d1b575b50505050509050919050565b6060600073ffffffffffffffffffffffffffffffffffffffff168273ffffffffffffffffffffffffffffffffffffffff1614151515611daf57600080fd5b600960008373ffffffffffffffffffffffffffffffffffffffff1673ffffffffffffffffffffffffffffffffffffffff168152602001908152602001600020805480602002602001604051908101604052809291908181526020018280548015611e6e57602002820191906000526020600020905b8160009054906101000a900473ffffffffffffffffffffffffffffffffffffffff1673ffffffffffffffffffffffffffffffffffffffff1681526020019060010190808311611e24575b50505050509050919050565b6000611ebb336040805190810160405280600a81526020017f636f6e74726f6c6c657200000000000000000000000000000000000000000000815250611135565b6001905090565b6040805190810160405280600581526020017f61646d696e00000000000000000000000000000000000000000000000000000081525081565b6060600a60008373ffffffffffffffffffffffffffffffffffffffff1673ffffffffffffffffffffffffffffffffffffffff1681526020019081526020016000208054600181600116156101000203166002900480601f016020809104026020016040519081016040528092919081815260200182805460018160011615610100020316600290048015611fd05780601f10611fa557610100808354040283529160200191611fd0565b820191906000526020600020905b815481529060010190602001808311611fb357829003601f168201915b50505050509050919050565b600360009054906101000a900473ffffffffffffffffffffffffffffffffffffffff1673ffffffffffffffffffffffffffffffffffffffff163373ffffffffffffffffffffffffffffffffffffffff1614151561203857600080fd5b600073ffffffffffffffffffffffffffffffffffffffff168173ffffffffffffffffffffffffffffffffffffffff161415151561207457600080fd5b600960008373ffffffffffffffffffffffffffffffffffffffff1673ffffffffffffffffffffffffffffffffffffffff1681526020019081526020016000208190806001815401808255809150509060018203906000526020600020016000909192909190916101000a81548173ffffffffffffffffffffffffffffffffffffffff021916908373ffffffffffffffffffffffffffffffffffffffff160217905550505050565b600b6020528060005260406000206000915054906101000a900473ffffffffffffffffffffffffffffffffffffffff1681565b61215881336123a4565b50565b60606040805190810160405280600a81526020017f636f6e74726f6c6c657200000000000000000000000000000000000000000000815250905090565b6000809054906101000a900473ffffffffffffffffffffffffffffffffffffffff1673ffffffffffffffffffffffffffffffffffffffff163373ffffffffffffffffffffffffffffffffffffffff161415156121f357600080fd5b6121fc81612c39565b50565b60066020528160005260406000208181548110151561221a57fe5b906000526020600020016000915091509054906101000a900473ffffffffffffffffffffffffffffffffffffffff1681565b600360009054906101000a900473ffffffffffffffffffffffffffffffffffffffff1673ffffffffffffffffffffffffffffffffffffffff163373ffffffffffffffffffffffffffffffffffffffff161415156122a857600080fd5b600073ffffffffffffffffffffffffffffffffffffffff168173ffffffffffffffffffffffffffffffffffffffff16141515156122e457600080fd5b600860008373ffffffffffffffffffffffffffffffffffffffff1673ffffffffffffffffffffffffffffffffffffffff1681526020019081526020016000208190806001815401808255809150509060018203906000526020600020016000909192909190916101000a81548173ffffffffffffffffffffffffffffffffffffffff021916908373ffffffffffffffffffffffffffffffffffffffff160217905550505050565b6123958282612978565b15156123a057600080fd5b5050565b60606000600b6000856040516020018082805190602001908083835b6020831015156123e557805182526020820191506020810190506020830392506123c0565b6001836020036101000a0380198251168184511680821785525050505050509050019150506040516020818303038152906040526040518082805190602001908083835b60208310151561244e5780518252602082019150602081019050602083039250612429565b6001836020036101000a03801982511681845116808217855250505050505090500191505060405180910390206000191660001916815260200190815260200160002060009054906101000a900473ffffffffffffffffffffffffffffffffffffffff1673ffffffffffffffffffffffffffffffffffffffff161415156124d457600080fd5b600a60008373ffffffffffffffffffffffffffffffffffffffff1673ffffffffffffffffffffffffffffffffffffffff1681526020019081526020016000208054600181600116156101000203166002900480601f0160208091040260200160405190810160405280929190818152602001828054600181600116156101000203166002900480156125a75780601f1061257c576101008083540402835291602001916125a7565b820191906000526020600020905b81548152906001019060200180831161258a57829003601f168201915b5050505050905060008151141515612727576000600b6000600a60008673ffffffffffffffffffffffffffffffffffffffff1673ffffffffffffffffffffffffffffffffffffffff168152602001908152602001600020604051602001808280546001816001161561010002031660029004801561265c5780601f1061263a57610100808354040283529182019161265c565b820191906000526020600020905b815481529060010190602001808311612648575b50509150506040516020818303038152906040526040518082805190602001908083835b6020831015156126a55780518252602082019150602081019050602083039250612680565b6001836020036101000a03801982511681845116808217855250505050505090500191505060405180910390206000191660001916815260200190815260200160002060006101000a81548173ffffffffffffffffffffffffffffffffffffffff021916908373ffffffffffffffffffffffffffffffffffffffff1602179055505b82600a60008473ffffffffffffffffffffffffffffffffffffffff1673ffffffffffffffffffffffffffffffffffffffff168152602001908152602001600020908051906020019061277a929190612def565b5081600b6000856040516020018082805190602001908083835b6020831015156127b95780518252602082019150602081019050602083039250612794565b6001836020036101000a0380198251168184511680821785525050505050509050019150506040516020818303038152906040526040518082805190602001908083835b60208310151561282257805182526020820191506020810190506020830392506127fd565b6001836020036101000a03801982511681845116808217855250505050505090500191505060405180910390206000191660001916815260200190815260200160002060006101000a81548173ffffffffffffffffffffffffffffffffffffffff021916908373ffffffffffffffffffffffffffffffffffffffff1602179055507f9df5b3e0e60fff9b971dcb675e7193614408ac9f4ed701f4dfd04863c66beac18284604051808373ffffffffffffffffffffffffffffffffffffffff1673ffffffffffffffffffffffffffffffffffffffff16815260200180602001828103825283818151815260200191508051906020019080838360005b8381101561293857808201518184015260208101905061291d565b50505050905090810190601f1680156129655780820380516001836020036101000a031916815260200191505b50935050505060405180910390a1505050565b60008260000160008373ffffffffffffffffffffffffffffffffffffffff1673ffffffffffffffffffffffffffffffffffffffff16815260200190815260200160002060009054906101000a900460ff16905092915050565b612a4e826001836040518082805190602001908083835b602083101515612a0d57805182526020820191506020810190506020830392506129e8565b6001836020036101000a0380198251168184511680821785525050505050509050019150509081526020016040518091039020612d3390919063ffffffff16565b8173ffffffffffffffffffffffffffffffffffffffff167fd211483f91fc6eff862467f8de606587a30c8fc9981056f051b897a418df803a826040518080602001828103825283818151815260200191508051906020019080838360005b83811015612ac7578082015181840152602081019050612aac565b50505050905090810190601f168015612af45780820380516001836020036101000a031916815260200191505b509250505060405180910390a25050565b612b82826001836040518082805190602001908083835b602083101515612b415780518252602082019150602081019050602083039250612b1c565b6001836020036101000a0380198251168184511680821785525050505050509050019150509081526020016040518091039020612d9190919063ffffffff16565b8173ffffffffffffffffffffffffffffffffffffffff167fbfec83d64eaa953f2708271a023ab9ee82057f8f3578d548c1a4ba0b5b700489826040518080602001828103825283818151815260200191508051906020019080838360005b83811015612bfb578082015181840152602081019050612be0565b50505050905090810190601f168015612c285780820380516001836020036101000a031916815260200191505b509250505060405180910390a25050565b600073ffffffffffffffffffffffffffffffffffffffff168173ffffffffffffffffffffffffffffffffffffffff1614151515612c7557600080fd5b8073ffffffffffffffffffffffffffffffffffffffff166000809054906101000a900473ffffffffffffffffffffffffffffffffffffffff1673ffffffffffffffffffffffffffffffffffffffff167f8be0079c531659141344cd1fd0a4f28419497f9722a3daafe3b4186f6b6457e060405160405180910390a3806000806101000a81548173ffffffffffffffffffffffffffffffffffffffff021916908373ffffffffffffffffffffffffffffffffffffffff16021790555050565b60008260000160008373ffffffffffffffffffffffffffffffffffffffff1673ffffffffffffffffffffffffffffffffffffffff16815260200190815260200160002060006101000a81548160ff0219169083151502179055505050565b60018260000160008373ffffffffffffffffffffffffffffffffffffffff1673ffffffffffffffffffffffffffffffffffffffff16815260200190815260200160002060006101000a81548160ff0219169083151502179055505050565b828054600181600116156101000203166002900490600052602060002090601f016020900481019282601f10612e3057805160ff1916838001178555612e5e565b82800160010185558215612e5e579182015b82811115612e5d578251825591602001919060010190612e42565b5b509050612e6b9190612e6f565b5090565b612e9191905b80821115612e8d576000816000905550600101612e75565b5090565b905600a165627a7a723058205309cc1fa4cd65937efe7d4d32927ff4b876f4b85fad39f52a957020d8d6f0d00029",
  "source": "pragma solidity ^0.4.24;\n\nimport '../openzeppelin-solidity/contracts/ownership/Ownable.sol';\nimport \"./RBACWithAdmin.sol\";\nimport \"./TwoKeyAdmin.sol\";\n\ncontract TwoKeyReg is Ownable, RBACWithAdmin {\n\n  /// Address of 2key event source contract which will have permission to write on this contract\n  /// (Address is enough, there is no need to spend sufficient gas and instantiate whole contract)\n  address twoKeyEventSource;\n\n  /// Address for contract maintainer\n  address maintainer;\n\n  TwoKeyAdmin twoKeyAdminContract;\n\n  /// Modifier which will allow only 2key event source to issue calls on selected methods\n  modifier onlyTwoKeyEventSource {\n    require(msg.sender == twoKeyEventSource);\n    _;\n  }\n  /// TODO: (Amit) Put this modifier on methods where required\n  /// Modifier which will allow only 2keyAdmin or maintener to invoke function calls\n  modifier onlyTwoKeyAuthorized {\n    require(msg.sender == address(twoKeyAdminContract) || msg.sender == maintainer);\n    _;\n  }\n\n  constructor (address _twoKeyEventSource, address _twoKeyAdmin) RBACWithAdmin(_twoKeyAdmin)  public {\n    require(_twoKeyEventSource != address(0));\n    require(_twoKeyAdmin != address(0));\n    twoKeyEventSource = _twoKeyEventSource;\n    twoKeyAdminContract = TwoKeyAdmin( _twoKeyAdmin);\n    twoKeyAdminContract.setTwoKeyReg(address(this));\n   \n  }\n\n // function addTwoKeyEventSource(address _twoKeyEventSource) public onlyOwner {\n //   require(twoKeyEventSource == address(0));\n //   require(_twoKeyEventSource != address(0));\n\n //   twoKeyEventSource = _twoKeyEventSource;\n // }\n\n  /// @notice Method to change the allowed TwoKeyEventSource contract address\n  /// @param _twoKeyEventSource new TwoKeyEventSource contract address\n  function changeTwoKeyEventSource(address _twoKeyEventSource) public onlyOwner {\n    require(_twoKeyEventSource != address(0));\n\n    twoKeyEventSource = _twoKeyEventSource;\n  }\n  /*\n    Those mappings are for the fetching data about in what contracts user participates in which role\n  */\n  /// mapping users address to addresses of campaigns where he is contractor\n  mapping(address => address[]) public userToCampaignsWhereContractor;\n\n  /// mapping users address to addresses of campaigns where he is moderator\n  mapping(address => address[]) public userToCampaignsWhereModerator;\n\n  /// mapping users address to addresses of campaigns where he is refferer\n  mapping(address => address[]) public userToCampaignsWhereReferrer;\n\n  /// mapping users address to addresses of campaigns where he is converter\n  mapping(address => address[]) public userToCampaignsWhereConverter;\n\n  /// Only TwoKeyEventSource contract can issue this calls\n  /// @notice Function to add new campaign contract where user is contractor\n  /// @dev We're requiring the contract address different address 0 because it needs to be deployed\n  /// @param _userAddress is address of contractor\n  /// @param _contractAddress is address of deployed campaign contract\n  /// commented modifier onlyTwoKeyEventSource\n  function addWhereContractor(address _userAddress, address _contractAddress) public{\n   // require(_contractAddress != address(0));\n    userToCampaignsWhereContractor[_userAddress].push(_contractAddress);\n  }\n  /// Only TwoKeyEventSource contract can issue this calls\n  /// @notice Function to add new campaign contract where user is moderator\n  /// @dev We're requiring the contract address different address 0 because it needs to be deployed\n  /// @param _userAddress is address of moderator\n  /// @param _contractAddress is address of deployed campaign contract\n  function addWhereModerator(address _userAddress, address _contractAddress) public onlyTwoKeyEventSource {\n    require(_contractAddress != address(0));\n    userToCampaignsWhereModerator[_userAddress].push(_contractAddress);\n  }\n\n  /// Only TwoKeyEventSource contract can issue this calls\n  /// @notice Function to add new campaign contract where user is refferer\n  /// @dev We're requiring the contract address different address 0 because it needs to be deployed\n  /// @param _userAddress is address of refferer\n  /// @param _contractAddress is address of deployed campaign contract\n  function addWhereReferrer(address _userAddress, address _contractAddress) public onlyTwoKeyEventSource {\n    require(_contractAddress != address(0));\n    userToCampaignsWhereReferrer[_userAddress].push(_contractAddress);\n  }\n\n  /// Only TwoKeyEventSource contract can issue this calls\n  /// @notice Function to add new campaign contract where user is converter\n  /// @dev We're requiring the contract address different address 0 because it needs to be deployed\n  /// @param _userAddress is address of converter\n  /// @param _contractAddress is address of deployed campaign contract\n  function addWhereConverter(address _userAddress, address _contractAddress) public onlyTwoKeyEventSource {\n    require(_contractAddress != address(0));\n    userToCampaignsWhereConverter[_userAddress].push(_contractAddress);\n  }\n\n  /// View function - doesn't cost any gas to be executed\n  /// @notice Function to fetch all campaign contracts where user is contractor\n  /// @param _userAddress is address of user\n  /// @return array of addresses (campaign contracts)\n  function getContractsWhereUserIsContractor(address _userAddress) public view returns (address[]) {\n      require(_userAddress != address(0));\n      return userToCampaignsWhereContractor[_userAddress];\n  }\n\n  /// View function - doesn't cost any gas to be executed\n  /// @notice Function to fetch all campaign contracts where user is moderator\n  /// @param _userAddress is address of user\n  /// @return array of addresses (campaign contracts)\n  function getContractsWhereUserIsModerator(address _userAddress) public view returns (address[]) {\n      require(_userAddress != address(0));\n      return userToCampaignsWhereModerator[_userAddress];\n  }\n\n  /// View function - doesn't cost any gas to be executed\n  /// @notice Function to fetch all campaign contracts where user is refferer\n  /// @param _userAddress is address of user\n  /// @return array of addresses (campaign contracts)\n  function getContractsWhereUserIsReferrer(address _userAddress) public view returns (address[]) {\n      require(_userAddress != address(0));\n      return userToCampaignsWhereReferrer[_userAddress];\n  }\n\n  /// View function - doesn't cost any gas to be executed\n  /// @notice Function to fetch all campaign contracts where user is converter\n  /// @param _userAddress is address of user\n  /// @return array of addresses (campaign contracts)\n  function getContractsWhereUserIsConverter(address _userAddress) public view returns (address[]) {\n      require(_userAddress != address(0));\n      return userToCampaignsWhereConverter[_userAddress];\n  }\n\n  /// View function to return address of current active twoKeyEventSource contract\n  /// @notice Function to fetch twoKeyEventSource contract address \n  function getTwoKeyEventSourceAddress() public view returns (address) {\n    return twoKeyEventSource;\n  }\n\n  /// mapping user's address to user's name \n  mapping(address => string) public owner2name;\n  /// mapping user's name to user's address \n  mapping(bytes32 => address) public name2owner;\n\n  /// @notice Event is emitted when a user's name is changed\n  event UserNameChanged(address owner, string name);\n\n  /// @notice Function where new name/address pair is added or an old address is updated with new name\n  /// @dev private function \n  /// @param _name is name of user\n  /// @param _sender is address of user\n  function addNameInternal(string _name, address _sender) private {\n    // check if name is taken\n    if (name2owner[keccak256(abi.encodePacked(_name))] != 0) {\n      revert();\n    }\n    // remove previous name\n    bytes memory last_name = bytes(owner2name[_sender]);\n    if (last_name.length != 0) {\n      name2owner[keccak256(abi.encodePacked(owner2name[_sender]))] = 0;\n    }\n    owner2name[_sender] = _name;\n    name2owner[keccak256(abi.encodePacked(_name))] = _sender;\n    emit UserNameChanged(_sender, _name);\n  }\n\n  /// @notice Function where only admin can add a name - address pair \n  /// @param _name is name of user\n  /// @param _sender is address of user\n  function addName(string _name, address _sender) onlyAdmin public {\n    addNameInternal(_name, _sender);\n  }\n\n  /// @notice Function where user can add name to his address \n  /// @param _name is name of user\n  function addNameByUser(string _name) public {\n    addNameInternal(_name, msg.sender);\n  }\n\n  /// View function - doesn't cost any gas to be executed\n  /// @notice Function to fetch address of the user that corresponds to given name\n  /// @param _name is name of user\n  /// @return address of the user as type address\n  function getName2Owner(string _name) public view returns (address) {\n    return name2owner[keccak256(abi.encodePacked(_name))];\n  }\n\n  /// View function - doesn't cost any gas to be executed\n  /// @notice Function to fetch name that corresponds to the address\n  /// @param _sender is address of user\n  /// @return name of the user as type string\n  function getOwner2Name(address _sender) public view returns (string) {\n    return owner2name[_sender];\n  }\n\n}\n",
  "sourcePath": "/Users/aydnep/2key/contracts/contracts/2key/TwoKeyReg.sol",
  "compiler": {
    "name": "solc",
    "version": "0.4.24+commit.e67f0147.Emscripten.clang"
  },
  "schemaVersion": "2.0.1",
  "updatedAt": "2018-09-13T04:49:18.036Z"
}