{
  "contractName": "TwoKeyCampaign",
  "abi": [
    {
      "constant": false,
      "inputs": [
        {
          "name": "_spender",
          "type": "address"
        },
        {
          "name": "_value",
          "type": "uint256"
        }
      ],
      "name": "approve",
      "outputs": [
        {
          "name": "",
          "type": "bool"
        }
      ],
      "payable": false,
      "stateMutability": "nonpayable",
      "type": "function"
    },
    {
      "constant": false,
      "inputs": [
        {
          "name": "_to",
          "type": "address"
        },
        {
          "name": "_value",
          "type": "uint256"
        }
      ],
      "name": "transferQuota",
      "outputs": [
        {
          "name": "",
          "type": "bool"
        }
      ],
      "payable": false,
      "stateMutability": "nonpayable",
      "type": "function"
    },
    {
      "constant": true,
      "inputs": [],
      "name": "totalSupply",
      "outputs": [
        {
          "name": "",
          "type": "uint256"
        }
      ],
      "payable": false,
      "stateMutability": "view",
      "type": "function"
    },
    {
      "constant": false,
      "inputs": [
        {
          "name": "_from",
          "type": "address"
        },
        {
          "name": "_to",
          "type": "address"
        },
        {
          "name": "_value",
          "type": "uint256"
        }
      ],
      "name": "transferFrom",
      "outputs": [
        {
          "name": "",
          "type": "bool"
        }
      ],
      "payable": false,
      "stateMutability": "nonpayable",
      "type": "function"
    },
    {
      "constant": true,
      "inputs": [
        {
          "name": "",
          "type": "address"
        }
      ],
      "name": "received_from",
      "outputs": [
        {
          "name": "",
          "type": "address"
        }
      ],
      "payable": false,
      "stateMutability": "view",
      "type": "function"
    },
    {
      "constant": false,
      "inputs": [
        {
          "name": "_from",
          "type": "address"
        },
        {
          "name": "_to",
          "type": "address"
        },
        {
          "name": "_value",
          "type": "uint256"
        }
      ],
      "name": "transferFromQuota",
      "outputs": [
        {
          "name": "",
          "type": "bool"
        }
      ],
      "payable": false,
      "stateMutability": "nonpayable",
      "type": "function"
    },
    {
      "constant": false,
      "inputs": [
        {
          "name": "_from",
          "type": "address"
        },
        {
          "name": "_maxReward",
          "type": "uint256"
        }
      ],
      "name": "transferRewardsTwoKeyToken",
      "outputs": [],
      "payable": false,
      "stateMutability": "nonpayable",
      "type": "function"
    },
    {
      "constant": false,
      "inputs": [
        {
          "name": "_spender",
          "type": "address"
        },
        {
          "name": "_subtractedValue",
          "type": "uint256"
        }
      ],
      "name": "decreaseApproval",
      "outputs": [
        {
          "name": "",
          "type": "bool"
        }
      ],
      "payable": false,
      "stateMutability": "nonpayable",
      "type": "function"
    },
    {
      "constant": true,
      "inputs": [
        {
          "name": "_owner",
          "type": "address"
        }
      ],
      "name": "balanceOf",
      "outputs": [
        {
          "name": "",
          "type": "uint256"
        }
      ],
      "payable": false,
      "stateMutability": "view",
      "type": "function"
    },
    {
      "constant": false,
      "inputs": [
        {
          "name": "_to",
          "type": "address"
        },
        {
          "name": "_value",
          "type": "uint256"
        }
      ],
      "name": "transfer",
      "outputs": [
        {
          "name": "",
          "type": "bool"
        }
      ],
      "payable": false,
      "stateMutability": "nonpayable",
      "type": "function"
    },
    {
      "constant": true,
      "inputs": [],
      "name": "quota",
      "outputs": [
        {
          "name": "",
          "type": "uint256"
        }
      ],
      "payable": false,
      "stateMutability": "view",
      "type": "function"
    },
    {
      "constant": false,
      "inputs": [
        {
          "name": "_spender",
          "type": "address"
        },
        {
          "name": "_addedValue",
          "type": "uint256"
        }
      ],
      "name": "increaseApproval",
      "outputs": [
        {
          "name": "",
          "type": "bool"
        }
      ],
      "payable": false,
      "stateMutability": "nonpayable",
      "type": "function"
    },
    {
      "constant": true,
      "inputs": [
        {
          "name": "_owner",
          "type": "address"
        },
        {
          "name": "_spender",
          "type": "address"
        }
      ],
      "name": "allowance",
      "outputs": [
        {
          "name": "",
          "type": "uint256"
        }
      ],
      "payable": false,
      "stateMutability": "view",
      "type": "function"
    },
    {
      "constant": true,
      "inputs": [
        {
          "name": "",
          "type": "address"
        }
      ],
      "name": "conversions",
      "outputs": [
        {
          "name": "from",
          "type": "address"
        },
        {
          "name": "payout",
          "type": "uint256"
        },
        {
          "name": "converter",
          "type": "address"
        },
        {
          "name": "isFulfilled",
          "type": "bool"
        },
        {
          "name": "isCancelled",
          "type": "bool"
        },
        {
          "name": "tokenID",
          "type": "uint256"
        },
        {
          "name": "assetContract",
          "type": "address"
        },
        {
          "name": "indexOrAmount",
          "type": "uint256"
        },
        {
          "name": "campaignType",
          "type": "uint8"
        },
        {
          "name": "openingTime",
          "type": "uint256"
        },
        {
          "name": "closingTime",
          "type": "uint256"
        }
      ],
      "payable": false,
      "stateMutability": "view",
      "type": "function"
    },
    {
      "inputs": [
        {
          "name": "_eventSource",
          "type": "address"
        },
        {
          "name": "_economy",
          "type": "address"
        },
        {
          "name": "_whitelistInfluencer",
          "type": "address"
        },
        {
          "name": "_whitelistConverter",
          "type": "address"
        },
        {
          "name": "_twoKeyCampaignInventory",
          "type": "address"
        },
        {
          "name": "_contractor",
          "type": "address"
        },
        {
          "name": "_moderator",
          "type": "address"
        },
        {
          "name": "_openingTime",
          "type": "uint256"
        },
        {
          "name": "_closingTime",
          "type": "uint256"
        },
        {
          "name": "_expiryConversion",
          "type": "uint256"
        },
        {
          "name": "_escrowPercentage",
          "type": "uint256"
        },
        {
          "name": "_rate",
          "type": "uint256"
        },
        {
          "name": "_maxPi",
          "type": "uint256"
        }
      ],
      "payable": false,
      "stateMutability": "nonpayable",
      "type": "constructor"
    },
    {
      "anonymous": false,
      "inputs": [
        {
          "indexed": true,
          "name": "_campaign",
          "type": "address"
        },
        {
          "indexed": true,
          "name": "_owner",
          "type": "address"
        }
      ],
      "name": "Created",
      "type": "event"
    },
    {
      "anonymous": false,
      "inputs": [
        {
          "indexed": true,
          "name": "owner",
          "type": "address"
        },
        {
          "indexed": true,
          "name": "spender",
          "type": "address"
        },
        {
          "indexed": false,
          "name": "value",
          "type": "uint256"
        }
      ],
      "name": "Approval",
      "type": "event"
    },
    {
      "anonymous": false,
      "inputs": [
        {
          "indexed": true,
          "name": "from",
          "type": "address"
        },
        {
          "indexed": true,
          "name": "to",
          "type": "address"
        },
        {
          "indexed": false,
          "name": "value",
          "type": "uint256"
        }
      ],
      "name": "Transfer",
      "type": "event"
    },
    {
      "constant": false,
      "inputs": [
        {
          "name": "_tokenID",
          "type": "uint256"
        },
        {
          "name": "_assetContract",
          "type": "address"
        },
        {
          "name": "_assetTokenIDOrAmount",
          "type": "uint256"
        },
        {
          "name": "_type",
          "type": "uint8"
        }
      ],
      "name": "transferAssetTwoKeyToken",
      "outputs": [],
      "payable": false,
      "stateMutability": "nonpayable",
      "type": "function"
    },
    {
      "constant": false,
      "inputs": [
        {
          "name": "_converter",
          "type": "address"
        },
        {
          "name": "_tokenID",
          "type": "uint256"
        },
        {
          "name": "_assetContract",
          "type": "address"
        },
        {
          "name": "_assetTokenIDOrAmount",
          "type": "uint256"
        },
        {
          "name": "_type",
          "type": "uint8"
        }
      ],
      "name": "cancelAssetTwoKey",
      "outputs": [
        {
          "name": "",
          "type": "bool"
        }
      ],
      "payable": false,
      "stateMutability": "nonpayable",
      "type": "function"
    },
    {
      "constant": false,
      "inputs": [
        {
          "name": "_converter",
          "type": "address"
        },
        {
          "name": "_tokenID",
          "type": "uint256"
        },
        {
          "name": "_assetContract",
          "type": "address"
        },
        {
          "name": "_assetTokenIDOrAmount",
          "type": "uint256"
        },
        {
          "name": "_type",
          "type": "uint8"
        }
      ],
      "name": "expireEscrow",
      "outputs": [
        {
          "name": "",
          "type": "bool"
        }
      ],
      "payable": false,
      "stateMutability": "nonpayable",
      "type": "function"
    },
    {
      "constant": false,
      "inputs": [
        {
          "name": "_tokenID",
          "type": "uint256"
        },
        {
          "name": "_assetContract",
          "type": "address"
        },
        {
          "name": "_pricePerUnit",
          "type": "uint256"
        }
      ],
      "name": "setPriceFungible",
      "outputs": [],
      "payable": false,
      "stateMutability": "nonpayable",
      "type": "function"
    },
    {
      "constant": false,
      "inputs": [
        {
          "name": "_tokenID",
          "type": "uint256"
        },
        {
          "name": "_assetContract",
          "type": "address"
        },
        {
          "name": "_index",
          "type": "uint256"
        },
        {
          "name": "_pricePerUnit",
          "type": "uint256"
        }
      ],
      "name": "setPriceNonFungible",
      "outputs": [],
      "payable": false,
      "stateMutability": "nonpayable",
      "type": "function"
    },
    {
      "constant": false,
      "inputs": [
        {
          "name": "_amount",
          "type": "uint256"
        }
      ],
      "name": "redeemTwoKeyToken",
      "outputs": [],
      "payable": false,
      "stateMutability": "nonpayable",
      "type": "function"
    },
    {
      "constant": false,
      "inputs": [
        {
          "name": "_from",
          "type": "address"
        },
        {
          "name": "_tokenID",
          "type": "uint256"
        },
        {
          "name": "_assetContract",
          "type": "address"
        },
        {
          "name": "_amountOrIndex",
          "type": "uint256"
        },
        {
          "name": "_campaignType",
          "type": "uint8"
        }
      ],
      "name": "buyFromWithTwoKey",
      "outputs": [],
      "payable": true,
      "stateMutability": "payable",
      "type": "function"
    }
  ],
  "bytecode": "0x6080604052620f42406003553480156200001857600080fd5b506040516101a08062005907833981018060405281019080805190602001909291908051906020019092919080519060200190929190805190602001909291908051906020019092919080519060200190929190805190602001909291908051906020019092919080519060200190929190805190602001909291908051906020019092919080519060200190929190805190602001909291905050508c88600073ffffffffffffffffffffffffffffffffffffffff168273ffffffffffffffffffffffffffffffffffffffff1614151515620000f457600080fd5b80600660006101000a81548173ffffffffffffffffffffffffffffffffffffffff021916908373ffffffffffffffffffffffffffffffffffffffff16021790555081600560006101000a81548173ffffffffffffffffffffffffffffffffffffffff021916908373ffffffffffffffffffffffffffffffffffffffff1602179055505050600073ffffffffffffffffffffffffffffffffffffffff168d73ffffffffffffffffffffffffffffffffffffffff1614151515620001b557600080fd5b600073ffffffffffffffffffffffffffffffffffffffff168c73ffffffffffffffffffffffffffffffffffffffff1614151515620001f257600080fd5b6000821115156200020257600080fd5b6000811115156200021257600080fd5b8b600b60006101000a81548173ffffffffffffffffffffffffffffffffffffffff021916908373ffffffffffffffffffffffffffffffffffffffff16021790555087601360006101000a81548173ffffffffffffffffffffffffffffffffffffffff021916908373ffffffffffffffffffffffffffffffffffffffff16021790555086601460006101000a81548173ffffffffffffffffffffffffffffffffffffffff021916908373ffffffffffffffffffffffffffffffffffffffff160217905550856011819055508460128190555083601581905550826016819055508a600c60006101000a81548173ffffffffffffffffffffffffffffffffffffffff021916908373ffffffffffffffffffffffffffffffffffffffff16021790555089600d60006101000a81548173ffffffffffffffffffffffffffffffffffffffff021916908373ffffffffffffffffffffffffffffffffffffffff16021790555088600e60006101000a81548173ffffffffffffffffffffffffffffffffffffffff021916908373ffffffffffffffffffffffffffffffffffffffff1602179055508160108190555080601781905550601360009054906101000a900473ffffffffffffffffffffffffffffffffffffffff1673ffffffffffffffffffffffffffffffffffffffff163073ffffffffffffffffffffffffffffffffffffffff167f587ece4cd19692c5be1a4184503d607d45542d2aca0698c0068f52e09ccb541c60405160405180910390a3505050505050505050505050506154ac806200045b6000396000f30060806040526004361061011d576000357c0100000000000000000000000000000000000000000000000000000000900463ffffffff168063095ea7b31461012257806311abc0ca1461018757806318160ddd146101ec57806323b872dd146102175780632d376e941461029c578063309ba30e1461031f57806341eef50f14610380578063442e97dd146103e45780635c06b5e31461046957806366188463146104b657806370a082311461051b5780638ca055a714610572578063a603126d1461060e578063a9059cbb146106aa578063ad0e27c11461070f578063cacb670814610766578063cebe09c914610793578063d73dd623146107be578063dd62ed3e14610823578063e59f04121461089a578063f140f98d146109d1575b600080fd5b34801561012e57600080fd5b5061016d600480360381019080803573ffffffffffffffffffffffffffffffffffffffff16906020019092919080359060200190929190505050610a48565b604051808215151515815260200191505060405180910390f35b34801561019357600080fd5b506101d2600480360381019080803573ffffffffffffffffffffffffffffffffffffffff16906020019092919080359060200190929190505050610b3a565b604051808215151515815260200191505060405180910390f35b3480156101f857600080fd5b50610201610d8f565b6040518082815260200191505060405180910390f35b34801561022357600080fd5b50610282600480360381019080803573ffffffffffffffffffffffffffffffffffffffff169060200190929190803573ffffffffffffffffffffffffffffffffffffffff16906020019092919080359060200190929190505050610d99565b604051808215151515815260200191505060405180910390f35b3480156102a857600080fd5b506102dd600480360381019080803573ffffffffffffffffffffffffffffffffffffffff16906020019092919050505061113b565b604051808273ffffffffffffffffffffffffffffffffffffffff1673ffffffffffffffffffffffffffffffffffffffff16815260200191505060405180910390f35b34801561032b57600080fd5b5061037e60048036038101908080359060200190929190803573ffffffffffffffffffffffffffffffffffffffff169060200190929190803590602001909291908035906020019092919050505061116e565b005b34801561038c57600080fd5b506103e260048036038101908080359060200190929190803573ffffffffffffffffffffffffffffffffffffffff16906020019092919080359060200190929190803560ff169060200190929190505050611297565b005b3480156103f057600080fd5b5061044f600480360381019080803573ffffffffffffffffffffffffffffffffffffffff169060200190929190803573ffffffffffffffffffffffffffffffffffffffff1690602001909291908035906020019092919050505061189c565b604051808215151515815260200191505060405180910390f35b34801561047557600080fd5b506104b4600480360381019080803573ffffffffffffffffffffffffffffffffffffffff16906020019092919080359060200190929190505050611c8c565b005b3480156104c257600080fd5b50610501600480360381019080803573ffffffffffffffffffffffffffffffffffffffff169060200190929190803590602001909291905050506120d6565b604051808215151515815260200191505060405180910390f35b34801561052757600080fd5b5061055c600480360381019080803573ffffffffffffffffffffffffffffffffffffffff169060200190929190505050612368565b6040518082815260200191505060405180910390f35b34801561057e57600080fd5b506105f4600480360381019080803573ffffffffffffffffffffffffffffffffffffffff16906020019092919080359060200190929190803573ffffffffffffffffffffffffffffffffffffffff16906020019092919080359060200190929190803560ff1690602001909291905050506123b0565b604051808215151515815260200191505060405180910390f35b34801561061a57600080fd5b50610690600480360381019080803573ffffffffffffffffffffffffffffffffffffffff16906020019092919080359060200190929190803573ffffffffffffffffffffffffffffffffffffffff16906020019092919080359060200190929190803560ff169060200190929190505050612906565b604051808215151515815260200191505060405180910390f35b3480156106b657600080fd5b506106f5600480360381019080803573ffffffffffffffffffffffffffffffffffffffff16906020019092919080359060200190929190505050612b53565b604051808215151515815260200191505060405180910390f35b34801561071b57600080fd5b5061076460048036038101908080359060200190929190803573ffffffffffffffffffffffffffffffffffffffff16906020019092919080359060200190929190505050612e35565b005b34801561077257600080fd5b5061079160048036038101908080359060200190929190505050612e8f565b005b34801561079f57600080fd5b506107a86130b6565b6040518082815260200191505060405180910390f35b3480156107ca57600080fd5b50610809600480360381019080803573ffffffffffffffffffffffffffffffffffffffff169060200190929190803590602001909291905050506130bc565b604051808215151515815260200191505060405180910390f35b34801561082f57600080fd5b50610884600480360381019080803573ffffffffffffffffffffffffffffffffffffffff169060200190929190803573ffffffffffffffffffffffffffffffffffffffff1690602001909291905050506132b8565b6040518082815260200191505060405180910390f35b3480156108a657600080fd5b506108db600480360381019080803573ffffffffffffffffffffffffffffffffffffffff16906020019092919050505061333f565b604051808c73ffffffffffffffffffffffffffffffffffffffff1673ffffffffffffffffffffffffffffffffffffffff1681526020018b81526020018a73ffffffffffffffffffffffffffffffffffffffff1673ffffffffffffffffffffffffffffffffffffffff16815260200189151515158152602001881515151581526020018781526020018673ffffffffffffffffffffffffffffffffffffffff1673ffffffffffffffffffffffffffffffffffffffff1681526020018581526020018460038111156109a757fe5b60ff1681526020018381526020018281526020019b50505050505050505050505060405180910390f35b610a46600480360381019080803573ffffffffffffffffffffffffffffffffffffffff16906020019092919080359060200190929190803573ffffffffffffffffffffffffffffffffffffffff16906020019092919080359060200190929190803560ff169060200190929190505050613420565b005b600081600260003373ffffffffffffffffffffffffffffffffffffffff1673ffffffffffffffffffffffffffffffffffffffff16815260200190815260200160002060008573ffffffffffffffffffffffffffffffffffffffff1673ffffffffffffffffffffffffffffffffffffffff168152602001908152602001600020819055508273ffffffffffffffffffffffffffffffffffffffff163373ffffffffffffffffffffffffffffffffffffffff167f8c5be1e5ebec7d5bd14f71427d1e84f3dd0314c0f7b2291e5b200ac8c7c3b925846040518082815260200191505060405180910390a36001905092915050565b60008073ffffffffffffffffffffffffffffffffffffffff168373ffffffffffffffffffffffffffffffffffffffff1614151515610b7757600080fd5b6000803373ffffffffffffffffffffffffffffffffffffffff1673ffffffffffffffffffffffffffffffffffffffff168152602001908152602001600020548211151515610bc457600080fd5b610c15826000803373ffffffffffffffffffffffffffffffffffffffff1673ffffffffffffffffffffffffffffffffffffffff1681526020019081526020016000205461348490919063ffffffff16565b6000803373ffffffffffffffffffffffffffffffffffffffff1673ffffffffffffffffffffffffffffffffffffffff16815260200190815260200160002081905550610cac60075483026000808673ffffffffffffffffffffffffffffffffffffffff1673ffffffffffffffffffffffffffffffffffffffff1681526020019081526020016000205461349d90919063ffffffff16565b6000808573ffffffffffffffffffffffffffffffffffffffff1673ffffffffffffffffffffffffffffffffffffffff16815260200190815260200160002081905550610d1a610d09600160075403846134b990919063ffffffff16565b60035461349d90919063ffffffff16565b6003819055508273ffffffffffffffffffffffffffffffffffffffff163373ffffffffffffffffffffffffffffffffffffffff167fddf252ad1be2c89b69c2b068fc378daa952ba7f163c4a11628f55a4df523b3ef846040518082815260200191505060405180910390a36001905092915050565b6000600154905090565b600080600860008573ffffffffffffffffffffffffffffffffffffffff1673ffffffffffffffffffffffffffffffffffffffff16815260200190815260200160002060009054906101000a900473ffffffffffffffffffffffffffffffffffffffff1673ffffffffffffffffffffffffffffffffffffffff16141515610e1e57600080fd5b600073ffffffffffffffffffffffffffffffffffffffff168473ffffffffffffffffffffffffffffffffffffffff1614151515610e5a57600080fd5b6001600260008673ffffffffffffffffffffffffffffffffffffffff1673ffffffffffffffffffffffffffffffffffffffff16815260200190815260200160002060003373ffffffffffffffffffffffffffffffffffffffff1673ffffffffffffffffffffffffffffffffffffffff16815260200190815260200160002081905550610ee784848461189c565b1561112f576000600860008573ffffffffffffffffffffffffffffffffffffffff1673ffffffffffffffffffffffffffffffffffffffff16815260200190815260200160002060009054906101000a900473ffffffffffffffffffffffffffffffffffffffff1673ffffffffffffffffffffffffffffffffffffffff1614156110a857600560009054906101000a900473ffffffffffffffffffffffffffffffffffffffff1673ffffffffffffffffffffffffffffffffffffffff16638af1cbb93086866040518463ffffffff167c0100000000000000000000000000000000000000000000000000000000028152600401808473ffffffffffffffffffffffffffffffffffffffff1673ffffffffffffffffffffffffffffffffffffffff1681526020018373ffffffffffffffffffffffffffffffffffffffff1673ffffffffffffffffffffffffffffffffffffffff1681526020018273ffffffffffffffffffffffffffffffffffffffff1673ffffffffffffffffffffffffffffffffffffffff1681526020019350505050600060405180830381600087803b15801561108f57600080fd5b505af11580156110a3573d6000803e3d6000fd5b505050505b83600860008573ffffffffffffffffffffffffffffffffffffffff1673ffffffffffffffffffffffffffffffffffffffff16815260200190815260200160002060006101000a81548173ffffffffffffffffffffffffffffffffffffffff021916908373ffffffffffffffffffffffffffffffffffffffff16021790555060019050611134565b600090505b9392505050565b60086020528060005260406000206000915054906101000a900473ffffffffffffffffffffffffffffffffffffffff1681565b60008383604051602001808373ffffffffffffffffffffffffffffffffffffffff1673ffffffffffffffffffffffffffffffffffffffff166c01000000000000000000000000028152601401828152602001925050506040516020818303038152906040526040518082805190602001908083835b60208310151561120857805182526020820191506020810190506020830392506111e3565b6001836020036101000a038019825116818451168082178552505050505050905001915050604051809103902060019004905081600f600087815260200190815260200160002060008373ffffffffffffffffffffffffffffffffffffffff1673ffffffffffffffffffffffffffffffffffffffff168152602001908152602001600020819055505050505050565b600d60009054906101000a900473ffffffffffffffffffffffffffffffffffffffff1673ffffffffffffffffffffffffffffffffffffffff16633af32abf336040518263ffffffff167c0100000000000000000000000000000000000000000000000000000000028152600401808273ffffffffffffffffffffffffffffffffffffffff1673ffffffffffffffffffffffffffffffffffffffff168152602001915050602060405180830381600087803b15801561135457600080fd5b505af1158015611368573d6000803e3d6000fd5b505050506040513d602081101561137e57600080fd5b8101908080519060200190929190505050151561139a57600080fd5b6113a26153d4565b600960003373ffffffffffffffffffffffffffffffffffffffff1673ffffffffffffffffffffffffffffffffffffffff16815260200190815260200160002061016060405190810160405290816000820160009054906101000a900473ffffffffffffffffffffffffffffffffffffffff1673ffffffffffffffffffffffffffffffffffffffff1673ffffffffffffffffffffffffffffffffffffffff168152602001600182015481526020016002820160009054906101000a900473ffffffffffffffffffffffffffffffffffffffff1673ffffffffffffffffffffffffffffffffffffffff1673ffffffffffffffffffffffffffffffffffffffff1681526020016002820160149054906101000a900460ff161515151581526020016002820160159054906101000a900460ff16151515158152602001600382015481526020016004820160009054906101000a900473ffffffffffffffffffffffffffffffffffffffff1673ffffffffffffffffffffffffffffffffffffffff1673ffffffffffffffffffffffffffffffffffffffff168152602001600582015481526020016006820160009054906101000a900460ff16600381111561156257fe5b600381111561156d57fe5b815260200160078201548152602001600882015481525050905060008160a001511415151561159b57600080fd5b80606001511580156115af57508060800151155b15156115ba57600080fd5b6115c26134f1565b600060038111156115cf57fe5b8260038111156115db57fe5b141561172d57600e60009054906101000a900473ffffffffffffffffffffffffffffffffffffffff1673ffffffffffffffffffffffffffffffffffffffff16639e1f1260338787876040518563ffffffff167c0100000000000000000000000000000000000000000000000000000000028152600401808573ffffffffffffffffffffffffffffffffffffffff1673ffffffffffffffffffffffffffffffffffffffff1681526020018481526020018373ffffffffffffffffffffffffffffffffffffffff1673ffffffffffffffffffffffffffffffffffffffff168152602001828152602001945050505050602060405180830381600087803b1580156116e257600080fd5b505af11580156116f6573d6000803e3d6000fd5b505050506040513d602081101561170c57600080fd5b8101908080519060200190929190505050151561172857600080fd5b611895565b6001600381111561173a57fe5b82600381111561174657fe5b141561189457600e60009054906101000a900473ffffffffffffffffffffffffffffffffffffffff1673ffffffffffffffffffffffffffffffffffffffff1663b706568f338787876040518563ffffffff167c0100000000000000000000000000000000000000000000000000000000028152600401808573ffffffffffffffffffffffffffffffffffffffff1673ffffffffffffffffffffffffffffffffffffffff1681526020018481526020018373ffffffffffffffffffffffffffffffffffffffff1673ffffffffffffffffffffffffffffffffffffffff168152602001828152602001945050505050602060405180830381600087803b15801561184d57600080fd5b505af1158015611861573d6000803e3d6000fd5b505050506040513d602081101561187757600080fd5b8101908080519060200190929190505050151561189357600080fd5b5b5b5050505050565b60008073ffffffffffffffffffffffffffffffffffffffff168373ffffffffffffffffffffffffffffffffffffffff16141515156118d957600080fd5b6000808573ffffffffffffffffffffffffffffffffffffffff1673ffffffffffffffffffffffffffffffffffffffff16815260200190815260200160002054821115151561192657600080fd5b600260008573ffffffffffffffffffffffffffffffffffffffff1673ffffffffffffffffffffffffffffffffffffffff16815260200190815260200160002060003373ffffffffffffffffffffffffffffffffffffffff1673ffffffffffffffffffffffffffffffffffffffff1681526020019081526020016000205482111515156119b157600080fd5b611a02826000808773ffffffffffffffffffffffffffffffffffffffff1673ffffffffffffffffffffffffffffffffffffffff1681526020019081526020016000205461348490919063ffffffff16565b6000808673ffffffffffffffffffffffffffffffffffffffff1673ffffffffffffffffffffffffffffffffffffffff16815260200190815260200160002081905550611a9960075483026000808673ffffffffffffffffffffffffffffffffffffffff1673ffffffffffffffffffffffffffffffffffffffff1681526020019081526020016000205461349d90919063ffffffff16565b6000808573ffffffffffffffffffffffffffffffffffffffff1673ffffffffffffffffffffffffffffffffffffffff16815260200190815260200160002081905550611b07611af6600160075403846134b990919063ffffffff16565b60035461349d90919063ffffffff16565b600381905550611b9c82600260008773ffffffffffffffffffffffffffffffffffffffff1673ffffffffffffffffffffffffffffffffffffffff16815260200190815260200160002060003373ffffffffffffffffffffffffffffffffffffffff1673ffffffffffffffffffffffffffffffffffffffff1681526020019081526020016000205461348490919063ffffffff16565b600260008673ffffffffffffffffffffffffffffffffffffffff1673ffffffffffffffffffffffffffffffffffffffff16815260200190815260200160002060003373ffffffffffffffffffffffffffffffffffffffff1673ffffffffffffffffffffffffffffffffffffffff168152602001908152602001600020819055508273ffffffffffffffffffffffffffffffffffffffff168473ffffffffffffffffffffffffffffffffffffffff167fddf252ad1be2c89b69c2b068fc378daa952ba7f163c4a11628f55a4df523b3ef846040518082815260200191505060405180910390a3600190509392505050565b60008060008060008073ffffffffffffffffffffffffffffffffffffffff168773ffffffffffffffffffffffffffffffffffffffff1614151515611ccf57600080fd5b33945060003073ffffffffffffffffffffffffffffffffffffffff166370a08231876040518263ffffffff167c0100000000000000000000000000000000000000000000000000000000028152600401808273ffffffffffffffffffffffffffffffffffffffff1673ffffffffffffffffffffffffffffffffffffffff168152602001915050602060405180830381600087803b158015611d6f57600080fd5b505af1158015611d83573d6000803e3d6000fd5b505050506040513d6020811015611d9957600080fd5b81019080805190602001909291905050501415611dbe57611dbc87866001610d99565b505b3392505b600115611e9357600860008473ffffffffffffffffffffffffffffffffffffffff1673ffffffffffffffffffffffffffffffffffffffff16815260200190815260200160002060009054906101000a900473ffffffffffffffffffffffffffffffffffffffff169250600660009054906101000a900473ffffffffffffffffffffffffffffffffffffffff1673ffffffffffffffffffffffffffffffffffffffff168373ffffffffffffffffffffffffffffffffffffffff161415611e8657611e93565b8380600101945050611dc2565b611ea68487613d3090919063ffffffff16565b9150339250600090505b838110156120cd57600860008473ffffffffffffffffffffffffffffffffffffffff1673ffffffffffffffffffffffffffffffffffffffff16815260200190815260200160002060009054906101000a900473ffffffffffffffffffffffffffffffffffffffff169250611f6c82600460008673ffffffffffffffffffffffffffffffffffffffff1673ffffffffffffffffffffffffffffffffffffffff1681526020019081526020016000205461349d90919063ffffffff16565b600460008573ffffffffffffffffffffffffffffffffffffffff1673ffffffffffffffffffffffffffffffffffffffff16815260200190815260200160002081905550600560009054906101000a900473ffffffffffffffffffffffffffffffffffffffff1673ffffffffffffffffffffffffffffffffffffffff1663bd6cd0d13085856040518463ffffffff167c0100000000000000000000000000000000000000000000000000000000028152600401808473ffffffffffffffffffffffffffffffffffffffff1673ffffffffffffffffffffffffffffffffffffffff1681526020018373ffffffffffffffffffffffffffffffffffffffff1673ffffffffffffffffffffffffffffffffffffffff1681526020018281526020019350505050600060405180830381600087803b1580156120a857600080fd5b505af11580156120bc573d6000803e3d6000fd5b505050508080600101915050611eb0565b50505050505050565b600080600260003373ffffffffffffffffffffffffffffffffffffffff1673ffffffffffffffffffffffffffffffffffffffff16815260200190815260200160002060008573ffffffffffffffffffffffffffffffffffffffff1673ffffffffffffffffffffffffffffffffffffffff16815260200190815260200160002054905080831015156121e8576000600260003373ffffffffffffffffffffffffffffffffffffffff1673ffffffffffffffffffffffffffffffffffffffff16815260200190815260200160002060008673ffffffffffffffffffffffffffffffffffffffff1673ffffffffffffffffffffffffffffffffffffffff1681526020019081526020016000208190555061227c565b6121fb838261348490919063ffffffff16565b600260003373ffffffffffffffffffffffffffffffffffffffff1673ffffffffffffffffffffffffffffffffffffffff16815260200190815260200160002060008673ffffffffffffffffffffffffffffffffffffffff1673ffffffffffffffffffffffffffffffffffffffff168152602001908152602001600020819055505b8373ffffffffffffffffffffffffffffffffffffffff163373ffffffffffffffffffffffffffffffffffffffff167f8c5be1e5ebec7d5bd14f71427d1e84f3dd0314c0f7b2291e5b200ac8c7c3b925600260003373ffffffffffffffffffffffffffffffffffffffff1673ffffffffffffffffffffffffffffffffffffffff16815260200190815260200160002060008873ffffffffffffffffffffffffffffffffffffffff1673ffffffffffffffffffffffffffffffffffffffff168152602001908152602001600020546040518082815260200191505060405180910390a3600191505092915050565b60008060008373ffffffffffffffffffffffffffffffffffffffff1673ffffffffffffffffffffffffffffffffffffffff168152602001908152602001600020549050919050565b60006123ba6153d4565b600960008873ffffffffffffffffffffffffffffffffffffffff1673ffffffffffffffffffffffffffffffffffffffff16815260200190815260200160002061016060405190810160405290816000820160009054906101000a900473ffffffffffffffffffffffffffffffffffffffff1673ffffffffffffffffffffffffffffffffffffffff1673ffffffffffffffffffffffffffffffffffffffff168152602001600182015481526020016002820160009054906101000a900473ffffffffffffffffffffffffffffffffffffffff1673ffffffffffffffffffffffffffffffffffffffff1673ffffffffffffffffffffffffffffffffffffffff1681526020016002820160149054906101000a900460ff161515151581526020016002820160159054906101000a900460ff16151515158152602001600382015481526020016004820160009054906101000a900473ffffffffffffffffffffffffffffffffffffffff1673ffffffffffffffffffffffffffffffffffffffff1673ffffffffffffffffffffffffffffffffffffffff168152602001600582015481526020016006820160009054906101000a900460ff16600381111561257a57fe5b600381111561258557fe5b815260200160078201548152602001600882015481525050905060008160a00151141580156125b657508060800151155b80156125c457508060600151155b15156125cf57600080fd5b600060038111156125dc57fe5b8360038111156125e857fe5b1415612765576125fc878787876000613d46565b600a60009054906101000a900473ffffffffffffffffffffffffffffffffffffffff1673ffffffffffffffffffffffffffffffffffffffff16638e8f6283308989898960006040518763ffffffff167c0100000000000000000000000000000000000000000000000000000000028152600401808773ffffffffffffffffffffffffffffffffffffffff1673ffffffffffffffffffffffffffffffffffffffff1681526020018673ffffffffffffffffffffffffffffffffffffffff1673ffffffffffffffffffffffffffffffffffffffff1681526020018581526020018473ffffffffffffffffffffffffffffffffffffffff1673ffffffffffffffffffffffffffffffffffffffff16815260200183815260200182600381111561271e57fe5b60ff1681526020019650505050505050600060405180830381600087803b15801561274857600080fd5b505af115801561275c573d6000803e3d6000fd5b505050506128f8565b6001600381111561277257fe5b83600381111561277e57fe5b14156128f757612792878787876001613d46565b600a60009054906101000a900473ffffffffffffffffffffffffffffffffffffffff1673ffffffffffffffffffffffffffffffffffffffff16638e8f6283308989898960016040518763ffffffff167c0100000000000000000000000000000000000000000000000000000000028152600401808773ffffffffffffffffffffffffffffffffffffffff1673ffffffffffffffffffffffffffffffffffffffff1681526020018673ffffffffffffffffffffffffffffffffffffffff1673ffffffffffffffffffffffffffffffffffffffff1681526020018581526020018473ffffffffffffffffffffffffffffffffffffffff1673ffffffffffffffffffffffffffffffffffffffff1681526020018381526020018260038111156128b457fe5b60ff1681526020019650505050505050600060405180830381600087803b1580156128de57600080fd5b505af11580156128f2573d6000803e3d6000fd5b505050505b5b600191505095945050505050565b60006129106153d4565b600960008873ffffffffffffffffffffffffffffffffffffffff1673ffffffffffffffffffffffffffffffffffffffff16815260200190815260200160002061016060405190810160405290816000820160009054906101000a900473ffffffffffffffffffffffffffffffffffffffff1673ffffffffffffffffffffffffffffffffffffffff1673ffffffffffffffffffffffffffffffffffffffff168152602001600182015481526020016002820160009054906101000a900473ffffffffffffffffffffffffffffffffffffffff1673ffffffffffffffffffffffffffffffffffffffff1673ffffffffffffffffffffffffffffffffffffffff1681526020016002820160149054906101000a900460ff161515151581526020016002820160159054906101000a900460ff16151515158152602001600382015481526020016004820160009054906101000a900473ffffffffffffffffffffffffffffffffffffffff1673ffffffffffffffffffffffffffffffffffffffff1673ffffffffffffffffffffffffffffffffffffffff168152602001600582015481526020016006820160009054906101000a900460ff166003811115612ad057fe5b6003811115612adb57fe5b815260200160078201548152602001600882015481525050905060008160a0015114158015612b0c57508060800151155b8015612b1a57508060600151155b1515612b2557600080fd5b80610140015142111515612b3857600080fd5b612b458787878787613d46565b600191505095945050505050565b600080600860008573ffffffffffffffffffffffffffffffffffffffff1673ffffffffffffffffffffffffffffffffffffffff16815260200190815260200160002060009054906101000a900473ffffffffffffffffffffffffffffffffffffffff1673ffffffffffffffffffffffffffffffffffffffff16141515612bd857600080fd5b612be28383610b3a565b15612e2a576000600860008573ffffffffffffffffffffffffffffffffffffffff1673ffffffffffffffffffffffffffffffffffffffff16815260200190815260200160002060009054906101000a900473ffffffffffffffffffffffffffffffffffffffff1673ffffffffffffffffffffffffffffffffffffffff161415612da357600560009054906101000a900473ffffffffffffffffffffffffffffffffffffffff1673ffffffffffffffffffffffffffffffffffffffff16638af1cbb93033866040518463ffffffff167c0100000000000000000000000000000000000000000000000000000000028152600401808473ffffffffffffffffffffffffffffffffffffffff1673ffffffffffffffffffffffffffffffffffffffff1681526020018373ffffffffffffffffffffffffffffffffffffffff1673ffffffffffffffffffffffffffffffffffffffff1681526020018273ffffffffffffffffffffffffffffffffffffffff1673ffffffffffffffffffffffffffffffffffffffff1681526020019350505050600060405180830381600087803b158015612d8a57600080fd5b505af1158015612d9e573d6000803e3d6000fd5b505050505b33600860008573ffffffffffffffffffffffffffffffffffffffff1673ffffffffffffffffffffffffffffffffffffffff16815260200190815260200160002060006101000a81548173ffffffffffffffffffffffffffffffffffffffff021916908373ffffffffffffffffffffffffffffffffffffffff16021790555060019050612e2f565b600090505b92915050565b80600f600085815260200190815260200160002060008473ffffffffffffffffffffffffffffffffffffffff1673ffffffffffffffffffffffffffffffffffffffff16815260200190815260200160002081905550505050565b80600460003373ffffffffffffffffffffffffffffffffffffffff1673ffffffffffffffffffffffffffffffffffffffff1681526020019081526020016000205410158015612ede5750600081115b1515612ee957600080fd5b612f3b81600460003373ffffffffffffffffffffffffffffffffffffffff1673ffffffffffffffffffffffffffffffffffffffff1681526020019081526020016000205461348490919063ffffffff16565b600460003373ffffffffffffffffffffffffffffffffffffffff1673ffffffffffffffffffffffffffffffffffffffff16815260200190815260200160002081905550600b60009054906101000a900473ffffffffffffffffffffffffffffffffffffffff1673ffffffffffffffffffffffffffffffffffffffff166323b872dd3033846040518463ffffffff167c0100000000000000000000000000000000000000000000000000000000028152600401808473ffffffffffffffffffffffffffffffffffffffff1673ffffffffffffffffffffffffffffffffffffffff1681526020018373ffffffffffffffffffffffffffffffffffffffff1673ffffffffffffffffffffffffffffffffffffffff1681526020018281526020019350505050602060405180830381600087803b15801561307757600080fd5b505af115801561308b573d6000803e3d6000fd5b505050506040513d60208110156130a157600080fd5b81019080805190602001909291905050505050565b60075481565b600061314d82600260003373ffffffffffffffffffffffffffffffffffffffff1673ffffffffffffffffffffffffffffffffffffffff16815260200190815260200160002060008673ffffffffffffffffffffffffffffffffffffffff1673ffffffffffffffffffffffffffffffffffffffff1681526020019081526020016000205461349d90919063ffffffff16565b600260003373ffffffffffffffffffffffffffffffffffffffff1673ffffffffffffffffffffffffffffffffffffffff16815260200190815260200160002060008573ffffffffffffffffffffffffffffffffffffffff1673ffffffffffffffffffffffffffffffffffffffff168152602001908152602001600020819055508273ffffffffffffffffffffffffffffffffffffffff163373ffffffffffffffffffffffffffffffffffffffff167f8c5be1e5ebec7d5bd14f71427d1e84f3dd0314c0f7b2291e5b200ac8c7c3b925600260003373ffffffffffffffffffffffffffffffffffffffff1673ffffffffffffffffffffffffffffffffffffffff16815260200190815260200160002060008773ffffffffffffffffffffffffffffffffffffffff1673ffffffffffffffffffffffffffffffffffffffff168152602001908152602001600020546040518082815260200191505060405180910390a36001905092915050565b6000600260008473ffffffffffffffffffffffffffffffffffffffff1673ffffffffffffffffffffffffffffffffffffffff16815260200190815260200160002060008373ffffffffffffffffffffffffffffffffffffffff1673ffffffffffffffffffffffffffffffffffffffff16815260200190815260200160002054905092915050565b60096020528060005260406000206000915090508060000160009054906101000a900473ffffffffffffffffffffffffffffffffffffffff16908060010154908060020160009054906101000a900473ffffffffffffffffffffffffffffffffffffffff16908060020160149054906101000a900460ff16908060020160159054906101000a900460ff16908060030154908060040160009054906101000a900473ffffffffffffffffffffffffffffffffffffffff16908060050154908060060160009054906101000a900460ff1690806007015490806008015490508b565b6001600381111561342d57fe5b81600381111561343957fe5b14156134505761344b858585856144fa565b61347d565b6000600381111561345d57fe5b81600381111561346957fe5b141561347c5761347b85858585614bd8565b5b5b5050505050565b600082821115151561349257fe5b818303905092915050565b600081830190508281101515156134b057fe5b80905092915050565b6000808314156134cc57600090506134eb565b81830290508183828115156134dd57fe5b041415156134e757fe5b8090505b92915050565b6134f96153d4565b6000806000600960003373ffffffffffffffffffffffffffffffffffffffff1673ffffffffffffffffffffffffffffffffffffffff16815260200190815260200160002061016060405190810160405290816000820160009054906101000a900473ffffffffffffffffffffffffffffffffffffffff1673ffffffffffffffffffffffffffffffffffffffff1673ffffffffffffffffffffffffffffffffffffffff168152602001600182015481526020016002820160009054906101000a900473ffffffffffffffffffffffffffffffffffffffff1673ffffffffffffffffffffffffffffffffffffffff1673ffffffffffffffffffffffffffffffffffffffff1681526020016002820160149054906101000a900460ff161515151581526020016002820160159054906101000a900460ff16151515158152602001600382015481526020016004820160009054906101000a900473ffffffffffffffffffffffffffffffffffffffff1673ffffffffffffffffffffffffffffffffffffffff1673ffffffffffffffffffffffffffffffffffffffff168152602001600582015481526020016006820160009054906101000a900460ff1660038111156136be57fe5b60038111156136c957fe5b8152602001600782015481526020016008820154815250509350600184606001901515908115158152505083600960003373ffffffffffffffffffffffffffffffffffffffff1673ffffffffffffffffffffffffffffffffffffffff16815260200190815260200160002060008201518160000160006101000a81548173ffffffffffffffffffffffffffffffffffffffff021916908373ffffffffffffffffffffffffffffffffffffffff1602179055506020820151816001015560408201518160020160006101000a81548173ffffffffffffffffffffffffffffffffffffffff021916908373ffffffffffffffffffffffffffffffffffffffff16021790555060608201518160020160146101000a81548160ff02191690831515021790555060808201518160020160156101000a81548160ff02191690831515021790555060a0820151816003015560c08201518160040160006101000a81548173ffffffffffffffffffffffffffffffffffffffff021916908373ffffffffffffffffffffffffffffffffffffffff16021790555060e082015181600501556101008201518160060160006101000a81548160ff0219169083600381111561388c57fe5b0217905550610120820151816007015561014082015181600801559050506138b78460200151615389565b9250600b60009054906101000a900473ffffffffffffffffffffffffffffffffffffffff1673ffffffffffffffffffffffffffffffffffffffff1663a9059cbb601460009054906101000a900473ffffffffffffffffffffffffffffffffffffffff1661392f601054876134b990919063ffffffff16565b6040518363ffffffff167c0100000000000000000000000000000000000000000000000000000000028152600401808373ffffffffffffffffffffffffffffffffffffffff1673ffffffffffffffffffffffffffffffffffffffff16815260200182815260200192505050602060405180830381600087803b1580156139b457600080fd5b505af11580156139c8573d6000803e3d6000fd5b505050506040513d60208110156139de57600080fd5b810190808051906020019092919050505015156139fa57600080fd5b83602001519150613a296064613a1b846017546134b990919063ffffffff16565b613d3090919063ffffffff16565b9050600b60009054906101000a900473ffffffffffffffffffffffffffffffffffffffff1673ffffffffffffffffffffffffffffffffffffffff1663a9059cbb601360009054906101000a900473ffffffffffffffffffffffffffffffffffffffff16613ac5601054613ab786613aa98a8a61348490919063ffffffff16565b61348490919063ffffffff16565b6134b990919063ffffffff16565b6040518363ffffffff167c0100000000000000000000000000000000000000000000000000000000028152600401808373ffffffffffffffffffffffffffffffffffffffff1673ffffffffffffffffffffffffffffffffffffffff16815260200182815260200192505050602060405180830381600087803b158015613b4a57600080fd5b505af1158015613b5e573d6000803e3d6000fd5b505050506040513d6020811015613b7457600080fd5b81019080805190602001909291905050501515613b9057600080fd5b613bb28460000151613bad601054846134b990919063ffffffff16565b611c8c565b600a60009054906101000a900473ffffffffffffffffffffffffffffffffffffffff1673ffffffffffffffffffffffffffffffffffffffff16633a0f6a3c3086604001518760a001518860c001518960e001518a61010001516040518763ffffffff167c0100000000000000000000000000000000000000000000000000000000028152600401808773ffffffffffffffffffffffffffffffffffffffff1673ffffffffffffffffffffffffffffffffffffffff1681526020018673ffffffffffffffffffffffffffffffffffffffff1673ffffffffffffffffffffffffffffffffffffffff1681526020018581526020018473ffffffffffffffffffffffffffffffffffffffff1673ffffffffffffffffffffffffffffffffffffffff168152602001838152602001826003811115613ce857fe5b60ff1681526020019650505050505050600060405180830381600087803b158015613d1257600080fd5b505af1158015613d26573d6000803e3d6000fd5b5050505050505050565b60008183811515613d3d57fe5b04905092915050565b613d4e6153d4565b6000600960008873ffffffffffffffffffffffffffffffffffffffff1673ffffffffffffffffffffffffffffffffffffffff16815260200190815260200160002061016060405190810160405290816000820160009054906101000a900473ffffffffffffffffffffffffffffffffffffffff1673ffffffffffffffffffffffffffffffffffffffff1673ffffffffffffffffffffffffffffffffffffffff168152602001600182015481526020016002820160009054906101000a900473ffffffffffffffffffffffffffffffffffffffff1673ffffffffffffffffffffffffffffffffffffffff1673ffffffffffffffffffffffffffffffffffffffff1681526020016002820160149054906101000a900460ff161515151581526020016002820160159054906101000a900460ff16151515158152602001600382015481526020016004820160009054906101000a900473ffffffffffffffffffffffffffffffffffffffff1673ffffffffffffffffffffffffffffffffffffffff1673ffffffffffffffffffffffffffffffffffffffff168152602001600582015481526020016006820160009054906101000a900460ff166003811115613f1057fe5b6003811115613f1b57fe5b8152602001600782015481526020016008820154815250509150600182608001901515908115158152505081600960008973ffffffffffffffffffffffffffffffffffffffff1673ffffffffffffffffffffffffffffffffffffffff16815260200190815260200160002060008201518160000160006101000a81548173ffffffffffffffffffffffffffffffffffffffff021916908373ffffffffffffffffffffffffffffffffffffffff1602179055506020820151816001015560408201518160020160006101000a81548173ffffffffffffffffffffffffffffffffffffffff021916908373ffffffffffffffffffffffffffffffffffffffff16021790555060608201518160020160146101000a81548160ff02191690831515021790555060808201518160020160156101000a81548160ff02191690831515021790555060a0820151816003015560c08201518160040160006101000a81548173ffffffffffffffffffffffffffffffffffffffff021916908373ffffffffffffffffffffffffffffffffffffffff16021790555060e082015181600501556101008201518160060160006101000a81548160ff021916908360038111156140de57fe5b0217905550610120820151816007015561014082015181600801559050506000600381111561410957fe5b83600381111561411557fe5b14156142c8578484604051602001808373ffffffffffffffffffffffffffffffffffffffff1673ffffffffffffffffffffffffffffffffffffffff166c01000000000000000000000000028152601401828152602001925050506040516020818303038152906040526040518082805190602001908083835b6020831015156141b3578051825260208201915060208101905060208303925061418e565b6001836020036101000a0380198251168184511680821785525050505050509050019150506040518091039020600190049050600e60009054906101000a900473ffffffffffffffffffffffffffffffffffffffff1673ffffffffffffffffffffffffffffffffffffffff16636a5ea8d987876040518363ffffffff167c0100000000000000000000000000000000000000000000000000000000028152600401808381526020018273ffffffffffffffffffffffffffffffffffffffff1673ffffffffffffffffffffffffffffffffffffffff16815260200192505050600060405180830381600087803b1580156142ab57600080fd5b505af11580156142bf573d6000803e3d6000fd5b505050506143ce565b600160038111156142d557fe5b8360038111156142e157fe5b14156143cd57600e60009054906101000a900473ffffffffffffffffffffffffffffffffffffffff1673ffffffffffffffffffffffffffffffffffffffff16635192c9ea8787876040518463ffffffff167c0100000000000000000000000000000000000000000000000000000000028152600401808481526020018373ffffffffffffffffffffffffffffffffffffffff1673ffffffffffffffffffffffffffffffffffffffff1681526020018281526020019350505050600060405180830381600087803b1580156143b457600080fd5b505af11580156143c8573d6000803e3d6000fd5b505050505b5b600b60009054906101000a900473ffffffffffffffffffffffffffffffffffffffff1673ffffffffffffffffffffffffffffffffffffffff1663a9059cbb8861442660105486602001516134b990919063ffffffff16565b6040518363ffffffff167c0100000000000000000000000000000000000000000000000000000000028152600401808373ffffffffffffffffffffffffffffffffffffffff1673ffffffffffffffffffffffffffffffffffffffff16815260200182815260200192505050602060405180830381600087803b1580156144ab57600080fd5b505af11580156144bf573d6000803e3d6000fd5b505050506040513d60208110156144d557600080fd5b810190808051906020019092919050505015156144f157600080fd5b50505050505050565b60006145046153d4565b60008311801561456457506000600f600087815260200190815260200160002060008673ffffffffffffffffffffffffffffffffffffffff1673ffffffffffffffffffffffffffffffffffffffff16815260200190815260200160002054115b151561456f57600080fd5b6145e66010546145d885600f60008a815260200190815260200160002060008973ffffffffffffffffffffffffffffffffffffffff1673ffffffffffffffffffffffffffffffffffffffff168152602001908152602001600020546134b990919063ffffffff16565b6134b990919063ffffffff16565b9150600b60009054906101000a900473ffffffffffffffffffffffffffffffffffffffff1673ffffffffffffffffffffffffffffffffffffffff166323b872dd3330856040518463ffffffff167c0100000000000000000000000000000000000000000000000000000000028152600401808473ffffffffffffffffffffffffffffffffffffffff1673ffffffffffffffffffffffffffffffffffffffff1681526020018373ffffffffffffffffffffffffffffffffffffffff1673ffffffffffffffffffffffffffffffffffffffff1681526020018281526020019350505050602060405180830381600087803b1580156146e157600080fd5b505af11580156146f5573d6000803e3d6000fd5b505050506040513d602081101561470b57600080fd5b8101908080519060200190929190505050151561472757600080fd5b610160604051908101604052808773ffffffffffffffffffffffffffffffffffffffff1681526020018381526020013373ffffffffffffffffffffffffffffffffffffffff1681526020016000151581526020016000151581526020018681526020018573ffffffffffffffffffffffffffffffffffffffff168152602001848152602001600160038111156147b957fe5b8152602001428152602001603c6015540242018152509050600e60009054906101000a900473ffffffffffffffffffffffffffffffffffffffff1673ffffffffffffffffffffffffffffffffffffffff1663db9e4b8f8686866040518463ffffffff167c0100000000000000000000000000000000000000000000000000000000028152600401808481526020018373ffffffffffffffffffffffffffffffffffffffff1673ffffffffffffffffffffffffffffffffffffffff1681526020018281526020019350505050600060405180830381600087803b15801561489e57600080fd5b505af11580156148b2573d6000803e3d6000fd5b50505050600a60009054906101000a900473ffffffffffffffffffffffffffffffffffffffff1673ffffffffffffffffffffffffffffffffffffffff166345d29f0f303388888860016040518763ffffffff167c0100000000000000000000000000000000000000000000000000000000028152600401808773ffffffffffffffffffffffffffffffffffffffff1673ffffffffffffffffffffffffffffffffffffffff1681526020018673ffffffffffffffffffffffffffffffffffffffff1673ffffffffffffffffffffffffffffffffffffffff1681526020018581526020018473ffffffffffffffffffffffffffffffffffffffff1673ffffffffffffffffffffffffffffffffffffffff1681526020018381526020018260038111156149d857fe5b60ff1681526020019650505050505050600060405180830381600087803b158015614a0257600080fd5b505af1158015614a16573d6000803e3d6000fd5b5050505080600960003373ffffffffffffffffffffffffffffffffffffffff1673ffffffffffffffffffffffffffffffffffffffff16815260200190815260200160002060008201518160000160006101000a81548173ffffffffffffffffffffffffffffffffffffffff021916908373ffffffffffffffffffffffffffffffffffffffff1602179055506020820151816001015560408201518160020160006101000a81548173ffffffffffffffffffffffffffffffffffffffff021916908373ffffffffffffffffffffffffffffffffffffffff16021790555060608201518160020160146101000a81548160ff02191690831515021790555060808201518160020160156101000a81548160ff02191690831515021790555060a0820151816003015560c08201518160040160006101000a81548173ffffffffffffffffffffffffffffffffffffffff021916908373ffffffffffffffffffffffffffffffffffffffff16021790555060e082015181600501556101008201518160060160006101000a81548160ff02191690836003811115614bb257fe5b021790555061012082015181600701556101408201518160080155905050505050505050565b600080614be36153d4565b6011544210158015614bf757506012544211155b1515614c0257600080fd5b8484604051602001808373ffffffffffffffffffffffffffffffffffffffff1673ffffffffffffffffffffffffffffffffffffffff166c01000000000000000000000000028152601401828152602001925050506040516020818303038152906040526040518082805190602001908083835b602083101515614c9a5780518252602082019150602081019050602083039250614c75565b6001836020036101000a038019825116818451168082178552505050505050905001915050604051809103902060019004925060008414158015614d2e57506000600f600088815260200190815260200160002060008573ffffffffffffffffffffffffffffffffffffffff1673ffffffffffffffffffffffffffffffffffffffff16815260200190815260200160002054115b1515614d3957600080fd5b614d9e601054600f600089815260200190815260200160002060008673ffffffffffffffffffffffffffffffffffffffff1673ffffffffffffffffffffffffffffffffffffffff168152602001908152602001600020546134b990919063ffffffff16565b9150600b60009054906101000a900473ffffffffffffffffffffffffffffffffffffffff1673ffffffffffffffffffffffffffffffffffffffff166323b872dd3330856040518463ffffffff167c0100000000000000000000000000000000000000000000000000000000028152600401808473ffffffffffffffffffffffffffffffffffffffff1673ffffffffffffffffffffffffffffffffffffffff1681526020018373ffffffffffffffffffffffffffffffffffffffff1673ffffffffffffffffffffffffffffffffffffffff1681526020018281526020019350505050602060405180830381600087803b158015614e9957600080fd5b505af1158015614ead573d6000803e3d6000fd5b505050506040513d6020811015614ec357600080fd5b81019080805190602001909291905050501515614edf57600080fd5b610160604051908101604052808873ffffffffffffffffffffffffffffffffffffffff1681526020018381526020013373ffffffffffffffffffffffffffffffffffffffff1681526020016000151581526020016000151581526020018781526020018673ffffffffffffffffffffffffffffffffffffffff16815260200185815260200160006003811115614f7157fe5b8152602001428152602001603c6015540242018152509050600e60009054906101000a900473ffffffffffffffffffffffffffffffffffffffff1673ffffffffffffffffffffffffffffffffffffffff1663e71e144c87876040518363ffffffff167c0100000000000000000000000000000000000000000000000000000000028152600401808381526020018273ffffffffffffffffffffffffffffffffffffffff1673ffffffffffffffffffffffffffffffffffffffff16815260200192505050600060405180830381600087803b15801561504e57600080fd5b505af1158015615062573d6000803e3d6000fd5b50505050600a60009054906101000a900473ffffffffffffffffffffffffffffffffffffffff1673ffffffffffffffffffffffffffffffffffffffff166345d29f0f303389898960006040518763ffffffff167c0100000000000000000000000000000000000000000000000000000000028152600401808773ffffffffffffffffffffffffffffffffffffffff1673ffffffffffffffffffffffffffffffffffffffff1681526020018673ffffffffffffffffffffffffffffffffffffffff1673ffffffffffffffffffffffffffffffffffffffff1681526020018581526020018473ffffffffffffffffffffffffffffffffffffffff1673ffffffffffffffffffffffffffffffffffffffff16815260200183815260200182600381111561518857fe5b60ff1681526020019650505050505050600060405180830381600087803b1580156151b257600080fd5b505af11580156151c6573d6000803e3d6000fd5b5050505080600960003373ffffffffffffffffffffffffffffffffffffffff1673ffffffffffffffffffffffffffffffffffffffff16815260200190815260200160002060008201518160000160006101000a81548173ffffffffffffffffffffffffffffffffffffffff021916908373ffffffffffffffffffffffffffffffffffffffff1602179055506020820151816001015560408201518160020160006101000a81548173ffffffffffffffffffffffffffffffffffffffff021916908373ffffffffffffffffffffffffffffffffffffffff16021790555060608201518160020160146101000a81548160ff02191690831515021790555060808201518160020160156101000a81548160ff02191690831515021790555060a0820151816003015560c08201518160040160006101000a81548173ffffffffffffffffffffffffffffffffffffffff021916908373ffffffffffffffffffffffffffffffffffffffff16021790555060e082015181600501556101008201518160060160006101000a81548160ff0219169083600381111561536257fe5b02179055506101208201518160070155610140820151816008015590505050505050505050565b600080600060165411156153c9576153bf60646153b1601654866134b990919063ffffffff16565b613d3090919063ffffffff16565b90508091506153ce565b600091505b50919050565b61016060405190810160405280600073ffffffffffffffffffffffffffffffffffffffff16815260200160008152602001600073ffffffffffffffffffffffffffffffffffffffff16815260200160001515815260200160001515815260200160008152602001600073ffffffffffffffffffffffffffffffffffffffff168152602001600081526020016000600381111561546c57fe5b8152602001600081526020016000815250905600a165627a7a72305820d176ce09ef272d57ed5ecc9780c5a989ae868c73ca8a101ed01bb3605a6ce61f0029",
  "source": "pragma solidity ^0.4.24; \n\nimport '../openzeppelin-solidity/contracts/math/SafeMath.sol';\n\nimport './TwoKeyEconomy.sol';\nimport './TwoKeyTypes.sol';\nimport './TwoKeyEventSource.sol';\nimport './TwoKeyARC.sol';\nimport \"./TwoKeyCampaignInventory.sol\";\nimport \"./TwoKeyWhitelisted.sol\";\n\n/// TODO: method to set contractor public key  (when user create campaign we generate a link)\n/// TODO: Somehow to check if contractor public key is set\n/// TODO: Add inventory (ETHCrowdsale()?)\n/// TODO: Method to buy inventory\ncontract TwoKeyCampaign is TwoKeyARC, TwoKeyTypes {\n\n\n\tevent Created(address indexed _campaign, address indexed _owner);\n\n\tusing SafeMath for uint256;\n\n\tstruct Conversion {\n\t\taddress from;\n\t\tuint256 payout;\n\t\taddress converter;\t\n\t\tbool isFulfilled;\n\t\tbool isCancelled;\n\t\tuint256 tokenID;\n\t\taddress assetContract;\n\t\tuint256 indexOrAmount;\n\t\tCampaignType campaignType;\n\t\tuint256 openingTime;\n\t\tuint256 closingTime;\n\t}\n\n\tmapping (address => Conversion) public conversions;\n\n\t\n\t// emit through it events for backend to listen to\n\tTwoKeyEventSource eventSource;\n\n\t// 2key token\n\tTwoKeyEconomy economy;\n\n\t// whitelists will be managed by their ownership\n\t// they are the vehicles to convey KYC for different roles: converter, influencer, contractor\n\t// whitelists are outside the campaign\n\t// these whtelists may be shared across campaigns\n\n\t// whitelist of influencers, to which users are added after kyc\n\t// TODO (udi) what should I do if I dont want to manage a white list?\n\tTwoKeyWhitelisted whitelistInfluencer;\n\n\t// whitelist of converters, to which users are added after kyc\n\tTwoKeyWhitelisted whitelistConverter;\n\n\n\t// Composable asset factory\n\tTwoKeyCampaignInventory twoKeyCampaignInventory;\n\n\n\t// prices of assets\n\t// TODO (udi) there should be just one token->address->price you don't need two maps\n\tmapping(uint256 => mapping(address => uint256)) prices; \n\n\t// rate of conversion from TwoKey to ETH\n\tuint256 rate;\n\n\n\tuint openingTime;\n\tuint closingTime;\n\n\taddress contractor;\n\taddress moderator;\n\n\t// parameters of escrow\n\n\t// how long will hold asset in escrow\n\tuint256 expiryConversion;\n\n\t// percentage of payout to. be paid for moderator for escrow\n\tuint256 escrowPercentage;\n\n    // maximum precentage of all rewards out of payout for asset\n    // acording to incentive model, for each campaign, \n    // we set its maximum reward which the campaign is created as a precentage of the payout for\n    // an item sold in the campaign\n    // this reward is spread among influencers causing in some way a conversion\n    // the incentive model determines how to spread the reward\n\tuint256 maxPi;  \n\n \n    // is the influencer eligible for participation in campaign\n\tmodifier isWhiteListedInfluencer() {\n\t\trequire(whitelistInfluencer.isWhitelisted(msg.sender));\n\t\t_;\n\t}\n\n\t// is the converter eligible for participation in conversion\n    modifier isWhitelistedConverter() {\n        require(whitelistConverter.isWhitelisted(msg.sender));\n        _;\n    }\n\n    modifier didConverterConvert() {\n        Conversion memory c = conversions[msg.sender];\n    \trequire(c.tokenID != 0);\n    \trequire(!c.isFulfilled && !c.isCancelled);\n        _;\n    }\n\n\t  modifier isOngoing() {\n\t    require(block.timestamp >= openingTime && block.timestamp <= closingTime);\n\t    _;\n\t  }\n\n\t  modifier isClosed() {\n\t    require(now > closingTime);\n\t    _;\n\t  }\n\n\t// if we just work with two key tokens, \n\t// rate is 1, and all prices are in two key tokens\n\t/*\n\t\n\t */\n\n\tconstructor(\n\t\tTwoKeyEventSource _eventSource,\n\t\tTwoKeyEconomy _economy,\n\t\tTwoKeyWhitelisted _whitelistInfluencer,\n\t\tTwoKeyWhitelisted _whitelistConverter,\n\t\tTwoKeyCampaignInventory _twoKeyCampaignInventory,\n\n\t\taddress _contractor,\n\n\t\t// set moderator as admin of twokeywhitelist contracts here\n\t\taddress _moderator,\n\n\t\tuint256 _openingTime,\n\t\tuint256 _closingTime,\n\t\tuint256 _expiryConversion,\n\t\tuint256 _escrowPercentage,\n\t\tuint256 _rate,\n\t\tuint256 _maxPi) TwoKeyARC(_eventSource, _contractor) StandardToken() public {\n\n\n\t\t/// requires that all contracts from constructor are already deployed\n\t\trequire(_eventSource != address(0));\n\t\trequire(_economy != address(0));\n\n\t\t/// uint values\n\t\trequire(_rate > 0);\n\t\trequire(_maxPi > 0);\n\n\t\teconomy = _economy;\n\n\t\tcontractor = _contractor;\n\t\tmoderator = _moderator;\n\n\t\topeningTime = _openingTime;\n\t\tclosingTime = _closingTime;\n\n\n\t\texpiryConversion = _expiryConversion;\n\t\tescrowPercentage = _escrowPercentage;\n\n\n\t\twhitelistInfluencer = _whitelistInfluencer;\n\t\twhitelistConverter = _whitelistConverter;\n\t\ttwoKeyCampaignInventory = _twoKeyCampaignInventory;\n\n\t\trate = _rate;\n\n//\t\t in general max_pi is dynamic and is computed by the incentive model\n//\t     per conversion\n//\t     there should be a discount - but not for now\n\n        maxPi = _maxPi;\n\n\t\temit Created(address(this), contractor);\n\n\t}\n\n\t/// add modifiers who can call this\n//    function addAdminRolesAndBalancesAfterDeployed() public {\n//\t\ttwoKeyCampaignInventory.adminAddRole(msg.sender, twoKeyCampaignInventory.getControllerRole());\n//\t\ttwoKeyCampaignInventory.adminAddRole(contractor, twoKeyCampaignInventory.getControllerRole());\n//\t\ttwoKeyCampaignInventory.adminAddRole(moderator, twoKeyCampaignInventory.getControllerRole());\n//\t\tbalances[msg.sender] = totalSupply_;\n//    }\n\n    /*  \n\t    fulfills a fungible asset purchase\n\t    creates the escrow for a fungible asset\n\t    computes the payout \n\t    transfers to the escrow the asset purchased\n    */ \n\tfunction fulfillFungibleTwoKeyToken(\n\t\taddress _from, \n\t\tuint256 _tokenID, \n\t\taddress _assetContract, \n\t\tuint256 _amount)  internal {\n\t\trequire(_amount > 0 && prices[_tokenID][_assetContract] > 0);\n\t\tuint256 payout = prices[_tokenID][_assetContract].mul(_amount).mul(rate);\n\t\trequire(economy.transferFrom(msg.sender, this, payout));\t\n\t\tConversion memory c = Conversion(_from, payout, msg.sender, false, false, _tokenID, _assetContract, _amount, CampaignType.Fungible, now, now + expiryConversion * 1 minutes);\n\t\t// move funds\n\t\ttwoKeyCampaignInventory.removeFungibleAssets(_tokenID, _assetContract, _amount);\n\t\teventSource.escrow(address(this), msg.sender, _tokenID, _assetContract, _amount, CampaignType.Fungible);\t\n\t\tconversions[msg.sender] = c;\n\t}\n\n\n    /*  \n\t    fulfills a non fungible asset purchase\n\t    creates the escrow for a fungible asset\n\t    computes the payout \n\t    transfers to the escrow the asset purchased\n\n    */\n\n\tfunction fulfillNonFungibleTwoKeyToken(address _from, uint256 _tokenID, address _assetContract, uint256 _index) isOngoing internal {\n\t\taddress assetToken = address(\n\t      keccak256(abi.encodePacked(_assetContract, _index))\n\t    );\n\t\trequire(_index != 0 && prices[_tokenID][assetToken] > 0);\n\t\tuint256 payout = prices[_tokenID][assetToken].mul(rate);\n\t\trequire(economy.transferFrom(msg.sender, this, payout));\n\t\tConversion memory c = Conversion(_from, payout, msg.sender, false, false, _tokenID, _assetContract, _index, CampaignType.NonFungible, now, now + expiryConversion * 1 minutes);\n\t\t// move funds\n\t\ttwoKeyCampaignInventory.setFungibleAssetsToZero(_tokenID, _assetContract);\n\t\teventSource.escrow(address(this), msg.sender, _tokenID, _assetContract, _index, CampaignType.NonFungible);\n\t\tconversions[msg.sender] = c;\n\t}\n\n\t/**\n     * given the total payout, calculates the moderator fee\n     * @param  _payout total payout for escrow \n     * @return moderator fee\n     */\n    function calculateModeratorFee(uint256 _payout) internal view returns (uint256)  {\n        if (escrowPercentage > 0) { // send the fee to moderator\n            uint256 fee = _payout.mul(escrowPercentage).div(100);\n            return fee;\n        }  \n        return 0;      \n    }\n\n    /**\n     * transferAssetTwoKeyToken \n     * @param  _tokenID  sku of asset\n     * @param  _assetContract erc721 representing the asset class\n     * @param  _assetTokenIDOrAmount  unique index of asset or amount of asset\n     * @param  _type Fungible or NonFungible\n     * \n     * transfer the asset to the converter,\n     */\n    function transferAssetTwoKeyToken(\n        uint256 _tokenID,\n        address _assetContract,\n        uint256 _assetTokenIDOrAmount,\n        CampaignType _type) isWhitelistedConverter didConverterConvert public {\n        actuallyFulfilledTwoKeyToken();\n        if (_type == CampaignType.NonFungible) {\n\t\t\trequire(twoKeyCampaignInventory.transferNonFungibleAsset(msg.sender, _tokenID, _assetContract, _assetTokenIDOrAmount));\n        } else if (_type == CampaignType.Fungible) {\n\t\t\trequire(twoKeyCampaignInventory.transferFungibleAsset(msg.sender, _tokenID, _assetContract, _assetTokenIDOrAmount));\n        }\n\n    }\n    /// TODO: Contractor names moderator, and moderator manages whitelist\n    /// TODO: Otherwise: Contractor can name moderator, and as part of issuing of twokeycampaign, we issue whitelist contract where we\n    /// TODO: name the moderator (Should be some kind of admin)\n    function cancelledEscrow(\n    \taddress _converter,\n        uint256 _tokenID,\n        address _assetContract,\n        uint256 _assetTokenIDOrAmount,\n        CampaignType _type) internal {\n        Conversion memory c = conversions[_converter];\n        c.isCancelled = true;\n        conversions[_converter] = c;\n        if (_type == CampaignType.NonFungible) {\n\t        address assetToken = address(\n\t\t      keccak256(abi.encodePacked(_assetContract, _assetTokenIDOrAmount))\n\t\t    );\n\t\t\ttwoKeyCampaignInventory.setFungibleAssetsToOne(_tokenID, _assetContract);\n        } else if (_type == CampaignType.Fungible) {\n\t\t\ttwoKeyCampaignInventory.addFungibleAssets(_tokenID, _assetContract, _assetTokenIDOrAmount);\n        }\n\n        require(economy.transfer(_converter, (c.payout).mul(rate)));\n    }\n\n\n    /**\n     * cancelAssetTwoKey \n     * cancels the purchase buy transfering the assets back to the campaign\n     * and refunding the converter\n     * @param  _tokenID  sku of asset\n     * @param  _assetContract erc721 representing the asset class\n     * @param  _assetTokenIDOrAmount unique index of asset or amount of asset\n     * @param  _type NonFungible or Fungible\n     * \n     */\n\t// comment onlyRole(ROLE_CONTROLLER)\n    function cancelAssetTwoKey(\n        address _converter,\n        uint256 _tokenID,\n        address _assetContract,\n        uint256 _assetTokenIDOrAmount,\n        CampaignType _type)  public returns (bool) {\n    \tConversion memory c = conversions[_converter];\n\t    require(c.tokenID != 0 && !c.isCancelled && !c.isFulfilled);\n\t    if (_type == CampaignType.NonFungible) {\n\t    \tcancelledEscrow(_converter, _tokenID, _assetContract, _assetTokenIDOrAmount, CampaignType.NonFungible);\n\t        eventSource.cancelled(address(this), _converter, _tokenID, _assetContract, _assetTokenIDOrAmount, CampaignType.NonFungible);\n\t    } else if (_type == CampaignType.Fungible) {\n\t    \tcancelledEscrow(_converter, _tokenID, _assetContract, _assetTokenIDOrAmount, CampaignType.Fungible);\n        \teventSource.cancelled(address(this), _converter, _tokenID, _assetContract, _assetTokenIDOrAmount, CampaignType.Fungible);\n\t    }\n        return true;\n    }\n\n\t//onlyRole(ROLE_CONTROLLER) - comment\n    function expireEscrow(\n\t\taddress _converter,\n\t\tuint256 _tokenID,\n\t\taddress _assetContract,\n\t\tuint256 _assetTokenIDOrAmount,\n\t\tCampaignType _type)  public returns (bool){\n\t    Conversion memory c = conversions[_converter];\n\t    require(c.tokenID != 0 && !c.isCancelled && !c.isFulfilled);\n    \trequire(now > c.closingTime);\n\t\tcancelledEscrow(_converter, _tokenID, _assetContract, _assetTokenIDOrAmount, _type);\n//\t\temit Expired(address(this));\n\t\treturn true;\n\t}\n\n\n    /**\n     * calculates moderetor fee, pays the moderator, \n     * computes total reward\n     * transfer payout to contractor, deducting the fee and the total reward\n     * asks the campaign to distribute rewards to influencers\n     */\n\n\tfunction actuallyFulfilledTwoKeyToken() internal {\n\t\tConversion memory c = conversions[msg.sender];\n        c.isFulfilled = true; \n        conversions[msg.sender] = c;\n\t\tuint256 fee = calculateModeratorFee(c.payout);\n        require(economy.transfer(moderator, fee.mul(rate))); \n        uint256 payout = c.payout;\n        uint256 maxReward = maxPi.mul(payout).div(100);\n        \n        // transfer payout - fee - rewards to seller\n        require(economy.transfer(contractor, (payout.sub(fee).sub(maxReward)).mul(rate)));\n        \n        transferRewardsTwoKeyToken(c.from, maxReward.mul(rate));\n        eventSource.fulfilled(address(this), c.converter, c.tokenID, c.assetContract, c.indexOrAmount, c.campaignType);\n\t}\n\n\t// set price for fungible asset held by the campaign\n\t// onlyRole(ROLE_CONTROLLER) - removed temp\n\tfunction setPriceFungible(uint256 _tokenID, address _assetContract, uint256 _pricePerUnit)  public {\n\t\tprices[_tokenID][_assetContract] = _pricePerUnit;\n\t}\n\n\t// set price for a non fungible asset held by the campaign\n\t// onlyRole(ROLE_CONTROLLER) - removed temp\n\tfunction setPriceNonFungible(uint256 _tokenID, address _assetContract, uint256 _index, uint256 _pricePerUnit)  public {\n\t\taddress assetToken = address(\n\t      keccak256(abi.encodePacked(_assetContract, _index))\n\t    );\n\t\tprices[_tokenID][assetToken] = _pricePerUnit;\n\t}\n\n\t// an influencer that wishes to cash an _amount of 2key from the campaign\n\tfunction redeemTwoKeyToken(uint256 _amount) public {\n        require(xbalancesTwoKey[msg.sender] >= _amount && _amount > 0);\n        xbalancesTwoKey[msg.sender] = xbalancesTwoKey[msg.sender].sub(_amount);\n        economy.transferFrom(this, msg.sender, _amount);\n    }\n\n    /**\n  \t * buy product with twokey token,\n  \t * _from is the influencer from which you received the referral\n  \t * _tokenID is the asset sku\n  \t * _assetContract - erc20 (fungible) or erc721 (non fungible) which represents the class of the asset\n  \t * _amountOrIndex - for erc20 amount in asset class, for erc21 index within asset class\n  \t */\n\tfunction buyFromWithTwoKey(\n\t\taddress _from, \n\t\tuint256 _tokenID, \n\t\taddress _assetContract, \n\t\tuint256 _amountOrIndex, \n\t\tCampaignType _campaignType) public payable {\n\t\tif (_campaignType == CampaignType.Fungible) {\n\t\t\tfulfillFungibleTwoKeyToken(_from, _tokenID, _assetContract, _amountOrIndex);\n\t\t} else if (_campaignType == CampaignType.NonFungible) {\n\t\t\tfulfillNonFungibleTwoKeyToken(_from, _tokenID, _assetContract, _amountOrIndex);\n\t\t} \n\t}\n\n\n}\n\n",
  "sourcePath": "/Users/aydnep/2key/contracts/contracts/2key/TwoKeyCampaign.sol",
  "compiler": {
    "name": "solc",
    "version": "0.4.24+commit.e67f0147.Emscripten.clang"
  },
  "schemaVersion": "2.0.1",
  "updatedAt": "2018-08-30T13:16:39.818Z"
}