{
  "contractName": "TwoKeyUpgradableExchange",
  "abi": [
    {
      "constant": true,
      "inputs": [
        {
          "name": "_operator",
          "type": "address"
        },
        {
          "name": "_role",
          "type": "string"
        }
      ],
      "name": "checkRole",
      "outputs": [],
      "payable": false,
      "stateMutability": "view",
      "type": "function"
    },
    {
      "constant": true,
      "inputs": [
        {
          "name": "_operator",
          "type": "address"
        },
        {
          "name": "_role",
          "type": "string"
        }
      ],
      "name": "hasRole",
      "outputs": [
        {
          "name": "",
          "type": "bool"
        }
      ],
      "payable": false,
      "stateMutability": "view",
      "type": "function"
    },
    {
      "constant": true,
      "inputs": [],
      "name": "rate",
      "outputs": [
        {
          "name": "",
          "type": "uint256"
        }
      ],
      "payable": false,
      "stateMutability": "view",
      "type": "function"
    },
    {
      "constant": true,
      "inputs": [],
      "name": "weiRaised",
      "outputs": [
        {
          "name": "",
          "type": "uint256"
        }
      ],
      "payable": false,
      "stateMutability": "view",
      "type": "function"
    },
    {
      "constant": true,
      "inputs": [],
      "name": "wallet",
      "outputs": [
        {
          "name": "",
          "type": "address"
        }
      ],
      "payable": false,
      "stateMutability": "view",
      "type": "function"
    },
    {
      "constant": true,
      "inputs": [],
      "name": "ROLE_CONTROLLER",
      "outputs": [
        {
          "name": "",
          "type": "string"
        }
      ],
      "payable": false,
      "stateMutability": "view",
      "type": "function"
    },
    {
      "constant": false,
      "inputs": [],
      "name": "renounceOwnership",
      "outputs": [],
      "payable": false,
      "stateMutability": "nonpayable",
      "type": "function"
    },
    {
      "constant": false,
      "inputs": [
        {
          "name": "addr",
          "type": "address"
        },
        {
          "name": "roleName",
          "type": "string"
        }
      ],
      "name": "adminRemoveRole",
      "outputs": [],
      "payable": false,
      "stateMutability": "nonpayable",
      "type": "function"
    },
    {
      "constant": true,
      "inputs": [],
      "name": "owner",
      "outputs": [
        {
          "name": "",
          "type": "address"
        }
      ],
      "payable": false,
      "stateMutability": "view",
      "type": "function"
    },
    {
      "constant": false,
      "inputs": [
        {
          "name": "addr",
          "type": "address"
        },
        {
          "name": "roleName",
          "type": "string"
        }
      ],
      "name": "adminAddRole",
      "outputs": [],
      "payable": false,
      "stateMutability": "nonpayable",
      "type": "function"
    },
    {
      "constant": true,
      "inputs": [],
      "name": "getAdminRole",
      "outputs": [
        {
          "name": "",
          "type": "string"
        }
      ],
      "payable": false,
      "stateMutability": "view",
      "type": "function"
    },
    {
      "constant": true,
      "inputs": [],
      "name": "onlyControllerRole",
      "outputs": [
        {
          "name": "",
          "type": "bool"
        }
      ],
      "payable": false,
      "stateMutability": "view",
      "type": "function"
    },
    {
      "constant": true,
      "inputs": [],
      "name": "ROLE_ADMIN",
      "outputs": [
        {
          "name": "",
          "type": "string"
        }
      ],
      "payable": false,
      "stateMutability": "view",
      "type": "function"
    },
    {
      "constant": true,
      "inputs": [],
      "name": "getControllerRole",
      "outputs": [
        {
          "name": "",
          "type": "string"
        }
      ],
      "payable": false,
      "stateMutability": "view",
      "type": "function"
    },
    {
      "constant": false,
      "inputs": [
        {
          "name": "_newOwner",
          "type": "address"
        }
      ],
      "name": "transferOwnership",
      "outputs": [],
      "payable": false,
      "stateMutability": "nonpayable",
      "type": "function"
    },
    {
      "constant": true,
      "inputs": [],
      "name": "token",
      "outputs": [
        {
          "name": "",
          "type": "address"
        }
      ],
      "payable": false,
      "stateMutability": "view",
      "type": "function"
    },
    {
      "inputs": [
        {
          "name": "_rate",
          "type": "uint256"
        },
        {
          "name": "_wallet",
          "type": "address"
        },
        {
          "name": "_token",
          "type": "address"
        },
        {
          "name": "_twoKeyAdmin",
          "type": "address"
        }
      ],
      "payable": false,
      "stateMutability": "nonpayable",
      "type": "constructor"
    },
    {
      "payable": true,
      "stateMutability": "payable",
      "type": "fallback"
    },
    {
      "anonymous": false,
      "inputs": [
        {
          "indexed": true,
          "name": "purchaser",
          "type": "address"
        },
        {
          "indexed": true,
          "name": "beneficiary",
          "type": "address"
        },
        {
          "indexed": false,
          "name": "value",
          "type": "uint256"
        },
        {
          "indexed": false,
          "name": "amount",
          "type": "uint256"
        }
      ],
      "name": "TokenSell",
      "type": "event"
    },
    {
      "anonymous": false,
      "inputs": [
        {
          "indexed": true,
          "name": "operator",
          "type": "address"
        },
        {
          "indexed": false,
          "name": "role",
          "type": "string"
        }
      ],
      "name": "RoleAdded",
      "type": "event"
    },
    {
      "anonymous": false,
      "inputs": [
        {
          "indexed": true,
          "name": "operator",
          "type": "address"
        },
        {
          "indexed": false,
          "name": "role",
          "type": "string"
        }
      ],
      "name": "RoleRemoved",
      "type": "event"
    },
    {
      "anonymous": false,
      "inputs": [
        {
          "indexed": true,
          "name": "previousOwner",
          "type": "address"
        }
      ],
      "name": "OwnershipRenounced",
      "type": "event"
    },
    {
      "anonymous": false,
      "inputs": [
        {
          "indexed": true,
          "name": "previousOwner",
          "type": "address"
        },
        {
          "indexed": true,
          "name": "newOwner",
          "type": "address"
        }
      ],
      "name": "OwnershipTransferred",
      "type": "event"
    },
    {
      "anonymous": false,
      "inputs": [
        {
          "indexed": true,
          "name": "purchaser",
          "type": "address"
        },
        {
          "indexed": true,
          "name": "beneficiary",
          "type": "address"
        },
        {
          "indexed": false,
          "name": "value",
          "type": "uint256"
        },
        {
          "indexed": false,
          "name": "amount",
          "type": "uint256"
        }
      ],
      "name": "TokenPurchase",
      "type": "event"
    },
    {
      "constant": false,
      "inputs": [
        {
          "name": "_tokenAmount",
          "type": "uint256"
        }
      ],
      "name": "sellTokens",
      "outputs": [],
      "payable": true,
      "stateMutability": "payable",
      "type": "function"
    },
    {
      "constant": false,
      "inputs": [
        {
          "name": "_to",
          "type": "address"
        }
      ],
      "name": "upgrade",
      "outputs": [],
      "payable": false,
      "stateMutability": "nonpayable",
      "type": "function"
    },
    {
      "constant": false,
      "inputs": [
        {
          "name": "_beneficiary",
          "type": "address"
        }
      ],
      "name": "buyTokens",
      "outputs": [],
      "payable": true,
      "stateMutability": "payable",
      "type": "function"
    }
  ],
  "bytecode": "0x60806040523480156200001157600080fd5b5060405160808062002090833981018060405281019080805190602001909291908051906020019092919080519060200190929190805190602001909291905050506000818585856000831115156200006957600080fd5b600073ffffffffffffffffffffffffffffffffffffffff168273ffffffffffffffffffffffffffffffffffffffff1614151515620000a657600080fd5b600073ffffffffffffffffffffffffffffffffffffffff168173ffffffffffffffffffffffffffffffffffffffff1614151515620000e357600080fd5b8260028190555081600160006101000a81548173ffffffffffffffffffffffffffffffffffffffff021916908373ffffffffffffffffffffffffffffffffffffffff160217905550806000806101000a81548173ffffffffffffffffffffffffffffffffffffffff021916908373ffffffffffffffffffffffffffffffffffffffff16021790555050505033600460006101000a81548173ffffffffffffffffffffffffffffffffffffffff021916908373ffffffffffffffffffffffffffffffffffffffff160217905550600073ffffffffffffffffffffffffffffffffffffffff168173ffffffffffffffffffffffffffffffffffffffff1614156200022c5733600660006101000a81548173ffffffffffffffffffffffffffffffffffffffff021916908373ffffffffffffffffffffffffffffffffffffffff1602179055506200026e565b80600660006101000a81548173ffffffffffffffffffffffffffffffffffffffff021916908373ffffffffffffffffffffffffffffffffffffffff1602179055505b620002e0600660009054906101000a900473ffffffffffffffffffffffffffffffffffffffff166040805190810160405280600581526020017f61646d696e000000000000000000000000000000000000000000000000000000815250620003e1640100000000026401000000009004565b50600073ffffffffffffffffffffffffffffffffffffffff168273ffffffffffffffffffffffffffffffffffffffff16141515156200031e57600080fd5b8190508073ffffffffffffffffffffffffffffffffffffffff1663ebdb2122306040518263ffffffff167c0100000000000000000000000000000000000000000000000000000000028152600401808273ffffffffffffffffffffffffffffffffffffffff1673ffffffffffffffffffffffffffffffffffffffff168152602001915050600060405180830381600087803b158015620003bd57600080fd5b505af1158015620003d2573d6000803e3d6000fd5b50505050505050505062000588565b62000470826005836040518082805190602001908083835b602083101515620004205780518252602082019150602081019050602083039250620003f9565b6001836020036101000a03801982511681845116808217855250505050505090500191505090815260200160405180910390206200052a64010000000002620017ed179091906401000000009004565b8173ffffffffffffffffffffffffffffffffffffffff167fbfec83d64eaa953f2708271a023ab9ee82057f8f3578d548c1a4ba0b5b700489826040518080602001828103825283818151815260200191508051906020019080838360005b83811015620004eb578082015181840152602081019050620004ce565b50505050905090810190601f168015620005195780820380516001836020036101000a031916815260200191505b509250505060405180910390a25050565b60018260000160008373ffffffffffffffffffffffffffffffffffffffff1673ffffffffffffffffffffffffffffffffffffffff16815260200190815260200160002060006101000a81548160ff0219169083151502179055505050565b611af880620005986000396000f300608060405260043610610107576000357c0100000000000000000000000000000000000000000000000000000000900463ffffffff1680630900f010146101cb5780630988ca8c1461020e578063217fe6c6146102975780632c4e722e146103385780634042b66f14610363578063521eb2731461038e5780635b4df1ca146103e55780636c11bcd314610475578063715018a61461049557806388cee87e146104ac5780638da5cb5b14610535578063b25fa92c1461058c578063b3ecf23614610615578063d06baae4146106a5578063d391014b146106d4578063ec8ac4d814610764578063efe9dcb71461079a578063f2fde38b1461082a578063fc0c546a1461086d575b600073ffffffffffffffffffffffffffffffffffffffff16600760009054906101000a900473ffffffffffffffffffffffffffffffffffffffff1673ffffffffffffffffffffffffffffffffffffffff161415156101c957600760009054906101000a900473ffffffffffffffffffffffffffffffffffffffff1673ffffffffffffffffffffffffffffffffffffffff166108fc349081150290604051600060405180830381858888f193505050501580156101c7573d6000803e3d6000fd5b505b005b3480156101d757600080fd5b5061020c600480360381019080803573ffffffffffffffffffffffffffffffffffffffff1690602001909291905050506108c4565b005b34801561021a57600080fd5b50610295600480360381019080803573ffffffffffffffffffffffffffffffffffffffff169060200190929190803590602001908201803590602001908080601f01602080910402602001604051908101604052809392919081815260200183838082843782019150505050505091929192905050506109a4565b005b3480156102a357600080fd5b5061031e600480360381019080803573ffffffffffffffffffffffffffffffffffffffff169060200190929190803590602001908201803590602001908080601f0160208091040260200160405190810160405280939291908181526020018383808284378201915050505050509192919290505050610a25565b604051808215151515815260200191505060405180910390f35b34801561034457600080fd5b5061034d610aac565b6040518082815260200191505060405180910390f35b34801561036f57600080fd5b50610378610ab2565b6040518082815260200191505060405180910390f35b34801561039a57600080fd5b506103a3610ab8565b604051808273ffffffffffffffffffffffffffffffffffffffff1673ffffffffffffffffffffffffffffffffffffffff16815260200191505060405180910390f35b3480156103f157600080fd5b506103fa610ade565b6040518080602001828103825283818151815260200191508051906020019080838360005b8381101561043a57808201518184015260208101905061041f565b50505050905090810190601f1680156104675780820380516001836020036101000a031916815260200191505b509250505060405180910390f35b61049360048036038101908080359060200190929190505050610b17565b005b3480156104a157600080fd5b506104aa610f12565b005b3480156104b857600080fd5b50610533600480360381019080803573ffffffffffffffffffffffffffffffffffffffff169060200190929190803590602001908201803590602001908080601f0160208091040260200160405190810160405280939291908181526020018383808284378201915050505050509192919290505050611017565b005b34801561054157600080fd5b5061054a611064565b604051808273ffffffffffffffffffffffffffffffffffffffff1673ffffffffffffffffffffffffffffffffffffffff16815260200191505060405180910390f35b34801561059857600080fd5b50610613600480360381019080803573ffffffffffffffffffffffffffffffffffffffff169060200190929190803590602001908201803590602001908080601f016020809104026020016040519081016040528093929190818152602001838380828437820191505050505050919291929050505061108a565b005b34801561062157600080fd5b5061062a6110d7565b6040518080602001828103825283818151815260200191508051906020019080838360005b8381101561066a57808201518184015260208101905061064f565b50505050905090810190601f1680156106975780820380516001836020036101000a031916815260200191505b509250505060405180910390f35b3480156106b157600080fd5b506106ba611114565b604051808215151515815260200191505060405180910390f35b3480156106e057600080fd5b506106e961115c565b6040518080602001828103825283818151815260200191508051906020019080838360005b8381101561072957808201518184015260208101905061070e565b50505050905090810190601f1680156107565780820380516001836020036101000a031916815260200191505b509250505060405180910390f35b610798600480360381019080803573ffffffffffffffffffffffffffffffffffffffff169060200190929190505050611195565b005b3480156107a657600080fd5b506107af6111fe565b6040518080602001828103825283818151815260200191508051906020019080838360005b838110156107ef5780820151818401526020810190506107d4565b50505050905090810190601f16801561081c5780820380516001836020036101000a031916815260200191505b509250505060405180910390f35b34801561083657600080fd5b5061086b600480360381019080803573ffffffffffffffffffffffffffffffffffffffff16906020019092919050505061123b565b005b34801561087957600080fd5b506108826112a3565b604051808273ffffffffffffffffffffffffffffffffffffffff1673ffffffffffffffffffffffffffffffffffffffff16815260200191505060405180910390f35b600073ffffffffffffffffffffffffffffffffffffffff16600760009054906101000a900473ffffffffffffffffffffffffffffffffffffffff1673ffffffffffffffffffffffffffffffffffffffff1614151561092157600080fd5b610960336040805190810160405280600581526020017f61646d696e0000000000000000000000000000000000000000000000000000008152506109a4565b80600760006101000a81548173ffffffffffffffffffffffffffffffffffffffff021916908373ffffffffffffffffffffffffffffffffffffffff16021790555050565b610a21826005836040518082805190602001908083835b6020831015156109e057805182526020820191506020810190506020830392506109bb565b6001836020036101000a03801982511681845116808217855250505050505090500191505090815260200160405180910390206112c890919063ffffffff16565b5050565b6000610aa4836005846040518082805190602001908083835b602083101515610a635780518252602082019150602081019050602083039250610a3e565b6001836020036101000a03801982511681845116808217855250505050505090500191505090815260200160405180910390206112e190919063ffffffff16565b905092915050565b60025481565b60035481565b600160009054906101000a900473ffffffffffffffffffffffffffffffffffffffff1681565b6040805190810160405280600a81526020017f636f6e74726f6c6c65720000000000000000000000000000000000000000000081525081565b60008073ffffffffffffffffffffffffffffffffffffffff16600760009054906101000a900473ffffffffffffffffffffffffffffffffffffffff1673ffffffffffffffffffffffffffffffffffffffff16141515610b7557600080fd5b816000809054906101000a900473ffffffffffffffffffffffffffffffffffffffff1673ffffffffffffffffffffffffffffffffffffffff1663dd62ed3e33306040518363ffffffff167c0100000000000000000000000000000000000000000000000000000000028152600401808373ffffffffffffffffffffffffffffffffffffffff1673ffffffffffffffffffffffffffffffffffffffff1681526020018273ffffffffffffffffffffffffffffffffffffffff1673ffffffffffffffffffffffffffffffffffffffff16815260200192505050602060405180830381600087803b158015610c6657600080fd5b505af1158015610c7a573d6000803e3d6000fd5b505050506040513d6020811015610c9057600080fd5b810190808051906020019092919050505010151515610cae57600080fd5b6000809054906101000a900473ffffffffffffffffffffffffffffffffffffffff1673ffffffffffffffffffffffffffffffffffffffff166323b872dd3330856040518463ffffffff167c0100000000000000000000000000000000000000000000000000000000028152600401808473ffffffffffffffffffffffffffffffffffffffff1673ffffffffffffffffffffffffffffffffffffffff1681526020018373ffffffffffffffffffffffffffffffffffffffff1673ffffffffffffffffffffffffffffffffffffffff1681526020018281526020019350505050602060405180830381600087803b158015610da657600080fd5b505af1158015610dba573d6000803e3d6000fd5b505050506040513d6020811015610dd057600080fd5b81019080805190602001909291905050501515610dec57600080fd5b610df58261133a565b90503073ffffffffffffffffffffffffffffffffffffffff16318111151515610e1d57600080fd5b610e328160035461134490919063ffffffff16565b6003819055503373ffffffffffffffffffffffffffffffffffffffff166108fc829081150290604051600060405180830381858888f19350505050158015610e7e573d6000803e3d6000fd5b50600160009054906101000a900473ffffffffffffffffffffffffffffffffffffffff1673ffffffffffffffffffffffffffffffffffffffff163373ffffffffffffffffffffffffffffffffffffffff167f600c9b3d78dfe3edf6fe01b2806344f8b10d1f94eeeadbd9a4472fea14ca60738385604051808381526020018281526020019250505060405180910390a35050565b600460009054906101000a900473ffffffffffffffffffffffffffffffffffffffff1673ffffffffffffffffffffffffffffffffffffffff163373ffffffffffffffffffffffffffffffffffffffff16141515610f6e57600080fd5b600460009054906101000a900473ffffffffffffffffffffffffffffffffffffffff1673ffffffffffffffffffffffffffffffffffffffff167ff8df31144d9c2f0f6b59d69b8b98abd5459d07f2742c4df920b25aae33c6482060405160405180910390a26000600460006101000a81548173ffffffffffffffffffffffffffffffffffffffff021916908373ffffffffffffffffffffffffffffffffffffffff160217905550565b611056336040805190810160405280600581526020017f61646d696e0000000000000000000000000000000000000000000000000000008152506109a4565b611060828261135d565b5050565b600460009054906101000a900473ffffffffffffffffffffffffffffffffffffffff1681565b6110c9336040805190810160405280600581526020017f61646d696e0000000000000000000000000000000000000000000000000000008152506109a4565b6110d38282611491565b5050565b60606040805190810160405280600581526020017f61646d696e000000000000000000000000000000000000000000000000000000815250905090565b6000611155336040805190810160405280600a81526020017f636f6e74726f6c6c6572000000000000000000000000000000000000000000008152506109a4565b6001905090565b6040805190810160405280600581526020017f61646d696e00000000000000000000000000000000000000000000000000000081525081565b600073ffffffffffffffffffffffffffffffffffffffff16600760009054906101000a900473ffffffffffffffffffffffffffffffffffffffff1673ffffffffffffffffffffffffffffffffffffffff161415156111f257600080fd5b6111fb816115c5565b50565b60606040805190810160405280600a81526020017f636f6e74726f6c6c657200000000000000000000000000000000000000000000815250905090565b600460009054906101000a900473ffffffffffffffffffffffffffffffffffffffff1673ffffffffffffffffffffffffffffffffffffffff163373ffffffffffffffffffffffffffffffffffffffff1614151561129757600080fd5b6112a081611693565b50565b6000809054906101000a900473ffffffffffffffffffffffffffffffffffffffff1681565b6112d282826112e1565b15156112dd57600080fd5b5050565b60008260000160008373ffffffffffffffffffffffffffffffffffffffff1673ffffffffffffffffffffffffffffffffffffffff16815260200190815260200160002060009054906101000a900460ff16905092915050565b6000819050919050565b600082821115151561135257fe5b818303905092915050565b6113da826005836040518082805190602001908083835b6020831015156113995780518252602082019150602081019050602083039250611374565b6001836020036101000a038019825116818451168082178552505050505050905001915050908152602001604051809103902061178f90919063ffffffff16565b8173ffffffffffffffffffffffffffffffffffffffff167fd211483f91fc6eff862467f8de606587a30c8fc9981056f051b897a418df803a826040518080602001828103825283818151815260200191508051906020019080838360005b83811015611453578082015181840152602081019050611438565b50505050905090810190601f1680156114805780820380516001836020036101000a031916815260200191505b509250505060405180910390a25050565b61150e826005836040518082805190602001908083835b6020831015156114cd57805182526020820191506020810190506020830392506114a8565b6001836020036101000a03801982511681845116808217855250505050505090500191505090815260200160405180910390206117ed90919063ffffffff16565b8173ffffffffffffffffffffffffffffffffffffffff167fbfec83d64eaa953f2708271a023ab9ee82057f8f3578d548c1a4ba0b5b700489826040518080602001828103825283818151815260200191508051906020019080838360005b8381101561158757808201518184015260208101905061156c565b50505050905090810190601f1680156115b45780820380516001836020036101000a031916815260200191505b509250505060405180910390a25050565b6000803491506115d5838361184b565b6115de8261189b565b90506115f5826003546118b990919063ffffffff16565b60038190555061160583826118d5565b8273ffffffffffffffffffffffffffffffffffffffff163373ffffffffffffffffffffffffffffffffffffffff167f623b3804fa71d67900d064613da8f94b9617215ee90799290593e1745087ad188484604051808381526020018281526020019250505060405180910390a361167c83836118e3565b6116846118e7565b61168e8383611952565b505050565b600073ffffffffffffffffffffffffffffffffffffffff168173ffffffffffffffffffffffffffffffffffffffff16141515156116cf57600080fd5b8073ffffffffffffffffffffffffffffffffffffffff16600460009054906101000a900473ffffffffffffffffffffffffffffffffffffffff1673ffffffffffffffffffffffffffffffffffffffff167f8be0079c531659141344cd1fd0a4f28419497f9722a3daafe3b4186f6b6457e060405160405180910390a380600460006101000a81548173ffffffffffffffffffffffffffffffffffffffff021916908373ffffffffffffffffffffffffffffffffffffffff16021790555050565b60008260000160008373ffffffffffffffffffffffffffffffffffffffff1673ffffffffffffffffffffffffffffffffffffffff16815260200190815260200160002060006101000a81548160ff0219169083151502179055505050565b60018260000160008373ffffffffffffffffffffffffffffffffffffffff1673ffffffffffffffffffffffffffffffffffffffff16815260200190815260200160002060006101000a81548160ff0219169083151502179055505050565b600073ffffffffffffffffffffffffffffffffffffffff168273ffffffffffffffffffffffffffffffffffffffff161415151561188757600080fd5b6000811415151561189757600080fd5b5050565b60006118b26002548361195690919063ffffffff16565b9050919050565b600081830190508281101515156118cc57fe5b80905092915050565b6118df828261198e565b5050565b5050565b600160009054906101000a900473ffffffffffffffffffffffffffffffffffffffff1673ffffffffffffffffffffffffffffffffffffffff166108fc349081150290604051600060405180830381858888f1935050505015801561194f573d6000803e3d6000fd5b50565b5050565b6000808314156119695760009050611988565b818302905081838281151561197a57fe5b0414151561198457fe5b8090505b92915050565b6119da82826000809054906101000a900473ffffffffffffffffffffffffffffffffffffffff1673ffffffffffffffffffffffffffffffffffffffff166119de9092919063ffffffff16565b5050565b8273ffffffffffffffffffffffffffffffffffffffff1663a9059cbb83836040518363ffffffff167c0100000000000000000000000000000000000000000000000000000000028152600401808373ffffffffffffffffffffffffffffffffffffffff1673ffffffffffffffffffffffffffffffffffffffff16815260200182815260200192505050602060405180830381600087803b158015611a8157600080fd5b505af1158015611a95573d6000803e3d6000fd5b505050506040513d6020811015611aab57600080fd5b81019080805190602001909291905050501515611ac757600080fd5b5050505600a165627a7a72305820f7c82abe127207d39fad0312143ccf3cb08d95b0ad232774a41a916f194c57500029",
  "source": "pragma solidity ^0.4.24;\n\nimport '../openzeppelin-solidity/contracts/crowdsale/Crowdsale.sol';\nimport '../openzeppelin-solidity/contracts/ownership/Ownable.sol';\nimport '../openzeppelin-solidity/contracts/token/ERC20/ERC20.sol';\nimport \"./TwoKeyAdmin.sol\";\nimport \"./RBACWithAdmin.sol\";\n\ncontract TwoKeyUpgradableExchange is Crowdsale, Ownable, RBACWithAdmin {\n\n\taddress filler;\n\t\n\t/// @notice Event is emitted when a user sell his tokens\n\tevent TokenSell(address indexed purchaser, address indexed beneficiary, uint256 value, uint256 amount);\n\n    /// @notice Modifier will revert if filler is set to any address \n\tmodifier onlyAlive() {\n\t\trequire(filler == address(0));\n\t\t_;\n\t}\n\n\tconstructor(uint256 _rate, address _wallet, ERC20 _token, address _twoKeyAdmin) RBACWithAdmin(_twoKeyAdmin)\n\t\tCrowdsale(_rate, _wallet, _token) Ownable() public {\n\t\trequire(_twoKeyAdmin != address(0));\n\t\tTwoKeyAdmin admin;\n    \tadmin = TwoKeyAdmin(_twoKeyAdmin);\n    \tadmin.setTwoKeyExchange(address(this));\t\n    \t\n\t}\n\n    /// @notice It is a payable function that allows user to sell tokens in exchange of their ethers (in Weis). \n\t/// @dev This method is called only when alive (i.e. not upgraded to newExchange)\n    /// @param _tokenAmount is amount of tokens to sell\n\tfunction sellTokens(uint256 _tokenAmount) public onlyAlive payable {\n\t\t//require(token.allowance(this, msg.sender) >= _tokenAmount);\n\t\trequire(token.allowance(msg.sender, this) >= _tokenAmount);\n\t\trequire(token.transferFrom(msg.sender, this, _tokenAmount));\n\n\t\tuint256 weiAmount = _getWeiAmount(_tokenAmount);\n\t\t\n\t\t//require(weiAmount >= address(this).balance);\n\t\trequire(weiAmount <= address(this).balance);\n\t    weiRaised = weiRaised.sub(weiAmount);\n        msg.sender.transfer(weiAmount);\n\n\t    emit TokenSell(msg.sender, wallet, weiAmount, _tokenAmount);\n\t}\n\n    /// View function - doesn't cost any gas to be executed\n\t/// @notice Function to fetch value of tokens in Wei. \n    /// @dev It is an internal method\n    /// @param _tokenAmount is amount of tokens\n    /// @return Value of tokens in Wei\n\tfunction _getWeiAmount(uint256 _tokenAmount) internal view returns (uint256) {\n\t   // return _tokenAmount.div(rate);\n\t   return _tokenAmount;\n\t}\n\n\t/// @notice Function where only admin can upgrade exchange contract with new exchange contract. \n    /// @dev This method is called only when alive (i.e. not upgraded to newExchange) and by admin\n    /// @param _to is address of New Exchange Contract\n\tfunction upgrade(address _to) public onlyAlive onlyAdmin{\n\t\tfiller = _to;\t\t// check if the address is exchange contract address -- add typecast\n\t}\n\n    /// @notice It is a payable fallback method that will transfer payable amount to new Exchange if it is upgraded, else will be stored in the existing exchange as its balance\n    function() external payable {\n\t\tif (filler != address(0))\n\t\t\tfiller.transfer(msg.value);\n\t}\n\n    /// @notice It is a payable function that allows user to buy tokens in exchange of their ethers (in Weis). \n    /// @dev This method is called only when alive (i.e. not upgraded to newExchange)\n    /// @param _beneficiary is address of user where tokens will be transferred\n\tfunction buyTokens(address _beneficiary) public onlyAlive payable {\n\t\tsuper.buyTokens(_beneficiary);\n\t}\n\n}",
  "sourcePath": "/Users/aydnep/2key/contracts/contracts/2key/TwoKeyUpgradableExchange.sol",
  "compiler": {
    "name": "solc",
    "version": "0.4.24+commit.e67f0147.Emscripten.clang"
  },
  "schemaVersion": "2.0.1",
  "updatedAt": "2018-09-13T17:23:13.684Z"
}