{
  "contractName": "TwoKeyPresellExchange",
  "abi": [
    {
      "constant": false,
      "inputs": [
        {
          "name": "_to",
          "type": "address"
        }
      ],
      "name": "upgrade",
      "outputs": [],
      "payable": false,
      "stateMutability": "nonpayable",
      "type": "function"
    },
    {
      "constant": true,
      "inputs": [
        {
          "name": "_operator",
          "type": "address"
        },
        {
          "name": "_role",
          "type": "string"
        }
      ],
      "name": "checkRole",
      "outputs": [],
      "payable": false,
      "stateMutability": "view",
      "type": "function"
    },
    {
      "constant": true,
      "inputs": [
        {
          "name": "_operator",
          "type": "address"
        },
        {
          "name": "_role",
          "type": "string"
        }
      ],
      "name": "hasRole",
      "outputs": [
        {
          "name": "",
          "type": "bool"
        }
      ],
      "payable": false,
      "stateMutability": "view",
      "type": "function"
    },
    {
      "constant": true,
      "inputs": [],
      "name": "rate",
      "outputs": [
        {
          "name": "",
          "type": "uint256"
        }
      ],
      "payable": false,
      "stateMutability": "view",
      "type": "function"
    },
    {
      "constant": true,
      "inputs": [],
      "name": "cap",
      "outputs": [
        {
          "name": "",
          "type": "uint256"
        }
      ],
      "payable": false,
      "stateMutability": "view",
      "type": "function"
    },
    {
      "constant": true,
      "inputs": [],
      "name": "weiRaised",
      "outputs": [
        {
          "name": "",
          "type": "uint256"
        }
      ],
      "payable": false,
      "stateMutability": "view",
      "type": "function"
    },
    {
      "constant": true,
      "inputs": [],
      "name": "closingTime",
      "outputs": [
        {
          "name": "",
          "type": "uint256"
        }
      ],
      "payable": false,
      "stateMutability": "view",
      "type": "function"
    },
    {
      "constant": true,
      "inputs": [],
      "name": "wallet",
      "outputs": [
        {
          "name": "",
          "type": "address"
        }
      ],
      "payable": false,
      "stateMutability": "view",
      "type": "function"
    },
    {
      "constant": true,
      "inputs": [],
      "name": "ROLE_CONTROLLER",
      "outputs": [
        {
          "name": "",
          "type": "string"
        }
      ],
      "payable": false,
      "stateMutability": "view",
      "type": "function"
    },
    {
      "constant": false,
      "inputs": [
        {
          "name": "_tokenAmount",
          "type": "uint256"
        }
      ],
      "name": "sellTokens",
      "outputs": [],
      "payable": true,
      "stateMutability": "payable",
      "type": "function"
    },
    {
      "constant": false,
      "inputs": [],
      "name": "renounceOwnership",
      "outputs": [],
      "payable": false,
      "stateMutability": "nonpayable",
      "type": "function"
    },
    {
      "constant": false,
      "inputs": [
        {
          "name": "addr",
          "type": "address"
        },
        {
          "name": "roleName",
          "type": "string"
        }
      ],
      "name": "adminRemoveRole",
      "outputs": [],
      "payable": false,
      "stateMutability": "nonpayable",
      "type": "function"
    },
    {
      "constant": true,
      "inputs": [],
      "name": "owner",
      "outputs": [
        {
          "name": "",
          "type": "address"
        }
      ],
      "payable": false,
      "stateMutability": "view",
      "type": "function"
    },
    {
      "constant": false,
      "inputs": [
        {
          "name": "addr",
          "type": "address"
        },
        {
          "name": "roleName",
          "type": "string"
        }
      ],
      "name": "adminAddRole",
      "outputs": [],
      "payable": false,
      "stateMutability": "nonpayable",
      "type": "function"
    },
    {
      "constant": true,
      "inputs": [],
      "name": "getAdminRole",
      "outputs": [
        {
          "name": "",
          "type": "string"
        }
      ],
      "payable": false,
      "stateMutability": "view",
      "type": "function"
    },
    {
      "constant": true,
      "inputs": [],
      "name": "openingTime",
      "outputs": [
        {
          "name": "",
          "type": "uint256"
        }
      ],
      "payable": false,
      "stateMutability": "view",
      "type": "function"
    },
    {
      "constant": true,
      "inputs": [],
      "name": "onlyControllerRole",
      "outputs": [
        {
          "name": "",
          "type": "bool"
        }
      ],
      "payable": false,
      "stateMutability": "view",
      "type": "function"
    },
    {
      "constant": true,
      "inputs": [],
      "name": "ROLE_ADMIN",
      "outputs": [
        {
          "name": "",
          "type": "string"
        }
      ],
      "payable": false,
      "stateMutability": "view",
      "type": "function"
    },
    {
      "constant": false,
      "inputs": [
        {
          "name": "_beneficiary",
          "type": "address"
        }
      ],
      "name": "buyTokens",
      "outputs": [],
      "payable": true,
      "stateMutability": "payable",
      "type": "function"
    },
    {
      "constant": true,
      "inputs": [],
      "name": "getControllerRole",
      "outputs": [
        {
          "name": "",
          "type": "string"
        }
      ],
      "payable": false,
      "stateMutability": "view",
      "type": "function"
    },
    {
      "constant": false,
      "inputs": [
        {
          "name": "_newOwner",
          "type": "address"
        }
      ],
      "name": "transferOwnership",
      "outputs": [],
      "payable": false,
      "stateMutability": "nonpayable",
      "type": "function"
    },
    {
      "constant": true,
      "inputs": [],
      "name": "token",
      "outputs": [
        {
          "name": "",
          "type": "address"
        }
      ],
      "payable": false,
      "stateMutability": "view",
      "type": "function"
    },
    {
      "inputs": [
        {
          "name": "_whitelist",
          "type": "address"
        },
        {
          "name": "_openingTime",
          "type": "uint256"
        },
        {
          "name": "_closingTime",
          "type": "uint256"
        },
        {
          "name": "_cap",
          "type": "uint256"
        },
        {
          "name": "_rate",
          "type": "uint256"
        },
        {
          "name": "_wallet",
          "type": "address"
        },
        {
          "name": "_token",
          "type": "address"
        }
      ],
      "payable": false,
      "stateMutability": "nonpayable",
      "type": "constructor"
    },
    {
      "payable": true,
      "stateMutability": "payable",
      "type": "fallback"
    },
    {
      "anonymous": false,
      "inputs": [
        {
          "indexed": true,
          "name": "purchaser",
          "type": "address"
        },
        {
          "indexed": true,
          "name": "beneficiary",
          "type": "address"
        },
        {
          "indexed": false,
          "name": "value",
          "type": "uint256"
        },
        {
          "indexed": false,
          "name": "amount",
          "type": "uint256"
        }
      ],
      "name": "TokenSell",
      "type": "event"
    },
    {
      "anonymous": false,
      "inputs": [
        {
          "indexed": true,
          "name": "operator",
          "type": "address"
        },
        {
          "indexed": false,
          "name": "role",
          "type": "string"
        }
      ],
      "name": "RoleAdded",
      "type": "event"
    },
    {
      "anonymous": false,
      "inputs": [
        {
          "indexed": true,
          "name": "operator",
          "type": "address"
        },
        {
          "indexed": false,
          "name": "role",
          "type": "string"
        }
      ],
      "name": "RoleRemoved",
      "type": "event"
    },
    {
      "anonymous": false,
      "inputs": [
        {
          "indexed": true,
          "name": "previousOwner",
          "type": "address"
        }
      ],
      "name": "OwnershipRenounced",
      "type": "event"
    },
    {
      "anonymous": false,
      "inputs": [
        {
          "indexed": true,
          "name": "previousOwner",
          "type": "address"
        },
        {
          "indexed": true,
          "name": "newOwner",
          "type": "address"
        }
      ],
      "name": "OwnershipTransferred",
      "type": "event"
    },
    {
      "anonymous": false,
      "inputs": [
        {
          "indexed": true,
          "name": "purchaser",
          "type": "address"
        },
        {
          "indexed": true,
          "name": "beneficiary",
          "type": "address"
        },
        {
          "indexed": false,
          "name": "value",
          "type": "uint256"
        },
        {
          "indexed": false,
          "name": "amount",
          "type": "uint256"
        }
      ],
      "name": "TokenPurchase",
      "type": "event"
    },
    {
      "constant": true,
      "inputs": [],
      "name": "capReached",
      "outputs": [
        {
          "name": "",
          "type": "bool"
        }
      ],
      "payable": false,
      "stateMutability": "view",
      "type": "function"
    }
  ],
  "bytecode": "0x60806040523480156200001157600080fd5b5060405160e080620023a583398101806040528101908080519060200190929190805190602001909291908051906020019092919080519060200190929190805190602001909291908051906020019092919080519060200190929190505050828282336000818585856000831115156200008b57600080fd5b600073ffffffffffffffffffffffffffffffffffffffff168273ffffffffffffffffffffffffffffffffffffffff1614151515620000c857600080fd5b600073ffffffffffffffffffffffffffffffffffffffff168173ffffffffffffffffffffffffffffffffffffffff16141515156200010557600080fd5b8260028190555081600160006101000a81548173ffffffffffffffffffffffffffffffffffffffff021916908373ffffffffffffffffffffffffffffffffffffffff160217905550806000806101000a81548173ffffffffffffffffffffffffffffffffffffffff021916908373ffffffffffffffffffffffffffffffffffffffff16021790555050505033600460006101000a81548173ffffffffffffffffffffffffffffffffffffffff021916908373ffffffffffffffffffffffffffffffffffffffff160217905550600073ffffffffffffffffffffffffffffffffffffffff168173ffffffffffffffffffffffffffffffffffffffff1614156200024e5733600660006101000a81548173ffffffffffffffffffffffffffffffffffffffff021916908373ffffffffffffffffffffffffffffffffffffffff16021790555062000290565b80600660006101000a81548173ffffffffffffffffffffffffffffffffffffffff021916908373ffffffffffffffffffffffffffffffffffffffff1602179055505b62000302600660009054906101000a900473ffffffffffffffffffffffffffffffffffffffff166040805190810160405280600581526020017f61646d696e000000000000000000000000000000000000000000000000000000815250620004cd640100000000026401000000009004565b50600073ffffffffffffffffffffffffffffffffffffffff168273ffffffffffffffffffffffffffffffffffffffff16141515156200034057600080fd5b8190508073ffffffffffffffffffffffffffffffffffffffff1663ebdb2122306040518263ffffffff167c0100000000000000000000000000000000000000000000000000000000028152600401808273ffffffffffffffffffffffffffffffffffffffff1673ffffffffffffffffffffffffffffffffffffffff168152602001915050600060405180830381600087803b158015620003df57600080fd5b505af1158015620003f4573d6000803e3d6000fd5b505050505050505050600073ffffffffffffffffffffffffffffffffffffffff168773ffffffffffffffffffffffffffffffffffffffff16141515156200043a57600080fd5b4286101515156200044a57600080fd5b8585101515156200045a57600080fd5b6000841115156200046a57600080fd5b8560098190555084600a8190555083600b8190555086600860006101000a81548173ffffffffffffffffffffffffffffffffffffffff021916908373ffffffffffffffffffffffffffffffffffffffff1602179055505050505050505062000674565b6200055c826005836040518082805190602001908083835b6020831015156200050c5780518252602082019150602081019050602083039250620004e5565b6001836020036101000a03801982511681845116808217855250505050505090500191505090815260200160405180910390206200061664010000000002620018ea179091906401000000009004565b8173ffffffffffffffffffffffffffffffffffffffff167fbfec83d64eaa953f2708271a023ab9ee82057f8f3578d548c1a4ba0b5b700489826040518080602001828103825283818151815260200191508051906020019080838360005b83811015620005d7578082015181840152602081019050620005ba565b50505050905090810190601f168015620006055780820380516001836020036101000a031916815260200191505b509250505060405180910390a25050565b60018260000160008373ffffffffffffffffffffffffffffffffffffffff1673ffffffffffffffffffffffffffffffffffffffff16815260200190815260200160002060006101000a81548160ff0219169083151502179055505050565b611d2180620006846000396000f300608060405260043610610133576000357c0100000000000000000000000000000000000000000000000000000000900463ffffffff1680630900f010146101f75780630988ca8c1461023a578063217fe6c6146102c35780632c4e722e14610364578063355274ea1461038f5780634042b66f146103ba5780634b6753bc146103e55780634f93594514610410578063521eb2731461043f5780635b4df1ca146104965780636c11bcd314610526578063715018a61461054657806388cee87e1461055d5780638da5cb5b146105e6578063b25fa92c1461063d578063b3ecf236146106c6578063b7a8807c14610756578063d06baae414610781578063d391014b146107b0578063ec8ac4d814610840578063efe9dcb714610876578063f2fde38b14610906578063fc0c546a14610949575b600073ffffffffffffffffffffffffffffffffffffffff16600760009054906101000a900473ffffffffffffffffffffffffffffffffffffffff1673ffffffffffffffffffffffffffffffffffffffff161415156101f557600760009054906101000a900473ffffffffffffffffffffffffffffffffffffffff1673ffffffffffffffffffffffffffffffffffffffff166108fc349081150290604051600060405180830381858888f193505050501580156101f3573d6000803e3d6000fd5b505b005b34801561020357600080fd5b50610238600480360381019080803573ffffffffffffffffffffffffffffffffffffffff1690602001909291905050506109a0565b005b34801561024657600080fd5b506102c1600480360381019080803573ffffffffffffffffffffffffffffffffffffffff169060200190929190803590602001908201803590602001908080601f0160208091040260200160405190810160405280939291908181526020018383808284378201915050505050509192919290505050610a80565b005b3480156102cf57600080fd5b5061034a600480360381019080803573ffffffffffffffffffffffffffffffffffffffff169060200190929190803590602001908201803590602001908080601f0160208091040260200160405190810160405280939291908181526020018383808284378201915050505050509192919290505050610b01565b604051808215151515815260200191505060405180910390f35b34801561037057600080fd5b50610379610b88565b6040518082815260200191505060405180910390f35b34801561039b57600080fd5b506103a4610b8e565b6040518082815260200191505060405180910390f35b3480156103c657600080fd5b506103cf610b94565b6040518082815260200191505060405180910390f35b3480156103f157600080fd5b506103fa610b9a565b6040518082815260200191505060405180910390f35b34801561041c57600080fd5b50610425610ba0565b604051808215151515815260200191505060405180910390f35b34801561044b57600080fd5b50610454610baf565b604051808273ffffffffffffffffffffffffffffffffffffffff1673ffffffffffffffffffffffffffffffffffffffff16815260200191505060405180910390f35b3480156104a257600080fd5b506104ab610bd5565b6040518080602001828103825283818151815260200191508051906020019080838360005b838110156104eb5780820151818401526020810190506104d0565b50505050905090810190601f1680156105185780820380516001836020036101000a031916815260200191505b509250505060405180910390f35b61054460048036038101908080359060200190929190505050610c0e565b005b34801561055257600080fd5b5061055b611009565b005b34801561056957600080fd5b506105e4600480360381019080803573ffffffffffffffffffffffffffffffffffffffff169060200190929190803590602001908201803590602001908080601f016020809104026020016040519081016040528093929190818152602001838380828437820191505050505050919291929050505061110e565b005b3480156105f257600080fd5b506105fb61115b565b604051808273ffffffffffffffffffffffffffffffffffffffff1673ffffffffffffffffffffffffffffffffffffffff16815260200191505060405180910390f35b34801561064957600080fd5b506106c4600480360381019080803573ffffffffffffffffffffffffffffffffffffffff169060200190929190803590602001908201803590602001908080601f0160208091040260200160405190810160405280939291908181526020018383808284378201915050505050509192919290505050611181565b005b3480156106d257600080fd5b506106db6111ce565b6040518080602001828103825283818151815260200191508051906020019080838360005b8381101561071b578082015181840152602081019050610700565b50505050905090810190601f1680156107485780820380516001836020036101000a031916815260200191505b509250505060405180910390f35b34801561076257600080fd5b5061076b61120b565b6040518082815260200191505060405180910390f35b34801561078d57600080fd5b50610796611211565b604051808215151515815260200191505060405180910390f35b3480156107bc57600080fd5b506107c5611259565b6040518080602001828103825283818151815260200191508051906020019080838360005b838110156108055780820151818401526020810190506107ea565b50505050905090810190601f1680156108325780820380516001836020036101000a031916815260200191505b509250505060405180910390f35b610874600480360381019080803573ffffffffffffffffffffffffffffffffffffffff169060200190929190505050611292565b005b34801561088257600080fd5b5061088b6112fb565b6040518080602001828103825283818151815260200191508051906020019080838360005b838110156108cb5780820151818401526020810190506108b0565b50505050905090810190601f1680156108f85780820380516001836020036101000a031916815260200191505b509250505060405180910390f35b34801561091257600080fd5b50610947600480360381019080803573ffffffffffffffffffffffffffffffffffffffff169060200190929190505050611338565b005b34801561095557600080fd5b5061095e6113a0565b604051808273ffffffffffffffffffffffffffffffffffffffff1673ffffffffffffffffffffffffffffffffffffffff16815260200191505060405180910390f35b600073ffffffffffffffffffffffffffffffffffffffff16600760009054906101000a900473ffffffffffffffffffffffffffffffffffffffff1673ffffffffffffffffffffffffffffffffffffffff161415156109fd57600080fd5b610a3c336040805190810160405280600581526020017f61646d696e000000000000000000000000000000000000000000000000000000815250610a80565b80600760006101000a81548173ffffffffffffffffffffffffffffffffffffffff021916908373ffffffffffffffffffffffffffffffffffffffff16021790555050565b610afd826005836040518082805190602001908083835b602083101515610abc5780518252602082019150602081019050602083039250610a97565b6001836020036101000a03801982511681845116808217855250505050505090500191505090815260200160405180910390206113c590919063ffffffff16565b5050565b6000610b80836005846040518082805190602001908083835b602083101515610b3f5780518252602082019150602081019050602083039250610b1a565b6001836020036101000a03801982511681845116808217855250505050505090500191505090815260200160405180910390206113de90919063ffffffff16565b905092915050565b60025481565b600b5481565b60035481565b600a5481565b6000600b546003541015905090565b600160009054906101000a900473ffffffffffffffffffffffffffffffffffffffff1681565b6040805190810160405280600a81526020017f636f6e74726f6c6c65720000000000000000000000000000000000000000000081525081565b60008073ffffffffffffffffffffffffffffffffffffffff16600760009054906101000a900473ffffffffffffffffffffffffffffffffffffffff1673ffffffffffffffffffffffffffffffffffffffff16141515610c6c57600080fd5b816000809054906101000a900473ffffffffffffffffffffffffffffffffffffffff1673ffffffffffffffffffffffffffffffffffffffff1663dd62ed3e33306040518363ffffffff167c0100000000000000000000000000000000000000000000000000000000028152600401808373ffffffffffffffffffffffffffffffffffffffff1673ffffffffffffffffffffffffffffffffffffffff1681526020018273ffffffffffffffffffffffffffffffffffffffff1673ffffffffffffffffffffffffffffffffffffffff16815260200192505050602060405180830381600087803b158015610d5d57600080fd5b505af1158015610d71573d6000803e3d6000fd5b505050506040513d6020811015610d8757600080fd5b810190808051906020019092919050505010151515610da557600080fd5b6000809054906101000a900473ffffffffffffffffffffffffffffffffffffffff1673ffffffffffffffffffffffffffffffffffffffff166323b872dd3330856040518463ffffffff167c0100000000000000000000000000000000000000000000000000000000028152600401808473ffffffffffffffffffffffffffffffffffffffff1673ffffffffffffffffffffffffffffffffffffffff1681526020018373ffffffffffffffffffffffffffffffffffffffff1673ffffffffffffffffffffffffffffffffffffffff1681526020018281526020019350505050602060405180830381600087803b158015610e9d57600080fd5b505af1158015610eb1573d6000803e3d6000fd5b505050506040513d6020811015610ec757600080fd5b81019080805190602001909291905050501515610ee357600080fd5b610eec82611437565b90503073ffffffffffffffffffffffffffffffffffffffff16318111151515610f1457600080fd5b610f298160035461144190919063ffffffff16565b6003819055503373ffffffffffffffffffffffffffffffffffffffff166108fc829081150290604051600060405180830381858888f19350505050158015610f75573d6000803e3d6000fd5b50600160009054906101000a900473ffffffffffffffffffffffffffffffffffffffff1673ffffffffffffffffffffffffffffffffffffffff163373ffffffffffffffffffffffffffffffffffffffff167f600c9b3d78dfe3edf6fe01b2806344f8b10d1f94eeeadbd9a4472fea14ca60738385604051808381526020018281526020019250505060405180910390a35050565b600460009054906101000a900473ffffffffffffffffffffffffffffffffffffffff1673ffffffffffffffffffffffffffffffffffffffff163373ffffffffffffffffffffffffffffffffffffffff1614151561106557600080fd5b600460009054906101000a900473ffffffffffffffffffffffffffffffffffffffff1673ffffffffffffffffffffffffffffffffffffffff167ff8df31144d9c2f0f6b59d69b8b98abd5459d07f2742c4df920b25aae33c6482060405160405180910390a26000600460006101000a81548173ffffffffffffffffffffffffffffffffffffffff021916908373ffffffffffffffffffffffffffffffffffffffff160217905550565b61114d336040805190810160405280600581526020017f61646d696e000000000000000000000000000000000000000000000000000000815250610a80565b611157828261145a565b5050565b600460009054906101000a900473ffffffffffffffffffffffffffffffffffffffff1681565b6111c0336040805190810160405280600581526020017f61646d696e000000000000000000000000000000000000000000000000000000815250610a80565b6111ca828261158e565b5050565b60606040805190810160405280600581526020017f61646d696e000000000000000000000000000000000000000000000000000000815250905090565b60095481565b6000611252336040805190810160405280600a81526020017f636f6e74726f6c6c657200000000000000000000000000000000000000000000815250610a80565b6001905090565b6040805190810160405280600581526020017f61646d696e00000000000000000000000000000000000000000000000000000081525081565b600073ffffffffffffffffffffffffffffffffffffffff16600760009054906101000a900473ffffffffffffffffffffffffffffffffffffffff1673ffffffffffffffffffffffffffffffffffffffff161415156112ef57600080fd5b6112f8816116c2565b50565b60606040805190810160405280600a81526020017f636f6e74726f6c6c657200000000000000000000000000000000000000000000815250905090565b600460009054906101000a900473ffffffffffffffffffffffffffffffffffffffff1673ffffffffffffffffffffffffffffffffffffffff163373ffffffffffffffffffffffffffffffffffffffff1614151561139457600080fd5b61139d81611790565b50565b6000809054906101000a900473ffffffffffffffffffffffffffffffffffffffff1681565b6113cf82826113de565b15156113da57600080fd5b5050565b60008260000160008373ffffffffffffffffffffffffffffffffffffffff1673ffffffffffffffffffffffffffffffffffffffff16815260200190815260200160002060009054906101000a900460ff16905092915050565b6000819050919050565b600082821115151561144f57fe5b818303905092915050565b6114d7826005836040518082805190602001908083835b6020831015156114965780518252602082019150602081019050602083039250611471565b6001836020036101000a038019825116818451168082178552505050505050905001915050908152602001604051809103902061188c90919063ffffffff16565b8173ffffffffffffffffffffffffffffffffffffffff167fd211483f91fc6eff862467f8de606587a30c8fc9981056f051b897a418df803a826040518080602001828103825283818151815260200191508051906020019080838360005b83811015611550578082015181840152602081019050611535565b50505050905090810190601f16801561157d5780820380516001836020036101000a031916815260200191505b509250505060405180910390a25050565b61160b826005836040518082805190602001908083835b6020831015156115ca57805182526020820191506020810190506020830392506115a5565b6001836020036101000a03801982511681845116808217855250505050505090500191505090815260200160405180910390206118ea90919063ffffffff16565b8173ffffffffffffffffffffffffffffffffffffffff167fbfec83d64eaa953f2708271a023ab9ee82057f8f3578d548c1a4ba0b5b700489826040518080602001828103825283818151815260200191508051906020019080838360005b83811015611684578082015181840152602081019050611669565b50505050905090810190601f1680156116b15780820380516001836020036101000a031916815260200191505b509250505060405180910390a25050565b6000803491506116d28383611948565b6116db82611a74565b90506116f282600354611a9290919063ffffffff16565b6003819055506117028382611aae565b8273ffffffffffffffffffffffffffffffffffffffff163373ffffffffffffffffffffffffffffffffffffffff167f623b3804fa71d67900d064613da8f94b9617215ee90799290593e1745087ad188484604051808381526020018281526020019250505060405180910390a36117798383611abc565b611781611ac0565b61178b8383611b2b565b505050565b600073ffffffffffffffffffffffffffffffffffffffff168173ffffffffffffffffffffffffffffffffffffffff16141515156117cc57600080fd5b8073ffffffffffffffffffffffffffffffffffffffff16600460009054906101000a900473ffffffffffffffffffffffffffffffffffffffff1673ffffffffffffffffffffffffffffffffffffffff167f8be0079c531659141344cd1fd0a4f28419497f9722a3daafe3b4186f6b6457e060405160405180910390a380600460006101000a81548173ffffffffffffffffffffffffffffffffffffffff021916908373ffffffffffffffffffffffffffffffffffffffff16021790555050565b60008260000160008373ffffffffffffffffffffffffffffffffffffffff1673ffffffffffffffffffffffffffffffffffffffff16815260200190815260200160002060006101000a81548160ff0219169083151502179055505050565b60018260000160008373ffffffffffffffffffffffffffffffffffffffff1673ffffffffffffffffffffffffffffffffffffffff16815260200190815260200160002060006101000a81548160ff0219169083151502179055505050565b600860009054906101000a900473ffffffffffffffffffffffffffffffffffffffff1673ffffffffffffffffffffffffffffffffffffffff16633af32abf336040518263ffffffff167c0100000000000000000000000000000000000000000000000000000000028152600401808273ffffffffffffffffffffffffffffffffffffffff1673ffffffffffffffffffffffffffffffffffffffff168152602001915050602060405180830381600087803b158015611a0557600080fd5b505af1158015611a19573d6000803e3d6000fd5b505050506040513d6020811015611a2f57600080fd5b810190808051906020019092919050505050611a4b8282611b2f565b600b54611a6382600354611a9290919063ffffffff16565b11151515611a7057600080fd5b5050565b6000611a8b60025483611b7f90919063ffffffff16565b9050919050565b60008183019050828110151515611aa557fe5b80905092915050565b611ab88282611bb7565b5050565b5050565b600160009054906101000a900473ffffffffffffffffffffffffffffffffffffffff1673ffffffffffffffffffffffffffffffffffffffff166108fc349081150290604051600060405180830381858888f19350505050158015611b28573d6000803e3d6000fd5b50565b5050565b600073ffffffffffffffffffffffffffffffffffffffff168273ffffffffffffffffffffffffffffffffffffffff1614151515611b6b57600080fd5b60008114151515611b7b57600080fd5b5050565b600080831415611b925760009050611bb1565b8183029050818382811515611ba357fe5b04141515611bad57fe5b8090505b92915050565b611c0382826000809054906101000a900473ffffffffffffffffffffffffffffffffffffffff1673ffffffffffffffffffffffffffffffffffffffff16611c079092919063ffffffff16565b5050565b8273ffffffffffffffffffffffffffffffffffffffff1663a9059cbb83836040518363ffffffff167c0100000000000000000000000000000000000000000000000000000000028152600401808373ffffffffffffffffffffffffffffffffffffffff1673ffffffffffffffffffffffffffffffffffffffff16815260200182815260200192505050602060405180830381600087803b158015611caa57600080fd5b505af1158015611cbe573d6000803e3d6000fd5b505050506040513d6020811015611cd457600080fd5b81019080805190602001909291905050501515611cf057600080fd5b5050505600a165627a7a72305820e7139ed10e8a7839a18e6e50953d5e05d6b8c66a52c1a13efa739302aed2e0e00029",
  "source": "pragma solidity ^0.4.24;\n\nimport '../openzeppelin-solidity/contracts/crowdsale/validation/TimedCrowdsale.sol';\nimport '../openzeppelin-solidity/contracts/crowdsale/validation/CappedCrowdsale.sol';\nimport '../openzeppelin-solidity/contracts/crowdsale/validation/WhitelistedCrowdsale.sol';\nimport '../openzeppelin-solidity/contracts/token/ERC20/TokenVesting.sol';\nimport './TwoKeyUpgradableExchange.sol';\nimport './TwoKeyWhitelisted.sol';\n\n\ncontract TwoKeyPresellExchange is TwoKeyUpgradableExchange {\n\t// bonus precentage\n\t// time locked base to some time after presell\n\t// after release of base + 2 month, bonus spread over 10 months\n\n\tTwoKeyWhitelisted whitelist;\n\tuint256 public openingTime;\n  \tuint256 public closingTime;\n  \tuint256 public cap;\n\n\tmodifier onlyIfWhitelisted() {\n\t    whitelist.isWhitelisted(msg.sender);\n\t    _;\n\t}\n\n\t/**\n      * @dev Checks whether the cap has been reached.\n      * @return Whether the cap was reached\n      */\n\tfunction capReached() public view returns (bool) {\n\t    return weiRaised >= cap;\n\t}\n\n\tconstructor(TwoKeyWhitelisted _whitelist,\n\t\tuint256 _openingTime, uint256 _closingTime, \n\t\tuint256 _cap,\n\t\tuint256 _rate, address _wallet, ERC20 _token) \n\t\tTwoKeyUpgradableExchange(_rate, _wallet, _token,msg.sender) public {\n\n\t\trequire(_whitelist != address(0));\n\t\t\n\t\trequire(_openingTime >= block.timestamp);\n   \t\trequire(_closingTime >= _openingTime);\n   \t\trequire(_cap > 0);\n\n\n\t    openingTime = _openingTime;\n\t    closingTime = _closingTime;\n\n        cap = _cap;\n\n\t\twhitelist = _whitelist;\n\t}\n\n\tfunction _preValidatePurchase(\n\t    address _beneficiary,\n\t    uint256 _weiAmount) internal onlyIfWhitelisted {\n\t    super._preValidatePurchase(_beneficiary, _weiAmount);\n\t    require(weiRaised.add(_weiAmount) <= cap);\n\t}\n}\n\n// to be created with\n// _token is 2KeyEconomy\n// TwoKeyPresellExchange(uint256 _rate, address _wallet, ERC20 _token)\n\n// to purchase call:\n// buyTokens(address _beneficiary)\n\n// where _beneficiary is an instance of TwoKeyPresellVesting\n\n\n",
  "sourcePath": "/Users/aydnep/2key/contracts/contracts/2key/TwoKeyPresellExchange.sol",
  "compiler": {
    "name": "solc",
    "version": "0.4.24+commit.e67f0147.Emscripten.clang"
  },
  "schemaVersion": "2.0.1",
  "updatedAt": "2018-09-13T16:08:44.368Z"
}