{
  "contractName": "TwoKeyAcquisitionCampaignERC20",
  "abi": [
    {
      "constant": false,
      "inputs": [
        {
          "name": "_spender",
          "type": "address"
        },
        {
          "name": "_value",
          "type": "uint256"
        }
      ],
      "name": "approve",
      "outputs": [
        {
          "name": "",
          "type": "bool"
        }
      ],
      "payable": false,
      "stateMutability": "nonpayable",
      "type": "function"
    },
    {
      "constant": false,
      "inputs": [
        {
          "name": "_to",
          "type": "address"
        },
        {
          "name": "_value",
          "type": "uint256"
        }
      ],
      "name": "transferQuota",
      "outputs": [
        {
          "name": "",
          "type": "bool"
        }
      ],
      "payable": false,
      "stateMutability": "nonpayable",
      "type": "function"
    },
    {
      "constant": true,
      "inputs": [],
      "name": "totalSupply",
      "outputs": [
        {
          "name": "",
          "type": "uint256"
        }
      ],
      "payable": false,
      "stateMutability": "view",
      "type": "function"
    },
    {
      "constant": false,
      "inputs": [
        {
          "name": "_from",
          "type": "address"
        },
        {
          "name": "_to",
          "type": "address"
        },
        {
          "name": "_value",
          "type": "uint256"
        }
      ],
      "name": "transferFrom",
      "outputs": [
        {
          "name": "",
          "type": "bool"
        }
      ],
      "payable": false,
      "stateMutability": "nonpayable",
      "type": "function"
    },
    {
      "constant": true,
      "inputs": [
        {
          "name": "",
          "type": "address"
        }
      ],
      "name": "received_from",
      "outputs": [
        {
          "name": "",
          "type": "address"
        }
      ],
      "payable": false,
      "stateMutability": "view",
      "type": "function"
    },
    {
      "constant": true,
      "inputs": [
        {
          "name": "",
          "type": "address"
        }
      ],
      "name": "public_link_key",
      "outputs": [
        {
          "name": "",
          "type": "address"
        }
      ],
      "payable": false,
      "stateMutability": "view",
      "type": "function"
    },
    {
      "constant": false,
      "inputs": [
        {
          "name": "_from",
          "type": "address"
        },
        {
          "name": "_to",
          "type": "address"
        },
        {
          "name": "_value",
          "type": "uint256"
        }
      ],
      "name": "transferFromQuota",
      "outputs": [
        {
          "name": "",
          "type": "bool"
        }
      ],
      "payable": false,
      "stateMutability": "nonpayable",
      "type": "function"
    },
    {
      "constant": false,
      "inputs": [
        {
          "name": "_from",
          "type": "address"
        },
        {
          "name": "_maxReward",
          "type": "uint256"
        }
      ],
      "name": "transferRewardsTwoKeyToken",
      "outputs": [],
      "payable": false,
      "stateMutability": "nonpayable",
      "type": "function"
    },
    {
      "constant": false,
      "inputs": [
        {
          "name": "_spender",
          "type": "address"
        },
        {
          "name": "_subtractedValue",
          "type": "uint256"
        }
      ],
      "name": "decreaseApproval",
      "outputs": [
        {
          "name": "",
          "type": "bool"
        }
      ],
      "payable": false,
      "stateMutability": "nonpayable",
      "type": "function"
    },
    {
      "constant": true,
      "inputs": [
        {
          "name": "_owner",
          "type": "address"
        }
      ],
      "name": "balanceOf",
      "outputs": [
        {
          "name": "",
          "type": "uint256"
        }
      ],
      "payable": false,
      "stateMutability": "view",
      "type": "function"
    },
    {
      "constant": false,
      "inputs": [
        {
          "name": "_to",
          "type": "address"
        },
        {
          "name": "_value",
          "type": "uint256"
        }
      ],
      "name": "transfer",
      "outputs": [
        {
          "name": "",
          "type": "bool"
        }
      ],
      "payable": false,
      "stateMutability": "nonpayable",
      "type": "function"
    },
    {
      "constant": true,
      "inputs": [],
      "name": "quota",
      "outputs": [
        {
          "name": "",
          "type": "uint256"
        }
      ],
      "payable": false,
      "stateMutability": "view",
      "type": "function"
    },
    {
      "constant": false,
      "inputs": [
        {
          "name": "_spender",
          "type": "address"
        },
        {
          "name": "_addedValue",
          "type": "uint256"
        }
      ],
      "name": "increaseApproval",
      "outputs": [
        {
          "name": "",
          "type": "bool"
        }
      ],
      "payable": false,
      "stateMutability": "nonpayable",
      "type": "function"
    },
    {
      "constant": true,
      "inputs": [
        {
          "name": "_owner",
          "type": "address"
        },
        {
          "name": "_spender",
          "type": "address"
        }
      ],
      "name": "allowance",
      "outputs": [
        {
          "name": "",
          "type": "uint256"
        }
      ],
      "payable": false,
      "stateMutability": "view",
      "type": "function"
    },
    {
      "constant": true,
      "inputs": [
        {
          "name": "",
          "type": "address"
        }
      ],
      "name": "conversions",
      "outputs": [
        {
          "name": "from",
          "type": "address"
        },
        {
          "name": "payout",
          "type": "uint256"
        },
        {
          "name": "converter",
          "type": "address"
        },
        {
          "name": "isFulfilled",
          "type": "bool"
        },
        {
          "name": "isCancelled",
          "type": "bool"
        },
        {
          "name": "assetName",
          "type": "string"
        },
        {
          "name": "assetContract",
          "type": "address"
        },
        {
          "name": "amount",
          "type": "uint256"
        },
        {
          "name": "campaignType",
          "type": "uint8"
        },
        {
          "name": "openingTime",
          "type": "uint256"
        },
        {
          "name": "closingTime",
          "type": "uint256"
        }
      ],
      "payable": false,
      "stateMutability": "view",
      "type": "function"
    },
    {
      "inputs": [
        {
          "name": "_twoKeyEventSource",
          "type": "address"
        },
        {
          "name": "_twoKeyEconomy",
          "type": "address"
        },
        {
          "name": "_whitelistInfluencer",
          "type": "address"
        },
        {
          "name": "_whitelistConverter",
          "type": "address"
        },
        {
          "name": "_contractor",
          "type": "address"
        },
        {
          "name": "_moderator",
          "type": "address"
        },
        {
          "name": "_openingTime",
          "type": "uint256"
        },
        {
          "name": "_closingTime",
          "type": "uint256"
        },
        {
          "name": "_expiryConversion",
          "type": "uint256"
        },
        {
          "name": "_escrowPercentage",
          "type": "uint256"
        },
        {
          "name": "_rate",
          "type": "uint256"
        },
        {
          "name": "_maxPi",
          "type": "uint256"
        }
      ],
      "payable": false,
      "stateMutability": "nonpayable",
      "type": "constructor"
    },
    {
      "payable": true,
      "stateMutability": "payable",
      "type": "fallback"
    },
    {
      "anonymous": false,
      "inputs": [
        {
          "indexed": true,
          "name": "_contract",
          "type": "address"
        }
      ],
      "name": "Expired",
      "type": "event"
    },
    {
      "anonymous": false,
      "inputs": [
        {
          "indexed": false,
          "name": "_sender",
          "type": "address"
        },
        {
          "indexed": false,
          "name": "value",
          "type": "uint256"
        }
      ],
      "name": "ReceivedEther",
      "type": "event"
    },
    {
      "anonymous": false,
      "inputs": [
        {
          "indexed": true,
          "name": "owner",
          "type": "address"
        },
        {
          "indexed": true,
          "name": "spender",
          "type": "address"
        },
        {
          "indexed": false,
          "name": "value",
          "type": "uint256"
        }
      ],
      "name": "Approval",
      "type": "event"
    },
    {
      "anonymous": false,
      "inputs": [
        {
          "indexed": true,
          "name": "from",
          "type": "address"
        },
        {
          "indexed": true,
          "name": "to",
          "type": "address"
        },
        {
          "indexed": false,
          "name": "value",
          "type": "uint256"
        }
      ],
      "name": "Transfer",
      "type": "event"
    },
    {
      "constant": false,
      "inputs": [
        {
          "name": "_public_link_key",
          "type": "address"
        }
      ],
      "name": "setPublicLinkKey",
      "outputs": [],
      "payable": false,
      "stateMutability": "nonpayable",
      "type": "function"
    },
    {
      "constant": false,
      "inputs": [
        {
          "name": "_assetContract",
          "type": "address"
        }
      ],
      "name": "addAssetContractERC20",
      "outputs": [],
      "payable": false,
      "stateMutability": "nonpayable",
      "type": "function"
    },
    {
      "constant": false,
      "inputs": [
        {
          "name": "_amount",
          "type": "uint256"
        }
      ],
      "name": "addFungibleAsset",
      "outputs": [
        {
          "name": "",
          "type": "bool"
        }
      ],
      "payable": false,
      "stateMutability": "nonpayable",
      "type": "function"
    },
    {
      "constant": true,
      "inputs": [],
      "name": "checkInventoryBalance",
      "outputs": [
        {
          "name": "",
          "type": "uint256"
        }
      ],
      "payable": false,
      "stateMutability": "view",
      "type": "function"
    },
    {
      "constant": false,
      "inputs": [],
      "name": "checkAndUpdateInventoryBalance",
      "outputs": [
        {
          "name": "",
          "type": "uint256"
        }
      ],
      "payable": false,
      "stateMutability": "nonpayable",
      "type": "function"
    },
    {
      "constant": false,
      "inputs": [
        {
          "name": "_from",
          "type": "address"
        },
        {
          "name": "_assetName",
          "type": "string"
        },
        {
          "name": "_assetContract",
          "type": "address"
        },
        {
          "name": "_amount",
          "type": "uint256"
        }
      ],
      "name": "buyFromWithTwoKey",
      "outputs": [],
      "payable": true,
      "stateMutability": "payable",
      "type": "function"
    },
    {
      "constant": false,
      "inputs": [
        {
          "name": "_tokenID",
          "type": "uint256"
        },
        {
          "name": "_assetContract",
          "type": "address"
        },
        {
          "name": "_amount",
          "type": "uint256"
        }
      ],
      "name": "transferAssetTwoKeyToken",
      "outputs": [],
      "payable": false,
      "stateMutability": "nonpayable",
      "type": "function"
    },
    {
      "constant": false,
      "inputs": [
        {
          "name": "_converter",
          "type": "address"
        },
        {
          "name": "_assetName",
          "type": "string"
        },
        {
          "name": "_assetContract",
          "type": "address"
        },
        {
          "name": "_amount",
          "type": "uint256"
        }
      ],
      "name": "cancelAssetTwoKey",
      "outputs": [
        {
          "name": "",
          "type": "bool"
        }
      ],
      "payable": false,
      "stateMutability": "nonpayable",
      "type": "function"
    },
    {
      "constant": false,
      "inputs": [
        {
          "name": "_converter",
          "type": "address"
        },
        {
          "name": "_assetContract",
          "type": "address"
        },
        {
          "name": "_amount",
          "type": "uint256"
        }
      ],
      "name": "expireEscrow",
      "outputs": [
        {
          "name": "",
          "type": "bool"
        }
      ],
      "payable": false,
      "stateMutability": "nonpayable",
      "type": "function"
    },
    {
      "constant": false,
      "inputs": [
        {
          "name": "_amount",
          "type": "uint256"
        }
      ],
      "name": "redeemTwoKeyToken",
      "outputs": [],
      "payable": false,
      "stateMutability": "nonpayable",
      "type": "function"
    },
    {
      "constant": true,
      "inputs": [
        {
          "name": "_from",
          "type": "address"
        }
      ],
      "name": "checkAmountAddressSent",
      "outputs": [
        {
          "name": "",
          "type": "uint256"
        }
      ],
      "payable": false,
      "stateMutability": "view",
      "type": "function"
    },
    {
      "constant": true,
      "inputs": [],
      "name": "getContractBalance",
      "outputs": [
        {
          "name": "",
          "type": "uint256"
        }
      ],
      "payable": false,
      "stateMutability": "view",
      "type": "function"
    },
    {
      "constant": true,
      "inputs": [],
      "name": "getAssetContractAddress",
      "outputs": [
        {
          "name": "",
          "type": "address"
        }
      ],
      "payable": false,
      "stateMutability": "view",
      "type": "function"
    }
  ],
  "bytecode": "0x6080604052620f42406003553480156200001857600080fd5b5060405161018080620052f88339810180604052810190808051906020019092919080519060200190929190805190602001909291908051906020019092919080519060200190929190805190602001909291908051906020019092919080519060200190929190805190602001909291908051906020019092919080519060200190929190805190602001909291905050508b88600073ffffffffffffffffffffffffffffffffffffffff168273ffffffffffffffffffffffffffffffffffffffff1614151515620000ea57600080fd5b80600660006101000a81548173ffffffffffffffffffffffffffffffffffffffff021916908373ffffffffffffffffffffffffffffffffffffffff16021790555081600560006101000a81548173ffffffffffffffffffffffffffffffffffffffff021916908373ffffffffffffffffffffffffffffffffffffffff1602179055505050600073ffffffffffffffffffffffffffffffffffffffff168b73ffffffffffffffffffffffffffffffffffffffff1614151515620001ab57600080fd5b600073ffffffffffffffffffffffffffffffffffffffff168a73ffffffffffffffffffffffffffffffffffffffff1614151515620001e857600080fd5b600073ffffffffffffffffffffffffffffffffffffffff168973ffffffffffffffffffffffffffffffffffffffff16141515156200022557600080fd5b6000821115156200023557600080fd5b6000811115156200024557600080fd5b8a600f60006101000a81548173ffffffffffffffffffffffffffffffffffffffff021916908373ffffffffffffffffffffffffffffffffffffffff16021790555089601060006101000a81548173ffffffffffffffffffffffffffffffffffffffff021916908373ffffffffffffffffffffffffffffffffffffffff16021790555088601160006101000a81548173ffffffffffffffffffffffffffffffffffffffff021916908373ffffffffffffffffffffffffffffffffffffffff16021790555086601660006101000a81548173ffffffffffffffffffffffffffffffffffffffff021916908373ffffffffffffffffffffffffffffffffffffffff1602179055508560148190555084601581905550836017819055508260188190555080601981905550600560009054906101000a900473ffffffffffffffffffffffffffffffffffffffff1673ffffffffffffffffffffffffffffffffffffffff16631d18658430600660009054906101000a900473ffffffffffffffffffffffffffffffffffffffff166040518363ffffffff167c0100000000000000000000000000000000000000000000000000000000028152600401808373ffffffffffffffffffffffffffffffffffffffff1673ffffffffffffffffffffffffffffffffffffffff1681526020018273ffffffffffffffffffffffffffffffffffffffff1673ffffffffffffffffffffffffffffffffffffffff16815260200192505050600060405180830381600087803b1580156200048057600080fd5b505af115801562000495573d6000803e3d6000fd5b50505050505050505050505050505050614e4380620004b56000396000f30060806040526004361061016a576000357c0100000000000000000000000000000000000000000000000000000000900463ffffffff168063095ea7b31461023357806311abc0ca1461029857806312d0ba91146102fd57806318160ddd1461035457806323b872dd1461037f5780632d376e941461040457806332c9b18314610487578063383d0d06146104de578063442e97dd146105615780634d77c9c8146105e65780635c06b5e314610611578063661884631461065e5780636959f83e146106c35780636f9fb98a1461070657806370a0823114610731578063714cf66b14610788578063a9059cbb146107cd578063b22e8eb614610832578063c15efea314610889578063cacb67081461090e578063cebe09c91461093b578063d1ec779f14610966578063d4d28056146109a9578063d73dd623146109d4578063dca6bcdc14610a39578063dd62ed3e14610adf578063e59f041214610b56578063ff3e6f2914610cf2575b60003411151561017957600080fd5b34600b60003373ffffffffffffffffffffffffffffffffffffffff1673ffffffffffffffffffffffffffffffffffffffff168152602001908152602001600020600082825401925050819055507fa419615bc8fda4c87663805ee2a3597a6d71c1d476911d9892f340d965bc7bf13334604051808373ffffffffffffffffffffffffffffffffffffffff1673ffffffffffffffffffffffffffffffffffffffff1681526020018281526020019250505060405180910390a1005b34801561023f57600080fd5b5061027e600480360381019080803573ffffffffffffffffffffffffffffffffffffffff16906020019092919080359060200190929190505050610dbd565b604051808215151515815260200191505060405180910390f35b3480156102a457600080fd5b506102e3600480360381019080803573ffffffffffffffffffffffffffffffffffffffff16906020019092919080359060200190929190505050610eaf565b604051808215151515815260200191505060405180910390f35b34801561030957600080fd5b5061035260048036038101908080359060200190929190803573ffffffffffffffffffffffffffffffffffffffff16906020019092919080359060200190929190505050611104565b005b34801561036057600080fd5b506103696114ce565b6040518082815260200191505060405180910390f35b34801561038b57600080fd5b506103ea600480360381019080803573ffffffffffffffffffffffffffffffffffffffff169060200190929190803573ffffffffffffffffffffffffffffffffffffffff169060200190929190803590602001909291905050506114d8565b604051808215151515815260200191505060405180910390f35b34801561041057600080fd5b50610445600480360381019080803573ffffffffffffffffffffffffffffffffffffffff16906020019092919050505061187a565b604051808273ffffffffffffffffffffffffffffffffffffffff1673ffffffffffffffffffffffffffffffffffffffff16815260200191505060405180910390f35b34801561049357600080fd5b5061049c6118ad565b604051808273ffffffffffffffffffffffffffffffffffffffff1673ffffffffffffffffffffffffffffffffffffffff16815260200191505060405180910390f35b3480156104ea57600080fd5b5061051f600480360381019080803573ffffffffffffffffffffffffffffffffffffffff1690602001909291905050506118d7565b604051808273ffffffffffffffffffffffffffffffffffffffff1673ffffffffffffffffffffffffffffffffffffffff16815260200191505060405180910390f35b34801561056d57600080fd5b506105cc600480360381019080803573ffffffffffffffffffffffffffffffffffffffff169060200190929190803573ffffffffffffffffffffffffffffffffffffffff1690602001909291908035906020019092919050505061190a565b604051808215151515815260200191505060405180910390f35b3480156105f257600080fd5b506105fb611cfa565b6040518082815260200191505060405180910390f35b34801561061d57600080fd5b5061065c600480360381019080803573ffffffffffffffffffffffffffffffffffffffff16906020019092919080359060200190929190505050611dfe565b005b34801561066a57600080fd5b506106a9600480360381019080803573ffffffffffffffffffffffffffffffffffffffff16906020019092919080359060200190929190505050612248565b604051808215151515815260200191505060405180910390f35b3480156106cf57600080fd5b50610704600480360381019080803573ffffffffffffffffffffffffffffffffffffffff1690602001909291905050506124da565b005b34801561071257600080fd5b5061071b61251e565b6040518082815260200191505060405180910390f35b34801561073d57600080fd5b50610772600480360381019080803573ffffffffffffffffffffffffffffffffffffffff169060200190929190505050612528565b6040518082815260200191505060405180910390f35b34801561079457600080fd5b506107b360048036038101908080359060200190929190505050612570565b604051808215151515815260200191505060405180910390f35b3480156107d957600080fd5b50610818600480360381019080803573ffffffffffffffffffffffffffffffffffffffff169060200190929190803590602001909291905050506126fe565b604051808215151515815260200191505060405180910390f35b34801561083e57600080fd5b50610873600480360381019080803573ffffffffffffffffffffffffffffffffffffffff1690602001909291905050506129e0565b6040518082815260200191505060405180910390f35b34801561089557600080fd5b506108f4600480360381019080803573ffffffffffffffffffffffffffffffffffffffff169060200190929190803573ffffffffffffffffffffffffffffffffffffffff16906020019092919080359060200190929190505050612a29565b604051808215151515815260200191505060405180910390f35b34801561091a57600080fd5b5061093960048036038101908080359060200190929190505050612d3c565b005b34801561094757600080fd5b50610950612f63565b6040518082815260200191505060405180910390f35b34801561097257600080fd5b506109a7600480360381019080803573ffffffffffffffffffffffffffffffffffffffff169060200190929190505050612f69565b005b3480156109b557600080fd5b506109be6130a1565b6040518082815260200191505060405180910390f35b3480156109e057600080fd5b50610a1f600480360381019080803573ffffffffffffffffffffffffffffffffffffffff169060200190929190803590602001909291905050506130bc565b604051808215151515815260200191505060405180910390f35b610add600480360381019080803573ffffffffffffffffffffffffffffffffffffffff169060200190929190803590602001908201803590602001908080601f0160208091040260200160405190810160405280939291908181526020018383808284378201915050505050509192919290803573ffffffffffffffffffffffffffffffffffffffff169060200190929190803590602001909291905050506132b8565b005b348015610aeb57600080fd5b50610b40600480360381019080803573ffffffffffffffffffffffffffffffffffffffff169060200190929190803573ffffffffffffffffffffffffffffffffffffffff1690602001909291905050506132ca565b6040518082815260200191505060405180910390f35b348015610b6257600080fd5b50610b97600480360381019080803573ffffffffffffffffffffffffffffffffffffffff169060200190929190505050613351565b604051808c73ffffffffffffffffffffffffffffffffffffffff1673ffffffffffffffffffffffffffffffffffffffff1681526020018b81526020018a73ffffffffffffffffffffffffffffffffffffffff1673ffffffffffffffffffffffffffffffffffffffff1681526020018915151515815260200188151515158152602001806020018773ffffffffffffffffffffffffffffffffffffffff1673ffffffffffffffffffffffffffffffffffffffff168152602001868152602001856007811115610c6157fe5b60ff168152602001848152602001838152602001828103825288818151815260200191508051906020019080838360005b83811015610cad578082015181840152602081019050610c92565b50505050905090810190601f168015610cda5780820380516001836020036101000a031916815260200191505b509c5050505050505050505050505060405180910390f35b348015610cfe57600080fd5b50610da3600480360381019080803573ffffffffffffffffffffffffffffffffffffffff169060200190929190803590602001908201803590602001908080601f0160208091040260200160405190810160405280939291908181526020018383808284378201915050505050509192919290803573ffffffffffffffffffffffffffffffffffffffff169060200190929190803590602001909291905050506134ca565b604051808215151515815260200191505060405180910390f35b600081600260003373ffffffffffffffffffffffffffffffffffffffff1673ffffffffffffffffffffffffffffffffffffffff16815260200190815260200160002060008573ffffffffffffffffffffffffffffffffffffffff1673ffffffffffffffffffffffffffffffffffffffff168152602001908152602001600020819055508273ffffffffffffffffffffffffffffffffffffffff163373ffffffffffffffffffffffffffffffffffffffff167f8c5be1e5ebec7d5bd14f71427d1e84f3dd0314c0f7b2291e5b200ac8c7c3b925846040518082815260200191505060405180910390a36001905092915050565b60008073ffffffffffffffffffffffffffffffffffffffff168373ffffffffffffffffffffffffffffffffffffffff1614151515610eec57600080fd5b6000803373ffffffffffffffffffffffffffffffffffffffff1673ffffffffffffffffffffffffffffffffffffffff168152602001908152602001600020548211151515610f3957600080fd5b610f8a826000803373ffffffffffffffffffffffffffffffffffffffff1673ffffffffffffffffffffffffffffffffffffffff1681526020019081526020016000205461395190919063ffffffff16565b6000803373ffffffffffffffffffffffffffffffffffffffff1673ffffffffffffffffffffffffffffffffffffffff1681526020019081526020016000208190555061102160075483026000808673ffffffffffffffffffffffffffffffffffffffff1673ffffffffffffffffffffffffffffffffffffffff1681526020019081526020016000205461396a90919063ffffffff16565b6000808573ffffffffffffffffffffffffffffffffffffffff1673ffffffffffffffffffffffffffffffffffffffff1681526020019081526020016000208190555061108f61107e6001600754038461398690919063ffffffff16565b60035461396a90919063ffffffff16565b6003819055508273ffffffffffffffffffffffffffffffffffffffff163373ffffffffffffffffffffffffffffffffffffffff167fddf252ad1be2c89b69c2b068fc378daa952ba7f163c4a11628f55a4df523b3ef846040518082815260200191505060405180910390a36001905092915050565b601160009054906101000a900473ffffffffffffffffffffffffffffffffffffffff1673ffffffffffffffffffffffffffffffffffffffff16633af32abf336040518263ffffffff167c0100000000000000000000000000000000000000000000000000000000028152600401808273ffffffffffffffffffffffffffffffffffffffff1673ffffffffffffffffffffffffffffffffffffffff168152602001915050602060405180830381600087803b1580156111c157600080fd5b505af11580156111d5573d6000803e3d6000fd5b505050506040513d60208110156111eb57600080fd5b8101908080519060200190929190505050151561120757600080fd5b61120f614cc6565b600a60003373ffffffffffffffffffffffffffffffffffffffff1673ffffffffffffffffffffffffffffffffffffffff16815260200190815260200160002061016060405190810160405290816000820160009054906101000a900473ffffffffffffffffffffffffffffffffffffffff1673ffffffffffffffffffffffffffffffffffffffff1673ffffffffffffffffffffffffffffffffffffffff168152602001600182015481526020016002820160009054906101000a900473ffffffffffffffffffffffffffffffffffffffff1673ffffffffffffffffffffffffffffffffffffffff1673ffffffffffffffffffffffffffffffffffffffff1681526020016002820160149054906101000a900460ff161515151581526020016002820160159054906101000a900460ff16151515158152602001600382018054600181600116156101000203166002900480601f0160208091040260200160405190810160405280929190818152602001828054600181600116156101000203166002900480156113e05780601f106113b5576101008083540402835291602001916113e0565b820191906000526020600020905b8154815290600101906020018083116113c357829003601f168201915b505050505081526020016004820160009054906101000a900473ffffffffffffffffffffffffffffffffffffffff1673ffffffffffffffffffffffffffffffffffffffff1673ffffffffffffffffffffffffffffffffffffffff168152602001600582015481526020016006820160009054906101000a900460ff16600781111561146757fe5b600781111561147257fe5b815260200160078201548152602001600882015481525050905080606001511580156114a057508060800151155b15156114ab57600080fd5b6114b36139be565b6114bd3383614130565b15156114c857600080fd5b50505050565b6000600154905090565b600080600860008573ffffffffffffffffffffffffffffffffffffffff1673ffffffffffffffffffffffffffffffffffffffff16815260200190815260200160002060009054906101000a900473ffffffffffffffffffffffffffffffffffffffff1673ffffffffffffffffffffffffffffffffffffffff1614151561155d57600080fd5b600073ffffffffffffffffffffffffffffffffffffffff168473ffffffffffffffffffffffffffffffffffffffff161415151561159957600080fd5b6001600260008673ffffffffffffffffffffffffffffffffffffffff1673ffffffffffffffffffffffffffffffffffffffff16815260200190815260200160002060003373ffffffffffffffffffffffffffffffffffffffff1673ffffffffffffffffffffffffffffffffffffffff1681526020019081526020016000208190555061162684848461190a565b1561186e576000600860008573ffffffffffffffffffffffffffffffffffffffff1673ffffffffffffffffffffffffffffffffffffffff16815260200190815260200160002060009054906101000a900473ffffffffffffffffffffffffffffffffffffffff1673ffffffffffffffffffffffffffffffffffffffff1614156117e757600560009054906101000a900473ffffffffffffffffffffffffffffffffffffffff1673ffffffffffffffffffffffffffffffffffffffff16638af1cbb93086866040518463ffffffff167c0100000000000000000000000000000000000000000000000000000000028152600401808473ffffffffffffffffffffffffffffffffffffffff1673ffffffffffffffffffffffffffffffffffffffff1681526020018373ffffffffffffffffffffffffffffffffffffffff1673ffffffffffffffffffffffffffffffffffffffff1681526020018273ffffffffffffffffffffffffffffffffffffffff1673ffffffffffffffffffffffffffffffffffffffff1681526020019350505050600060405180830381600087803b1580156117ce57600080fd5b505af11580156117e2573d6000803e3d6000fd5b505050505b83600860008573ffffffffffffffffffffffffffffffffffffffff1673ffffffffffffffffffffffffffffffffffffffff16815260200190815260200160002060006101000a81548173ffffffffffffffffffffffffffffffffffffffff021916908373ffffffffffffffffffffffffffffffffffffffff16021790555060019050611873565b600090505b9392505050565b60086020528060005260406000206000915054906101000a900473ffffffffffffffffffffffffffffffffffffffff1681565b6000600d60009054906101000a900473ffffffffffffffffffffffffffffffffffffffff16905090565b60096020528060005260406000206000915054906101000a900473ffffffffffffffffffffffffffffffffffffffff1681565b60008073ffffffffffffffffffffffffffffffffffffffff168373ffffffffffffffffffffffffffffffffffffffff161415151561194757600080fd5b6000808573ffffffffffffffffffffffffffffffffffffffff1673ffffffffffffffffffffffffffffffffffffffff16815260200190815260200160002054821115151561199457600080fd5b600260008573ffffffffffffffffffffffffffffffffffffffff1673ffffffffffffffffffffffffffffffffffffffff16815260200190815260200160002060003373ffffffffffffffffffffffffffffffffffffffff1673ffffffffffffffffffffffffffffffffffffffff168152602001908152602001600020548211151515611a1f57600080fd5b611a70826000808773ffffffffffffffffffffffffffffffffffffffff1673ffffffffffffffffffffffffffffffffffffffff1681526020019081526020016000205461395190919063ffffffff16565b6000808673ffffffffffffffffffffffffffffffffffffffff1673ffffffffffffffffffffffffffffffffffffffff16815260200190815260200160002081905550611b0760075483026000808673ffffffffffffffffffffffffffffffffffffffff1673ffffffffffffffffffffffffffffffffffffffff1681526020019081526020016000205461396a90919063ffffffff16565b6000808573ffffffffffffffffffffffffffffffffffffffff1673ffffffffffffffffffffffffffffffffffffffff16815260200190815260200160002081905550611b75611b646001600754038461398690919063ffffffff16565b60035461396a90919063ffffffff16565b600381905550611c0a82600260008773ffffffffffffffffffffffffffffffffffffffff1673ffffffffffffffffffffffffffffffffffffffff16815260200190815260200160002060003373ffffffffffffffffffffffffffffffffffffffff1673ffffffffffffffffffffffffffffffffffffffff1681526020019081526020016000205461395190919063ffffffff16565b600260008673ffffffffffffffffffffffffffffffffffffffff1673ffffffffffffffffffffffffffffffffffffffff16815260200190815260200160002060003373ffffffffffffffffffffffffffffffffffffffff1673ffffffffffffffffffffffffffffffffffffffff168152602001908152602001600020819055508273ffffffffffffffffffffffffffffffffffffffff168473ffffffffffffffffffffffffffffffffffffffff167fddf252ad1be2c89b69c2b068fc378daa952ba7f163c4a11628f55a4df523b3ef846040518082815260200191505060405180910390a3600190509392505050565b600080600d60009054906101000a900473ffffffffffffffffffffffffffffffffffffffff1673ffffffffffffffffffffffffffffffffffffffff166370a08231306040518263ffffffff167c0100000000000000000000000000000000000000000000000000000000028152600401808273ffffffffffffffffffffffffffffffffffffffff1673ffffffffffffffffffffffffffffffffffffffff168152602001915050602060405180830381600087803b158015611dba57600080fd5b505af1158015611dce573d6000803e3d6000fd5b505050506040513d6020811015611de457600080fd5b810190808051906020019092919050505090508091505090565b60008060008060008073ffffffffffffffffffffffffffffffffffffffff168773ffffffffffffffffffffffffffffffffffffffff1614151515611e4157600080fd5b33945060003073ffffffffffffffffffffffffffffffffffffffff166370a08231876040518263ffffffff167c0100000000000000000000000000000000000000000000000000000000028152600401808273ffffffffffffffffffffffffffffffffffffffff1673ffffffffffffffffffffffffffffffffffffffff168152602001915050602060405180830381600087803b158015611ee157600080fd5b505af1158015611ef5573d6000803e3d6000fd5b505050506040513d6020811015611f0b57600080fd5b81019080805190602001909291905050501415611f3057611f2e878660016114d8565b505b3392505b60011561200557600860008473ffffffffffffffffffffffffffffffffffffffff1673ffffffffffffffffffffffffffffffffffffffff16815260200190815260200160002060009054906101000a900473ffffffffffffffffffffffffffffffffffffffff169250600660009054906101000a900473ffffffffffffffffffffffffffffffffffffffff1673ffffffffffffffffffffffffffffffffffffffff168373ffffffffffffffffffffffffffffffffffffffff161415611ff857612005565b8380600101945050611f34565b612018848761414490919063ffffffff16565b9150339250600090505b8381101561223f57600860008473ffffffffffffffffffffffffffffffffffffffff1673ffffffffffffffffffffffffffffffffffffffff16815260200190815260200160002060009054906101000a900473ffffffffffffffffffffffffffffffffffffffff1692506120de82600460008673ffffffffffffffffffffffffffffffffffffffff1673ffffffffffffffffffffffffffffffffffffffff1681526020019081526020016000205461396a90919063ffffffff16565b600460008573ffffffffffffffffffffffffffffffffffffffff1673ffffffffffffffffffffffffffffffffffffffff16815260200190815260200160002081905550600560009054906101000a900473ffffffffffffffffffffffffffffffffffffffff1673ffffffffffffffffffffffffffffffffffffffff1663bd6cd0d13085856040518463ffffffff167c0100000000000000000000000000000000000000000000000000000000028152600401808473ffffffffffffffffffffffffffffffffffffffff1673ffffffffffffffffffffffffffffffffffffffff1681526020018373ffffffffffffffffffffffffffffffffffffffff1673ffffffffffffffffffffffffffffffffffffffff1681526020018281526020019350505050600060405180830381600087803b15801561221a57600080fd5b505af115801561222e573d6000803e3d6000fd5b505050508080600101915050612022565b50505050505050565b600080600260003373ffffffffffffffffffffffffffffffffffffffff1673ffffffffffffffffffffffffffffffffffffffff16815260200190815260200160002060008573ffffffffffffffffffffffffffffffffffffffff1673ffffffffffffffffffffffffffffffffffffffff168152602001908152602001600020549050808310151561235a576000600260003373ffffffffffffffffffffffffffffffffffffffff1673ffffffffffffffffffffffffffffffffffffffff16815260200190815260200160002060008673ffffffffffffffffffffffffffffffffffffffff1673ffffffffffffffffffffffffffffffffffffffff168152602001908152602001600020819055506123ee565b61236d838261395190919063ffffffff16565b600260003373ffffffffffffffffffffffffffffffffffffffff1673ffffffffffffffffffffffffffffffffffffffff16815260200190815260200160002060008673ffffffffffffffffffffffffffffffffffffffff1673ffffffffffffffffffffffffffffffffffffffff168152602001908152602001600020819055505b8373ffffffffffffffffffffffffffffffffffffffff163373ffffffffffffffffffffffffffffffffffffffff167f8c5be1e5ebec7d5bd14f71427d1e84f3dd0314c0f7b2291e5b200ac8c7c3b925600260003373ffffffffffffffffffffffffffffffffffffffff1673ffffffffffffffffffffffffffffffffffffffff16815260200190815260200160002060008873ffffffffffffffffffffffffffffffffffffffff1673ffffffffffffffffffffffffffffffffffffffff168152602001908152602001600020546040518082815260200191505060405180910390a3600191505092915050565b80600d60006101000a81548173ffffffffffffffffffffffffffffffffffffffff021916908373ffffffffffffffffffffffffffffffffffffffff16021790555050565b6000600c54905090565b60008060008373ffffffffffffffffffffffffffffffffffffffff1673ffffffffffffffffffffffffffffffffffffffff168152602001908152602001600020549050919050565b6000600d60009054906101000a900473ffffffffffffffffffffffffffffffffffffffff1673ffffffffffffffffffffffffffffffffffffffff1660405180807f7472616e7366657246726f6d28616464726573732c616464726573732c75696e81526020017f7432353629000000000000000000000000000000000000000000000000000000815250602501905060405180910390207c010000000000000000000000000000000000000000000000000000000090043330856040518463ffffffff167c0100000000000000000000000000000000000000000000000000000000028152600401808473ffffffffffffffffffffffffffffffffffffffff1673ffffffffffffffffffffffffffffffffffffffff1681526020018373ffffffffffffffffffffffffffffffffffffffff1673ffffffffffffffffffffffffffffffffffffffff16815260200182815260200193505050506000604051808303816000875af19250505015156126e557600080fd5b81600c6000828254019250508190555060019050919050565b600080600860008573ffffffffffffffffffffffffffffffffffffffff1673ffffffffffffffffffffffffffffffffffffffff16815260200190815260200160002060009054906101000a900473ffffffffffffffffffffffffffffffffffffffff1673ffffffffffffffffffffffffffffffffffffffff1614151561278357600080fd5b61278d8383610eaf565b156129d5576000600860008573ffffffffffffffffffffffffffffffffffffffff1673ffffffffffffffffffffffffffffffffffffffff16815260200190815260200160002060009054906101000a900473ffffffffffffffffffffffffffffffffffffffff1673ffffffffffffffffffffffffffffffffffffffff16141561294e57600560009054906101000a900473ffffffffffffffffffffffffffffffffffffffff1673ffffffffffffffffffffffffffffffffffffffff16638af1cbb93033866040518463ffffffff167c0100000000000000000000000000000000000000000000000000000000028152600401808473ffffffffffffffffffffffffffffffffffffffff1673ffffffffffffffffffffffffffffffffffffffff1681526020018373ffffffffffffffffffffffffffffffffffffffff1673ffffffffffffffffffffffffffffffffffffffff1681526020018273ffffffffffffffffffffffffffffffffffffffff1673ffffffffffffffffffffffffffffffffffffffff1681526020019350505050600060405180830381600087803b15801561293557600080fd5b505af1158015612949573d6000803e3d6000fd5b505050505b33600860008573ffffffffffffffffffffffffffffffffffffffff1673ffffffffffffffffffffffffffffffffffffffff16815260200190815260200160002060006101000a81548173ffffffffffffffffffffffffffffffffffffffff021916908373ffffffffffffffffffffffffffffffffffffffff160217905550600190506129da565b600090505b92915050565b6000600b60008373ffffffffffffffffffffffffffffffffffffffff1673ffffffffffffffffffffffffffffffffffffffff168152602001908152602001600020549050919050565b6000612a33614cc6565b600a60008673ffffffffffffffffffffffffffffffffffffffff1673ffffffffffffffffffffffffffffffffffffffff16815260200190815260200160002061016060405190810160405290816000820160009054906101000a900473ffffffffffffffffffffffffffffffffffffffff1673ffffffffffffffffffffffffffffffffffffffff1673ffffffffffffffffffffffffffffffffffffffff168152602001600182015481526020016002820160009054906101000a900473ffffffffffffffffffffffffffffffffffffffff1673ffffffffffffffffffffffffffffffffffffffff1673ffffffffffffffffffffffffffffffffffffffff1681526020016002820160149054906101000a900460ff161515151581526020016002820160159054906101000a900460ff16151515158152602001600382018054600181600116156101000203166002900480601f016020809104026020016040519081016040528092919081815260200182805460018160011615610100020316600290048015612c045780601f10612bd957610100808354040283529160200191612c04565b820191906000526020600020905b815481529060010190602001808311612be757829003601f168201915b505050505081526020016004820160009054906101000a900473ffffffffffffffffffffffffffffffffffffffff1673ffffffffffffffffffffffffffffffffffffffff1673ffffffffffffffffffffffffffffffffffffffff168152602001600582015481526020016006820160009054906101000a900460ff166007811115612c8b57fe5b6007811115612c9657fe5b81526020016007820154815260200160088201548152505090508060800151158015612cc457508060600151155b1515612ccf57600080fd5b80610140015142111515612ce257600080fd5b612ced85858561415a565b3073ffffffffffffffffffffffffffffffffffffffff167fd5669ebe8b90ed693033f1915dcea031e7a16a6f146a8326c02eec10eed77edd60405160405180910390a260019150509392505050565b80600460003373ffffffffffffffffffffffffffffffffffffffff1673ffffffffffffffffffffffffffffffffffffffff1681526020019081526020016000205410158015612d8b5750600081115b1515612d9657600080fd5b612de881600460003373ffffffffffffffffffffffffffffffffffffffff1673ffffffffffffffffffffffffffffffffffffffff1681526020019081526020016000205461395190919063ffffffff16565b600460003373ffffffffffffffffffffffffffffffffffffffff1673ffffffffffffffffffffffffffffffffffffffff16815260200190815260200160002081905550600f60009054906101000a900473ffffffffffffffffffffffffffffffffffffffff1673ffffffffffffffffffffffffffffffffffffffff166323b872dd3033846040518463ffffffff167c0100000000000000000000000000000000000000000000000000000000028152600401808473ffffffffffffffffffffffffffffffffffffffff1673ffffffffffffffffffffffffffffffffffffffff1681526020018373ffffffffffffffffffffffffffffffffffffffff1673ffffffffffffffffffffffffffffffffffffffff1681526020018281526020019350505050602060405180830381600087803b158015612f2457600080fd5b505af1158015612f38573d6000803e3d6000fd5b505050506040513d6020811015612f4e57600080fd5b81019080805190602001909291905050505050565b60075481565b60003390506000612f7982612528565b111515612f8557600080fd5b600073ffffffffffffffffffffffffffffffffffffffff16600960008373ffffffffffffffffffffffffffffffffffffffff1673ffffffffffffffffffffffffffffffffffffffff16815260200190815260200160002060009054906101000a900473ffffffffffffffffffffffffffffffffffffffff1673ffffffffffffffffffffffffffffffffffffffff1614151561301f57600080fd5b81600960008373ffffffffffffffffffffffffffffffffffffffff1673ffffffffffffffffffffffffffffffffffffffff16815260200190815260200160002060006101000a81548173ffffffffffffffffffffffffffffffffffffffff021916908373ffffffffffffffffffffffffffffffffffffffff1602179055505050565b6000806130ac611cfa565b905080600c819055508091505090565b600061314d82600260003373ffffffffffffffffffffffffffffffffffffffff1673ffffffffffffffffffffffffffffffffffffffff16815260200190815260200160002060008673ffffffffffffffffffffffffffffffffffffffff1673ffffffffffffffffffffffffffffffffffffffff1681526020019081526020016000205461396a90919063ffffffff16565b600260003373ffffffffffffffffffffffffffffffffffffffff1673ffffffffffffffffffffffffffffffffffffffff16815260200190815260200160002060008573ffffffffffffffffffffffffffffffffffffffff1673ffffffffffffffffffffffffffffffffffffffff168152602001908152602001600020819055508273ffffffffffffffffffffffffffffffffffffffff163373ffffffffffffffffffffffffffffffffffffffff167f8c5be1e5ebec7d5bd14f71427d1e84f3dd0314c0f7b2291e5b200ac8c7c3b925600260003373ffffffffffffffffffffffffffffffffffffffff1673ffffffffffffffffffffffffffffffffffffffff16815260200190815260200160002060008773ffffffffffffffffffffffffffffffffffffffff1673ffffffffffffffffffffffffffffffffffffffff168152602001908152602001600020546040518082815260200191505060405180910390a36001905092915050565b6132c4848484846146ec565b50505050565b6000600260008473ffffffffffffffffffffffffffffffffffffffff1673ffffffffffffffffffffffffffffffffffffffff16815260200190815260200160002060008373ffffffffffffffffffffffffffffffffffffffff1673ffffffffffffffffffffffffffffffffffffffff16815260200190815260200160002054905092915050565b600a6020528060005260406000206000915090508060000160009054906101000a900473ffffffffffffffffffffffffffffffffffffffff16908060010154908060020160009054906101000a900473ffffffffffffffffffffffffffffffffffffffff16908060020160149054906101000a900460ff16908060020160159054906101000a900460ff1690806003018054600181600116156101000203166002900480601f0160208091040260200160405190810160405280929190818152602001828054600181600116156101000203166002900480156134755780601f1061344a57610100808354040283529160200191613475565b820191906000526020600020905b81548152906001019060200180831161345857829003601f168201915b5050505050908060040160009054906101000a900473ffffffffffffffffffffffffffffffffffffffff16908060050154908060060160009054906101000a900460ff1690806007015490806008015490508b565b60006134d4614cc6565b600a60008773ffffffffffffffffffffffffffffffffffffffff1673ffffffffffffffffffffffffffffffffffffffff16815260200190815260200160002061016060405190810160405290816000820160009054906101000a900473ffffffffffffffffffffffffffffffffffffffff1673ffffffffffffffffffffffffffffffffffffffff1673ffffffffffffffffffffffffffffffffffffffff168152602001600182015481526020016002820160009054906101000a900473ffffffffffffffffffffffffffffffffffffffff1673ffffffffffffffffffffffffffffffffffffffff1673ffffffffffffffffffffffffffffffffffffffff1681526020016002820160149054906101000a900460ff161515151581526020016002820160159054906101000a900460ff16151515158152602001600382018054600181600116156101000203166002900480601f0160208091040260200160405190810160405280929190818152602001828054600181600116156101000203166002900480156136a55780601f1061367a576101008083540402835291602001916136a5565b820191906000526020600020905b81548152906001019060200180831161368857829003601f168201915b505050505081526020016004820160009054906101000a900473ffffffffffffffffffffffffffffffffffffffff1673ffffffffffffffffffffffffffffffffffffffff1673ffffffffffffffffffffffffffffffffffffffff168152602001600582015481526020016006820160009054906101000a900460ff16600781111561372c57fe5b600781111561373757fe5b8152602001600782015481526020016008820154815250509050806080015115801561376557508060600151155b151561377057600080fd5b61377b86858561415a565b600560009054906101000a900473ffffffffffffffffffffffffffffffffffffffff1673ffffffffffffffffffffffffffffffffffffffff1663078f4ca2308888888860066040518763ffffffff167c0100000000000000000000000000000000000000000000000000000000028152600401808773ffffffffffffffffffffffffffffffffffffffff1673ffffffffffffffffffffffffffffffffffffffff1681526020018673ffffffffffffffffffffffffffffffffffffffff1673ffffffffffffffffffffffffffffffffffffffff168152602001806020018573ffffffffffffffffffffffffffffffffffffffff1673ffffffffffffffffffffffffffffffffffffffff16815260200184815260200183600781111561389b57fe5b60ff168152602001828103825286818151815260200191508051906020019080838360005b838110156138db5780820151818401526020810190506138c0565b50505050905090810190601f1680156139085780820380516001836020036101000a031916815260200191505b50975050505050505050600060405180830381600087803b15801561392c57600080fd5b505af1158015613940573d6000803e3d6000fd5b505050506001915050949350505050565b600082821115151561395f57fe5b818303905092915050565b6000818301905082811015151561397d57fe5b80905092915050565b60008083141561399957600090506139b8565b81830290508183828115156139aa57fe5b041415156139b457fe5b8090505b92915050565b6139c6614cc6565b6000806000600a60003373ffffffffffffffffffffffffffffffffffffffff1673ffffffffffffffffffffffffffffffffffffffff16815260200190815260200160002061016060405190810160405290816000820160009054906101000a900473ffffffffffffffffffffffffffffffffffffffff1673ffffffffffffffffffffffffffffffffffffffff1673ffffffffffffffffffffffffffffffffffffffff168152602001600182015481526020016002820160009054906101000a900473ffffffffffffffffffffffffffffffffffffffff1673ffffffffffffffffffffffffffffffffffffffff1673ffffffffffffffffffffffffffffffffffffffff1681526020016002820160149054906101000a900460ff161515151581526020016002820160159054906101000a900460ff16151515158152602001600382018054600181600116156101000203166002900480601f016020809104026020016040519081016040528092919081815260200182805460018160011615610100020316600290048015613b9c5780601f10613b7157610100808354040283529160200191613b9c565b820191906000526020600020905b815481529060010190602001808311613b7f57829003601f168201915b505050505081526020016004820160009054906101000a900473ffffffffffffffffffffffffffffffffffffffff1673ffffffffffffffffffffffffffffffffffffffff1673ffffffffffffffffffffffffffffffffffffffff168152602001600582015481526020016006820160009054906101000a900460ff166007811115613c2357fe5b6007811115613c2e57fe5b8152602001600782015481526020016008820154815250509350600184606001901515908115158152505083600a60003373ffffffffffffffffffffffffffffffffffffffff1673ffffffffffffffffffffffffffffffffffffffff16815260200190815260200160002060008201518160000160006101000a81548173ffffffffffffffffffffffffffffffffffffffff021916908373ffffffffffffffffffffffffffffffffffffffff1602179055506020820151816001015560408201518160020160006101000a81548173ffffffffffffffffffffffffffffffffffffffff021916908373ffffffffffffffffffffffffffffffffffffffff16021790555060608201518160020160146101000a81548160ff02191690831515021790555060808201518160020160156101000a81548160ff02191690831515021790555060a0820151816003019080519060200190613d8d929190614d72565b5060c08201518160040160006101000a81548173ffffffffffffffffffffffffffffffffffffffff021916908373ffffffffffffffffffffffffffffffffffffffff16021790555060e082015181600501556101008201518160060160006101000a81548160ff02191690836007811115613e0457fe5b021790555061012082015181600701556101408201518160080155905050613e2f8460200151614ace565b9250600f60009054906101000a900473ffffffffffffffffffffffffffffffffffffffff1673ffffffffffffffffffffffffffffffffffffffff1663a9059cbb601660009054906101000a900473ffffffffffffffffffffffffffffffffffffffff16613ea76013548761398690919063ffffffff16565b6040518363ffffffff167c0100000000000000000000000000000000000000000000000000000000028152600401808373ffffffffffffffffffffffffffffffffffffffff1673ffffffffffffffffffffffffffffffffffffffff16815260200182815260200192505050602060405180830381600087803b158015613f2c57600080fd5b505af1158015613f40573d6000803e3d6000fd5b505050506040513d6020811015613f5657600080fd5b81019080805190602001909291905050501515613f7257600080fd5b83602001519150613fa16064613f938460195461398690919063ffffffff16565b61414490919063ffffffff16565b9050600f60009054906101000a900473ffffffffffffffffffffffffffffffffffffffff1673ffffffffffffffffffffffffffffffffffffffff1663a9059cbb600660009054906101000a900473ffffffffffffffffffffffffffffffffffffffff1661403d60135461402f866140218a8a61395190919063ffffffff16565b61395190919063ffffffff16565b61398690919063ffffffff16565b6040518363ffffffff167c0100000000000000000000000000000000000000000000000000000000028152600401808373ffffffffffffffffffffffffffffffffffffffff1673ffffffffffffffffffffffffffffffffffffffff16815260200182815260200192505050602060405180830381600087803b1580156140c257600080fd5b505af11580156140d6573d6000803e3d6000fd5b505050506040513d60208110156140ec57600080fd5b8101908080519060200190929190505050151561410857600080fd5b61412a84600001516141256013548461398690919063ffffffff16565b611dfe565b50505050565b600061413c8383614b19565b905092915050565b6000818381151561415157fe5b04905092915050565b614162614cc6565b600a60008573ffffffffffffffffffffffffffffffffffffffff1673ffffffffffffffffffffffffffffffffffffffff16815260200190815260200160002061016060405190810160405290816000820160009054906101000a900473ffffffffffffffffffffffffffffffffffffffff1673ffffffffffffffffffffffffffffffffffffffff1673ffffffffffffffffffffffffffffffffffffffff168152602001600182015481526020016002820160009054906101000a900473ffffffffffffffffffffffffffffffffffffffff1673ffffffffffffffffffffffffffffffffffffffff1673ffffffffffffffffffffffffffffffffffffffff1681526020016002820160149054906101000a900460ff161515151581526020016002820160159054906101000a900460ff16151515158152602001600382018054600181600116156101000203166002900480601f0160208091040260200160405190810160405280929190818152602001828054600181600116156101000203166002900480156143335780601f1061430857610100808354040283529160200191614333565b820191906000526020600020905b81548152906001019060200180831161431657829003601f168201915b505050505081526020016004820160009054906101000a900473ffffffffffffffffffffffffffffffffffffffff1673ffffffffffffffffffffffffffffffffffffffff1673ffffffffffffffffffffffffffffffffffffffff168152602001600582015481526020016006820160009054906101000a900460ff1660078111156143ba57fe5b60078111156143c557fe5b8152602001600782015481526020016008820154815250509050600181608001901515908115158152505080600a60008673ffffffffffffffffffffffffffffffffffffffff1673ffffffffffffffffffffffffffffffffffffffff16815260200190815260200160002060008201518160000160006101000a81548173ffffffffffffffffffffffffffffffffffffffff021916908373ffffffffffffffffffffffffffffffffffffffff1602179055506020820151816001015560408201518160020160006101000a81548173ffffffffffffffffffffffffffffffffffffffff021916908373ffffffffffffffffffffffffffffffffffffffff16021790555060608201518160020160146101000a81548160ff02191690831515021790555060808201518160020160156101000a81548160ff02191690831515021790555060a0820151816003019080519060200190614524929190614d72565b5060c08201518160040160006101000a81548173ffffffffffffffffffffffffffffffffffffffff021916908373ffffffffffffffffffffffffffffffffffffffff16021790555060e082015181600501556101008201518160060160006101000a81548160ff0219169083600781111561459b57fe5b0217905550610120820151816007015561014082015181600801559050506145c282612570565b50600f60009054906101000a900473ffffffffffffffffffffffffffffffffffffffff1673ffffffffffffffffffffffffffffffffffffffff1663a9059cbb8561461b601354856020015161398690919063ffffffff16565b6040518363ffffffff167c0100000000000000000000000000000000000000000000000000000000028152600401808373ffffffffffffffffffffffffffffffffffffffff1673ffffffffffffffffffffffffffffffffffffffff16815260200182815260200192505050602060405180830381600087803b1580156146a057600080fd5b505af11580156146b4573d6000803e3d6000fd5b505050506040513d60208110156146ca57600080fd5b810190808051906020019092919050505015156146e657600080fd5b50505050565b60006146f6614cc6565b60008311151561470557600080fd5b600f60009054906101000a900473ffffffffffffffffffffffffffffffffffffffff1673ffffffffffffffffffffffffffffffffffffffff166323b872dd3330866040518463ffffffff167c0100000000000000000000000000000000000000000000000000000000028152600401808473ffffffffffffffffffffffffffffffffffffffff1673ffffffffffffffffffffffffffffffffffffffff1681526020018373ffffffffffffffffffffffffffffffffffffffff1673ffffffffffffffffffffffffffffffffffffffff1681526020018281526020019350505050602060405180830381600087803b1580156147fe57600080fd5b505af1158015614812573d6000803e3d6000fd5b505050506040513d602081101561482857600080fd5b8101908080519060200190929190505050151561484457600080fd5b60019150610160604051908101604052808773ffffffffffffffffffffffffffffffffffffffff1681526020018481526020013373ffffffffffffffffffffffffffffffffffffffff1681526020016000151581526020016000151581526020018681526020018573ffffffffffffffffffffffffffffffffffffffff168152602001838152602001600660078111156148da57fe5b8152602001428152602001603c601754024201815250905081600c5403600c8190555080600a60003373ffffffffffffffffffffffffffffffffffffffff1673ffffffffffffffffffffffffffffffffffffffff16815260200190815260200160002060008201518160000160006101000a81548173ffffffffffffffffffffffffffffffffffffffff021916908373ffffffffffffffffffffffffffffffffffffffff1602179055506020820151816001015560408201518160020160006101000a81548173ffffffffffffffffffffffffffffffffffffffff021916908373ffffffffffffffffffffffffffffffffffffffff16021790555060608201518160020160146101000a81548160ff02191690831515021790555060808201518160020160156101000a81548160ff02191690831515021790555060a0820151816003019080519060200190614a31929190614d72565b5060c08201518160040160006101000a81548173ffffffffffffffffffffffffffffffffffffffff021916908373ffffffffffffffffffffffffffffffffffffffff16021790555060e082015181600501556101008201518160060160006101000a81548160ff02191690836007811115614aa857fe5b021790555061012082015181600701556101408201518160080155905050505050505050565b60008060006018541115614b0e57614b046064614af66018548661398690919063ffffffff16565b61414490919063ffffffff16565b9050809150614b13565b600091505b50919050565b600081600c5410151515614b2c57600080fd5b600d60009054906101000a900473ffffffffffffffffffffffffffffffffffffffff1673ffffffffffffffffffffffffffffffffffffffff1660405160200180807f7472616e7366657228616464726573732c75696e74323536290000000000000081525060190190506040516020818303038152906040526040518082805190602001908083835b602083101515614bda5780518252602082019150602081019050602083039250614bb5565b6001836020036101000a03801982511681845116808217855250505050505090500191505060405180910390207c0100000000000000000000000000000000000000000000000000000000900484846040518363ffffffff167c0100000000000000000000000000000000000000000000000000000000028152600401808373ffffffffffffffffffffffffffffffffffffffff1673ffffffffffffffffffffffffffffffffffffffff168152602001828152602001925050506000604051808303816000875af1925050501515614cb157600080fd5b81600c5403600c819055506001905092915050565b61016060405190810160405280600073ffffffffffffffffffffffffffffffffffffffff16815260200160008152602001600073ffffffffffffffffffffffffffffffffffffffff16815260200160001515815260200160001515815260200160608152602001600073ffffffffffffffffffffffffffffffffffffffff1681526020016000815260200160006007811115614d5e57fe5b815260200160008152602001600081525090565b828054600181600116156101000203166002900490600052602060002090601f016020900481019282601f10614db357805160ff1916838001178555614de1565b82800160010185558215614de1579182015b82811115614de0578251825591602001919060010190614dc5565b5b509050614dee9190614df2565b5090565b614e1491905b80821115614e10576000816000905550600101614df8565b5090565b905600a165627a7a72305820607622f2ab93c19f2e2c7cd8c3548f30f8c45733074803de99af55012020f9870029",
  "source": "pragma solidity ^0.4.24;\n\nimport '../openzeppelin-solidity/contracts/math/SafeMath.sol';\nimport \"./TwoKeyTypes.sol\";\nimport \"./TwoKeyCampaignARC.sol\";\nimport \"./TwoKeyEventSource.sol\";\nimport \"./TwoKeyWhitelisted.sol\";\nimport './TwoKeyEconomy.sol';\nimport \"../interfaces/IERC20.sol\";\nimport \"./TwoKeySignedContract.sol\";\n\n/// @author Nikola Madjarevic\n/// Contract which will represent campaign for the fungible assets\ncontract TwoKeyAcquisitionCampaignERC20 is TwoKeyCampaignARC, TwoKeyTypes {\n\n\n    // the 2key link generated by the owner of this contract contains a secret which is a private key,\n    // this is the public part of this secret\n    mapping(address => address)  public public_link_key;\n\n    function setPublicLinkKey(address _public_link_key) public {\n        address owner_influencer = msg.sender;\n        require(balanceOf(owner_influencer) > 0);\n        require(public_link_key[owner_influencer] == address(0));\n        public_link_key[owner_influencer] = _public_link_key;\n    }\n\n\n    /// @notice Event which will be emitted when conversion expire\n    event Expired(address indexed _contract);\n\n    /// @notice Event which will be emitted when fallback function is executed\n    event ReceivedEther(address _sender, uint value);\n\n    /// Using safemath to avoid overflows during math operations\n    using SafeMath for uint256;\n\n    /// Structure which will represent conversion\n    struct Conversion {\n        address from;\n        uint256 payout;\n        address converter;\n        bool isFulfilled;\n        bool isCancelled;\n        string assetName;\n        address assetContract;\n        uint256 amount;\n        CampaignType campaignType;\n        uint256 openingTime;\n        uint256 closingTime;\n    }\n\n\n    mapping (address => Conversion) public conversions;\n\n    /// Amount converter put to the contract in Ether\n    mapping (address => uint) balancesConvertersETH;\n\n    /// Balance will represent how many that tokens (erc20) we have on our Campaign\n    uint campaignInventoryUnitsBalance;\n\n    /// asset contract is address of that ERC20 inventory\n    address assetContract;\n\n    /// asset name is short name of the asset for example \"2key\"\n    string assetName;\n\n    TwoKeyEconomy twoKeyEconomy;\n    TwoKeyWhitelisted whitelistInfluencer;\n    TwoKeyWhitelisted whitelistConverter;\n\n\n    uint price; /// There's single price for the unit ERC20\n    uint256 rate; /// rate of conversion from TwoKey to ETH\n    uint openingTime;\n    uint closingTime;\n    address moderator;\n    uint256 expiryConversion; /// how long will hold asset in escrow\n    uint256 escrowPercentage; /// percentage of payout to. be paid for moderator for escrow\n    uint256 maxPi;\n\n\n    constructor(address _twoKeyEventSource, address _twoKeyEconomy,\n                address _whitelistInfluencer, address _whitelistConverter,\n                address _contractor, address _moderator, uint _openingTime, uint _closingTime,\n                    uint _expiryConversion, uint _escrowPercentage, uint _rate, uint _maxPi) TwoKeyCampaignARC(_twoKeyEventSource, _contractor)StandardToken()\n            public {\n                require(_twoKeyEconomy != address(0));\n                require(_whitelistInfluencer != address(0));\n                require(_whitelistConverter != address(0));\n                require(_rate > 0);\n                require(_maxPi > 0);\n\n\n                twoKeyEconomy = TwoKeyEconomy(_twoKeyEconomy);\n                whitelistInfluencer = TwoKeyWhitelisted(_whitelistInfluencer);\n                whitelistConverter = TwoKeyWhitelisted(_whitelistConverter);\n\n                moderator = _moderator;\n                openingTime = _openingTime;\n                closingTime = _closingTime;\n                expiryConversion = _expiryConversion;\n                escrowPercentage = _escrowPercentage;\n                maxPi = _maxPi;\n\n                // Emit event that TwoKeyCampaign is created\n                twoKeyEventSource.created(address(this), contractor);\n    }\n\n\n    /// @notice Function to add asset contract of specific ERC20\n    /// @param _assetContract of that asset Contract\n    function addAssetContractERC20(address _assetContract) public {\n        assetContract = _assetContract;\n    }\n\n    /// @notice Modifier which is going to check if current time is between opening-closing campaign time\n    modifier isOngoing() {\n        require(block.timestamp >= openingTime && block.timestamp <= closingTime);\n        _;\n    }\n\n    /// @notice Modifier which is going to check if campaign is closed (if time is greater then closing time)\n    modifier isClosed() {\n        require(now > closingTime);\n        _;\n    }\n\n    /// @notice Modifier to check is the influencer eligible for participation in campaign\n    modifier isWhiteListedInfluencer() {\n        require(whitelistInfluencer.isWhitelisted(msg.sender));\n        _;\n    }\n\n    /// @notice Modifier to check is the converter eligible for participation in conversion\n    modifier isWhitelistedConverter() {\n        require(whitelistConverter.isWhitelisted(msg.sender));\n        _;\n    }\n\n\n    /// @notice Modifier to check if the Converter did the conversion\n    modifier didConverterConvert() {\n        Conversion memory c = conversions[msg.sender];\n        require(!c.isFulfilled && !c.isCancelled);\n        _;\n    }\n\n\n    /// @notice Method to add fungible asset to our contract\n    /// @dev When user calls this method, he just says the actual amount of ERC20 he'd like to transfer to us\n    /// @param _amount is the amount of ERC20 contract he'd like to give us\n    /// @return true if successful, otherwise transaction will revert\n    function addFungibleAsset(uint256 _amount) public returns (bool) {\n        require(\n            assetContract.call(\n                bytes4(keccak256(\"transferFrom(address,address,uint256)\")),\n                msg.sender,\n                address(this),\n                _amount\n            )\n        );\n        campaignInventoryUnitsBalance += _amount;\n        return true;\n    }\n\n    /// @notice Function to check balance of the ERC20 inventory (view - no gas needed to call this function)\n    /// @dev we're using interface of ERC20 and fetching the balance of this contract address\n    /// @return balance value as uint\n    function checkInventoryBalance() public view returns (uint) {\n        uint balance = IERC20(assetContract).balanceOf(address(this));\n        return balance;\n    }\n\n    /// @notice Function which will check the balance and automatically update the balance in our contract regarding balance response\n    /// @return balance of ERC20 we have in our contract\n    function checkAndUpdateInventoryBalance() public returns (uint) {\n        uint balance = checkInventoryBalance();\n        campaignInventoryUnitsBalance = balance;\n        return balance;\n    }\n\n    /// @notice Move some amount of ERC20 from our campaignInventoryUnitsBalance to someone\n    /// @dev internal function\n    /// @param _to address we're sending the amount of ERC20\n    /// @param _amount is the amount of ERC20's we're going to transfer\n    /// @return true if successful, otherwise reverts\n    function moveFungibleAsset(address _to, uint256 _amount) internal returns (bool) {\n        require(campaignInventoryUnitsBalance >= _amount);\n        require(\n            assetContract.call(\n                bytes4(keccak256(abi.encodePacked(\"transfer(address,uint256)\"))),\n                _to, _amount\n            )\n        );\n        campaignInventoryUnitsBalance = campaignInventoryUnitsBalance - _amount;\n        return true;\n    }\n\n    // transfer an amount of erc20 from our catalogue to someone\n    // This should be called when conversion is executed\n    // Refactor!\n    /// @notice Function which will transfer fungible assets from contract to someone\n    /// @param _to is the address we're sending the fungible assets\n    /// @param _amount is the amount of ERC20 we're going to transfer\n    /// @return true if trasaction completes otherwise transaction will revert\n    function transferFungibleAsset(address _to, uint256 _amount) internal returns (bool) {\n        return moveFungibleAsset(_to, _amount);\n    }\n\n    // TODO: Udis code which sends rewards etc get it\n    // TODO: Expiry of conversion event (Two-steps for conversion user puts in ether, and converter being approved by KYC)\n    // TODO: When conversion happens, there's timeout where converter can be approved, otherwise everything's transfered to contractor\n\n    /// I wanna pay for something with TwoKey tokens\n    /// Amount should be the amount of twokey tokens\n    /// tokenID -> assetName\n    /// Acquisition campaign is campaign which is selling something which can be bought with 2key or ETH\n    function fulfillFungibleTwoKeyToken(address _from, string _assetName, address _assetContract, uint256 _amount)  internal {\n        require(_amount > 0);\n        // require(price > 0);\n//        uint256 payout = price.mul(_amount).mul(rate);\n\n        /// Make sure that the payment has been sent\n        require(twoKeyEconomy.transferFrom(msg.sender, this, _amount));\n\n        /// compute how many units he can buy with amount of twokey\n        /// TODO: Where's this defined, where's price defined\n        uint units = 1;\n\n        Conversion memory c = Conversion(_from, _amount, msg.sender, false, false, _assetName, _assetContract, units, CampaignType.CPA_FUNGIBLE, now, now + expiryConversion * 1 minutes);\n        // move funds\n        campaignInventoryUnitsBalance = campaignInventoryUnitsBalance - units;\n//        twoKeyEventSource.escrow(address(this), msg.sender, _assetName, _assetContract, units, CampaignType.CPA_FUNGIBLE);\n        conversions[msg.sender] = c;\n    }\n\n    function fulfillFungibleETH(\n        address _from,\n        uint256 _amountETH\n        ) isOngoing internal {\n        uint _amount = msg.value;\n        // TODO: Idea is that payout is msg.value\n        // Compute for the amount of ether how much tokens can be got by the amount\n        require(_amount > 0);\n//        require(price > 0);\n        uint payout = 1;\n//        uint256 payout = price.mul(_amount);\n        require(msg.value == payout);\n        //TODO: Someone put 100 eth and he's entitled to X base + Y bonus  = (X+Y) taken from Inventory\n        //TODO: Take the msg.value, and regarding value I compute number of base and bonus tokens - sum of base and bonus is took out of the twoKeyCampaignInvent\n        Conversion memory c = Conversion(_from, payout, msg.sender, false, false, assetName, assetContract, _amount, CampaignType.CPA_FUNGIBLE, now, now + expiryConversion * 1 days);\n\n\n        // move funds\n        // rename to remove from inventory\n        campaignInventoryUnitsBalance = campaignInventoryUnitsBalance - _amount;\n        //\t\tremoveFungibleAssets(_tokenID, _assetContract, _amount);\n\n        //tokenID can be string specifying the name of token (\"ETH\", \"BTC\",etc)\n        // value in escrow (msg.value), total amount of tokens\n//        twoKeyEventSource.escrow(address(this), msg.sender, _assetName, _assetContract, _amount, CampaignType.CPA_FUNGIBLE);\n        conversions[msg.sender] = c;\n    }\n\n\n    function buyFromWithTwoKey(address _from, string _assetName, address _assetContract, uint256 _amount) public payable {\n        fulfillFungibleTwoKeyToken(_from, _assetName, _assetContract, _amount);\n    }\n\n    /**\n     * given the total payout, calculates the moderator fee\n     * @param  _payout total payout for escrow\n     * @return moderator fee\n     */\n    function calculateModeratorFee(uint256 _payout) internal view returns (uint256)  {\n        if (escrowPercentage > 0) { // send the fee to moderator\n            uint256 fee = _payout.mul(escrowPercentage).div(100);\n            return fee;\n        }\n        return 0;\n    }\n\n\n    function transferAssetTwoKeyToken(uint256 _tokenID, address _assetContract, uint256 _amount) isWhitelistedConverter didConverterConvert public {\n        actuallyFulfilledTwoKeyToken();\n        require(transferFungibleAsset(msg.sender, _amount));\n    }\n\n\n    function cancelledEscrow(address _converter, address _assetContract, uint256 _amount) internal {\n        Conversion memory c = conversions[_converter];\n        c.isCancelled = true;\n        conversions[_converter] = c;\n        addFungibleAsset(_amount);\n        require(twoKeyEconomy.transfer(_converter, (c.payout).mul(rate)));\n    }\n\n\n    function cancelAssetTwoKey(address _converter, string _assetName, address _assetContract, uint256 _amount)  public returns (bool) {\n        Conversion memory c = conversions[_converter];\n        require(!c.isCancelled && !c.isFulfilled);\n        cancelledEscrow(_converter, _assetContract, _amount);\n        twoKeyEventSource.cancelled(address(this), _converter, _assetName, _assetContract, _amount, CampaignType.CPA_FUNGIBLE);\n\n        return true;\n    }\n\n\n    //onlyRole(ROLE_CONTROLLER) - comment\n    function expireEscrow(address _converter,address _assetContract, uint256 _amount) public returns (bool) {\n        Conversion memory c = conversions[_converter];\n        require(!c.isCancelled && !c.isFulfilled);\n        require(now > c.closingTime);\n        cancelledEscrow(_converter, _assetContract, _amount);\n        emit Expired(address(this));\n        return true;\n    }\n\n    function actuallyFulfilledTwoKeyToken() internal {\n        Conversion memory c = conversions[msg.sender];\n        c.isFulfilled = true;\n        conversions[msg.sender] = c;\n        uint256 fee = calculateModeratorFee(c.payout);\n\n        require(twoKeyEconomy.transfer(moderator, fee.mul(rate)));\n\n        uint256 payout = c.payout;\n        uint256 maxReward = maxPi.mul(payout).div(100);\n\n        // transfer payout - fee - rewards to seller\n        require(twoKeyEconomy.transfer(contractor, (payout.sub(fee).sub(maxReward)).mul(rate)));\n\n        transferRewardsTwoKeyToken(c.from, maxReward.mul(rate));\n//        twoKeyEventSource.fulfilled(address(this), c.converter, c.tokenID, c.assetContract, c.indexOrAmount, c.campaignType);\n    }\n\n    // @notice Function where an influencer that wishes to cash an _amount of 2key from the campaign can do it\n    function redeemTwoKeyToken(uint256 _amount) public {\n        require(xbalancesTwoKey[msg.sender] >= _amount && _amount > 0);\n        xbalancesTwoKey[msg.sender] = xbalancesTwoKey[msg.sender].sub(_amount);\n        twoKeyEconomy.transferFrom(this, msg.sender, _amount);\n    }\n\n    /// @notice (Fallback)Payable function which will accept all transactions which are sending ether to contract\n    /// @dev we require that msg.value is greater than 0\n    /// @dev function will update the mapping balances where we're mapping how much ether has been sent to contract from specified address\n    /// @dev will emit an event with address and value sent\n    function () external payable {\n        require(msg.value > 0);\n        balancesConvertersETH[msg.sender] += msg.value;\n//        fulfillFungibleETH(from, msg.value);\n        emit ReceivedEther(msg.sender, msg.value);\n    }\n\n    /// @notice Function to check how much eth has been sent to contract from address\n    /// @param _from is the address we'd like to check balance\n    /// @return amount of ether sent to contract from the specified address\n    function checkAmountAddressSent(address _from) public view returns (uint) {\n        return balancesConvertersETH[_from];\n    }\n\n    /// @notice Function to check contract balance of specified ERC20 tokens\n    /// @return balance\n    function getContractBalance() public view returns(uint) {\n        return campaignInventoryUnitsBalance;\n    }\n\n    /// @notice View function to fetch the address of asset contract\n    /// @return address of that asset contract\n    function getAssetContractAddress() public view returns(address) {\n        return assetContract;\n    }\n\n}\n",
  "sourcePath": "/Users/aydnep/2key/contracts/contracts/2key/TwoKeyAcquisitionCampaignERC20.sol",
  "compiler": {
    "name": "solc",
    "version": "0.4.24+commit.e67f0147.Emscripten.clang"
  },
  "schemaVersion": "2.0.1",
  "updatedAt": "2018-09-05T08:15:51.378Z"
}