{
  "contractName": "TwoKeyPresellContract",
  "abi": [
    {
      "constant": true,
      "inputs": [
        {
          "name": "",
          "type": "address"
        }
      ],
      "name": "units",
      "outputs": [
        {
          "name": "",
          "type": "uint256"
        }
      ],
      "payable": false,
      "stateMutability": "view",
      "type": "function"
    },
    {
      "constant": true,
      "inputs": [],
      "name": "name",
      "outputs": [
        {
          "name": "",
          "type": "string"
        }
      ],
      "payable": false,
      "stateMutability": "view",
      "type": "function"
    },
    {
      "constant": false,
      "inputs": [
        {
          "name": "_spender",
          "type": "address"
        },
        {
          "name": "_value",
          "type": "uint256"
        }
      ],
      "name": "approve",
      "outputs": [
        {
          "name": "",
          "type": "bool"
        }
      ],
      "payable": false,
      "stateMutability": "nonpayable",
      "type": "function"
    },
    {
      "constant": false,
      "inputs": [
        {
          "name": "_to",
          "type": "address"
        },
        {
          "name": "_value",
          "type": "uint256"
        }
      ],
      "name": "transferQuota",
      "outputs": [
        {
          "name": "",
          "type": "bool"
        }
      ],
      "payable": false,
      "stateMutability": "nonpayable",
      "type": "function"
    },
    {
      "constant": true,
      "inputs": [],
      "name": "cost",
      "outputs": [
        {
          "name": "",
          "type": "uint256"
        }
      ],
      "payable": false,
      "stateMutability": "view",
      "type": "function"
    },
    {
      "constant": true,
      "inputs": [],
      "name": "totalSupply",
      "outputs": [
        {
          "name": "",
          "type": "uint256"
        }
      ],
      "payable": false,
      "stateMutability": "view",
      "type": "function"
    },
    {
      "constant": false,
      "inputs": [
        {
          "name": "_from",
          "type": "address"
        },
        {
          "name": "_to",
          "type": "address"
        },
        {
          "name": "_value",
          "type": "uint256"
        }
      ],
      "name": "transferFrom",
      "outputs": [
        {
          "name": "",
          "type": "bool"
        }
      ],
      "payable": false,
      "stateMutability": "nonpayable",
      "type": "function"
    },
    {
      "constant": true,
      "inputs": [
        {
          "name": "",
          "type": "address"
        }
      ],
      "name": "xbalances",
      "outputs": [
        {
          "name": "",
          "type": "uint256"
        }
      ],
      "payable": false,
      "stateMutability": "view",
      "type": "function"
    },
    {
      "constant": true,
      "inputs": [
        {
          "name": "",
          "type": "address"
        }
      ],
      "name": "received_from",
      "outputs": [
        {
          "name": "",
          "type": "address"
        }
      ],
      "payable": false,
      "stateMutability": "view",
      "type": "function"
    },
    {
      "constant": true,
      "inputs": [],
      "name": "decimals",
      "outputs": [
        {
          "name": "",
          "type": "uint8"
        }
      ],
      "payable": false,
      "stateMutability": "view",
      "type": "function"
    },
    {
      "constant": false,
      "inputs": [
        {
          "name": "_from",
          "type": "address"
        },
        {
          "name": "_to",
          "type": "address"
        },
        {
          "name": "_value",
          "type": "uint256"
        }
      ],
      "name": "transferFromQuota",
      "outputs": [
        {
          "name": "",
          "type": "bool"
        }
      ],
      "payable": false,
      "stateMutability": "nonpayable",
      "type": "function"
    },
    {
      "constant": false,
      "inputs": [
        {
          "name": "_spender",
          "type": "address"
        },
        {
          "name": "_subtractedValue",
          "type": "uint256"
        }
      ],
      "name": "decreaseApproval",
      "outputs": [
        {
          "name": "",
          "type": "bool"
        }
      ],
      "payable": false,
      "stateMutability": "nonpayable",
      "type": "function"
    },
    {
      "constant": false,
      "inputs": [
        {
          "name": "_from",
          "type": "address"
        }
      ],
      "name": "buyFrom",
      "outputs": [],
      "payable": true,
      "stateMutability": "payable",
      "type": "function"
    },
    {
      "constant": true,
      "inputs": [
        {
          "name": "_owner",
          "type": "address"
        }
      ],
      "name": "balanceOf",
      "outputs": [
        {
          "name": "",
          "type": "uint256"
        }
      ],
      "payable": false,
      "stateMutability": "view",
      "type": "function"
    },
    {
      "constant": false,
      "inputs": [],
      "name": "renounceOwnership",
      "outputs": [],
      "payable": false,
      "stateMutability": "nonpayable",
      "type": "function"
    },
    {
      "constant": true,
      "inputs": [],
      "name": "getConstantInfo",
      "outputs": [
        {
          "name": "",
          "type": "string"
        },
        {
          "name": "",
          "type": "string"
        },
        {
          "name": "",
          "type": "uint256"
        },
        {
          "name": "",
          "type": "uint256"
        },
        {
          "name": "",
          "type": "uint256"
        },
        {
          "name": "",
          "type": "address"
        },
        {
          "name": "",
          "type": "string"
        },
        {
          "name": "",
          "type": "uint256"
        }
      ],
      "payable": false,
      "stateMutability": "view",
      "type": "function"
    },
    {
      "constant": false,
      "inputs": [
        {
          "name": "cut",
          "type": "uint256"
        }
      ],
      "name": "setCut",
      "outputs": [],
      "payable": false,
      "stateMutability": "nonpayable",
      "type": "function"
    },
    {
      "constant": true,
      "inputs": [],
      "name": "ipfs_hash",
      "outputs": [
        {
          "name": "",
          "type": "string"
        }
      ],
      "payable": false,
      "stateMutability": "view",
      "type": "function"
    },
    {
      "constant": true,
      "inputs": [],
      "name": "owner",
      "outputs": [
        {
          "name": "",
          "type": "address"
        }
      ],
      "payable": false,
      "stateMutability": "view",
      "type": "function"
    },
    {
      "constant": true,
      "inputs": [],
      "name": "bounty",
      "outputs": [
        {
          "name": "",
          "type": "uint256"
        }
      ],
      "payable": false,
      "stateMutability": "view",
      "type": "function"
    },
    {
      "constant": true,
      "inputs": [],
      "name": "symbol",
      "outputs": [
        {
          "name": "",
          "type": "string"
        }
      ],
      "payable": false,
      "stateMutability": "view",
      "type": "function"
    },
    {
      "constant": true,
      "inputs": [
        {
          "name": "",
          "type": "address"
        }
      ],
      "name": "influencer2cut",
      "outputs": [
        {
          "name": "",
          "type": "uint256"
        }
      ],
      "payable": false,
      "stateMutability": "view",
      "type": "function"
    },
    {
      "constant": false,
      "inputs": [
        {
          "name": "_to",
          "type": "address"
        },
        {
          "name": "_value",
          "type": "uint256"
        }
      ],
      "name": "transfer",
      "outputs": [
        {
          "name": "",
          "type": "bool"
        }
      ],
      "payable": false,
      "stateMutability": "nonpayable",
      "type": "function"
    },
    {
      "constant": true,
      "inputs": [
        {
          "name": "me",
          "type": "address"
        }
      ],
      "name": "getDynamicInfo",
      "outputs": [
        {
          "name": "",
          "type": "uint256"
        },
        {
          "name": "",
          "type": "uint256"
        },
        {
          "name": "",
          "type": "uint256"
        },
        {
          "name": "",
          "type": "uint256"
        },
        {
          "name": "",
          "type": "uint256"
        },
        {
          "name": "",
          "type": "uint256"
        },
        {
          "name": "",
          "type": "uint256"
        }
      ],
      "payable": false,
      "stateMutability": "view",
      "type": "function"
    },
    {
      "constant": true,
      "inputs": [],
      "name": "erc20_token_sell_contract",
      "outputs": [
        {
          "name": "",
          "type": "address"
        }
      ],
      "payable": false,
      "stateMutability": "view",
      "type": "function"
    },
    {
      "constant": false,
      "inputs": [],
      "name": "redeem",
      "outputs": [],
      "payable": false,
      "stateMutability": "nonpayable",
      "type": "function"
    },
    {
      "constant": true,
      "inputs": [],
      "name": "quota",
      "outputs": [
        {
          "name": "",
          "type": "uint256"
        }
      ],
      "payable": false,
      "stateMutability": "view",
      "type": "function"
    },
    {
      "constant": false,
      "inputs": [
        {
          "name": "_spender",
          "type": "address"
        },
        {
          "name": "_addedValue",
          "type": "uint256"
        }
      ],
      "name": "increaseApproval",
      "outputs": [
        {
          "name": "",
          "type": "bool"
        }
      ],
      "payable": false,
      "stateMutability": "nonpayable",
      "type": "function"
    },
    {
      "constant": true,
      "inputs": [
        {
          "name": "last_influencer",
          "type": "address"
        }
      ],
      "name": "getCuts",
      "outputs": [
        {
          "name": "",
          "type": "uint256[]"
        }
      ],
      "payable": false,
      "stateMutability": "view",
      "type": "function"
    },
    {
      "constant": true,
      "inputs": [
        {
          "name": "_owner",
          "type": "address"
        },
        {
          "name": "_spender",
          "type": "address"
        }
      ],
      "name": "allowance",
      "outputs": [
        {
          "name": "",
          "type": "uint256"
        }
      ],
      "payable": false,
      "stateMutability": "view",
      "type": "function"
    },
    {
      "constant": false,
      "inputs": [
        {
          "name": "_units",
          "type": "uint256"
        },
        {
          "name": "_bounty",
          "type": "uint256"
        }
      ],
      "name": "buyProductInternal",
      "outputs": [],
      "payable": true,
      "stateMutability": "payable",
      "type": "function"
    },
    {
      "constant": false,
      "inputs": [
        {
          "name": "_newOwner",
          "type": "address"
        }
      ],
      "name": "transferOwnership",
      "outputs": [],
      "payable": false,
      "stateMutability": "nonpayable",
      "type": "function"
    },
    {
      "inputs": [
        {
          "name": "_eventSource",
          "type": "address"
        },
        {
          "name": "_name",
          "type": "string"
        },
        {
          "name": "_symbol",
          "type": "string"
        },
        {
          "name": "_tSupply",
          "type": "uint256"
        },
        {
          "name": "_quota",
          "type": "uint256"
        },
        {
          "name": "_cost",
          "type": "uint256"
        },
        {
          "name": "_bounty",
          "type": "uint256"
        },
        {
          "name": "_ipfs_hash",
          "type": "string"
        },
        {
          "name": "_erc20_token_sell_contract",
          "type": "address"
        }
      ],
      "payable": false,
      "stateMutability": "nonpayable",
      "type": "constructor"
    },
    {
      "anonymous": false,
      "inputs": [
        {
          "indexed": true,
          "name": "to",
          "type": "address"
        },
        {
          "indexed": false,
          "name": "units",
          "type": "uint256"
        }
      ],
      "name": "Fulfilled",
      "type": "event"
    },
    {
      "anonymous": false,
      "inputs": [
        {
          "indexed": true,
          "name": "to",
          "type": "address"
        },
        {
          "indexed": false,
          "name": "amount",
          "type": "uint256"
        }
      ],
      "name": "Rewarded",
      "type": "event"
    },
    {
      "anonymous": false,
      "inputs": [
        {
          "indexed": false,
          "name": "s",
          "type": "string"
        },
        {
          "indexed": false,
          "name": "units",
          "type": "uint256"
        }
      ],
      "name": "Log1",
      "type": "event"
    },
    {
      "anonymous": false,
      "inputs": [
        {
          "indexed": false,
          "name": "s",
          "type": "string"
        },
        {
          "indexed": false,
          "name": "a",
          "type": "address"
        }
      ],
      "name": "Log1A",
      "type": "event"
    },
    {
      "anonymous": false,
      "inputs": [
        {
          "indexed": true,
          "name": "previousOwner",
          "type": "address"
        }
      ],
      "name": "OwnershipRenounced",
      "type": "event"
    },
    {
      "anonymous": false,
      "inputs": [
        {
          "indexed": true,
          "name": "previousOwner",
          "type": "address"
        },
        {
          "indexed": true,
          "name": "newOwner",
          "type": "address"
        }
      ],
      "name": "OwnershipTransferred",
      "type": "event"
    },
    {
      "anonymous": false,
      "inputs": [
        {
          "indexed": true,
          "name": "owner",
          "type": "address"
        },
        {
          "indexed": true,
          "name": "spender",
          "type": "address"
        },
        {
          "indexed": false,
          "name": "value",
          "type": "uint256"
        }
      ],
      "name": "Approval",
      "type": "event"
    },
    {
      "anonymous": false,
      "inputs": [
        {
          "indexed": true,
          "name": "from",
          "type": "address"
        },
        {
          "indexed": true,
          "name": "to",
          "type": "address"
        },
        {
          "indexed": false,
          "name": "value",
          "type": "uint256"
        }
      ],
      "name": "Transfer",
      "type": "event"
    },
    {
      "constant": true,
      "inputs": [],
      "name": "total_units",
      "outputs": [
        {
          "name": "",
          "type": "uint256"
        }
      ],
      "payable": false,
      "stateMutability": "view",
      "type": "function"
    },
    {
      "constant": false,
      "inputs": [],
      "name": "buyProduct",
      "outputs": [],
      "payable": true,
      "stateMutability": "payable",
      "type": "function"
    }
  ],
  "bytecode": "0x60806040526000600860006101000a81548160ff021916908360ff1602179055503480156200002d57600080fd5b50604051620040e5380380620040e583398101806040528101908080519060200190929190805182019291906020018051820192919060200180519060200190929190805190602001909291908051906020019092919080519060200190929190805182019291906020018051906020019092919050505033600360006101000a81548173ffffffffffffffffffffffffffffffffffffffff021916908373ffffffffffffffffffffffffffffffffffffffff160217905550838311151515620000f657600080fd5b87600590805190602001906200010e929190620005c5565b50866007908051906020019062000127929190620005c5565b508560018190555085600080600360009054906101000a900473ffffffffffffffffffffffffffffffffffffffff1673ffffffffffffffffffffffffffffffffffffffff1673ffffffffffffffffffffffffffffffffffffffff168152602001908152602001600020819055508360098190555082600a8190555084600b819055508160069080519060200190620001c1929190620005c5565b50600360009054906101000a900473ffffffffffffffffffffffffffffffffffffffff16600d6000600360009054906101000a900473ffffffffffffffffffffffffffffffffffffffff1673ffffffffffffffffffffffffffffffffffffffff1673ffffffffffffffffffffffffffffffffffffffff16815260200190815260200160002060006101000a81548173ffffffffffffffffffffffffffffffffffffffff021916908373ffffffffffffffffffffffffffffffffffffffff160217905550600073ffffffffffffffffffffffffffffffffffffffff168973ffffffffffffffffffffffffffffffffffffffff16141515620003f65788600460006101000a81548173ffffffffffffffffffffffffffffffffffffffff021916908373ffffffffffffffffffffffffffffffffffffffff160217905550600460009054906101000a900473ffffffffffffffffffffffffffffffffffffffff1673ffffffffffffffffffffffffffffffffffffffff1663d42efd83600360009054906101000a900473ffffffffffffffffffffffffffffffffffffffff166040518263ffffffff167c0100000000000000000000000000000000000000000000000000000000028152600401808273ffffffffffffffffffffffffffffffffffffffff1673ffffffffffffffffffffffffffffffffffffffff168152602001915050600060405180830381600087803b158015620003dc57600080fd5b505af1158015620003f1573d6000803e3d6000fd5b505050505b600073ffffffffffffffffffffffffffffffffffffffff168173ffffffffffffffffffffffffffffffffffffffff161415156200050f5780601160006101000a81548173ffffffffffffffffffffffffffffffffffffffff021916908373ffffffffffffffffffffffffffffffffffffffff160217905550620004e2601160009054906101000a900473ffffffffffffffffffffffffffffffffffffffff166040805190810160405280600a81526020017f646563696d616c7328290000000000000000000000000000000000000000000081525060006200051e640100000000026401000000009004565b600c819055506000600c5410151515620004fb57600080fd5b6012600c54111515156200050e57600080fd5b5b50505050505050505062000674565b600080836040518082805190602001908083835b60208310151562000559578051825260208201915060208101905060208303925062000532565b6001836020036101000a0380198251168184511680821785525050505050509050019150506040518091039020905060405181815283600482015260208160248360008a613a98f16000811415620005b057600080fd5b81519350602482016040525050509392505050565b828054600181600116156101000203166002900490600052602060002090601f016020900481019282601f106200060857805160ff191683800117855562000639565b8280016001018555821562000639579182015b82811115620006385782518255916020019190600101906200061b565b5b5090506200064891906200064c565b5090565b6200067191905b808211156200066d57600081600090555060010162000653565b5090565b90565b613a6180620006846000396000f3006080604052600436106101ab576000357c0100000000000000000000000000000000000000000000000000000000900463ffffffff168062eba350146101b057806306fdde0314610207578063095ea7b31461029757806311abc0ca146102fc57806313faede61461036157806318160ddd1461038c57806323b872dd146103b757806329d4a8ad1461043c5780632d376e9414610493578063313ce56714610516578063442e97dd1461054757806366188463146105cc578063691a3f641461063157806370a0823114610667578063715018a6146106be57806371e53aad146106d5578063727cdf871461088c578063809051db146108b95780638da5cb5b14610949578063943dfef1146109a057806395d89b41146109cb5780639ada9b7b14610a5b5780639dc464ae14610a65578063a9059cbb14610abc578063b4ad5fff14610b21578063b5c5314014610ba2578063be040fb014610bf9578063cebe09c914610c10578063d73dd62314610c3b578063d851b22914610ca0578063d87a761614610d38578063dd62ed3e14610d63578063e5fb849714610dda578063f2fde38b14610e04575b600080fd5b3480156101bc57600080fd5b506101f1600480360381019080803573ffffffffffffffffffffffffffffffffffffffff169060200190929190505050610e47565b6040518082815260200191505060405180910390f35b34801561021357600080fd5b5061021c610e5f565b6040518080602001828103825283818151815260200191508051906020019080838360005b8381101561025c578082015181840152602081019050610241565b50505050905090810190601f1680156102895780820380516001836020036101000a031916815260200191505b509250505060405180910390f35b3480156102a357600080fd5b506102e2600480360381019080803573ffffffffffffffffffffffffffffffffffffffff16906020019092919080359060200190929190505050610efd565b604051808215151515815260200191505060405180910390f35b34801561030857600080fd5b50610347600480360381019080803573ffffffffffffffffffffffffffffffffffffffff16906020019092919080359060200190929190505050610fef565b604051808215151515815260200191505060405180910390f35b34801561036d57600080fd5b50610376611224565b6040518082815260200191505060405180910390f35b34801561039857600080fd5b506103a161122a565b6040518082815260200191505060405180910390f35b3480156103c357600080fd5b50610422600480360381019080803573ffffffffffffffffffffffffffffffffffffffff169060200190929190803573ffffffffffffffffffffffffffffffffffffffff16906020019092919080359060200190929190505050611234565b604051808215151515815260200191505060405180910390f35b34801561044857600080fd5b5061047d600480360381019080803573ffffffffffffffffffffffffffffffffffffffff1690602001909291905050506115c7565b6040518082815260200191505060405180910390f35b34801561049f57600080fd5b506104d4600480360381019080803573ffffffffffffffffffffffffffffffffffffffff1690602001909291905050506115df565b604051808273ffffffffffffffffffffffffffffffffffffffff1673ffffffffffffffffffffffffffffffffffffffff16815260200191505060405180910390f35b34801561052257600080fd5b5061052b611612565b604051808260ff1660ff16815260200191505060405180910390f35b34801561055357600080fd5b506105b2600480360381019080803573ffffffffffffffffffffffffffffffffffffffff169060200190929190803573ffffffffffffffffffffffffffffffffffffffff16906020019092919080359060200190929190505050611625565b604051808215151515815260200191505060405180910390f35b3480156105d857600080fd5b50610617600480360381019080803573ffffffffffffffffffffffffffffffffffffffff169060200190929190803590602001909291905050506119f5565b604051808215151515815260200191505060405180910390f35b610665600480360381019080803573ffffffffffffffffffffffffffffffffffffffff169060200190929190505050611c87565b005b34801561067357600080fd5b506106a8600480360381019080803573ffffffffffffffffffffffffffffffffffffffff169060200190929190505050611cf2565b6040518082815260200191505060405180910390f35b3480156106ca57600080fd5b506106d3611d3a565b005b3480156106e157600080fd5b506106ea611e3f565b6040518080602001806020018981526020018881526020018781526020018673ffffffffffffffffffffffffffffffffffffffff1673ffffffffffffffffffffffffffffffffffffffff1681526020018060200185815260200184810384528c818151815260200191508051906020019080838360005b8381101561077c578082015181840152602081019050610761565b50505050905090810190601f1680156107a95780820380516001836020036101000a031916815260200191505b5084810383528b818151815260200191508051906020019080838360005b838110156107e25780820151818401526020810190506107c7565b50505050905090810190601f16801561080f5780820380516001836020036101000a031916815260200191505b50848103825286818151815260200191508051906020019080838360005b8381101561084857808201518184015260208101905061082d565b50505050905090810190601f1680156108755780820380516001836020036101000a031916815260200191505b509b50505050505050505050505060405180910390f35b34801561089857600080fd5b506108b76004803603810190808035906020019092919050505061206f565b005b3480156108c557600080fd5b506108ce612132565b6040518080602001828103825283818151815260200191508051906020019080838360005b8381101561090e5780820151818401526020810190506108f3565b50505050905090810190601f16801561093b5780820380516001836020036101000a031916815260200191505b509250505060405180910390f35b34801561095557600080fd5b5061095e6121d0565b604051808273ffffffffffffffffffffffffffffffffffffffff1673ffffffffffffffffffffffffffffffffffffffff16815260200191505060405180910390f35b3480156109ac57600080fd5b506109b56121f6565b6040518082815260200191505060405180910390f35b3480156109d757600080fd5b506109e06121fc565b6040518080602001828103825283818151815260200191508051906020019080838360005b83811015610a20578082015181840152602081019050610a05565b50505050905090810190601f168015610a4d5780820380516001836020036101000a031916815260200191505b509250505060405180910390f35b610a6361229a565b005b348015610a7157600080fd5b50610aa6600480360381019080803573ffffffffffffffffffffffffffffffffffffffff1690602001909291905050506125e2565b6040518082815260200191505060405180910390f35b348015610ac857600080fd5b50610b07600480360381019080803573ffffffffffffffffffffffffffffffffffffffff169060200190929190803590602001909291905050506125fa565b604051808215151515815260200191505060405180910390f35b348015610b2d57600080fd5b50610b62600480360381019080803573ffffffffffffffffffffffffffffffffffffffff1690602001909291905050506128cd565b6040518088815260200187815260200186815260200185815260200184815260200183815260200182815260200197505050505050505060405180910390f35b348015610bae57600080fd5b50610bb76129dd565b604051808273ffffffffffffffffffffffffffffffffffffffff1673ffffffffffffffffffffffffffffffffffffffff16815260200191505060405180910390f35b348015610c0557600080fd5b50610c0e612a03565b005b348015610c1c57600080fd5b50610c25612b6d565b6040518082815260200191505060405180910390f35b348015610c4757600080fd5b50610c86600480360381019080803573ffffffffffffffffffffffffffffffffffffffff16906020019092919080359060200190929190505050612b73565b604051808215151515815260200191505060405180910390f35b348015610cac57600080fd5b50610ce1600480360381019080803573ffffffffffffffffffffffffffffffffffffffff169060200190929190505050612d6f565b6040518080602001828103825283818151815260200191508051906020019060200280838360005b83811015610d24578082015181840152602081019050610d09565b505050509050019250505060405180910390f35b348015610d4457600080fd5b50610d4d612eb6565b6040518082815260200191505060405180910390f35b348015610d6f57600080fd5b50610dc4600480360381019080803573ffffffffffffffffffffffffffffffffffffffff169060200190929190803573ffffffffffffffffffffffffffffffffffffffff169060200190929190505050612f3a565b6040518082815260200191505060405180910390f35b610e026004803603810190808035906020019092919080359060200190929190505050612fc1565b005b348015610e1057600080fd5b50610e45600480360381019080803573ffffffffffffffffffffffffffffffffffffffff1690602001909291905050506135c5565b005b600f6020528060005260406000206000915090505481565b60058054600181600116156101000203166002900480601f016020809104026020016040519081016040528092919081815260200182805460018160011615610100020316600290048015610ef55780601f10610eca57610100808354040283529160200191610ef5565b820191906000526020600020905b815481529060010190602001808311610ed857829003601f168201915b505050505081565b600081600260003373ffffffffffffffffffffffffffffffffffffffff1673ffffffffffffffffffffffffffffffffffffffff16815260200190815260200160002060008573ffffffffffffffffffffffffffffffffffffffff1673ffffffffffffffffffffffffffffffffffffffff168152602001908152602001600020819055508273ffffffffffffffffffffffffffffffffffffffff163373ffffffffffffffffffffffffffffffffffffffff167f8c5be1e5ebec7d5bd14f71427d1e84f3dd0314c0f7b2291e5b200ac8c7c3b925846040518082815260200191505060405180910390a36001905092915050565b60008073ffffffffffffffffffffffffffffffffffffffff168373ffffffffffffffffffffffffffffffffffffffff161415151561102c57600080fd5b6000803373ffffffffffffffffffffffffffffffffffffffff1673ffffffffffffffffffffffffffffffffffffffff16815260200190815260200160002054821115151561107957600080fd5b6110ca826000803373ffffffffffffffffffffffffffffffffffffffff1673ffffffffffffffffffffffffffffffffffffffff1681526020019081526020016000205461362d90919063ffffffff16565b6000803373ffffffffffffffffffffffffffffffffffffffff1673ffffffffffffffffffffffffffffffffffffffff16815260200190815260200160002081905550611161600b5483026000808673ffffffffffffffffffffffffffffffffffffffff1673ffffffffffffffffffffffffffffffffffffffff1681526020019081526020016000205461364690919063ffffffff16565b6000808573ffffffffffffffffffffffffffffffffffffffff1673ffffffffffffffffffffffffffffffffffffffff168152602001908152602001600020819055506001600b54038202600154016001819055508273ffffffffffffffffffffffffffffffffffffffff163373ffffffffffffffffffffffffffffffffffffffff167fddf252ad1be2c89b69c2b068fc378daa952ba7f163c4a11628f55a4df523b3ef846040518082815260200191505060405180910390a36001905092915050565b60095481565b6000600154905090565b600080600d60008573ffffffffffffffffffffffffffffffffffffffff1673ffffffffffffffffffffffffffffffffffffffff16815260200190815260200160002060009054906101000a900473ffffffffffffffffffffffffffffffffffffffff1673ffffffffffffffffffffffffffffffffffffffff161415156112b957600080fd5b600073ffffffffffffffffffffffffffffffffffffffff168473ffffffffffffffffffffffffffffffffffffffff16141515156112f557600080fd5b6001600260008673ffffffffffffffffffffffffffffffffffffffff1673ffffffffffffffffffffffffffffffffffffffff16815260200190815260200160002060003373ffffffffffffffffffffffffffffffffffffffff1673ffffffffffffffffffffffffffffffffffffffff16815260200190815260200160002081905550611382848484611625565b156115bb576000600d60008573ffffffffffffffffffffffffffffffffffffffff1673ffffffffffffffffffffffffffffffffffffffff16815260200190815260200160002060009054906101000a900473ffffffffffffffffffffffffffffffffffffffff1673ffffffffffffffffffffffffffffffffffffffff16141561153457600073ffffffffffffffffffffffffffffffffffffffff16600460009054906101000a900473ffffffffffffffffffffffffffffffffffffffff1673ffffffffffffffffffffffffffffffffffffffff1614151561153357600460009054906101000a900473ffffffffffffffffffffffffffffffffffffffff1673ffffffffffffffffffffffffffffffffffffffff1663f887d019846040518263ffffffff167c0100000000000000000000000000000000000000000000000000000000028152600401808273ffffffffffffffffffffffffffffffffffffffff1673ffffffffffffffffffffffffffffffffffffffff168152602001915050600060405180830381600087803b15801561151a57600080fd5b505af115801561152e573d6000803e3d6000fd5b505050505b5b83600d60008573ffffffffffffffffffffffffffffffffffffffff1673ffffffffffffffffffffffffffffffffffffffff16815260200190815260200160002060006101000a81548173ffffffffffffffffffffffffffffffffffffffff021916908373ffffffffffffffffffffffffffffffffffffffff160217905550600190506115c0565b600090505b9392505050565b600e6020528060005260406000206000915090505481565b600d6020528060005260406000206000915054906101000a900473ffffffffffffffffffffffffffffffffffffffff1681565b600860009054906101000a900460ff1681565b60008073ffffffffffffffffffffffffffffffffffffffff168373ffffffffffffffffffffffffffffffffffffffff161415151561166257600080fd5b6000808573ffffffffffffffffffffffffffffffffffffffff1673ffffffffffffffffffffffffffffffffffffffff1681526020019081526020016000205482111515156116af57600080fd5b600260008573ffffffffffffffffffffffffffffffffffffffff1673ffffffffffffffffffffffffffffffffffffffff16815260200190815260200160002060003373ffffffffffffffffffffffffffffffffffffffff1673ffffffffffffffffffffffffffffffffffffffff16815260200190815260200160002054821115151561173a57600080fd5b61178b826000808773ffffffffffffffffffffffffffffffffffffffff1673ffffffffffffffffffffffffffffffffffffffff1681526020019081526020016000205461362d90919063ffffffff16565b6000808673ffffffffffffffffffffffffffffffffffffffff1673ffffffffffffffffffffffffffffffffffffffff16815260200190815260200160002081905550611822600b5483026000808673ffffffffffffffffffffffffffffffffffffffff1673ffffffffffffffffffffffffffffffffffffffff1681526020019081526020016000205461364690919063ffffffff16565b6000808573ffffffffffffffffffffffffffffffffffffffff1673ffffffffffffffffffffffffffffffffffffffff168152602001908152602001600020819055506001600b540382026001540160018190555061190582600260008773ffffffffffffffffffffffffffffffffffffffff1673ffffffffffffffffffffffffffffffffffffffff16815260200190815260200160002060003373ffffffffffffffffffffffffffffffffffffffff1673ffffffffffffffffffffffffffffffffffffffff1681526020019081526020016000205461362d90919063ffffffff16565b600260008673ffffffffffffffffffffffffffffffffffffffff1673ffffffffffffffffffffffffffffffffffffffff16815260200190815260200160002060003373ffffffffffffffffffffffffffffffffffffffff1673ffffffffffffffffffffffffffffffffffffffff168152602001908152602001600020819055508273ffffffffffffffffffffffffffffffffffffffff168473ffffffffffffffffffffffffffffffffffffffff167fddf252ad1be2c89b69c2b068fc378daa952ba7f163c4a11628f55a4df523b3ef846040518082815260200191505060405180910390a3600190509392505050565b600080600260003373ffffffffffffffffffffffffffffffffffffffff1673ffffffffffffffffffffffffffffffffffffffff16815260200190815260200160002060008573ffffffffffffffffffffffffffffffffffffffff1673ffffffffffffffffffffffffffffffffffffffff1681526020019081526020016000205490508083101515611b07576000600260003373ffffffffffffffffffffffffffffffffffffffff1673ffffffffffffffffffffffffffffffffffffffff16815260200190815260200160002060008673ffffffffffffffffffffffffffffffffffffffff1673ffffffffffffffffffffffffffffffffffffffff16815260200190815260200160002081905550611b9b565b611b1a838261362d90919063ffffffff16565b600260003373ffffffffffffffffffffffffffffffffffffffff1673ffffffffffffffffffffffffffffffffffffffff16815260200190815260200160002060008673ffffffffffffffffffffffffffffffffffffffff1673ffffffffffffffffffffffffffffffffffffffff168152602001908152602001600020819055505b8373ffffffffffffffffffffffffffffffffffffffff163373ffffffffffffffffffffffffffffffffffffffff167f8c5be1e5ebec7d5bd14f71427d1e84f3dd0314c0f7b2291e5b200ac8c7c3b925600260003373ffffffffffffffffffffffffffffffffffffffff1673ffffffffffffffffffffffffffffffffffffffff16815260200190815260200160002060008873ffffffffffffffffffffffffffffffffffffffff1673ffffffffffffffffffffffffffffffffffffffff168152602001908152602001600020546040518082815260200191505060405180910390a3600191505092915050565b60008073ffffffffffffffffffffffffffffffffffffffff168273ffffffffffffffffffffffffffffffffffffffff1614151515611cc457600080fd5b3390506000611cd282611cf2565b1415611ce657611ce482826001611234565b505b611cee61229a565b5050565b60008060008373ffffffffffffffffffffffffffffffffffffffff1673ffffffffffffffffffffffffffffffffffffffff168152602001908152602001600020549050919050565b600360009054906101000a900473ffffffffffffffffffffffffffffffffffffffff1673ffffffffffffffffffffffffffffffffffffffff163373ffffffffffffffffffffffffffffffffffffffff16141515611d9657600080fd5b600360009054906101000a900473ffffffffffffffffffffffffffffffffffffffff1673ffffffffffffffffffffffffffffffffffffffff167ff8df31144d9c2f0f6b59d69b8b98abd5459d07f2742c4df920b25aae33c6482060405160405180910390a26000600360006101000a81548173ffffffffffffffffffffffffffffffffffffffff021916908373ffffffffffffffffffffffffffffffffffffffff160217905550565b6060806000806000806060600060056007600954600a54600b54600360009054906101000a900473ffffffffffffffffffffffffffffffffffffffff166006600c54878054600181600116156101000203166002900480601f016020809104026020016040519081016040528092919081815260200182805460018160011615610100020316600290048015611f165780601f10611eeb57610100808354040283529160200191611f16565b820191906000526020600020905b815481529060010190602001808311611ef957829003601f168201915b50505050509750868054600181600116156101000203166002900480601f016020809104026020016040519081016040528092919081815260200182805460018160011615610100020316600290048015611fb25780601f10611f8757610100808354040283529160200191611fb2565b820191906000526020600020905b815481529060010190602001808311611f9557829003601f168201915b50505050509650818054600181600116156101000203166002900480601f01602080910402602001604051908101604052809291908181526020018280546001816001161561010002031660029004801561204e5780601f106120235761010080835404028352916020019161204e565b820191906000526020600020905b81548152906001019060200180831161203157829003601f168201915b50505050509150975097509750975097509750975097509091929394959697565b60648111158061207f575060ff81145b151561208a57600080fd5b6000601060003373ffffffffffffffffffffffffffffffffffffffff1673ffffffffffffffffffffffffffffffffffffffff168152602001908152602001600020541415156120d857600080fd5b6064811115156120eb5780806001019150505b80601060003373ffffffffffffffffffffffffffffffffffffffff1673ffffffffffffffffffffffffffffffffffffffff1681526020019081526020016000208190555050565b60068054600181600116156101000203166002900480601f0160208091040260200160405190810160405280929190818152602001828054600181600116156101000203166002900480156121c85780601f1061219d576101008083540402835291602001916121c8565b820191906000526020600020905b8154815290600101906020018083116121ab57829003601f168201915b505050505081565b600360009054906101000a900473ffffffffffffffffffffffffffffffffffffffff1681565b600a5481565b60078054600181600116156101000203166002900480601f0160208091040260200160405190810160405280929190818152602001828054600181600116156101000203166002900480156122925780601f1061226757610100808354040283529160200191612292565b820191906000526020600020905b81548152906001019060200180831161227557829003601f168201915b505050505081565b6000807f44ca361f127f201c0c2223a33476e550d06a802425d2411fb56923055816c84a600c5460405180806020018381526020018281038252600d8152602001807f756e69745f646563696d616c73000000000000000000000000000000000000008152506020019250505060405180910390a161233b60095461232d600c54600a0a3461366290919063ffffffff16565b61369a90919063ffffffff16565b91507f44ca361f127f201c0c2223a33476e550d06a802425d2411fb56923055816c84a826040518080602001838152602001828103825260058152602001807f756e6974730000000000000000000000000000000000000000000000000000008152506020019250505060405180910390a16123d9600c54600a0a6123cb84600a5461366290919063ffffffff16565b61369a90919063ffffffff16565b90507f44ca361f127f201c0c2223a33476e550d06a802425d2411fb56923055816c84a816040518080602001838152602001828103825260078152602001807f5f626f756e7479000000000000000000000000000000000000000000000000008152506020019250505060405180910390a16124558282612fc1565b7f44ca361f127f201c0c2223a33476e550d06a802425d2411fb56923055816c84a826040518080602001838152602001828103825260118152602001807f676f696e6720746f207472616e736665720000000000000000000000000000008152506020019250505060405180910390a1601160009054906101000a900473ffffffffffffffffffffffffffffffffffffffff1673ffffffffffffffffffffffffffffffffffffffff1660405180807f7472616e7366657228616464726573732c75696e743235362900000000000000815250601901905060405180910390207c0100000000000000000000000000000000000000000000000000000000900433846040518363ffffffff167c0100000000000000000000000000000000000000000000000000000000028152600401808373ffffffffffffffffffffffffffffffffffffffff1673ffffffffffffffffffffffffffffffffffffffff168152602001828152602001925050506000604051808303816000875af19250505015156125de57600080fd5b5050565b60106020528060005260406000206000915090505481565b600080600d60008573ffffffffffffffffffffffffffffffffffffffff1673ffffffffffffffffffffffffffffffffffffffff16815260200190815260200160002060009054906101000a900473ffffffffffffffffffffffffffffffffffffffff1673ffffffffffffffffffffffffffffffffffffffff1614151561267f57600080fd5b6126898383610fef565b156128c2576000600d60008573ffffffffffffffffffffffffffffffffffffffff1673ffffffffffffffffffffffffffffffffffffffff16815260200190815260200160002060009054906101000a900473ffffffffffffffffffffffffffffffffffffffff1673ffffffffffffffffffffffffffffffffffffffff16141561283b57600073ffffffffffffffffffffffffffffffffffffffff16600460009054906101000a900473ffffffffffffffffffffffffffffffffffffffff1673ffffffffffffffffffffffffffffffffffffffff1614151561283a57600460009054906101000a900473ffffffffffffffffffffffffffffffffffffffff1673ffffffffffffffffffffffffffffffffffffffff1663f887d019846040518263ffffffff167c0100000000000000000000000000000000000000000000000000000000028152600401808273ffffffffffffffffffffffffffffffffffffffff1673ffffffffffffffffffffffffffffffffffffffff168152602001915050600060405180830381600087803b15801561282157600080fd5b505af1158015612835573d6000803e3d6000fd5b505050505b5b33600d60008573ffffffffffffffffffffffffffffffffffffffff1673ffffffffffffffffffffffffffffffffffffffff16815260200190815260200160002060006101000a81548173ffffffffffffffffffffffffffffffffffffffff021916908373ffffffffffffffffffffffffffffffffffffffff160217905550600190506128c7565b600090505b92915050565b60008060008060008060006128e188611cf2565b600f60008a73ffffffffffffffffffffffffffffffffffffffff1673ffffffffffffffffffffffffffffffffffffffff16815260200190815260200160002054600e60008b73ffffffffffffffffffffffffffffffffffffffff1673ffffffffffffffffffffffffffffffffffffffff168152602001908152602001600020546001543073ffffffffffffffffffffffffffffffffffffffff1631612984612eb6565b601060008f73ffffffffffffffffffffffffffffffffffffffff1673ffffffffffffffffffffffffffffffffffffffff168152602001908152602001600020549650965096509650965096509650919395979092949650565b601160009054906101000a900473ffffffffffffffffffffffffffffffffffffffff1681565b600080339150600e60008373ffffffffffffffffffffffffffffffffffffffff1673ffffffffffffffffffffffffffffffffffffffff168152602001908152602001600020549050600081111515612a5a57600080fd5b3073ffffffffffffffffffffffffffffffffffffffff1631811115612a94573073ffffffffffffffffffffffffffffffffffffffff163190505b612ae681600e60008573ffffffffffffffffffffffffffffffffffffffff1673ffffffffffffffffffffffffffffffffffffffff1681526020019081526020016000205461362d90919063ffffffff16565b600e60008473ffffffffffffffffffffffffffffffffffffffff1673ffffffffffffffffffffffffffffffffffffffff168152602001908152602001600020819055508173ffffffffffffffffffffffffffffffffffffffff166108fc829081150290604051600060405180830381858888f193505050501515612b6957600080fd5b5050565b600b5481565b6000612c0482600260003373ffffffffffffffffffffffffffffffffffffffff1673ffffffffffffffffffffffffffffffffffffffff16815260200190815260200160002060008673ffffffffffffffffffffffffffffffffffffffff1673ffffffffffffffffffffffffffffffffffffffff1681526020019081526020016000205461364690919063ffffffff16565b600260003373ffffffffffffffffffffffffffffffffffffffff1673ffffffffffffffffffffffffffffffffffffffff16815260200190815260200160002060008573ffffffffffffffffffffffffffffffffffffffff1673ffffffffffffffffffffffffffffffffffffffff168152602001908152602001600020819055508273ffffffffffffffffffffffffffffffffffffffff163373ffffffffffffffffffffffffffffffffffffffff167f8c5be1e5ebec7d5bd14f71427d1e84f3dd0314c0f7b2291e5b200ac8c7c3b925600260003373ffffffffffffffffffffffffffffffffffffffff1673ffffffffffffffffffffffffffffffffffffffff16815260200190815260200160002060008773ffffffffffffffffffffffffffffffffffffffff1673ffffffffffffffffffffffffffffffffffffffff168152602001908152602001600020546040518082815260200191505060405180910390a36001905092915050565b60608060006060600080612d82876136b0565b94508451935060018401604051908082528060200260200182016040528015612dba5781602001602082028038833980820191505090505b509250600091505b83821015612e4d578482815181101515612dd857fe5b906020019060200201519050601060008273ffffffffffffffffffffffffffffffffffffffff1673ffffffffffffffffffffffffffffffffffffffff168152602001908152602001600020548383815181101515612e3257fe5b90602001906020020181815250508180600101925050612dc2565b601060008873ffffffffffffffffffffffffffffffffffffffff1673ffffffffffffffffffffffffffffffffffffffff168152602001908152602001600020548385815181101515612e9b57fe5b90602001906020020181815250508295505050505050919050565b600080612f31601160009054906101000a900473ffffffffffffffffffffffffffffffffffffffff166040805190810160405280601281526020017f62616c616e63654f6628616464726573732900000000000000000000000000008152503073ffffffffffffffffffffffffffffffffffffffff16613895565b90508091505090565b6000600260008473ffffffffffffffffffffffffffffffffffffffff1673ffffffffffffffffffffffffffffffffffffffff16815260200190815260200160002060008373ffffffffffffffffffffffffffffffffffffffff1673ffffffffffffffffffffffffffffffffffffffff16815260200190815260200160002054905092915050565b600080600060606000806000806000803399507f9411f7eebfa94bade4f14f1e5323525dbbe47b3be764f8143c8f0eca933a82118a60405180806020018373ffffffffffffffffffffffffffffffffffffffff1673ffffffffffffffffffffffffffffffffffffffff168152602001828103825260088152602001807f637573746f6d65720000000000000000000000000000000000000000000000008152506020019250505060405180910390a16130798a611cf2565b98507f44ca361f127f201c0c2223a33476e550d06a802425d2411fb56923055816c84a896040518080602001838152602001828103825260108152602001807f637573746f6d65725f62616c616e6365000000000000000000000000000000008152506020019250505060405180910390a16000891115156130fa57600080fd5b613102612eb6565b97507f44ca361f127f201c0c2223a33476e550d06a802425d2411fb56923055816c84a8860405180806020018381526020018281038252600c8152602001807f5f746f74616c5f756e69747300000000000000000000000000000000000000008152506020019250505060405180910390a160008c11151561318357600080fd5b8b881015151561319257600080fd5b61319b8a6136b0565b96508651955060009450600093505b858410156133aa5786848151811015156131c057fe5b906020019060200201519250600186038414156131df578a9150613290565b601060008473ffffffffffffffffffffffffffffffffffffffff1673ffffffffffffffffffffffffffffffffffffffff168152602001908152602001600020549050600081118015613232575060658111155b1561327757613270606461326261325360018561362d90919063ffffffff16565b8e61366290919063ffffffff16565b61369a90919063ffffffff16565b915061328f565b61328c8487038c61369a90919063ffffffff16565b91505b5b6132e282600e60008673ffffffffffffffffffffffffffffffffffffffff1673ffffffffffffffffffffffffffffffffffffffff1681526020019081526020016000205461364690919063ffffffff16565b600e60008573ffffffffffffffffffffffffffffffffffffffff1673ffffffffffffffffffffffffffffffffffffffff168152602001908152602001600020819055508273ffffffffffffffffffffffffffffffffffffffff167fb3b7a071186534c03b40695710096f289fd4ed6c1a374aff0bb648955e4fe563836040518082815260200191505060405180910390a2613386828661364690919063ffffffff16565b945061339b828c61362d90919063ffffffff16565b9a5083806001019450506131aa565b6134308561342234600e6000600360009054906101000a900473ffffffffffffffffffffffffffffffffffffffff1673ffffffffffffffffffffffffffffffffffffffff1673ffffffffffffffffffffffffffffffffffffffff1681526020019081526020016000205461364690919063ffffffff16565b61362d90919063ffffffff16565b600e6000600360009054906101000a900473ffffffffffffffffffffffffffffffffffffffff1673ffffffffffffffffffffffffffffffffffffffff1673ffffffffffffffffffffffffffffffffffffffff168152602001908152602001600020819055506134e78c600f60008d73ffffffffffffffffffffffffffffffffffffffff1673ffffffffffffffffffffffffffffffffffffffff1681526020019081526020016000205461364690919063ffffffff16565b600f60008c73ffffffffffffffffffffffffffffffffffffffff1673ffffffffffffffffffffffffffffffffffffffff168152602001908152602001600020819055508973ffffffffffffffffffffffffffffffffffffffff167f6f48e292651bd1d141885ed3aa208544a172f61dce0faf20bf98d87e15f558f6600f60008d73ffffffffffffffffffffffffffffffffffffffff1673ffffffffffffffffffffffffffffffffffffffff168152602001908152602001600020546040518082815260200191505060405180910390a2505050505050505050505050565b600360009054906101000a900473ffffffffffffffffffffffffffffffffffffffff1673ffffffffffffffffffffffffffffffffffffffff163373ffffffffffffffffffffffffffffffffffffffff1614151561362157600080fd5b61362a81613939565b50565b600082821115151561363b57fe5b818303905092915050565b6000818301905082811015151561365957fe5b80905092915050565b6000808314156136755760009050613694565b818302905081838281151561368657fe5b0414151561369057fe5b8090505b92915050565b600081838115156136a757fe5b04905092915050565b60606000806060849250600091505b60011561379057600d60008473ffffffffffffffffffffffffffffffffffffffff1673ffffffffffffffffffffffffffffffffffffffff16815260200190815260200160002060009054906101000a900473ffffffffffffffffffffffffffffffffffffffff169250600360009054906101000a900473ffffffffffffffffffffffffffffffffffffffff1673ffffffffffffffffffffffffffffffffffffffff168373ffffffffffffffffffffffffffffffffffffffff16141561378357613790565b81806001019250506136bf565b816040519080825280602002602001820160405280156137bf5781602001602082028038833980820191505090505b5090508492505b600082111561388a57600d60008473ffffffffffffffffffffffffffffffffffffffff1673ffffffffffffffffffffffffffffffffffffffff16815260200190815260200160002060009054906101000a900473ffffffffffffffffffffffffffffffffffffffff16925081806001900392505082818381518110151561384957fe5b9060200190602002019073ffffffffffffffffffffffffffffffffffffffff16908173ffffffffffffffffffffffffffffffffffffffff16815250506137c6565b809350505050919050565b600080836040518082805190602001908083835b6020831015156138ce57805182526020820191506020810190506020830392506138a9565b6001836020036101000a0380198251168184511680821785525050505050509050019150506040518091039020905060405181815283600482015260208160248360008a613a98f1600081141561392457600080fd5b81519350602482016040525050509392505050565b600073ffffffffffffffffffffffffffffffffffffffff168173ffffffffffffffffffffffffffffffffffffffff161415151561397557600080fd5b8073ffffffffffffffffffffffffffffffffffffffff16600360009054906101000a900473ffffffffffffffffffffffffffffffffffffffff1673ffffffffffffffffffffffffffffffffffffffff167f8be0079c531659141344cd1fd0a4f28419497f9722a3daafe3b4186f6b6457e060405160405180910390a380600360006101000a81548173ffffffffffffffffffffffffffffffffffffffff021916908373ffffffffffffffffffffffffffffffffffffffff160217905550505600a165627a7a72305820eb6031e248da79a648c670bb9cd97833fcf61e9007a2bac5ea580117f4c84a8c0029",
  "source": "pragma solidity ^0.4.24; //We have to specify what version of compiler this code will use\n\nimport 'openzeppelin-solidity/contracts/token/ERC20/StandardToken.sol';\nimport \"openzeppelin-solidity/contracts/ownership/Ownable.sol\";\nimport './ERC20full.sol';\nimport './TwoKeyEventSource.sol';\n\n/**\n * @title Standard ERC20 token\n *\n * @dev Implementation of the basic standard token.\n * @dev https://github.com/ethereum/EIPs/issues/20\n * @dev Based on code by FirstBlood: https://github.com/Firstbloodio/token/blob/master/smart_contract/FirstBloodToken.sol\n */\ncontract TwoKeyContract is StandardToken, Ownable {\n  event Fulfilled(address indexed to, uint256 units);\n  event Rewarded(address indexed to, uint256 amount);\n  event Log1(string s, uint256 units);\n  event Log1A(string s, address a);\n\n\n  using SafeMath for uint256;\n  // Public variables of the token\n//  TwoKeyReg registry;  // 2key admin contract that created this\n  TwoKeyEventSource eventSource;\n\n  // address public owner;  // Who created the contract (business) // contained in Ownable.sol\n  string public name;\n  string public ipfs_hash;\n  string public symbol;\n  uint8 public decimals = 0;  // ARCs are not divisable\n  uint256 public cost; // Cost of product in wei\n  uint256 public bounty; // Cost of product in wei\n  uint256 public quota;  // maximal tokens that can be passed in transferFrom\n  uint256 unit_decimals;  // units being sold can be fractional (for example tokens in ERC20)\n\n  // Private variables of the token\n  mapping (address => address) public received_from;\n  mapping(address => uint256) public xbalances; // balance of external currency (ETH or 2Key coin)\n  mapping(address => uint256) public units; // number of units bought\n\n  // The cut from the bounty each influencer is taking + 1\n  // zero (also the default value) indicates default behaviour in which the influencer takes an equal amount as other influencers\n  mapping(address => uint256) public influencer2cut;\n\n  function getCuts(address last_influencer) public view returns (uint256[]) {\n    address[] memory influencers = getInfluencers(last_influencer);\n    uint n_influencers = influencers.length;\n    uint256[] memory cuts = new uint256[](n_influencers + 1);\n    for (uint i = 0; i < n_influencers; i++) {\n      address influencer = influencers[i];\n      cuts[i] = influencer2cut[influencer];\n    }\n    cuts[n_influencers] = influencer2cut[last_influencer];\n    return cuts;\n  }\n\n  function setCut(uint256 cut) public {\n    // the sender sets what is the percentage of the bounty s/he will receive when acting as an influencer\n    // the value 255 is used to signal equal partition with other influencers\n    // A sender can set the value only once in a contract\n    require(cut <= 100 || cut == 255);\n    require(influencer2cut[msg.sender] == 0);\n    if (cut <= 100) {\n      cut++;\n    }\n    influencer2cut[msg.sender] = cut;\n  }\n  // Modified 2Key method\n\n  /**\n  * @dev transfer token for a specified address\n  * @param _to The address to transfer to.\n  * @param _value The amount to be transferred.\n  */\n  function transferQuota(address _to, uint256 _value) public returns (bool) {\n    require(_to != address(0));\n    require(_value <= balances[msg.sender]);\n\n    // SafeMath.sub will throw if there is not enough balance.\n    balances[msg.sender] = balances[msg.sender].sub(_value);\n    balances[_to] = balances[_to].add(_value * quota);\n    totalSupply_ = totalSupply_ + _value * (quota - 1);\n    emit Transfer(msg.sender, _to, _value);\n    return true;\n  }\n\n  /**\n   * @dev Transfer tokens from one address to another\n   * @param _from address The address which you want to send tokens from\n   * @param _to address The address which you want to transfer to\n   * @param _value uint256 the amount of tokens to be transferred\n   */\n  function transferFromQuota(address _from, address _to, uint256 _value) public returns (bool) {\n    require(_to != address(0));\n    require(_value <= balances[_from]);\n    require(_value <= allowed[_from][msg.sender]);\n\n    balances[_from] = balances[_from].sub(_value);\n    balances[_to] = balances[_to].add(_value * quota);\n    totalSupply_ = totalSupply_ + _value * (quota - 1);\n    allowed[_from][msg.sender] = allowed[_from][msg.sender].sub(_value);\n    emit Transfer(_from, _to, _value);\n    return true;\n  }\n\n  /**\n   * @dev Transfer tokens from one address to another\n   * @param _from address The address which you want to send tokens from\n   * @param _to address The address which you want to transfer to\n   * @param _value uint256 the amount of tokens to be transferred\n   */\n  function transferFrom(address _from, address _to, uint256 _value) public returns (bool) {\n    require(received_from[_to] == 0);\n    require(_from != address(0));\n    allowed[_from][msg.sender] = 1;\n    if (transferFromQuota(_from, _to, _value)) {\n      if (received_from[_to] == 0) {\n        // inform the 2key admin contract, once, that an influencer has joined\n        if (eventSource != address(0)) {\n          eventSource.joined(_to);\n        }\n      }\n      received_from[_to] = _from;\n      return true;\n    } else {\n      return false;\n    }\n  }\n\n  /**\n  * @dev transfer token for a specified address\n  * @param _to The address to transfer to.\n  * @param _value The amount to be transferred.\n  */\n  function transfer(address _to, uint256 _value) public returns (bool) {\n    require(received_from[_to] == 0);\n    if (transferQuota(_to, _value)) {\n      if (received_from[_to] == 0) {\n        // inform the 2key admin contract, once, that an influencer has joined\n        if (eventSource != address(0)) {\n          eventSource.joined(_to);\n        }\n      }\n      received_from[_to] = msg.sender;\n      return true;\n    } else {\n      return false;\n    }\n  }\n\n  // New 2Key method\n\n  function getConstantInfo() public view returns (string,string,uint256,uint256,uint256,address,string,uint256) {\n    return (name,symbol,cost,bounty,quota,owner,ipfs_hash,unit_decimals);\n  }\n\n  function total_units() public view returns (uint256);\n\n  function getDynamicInfo(address me) public view returns (uint256,uint256,uint256,uint256,uint256,uint256,uint256) {\n    // address(this).balance is solidity reserved word for the the ETH amount deposited in the contract\n    return (balanceOf(me),units[me],xbalances[me],totalSupply_,address(this).balance,total_units(),influencer2cut[me]);\n  }\n\n  // function () external payable {\n  //   buyProduct();\n  // }\n\n  // buy product. if you dont have ARCs then first take them (join) from _from\n  function buyFrom(address _from) public payable {\n    require(_from != address(0));\n    address _to = msg.sender;\n    if (balanceOf(_to) == 0) {\n      transferFrom(_from, _to, 1);\n    }\n    buyProduct();\n  }\n\n  function redeem() public {\n    address influencer = msg.sender;\n    uint256 b = xbalances[influencer];\n    require(b > 0);\n    if (b > address(this).balance) {\n      b = address(this).balance;\n    }\n    xbalances[influencer] = xbalances[influencer].sub(b);\n    if(!influencer.send(b)){\n       revert();\n    }\n  }\n\n  // low level product purchase function\n  function buyProduct() public payable;\n\n  function getInfluencers(address customer) private view returns (address[]) {\n    // build a list of all influencers from converter back to to contractor\n    // dont count the conveter and contractr themselves\n    address influencer = customer;\n    // first count how many influencers\n    uint n_influencers = 0;\n    while (true) {\n      influencer = received_from[influencer];\n      if (influencer == owner) {\n        break;\n      }\n      n_influencers++;\n    }\n    // allocate temporary memory to hold the influencers\n    address[] memory influencers = new address[](n_influencers);\n    // fill the array of influencers in reverse order, from the last influencer just before the converter to the\n    // first influencer just after the contractor\n    influencer = customer;\n    while (n_influencers > 0) {\n      influencer = received_from[influencer];\n      n_influencers--;\n      influencers[n_influencers] = influencer;\n    }\n\n    return influencers;\n  }\n\n  function buyProductInternal(uint256 _units, uint256 _bounty) public payable {\n    // buy coins with cut\n    // low level product purchase function\n    address customer = msg.sender;\n    emit Log1A('customer',customer);\n    uint256 customer_balance = balanceOf(customer);\n    emit Log1('customer_balance', customer_balance);\n    require(customer_balance > 0);\n\n    uint256 _total_units = total_units();\n    emit Log1('_total_units',_total_units);\n\n    require(_units > 0);\n    require(_total_units >= _units);\n    address[] memory influencers = getInfluencers(customer);\n    uint n_influencers = influencers.length;\n\n    // distribute bounty to influencers\n    uint256 total_bounty = 0;\n    for (uint i = 0; i < n_influencers; i++) {\n      address influencer = influencers[i];  // influencers is in reverse order\n      uint256 b;\n      if (i == n_influencers-1) {  // if its the last influencer then all the bounty goes to it.\n        b = _bounty;\n      } else {\n        uint256 cut = influencer2cut[influencer];\n        //        emit Log(\"CUT\", influencer, cut);\n        if (cut > 0 && cut <= 101) {\n          b = _bounty.mul(cut.sub(1)).div(100);\n        } else {  // cut == 0 or 255 indicates equal particine of the bounty\n          b = _bounty.div(n_influencers-i);\n        }\n      }\n      xbalances[influencer] = xbalances[influencer].add(b);\n      emit Rewarded(influencer, b);\n      total_bounty = total_bounty.add(b);\n      _bounty = _bounty.sub(b);\n    }\n\n    // all that is left from the cost is given to the owner for selling the product\n    xbalances[owner] = xbalances[owner].add(msg.value).sub(total_bounty); // TODO we want the cost of a token to be fixed?\n    units[customer] = units[customer].add(_units);\n\n    emit Fulfilled(customer, units[customer]);\n  }\n\n}\n\ncontract TwoKeyAcquisitionContract is TwoKeyContract\n{\n  uint256 public _total_units; // total number of units on offer\n\n  // Initialize all the constants\n  constructor(TwoKeyEventSource _eventSource, string _name, string _symbol,\n        uint256 _tSupply, uint256 _quota, uint256 _cost, uint256 _bounty,\n        uint256 _units, string _ipfs_hash) public {\n    require(_bounty <= _cost);\n    // owner = msg.sender;  // done in Ownable()\n    // We do an explicit type conversion from `address`\n    // to `TwoKeyReg` and assume that the type of\n    // the calling contract is TwoKeyReg, there is\n    // no real way to check that.\n    name = _name;\n    symbol = _symbol;\n    totalSupply_ = _tSupply;\n    balances[owner] = _tSupply;\n    cost = _cost;\n    bounty = _bounty;\n    quota = _quota;\n    _total_units = _units;\n    ipfs_hash = _ipfs_hash;\n    unit_decimals = 0;  // dont allow fractional units\n\n    received_from[owner] = owner;  // allow owner to buy from himself\n\n    if (_eventSource != address(0)) {\n      eventSource = _eventSource;\n      eventSource.created(owner);\n    }\n  }\n\n  function total_units() public view returns (uint256) {\n    return _total_units;\n  }\n\n  // low level product purchase function\n  function buyProduct() public payable {\n    // caluclate the number of units being purchased\n    uint _units = msg.value.div(cost);\n    require(msg.value == cost * _units);\n    // bounty is the cost of a single token. Compute the bounty for the units\n    // we are buying\n    uint256 _bounty = bounty.mul(_units);\n\n    buyProductInternal(_units, _bounty);\n\n    _total_units = _total_units.sub(_units);\n  }\n}\n\ncontract TwoKeyPresellContract is TwoKeyContract {\n  ERC20full public erc20_token_sell_contract;\n\n//  address dc;\n\n  function call_return(address c, bytes _method, uint _val) private view returns (uint answer) {\n    // https://medium.com/@blockchain101/calling-the-function-of-another-contract-in-solidity-f9edfa921f4c\n//    dc = c;\n    bytes4 sig = bytes4(keccak256(_method));\n    assembly {\n    // move pointer to free memory spot\n      let ptr := mload(0x40)\n    // put function sig at memory spot\n      mstore(ptr,sig)\n    // append argument after function sig\n      mstore(add(ptr,0x04), _val)\n\n      let result := call(  // use WARNING because this should be staticcall BUT geth crash!\n      15000, // gas limit\n      c, // sload(dc_slot),  // to addr. append var to _slot to access storage variable\n      0, // not transfer any ether (comment if using staticcall)\n      ptr, // Inputs are stored at location ptr\n      0x24, // Inputs are 0 bytes long\n      ptr,  //Store output over input\n      0x20) //Outputs are 1 bytes long\n\n      if eq(result, 0) {\n        revert(0, 0)\n      }\n\n      answer := mload(ptr) // Assign output to answer var\n      mstore(0x40,add(ptr,0x24)) // Set storage pointer to new space\n    }\n  }\n\n\n  // Initialize all the constants\n  constructor(TwoKeyEventSource _eventSource, string _name, string _symbol,\n        uint256 _tSupply, uint256 _quota, uint256 _cost, uint256 _bounty,\n        string _ipfs_hash, ERC20full _erc20_token_sell_contract) public {\n    require(_bounty <= _cost);\n    // owner = msg.sender;  // done in Ownable()\n    // We do an explicit type conversion from `address`\n    // to `TwoKeyReg` and assume that the type of\n    // the calling contract is TwoKeyReg, there is\n    // no real way to check that.\n    name = _name;\n    symbol = _symbol;\n    totalSupply_ = _tSupply;\n    balances[owner] = _tSupply;\n    cost = _cost;\n    bounty = _bounty;\n    quota = _quota;\n    ipfs_hash = _ipfs_hash;\n    received_from[owner] = owner;  // allow owner to buy from himself\n    if (_eventSource != address(0)) {\n      eventSource = _eventSource;\n      eventSource.created(owner);\n    }\n\n    if (_erc20_token_sell_contract != address(0)) {\n      // fractional units are determined by the erc20 contract\n      erc20_token_sell_contract = _erc20_token_sell_contract;  // ERC20full()\n      unit_decimals = call_return(erc20_token_sell_contract, \"decimals()\",0);\n//      emit Log1('start_unit_decimals', unit_decimals); // does not work in constructor on geth\n      require(unit_decimals >= 0);\n      require(unit_decimals <= 18);\n    }\n  }\n\n  function total_units() public view returns (uint256) {\n    uint256 _total_units;\n//    _total_units = erc20_token_sell_contract.balanceOf(address(this));\n    _total_units = call_return(erc20_token_sell_contract, \"balanceOf(address)\",uint(this));\n    return _total_units;\n  }\n\n  // low level product purchase function\n\n  function buyProduct() public payable {\n    emit Log1('unit_decimals', unit_decimals);\n//    unit_decimals = 18; // uint256(erc20_token_sell_contract.decimals());\n    // cost is the cost of a single token. Each token has 10**decimals units\n    uint256 _units = msg.value.mul(10**unit_decimals).div(cost);\n    emit Log1('units', _units);\n    // bounty is the cost of a single token. Compute the bounty for the units\n    // we are buying\n    uint256 _bounty = bounty.mul(_units).div(10**unit_decimals);\n    emit Log1('_bounty', _bounty);\n\n    buyProductInternal(_units, _bounty);\n\n    emit Log1('going to transfer', _units);\n\n//    erc20_token_sell_contract.transfer(msg.sender, _units);  // TODO is this dangerous!?\n    require(erc20_token_sell_contract.call(bytes4(keccak256(\"transfer(address,uint256)\")),msg.sender,_units));\n  }\n}\n",
  "sourcePath": "/Users/aydnep/2key/contracts/contracts/TwoKeyContract.sol",
  "compiler": {
    "name": "solc",
    "version": "0.4.24+commit.e67f0147.Emscripten.clang"
  },
  "schemaVersion": "2.0.1",
  "updatedAt": "2018-08-15T15:14:51.200Z"
}