{
  "contractName": "TwoKeyEventSource",
  "abi": [
    {
      "anonymous": false,
      "inputs": [
        {
          "indexed": true,
          "name": "_campaign",
          "type": "address"
        },
        {
          "indexed": true,
          "name": "_owner",
          "type": "address"
        }
      ],
      "name": "Created",
      "type": "event"
    },
    {
      "anonymous": false,
      "inputs": [
        {
          "indexed": true,
          "name": "_campaign",
          "type": "address"
        },
        {
          "indexed": true,
          "name": "_from",
          "type": "address"
        },
        {
          "indexed": true,
          "name": "_to",
          "type": "address"
        }
      ],
      "name": "Joined",
      "type": "event"
    },
    {
      "anonymous": false,
      "inputs": [
        {
          "indexed": true,
          "name": "_campaign",
          "type": "address"
        },
        {
          "indexed": true,
          "name": "_escrow",
          "type": "address"
        },
        {
          "indexed": true,
          "name": "_sender",
          "type": "address"
        },
        {
          "indexed": false,
          "name": "_tokenID",
          "type": "uint256"
        },
        {
          "indexed": false,
          "name": "_childContractID",
          "type": "address"
        },
        {
          "indexed": false,
          "name": "_indexOrAmount",
          "type": "uint256"
        },
        {
          "indexed": false,
          "name": "_type",
          "type": "uint8"
        }
      ],
      "name": "Escrow",
      "type": "event"
    },
    {
      "anonymous": false,
      "inputs": [
        {
          "indexed": true,
          "name": "_campaign",
          "type": "address"
        },
        {
          "indexed": true,
          "name": "_to",
          "type": "address"
        },
        {
          "indexed": false,
          "name": "_amount",
          "type": "uint256"
        }
      ],
      "name": "Rewarded",
      "type": "event"
    },
    {
      "anonymous": false,
      "inputs": [
        {
          "indexed": true,
          "name": "_campaign",
          "type": "address"
        },
        {
          "indexed": true,
          "name": "_converter",
          "type": "address"
        },
        {
          "indexed": true,
          "name": "_tokenID",
          "type": "uint256"
        },
        {
          "indexed": false,
          "name": "_childContractID",
          "type": "address"
        },
        {
          "indexed": false,
          "name": "_indexOrAmount",
          "type": "uint256"
        },
        {
          "indexed": false,
          "name": "_type",
          "type": "uint8"
        }
      ],
      "name": "Fulfilled",
      "type": "event"
    },
    {
      "anonymous": false,
      "inputs": [
        {
          "indexed": true,
          "name": "_escrow",
          "type": "address"
        },
        {
          "indexed": true,
          "name": "_converter",
          "type": "address"
        },
        {
          "indexed": true,
          "name": "_tokenID",
          "type": "uint256"
        },
        {
          "indexed": false,
          "name": "_childContractID",
          "type": "address"
        },
        {
          "indexed": false,
          "name": "_indexOrAmount",
          "type": "uint256"
        },
        {
          "indexed": false,
          "name": "_type",
          "type": "uint8"
        }
      ],
      "name": "Cancelled",
      "type": "event"
    },
    {
      "constant": false,
      "inputs": [
        {
          "name": "_campaign",
          "type": "address"
        },
        {
          "name": "_owner",
          "type": "address"
        }
      ],
      "name": "created",
      "outputs": [],
      "payable": false,
      "stateMutability": "nonpayable",
      "type": "function"
    },
    {
      "constant": false,
      "inputs": [
        {
          "name": "_campaign",
          "type": "address"
        },
        {
          "name": "_from",
          "type": "address"
        },
        {
          "name": "_to",
          "type": "address"
        }
      ],
      "name": "joined",
      "outputs": [],
      "payable": false,
      "stateMutability": "nonpayable",
      "type": "function"
    },
    {
      "constant": false,
      "inputs": [
        {
          "name": "_campaign",
          "type": "address"
        },
        {
          "name": "_escrow",
          "type": "address"
        },
        {
          "name": "_sender",
          "type": "address"
        },
        {
          "name": "_tokenID",
          "type": "uint256"
        },
        {
          "name": "_childContractID",
          "type": "address"
        },
        {
          "name": "_indexOrAmount",
          "type": "uint256"
        },
        {
          "name": "_type",
          "type": "uint8"
        }
      ],
      "name": "escrow",
      "outputs": [],
      "payable": false,
      "stateMutability": "nonpayable",
      "type": "function"
    },
    {
      "constant": false,
      "inputs": [
        {
          "name": "_campaign",
          "type": "address"
        },
        {
          "name": "_to",
          "type": "address"
        },
        {
          "name": "_amount",
          "type": "uint256"
        }
      ],
      "name": "rewarded",
      "outputs": [],
      "payable": false,
      "stateMutability": "nonpayable",
      "type": "function"
    },
    {
      "constant": false,
      "inputs": [
        {
          "name": "_campaign",
          "type": "address"
        },
        {
          "name": "_converter",
          "type": "address"
        },
        {
          "name": "_tokenID",
          "type": "uint256"
        },
        {
          "name": "_childContractID",
          "type": "address"
        },
        {
          "name": "_indexOrAmount",
          "type": "uint256"
        },
        {
          "name": "_type",
          "type": "uint8"
        }
      ],
      "name": "fulfilled",
      "outputs": [],
      "payable": false,
      "stateMutability": "nonpayable",
      "type": "function"
    },
    {
      "constant": false,
      "inputs": [
        {
          "name": "_escrow",
          "type": "address"
        },
        {
          "name": "_converter",
          "type": "address"
        },
        {
          "name": "_tokenID",
          "type": "uint256"
        },
        {
          "name": "_childContractID",
          "type": "address"
        },
        {
          "name": "_indexOrAmount",
          "type": "uint256"
        },
        {
          "name": "_type",
          "type": "uint8"
        }
      ],
      "name": "cancelled",
      "outputs": [],
      "payable": false,
      "stateMutability": "nonpayable",
      "type": "function"
    }
  ],
  "bytecode": "0x608060405234801561001057600080fd5b5061078d806100206000396000f300608060405260043610610078576000357c0100000000000000000000000000000000000000000000000000000000900463ffffffff1680631d1865841461007d5780633a0f6a3c146100e05780638af1cbb9146101845780638e8f628314610207578063bd6cd0d1146102ab578063be20154a14610318575b600080fd5b34801561008957600080fd5b506100de600480360381019080803573ffffffffffffffffffffffffffffffffffffffff169060200190929190803573ffffffffffffffffffffffffffffffffffffffff1690602001909291905050506103dc565b005b3480156100ec57600080fd5b50610182600480360381019080803573ffffffffffffffffffffffffffffffffffffffff169060200190929190803573ffffffffffffffffffffffffffffffffffffffff16906020019092919080359060200190929190803573ffffffffffffffffffffffffffffffffffffffff16906020019092919080359060200190929190803560ff16906020019092919050505061043a565b005b34801561019057600080fd5b50610205600480360381019080803573ffffffffffffffffffffffffffffffffffffffff169060200190929190803573ffffffffffffffffffffffffffffffffffffffff169060200190929190803573ffffffffffffffffffffffffffffffffffffffff1690602001909291905050506104f2565b005b34801561021357600080fd5b506102a9600480360381019080803573ffffffffffffffffffffffffffffffffffffffff169060200190929190803573ffffffffffffffffffffffffffffffffffffffff16906020019092919080359060200190929190803573ffffffffffffffffffffffffffffffffffffffff16906020019092919080359060200190929190803560ff169060200190929190505050610568565b005b3480156102b757600080fd5b50610316600480360381019080803573ffffffffffffffffffffffffffffffffffffffff169060200190929190803573ffffffffffffffffffffffffffffffffffffffff16906020019092919080359060200190929190505050610620565b005b34801561032457600080fd5b506103da600480360381019080803573ffffffffffffffffffffffffffffffffffffffff169060200190929190803573ffffffffffffffffffffffffffffffffffffffff169060200190929190803573ffffffffffffffffffffffffffffffffffffffff16906020019092919080359060200190929190803573ffffffffffffffffffffffffffffffffffffffff16906020019092919080359060200190929190803560ff16906020019092919050505061068a565b005b8073ffffffffffffffffffffffffffffffffffffffff168273ffffffffffffffffffffffffffffffffffffffff167f587ece4cd19692c5be1a4184503d607d45542d2aca0698c0068f52e09ccb541c60405160405180910390a35050565b838573ffffffffffffffffffffffffffffffffffffffff168773ffffffffffffffffffffffffffffffffffffffff167f31d1450da12c7969e2e80053e9bcbeaff71faed858b70ec949c19e4ce2a15ee8868686604051808473ffffffffffffffffffffffffffffffffffffffff1673ffffffffffffffffffffffffffffffffffffffff1681526020018381526020018260038111156104d557fe5b60ff168152602001935050505060405180910390a4505050505050565b8073ffffffffffffffffffffffffffffffffffffffff168273ffffffffffffffffffffffffffffffffffffffff168473ffffffffffffffffffffffffffffffffffffffff167f2bd729a8054724da0df9fdf02b37398fb43652780a2590cef6fa6e8abcf4367860405160405180910390a4505050565b838573ffffffffffffffffffffffffffffffffffffffff168773ffffffffffffffffffffffffffffffffffffffff167f21d6556a28b7fe5a660e5d6c013bcada2d9914fbe3e8a69364208f9b5e3d64a1868686604051808473ffffffffffffffffffffffffffffffffffffffff1673ffffffffffffffffffffffffffffffffffffffff16815260200183815260200182600381111561060357fe5b60ff168152602001935050505060405180910390a4505050505050565b8173ffffffffffffffffffffffffffffffffffffffff168373ffffffffffffffffffffffffffffffffffffffff167f6876a213a761d9b4f8d7ba3609528ef85da671684271f75fdacb41be8db29f45836040518082815260200191505060405180910390a3505050565b8473ffffffffffffffffffffffffffffffffffffffff168673ffffffffffffffffffffffffffffffffffffffff168873ffffffffffffffffffffffffffffffffffffffff167f21642e91541d3d6ba7f4a87e02e13f3dd79f87fa83ed784d003fd8704c5b386a87878787604051808581526020018473ffffffffffffffffffffffffffffffffffffffff1673ffffffffffffffffffffffffffffffffffffffff16815260200183815260200182600381111561074257fe5b60ff16815260200194505050505060405180910390a4505050505050505600a165627a7a72305820040a93a7346b6a295bde042f5f4027bb4d7c37a9a4ef7ed67046906c485cc55d0029",
  "source": "pragma solidity ^0.4.24;\n\nimport './TwoKeyTypes.sol';\n\ncontract TwoKeyEventSource is TwoKeyTypes {\n\n    event Created(address indexed _campaign, address indexed _owner);  \n    event Joined(address indexed _campaign, address indexed _from, address indexed _to);  \n\tevent Escrow(address indexed _campaign, address indexed _escrow, address indexed _sender, uint256 _tokenID, address _childContractID, uint256 _indexOrAmount, CampaignType _type);\n\tevent Rewarded(address indexed _campaign, address indexed _to, uint256 _amount);\n    event Fulfilled(address indexed _campaign, address indexed _converter, uint256 indexed _tokenID, address _childContractID, uint256 _indexOrAmount, CampaignType _type);\n    event Cancelled(address indexed _escrow, address indexed _converter, uint256 indexed _tokenID, address _childContractID, uint256 _indexOrAmount, CampaignType _type);\n\n    function created(address _campaign, address _owner) public {\n    \temit Created(_campaign, _owner);\n    }\n\n    function joined(address _campaign, address _from, address _to) public {\n    \temit Joined(_campaign, _from, _to);\n    }\n\n    function escrow(address _campaign, address _escrow, address _sender, uint256 _tokenID, address _childContractID, uint256 _indexOrAmount, CampaignType _type) public {\n    \temit Escrow(_campaign, _escrow, _sender, _tokenID, _childContractID, _indexOrAmount, _type);\n    }\n\n    function rewarded(address _campaign, address _to, uint256 _amount) public {\n    \temit Rewarded(_campaign, _to, _amount);\n\t}\n\n\tfunction fulfilled(address  _campaign, address _converter, uint256 _tokenID, address _childContractID, uint256 _indexOrAmount, CampaignType _type) public {\n\t\temit Fulfilled(_campaign, _converter, _tokenID, _childContractID, _indexOrAmount, _type);\n\t}\n\n\tfunction cancelled(address  _escrow, address _converter, uint256 _tokenID, address _childContractID, uint256 _indexOrAmount, CampaignType _type) public {\n\t\temit Cancelled(_escrow, _converter, _tokenID, _childContractID, _indexOrAmount, _type);\n\t}\n\n}",
  "sourcePath": "/Users/aydnep/2key/contracts/contracts/TwoKeyEventSource.sol",
  "compiler": {
    "name": "solc",
    "version": "0.4.24+commit.e67f0147.Emscripten.clang"
  },
  "schemaVersion": "2.0.1",
  "updatedAt": "2018-08-02T13:40:31.098Z"
}