{
  "contractName": "TwoKeyReg",
  "abi": [
    {
      "constant": true,
      "inputs": [
        {
          "name": "",
          "type": "address"
        },
        {
          "name": "",
          "type": "uint256"
        }
      ],
      "name": "userToCampaignsWhereConverter",
      "outputs": [
        {
          "name": "",
          "type": "address"
        }
      ],
      "payable": false,
      "stateMutability": "view",
      "type": "function"
    },
    {
      "constant": false,
      "inputs": [],
      "name": "renounceOwnership",
      "outputs": [],
      "payable": false,
      "stateMutability": "nonpayable",
      "type": "function"
    },
    {
      "constant": true,
      "inputs": [
        {
          "name": "",
          "type": "address"
        }
      ],
      "name": "owner2name",
      "outputs": [
        {
          "name": "",
          "type": "string"
        }
      ],
      "payable": false,
      "stateMutability": "view",
      "type": "function"
    },
    {
      "constant": true,
      "inputs": [],
      "name": "owner",
      "outputs": [
        {
          "name": "",
          "type": "address"
        }
      ],
      "payable": false,
      "stateMutability": "view",
      "type": "function"
    },
    {
      "constant": true,
      "inputs": [
        {
          "name": "",
          "type": "address"
        },
        {
          "name": "",
          "type": "uint256"
        }
      ],
      "name": "userToCampaignsWhereModerator",
      "outputs": [
        {
          "name": "",
          "type": "address"
        }
      ],
      "payable": false,
      "stateMutability": "view",
      "type": "function"
    },
    {
      "constant": true,
      "inputs": [
        {
          "name": "",
          "type": "address"
        },
        {
          "name": "",
          "type": "uint256"
        }
      ],
      "name": "userToCampaignsWhereRefferer",
      "outputs": [
        {
          "name": "",
          "type": "address"
        }
      ],
      "payable": false,
      "stateMutability": "view",
      "type": "function"
    },
    {
      "constant": true,
      "inputs": [
        {
          "name": "",
          "type": "bytes32"
        }
      ],
      "name": "name2owner",
      "outputs": [
        {
          "name": "",
          "type": "address"
        }
      ],
      "payable": false,
      "stateMutability": "view",
      "type": "function"
    },
    {
      "constant": false,
      "inputs": [
        {
          "name": "_newOwner",
          "type": "address"
        }
      ],
      "name": "transferOwnership",
      "outputs": [],
      "payable": false,
      "stateMutability": "nonpayable",
      "type": "function"
    },
    {
      "constant": true,
      "inputs": [
        {
          "name": "",
          "type": "address"
        },
        {
          "name": "",
          "type": "uint256"
        }
      ],
      "name": "userToCampaignsWhereContractor",
      "outputs": [
        {
          "name": "",
          "type": "address"
        }
      ],
      "payable": false,
      "stateMutability": "view",
      "type": "function"
    },
    {
      "anonymous": false,
      "inputs": [
        {
          "indexed": false,
          "name": "owner",
          "type": "address"
        },
        {
          "indexed": false,
          "name": "name",
          "type": "string"
        }
      ],
      "name": "UserNameChanged",
      "type": "event"
    },
    {
      "anonymous": false,
      "inputs": [
        {
          "indexed": true,
          "name": "previousOwner",
          "type": "address"
        }
      ],
      "name": "OwnershipRenounced",
      "type": "event"
    },
    {
      "anonymous": false,
      "inputs": [
        {
          "indexed": true,
          "name": "previousOwner",
          "type": "address"
        },
        {
          "indexed": true,
          "name": "newOwner",
          "type": "address"
        }
      ],
      "name": "OwnershipTransferred",
      "type": "event"
    },
    {
      "constant": false,
      "inputs": [
        {
          "name": "_twoKeyEventSource",
          "type": "address"
        }
      ],
      "name": "addTwoKeyEventSource",
      "outputs": [],
      "payable": false,
      "stateMutability": "nonpayable",
      "type": "function"
    },
    {
      "constant": false,
      "inputs": [
        {
          "name": "_twoKeyEventSource",
          "type": "address"
        }
      ],
      "name": "changeTwoKeyEventSource",
      "outputs": [],
      "payable": false,
      "stateMutability": "nonpayable",
      "type": "function"
    },
    {
      "constant": false,
      "inputs": [
        {
          "name": "_userAddress",
          "type": "address"
        },
        {
          "name": "_contractAddress",
          "type": "address"
        }
      ],
      "name": "addWhereContractor",
      "outputs": [],
      "payable": false,
      "stateMutability": "nonpayable",
      "type": "function"
    },
    {
      "constant": false,
      "inputs": [
        {
          "name": "_userAddress",
          "type": "address"
        },
        {
          "name": "_contractAddress",
          "type": "address"
        }
      ],
      "name": "addWhereModerator",
      "outputs": [],
      "payable": false,
      "stateMutability": "nonpayable",
      "type": "function"
    },
    {
      "constant": false,
      "inputs": [
        {
          "name": "_userAddress",
          "type": "address"
        },
        {
          "name": "_contractAddress",
          "type": "address"
        }
      ],
      "name": "addWhereRefferer",
      "outputs": [],
      "payable": false,
      "stateMutability": "nonpayable",
      "type": "function"
    },
    {
      "constant": false,
      "inputs": [
        {
          "name": "_userAddress",
          "type": "address"
        },
        {
          "name": "_contractAddress",
          "type": "address"
        }
      ],
      "name": "addWhereConverter",
      "outputs": [],
      "payable": false,
      "stateMutability": "nonpayable",
      "type": "function"
    },
    {
      "constant": true,
      "inputs": [
        {
          "name": "_userAddress",
          "type": "address"
        }
      ],
      "name": "getContractsWhereUserIsContractor",
      "outputs": [
        {
          "name": "",
          "type": "address[]"
        }
      ],
      "payable": false,
      "stateMutability": "view",
      "type": "function"
    },
    {
      "constant": true,
      "inputs": [
        {
          "name": "_userAddress",
          "type": "address"
        }
      ],
      "name": "getContractsWhereUserIsModerator",
      "outputs": [
        {
          "name": "",
          "type": "address[]"
        }
      ],
      "payable": false,
      "stateMutability": "view",
      "type": "function"
    },
    {
      "constant": true,
      "inputs": [
        {
          "name": "_userAddress",
          "type": "address"
        }
      ],
      "name": "getContractsWhereUserIsRefferer",
      "outputs": [
        {
          "name": "",
          "type": "address[]"
        }
      ],
      "payable": false,
      "stateMutability": "view",
      "type": "function"
    },
    {
      "constant": true,
      "inputs": [
        {
          "name": "_userAddress",
          "type": "address"
        }
      ],
      "name": "getContractsWhereUserIsConverter",
      "outputs": [
        {
          "name": "",
          "type": "address[]"
        }
      ],
      "payable": false,
      "stateMutability": "view",
      "type": "function"
    },
    {
      "constant": true,
      "inputs": [],
      "name": "getTwoKeyEventSourceAddress",
      "outputs": [
        {
          "name": "",
          "type": "address"
        }
      ],
      "payable": false,
      "stateMutability": "view",
      "type": "function"
    },
    {
      "constant": false,
      "inputs": [
        {
          "name": "_name",
          "type": "string"
        },
        {
          "name": "_sender",
          "type": "address"
        }
      ],
      "name": "addName",
      "outputs": [],
      "payable": false,
      "stateMutability": "nonpayable",
      "type": "function"
    },
    {
      "constant": false,
      "inputs": [
        {
          "name": "_name",
          "type": "string"
        }
      ],
      "name": "addNameByUser",
      "outputs": [],
      "payable": false,
      "stateMutability": "nonpayable",
      "type": "function"
    },
    {
      "constant": true,
      "inputs": [
        {
          "name": "_name",
          "type": "string"
        }
      ],
      "name": "getName2Owner",
      "outputs": [
        {
          "name": "",
          "type": "address"
        }
      ],
      "payable": false,
      "stateMutability": "view",
      "type": "function"
    },
    {
      "constant": true,
      "inputs": [
        {
          "name": "_sender",
          "type": "address"
        }
      ],
      "name": "getOwner2Name",
      "outputs": [
        {
          "name": "",
          "type": "string"
        }
      ],
      "payable": false,
      "stateMutability": "view",
      "type": "function"
    }
  ],
  "bytecode": "0x6080604052336000806101000a81548173ffffffffffffffffffffffffffffffffffffffff021916908373ffffffffffffffffffffffffffffffffffffffff160217905550612580806100536000396000f30060806040526004361061013e576000357c0100000000000000000000000000000000000000000000000000000000900463ffffffff168063036ec727146101435780630b4a49d6146101865780630ed6b38d146101dd57806315f0e1cc14610240578063382a6fa4146102c95780634b19b4c01461030c578063502ff5541461036f5780635507bc461461040757806355345e9214610494578063715018a6146104f75780637d11f0f11461050e5780638b06565d146105ca5780638da5cb5b14610673578063a12d3231146106ca578063b1299e9414610762578063b9b23e16146107ef578063cc28e95c1461087c578063cc95a59014610914578063e1756221146109ac578063e373773614610a68578063ec0219e414610acb578063efe1319714610b3c578063f2fde38b14610ba5578063f51ebe2314610be8575b600080fd5b34801561014f57600080fd5b50610184600480360381019080803573ffffffffffffffffffffffffffffffffffffffff169060200190929190505050610c75565b005b34801561019257600080fd5b5061019b610dad565b604051808273ffffffffffffffffffffffffffffffffffffffff1673ffffffffffffffffffffffffffffffffffffffff16815260200191505060405180910390f35b3480156101e957600080fd5b5061023e600480360381019080803573ffffffffffffffffffffffffffffffffffffffff169060200190929190803573ffffffffffffffffffffffffffffffffffffffff169060200190929190505050610dd7565b005b34801561024c57600080fd5b506102c7600480360381019080803590602001908201803590602001908080601f0160208091040260200160405190810160405280939291908181526020018383808284378201915050505050509192919290803573ffffffffffffffffffffffffffffffffffffffff169060200190929190505050610f16565b005b3480156102d557600080fd5b5061030a600480360381019080803573ffffffffffffffffffffffffffffffffffffffff169060200190929190505050610f7f565b005b34801561031857600080fd5b5061036d600480360381019080803573ffffffffffffffffffffffffffffffffffffffff169060200190929190803573ffffffffffffffffffffffffffffffffffffffff16906020019092919050505061105a565b005b34801561037b57600080fd5b506103b0600480360381019080803573ffffffffffffffffffffffffffffffffffffffff169060200190929190505050611199565b6040518080602001828103825283818151815260200191508051906020019060200280838360005b838110156103f35780820151818401526020810190506103d8565b505050509050019250505060405180910390f35b34801561041357600080fd5b50610452600480360381019080803573ffffffffffffffffffffffffffffffffffffffff169060200190929190803590602001909291905050506112a2565b604051808273ffffffffffffffffffffffffffffffffffffffff1673ffffffffffffffffffffffffffffffffffffffff16815260200191505060405180910390f35b3480156104a057600080fd5b506104f5600480360381019080803573ffffffffffffffffffffffffffffffffffffffff169060200190929190803573ffffffffffffffffffffffffffffffffffffffff1690602001909291905050506112ef565b005b34801561050357600080fd5b5061050c61142e565b005b34801561051a57600080fd5b5061054f600480360381019080803573ffffffffffffffffffffffffffffffffffffffff169060200190929190505050611530565b6040518080602001828103825283818151815260200191508051906020019080838360005b8381101561058f578082015181840152602081019050610574565b50505050905090810190601f1680156105bc5780820380516001836020036101000a031916815260200191505b509250505060405180910390f35b3480156105d657600080fd5b50610631600480360381019080803590602001908201803590602001908080601f01602080910402602001604051908101604052809392919081815260200183838082843782019150505050505091929192905050506115e0565b604051808273ffffffffffffffffffffffffffffffffffffffff1673ffffffffffffffffffffffffffffffffffffffff16815260200191505060405180910390f35b34801561067f57600080fd5b506106886116f3565b604051808273ffffffffffffffffffffffffffffffffffffffff1673ffffffffffffffffffffffffffffffffffffffff16815260200191505060405180910390f35b3480156106d657600080fd5b5061070b600480360381019080803573ffffffffffffffffffffffffffffffffffffffff169060200190929190505050611718565b6040518080602001828103825283818151815260200191508051906020019060200280838360005b8381101561074e578082015181840152602081019050610733565b505050509050019250505060405180910390f35b34801561076e57600080fd5b506107ad600480360381019080803573ffffffffffffffffffffffffffffffffffffffff16906020019092919080359060200190929190505050611821565b604051808273ffffffffffffffffffffffffffffffffffffffff1673ffffffffffffffffffffffffffffffffffffffff16815260200191505060405180910390f35b3480156107fb57600080fd5b5061083a600480360381019080803573ffffffffffffffffffffffffffffffffffffffff1690602001909291908035906020019092919050505061186e565b604051808273ffffffffffffffffffffffffffffffffffffffff1673ffffffffffffffffffffffffffffffffffffffff16815260200191505060405180910390f35b34801561088857600080fd5b506108bd600480360381019080803573ffffffffffffffffffffffffffffffffffffffff1690602001909291905050506118bb565b6040518080602001828103825283818151815260200191508051906020019060200280838360005b838110156109005780820151818401526020810190506108e5565b505050509050019250505060405180910390f35b34801561092057600080fd5b50610955600480360381019080803573ffffffffffffffffffffffffffffffffffffffff1690602001909291905050506119c4565b6040518080602001828103825283818151815260200191508051906020019060200280838360005b8381101561099857808201518184015260208101905061097d565b505050509050019250505060405180910390f35b3480156109b857600080fd5b506109ed600480360381019080803573ffffffffffffffffffffffffffffffffffffffff169060200190929190505050611acd565b6040518080602001828103825283818151815260200191508051906020019080838360005b83811015610a2d578082015181840152602081019050610a12565b50505050905090810190601f168015610a5a5780820380516001836020036101000a031916815260200191505b509250505060405180910390f35b348015610a7457600080fd5b50610ac9600480360381019080803573ffffffffffffffffffffffffffffffffffffffff169060200190929190803573ffffffffffffffffffffffffffffffffffffffff169060200190929190505050611bae565b005b348015610ad757600080fd5b50610afa6004803603810190808035600019169060200190929190505050611ced565b604051808273ffffffffffffffffffffffffffffffffffffffff1673ffffffffffffffffffffffffffffffffffffffff16815260200191505060405180910390f35b348015610b4857600080fd5b50610ba3600480360381019080803590602001908201803590602001908080601f0160208091040260200160405190810160405280939291908181526020018383808284378201915050505050509192919290505050611d20565b005b348015610bb157600080fd5b50610be6600480360381019080803573ffffffffffffffffffffffffffffffffffffffff169060200190929190505050611d2d565b005b348015610bf457600080fd5b50610c33600480360381019080803573ffffffffffffffffffffffffffffffffffffffff16906020019092919080359060200190929190505050611d94565b604051808273ffffffffffffffffffffffffffffffffffffffff1673ffffffffffffffffffffffffffffffffffffffff16815260200191505060405180910390f35b6000809054906101000a900473ffffffffffffffffffffffffffffffffffffffff1673ffffffffffffffffffffffffffffffffffffffff163373ffffffffffffffffffffffffffffffffffffffff16141515610cd057600080fd5b600073ffffffffffffffffffffffffffffffffffffffff16600160009054906101000a900473ffffffffffffffffffffffffffffffffffffffff1673ffffffffffffffffffffffffffffffffffffffff16141515610d2d57600080fd5b600073ffffffffffffffffffffffffffffffffffffffff168173ffffffffffffffffffffffffffffffffffffffff1614151515610d6957600080fd5b80600160006101000a81548173ffffffffffffffffffffffffffffffffffffffff021916908373ffffffffffffffffffffffffffffffffffffffff16021790555050565b6000600160009054906101000a900473ffffffffffffffffffffffffffffffffffffffff16905090565b600160009054906101000a900473ffffffffffffffffffffffffffffffffffffffff1673ffffffffffffffffffffffffffffffffffffffff163373ffffffffffffffffffffffffffffffffffffffff16141515610e3357600080fd5b600073ffffffffffffffffffffffffffffffffffffffff168173ffffffffffffffffffffffffffffffffffffffff1614151515610e6f57600080fd5b600360008373ffffffffffffffffffffffffffffffffffffffff1673ffffffffffffffffffffffffffffffffffffffff1681526020019081526020016000208190806001815401808255809150509060018203906000526020600020016000909192909190916101000a81548173ffffffffffffffffffffffffffffffffffffffff021916908373ffffffffffffffffffffffffffffffffffffffff160217905550505050565b6000809054906101000a900473ffffffffffffffffffffffffffffffffffffffff1673ffffffffffffffffffffffffffffffffffffffff163373ffffffffffffffffffffffffffffffffffffffff16141515610f7157600080fd5b610f7b8282611de1565b5050565b6000809054906101000a900473ffffffffffffffffffffffffffffffffffffffff1673ffffffffffffffffffffffffffffffffffffffff163373ffffffffffffffffffffffffffffffffffffffff16141515610fda57600080fd5b600073ffffffffffffffffffffffffffffffffffffffff168173ffffffffffffffffffffffffffffffffffffffff161415151561101657600080fd5b80600160006101000a81548173ffffffffffffffffffffffffffffffffffffffff021916908373ffffffffffffffffffffffffffffffffffffffff16021790555050565b600160009054906101000a900473ffffffffffffffffffffffffffffffffffffffff1673ffffffffffffffffffffffffffffffffffffffff163373ffffffffffffffffffffffffffffffffffffffff161415156110b657600080fd5b600073ffffffffffffffffffffffffffffffffffffffff168173ffffffffffffffffffffffffffffffffffffffff16141515156110f257600080fd5b600460008373ffffffffffffffffffffffffffffffffffffffff1673ffffffffffffffffffffffffffffffffffffffff1681526020019081526020016000208190806001815401808255809150509060018203906000526020600020016000909192909190916101000a81548173ffffffffffffffffffffffffffffffffffffffff021916908373ffffffffffffffffffffffffffffffffffffffff160217905550505050565b6060600073ffffffffffffffffffffffffffffffffffffffff168273ffffffffffffffffffffffffffffffffffffffff16141515156111d757600080fd5b600460008373ffffffffffffffffffffffffffffffffffffffff1673ffffffffffffffffffffffffffffffffffffffff16815260200190815260200160002080548060200260200160405190810160405280929190818152602001828054801561129657602002820191906000526020600020905b8160009054906101000a900473ffffffffffffffffffffffffffffffffffffffff1673ffffffffffffffffffffffffffffffffffffffff168152602001906001019080831161124c575b50505050509050919050565b6005602052816000526040600020818154811015156112bd57fe5b906000526020600020016000915091509054906101000a900473ffffffffffffffffffffffffffffffffffffffff1681565b600160009054906101000a900473ffffffffffffffffffffffffffffffffffffffff1673ffffffffffffffffffffffffffffffffffffffff163373ffffffffffffffffffffffffffffffffffffffff1614151561134b57600080fd5b600073ffffffffffffffffffffffffffffffffffffffff168173ffffffffffffffffffffffffffffffffffffffff161415151561138757600080fd5b600260008373ffffffffffffffffffffffffffffffffffffffff1673ffffffffffffffffffffffffffffffffffffffff1681526020019081526020016000208190806001815401808255809150509060018203906000526020600020016000909192909190916101000a81548173ffffffffffffffffffffffffffffffffffffffff021916908373ffffffffffffffffffffffffffffffffffffffff160217905550505050565b6000809054906101000a900473ffffffffffffffffffffffffffffffffffffffff1673ffffffffffffffffffffffffffffffffffffffff163373ffffffffffffffffffffffffffffffffffffffff1614151561148957600080fd5b6000809054906101000a900473ffffffffffffffffffffffffffffffffffffffff1673ffffffffffffffffffffffffffffffffffffffff167ff8df31144d9c2f0f6b59d69b8b98abd5459d07f2742c4df920b25aae33c6482060405160405180910390a260008060006101000a81548173ffffffffffffffffffffffffffffffffffffffff021916908373ffffffffffffffffffffffffffffffffffffffff160217905550565b60066020528060005260406000206000915090508054600181600116156101000203166002900480601f0160208091040260200160405190810160405280929190818152602001828054600181600116156101000203166002900480156115d85780601f106115ad576101008083540402835291602001916115d8565b820191906000526020600020905b8154815290600101906020018083116115bb57829003601f168201915b505050505081565b600060076000836040516020018082805190602001908083835b60208310151561161f57805182526020820191506020810190506020830392506115fa565b6001836020036101000a0380198251168184511680821785525050505050509050019150506040516020818303038152906040526040518082805190602001908083835b6020831015156116885780518252602082019150602081019050602083039250611663565b6001836020036101000a03801982511681845116808217855250505050505090500191505060405180910390206000191660001916815260200190815260200160002060009054906101000a900473ffffffffffffffffffffffffffffffffffffffff169050919050565b6000809054906101000a900473ffffffffffffffffffffffffffffffffffffffff1681565b6060600073ffffffffffffffffffffffffffffffffffffffff168273ffffffffffffffffffffffffffffffffffffffff161415151561175657600080fd5b600260008373ffffffffffffffffffffffffffffffffffffffff1673ffffffffffffffffffffffffffffffffffffffff16815260200190815260200160002080548060200260200160405190810160405280929190818152602001828054801561181557602002820191906000526020600020905b8160009054906101000a900473ffffffffffffffffffffffffffffffffffffffff1673ffffffffffffffffffffffffffffffffffffffff16815260200190600101908083116117cb575b50505050509050919050565b60036020528160005260406000208181548110151561183c57fe5b906000526020600020016000915091509054906101000a900473ffffffffffffffffffffffffffffffffffffffff1681565b60046020528160005260406000208181548110151561188957fe5b906000526020600020016000915091509054906101000a900473ffffffffffffffffffffffffffffffffffffffff1681565b6060600073ffffffffffffffffffffffffffffffffffffffff168273ffffffffffffffffffffffffffffffffffffffff16141515156118f957600080fd5b600360008373ffffffffffffffffffffffffffffffffffffffff1673ffffffffffffffffffffffffffffffffffffffff1681526020019081526020016000208054806020026020016040519081016040528092919081815260200182805480156119b857602002820191906000526020600020905b8160009054906101000a900473ffffffffffffffffffffffffffffffffffffffff1673ffffffffffffffffffffffffffffffffffffffff168152602001906001019080831161196e575b50505050509050919050565b6060600073ffffffffffffffffffffffffffffffffffffffff168273ffffffffffffffffffffffffffffffffffffffff1614151515611a0257600080fd5b600560008373ffffffffffffffffffffffffffffffffffffffff1673ffffffffffffffffffffffffffffffffffffffff168152602001908152602001600020805480602002602001604051908101604052809291908181526020018280548015611ac157602002820191906000526020600020905b8160009054906101000a900473ffffffffffffffffffffffffffffffffffffffff1673ffffffffffffffffffffffffffffffffffffffff1681526020019060010190808311611a77575b50505050509050919050565b6060600660008373ffffffffffffffffffffffffffffffffffffffff1673ffffffffffffffffffffffffffffffffffffffff1681526020019081526020016000208054600181600116156101000203166002900480601f016020809104026020016040519081016040528092919081815260200182805460018160011615610100020316600290048015611ba25780601f10611b7757610100808354040283529160200191611ba2565b820191906000526020600020905b815481529060010190602001808311611b8557829003601f168201915b50505050509050919050565b600160009054906101000a900473ffffffffffffffffffffffffffffffffffffffff1673ffffffffffffffffffffffffffffffffffffffff163373ffffffffffffffffffffffffffffffffffffffff16141515611c0a57600080fd5b600073ffffffffffffffffffffffffffffffffffffffff168173ffffffffffffffffffffffffffffffffffffffff1614151515611c4657600080fd5b600560008373ffffffffffffffffffffffffffffffffffffffff1673ffffffffffffffffffffffffffffffffffffffff1681526020019081526020016000208190806001815401808255809150509060018203906000526020600020016000909192909190916101000a81548173ffffffffffffffffffffffffffffffffffffffff021916908373ffffffffffffffffffffffffffffffffffffffff160217905550505050565b60076020528060005260406000206000915054906101000a900473ffffffffffffffffffffffffffffffffffffffff1681565b611d2a8133611de1565b50565b6000809054906101000a900473ffffffffffffffffffffffffffffffffffffffff1673ffffffffffffffffffffffffffffffffffffffff163373ffffffffffffffffffffffffffffffffffffffff16141515611d8857600080fd5b611d91816123b5565b50565b600260205281600052604060002081815481101515611daf57fe5b906000526020600020016000915091509054906101000a900473ffffffffffffffffffffffffffffffffffffffff1681565b6060600060076000856040516020018082805190602001908083835b602083101515611e225780518252602082019150602081019050602083039250611dfd565b6001836020036101000a0380198251168184511680821785525050505050509050019150506040516020818303038152906040526040518082805190602001908083835b602083101515611e8b5780518252602082019150602081019050602083039250611e66565b6001836020036101000a03801982511681845116808217855250505050505090500191505060405180910390206000191660001916815260200190815260200160002060009054906101000a900473ffffffffffffffffffffffffffffffffffffffff1673ffffffffffffffffffffffffffffffffffffffff16141515611f1157600080fd5b600660008373ffffffffffffffffffffffffffffffffffffffff1673ffffffffffffffffffffffffffffffffffffffff1681526020019081526020016000208054600181600116156101000203166002900480601f016020809104026020016040519081016040528092919081815260200182805460018160011615610100020316600290048015611fe45780601f10611fb957610100808354040283529160200191611fe4565b820191906000526020600020905b815481529060010190602001808311611fc757829003601f168201915b505050505090506000815114151561216457600060076000600660008673ffffffffffffffffffffffffffffffffffffffff1673ffffffffffffffffffffffffffffffffffffffff16815260200190815260200160002060405160200180828054600181600116156101000203166002900480156120995780601f10612077576101008083540402835291820191612099565b820191906000526020600020905b815481529060010190602001808311612085575b50509150506040516020818303038152906040526040518082805190602001908083835b6020831015156120e257805182526020820191506020810190506020830392506120bd565b6001836020036101000a03801982511681845116808217855250505050505090500191505060405180910390206000191660001916815260200190815260200160002060006101000a81548173ffffffffffffffffffffffffffffffffffffffff021916908373ffffffffffffffffffffffffffffffffffffffff1602179055505b82600660008473ffffffffffffffffffffffffffffffffffffffff1673ffffffffffffffffffffffffffffffffffffffff16815260200190815260200160002090805190602001906121b79291906124af565b508160076000856040516020018082805190602001908083835b6020831015156121f657805182526020820191506020810190506020830392506121d1565b6001836020036101000a0380198251168184511680821785525050505050509050019150506040516020818303038152906040526040518082805190602001908083835b60208310151561225f578051825260208201915060208101905060208303925061223a565b6001836020036101000a03801982511681845116808217855250505050505090500191505060405180910390206000191660001916815260200190815260200160002060006101000a81548173ffffffffffffffffffffffffffffffffffffffff021916908373ffffffffffffffffffffffffffffffffffffffff1602179055507f9df5b3e0e60fff9b971dcb675e7193614408ac9f4ed701f4dfd04863c66beac18284604051808373ffffffffffffffffffffffffffffffffffffffff1673ffffffffffffffffffffffffffffffffffffffff16815260200180602001828103825283818151815260200191508051906020019080838360005b8381101561237557808201518184015260208101905061235a565b50505050905090810190601f1680156123a25780820380516001836020036101000a031916815260200191505b50935050505060405180910390a1505050565b600073ffffffffffffffffffffffffffffffffffffffff168173ffffffffffffffffffffffffffffffffffffffff16141515156123f157600080fd5b8073ffffffffffffffffffffffffffffffffffffffff166000809054906101000a900473ffffffffffffffffffffffffffffffffffffffff1673ffffffffffffffffffffffffffffffffffffffff167f8be0079c531659141344cd1fd0a4f28419497f9722a3daafe3b4186f6b6457e060405160405180910390a3806000806101000a81548173ffffffffffffffffffffffffffffffffffffffff021916908373ffffffffffffffffffffffffffffffffffffffff16021790555050565b828054600181600116156101000203166002900490600052602060002090601f016020900481019282601f106124f057805160ff191683800117855561251e565b8280016001018555821561251e579182015b8281111561251d578251825591602001919060010190612502565b5b50905061252b919061252f565b5090565b61255191905b8082111561254d576000816000905550600101612535565b5090565b905600a165627a7a7230582088680050e3a15a7341ccc74b0e125fac6d29a07ab4b73eb3aa6ae8f40fc23c660029",
  "source": "pragma solidity ^0.4.24;\n\nimport '../openzeppelin-solidity/contracts/ownership/Ownable.sol';\n\ncontract TwoKeyReg is Ownable {\n\n  /// Address of 2key event source contract which will have permission to write on this contract\n  /// (Address is enough, there is no need to spend sufficient gas and instantiate whole contract)\n  address twoKeyEventSource;\n\n  /// Modifier which will allow only 2key event source to issue calls on selected methods\n  modifier onlyTwoKeyEventSource {\n    require(msg.sender == twoKeyEventSource);\n    _;\n  }\n\n  /// Only TwoKeyReg owner can call this method (modifier) since TwoKeyReg is Ownable\n  /// @notice Method which will allow us to add allowed 2key event source contract to write here\n  /// @dev Only owner can call this method (?)\n  /// @param _twoKeyEventSource is address of already deployed 2key Event source contract\n  function addTwoKeyEventSource(address _twoKeyEventSource) public onlyOwner {\n    require(twoKeyEventSource == address(0));\n    require(_twoKeyEventSource != address(0));\n\n    twoKeyEventSource = _twoKeyEventSource;\n  }\n\n  /// @notice Method to change the allowed TwoKeyEventSource contract address\n  /// @param _twoKeyEventSource new TwoKeyEventSource contract address\n  function changeTwoKeyEventSource(address _twoKeyEventSource) public onlyOwner {\n    require(_twoKeyEventSource != address(0));\n\n    twoKeyEventSource = _twoKeyEventSource;\n  }\n  /*\n    Those mappings are for the fetching data about in what contracts user participates in which role\n  */\n\n  /// mapping users address to addresses of campaigns where he is contractor\n  mapping(address => address[]) public userToCampaignsWhereContractor;\n\n  /// mapping users address to addresses of campaigns where he is moderator\n  mapping(address => address[]) public userToCampaignsWhereModerator;\n\n  /// mapping users address to addresses of campaigns where he is refferer\n  mapping(address => address[]) public userToCampaignsWhereRefferer;\n\n  /// mapping users address to addresses of campaigns where he is converter\n  mapping(address => address[]) public userToCampaignsWhereConverter;\n\n  /// Only TwoKeyEventSource contract can issue this calls\n  /// @notice Function to add new campaign contract where user is contractor\n  /// @dev We're requiring the contract address different address 0 because it needs to be deployed\n  /// @param _userAddress is address of contractor\n  /// @param _contractAddress is address of deployed campaign contract\n  function addWhereContractor(address _userAddress, address _contractAddress) public onlyTwoKeyEventSource {\n    require(_contractAddress != address(0));\n    userToCampaignsWhereContractor[_userAddress].push(_contractAddress);\n  }\n  /// Only TwoKeyEventSource contract can issue this calls\n  /// @notice Function to add new campaign contract where user is moderator\n  /// @dev We're requiring the contract address different address 0 because it needs to be deployed\n  /// @param _userAddress is address of moderator\n  /// @param _contractAddress is address of deployed campaign contract\n  function addWhereModerator(address _userAddress, address _contractAddress) public onlyTwoKeyEventSource {\n    require(_contractAddress != address(0));\n    userToCampaignsWhereModerator[_userAddress].push(_contractAddress);\n  }\n  /// Only TwoKeyEventSource contract can issue this calls\n  /// @notice Function to add new campaign contract where user is refferer\n  /// @dev We're requiring the contract address different address 0 because it needs to be deployed\n  /// @param _userAddress is address of refferer\n  /// @param _contractAddress is address of deployed campaign contract\n  function addWhereRefferer(address _userAddress, address _contractAddress) public onlyTwoKeyEventSource {\n    require(_contractAddress != address(0));\n    userToCampaignsWhereRefferer[_userAddress].push(_contractAddress);\n  }\n\n  /// Only TwoKeyEventSource contract can issue this calls\n  /// @notice Function to add new campaign contract where user is converter\n  /// @dev We're requiring the contract address different address 0 because it needs to be deployed\n  /// @param _userAddress is address of converter\n  /// @param _contractAddress is address of deployed campaign contract\n  function addWhereConverter(address _userAddress, address _contractAddress) public onlyTwoKeyEventSource {\n    require(_contractAddress != address(0));\n    userToCampaignsWhereConverter[_userAddress].push(_contractAddress);\n  }\n\n  /// View function - doesn't cost any gas to be executed\n  /// @notice Function to fetch all campaign contracts where user is contractor\n  /// @param _userAddress is address of user\n  /// @return array of addresses (campaign contracts)\n  function getContractsWhereUserIsContractor(address _userAddress) public view returns (address[]) {\n      require(_userAddress != address(0));\n      return userToCampaignsWhereContractor[_userAddress];\n  }\n\n  /// View function - doesn't cost any gas to be executed\n  /// @notice Function to fetch all campaign contracts where user is moderator\n  /// @param _userAddress is address of user\n  /// @return array of addresses (campaign contracts)\n  function getContractsWhereUserIsModerator(address _userAddress) public view returns (address[]) {\n      require(_userAddress != address(0));\n      return userToCampaignsWhereModerator[_userAddress];\n  }\n\n  /// View function - doesn't cost any gas to be executed\n  /// @notice Function to fetch all campaign contracts where user is refferer\n  /// @param _userAddress is address of user\n  /// @return array of addresses (campaign contracts)\n  function getContractsWhereUserIsRefferer(address _userAddress) public view returns (address[]) {\n      require(_userAddress != address(0));\n      return userToCampaignsWhereRefferer[_userAddress];\n  }\n\n  /// View function - doesn't cost any gas to be executed\n  /// @notice Function to fetch all campaign contracts where user is converter\n  /// @param _userAddress is address of user\n  /// @return array of addresses (campaign contracts)\n  function getContractsWhereUserIsConverter(address _userAddress) public view returns (address[]) {\n      require(_userAddress != address(0));\n      return userToCampaignsWhereConverter[_userAddress];\n  }\n  /// View function to return address of current active twoKeyEventSource contract\n  function getTwoKeyEventSourceAddress() public view returns (address) {\n    return twoKeyEventSource;\n  }\n  mapping(address => string) public owner2name;\n  mapping(bytes32 => address) public name2owner;\n\n  event UserNameChanged(address owner, string name);\n\n  function addNameInternal(string _name, address _sender) private {\n    // check if name is taken\n    if (name2owner[keccak256(abi.encodePacked(_name))] != 0) {\n      revert();\n    }\n    // remove previous name\n    bytes memory last_name = bytes(owner2name[_sender]);\n    if (last_name.length != 0) {\n      name2owner[keccak256(abi.encodePacked(owner2name[_sender]))] = 0;\n    }\n    owner2name[_sender] = _name;\n    name2owner[keccak256(abi.encodePacked(_name))] = _sender;\n    emit UserNameChanged(_sender, _name);\n  }\n\n  function addName(string _name, address _sender) onlyOwner public {\n    addNameInternal(_name, _sender);\n  }\n\n  function addNameByUser(string _name) public {\n    addNameInternal(_name, msg.sender);\n  }\n\n  function getName2Owner(string _name) public view returns (address) {\n    return name2owner[keccak256(abi.encodePacked(_name))];\n  }\n  function getOwner2Name(address _sender) public view returns (string) {\n    return owner2name[_sender];\n  }\n\n}\n",
  "sourcePath": "/Users/aydnep/2key/contracts/contracts/2key/TwoKeyReg.sol",
  "compiler": {
    "name": "solc",
    "version": "0.4.24+commit.e67f0147.Emscripten.clang"
  },
  "schemaVersion": "2.0.1",
  "updatedAt": "2018-08-30T05:03:41.694Z"
}