{
  "contractName": "TwoKeyReg",
  "abi": [
    {
      "constant": true,
      "inputs": [
        {
          "name": "",
          "type": "address"
        }
      ],
      "name": "owner2name",
      "outputs": [
        {
          "name": "",
          "type": "string"
        }
      ],
      "payable": false,
      "stateMutability": "view",
      "type": "function"
    },
    {
      "constant": true,
      "inputs": [
        {
          "name": "",
          "type": "bytes32"
        }
      ],
      "name": "name2owner",
      "outputs": [
        {
          "name": "",
          "type": "address"
        }
      ],
      "payable": false,
      "stateMutability": "view",
      "type": "function"
    },
    {
      "anonymous": false,
      "inputs": [
        {
          "indexed": false,
          "name": "owner",
          "type": "address"
        },
        {
          "indexed": false,
          "name": "name",
          "type": "string"
        }
      ],
      "name": "UserNameChanged",
      "type": "event"
    },
    {
      "constant": false,
      "inputs": [
        {
          "name": "_name",
          "type": "string"
        }
      ],
      "name": "addName",
      "outputs": [],
      "payable": false,
      "stateMutability": "nonpayable",
      "type": "function"
    },
    {
      "constant": true,
      "inputs": [
        {
          "name": "_name",
          "type": "string"
        }
      ],
      "name": "getName2Owner",
      "outputs": [
        {
          "name": "",
          "type": "address"
        }
      ],
      "payable": false,
      "stateMutability": "view",
      "type": "function"
    },
    {
      "constant": true,
      "inputs": [
        {
          "name": "_owner",
          "type": "address"
        }
      ],
      "name": "getOwner2Name",
      "outputs": [
        {
          "name": "",
          "type": "string"
        }
      ],
      "payable": false,
      "stateMutability": "view",
      "type": "function"
    }
  ],
  "bytecode": "0x608060405234801561001057600080fd5b50610cea806100206000396000f30060806040526004361061006d576000357c0100000000000000000000000000000000000000000000000000000000900463ffffffff16806311456b47146100725780637d11f0f1146100db5780638b06565d14610197578063e175622114610240578063ec0219e4146102fc575b600080fd5b34801561007e57600080fd5b506100d9600480360381019080803590602001908201803590602001908080601f016020809104026020016040519081016040528093929190818152602001838380828437820191505050505050919291929050505061036d565b005b3480156100e757600080fd5b5061011c600480360381019080803573ffffffffffffffffffffffffffffffffffffffff169060200190929190505050610943565b6040518080602001828103825283818151815260200191508051906020019080838360005b8381101561015c578082015181840152602081019050610141565b50505050905090810190601f1680156101895780820380516001836020036101000a031916815260200191505b509250505060405180910390f35b3480156101a357600080fd5b506101fe600480360381019080803590602001908201803590602001908080601f01602080910402602001604051908101604052809392919081815260200183838082843782019150505050505091929192905050506109f3565b604051808273ffffffffffffffffffffffffffffffffffffffff1673ffffffffffffffffffffffffffffffffffffffff16815260200191505060405180910390f35b34801561024c57600080fd5b50610281600480360381019080803573ffffffffffffffffffffffffffffffffffffffff169060200190929190505050610b06565b6040518080602001828103825283818151815260200191508051906020019080838360005b838110156102c15780820151818401526020810190506102a6565b50505050905090810190601f1680156102ee5780820380516001836020036101000a031916815260200191505b509250505060405180910390f35b34801561030857600080fd5b5061032b6004803603810190808035600019169060200190929190505050610be6565b604051808273ffffffffffffffffffffffffffffffffffffffff1673ffffffffffffffffffffffffffffffffffffffff16815260200191505060405180910390f35b60006060339150600060016000856040516020018082805190602001908083835b6020831015156103b3578051825260208201915060208101905060208303925061038e565b6001836020036101000a0380198251168184511680821785525050505050509050019150506040516020818303038152906040526040518082805190602001908083835b60208310151561041c57805182526020820191506020810190506020830392506103f7565b6001836020036101000a03801982511681845116808217855250505050505090500191505060405180910390206000191660001916815260200190815260200160002060009054906101000a900473ffffffffffffffffffffffffffffffffffffffff1673ffffffffffffffffffffffffffffffffffffffff161415156104a257600080fd5b6000808373ffffffffffffffffffffffffffffffffffffffff1673ffffffffffffffffffffffffffffffffffffffff1681526020019081526020016000208054600181600116156101000203166002900480601f0160208091040260200160405190810160405280929190818152602001828054600181600116156101000203166002900480156105745780601f1061054957610100808354040283529160200191610574565b820191906000526020600020905b81548152906001019060200180831161055757829003601f168201915b50505050509050600081511415156106f3576000600160008060008673ffffffffffffffffffffffffffffffffffffffff1673ffffffffffffffffffffffffffffffffffffffff16815260200190815260200160002060405160200180828054600181600116156101000203166002900480156106285780601f10610606576101008083540402835291820191610628565b820191906000526020600020905b815481529060010190602001808311610614575b50509150506040516020818303038152906040526040518082805190602001908083835b602083101515610671578051825260208201915060208101905060208303925061064c565b6001836020036101000a03801982511681845116808217855250505050505090500191505060405180910390206000191660001916815260200190815260200160002060006101000a81548173ffffffffffffffffffffffffffffffffffffffff021916908373ffffffffffffffffffffffffffffffffffffffff1602179055505b826000808473ffffffffffffffffffffffffffffffffffffffff1673ffffffffffffffffffffffffffffffffffffffff1681526020019081526020016000209080519060200190610745929190610c19565b508160016000856040516020018082805190602001908083835b602083101515610784578051825260208201915060208101905060208303925061075f565b6001836020036101000a0380198251168184511680821785525050505050509050019150506040516020818303038152906040526040518082805190602001908083835b6020831015156107ed57805182526020820191506020810190506020830392506107c8565b6001836020036101000a03801982511681845116808217855250505050505090500191505060405180910390206000191660001916815260200190815260200160002060006101000a81548173ffffffffffffffffffffffffffffffffffffffff021916908373ffffffffffffffffffffffffffffffffffffffff1602179055507f9df5b3e0e60fff9b971dcb675e7193614408ac9f4ed701f4dfd04863c66beac18284604051808373ffffffffffffffffffffffffffffffffffffffff1673ffffffffffffffffffffffffffffffffffffffff16815260200180602001828103825283818151815260200191508051906020019080838360005b838110156109035780820151818401526020810190506108e8565b50505050905090810190601f1680156109305780820380516001836020036101000a031916815260200191505b50935050505060405180910390a1505050565b60006020528060005260406000206000915090508054600181600116156101000203166002900480601f0160208091040260200160405190810160405280929190818152602001828054600181600116156101000203166002900480156109eb5780601f106109c0576101008083540402835291602001916109eb565b820191906000526020600020905b8154815290600101906020018083116109ce57829003601f168201915b505050505081565b600060016000836040516020018082805190602001908083835b602083101515610a325780518252602082019150602081019050602083039250610a0d565b6001836020036101000a0380198251168184511680821785525050505050509050019150506040516020818303038152906040526040518082805190602001908083835b602083101515610a9b5780518252602082019150602081019050602083039250610a76565b6001836020036101000a03801982511681845116808217855250505050505090500191505060405180910390206000191660001916815260200190815260200160002060009054906101000a900473ffffffffffffffffffffffffffffffffffffffff169050919050565b60606000808373ffffffffffffffffffffffffffffffffffffffff1673ffffffffffffffffffffffffffffffffffffffff1681526020019081526020016000208054600181600116156101000203166002900480601f016020809104026020016040519081016040528092919081815260200182805460018160011615610100020316600290048015610bda5780601f10610baf57610100808354040283529160200191610bda565b820191906000526020600020905b815481529060010190602001808311610bbd57829003601f168201915b50505050509050919050565b60016020528060005260406000206000915054906101000a900473ffffffffffffffffffffffffffffffffffffffff1681565b828054600181600116156101000203166002900490600052602060002090601f016020900481019282601f10610c5a57805160ff1916838001178555610c88565b82800160010185558215610c88579182015b82811115610c87578251825591602001919060010190610c6c565b5b509050610c959190610c99565b5090565b610cbb91905b80821115610cb7576000816000905550600101610c9f565b5090565b905600a165627a7a72305820a4464b61e31f06298b0fee19bebdfc825e9d9918b9db49f3380bf08afce24d6a0029",
  "source": "pragma solidity ^0.4.24; //We have to specify what version of compiler this code will use\n//import \"openzeppelin-solidity/contracts/ownership/Ownable.sol\";\n\ncontract TwoKeyReg\n//is Ownable\n{\n  mapping(address => string) public owner2name;\n  mapping(bytes32 => address) public name2owner;\n\n  event UserNameChanged(address owner, string name);\n  function addName(string _name) public {\n    address _owner = msg.sender;\n    // check if name is taken\n    if (name2owner[keccak256(abi.encodePacked(_name))] != 0) {\n      revert();\n    }\n    // remove previous name\n    bytes memory last_name = bytes(owner2name[_owner]);\n    if (last_name.length != 0) {\n      name2owner[keccak256(abi.encodePacked(owner2name[_owner]))] = 0;\n    }\n    owner2name[_owner] = _name;\n    name2owner[keccak256(abi.encodePacked(_name))] = _owner;\n    emit UserNameChanged(_owner, _name);\n  }\n\n  function getName2Owner(string _name) public view returns (address) {\n    return name2owner[keccak256(abi.encodePacked(_name))];\n  }\n  function getOwner2Name(address _owner) public view returns (string) {\n    return owner2name[_owner];\n  }\n\n  // Moved to TwoKeyEventSource\n//  event Created(address indexed owner, address c);\n//  function createdContract(address _owner) public {\n//    address c = msg.sender;\n//    // TODO Yoram: check if we can get the code of c and check if the has exists in a list allowed codes\n//    // TODO Yoram: only the owner of TwoKeyReg is allowed to edit the list of allowed codes\n//    emit Created(_owner, c);\n//  }\n\n  // Its better if dApp handles created contract by itself\n//  event Verified(address indexed owner, address c);\n//  function verifiedContract(address owner, address c) onlyOwner public {\n//    emit Verified(owner, c);\n//  }\n\n  // Moved to TwoKeyEventSource\n//  event Joined(address indexed to, address c);\n//  function joinedContract(address to) public {\n//    address c = msg.sender;\n//    emit Joined(to, c);\n//  }\n}\n",
  "sourcePath": "/Users/udi/2key/contracts/contracts/TwoKeyReg.sol",
  "compiler": {
    "name": "solc",
    "version": "0.4.24+commit.e67f0147.Emscripten.clang"
  },
  "schemaVersion": "2.0.1",
  "updatedAt": "2018-08-22T09:10:02.919Z"
}