{
  "contractName": "TwoKeyCongress",
  "abi": [
    {
      "constant": true,
      "inputs": [
        {
          "name": "",
          "type": "uint256"
        }
      ],
      "name": "proposals",
      "outputs": [
        {
          "name": "recipient",
          "type": "address"
        },
        {
          "name": "amount",
          "type": "uint256"
        },
        {
          "name": "description",
          "type": "string"
        },
        {
          "name": "minExecutionDate",
          "type": "uint256"
        },
        {
          "name": "executed",
          "type": "bool"
        },
        {
          "name": "proposalPassed",
          "type": "bool"
        },
        {
          "name": "numberOfVotes",
          "type": "uint256"
        },
        {
          "name": "currentResult",
          "type": "int256"
        },
        {
          "name": "proposalHash",
          "type": "bytes32"
        }
      ],
      "payable": false,
      "stateMutability": "view",
      "type": "function"
    },
    {
      "constant": true,
      "inputs": [
        {
          "name": "",
          "type": "address"
        }
      ],
      "name": "memberId",
      "outputs": [
        {
          "name": "",
          "type": "uint256"
        }
      ],
      "payable": false,
      "stateMutability": "view",
      "type": "function"
    },
    {
      "constant": true,
      "inputs": [],
      "name": "numProposals",
      "outputs": [
        {
          "name": "",
          "type": "uint256"
        }
      ],
      "payable": false,
      "stateMutability": "view",
      "type": "function"
    },
    {
      "constant": true,
      "inputs": [
        {
          "name": "",
          "type": "uint256"
        }
      ],
      "name": "members",
      "outputs": [
        {
          "name": "member",
          "type": "address"
        },
        {
          "name": "name",
          "type": "string"
        },
        {
          "name": "memberSince",
          "type": "uint256"
        }
      ],
      "payable": false,
      "stateMutability": "view",
      "type": "function"
    },
    {
      "constant": true,
      "inputs": [],
      "name": "debatingPeriodInMinutes",
      "outputs": [
        {
          "name": "",
          "type": "uint256"
        }
      ],
      "payable": false,
      "stateMutability": "view",
      "type": "function"
    },
    {
      "constant": false,
      "inputs": [],
      "name": "renounceOwnership",
      "outputs": [],
      "payable": false,
      "stateMutability": "nonpayable",
      "type": "function"
    },
    {
      "constant": true,
      "inputs": [],
      "name": "minimumQuorum",
      "outputs": [
        {
          "name": "",
          "type": "uint256"
        }
      ],
      "payable": false,
      "stateMutability": "view",
      "type": "function"
    },
    {
      "constant": true,
      "inputs": [],
      "name": "owner",
      "outputs": [
        {
          "name": "",
          "type": "address"
        }
      ],
      "payable": false,
      "stateMutability": "view",
      "type": "function"
    },
    {
      "constant": false,
      "inputs": [
        {
          "name": "_from",
          "type": "address"
        },
        {
          "name": "_value",
          "type": "uint256"
        },
        {
          "name": "_token",
          "type": "address"
        },
        {
          "name": "_extraData",
          "type": "bytes"
        }
      ],
      "name": "receiveApproval",
      "outputs": [],
      "payable": false,
      "stateMutability": "nonpayable",
      "type": "function"
    },
    {
      "constant": false,
      "inputs": [
        {
          "name": "_newOwner",
          "type": "address"
        }
      ],
      "name": "transferOwnership",
      "outputs": [],
      "payable": false,
      "stateMutability": "nonpayable",
      "type": "function"
    },
    {
      "inputs": [
        {
          "name": "_minimumQuorumForProposals",
          "type": "uint256"
        },
        {
          "name": "_minutesForDebate",
          "type": "uint256"
        }
      ],
      "payable": true,
      "stateMutability": "payable",
      "type": "constructor"
    },
    {
      "payable": true,
      "stateMutability": "payable",
      "type": "fallback"
    },
    {
      "anonymous": false,
      "inputs": [
        {
          "indexed": false,
          "name": "proposalID",
          "type": "uint256"
        },
        {
          "indexed": false,
          "name": "recipient",
          "type": "address"
        },
        {
          "indexed": false,
          "name": "amount",
          "type": "uint256"
        },
        {
          "indexed": false,
          "name": "description",
          "type": "string"
        }
      ],
      "name": "ProposalAdded",
      "type": "event"
    },
    {
      "anonymous": false,
      "inputs": [
        {
          "indexed": false,
          "name": "proposalID",
          "type": "uint256"
        },
        {
          "indexed": false,
          "name": "position",
          "type": "bool"
        },
        {
          "indexed": false,
          "name": "voter",
          "type": "address"
        },
        {
          "indexed": false,
          "name": "justification",
          "type": "string"
        }
      ],
      "name": "Voted",
      "type": "event"
    },
    {
      "anonymous": false,
      "inputs": [
        {
          "indexed": false,
          "name": "proposalID",
          "type": "uint256"
        },
        {
          "indexed": false,
          "name": "result",
          "type": "int256"
        },
        {
          "indexed": false,
          "name": "quorum",
          "type": "uint256"
        },
        {
          "indexed": false,
          "name": "active",
          "type": "bool"
        }
      ],
      "name": "ProposalTallied",
      "type": "event"
    },
    {
      "anonymous": false,
      "inputs": [
        {
          "indexed": false,
          "name": "member",
          "type": "address"
        },
        {
          "indexed": false,
          "name": "isMember",
          "type": "bool"
        }
      ],
      "name": "MembershipChanged",
      "type": "event"
    },
    {
      "anonymous": false,
      "inputs": [
        {
          "indexed": false,
          "name": "_newMinimumQuorum",
          "type": "uint256"
        },
        {
          "indexed": false,
          "name": "_newDebatingPeriodInMinutes",
          "type": "uint256"
        }
      ],
      "name": "ChangeOfRules",
      "type": "event"
    },
    {
      "anonymous": false,
      "inputs": [
        {
          "indexed": false,
          "name": "sender",
          "type": "address"
        },
        {
          "indexed": false,
          "name": "amount",
          "type": "uint256"
        }
      ],
      "name": "ReceivedEther",
      "type": "event"
    },
    {
      "anonymous": false,
      "inputs": [
        {
          "indexed": false,
          "name": "_from",
          "type": "address"
        },
        {
          "indexed": false,
          "name": "_value",
          "type": "uint256"
        },
        {
          "indexed": false,
          "name": "_token",
          "type": "address"
        },
        {
          "indexed": false,
          "name": "_extraData",
          "type": "bytes"
        }
      ],
      "name": "ReceivedTokens",
      "type": "event"
    },
    {
      "anonymous": false,
      "inputs": [
        {
          "indexed": true,
          "name": "previousOwner",
          "type": "address"
        }
      ],
      "name": "OwnershipRenounced",
      "type": "event"
    },
    {
      "anonymous": false,
      "inputs": [
        {
          "indexed": true,
          "name": "previousOwner",
          "type": "address"
        },
        {
          "indexed": true,
          "name": "newOwner",
          "type": "address"
        }
      ],
      "name": "OwnershipTransferred",
      "type": "event"
    },
    {
      "constant": false,
      "inputs": [
        {
          "name": "targetMember",
          "type": "address"
        },
        {
          "name": "memberName",
          "type": "string"
        }
      ],
      "name": "addMember",
      "outputs": [],
      "payable": false,
      "stateMutability": "nonpayable",
      "type": "function"
    },
    {
      "constant": false,
      "inputs": [
        {
          "name": "targetMember",
          "type": "address"
        }
      ],
      "name": "removeMember",
      "outputs": [],
      "payable": false,
      "stateMutability": "nonpayable",
      "type": "function"
    },
    {
      "constant": false,
      "inputs": [
        {
          "name": "minimumQuorumForProposals",
          "type": "uint256"
        },
        {
          "name": "minutesForDebate",
          "type": "uint256"
        }
      ],
      "name": "changeVotingRules",
      "outputs": [],
      "payable": false,
      "stateMutability": "nonpayable",
      "type": "function"
    },
    {
      "constant": false,
      "inputs": [
        {
          "name": "beneficiary",
          "type": "address"
        },
        {
          "name": "weiAmount",
          "type": "uint256"
        },
        {
          "name": "jobDescription",
          "type": "string"
        },
        {
          "name": "transactionBytecode",
          "type": "bytes"
        }
      ],
      "name": "newProposal",
      "outputs": [
        {
          "name": "proposalID",
          "type": "uint256"
        }
      ],
      "payable": false,
      "stateMutability": "nonpayable",
      "type": "function"
    },
    {
      "constant": false,
      "inputs": [
        {
          "name": "beneficiary",
          "type": "address"
        },
        {
          "name": "etherAmount",
          "type": "uint256"
        },
        {
          "name": "jobDescription",
          "type": "string"
        },
        {
          "name": "transactionBytecode",
          "type": "bytes"
        }
      ],
      "name": "newProposalInEther",
      "outputs": [
        {
          "name": "proposalID",
          "type": "uint256"
        }
      ],
      "payable": false,
      "stateMutability": "nonpayable",
      "type": "function"
    },
    {
      "constant": true,
      "inputs": [
        {
          "name": "proposalNumber",
          "type": "uint256"
        },
        {
          "name": "beneficiary",
          "type": "address"
        },
        {
          "name": "weiAmount",
          "type": "uint256"
        },
        {
          "name": "transactionBytecode",
          "type": "bytes"
        }
      ],
      "name": "checkProposalCode",
      "outputs": [
        {
          "name": "codeChecksOut",
          "type": "bool"
        }
      ],
      "payable": false,
      "stateMutability": "view",
      "type": "function"
    },
    {
      "constant": false,
      "inputs": [
        {
          "name": "proposalNumber",
          "type": "uint256"
        },
        {
          "name": "supportsProposal",
          "type": "bool"
        },
        {
          "name": "justificationText",
          "type": "string"
        }
      ],
      "name": "vote",
      "outputs": [
        {
          "name": "voteID",
          "type": "uint256"
        }
      ],
      "payable": false,
      "stateMutability": "nonpayable",
      "type": "function"
    },
    {
      "constant": true,
      "inputs": [
        {
          "name": "proposalNumber",
          "type": "uint256"
        }
      ],
      "name": "getVoteCount",
      "outputs": [
        {
          "name": "numberOfVotes",
          "type": "uint256"
        },
        {
          "name": "currentResult",
          "type": "int256"
        },
        {
          "name": "description",
          "type": "string"
        }
      ],
      "payable": false,
      "stateMutability": "view",
      "type": "function"
    },
    {
      "constant": false,
      "inputs": [
        {
          "name": "proposalNumber",
          "type": "uint256"
        },
        {
          "name": "transactionBytecode",
          "type": "bytes"
        }
      ],
      "name": "executeProposal",
      "outputs": [],
      "payable": false,
      "stateMutability": "nonpayable",
      "type": "function"
    }
  ],
  "bytecode": "0x608060405260405160408062002ec78339810180604052810190808051906020019092919080519060200190929190505050336000806101000a81548173ffffffffffffffffffffffffffffffffffffffff021916908373ffffffffffffffffffffffffffffffffffffffff1602179055506200008c828262000131640100000000026401000000009004565b620000b860006020604051908101604052806000815250620001de640100000000026401000000009004565b620001296000809054906101000a900473ffffffffffffffffffffffffffffffffffffffff166040805190810160405280600781526020017f666f756e64657200000000000000000000000000000000000000000000000000815250620001de640100000000026401000000009004565b5050620005b5565b6000809054906101000a900473ffffffffffffffffffffffffffffffffffffffff1673ffffffffffffffffffffffffffffffffffffffff163373ffffffffffffffffffffffffffffffffffffffff161415156200018d57600080fd5b81600181905550806002819055507f4e5482c936e2afb137e294316762dfae82eecfc2c31ab15d926766d513570ad78282604051808381526020018281526020019250505060405180910390a15050565b60008060009054906101000a900473ffffffffffffffffffffffffffffffffffffffff1673ffffffffffffffffffffffffffffffffffffffff163373ffffffffffffffffffffffffffffffffffffffff161415156200023c57600080fd5b600560008473ffffffffffffffffffffffffffffffffffffffff1673ffffffffffffffffffffffffffffffffffffffff1681526020019081526020016000205490506000811415620002ea57600680549050600560008573ffffffffffffffffffffffffffffffffffffffff1673ffffffffffffffffffffffffffffffffffffffff1681526020019081526020016000208190555060068054809190600101620002e7919062000422565b90505b6060604051908101604052808473ffffffffffffffffffffffffffffffffffffffff168152602001838152602001428152506006828154811015156200032c57fe5b906000526020600020906003020160008201518160000160006101000a81548173ffffffffffffffffffffffffffffffffffffffff021916908373ffffffffffffffffffffffffffffffffffffffff16021790555060208201518160010190805190602001906200039f92919062000457565b50604082015181600201559050507f27b022af4a8347100c7a041ce5ccf8e14d644ff05de696315196faae8cd50c9b836001604051808373ffffffffffffffffffffffffffffffffffffffff1673ffffffffffffffffffffffffffffffffffffffff168152602001821515151581526020019250505060405180910390a1505050565b8154818355818111156200045257600302816003028360005260206000209182019101620004519190620004de565b5b505050565b828054600181600116156101000203166002900490600052602060002090601f016020900481019282601f106200049a57805160ff1916838001178555620004cb565b82800160010185558215620004cb579182015b82811115620004ca578251825591602001919060010190620004ad565b5b509050620004da919062000541565b5090565b6200053e91905b808211156200053a57600080820160006101000a81549073ffffffffffffffffffffffffffffffffffffffff021916905560018201600062000528919062000569565b600282016000905550600301620004e5565b5090565b90565b6200056691905b808211156200056257600081600090555060010162000548565b5090565b90565b50805460018160011615610100020316600290046000825580601f10620005915750620005b2565b601f016020900490600052602060002090810190620005b1919062000541565b5b50565b61290280620005c56000396000f300608060405260043610610107576000357c0100000000000000000000000000000000000000000000000000000000900463ffffffff168063013cf08b146101095780630b1ca49a14610223578063158059e214610266578063237e94921461029d5780633910682114610310578063400e3949146103675780635daf08ca1461039257806369bd343614610472578063715018a61461049d5780638160f0b5146104b45780638da5cb5b146104df5780638f4ffcb114610536578063b1050da5146105e9578063b2c2f2e8146106d6578063b9f256cd1461078a578063c127c24714610877578063d3c0715b14610900578063eceb294514610993578063f2fde38b14610a48575b005b34801561011557600080fd5b5061013460048036038101908080359060200190929190505050610a8b565b604051808a73ffffffffffffffffffffffffffffffffffffffff1673ffffffffffffffffffffffffffffffffffffffff1681526020018981526020018060200188815260200187151515158152602001861515151581526020018581526020018481526020018360001916600019168152602001828103825289818151815260200191508051906020019080838360005b838110156101e05780820151818401526020810190506101c5565b50505050905090810190601f16801561020d5780820380516001836020036101000a031916815260200191505b509a505050505050505050505060405180910390f35b34801561022f57600080fd5b50610264600480360381019080803573ffffffffffffffffffffffffffffffffffffffff169060200190929190505050610bba565b005b34801561027257600080fd5b5061029b6004803603810190808035906020019092919080359060200190929190505050610e65565b005b3480156102a957600080fd5b5061030e60048036038101908080359060200190929190803590602001908201803590602001908080601f0160208091040260200160405190810160405280939291908181526020018383808284378201915050505050509192919290505050610f11565b005b34801561031c57600080fd5b50610351600480360381019080803573ffffffffffffffffffffffffffffffffffffffff169060200190929190505050611259565b6040518082815260200191505060405180910390f35b34801561037357600080fd5b5061037c611271565b6040518082815260200191505060405180910390f35b34801561039e57600080fd5b506103bd60048036038101908080359060200190929190505050611277565b604051808473ffffffffffffffffffffffffffffffffffffffff1673ffffffffffffffffffffffffffffffffffffffff16815260200180602001838152602001828103825284818151815260200191508051906020019080838360005b8381101561043557808201518184015260208101905061041a565b50505050905090810190601f1680156104625780820380516001836020036101000a031916815260200191505b5094505050505060405180910390f35b34801561047e57600080fd5b50610487611368565b6040518082815260200191505060405180910390f35b3480156104a957600080fd5b506104b261136e565b005b3480156104c057600080fd5b506104c9611470565b6040518082815260200191505060405180910390f35b3480156104eb57600080fd5b506104f4611476565b604051808273ffffffffffffffffffffffffffffffffffffffff1673ffffffffffffffffffffffffffffffffffffffff16815260200191505060405180910390f35b34801561054257600080fd5b506105e7600480360381019080803573ffffffffffffffffffffffffffffffffffffffff16906020019092919080359060200190929190803573ffffffffffffffffffffffffffffffffffffffff169060200190929190803590602001908201803590602001908080601f016020809104026020016040519081016040528093929190818152602001838380828437820191505050505050919291929050505061149b565b005b3480156105f557600080fd5b506106c0600480360381019080803573ffffffffffffffffffffffffffffffffffffffff16906020019092919080359060200190929190803590602001908201803590602001908080601f0160208091040260200160405190810160405280939291908181526020018383808284378201915050505050509192919290803590602001908201803590602001908080601f01602080910402602001604051908101604052809392919081815260200183838082843782019150505050505091929192905050506116d0565b6040518082815260200191505060405180910390f35b3480156106e257600080fd5b5061070160048036038101908080359060200190929190505050611a36565b6040518084815260200183815260200180602001828103825283818151815260200191508051906020019080838360005b8381101561074d578082015181840152602081019050610732565b50505050905090810190601f16801561077a5780820380516001836020036101000a031916815260200191505b5094505050505060405180910390f35b34801561079657600080fd5b50610861600480360381019080803573ffffffffffffffffffffffffffffffffffffffff16906020019092919080359060200190929190803590602001908201803590602001908080601f0160208091040260200160405190810160405280939291908181526020018383808284378201915050505050509192919290803590602001908201803590602001908080601f0160208091040260200160405190810160405280939291908181526020018383808284378201915050505050509192919290505050611bc9565b6040518082815260200191505060405180910390f35b34801561088357600080fd5b506108fe600480360381019080803573ffffffffffffffffffffffffffffffffffffffff169060200190929190803590602001908201803590602001908080601f0160208091040260200160405190810160405280939291908181526020018383808284378201915050505050509192919290505050611c39565b005b34801561090c57600080fd5b5061097d60048036038101908080359060200190929190803515159060200190929190803590602001908201803590602001908080601f0160208091040260200160405190810160405280939291908181526020018383808284378201915050505050509192919290505050611e76565b6040518082815260200191505060405180910390f35b34801561099f57600080fd5b50610a2e60048036038101908080359060200190929190803573ffffffffffffffffffffffffffffffffffffffff16906020019092919080359060200190929190803590602001908201803590602001908080601f01602080910402602001604051908101604052809392919081815260200183838082843782019150505050505091929192905050506121d8565b604051808215151515815260200191505060405180910390f35b348015610a5457600080fd5b50610a89600480360381019080803573ffffffffffffffffffffffffffffffffffffffff16906020019092919050505061232d565b005b600381815481101515610a9a57fe5b90600052602060002090600a02016000915090508060000160009054906101000a900473ffffffffffffffffffffffffffffffffffffffff1690806001015490806002018054600181600116156101000203166002900480601f016020809104026020016040519081016040528092919081815260200182805460018160011615610100020316600290048015610b725780601f10610b4757610100808354040283529160200191610b72565b820191906000526020600020905b815481529060010190602001808311610b5557829003601f168201915b5050505050908060030154908060040160009054906101000a900460ff16908060040160019054906101000a900460ff16908060050154908060060154908060070154905089565b60008060009054906101000a900473ffffffffffffffffffffffffffffffffffffffff1673ffffffffffffffffffffffffffffffffffffffff163373ffffffffffffffffffffffffffffffffffffffff16141515610c1757600080fd5b6000600560008473ffffffffffffffffffffffffffffffffffffffff1673ffffffffffffffffffffffffffffffffffffffff1681526020019081526020016000205414151515610c6657600080fd5b600560008373ffffffffffffffffffffffffffffffffffffffff1673ffffffffffffffffffffffffffffffffffffffff1681526020019081526020016000205490505b600160068054905003811015610d9f57600660018201815481101515610ccb57fe5b9060005260206000209060030201600682815481101515610ce857fe5b90600052602060002090600302016000820160009054906101000a900473ffffffffffffffffffffffffffffffffffffffff168160000160006101000a81548173ffffffffffffffffffffffffffffffffffffffff021916908373ffffffffffffffffffffffffffffffffffffffff16021790555060018201816001019080546001816001161561010002031660029004610d849291906124dc565b50600282015481600201559050508080600101915050610ca9565b6006600160068054905003815481101515610db657fe5b9060005260206000209060030201600080820160006101000a81549073ffffffffffffffffffffffffffffffffffffffff0219169055600182016000610dfc9190612563565b600282016000905550506000600560008473ffffffffffffffffffffffffffffffffffffffff1673ffffffffffffffffffffffffffffffffffffffff168152602001908152602001600020819055506006805480919060019003610e6091906125ab565b505050565b6000809054906101000a900473ffffffffffffffffffffffffffffffffffffffff1673ffffffffffffffffffffffffffffffffffffffff163373ffffffffffffffffffffffffffffffffffffffff16141515610ec057600080fd5b81600181905550806002819055507f4e5482c936e2afb137e294316762dfae82eecfc2c31ab15d926766d513570ad78282604051808381526020018281526020019250505060405180910390a15050565b6000600383815481101515610f2257fe5b90600052602060002090600a02019050806003015442118015610f5457508060040160009054906101000a900460ff16155b80156110ac57508060000160009054906101000a900473ffffffffffffffffffffffffffffffffffffffff16816001015483604051602001808473ffffffffffffffffffffffffffffffffffffffff1673ffffffffffffffffffffffffffffffffffffffff166c0100000000000000000000000002815260140183815260200182805190602001908083835b6020831015156110055780518252602082019150602081019050602083039250610fe0565b6001836020036101000a03801982511681845116808217855250505050505090500193505050506040516020818303038152906040526040518082805190602001908083835b602083101515611070578051825260208201915060208101905060208303925061104b565b6001836020036101000a038019825116818451168082178552505050505050905001915050604051809103902060001916816007015460001916145b80156110e857506001546110e56006805490506110d76064856005015461239490919063ffffffff16565b6123cc90919063ffffffff16565b10155b15156110f357600080fd5b60018160040160006101000a81548160ff0219169083151502179055508060000160009054906101000a900473ffffffffffffffffffffffffffffffffffffffff1673ffffffffffffffffffffffffffffffffffffffff1681600101548360405180828051906020019080838360005b8381101561117e578082015181840152602081019050611163565b50505050905090810190601f1680156111ab5780820380516001836020036101000a031916815260200191505b5091505060006040518083038185875af19250505015156111cb57600080fd5b60018160040160016101000a81548160ff0219169083151502179055507fd220b7272a8b6d0d7d6bcdace67b936a8f175e6d5c1b3ee438b72256b32ab3af83826006015483600501548460040160019054906101000a900460ff16604051808581526020018481526020018381526020018215151515815260200194505050505060405180910390a1505050565b60056020528060005260406000206000915090505481565b60045481565b60068181548110151561128657fe5b90600052602060002090600302016000915090508060000160009054906101000a900473ffffffffffffffffffffffffffffffffffffffff1690806001018054600181600116156101000203166002900480601f0160208091040260200160405190810160405280929190818152602001828054600181600116156101000203166002900480156113585780601f1061132d57610100808354040283529160200191611358565b820191906000526020600020905b81548152906001019060200180831161133b57829003601f168201915b5050505050908060020154905083565b60025481565b6000809054906101000a900473ffffffffffffffffffffffffffffffffffffffff1673ffffffffffffffffffffffffffffffffffffffff163373ffffffffffffffffffffffffffffffffffffffff161415156113c957600080fd5b6000809054906101000a900473ffffffffffffffffffffffffffffffffffffffff1673ffffffffffffffffffffffffffffffffffffffff167ff8df31144d9c2f0f6b59d69b8b98abd5459d07f2742c4df920b25aae33c6482060405160405180910390a260008060006101000a81548173ffffffffffffffffffffffffffffffffffffffff021916908373ffffffffffffffffffffffffffffffffffffffff160217905550565b60015481565b6000809054906101000a900473ffffffffffffffffffffffffffffffffffffffff1681565b60008290508073ffffffffffffffffffffffffffffffffffffffff166323b872dd8630876040518463ffffffff167c0100000000000000000000000000000000000000000000000000000000028152600401808473ffffffffffffffffffffffffffffffffffffffff1673ffffffffffffffffffffffffffffffffffffffff1681526020018373ffffffffffffffffffffffffffffffffffffffff1673ffffffffffffffffffffffffffffffffffffffff1681526020018281526020019350505050602060405180830381600087803b15801561157757600080fd5b505af115801561158b573d6000803e3d6000fd5b505050506040513d60208110156115a157600080fd5b810190808051906020019092919050505015156115bd57600080fd5b7fd65b48fd35864b3528d38e44760be5553248f89bf3ff6b06cca57817cc2650bf85858585604051808573ffffffffffffffffffffffffffffffffffffffff1673ffffffffffffffffffffffffffffffffffffffff1681526020018481526020018373ffffffffffffffffffffffffffffffffffffffff1673ffffffffffffffffffffffffffffffffffffffff16815260200180602001828103825283818151815260200191508051906020019080838360005b8381101561168c578082015181840152602081019050611671565b50505050905090810190601f1680156116b95780820380516001836020036101000a031916815260200191505b509550505050505060405180910390a15050505050565b6000806000600560003373ffffffffffffffffffffffffffffffffffffffff1673ffffffffffffffffffffffffffffffffffffffff168152602001908152602001600020541415151561172257600080fd5b6003805480919060010161173691906125dd565b915060038281548110151561174757fe5b90600052602060002090600a02019050858160000160006101000a81548173ffffffffffffffffffffffffffffffffffffffff021916908373ffffffffffffffffffffffffffffffffffffffff160217905550848160010181905550838160020190805190602001906117bb92919061260f565b50858584604051602001808473ffffffffffffffffffffffffffffffffffffffff1673ffffffffffffffffffffffffffffffffffffffff166c0100000000000000000000000002815260140183815260200182805190602001908083835b60208310151561183e5780518252602082019150602081019050602083039250611819565b6001836020036101000a03801982511681845116808217855250505050505090500193505050506040516020818303038152906040526040518082805190602001908083835b6020831015156118a95780518252602082019150602081019050602083039250611884565b6001836020036101000a0380198251168184511680821785525050505050509050019150506040518091039020816007018160001916905550603c600254024201816003018190555060008160040160006101000a81548160ff02191690831515021790555060008160040160016101000a81548160ff02191690831515021790555060008160050181905550600081600601819055507f646fec02522b41e7125cfc859a64fd4f4cefd5dc3b6237ca0abe251ded1fa88182878787604051808581526020018473ffffffffffffffffffffffffffffffffffffffff1673ffffffffffffffffffffffffffffffffffffffff16815260200183815260200180602001828103825283818151815260200191508051906020019080838360005b838110156119e35780820151818401526020810190506119c8565b50505050905090810190601f168015611a105780820380516001836020036101000a031916815260200191505b509550505050505060405180910390a16001820160048190555081915050949350505050565b60008060606000600560003373ffffffffffffffffffffffffffffffffffffffff1673ffffffffffffffffffffffffffffffffffffffff1681526020019081526020016000205414151515611a8a57600080fd5b6000600102600385815481101515611a9e57fe5b90600052602060002090600a0201600701546000191614151515611ac157600080fd5b600384815481101515611ad057fe5b90600052602060002090600a0201600501549250600384815481101515611af357fe5b90600052602060002090600a0201600601549150600384815481101515611b1657fe5b90600052602060002090600a02016002018054600181600116156101000203166002900480601f016020809104026020016040519081016040528092919081815260200182805460018160011615610100020316600290048015611bbb5780601f10611b9057610100808354040283529160200191611bbb565b820191906000526020600020905b815481529060010190602001808311611b9e57829003601f168201915b505050505090509193909250565b600080600560003373ffffffffffffffffffffffffffffffffffffffff1673ffffffffffffffffffffffffffffffffffffffff1681526020019081526020016000205414151515611c1957600080fd5b611c2f85670de0b6b3a7640000860285856116d0565b9050949350505050565b60008060009054906101000a900473ffffffffffffffffffffffffffffffffffffffff1673ffffffffffffffffffffffffffffffffffffffff163373ffffffffffffffffffffffffffffffffffffffff16141515611c9657600080fd5b600560008473ffffffffffffffffffffffffffffffffffffffff1673ffffffffffffffffffffffffffffffffffffffff1681526020019081526020016000205490506000811415611d4157600680549050600560008573ffffffffffffffffffffffffffffffffffffffff1673ffffffffffffffffffffffffffffffffffffffff1681526020019081526020016000208190555060068054809190600101611d3e91906125ab565b90505b6060604051908101604052808473ffffffffffffffffffffffffffffffffffffffff16815260200183815260200142815250600682815481101515611d8257fe5b906000526020600020906003020160008201518160000160006101000a81548173ffffffffffffffffffffffffffffffffffffffff021916908373ffffffffffffffffffffffffffffffffffffffff1602179055506020820151816001019080519060200190611df392919061268f565b50604082015181600201559050507f27b022af4a8347100c7a041ce5ccf8e14d644ff05de696315196faae8cd50c9b836001604051808373ffffffffffffffffffffffffffffffffffffffff1673ffffffffffffffffffffffffffffffffffffffff168152602001821515151581526020019250505060405180910390a1505050565b6000806000600560003373ffffffffffffffffffffffffffffffffffffffff1673ffffffffffffffffffffffffffffffffffffffff1681526020019081526020016000205414151515611ec857600080fd5b600385815481101515611ed757fe5b90600052602060002090600a0201905080600301544211151515611efa57600080fd5b8060090160003373ffffffffffffffffffffffffffffffffffffffff1673ffffffffffffffffffffffffffffffffffffffff16815260200190815260200160002060009054906101000a900460ff16151515611f5557600080fd5b60018160090160003373ffffffffffffffffffffffffffffffffffffffff1673ffffffffffffffffffffffffffffffffffffffff16815260200190815260200160002060006101000a81548160ff0219169083151502179055508060050160008154809291906001019190505550806005015491508060080160606040519081016040528086151581526020013373ffffffffffffffffffffffffffffffffffffffff168152602001858152509080600181540180825580915050906001820390600052602060002090600202016000909192909190915060008201518160000160006101000a81548160ff02191690831515021790555060208201518160000160016101000a81548173ffffffffffffffffffffffffffffffffffffffff021916908373ffffffffffffffffffffffffffffffffffffffff16021790555060408201518160010190805190602001906120b092919061268f565b5050505083156120d35780600601600081548092919060010191905055506120e9565b8060060160008154809291906001900391905055505b7fc34f869b7ff431b034b7b9aea9822dac189a685e0b015c7d1be3add3f89128e88585338660405180858152602001841515151581526020018373ffffffffffffffffffffffffffffffffffffffff1673ffffffffffffffffffffffffffffffffffffffff16815260200180602001828103825283818151815260200191508051906020019080838360005b83811015612190578082015181840152602081019050612175565b50505050905090810190601f1680156121bd5780820380516001836020036101000a031916815260200191505b509550505050505060405180910390a1819150509392505050565b6000806003868154811015156121ea57fe5b90600052602060002090600a02019050848484604051602001808473ffffffffffffffffffffffffffffffffffffffff1673ffffffffffffffffffffffffffffffffffffffff166c0100000000000000000000000002815260140183815260200182805190602001908083835b60208310151561227c5780518252602082019150602081019050602083039250612257565b6001836020036101000a03801982511681845116808217855250505050505090500193505050506040516020818303038152906040526040518082805190602001908083835b6020831015156122e757805182526020820191506020810190506020830392506122c2565b6001836020036101000a03801982511681845116808217855250505050505090500191505060405180910390206000191681600701546000191614915050949350505050565b6000809054906101000a900473ffffffffffffffffffffffffffffffffffffffff1673ffffffffffffffffffffffffffffffffffffffff163373ffffffffffffffffffffffffffffffffffffffff1614151561238857600080fd5b612391816123e2565b50565b6000808314156123a757600090506123c6565b81830290508183828115156123b857fe5b041415156123c257fe5b8090505b92915050565b600081838115156123d957fe5b04905092915050565b600073ffffffffffffffffffffffffffffffffffffffff168173ffffffffffffffffffffffffffffffffffffffff161415151561241e57600080fd5b8073ffffffffffffffffffffffffffffffffffffffff166000809054906101000a900473ffffffffffffffffffffffffffffffffffffffff1673ffffffffffffffffffffffffffffffffffffffff167f8be0079c531659141344cd1fd0a4f28419497f9722a3daafe3b4186f6b6457e060405160405180910390a3806000806101000a81548173ffffffffffffffffffffffffffffffffffffffff021916908373ffffffffffffffffffffffffffffffffffffffff16021790555050565b828054600181600116156101000203166002900490600052602060002090601f016020900481019282601f106125155780548555612552565b8280016001018555821561255257600052602060002091601f016020900482015b82811115612551578254825591600101919060010190612536565b5b50905061255f919061270f565b5090565b50805460018160011615610100020316600290046000825580601f1061258957506125a8565b601f0160209004906000526020600020908101906125a7919061270f565b5b50565b8154818355818111156125d8576003028160030283600052602060002091820191016125d79190612734565b5b505050565b81548183558181111561260a57600a0281600a0283600052602060002091820191016126099190612792565b5b505050565b828054600181600116156101000203166002900490600052602060002090601f016020900481019282601f1061265057805160ff191683800117855561267e565b8280016001018555821561267e579182015b8281111561267d578251825591602001919060010190612662565b5b50905061268b919061270f565b5090565b828054600181600116156101000203166002900490600052602060002090601f016020900481019282601f106126d057805160ff19168380011785556126fe565b828001600101855582156126fe579182015b828111156126fd5782518255916020019190600101906126e2565b5b50905061270b919061270f565b5090565b61273191905b8082111561272d576000816000905550600101612715565b5090565b90565b61278f91905b8082111561278b57600080820160006101000a81549073ffffffffffffffffffffffffffffffffffffffff021916905560018201600061277a9190612563565b60028201600090555060030161273a565b5090565b90565b61284591905b8082111561284157600080820160006101000a81549073ffffffffffffffffffffffffffffffffffffffff021916905560018201600090556002820160006127e09190612563565b60038201600090556004820160006101000a81549060ff02191690556004820160016101000a81549060ff02191690556005820160009055600682016000905560078201600090556008820160006128389190612848565b50600a01612798565b5090565b90565b5080546000825560020290600052602060002090810190612869919061286c565b50565b6128d391905b808211156128cf57600080820160006101000a81549060ff02191690556000820160016101000a81549073ffffffffffffffffffffffffffffffffffffffff02191690556001820160006128c69190612563565b50600201612872565b5090565b905600a165627a7a723058207d257f3d02da9f5c6e54905a595a63a3faa609621b0f897347566fac68cf6b7e0029",
  "source": "pragma solidity ^0.4.24;\n\nimport '../openzeppelin-solidity/contracts/ownership/Ownable.sol';\nimport '../openzeppelin-solidity/contracts/math/SafeMath.sol';\n\ninterface Token {\n    function transferFrom(address _from, address _to, uint256 _value) external returns (bool success);\n}\n\ncontract TokenRecipient {\n    event ReceivedEther(address sender, uint amount);\n    event ReceivedTokens(address _from, uint256 _value, address _token, bytes _extraData);\n\n    function receiveApproval(address _from, uint256 _value, address _token, bytes _extraData) public {\n        Token t = Token(_token);\n        require(t.transferFrom(_from, this, _value));\n        emit ReceivedTokens(_from, _value, _token, _extraData);\n    }\n\n    function () payable  public {\n        emit ReceivedEther(msg.sender, msg.value);\n    }\n}\n\n\n\n\ncontract TwoKeyCongress is Ownable, TokenRecipient {\n\n\tusing SafeMath for uint;\n\n\n    uint256 public minimumQuorum;\n    uint256 public debatingPeriodInMinutes;\n    Proposal[] public proposals;\n    uint public numProposals;\n    mapping (address => uint) public memberId;\n    Member[] public members;\n\n    event ProposalAdded(uint proposalID, address recipient, uint amount, string description);\n    event Voted(uint proposalID, bool position, address voter, string justification);\n    event ProposalTallied(uint proposalID, int result, uint quorum, bool active);\n    event MembershipChanged(address member, bool isMember);\n    event ChangeOfRules(uint256 _newMinimumQuorum, uint256 _newDebatingPeriodInMinutes);\n\n    struct Proposal {\n        address recipient;\n        uint amount;\n        string description;\n        uint minExecutionDate;\n        bool executed;\n        bool proposalPassed;\n        uint numberOfVotes;\n        int currentResult;\n        bytes32 proposalHash;\n        Vote[] votes;\n        mapping (address => bool) voted;\n    }\n\n    struct Member {\n        address member;\n        string name;\n        uint memberSince;\n    }\n\n    struct Vote {\n        bool inSupport;\n        address voter;\n        string justification;\n    }\n\n    // Modifier that allows only shareholders to vote and create new proposals\n    modifier onlyMembers {\n        require(memberId[msg.sender] != 0);\n        _;\n    }\n\n    constructor(\n        uint256 _minimumQuorumForProposals,\n        uint256 _minutesForDebate) Ownable() payable public {\n        changeVotingRules(_minimumQuorumForProposals, _minutesForDebate);\n        // It is necessary to add an empty first member\n        addMember(0, \"\");\n        // and let's add the founder, to save a step later\n        addMember(owner, 'founder');\n    }\n\n    /**\n     * Add member\n     *\n     * Make `targetMember` a member named `memberName`\n     *\n     * @param targetMember ethereum address to be added\n     * @param memberName public name for that member\n     */\n    function addMember(address targetMember, string memberName) onlyOwner public {\n        uint id = memberId[targetMember];\n        if (id == 0) {\n            memberId[targetMember] = members.length;\n            id = members.length++;\n        }\n\n        members[id] = Member({member: targetMember, memberSince: now, name: memberName});\n        emit MembershipChanged(targetMember, true);\n    }\n\n    /**\n     * Remove member\n     *\n     * @notice Remove membership from `targetMember`\n     *\n     * @param targetMember ethereum address to be removed\n     */\n    function removeMember(address targetMember) onlyOwner public {\n        require(memberId[targetMember] != 0);\n\n        for (uint i = memberId[targetMember]; i<members.length-1; i++){\n            members[i] = members[i+1];\n        }\n        delete members[members.length-1];\n        memberId[targetMember] = 0;\n        members.length--;\n    }\n\n    /**\n     * Change voting rules\n     *\n     * Make so that proposals need to be discussed for at least `minutesForDebate/60` hours,\n     * have at least `minimumQuorumForProposals` votes, and have 50% + `marginOfVotesForMajority` votes to be executed\n     *\n     * @param minimumQuorumForProposals how many members must vote on a proposal for it to be executed\n     * @param minutesForDebate the minimum amount of delay between when a proposal is made and when it can be executed\n     */\n    function changeVotingRules(\n        uint256 minimumQuorumForProposals,\n        uint256 minutesForDebate) onlyOwner public {\n        minimumQuorum = minimumQuorumForProposals;\n        debatingPeriodInMinutes = minutesForDebate;\n\n        emit ChangeOfRules(minimumQuorumForProposals, minutesForDebate);\n    }\n\n    /**\n     * Add Proposal\n     *\n     * Propose to send `weiAmount / 1e18` ether to `beneficiary` for `jobDescription`. `transactionBytecode ? Contains : Does not contain` code.\n     *\n     * @param beneficiary who to send the ether to\n     * @param weiAmount amount of ether to send, in wei\n     * @param jobDescription Description of job\n     * @param transactionBytecode bytecode of transaction\n     */\n    function newProposal(\n        address beneficiary,\n        uint weiAmount,\n        string jobDescription,\n        bytes transactionBytecode)\n        onlyMembers public\n        returns (uint proposalID)\n    {\n        proposalID = proposals.length++;\n        Proposal storage p = proposals[proposalID];\n        p.recipient = beneficiary;\n        p.amount = weiAmount;\n        p.description = jobDescription;\n        p.proposalHash = keccak256(abi.encodePacked(beneficiary, weiAmount, transactionBytecode));\n        p.minExecutionDate = now + debatingPeriodInMinutes * 1 minutes;\n        p.executed = false;\n        p.proposalPassed = false;\n        p.numberOfVotes = 0;\n        p.currentResult = 0;\n        emit ProposalAdded(proposalID, beneficiary, weiAmount, jobDescription);\n        numProposals = proposalID+1;\n\n        return proposalID;\n    }\n\n    /**\n     * Add proposal in Ether\n     *\n     * Propose to send `etherAmount` ether to `beneficiary` for `jobDescription`. `transactionBytecode ? Contains : Does not contain` code.\n     * This is a convenience function to use if the amount to be given is in round number of ether units.\n     *\n     * @param beneficiary who to send the ether to\n     * @param etherAmount amount of ether to send\n     * @param jobDescription Description of job\n     * @param transactionBytecode bytecode of transaction\n     */\n    function newProposalInEther(\n        address beneficiary,\n        uint etherAmount,\n        string jobDescription,\n        bytes transactionBytecode)\n        onlyMembers public\n        returns (uint proposalID)\n    {\n        return newProposal(beneficiary, etherAmount * 1 ether, jobDescription, transactionBytecode);\n    }\n\n    /**\n     * Check if a proposal code matches\n     *\n     * @param proposalNumber ID number of the proposal to query\n     * @param beneficiary who to send the ether to\n     * @param weiAmount amount of ether to send\n     * @param transactionBytecode bytecode of transaction\n     */\n    function checkProposalCode(\n        uint proposalNumber,\n        address beneficiary,\n        uint weiAmount,\n        bytes transactionBytecode)\n        constant public\n        returns (bool codeChecksOut)\n    {\n        Proposal storage p = proposals[proposalNumber];\n        return p.proposalHash == keccak256(abi.encodePacked(beneficiary, weiAmount, transactionBytecode));\n    }\n\n    /**\n     * Log a vote for a proposal\n     *\n     * Vote `supportsProposal? in support of : against` proposal #`proposalNumber`\n     *\n     * @param proposalNumber number of proposal\n     * @param supportsProposal either in favor or against it\n     * @param justificationText optional justification text\n     */\n    function vote(\n        uint proposalNumber,\n        bool supportsProposal,\n        string justificationText)\n        onlyMembers public\n        returns (uint256 voteID)\n    {\n        Proposal storage p = proposals[proposalNumber]; // Get the proposal\n        require(now <= p.minExecutionDate);\n        require(!p.voted[msg.sender]);                  // If has already voted, cancel\n        p.voted[msg.sender] = true;                     // Set this voter as having voted\n        p.numberOfVotes++;\n        voteID = p.numberOfVotes;                     // Increase the number of votes\n        p.votes.push(Vote({ inSupport: supportsProposal, voter: msg.sender, justification: justificationText }));                           \n        if (supportsProposal) {                         // If they support the proposal\n            p.currentResult++;                          // Increase score\n        } else {                                        // If they don't\n            p.currentResult--;                          // Decrease the score\n        }\n        // Create a log of this event\n        emit Voted(proposalNumber,  supportsProposal, msg.sender, justificationText);\n        return voteID;\n    }\n\n    function getVoteCount(uint256 proposalNumber) onlyMembers public view returns(uint256 numberOfVotes, int256 currentResult, string description) {\n        require(proposals[proposalNumber].proposalHash != 0);\n        numberOfVotes = proposals[proposalNumber].numberOfVotes;\n        currentResult = proposals[proposalNumber].currentResult;\n        description = proposals[proposalNumber].description;\n    }\n\n    /**\n     * Finish vote\n     *\n     * Count the votes proposal #`proposalNumber` and execute it if approved\n     *\n     * @param proposalNumber proposal number\n     * @param transactionBytecode optional: if the transaction contained a bytecode, you need to send it\n     */\n    function executeProposal(uint proposalNumber, bytes transactionBytecode) public {\n        Proposal storage p = proposals[proposalNumber];\n\n        require(\n            now > p.minExecutionDate                                            // If it is past the voting deadline\n            && !p.executed                                                         // and it has not already been executed\n            && p.proposalHash == keccak256(abi.encodePacked(p.recipient, p.amount, transactionBytecode))  // and the supplied code matches the proposal\n            && p.numberOfVotes.mul(100).div(members.length) >= minimumQuorum\n        );                                  // and a minimum quorum has been reached...\n\n        // ...then execute result\n        p.executed = true; // Avoid recursive calling\n        require(p.recipient.call.value(p.amount)(transactionBytecode));\n\n        p.proposalPassed = true;\n\n\n        // Fire Events\n        emit ProposalTallied(proposalNumber, p.currentResult, p.numberOfVotes, p.proposalPassed);\n    }\n\n    function () payable public {\n        \n    }\n}\n",
  "sourcePath": "/Users/nikolamadjarevic/Desktop/2key/contracts/contracts/2key/TwoKeyCongress.sol",
  "compiler": {
    "name": "solc",
    "version": "0.4.24+commit.e67f0147.Emscripten.clang"
  },
  "schemaVersion": "2.0.1",
  "updatedAt": "2018-09-04T12:21:05.785Z"
}