{
  "contractName": "TwoKeySignedPresellContract",
  "abi": [
    {
      "constant": true,
      "inputs": [
        {
          "name": "",
          "type": "address"
        }
      ],
      "name": "units",
      "outputs": [
        {
          "name": "",
          "type": "uint256"
        }
      ],
      "payable": false,
      "stateMutability": "view",
      "type": "function"
    },
    {
      "constant": true,
      "inputs": [],
      "name": "name",
      "outputs": [
        {
          "name": "",
          "type": "string"
        }
      ],
      "payable": false,
      "stateMutability": "view",
      "type": "function"
    },
    {
      "constant": false,
      "inputs": [
        {
          "name": "_spender",
          "type": "address"
        },
        {
          "name": "_value",
          "type": "uint256"
        }
      ],
      "name": "approve",
      "outputs": [
        {
          "name": "",
          "type": "bool"
        }
      ],
      "payable": false,
      "stateMutability": "nonpayable",
      "type": "function"
    },
    {
      "constant": false,
      "inputs": [
        {
          "name": "_to",
          "type": "address"
        },
        {
          "name": "_value",
          "type": "uint256"
        }
      ],
      "name": "transferQuota",
      "outputs": [
        {
          "name": "",
          "type": "bool"
        }
      ],
      "payable": false,
      "stateMutability": "nonpayable",
      "type": "function"
    },
    {
      "constant": true,
      "inputs": [],
      "name": "cost",
      "outputs": [
        {
          "name": "",
          "type": "uint256"
        }
      ],
      "payable": false,
      "stateMutability": "view",
      "type": "function"
    },
    {
      "constant": true,
      "inputs": [],
      "name": "totalSupply",
      "outputs": [
        {
          "name": "",
          "type": "uint256"
        }
      ],
      "payable": false,
      "stateMutability": "view",
      "type": "function"
    },
    {
      "constant": false,
      "inputs": [
        {
          "name": "sig",
          "type": "bytes"
        }
      ],
      "name": "transferSig",
      "outputs": [],
      "payable": false,
      "stateMutability": "nonpayable",
      "type": "function"
    },
    {
      "constant": false,
      "inputs": [
        {
          "name": "_from",
          "type": "address"
        },
        {
          "name": "_to",
          "type": "address"
        },
        {
          "name": "_value",
          "type": "uint256"
        }
      ],
      "name": "transferFrom",
      "outputs": [
        {
          "name": "",
          "type": "bool"
        }
      ],
      "payable": false,
      "stateMutability": "nonpayable",
      "type": "function"
    },
    {
      "constant": true,
      "inputs": [
        {
          "name": "",
          "type": "address"
        }
      ],
      "name": "xbalances",
      "outputs": [
        {
          "name": "",
          "type": "uint256"
        }
      ],
      "payable": false,
      "stateMutability": "view",
      "type": "function"
    },
    {
      "constant": true,
      "inputs": [
        {
          "name": "",
          "type": "address"
        }
      ],
      "name": "received_from",
      "outputs": [
        {
          "name": "",
          "type": "address"
        }
      ],
      "payable": false,
      "stateMutability": "view",
      "type": "function"
    },
    {
      "constant": true,
      "inputs": [],
      "name": "decimals",
      "outputs": [
        {
          "name": "",
          "type": "uint8"
        }
      ],
      "payable": false,
      "stateMutability": "view",
      "type": "function"
    },
    {
      "constant": true,
      "inputs": [
        {
          "name": "",
          "type": "address"
        }
      ],
      "name": "public_link_key",
      "outputs": [
        {
          "name": "",
          "type": "address"
        }
      ],
      "payable": false,
      "stateMutability": "view",
      "type": "function"
    },
    {
      "constant": false,
      "inputs": [
        {
          "name": "_from",
          "type": "address"
        },
        {
          "name": "_to",
          "type": "address"
        },
        {
          "name": "_value",
          "type": "uint256"
        }
      ],
      "name": "transferFromQuota",
      "outputs": [
        {
          "name": "",
          "type": "bool"
        }
      ],
      "payable": false,
      "stateMutability": "nonpayable",
      "type": "function"
    },
    {
      "constant": false,
      "inputs": [
        {
          "name": "_spender",
          "type": "address"
        },
        {
          "name": "_subtractedValue",
          "type": "uint256"
        }
      ],
      "name": "decreaseApproval",
      "outputs": [
        {
          "name": "",
          "type": "bool"
        }
      ],
      "payable": false,
      "stateMutability": "nonpayable",
      "type": "function"
    },
    {
      "constant": false,
      "inputs": [
        {
          "name": "_from",
          "type": "address"
        }
      ],
      "name": "buyFrom",
      "outputs": [],
      "payable": true,
      "stateMutability": "payable",
      "type": "function"
    },
    {
      "constant": true,
      "inputs": [
        {
          "name": "_owner",
          "type": "address"
        }
      ],
      "name": "balanceOf",
      "outputs": [
        {
          "name": "",
          "type": "uint256"
        }
      ],
      "payable": false,
      "stateMutability": "view",
      "type": "function"
    },
    {
      "constant": false,
      "inputs": [],
      "name": "renounceOwnership",
      "outputs": [],
      "payable": false,
      "stateMutability": "nonpayable",
      "type": "function"
    },
    {
      "constant": true,
      "inputs": [],
      "name": "getConstantInfo",
      "outputs": [
        {
          "name": "",
          "type": "string"
        },
        {
          "name": "",
          "type": "string"
        },
        {
          "name": "",
          "type": "uint256"
        },
        {
          "name": "",
          "type": "uint256"
        },
        {
          "name": "",
          "type": "uint256"
        },
        {
          "name": "",
          "type": "address"
        },
        {
          "name": "",
          "type": "string"
        },
        {
          "name": "",
          "type": "uint256"
        }
      ],
      "payable": false,
      "stateMutability": "view",
      "type": "function"
    },
    {
      "constant": false,
      "inputs": [
        {
          "name": "cut",
          "type": "uint256"
        }
      ],
      "name": "setCut",
      "outputs": [],
      "payable": false,
      "stateMutability": "nonpayable",
      "type": "function"
    },
    {
      "constant": true,
      "inputs": [],
      "name": "ipfs_hash",
      "outputs": [
        {
          "name": "",
          "type": "string"
        }
      ],
      "payable": false,
      "stateMutability": "view",
      "type": "function"
    },
    {
      "constant": true,
      "inputs": [],
      "name": "owner",
      "outputs": [
        {
          "name": "",
          "type": "address"
        }
      ],
      "payable": false,
      "stateMutability": "view",
      "type": "function"
    },
    {
      "constant": true,
      "inputs": [],
      "name": "bounty",
      "outputs": [
        {
          "name": "",
          "type": "uint256"
        }
      ],
      "payable": false,
      "stateMutability": "view",
      "type": "function"
    },
    {
      "constant": true,
      "inputs": [],
      "name": "symbol",
      "outputs": [
        {
          "name": "",
          "type": "string"
        }
      ],
      "payable": false,
      "stateMutability": "view",
      "type": "function"
    },
    {
      "constant": false,
      "inputs": [],
      "name": "buyProduct",
      "outputs": [],
      "payable": true,
      "stateMutability": "payable",
      "type": "function"
    },
    {
      "constant": true,
      "inputs": [
        {
          "name": "",
          "type": "address"
        }
      ],
      "name": "influencer2cut",
      "outputs": [
        {
          "name": "",
          "type": "uint256"
        }
      ],
      "payable": false,
      "stateMutability": "view",
      "type": "function"
    },
    {
      "constant": false,
      "inputs": [
        {
          "name": "_to",
          "type": "address"
        },
        {
          "name": "_value",
          "type": "uint256"
        }
      ],
      "name": "transfer",
      "outputs": [
        {
          "name": "",
          "type": "bool"
        }
      ],
      "payable": false,
      "stateMutability": "nonpayable",
      "type": "function"
    },
    {
      "constant": true,
      "inputs": [
        {
          "name": "me",
          "type": "address"
        }
      ],
      "name": "getDynamicInfo",
      "outputs": [
        {
          "name": "",
          "type": "uint256"
        },
        {
          "name": "",
          "type": "uint256"
        },
        {
          "name": "",
          "type": "uint256"
        },
        {
          "name": "",
          "type": "uint256"
        },
        {
          "name": "",
          "type": "uint256"
        },
        {
          "name": "",
          "type": "uint256"
        },
        {
          "name": "",
          "type": "uint256"
        }
      ],
      "payable": false,
      "stateMutability": "view",
      "type": "function"
    },
    {
      "constant": true,
      "inputs": [],
      "name": "erc20_token_sell_contract",
      "outputs": [
        {
          "name": "",
          "type": "address"
        }
      ],
      "payable": false,
      "stateMutability": "view",
      "type": "function"
    },
    {
      "constant": false,
      "inputs": [],
      "name": "redeem",
      "outputs": [],
      "payable": false,
      "stateMutability": "nonpayable",
      "type": "function"
    },
    {
      "constant": true,
      "inputs": [],
      "name": "quota",
      "outputs": [
        {
          "name": "",
          "type": "uint256"
        }
      ],
      "payable": false,
      "stateMutability": "view",
      "type": "function"
    },
    {
      "constant": false,
      "inputs": [
        {
          "name": "_public_link_key",
          "type": "address"
        }
      ],
      "name": "setPublicLinkKey",
      "outputs": [],
      "payable": false,
      "stateMutability": "nonpayable",
      "type": "function"
    },
    {
      "constant": false,
      "inputs": [
        {
          "name": "_spender",
          "type": "address"
        },
        {
          "name": "_addedValue",
          "type": "uint256"
        }
      ],
      "name": "increaseApproval",
      "outputs": [
        {
          "name": "",
          "type": "bool"
        }
      ],
      "payable": false,
      "stateMutability": "nonpayable",
      "type": "function"
    },
    {
      "constant": true,
      "inputs": [
        {
          "name": "last_influencer",
          "type": "address"
        }
      ],
      "name": "getCuts",
      "outputs": [
        {
          "name": "",
          "type": "uint256[]"
        }
      ],
      "payable": false,
      "stateMutability": "view",
      "type": "function"
    },
    {
      "constant": true,
      "inputs": [],
      "name": "total_units",
      "outputs": [
        {
          "name": "",
          "type": "uint256"
        }
      ],
      "payable": false,
      "stateMutability": "view",
      "type": "function"
    },
    {
      "constant": false,
      "inputs": [
        {
          "name": "sig",
          "type": "bytes"
        }
      ],
      "name": "buySign",
      "outputs": [],
      "payable": true,
      "stateMutability": "payable",
      "type": "function"
    },
    {
      "constant": true,
      "inputs": [
        {
          "name": "_owner",
          "type": "address"
        },
        {
          "name": "_spender",
          "type": "address"
        }
      ],
      "name": "allowance",
      "outputs": [
        {
          "name": "",
          "type": "uint256"
        }
      ],
      "payable": false,
      "stateMutability": "view",
      "type": "function"
    },
    {
      "constant": false,
      "inputs": [
        {
          "name": "_units",
          "type": "uint256"
        },
        {
          "name": "_bounty",
          "type": "uint256"
        }
      ],
      "name": "buyProductInternal",
      "outputs": [],
      "payable": true,
      "stateMutability": "payable",
      "type": "function"
    },
    {
      "constant": false,
      "inputs": [
        {
          "name": "_newOwner",
          "type": "address"
        }
      ],
      "name": "transferOwnership",
      "outputs": [],
      "payable": false,
      "stateMutability": "nonpayable",
      "type": "function"
    },
    {
      "inputs": [
        {
          "name": "_eventSource",
          "type": "address"
        },
        {
          "name": "_name",
          "type": "string"
        },
        {
          "name": "_symbol",
          "type": "string"
        },
        {
          "name": "_tSupply",
          "type": "uint256"
        },
        {
          "name": "_quota",
          "type": "uint256"
        },
        {
          "name": "_cost",
          "type": "uint256"
        },
        {
          "name": "_bounty",
          "type": "uint256"
        },
        {
          "name": "_ipfs_hash",
          "type": "string"
        },
        {
          "name": "_erc20_token_sell_contract",
          "type": "address"
        }
      ],
      "payable": false,
      "stateMutability": "nonpayable",
      "type": "constructor"
    },
    {
      "anonymous": false,
      "inputs": [
        {
          "indexed": true,
          "name": "to",
          "type": "address"
        },
        {
          "indexed": false,
          "name": "units",
          "type": "uint256"
        }
      ],
      "name": "Fulfilled",
      "type": "event"
    },
    {
      "anonymous": false,
      "inputs": [
        {
          "indexed": true,
          "name": "to",
          "type": "address"
        },
        {
          "indexed": false,
          "name": "amount",
          "type": "uint256"
        }
      ],
      "name": "Rewarded",
      "type": "event"
    },
    {
      "anonymous": false,
      "inputs": [
        {
          "indexed": false,
          "name": "s",
          "type": "string"
        },
        {
          "indexed": false,
          "name": "units",
          "type": "uint256"
        }
      ],
      "name": "Log1",
      "type": "event"
    },
    {
      "anonymous": false,
      "inputs": [
        {
          "indexed": false,
          "name": "s",
          "type": "string"
        },
        {
          "indexed": false,
          "name": "a",
          "type": "address"
        }
      ],
      "name": "Log1A",
      "type": "event"
    },
    {
      "anonymous": false,
      "inputs": [
        {
          "indexed": true,
          "name": "previousOwner",
          "type": "address"
        }
      ],
      "name": "OwnershipRenounced",
      "type": "event"
    },
    {
      "anonymous": false,
      "inputs": [
        {
          "indexed": true,
          "name": "previousOwner",
          "type": "address"
        },
        {
          "indexed": true,
          "name": "newOwner",
          "type": "address"
        }
      ],
      "name": "OwnershipTransferred",
      "type": "event"
    },
    {
      "anonymous": false,
      "inputs": [
        {
          "indexed": true,
          "name": "owner",
          "type": "address"
        },
        {
          "indexed": true,
          "name": "spender",
          "type": "address"
        },
        {
          "indexed": false,
          "name": "value",
          "type": "uint256"
        }
      ],
      "name": "Approval",
      "type": "event"
    },
    {
      "anonymous": false,
      "inputs": [
        {
          "indexed": true,
          "name": "from",
          "type": "address"
        },
        {
          "indexed": true,
          "name": "to",
          "type": "address"
        },
        {
          "indexed": false,
          "name": "value",
          "type": "uint256"
        }
      ],
      "name": "Transfer",
      "type": "event"
    }
  ],
  "bytecode": "0x60806040526000600860006101000a81548160ff021916908360ff1602179055503480156200002d57600080fd5b5060405162004b5938038062004b5983398101806040528101908080519060200190929190805182019291906020018051820192919060200180519060200190929190805190602001909291908051906020019092919080519060200190929190805182019291906020018051906020019092919050505088888888888888888833600360006101000a81548173ffffffffffffffffffffffffffffffffffffffff021916908373ffffffffffffffffffffffffffffffffffffffff160217905550838311151515620000ff57600080fd5b8760059080519060200190620001179291906200060b565b508660079080519060200190620001309291906200060b565b508560018190555085600080600360009054906101000a900473ffffffffffffffffffffffffffffffffffffffff1673ffffffffffffffffffffffffffffffffffffffff1673ffffffffffffffffffffffffffffffffffffffff168152602001908152602001600020819055508360098190555082600a8190555084600b819055508160069080519060200190620001ca9291906200060b565b50600360009054906101000a900473ffffffffffffffffffffffffffffffffffffffff16600d6000600360009054906101000a900473ffffffffffffffffffffffffffffffffffffffff1673ffffffffffffffffffffffffffffffffffffffff1673ffffffffffffffffffffffffffffffffffffffff16815260200190815260200160002060006101000a81548173ffffffffffffffffffffffffffffffffffffffff021916908373ffffffffffffffffffffffffffffffffffffffff160217905550600073ffffffffffffffffffffffffffffffffffffffff168973ffffffffffffffffffffffffffffffffffffffff16141515620004335788600460006101000a81548173ffffffffffffffffffffffffffffffffffffffff021916908373ffffffffffffffffffffffffffffffffffffffff160217905550600460009054906101000a900473ffffffffffffffffffffffffffffffffffffffff1673ffffffffffffffffffffffffffffffffffffffff16631d18658430600360009054906101000a900473ffffffffffffffffffffffffffffffffffffffff166040518363ffffffff167c0100000000000000000000000000000000000000000000000000000000028152600401808373ffffffffffffffffffffffffffffffffffffffff1673ffffffffffffffffffffffffffffffffffffffff1681526020018273ffffffffffffffffffffffffffffffffffffffff1673ffffffffffffffffffffffffffffffffffffffff16815260200192505050600060405180830381600087803b1580156200041957600080fd5b505af11580156200042e573d6000803e3d6000fd5b505050505b600073ffffffffffffffffffffffffffffffffffffffff168173ffffffffffffffffffffffffffffffffffffffff161415156200054c5780601160006101000a81548173ffffffffffffffffffffffffffffffffffffffff021916908373ffffffffffffffffffffffffffffffffffffffff1602179055506200051f601160009054906101000a900473ffffffffffffffffffffffffffffffffffffffff166040805190810160405280600a81526020017f646563696d616c73282900000000000000000000000000000000000000000000815250600062000564640100000000026401000000009004565b600c819055506000600c54101515156200053857600080fd5b6012600c54111515156200054b57600080fd5b5b505050505050505050505050505050505050620006ba565b600080836040518082805190602001908083835b6020831015156200059f578051825260208201915060208101905060208303925062000578565b6001836020036101000a0380198251168184511680821785525050505050509050019150506040518091039020905060405181815283600482015260208160248360008a613a98f16000811415620005f657600080fd5b81519350602482016040525050509392505050565b828054600181600116156101000203166002900490600052602060002090601f016020900481019282601f106200064e57805160ff19168380011785556200067f565b828001600101855582156200067f579182015b828111156200067e57825182559160200191906001019062000661565b5b5090506200068e919062000692565b5090565b620006b791905b80821115620006b357600081600090555060010162000699565b5090565b90565b61448f80620006ca6000396000f3006080604052600436106101d7576000357c0100000000000000000000000000000000000000000000000000000000900463ffffffff168062eba350146101dc57806306fdde0314610233578063095ea7b3146102c357806311abc0ca1461032857806313faede61461038d57806318160ddd146103b85780631b781a8b146103e357806323b872dd1461044c57806329d4a8ad146104d15780632d376e9414610528578063313ce567146105ab578063383d0d06146105dc578063442e97dd1461065f57806366188463146106e4578063691a3f641461074957806370a082311461077f578063715018a6146107d657806371e53aad146107ed578063727cdf87146109a4578063809051db146109d15780638da5cb5b14610a61578063943dfef114610ab857806395d89b4114610ae35780639ada9b7b14610b735780639dc464ae14610b7d578063a9059cbb14610bd4578063b4ad5fff14610c39578063b5c5314014610cba578063be040fb014610d11578063cebe09c914610d28578063d1ec779f14610d53578063d73dd62314610d96578063d851b22914610dfb578063d87a761614610e93578063db4c277b14610ebe578063dd62ed3e14610f1a578063e5fb849714610f91578063f2fde38b14610fbb575b600080fd5b3480156101e857600080fd5b5061021d600480360381019080803573ffffffffffffffffffffffffffffffffffffffff169060200190929190505050610ffe565b6040518082815260200191505060405180910390f35b34801561023f57600080fd5b50610248611016565b6040518080602001828103825283818151815260200191508051906020019080838360005b8381101561028857808201518184015260208101905061026d565b50505050905090810190601f1680156102b55780820380516001836020036101000a031916815260200191505b509250505060405180910390f35b3480156102cf57600080fd5b5061030e600480360381019080803573ffffffffffffffffffffffffffffffffffffffff169060200190929190803590602001909291905050506110b4565b604051808215151515815260200191505060405180910390f35b34801561033457600080fd5b50610373600480360381019080803573ffffffffffffffffffffffffffffffffffffffff169060200190929190803590602001909291905050506111a6565b604051808215151515815260200191505060405180910390f35b34801561039957600080fd5b506103a26113db565b6040518082815260200191505060405180910390f35b3480156103c457600080fd5b506103cd6113e1565b6040518082815260200191505060405180910390f35b3480156103ef57600080fd5b5061044a600480360381019080803590602001908201803590602001908080601f01602080910402602001604051908101604052809392919081815260200183838082843782019150505050505091929192905050506113eb565b005b34801561045857600080fd5b506104b7600480360381019080803573ffffffffffffffffffffffffffffffffffffffff169060200190929190803573ffffffffffffffffffffffffffffffffffffffff16906020019092919080359060200190929190505050611a19565b604051808215151515815260200191505060405180910390f35b3480156104dd57600080fd5b50610512600480360381019080803573ffffffffffffffffffffffffffffffffffffffff169060200190929190505050611e14565b6040518082815260200191505060405180910390f35b34801561053457600080fd5b50610569600480360381019080803573ffffffffffffffffffffffffffffffffffffffff169060200190929190505050611e2c565b604051808273ffffffffffffffffffffffffffffffffffffffff1673ffffffffffffffffffffffffffffffffffffffff16815260200191505060405180910390f35b3480156105b757600080fd5b506105c0611e5f565b604051808260ff1660ff16815260200191505060405180910390f35b3480156105e857600080fd5b5061061d600480360381019080803573ffffffffffffffffffffffffffffffffffffffff169060200190929190505050611e72565b604051808273ffffffffffffffffffffffffffffffffffffffff1673ffffffffffffffffffffffffffffffffffffffff16815260200191505060405180910390f35b34801561066b57600080fd5b506106ca600480360381019080803573ffffffffffffffffffffffffffffffffffffffff169060200190929190803573ffffffffffffffffffffffffffffffffffffffff16906020019092919080359060200190929190505050611ea5565b604051808215151515815260200191505060405180910390f35b3480156106f057600080fd5b5061072f600480360381019080803573ffffffffffffffffffffffffffffffffffffffff16906020019092919080359060200190929190505050612275565b604051808215151515815260200191505060405180910390f35b61077d600480360381019080803573ffffffffffffffffffffffffffffffffffffffff169060200190929190505050612507565b005b34801561078b57600080fd5b506107c0600480360381019080803573ffffffffffffffffffffffffffffffffffffffff169060200190929190505050612572565b6040518082815260200191505060405180910390f35b3480156107e257600080fd5b506107eb6125ba565b005b3480156107f957600080fd5b506108026126bf565b6040518080602001806020018981526020018881526020018781526020018673ffffffffffffffffffffffffffffffffffffffff1673ffffffffffffffffffffffffffffffffffffffff1681526020018060200185815260200184810384528c818151815260200191508051906020019080838360005b83811015610894578082015181840152602081019050610879565b50505050905090810190601f1680156108c15780820380516001836020036101000a031916815260200191505b5084810383528b818151815260200191508051906020019080838360005b838110156108fa5780820151818401526020810190506108df565b50505050905090810190601f1680156109275780820380516001836020036101000a031916815260200191505b50848103825286818151815260200191508051906020019080838360005b83811015610960578082015181840152602081019050610945565b50505050905090810190601f16801561098d5780820380516001836020036101000a031916815260200191505b509b50505050505050505050505060405180910390f35b3480156109b057600080fd5b506109cf600480360381019080803590602001909291905050506128ef565b005b3480156109dd57600080fd5b506109e66129b2565b6040518080602001828103825283818151815260200191508051906020019080838360005b83811015610a26578082015181840152602081019050610a0b565b50505050905090810190601f168015610a535780820380516001836020036101000a031916815260200191505b509250505060405180910390f35b348015610a6d57600080fd5b50610a76612a50565b604051808273ffffffffffffffffffffffffffffffffffffffff1673ffffffffffffffffffffffffffffffffffffffff16815260200191505060405180910390f35b348015610ac457600080fd5b50610acd612a76565b6040518082815260200191505060405180910390f35b348015610aef57600080fd5b50610af8612a7c565b6040518080602001828103825283818151815260200191508051906020019080838360005b83811015610b38578082015181840152602081019050610b1d565b50505050905090810190601f168015610b655780820380516001836020036101000a031916815260200191505b509250505060405180910390f35b610b7b612b1a565b005b348015610b8957600080fd5b50610bbe600480360381019080803573ffffffffffffffffffffffffffffffffffffffff169060200190929190505050612e62565b6040518082815260200191505060405180910390f35b348015610be057600080fd5b50610c1f600480360381019080803573ffffffffffffffffffffffffffffffffffffffff16906020019092919080359060200190929190505050612e7a565b604051808215151515815260200191505060405180910390f35b348015610c4557600080fd5b50610c7a600480360381019080803573ffffffffffffffffffffffffffffffffffffffff1690602001909291905050506131b5565b6040518088815260200187815260200186815260200185815260200184815260200183815260200182815260200197505050505050505060405180910390f35b348015610cc657600080fd5b50610ccf6132c5565b604051808273ffffffffffffffffffffffffffffffffffffffff1673ffffffffffffffffffffffffffffffffffffffff16815260200191505060405180910390f35b348015610d1d57600080fd5b50610d266132eb565b005b348015610d3457600080fd5b50610d3d613455565b6040518082815260200191505060405180910390f35b348015610d5f57600080fd5b50610d94600480360381019080803573ffffffffffffffffffffffffffffffffffffffff16906020019092919050505061345b565b005b348015610da257600080fd5b50610de1600480360381019080803573ffffffffffffffffffffffffffffffffffffffff1690602001909291908035906020019092919050505061358d565b604051808215151515815260200191505060405180910390f35b348015610e0757600080fd5b50610e3c600480360381019080803573ffffffffffffffffffffffffffffffffffffffff169060200190929190505050613789565b6040518080602001828103825283818151815260200191508051906020019060200280838360005b83811015610e7f578082015181840152602081019050610e64565b505050509050019250505060405180910390f35b348015610e9f57600080fd5b50610ea86138d0565b6040518082815260200191505060405180910390f35b610f18600480360381019080803590602001908201803590602001908080601f0160208091040260200160405190810160405280939291908181526020018383808284378201915050505050509192919290505050613954565b005b348015610f2657600080fd5b50610f7b600480360381019080803573ffffffffffffffffffffffffffffffffffffffff169060200190929190803573ffffffffffffffffffffffffffffffffffffffff169060200190929190505050613968565b6040518082815260200191505060405180910390f35b610fb960048036038101908080359060200190929190803590602001909291905050506139ef565b005b348015610fc757600080fd5b50610ffc600480360381019080803573ffffffffffffffffffffffffffffffffffffffff169060200190929190505050613ff3565b005b600f6020528060005260406000206000915090505481565b60058054600181600116156101000203166002900480601f0160208091040260200160405190810160405280929190818152602001828054600181600116156101000203166002900480156110ac5780601f10611081576101008083540402835291602001916110ac565b820191906000526020600020905b81548152906001019060200180831161108f57829003601f168201915b505050505081565b600081600260003373ffffffffffffffffffffffffffffffffffffffff1673ffffffffffffffffffffffffffffffffffffffff16815260200190815260200160002060008573ffffffffffffffffffffffffffffffffffffffff1673ffffffffffffffffffffffffffffffffffffffff168152602001908152602001600020819055508273ffffffffffffffffffffffffffffffffffffffff163373ffffffffffffffffffffffffffffffffffffffff167f8c5be1e5ebec7d5bd14f71427d1e84f3dd0314c0f7b2291e5b200ac8c7c3b925846040518082815260200191505060405180910390a36001905092915050565b60008073ffffffffffffffffffffffffffffffffffffffff168373ffffffffffffffffffffffffffffffffffffffff16141515156111e357600080fd5b6000803373ffffffffffffffffffffffffffffffffffffffff1673ffffffffffffffffffffffffffffffffffffffff16815260200190815260200160002054821115151561123057600080fd5b611281826000803373ffffffffffffffffffffffffffffffffffffffff1673ffffffffffffffffffffffffffffffffffffffff1681526020019081526020016000205461405b90919063ffffffff16565b6000803373ffffffffffffffffffffffffffffffffffffffff1673ffffffffffffffffffffffffffffffffffffffff16815260200190815260200160002081905550611318600b5483026000808673ffffffffffffffffffffffffffffffffffffffff1673ffffffffffffffffffffffffffffffffffffffff1681526020019081526020016000205461407490919063ffffffff16565b6000808573ffffffffffffffffffffffffffffffffffffffff1673ffffffffffffffffffffffffffffffffffffffff168152602001908152602001600020819055506001600b54038202600154016001819055508273ffffffffffffffffffffffffffffffffffffffff163373ffffffffffffffffffffffffffffffffffffffff167fddf252ad1be2c89b69c2b068fc378daa952ba7f163c4a11628f55a4df523b3ef846040518082815260200191505060405180910390a36001905092915050565b60095481565b6000600154905090565b6000806000806000806000806000806000809a508b5160148c011115156114195760148b019a508a8c015199505b601260008b73ffffffffffffffffffffffffffffffffffffffff1673ffffffffffffffffffffffffffffffffffffffff16815260200190815260200160002060009054906101000a900473ffffffffffffffffffffffffffffffffffffffff169850600073ffffffffffffffffffffffffffffffffffffffff168973ffffffffffffffffffffffffffffffffffffffff16141515156114b757600080fd5b5b8b5160418c01111515611a0b5760208b019a508a8c0151975060208b019a508a8c0151965060018b019a508a8c015195508b5160298c0110156117475760018b019a508a8c0151915060008260ff1611151561151357600080fd5b60148b019a508a8c0151925060148b019a508a8c015193506000601060008573ffffffffffffffffffffffffffffffffffffffff1673ffffffffffffffffffffffffffffffffffffffff1681526020019081526020016000205414156115bf578160ff16601060008573ffffffffffffffffffffffffffffffffffffffff1673ffffffffffffffffffffffffffffffffffffffff16815260200190815260200160002081905550611610565b8160ff16601060008573ffffffffffffffffffffffffffffffffffffffff1673ffffffffffffffffffffffffffffffffffffffff1681526020019081526020016000205414151561160f57600080fd5b5b818484604051602001808460ff1660ff167f01000000000000000000000000000000000000000000000000000000000000000281526001018373ffffffffffffffffffffffffffffffffffffffff1673ffffffffffffffffffffffffffffffffffffffff166c010000000000000000000000000281526014018273ffffffffffffffffffffffffffffffffffffffff1673ffffffffffffffffffffffffffffffffffffffff166c0100000000000000000000000002815260140193505050506040516020818303038152906040526040518082805190602001908083835b60208310151561171357805182526020820191506020810190506020830392506116ee565b6001836020036101000a03801982511681845116808217855250505050505090500191505060405180910390209450611819565b8b518b14151561175657600080fd5b33925082604051602001808273ffffffffffffffffffffffffffffffffffffffff1673ffffffffffffffffffffffffffffffffffffffff166c010000000000000000000000000281526014019150506040516020818303038152906040526040518082805190602001908083835b6020831015156117e957805182526020820191506020810190506020830392506117c4565b6001836020036101000a038019825116818451168082178552505050505050905001915050604051809103902094505b6000600d60008573ffffffffffffffffffffffffffffffffffffffff1673ffffffffffffffffffffffffffffffffffffffff16815260200190815260200160002060009054906101000a900473ffffffffffffffffffffffffffffffffffffffff1673ffffffffffffffffffffffffffffffffffffffff1614156118a9576118a38a846001611a19565b50611943565b8973ffffffffffffffffffffffffffffffffffffffff16600d60008573ffffffffffffffffffffffffffffffffffffffff1673ffffffffffffffffffffffffffffffffffffffff16815260200190815260200160002060009054906101000a900473ffffffffffffffffffffffffffffffffffffffff1673ffffffffffffffffffffffffffffffffffffffff1614151561194257600080fd5b5b600185878a8a604051600081526020016040526040518085600019166000191681526020018460ff1660ff1681526020018360001916600019168152602001826000191660001916815260200194505050505060206040516020810390808403906000865af11580156119ba573d6000803e3d6000fd5b5050506020604051035190508873ffffffffffffffffffffffffffffffffffffffff168173ffffffffffffffffffffffffffffffffffffffff16141515611a0057600080fd5b8398508299506114b8565b505050505050505050505050565b600080600d60008573ffffffffffffffffffffffffffffffffffffffff1673ffffffffffffffffffffffffffffffffffffffff16815260200190815260200160002060009054906101000a900473ffffffffffffffffffffffffffffffffffffffff1673ffffffffffffffffffffffffffffffffffffffff16141515611a9e57600080fd5b600073ffffffffffffffffffffffffffffffffffffffff168473ffffffffffffffffffffffffffffffffffffffff1614151515611ada57600080fd5b6001600260008673ffffffffffffffffffffffffffffffffffffffff1673ffffffffffffffffffffffffffffffffffffffff16815260200190815260200160002060003373ffffffffffffffffffffffffffffffffffffffff1673ffffffffffffffffffffffffffffffffffffffff16815260200190815260200160002081905550611b67848484611ea5565b15611e08576000600d60008573ffffffffffffffffffffffffffffffffffffffff1673ffffffffffffffffffffffffffffffffffffffff16815260200190815260200160002060009054906101000a900473ffffffffffffffffffffffffffffffffffffffff1673ffffffffffffffffffffffffffffffffffffffff161415611d8157600073ffffffffffffffffffffffffffffffffffffffff16600460009054906101000a900473ffffffffffffffffffffffffffffffffffffffff1673ffffffffffffffffffffffffffffffffffffffff16141515611d8057600460009054906101000a900473ffffffffffffffffffffffffffffffffffffffff1673ffffffffffffffffffffffffffffffffffffffff16638af1cbb93086866040518463ffffffff167c0100000000000000000000000000000000000000000000000000000000028152600401808473ffffffffffffffffffffffffffffffffffffffff1673ffffffffffffffffffffffffffffffffffffffff1681526020018373ffffffffffffffffffffffffffffffffffffffff1673ffffffffffffffffffffffffffffffffffffffff1681526020018273ffffffffffffffffffffffffffffffffffffffff1673ffffffffffffffffffffffffffffffffffffffff1681526020019350505050600060405180830381600087803b158015611d6757600080fd5b505af1158015611d7b573d6000803e3d6000fd5b505050505b5b83600d60008573ffffffffffffffffffffffffffffffffffffffff1673ffffffffffffffffffffffffffffffffffffffff16815260200190815260200160002060006101000a81548173ffffffffffffffffffffffffffffffffffffffff021916908373ffffffffffffffffffffffffffffffffffffffff16021790555060019050611e0d565b600090505b9392505050565b600e6020528060005260406000206000915090505481565b600d6020528060005260406000206000915054906101000a900473ffffffffffffffffffffffffffffffffffffffff1681565b600860009054906101000a900460ff1681565b60126020528060005260406000206000915054906101000a900473ffffffffffffffffffffffffffffffffffffffff1681565b60008073ffffffffffffffffffffffffffffffffffffffff168373ffffffffffffffffffffffffffffffffffffffff1614151515611ee257600080fd5b6000808573ffffffffffffffffffffffffffffffffffffffff1673ffffffffffffffffffffffffffffffffffffffff168152602001908152602001600020548211151515611f2f57600080fd5b600260008573ffffffffffffffffffffffffffffffffffffffff1673ffffffffffffffffffffffffffffffffffffffff16815260200190815260200160002060003373ffffffffffffffffffffffffffffffffffffffff1673ffffffffffffffffffffffffffffffffffffffff168152602001908152602001600020548211151515611fba57600080fd5b61200b826000808773ffffffffffffffffffffffffffffffffffffffff1673ffffffffffffffffffffffffffffffffffffffff1681526020019081526020016000205461405b90919063ffffffff16565b6000808673ffffffffffffffffffffffffffffffffffffffff1673ffffffffffffffffffffffffffffffffffffffff168152602001908152602001600020819055506120a2600b5483026000808673ffffffffffffffffffffffffffffffffffffffff1673ffffffffffffffffffffffffffffffffffffffff1681526020019081526020016000205461407490919063ffffffff16565b6000808573ffffffffffffffffffffffffffffffffffffffff1673ffffffffffffffffffffffffffffffffffffffff168152602001908152602001600020819055506001600b540382026001540160018190555061218582600260008773ffffffffffffffffffffffffffffffffffffffff1673ffffffffffffffffffffffffffffffffffffffff16815260200190815260200160002060003373ffffffffffffffffffffffffffffffffffffffff1673ffffffffffffffffffffffffffffffffffffffff1681526020019081526020016000205461405b90919063ffffffff16565b600260008673ffffffffffffffffffffffffffffffffffffffff1673ffffffffffffffffffffffffffffffffffffffff16815260200190815260200160002060003373ffffffffffffffffffffffffffffffffffffffff1673ffffffffffffffffffffffffffffffffffffffff168152602001908152602001600020819055508273ffffffffffffffffffffffffffffffffffffffff168473ffffffffffffffffffffffffffffffffffffffff167fddf252ad1be2c89b69c2b068fc378daa952ba7f163c4a11628f55a4df523b3ef846040518082815260200191505060405180910390a3600190509392505050565b600080600260003373ffffffffffffffffffffffffffffffffffffffff1673ffffffffffffffffffffffffffffffffffffffff16815260200190815260200160002060008573ffffffffffffffffffffffffffffffffffffffff1673ffffffffffffffffffffffffffffffffffffffff1681526020019081526020016000205490508083101515612387576000600260003373ffffffffffffffffffffffffffffffffffffffff1673ffffffffffffffffffffffffffffffffffffffff16815260200190815260200160002060008673ffffffffffffffffffffffffffffffffffffffff1673ffffffffffffffffffffffffffffffffffffffff1681526020019081526020016000208190555061241b565b61239a838261405b90919063ffffffff16565b600260003373ffffffffffffffffffffffffffffffffffffffff1673ffffffffffffffffffffffffffffffffffffffff16815260200190815260200160002060008673ffffffffffffffffffffffffffffffffffffffff1673ffffffffffffffffffffffffffffffffffffffff168152602001908152602001600020819055505b8373ffffffffffffffffffffffffffffffffffffffff163373ffffffffffffffffffffffffffffffffffffffff167f8c5be1e5ebec7d5bd14f71427d1e84f3dd0314c0f7b2291e5b200ac8c7c3b925600260003373ffffffffffffffffffffffffffffffffffffffff1673ffffffffffffffffffffffffffffffffffffffff16815260200190815260200160002060008873ffffffffffffffffffffffffffffffffffffffff1673ffffffffffffffffffffffffffffffffffffffff168152602001908152602001600020546040518082815260200191505060405180910390a3600191505092915050565b60008073ffffffffffffffffffffffffffffffffffffffff168273ffffffffffffffffffffffffffffffffffffffff161415151561254457600080fd5b339050600061255282612572565b14156125665761256482826001611a19565b505b61256e612b1a565b5050565b60008060008373ffffffffffffffffffffffffffffffffffffffff1673ffffffffffffffffffffffffffffffffffffffff168152602001908152602001600020549050919050565b600360009054906101000a900473ffffffffffffffffffffffffffffffffffffffff1673ffffffffffffffffffffffffffffffffffffffff163373ffffffffffffffffffffffffffffffffffffffff1614151561261657600080fd5b600360009054906101000a900473ffffffffffffffffffffffffffffffffffffffff1673ffffffffffffffffffffffffffffffffffffffff167ff8df31144d9c2f0f6b59d69b8b98abd5459d07f2742c4df920b25aae33c6482060405160405180910390a26000600360006101000a81548173ffffffffffffffffffffffffffffffffffffffff021916908373ffffffffffffffffffffffffffffffffffffffff160217905550565b6060806000806000806060600060056007600954600a54600b54600360009054906101000a900473ffffffffffffffffffffffffffffffffffffffff166006600c54878054600181600116156101000203166002900480601f0160208091040260200160405190810160405280929190818152602001828054600181600116156101000203166002900480156127965780601f1061276b57610100808354040283529160200191612796565b820191906000526020600020905b81548152906001019060200180831161277957829003601f168201915b50505050509750868054600181600116156101000203166002900480601f0160208091040260200160405190810160405280929190818152602001828054600181600116156101000203166002900480156128325780601f1061280757610100808354040283529160200191612832565b820191906000526020600020905b81548152906001019060200180831161281557829003601f168201915b50505050509650818054600181600116156101000203166002900480601f0160208091040260200160405190810160405280929190818152602001828054600181600116156101000203166002900480156128ce5780601f106128a3576101008083540402835291602001916128ce565b820191906000526020600020905b8154815290600101906020018083116128b157829003601f168201915b50505050509150975097509750975097509750975097509091929394959697565b6064811115806128ff575060ff81145b151561290a57600080fd5b6000601060003373ffffffffffffffffffffffffffffffffffffffff1673ffffffffffffffffffffffffffffffffffffffff1681526020019081526020016000205414151561295857600080fd5b60648111151561296b5780806001019150505b80601060003373ffffffffffffffffffffffffffffffffffffffff1673ffffffffffffffffffffffffffffffffffffffff1681526020019081526020016000208190555050565b60068054600181600116156101000203166002900480601f016020809104026020016040519081016040528092919081815260200182805460018160011615610100020316600290048015612a485780601f10612a1d57610100808354040283529160200191612a48565b820191906000526020600020905b815481529060010190602001808311612a2b57829003601f168201915b505050505081565b600360009054906101000a900473ffffffffffffffffffffffffffffffffffffffff1681565b600a5481565b60078054600181600116156101000203166002900480601f016020809104026020016040519081016040528092919081815260200182805460018160011615610100020316600290048015612b125780601f10612ae757610100808354040283529160200191612b12565b820191906000526020600020905b815481529060010190602001808311612af557829003601f168201915b505050505081565b6000807f44ca361f127f201c0c2223a33476e550d06a802425d2411fb56923055816c84a600c5460405180806020018381526020018281038252600d8152602001807f756e69745f646563696d616c73000000000000000000000000000000000000008152506020019250505060405180910390a1612bbb600954612bad600c54600a0a3461409090919063ffffffff16565b6140c890919063ffffffff16565b91507f44ca361f127f201c0c2223a33476e550d06a802425d2411fb56923055816c84a826040518080602001838152602001828103825260058152602001807f756e6974730000000000000000000000000000000000000000000000000000008152506020019250505060405180910390a1612c59600c54600a0a612c4b84600a5461409090919063ffffffff16565b6140c890919063ffffffff16565b90507f44ca361f127f201c0c2223a33476e550d06a802425d2411fb56923055816c84a816040518080602001838152602001828103825260078152602001807f5f626f756e7479000000000000000000000000000000000000000000000000008152506020019250505060405180910390a1612cd582826139ef565b7f44ca361f127f201c0c2223a33476e550d06a802425d2411fb56923055816c84a826040518080602001838152602001828103825260118152602001807f676f696e6720746f207472616e736665720000000000000000000000000000008152506020019250505060405180910390a1601160009054906101000a900473ffffffffffffffffffffffffffffffffffffffff1673ffffffffffffffffffffffffffffffffffffffff1660405180807f7472616e7366657228616464726573732c75696e743235362900000000000000815250601901905060405180910390207c0100000000000000000000000000000000000000000000000000000000900433846040518363ffffffff167c0100000000000000000000000000000000000000000000000000000000028152600401808373ffffffffffffffffffffffffffffffffffffffff1673ffffffffffffffffffffffffffffffffffffffff168152602001828152602001925050506000604051808303816000875af1925050501515612e5e57600080fd5b5050565b60106020528060005260406000206000915090505481565b600080600d60008573ffffffffffffffffffffffffffffffffffffffff1673ffffffffffffffffffffffffffffffffffffffff16815260200190815260200160002060009054906101000a900473ffffffffffffffffffffffffffffffffffffffff1673ffffffffffffffffffffffffffffffffffffffff16141515612eff57600080fd5b612f0983836111a6565b156131aa576000600d60008573ffffffffffffffffffffffffffffffffffffffff1673ffffffffffffffffffffffffffffffffffffffff16815260200190815260200160002060009054906101000a900473ffffffffffffffffffffffffffffffffffffffff1673ffffffffffffffffffffffffffffffffffffffff16141561312357600073ffffffffffffffffffffffffffffffffffffffff16600460009054906101000a900473ffffffffffffffffffffffffffffffffffffffff1673ffffffffffffffffffffffffffffffffffffffff1614151561312257600460009054906101000a900473ffffffffffffffffffffffffffffffffffffffff1673ffffffffffffffffffffffffffffffffffffffff16638af1cbb93033866040518463ffffffff167c0100000000000000000000000000000000000000000000000000000000028152600401808473ffffffffffffffffffffffffffffffffffffffff1673ffffffffffffffffffffffffffffffffffffffff1681526020018373ffffffffffffffffffffffffffffffffffffffff1673ffffffffffffffffffffffffffffffffffffffff1681526020018273ffffffffffffffffffffffffffffffffffffffff1673ffffffffffffffffffffffffffffffffffffffff1681526020019350505050600060405180830381600087803b15801561310957600080fd5b505af115801561311d573d6000803e3d6000fd5b505050505b5b33600d60008573ffffffffffffffffffffffffffffffffffffffff1673ffffffffffffffffffffffffffffffffffffffff16815260200190815260200160002060006101000a81548173ffffffffffffffffffffffffffffffffffffffff021916908373ffffffffffffffffffffffffffffffffffffffff160217905550600190506131af565b600090505b92915050565b60008060008060008060006131c988612572565b600f60008a73ffffffffffffffffffffffffffffffffffffffff1673ffffffffffffffffffffffffffffffffffffffff16815260200190815260200160002054600e60008b73ffffffffffffffffffffffffffffffffffffffff1673ffffffffffffffffffffffffffffffffffffffff168152602001908152602001600020546001543073ffffffffffffffffffffffffffffffffffffffff163161326c6138d0565b601060008f73ffffffffffffffffffffffffffffffffffffffff1673ffffffffffffffffffffffffffffffffffffffff168152602001908152602001600020549650965096509650965096509650919395979092949650565b601160009054906101000a900473ffffffffffffffffffffffffffffffffffffffff1681565b600080339150600e60008373ffffffffffffffffffffffffffffffffffffffff1673ffffffffffffffffffffffffffffffffffffffff16815260200190815260200160002054905060008111151561334257600080fd5b3073ffffffffffffffffffffffffffffffffffffffff163181111561337c573073ffffffffffffffffffffffffffffffffffffffff163190505b6133ce81600e60008573ffffffffffffffffffffffffffffffffffffffff1673ffffffffffffffffffffffffffffffffffffffff1681526020019081526020016000205461405b90919063ffffffff16565b600e60008473ffffffffffffffffffffffffffffffffffffffff1673ffffffffffffffffffffffffffffffffffffffff168152602001908152602001600020819055508173ffffffffffffffffffffffffffffffffffffffff166108fc829081150290604051600060405180830381858888f19350505050151561345157600080fd5b5050565b600b5481565b600061346633612572565b11151561347257600080fd5b600073ffffffffffffffffffffffffffffffffffffffff16601260003373ffffffffffffffffffffffffffffffffffffffff1673ffffffffffffffffffffffffffffffffffffffff16815260200190815260200160002060009054906101000a900473ffffffffffffffffffffffffffffffffffffffff1673ffffffffffffffffffffffffffffffffffffffff1614151561350c57600080fd5b80601260003373ffffffffffffffffffffffffffffffffffffffff1673ffffffffffffffffffffffffffffffffffffffff16815260200190815260200160002060006101000a81548173ffffffffffffffffffffffffffffffffffffffff021916908373ffffffffffffffffffffffffffffffffffffffff16021790555050565b600061361e82600260003373ffffffffffffffffffffffffffffffffffffffff1673ffffffffffffffffffffffffffffffffffffffff16815260200190815260200160002060008673ffffffffffffffffffffffffffffffffffffffff1673ffffffffffffffffffffffffffffffffffffffff1681526020019081526020016000205461407490919063ffffffff16565b600260003373ffffffffffffffffffffffffffffffffffffffff1673ffffffffffffffffffffffffffffffffffffffff16815260200190815260200160002060008573ffffffffffffffffffffffffffffffffffffffff1673ffffffffffffffffffffffffffffffffffffffff168152602001908152602001600020819055508273ffffffffffffffffffffffffffffffffffffffff163373ffffffffffffffffffffffffffffffffffffffff167f8c5be1e5ebec7d5bd14f71427d1e84f3dd0314c0f7b2291e5b200ac8c7c3b925600260003373ffffffffffffffffffffffffffffffffffffffff1673ffffffffffffffffffffffffffffffffffffffff16815260200190815260200160002060008773ffffffffffffffffffffffffffffffffffffffff1673ffffffffffffffffffffffffffffffffffffffff168152602001908152602001600020546040518082815260200191505060405180910390a36001905092915050565b6060806000606060008061379c876140de565b945084519350600184016040519080825280602002602001820160405280156137d45781602001602082028038833980820191505090505b509250600091505b838210156138675784828151811015156137f257fe5b906020019060200201519050601060008273ffffffffffffffffffffffffffffffffffffffff1673ffffffffffffffffffffffffffffffffffffffff16815260200190815260200160002054838381518110151561384c57fe5b906020019060200201818152505081806001019250506137dc565b601060008873ffffffffffffffffffffffffffffffffffffffff1673ffffffffffffffffffffffffffffffffffffffff1681526020019081526020016000205483858151811015156138b557fe5b90602001906020020181815250508295505050505050919050565b60008061394b601160009054906101000a900473ffffffffffffffffffffffffffffffffffffffff166040805190810160405280601281526020017f62616c616e63654f6628616464726573732900000000000000000000000000008152503073ffffffffffffffffffffffffffffffffffffffff166142c3565b90508091505090565b61395d816113eb565b613965612b1a565b50565b6000600260008473ffffffffffffffffffffffffffffffffffffffff1673ffffffffffffffffffffffffffffffffffffffff16815260200190815260200160002060008373ffffffffffffffffffffffffffffffffffffffff1673ffffffffffffffffffffffffffffffffffffffff16815260200190815260200160002054905092915050565b600080600060606000806000806000803399507f9411f7eebfa94bade4f14f1e5323525dbbe47b3be764f8143c8f0eca933a82118a60405180806020018373ffffffffffffffffffffffffffffffffffffffff1673ffffffffffffffffffffffffffffffffffffffff168152602001828103825260088152602001807f637573746f6d65720000000000000000000000000000000000000000000000008152506020019250505060405180910390a1613aa78a612572565b98507f44ca361f127f201c0c2223a33476e550d06a802425d2411fb56923055816c84a896040518080602001838152602001828103825260108152602001807f637573746f6d65725f62616c616e6365000000000000000000000000000000008152506020019250505060405180910390a1600089111515613b2857600080fd5b613b306138d0565b97507f44ca361f127f201c0c2223a33476e550d06a802425d2411fb56923055816c84a8860405180806020018381526020018281038252600c8152602001807f5f746f74616c5f756e69747300000000000000000000000000000000000000008152506020019250505060405180910390a160008c111515613bb157600080fd5b8b8810151515613bc057600080fd5b613bc98a6140de565b96508651955060009450600093505b85841015613dd8578684815181101515613bee57fe5b90602001906020020151925060018603841415613c0d578a9150613cbe565b601060008473ffffffffffffffffffffffffffffffffffffffff1673ffffffffffffffffffffffffffffffffffffffff168152602001908152602001600020549050600081118015613c60575060658111155b15613ca557613c9e6064613c90613c8160018561405b90919063ffffffff16565b8e61409090919063ffffffff16565b6140c890919063ffffffff16565b9150613cbd565b613cba8487038c6140c890919063ffffffff16565b91505b5b613d1082600e60008673ffffffffffffffffffffffffffffffffffffffff1673ffffffffffffffffffffffffffffffffffffffff1681526020019081526020016000205461407490919063ffffffff16565b600e60008573ffffffffffffffffffffffffffffffffffffffff1673ffffffffffffffffffffffffffffffffffffffff168152602001908152602001600020819055508273ffffffffffffffffffffffffffffffffffffffff167fb3b7a071186534c03b40695710096f289fd4ed6c1a374aff0bb648955e4fe563836040518082815260200191505060405180910390a2613db4828661407490919063ffffffff16565b9450613dc9828c61405b90919063ffffffff16565b9a508380600101945050613bd8565b613e5e85613e5034600e6000600360009054906101000a900473ffffffffffffffffffffffffffffffffffffffff1673ffffffffffffffffffffffffffffffffffffffff1673ffffffffffffffffffffffffffffffffffffffff1681526020019081526020016000205461407490919063ffffffff16565b61405b90919063ffffffff16565b600e6000600360009054906101000a900473ffffffffffffffffffffffffffffffffffffffff1673ffffffffffffffffffffffffffffffffffffffff1673ffffffffffffffffffffffffffffffffffffffff16815260200190815260200160002081905550613f158c600f60008d73ffffffffffffffffffffffffffffffffffffffff1673ffffffffffffffffffffffffffffffffffffffff1681526020019081526020016000205461407490919063ffffffff16565b600f60008c73ffffffffffffffffffffffffffffffffffffffff1673ffffffffffffffffffffffffffffffffffffffff168152602001908152602001600020819055508973ffffffffffffffffffffffffffffffffffffffff167f6f48e292651bd1d141885ed3aa208544a172f61dce0faf20bf98d87e15f558f6600f60008d73ffffffffffffffffffffffffffffffffffffffff1673ffffffffffffffffffffffffffffffffffffffff168152602001908152602001600020546040518082815260200191505060405180910390a2505050505050505050505050565b600360009054906101000a900473ffffffffffffffffffffffffffffffffffffffff1673ffffffffffffffffffffffffffffffffffffffff163373ffffffffffffffffffffffffffffffffffffffff1614151561404f57600080fd5b61405881614367565b50565b600082821115151561406957fe5b818303905092915050565b6000818301905082811015151561408757fe5b80905092915050565b6000808314156140a357600090506140c2565b81830290508183828115156140b457fe5b041415156140be57fe5b8090505b92915050565b600081838115156140d557fe5b04905092915050565b60606000806060849250600091505b6001156141be57600d60008473ffffffffffffffffffffffffffffffffffffffff1673ffffffffffffffffffffffffffffffffffffffff16815260200190815260200160002060009054906101000a900473ffffffffffffffffffffffffffffffffffffffff169250600360009054906101000a900473ffffffffffffffffffffffffffffffffffffffff1673ffffffffffffffffffffffffffffffffffffffff168373ffffffffffffffffffffffffffffffffffffffff1614156141b1576141be565b81806001019250506140ed565b816040519080825280602002602001820160405280156141ed5781602001602082028038833980820191505090505b5090508492505b60008211156142b857600d60008473ffffffffffffffffffffffffffffffffffffffff1673ffffffffffffffffffffffffffffffffffffffff16815260200190815260200160002060009054906101000a900473ffffffffffffffffffffffffffffffffffffffff16925081806001900392505082818381518110151561427757fe5b9060200190602002019073ffffffffffffffffffffffffffffffffffffffff16908173ffffffffffffffffffffffffffffffffffffffff16815250506141f4565b809350505050919050565b600080836040518082805190602001908083835b6020831015156142fc57805182526020820191506020810190506020830392506142d7565b6001836020036101000a0380198251168184511680821785525050505050509050019150506040518091039020905060405181815283600482015260208160248360008a613a98f1600081141561435257600080fd5b81519350602482016040525050509392505050565b600073ffffffffffffffffffffffffffffffffffffffff168173ffffffffffffffffffffffffffffffffffffffff16141515156143a357600080fd5b8073ffffffffffffffffffffffffffffffffffffffff16600360009054906101000a900473ffffffffffffffffffffffffffffffffffffffff1673ffffffffffffffffffffffffffffffffffffffff167f8be0079c531659141344cd1fd0a4f28419497f9722a3daafe3b4186f6b6457e060405160405180910390a380600360006101000a81548173ffffffffffffffffffffffffffffffffffffffff021916908373ffffffffffffffffffffffffffffffffffffffff160217905550505600a165627a7a723058204047ee236cd177a9efafa1da9d49776a0e360102b746cb8ddd63b7cd31cf29ba0029",
  "source": "pragma solidity ^0.4.24;\nimport './TwoKeyContract.sol';\n\ncontract TwoKeySignedContract is TwoKeyContract {\n  // the 2key link generated by the owner of this contract contains a secret which is a private key,\n  // this is the public part of this secret\n  mapping(address => address)  public public_link_key;\n\n  function setPublicLinkKey(address _public_link_key) public {\n    //Requires need to be on top\n    require(balanceOf(msg.sender) > 0);\n    require(public_link_key[msg.sender] == address(0));\n    public_link_key[msg.sender] = _public_link_key;\n  }\n\n  function transferSig(bytes sig) public {\n    // move ARCs based on signature information\n\n    // if version=1, with_cut is true then sig also include the cut (percentage) each influencer takes from the bounty\n    // the cut is stored in influencer2cut\n    uint idx = 0;\n//    uint8 version;\n//    if (idx+1 <= sig.length) {\n//      idx += 1;\n//      assembly\n//      {\n//        version := mload(add(sig, idx))\n//      }\n//    }\n//    require(version < 2);\n//    bool with_cut = false;\n//    if (version == 1) {\n//      with_cut = true;\n//    }\n\n    address old_address;\n    if (idx+20 <= sig.length) {\n      idx += 20;\n      assembly\n      {\n        old_address := mload(add(sig, idx))\n      }\n    }\n\n    address old_public_link_key = public_link_key[old_address];\n    require(old_public_link_key != address(0));\n\n    while (idx + 65 <= sig.length) {\n      // The signature format is a compact form of:\n      //   {bytes32 r}{bytes32 s}{uint8 v}\n      // Compact means, uint8 is not padded to 32 bytes.\n      idx += 32;\n      bytes32 r;\n      assembly\n      {\n        r := mload(add(sig, idx))\n      }\n\n      idx += 32;\n      bytes32 s;\n      assembly\n      {\n        s := mload(add(sig, idx))\n      }\n\n      idx += 1;\n      uint8 v;\n      assembly\n      {\n        v := mload(add(sig, idx))\n      }\n\n      bytes32 hash;\n      address new_public_key;\n      address new_address;\n//      if (idx + (with_cut ? 41 : 40) < sig.length) {\n      if (idx + 41 < sig.length) {  // its  a < and not a <= because we dont want this to be the final iteration for the converter\n        uint8 bounty_cut;\n//        if (with_cut)\n        {\n          idx += 1;\n          assembly\n          {\n            bounty_cut := mload(add(sig, idx))\n          }\n          require(bounty_cut > 0);  // 0 and 255 are used to indicate default (equal part) behaviour\n        }\n\n        idx += 20;\n        assembly\n        {\n          new_address := mload(add(sig, idx))\n        }\n\n        idx += 20;\n        assembly\n        {\n          new_public_key := mload(add(sig, idx))\n        }\n\n//        if (with_cut)\n        {\n//          require(bounty_cut > 0);\n          if (influencer2cut[new_address] == 0) {\n            influencer2cut[new_address] = uint256(bounty_cut);\n          } else {\n            require(influencer2cut[new_address] == uint256(bounty_cut));\n          }\n          hash = keccak256(abi.encodePacked(bounty_cut, new_public_key, new_address));\n        }\n//        else {\n//          hash = keccak256(abi.encodePacked(new_public_key, new_address));\n//        }\n      } else {\n        require(idx == sig.length);\n        // signed message for the last step is the address of the converter\n        new_address = msg.sender;\n        hash = keccak256(abi.encodePacked(new_address));\n      }\n      // assume users can take ARCs only once... this could be changed\n      if (received_from[new_address] == 0) {\n        transferFrom(old_address, new_address, 1);\n      } else {\n        require(received_from[new_address] == old_address);\n      }\n\n      // check if we received a valid signature\n      address signer = ecrecover(hash, v, r, s);\n      if (signer != old_public_link_key) {\n        revert();\n      }\n      old_public_link_key = new_public_key;\n      old_address = new_address;\n    }\n//    require(idx == sig.length);\n  }\n\n  function buySign(bytes sig) public payable {\n    // validate sig AND populate received_from and influencer2cut\n    transferSig(sig);\n\n    buyProduct();\n  }\n}\n\ncontract TwoKeySignedAcquisitionContract is TwoKeyAcquisitionContract, TwoKeySignedContract {\n  constructor(TwoKeyEventSource _eventSource, string _name, string _symbol,\n        uint256 _tSupply, uint256 _quota, uint256 _cost, uint256 _bounty,\n        uint256 _units, string _ipfs_hash)\n        public\n        TwoKeyAcquisitionContract(_eventSource,_name,_symbol,_tSupply,_quota,_cost,_bounty,_units,_ipfs_hash)\n  {\n  }\n}\n\ncontract TwoKeySignedPresellContract is TwoKeyPresellContract, TwoKeySignedContract {\n  constructor(TwoKeyEventSource _eventSource, string _name, string _symbol,\n        uint256 _tSupply, uint256 _quota, uint256 _cost, uint256 _bounty,\n        string _ipfs_hash, ERC20full _erc20_token_sell_contract)\n        public\n        TwoKeyPresellContract(_eventSource,_name,_symbol,_tSupply,_quota,_cost,_bounty,_ipfs_hash,_erc20_token_sell_contract)\n  {\n  }\n}\n",
  "sourcePath": "/Users/aydnep/2key/contracts/contracts/2key/TwoKeySignedContract.sol",
  "compiler": {
    "name": "solc",
    "version": "0.4.24+commit.e67f0147.Emscripten.clang"
  },
  "schemaVersion": "2.0.1",
  "updatedAt": "2018-09-13T11:28:32.526Z"
}