{
  "contractName": "TwoKeyCampaignInventory",
  "abi": [
    {
      "inputs": [],
      "payable": false,
      "stateMutability": "nonpayable",
      "type": "constructor"
    },
    {
      "anonymous": false,
      "inputs": [
        {
          "indexed": true,
          "name": "_contract",
          "type": "address"
        }
      ],
      "name": "Expired",
      "type": "event"
    },
    {
      "constant": false,
      "inputs": [
        {
          "name": "_twoKeyCampaign",
          "type": "address"
        }
      ],
      "name": "addTwoKeyCampaign",
      "outputs": [],
      "payable": false,
      "stateMutability": "nonpayable",
      "type": "function"
    },
    {
      "constant": false,
      "inputs": [
        {
          "name": "_tokenID",
          "type": "uint256"
        },
        {
          "name": "_assetContract",
          "type": "address"
        },
        {
          "name": "_amount",
          "type": "uint256"
        }
      ],
      "name": "addFungibleAsset",
      "outputs": [
        {
          "name": "",
          "type": "bool"
        }
      ],
      "payable": false,
      "stateMutability": "nonpayable",
      "type": "function"
    },
    {
      "constant": false,
      "inputs": [
        {
          "name": "_tokenID",
          "type": "uint256"
        },
        {
          "name": "_assetContract",
          "type": "address"
        },
        {
          "name": "_index",
          "type": "uint256"
        }
      ],
      "name": "addNonFungibleAsset",
      "outputs": [
        {
          "name": "",
          "type": "bool"
        }
      ],
      "payable": false,
      "stateMutability": "nonpayable",
      "type": "function"
    },
    {
      "constant": false,
      "inputs": [
        {
          "name": "_to",
          "type": "address"
        },
        {
          "name": "_tokenID",
          "type": "uint256"
        },
        {
          "name": "_assetContract",
          "type": "address"
        },
        {
          "name": "_amount",
          "type": "uint256"
        }
      ],
      "name": "transferFungibleAsset",
      "outputs": [
        {
          "name": "",
          "type": "bool"
        }
      ],
      "payable": false,
      "stateMutability": "nonpayable",
      "type": "function"
    },
    {
      "constant": false,
      "inputs": [
        {
          "name": "_to",
          "type": "address"
        },
        {
          "name": "_tokenID",
          "type": "uint256"
        },
        {
          "name": "_assetContract",
          "type": "address"
        },
        {
          "name": "_assetTokenID",
          "type": "uint256"
        }
      ],
      "name": "transferNonFungibleAsset",
      "outputs": [
        {
          "name": "",
          "type": "bool"
        }
      ],
      "payable": false,
      "stateMutability": "nonpayable",
      "type": "function"
    },
    {
      "constant": false,
      "inputs": [
        {
          "name": "_to",
          "type": "address"
        },
        {
          "name": "_tokenID",
          "type": "uint256"
        },
        {
          "name": "_assetContract",
          "type": "address"
        },
        {
          "name": "_amount",
          "type": "uint256"
        }
      ],
      "name": "expireFungible",
      "outputs": [
        {
          "name": "",
          "type": "bool"
        }
      ],
      "payable": false,
      "stateMutability": "nonpayable",
      "type": "function"
    },
    {
      "constant": false,
      "inputs": [
        {
          "name": "_to",
          "type": "address"
        },
        {
          "name": "_tokenID",
          "type": "uint256"
        },
        {
          "name": "_assetContract",
          "type": "address"
        },
        {
          "name": "_assetTokenID",
          "type": "uint256"
        }
      ],
      "name": "expireNonFungible",
      "outputs": [
        {
          "name": "",
          "type": "bool"
        }
      ],
      "payable": false,
      "stateMutability": "nonpayable",
      "type": "function"
    },
    {
      "constant": false,
      "inputs": [
        {
          "name": "_tokenID",
          "type": "uint256"
        },
        {
          "name": "_assetContract",
          "type": "address"
        },
        {
          "name": "_amount",
          "type": "uint256"
        }
      ],
      "name": "removeFungibleAssets",
      "outputs": [],
      "payable": false,
      "stateMutability": "nonpayable",
      "type": "function"
    },
    {
      "constant": false,
      "inputs": [
        {
          "name": "_tokenID",
          "type": "uint256"
        },
        {
          "name": "_assetContract",
          "type": "address"
        },
        {
          "name": "_amount",
          "type": "uint256"
        }
      ],
      "name": "addFungibleAssets",
      "outputs": [],
      "payable": false,
      "stateMutability": "nonpayable",
      "type": "function"
    },
    {
      "constant": false,
      "inputs": [
        {
          "name": "_tokenID",
          "type": "uint256"
        },
        {
          "name": "_assetContract",
          "type": "address"
        }
      ],
      "name": "setFungibleAssetsToZero",
      "outputs": [],
      "payable": false,
      "stateMutability": "nonpayable",
      "type": "function"
    },
    {
      "constant": false,
      "inputs": [
        {
          "name": "_tokenID",
          "type": "uint256"
        },
        {
          "name": "_assetContract",
          "type": "address"
        }
      ],
      "name": "setFungibleAssetsToOne",
      "outputs": [],
      "payable": false,
      "stateMutability": "nonpayable",
      "type": "function"
    }
  ],
  "bytecode": "0x608060405234801561001057600080fd5b506110ef806100206000396000f3006080604052600436106100ae576000357c0100000000000000000000000000000000000000000000000000000000900463ffffffff168062a8db2d146100b35780635192c9ea146100f6578063659377171461014d5780636a5ea8d9146101dc5780639e1f126014610229578063a4d4a094146102b8578063b706568f14610327578063be1fd038146103b6578063db9e4b8f14610425578063e6ada8c71461047c578063e71e144c1461050b575b600080fd5b3480156100bf57600080fd5b506100f4600480360381019080803573ffffffffffffffffffffffffffffffffffffffff169060200190929190505050610558565b005b34801561010257600080fd5b5061014b60048036038101908080359060200190929190803573ffffffffffffffffffffffffffffffffffffffff169060200190929190803590602001909291905050506105f9565b005b34801561015957600080fd5b506101c2600480360381019080803573ffffffffffffffffffffffffffffffffffffffff16906020019092919080359060200190929190803573ffffffffffffffffffffffffffffffffffffffff1690602001909291908035906020019092919050505061065b565b604051808215151515815260200191505060405180910390f35b3480156101e857600080fd5b5061022760048036038101908080359060200190929190803573ffffffffffffffffffffffffffffffffffffffff1690602001909291905050506106b9565b005b34801561023557600080fd5b5061029e600480360381019080803573ffffffffffffffffffffffffffffffffffffffff16906020019092919080359060200190929190803573ffffffffffffffffffffffffffffffffffffffff16906020019092919080359060200190929190505050610712565b604051808215151515815260200191505060405180910390f35b3480156102c457600080fd5b5061030d60048036038101908080359060200190929190803573ffffffffffffffffffffffffffffffffffffffff1690602001909291908035906020019092919050505061072a565b604051808215151515815260200191505060405180910390f35b34801561033357600080fd5b5061039c600480360381019080803573ffffffffffffffffffffffffffffffffffffffff16906020019092919080359060200190929190803573ffffffffffffffffffffffffffffffffffffffff169060200190929190803590602001909291905050506108e5565b604051808215151515815260200191505060405180910390f35b3480156103c257600080fd5b5061040b60048036038101908080359060200190929190803573ffffffffffffffffffffffffffffffffffffffff169060200190929190803590602001909291905050506108fd565b604051808215151515815260200191505060405180910390f35b34801561043157600080fd5b5061047a60048036038101908080359060200190929190803573ffffffffffffffffffffffffffffffffffffffff16906020019092919080359060200190929190505050610b49565b005b34801561048857600080fd5b506104f1600480360381019080803573ffffffffffffffffffffffffffffffffffffffff16906020019092919080359060200190929190803573ffffffffffffffffffffffffffffffffffffffff16906020019092919080359060200190929190505050610bab565b604051808215151515815260200191505060405180910390f35b34801561051757600080fd5b5061055660048036038101908080359060200190929190803573ffffffffffffffffffffffffffffffffffffffff169060200190929190505050610c09565b005b600073ffffffffffffffffffffffffffffffffffffffff16600160009054906101000a900473ffffffffffffffffffffffffffffffffffffffff1673ffffffffffffffffffffffffffffffffffffffff161415156105b557600080fd5b80600160006101000a81548173ffffffffffffffffffffffffffffffffffffffff021916908373ffffffffffffffffffffffffffffffffffffffff16021790555050565b8060008085815260200190815260200160002060008473ffffffffffffffffffffffffffffffffffffffff1673ffffffffffffffffffffffffffffffffffffffff16815260200190815260200160002060008282540192505081905550505050565b600061066985858585610c62565b503073ffffffffffffffffffffffffffffffffffffffff167fd5669ebe8b90ed693033f1915dcea031e7a16a6f146a8326c02eec10eed77edd60405160405180910390a260019050949350505050565b600160008084815260200190815260200160002060008373ffffffffffffffffffffffffffffffffffffffff1673ffffffffffffffffffffffffffffffffffffffff168152602001908152602001600020819055505050565b600061072085858585610e30565b9050949350505050565b60008273ffffffffffffffffffffffffffffffffffffffff1660405180807f7472616e7366657246726f6d28616464726573732c616464726573732c75696e81526020017f7432353629000000000000000000000000000000000000000000000000000000815250602501905060405180910390207c010000000000000000000000000000000000000000000000000000000090043330856040518463ffffffff167c0100000000000000000000000000000000000000000000000000000000028152600401808473ffffffffffffffffffffffffffffffffffffffff1673ffffffffffffffffffffffffffffffffffffffff1681526020018373ffffffffffffffffffffffffffffffffffffffff1673ffffffffffffffffffffffffffffffffffffffff16815260200182815260200193505050506000604051808303816000875af192505050151561087d57600080fd5b8160008086815260200190815260200160002060008573ffffffffffffffffffffffffffffffffffffffff1673ffffffffffffffffffffffffffffffffffffffff16815260200190815260200160002060008282540192505081905550600190509392505050565b60006108f385858585610c62565b9050949350505050565b6000808373ffffffffffffffffffffffffffffffffffffffff1660405180807f7472616e7366657246726f6d28616464726573732c616464726573732c75696e81526020017f7432353629000000000000000000000000000000000000000000000000000000815250602501905060405180910390207c0100000000000000000000000000000000000000000000000000000000900433856040518363ffffffff167c0100000000000000000000000000000000000000000000000000000000028152600401808373ffffffffffffffffffffffffffffffffffffffff1673ffffffffffffffffffffffffffffffffffffffff168152602001828152602001925050506000604051808303816000875af1925050501515610a1d57600080fd5b8383604051602001808373ffffffffffffffffffffffffffffffffffffffff1673ffffffffffffffffffffffffffffffffffffffff166c01000000000000000000000000028152601401828152602001925050506040516020818303038152906040526040518082805190602001908083835b602083101515610ab55780518252602082019150602081019050602083039250610a90565b6001836020036101000a0380198251168184511680821785525050505050509050019150506040518091039020600190049050600160008087815260200190815260200160002060008373ffffffffffffffffffffffffffffffffffffffff1673ffffffffffffffffffffffffffffffffffffffff1681526020019081526020016000208190555060019150509392505050565b8060008085815260200190815260200160002060008473ffffffffffffffffffffffffffffffffffffffff1673ffffffffffffffffffffffffffffffffffffffff16815260200190815260200160002060008282540392505081905550505050565b6000610bb985858585610e30565b503073ffffffffffffffffffffffffffffffffffffffff167fd5669ebe8b90ed693033f1915dcea031e7a16a6f146a8326c02eec10eed77edd60405160405180910390a260019050949350505050565b600080600084815260200190815260200160002060008373ffffffffffffffffffffffffffffffffffffffff1673ffffffffffffffffffffffffffffffffffffffff168152602001908152602001600020819055505050565b60008273ffffffffffffffffffffffffffffffffffffffff1660405160200180807f7472616e7366657228616464726573732c75696e74323536290000000000000081525060190190506040516020818303038152906040526040518082805190602001908083835b602083101515610cf05780518252602082019150602081019050602083039250610ccb565b6001836020036101000a03801982511681845116808217855250505050505090500191505060405180910390207c0100000000000000000000000000000000000000000000000000000000900486846040518363ffffffff167c0100000000000000000000000000000000000000000000000000000000028152600401808373ffffffffffffffffffffffffffffffffffffffff1673ffffffffffffffffffffffffffffffffffffffff168152602001828152602001925050506000604051808303816000875af1925050501515610dc757600080fd5b8160008086815260200190815260200160002060008573ffffffffffffffffffffffffffffffffffffffff1673ffffffffffffffffffffffffffffffffffffffff1681526020019081526020016000206000828254039250508190555060019050949350505050565b6000808383604051602001808373ffffffffffffffffffffffffffffffffffffffff1673ffffffffffffffffffffffffffffffffffffffff166c01000000000000000000000000028152601401828152602001925050506040516020818303038152906040526040518082805190602001908083835b602083101515610ecb5780518252602082019150602081019050602083039250610ea6565b6001836020036101000a03801982511681845116808217855250505050505090500191505060405180910390206001900490508373ffffffffffffffffffffffffffffffffffffffff1660405160200180807f7472616e7366657228616464726573732c75696e74323536290000000000000081525060190190506040516020818303038152906040526040518082805190602001908083835b602083101515610f8a5780518252602082019150602081019050602083039250610f65565b6001836020036101000a03801982511681845116808217855250505050505090500191505060405180910390207c0100000000000000000000000000000000000000000000000000000000900487856040518363ffffffff167c0100000000000000000000000000000000000000000000000000000000028152600401808373ffffffffffffffffffffffffffffffffffffffff1673ffffffffffffffffffffffffffffffffffffffff168152602001828152602001925050506000604051808303816000875af192505050151561106157600080fd5b600080600087815260200190815260200160002060008373ffffffffffffffffffffffffffffffffffffffff1673ffffffffffffffffffffffffffffffffffffffff1681526020019081526020016000208190555060019150509493505050505600a165627a7a723058207104c0ad417edec81877e8ab31b48ae4d636d253d71cae2bff04fceba9492be80029",
  "source": "pragma solidity ^0.4.24;\n\n// based on https://medium.com/coinmonks/introducing-crypto-composables-ee5701fde217\n\nimport '../openzeppelin-solidity/contracts/math/SafeMath.sol';\n\n//import './RBACWithAdmin.sol';\n\n/// is RBACWithAdmin (?)\ncontract TwoKeyCampaignInventory {\n\n  event Expired(address indexed _contract);\n\n  using SafeMath for uint256;\n\n\n  /// TODO: Strictly owned and all methods can be called only by TwoKeyCampaign contracts\n\n\n  /*\n\n    The contract acts as a store. The assets data structure is the catalogue of the store.\n    \n    Each asset is identified by a uint256 tokenID that acts as a SKU (shop keeping unit)\n\n    This SKU is set by the owner and is unique only with this particular contract\n    \n      mapping(uint256 => ...)\n\n    maps a tokenID to the asset\n    Such a tokenID identifies one of:\n\n    1. ERC20 : which is represented by an entry mapping(address => uint256)\n    which maps the ERC20 contract to the amount tokens we have\n    2. ERC721: which is represented by an entry mapping(address => uint256)\n    where the address is a hash of the concatenation of the ERC721 contract address and the unique token within that contract, and \n    the uint256 value is 1 or 0\n\n  */\n\n\n  // TODO (udi) I think it she mapping(uint256 => address) and not mapping(uint256 => mapping(address => uint256))\n  // the uint256 is SKU and the address is of ERC20 or ERC721 there is just one address per SKU so we dont need more than one.\n  //    You can the balanceOf method (both in ERC20 and ERC721) instead of using the last uint256 or counting how many entries you have\n  //    in mapping(address => uint256). From reading the interface of ERC721 it looks like it is not very important to\n  //    remeber which NFT you used. If you really want you can do a mapping from SKU to a struct. the first item in the\n  //    struct is the address and the second item is a map of all the NFT the campaign owns mapping(uint256 => bool)\n  //    but this is not elegant because this mapping is only needed for ERC721 and not for ERC20 so you should really put\n  //    it in a subclass. Anyway I dont think we need ETC721 and even if we support ERC721 we dont need to keep track of which tokenID (NFT)\n  //    is used.\n  //\n  mapping(uint256 => mapping(address => uint256)) assets;\n\n  /// Only 2key campaign can issue calls on this contract\n  address twoKeyCampaign;\n\n  modifier onlyTwoKeyCampaign {\n    require(msg.sender != address(0));\n    require(msg.sender == twoKeyCampaign);\n    _;\n  }\n\n\n  function addTwoKeyCampaign(address _twoKeyCampaign) public {\n    /// Because campaign can be added only once\n    require(twoKeyCampaign == address(0));\n    twoKeyCampaign = _twoKeyCampaign;\n  }\n\n\n  constructor() public {\n\n  }\n\n\n  // add erc20 asset amount to the store, which adds an amount of that erc20 to our catalogue\n  function addFungibleAsset(uint256 _tokenID, address _assetContract, uint256 _amount) public returns (bool) {\n    require(\n      _assetContract.call(\n        bytes4(keccak256(\"transferFrom(address,address,uint256)\")),\n        msg.sender,\n        address(this),\n        _amount\n      )\n    );\n\n    // set as asset\n    assets[_tokenID][_assetContract] += _amount;\n\n    return true;\n  }\n\n  // add erc721 asset to the store, which adds a particular unique item from that erc721 to our catalogue\n  function addNonFungibleAsset(uint256 _tokenID, address _assetContract, uint256 _index) public returns (bool) {\n    require(\n      _assetContract.call(\n        bytes4(keccak256(\"transferFrom(address,address,uint256)\")),\n        msg.sender,\n        _index\n      )\n    );\n\n    // set as asset\n    address assetToken = address(\n      keccak256(abi.encodePacked(_assetContract, _index))\n    );\n    assets[_tokenID][assetToken] = 1;\n\n    return true;\n  }\n  // commented line where transaction reverted.\n  // move an amount of erc20 from our catalogue to someone\n  function moveFungibleAsset(\n    address _to,\n    uint256 _tokenID,\n    address _assetContract,\n    uint256 _amount) internal returns (bool) {\n//    require(assets[_tokenID][_assetContract] >= _amount);\n    require(\n      _assetContract.call(\n        bytes4(keccak256(abi.encodePacked(\"transfer(address,uint256)\"))),\n        _to, _amount\n      )\n    );\n\n    assets[_tokenID][_assetContract] -= _amount;\n    return true;\n  }\n\n  // transfer a unique item from a erc721 in our catalogue to someone\n  function moveNonFungibleAsset(\n    address _to,\n    uint256 _tokenID,\n    address _assetContract,\n    uint256 _assetTokenID) internal returns (bool) {\n    address assetToken = address(\n      keccak256(abi.encodePacked(_assetContract, _assetTokenID))\n    );\n//    require(assets[_tokenID][assetToken] == 1);\n    require(\n      _assetContract.call(\n        bytes4(keccak256(abi.encodePacked(\"transfer(address,uint256)\"))),\n        _to, _assetTokenID\n      )\n    );\n\n    assets[_tokenID][assetToken] = 0;\n    return true;\n  }\n\n  // transfer an amount of erc20 from our catalogue to someone\n  // If transferFungibleAsset is internal that means it can't be called from out of the contract - set it to public\n  // onlyRole(ROLE_CONTROLLER) modifier also doesn't work, need to check it.\n  function transferFungibleAsset(\n    address _to,\n    uint256 _tokenID,\n    address _assetContract,\n    uint256 _amount) public returns (bool) {\n    return moveFungibleAsset(_to, _tokenID, _assetContract, _amount);\n  }\n\n  // transfer a unique item from a erc721 in our catalogue to someone\n  // public - need to be callable only by two key campaign\n  // onlyRole(ROLE_CONTROLLER)\n  function transferNonFungibleAsset(\n    address _to,\n    uint256 _tokenID,\n    address _assetContract,\n    uint256 _assetTokenID) public returns (bool) {\n    return moveNonFungibleAsset(_to, _tokenID, _assetContract, _assetTokenID);\n  }\n\n  // onlyRole(ROLE_CONTROLLER)\n  function expireFungible(\n    address _to,\n    uint256 _tokenID,\n    address _assetContract,\n    uint256 _amount)  public returns (bool) {\n    moveFungibleAsset(_to, _tokenID, _assetContract, _amount);\n    emit Expired(address(this));\n    return true;\n  }\n\n  // onlyRole(ROLE_CONTROLLER)\n  function expireNonFungible(\n    address _to,\n    uint256 _tokenID,\n    address _assetContract,\n    uint256 _assetTokenID) public returns (bool){\n    moveNonFungibleAsset(_to, _tokenID, _assetContract, _assetTokenID);\n    emit Expired(address(this));\n    return true;\n  }\n\n  /// @notice Since we don't any more inherit this contract, we can access to it's variables and modify them only with functions\n  /// @notice Removes specific amount of assets\n  /// @dev need to setup some kind of validation that only TwoKeyCampaign contract can call this\n  /// @param _tokenID is id of token\n  /// @param _assetContract is address of asset contract\n  /// @param _amount is the actual amount\n  function removeFungibleAssets(uint _tokenID, address _assetContract, uint _amount) public {\n      assets[_tokenID][_assetContract] -= _amount;\n  }\n  /// @notice Since we don't any more inherit this contract, we can access to it's variables and modify them only with functions\n  /// @notice Adds specific amount of assets\n  /// @dev need to setup some kind of validation that only TwoKeyCampaign contract can call this\n  /// @param _tokenID is id of token\n  /// @param _assetContract is address of asset contract\n  /// @param _amount is the actual amount\n  function addFungibleAssets(uint _tokenID, address _assetContract, uint _amount) public {\n    assets[_tokenID][_assetContract] += _amount;\n  }\n  /// @notice Since we don't any more inherit this contract, we can access to it's variables and modify them only with functions\n  /// @notice Sets amount of assets to 0\n  /// @dev need to setup some kind of validation that only TwoKeyCampaign contract can call this\n  /// @param _tokenID is id of token\n  /// @param _assetContract is address of asset contract\n  function setFungibleAssetsToZero(uint _tokenID, address _assetContract) public {\n    assets[_tokenID][_assetContract] = 0;\n  }\n  /// @notice Since we don't any more inherit this contract, we can access to it's variables and modify them only with functions\n  /// @notice Sets amount of assets to 1\n  /// @dev need to setup some kind of validation that only TwoKeyCampaign contract can call this\n  /// @param _tokenID is id of token\n  /// @param _assetContract is address of asset contract\n  function setFungibleAssetsToOne(uint _tokenID, address _assetContract) public {\n    assets[_tokenID][_assetContract] = 1;\n  }\n\n\n}\n",
  "sourcePath": "/Users/nikolamadjarevic/Desktop/2key/contracts/contracts/2key/TwoKeyCampaignInventory.sol",
  "compiler": {
    "name": "solc",
    "version": "0.4.24+commit.e67f0147.Emscripten.clang"
  },
  "schemaVersion": "2.0.1",
  "updatedAt": "2018-08-30T12:10:26.178Z"
}