{
  "contractName": "TwoKeyCampaignFactory",
  "abi": [
    {
      "inputs": [
        {
          "name": "openingTime",
          "type": "uint256"
        },
        {
          "name": "closingTime",
          "type": "uint256"
        }
      ],
      "payable": false,
      "stateMutability": "nonpayable",
      "type": "constructor"
    },
    {
      "constant": true,
      "inputs": [],
      "name": "getAddresses",
      "outputs": [
        {
          "name": "",
          "type": "address"
        },
        {
          "name": "",
          "type": "address"
        },
        {
          "name": "",
          "type": "address"
        }
      ],
      "payable": false,
      "stateMutability": "view",
      "type": "function"
    }
  ],
  "bytecode": "0x608060405234801561001057600080fd5b50604051604080612c198339810180604052810190808051906020019092919080519060200190929190505050610045610185565b604051809103906000f080158015610061573d6000803e3d6000fd5b506000806101000a81548173ffffffffffffffffffffffffffffffffffffffff021916908373ffffffffffffffffffffffffffffffffffffffff1602179055506100a9610185565b604051809103906000f0801580156100c5573d6000803e3d6000fd5b50600160006101000a81548173ffffffffffffffffffffffffffffffffffffffff021916908373ffffffffffffffffffffffffffffffffffffffff1602179055508181610110610195565b8083815260200182815260200192505050604051809103906000f08015801561013d573d6000803e3d6000fd5b50600260006101000a81548173ffffffffffffffffffffffffffffffffffffffff021916908373ffffffffffffffffffffffffffffffffffffffff16021790555050506101a5565b6040516108c58061035b83390190565b604051611ff980610c2083390190565b6101a7806101b46000396000f300608060405260043610610041576000357c0100000000000000000000000000000000000000000000000000000000900463ffffffff168063a39fac1214610046575b600080fd5b34801561005257600080fd5b5061005b610103565b604051808473ffffffffffffffffffffffffffffffffffffffff1673ffffffffffffffffffffffffffffffffffffffff1681526020018373ffffffffffffffffffffffffffffffffffffffff1673ffffffffffffffffffffffffffffffffffffffff1681526020018273ffffffffffffffffffffffffffffffffffffffff1673ffffffffffffffffffffffffffffffffffffffff168152602001935050505060405180910390f35b60008060008060009054906101000a900473ffffffffffffffffffffffffffffffffffffffff16600160009054906101000a900473ffffffffffffffffffffffffffffffffffffffff16600260009054906101000a900473ffffffffffffffffffffffffffffffffffffffff169250925092509091925600a165627a7a72305820b9a41b9f98c81d7a2346c12bca178ae3729288a428a471d908efd48d309a461c0029608060405234801561001057600080fd5b50336000806101000a81548173ffffffffffffffffffffffffffffffffffffffff021916908373ffffffffffffffffffffffffffffffffffffffff160217905550610865806100606000396000f30060806040526004361061008e576000357c0100000000000000000000000000000000000000000000000000000000900463ffffffff1680633af32abf14610093578063715018a6146100ee5780638ab1d681146101055780638c10671c146101485780638da5cb5b146101ae5780639b19251a14610205578063e43252d714610260578063f2fde38b146102a3575b600080fd5b34801561009f57600080fd5b506100d4600480360381019080803573ffffffffffffffffffffffffffffffffffffffff1690602001909291905050506102e6565b604051808215151515815260200191505060405180910390f35b3480156100fa57600080fd5b5061010361033c565b005b34801561011157600080fd5b50610146600480360381019080803573ffffffffffffffffffffffffffffffffffffffff16906020019092919050505061043e565b005b34801561015457600080fd5b506101ac600480360381019080803590602001908201803590602001908080602002602001604051908101604052809392919081815260200183836020028082843782019150505050505091929192905050506104f4565b005b3480156101ba57600080fd5b506101c36105de565b604051808273ffffffffffffffffffffffffffffffffffffffff1673ffffffffffffffffffffffffffffffffffffffff16815260200191505060405180910390f35b34801561021157600080fd5b50610246600480360381019080803573ffffffffffffffffffffffffffffffffffffffff169060200190929190505050610603565b604051808215151515815260200191505060405180910390f35b34801561026c57600080fd5b506102a1600480360381019080803573ffffffffffffffffffffffffffffffffffffffff169060200190929190505050610623565b005b3480156102af57600080fd5b506102e4600480360381019080803573ffffffffffffffffffffffffffffffffffffffff1690602001909291905050506106d8565b005b6000600160008373ffffffffffffffffffffffffffffffffffffffff1673ffffffffffffffffffffffffffffffffffffffff16815260200190815260200160002060009054906101000a900460ff169050919050565b6000809054906101000a900473ffffffffffffffffffffffffffffffffffffffff1673ffffffffffffffffffffffffffffffffffffffff163373ffffffffffffffffffffffffffffffffffffffff1614151561039757600080fd5b6000809054906101000a900473ffffffffffffffffffffffffffffffffffffffff1673ffffffffffffffffffffffffffffffffffffffff167ff8df31144d9c2f0f6b59d69b8b98abd5459d07f2742c4df920b25aae33c6482060405160405180910390a260008060006101000a81548173ffffffffffffffffffffffffffffffffffffffff021916908373ffffffffffffffffffffffffffffffffffffffff160217905550565b6000809054906101000a900473ffffffffffffffffffffffffffffffffffffffff1673ffffffffffffffffffffffffffffffffffffffff163373ffffffffffffffffffffffffffffffffffffffff1614151561049957600080fd5b6000600160008373ffffffffffffffffffffffffffffffffffffffff1673ffffffffffffffffffffffffffffffffffffffff16815260200190815260200160002060006101000a81548160ff02191690831515021790555050565b60008060009054906101000a900473ffffffffffffffffffffffffffffffffffffffff1673ffffffffffffffffffffffffffffffffffffffff163373ffffffffffffffffffffffffffffffffffffffff1614151561055157600080fd5b600090505b81518110156105da576001806000848481518110151561057257fe5b9060200190602002015173ffffffffffffffffffffffffffffffffffffffff1673ffffffffffffffffffffffffffffffffffffffff16815260200190815260200160002060006101000a81548160ff0219169083151502179055508080600101915050610556565b5050565b6000809054906101000a900473ffffffffffffffffffffffffffffffffffffffff1681565b60016020528060005260406000206000915054906101000a900460ff1681565b6000809054906101000a900473ffffffffffffffffffffffffffffffffffffffff1673ffffffffffffffffffffffffffffffffffffffff163373ffffffffffffffffffffffffffffffffffffffff1614151561067e57600080fd5b60018060008373ffffffffffffffffffffffffffffffffffffffff1673ffffffffffffffffffffffffffffffffffffffff16815260200190815260200160002060006101000a81548160ff02191690831515021790555050565b6000809054906101000a900473ffffffffffffffffffffffffffffffffffffffff1673ffffffffffffffffffffffffffffffffffffffff163373ffffffffffffffffffffffffffffffffffffffff1614151561073357600080fd5b61073c8161073f565b50565b600073ffffffffffffffffffffffffffffffffffffffff168173ffffffffffffffffffffffffffffffffffffffff161415151561077b57600080fd5b8073ffffffffffffffffffffffffffffffffffffffff166000809054906101000a900473ffffffffffffffffffffffffffffffffffffffff1673ffffffffffffffffffffffffffffffffffffffff167f8be0079c531659141344cd1fd0a4f28419497f9722a3daafe3b4186f6b6457e060405160405180910390a3806000806101000a81548173ffffffffffffffffffffffffffffffffffffffff021916908373ffffffffffffffffffffffffffffffffffffffff160217905550505600a165627a7a7230582042ce58bde3cc2fd6b93f1800695f46e96dbc621f51670375a02ed8d5a83a95f0002960806040523480156200001157600080fd5b5060405160408062001ff983398101806040528101908080519060200190929190805190602001909291905050506200008f336040805190810160405280600581526020017f61646d696e000000000000000000000000000000000000000000000000000000815250620000c5640100000000026401000000009004565b4282101515156200009f57600080fd5b818110151515620000af57600080fd5b816001819055508060028190555050506200026c565b62000154826000836040518082805190602001908083835b602083101515620001045780518252602082019150602081019050602083039250620000dd565b6001836020036101000a03801982511681845116808217855250505050505090500191505090815260200160405180910390206200020e6401000000000262001cf3179091906401000000009004565b8173ffffffffffffffffffffffffffffffffffffffff167fbfec83d64eaa953f2708271a023ab9ee82057f8f3578d548c1a4ba0b5b700489826040518080602001828103825283818151815260200191508051906020019080838360005b83811015620001cf578082015181840152602081019050620001b2565b50505050905090810190601f168015620001fd5780820380516001836020036101000a031916815260200191505b509250505060405180910390a25050565b60018260000160008373ffffffffffffffffffffffffffffffffffffffff1673ffffffffffffffffffffffffffffffffffffffff16815260200190815260200160002060006101000a81548160ff0219169083151502179055505050565b611d7d806200027c6000396000f30060806040526004361061011d576000357c0100000000000000000000000000000000000000000000000000000000900463ffffffff1680630988ca8c14610122578063217fe6c6146101ab5780633453cba91461024c5780635192c9ea1461027b5780635b4df1ca146102d257806365937717146103625780636a5ea8d9146103f157806388cee87e1461043e5780639e1f1260146104c7578063a4d4a09414610556578063b25fa92c146105c5578063b3ecf2361461064e578063b706568f146106de578063be1fd0381461076d578063c2b6b58c146107dc578063d06baae41461080b578063d391014b1461083a578063db9e4b8f146108ca578063e6ada8c714610921578063e71e144c146109b0578063efe9dcb7146109fd575b600080fd5b34801561012e57600080fd5b506101a9600480360381019080803573ffffffffffffffffffffffffffffffffffffffff169060200190929190803590602001908201803590602001908080601f0160208091040260200160405190810160405280939291908181526020018383808284378201915050505050509192919290505050610a8d565b005b3480156101b757600080fd5b50610232600480360381019080803573ffffffffffffffffffffffffffffffffffffffff169060200190929190803590602001908201803590602001908080601f0160208091040260200160405190810160405280939291908181526020018383808284378201915050505050509192919290505050610b0e565b604051808215151515815260200191505060405180910390f35b34801561025857600080fd5b50610261610b95565b604051808215151515815260200191505060405180910390f35b34801561028757600080fd5b506102d060048036038101908080359060200190929190803573ffffffffffffffffffffffffffffffffffffffff16906020019092919080359060200190929190505050610bbd565b005b3480156102de57600080fd5b506102e7610c20565b6040518080602001828103825283818151815260200191508051906020019080838360005b8381101561032757808201518184015260208101905061030c565b50505050905090810190601f1680156103545780820380516001836020036101000a031916815260200191505b509250505060405180910390f35b34801561036e57600080fd5b506103d7600480360381019080803573ffffffffffffffffffffffffffffffffffffffff16906020019092919080359060200190929190803573ffffffffffffffffffffffffffffffffffffffff16906020019092919080359060200190929190505050610c59565b604051808215151515815260200191505060405180910390f35b3480156103fd57600080fd5b5061043c60048036038101908080359060200190929190803573ffffffffffffffffffffffffffffffffffffffff169060200190929190505050610d12565b005b34801561044a57600080fd5b506104c5600480360381019080803573ffffffffffffffffffffffffffffffffffffffff169060200190929190803590602001908201803590602001908080601f0160208091040260200160405190810160405280939291908181526020018383808284378201915050505050509192919290505050610d6c565b005b3480156104d357600080fd5b5061053c600480360381019080803573ffffffffffffffffffffffffffffffffffffffff16906020019092919080359060200190929190803573ffffffffffffffffffffffffffffffffffffffff16906020019092919080359060200190929190505050610db9565b604051808215151515815260200191505060405180910390f35b34801561056257600080fd5b506105ab60048036038101908080359060200190929190803573ffffffffffffffffffffffffffffffffffffffff16906020019092919080359060200190929190505050610e2c565b604051808215151515815260200191505060405180910390f35b3480156105d157600080fd5b5061064c600480360381019080803573ffffffffffffffffffffffffffffffffffffffff169060200190929190803590602001908201803590602001908080601f0160208091040260200160405190810160405280939291908181526020018383808284378201915050505050509192919290505050611002565b005b34801561065a57600080fd5b5061066361104f565b6040518080602001828103825283818151815260200191508051906020019080838360005b838110156106a3578082015181840152602081019050610688565b50505050905090810190601f1680156106d05780820380516001836020036101000a031916815260200191505b509250505060405180910390f35b3480156106ea57600080fd5b50610753600480360381019080803573ffffffffffffffffffffffffffffffffffffffff16906020019092919080359060200190929190803573ffffffffffffffffffffffffffffffffffffffff1690602001909291908035906020019092919050505061108c565b604051808215151515815260200191505060405180910390f35b34801561077957600080fd5b506107c260048036038101908080359060200190929190803573ffffffffffffffffffffffffffffffffffffffff169060200190929190803590602001909291905050506110a4565b604051808215151515815260200191505060405180910390f35b3480156107e857600080fd5b506107f161130b565b604051808215151515815260200191505060405180910390f35b34801561081757600080fd5b50610820611324565b604051808215151515815260200191505060405180910390f35b34801561084657600080fd5b5061084f61136c565b6040518080602001828103825283818151815260200191508051906020019080838360005b8381101561088f578082015181840152602081019050610874565b50505050905090810190601f1680156108bc5780820380516001836020036101000a031916815260200191505b509250505060405180910390f35b3480156108d657600080fd5b5061091f60048036038101908080359060200190929190803573ffffffffffffffffffffffffffffffffffffffff169060200190929190803590602001909291905050506113a5565b005b34801561092d57600080fd5b50610996600480360381019080803573ffffffffffffffffffffffffffffffffffffffff16906020019092919080359060200190929190803573ffffffffffffffffffffffffffffffffffffffff16906020019092919080359060200190929190505050611408565b604051808215151515815260200191505060405180910390f35b3480156109bc57600080fd5b506109fb60048036038101908080359060200190929190803573ffffffffffffffffffffffffffffffffffffffff1690602001909291905050506114c1565b005b348015610a0957600080fd5b50610a1261151b565b6040518080602001828103825283818151815260200191508051906020019080838360005b83811015610a52578082015181840152602081019050610a37565b50505050905090810190601f168015610a7f5780820380516001836020036101000a031916815260200191505b509250505060405180910390f35b610b0a826000836040518082805190602001908083835b602083101515610ac95780518252602082019150602081019050602083039250610aa4565b6001836020036101000a038019825116818451168082178552505050505050905001915050908152602001604051809103902061155890919063ffffffff16565b5050565b6000610b8d836000846040518082805190602001908083835b602083101515610b4c5780518252602082019150602081019050602083039250610b27565b6001836020036101000a038019825116818451168082178552505050505050905001915050908152602001604051809103902061157190919063ffffffff16565b905092915050565b60006001544210158015610bab57506002544211155b1515610bb657600080fd5b6001905090565b806003600085815260200190815260200160002060008473ffffffffffffffffffffffffffffffffffffffff1673ffffffffffffffffffffffffffffffffffffffff16815260200190815260200160002060008282540192505081905550505050565b6040805190810160405280600a81526020017f636f6e74726f6c6c65720000000000000000000000000000000000000000000081525081565b60006040805190810160405280600a81526020017f636f6e74726f6c6c657200000000000000000000000000000000000000000000815250610c9b3382610a8d565b60011515610ca761130b565b1515141515610cb557600080fd5b610cc1868686866115ca565b503073ffffffffffffffffffffffffffffffffffffffff167fd5669ebe8b90ed693033f1915dcea031e7a16a6f146a8326c02eec10eed77edd60405160405180910390a26001915050949350505050565b60016003600084815260200190815260200160002060008373ffffffffffffffffffffffffffffffffffffffff1673ffffffffffffffffffffffffffffffffffffffff168152602001908152602001600020819055505050565b610dab336040805190810160405280600581526020017f61646d696e000000000000000000000000000000000000000000000000000000815250610a8d565b610db58282611799565b5050565b60006040805190810160405280600a81526020017f636f6e74726f6c6c657200000000000000000000000000000000000000000000815250610dfb3382610a8d565b60011515610e07610b95565b1515141515610e1557600080fd5b610e21868686866118cd565b915050949350505050565b600060011515610e3a610b95565b1515141515610e4857600080fd5b8273ffffffffffffffffffffffffffffffffffffffff1660405180807f7472616e7366657246726f6d28616464726573732c616464726573732c75696e81526020017f7432353629000000000000000000000000000000000000000000000000000000815250602501905060405180910390207c010000000000000000000000000000000000000000000000000000000090043330856040518463ffffffff167c0100000000000000000000000000000000000000000000000000000000028152600401808473ffffffffffffffffffffffffffffffffffffffff1673ffffffffffffffffffffffffffffffffffffffff1681526020018373ffffffffffffffffffffffffffffffffffffffff1673ffffffffffffffffffffffffffffffffffffffff16815260200182815260200193505050506000604051808303816000875af1925050501515610f9957600080fd5b816003600086815260200190815260200160002060008573ffffffffffffffffffffffffffffffffffffffff1673ffffffffffffffffffffffffffffffffffffffff16815260200190815260200160002060008282540192505081905550600190509392505050565b611041336040805190810160405280600581526020017f61646d696e000000000000000000000000000000000000000000000000000000815250610a8d565b61104b8282611b61565b5050565b60606040805190810160405280600581526020017f61646d696e000000000000000000000000000000000000000000000000000000815250905090565b600061109a858585856115ca565b9050949350505050565b600080600115156110b3610b95565b15151415156110c157600080fd5b8373ffffffffffffffffffffffffffffffffffffffff1660405180807f7472616e7366657246726f6d28616464726573732c616464726573732c75696e81526020017f7432353629000000000000000000000000000000000000000000000000000000815250602501905060405180910390207c0100000000000000000000000000000000000000000000000000000000900433856040518363ffffffff167c0100000000000000000000000000000000000000000000000000000000028152600401808373ffffffffffffffffffffffffffffffffffffffff1673ffffffffffffffffffffffffffffffffffffffff168152602001828152602001925050506000604051808303816000875af19250505015156111de57600080fd5b8383604051602001808373ffffffffffffffffffffffffffffffffffffffff1673ffffffffffffffffffffffffffffffffffffffff166c01000000000000000000000000028152601401828152602001925050506040516020818303038152906040526040518082805190602001908083835b6020831015156112765780518252602082019150602081019050602083039250611251565b6001836020036101000a038019825116818451168082178552505050505050905001915050604051809103902060019004905060016003600087815260200190815260200160002060008373ffffffffffffffffffffffffffffffffffffffff1673ffffffffffffffffffffffffffffffffffffffff1681526020019081526020016000208190555060019150509392505050565b60006002544211151561131d57600080fd5b6001905090565b6000611365336040805190810160405280600a81526020017f636f6e74726f6c6c657200000000000000000000000000000000000000000000815250610a8d565b6001905090565b6040805190810160405280600581526020017f61646d696e00000000000000000000000000000000000000000000000000000081525081565b806003600085815260200190815260200160002060008473ffffffffffffffffffffffffffffffffffffffff1673ffffffffffffffffffffffffffffffffffffffff16815260200190815260200160002060008282540392505081905550505050565b60006040805190810160405280600a81526020017f636f6e74726f6c6c65720000000000000000000000000000000000000000000081525061144a3382610a8d565b6001151561145661130b565b151514151561146457600080fd5b611470868686866118cd565b503073ffffffffffffffffffffffffffffffffffffffff167fd5669ebe8b90ed693033f1915dcea031e7a16a6f146a8326c02eec10eed77edd60405160405180910390a26001915050949350505050565b60006003600084815260200190815260200160002060008373ffffffffffffffffffffffffffffffffffffffff1673ffffffffffffffffffffffffffffffffffffffff168152602001908152602001600020819055505050565b60606040805190810160405280600a81526020017f636f6e74726f6c6c657200000000000000000000000000000000000000000000815250905090565b6115628282611571565b151561156d57600080fd5b5050565b60008260000160008373ffffffffffffffffffffffffffffffffffffffff1673ffffffffffffffffffffffffffffffffffffffff16815260200190815260200160002060009054906101000a900460ff16905092915050565b60008273ffffffffffffffffffffffffffffffffffffffff1660405160200180807f7472616e7366657228616464726573732c75696e74323536290000000000000081525060190190506040516020818303038152906040526040518082805190602001908083835b6020831015156116585780518252602082019150602081019050602083039250611633565b6001836020036101000a03801982511681845116808217855250505050505090500191505060405180910390207c0100000000000000000000000000000000000000000000000000000000900486846040518363ffffffff167c0100000000000000000000000000000000000000000000000000000000028152600401808373ffffffffffffffffffffffffffffffffffffffff1673ffffffffffffffffffffffffffffffffffffffff168152602001828152602001925050506000604051808303816000875af192505050151561172f57600080fd5b816003600086815260200190815260200160002060008573ffffffffffffffffffffffffffffffffffffffff1673ffffffffffffffffffffffffffffffffffffffff1681526020019081526020016000206000828254039250508190555060019050949350505050565b611816826000836040518082805190602001908083835b6020831015156117d557805182526020820191506020810190506020830392506117b0565b6001836020036101000a0380198251168184511680821785525050505050509050019150509081526020016040518091039020611c9590919063ffffffff16565b8173ffffffffffffffffffffffffffffffffffffffff167fd211483f91fc6eff862467f8de606587a30c8fc9981056f051b897a418df803a826040518080602001828103825283818151815260200191508051906020019080838360005b8381101561188f578082015181840152602081019050611874565b50505050905090810190601f1680156118bc5780820380516001836020036101000a031916815260200191505b509250505060405180910390a25050565b6000808383604051602001808373ffffffffffffffffffffffffffffffffffffffff1673ffffffffffffffffffffffffffffffffffffffff166c01000000000000000000000000028152601401828152602001925050506040516020818303038152906040526040518082805190602001908083835b6020831015156119685780518252602082019150602081019050602083039250611943565b6001836020036101000a03801982511681845116808217855250505050505090500191505060405180910390206001900490508373ffffffffffffffffffffffffffffffffffffffff1660405160200180807f7472616e7366657228616464726573732c75696e74323536290000000000000081525060190190506040516020818303038152906040526040518082805190602001908083835b602083101515611a275780518252602082019150602081019050602083039250611a02565b6001836020036101000a03801982511681845116808217855250505050505090500191505060405180910390207c0100000000000000000000000000000000000000000000000000000000900487856040518363ffffffff167c0100000000000000000000000000000000000000000000000000000000028152600401808373ffffffffffffffffffffffffffffffffffffffff1673ffffffffffffffffffffffffffffffffffffffff168152602001828152602001925050506000604051808303816000875af1925050501515611afe57600080fd5b60006003600087815260200190815260200160002060008373ffffffffffffffffffffffffffffffffffffffff1673ffffffffffffffffffffffffffffffffffffffff168152602001908152602001600020819055506001915050949350505050565b611bde826000836040518082805190602001908083835b602083101515611b9d5780518252602082019150602081019050602083039250611b78565b6001836020036101000a0380198251168184511680821785525050505050509050019150509081526020016040518091039020611cf390919063ffffffff16565b8173ffffffffffffffffffffffffffffffffffffffff167fbfec83d64eaa953f2708271a023ab9ee82057f8f3578d548c1a4ba0b5b700489826040518080602001828103825283818151815260200191508051906020019080838360005b83811015611c57578082015181840152602081019050611c3c565b50505050905090810190601f168015611c845780820380516001836020036101000a031916815260200191505b509250505060405180910390a25050565b60008260000160008373ffffffffffffffffffffffffffffffffffffffff1673ffffffffffffffffffffffffffffffffffffffff16815260200190815260200160002060006101000a81548160ff0219169083151502179055505050565b60018260000160008373ffffffffffffffffffffffffffffffffffffffff1673ffffffffffffffffffffffffffffffffffffffff16815260200190815260200160002060006101000a81548160ff02191690831515021790555050505600a165627a7a723058206a47f23bbd2fdbbef00d787d162ade498576106730cb9f34a4987882132803390029",
  "source": "pragma solidity ^0.4.24;\n\nimport \"./TwoKeyCampaignInventory.sol\";\nimport \"./TwoKeyWhitelisted.sol\";\nimport \"./TwoKeyCampaign.sol\";\nimport \"./TwoKeyCampaign.sol\";\nimport \"./TwoKeyEventSource.sol\";\nimport \"./TwoKeyEconomy.sol\";\n\n\ncontract TwoKeyCampaignFactory {\n\n    TwoKeyWhitelisted whitelistInfluencer;\n    TwoKeyWhitelisted whitelistConverter;\n    TwoKeyCampaignInventory twoKeyCampaignInventory;\n\n    constructor (uint openingTime, uint closingTime) public {\n        whitelistInfluencer = new TwoKeyWhitelisted();\n        whitelistConverter = new TwoKeyWhitelisted();\n        twoKeyCampaignInventory = new TwoKeyCampaignInventory(openingTime, closingTime);\n    }\n\n\n    function getAddresses() public view returns (address, address, address) {\n        return (address(whitelistInfluencer), address(whitelistConverter), address(twoKeyCampaignInventory));\n    }\n\n\n}\n",
  "sourcePath": "/Users/nikolamadjarevic/Desktop/2key/contracts/contracts/2key/TwoKeyCampaignFactory.sol",
  "compiler": {
    "name": "solc",
    "version": "0.4.24+commit.e67f0147.Emscripten.clang"
  },
  "schemaVersion": "2.0.1",
  "updatedAt": "2018-08-30T08:40:22.788Z"
}