{
  "contractName": "TwoKeyCampaign",
  "abi": [
    {
      "constant": false,
      "inputs": [
        {
          "name": "_spender",
          "type": "address"
        },
        {
          "name": "_value",
          "type": "uint256"
        }
      ],
      "name": "approve",
      "outputs": [
        {
          "name": "",
          "type": "bool"
        }
      ],
      "payable": false,
      "stateMutability": "nonpayable",
      "type": "function"
    },
    {
      "constant": true,
      "inputs": [
        {
          "name": "_operator",
          "type": "address"
        },
        {
          "name": "_role",
          "type": "string"
        }
      ],
      "name": "checkRole",
      "outputs": [],
      "payable": false,
      "stateMutability": "view",
      "type": "function"
    },
    {
      "constant": false,
      "inputs": [
        {
          "name": "_to",
          "type": "address"
        },
        {
          "name": "_value",
          "type": "uint256"
        }
      ],
      "name": "transferQuota",
      "outputs": [
        {
          "name": "",
          "type": "bool"
        }
      ],
      "payable": false,
      "stateMutability": "nonpayable",
      "type": "function"
    },
    {
      "constant": true,
      "inputs": [],
      "name": "totalSupply",
      "outputs": [
        {
          "name": "",
          "type": "uint256"
        }
      ],
      "payable": false,
      "stateMutability": "view",
      "type": "function"
    },
    {
      "constant": true,
      "inputs": [
        {
          "name": "_operator",
          "type": "address"
        },
        {
          "name": "_role",
          "type": "string"
        }
      ],
      "name": "hasRole",
      "outputs": [
        {
          "name": "",
          "type": "bool"
        }
      ],
      "payable": false,
      "stateMutability": "view",
      "type": "function"
    },
    {
      "constant": false,
      "inputs": [
        {
          "name": "_from",
          "type": "address"
        },
        {
          "name": "_to",
          "type": "address"
        },
        {
          "name": "_value",
          "type": "uint256"
        }
      ],
      "name": "transferFrom",
      "outputs": [
        {
          "name": "",
          "type": "bool"
        }
      ],
      "payable": false,
      "stateMutability": "nonpayable",
      "type": "function"
    },
    {
      "constant": true,
      "inputs": [
        {
          "name": "",
          "type": "address"
        }
      ],
      "name": "received_from",
      "outputs": [
        {
          "name": "",
          "type": "address"
        }
      ],
      "payable": false,
      "stateMutability": "view",
      "type": "function"
    },
    {
      "constant": false,
      "inputs": [
        {
          "name": "_from",
          "type": "address"
        },
        {
          "name": "_to",
          "type": "address"
        },
        {
          "name": "_value",
          "type": "uint256"
        }
      ],
      "name": "transferFromQuota",
      "outputs": [
        {
          "name": "",
          "type": "bool"
        }
      ],
      "payable": false,
      "stateMutability": "nonpayable",
      "type": "function"
    },
    {
      "constant": true,
      "inputs": [],
      "name": "ROLE_CONTROLLER",
      "outputs": [
        {
          "name": "",
          "type": "string"
        }
      ],
      "payable": false,
      "stateMutability": "view",
      "type": "function"
    },
    {
      "constant": false,
      "inputs": [
        {
          "name": "_from",
          "type": "address"
        },
        {
          "name": "_maxReward",
          "type": "uint256"
        }
      ],
      "name": "transferRewardsTwoKeyToken",
      "outputs": [],
      "payable": false,
      "stateMutability": "nonpayable",
      "type": "function"
    },
    {
      "constant": false,
      "inputs": [
        {
          "name": "_to",
          "type": "address"
        },
        {
          "name": "_tokenID",
          "type": "uint256"
        },
        {
          "name": "_assetContract",
          "type": "address"
        },
        {
          "name": "_amount",
          "type": "uint256"
        }
      ],
      "name": "expireFungible",
      "outputs": [
        {
          "name": "",
          "type": "bool"
        }
      ],
      "payable": false,
      "stateMutability": "nonpayable",
      "type": "function"
    },
    {
      "constant": false,
      "inputs": [
        {
          "name": "_spender",
          "type": "address"
        },
        {
          "name": "_subtractedValue",
          "type": "uint256"
        }
      ],
      "name": "decreaseApproval",
      "outputs": [
        {
          "name": "",
          "type": "bool"
        }
      ],
      "payable": false,
      "stateMutability": "nonpayable",
      "type": "function"
    },
    {
      "constant": true,
      "inputs": [
        {
          "name": "_owner",
          "type": "address"
        }
      ],
      "name": "balanceOf",
      "outputs": [
        {
          "name": "",
          "type": "uint256"
        }
      ],
      "payable": false,
      "stateMutability": "view",
      "type": "function"
    },
    {
      "constant": false,
      "inputs": [
        {
          "name": "addr",
          "type": "address"
        },
        {
          "name": "roleName",
          "type": "string"
        }
      ],
      "name": "adminRemoveRole",
      "outputs": [],
      "payable": false,
      "stateMutability": "nonpayable",
      "type": "function"
    },
    {
      "constant": false,
      "inputs": [
        {
          "name": "_tokenID",
          "type": "uint256"
        },
        {
          "name": "_assetContract",
          "type": "address"
        },
        {
          "name": "_amount",
          "type": "uint256"
        }
      ],
      "name": "addFungibleAsset",
      "outputs": [
        {
          "name": "",
          "type": "bool"
        }
      ],
      "payable": false,
      "stateMutability": "nonpayable",
      "type": "function"
    },
    {
      "constant": false,
      "inputs": [
        {
          "name": "_to",
          "type": "address"
        },
        {
          "name": "_value",
          "type": "uint256"
        }
      ],
      "name": "transfer",
      "outputs": [
        {
          "name": "",
          "type": "bool"
        }
      ],
      "payable": false,
      "stateMutability": "nonpayable",
      "type": "function"
    },
    {
      "constant": false,
      "inputs": [
        {
          "name": "addr",
          "type": "address"
        },
        {
          "name": "roleName",
          "type": "string"
        }
      ],
      "name": "adminAddRole",
      "outputs": [],
      "payable": false,
      "stateMutability": "nonpayable",
      "type": "function"
    },
    {
      "constant": false,
      "inputs": [
        {
          "name": "_to",
          "type": "address"
        },
        {
          "name": "_tokenID",
          "type": "uint256"
        },
        {
          "name": "_assetContract",
          "type": "address"
        },
        {
          "name": "_amount",
          "type": "uint256"
        }
      ],
      "name": "transferFungibleAsset",
      "outputs": [
        {
          "name": "",
          "type": "bool"
        }
      ],
      "payable": false,
      "stateMutability": "nonpayable",
      "type": "function"
    },
    {
      "constant": false,
      "inputs": [
        {
          "name": "_tokenID",
          "type": "uint256"
        },
        {
          "name": "_assetContract",
          "type": "address"
        },
        {
          "name": "_index",
          "type": "uint256"
        }
      ],
      "name": "addNonFungibleAsset",
      "outputs": [
        {
          "name": "",
          "type": "bool"
        }
      ],
      "payable": false,
      "stateMutability": "nonpayable",
      "type": "function"
    },
    {
      "constant": true,
      "inputs": [],
      "name": "quota",
      "outputs": [
        {
          "name": "",
          "type": "uint256"
        }
      ],
      "payable": false,
      "stateMutability": "view",
      "type": "function"
    },
    {
      "constant": true,
      "inputs": [],
      "name": "ROLE_ADMIN",
      "outputs": [
        {
          "name": "",
          "type": "string"
        }
      ],
      "payable": false,
      "stateMutability": "view",
      "type": "function"
    },
    {
      "constant": false,
      "inputs": [
        {
          "name": "_spender",
          "type": "address"
        },
        {
          "name": "_addedValue",
          "type": "uint256"
        }
      ],
      "name": "increaseApproval",
      "outputs": [
        {
          "name": "",
          "type": "bool"
        }
      ],
      "payable": false,
      "stateMutability": "nonpayable",
      "type": "function"
    },
    {
      "constant": true,
      "inputs": [
        {
          "name": "_owner",
          "type": "address"
        },
        {
          "name": "_spender",
          "type": "address"
        }
      ],
      "name": "allowance",
      "outputs": [
        {
          "name": "",
          "type": "uint256"
        }
      ],
      "payable": false,
      "stateMutability": "view",
      "type": "function"
    },
    {
      "constant": true,
      "inputs": [
        {
          "name": "",
          "type": "address"
        }
      ],
      "name": "conversions",
      "outputs": [
        {
          "name": "from",
          "type": "address"
        },
        {
          "name": "payout",
          "type": "uint256"
        },
        {
          "name": "converter",
          "type": "address"
        },
        {
          "name": "isFulfilled",
          "type": "bool"
        },
        {
          "name": "isCancelled",
          "type": "bool"
        },
        {
          "name": "tokenID",
          "type": "uint256"
        },
        {
          "name": "assetContract",
          "type": "address"
        },
        {
          "name": "indexOrAmount",
          "type": "uint256"
        },
        {
          "name": "campaignType",
          "type": "uint8"
        },
        {
          "name": "openingTime",
          "type": "uint256"
        },
        {
          "name": "closingTime",
          "type": "uint256"
        }
      ],
      "payable": false,
      "stateMutability": "view",
      "type": "function"
    },
    {
      "constant": false,
      "inputs": [
        {
          "name": "_to",
          "type": "address"
        },
        {
          "name": "_tokenID",
          "type": "uint256"
        },
        {
          "name": "_assetContract",
          "type": "address"
        },
        {
          "name": "_assetTokenID",
          "type": "uint256"
        }
      ],
      "name": "expireNonFungible",
      "outputs": [
        {
          "name": "",
          "type": "bool"
        }
      ],
      "payable": false,
      "stateMutability": "nonpayable",
      "type": "function"
    },
    {
      "inputs": [
        {
          "name": "_eventSource",
          "type": "address"
        },
        {
          "name": "_economy",
          "type": "address"
        },
        {
          "name": "_whitelistInfluencer",
          "type": "address"
        },
        {
          "name": "_whitelistConverter",
          "type": "address"
        },
        {
          "name": "_contractor",
          "type": "address"
        },
        {
          "name": "_moderator",
          "type": "address"
        },
        {
          "name": "_openingTime",
          "type": "uint256"
        },
        {
          "name": "_closingTime",
          "type": "uint256"
        },
        {
          "name": "_expiryConversion",
          "type": "uint256"
        },
        {
          "name": "_escrowPercentage",
          "type": "uint256"
        },
        {
          "name": "_rate",
          "type": "uint256"
        },
        {
          "name": "_maxPi",
          "type": "uint256"
        }
      ],
      "payable": false,
      "stateMutability": "nonpayable",
      "type": "constructor"
    },
    {
      "anonymous": false,
      "inputs": [
        {
          "indexed": true,
          "name": "_contract",
          "type": "address"
        }
      ],
      "name": "Expired",
      "type": "event"
    },
    {
      "anonymous": false,
      "inputs": [
        {
          "indexed": true,
          "name": "operator",
          "type": "address"
        },
        {
          "indexed": false,
          "name": "role",
          "type": "string"
        }
      ],
      "name": "RoleAdded",
      "type": "event"
    },
    {
      "anonymous": false,
      "inputs": [
        {
          "indexed": true,
          "name": "operator",
          "type": "address"
        },
        {
          "indexed": false,
          "name": "role",
          "type": "string"
        }
      ],
      "name": "RoleRemoved",
      "type": "event"
    },
    {
      "anonymous": false,
      "inputs": [
        {
          "indexed": true,
          "name": "owner",
          "type": "address"
        },
        {
          "indexed": true,
          "name": "spender",
          "type": "address"
        },
        {
          "indexed": false,
          "name": "value",
          "type": "uint256"
        }
      ],
      "name": "Approval",
      "type": "event"
    },
    {
      "anonymous": false,
      "inputs": [
        {
          "indexed": true,
          "name": "from",
          "type": "address"
        },
        {
          "indexed": true,
          "name": "to",
          "type": "address"
        },
        {
          "indexed": false,
          "name": "value",
          "type": "uint256"
        }
      ],
      "name": "Transfer",
      "type": "event"
    },
    {
      "constant": false,
      "inputs": [],
      "name": "addAdminRolesAndBalancesAfterDeployed",
      "outputs": [],
      "payable": false,
      "stateMutability": "nonpayable",
      "type": "function"
    },
    {
      "constant": false,
      "inputs": [
        {
          "name": "_converter",
          "type": "address"
        },
        {
          "name": "_tokenID",
          "type": "uint256"
        },
        {
          "name": "_assetContract",
          "type": "address"
        },
        {
          "name": "_assetTokenIDOrAmount",
          "type": "uint256"
        },
        {
          "name": "_type",
          "type": "uint8"
        }
      ],
      "name": "expireEscrow",
      "outputs": [
        {
          "name": "",
          "type": "bool"
        }
      ],
      "payable": false,
      "stateMutability": "nonpayable",
      "type": "function"
    },
    {
      "constant": false,
      "inputs": [
        {
          "name": "_tokenID",
          "type": "uint256"
        },
        {
          "name": "_assetContract",
          "type": "address"
        },
        {
          "name": "_pricePerUnit",
          "type": "uint256"
        }
      ],
      "name": "setPriceFungible",
      "outputs": [],
      "payable": false,
      "stateMutability": "nonpayable",
      "type": "function"
    },
    {
      "constant": false,
      "inputs": [
        {
          "name": "_tokenID",
          "type": "uint256"
        },
        {
          "name": "_assetContract",
          "type": "address"
        },
        {
          "name": "_index",
          "type": "uint256"
        },
        {
          "name": "_pricePerUnit",
          "type": "uint256"
        }
      ],
      "name": "setPriceNonFungible",
      "outputs": [],
      "payable": false,
      "stateMutability": "nonpayable",
      "type": "function"
    },
    {
      "constant": false,
      "inputs": [
        {
          "name": "_amount",
          "type": "uint256"
        }
      ],
      "name": "redeemTwoKeyToken",
      "outputs": [],
      "payable": false,
      "stateMutability": "nonpayable",
      "type": "function"
    },
    {
      "constant": false,
      "inputs": [
        {
          "name": "_from",
          "type": "address"
        },
        {
          "name": "_tokenID",
          "type": "uint256"
        },
        {
          "name": "_assetContract",
          "type": "address"
        },
        {
          "name": "_amountOrIndex",
          "type": "uint256"
        },
        {
          "name": "_campaignType",
          "type": "uint8"
        }
      ],
      "name": "buyFromWithTwoKey",
      "outputs": [],
      "payable": true,
      "stateMutability": "payable",
      "type": "function"
    }
  ],
  "bytecode": "0x6080604052620f42406003553480156200001857600080fd5b506040516101808062005c7c83398101806040528101908080519060200190929190805190602001909291908051906020019092919080519060200190929190805190602001909291908051906020019092919080519060200190929190805190602001909291908051906020019092919080519060200190929190805190602001909291908051906020019092919050505085858d8a600073ffffffffffffffffffffffffffffffffffffffff168273ffffffffffffffffffffffffffffffffffffffff1614151515620000ec57600080fd5b80600660006101000a81548173ffffffffffffffffffffffffffffffffffffffff021916908373ffffffffffffffffffffffffffffffffffffffff16021790555081600560006101000a81548173ffffffffffffffffffffffffffffffffffffffff021916908373ffffffffffffffffffffffffffffffffffffffff1602179055505050620001c0336040805190810160405280600581526020017f61646d696e00000000000000000000000000000000000000000000000000000081525062000477640100000000026401000000009004565b428210151515620001d057600080fd5b818110151515620001e057600080fd5b81600a8190555080600b819055505050600073ffffffffffffffffffffffffffffffffffffffff168c73ffffffffffffffffffffffffffffffffffffffff16141515156200022d57600080fd5b600073ffffffffffffffffffffffffffffffffffffffff168b73ffffffffffffffffffffffffffffffffffffffff16141515156200026a57600080fd5b600073ffffffffffffffffffffffffffffffffffffffff168a73ffffffffffffffffffffffffffffffffffffffff1614151515620002a757600080fd5b600073ffffffffffffffffffffffffffffffffffffffff168973ffffffffffffffffffffffffffffffffffffffff1614151515620002e457600080fd5b600082111515620002f457600080fd5b6000811115156200030457600080fd5b8a600f60006101000a81548173ffffffffffffffffffffffffffffffffffffffff021916908373ffffffffffffffffffffffffffffffffffffffff16021790555089601060006101000a81548173ffffffffffffffffffffffffffffffffffffffff021916908373ffffffffffffffffffffffffffffffffffffffff16021790555088601160006101000a81548173ffffffffffffffffffffffffffffffffffffffff021916908373ffffffffffffffffffffffffffffffffffffffff16021790555087601460006101000a81548173ffffffffffffffffffffffffffffffffffffffff021916908373ffffffffffffffffffffffffffffffffffffffff16021790555086601560006101000a81548173ffffffffffffffffffffffffffffffffffffffff021916908373ffffffffffffffffffffffffffffffffffffffff160217905550836016819055508260178190555081601381905550806018819055505050505050505050505050506200061e565b62000506826009836040518082805190602001908083835b602083101515620004b657805182526020820191506020810190506020830392506200048f565b6001836020036101000a0380198251168184511680821785525050505050509050019150509081526020016040518091039020620005c06401000000000262005518179091906401000000009004565b8173ffffffffffffffffffffffffffffffffffffffff167fbfec83d64eaa953f2708271a023ab9ee82057f8f3578d548c1a4ba0b5b700489826040518080602001828103825283818151815260200191508051906020019080838360005b838110156200058157808201518184015260208101905062000564565b50505050905090810190601f168015620005af5780820380516001836020036101000a031916815260200191505b509250505060405180910390a25050565b60018260000160008373ffffffffffffffffffffffffffffffffffffffff1673ffffffffffffffffffffffffffffffffffffffff16815260200190815260200160002060006101000a81548160ff0219169083151502179055505050565b61564e806200062e6000396000f30060806040526004361061018b576000357c0100000000000000000000000000000000000000000000000000000000900463ffffffff168063095ea7b3146101905780630988ca8c146101f557806311abc0ca1461027e57806318160ddd146102e3578063217fe6c61461030e57806323b872dd146103af5780632d376e9414610434578063309ba30e146104b7578063442e97dd146105185780635b4df1ca1461059d5780635c06b5e31461062d5780635f198a101461067a5780636593771714610691578063661884631461072057806370a082311461078557806388cee87e146107dc578063a4d4a09414610865578063a603126d146108d4578063a9059cbb14610970578063ad0e27c1146109d5578063b25fa92c14610a2c578063b706568f14610ab5578063be1fd03814610b44578063cacb670814610bb3578063cebe09c914610be0578063d391014b14610c0b578063d73dd62314610c9b578063dd62ed3e14610d00578063e59f041214610d77578063e6ada8c714610eae578063f140f98d14610f3d575b600080fd5b34801561019c57600080fd5b506101db600480360381019080803573ffffffffffffffffffffffffffffffffffffffff16906020019092919080359060200190929190505050610fb4565b604051808215151515815260200191505060405180910390f35b34801561020157600080fd5b5061027c600480360381019080803573ffffffffffffffffffffffffffffffffffffffff169060200190929190803590602001908201803590602001908080601f01602080910402602001604051908101604052809392919081815260200183838082843782019150505050505091929192905050506110a6565b005b34801561028a57600080fd5b506102c9600480360381019080803573ffffffffffffffffffffffffffffffffffffffff16906020019092919080359060200190929190505050611127565b604051808215151515815260200191505060405180910390f35b3480156102ef57600080fd5b506102f861137c565b6040518082815260200191505060405180910390f35b34801561031a57600080fd5b50610395600480360381019080803573ffffffffffffffffffffffffffffffffffffffff169060200190929190803590602001908201803590602001908080601f0160208091040260200160405190810160405280939291908181526020018383808284378201915050505050509192919290505050611386565b604051808215151515815260200191505060405180910390f35b3480156103bb57600080fd5b5061041a600480360381019080803573ffffffffffffffffffffffffffffffffffffffff169060200190929190803573ffffffffffffffffffffffffffffffffffffffff1690602001909291908035906020019092919050505061140d565b604051808215151515815260200191505060405180910390f35b34801561044057600080fd5b50610475600480360381019080803573ffffffffffffffffffffffffffffffffffffffff1690602001909291905050506117af565b604051808273ffffffffffffffffffffffffffffffffffffffff1673ffffffffffffffffffffffffffffffffffffffff16815260200191505060405180910390f35b3480156104c357600080fd5b5061051660048036038101908080359060200190929190803573ffffffffffffffffffffffffffffffffffffffff16906020019092919080359060200190929190803590602001909291905050506117e2565b005b34801561052457600080fd5b50610583600480360381019080803573ffffffffffffffffffffffffffffffffffffffff169060200190929190803573ffffffffffffffffffffffffffffffffffffffff1690602001909291908035906020019092919050505061194c565b604051808215151515815260200191505060405180910390f35b3480156105a957600080fd5b506105b2611d3c565b6040518080602001828103825283818151815260200191508051906020019080838360005b838110156105f25780820151818401526020810190506105d7565b50505050905090810190601f16801561061f5780820380516001836020036101000a031916815260200191505b509250505060405180910390f35b34801561063957600080fd5b50610678600480360381019080803573ffffffffffffffffffffffffffffffffffffffff16906020019092919080359060200190929190505050611d75565b005b34801561068657600080fd5b5061068f6121bf565b005b34801561069d57600080fd5b50610706600480360381019080803573ffffffffffffffffffffffffffffffffffffffff16906020019092919080359060200190929190803573ffffffffffffffffffffffffffffffffffffffff16906020019092919080359060200190929190505050612307565b604051808215151515815260200191505060405180910390f35b34801561072c57600080fd5b5061076b600480360381019080803573ffffffffffffffffffffffffffffffffffffffff169060200190929190803590602001909291905050506123b6565b604051808215151515815260200191505060405180910390f35b34801561079157600080fd5b506107c6600480360381019080803573ffffffffffffffffffffffffffffffffffffffff169060200190929190505050612648565b6040518082815260200191505060405180910390f35b3480156107e857600080fd5b50610863600480360381019080803573ffffffffffffffffffffffffffffffffffffffff169060200190929190803590602001908201803590602001908080601f0160208091040260200160405190810160405280939291908181526020018383808284378201915050505050509192919290505050612690565b005b34801561087157600080fd5b506108ba60048036038101908080359060200190929190803573ffffffffffffffffffffffffffffffffffffffff169060200190929190803590602001909291905050506126dd565b604051808215151515815260200191505060405180910390f35b3480156108e057600080fd5b50610956600480360381019080803573ffffffffffffffffffffffffffffffffffffffff16906020019092919080359060200190929190803573ffffffffffffffffffffffffffffffffffffffff16906020019092919080359060200190929190803560ff1690602001909291905050506128b8565b604051808215151515815260200191505060405180910390f35b34801561097c57600080fd5b506109bb600480360381019080803573ffffffffffffffffffffffffffffffffffffffff16906020019092919080359060200190929190505050612b89565b604051808215151515815260200191505060405180910390f35b3480156109e157600080fd5b50610a2a60048036038101908080359060200190929190803573ffffffffffffffffffffffffffffffffffffffff16906020019092919080359060200190929190505050612e6b565b005b348015610a3857600080fd5b50610ab3600480360381019080803573ffffffffffffffffffffffffffffffffffffffff169060200190929190803590602001908201803590602001908080601f0160208091040260200160405190810160405280939291908181526020018383808284378201915050505050509192919290505050612f06565b005b348015610ac157600080fd5b50610b2a600480360381019080803573ffffffffffffffffffffffffffffffffffffffff16906020019092919080359060200190929190803573ffffffffffffffffffffffffffffffffffffffff16906020019092919080359060200190929190505050612f53565b604051808215151515815260200191505060405180910390f35b348015610b5057600080fd5b50610b9960048036038101908080359060200190929190803573ffffffffffffffffffffffffffffffffffffffff16906020019092919080359060200190929190505050612f6b565b604051808215151515815260200191505060405180910390f35b348015610bbf57600080fd5b50610bde600480360381019080803590602001909291905050506131d7565b005b348015610bec57600080fd5b50610bf56133fe565b6040518082815260200191505060405180910390f35b348015610c1757600080fd5b50610c20613404565b6040518080602001828103825283818151815260200191508051906020019080838360005b83811015610c60578082015181840152602081019050610c45565b50505050905090810190601f168015610c8d5780820380516001836020036101000a031916815260200191505b509250505060405180910390f35b348015610ca757600080fd5b50610ce6600480360381019080803573ffffffffffffffffffffffffffffffffffffffff1690602001909291908035906020019092919050505061343d565b604051808215151515815260200191505060405180910390f35b348015610d0c57600080fd5b50610d61600480360381019080803573ffffffffffffffffffffffffffffffffffffffff169060200190929190803573ffffffffffffffffffffffffffffffffffffffff169060200190929190505050613639565b6040518082815260200191505060405180910390f35b348015610d8357600080fd5b50610db8600480360381019080803573ffffffffffffffffffffffffffffffffffffffff1690602001909291905050506136c0565b604051808c73ffffffffffffffffffffffffffffffffffffffff1673ffffffffffffffffffffffffffffffffffffffff1681526020018b81526020018a73ffffffffffffffffffffffffffffffffffffffff1673ffffffffffffffffffffffffffffffffffffffff16815260200189151515158152602001881515151581526020018781526020018673ffffffffffffffffffffffffffffffffffffffff1673ffffffffffffffffffffffffffffffffffffffff168152602001858152602001846003811115610e8457fe5b60ff1681526020018381526020018281526020019b50505050505050505050505060405180910390f35b348015610eba57600080fd5b50610f23600480360381019080803573ffffffffffffffffffffffffffffffffffffffff16906020019092919080359060200190929190803573ffffffffffffffffffffffffffffffffffffffff169060200190929190803590602001909291905050506137a1565b604051808215151515815260200191505060405180910390f35b610fb2600480360381019080803573ffffffffffffffffffffffffffffffffffffffff16906020019092919080359060200190929190803573ffffffffffffffffffffffffffffffffffffffff16906020019092919080359060200190929190803560ff169060200190929190505050613850565b005b600081600260003373ffffffffffffffffffffffffffffffffffffffff1673ffffffffffffffffffffffffffffffffffffffff16815260200190815260200160002060008573ffffffffffffffffffffffffffffffffffffffff1673ffffffffffffffffffffffffffffffffffffffff168152602001908152602001600020819055508273ffffffffffffffffffffffffffffffffffffffff163373ffffffffffffffffffffffffffffffffffffffff167f8c5be1e5ebec7d5bd14f71427d1e84f3dd0314c0f7b2291e5b200ac8c7c3b925846040518082815260200191505060405180910390a36001905092915050565b611123826009836040518082805190602001908083835b6020831015156110e257805182526020820191506020810190506020830392506110bd565b6001836020036101000a03801982511681845116808217855250505050505090500191505090815260200160405180910390206138b490919063ffffffff16565b5050565b60008073ffffffffffffffffffffffffffffffffffffffff168373ffffffffffffffffffffffffffffffffffffffff161415151561116457600080fd5b6000803373ffffffffffffffffffffffffffffffffffffffff1673ffffffffffffffffffffffffffffffffffffffff1681526020019081526020016000205482111515156111b157600080fd5b611202826000803373ffffffffffffffffffffffffffffffffffffffff1673ffffffffffffffffffffffffffffffffffffffff168152602001908152602001600020546138cd90919063ffffffff16565b6000803373ffffffffffffffffffffffffffffffffffffffff1673ffffffffffffffffffffffffffffffffffffffff1681526020019081526020016000208190555061129960075483026000808673ffffffffffffffffffffffffffffffffffffffff1673ffffffffffffffffffffffffffffffffffffffff168152602001908152602001600020546138e690919063ffffffff16565b6000808573ffffffffffffffffffffffffffffffffffffffff1673ffffffffffffffffffffffffffffffffffffffff168152602001908152602001600020819055506113076112f66001600754038461390290919063ffffffff16565b6003546138e690919063ffffffff16565b6003819055508273ffffffffffffffffffffffffffffffffffffffff163373ffffffffffffffffffffffffffffffffffffffff167fddf252ad1be2c89b69c2b068fc378daa952ba7f163c4a11628f55a4df523b3ef846040518082815260200191505060405180910390a36001905092915050565b6000600154905090565b6000611405836009846040518082805190602001908083835b6020831015156113c4578051825260208201915060208101905060208303925061139f565b6001836020036101000a038019825116818451168082178552505050505050905001915050908152602001604051809103902061393a90919063ffffffff16565b905092915050565b600080600860008573ffffffffffffffffffffffffffffffffffffffff1673ffffffffffffffffffffffffffffffffffffffff16815260200190815260200160002060009054906101000a900473ffffffffffffffffffffffffffffffffffffffff1673ffffffffffffffffffffffffffffffffffffffff1614151561149257600080fd5b600073ffffffffffffffffffffffffffffffffffffffff168473ffffffffffffffffffffffffffffffffffffffff16141515156114ce57600080fd5b6001600260008673ffffffffffffffffffffffffffffffffffffffff1673ffffffffffffffffffffffffffffffffffffffff16815260200190815260200160002060003373ffffffffffffffffffffffffffffffffffffffff1673ffffffffffffffffffffffffffffffffffffffff1681526020019081526020016000208190555061155b84848461194c565b156117a3576000600860008573ffffffffffffffffffffffffffffffffffffffff1673ffffffffffffffffffffffffffffffffffffffff16815260200190815260200160002060009054906101000a900473ffffffffffffffffffffffffffffffffffffffff1673ffffffffffffffffffffffffffffffffffffffff16141561171c57600560009054906101000a900473ffffffffffffffffffffffffffffffffffffffff1673ffffffffffffffffffffffffffffffffffffffff16638af1cbb93086866040518463ffffffff167c0100000000000000000000000000000000000000000000000000000000028152600401808473ffffffffffffffffffffffffffffffffffffffff1673ffffffffffffffffffffffffffffffffffffffff1681526020018373ffffffffffffffffffffffffffffffffffffffff1673ffffffffffffffffffffffffffffffffffffffff1681526020018273ffffffffffffffffffffffffffffffffffffffff1673ffffffffffffffffffffffffffffffffffffffff1681526020019350505050600060405180830381600087803b15801561170357600080fd5b505af1158015611717573d6000803e3d6000fd5b505050505b83600860008573ffffffffffffffffffffffffffffffffffffffff1673ffffffffffffffffffffffffffffffffffffffff16815260200190815260200160002060006101000a81548173ffffffffffffffffffffffffffffffffffffffff021916908373ffffffffffffffffffffffffffffffffffffffff160217905550600190506117a8565b600090505b9392505050565b60086020528060005260406000206000915054906101000a900473ffffffffffffffffffffffffffffffffffffffff1681565b60006040805190810160405280600a81526020017f636f6e74726f6c6c65720000000000000000000000000000000000000000000081525061182433826110a6565b8484604051602001808373ffffffffffffffffffffffffffffffffffffffff1673ffffffffffffffffffffffffffffffffffffffff166c01000000000000000000000000028152601401828152602001925050506040516020818303038152906040526040518082805190602001908083835b6020831015156118bc5780518252602082019150602081019050602083039250611897565b6001836020036101000a0380198251168184511680821785525050505050509050019150506040518091039020600190049150826012600088815260200190815260200160002060008473ffffffffffffffffffffffffffffffffffffffff1673ffffffffffffffffffffffffffffffffffffffff16815260200190815260200160002081905550505050505050565b60008073ffffffffffffffffffffffffffffffffffffffff168373ffffffffffffffffffffffffffffffffffffffff161415151561198957600080fd5b6000808573ffffffffffffffffffffffffffffffffffffffff1673ffffffffffffffffffffffffffffffffffffffff1681526020019081526020016000205482111515156119d657600080fd5b600260008573ffffffffffffffffffffffffffffffffffffffff1673ffffffffffffffffffffffffffffffffffffffff16815260200190815260200160002060003373ffffffffffffffffffffffffffffffffffffffff1673ffffffffffffffffffffffffffffffffffffffff168152602001908152602001600020548211151515611a6157600080fd5b611ab2826000808773ffffffffffffffffffffffffffffffffffffffff1673ffffffffffffffffffffffffffffffffffffffff168152602001908152602001600020546138cd90919063ffffffff16565b6000808673ffffffffffffffffffffffffffffffffffffffff1673ffffffffffffffffffffffffffffffffffffffff16815260200190815260200160002081905550611b4960075483026000808673ffffffffffffffffffffffffffffffffffffffff1673ffffffffffffffffffffffffffffffffffffffff168152602001908152602001600020546138e690919063ffffffff16565b6000808573ffffffffffffffffffffffffffffffffffffffff1673ffffffffffffffffffffffffffffffffffffffff16815260200190815260200160002081905550611bb7611ba66001600754038461390290919063ffffffff16565b6003546138e690919063ffffffff16565b600381905550611c4c82600260008773ffffffffffffffffffffffffffffffffffffffff1673ffffffffffffffffffffffffffffffffffffffff16815260200190815260200160002060003373ffffffffffffffffffffffffffffffffffffffff1673ffffffffffffffffffffffffffffffffffffffff168152602001908152602001600020546138cd90919063ffffffff16565b600260008673ffffffffffffffffffffffffffffffffffffffff1673ffffffffffffffffffffffffffffffffffffffff16815260200190815260200160002060003373ffffffffffffffffffffffffffffffffffffffff1673ffffffffffffffffffffffffffffffffffffffff168152602001908152602001600020819055508273ffffffffffffffffffffffffffffffffffffffff168473ffffffffffffffffffffffffffffffffffffffff167fddf252ad1be2c89b69c2b068fc378daa952ba7f163c4a11628f55a4df523b3ef846040518082815260200191505060405180910390a3600190509392505050565b6040805190810160405280600a81526020017f636f6e74726f6c6c65720000000000000000000000000000000000000000000081525081565b60008060008060008073ffffffffffffffffffffffffffffffffffffffff168773ffffffffffffffffffffffffffffffffffffffff1614151515611db857600080fd5b33945060003073ffffffffffffffffffffffffffffffffffffffff166370a08231876040518263ffffffff167c0100000000000000000000000000000000000000000000000000000000028152600401808273ffffffffffffffffffffffffffffffffffffffff1673ffffffffffffffffffffffffffffffffffffffff168152602001915050602060405180830381600087803b158015611e5857600080fd5b505af1158015611e6c573d6000803e3d6000fd5b505050506040513d6020811015611e8257600080fd5b81019080805190602001909291905050501415611ea757611ea58786600161140d565b505b3392505b600115611f7c57600860008473ffffffffffffffffffffffffffffffffffffffff1673ffffffffffffffffffffffffffffffffffffffff16815260200190815260200160002060009054906101000a900473ffffffffffffffffffffffffffffffffffffffff169250600660009054906101000a900473ffffffffffffffffffffffffffffffffffffffff1673ffffffffffffffffffffffffffffffffffffffff168373ffffffffffffffffffffffffffffffffffffffff161415611f6f57611f7c565b8380600101945050611eab565b611f8f848761399390919063ffffffff16565b9150339250600090505b838110156121b657600860008473ffffffffffffffffffffffffffffffffffffffff1673ffffffffffffffffffffffffffffffffffffffff16815260200190815260200160002060009054906101000a900473ffffffffffffffffffffffffffffffffffffffff16925061205582600460008673ffffffffffffffffffffffffffffffffffffffff1673ffffffffffffffffffffffffffffffffffffffff168152602001908152602001600020546138e690919063ffffffff16565b600460008573ffffffffffffffffffffffffffffffffffffffff1673ffffffffffffffffffffffffffffffffffffffff16815260200190815260200160002081905550600560009054906101000a900473ffffffffffffffffffffffffffffffffffffffff1673ffffffffffffffffffffffffffffffffffffffff1663bd6cd0d13085856040518463ffffffff167c0100000000000000000000000000000000000000000000000000000000028152600401808473ffffffffffffffffffffffffffffffffffffffff1673ffffffffffffffffffffffffffffffffffffffff1681526020018373ffffffffffffffffffffffffffffffffffffffff1673ffffffffffffffffffffffffffffffffffffffff1681526020018281526020019350505050600060405180830381600087803b15801561219157600080fd5b505af11580156121a5573d6000803e3d6000fd5b505050508080600101915050611f99565b50505050505050565b6121fe336040805190810160405280600a81526020017f636f6e74726f6c6c657200000000000000000000000000000000000000000000815250612f06565b61225f601460009054906101000a900473ffffffffffffffffffffffffffffffffffffffff166040805190810160405280600a81526020017f636f6e74726f6c6c657200000000000000000000000000000000000000000000815250612f06565b6122c0601560009054906101000a900473ffffffffffffffffffffffffffffffffffffffff166040805190810160405280600a81526020017f636f6e74726f6c6c657200000000000000000000000000000000000000000000815250612f06565b6003546000803373ffffffffffffffffffffffffffffffffffffffff1673ffffffffffffffffffffffffffffffffffffffff16815260200190815260200160002081905550565b60006040805190810160405280600a81526020017f636f6e74726f6c6c65720000000000000000000000000000000000000000000081525061234933826110a6565b600b544211151561235957600080fd5b612365868686866139a9565b503073ffffffffffffffffffffffffffffffffffffffff167fd5669ebe8b90ed693033f1915dcea031e7a16a6f146a8326c02eec10eed77edd60405160405180910390a26001915050949350505050565b600080600260003373ffffffffffffffffffffffffffffffffffffffff1673ffffffffffffffffffffffffffffffffffffffff16815260200190815260200160002060008573ffffffffffffffffffffffffffffffffffffffff1673ffffffffffffffffffffffffffffffffffffffff16815260200190815260200160002054905080831015156124c8576000600260003373ffffffffffffffffffffffffffffffffffffffff1673ffffffffffffffffffffffffffffffffffffffff16815260200190815260200160002060008673ffffffffffffffffffffffffffffffffffffffff1673ffffffffffffffffffffffffffffffffffffffff1681526020019081526020016000208190555061255c565b6124db83826138cd90919063ffffffff16565b600260003373ffffffffffffffffffffffffffffffffffffffff1673ffffffffffffffffffffffffffffffffffffffff16815260200190815260200160002060008673ffffffffffffffffffffffffffffffffffffffff1673ffffffffffffffffffffffffffffffffffffffff168152602001908152602001600020819055505b8373ffffffffffffffffffffffffffffffffffffffff163373ffffffffffffffffffffffffffffffffffffffff167f8c5be1e5ebec7d5bd14f71427d1e84f3dd0314c0f7b2291e5b200ac8c7c3b925600260003373ffffffffffffffffffffffffffffffffffffffff1673ffffffffffffffffffffffffffffffffffffffff16815260200190815260200160002060008873ffffffffffffffffffffffffffffffffffffffff1673ffffffffffffffffffffffffffffffffffffffff168152602001908152602001600020546040518082815260200191505060405180910390a3600191505092915050565b60008060008373ffffffffffffffffffffffffffffffffffffffff1673ffffffffffffffffffffffffffffffffffffffff168152602001908152602001600020549050919050565b6126cf336040805190810160405280600581526020017f61646d696e0000000000000000000000000000000000000000000000000000008152506110a6565b6126d98282613b78565b5050565b6000600a5442101580156126f35750600b544211155b15156126fe57600080fd5b8273ffffffffffffffffffffffffffffffffffffffff1660405180807f7472616e7366657246726f6d28616464726573732c616464726573732c75696e81526020017f7432353629000000000000000000000000000000000000000000000000000000815250602501905060405180910390207c010000000000000000000000000000000000000000000000000000000090043330856040518463ffffffff167c0100000000000000000000000000000000000000000000000000000000028152600401808473ffffffffffffffffffffffffffffffffffffffff1673ffffffffffffffffffffffffffffffffffffffff1681526020018373ffffffffffffffffffffffffffffffffffffffff1673ffffffffffffffffffffffffffffffffffffffff16815260200182815260200193505050506000604051808303816000875af192505050151561284f57600080fd5b81600c600086815260200190815260200160002060008573ffffffffffffffffffffffffffffffffffffffff1673ffffffffffffffffffffffffffffffffffffffff16815260200190815260200160002060008282540192505081905550600190509392505050565b60006128c2615576565b6040805190810160405280600a81526020017f636f6e74726f6c6c65720000000000000000000000000000000000000000000081525061290233826110a6565b600d60008973ffffffffffffffffffffffffffffffffffffffff1673ffffffffffffffffffffffffffffffffffffffff16815260200190815260200160002061016060405190810160405290816000820160009054906101000a900473ffffffffffffffffffffffffffffffffffffffff1673ffffffffffffffffffffffffffffffffffffffff1673ffffffffffffffffffffffffffffffffffffffff168152602001600182015481526020016002820160009054906101000a900473ffffffffffffffffffffffffffffffffffffffff1673ffffffffffffffffffffffffffffffffffffffff1673ffffffffffffffffffffffffffffffffffffffff1681526020016002820160149054906101000a900460ff161515151581526020016002820160159054906101000a900460ff16151515158152602001600382015481526020016004820160009054906101000a900473ffffffffffffffffffffffffffffffffffffffff1673ffffffffffffffffffffffffffffffffffffffff1673ffffffffffffffffffffffffffffffffffffffff168152602001600582015481526020016006820160009054906101000a900460ff166003811115612ac257fe5b6003811115612acd57fe5b815260200160078201548152602001600882015481525050915060008260a0015114158015612afe57508160800151155b8015612b0c57508160600151155b1515612b1757600080fd5b81610140015142111515612b2a57600080fd5b612b378888888888613cac565b3073ffffffffffffffffffffffffffffffffffffffff167fd5669ebe8b90ed693033f1915dcea031e7a16a6f146a8326c02eec10eed77edd60405160405180910390a260019250505095945050505050565b600080600860008573ffffffffffffffffffffffffffffffffffffffff1673ffffffffffffffffffffffffffffffffffffffff16815260200190815260200160002060009054906101000a900473ffffffffffffffffffffffffffffffffffffffff1673ffffffffffffffffffffffffffffffffffffffff16141515612c0e57600080fd5b612c188383611127565b15612e60576000600860008573ffffffffffffffffffffffffffffffffffffffff1673ffffffffffffffffffffffffffffffffffffffff16815260200190815260200160002060009054906101000a900473ffffffffffffffffffffffffffffffffffffffff1673ffffffffffffffffffffffffffffffffffffffff161415612dd957600560009054906101000a900473ffffffffffffffffffffffffffffffffffffffff1673ffffffffffffffffffffffffffffffffffffffff16638af1cbb93033866040518463ffffffff167c0100000000000000000000000000000000000000000000000000000000028152600401808473ffffffffffffffffffffffffffffffffffffffff1673ffffffffffffffffffffffffffffffffffffffff1681526020018373ffffffffffffffffffffffffffffffffffffffff1673ffffffffffffffffffffffffffffffffffffffff1681526020018273ffffffffffffffffffffffffffffffffffffffff1673ffffffffffffffffffffffffffffffffffffffff1681526020019350505050600060405180830381600087803b158015612dc057600080fd5b505af1158015612dd4573d6000803e3d6000fd5b505050505b33600860008573ffffffffffffffffffffffffffffffffffffffff1673ffffffffffffffffffffffffffffffffffffffff16815260200190815260200160002060006101000a81548173ffffffffffffffffffffffffffffffffffffffff021916908373ffffffffffffffffffffffffffffffffffffffff16021790555060019050612e65565b600090505b92915050565b6040805190810160405280600a81526020017f636f6e74726f6c6c657200000000000000000000000000000000000000000000815250612eab33826110a6565b816012600086815260200190815260200160002060008573ffffffffffffffffffffffffffffffffffffffff1673ffffffffffffffffffffffffffffffffffffffff1681526020019081526020016000208190555050505050565b612f45336040805190810160405280600581526020017f61646d696e0000000000000000000000000000000000000000000000000000008152506110a6565b612f4f8282614352565b5050565b6000612f61858585856139a9565b9050949350505050565b600080600a544210158015612f825750600b544211155b1515612f8d57600080fd5b8373ffffffffffffffffffffffffffffffffffffffff1660405180807f7472616e7366657246726f6d28616464726573732c616464726573732c75696e81526020017f7432353629000000000000000000000000000000000000000000000000000000815250602501905060405180910390207c0100000000000000000000000000000000000000000000000000000000900433856040518363ffffffff167c0100000000000000000000000000000000000000000000000000000000028152600401808373ffffffffffffffffffffffffffffffffffffffff1673ffffffffffffffffffffffffffffffffffffffff168152602001828152602001925050506000604051808303816000875af19250505015156130aa57600080fd5b8383604051602001808373ffffffffffffffffffffffffffffffffffffffff1673ffffffffffffffffffffffffffffffffffffffff166c01000000000000000000000000028152601401828152602001925050506040516020818303038152906040526040518082805190602001908083835b602083101515613142578051825260208201915060208101905060208303925061311d565b6001836020036101000a03801982511681845116808217855250505050505090500191505060405180910390206001900490506001600c600087815260200190815260200160002060008373ffffffffffffffffffffffffffffffffffffffff1673ffffffffffffffffffffffffffffffffffffffff1681526020019081526020016000208190555060019150509392505050565b80600460003373ffffffffffffffffffffffffffffffffffffffff1673ffffffffffffffffffffffffffffffffffffffff16815260200190815260200160002054101580156132265750600081115b151561323157600080fd5b61328381600460003373ffffffffffffffffffffffffffffffffffffffff1673ffffffffffffffffffffffffffffffffffffffff168152602001908152602001600020546138cd90919063ffffffff16565b600460003373ffffffffffffffffffffffffffffffffffffffff1673ffffffffffffffffffffffffffffffffffffffff16815260200190815260200160002081905550600f60009054906101000a900473ffffffffffffffffffffffffffffffffffffffff1673ffffffffffffffffffffffffffffffffffffffff166323b872dd3033846040518463ffffffff167c0100000000000000000000000000000000000000000000000000000000028152600401808473ffffffffffffffffffffffffffffffffffffffff1673ffffffffffffffffffffffffffffffffffffffff1681526020018373ffffffffffffffffffffffffffffffffffffffff1673ffffffffffffffffffffffffffffffffffffffff1681526020018281526020019350505050602060405180830381600087803b1580156133bf57600080fd5b505af11580156133d3573d6000803e3d6000fd5b505050506040513d60208110156133e957600080fd5b81019080805190602001909291905050505050565b60075481565b6040805190810160405280600581526020017f61646d696e00000000000000000000000000000000000000000000000000000081525081565b60006134ce82600260003373ffffffffffffffffffffffffffffffffffffffff1673ffffffffffffffffffffffffffffffffffffffff16815260200190815260200160002060008673ffffffffffffffffffffffffffffffffffffffff1673ffffffffffffffffffffffffffffffffffffffff168152602001908152602001600020546138e690919063ffffffff16565b600260003373ffffffffffffffffffffffffffffffffffffffff1673ffffffffffffffffffffffffffffffffffffffff16815260200190815260200160002060008573ffffffffffffffffffffffffffffffffffffffff1673ffffffffffffffffffffffffffffffffffffffff168152602001908152602001600020819055508273ffffffffffffffffffffffffffffffffffffffff163373ffffffffffffffffffffffffffffffffffffffff167f8c5be1e5ebec7d5bd14f71427d1e84f3dd0314c0f7b2291e5b200ac8c7c3b925600260003373ffffffffffffffffffffffffffffffffffffffff1673ffffffffffffffffffffffffffffffffffffffff16815260200190815260200160002060008773ffffffffffffffffffffffffffffffffffffffff1673ffffffffffffffffffffffffffffffffffffffff168152602001908152602001600020546040518082815260200191505060405180910390a36001905092915050565b6000600260008473ffffffffffffffffffffffffffffffffffffffff1673ffffffffffffffffffffffffffffffffffffffff16815260200190815260200160002060008373ffffffffffffffffffffffffffffffffffffffff1673ffffffffffffffffffffffffffffffffffffffff16815260200190815260200160002054905092915050565b600d6020528060005260406000206000915090508060000160009054906101000a900473ffffffffffffffffffffffffffffffffffffffff16908060010154908060020160009054906101000a900473ffffffffffffffffffffffffffffffffffffffff16908060020160149054906101000a900460ff16908060020160159054906101000a900460ff16908060030154908060040160009054906101000a900473ffffffffffffffffffffffffffffffffffffffff16908060050154908060060160009054906101000a900460ff1690806007015490806008015490508b565b60006040805190810160405280600a81526020017f636f6e74726f6c6c6572000000000000000000000000000000000000000000008152506137e333826110a6565b600b54421115156137f357600080fd5b6137ff86868686614486565b503073ffffffffffffffffffffffffffffffffffffffff167fd5669ebe8b90ed693033f1915dcea031e7a16a6f146a8326c02eec10eed77edd60405160405180910390a26001915050949350505050565b6001600381111561385d57fe5b81600381111561386957fe5b14156138805761387b8585858561471a565b6138ad565b6000600381111561388d57fe5b81600381111561389957fe5b14156138ac576138ab85858585614d90565b5b5b5050505050565b6138be828261393a565b15156138c957600080fd5b5050565b60008282111515156138db57fe5b818303905092915050565b600081830190508281101515156138f957fe5b80905092915050565b6000808314156139155760009050613934565b818302905081838281151561392657fe5b0414151561393057fe5b8090505b92915050565b60008260000160008373ffffffffffffffffffffffffffffffffffffffff1673ffffffffffffffffffffffffffffffffffffffff16815260200190815260200160002060009054906101000a900460ff16905092915050565b600081838115156139a057fe5b04905092915050565b60008273ffffffffffffffffffffffffffffffffffffffff1660405160200180807f7472616e7366657228616464726573732c75696e74323536290000000000000081525060190190506040516020818303038152906040526040518082805190602001908083835b602083101515613a375780518252602082019150602081019050602083039250613a12565b6001836020036101000a03801982511681845116808217855250505050505090500191505060405180910390207c0100000000000000000000000000000000000000000000000000000000900486846040518363ffffffff167c0100000000000000000000000000000000000000000000000000000000028152600401808373ffffffffffffffffffffffffffffffffffffffff1673ffffffffffffffffffffffffffffffffffffffff168152602001828152602001925050506000604051808303816000875af1925050501515613b0e57600080fd5b81600c600086815260200190815260200160002060008573ffffffffffffffffffffffffffffffffffffffff1673ffffffffffffffffffffffffffffffffffffffff1681526020019081526020016000206000828254039250508190555060019050949350505050565b613bf5826009836040518082805190602001908083835b602083101515613bb45780518252602082019150602081019050602083039250613b8f565b6001836020036101000a03801982511681845116808217855250505050505090500191505090815260200160405180910390206154ba90919063ffffffff16565b8173ffffffffffffffffffffffffffffffffffffffff167fd211483f91fc6eff862467f8de606587a30c8fc9981056f051b897a418df803a826040518080602001828103825283818151815260200191508051906020019080838360005b83811015613c6e578082015181840152602081019050613c53565b50505050905090810190601f168015613c9b5780820380516001836020036101000a031916815260200191505b509250505060405180910390a25050565b613cb4615576565b6000600d60008873ffffffffffffffffffffffffffffffffffffffff1673ffffffffffffffffffffffffffffffffffffffff16815260200190815260200160002061016060405190810160405290816000820160009054906101000a900473ffffffffffffffffffffffffffffffffffffffff1673ffffffffffffffffffffffffffffffffffffffff1673ffffffffffffffffffffffffffffffffffffffff168152602001600182015481526020016002820160009054906101000a900473ffffffffffffffffffffffffffffffffffffffff1673ffffffffffffffffffffffffffffffffffffffff1673ffffffffffffffffffffffffffffffffffffffff1681526020016002820160149054906101000a900460ff161515151581526020016002820160159054906101000a900460ff16151515158152602001600382015481526020016004820160009054906101000a900473ffffffffffffffffffffffffffffffffffffffff1673ffffffffffffffffffffffffffffffffffffffff1673ffffffffffffffffffffffffffffffffffffffff168152602001600582015481526020016006820160009054906101000a900460ff166003811115613e7657fe5b6003811115613e8157fe5b8152602001600782015481526020016008820154815250509150600182608001901515908115158152505081600d60008973ffffffffffffffffffffffffffffffffffffffff1673ffffffffffffffffffffffffffffffffffffffff16815260200190815260200160002060008201518160000160006101000a81548173ffffffffffffffffffffffffffffffffffffffff021916908373ffffffffffffffffffffffffffffffffffffffff1602179055506020820151816001015560408201518160020160006101000a81548173ffffffffffffffffffffffffffffffffffffffff021916908373ffffffffffffffffffffffffffffffffffffffff16021790555060608201518160020160146101000a81548160ff02191690831515021790555060808201518160020160156101000a81548160ff02191690831515021790555060a0820151816003015560c08201518160040160006101000a81548173ffffffffffffffffffffffffffffffffffffffff021916908373ffffffffffffffffffffffffffffffffffffffff16021790555060e082015181600501556101008201518160060160006101000a81548160ff0219169083600381111561404457fe5b0217905550610120820151816007015561014082015181600801559050506000600381111561406f57fe5b83600381111561407b57fe5b14156141a7578484604051602001808373ffffffffffffffffffffffffffffffffffffffff1673ffffffffffffffffffffffffffffffffffffffff166c01000000000000000000000000028152601401828152602001925050506040516020818303038152906040526040518082805190602001908083835b60208310151561411957805182526020820191506020810190506020830392506140f4565b6001836020036101000a03801982511681845116808217855250505050505090500191505060405180910390206001900490506001600c600088815260200190815260200160002060008373ffffffffffffffffffffffffffffffffffffffff1673ffffffffffffffffffffffffffffffffffffffff16815260200190815260200160002081905550614226565b600160038111156141b457fe5b8360038111156141c057fe5b14156142255783600c600088815260200190815260200160002060008773ffffffffffffffffffffffffffffffffffffffff1673ffffffffffffffffffffffffffffffffffffffff168152602001908152602001600020600082825401925050819055505b5b600f60009054906101000a900473ffffffffffffffffffffffffffffffffffffffff1673ffffffffffffffffffffffffffffffffffffffff1663a9059cbb8861427e601354866020015161390290919063ffffffff16565b6040518363ffffffff167c0100000000000000000000000000000000000000000000000000000000028152600401808373ffffffffffffffffffffffffffffffffffffffff1673ffffffffffffffffffffffffffffffffffffffff16815260200182815260200192505050602060405180830381600087803b15801561430357600080fd5b505af1158015614317573d6000803e3d6000fd5b505050506040513d602081101561432d57600080fd5b8101908080519060200190929190505050151561434957600080fd5b50505050505050565b6143cf826009836040518082805190602001908083835b60208310151561438e5780518252602082019150602081019050602083039250614369565b6001836020036101000a038019825116818451168082178552505050505050905001915050908152602001604051809103902061551890919063ffffffff16565b8173ffffffffffffffffffffffffffffffffffffffff167fbfec83d64eaa953f2708271a023ab9ee82057f8f3578d548c1a4ba0b5b700489826040518080602001828103825283818151815260200191508051906020019080838360005b8381101561444857808201518184015260208101905061442d565b50505050905090810190601f1680156144755780820380516001836020036101000a031916815260200191505b509250505060405180910390a25050565b6000808383604051602001808373ffffffffffffffffffffffffffffffffffffffff1673ffffffffffffffffffffffffffffffffffffffff166c01000000000000000000000000028152601401828152602001925050506040516020818303038152906040526040518082805190602001908083835b60208310151561452157805182526020820191506020810190506020830392506144fc565b6001836020036101000a03801982511681845116808217855250505050505090500191505060405180910390206001900490508373ffffffffffffffffffffffffffffffffffffffff1660405160200180807f7472616e7366657228616464726573732c75696e74323536290000000000000081525060190190506040516020818303038152906040526040518082805190602001908083835b6020831015156145e057805182526020820191506020810190506020830392506145bb565b6001836020036101000a03801982511681845116808217855250505050505090500191505060405180910390207c0100000000000000000000000000000000000000000000000000000000900487856040518363ffffffff167c0100000000000000000000000000000000000000000000000000000000028152600401808373ffffffffffffffffffffffffffffffffffffffff1673ffffffffffffffffffffffffffffffffffffffff168152602001828152602001925050506000604051808303816000875af19250505015156146b757600080fd5b6000600c600087815260200190815260200160002060008373ffffffffffffffffffffffffffffffffffffffff1673ffffffffffffffffffffffffffffffffffffffff168152602001908152602001600020819055506001915050949350505050565b6000614724615576565b600a5442101580156147385750600b544211155b151561474357600080fd5b6000831180156147a3575060006012600087815260200190815260200160002060008673ffffffffffffffffffffffffffffffffffffffff1673ffffffffffffffffffffffffffffffffffffffff16815260200190815260200160002054115b15156147ae57600080fd5b61482560135461481785601260008a815260200190815260200160002060008973ffffffffffffffffffffffffffffffffffffffff1673ffffffffffffffffffffffffffffffffffffffff1681526020019081526020016000205461390290919063ffffffff16565b61390290919063ffffffff16565b9150600f60009054906101000a900473ffffffffffffffffffffffffffffffffffffffff1673ffffffffffffffffffffffffffffffffffffffff166323b872dd3330856040518463ffffffff167c0100000000000000000000000000000000000000000000000000000000028152600401808473ffffffffffffffffffffffffffffffffffffffff1673ffffffffffffffffffffffffffffffffffffffff1681526020018373ffffffffffffffffffffffffffffffffffffffff1673ffffffffffffffffffffffffffffffffffffffff1681526020018281526020019350505050602060405180830381600087803b15801561492057600080fd5b505af1158015614934573d6000803e3d6000fd5b505050506040513d602081101561494a57600080fd5b8101908080519060200190929190505050151561496657600080fd5b610160604051908101604052808773ffffffffffffffffffffffffffffffffffffffff1681526020018381526020013373ffffffffffffffffffffffffffffffffffffffff1681526020016000151581526020016000151581526020018681526020018573ffffffffffffffffffffffffffffffffffffffff168152602001848152602001600160038111156149f857fe5b8152602001428152602001603c601654024201815250905082600c600087815260200190815260200160002060008673ffffffffffffffffffffffffffffffffffffffff1673ffffffffffffffffffffffffffffffffffffffff16815260200190815260200160002060008282540392505081905550600e60009054906101000a900473ffffffffffffffffffffffffffffffffffffffff1673ffffffffffffffffffffffffffffffffffffffff166345d29f0f303388888860016040518763ffffffff167c0100000000000000000000000000000000000000000000000000000000028152600401808773ffffffffffffffffffffffffffffffffffffffff1673ffffffffffffffffffffffffffffffffffffffff1681526020018673ffffffffffffffffffffffffffffffffffffffff1673ffffffffffffffffffffffffffffffffffffffff1681526020018581526020018473ffffffffffffffffffffffffffffffffffffffff1673ffffffffffffffffffffffffffffffffffffffff168152602001838152602001826003811115614b9057fe5b60ff1681526020019650505050505050600060405180830381600087803b158015614bba57600080fd5b505af1158015614bce573d6000803e3d6000fd5b5050505080600d60003373ffffffffffffffffffffffffffffffffffffffff1673ffffffffffffffffffffffffffffffffffffffff16815260200190815260200160002060008201518160000160006101000a81548173ffffffffffffffffffffffffffffffffffffffff021916908373ffffffffffffffffffffffffffffffffffffffff1602179055506020820151816001015560408201518160020160006101000a81548173ffffffffffffffffffffffffffffffffffffffff021916908373ffffffffffffffffffffffffffffffffffffffff16021790555060608201518160020160146101000a81548160ff02191690831515021790555060808201518160020160156101000a81548160ff02191690831515021790555060a0820151816003015560c08201518160040160006101000a81548173ffffffffffffffffffffffffffffffffffffffff021916908373ffffffffffffffffffffffffffffffffffffffff16021790555060e082015181600501556101008201518160060160006101000a81548160ff02191690836003811115614d6a57fe5b021790555061012082015181600701556101408201518160080155905050505050505050565b600080614d9b615576565b600a544210158015614daf5750600b544211155b1515614dba57600080fd5b8484604051602001808373ffffffffffffffffffffffffffffffffffffffff1673ffffffffffffffffffffffffffffffffffffffff166c01000000000000000000000000028152601401828152602001925050506040516020818303038152906040526040518082805190602001908083835b602083101515614e525780518252602082019150602081019050602083039250614e2d565b6001836020036101000a038019825116818451168082178552505050505050905001915050604051809103902060019004925060008414158015614ee6575060006012600088815260200190815260200160002060008573ffffffffffffffffffffffffffffffffffffffff1673ffffffffffffffffffffffffffffffffffffffff16815260200190815260200160002054115b1515614ef157600080fd5b614f566013546012600089815260200190815260200160002060008673ffffffffffffffffffffffffffffffffffffffff1673ffffffffffffffffffffffffffffffffffffffff1681526020019081526020016000205461390290919063ffffffff16565b9150600f60009054906101000a900473ffffffffffffffffffffffffffffffffffffffff1673ffffffffffffffffffffffffffffffffffffffff166323b872dd3330856040518463ffffffff167c0100000000000000000000000000000000000000000000000000000000028152600401808473ffffffffffffffffffffffffffffffffffffffff1673ffffffffffffffffffffffffffffffffffffffff1681526020018373ffffffffffffffffffffffffffffffffffffffff1673ffffffffffffffffffffffffffffffffffffffff1681526020018281526020019350505050602060405180830381600087803b15801561505157600080fd5b505af1158015615065573d6000803e3d6000fd5b505050506040513d602081101561507b57600080fd5b8101908080519060200190929190505050151561509757600080fd5b610160604051908101604052808873ffffffffffffffffffffffffffffffffffffffff1681526020018381526020013373ffffffffffffffffffffffffffffffffffffffff1681526020016000151581526020016000151581526020018781526020018673ffffffffffffffffffffffffffffffffffffffff1681526020018581526020016000600381111561512957fe5b8152602001428152602001603c60165402420181525090506000600c600088815260200190815260200160002060008573ffffffffffffffffffffffffffffffffffffffff1673ffffffffffffffffffffffffffffffffffffffff16815260200190815260200160002081905550600e60009054906101000a900473ffffffffffffffffffffffffffffffffffffffff1673ffffffffffffffffffffffffffffffffffffffff166345d29f0f303389898960006040518763ffffffff167c0100000000000000000000000000000000000000000000000000000000028152600401808773ffffffffffffffffffffffffffffffffffffffff1673ffffffffffffffffffffffffffffffffffffffff1681526020018673ffffffffffffffffffffffffffffffffffffffff1673ffffffffffffffffffffffffffffffffffffffff1681526020018581526020018473ffffffffffffffffffffffffffffffffffffffff1673ffffffffffffffffffffffffffffffffffffffff1681526020018381526020018260038111156152b957fe5b60ff1681526020019650505050505050600060405180830381600087803b1580156152e357600080fd5b505af11580156152f7573d6000803e3d6000fd5b5050505080600d60003373ffffffffffffffffffffffffffffffffffffffff1673ffffffffffffffffffffffffffffffffffffffff16815260200190815260200160002060008201518160000160006101000a81548173ffffffffffffffffffffffffffffffffffffffff021916908373ffffffffffffffffffffffffffffffffffffffff1602179055506020820151816001015560408201518160020160006101000a81548173ffffffffffffffffffffffffffffffffffffffff021916908373ffffffffffffffffffffffffffffffffffffffff16021790555060608201518160020160146101000a81548160ff02191690831515021790555060808201518160020160156101000a81548160ff02191690831515021790555060a0820151816003015560c08201518160040160006101000a81548173ffffffffffffffffffffffffffffffffffffffff021916908373ffffffffffffffffffffffffffffffffffffffff16021790555060e082015181600501556101008201518160060160006101000a81548160ff0219169083600381111561549357fe5b02179055506101208201518160070155610140820151816008015590505050505050505050565b60008260000160008373ffffffffffffffffffffffffffffffffffffffff1673ffffffffffffffffffffffffffffffffffffffff16815260200190815260200160002060006101000a81548160ff0219169083151502179055505050565b60018260000160008373ffffffffffffffffffffffffffffffffffffffff1673ffffffffffffffffffffffffffffffffffffffff16815260200190815260200160002060006101000a81548160ff0219169083151502179055505050565b61016060405190810160405280600073ffffffffffffffffffffffffffffffffffffffff16815260200160008152602001600073ffffffffffffffffffffffffffffffffffffffff16815260200160001515815260200160001515815260200160008152602001600073ffffffffffffffffffffffffffffffffffffffff168152602001600081526020016000600381111561560e57fe5b8152602001600081526020016000815250905600a165627a7a72305820bb89d14089a46d84041b9a23c171379313b27444c799492d25f5cfecd34004540029",
  "source": "pragma solidity ^0.4.24; \n\nimport '../openzeppelin-solidity/contracts/math/SafeMath.sol';\n\nimport './ERC20full.sol';\nimport './TwoKeyEconomy.sol';\nimport './TwoKeyTypes.sol';\nimport './TwoKeyEventSource.sol';\nimport './TwoKeyARC.sol';\nimport \"./ComposableAssetFactory.sol\";\nimport \"./TwoKeyWhitelisted.sol\";\n\ncontract TwoKeyCampaign is TwoKeyARC, ComposableAssetFactory, TwoKeyTypes {\n\n\tusing SafeMath for uint256;\n\n\tstruct Conversion {\n\t\taddress from;\n\t\tuint256 payout;\n\t\taddress converter;\t\n\t\tbool isFulfilled;\n\t\tbool isCancelled;\n\t\tuint256 tokenID;\n\t\taddress assetContract;\n\t\tuint256 indexOrAmount;\n\t\tCampaignType campaignType;\n\t\tuint256 openingTime;\n\t\tuint256 closingTime;\n\t}\n\n\tmapping (address => Conversion) public conversions;\n\n\t\n\t// emit through it events for backend to listen to\n\tTwoKeyEventSource eventSource;\n\n\t// 2key token\n\tTwoKeyEconomy economy;\n\n\t// whitelists will be managed by their ownership\n\t// they are the vehicles to convey KYC for different roles: converter, influencer, contractor\n\t// whitelists are outside the campaign\n\t// these whtelists may be shared across campaigns\n\n\t// whitelist of influencers, to which users are added after kyc\n\t// TODO (udi) what should I do if I dont want to manage a white list?\n\tTwoKeyWhitelisted whitelistInfluencer;\n\n\t// whitelist of converters, to which users are added after kyc\n\tTwoKeyWhitelisted whitelistConverter;\n\n\t// prices of assets\n\t// TODO (udi) there should be just one token->address->price you dont need two maps\n\tmapping(uint256 => mapping(address => uint256)) prices; \n\n\t// rate of conversion from TwoKey to ETH\n\tuint256 rate;\n\n\n\taddress contractor;\n\taddress moderator;\n\n\t// parameters of escrow\n\n\t// how long will hold asset in escrow\n\tuint256 expiryConversion;\n\n\t// percentage of payout to. be paid for moderator for escrow\n\tuint256 escrowPercentage;\n\n    // maximum precentage of all rewards out of payout for asset\n    // acording to incentive model, for each campaign, \n    // we set its maximum reward which the campaign is created as a precentage of the payout for\n    // an item sold in the campaign\n    // this reward is spread among influencers causing in some way a conversion\n    // the incentive model determines how to spread the reward\n\tuint256 maxPi;  \n\n \n    // is the influencer eligible for participation in campaign\n\tmodifier isWhiteListedInfluencer() {\n\t\trequire(whitelistInfluencer.isWhitelisted(msg.sender));\n\t\t_;\n\t}\n\n\t// is the converter eligible for participation in conversion\n    modifier isWhitelistedConverter() {\n        require(whitelistConverter.isWhitelisted(msg.sender));\n        _;\n    }\n\n    modifier didConverterConvert() {\n        Conversion memory c = conversions[msg.sender];\n    \trequire(c.tokenID != 0);\n    \trequire(!c.isFulfilled && !c.isCancelled);\n        _;\n    }\n\n\n\n\t// if we just work with two key tokens, \n\t// rate is 1, and all prices are in two key tokens\n\t/*\n\t\n\t */\n\tconstructor(\n\t\tTwoKeyEventSource _eventSource,\n\t\tTwoKeyEconomy _economy,\n\t\tTwoKeyWhitelisted _whitelistInfluencer,\n\t\tTwoKeyWhitelisted _whitelistConverter,\n\t\t \n\t\taddress _contractor,\n\t\taddress _moderator, \n\t\t\n\t\tuint256 _openingTime,\n\t\tuint256 _closingTime,\n\t\tuint256 _expiryConversion, \n\t\tuint256 _escrowPercentage,\n\t\tuint256 _rate,\n\t\tuint256 _maxPi) TwoKeyARC(_eventSource, _contractor) ComposableAssetFactory(_openingTime, _closingTime) StandardToken() public {\n\n\n\t\t/// requires that all contracts from constructor are already deployed\n\t\trequire(_eventSource != address(0));\n\t\trequire(_economy != address(0));\n\t\trequire(_whitelistInfluencer != address(0));\n\t\trequire(_whitelistConverter != address(0));\n\n\t\t/// uint values\n\t\trequire(_rate > 0);\n\t\trequire(_maxPi > 0);\n\n\t\teconomy = _economy;\n\t\twhitelistInfluencer = _whitelistInfluencer;\n\t\twhitelistConverter = _whitelistConverter;\n\n\t\tcontractor = _contractor;\n\t\tmoderator = _moderator;\n\n\t\texpiryConversion = _expiryConversion;\n\t\tescrowPercentage = _escrowPercentage;\n\n\t\trate = _rate;\n\n//\t\t in general max_pi is dynamic and is computed by the incentive model\n//\t     per conversion\n//\t     there should be a discount - but not for now\n\n        maxPi = _maxPi;\n\n//\t\tREVERTS - MEANING adding roles don't work well and nowhere we've configured (allowed) this contract to emit events!!!\n//\t\teventSource.created(address(this), contractor);\n\n\t}\n\n    function addAdminRolesAndBalancesAfterDeployed() public {\n        adminAddRole(msg.sender, ROLE_CONTROLLER);\n        adminAddRole(contractor, ROLE_CONTROLLER);\n        adminAddRole(moderator, ROLE_CONTROLLER);\n        balances[msg.sender] = totalSupply_;\n    }\n\n    /*  \n\t    fulfills a fungible asset purchase\n\t    creates the escrow for a fungible asset\n\t    computes the payout \n\t    transfers to the escrow the asset purchased\n    */ \n\tfunction fulfillFungibleTwoKeyToken(\n\t\taddress _from, \n\t\tuint256 _tokenID, \n\t\taddress _assetContract, \n\t\tuint256 _amount) isOngoing internal {\t\n\t\trequire(_amount > 0 && prices[_tokenID][_assetContract] > 0);\n\t\tuint256 payout = prices[_tokenID][_assetContract].mul(_amount).mul(rate);\n\t\trequire(economy.transferFrom(msg.sender, this, payout));\t\n\t\tConversion memory c = Conversion(_from, payout, msg.sender, false, false, _tokenID, _assetContract, _amount, CampaignType.Fungible, now, now + expiryConversion * 1 minutes);\n\t\t// move funds\n\t\tassets[_tokenID][_assetContract] -= _amount;\n\t\teventSource.escrow(address(this), msg.sender, _tokenID, _assetContract, _amount, CampaignType.Fungible);\t\n\t\tconversions[msg.sender] = c;\n\t}\n\n\n    /*  \n\t    fulfills a non fungible asset purchase\n\t    creates the escrow for a fungible asset\n\t    computes the payout \n\t    transfers to the escrow the asset purchased\n    */ \n\tfunction fulfillNonFungibleTwoKeyToken(address _from, uint256 _tokenID, address _assetContract, uint256 _index) isOngoing internal {\n\t\taddress assetToken = address(\n\t      keccak256(abi.encodePacked(_assetContract, _index))\n\t    );\n\t\trequire(_index != 0 && prices[_tokenID][assetToken] > 0);\n\t\tuint256 payout = prices[_tokenID][assetToken].mul(rate);\n\t\trequire(economy.transferFrom(msg.sender, this, payout));\n\t\tConversion memory c = Conversion(_from, payout, msg.sender, false, false, _tokenID, _assetContract, _index, CampaignType.NonFungible, now, now + expiryConversion * 1 minutes);\n\t\t// move funds\n\t\tassets[_tokenID][assetToken] = 0;\n\t\teventSource.escrow(address(this), msg.sender, _tokenID, _assetContract, _index, CampaignType.NonFungible);\n\t\tconversions[msg.sender] = c;\n\t}\n\n\t/**\n     * given the total payout, calculates the moderator fee\n     * @param  _payout total payout for escrow \n     * @return moderator fee\n     */\n    function calculateModeratorFee(uint256 _payout) internal view returns (uint256)  {\n        if (escrowPercentage > 0) { // send the fee to moderator\n            uint256 fee = _payout.mul(escrowPercentage).div(100);\n            return fee;\n        }  \n        return 0;      \n    }\n\n    /**\n     * transferAssetTwoKeyToken \n     * @param  _tokenID  sku of asset\n     * @param  _assetContract erc721 representing the asset class\n     * @param  _assetTokenIDOrAmount  unique index of asset or amount of asset\n     * @param  _type Fungible or NonFungible\n     * \n     * transfer the asset to the converter,\n     */\n//    function transferAssetTwoKeyToken(\n//        uint256 _tokenID,\n//        address _assetContract,\n//        uint256 _assetTokenIDOrAmount,\n//        CampaignType _type) isWhitelistedConverter didConverterConvert public {\n//        actuallyFulfilledTwoKeyToken();\n//        if (_type == CampaignType.NonFungible) {\n//\t\t\trequire(transferNonFungibleAsset(msg.sender, _tokenID, _assetContract, _assetTokenIDOrAmount));\n//        } else if (_type == CampaignType.Fungible) {\n//\t\t\trequire(transferFungibleAsset(msg.sender, _tokenID, _assetContract, _assetTokenIDOrAmount));\n//        }\n//\n//    }\n\n    function cancelledEscrow(\n    \taddress _converter,\n        uint256 _tokenID,\n        address _assetContract,\n        uint256 _assetTokenIDOrAmount,\n        CampaignType _type) internal {\n        Conversion memory c = conversions[_converter];\n        c.isCancelled = true;\n        conversions[_converter] = c;\n        if (_type == CampaignType.NonFungible) {\n\t        address assetToken = address(\n\t\t      keccak256(abi.encodePacked(_assetContract, _assetTokenIDOrAmount))\n\t\t    );\n\t        assets[_tokenID][assetToken] = 1;\n        } else if (_type == CampaignType.Fungible) {\n\t        assets[_tokenID][_assetContract] += _assetTokenIDOrAmount;\n        }\n\n        require(economy.transfer(_converter, (c.payout).mul(rate)));\n    }\n\n\n    /**\n     * cancelAssetTwoKey \n     * cancels the purchase buy transfering the assets back to the campaign\n     * and refunding the converter\n     * @param  _tokenID  sku of asset\n     * @param  _assetContract erc721 representing the asset class\n     * @param  _assetTokenIDOrAmount unique index of asset or amount of asset\n     * @param  _type NonFungible or Fungible\n     * \n     */\n//    function cancelAssetTwoKey(\n//        address _converter,\n//        uint256 _tokenID,\n//        address _assetContract,\n//        uint256 _assetTokenIDOrAmount,\n//        CampaignType _type) onlyRole(ROLE_CONTROLLER) public returns (bool) {\n//    \tConversion memory c = conversions[_converter];\n//\t    require(c.tokenID != 0 && !c.isCancelled && !c.itrusFulfilled);\n//\t    if (_type == CampaignType.NonFungible) {\n//\t    \tcancelledEscrow(_converter, _tokenID, _assetContract, _assetTokenIDOrAmount, CampaignType.NonFungible);\n//\t        eventSource.cancelled(address(this), _converter, _tokenID, _assetContract, _assetTokenIDOrAmount, CampaignType.NonFungible);\n//\t    } else if (_type == CampaignType.Fungible) {\n//\t    \tcancelledEscrow(_converter, _tokenID, _assetContract, _assetTokenIDOrAmount, CampaignType.Fungible);\n//        \teventSource.cancelled(address(this), _converter, _tokenID, _assetContract, _assetTokenIDOrAmount, CampaignType.Fungible);\n//\t    }\n//        return true;\n//    }\n\n\n    function expireEscrow(\n\t\taddress _converter,\n\t\tuint256 _tokenID,\n\t\taddress _assetContract,\n\t\tuint256 _assetTokenIDOrAmount,\n\t\tCampaignType _type) onlyRole(ROLE_CONTROLLER) public returns (bool){\n\t    Conversion memory c = conversions[_converter];\n\t    require(c.tokenID != 0 && !c.isCancelled && !c.isFulfilled);\n    \trequire(now > c.closingTime);\n\t\tcancelledEscrow(_converter, _tokenID, _assetContract, _assetTokenIDOrAmount, _type);\n\t\temit Expired(address(this));\n\t\treturn true;\n\t}\n\n\n    /**\n     * calculates moderetor fee, pays the moderator, \n     * computes total reward\n     * transfer payout to contractor, deducting the fee and the total reward\n     * asks the campaign to distribute rewards to influencers\n     */\n\n\tfunction actuallyFulfilledTwoKeyToken() internal {\n\t\tConversion memory c = conversions[msg.sender];\n        c.isFulfilled = true; \n        conversions[msg.sender] = c;\n\t\tuint256 fee = calculateModeratorFee(c.payout);\n        require(economy.transfer(moderator, fee.mul(rate))); \n        uint256 payout = c.payout;\n        uint256 maxReward = maxPi.mul(payout).div(100);\n        \n        // transfer payout - fee - rewards to seller\n        require(economy.transfer(contractor, (payout.sub(fee).sub(maxReward)).mul(rate)));\n        \n        transferRewardsTwoKeyToken(c.from, maxReward.mul(rate));\n        eventSource.fulfilled(address(this), c.converter, c.tokenID, c.assetContract, c.indexOrAmount, c.campaignType);\n\t}\n\n\t// set price for fungible asset held by the campaign\n\tfunction setPriceFungible(uint256 _tokenID, address _assetContract, uint256 _pricePerUnit) onlyRole(ROLE_CONTROLLER) public {\n\t\tprices[_tokenID][_assetContract] = _pricePerUnit;\n\t}\n\n\t// set price for a non fungible asset held by the campaign\n\tfunction setPriceNonFungible(uint256 _tokenID, address _assetContract, uint256 _index, uint256 _pricePerUnit) onlyRole(ROLE_CONTROLLER) public {\n\t\taddress assetToken = address(\n\t      keccak256(abi.encodePacked(_assetContract, _index))\n\t    );\n\t\tprices[_tokenID][assetToken] = _pricePerUnit;\n\t}\n\n\t// an influencer that wishes to cash an _amount of 2key from the campaign\n\tfunction redeemTwoKeyToken(uint256 _amount) public {\n        require(xbalancesTwoKey[msg.sender] >= _amount && _amount > 0);\n        xbalancesTwoKey[msg.sender] = xbalancesTwoKey[msg.sender].sub(_amount);\n        economy.transferFrom(this, msg.sender, _amount);\n    }\n\n    /**\n  \t * buy product with twokey token,\n  \t * _from is the influencer from which you received the referral\n  \t * _tokenID is the asset sku\n  \t * _assetContract - erc20 (fungible) or erc721 (non fungible) which represents the class of the asset\n  \t * _amountOrIndex - for erc20 amount in asset class, for erc21 index within asset class\n  \t */\n\tfunction buyFromWithTwoKey(\n\t\taddress _from, \n\t\tuint256 _tokenID, \n\t\taddress _assetContract, \n\t\tuint256 _amountOrIndex, \n\t\tCampaignType _campaignType) public payable {\n\t\tif (_campaignType == CampaignType.Fungible) {\n\t\t\tfulfillFungibleTwoKeyToken(_from, _tokenID, _assetContract, _amountOrIndex);\n\t\t} else if (_campaignType == CampaignType.NonFungible) {\n\t\t\tfulfillNonFungibleTwoKeyToken(_from, _tokenID, _assetContract, _amountOrIndex);\n\t\t} \n\t}\n\n\n}\n\n",
  "sourcePath": "/Users/nikolamadjarevic/Desktop/2key/contracts/contracts/2key/TwoKeyCampaign.sol",
  "compiler": {
    "name": "solc",
    "version": "0.4.24+commit.e67f0147.Emscripten.clang"
  },
  "schemaVersion": "2.0.1",
  "updatedAt": "2018-08-23T15:15:17.506Z"
}