{
  "contractName": "TwoKeyCampaignETHCrowdsale",
  "abi": [
    {
      "constant": true,
      "inputs": [
        {
          "name": "",
          "type": "address"
        }
      ],
      "name": "units",
      "outputs": [
        {
          "name": "",
          "type": "uint256"
        }
      ],
      "payable": false,
      "stateMutability": "view",
      "type": "function"
    },
    {
      "constant": true,
      "inputs": [],
      "name": "name",
      "outputs": [
        {
          "name": "",
          "type": "string"
        }
      ],
      "payable": false,
      "stateMutability": "view",
      "type": "function"
    },
    {
      "constant": false,
      "inputs": [
        {
          "name": "_spender",
          "type": "address"
        },
        {
          "name": "_value",
          "type": "uint256"
        }
      ],
      "name": "approve",
      "outputs": [
        {
          "name": "",
          "type": "bool"
        }
      ],
      "payable": false,
      "stateMutability": "nonpayable",
      "type": "function"
    },
    {
      "constant": false,
      "inputs": [
        {
          "name": "_to",
          "type": "address"
        },
        {
          "name": "_value",
          "type": "uint256"
        }
      ],
      "name": "transferQuota",
      "outputs": [
        {
          "name": "",
          "type": "bool"
        }
      ],
      "payable": false,
      "stateMutability": "nonpayable",
      "type": "function"
    },
    {
      "constant": false,
      "inputs": [
        {
          "name": "_tokenID",
          "type": "uint256"
        },
        {
          "name": "_assetContract",
          "type": "address"
        },
        {
          "name": "_amount",
          "type": "uint256"
        }
      ],
      "name": "transferAssetTwoKeyToken",
      "outputs": [],
      "payable": false,
      "stateMutability": "nonpayable",
      "type": "function"
    },
    {
      "constant": true,
      "inputs": [],
      "name": "cost",
      "outputs": [
        {
          "name": "",
          "type": "uint256"
        }
      ],
      "payable": false,
      "stateMutability": "view",
      "type": "function"
    },
    {
      "constant": true,
      "inputs": [
        {
          "name": "c",
          "type": "address"
        },
        {
          "name": "_method",
          "type": "bytes"
        },
        {
          "name": "_val",
          "type": "uint256"
        }
      ],
      "name": "call_return",
      "outputs": [
        {
          "name": "answer",
          "type": "uint256"
        }
      ],
      "payable": false,
      "stateMutability": "view",
      "type": "function"
    },
    {
      "constant": true,
      "inputs": [],
      "name": "totalSupply",
      "outputs": [
        {
          "name": "",
          "type": "uint256"
        }
      ],
      "payable": false,
      "stateMutability": "view",
      "type": "function"
    },
    {
      "constant": false,
      "inputs": [
        {
          "name": "sig",
          "type": "bytes"
        }
      ],
      "name": "transferSig",
      "outputs": [],
      "payable": false,
      "stateMutability": "nonpayable",
      "type": "function"
    },
    {
      "constant": false,
      "inputs": [
        {
          "name": "_from",
          "type": "address"
        },
        {
          "name": "_to",
          "type": "address"
        },
        {
          "name": "_value",
          "type": "uint256"
        }
      ],
      "name": "transferFrom",
      "outputs": [
        {
          "name": "",
          "type": "bool"
        }
      ],
      "payable": false,
      "stateMutability": "nonpayable",
      "type": "function"
    },
    {
      "constant": true,
      "inputs": [
        {
          "name": "",
          "type": "address"
        }
      ],
      "name": "received_from",
      "outputs": [
        {
          "name": "",
          "type": "address"
        }
      ],
      "payable": false,
      "stateMutability": "view",
      "type": "function"
    },
    {
      "constant": true,
      "inputs": [],
      "name": "decimals",
      "outputs": [
        {
          "name": "",
          "type": "uint8"
        }
      ],
      "payable": false,
      "stateMutability": "view",
      "type": "function"
    },
    {
      "constant": true,
      "inputs": [],
      "name": "getAssetContractAddress",
      "outputs": [
        {
          "name": "",
          "type": "address"
        }
      ],
      "payable": false,
      "stateMutability": "view",
      "type": "function"
    },
    {
      "constant": true,
      "inputs": [
        {
          "name": "",
          "type": "address"
        }
      ],
      "name": "public_link_key",
      "outputs": [
        {
          "name": "",
          "type": "address"
        }
      ],
      "payable": false,
      "stateMutability": "view",
      "type": "function"
    },
    {
      "constant": false,
      "inputs": [
        {
          "name": "_from",
          "type": "address"
        },
        {
          "name": "_to",
          "type": "address"
        },
        {
          "name": "_value",
          "type": "uint256"
        }
      ],
      "name": "transferFromQuota",
      "outputs": [
        {
          "name": "",
          "type": "bool"
        }
      ],
      "payable": false,
      "stateMutability": "nonpayable",
      "type": "function"
    },
    {
      "constant": true,
      "inputs": [],
      "name": "checkInventoryBalance",
      "outputs": [
        {
          "name": "",
          "type": "uint256"
        }
      ],
      "payable": false,
      "stateMutability": "view",
      "type": "function"
    },
    {
      "constant": false,
      "inputs": [
        {
          "name": "_spender",
          "type": "address"
        },
        {
          "name": "_subtractedValue",
          "type": "uint256"
        }
      ],
      "name": "decreaseApproval",
      "outputs": [
        {
          "name": "",
          "type": "bool"
        }
      ],
      "payable": false,
      "stateMutability": "nonpayable",
      "type": "function"
    },
    {
      "constant": true,
      "inputs": [],
      "name": "getContractBalance",
      "outputs": [
        {
          "name": "",
          "type": "uint256"
        }
      ],
      "payable": false,
      "stateMutability": "view",
      "type": "function"
    },
    {
      "constant": true,
      "inputs": [
        {
          "name": "_owner",
          "type": "address"
        }
      ],
      "name": "balanceOf",
      "outputs": [
        {
          "name": "",
          "type": "uint256"
        }
      ],
      "payable": false,
      "stateMutability": "view",
      "type": "function"
    },
    {
      "constant": false,
      "inputs": [
        {
          "name": "_amount",
          "type": "uint256"
        }
      ],
      "name": "addFungibleAsset",
      "outputs": [
        {
          "name": "",
          "type": "bool"
        }
      ],
      "payable": false,
      "stateMutability": "nonpayable",
      "type": "function"
    },
    {
      "constant": true,
      "inputs": [],
      "name": "ipfs_hash",
      "outputs": [
        {
          "name": "",
          "type": "string"
        }
      ],
      "payable": false,
      "stateMutability": "view",
      "type": "function"
    },
    {
      "constant": true,
      "inputs": [],
      "name": "bounty",
      "outputs": [
        {
          "name": "",
          "type": "uint256"
        }
      ],
      "payable": false,
      "stateMutability": "view",
      "type": "function"
    },
    {
      "constant": true,
      "inputs": [],
      "name": "symbol",
      "outputs": [
        {
          "name": "",
          "type": "string"
        }
      ],
      "payable": false,
      "stateMutability": "view",
      "type": "function"
    },
    {
      "constant": false,
      "inputs": [],
      "name": "buyProduct",
      "outputs": [],
      "payable": true,
      "stateMutability": "payable",
      "type": "function"
    },
    {
      "constant": true,
      "inputs": [
        {
          "name": "",
          "type": "address"
        }
      ],
      "name": "influencer2cut",
      "outputs": [
        {
          "name": "",
          "type": "uint256"
        }
      ],
      "payable": false,
      "stateMutability": "view",
      "type": "function"
    },
    {
      "constant": false,
      "inputs": [
        {
          "name": "_to",
          "type": "address"
        },
        {
          "name": "_value",
          "type": "uint256"
        }
      ],
      "name": "transfer",
      "outputs": [
        {
          "name": "",
          "type": "bool"
        }
      ],
      "payable": false,
      "stateMutability": "nonpayable",
      "type": "function"
    },
    {
      "constant": true,
      "inputs": [
        {
          "name": "_from",
          "type": "address"
        }
      ],
      "name": "checkAmountAddressSent",
      "outputs": [
        {
          "name": "",
          "type": "uint256"
        }
      ],
      "payable": false,
      "stateMutability": "view",
      "type": "function"
    },
    {
      "constant": false,
      "inputs": [
        {
          "name": "_converter",
          "type": "address"
        },
        {
          "name": "_assetContract",
          "type": "address"
        },
        {
          "name": "_amount",
          "type": "uint256"
        }
      ],
      "name": "expireEscrow",
      "outputs": [
        {
          "name": "",
          "type": "bool"
        }
      ],
      "payable": false,
      "stateMutability": "nonpayable",
      "type": "function"
    },
    {
      "constant": false,
      "inputs": [
        {
          "name": "_amount",
          "type": "uint256"
        }
      ],
      "name": "redeemTwoKeyToken",
      "outputs": [],
      "payable": false,
      "stateMutability": "nonpayable",
      "type": "function"
    },
    {
      "constant": true,
      "inputs": [],
      "name": "quota",
      "outputs": [
        {
          "name": "",
          "type": "uint256"
        }
      ],
      "payable": false,
      "stateMutability": "view",
      "type": "function"
    },
    {
      "constant": false,
      "inputs": [
        {
          "name": "_public_link_key",
          "type": "address"
        }
      ],
      "name": "setPublicLinkKey",
      "outputs": [],
      "payable": false,
      "stateMutability": "nonpayable",
      "type": "function"
    },
    {
      "constant": false,
      "inputs": [],
      "name": "checkAndUpdateInventoryBalance",
      "outputs": [
        {
          "name": "",
          "type": "uint256"
        }
      ],
      "payable": false,
      "stateMutability": "nonpayable",
      "type": "function"
    },
    {
      "constant": false,
      "inputs": [
        {
          "name": "_spender",
          "type": "address"
        },
        {
          "name": "_addedValue",
          "type": "uint256"
        }
      ],
      "name": "increaseApproval",
      "outputs": [
        {
          "name": "",
          "type": "bool"
        }
      ],
      "payable": false,
      "stateMutability": "nonpayable",
      "type": "function"
    },
    {
      "constant": true,
      "inputs": [
        {
          "name": "last_influencer",
          "type": "address"
        }
      ],
      "name": "getCuts",
      "outputs": [
        {
          "name": "",
          "type": "uint256[]"
        }
      ],
      "payable": false,
      "stateMutability": "view",
      "type": "function"
    },
    {
      "constant": false,
      "inputs": [
        {
          "name": "_from",
          "type": "address"
        },
        {
          "name": "_assetName",
          "type": "string"
        },
        {
          "name": "_assetContract",
          "type": "address"
        },
        {
          "name": "_amount",
          "type": "uint256"
        }
      ],
      "name": "buyFromWithTwoKey",
      "outputs": [],
      "payable": true,
      "stateMutability": "payable",
      "type": "function"
    },
    {
      "constant": true,
      "inputs": [
        {
          "name": "_owner",
          "type": "address"
        },
        {
          "name": "_spender",
          "type": "address"
        }
      ],
      "name": "allowance",
      "outputs": [
        {
          "name": "",
          "type": "uint256"
        }
      ],
      "payable": false,
      "stateMutability": "view",
      "type": "function"
    },
    {
      "constant": false,
      "inputs": [
        {
          "name": "_units",
          "type": "uint256"
        },
        {
          "name": "_bounty",
          "type": "uint256"
        }
      ],
      "name": "updateRefchainRewardsAndConverterProceeds",
      "outputs": [],
      "payable": true,
      "stateMutability": "payable",
      "type": "function"
    },
    {
      "constant": true,
      "inputs": [
        {
          "name": "",
          "type": "address"
        }
      ],
      "name": "conversions",
      "outputs": [
        {
          "name": "from",
          "type": "address"
        },
        {
          "name": "payout",
          "type": "uint256"
        },
        {
          "name": "converter",
          "type": "address"
        },
        {
          "name": "isFulfilled",
          "type": "bool"
        },
        {
          "name": "isCancelled",
          "type": "bool"
        },
        {
          "name": "assetName",
          "type": "string"
        },
        {
          "name": "assetContract",
          "type": "address"
        },
        {
          "name": "amount",
          "type": "uint256"
        },
        {
          "name": "campaignType",
          "type": "uint8"
        },
        {
          "name": "openingTime",
          "type": "uint256"
        },
        {
          "name": "closingTime",
          "type": "uint256"
        }
      ],
      "payable": false,
      "stateMutability": "view",
      "type": "function"
    },
    {
      "constant": false,
      "inputs": [
        {
          "name": "_converter",
          "type": "address"
        },
        {
          "name": "_assetName",
          "type": "string"
        },
        {
          "name": "_assetContract",
          "type": "address"
        },
        {
          "name": "_amount",
          "type": "uint256"
        }
      ],
      "name": "cancelAssetTwoKey",
      "outputs": [
        {
          "name": "",
          "type": "bool"
        }
      ],
      "payable": false,
      "stateMutability": "nonpayable",
      "type": "function"
    },
    {
      "inputs": [
        {
          "name": "_eventSource",
          "type": "address"
        },
        {
          "name": "_economy",
          "type": "address"
        },
        {
          "name": "_whitelistInfluencer",
          "type": "address"
        },
        {
          "name": "_whitelistConverter",
          "type": "address"
        },
        {
          "name": "_contractor",
          "type": "address"
        },
        {
          "name": "_moderator",
          "type": "address"
        },
        {
          "name": "_start",
          "type": "uint256"
        },
        {
          "name": "_duration",
          "type": "uint256"
        },
        {
          "name": "_expiryConversion",
          "type": "uint256"
        },
        {
          "name": "_escrowPrecentage",
          "type": "uint256"
        },
        {
          "name": "_rate",
          "type": "uint256"
        },
        {
          "name": "_maxPi",
          "type": "uint256"
        },
        {
          "name": "_assetContract",
          "type": "address"
        }
      ],
      "payable": false,
      "stateMutability": "nonpayable",
      "type": "constructor"
    },
    {
      "payable": true,
      "stateMutability": "payable",
      "type": "fallback"
    },
    {
      "anonymous": false,
      "inputs": [
        {
          "indexed": true,
          "name": "to",
          "type": "address"
        },
        {
          "indexed": false,
          "name": "units",
          "type": "uint256"
        }
      ],
      "name": "Fulfilled",
      "type": "event"
    },
    {
      "anonymous": false,
      "inputs": [
        {
          "indexed": true,
          "name": "to",
          "type": "address"
        },
        {
          "indexed": false,
          "name": "amount",
          "type": "uint256"
        }
      ],
      "name": "Rewarded",
      "type": "event"
    },
    {
      "anonymous": false,
      "inputs": [
        {
          "indexed": true,
          "name": "_contract",
          "type": "address"
        }
      ],
      "name": "Expired",
      "type": "event"
    },
    {
      "anonymous": false,
      "inputs": [
        {
          "indexed": false,
          "name": "_sender",
          "type": "address"
        },
        {
          "indexed": false,
          "name": "value",
          "type": "uint256"
        }
      ],
      "name": "ReceivedEther",
      "type": "event"
    },
    {
      "anonymous": false,
      "inputs": [
        {
          "indexed": true,
          "name": "owner",
          "type": "address"
        },
        {
          "indexed": true,
          "name": "spender",
          "type": "address"
        },
        {
          "indexed": false,
          "name": "value",
          "type": "uint256"
        }
      ],
      "name": "Approval",
      "type": "event"
    },
    {
      "anonymous": false,
      "inputs": [
        {
          "indexed": true,
          "name": "from",
          "type": "address"
        },
        {
          "indexed": true,
          "name": "to",
          "type": "address"
        },
        {
          "indexed": false,
          "name": "value",
          "type": "uint256"
        }
      ],
      "name": "Transfer",
      "type": "event"
    }
  ],
  "bytecode": "0x6080604052620f42406003556000600d60006101000a81548160ff021916908360ff1602179055503480156200003457600080fd5b506040516101a080620064cf833981018060405281019080805190602001909291908051906020019092919080519060200190929190805190602001909291908051906020019092919080519060200190929190805190602001909291908051906020019092919080519060200190929190805190602001909291908051906020019092919080519060200190929190805190602001909291905050508c8c8c8c8c8c8c8c8c8c8c8c8c8c89600073ffffffffffffffffffffffffffffffffffffffff168273ffffffffffffffffffffffffffffffffffffffff16141515156200011d57600080fd5b80600760006101000a81548173ffffffffffffffffffffffffffffffffffffffff021916908373ffffffffffffffffffffffffffffffffffffffff16021790555081600660006101000a81548173ffffffffffffffffffffffffffffffffffffffff021916908373ffffffffffffffffffffffffffffffffffffffff1602179055505050600073ffffffffffffffffffffffffffffffffffffffff168c73ffffffffffffffffffffffffffffffffffffffff1614151515620001de57600080fd5b600073ffffffffffffffffffffffffffffffffffffffff168b73ffffffffffffffffffffffffffffffffffffffff16141515156200021b57600080fd5b600073ffffffffffffffffffffffffffffffffffffffff168a73ffffffffffffffffffffffffffffffffffffffff16141515156200025857600080fd5b600073ffffffffffffffffffffffffffffffffffffffff168173ffffffffffffffffffffffffffffffffffffffff16141515156200029557600080fd5b600083111515620002a557600080fd5b600082111515620002b557600080fd5b8b601a60006101000a81548173ffffffffffffffffffffffffffffffffffffffff021916908373ffffffffffffffffffffffffffffffffffffffff1602179055508a601b60006101000a81548173ffffffffffffffffffffffffffffffffffffffff021916908373ffffffffffffffffffffffffffffffffffffffff16021790555089601c60006101000a81548173ffffffffffffffffffffffffffffffffffffffff021916908373ffffffffffffffffffffffffffffffffffffffff16021790555080601760006101000a81548173ffffffffffffffffffffffffffffffffffffffff021916908373ffffffffffffffffffffffffffffffffffffffff16021790555087602160006101000a81548173ffffffffffffffffffffffffffffffffffffffff021916908373ffffffffffffffffffffffffffffffffffffffff16021790555086601f8190555085602081905550846022819055508360238190555081602481905550600660009054906101000a900473ffffffffffffffffffffffffffffffffffffffff1673ffffffffffffffffffffffffffffffffffffffff16631d18658430600760009054906101000a900473ffffffffffffffffffffffffffffffffffffffff166040518363ffffffff167c0100000000000000000000000000000000000000000000000000000000028152600401808373ffffffffffffffffffffffffffffffffffffffff1673ffffffffffffffffffffffffffffffffffffffff1681526020018273ffffffffffffffffffffffffffffffffffffffff1673ffffffffffffffffffffffffffffffffffffffff16815260200192505050600060405180830381600087803b1580156200053157600080fd5b505af115801562000546573d6000803e3d6000fd5b505050505050505050505050505050505050505050505050505050505050615f5b80620005746000396000f3006080604052600436106101e2576000357c0100000000000000000000000000000000000000000000000000000000900463ffffffff168062eba350146102ab57806306fdde0314610302578063095ea7b31461039257806311abc0ca146103f757806312d0ba911461045c57806313faede6146104b357806314b1adee146104de57806318160ddd146105855780631b781a8b146105b057806323b872dd146106195780632d376e941461069e578063313ce5671461072157806332c9b18314610752578063383d0d06146107a9578063442e97dd1461082c5780634d77c9c8146108b157806366188463146108dc5780636f9fb98a1461094157806370a082311461096c578063714cf66b146109c3578063809051db14610a08578063943dfef114610a9857806395d89b4114610ac35780639ada9b7b14610b535780639dc464ae14610b5d578063a9059cbb14610bb4578063b22e8eb614610c19578063c15efea314610c70578063cacb670814610cf5578063cebe09c914610d22578063d1ec779f14610d4d578063d4d2805614610d90578063d73dd62314610dbb578063d851b22914610e20578063dca6bcdc14610eb8578063dd62ed3e14610f5e578063dfa54f6614610fd5578063e59f041214610fff578063ff3e6f291461119b575b6000341115156101f157600080fd5b34601460003373ffffffffffffffffffffffffffffffffffffffff1673ffffffffffffffffffffffffffffffffffffffff168152602001908152602001600020600082825401925050819055507fa419615bc8fda4c87663805ee2a3597a6d71c1d476911d9892f340d965bc7bf13334604051808373ffffffffffffffffffffffffffffffffffffffff1673ffffffffffffffffffffffffffffffffffffffff1681526020018281526020019250505060405180910390a1005b3480156102b757600080fd5b506102ec600480360381019080803573ffffffffffffffffffffffffffffffffffffffff169060200190929190505050611266565b6040518082815260200191505060405180910390f35b34801561030e57600080fd5b5061031761127e565b6040518080602001828103825283818151815260200191508051906020019080838360005b8381101561035757808201518184015260208101905061033c565b50505050905090810190601f1680156103845780820380516001836020036101000a031916815260200191505b509250505060405180910390f35b34801561039e57600080fd5b506103dd600480360381019080803573ffffffffffffffffffffffffffffffffffffffff1690602001909291908035906020019092919050505061131c565b604051808215151515815260200191505060405180910390f35b34801561040357600080fd5b50610442600480360381019080803573ffffffffffffffffffffffffffffffffffffffff1690602001909291908035906020019092919050505061140e565b604051808215151515815260200191505060405180910390f35b34801561046857600080fd5b506104b160048036038101908080359060200190929190803573ffffffffffffffffffffffffffffffffffffffff16906020019092919080359060200190929190505050611663565b005b3480156104bf57600080fd5b506104c8611a2d565b6040518082815260200191505060405180910390f35b3480156104ea57600080fd5b5061056f600480360381019080803573ffffffffffffffffffffffffffffffffffffffff169060200190929190803590602001908201803590602001908080601f016020809104026020016040519081016040528093929190818152602001838380828437820191505050505050919291929080359060200190929190505050611a33565b6040518082815260200191505060405180910390f35b34801561059157600080fd5b5061059a611ad7565b6040518082815260200191505060405180910390f35b3480156105bc57600080fd5b50610617600480360381019080803590602001908201803590602001908080601f0160208091040260200160405190810160405280939291908181526020018383808284378201915050505050509192919290505050611ae1565b005b34801561062557600080fd5b50610684600480360381019080803573ffffffffffffffffffffffffffffffffffffffff169060200190929190803573ffffffffffffffffffffffffffffffffffffffff1690602001909291908035906020019092919050505061210f565b604051808215151515815260200191505060405180910390f35b3480156106aa57600080fd5b506106df600480360381019080803573ffffffffffffffffffffffffffffffffffffffff1690602001909291905050506124b1565b604051808273ffffffffffffffffffffffffffffffffffffffff1673ffffffffffffffffffffffffffffffffffffffff16815260200191505060405180910390f35b34801561072d57600080fd5b506107366124e4565b604051808260ff1660ff16815260200191505060405180910390f35b34801561075e57600080fd5b506107676124f7565b604051808273ffffffffffffffffffffffffffffffffffffffff1673ffffffffffffffffffffffffffffffffffffffff16815260200191505060405180910390f35b3480156107b557600080fd5b506107ea600480360381019080803573ffffffffffffffffffffffffffffffffffffffff169060200190929190505050612521565b604051808273ffffffffffffffffffffffffffffffffffffffff1673ffffffffffffffffffffffffffffffffffffffff16815260200191505060405180910390f35b34801561083857600080fd5b50610897600480360381019080803573ffffffffffffffffffffffffffffffffffffffff169060200190929190803573ffffffffffffffffffffffffffffffffffffffff16906020019092919080359060200190929190505050612554565b604051808215151515815260200191505060405180910390f35b3480156108bd57600080fd5b506108c6612944565b6040518082815260200191505060405180910390f35b3480156108e857600080fd5b50610927600480360381019080803573ffffffffffffffffffffffffffffffffffffffff169060200190929190803590602001909291905050506129c8565b604051808215151515815260200191505060405180910390f35b34801561094d57600080fd5b50610956612c5a565b6040518082815260200191505060405180910390f35b34801561097857600080fd5b506109ad600480360381019080803573ffffffffffffffffffffffffffffffffffffffff169060200190929190505050612c64565b6040518082815260200191505060405180910390f35b3480156109cf57600080fd5b506109ee60048036038101908080359060200190929190505050612cac565b604051808215151515815260200191505060405180910390f35b348015610a1457600080fd5b50610a1d612e3a565b6040518080602001828103825283818151815260200191508051906020019080838360005b83811015610a5d578082015181840152602081019050610a42565b50505050905090810190601f168015610a8a5780820380516001836020036101000a031916815260200191505b509250505060405180910390f35b348015610aa457600080fd5b50610aad612ed8565b6040518082815260200191505060405180910390f35b348015610acf57600080fd5b50610ad8612ede565b6040518080602001828103825283818151815260200191508051906020019080838360005b83811015610b18578082015181840152602081019050610afd565b50505050905090810190601f168015610b455780820380516001836020036101000a031916815260200191505b509250505060405180910390f35b610b5b612f7c565b005b348015610b6957600080fd5b50610b9e600480360381019080803573ffffffffffffffffffffffffffffffffffffffff16906020019092919050505061310a565b6040518082815260200191505060405180910390f35b348015610bc057600080fd5b50610bff600480360381019080803573ffffffffffffffffffffffffffffffffffffffff16906020019092919080359060200190929190505050613122565b604051808215151515815260200191505060405180910390f35b348015610c2557600080fd5b50610c5a600480360381019080803573ffffffffffffffffffffffffffffffffffffffff169060200190929190505050613404565b6040518082815260200191505060405180910390f35b348015610c7c57600080fd5b50610cdb600480360381019080803573ffffffffffffffffffffffffffffffffffffffff169060200190929190803573ffffffffffffffffffffffffffffffffffffffff1690602001909291908035906020019092919050505061344d565b604051808215151515815260200191505060405180910390f35b348015610d0157600080fd5b50610d2060048036038101908080359060200190929190505050613760565b005b348015610d2e57600080fd5b50610d37613987565b6040518082815260200191505060405180910390f35b348015610d5957600080fd5b50610d8e600480360381019080803573ffffffffffffffffffffffffffffffffffffffff16906020019092919050505061398d565b005b348015610d9c57600080fd5b50610da5613abf565b6040518082815260200191505060405180910390f35b348015610dc757600080fd5b50610e06600480360381019080803573ffffffffffffffffffffffffffffffffffffffff16906020019092919080359060200190929190505050613ada565b604051808215151515815260200191505060405180910390f35b348015610e2c57600080fd5b50610e61600480360381019080803573ffffffffffffffffffffffffffffffffffffffff169060200190929190505050613cd6565b6040518080602001828103825283818151815260200191508051906020019060200280838360005b83811015610ea4578082015181840152602081019050610e89565b505050509050019250505060405180910390f35b610f5c600480360381019080803573ffffffffffffffffffffffffffffffffffffffff169060200190929190803590602001908201803590602001908080601f0160208091040260200160405190810160405280939291908181526020018383808284378201915050505050509192919290803573ffffffffffffffffffffffffffffffffffffffff16906020019092919080359060200190929190505050613e19565b005b348015610f6a57600080fd5b50610fbf600480360381019080803573ffffffffffffffffffffffffffffffffffffffff169060200190929190803573ffffffffffffffffffffffffffffffffffffffff169060200190929190505050613e2b565b6040518082815260200191505060405180910390f35b610ffd6004803603810190808035906020019092919080359060200190929190505050613eb2565b005b34801561100b57600080fd5b50611040600480360381019080803573ffffffffffffffffffffffffffffffffffffffff169060200190929190505050614279565b604051808c73ffffffffffffffffffffffffffffffffffffffff1673ffffffffffffffffffffffffffffffffffffffff1681526020018b81526020018a73ffffffffffffffffffffffffffffffffffffffff1673ffffffffffffffffffffffffffffffffffffffff1681526020018915151515815260200188151515158152602001806020018773ffffffffffffffffffffffffffffffffffffffff1673ffffffffffffffffffffffffffffffffffffffff16815260200186815260200185600781111561110a57fe5b60ff168152602001848152602001838152602001828103825288818151815260200191508051906020019080838360005b8381101561115657808201518184015260208101905061113b565b50505050905090810190601f1680156111835780820380516001836020036101000a031916815260200191505b509c5050505050505050505050505060405180910390f35b3480156111a757600080fd5b5061124c600480360381019080803573ffffffffffffffffffffffffffffffffffffffff169060200190929190803590602001908201803590602001908080601f0160208091040260200160405190810160405280939291908181526020018383808284378201915050505050509192919290803573ffffffffffffffffffffffffffffffffffffffff169060200190929190803590602001909291905050506143f2565b604051808215151515815260200191505060405180910390f35b60156020528060005260406000206000915090505481565b600a8054600181600116156101000203166002900480601f0160208091040260200160405190810160405280929190818152602001828054600181600116156101000203166002900480156113145780601f106112e957610100808354040283529160200191611314565b820191906000526020600020905b8154815290600101906020018083116112f757829003601f168201915b505050505081565b600081600260003373ffffffffffffffffffffffffffffffffffffffff1673ffffffffffffffffffffffffffffffffffffffff16815260200190815260200160002060008573ffffffffffffffffffffffffffffffffffffffff1673ffffffffffffffffffffffffffffffffffffffff168152602001908152602001600020819055508273ffffffffffffffffffffffffffffffffffffffff163373ffffffffffffffffffffffffffffffffffffffff167f8c5be1e5ebec7d5bd14f71427d1e84f3dd0314c0f7b2291e5b200ac8c7c3b925846040518082815260200191505060405180910390a36001905092915050565b60008073ffffffffffffffffffffffffffffffffffffffff168373ffffffffffffffffffffffffffffffffffffffff161415151561144b57600080fd5b6000803373ffffffffffffffffffffffffffffffffffffffff1673ffffffffffffffffffffffffffffffffffffffff16815260200190815260200160002054821115151561149857600080fd5b6114e9826000803373ffffffffffffffffffffffffffffffffffffffff1673ffffffffffffffffffffffffffffffffffffffff1681526020019081526020016000205461487990919063ffffffff16565b6000803373ffffffffffffffffffffffffffffffffffffffff1673ffffffffffffffffffffffffffffffffffffffff1681526020019081526020016000208190555061158060085483026000808673ffffffffffffffffffffffffffffffffffffffff1673ffffffffffffffffffffffffffffffffffffffff1681526020019081526020016000205461489290919063ffffffff16565b6000808573ffffffffffffffffffffffffffffffffffffffff1673ffffffffffffffffffffffffffffffffffffffff168152602001908152602001600020819055506115ee6115dd600160085403846148ae90919063ffffffff16565b60035461489290919063ffffffff16565b6003819055508273ffffffffffffffffffffffffffffffffffffffff163373ffffffffffffffffffffffffffffffffffffffff167fddf252ad1be2c89b69c2b068fc378daa952ba7f163c4a11628f55a4df523b3ef846040518082815260200191505060405180910390a36001905092915050565b601c60009054906101000a900473ffffffffffffffffffffffffffffffffffffffff1673ffffffffffffffffffffffffffffffffffffffff16633af32abf336040518263ffffffff167c0100000000000000000000000000000000000000000000000000000000028152600401808273ffffffffffffffffffffffffffffffffffffffff1673ffffffffffffffffffffffffffffffffffffffff168152602001915050602060405180830381600087803b15801561172057600080fd5b505af1158015611734573d6000803e3d6000fd5b505050506040513d602081101561174a57600080fd5b8101908080519060200190929190505050151561176657600080fd5b61176e615dde565b601260003373ffffffffffffffffffffffffffffffffffffffff1673ffffffffffffffffffffffffffffffffffffffff16815260200190815260200160002061016060405190810160405290816000820160009054906101000a900473ffffffffffffffffffffffffffffffffffffffff1673ffffffffffffffffffffffffffffffffffffffff1673ffffffffffffffffffffffffffffffffffffffff168152602001600182015481526020016002820160009054906101000a900473ffffffffffffffffffffffffffffffffffffffff1673ffffffffffffffffffffffffffffffffffffffff1673ffffffffffffffffffffffffffffffffffffffff1681526020016002820160149054906101000a900460ff161515151581526020016002820160159054906101000a900460ff16151515158152602001600382018054600181600116156101000203166002900480601f01602080910402602001604051908101604052809291908181526020018280546001816001161561010002031660029004801561193f5780601f106119145761010080835404028352916020019161193f565b820191906000526020600020905b81548152906001019060200180831161192257829003601f168201915b505050505081526020016004820160009054906101000a900473ffffffffffffffffffffffffffffffffffffffff1673ffffffffffffffffffffffffffffffffffffffff1673ffffffffffffffffffffffffffffffffffffffff168152602001600582015481526020016006820160009054906101000a900460ff1660078111156119c657fe5b60078111156119d157fe5b815260200160078201548152602001600882015481525050905080606001511580156119ff57508060800151155b1515611a0a57600080fd5b611a126148e6565b611a1c3383615063565b1515611a2757600080fd5b50505050565b600e5481565b600080836040518082805190602001908083835b602083101515611a6c5780518252602082019150602081019050602083039250611a47565b6001836020036101000a0380198251168184511680821785525050505050509050019150506040518091039020905060405181815283600482015260208160248360008a613a98f16000811415611ac257600080fd5b81519350602482016040525050509392505050565b6000600154905090565b6000806000806000806000806000806000809a508b5160148c01111515611b0f5760148b019a508a8c015199505b602560008b73ffffffffffffffffffffffffffffffffffffffff1673ffffffffffffffffffffffffffffffffffffffff16815260200190815260200160002060009054906101000a900473ffffffffffffffffffffffffffffffffffffffff169850600073ffffffffffffffffffffffffffffffffffffffff168973ffffffffffffffffffffffffffffffffffffffff1614151515611bad57600080fd5b5b8b5160418c011115156121015760208b019a508a8c0151975060208b019a508a8c0151965060018b019a508a8c015195508b5160298c011015611e3d5760018b019a508a8c0151915060008260ff16111515611c0957600080fd5b60148b019a508a8c0151925060148b019a508a8c015193506000601360008573ffffffffffffffffffffffffffffffffffffffff1673ffffffffffffffffffffffffffffffffffffffff168152602001908152602001600020541415611cb5578160ff16601360008573ffffffffffffffffffffffffffffffffffffffff1673ffffffffffffffffffffffffffffffffffffffff16815260200190815260200160002081905550611d06565b8160ff16601360008573ffffffffffffffffffffffffffffffffffffffff1673ffffffffffffffffffffffffffffffffffffffff16815260200190815260200160002054141515611d0557600080fd5b5b818484604051602001808460ff1660ff167f01000000000000000000000000000000000000000000000000000000000000000281526001018373ffffffffffffffffffffffffffffffffffffffff1673ffffffffffffffffffffffffffffffffffffffff166c010000000000000000000000000281526014018273ffffffffffffffffffffffffffffffffffffffff1673ffffffffffffffffffffffffffffffffffffffff166c0100000000000000000000000002815260140193505050506040516020818303038152906040526040518082805190602001908083835b602083101515611e095780518252602082019150602081019050602083039250611de4565b6001836020036101000a03801982511681845116808217855250505050505090500191505060405180910390209450611f0f565b8b518b141515611e4c57600080fd5b33925082604051602001808273ffffffffffffffffffffffffffffffffffffffff1673ffffffffffffffffffffffffffffffffffffffff166c010000000000000000000000000281526014019150506040516020818303038152906040526040518082805190602001908083835b602083101515611edf5780518252602082019150602081019050602083039250611eba565b6001836020036101000a038019825116818451168082178552505050505050905001915050604051809103902094505b6000600960008573ffffffffffffffffffffffffffffffffffffffff1673ffffffffffffffffffffffffffffffffffffffff16815260200190815260200160002060009054906101000a900473ffffffffffffffffffffffffffffffffffffffff1673ffffffffffffffffffffffffffffffffffffffff161415611f9f57611f998a84600161210f565b50612039565b8973ffffffffffffffffffffffffffffffffffffffff16600960008573ffffffffffffffffffffffffffffffffffffffff1673ffffffffffffffffffffffffffffffffffffffff16815260200190815260200160002060009054906101000a900473ffffffffffffffffffffffffffffffffffffffff1673ffffffffffffffffffffffffffffffffffffffff1614151561203857600080fd5b5b600185878a8a604051600081526020016040526040518085600019166000191681526020018460ff1660ff1681526020018360001916600019168152602001826000191660001916815260200194505050505060206040516020810390808403906000865af11580156120b0573d6000803e3d6000fd5b5050506020604051035190508873ffffffffffffffffffffffffffffffffffffffff168173ffffffffffffffffffffffffffffffffffffffff161415156120f657600080fd5b839850829950611bae565b505050505050505050505050565b600080600960008573ffffffffffffffffffffffffffffffffffffffff1673ffffffffffffffffffffffffffffffffffffffff16815260200190815260200160002060009054906101000a900473ffffffffffffffffffffffffffffffffffffffff1673ffffffffffffffffffffffffffffffffffffffff1614151561219457600080fd5b600073ffffffffffffffffffffffffffffffffffffffff168473ffffffffffffffffffffffffffffffffffffffff16141515156121d057600080fd5b6001600260008673ffffffffffffffffffffffffffffffffffffffff1673ffffffffffffffffffffffffffffffffffffffff16815260200190815260200160002060003373ffffffffffffffffffffffffffffffffffffffff1673ffffffffffffffffffffffffffffffffffffffff1681526020019081526020016000208190555061225d848484612554565b156124a5576000600960008573ffffffffffffffffffffffffffffffffffffffff1673ffffffffffffffffffffffffffffffffffffffff16815260200190815260200160002060009054906101000a900473ffffffffffffffffffffffffffffffffffffffff1673ffffffffffffffffffffffffffffffffffffffff16141561241e57600660009054906101000a900473ffffffffffffffffffffffffffffffffffffffff1673ffffffffffffffffffffffffffffffffffffffff16638af1cbb93086866040518463ffffffff167c0100000000000000000000000000000000000000000000000000000000028152600401808473ffffffffffffffffffffffffffffffffffffffff1673ffffffffffffffffffffffffffffffffffffffff1681526020018373ffffffffffffffffffffffffffffffffffffffff1673ffffffffffffffffffffffffffffffffffffffff1681526020018273ffffffffffffffffffffffffffffffffffffffff1673ffffffffffffffffffffffffffffffffffffffff1681526020019350505050600060405180830381600087803b15801561240557600080fd5b505af1158015612419573d6000803e3d6000fd5b505050505b83600960008573ffffffffffffffffffffffffffffffffffffffff1673ffffffffffffffffffffffffffffffffffffffff16815260200190815260200160002060006101000a81548173ffffffffffffffffffffffffffffffffffffffff021916908373ffffffffffffffffffffffffffffffffffffffff160217905550600190506124aa565b600090505b9392505050565b60096020528060005260406000206000915054906101000a900473ffffffffffffffffffffffffffffffffffffffff1681565b600d60009054906101000a900460ff1681565b6000601760009054906101000a900473ffffffffffffffffffffffffffffffffffffffff16905090565b60256020528060005260406000206000915054906101000a900473ffffffffffffffffffffffffffffffffffffffff1681565b60008073ffffffffffffffffffffffffffffffffffffffff168373ffffffffffffffffffffffffffffffffffffffff161415151561259157600080fd5b6000808573ffffffffffffffffffffffffffffffffffffffff1673ffffffffffffffffffffffffffffffffffffffff1681526020019081526020016000205482111515156125de57600080fd5b600260008573ffffffffffffffffffffffffffffffffffffffff1673ffffffffffffffffffffffffffffffffffffffff16815260200190815260200160002060003373ffffffffffffffffffffffffffffffffffffffff1673ffffffffffffffffffffffffffffffffffffffff16815260200190815260200160002054821115151561266957600080fd5b6126ba826000808773ffffffffffffffffffffffffffffffffffffffff1673ffffffffffffffffffffffffffffffffffffffff1681526020019081526020016000205461487990919063ffffffff16565b6000808673ffffffffffffffffffffffffffffffffffffffff1673ffffffffffffffffffffffffffffffffffffffff1681526020019081526020016000208190555061275160085483026000808673ffffffffffffffffffffffffffffffffffffffff1673ffffffffffffffffffffffffffffffffffffffff1681526020019081526020016000205461489290919063ffffffff16565b6000808573ffffffffffffffffffffffffffffffffffffffff1673ffffffffffffffffffffffffffffffffffffffff168152602001908152602001600020819055506127bf6127ae600160085403846148ae90919063ffffffff16565b60035461489290919063ffffffff16565b60038190555061285482600260008773ffffffffffffffffffffffffffffffffffffffff1673ffffffffffffffffffffffffffffffffffffffff16815260200190815260200160002060003373ffffffffffffffffffffffffffffffffffffffff1673ffffffffffffffffffffffffffffffffffffffff1681526020019081526020016000205461487990919063ffffffff16565b600260008673ffffffffffffffffffffffffffffffffffffffff1673ffffffffffffffffffffffffffffffffffffffff16815260200190815260200160002060003373ffffffffffffffffffffffffffffffffffffffff1673ffffffffffffffffffffffffffffffffffffffff168152602001908152602001600020819055508273ffffffffffffffffffffffffffffffffffffffff168473ffffffffffffffffffffffffffffffffffffffff167fddf252ad1be2c89b69c2b068fc378daa952ba7f163c4a11628f55a4df523b3ef846040518082815260200191505060405180910390a3600190509392505050565b6000806129bf601760009054906101000a900473ffffffffffffffffffffffffffffffffffffffff166040805190810160405280601281526020017f62616c616e63654f6628616464726573732900000000000000000000000000008152503073ffffffffffffffffffffffffffffffffffffffff16611a33565b90508091505090565b600080600260003373ffffffffffffffffffffffffffffffffffffffff1673ffffffffffffffffffffffffffffffffffffffff16815260200190815260200160002060008573ffffffffffffffffffffffffffffffffffffffff1673ffffffffffffffffffffffffffffffffffffffff1681526020019081526020016000205490508083101515612ada576000600260003373ffffffffffffffffffffffffffffffffffffffff1673ffffffffffffffffffffffffffffffffffffffff16815260200190815260200160002060008673ffffffffffffffffffffffffffffffffffffffff1673ffffffffffffffffffffffffffffffffffffffff16815260200190815260200160002081905550612b6e565b612aed838261487990919063ffffffff16565b600260003373ffffffffffffffffffffffffffffffffffffffff1673ffffffffffffffffffffffffffffffffffffffff16815260200190815260200160002060008673ffffffffffffffffffffffffffffffffffffffff1673ffffffffffffffffffffffffffffffffffffffff168152602001908152602001600020819055505b8373ffffffffffffffffffffffffffffffffffffffff163373ffffffffffffffffffffffffffffffffffffffff167f8c5be1e5ebec7d5bd14f71427d1e84f3dd0314c0f7b2291e5b200ac8c7c3b925600260003373ffffffffffffffffffffffffffffffffffffffff1673ffffffffffffffffffffffffffffffffffffffff16815260200190815260200160002060008873ffffffffffffffffffffffffffffffffffffffff1673ffffffffffffffffffffffffffffffffffffffff168152602001908152602001600020546040518082815260200191505060405180910390a3600191505092915050565b6000601654905090565b60008060008373ffffffffffffffffffffffffffffffffffffffff1673ffffffffffffffffffffffffffffffffffffffff168152602001908152602001600020549050919050565b6000601760009054906101000a900473ffffffffffffffffffffffffffffffffffffffff1673ffffffffffffffffffffffffffffffffffffffff1660405180807f7472616e7366657246726f6d28616464726573732c616464726573732c75696e81526020017f7432353629000000000000000000000000000000000000000000000000000000815250602501905060405180910390207c010000000000000000000000000000000000000000000000000000000090043330856040518463ffffffff167c0100000000000000000000000000000000000000000000000000000000028152600401808473ffffffffffffffffffffffffffffffffffffffff1673ffffffffffffffffffffffffffffffffffffffff1681526020018373ffffffffffffffffffffffffffffffffffffffff1673ffffffffffffffffffffffffffffffffffffffff16815260200182815260200193505050506000604051808303816000875af1925050501515612e2157600080fd5b8160166000828254019250508190555060019050919050565b600b8054600181600116156101000203166002900480601f016020809104026020016040519081016040528092919081815260200182805460018160011615610100020316600290048015612ed05780601f10612ea557610100808354040283529160200191612ed0565b820191906000526020600020905b815481529060010190602001808311612eb357829003601f168201915b505050505081565b600f5481565b600c8054600181600116156101000203166002900480601f016020809104026020016040519081016040528092919081815260200182805460018160011615610100020316600290048015612f745780601f10612f4957610100808354040283529160200191612f74565b820191906000526020600020905b815481529060010190602001808311612f5757829003601f168201915b505050505081565b6000806012601181905550612fb3600e54612fa5601154600a0a346148ae90919063ffffffff16565b61507790919063ffffffff16565b9150612fe1601154600a0a612fd384600f546148ae90919063ffffffff16565b61507790919063ffffffff16565b9050612fed8282613eb2565b601760009054906101000a900473ffffffffffffffffffffffffffffffffffffffff1673ffffffffffffffffffffffffffffffffffffffff1660405180807f7472616e7366657228616464726573732c75696e743235362900000000000000815250601901905060405180910390207c0100000000000000000000000000000000000000000000000000000000900433846040518363ffffffff167c0100000000000000000000000000000000000000000000000000000000028152600401808373ffffffffffffffffffffffffffffffffffffffff1673ffffffffffffffffffffffffffffffffffffffff168152602001828152602001925050506000604051808303816000875af192505050151561310657600080fd5b5050565b60136020528060005260406000206000915090505481565b600080600960008573ffffffffffffffffffffffffffffffffffffffff1673ffffffffffffffffffffffffffffffffffffffff16815260200190815260200160002060009054906101000a900473ffffffffffffffffffffffffffffffffffffffff1673ffffffffffffffffffffffffffffffffffffffff161415156131a757600080fd5b6131b1838361140e565b156133f9576000600960008573ffffffffffffffffffffffffffffffffffffffff1673ffffffffffffffffffffffffffffffffffffffff16815260200190815260200160002060009054906101000a900473ffffffffffffffffffffffffffffffffffffffff1673ffffffffffffffffffffffffffffffffffffffff16141561337257600660009054906101000a900473ffffffffffffffffffffffffffffffffffffffff1673ffffffffffffffffffffffffffffffffffffffff16638af1cbb93033866040518463ffffffff167c0100000000000000000000000000000000000000000000000000000000028152600401808473ffffffffffffffffffffffffffffffffffffffff1673ffffffffffffffffffffffffffffffffffffffff1681526020018373ffffffffffffffffffffffffffffffffffffffff1673ffffffffffffffffffffffffffffffffffffffff1681526020018273ffffffffffffffffffffffffffffffffffffffff1673ffffffffffffffffffffffffffffffffffffffff1681526020019350505050600060405180830381600087803b15801561335957600080fd5b505af115801561336d573d6000803e3d6000fd5b505050505b33600960008573ffffffffffffffffffffffffffffffffffffffff1673ffffffffffffffffffffffffffffffffffffffff16815260200190815260200160002060006101000a81548173ffffffffffffffffffffffffffffffffffffffff021916908373ffffffffffffffffffffffffffffffffffffffff160217905550600190506133fe565b600090505b92915050565b6000601460008373ffffffffffffffffffffffffffffffffffffffff1673ffffffffffffffffffffffffffffffffffffffff168152602001908152602001600020549050919050565b6000613457615dde565b601260008673ffffffffffffffffffffffffffffffffffffffff1673ffffffffffffffffffffffffffffffffffffffff16815260200190815260200160002061016060405190810160405290816000820160009054906101000a900473ffffffffffffffffffffffffffffffffffffffff1673ffffffffffffffffffffffffffffffffffffffff1673ffffffffffffffffffffffffffffffffffffffff168152602001600182015481526020016002820160009054906101000a900473ffffffffffffffffffffffffffffffffffffffff1673ffffffffffffffffffffffffffffffffffffffff1673ffffffffffffffffffffffffffffffffffffffff1681526020016002820160149054906101000a900460ff161515151581526020016002820160159054906101000a900460ff16151515158152602001600382018054600181600116156101000203166002900480601f0160208091040260200160405190810160405280929190818152602001828054600181600116156101000203166002900480156136285780601f106135fd57610100808354040283529160200191613628565b820191906000526020600020905b81548152906001019060200180831161360b57829003601f168201915b505050505081526020016004820160009054906101000a900473ffffffffffffffffffffffffffffffffffffffff1673ffffffffffffffffffffffffffffffffffffffff1673ffffffffffffffffffffffffffffffffffffffff168152602001600582015481526020016006820160009054906101000a900460ff1660078111156136af57fe5b60078111156136ba57fe5b815260200160078201548152602001600882015481525050905080608001511580156136e857508060600151155b15156136f357600080fd5b8061014001514211151561370657600080fd5b61371185858561508d565b3073ffffffffffffffffffffffffffffffffffffffff167fd5669ebe8b90ed693033f1915dcea031e7a16a6f146a8326c02eec10eed77edd60405160405180910390a260019150509392505050565b80600460003373ffffffffffffffffffffffffffffffffffffffff1673ffffffffffffffffffffffffffffffffffffffff16815260200190815260200160002054101580156137af5750600081115b15156137ba57600080fd5b61380c81600460003373ffffffffffffffffffffffffffffffffffffffff1673ffffffffffffffffffffffffffffffffffffffff1681526020019081526020016000205461487990919063ffffffff16565b600460003373ffffffffffffffffffffffffffffffffffffffff1673ffffffffffffffffffffffffffffffffffffffff16815260200190815260200160002081905550601a60009054906101000a900473ffffffffffffffffffffffffffffffffffffffff1673ffffffffffffffffffffffffffffffffffffffff166323b872dd3033846040518463ffffffff167c0100000000000000000000000000000000000000000000000000000000028152600401808473ffffffffffffffffffffffffffffffffffffffff1673ffffffffffffffffffffffffffffffffffffffff1681526020018373ffffffffffffffffffffffffffffffffffffffff1673ffffffffffffffffffffffffffffffffffffffff1681526020018281526020019350505050602060405180830381600087803b15801561394857600080fd5b505af115801561395c573d6000803e3d6000fd5b505050506040513d602081101561397257600080fd5b81019080805190602001909291905050505050565b60105481565b600061399833612c64565b1115156139a457600080fd5b600073ffffffffffffffffffffffffffffffffffffffff16602560003373ffffffffffffffffffffffffffffffffffffffff1673ffffffffffffffffffffffffffffffffffffffff16815260200190815260200160002060009054906101000a900473ffffffffffffffffffffffffffffffffffffffff1673ffffffffffffffffffffffffffffffffffffffff16141515613a3e57600080fd5b80602560003373ffffffffffffffffffffffffffffffffffffffff1673ffffffffffffffffffffffffffffffffffffffff16815260200190815260200160002060006101000a81548173ffffffffffffffffffffffffffffffffffffffff021916908373ffffffffffffffffffffffffffffffffffffffff16021790555050565b600080613aca612944565b9050806016819055508091505090565b6000613b6b82600260003373ffffffffffffffffffffffffffffffffffffffff1673ffffffffffffffffffffffffffffffffffffffff16815260200190815260200160002060008673ffffffffffffffffffffffffffffffffffffffff1673ffffffffffffffffffffffffffffffffffffffff1681526020019081526020016000205461489290919063ffffffff16565b600260003373ffffffffffffffffffffffffffffffffffffffff1673ffffffffffffffffffffffffffffffffffffffff16815260200190815260200160002060008573ffffffffffffffffffffffffffffffffffffffff1673ffffffffffffffffffffffffffffffffffffffff168152602001908152602001600020819055508273ffffffffffffffffffffffffffffffffffffffff163373ffffffffffffffffffffffffffffffffffffffff167f8c5be1e5ebec7d5bd14f71427d1e84f3dd0314c0f7b2291e5b200ac8c7c3b925600260003373ffffffffffffffffffffffffffffffffffffffff1673ffffffffffffffffffffffffffffffffffffffff16815260200190815260200160002060008773ffffffffffffffffffffffffffffffffffffffff1673ffffffffffffffffffffffffffffffffffffffff168152602001908152602001600020546040518082815260200191505060405180910390a36001905092915050565b6060806060600080613ce78661561f565b93506001845101604051908082528060200260200182016040528015613d1c5781602001602082028038833980820191505090505b509250600091505b8351821015613db0578382815181101515613d3b57fe5b906020019060200201519050601360008273ffffffffffffffffffffffffffffffffffffffff1673ffffffffffffffffffffffffffffffffffffffff168152602001908152602001600020548383815181101515613d9557fe5b90602001906020020181815250508180600101925050613d24565b601360008773ffffffffffffffffffffffffffffffffffffffff1673ffffffffffffffffffffffffffffffffffffffff16815260200190815260200160002054838551815181101515613dff57fe5b906020019060200201818152505082945050505050919050565b613e2584848484615804565b50505050565b6000600260008473ffffffffffffffffffffffffffffffffffffffff1673ffffffffffffffffffffffffffffffffffffffff16815260200190815260200160002060008373ffffffffffffffffffffffffffffffffffffffff1673ffffffffffffffffffffffffffffffffffffffff16815260200190815260200160002054905092915050565b600080600060606000806000806000339850613ecd89612c64565b9750600088111515613ede57600080fd5b613ee6612944565b965060008b111515613ef757600080fd5b8a8710151515613f0657600080fd5b613f0f8961561f565b955060009450600093505b855184101561411d578584815181101515613f3157fe5b9060200190602002015192506001865103841415613f5157899150614003565b601360008473ffffffffffffffffffffffffffffffffffffffff1673ffffffffffffffffffffffffffffffffffffffff168152602001908152602001600020549050600081118015613fa4575060658111155b15613fe957613fe26064613fd4613fc560018561487990919063ffffffff16565b8d6148ae90919063ffffffff16565b61507790919063ffffffff16565b9150614002565b613fff848751038b61507790919063ffffffff16565b91505b5b61405582600560008673ffffffffffffffffffffffffffffffffffffffff1673ffffffffffffffffffffffffffffffffffffffff1681526020019081526020016000205461489290919063ffffffff16565b600560008573ffffffffffffffffffffffffffffffffffffffff1673ffffffffffffffffffffffffffffffffffffffff168152602001908152602001600020819055508273ffffffffffffffffffffffffffffffffffffffff167fb3b7a071186534c03b40695710096f289fd4ed6c1a374aff0bb648955e4fe563836040518082815260200191505060405180910390a26140f9828661489290919063ffffffff16565b945061410e828b61487990919063ffffffff16565b99508380600101945050613f1a565b614144856141363460195461489290919063ffffffff16565b61487990919063ffffffff16565b60198190555061419c8b601560008c73ffffffffffffffffffffffffffffffffffffffff1673ffffffffffffffffffffffffffffffffffffffff1681526020019081526020016000205461489290919063ffffffff16565b601560008b73ffffffffffffffffffffffffffffffffffffffff1673ffffffffffffffffffffffffffffffffffffffff168152602001908152602001600020819055508873ffffffffffffffffffffffffffffffffffffffff167f6f48e292651bd1d141885ed3aa208544a172f61dce0faf20bf98d87e15f558f6601560008c73ffffffffffffffffffffffffffffffffffffffff1673ffffffffffffffffffffffffffffffffffffffff168152602001908152602001600020546040518082815260200191505060405180910390a25050505050505050505050565b60126020528060005260406000206000915090508060000160009054906101000a900473ffffffffffffffffffffffffffffffffffffffff16908060010154908060020160009054906101000a900473ffffffffffffffffffffffffffffffffffffffff16908060020160149054906101000a900460ff16908060020160159054906101000a900460ff1690806003018054600181600116156101000203166002900480601f01602080910402602001604051908101604052809291908181526020018280546001816001161561010002031660029004801561439d5780601f106143725761010080835404028352916020019161439d565b820191906000526020600020905b81548152906001019060200180831161438057829003601f168201915b5050505050908060040160009054906101000a900473ffffffffffffffffffffffffffffffffffffffff16908060050154908060060160009054906101000a900460ff1690806007015490806008015490508b565b60006143fc615dde565b601260008773ffffffffffffffffffffffffffffffffffffffff1673ffffffffffffffffffffffffffffffffffffffff16815260200190815260200160002061016060405190810160405290816000820160009054906101000a900473ffffffffffffffffffffffffffffffffffffffff1673ffffffffffffffffffffffffffffffffffffffff1673ffffffffffffffffffffffffffffffffffffffff168152602001600182015481526020016002820160009054906101000a900473ffffffffffffffffffffffffffffffffffffffff1673ffffffffffffffffffffffffffffffffffffffff1673ffffffffffffffffffffffffffffffffffffffff1681526020016002820160149054906101000a900460ff161515151581526020016002820160159054906101000a900460ff16151515158152602001600382018054600181600116156101000203166002900480601f0160208091040260200160405190810160405280929190818152602001828054600181600116156101000203166002900480156145cd5780601f106145a2576101008083540402835291602001916145cd565b820191906000526020600020905b8154815290600101906020018083116145b057829003601f168201915b505050505081526020016004820160009054906101000a900473ffffffffffffffffffffffffffffffffffffffff1673ffffffffffffffffffffffffffffffffffffffff1673ffffffffffffffffffffffffffffffffffffffff168152602001600582015481526020016006820160009054906101000a900460ff16600781111561465457fe5b600781111561465f57fe5b8152602001600782015481526020016008820154815250509050806080015115801561468d57508060600151155b151561469857600080fd5b6146a386858561508d565b600660009054906101000a900473ffffffffffffffffffffffffffffffffffffffff1673ffffffffffffffffffffffffffffffffffffffff1663078f4ca2308888888860066040518763ffffffff167c0100000000000000000000000000000000000000000000000000000000028152600401808773ffffffffffffffffffffffffffffffffffffffff1673ffffffffffffffffffffffffffffffffffffffff1681526020018673ffffffffffffffffffffffffffffffffffffffff1673ffffffffffffffffffffffffffffffffffffffff168152602001806020018573ffffffffffffffffffffffffffffffffffffffff1673ffffffffffffffffffffffffffffffffffffffff1681526020018481526020018360078111156147c357fe5b60ff168152602001828103825286818151815260200191508051906020019080838360005b838110156148035780820151818401526020810190506147e8565b50505050905090810190601f1680156148305780820380516001836020036101000a031916815260200191505b50975050505050505050600060405180830381600087803b15801561485457600080fd5b505af1158015614868573d6000803e3d6000fd5b505050506001915050949350505050565b600082821115151561488757fe5b818303905092915050565b600081830190508281101515156148a557fe5b80905092915050565b6000808314156148c157600090506148e0565b81830290508183828115156148d257fe5b041415156148dc57fe5b8090505b92915050565b6148ee615dde565b6000806000601260003373ffffffffffffffffffffffffffffffffffffffff1673ffffffffffffffffffffffffffffffffffffffff16815260200190815260200160002061016060405190810160405290816000820160009054906101000a900473ffffffffffffffffffffffffffffffffffffffff1673ffffffffffffffffffffffffffffffffffffffff1673ffffffffffffffffffffffffffffffffffffffff168152602001600182015481526020016002820160009054906101000a900473ffffffffffffffffffffffffffffffffffffffff1673ffffffffffffffffffffffffffffffffffffffff1673ffffffffffffffffffffffffffffffffffffffff1681526020016002820160149054906101000a900460ff161515151581526020016002820160159054906101000a900460ff16151515158152602001600382018054600181600116156101000203166002900480601f016020809104026020016040519081016040528092919081815260200182805460018160011615610100020316600290048015614ac45780601f10614a9957610100808354040283529160200191614ac4565b820191906000526020600020905b815481529060010190602001808311614aa757829003601f168201915b505050505081526020016004820160009054906101000a900473ffffffffffffffffffffffffffffffffffffffff1673ffffffffffffffffffffffffffffffffffffffff1673ffffffffffffffffffffffffffffffffffffffff168152602001600582015481526020016006820160009054906101000a900460ff166007811115614b4b57fe5b6007811115614b5657fe5b8152602001600782015481526020016008820154815250509350600184606001901515908115158152505083601260003373ffffffffffffffffffffffffffffffffffffffff1673ffffffffffffffffffffffffffffffffffffffff16815260200190815260200160002060008201518160000160006101000a81548173ffffffffffffffffffffffffffffffffffffffff021916908373ffffffffffffffffffffffffffffffffffffffff1602179055506020820151816001015560408201518160020160006101000a81548173ffffffffffffffffffffffffffffffffffffffff021916908373ffffffffffffffffffffffffffffffffffffffff16021790555060608201518160020160146101000a81548160ff02191690831515021790555060808201518160020160156101000a81548160ff02191690831515021790555060a0820151816003019080519060200190614cb5929190615e8a565b5060c08201518160040160006101000a81548173ffffffffffffffffffffffffffffffffffffffff021916908373ffffffffffffffffffffffffffffffffffffffff16021790555060e082015181600501556101008201518160060160006101000a81548160ff02191690836007811115614d2c57fe5b021790555061012082015181600701556101408201518160080155905050614d578460200151615be6565b9250602160009054906101000a900473ffffffffffffffffffffffffffffffffffffffff1673ffffffffffffffffffffffffffffffffffffffff166108fc849081150290604051600060405180830381858888f19350505050158015614dc1573d6000803e3d6000fd5b5083602001519150614df16064614de3846024546148ae90919063ffffffff16565b61507790919063ffffffff16565b9050600760009054906101000a900473ffffffffffffffffffffffffffffffffffffffff1673ffffffffffffffffffffffffffffffffffffffff166108fc614e5483614e46878761487990919063ffffffff16565b61487990919063ffffffff16565b9081150290604051600060405180830381858888f19350505050158015614e7f573d6000803e3d6000fd5b50600660009054906101000a900473ffffffffffffffffffffffffffffffffffffffff1673ffffffffffffffffffffffffffffffffffffffff1663388f32c83086604001518760a001518860c001518960e001518a61010001516040518763ffffffff167c0100000000000000000000000000000000000000000000000000000000028152600401808773ffffffffffffffffffffffffffffffffffffffff1673ffffffffffffffffffffffffffffffffffffffff1681526020018673ffffffffffffffffffffffffffffffffffffffff1673ffffffffffffffffffffffffffffffffffffffff168152602001806020018573ffffffffffffffffffffffffffffffffffffffff1673ffffffffffffffffffffffffffffffffffffffff168152602001848152602001836007811115614fb457fe5b60ff168152602001828103825286818151815260200191508051906020019080838360005b83811015614ff4578082015181840152602081019050614fd9565b50505050905090810190601f1680156150215780820380516001836020036101000a031916815260200191505b50975050505050505050600060405180830381600087803b15801561504557600080fd5b505af1158015615059573d6000803e3d6000fd5b5050505050505050565b600061506f8383615c31565b905092915050565b6000818381151561508457fe5b04905092915050565b615095615dde565b601260008573ffffffffffffffffffffffffffffffffffffffff1673ffffffffffffffffffffffffffffffffffffffff16815260200190815260200160002061016060405190810160405290816000820160009054906101000a900473ffffffffffffffffffffffffffffffffffffffff1673ffffffffffffffffffffffffffffffffffffffff1673ffffffffffffffffffffffffffffffffffffffff168152602001600182015481526020016002820160009054906101000a900473ffffffffffffffffffffffffffffffffffffffff1673ffffffffffffffffffffffffffffffffffffffff1673ffffffffffffffffffffffffffffffffffffffff1681526020016002820160149054906101000a900460ff161515151581526020016002820160159054906101000a900460ff16151515158152602001600382018054600181600116156101000203166002900480601f0160208091040260200160405190810160405280929190818152602001828054600181600116156101000203166002900480156152665780601f1061523b57610100808354040283529160200191615266565b820191906000526020600020905b81548152906001019060200180831161524957829003601f168201915b505050505081526020016004820160009054906101000a900473ffffffffffffffffffffffffffffffffffffffff1673ffffffffffffffffffffffffffffffffffffffff1673ffffffffffffffffffffffffffffffffffffffff168152602001600582015481526020016006820160009054906101000a900460ff1660078111156152ed57fe5b60078111156152f857fe5b8152602001600782015481526020016008820154815250509050600181608001901515908115158152505080601260008673ffffffffffffffffffffffffffffffffffffffff1673ffffffffffffffffffffffffffffffffffffffff16815260200190815260200160002060008201518160000160006101000a81548173ffffffffffffffffffffffffffffffffffffffff021916908373ffffffffffffffffffffffffffffffffffffffff1602179055506020820151816001015560408201518160020160006101000a81548173ffffffffffffffffffffffffffffffffffffffff021916908373ffffffffffffffffffffffffffffffffffffffff16021790555060608201518160020160146101000a81548160ff02191690831515021790555060808201518160020160156101000a81548160ff02191690831515021790555060a0820151816003019080519060200190615457929190615e8a565b5060c08201518160040160006101000a81548173ffffffffffffffffffffffffffffffffffffffff021916908373ffffffffffffffffffffffffffffffffffffffff16021790555060e082015181600501556101008201518160060160006101000a81548160ff021916908360078111156154ce57fe5b0217905550610120820151816007015561014082015181600801559050506154f582612cac565b50601a60009054906101000a900473ffffffffffffffffffffffffffffffffffffffff1673ffffffffffffffffffffffffffffffffffffffff1663a9059cbb8561554e601e5485602001516148ae90919063ffffffff16565b6040518363ffffffff167c0100000000000000000000000000000000000000000000000000000000028152600401808373ffffffffffffffffffffffffffffffffffffffff1673ffffffffffffffffffffffffffffffffffffffff16815260200182815260200192505050602060405180830381600087803b1580156155d357600080fd5b505af11580156155e7573d6000803e3d6000fd5b505050506040513d60208110156155fd57600080fd5b8101908080519060200190929190505050151561561957600080fd5b50505050565b60606000806060849250600091505b6001156156ff57600960008473ffffffffffffffffffffffffffffffffffffffff1673ffffffffffffffffffffffffffffffffffffffff16815260200190815260200160002060009054906101000a900473ffffffffffffffffffffffffffffffffffffffff169250600760009054906101000a900473ffffffffffffffffffffffffffffffffffffffff1673ffffffffffffffffffffffffffffffffffffffff168373ffffffffffffffffffffffffffffffffffffffff1614156156f2576156ff565b818060010192505061562e565b8160405190808252806020026020018201604052801561572e5781602001602082028038833980820191505090505b5090508492505b60008211156157f957600960008473ffffffffffffffffffffffffffffffffffffffff1673ffffffffffffffffffffffffffffffffffffffff16815260200190815260200160002060009054906101000a900473ffffffffffffffffffffffffffffffffffffffff1692508180600190039250508281838151811015156157b857fe5b9060200190602002019073ffffffffffffffffffffffffffffffffffffffff16908173ffffffffffffffffffffffffffffffffffffffff1681525050615735565b809350505050919050565b600061580e615dde565b60008311151561581d57600080fd5b601a60009054906101000a900473ffffffffffffffffffffffffffffffffffffffff1673ffffffffffffffffffffffffffffffffffffffff166323b872dd3330866040518463ffffffff167c0100000000000000000000000000000000000000000000000000000000028152600401808473ffffffffffffffffffffffffffffffffffffffff1673ffffffffffffffffffffffffffffffffffffffff1681526020018373ffffffffffffffffffffffffffffffffffffffff1673ffffffffffffffffffffffffffffffffffffffff1681526020018281526020019350505050602060405180830381600087803b15801561591657600080fd5b505af115801561592a573d6000803e3d6000fd5b505050506040513d602081101561594057600080fd5b8101908080519060200190929190505050151561595c57600080fd5b60019150610160604051908101604052808773ffffffffffffffffffffffffffffffffffffffff1681526020018481526020013373ffffffffffffffffffffffffffffffffffffffff1681526020016000151581526020016000151581526020018681526020018573ffffffffffffffffffffffffffffffffffffffff168152602001838152602001600660078111156159f257fe5b8152602001428152602001603c6022540242018152509050816016540360168190555080601260003373ffffffffffffffffffffffffffffffffffffffff1673ffffffffffffffffffffffffffffffffffffffff16815260200190815260200160002060008201518160000160006101000a81548173ffffffffffffffffffffffffffffffffffffffff021916908373ffffffffffffffffffffffffffffffffffffffff1602179055506020820151816001015560408201518160020160006101000a81548173ffffffffffffffffffffffffffffffffffffffff021916908373ffffffffffffffffffffffffffffffffffffffff16021790555060608201518160020160146101000a81548160ff02191690831515021790555060808201518160020160156101000a81548160ff02191690831515021790555060a0820151816003019080519060200190615b49929190615e8a565b5060c08201518160040160006101000a81548173ffffffffffffffffffffffffffffffffffffffff021916908373ffffffffffffffffffffffffffffffffffffffff16021790555060e082015181600501556101008201518160060160006101000a81548160ff02191690836007811115615bc057fe5b021790555061012082015181600701556101408201518160080155905050505050505050565b60008060006023541115615c2657615c1c6064615c0e602354866148ae90919063ffffffff16565b61507790919063ffffffff16565b9050809150615c2b565b600091505b50919050565b60008160165410151515615c4457600080fd5b601760009054906101000a900473ffffffffffffffffffffffffffffffffffffffff1673ffffffffffffffffffffffffffffffffffffffff1660405160200180807f7472616e7366657228616464726573732c75696e74323536290000000000000081525060190190506040516020818303038152906040526040518082805190602001908083835b602083101515615cf25780518252602082019150602081019050602083039250615ccd565b6001836020036101000a03801982511681845116808217855250505050505090500191505060405180910390207c0100000000000000000000000000000000000000000000000000000000900484846040518363ffffffff167c0100000000000000000000000000000000000000000000000000000000028152600401808373ffffffffffffffffffffffffffffffffffffffff1673ffffffffffffffffffffffffffffffffffffffff168152602001828152602001925050506000604051808303816000875af1925050501515615dc957600080fd5b81601654036016819055506001905092915050565b61016060405190810160405280600073ffffffffffffffffffffffffffffffffffffffff16815260200160008152602001600073ffffffffffffffffffffffffffffffffffffffff16815260200160001515815260200160001515815260200160608152602001600073ffffffffffffffffffffffffffffffffffffffff1681526020016000815260200160006007811115615e7657fe5b815260200160008152602001600081525090565b828054600181600116156101000203166002900490600052602060002090601f016020900481019282601f10615ecb57805160ff1916838001178555615ef9565b82800160010185558215615ef9579182015b82811115615ef8578251825591602001919060010190615edd565b5b509050615f069190615f0a565b5090565b615f2c91905b80821115615f28576000816000905550600101615f10565b5090565b905600a165627a7a723058208ca68a0249134bc958d8c3ea283547ae52bc2cdc174f3c01dce5bbb2b444678e0029",
  "source": "pragma solidity ^0.4.24; \n\nimport '../openzeppelin-solidity/contracts/math/SafeMath.sol';\n\nimport './TwoKeyCampaignETH.sol';\nimport './TwoKeyReg.sol';\nimport './TwoKeyEconomy.sol';\nimport './TwoKeyEventSource.sol';\nimport \"./TwoKeyWhitelisted.sol\";\nimport \"./TwoKeyCampaignInventory.sol\";\n\n/// TODO : Do we need crowdsale contract?\ncontract TwoKeyCampaignETHCrowdsale is TwoKeyCampaignETH {\n\n\tusing SafeMath for uint256;\n\n\tconstructor(\n\t\taddress _eventSource,\n\t\taddress _economy,\n\t\taddress _whitelistInfluencer,\n\t\taddress _whitelistConverter,\n\n\t\taddress _contractor,\n\t\taddress _moderator,\n\n\n\t\tuint256 _start,\n\t\tuint256 _duration,\n\t\tuint256 _expiryConversion,\n\t\tuint256 _escrowPrecentage,\n\t\tuint256 _rate,\n\t\tuint256 _maxPi,\n\t\taddress _assetContract) TwoKeyAcquisitionCampaignERC20(\n\t\t_eventSource,\n\t\t_economy,\n\t\t_whitelistInfluencer,\n\t\t_whitelistConverter,\n\t\t_contractor,\n\t\t_moderator,\n\t\t_start,\n\t\t_duration,\n\t\t_expiryConversion,\n\t\t_escrowPrecentage,\n\t\t_rate,\n\t\t_maxPi,\n\t\t_assetContract\n\t) public {\n\t}\n\n\t// buy product with ETH\n\t// We don't need tokenID since campaign sales 1 type of ... We don't need asset contract\n\t// TODO: buyFungibleFromWithEth\n\t// address _from, uint256 _tokenID, address _assetContract, uint256 _amountOrIndex can be removed\n\t// We don't need params, know who's sender and the amount is calculated with msg.value\n//\tfunction buyFromWithETH(address _from, string _assetName, address _assetContract, uint256 _amount) public payable {\n////\t    buyTokens(address(this));\n////\t    require(twoKeyCampaignInventory.addFungibleAsset(_tokenID, _assetContract, _amountOrIndex));\n//\t    buyFromWithETH(_from, _assetName, _assetContract, _amount, CampaignType.CPA_FUNGIBLE);\n//\t}\n\n}\n\n",
  "sourcePath": "/Users/nikolamadjarevic/Desktop/2key/contracts/contracts/2key/TwoKeyCampaignETHCrowdsale.sol",
  "compiler": {
    "name": "solc",
    "version": "0.4.24+commit.e67f0147.Emscripten.clang"
  },
  "schemaVersion": "2.0.1",
  "updatedAt": "2018-09-11T10:00:34.763Z"
}