{
  "contractName": "Utils",
  "abi": [
    {
      "constant": true,
      "inputs": [
        {
          "name": "c",
          "type": "address"
        },
        {
          "name": "_method",
          "type": "bytes"
        },
        {
          "name": "_val",
          "type": "uint256"
        }
      ],
      "name": "call_return",
      "outputs": [
        {
          "name": "answer",
          "type": "uint256"
        }
      ],
      "payable": false,
      "stateMutability": "view",
      "type": "function"
    }
  ],
  "bytecode": "0x608060405234801561001057600080fd5b506101bd806100206000396000f300608060405260043610610041576000357c0100000000000000000000000000000000000000000000000000000000900463ffffffff16806314b1adee14610046575b600080fd5b34801561005257600080fd5b506100d7600480360381019080803573ffffffffffffffffffffffffffffffffffffffff169060200190929190803590602001908201803590602001908080601f0160208091040260200160405190810160405280939291908181526020018383808284378201915050505050509192919290803590602001909291905050506100ed565b6040518082815260200191505060405180910390f35b600080836040518082805190602001908083835b6020831015156101265780518252602082019150602081019050602083039250610101565b6001836020036101000a0380198251168184511680821785525050505050509050019150506040518091039020905060405181815283600482015260208160248360008a613a98f1600081141561017c57600080fd5b815193506024820160405250505093925050505600a165627a7a72305820280e0c1567d6bb591c081ae3de442e9d11aa41f43ff4d2709f8c79915ba6f8cd0029",
  "source": "pragma solidity ^0.4.24;\n\n// Contract which is going to hold util functions\ncontract Utils {\n\n    /// Method implementation which is going to call function from another method and return value\n    function call_return(address c, bytes _method, uint _val) public view returns (uint answer) {\n        // https://medium.com/@blockchain101/calling-the-function-of-another-contract-in-solidity-f9edfa921f4c\n        //    dc = c;\n        bytes4 sig = bytes4(keccak256(_method));\n        assembly {\n        // move pointer to free memory spot\n            let ptr := mload(0x40)\n        // put function sig at memory spot\n            mstore(ptr,sig)\n        // append argument after function sig\n            mstore(add(ptr,0x04), _val)\n\n            let result := call(  // use WARNING because this should be staticcall BUT geth crash!\n            15000, // gas limit\n            c, // sload(dc_slot),  // to addr. append var to _slot to access storage variable\n            0, // not transfer any ether (comment if using staticcall)\n            ptr, // Inputs are stored at location ptr\n            0x24, // Inputs are 0 bytes long\n            ptr,  //Store output over input\n            0x20) //Outputs are 1 bytes long\n\n            if eq(result, 0) {\n                revert(0, 0)\n            }\n\n            answer := mload(ptr) // Assign output to answer var\n            mstore(0x40,add(ptr,0x24)) // Set storage pointer to new space\n        }\n    }\n}\n",
  "sourcePath": "/Users/aydnep/2key/contracts/contracts/2key/Utils.sol",
  "compiler": {
    "name": "solc",
    "version": "0.4.24+commit.e67f0147.Emscripten.clang"
  },
  "schemaVersion": "2.0.1",
  "updatedAt": "2018-09-13T17:01:41.182Z"
}